{
  "_format": "hh-sol-artifact-1",
  "contractName": "RequiemPair",
  "sourceName": "contracts/RequiemPair.sol",
  "abi": [
    {
      "inputs": [],
      "stateMutability": "nonpayable",
      "type": "constructor"
    },
    {
      "anonymous": false,
      "inputs": [
        {
          "indexed": true,
          "internalType": "address",
          "name": "owner",
          "type": "address"
        },
        {
          "indexed": true,
          "internalType": "address",
          "name": "spender",
          "type": "address"
        },
        {
          "indexed": false,
          "internalType": "uint256",
          "name": "value",
          "type": "uint256"
        }
      ],
      "name": "Approval",
      "type": "event"
    },
    {
      "anonymous": false,
      "inputs": [
        {
          "indexed": true,
          "internalType": "address",
          "name": "sender",
          "type": "address"
        },
        {
          "indexed": false,
          "internalType": "uint256",
          "name": "amount0",
          "type": "uint256"
        },
        {
          "indexed": false,
          "internalType": "uint256",
          "name": "amount1",
          "type": "uint256"
        },
        {
          "indexed": true,
          "internalType": "address",
          "name": "to",
          "type": "address"
        }
      ],
      "name": "Burn",
      "type": "event"
    },
    {
      "anonymous": false,
      "inputs": [
        {
          "indexed": true,
          "internalType": "address",
          "name": "sender",
          "type": "address"
        },
        {
          "indexed": false,
          "internalType": "uint256",
          "name": "amount0",
          "type": "uint256"
        },
        {
          "indexed": false,
          "internalType": "uint256",
          "name": "amount1",
          "type": "uint256"
        }
      ],
      "name": "Mint",
      "type": "event"
    },
    {
      "anonymous": false,
      "inputs": [
        {
          "indexed": false,
          "internalType": "uint112",
          "name": "collectedFee0",
          "type": "uint112"
        },
        {
          "indexed": false,
          "internalType": "uint112",
          "name": "collectedFee1",
          "type": "uint112"
        }
      ],
      "name": "PaidProtocolFee",
      "type": "event"
    },
    {
      "anonymous": false,
      "inputs": [
        {
          "indexed": true,
          "internalType": "address",
          "name": "sender",
          "type": "address"
        },
        {
          "indexed": false,
          "internalType": "uint256",
          "name": "amount0In",
          "type": "uint256"
        },
        {
          "indexed": false,
          "internalType": "uint256",
          "name": "amount1In",
          "type": "uint256"
        },
        {
          "indexed": false,
          "internalType": "uint256",
          "name": "amount0Out",
          "type": "uint256"
        },
        {
          "indexed": false,
          "internalType": "uint256",
          "name": "amount1Out",
          "type": "uint256"
        },
        {
          "indexed": true,
          "internalType": "address",
          "name": "to",
          "type": "address"
        }
      ],
      "name": "Swap",
      "type": "event"
    },
    {
      "anonymous": false,
      "inputs": [
        {
          "indexed": false,
          "internalType": "uint112",
          "name": "reserve0",
          "type": "uint112"
        },
        {
          "indexed": false,
          "internalType": "uint112",
          "name": "reserve1",
          "type": "uint112"
        }
      ],
      "name": "Sync",
      "type": "event"
    },
    {
      "anonymous": false,
      "inputs": [
        {
          "indexed": true,
          "internalType": "address",
          "name": "from",
          "type": "address"
        },
        {
          "indexed": true,
          "internalType": "address",
          "name": "to",
          "type": "address"
        },
        {
          "indexed": false,
          "internalType": "uint256",
          "name": "value",
          "type": "uint256"
        }
      ],
      "name": "Transfer",
      "type": "event"
    },
    {
      "inputs": [],
      "name": "DOMAIN_SEPARATOR",
      "outputs": [
        {
          "internalType": "bytes32",
          "name": "",
          "type": "bytes32"
        }
      ],
      "stateMutability": "view",
      "type": "function"
    },
    {
      "inputs": [],
      "name": "MINIMUM_LIQUIDITY",
      "outputs": [
        {
          "internalType": "uint256",
          "name": "",
          "type": "uint256"
        }
      ],
      "stateMutability": "view",
      "type": "function"
    },
    {
      "inputs": [],
      "name": "PERMIT_TYPEHASH",
      "outputs": [
        {
          "internalType": "bytes32",
          "name": "",
          "type": "bytes32"
        }
      ],
      "stateMutability": "view",
      "type": "function"
    },
    {
      "inputs": [
        {
          "internalType": "address",
          "name": "",
          "type": "address"
        },
        {
          "internalType": "address",
          "name": "",
          "type": "address"
        }
      ],
      "name": "allowance",
      "outputs": [
        {
          "internalType": "uint256",
          "name": "",
          "type": "uint256"
        }
      ],
      "stateMutability": "view",
      "type": "function"
    },
    {
      "inputs": [
        {
          "internalType": "address",
          "name": "spender",
          "type": "address"
        },
        {
          "internalType": "uint256",
          "name": "value",
          "type": "uint256"
        }
      ],
      "name": "approve",
      "outputs": [
        {
          "internalType": "bool",
          "name": "",
          "type": "bool"
        }
      ],
      "stateMutability": "nonpayable",
      "type": "function"
    },
    {
      "inputs": [
        {
          "internalType": "address",
          "name": "",
          "type": "address"
        }
      ],
      "name": "balanceOf",
      "outputs": [
        {
          "internalType": "uint256",
          "name": "",
          "type": "uint256"
        }
      ],
      "stateMutability": "view",
      "type": "function"
    },
    {
      "inputs": [
        {
          "internalType": "address",
          "name": "to",
          "type": "address"
        }
      ],
      "name": "burn",
      "outputs": [
        {
          "internalType": "uint256",
          "name": "amount0",
          "type": "uint256"
        },
        {
          "internalType": "uint256",
          "name": "amount1",
          "type": "uint256"
        }
      ],
      "stateMutability": "nonpayable",
      "type": "function"
    },
    {
      "inputs": [
        {
          "internalType": "address",
          "name": "tokenIn",
          "type": "address"
        },
        {
          "internalType": "address",
          "name": "tokenOut",
          "type": "address"
        },
        {
          "internalType": "uint256",
          "name": "amountIn",
          "type": "uint256"
        }
      ],
      "name": "calculateSwapGivenIn",
      "outputs": [
        {
          "internalType": "uint256",
          "name": "",
          "type": "uint256"
        }
      ],
      "stateMutability": "view",
      "type": "function"
    },
    {
      "inputs": [
        {
          "internalType": "address",
          "name": "tokenIn",
          "type": "address"
        },
        {
          "internalType": "address",
          "name": "tokenOut",
          "type": "address"
        },
        {
          "internalType": "uint256",
          "name": "amountOut",
          "type": "uint256"
        }
      ],
      "name": "calculateSwapGivenOut",
      "outputs": [
        {
          "internalType": "uint256",
          "name": "",
          "type": "uint256"
        }
      ],
      "stateMutability": "view",
      "type": "function"
    },
    {
      "inputs": [],
      "name": "decimals",
      "outputs": [
        {
          "internalType": "uint8",
          "name": "",
          "type": "uint8"
        }
      ],
      "stateMutability": "view",
      "type": "function"
    },
    {
      "inputs": [],
      "name": "factory",
      "outputs": [
        {
          "internalType": "address",
          "name": "",
          "type": "address"
        }
      ],
      "stateMutability": "view",
      "type": "function"
    },
    {
      "inputs": [],
      "name": "formula",
      "outputs": [
        {
          "internalType": "address",
          "name": "",
          "type": "address"
        }
      ],
      "stateMutability": "view",
      "type": "function"
    },
    {
      "inputs": [],
      "name": "getCollectedFees",
      "outputs": [
        {
          "internalType": "uint112",
          "name": "_collectedFee0",
          "type": "uint112"
        },
        {
          "internalType": "uint112",
          "name": "_collectedFee1",
          "type": "uint112"
        }
      ],
      "stateMutability": "view",
      "type": "function"
    },
    {
      "inputs": [],
      "name": "getReserves",
      "outputs": [
        {
          "internalType": "uint112",
          "name": "_reserve0",
          "type": "uint112"
        },
        {
          "internalType": "uint112",
          "name": "_reserve1",
          "type": "uint112"
        },
        {
          "internalType": "uint32",
          "name": "_blockTimestampLast",
          "type": "uint32"
        }
      ],
      "stateMutability": "view",
      "type": "function"
    },
    {
      "inputs": [],
      "name": "getSwapFee",
      "outputs": [
        {
          "internalType": "uint32",
          "name": "_swapFee",
          "type": "uint32"
        }
      ],
      "stateMutability": "view",
      "type": "function"
    },
    {
      "inputs": [],
      "name": "getTokenWeights",
      "outputs": [
        {
          "internalType": "uint32",
          "name": "_tokenWeight0",
          "type": "uint32"
        },
        {
          "internalType": "uint32",
          "name": "_tokenWeight1",
          "type": "uint32"
        }
      ],
      "stateMutability": "view",
      "type": "function"
    },
    {
      "inputs": [
        {
          "internalType": "address",
          "name": "_token0",
          "type": "address"
        },
        {
          "internalType": "address",
          "name": "_token1",
          "type": "address"
        },
        {
          "internalType": "uint32",
          "name": "_tokenWeight0",
          "type": "uint32"
        },
        {
          "internalType": "uint32",
          "name": "_swapFee",
          "type": "uint32"
        }
      ],
      "name": "initialize",
      "outputs": [],
      "stateMutability": "nonpayable",
      "type": "function"
    },
    {
      "inputs": [
        {
          "internalType": "address",
          "name": "to",
          "type": "address"
        }
      ],
      "name": "mint",
      "outputs": [
        {
          "internalType": "uint256",
          "name": "liquidity",
          "type": "uint256"
        }
      ],
      "stateMutability": "nonpayable",
      "type": "function"
    },
    {
      "inputs": [],
      "name": "name",
      "outputs": [
        {
          "internalType": "string",
          "name": "",
          "type": "string"
        }
      ],
      "stateMutability": "view",
      "type": "function"
    },
    {
      "inputs": [
        {
          "internalType": "address",
          "name": "",
          "type": "address"
        }
      ],
      "name": "nonces",
      "outputs": [
        {
          "internalType": "uint256",
          "name": "",
          "type": "uint256"
        }
      ],
      "stateMutability": "view",
      "type": "function"
    },
    {
      "inputs": [
        {
          "internalType": "address",
          "name": "tokenIn",
          "type": "address"
        },
        {
          "internalType": "address",
          "name": "tokenOut",
          "type": "address"
        },
        {
          "internalType": "uint256",
          "name": "amountIn",
          "type": "uint256"
        },
        {
          "internalType": "uint256",
          "name": "amountOutMin",
          "type": "uint256"
        },
        {
          "internalType": "address",
          "name": "to",
          "type": "address"
        }
      ],
      "name": "onSwapGivenIn",
      "outputs": [
        {
          "internalType": "uint256",
          "name": "",
          "type": "uint256"
        }
      ],
      "stateMutability": "nonpayable",
      "type": "function"
    },
    {
      "inputs": [
        {
          "internalType": "address",
          "name": "tokenIn",
          "type": "address"
        },
        {
          "internalType": "address",
          "name": "tokenOut",
          "type": "address"
        },
        {
          "internalType": "uint256",
          "name": "amountOut",
          "type": "uint256"
        },
        {
          "internalType": "uint256",
          "name": "amountInMax",
          "type": "uint256"
        },
        {
          "internalType": "address",
          "name": "to",
          "type": "address"
        }
      ],
      "name": "onSwapGivenOut",
      "outputs": [
        {
          "internalType": "uint256",
          "name": "",
          "type": "uint256"
        }
      ],
      "stateMutability": "nonpayable",
      "type": "function"
    },
    {
      "inputs": [
        {
          "internalType": "address",
          "name": "owner",
          "type": "address"
        },
        {
          "internalType": "address",
          "name": "spender",
          "type": "address"
        },
        {
          "internalType": "uint256",
          "name": "value",
          "type": "uint256"
        },
        {
          "internalType": "uint256",
          "name": "deadline",
          "type": "uint256"
        },
        {
          "internalType": "uint8",
          "name": "v",
          "type": "uint8"
        },
        {
          "internalType": "bytes32",
          "name": "r",
          "type": "bytes32"
        },
        {
          "internalType": "bytes32",
          "name": "s",
          "type": "bytes32"
        }
      ],
      "name": "permit",
      "outputs": [],
      "stateMutability": "nonpayable",
      "type": "function"
    },
    {
      "inputs": [],
      "name": "price0CumulativeLast",
      "outputs": [
        {
          "internalType": "uint256",
          "name": "",
          "type": "uint256"
        }
      ],
      "stateMutability": "view",
      "type": "function"
    },
    {
      "inputs": [],
      "name": "price1CumulativeLast",
      "outputs": [
        {
          "internalType": "uint256",
          "name": "",
          "type": "uint256"
        }
      ],
      "stateMutability": "view",
      "type": "function"
    },
    {
      "inputs": [
        {
          "internalType": "address",
          "name": "to",
          "type": "address"
        }
      ],
      "name": "skim",
      "outputs": [],
      "stateMutability": "nonpayable",
      "type": "function"
    },
    {
      "inputs": [
        {
          "internalType": "uint256",
          "name": "amount0Out",
          "type": "uint256"
        },
        {
          "internalType": "uint256",
          "name": "amount1Out",
          "type": "uint256"
        },
        {
          "internalType": "address",
          "name": "to",
          "type": "address"
        },
        {
          "internalType": "bytes",
          "name": "data",
          "type": "bytes"
        }
      ],
      "name": "swap",
      "outputs": [],
      "stateMutability": "nonpayable",
      "type": "function"
    },
    {
      "inputs": [],
      "name": "symbol",
      "outputs": [
        {
          "internalType": "string",
          "name": "",
          "type": "string"
        }
      ],
      "stateMutability": "view",
      "type": "function"
    },
    {
      "inputs": [],
      "name": "sync",
      "outputs": [],
      "stateMutability": "nonpayable",
      "type": "function"
    },
    {
      "inputs": [],
      "name": "token0",
      "outputs": [
        {
          "internalType": "address",
          "name": "",
          "type": "address"
        }
      ],
      "stateMutability": "view",
      "type": "function"
    },
    {
      "inputs": [],
      "name": "token1",
      "outputs": [
        {
          "internalType": "address",
          "name": "",
          "type": "address"
        }
      ],
      "stateMutability": "view",
      "type": "function"
    },
    {
      "inputs": [],
      "name": "totalSupply",
      "outputs": [
        {
          "internalType": "uint256",
          "name": "",
          "type": "uint256"
        }
      ],
      "stateMutability": "view",
      "type": "function"
    },
    {
      "inputs": [
        {
          "internalType": "address",
          "name": "to",
          "type": "address"
        },
        {
          "internalType": "uint256",
          "name": "value",
          "type": "uint256"
        }
      ],
      "name": "transfer",
      "outputs": [
        {
          "internalType": "bool",
          "name": "",
          "type": "bool"
        }
      ],
      "stateMutability": "nonpayable",
      "type": "function"
    },
    {
      "inputs": [
        {
          "internalType": "address",
          "name": "from",
          "type": "address"
        },
        {
          "internalType": "address",
          "name": "to",
          "type": "address"
        },
        {
          "internalType": "uint256",
          "name": "value",
          "type": "uint256"
        }
      ],
      "name": "transferFrom",
      "outputs": [
        {
          "internalType": "bool",
          "name": "",
          "type": "bool"
        }
      ],
      "stateMutability": "nonpayable",
      "type": "function"
    }
  ],
  "bytecode": "0x60806040526001600b5534801561001557600080fd5b50604080518082018252601a81527f5265717569656d204c69717569646974792050726f76696465720000000000006020918201528151808301835260018152603160f81b9082015281517f8b73c3c69bb8fe3d512ecc4cf759cc79239f7b179b0ffacaa9a75d522b39400f818301527f2e1adfbb118fada029d9623aa0ed8dd2318a25545f57095be55dcbd209508e12818401527fc89efdaa54c0f20c7adf612882df0950f5a951637e0307cdcb4c672f298b8bc660608201524660808201523060a0808301919091528351808303909101815260c09091019092528151910120600355600580546001600160a01b03191633179055613c798061011b6000396000f3fe608060405234801561001057600080fd5b50600436106102265760003560e01c806370a082311161012a578063cc56fd43116100bd578063d505accf1161008c578063dd62ed3e11610071578063dd62ed3e146105bd578063e9255bae146105e8578063fff6cae9146105fb57600080fd5b8063d505accf1461056e578063d54a8d181461058157600080fd5b8063cc56fd431461050f578063d0f6957914610522578063d21220a714610535578063d4cadf681461054857600080fd5b8063a9059cbb116100f9578063a9059cbb146104cd578063ba9a7a56146104e0578063bc25cf77146104e9578063c45a0155146104fc57600080fd5b806370a08231146104295780637ecebe001461044957806389afcb441461046957806395d89b411461049157600080fd5b806330adf81f116101bd5780634ac00e031161018c5780635909c0d5116101715780635909c0d5146104045780635a3d54931461040d5780636a6278421461041657600080fd5b80634ac00e03146103de5780634b75f54f146103f157600080fd5b806330adf81f1461036a578063313ce5671461039157806332bfe469146103ab5780633644e515146103d557600080fd5b80630dfe1681116101f95780630dfe1681146103025780630e6d8bce1461032d57806318160ddd1461034e57806323b872dd1461035757600080fd5b8063022c0d9f1461022b57806306fdde03146102405780630902f1ac14610292578063095ea7b3146102df575b600080fd5b61023e61023936600461362b565b610603565b005b61027c6040518060400160405280601a81526020017f5265717569656d204c69717569646974792050726f766964657200000000000081525081565b60405161028991906136f1565b60405180910390f35b600854604080516dffffffffffffffffffffffffffff80841682526e0100000000000000000000000000008404166020820152600160e01b90920463ffffffff1690820152606001610289565b6102f26102ed366004613742565b610e0c565b6040519015158152602001610289565b600654610315906001600160a01b031681565b6040516001600160a01b039091168152602001610289565b61034061033b36600461376e565b610e22565b604051908152602001610289565b61034060005481565b6102f26103653660046137cd565b611050565b6103407f6e71edae12b1b97f4d1f60370fef10105fa2faae0126114a169c64845d6126c981565b610399601281565b60405160ff9091168152602001610289565b600d54600e5460408051600160e01b90930463ffffffff9081168452909116602083015201610289565b61034060035481565b6103406103ec36600461376e565b611102565b600c54610315906001600160a01b031681565b61034060095481565b610340600a5481565b61034061042436600461380e565b6112b3565b61034061043736600461380e565b60016020526000908152604090205481565b61034061045736600461380e565b60046020526000908152604090205481565b61047c61047736600461380e565b6115cd565b60408051928352602083019190915201610289565b61027c6040518060400160405280600381526020017f524c50000000000000000000000000000000000000000000000000000000000081525081565b6102f26104db366004613742565b61196c565b6103406103e881565b61023e6104f736600461380e565b611979565b600554610315906001600160a01b031681565b61034061051d3660046137cd565b611ad6565b61023e61053036600461383f565b611c66565b600754610315906001600160a01b031681565b600e54640100000000900463ffffffff1660405163ffffffff9091168152602001610289565b61023e61057c366004613897565b611e58565b600d54604080516dffffffffffffffffffffffffffff80841682526e010000000000000000000000000000909304909216602083015201610289565b6103406105cb36600461390e565b600260209081526000928352604080842090915290825290205481565b6103406105f63660046137cd565b6120ce565b61023e612215565b600b5460011461065a5760405162461bcd60e51b815260206004820152600d60248201527f5245514c503a204c4f434b45440000000000000000000000000000000000000060448201526064015b60405180910390fd5b6000600b558415158061066d5750600084115b6106df5760405162461bcd60e51b815260206004820152602160248201527f5245514c503a20494e53554646494349454e545f4f55545055545f414d4f554e60448201527f54000000000000000000000000000000000000000000000000000000000000006064820152608401610651565b6008546dffffffffffffffffffffffffffff808216916e01000000000000000000000000000090041681871080156107265750806dffffffffffffffffffffffffffff1686105b6107725760405162461bcd60e51b815260206004820152601d60248201527f5245514c503a20494e53554646494349454e545f4c49515549444954590000006044820152606401610651565b60065460075460009182916001600160a01b039182169190811690891682148015906107b05750806001600160a01b0316896001600160a01b031614155b6107fc5760405162461bcd60e51b815260206004820152601160248201527f5245514c503a20494e56414c49445f544f0000000000000000000000000000006044820152606401610651565b8a1561080d5761080d828a8d61237b565b891561081e5761081e818a8c61237b565b86156108a4576040517f10d1e85c0000000000000000000000000000000000000000000000000000000081526001600160a01b038a16906310d1e85c906108719033908f908f908e908e90600401613947565b600060405180830381600087803b15801561088b57600080fd5b505af115801561089f573d6000803e3d6000fd5b505050505b6040516370a0823160e01b81523060048201526001600160a01b038316906370a0823190602401602060405180830381865afa1580156108e8573d6000803e3d6000fd5b505050506040513d601f19601f8201168201806040525081019061090c91906139b2565b6040516370a0823160e01b81523060048201529094506001600160a01b038216906370a0823190602401602060405180830381865afa158015610953573d6000803e3d6000fd5b505050506040513d601f19601f8201168201806040525081019061097791906139b2565b92505050600089856dffffffffffffffffffffffffffff1661099991906139fa565b83116109a65760006109ca565b6109c08a6dffffffffffffffffffffffffffff87166139fa565b6109ca90846139fa565b905060006109e88a6dffffffffffffffffffffffffffff87166139fa565b83116109f5576000610a19565b610a0f8a6dffffffffffffffffffffffffffff87166139fa565b610a1990846139fa565b90506000821180610a2a5750600081115b610a765760405162461bcd60e51b815260206004820181905260248201527f5245514c503a20494e53554646494349454e545f494e5055545f414d4f554e546044820152606401610651565b6000610a84856127106124f4565b90506000610a94856127106124f4565b90508315610b2c57600e54600090610abf90869063ffffffff6401000000009091048116906124f416565b9050610acb8382612507565b600d54909350610aeb906dffffffffffffffffffffffffffff1682612515565b600d80547fffffffffffffffffffffffffffffffffffff0000000000000000000000000000166dffffffffffffffffffffffffffff92909216919091179055505b8215610bc957600e54600090610b5590859063ffffffff6401000000009091048116906124f416565b9050610b618282612507565b600d54909250610b93906e01000000000000000000000000000090046dffffffffffffffffffffffffffff1682612515565b600d600e6101000a8154816dffffffffffffffffffffffffffff02191690836dffffffffffffffffffffffffffff160217905550505b600d54600160e01b900463ffffffff166032811415610c6a57610c0d6305f5e100610c076dffffffffffffffffffffffffffff8c8116908c166124f4565b906124f4565b610c1784846124f4565b1015610c655760405162461bcd60e51b815260206004820152600860248201527f5245514c503a204b0000000000000000000000000000000000000000000000006044820152606401610651565b610d96565b600c546001600160a01b03166379c91b37610c976dffffffffffffffffffffffffffff8c166127106124f4565b610cb36dffffffffffffffffffffffffffff8c166127106124f4565b6040517fffffffff0000000000000000000000000000000000000000000000000000000060e085901b16815260048101929092526024820152604481018690526064810185905263ffffffff8416608482015260a401602060405180830381865afa158015610d26573d6000803e3d6000fd5b505050506040513d601f19601f82011682018060405250810190610d4a9190613a11565b610d965760405162461bcd60e51b815260206004820152600860248201527f5245514c503a204b0000000000000000000000000000000000000000000000006044820152606401610651565b505050610da584848888612532565b60408051838152602081018390529081018c9052606081018b90526001600160a01b038a169033907fd78ad95fa46c994b6551d0da85fc275fe613ce37657fb8d5e3d130840159d8229060800160405180910390a350506001600b55505050505050505050565b6000610e19338484612831565b50600192915050565b6000600b54600114610e765760405162461bcd60e51b815260206004820152600d60248201527f5245514c503a204c4f434b4544000000000000000000000000000000000000006044820152606401610651565b6000600b8190556006546001600160a01b038881169116149080808084610edc57600854600e54600d546dffffffffffffffffffffffffffff6e0100000000000000000000000000008404811693169163ffffffff90811691600160e01b900416610f1e565b600854600d54600e546dffffffffffffffffffffffffffff808416936e0100000000000000000000000000009004169163ffffffff600160e01b909104811691165b600c54600e546040517fb19210b00000000000000000000000000000000000000000000000000000000081526dffffffffffffffffffffffffffff9687169a5094909516975091955093506000926001600160a01b039091169163b19210b091610fd3918e918a918a918a918a9163ffffffff64010000000090910416906004019586526020860194909452604085019290925263ffffffff908116606085015290811660808401521660a082015260c00190565b602060405180830381865afa158015610ff0573d6000803e3d6000fd5b505050506040513d601f19601f8201168201806040525081019061101491906139b2565b9050600080876110265782600061102a565b6000835b9150915061103982828c612893565b6001600b559e9d5050505050505050505050505050565b6001600160a01b03831660009081526002602090815260408083203384529091528120547fffffffffffffffffffffffffffffffffffffffffffffffffffffffffffffffff146110ed576001600160a01b03841660009081526002602090815260408083203384529091529020546110c89083612507565b6001600160a01b03851660009081526002602090815260408083203384529091529020555b6110f8848484612fc2565b5060019392505050565b6000600b546001146111565760405162461bcd60e51b815260206004820152600d60248201527f5245514c503a204c4f434b4544000000000000000000000000000000000000006044820152606401610651565b6000600b8190556006546001600160a01b0388811691161490808080846111bc57600854600e54600d546dffffffffffffffffffffffffffff6e0100000000000000000000000000008404811693169163ffffffff90811691600160e01b9004166111fe565b600854600d54600e546dffffffffffffffffffffffffffff808416936e0100000000000000000000000000009004169163ffffffff600160e01b909104811691165b600c54600e546040517f671a11b50000000000000000000000000000000000000000000000000000000081526dffffffffffffffffffffffffffff9687169a5094909516975091955093506000926001600160a01b039091169163671a11b591610fd3918e918a918a918a918a9163ffffffff64010000000090910416906004019586526020860194909452604085019290925263ffffffff908116606085015290811660808401521660a082015260c00190565b6000600b546001146113075760405162461bcd60e51b815260206004820152600d60248201527f5245514c503a204c4f434b4544000000000000000000000000000000000000006044820152606401610651565b6000600b819055600854600654604080516370a0823160e01b815230600482015290516dffffffffffffffffffffffffffff808516956e0100000000000000000000000000009095041693926001600160a01b0316916370a082319160248083019260209291908290030181865afa158015611387573d6000803e3d6000fd5b505050506040513d601f19601f820116820180604052508101906113ab91906139b2565b6007546040516370a0823160e01b81523060048201529192506000916001600160a01b03909116906370a0823190602401602060405180830381865afa1580156113f9573d6000803e3d6000fd5b505050506040513d601f19601f8201168201806040525081019061141d91906139b2565b9050600061143b836dffffffffffffffffffffffffffff8716612507565b90506000611459836dffffffffffffffffffffffffffff8716612507565b90506114658686613068565b50600054806114a05761148c6103e861148661148186866124f4565b61339e565b90612507565b975061149b60006103e861340e565b6114f5565b6114f26dffffffffffffffffffffffffffff88166114be85846124f4565b6114c89190613a62565b6dffffffffffffffffffffffffffff88166114e385856124f4565b6114ed9190613a62565b61349d565b97505b6000881161156a5760405162461bcd60e51b8152602060048201526024808201527f5245514c503a20494e53554646494349454e545f4c49515549444954595f4d4960448201527f4e544544000000000000000000000000000000000000000000000000000000006064820152608401610651565b611574898961340e565b61158085858989612532565b604080518481526020810184905233917f4c209b5fc8ad50758f13e2e1088ba56a560dff690a1c6fef26394f4c03821c4f910160405180910390a250506001600b55509395945050505050565b600080600b546001146116225760405162461bcd60e51b815260206004820152600d60248201527f5245514c503a204c4f434b4544000000000000000000000000000000000000006044820152606401610651565b6000600b819055600854600654600754604080516370a0823160e01b815230600482015290516dffffffffffffffffffffffffffff808616966e01000000000000000000000000000090960416946001600160a01b0394851694909316929184916370a08231916024808201926020929091908290030181865afa1580156116ae573d6000803e3d6000fd5b505050506040513d601f19601f820116820180604052508101906116d291906139b2565b6040516370a0823160e01b81523060048201529091506000906001600160a01b038416906370a0823190602401602060405180830381865afa15801561171c573d6000803e3d6000fd5b505050506040513d601f19601f8201168201806040525081019061174091906139b2565b3060009081526001602052604090205490915061175d8787613068565b506000548061176c83866124f4565b6117769190613a62565b99508061178383856124f4565b61178d9190613a62565b985060008a11801561179f5750600089115b6118105760405162461bcd60e51b8152602060048201526024808201527f5245514c503a20494e53554646494349454e545f4c49515549444954595f425560448201527f524e4544000000000000000000000000000000000000000000000000000000006064820152608401610651565b61181a30836134b3565b611825868c8c61237b565b611830858c8b61237b565b6040516370a0823160e01b81523060048201526001600160a01b038716906370a0823190602401602060405180830381865afa158015611874573d6000803e3d6000fd5b505050506040513d601f19601f8201168201806040525081019061189891906139b2565b6040516370a0823160e01b81523060048201529094506001600160a01b038616906370a0823190602401602060405180830381865afa1580156118df573d6000803e3d6000fd5b505050506040513d601f19601f8201168201806040525081019061190391906139b2565b925061191184848a8a612532565b604080518b8152602081018b90526001600160a01b038d169133917fdccd412f0b1252819cb1fd330b93224ca42612892bb3f4f789976e6d81936496910160405180910390a350505050505050506001600b81905550915091565b6000610e19338484612fc2565b600b546001146119cb5760405162461bcd60e51b815260206004820152600d60248201527f5245514c503a204c4f434b4544000000000000000000000000000000000000006044820152606401610651565b6000600b556006546007546008546040516370a0823160e01b81523060048201526001600160a01b039384169390921691611a6d9184918691611a68916dffffffffffffffffffffffffffff9091169084906370a08231906024015b602060405180830381865afa158015611a44573d6000803e3d6000fd5b505050506040513d601f19601f8201168201806040525081019061148691906139b2565b61237b565b6008546040516370a0823160e01b8152306004820152611acc9183918691611a68916e0100000000000000000000000000009091046dffffffffffffffffffffffffffff16906001600160a01b038516906370a0823190602401611a27565b50506001600b5550565b60065460009081908190819081906001600160a01b03898116911614611b3b57600854600e54600d546dffffffffffffffffffffffffffff6e0100000000000000000000000000008404811693169163ffffffff90811691600160e01b900416611b7d565b600854600d54600e546dffffffffffffffffffffffffffff808416936e0100000000000000000000000000009004169163ffffffff600160e01b909104811691165b600c54600e546040517fb19210b0000000000000000000000000000000000000000000000000000000008152600481018d90526dffffffffffffffffffffffffffff96871660248201819052959096166044870181905263ffffffff8086166064890152808516608489015264010000000090920490911660a487015293985092965090945092506001600160a01b03169063b19210b09060c4015b602060405180830381865afa158015611c36573d6000803e3d6000fd5b505050506040513d601f19601f82011682018060405250810190611c5a91906139b2565b98975050505050505050565b6005546001600160a01b03163314611cc05760405162461bcd60e51b815260206004820152601060248201527f5245514c503a20464f5242494444454e000000000000000000000000000000006044820152606401610651565b600680547fffffffffffffffffffffffff00000000000000000000000000000000000000009081166001600160a01b038781169190911790925560078054909116918516919091179055600d80547bffffffffffffffffffffffffffffffffffffffffffffffffffffffff16600160e01b63ffffffff85811682029290921792839055611d509204166064613a76565b600e805463ffffffff848116640100000000027fffffffffffffffffffffffffffffffffffffffffffffffff0000000000000000909216931692909217919091179055600554604080517f4b75f54f00000000000000000000000000000000000000000000000000000000815290516001600160a01b0390921691634b75f54f916004818101926020929091908290030181865afa158015611df6573d6000803e3d6000fd5b505050506040513d601f19601f82011682018060405250810190611e1a9190613a9b565b600c80547fffffffffffffffffffffffff0000000000000000000000000000000000000000166001600160a01b039290921691909117905550505050565b42841015611ea85760405162461bcd60e51b815260206004820152600c60248201527f524c503a204558504952454400000000000000000000000000000000000000006044820152606401610651565b6003546001600160a01b038816600090815260046020526040812080549192917f6e71edae12b1b97f4d1f60370fef10105fa2faae0126114a169c64845d6126c9918b918b918b919087611efb83613ab8565b909155506040805160208101969096526001600160a01b0394851690860152929091166060840152608083015260a082015260c0810187905260e00160405160208183030381529060405280519060200120604051602001611f8f9291907f190100000000000000000000000000000000000000000000000000000000000081526002810192909252602282015260420190565b604080517fffffffffffffffffffffffffffffffffffffffffffffffffffffffffffffffe08184030181528282528051602091820120600080855291840180845281905260ff88169284019290925260608301869052608083018590529092509060019060a0016020604051602081039080840390855afa158015612018573d6000803e3d6000fd5b50506040517fffffffffffffffffffffffffffffffffffffffffffffffffffffffffffffffe001519150506001600160a01b0381161580159061206c5750886001600160a01b0316816001600160a01b0316145b6120b85760405162461bcd60e51b815260206004820152601660248201527f524c503a20494e56414c49445f5349474e4154555245000000000000000000006044820152606401610651565b6120c3898989612831565b505050505050505050565b60065460009081908190819081906001600160a01b0389811691161461213357600854600e54600d546dffffffffffffffffffffffffffff6e0100000000000000000000000000008404811693169163ffffffff90811691600160e01b900416612175565b600854600d54600e546dffffffffffffffffffffffffffff808416936e0100000000000000000000000000009004169163ffffffff600160e01b909104811691165b600c54600e546040517f671a11b5000000000000000000000000000000000000000000000000000000008152600481018d90526dffffffffffffffffffffffffffff96871660248201819052959096166044870181905263ffffffff8086166064890152808516608489015264010000000090920490911660a487015293985092965090945092506001600160a01b03169063671a11b59060c401611c19565b600b546001146122675760405162461bcd60e51b815260206004820152600d60248201527f5245514c503a204c4f434b4544000000000000000000000000000000000000006044820152606401610651565b6000600b556006546040516370a0823160e01b8152306004820152612374916001600160a01b0316906370a0823190602401602060405180830381865afa1580156122b6573d6000803e3d6000fd5b505050506040513d601f19601f820116820180604052508101906122da91906139b2565b6007546040516370a0823160e01b81523060048201526001600160a01b03909116906370a0823190602401602060405180830381865afa158015612322573d6000803e3d6000fd5b505050506040513d601f19601f8201168201806040525081019061234691906139b2565b6008546dffffffffffffffffffffffffffff808216916e010000000000000000000000000000900416612532565b6001600b55565b604080518082018252601981527f7472616e7366657228616464726573732c75696e74323536290000000000000060209182015281516001600160a01b0385811660248301526044808301869052845180840390910181526064909201845291810180517bffffffffffffffffffffffffffffffffffffffffffffffffffffffff167fa9059cbb00000000000000000000000000000000000000000000000000000000179052915160009283928716916124359190613af1565b6000604051808303816000865af19150503d8060008114612472576040519150601f19603f3d011682016040523d82523d6000602084013e612477565b606091505b50915091508180156124a15750805115806124a15750808060200190518101906124a19190613a11565b6124ed5760405162461bcd60e51b815260206004820152601660248201527f5245514c503a205452414e534645525f4641494c4544000000000000000000006044820152606401610651565b5050505050565b60006125008284613b0d565b9392505050565b60006125008383600161353d565b6000806125228385613b4a565b9050612500848210156000613561565b600d54600160e01b900463ffffffff166dffffffffffffffffffffffffffff61255c826064613a76565b61256c9063ffffffff1687613b0d565b1115801561259757506dffffffffffffffffffffffffffff61259463ffffffff831686613b0d565b11155b6125e35760405162461bcd60e51b815260206004820152600f60248201527f5245514c503a204f564552464c4f5700000000000000000000000000000000006044820152606401610651565b60006125f464010000000042613b62565b60085490915060009061261490600160e01b900463ffffffff1683613a76565b905060008163ffffffff1611801561263b57506dffffffffffffffffffffffffffff851615155b801561265657506dffffffffffffffffffffffffffff841615155b15612759576000612668846064613a76565b6126789063ffffffff1687613b76565b9050600061268c63ffffffff861687613b76565b90508263ffffffff166126c6836126a284613573565b7bffffffffffffffffffffffffffffffffffffffffffffffffffffffff16906135a4565b7bffffffffffffffffffffffffffffffffffffffffffffffffffffffff166126ee9190613b0d565b600960008282546126ff9190613b4a565b909155505063ffffffff8316612718826126a285613573565b7bffffffffffffffffffffffffffffffffffffffffffffffffffffffff166127409190613b0d565b600a60008282546127519190613b4a565b909155505050505b6008805463ffffffff8416600160e01b027bffffffffffffffffffffffffffffffffffffffffffffffffffffffff6dffffffffffffffffffffffffffff8a81166e0100000000000000000000000000009081027fffffffff000000000000000000000000000000000000000000000000000000009095168d83161794909417918216831794859055604080519382169282169290921783529290930490911660208201527f1c411e9a96e071241c2f21f7726b17ae89e3cab4c78be50e062b03a9fffbbad1910160405180910390a150505050505050565b6001600160a01b0383811660008181526002602090815260408083209487168084529482529182902085905590518481527f8c5be1e5ebec7d5bd14f71427d1e84f3dd0314c0f7b2291e5b200ac8c7c3b92591015b60405180910390a3505050565b6000808411806128a35750600083115b6129155760405162461bcd60e51b815260206004820152602160248201527f5245514c503a20494e53554646494349454e545f4f55545055545f414d4f554e60448201527f54000000000000000000000000000000000000000000000000000000000000006064820152608401610651565b6008546dffffffffffffffffffffffffffff808216916e010000000000000000000000000000900416818610801561295c5750806dffffffffffffffffffffffffffff1685105b6129a85760405162461bcd60e51b815260206004820152601d60248201527f5245514c503a20494e53554646494349454e545f4c49515549444954590000006044820152606401610651565b60065460075460009182916001600160a01b039182169190811690881682148015906129e65750806001600160a01b0316886001600160a01b031614155b612a325760405162461bcd60e51b815260206004820152601160248201527f5245514c503a20494e56414c49445f544f0000000000000000000000000000006044820152606401610651565b8915612a4357612a4382898c61237b565b8815612a5457612a5481898b61237b565b6040516370a0823160e01b81523060048201526001600160a01b038316906370a0823190602401602060405180830381865afa158015612a98573d6000803e3d6000fd5b505050506040513d601f19601f82011682018060405250810190612abc91906139b2565b6040516370a0823160e01b81523060048201529094506001600160a01b038216906370a0823190602401602060405180830381865afa158015612b03573d6000803e3d6000fd5b505050506040513d601f19601f82011682018060405250810190612b2791906139b2565b92505050600088856dffffffffffffffffffffffffffff16612b4991906139fa565b8311612b56576000612b7a565b612b70896dffffffffffffffffffffffffffff87166139fa565b612b7a90846139fa565b90506000612b98896dffffffffffffffffffffffffffff87166139fa565b8311612ba5576000612bc9565b612bbf896dffffffffffffffffffffffffffff87166139fa565b612bc990846139fa565b90506000821180612bda5750600081115b612c265760405162461bcd60e51b815260206004820181905260248201527f5245514c503a20494e53554646494349454e545f494e5055545f414d4f554e546044820152606401610651565b6000612c34856127106124f4565b90506000612c44856127106124f4565b90508315612cdc57600e54600090612c6f90869063ffffffff6401000000009091048116906124f416565b9050612c7b8382612507565b600d54909350612c9b906dffffffffffffffffffffffffffff1682612515565b600d80547fffffffffffffffffffffffffffffffffffff0000000000000000000000000000166dffffffffffffffffffffffffffff92909216919091179055505b8215612d7957600e54600090612d0590859063ffffffff6401000000009091048116906124f416565b9050612d118282612507565b600d54909250612d43906e01000000000000000000000000000090046dffffffffffffffffffffffffffff1682612515565b600d600e6101000a8154816dffffffffffffffffffffffffffff02191690836dffffffffffffffffffffffffffff160217905550505b600d54600160e01b900463ffffffff166032811415612e1457612db76305f5e100610c076dffffffffffffffffffffffffffff8c8116908c166124f4565b612dc184846124f4565b1015612e0f5760405162461bcd60e51b815260206004820152600860248201527f5245514c503a204b0000000000000000000000000000000000000000000000006044820152606401610651565b612f40565b600c546001600160a01b03166379c91b37612e416dffffffffffffffffffffffffffff8c166127106124f4565b612e5d6dffffffffffffffffffffffffffff8c166127106124f4565b6040517fffffffff0000000000000000000000000000000000000000000000000000000060e085901b16815260048101929092526024820152604481018690526064810185905263ffffffff8416608482015260a401602060405180830381865afa158015612ed0573d6000803e3d6000fd5b505050506040513d601f19601f82011682018060405250810190612ef49190613a11565b612f405760405162461bcd60e51b815260206004820152600860248201527f5245514c503a204b0000000000000000000000000000000000000000000000006044820152606401610651565b505050612f4f84848888612532565b60408051838152602081018390529081018b9052606081018a90526001600160a01b0389169033907fd78ad95fa46c994b6551d0da85fc275fe613ce37657fb8d5e3d130840159d8229060800160405180910390a360008a11612fb25788612fb4565b895b9a9950505050505050505050565b6001600160a01b038316600090815260016020526040902054612fe59082612507565b6001600160a01b0380851660009081526001602052604080822093909355908416815220546130149082612515565b6001600160a01b0380841660008181526001602052604090819020939093559151908516907fddf252ad1be2c89b69c2b068fc378daa952ba7f163c4a11628f55a4df523b3ef906128869085815260200190565b600080600560009054906101000a90046001600160a01b03166001600160a01b031663017e7e586040518163ffffffff1660e01b8152600401602060405180830381865afa1580156130be573d6000803e3d6000fd5b505050506040513d601f19601f820116820180604052508101906130e29190613a9b565b90506000600560009054906101000a90046001600160a01b03166001600160a01b031663b0e21e8a6040518163ffffffff1660e01b8152600401602060405180830381865afa158015613139573d6000803e3d6000fd5b505050506040513d601f19601f8201168201806040525081019061315d91906139b2565b6001600160a01b0383161515935090506000806131a0600d546dffffffffffffffffffffffffffff808216926e0100000000000000000000000000009092041690565b915091506000836dffffffffffffffffffffffffffff161180156131c15750845b80156131f757506000826dffffffffffffffffffffffffffff1611806131f757506000816dffffffffffffffffffffffffffff16115b1561331657600d54600c5460008054600160e01b90930463ffffffff169290916001600160a01b0316906392aec23c908b8b86613235816064613a76565b61323f8c8c613bac565b6132498d8c613bac565b6040517fffffffff0000000000000000000000000000000000000000000000000000000060e08a901b16815260048101979097526dffffffffffffffffffffffffffff9586166024880152938516604487015263ffffffff928316606487015291166084850152821660a48401521660c482015260e401602060405180830381865afa1580156132dd573d6000803e3d6000fd5b505050506040513d601f19601f8201168201806040525081019061330191906139b2565b9050801561331357613313868261340e565b50505b6dffffffffffffffffffffffffffff82161561335557600d80547fffffffffffffffffffffffffffffffffffff00000000000000000000000000001690555b6dffffffffffffffffffffffffffff81161561339457600d80547fffffffff0000000000000000000000000000ffffffffffffffffffffffffffff1690555b5050505092915050565b600060038211156133ff57508060006133b8600283613a62565b6133c3906001613b4a565b90505b818110156133f9579050806002816133de8186613a62565b6133e89190613b4a565b6133f29190613a62565b90506133c6565b50919050565b8115613409575060015b919050565b60005461341b9082612515565b60009081556001600160a01b0383168152600160205260409020546134409082612515565b6001600160a01b0383166000818152600160205260408082209390935591519091907fddf252ad1be2c89b69c2b068fc378daa952ba7f163c4a11628f55a4df523b3ef906134919085815260200190565b60405180910390a35050565b60008183106134ac5781612500565b5090919050565b6001600160a01b0382166000908152600160205260409020546134d69082612507565b6001600160a01b038316600090815260016020526040812091909155546134fd9082612507565b60009081556040518281526001600160a01b038416907fddf252ad1be2c89b69c2b068fc378daa952ba7f163c4a11628f55a4df523b3ef90602001613491565b600061354c8484111583613561565b600061355884866139fa565b95945050505050565b8161356f5761356f816135c0565b5050565b600061359e6e0100000000000000000000000000006dffffffffffffffffffffffffffff8416613bd9565b92915050565b60006125006dffffffffffffffffffffffffffff831684613c14565b62461bcd60e51b6000908152602060045260076024526652455123000030600a808404818106603090810160081b95839006959095019082900491820690940160101b939093010160c81b604452606490fd5b6001600160a01b038116811461362857600080fd5b50565b60008060008060006080868803121561364357600080fd5b8535945060208601359350604086013561365c81613613565b9250606086013567ffffffffffffffff8082111561367957600080fd5b818801915088601f83011261368d57600080fd5b81358181111561369c57600080fd5b8960208285010111156136ae57600080fd5b9699959850939650602001949392505050565b60005b838110156136dc5781810151838201526020016136c4565b838111156136eb576000848401525b50505050565b60208152600082518060208401526137108160408501602087016136c1565b601f017fffffffffffffffffffffffffffffffffffffffffffffffffffffffffffffffe0169190910160400192915050565b6000806040838503121561375557600080fd5b823561376081613613565b946020939093013593505050565b600080600080600060a0868803121561378657600080fd5b853561379181613613565b945060208601356137a181613613565b9350604086013592506060860135915060808601356137bf81613613565b809150509295509295909350565b6000806000606084860312156137e257600080fd5b83356137ed81613613565b925060208401356137fd81613613565b929592945050506040919091013590565b60006020828403121561382057600080fd5b813561250081613613565b803563ffffffff8116811461340957600080fd5b6000806000806080858703121561385557600080fd5b843561386081613613565b9350602085013561387081613613565b925061387e6040860161382b565b915061388c6060860161382b565b905092959194509250565b600080600080600080600060e0888a0312156138b257600080fd5b87356138bd81613613565b965060208801356138cd81613613565b95506040880135945060608801359350608088013560ff811681146138f157600080fd5b9699959850939692959460a0840135945060c09093013592915050565b6000806040838503121561392157600080fd5b823561392c81613613565b9150602083013561393c81613613565b809150509250929050565b6001600160a01b038616815284602082015283604082015260806060820152816080820152818360a0830137600081830160a090810191909152601f9092017fffffffffffffffffffffffffffffffffffffffffffffffffffffffffffffffe0160101949350505050565b6000602082840312156139c457600080fd5b5051919050565b7f4e487b7100000000000000000000000000000000000000000000000000000000600052601160045260246000fd5b600082821015613a0c57613a0c6139cb565b500390565b600060208284031215613a2357600080fd5b8151801515811461250057600080fd5b7f4e487b7100000000000000000000000000000000000000000000000000000000600052601260045260246000fd5b600082613a7157613a71613a33565b500490565b600063ffffffff83811690831681811015613a9357613a936139cb565b039392505050565b600060208284031215613aad57600080fd5b815161250081613613565b60007fffffffffffffffffffffffffffffffffffffffffffffffffffffffffffffffff821415613aea57613aea6139cb565b5060010190565b60008251613b038184602087016136c1565b9190910192915050565b6000817fffffffffffffffffffffffffffffffffffffffffffffffffffffffffffffffff0483118215151615613b4557613b456139cb565b500290565b60008219821115613b5d57613b5d6139cb565b500190565b600082613b7157613b71613a33565b500690565b60006dffffffffffffffffffffffffffff80831681851681830481118215151615613ba357613ba36139cb565b02949350505050565b60006dffffffffffffffffffffffffffff80841680613bcd57613bcd613a33565b92169190910492915050565b60007bffffffffffffffffffffffffffffffffffffffffffffffffffffffff80831681851681830481118215151615613ba357613ba36139cb565b60007bffffffffffffffffffffffffffffffffffffffffffffffffffffffff80841680613bcd57613bcd613a3356fea264697066735822122007a9beaf203c14b1bd8783d69963aa26686121fb4ba19327b5b19411be871a7c64736f6c634300080a0033",
  "linkReferences": {},
  "deployedLinkReferences": {}
}