{
  "_format": "hh-sol-artifact-1",
  "contractName": "TimeLock",
  "sourceName": "contracts/TimeLock.sol",
  "abi": [
    {
      "inputs": [],
      "stateMutability": "nonpayable",
      "type": "constructor"
    },
    {
      "anonymous": false,
      "inputs": [
        {
          "indexed": true,
          "internalType": "bytes32",
          "name": "txHash",
          "type": "bytes32"
        },
        {
          "indexed": true,
          "internalType": "address",
          "name": "target",
          "type": "address"
        },
        {
          "indexed": false,
          "internalType": "uint256",
          "name": "value",
          "type": "uint256"
        },
        {
          "indexed": false,
          "internalType": "string",
          "name": "signature",
          "type": "string"
        },
        {
          "indexed": false,
          "internalType": "bytes",
          "name": "data",
          "type": "bytes"
        },
        {
          "indexed": false,
          "internalType": "uint256",
          "name": "eta",
          "type": "uint256"
        }
      ],
      "name": "CancelTransaction",
      "type": "event"
    },
    {
      "anonymous": false,
      "inputs": [
        {
          "indexed": true,
          "internalType": "bytes32",
          "name": "txHash",
          "type": "bytes32"
        },
        {
          "indexed": true,
          "internalType": "address",
          "name": "target",
          "type": "address"
        },
        {
          "indexed": false,
          "internalType": "uint256",
          "name": "value",
          "type": "uint256"
        },
        {
          "indexed": false,
          "internalType": "string",
          "name": "signature",
          "type": "string"
        },
        {
          "indexed": false,
          "internalType": "bytes",
          "name": "data",
          "type": "bytes"
        },
        {
          "indexed": false,
          "internalType": "uint256",
          "name": "eta",
          "type": "uint256"
        }
      ],
      "name": "ExecuteTransaction",
      "type": "event"
    },
    {
      "anonymous": false,
      "inputs": [
        {
          "indexed": true,
          "internalType": "address",
          "name": "newAdmin",
          "type": "address"
        }
      ],
      "name": "NewAdmin",
      "type": "event"
    },
    {
      "anonymous": false,
      "inputs": [
        {
          "indexed": true,
          "internalType": "uint256",
          "name": "newDelay",
          "type": "uint256"
        }
      ],
      "name": "NewDelay",
      "type": "event"
    },
    {
      "anonymous": false,
      "inputs": [
        {
          "indexed": true,
          "internalType": "address",
          "name": "newPendingAdmin",
          "type": "address"
        }
      ],
      "name": "NewPendingAdmin",
      "type": "event"
    },
    {
      "anonymous": false,
      "inputs": [
        {
          "indexed": true,
          "internalType": "bytes32",
          "name": "txHash",
          "type": "bytes32"
        },
        {
          "indexed": true,
          "internalType": "address",
          "name": "target",
          "type": "address"
        },
        {
          "indexed": false,
          "internalType": "uint256",
          "name": "value",
          "type": "uint256"
        },
        {
          "indexed": false,
          "internalType": "string",
          "name": "signature",
          "type": "string"
        },
        {
          "indexed": false,
          "internalType": "bytes",
          "name": "data",
          "type": "bytes"
        },
        {
          "indexed": false,
          "internalType": "uint256",
          "name": "eta",
          "type": "uint256"
        }
      ],
      "name": "QueueTransaction",
      "type": "event"
    },
    {
      "inputs": [],
      "name": "GRACE_PERIOD",
      "outputs": [
        {
          "internalType": "uint256",
          "name": "",
          "type": "uint256"
        }
      ],
      "stateMutability": "view",
      "type": "function"
    },
    {
      "inputs": [],
      "name": "MAXIMUM_DELAY",
      "outputs": [
        {
          "internalType": "uint256",
          "name": "",
          "type": "uint256"
        }
      ],
      "stateMutability": "view",
      "type": "function"
    },
    {
      "inputs": [],
      "name": "MINIMUM_DELAY",
      "outputs": [
        {
          "internalType": "uint256",
          "name": "",
          "type": "uint256"
        }
      ],
      "stateMutability": "view",
      "type": "function"
    },
    {
      "inputs": [],
      "name": "acceptAdmin",
      "outputs": [],
      "stateMutability": "nonpayable",
      "type": "function"
    },
    {
      "inputs": [],
      "name": "admin",
      "outputs": [
        {
          "internalType": "address",
          "name": "",
          "type": "address"
        }
      ],
      "stateMutability": "view",
      "type": "function"
    },
    {
      "inputs": [],
      "name": "admin_initialized",
      "outputs": [
        {
          "internalType": "bool",
          "name": "",
          "type": "bool"
        }
      ],
      "stateMutability": "view",
      "type": "function"
    },
    {
      "inputs": [
        {
          "internalType": "address",
          "name": "target",
          "type": "address"
        },
        {
          "internalType": "uint256",
          "name": "value",
          "type": "uint256"
        },
        {
          "internalType": "string",
          "name": "signature",
          "type": "string"
        },
        {
          "internalType": "bytes",
          "name": "data",
          "type": "bytes"
        },
        {
          "internalType": "uint256",
          "name": "eta",
          "type": "uint256"
        }
      ],
      "name": "cancelTransaction",
      "outputs": [],
      "stateMutability": "nonpayable",
      "type": "function"
    },
    {
      "inputs": [],
      "name": "delay",
      "outputs": [
        {
          "internalType": "uint256",
          "name": "",
          "type": "uint256"
        }
      ],
      "stateMutability": "view",
      "type": "function"
    },
    {
      "inputs": [
        {
          "internalType": "address",
          "name": "target",
          "type": "address"
        },
        {
          "internalType": "uint256",
          "name": "value",
          "type": "uint256"
        },
        {
          "internalType": "string",
          "name": "signature",
          "type": "string"
        },
        {
          "internalType": "bytes",
          "name": "data",
          "type": "bytes"
        },
        {
          "internalType": "uint256",
          "name": "eta",
          "type": "uint256"
        }
      ],
      "name": "executeTransaction",
      "outputs": [
        {
          "internalType": "bytes",
          "name": "",
          "type": "bytes"
        }
      ],
      "stateMutability": "payable",
      "type": "function"
    },
    {
      "inputs": [
        {
          "internalType": "address",
          "name": "_admin",
          "type": "address"
        },
        {
          "internalType": "uint256",
          "name": "_delay",
          "type": "uint256"
        }
      ],
      "name": "initialize",
      "outputs": [],
      "stateMutability": "nonpayable",
      "type": "function"
    },
    {
      "inputs": [],
      "name": "pendingAdmin",
      "outputs": [
        {
          "internalType": "address",
          "name": "",
          "type": "address"
        }
      ],
      "stateMutability": "view",
      "type": "function"
    },
    {
      "inputs": [
        {
          "internalType": "address",
          "name": "target",
          "type": "address"
        },
        {
          "internalType": "uint256",
          "name": "value",
          "type": "uint256"
        },
        {
          "internalType": "string",
          "name": "signature",
          "type": "string"
        },
        {
          "internalType": "bytes",
          "name": "data",
          "type": "bytes"
        },
        {
          "internalType": "uint256",
          "name": "eta",
          "type": "uint256"
        }
      ],
      "name": "queueTransaction",
      "outputs": [
        {
          "internalType": "bytes32",
          "name": "",
          "type": "bytes32"
        }
      ],
      "stateMutability": "nonpayable",
      "type": "function"
    },
    {
      "inputs": [
        {
          "internalType": "bytes32",
          "name": "",
          "type": "bytes32"
        }
      ],
      "name": "queuedTransactions",
      "outputs": [
        {
          "internalType": "bool",
          "name": "",
          "type": "bool"
        }
      ],
      "stateMutability": "view",
      "type": "function"
    },
    {
      "inputs": [
        {
          "internalType": "uint256",
          "name": "_delay",
          "type": "uint256"
        }
      ],
      "name": "setDelay",
      "outputs": [],
      "stateMutability": "nonpayable",
      "type": "function"
    },
    {
      "inputs": [
        {
          "internalType": "address",
          "name": "_pendingAdmin",
          "type": "address"
        }
      ],
      "name": "setPendingAdmin",
      "outputs": [],
      "stateMutability": "nonpayable",
      "type": "function"
    },
    {
      "stateMutability": "payable",
      "type": "receive"
    }
  ],
  "bytecode": "0x608060405234801561001057600080fd5b506003805460ff19908116909155600080549091169055611262806100366000396000f3fe6080604052600436106100ec5760003560e01c80636fc1f57e1161008a578063cd6dc68711610059578063cd6dc68714610263578063e177246e14610283578063f2b06537146102a3578063f851a440146102d357600080fd5b80636fc1f57e146101f45780637d645fab1461021e578063b1b43ae514610235578063c1a287e21461024c57600080fd5b80633a66f901116100c65780633a66f901146101705780634dd18bf51461019e578063591fcdfe146101be5780636a42b8f8146101de57600080fd5b80630825f38f146100f85780630e18b68114610121578063267822471461013857600080fd5b366100f357005b600080fd5b61010b610106366004610ee1565b6102f8565b6040516101189190610fee565b60405180910390f35b34801561012d57600080fd5b5061013661066e565b005b34801561014457600080fd5b50600154610158906001600160a01b031681565b6040516001600160a01b039091168152602001610118565b34801561017c57600080fd5b5061019061018b366004610ee1565b610751565b604051908152602001610118565b3480156101aa57600080fd5b506101366101b9366004611001565b610909565b3480156101ca57600080fd5b506101366101d9366004610ee1565b610a6b565b3480156101ea57600080fd5b5061019060025481565b34801561020057600080fd5b5060035461020e9060ff1681565b6040519015158152602001610118565b34801561022a57600080fd5b5061019062278d0081565b34801561024157600080fd5b506101906201518081565b34801561025857600080fd5b506101906212750081565b34801561026f57600080fd5b5061013661027e36600461101c565b610b8a565b34801561028f57600080fd5b5061013661029e366004611046565b610cce565b3480156102af57600080fd5b5061020e6102be366004611046565b60046020526000908152604090205460ff1681565b3480156102df57600080fd5b506000546101589061010090046001600160a01b031681565b60005460609061010090046001600160a01b031633146103855760405162461bcd60e51b815260206004820152603860248201527f54696d656c6f636b3a3a657865637574655472616e73616374696f6e3a20436160448201527f6c6c206d75737420636f6d652066726f6d2061646d696e2e000000000000000060648201526084015b60405180910390fd5b600086868686866040516020016103a095949392919061105f565b60408051601f1981840301815291815281516020928301206000818152600490935291205490915060ff1661042b5760405162461bcd60e51b815260206004820152603d602482015260008051602061120d83398151915260448201527f616e73616374696f6e206861736e2774206265656e207175657565642e000000606482015260840161037c565b8242101561049d5760405162461bcd60e51b8152602060048201526045602482015260008051602061120d83398151915260448201527f616e73616374696f6e206861736e2774207375727061737365642074696d65206064820152643637b1b59760d91b608482015260a40161037c565b6104aa8362127500610db0565b4211156105035760405162461bcd60e51b8152602060048201526033602482015260008051602061120d83398151915260448201527230b739b0b1ba34b7b71034b99039ba30b6329760691b606482015260840161037c565b6000818152600460205260409020805460ff191690558451606090610529575083610555565b8580519060200120856040516020016105439291906110ab565b60405160208183030381529060405290505b600080896001600160a01b0316898460405161057191906110dc565b60006040518083038185875af1925050503d80600081146105ae576040519150601f19603f3d011682016040523d82523d6000602084013e6105b3565b606091505b5091509150816106195760405162461bcd60e51b815260206004820152603d602482015260008051602061120d83398151915260448201527f616e73616374696f6e20657865637574696f6e2072657665727465642e000000606482015260840161037c565b896001600160a01b0316847fa560e3198060a2f10670c1ec5b403077ea6ae93ca8de1c32b451dc1a943cd6e78b8b8b8b60405161065994939291906110f8565b60405180910390a39998505050505050505050565b6001546001600160a01b031633146106ee5760405162461bcd60e51b815260206004820152603860248201527f54696d656c6f636b3a3a61636365707441646d696e3a2043616c6c206d75737460448201527f20636f6d652066726f6d2070656e64696e6741646d696e2e0000000000000000606482015260840161037c565b60008054610100338102610100600160a81b031990921691909117808355600180546001600160a01b03191690556040519190046001600160a01b0316917f71614071b88dee5e0b2ae578a9dd7b2ebbe9ae832ba419dc0242cd065a290b6c91a2565b6000805461010090046001600160a01b031633146107d05760405162461bcd60e51b815260206004820152603660248201527f54696d656c6f636b3a3a71756575655472616e73616374696f6e3a2043616c6c6044820152751036bab9ba1031b7b6b290333937b69030b236b4b71760511b606482015260840161037c565b6107e36002546107dd4290565b90610db0565b82101561086a5760405162461bcd60e51b815260206004820152604960248201527f54696d656c6f636b3a3a71756575655472616e73616374696f6e3a204573746960448201527f6d6174656420657865637574696f6e20626c6f636b206d757374207361746973606482015268333c903232b630bc9760b91b608482015260a40161037c565b6000868686868660405160200161088595949392919061105f565b60408051601f19818403018152828252805160209182012060008181526004909252919020805460ff1916600117905591506001600160a01b0388169082907f76e2796dc3a81d57b0e8504b647febcbeeb5f4af818e164f11eef8131a6a763f906108f7908a908a908a908a906110f8565b60405180910390a39695505050505050565b60035460ff161561098e573330146109895760405162461bcd60e51b815260206004820152603860248201527f54696d656c6f636b3a3a73657450656e64696e6741646d696e3a2043616c6c2060448201527f6d75737420636f6d652066726f6d2054696d656c6f636b2e0000000000000000606482015260840161037c565b610a21565b60005461010090046001600160a01b03163314610a135760405162461bcd60e51b815260206004820152603b60248201527f54696d656c6f636b3a3a73657450656e64696e6741646d696e3a20466972737460448201527f2063616c6c206d75737420636f6d652066726f6d2061646d696e2e0000000000606482015260840161037c565b6003805460ff191660011790555b600180546001600160a01b0319166001600160a01b0383169081179091556040517f69d78e38a01985fbb1462961809b4b2d65531bc93b2b94037f3334b82ca4a75690600090a250565b60005461010090046001600160a01b03163314610af05760405162461bcd60e51b815260206004820152603760248201527f54696d656c6f636b3a3a63616e63656c5472616e73616374696f6e3a2043616c60448201527f6c206d75737420636f6d652066726f6d2061646d696e2e000000000000000000606482015260840161037c565b60008585858585604051602001610b0b95949392919061105f565b60408051601f19818403018152828252805160209182012060008181526004909252919020805460ff1916905591506001600160a01b0387169082907f2fffc091a501fd91bfbff27141450d3acb40fb8e6d8382b243ec7a812a3aaf8790610b7a9089908990899089906110f8565b60405180910390a3505050505050565b60005460ff1615610bf75760405162461bcd60e51b815260206004820152603160248201527f54696d656c6f636b3a3a636f6e7374727563746f723a20496e697469616c697a60448201527032b21036bab9ba103132903330b639b29760791b606482015260840161037c565b62015180811015610c1a5760405162461bcd60e51b815260040161037c90611135565b62278d00811115610c3d5760405162461bcd60e51b815260040161037c90611189565b60028190556000805460016001600160a81b03199091166101006001600160a01b03868116820260ff1916929092179290921780845560405192900416917f71614071b88dee5e0b2ae578a9dd7b2ebbe9ae832ba419dc0242cd065a290b6c91a26002546040517f948b1f6a42ee138b7e34058ba85a37f716d55ff25ff05a763f15bed6a04c8d2c90600090a25050565b333014610d375760405162461bcd60e51b815260206004820152603160248201527f54696d656c6f636b3a3a73657444656c61793a2043616c6c206d75737420636f60448201527036b290333937b6902a34b6b2b637b1b59760791b606482015260840161037c565b62015180811015610d5a5760405162461bcd60e51b815260040161037c90611135565b62278d00811115610d7d5760405162461bcd60e51b815260040161037c90611189565b600281905560405181907f948b1f6a42ee138b7e34058ba85a37f716d55ff25ff05a763f15bed6a04c8d2c90600090a250565b600080610dbd83856111e6565b9050610dcd848210156000610dd4565b9392505050565b81610de257610de281610de6565b5050565b62461bcd60e51b6000908152602060045260076024526642414c23000030600a808404818106603090810160081b95839006959095019082900491820690940160101b939093010160c81b604452606490fd5b80356001600160a01b0381168114610e5057600080fd5b919050565b634e487b7160e01b600052604160045260246000fd5b600067ffffffffffffffff80841115610e8657610e86610e55565b604051601f8501601f19908116603f01168101908282118183101715610eae57610eae610e55565b81604052809350858152868686011115610ec757600080fd5b858560208301376000602087830101525050509392505050565b600080600080600060a08688031215610ef957600080fd5b610f0286610e39565b945060208601359350604086013567ffffffffffffffff80821115610f2657600080fd5b818801915088601f830112610f3a57600080fd5b610f4989833560208501610e6b565b94506060880135915080821115610f5f57600080fd5b508601601f81018813610f7157600080fd5b610f8088823560208401610e6b565b95989497509295608001359392505050565b60005b83811015610fad578181015183820152602001610f95565b83811115610fbc576000848401525b50505050565b60008151808452610fda816020860160208601610f92565b601f01601f19169290920160200192915050565b602081526000610dcd6020830184610fc2565b60006020828403121561101357600080fd5b610dcd82610e39565b6000806040838503121561102f57600080fd5b61103883610e39565b946020939093013593505050565b60006020828403121561105857600080fd5b5035919050565b60018060a01b038616815284602082015260a06040820152600061108660a0830186610fc2565b82810360608401526110988186610fc2565b9150508260808301529695505050505050565b6001600160e01b03198316815281516000906110ce816004850160208701610f92565b919091016004019392505050565b600082516110ee818460208701610f92565b9190910192915050565b8481526080602082015260006111116080830186610fc2565b82810360408401526111238186610fc2565b91505082606083015295945050505050565b60208082526034908201527f54696d656c6f636b3a3a73657444656c61793a2044656c6179206d75737420656040820152733c31b2b2b21036b4b734b6bab6903232b630bc9760611b606082015260800190565b60208082526038908201527f54696d656c6f636b3a3a73657444656c61793a2044656c6179206d757374206e60408201527f6f7420657863656564206d6178696d756d2064656c61792e0000000000000000606082015260800190565b6000821982111561120757634e487b7160e01b600052601160045260246000fd5b50019056fe54696d656c6f636b3a3a657865637574655472616e73616374696f6e3a205472a2646970667358221220b634ebbe27629e3d47a0ce68a6f2a7631f8be951b9a763217f32efc727e9edd664736f6c634300080a0033",
  "linkReferences": {},
  "deployedLinkReferences": {}
}