{
  "_format": "hh-sol-artifact-1",
  "contractName": "DeflatingERC20",
  "sourceName": "contracts/test/DeflatingERC20.sol",
  "abi": [
    {
      "inputs": [
        {
          "internalType": "uint256",
          "name": "_totalSupply",
          "type": "uint256"
        }
      ],
      "stateMutability": "nonpayable",
      "type": "constructor"
    },
    {
      "anonymous": false,
      "inputs": [
        {
          "indexed": true,
          "internalType": "address",
          "name": "owner",
          "type": "address"
        },
        {
          "indexed": true,
          "internalType": "address",
          "name": "spender",
          "type": "address"
        },
        {
          "indexed": false,
          "internalType": "uint256",
          "name": "value",
          "type": "uint256"
        }
      ],
      "name": "Approval",
      "type": "event"
    },
    {
      "anonymous": false,
      "inputs": [
        {
          "indexed": true,
          "internalType": "address",
          "name": "from",
          "type": "address"
        },
        {
          "indexed": true,
          "internalType": "address",
          "name": "to",
          "type": "address"
        },
        {
          "indexed": false,
          "internalType": "uint256",
          "name": "value",
          "type": "uint256"
        }
      ],
      "name": "Transfer",
      "type": "event"
    },
    {
      "inputs": [],
      "name": "DOMAIN_SEPARATOR",
      "outputs": [
        {
          "internalType": "bytes32",
          "name": "",
          "type": "bytes32"
        }
      ],
      "stateMutability": "view",
      "type": "function"
    },
    {
      "inputs": [],
      "name": "PERMIT_TYPEHASH",
      "outputs": [
        {
          "internalType": "bytes32",
          "name": "",
          "type": "bytes32"
        }
      ],
      "stateMutability": "view",
      "type": "function"
    },
    {
      "inputs": [
        {
          "internalType": "address",
          "name": "",
          "type": "address"
        },
        {
          "internalType": "address",
          "name": "",
          "type": "address"
        }
      ],
      "name": "allowance",
      "outputs": [
        {
          "internalType": "uint256",
          "name": "",
          "type": "uint256"
        }
      ],
      "stateMutability": "view",
      "type": "function"
    },
    {
      "inputs": [
        {
          "internalType": "address",
          "name": "spender",
          "type": "address"
        },
        {
          "internalType": "uint256",
          "name": "value",
          "type": "uint256"
        }
      ],
      "name": "approve",
      "outputs": [
        {
          "internalType": "bool",
          "name": "",
          "type": "bool"
        }
      ],
      "stateMutability": "nonpayable",
      "type": "function"
    },
    {
      "inputs": [
        {
          "internalType": "address",
          "name": "",
          "type": "address"
        }
      ],
      "name": "balanceOf",
      "outputs": [
        {
          "internalType": "uint256",
          "name": "",
          "type": "uint256"
        }
      ],
      "stateMutability": "view",
      "type": "function"
    },
    {
      "inputs": [],
      "name": "decimals",
      "outputs": [
        {
          "internalType": "uint8",
          "name": "",
          "type": "uint8"
        }
      ],
      "stateMutability": "view",
      "type": "function"
    },
    {
      "inputs": [
        {
          "internalType": "address",
          "name": "dst",
          "type": "address"
        },
        {
          "internalType": "uint256",
          "name": "amt",
          "type": "uint256"
        }
      ],
      "name": "mint",
      "outputs": [
        {
          "internalType": "bool",
          "name": "",
          "type": "bool"
        }
      ],
      "stateMutability": "nonpayable",
      "type": "function"
    },
    {
      "inputs": [],
      "name": "name",
      "outputs": [
        {
          "internalType": "string",
          "name": "",
          "type": "string"
        }
      ],
      "stateMutability": "view",
      "type": "function"
    },
    {
      "inputs": [
        {
          "internalType": "address",
          "name": "",
          "type": "address"
        }
      ],
      "name": "nonces",
      "outputs": [
        {
          "internalType": "uint256",
          "name": "",
          "type": "uint256"
        }
      ],
      "stateMutability": "view",
      "type": "function"
    },
    {
      "inputs": [
        {
          "internalType": "address",
          "name": "owner",
          "type": "address"
        },
        {
          "internalType": "address",
          "name": "spender",
          "type": "address"
        },
        {
          "internalType": "uint256",
          "name": "value",
          "type": "uint256"
        },
        {
          "internalType": "uint256",
          "name": "deadline",
          "type": "uint256"
        },
        {
          "internalType": "uint8",
          "name": "v",
          "type": "uint8"
        },
        {
          "internalType": "bytes32",
          "name": "r",
          "type": "bytes32"
        },
        {
          "internalType": "bytes32",
          "name": "s",
          "type": "bytes32"
        }
      ],
      "name": "permit",
      "outputs": [],
      "stateMutability": "nonpayable",
      "type": "function"
    },
    {
      "inputs": [],
      "name": "symbol",
      "outputs": [
        {
          "internalType": "string",
          "name": "",
          "type": "string"
        }
      ],
      "stateMutability": "view",
      "type": "function"
    },
    {
      "inputs": [],
      "name": "totalSupply",
      "outputs": [
        {
          "internalType": "uint256",
          "name": "",
          "type": "uint256"
        }
      ],
      "stateMutability": "view",
      "type": "function"
    },
    {
      "inputs": [
        {
          "internalType": "address",
          "name": "to",
          "type": "address"
        },
        {
          "internalType": "uint256",
          "name": "value",
          "type": "uint256"
        }
      ],
      "name": "transfer",
      "outputs": [
        {
          "internalType": "bool",
          "name": "",
          "type": "bool"
        }
      ],
      "stateMutability": "nonpayable",
      "type": "function"
    },
    {
      "inputs": [
        {
          "internalType": "address",
          "name": "from",
          "type": "address"
        },
        {
          "internalType": "address",
          "name": "to",
          "type": "address"
        },
        {
          "internalType": "uint256",
          "name": "value",
          "type": "uint256"
        }
      ],
      "name": "transferFrom",
      "outputs": [
        {
          "internalType": "bool",
          "name": "",
          "type": "bool"
        }
      ],
      "stateMutability": "nonpayable",
      "type": "function"
    }
  ],
  "bytecode": "0x608060405234801561001057600080fd5b5060405162000d2f38038062000d2f8339810160408190526100319161026c565b604080518082018252601481527f4465666c6174696e67205465737420546f6b656e0000000000000000000000006020918201528151808301835260018152603160f81b9082015281517f8b73c3c69bb8fe3d512ecc4cf759cc79239f7b179b0ffacaa9a75d522b39400f818301527ff89e31130e6fd3d87d62a1ac2770fba58bed5a06c47ce70fa97f8218b1b2743a818401527fc89efdaa54c0f20c7adf612882df0950f5a951637e0307cdcb4c672f298b8bc6606082015246608082018190523060a0808401919091528451808403909101815260c090920190935280519101206003556101213383610128565b50506102ab565b610141816000546101cf60201b6105081790919060201c565b60009081556001600160a01b0383168152600160209081526040909120546101729183906105086101cf821b17901c565b6001600160a01b0383166000818152600160205260408082209390935591519091907fddf252ad1be2c89b69c2b068fc378daa952ba7f163c4a11628f55a4df523b3ef906101c39085815260200190565b60405180910390a35050565b6000806101dc8385610285565b90506101f68482101560006101fd60201b61052c1760201c565b9392505050565b81610215576102158161021960201b61053e1760201c565b5050565b62461bcd60e51b6000908152602060045260076024526652455123000030600a808404818106603090810160081b95839006959095019082900491820690940160101b939093010160c81b604452606490fd5b60006020828403121561027e57600080fd5b5051919050565b600082198211156102a657634e487b7160e01b600052601160045260246000fd5b500190565b610a7480620002bb6000396000f3fe608060405234801561001057600080fd5b50600436106100ba5760003560e01c806306fdde03146100bf578063095ea7b31461010857806318160ddd1461012b57806323b872dd1461014257806330adf81f14610155578063313ce5671461016a5780633644e5151461018457806340c10f191461018d57806370a08231146101a05780637ecebe00146101c057806395d89b41146101e0578063a9059cbb14610202578063d505accf14610215578063dd62ed3e1461022a575b600080fd5b6100f2604051806040016040528060148152602001732232b33630ba34b733902a32b9ba102a37b5b2b760611b81525081565b6040516100ff91906107e4565b60405180910390f35b61011b610116366004610855565b610255565b60405190151581526020016100ff565b61013460005481565b6040519081526020016100ff565b61011b61015036600461087f565b61026b565b610134600080516020610a1f83398151915281565b610172601281565b60405160ff90911681526020016100ff565b61013460035481565b61011b61019b366004610855565b6102ff565b6101346101ae3660046108bb565b60016020526000908152604090205481565b6101346101ce3660046108bb565b60046020526000908152604090205481565b6100f26040518060400160405280600381526020016211151560ea1b81525081565b61011b610210366004610855565b61030b565b6102286102233660046108d6565b610318565b005b610134610238366004610949565b600260209081526000928352604080842090915290825290205481565b6000610262338484610591565b50600192915050565b6001600160a01b0383166000908152600260209081526040808320338452909152812054600019146102ea576001600160a01b03841660009081526002602090815260408083203384529091529020546102c590836105f2565b6001600160a01b03851660009081526002602090815260408083203384529091529020555b6102f5848484610600565b5060019392505050565b600061026283836106cb565b6000610262338484610600565b428410156103575760405162461bcd60e51b81526020600482015260076024820152661156141254915160ca1b60448201526064015b60405180910390fd5b6003546001600160a01b03881660009081526004602052604081208054919291600080516020610a1f833981519152918b918b918b91908761039883610992565b909155506040805160208101969096526001600160a01b0394851690860152929091166060840152608083015260a082015260c0810187905260e0016040516020818303038152906040528051906020012060405160200161041192919061190160f01b81526002810192909252602282015260420190565b60408051601f198184030181528282528051602091820120600080855291840180845281905260ff88169284019290925260608301869052608083018590529092509060019060a0016020604051602081039080840390855afa15801561047c573d6000803e3d6000fd5b5050604051601f1901519150506001600160a01b038116158015906104b25750886001600160a01b0316816001600160a01b0316145b6104f25760405162461bcd60e51b8152602060048201526011602482015270494e56414c49445f5349474e415455524560781b604482015260640161034e565b6104fd898989610591565b505050505050505050565b60008061051583856109ad565b905061052584821015600061052c565b9392505050565b8161053a5761053a8161053e565b5050565b62461bcd60e51b6000908152602060045260076024526652455123000030600a808404818106603090810160081b95839006959095019082900491820690940160101b939093010160c81b604452606490fd5b6001600160a01b0383811660008181526002602090815260408083209487168084529482529182902085905590518481527f8c5be1e5ebec7d5bd14f71427d1e84f3dd0314c0f7b2291e5b200ac8c7c3b925910160405180910390a3505050565b600061052583836001610748565b600061060d6064836109c5565b9050610619848261076c565b600061062583836105f2565b6001600160a01b03861660009081526001602052604090205490915061064b90826105f2565b6001600160a01b03808716600090815260016020526040808220939093559086168152205461067a9082610508565b6001600160a01b0380861660008181526001602052604090819020939093559151908716906000805160206109ff833981519152906106bc9085815260200190565b60405180910390a35050505050565b6000546106d89082610508565b60009081556001600160a01b0383168152600160205260409020546106fd9082610508565b6001600160a01b0383166000818152600160205260408082209390935591519091906000805160206109ff8339815191529061073c9085815260200190565b60405180910390a35050565b6000610757848411158361052c565b600061076384866109e7565b95945050505050565b6001600160a01b03821660009081526001602052604090205461078f90826105f2565b6001600160a01b038316600090815260016020526040812091909155546107b690826105f2565b60009081556040518281526001600160a01b038416906000805160206109ff8339815191529060200161073c565b600060208083528351808285015260005b81811015610811578581018301518582016040015282016107f5565b81811115610823576000604083870101525b50601f01601f1916929092016040019392505050565b80356001600160a01b038116811461085057600080fd5b919050565b6000806040838503121561086857600080fd5b61087183610839565b946020939093013593505050565b60008060006060848603121561089457600080fd5b61089d84610839565b92506108ab60208501610839565b9150604084013590509250925092565b6000602082840312156108cd57600080fd5b61052582610839565b600080600080600080600060e0888a0312156108f157600080fd5b6108fa88610839565b965061090860208901610839565b95506040880135945060608801359350608088013560ff8116811461092c57600080fd5b9699959850939692959460a0840135945060c09093013592915050565b6000806040838503121561095c57600080fd5b61096583610839565b915061097360208401610839565b90509250929050565b634e487b7160e01b600052601160045260246000fd5b60006000198214156109a6576109a661097c565b5060010190565b600082198211156109c0576109c061097c565b500190565b6000826109e257634e487b7160e01b600052601260045260246000fd5b500490565b6000828210156109f9576109f961097c565b50039056feddf252ad1be2c89b69c2b068fc378daa952ba7f163c4a11628f55a4df523b3ef6e71edae12b1b97f4d1f60370fef10105fa2faae0126114a169c64845d6126c9a2646970667358221220f939f9d369cabc5d913060fdb5fb76ac46802d24a7835a45c925f6222ae63e5964736f6c634300080a0033",
  "linkReferences": {},
  "deployedLinkReferences": {}
}