{
  "_format": "hh-sol-artifact-1",
  "contractName": "RequiemMock",
  "sourceName": "contracts/test/FireBirdFactoryMock.sol",
  "abi": [
    {
      "inputs": [
        {
          "internalType": "address",
          "name": "",
          "type": "address"
        }
      ],
      "name": "isPair",
      "outputs": [
        {
          "internalType": "bool",
          "name": "",
          "type": "bool"
        }
      ],
      "stateMutability": "view",
      "type": "function"
    },
    {
      "inputs": [
        {
          "internalType": "address",
          "name": "pair",
          "type": "address"
        },
        {
          "internalType": "bool",
          "name": "val",
          "type": "bool"
        }
      ],
      "name": "setIsPair",
      "outputs": [],
      "stateMutability": "nonpayable",
      "type": "function"
    }
  ],
  "bytecode": "0x608060405234801561001057600080fd5b50610195806100206000396000f3fe608060405234801561001057600080fd5b50600436106100365760003560e01c80632410d8871461003b578063e5e31b13146100a1575b600080fd5b61009f610049366004610101565b73ffffffffffffffffffffffffffffffffffffffff91909116600090815260208190526040902080547fffffffffffffffffffffffffffffffffffffffffffffffffffffffffffffff0016911515919091179055565b005b6100c46100af36600461013d565b60006020819052908152604090205460ff1681565b604051901515815260200160405180910390f35b803573ffffffffffffffffffffffffffffffffffffffff811681146100fc57600080fd5b919050565b6000806040838503121561011457600080fd5b61011d836100d8565b91506020830135801515811461013257600080fd5b809150509250929050565b60006020828403121561014f57600080fd5b610158826100d8565b939250505056fea2646970667358221220617a27e9ab0bdd3adea9f95cf96c8a7d80b859de63180c1be9c49ea9a62c7d0464736f6c634300080a0033",
  "linkReferences": {},
  "deployedLinkReferences": {}
}