{
  "_format": "hh-sol-artifact-1",
  "contractName": "RequiemMock",
  "sourceName": "contracts/test/FireBirdFactoryMock.sol",
  "abi": [
    {
      "inputs": [
        {
          "internalType": "address",
          "name": "",
          "type": "address"
        }
      ],
      "name": "isPair",
      "outputs": [
        {
          "internalType": "bool",
          "name": "",
          "type": "bool"
        }
      ],
      "stateMutability": "view",
      "type": "function"
    },
    {
      "inputs": [
        {
          "internalType": "address",
          "name": "pair",
          "type": "address"
        },
        {
          "internalType": "bool",
          "name": "val",
          "type": "bool"
        }
      ],
      "name": "setIsPair",
      "outputs": [],
      "stateMutability": "nonpayable",
      "type": "function"
    }
  ],
  "bytecode": "0x608060405234801561001057600080fd5b5061015d806100206000396000f3fe608060405234801561001057600080fd5b50600436106100365760003560e01c80632410d8871461003b578063e5e31b1314610076575b600080fd5b6100746100493660046100c9565b6001600160a01b03919091166000908152602081905260409020805460ff1916911515919091179055565b005b610099610084366004610105565b60006020819052908152604090205460ff1681565b604051901515815260200160405180910390f35b80356001600160a01b03811681146100c457600080fd5b919050565b600080604083850312156100dc57600080fd5b6100e5836100ad565b9150602083013580151581146100fa57600080fd5b809150509250929050565b60006020828403121561011757600080fd5b610120826100ad565b939250505056fea2646970667358221220a1e790c51d70b283f499b9fc1399ec3b195d1f00293caf2357624a4b23806abf64736f6c634300080a0033",
  "linkReferences": {},
  "deployedLinkReferences": {}
}