{
  "_format": "hh-sol-artifact-1",
  "contractName": "RequiemStableSwap",
  "sourceName": "contracts/RequiemStableSwap.sol",
  "abi": [
    {
      "anonymous": false,
      "inputs": [
        {
          "indexed": true,
          "internalType": "address",
          "name": "provider",
          "type": "address"
        },
        {
          "indexed": false,
          "internalType": "uint256[]",
          "name": "tokenAmounts",
          "type": "uint256[]"
        },
        {
          "indexed": false,
          "internalType": "uint256[]",
          "name": "fees",
          "type": "uint256[]"
        },
        {
          "indexed": false,
          "internalType": "uint256",
          "name": "invariant",
          "type": "uint256"
        },
        {
          "indexed": false,
          "internalType": "uint256",
          "name": "tokenSupply",
          "type": "uint256"
        }
      ],
      "name": "AddLiquidity",
      "type": "event"
    },
    {
      "anonymous": false,
      "inputs": [
        {
          "indexed": false,
          "internalType": "address",
          "name": "token",
          "type": "address"
        },
        {
          "indexed": false,
          "internalType": "uint256",
          "name": "amount",
          "type": "uint256"
        }
      ],
      "name": "CollectProtocolFee",
      "type": "event"
    },
    {
      "anonymous": false,
      "inputs": [
        {
          "indexed": false,
          "internalType": "address",
          "name": "newController",
          "type": "address"
        }
      ],
      "name": "FeeControllerChanged",
      "type": "event"
    },
    {
      "anonymous": false,
      "inputs": [
        {
          "indexed": false,
          "internalType": "address",
          "name": "newController",
          "type": "address"
        }
      ],
      "name": "FeeDistributorChanged",
      "type": "event"
    },
    {
      "anonymous": false,
      "inputs": [
        {
          "indexed": false,
          "internalType": "uint256",
          "name": "fee",
          "type": "uint256"
        },
        {
          "indexed": false,
          "internalType": "uint256",
          "name": "adminFee",
          "type": "uint256"
        },
        {
          "indexed": false,
          "internalType": "uint256",
          "name": "withdrawFee",
          "type": "uint256"
        }
      ],
      "name": "NewFee",
      "type": "event"
    },
    {
      "anonymous": false,
      "inputs": [
        {
          "indexed": true,
          "internalType": "address",
          "name": "previousOwner",
          "type": "address"
        },
        {
          "indexed": true,
          "internalType": "address",
          "name": "newOwner",
          "type": "address"
        }
      ],
      "name": "OwnershipTransferred",
      "type": "event"
    },
    {
      "anonymous": false,
      "inputs": [
        {
          "indexed": false,
          "internalType": "address",
          "name": "account",
          "type": "address"
        }
      ],
      "name": "Paused",
      "type": "event"
    },
    {
      "anonymous": false,
      "inputs": [
        {
          "indexed": false,
          "internalType": "uint256",
          "name": "oldA",
          "type": "uint256"
        },
        {
          "indexed": false,
          "internalType": "uint256",
          "name": "newA",
          "type": "uint256"
        },
        {
          "indexed": false,
          "internalType": "uint256",
          "name": "initialTime",
          "type": "uint256"
        },
        {
          "indexed": false,
          "internalType": "uint256",
          "name": "futureTime",
          "type": "uint256"
        }
      ],
      "name": "RampA",
      "type": "event"
    },
    {
      "anonymous": false,
      "inputs": [
        {
          "indexed": true,
          "internalType": "address",
          "name": "provider",
          "type": "address"
        },
        {
          "indexed": false,
          "internalType": "uint256[]",
          "name": "tokenAmounts",
          "type": "uint256[]"
        },
        {
          "indexed": false,
          "internalType": "uint256[]",
          "name": "fees",
          "type": "uint256[]"
        },
        {
          "indexed": false,
          "internalType": "uint256",
          "name": "tokenSupply",
          "type": "uint256"
        }
      ],
      "name": "RemoveLiquidity",
      "type": "event"
    },
    {
      "anonymous": false,
      "inputs": [
        {
          "indexed": true,
          "internalType": "address",
          "name": "provider",
          "type": "address"
        },
        {
          "indexed": false,
          "internalType": "uint256[]",
          "name": "tokenAmounts",
          "type": "uint256[]"
        },
        {
          "indexed": false,
          "internalType": "uint256[]",
          "name": "fees",
          "type": "uint256[]"
        },
        {
          "indexed": false,
          "internalType": "uint256",
          "name": "invariant",
          "type": "uint256"
        },
        {
          "indexed": false,
          "internalType": "uint256",
          "name": "tokenSupply",
          "type": "uint256"
        }
      ],
      "name": "RemoveLiquidityImbalance",
      "type": "event"
    },
    {
      "anonymous": false,
      "inputs": [
        {
          "indexed": true,
          "internalType": "address",
          "name": "provider",
          "type": "address"
        },
        {
          "indexed": false,
          "internalType": "uint256",
          "name": "tokenIndex",
          "type": "uint256"
        },
        {
          "indexed": false,
          "internalType": "uint256",
          "name": "tokenAmount",
          "type": "uint256"
        },
        {
          "indexed": false,
          "internalType": "uint256",
          "name": "coinAmount",
          "type": "uint256"
        }
      ],
      "name": "RemoveLiquidityOne",
      "type": "event"
    },
    {
      "anonymous": false,
      "inputs": [
        {
          "indexed": false,
          "internalType": "uint256",
          "name": "A",
          "type": "uint256"
        },
        {
          "indexed": false,
          "internalType": "uint256",
          "name": "timestamp",
          "type": "uint256"
        }
      ],
      "name": "StopRampA",
      "type": "event"
    },
    {
      "anonymous": false,
      "inputs": [
        {
          "indexed": true,
          "internalType": "address",
          "name": "buyer",
          "type": "address"
        },
        {
          "indexed": false,
          "internalType": "uint256",
          "name": "soldId",
          "type": "uint256"
        },
        {
          "indexed": false,
          "internalType": "uint256",
          "name": "tokensSold",
          "type": "uint256"
        },
        {
          "indexed": false,
          "internalType": "uint256",
          "name": "boughtId",
          "type": "uint256"
        },
        {
          "indexed": false,
          "internalType": "uint256",
          "name": "tokensBought",
          "type": "uint256"
        }
      ],
      "name": "TokenExchange",
      "type": "event"
    },
    {
      "anonymous": false,
      "inputs": [
        {
          "indexed": false,
          "internalType": "address",
          "name": "account",
          "type": "address"
        }
      ],
      "name": "Unpaused",
      "type": "event"
    },
    {
      "inputs": [],
      "name": "MAX_A",
      "outputs": [
        {
          "internalType": "uint256",
          "name": "",
          "type": "uint256"
        }
      ],
      "stateMutability": "view",
      "type": "function"
    },
    {
      "inputs": [],
      "name": "MAX_ADMIN_FEE",
      "outputs": [
        {
          "internalType": "uint256",
          "name": "",
          "type": "uint256"
        }
      ],
      "stateMutability": "view",
      "type": "function"
    },
    {
      "inputs": [],
      "name": "MAX_A_CHANGE",
      "outputs": [
        {
          "internalType": "uint256",
          "name": "",
          "type": "uint256"
        }
      ],
      "stateMutability": "view",
      "type": "function"
    },
    {
      "inputs": [],
      "name": "MAX_SWAP_FEE",
      "outputs": [
        {
          "internalType": "uint256",
          "name": "",
          "type": "uint256"
        }
      ],
      "stateMutability": "view",
      "type": "function"
    },
    {
      "inputs": [],
      "name": "MAX_WITHDRAW_FEE",
      "outputs": [
        {
          "internalType": "uint256",
          "name": "",
          "type": "uint256"
        }
      ],
      "stateMutability": "view",
      "type": "function"
    },
    {
      "inputs": [],
      "name": "MIN_RAMP_TIME",
      "outputs": [
        {
          "internalType": "uint256",
          "name": "",
          "type": "uint256"
        }
      ],
      "stateMutability": "view",
      "type": "function"
    },
    {
      "inputs": [
        {
          "internalType": "uint256[]",
          "name": "amounts",
          "type": "uint256[]"
        },
        {
          "internalType": "uint256",
          "name": "minMintAmount",
          "type": "uint256"
        },
        {
          "internalType": "uint256",
          "name": "deadline",
          "type": "uint256"
        }
      ],
      "name": "addLiquidity",
      "outputs": [
        {
          "internalType": "uint256",
          "name": "",
          "type": "uint256"
        }
      ],
      "stateMutability": "nonpayable",
      "type": "function"
    },
    {
      "inputs": [
        {
          "internalType": "address",
          "name": "account",
          "type": "address"
        }
      ],
      "name": "calculateCurrentWithdrawFee",
      "outputs": [
        {
          "internalType": "uint256",
          "name": "",
          "type": "uint256"
        }
      ],
      "stateMutability": "view",
      "type": "function"
    },
    {
      "inputs": [
        {
          "internalType": "address",
          "name": "account",
          "type": "address"
        },
        {
          "internalType": "uint256",
          "name": "amount",
          "type": "uint256"
        }
      ],
      "name": "calculateRemoveLiquidity",
      "outputs": [
        {
          "internalType": "uint256[]",
          "name": "",
          "type": "uint256[]"
        }
      ],
      "stateMutability": "view",
      "type": "function"
    },
    {
      "inputs": [
        {
          "internalType": "address",
          "name": "account",
          "type": "address"
        },
        {
          "internalType": "uint256",
          "name": "amount",
          "type": "uint256"
        },
        {
          "internalType": "uint8",
          "name": "index",
          "type": "uint8"
        }
      ],
      "name": "calculateRemoveLiquidityOneToken",
      "outputs": [
        {
          "internalType": "uint256",
          "name": "",
          "type": "uint256"
        }
      ],
      "stateMutability": "view",
      "type": "function"
    },
    {
      "inputs": [
        {
          "internalType": "uint8",
          "name": "inIndex",
          "type": "uint8"
        },
        {
          "internalType": "uint8",
          "name": "outIndex",
          "type": "uint8"
        },
        {
          "internalType": "uint256",
          "name": "inAmount",
          "type": "uint256"
        }
      ],
      "name": "calculateSwap",
      "outputs": [
        {
          "internalType": "uint256",
          "name": "",
          "type": "uint256"
        }
      ],
      "stateMutability": "view",
      "type": "function"
    },
    {
      "inputs": [
        {
          "internalType": "address",
          "name": "tokenIn",
          "type": "address"
        },
        {
          "internalType": "address",
          "name": "tokenOut",
          "type": "address"
        },
        {
          "internalType": "uint256",
          "name": "amountIn",
          "type": "uint256"
        }
      ],
      "name": "calculateSwapGivenIn",
      "outputs": [
        {
          "internalType": "uint256",
          "name": "",
          "type": "uint256"
        }
      ],
      "stateMutability": "view",
      "type": "function"
    },
    {
      "inputs": [
        {
          "internalType": "address",
          "name": "tokenIn",
          "type": "address"
        },
        {
          "internalType": "address",
          "name": "tokenOut",
          "type": "address"
        },
        {
          "internalType": "uint256",
          "name": "amountOut",
          "type": "uint256"
        }
      ],
      "name": "calculateSwapGivenOut",
      "outputs": [
        {
          "internalType": "uint256",
          "name": "",
          "type": "uint256"
        }
      ],
      "stateMutability": "view",
      "type": "function"
    },
    {
      "inputs": [
        {
          "internalType": "uint256[]",
          "name": "amounts",
          "type": "uint256[]"
        },
        {
          "internalType": "bool",
          "name": "deposit",
          "type": "bool"
        }
      ],
      "name": "calculateTokenAmount",
      "outputs": [
        {
          "internalType": "uint256",
          "name": "",
          "type": "uint256"
        }
      ],
      "stateMutability": "view",
      "type": "function"
    },
    {
      "inputs": [],
      "name": "feeController",
      "outputs": [
        {
          "internalType": "address",
          "name": "",
          "type": "address"
        }
      ],
      "stateMutability": "view",
      "type": "function"
    },
    {
      "inputs": [],
      "name": "feeDistributor",
      "outputs": [
        {
          "internalType": "address",
          "name": "",
          "type": "address"
        }
      ],
      "stateMutability": "view",
      "type": "function"
    },
    {
      "inputs": [],
      "name": "getA",
      "outputs": [
        {
          "internalType": "uint256",
          "name": "",
          "type": "uint256"
        }
      ],
      "stateMutability": "view",
      "type": "function"
    },
    {
      "inputs": [],
      "name": "getAPrecise",
      "outputs": [
        {
          "internalType": "uint256",
          "name": "",
          "type": "uint256"
        }
      ],
      "stateMutability": "view",
      "type": "function"
    },
    {
      "inputs": [
        {
          "internalType": "uint8",
          "name": "index",
          "type": "uint8"
        }
      ],
      "name": "getAdminBalance",
      "outputs": [
        {
          "internalType": "uint256",
          "name": "",
          "type": "uint256"
        }
      ],
      "stateMutability": "view",
      "type": "function"
    },
    {
      "inputs": [],
      "name": "getAdminBalances",
      "outputs": [
        {
          "internalType": "uint256[]",
          "name": "adminBalances",
          "type": "uint256[]"
        }
      ],
      "stateMutability": "view",
      "type": "function"
    },
    {
      "inputs": [],
      "name": "getLpToken",
      "outputs": [
        {
          "internalType": "contract IERC20",
          "name": "",
          "type": "address"
        }
      ],
      "stateMutability": "view",
      "type": "function"
    },
    {
      "inputs": [],
      "name": "getNumberOfTokens",
      "outputs": [
        {
          "internalType": "uint256",
          "name": "",
          "type": "uint256"
        }
      ],
      "stateMutability": "view",
      "type": "function"
    },
    {
      "inputs": [
        {
          "internalType": "uint8",
          "name": "index",
          "type": "uint8"
        }
      ],
      "name": "getToken",
      "outputs": [
        {
          "internalType": "contract IERC20",
          "name": "",
          "type": "address"
        }
      ],
      "stateMutability": "view",
      "type": "function"
    },
    {
      "inputs": [
        {
          "internalType": "uint8",
          "name": "index",
          "type": "uint8"
        }
      ],
      "name": "getTokenBalance",
      "outputs": [
        {
          "internalType": "uint256",
          "name": "",
          "type": "uint256"
        }
      ],
      "stateMutability": "view",
      "type": "function"
    },
    {
      "inputs": [],
      "name": "getTokenBalances",
      "outputs": [
        {
          "internalType": "uint256[]",
          "name": "",
          "type": "uint256[]"
        }
      ],
      "stateMutability": "view",
      "type": "function"
    },
    {
      "inputs": [
        {
          "internalType": "address",
          "name": "token",
          "type": "address"
        }
      ],
      "name": "getTokenIndex",
      "outputs": [
        {
          "internalType": "uint8",
          "name": "index",
          "type": "uint8"
        }
      ],
      "stateMutability": "view",
      "type": "function"
    },
    {
      "inputs": [],
      "name": "getTokenPrecisionMultipliers",
      "outputs": [
        {
          "internalType": "uint256[]",
          "name": "",
          "type": "uint256[]"
        }
      ],
      "stateMutability": "view",
      "type": "function"
    },
    {
      "inputs": [],
      "name": "getTokens",
      "outputs": [
        {
          "internalType": "contract IERC20[]",
          "name": "",
          "type": "address[]"
        }
      ],
      "stateMutability": "view",
      "type": "function"
    },
    {
      "inputs": [],
      "name": "getVirtualPrice",
      "outputs": [
        {
          "internalType": "uint256",
          "name": "",
          "type": "uint256"
        }
      ],
      "stateMutability": "view",
      "type": "function"
    },
    {
      "inputs": [
        {
          "internalType": "address[]",
          "name": "_coins",
          "type": "address[]"
        },
        {
          "internalType": "uint8[]",
          "name": "_decimals",
          "type": "uint8[]"
        },
        {
          "internalType": "string",
          "name": "lpTokenName",
          "type": "string"
        },
        {
          "internalType": "string",
          "name": "lpTokenSymbol",
          "type": "string"
        },
        {
          "internalType": "uint256",
          "name": "_A",
          "type": "uint256"
        },
        {
          "internalType": "uint256",
          "name": "_fee",
          "type": "uint256"
        },
        {
          "internalType": "uint256",
          "name": "_adminFee",
          "type": "uint256"
        },
        {
          "internalType": "uint256",
          "name": "_withdrawFee",
          "type": "uint256"
        },
        {
          "internalType": "address",
          "name": "_feeDistributor",
          "type": "address"
        }
      ],
      "name": "initialize",
      "outputs": [],
      "stateMutability": "nonpayable",
      "type": "function"
    },
    {
      "inputs": [
        {
          "internalType": "address",
          "name": "tokenIn",
          "type": "address"
        },
        {
          "internalType": "address",
          "name": "tokenOut",
          "type": "address"
        },
        {
          "internalType": "uint256",
          "name": "amountIn",
          "type": "uint256"
        },
        {
          "internalType": "uint256",
          "name": "amountOutMin",
          "type": "uint256"
        },
        {
          "internalType": "address",
          "name": "to",
          "type": "address"
        }
      ],
      "name": "onSwapGivenIn",
      "outputs": [
        {
          "internalType": "uint256",
          "name": "",
          "type": "uint256"
        }
      ],
      "stateMutability": "nonpayable",
      "type": "function"
    },
    {
      "inputs": [
        {
          "internalType": "address",
          "name": "tokenIn",
          "type": "address"
        },
        {
          "internalType": "address",
          "name": "tokenOut",
          "type": "address"
        },
        {
          "internalType": "uint256",
          "name": "amountOut",
          "type": "uint256"
        },
        {
          "internalType": "uint256",
          "name": "amountInMax",
          "type": "uint256"
        },
        {
          "internalType": "address",
          "name": "to",
          "type": "address"
        }
      ],
      "name": "onSwapGivenOut",
      "outputs": [
        {
          "internalType": "uint256",
          "name": "",
          "type": "uint256"
        }
      ],
      "stateMutability": "nonpayable",
      "type": "function"
    },
    {
      "inputs": [],
      "name": "owner",
      "outputs": [
        {
          "internalType": "address",
          "name": "",
          "type": "address"
        }
      ],
      "stateMutability": "view",
      "type": "function"
    },
    {
      "inputs": [],
      "name": "pause",
      "outputs": [],
      "stateMutability": "nonpayable",
      "type": "function"
    },
    {
      "inputs": [],
      "name": "paused",
      "outputs": [
        {
          "internalType": "bool",
          "name": "",
          "type": "bool"
        }
      ],
      "stateMutability": "view",
      "type": "function"
    },
    {
      "inputs": [
        {
          "internalType": "uint256",
          "name": "futureA",
          "type": "uint256"
        },
        {
          "internalType": "uint256",
          "name": "futureATime",
          "type": "uint256"
        }
      ],
      "name": "rampA",
      "outputs": [],
      "stateMutability": "nonpayable",
      "type": "function"
    },
    {
      "inputs": [
        {
          "internalType": "uint256",
          "name": "lpAmount",
          "type": "uint256"
        },
        {
          "internalType": "uint256[]",
          "name": "minAmounts",
          "type": "uint256[]"
        },
        {
          "internalType": "uint256",
          "name": "deadline",
          "type": "uint256"
        }
      ],
      "name": "removeLiquidity",
      "outputs": [
        {
          "internalType": "uint256[]",
          "name": "",
          "type": "uint256[]"
        }
      ],
      "stateMutability": "nonpayable",
      "type": "function"
    },
    {
      "inputs": [
        {
          "internalType": "uint256[]",
          "name": "amounts",
          "type": "uint256[]"
        },
        {
          "internalType": "uint256",
          "name": "maxBurnAmount",
          "type": "uint256"
        },
        {
          "internalType": "uint256",
          "name": "deadline",
          "type": "uint256"
        }
      ],
      "name": "removeLiquidityImbalance",
      "outputs": [
        {
          "internalType": "uint256",
          "name": "",
          "type": "uint256"
        }
      ],
      "stateMutability": "nonpayable",
      "type": "function"
    },
    {
      "inputs": [
        {
          "internalType": "uint256",
          "name": "lpAmount",
          "type": "uint256"
        },
        {
          "internalType": "uint8",
          "name": "index",
          "type": "uint8"
        },
        {
          "internalType": "uint256",
          "name": "minAmount",
          "type": "uint256"
        },
        {
          "internalType": "uint256",
          "name": "deadline",
          "type": "uint256"
        }
      ],
      "name": "removeLiquidityOneToken",
      "outputs": [
        {
          "internalType": "uint256",
          "name": "",
          "type": "uint256"
        }
      ],
      "stateMutability": "nonpayable",
      "type": "function"
    },
    {
      "inputs": [],
      "name": "renounceOwnership",
      "outputs": [],
      "stateMutability": "nonpayable",
      "type": "function"
    },
    {
      "inputs": [
        {
          "internalType": "uint256",
          "name": "newSwapFee",
          "type": "uint256"
        },
        {
          "internalType": "uint256",
          "name": "newAdminFee",
          "type": "uint256"
        },
        {
          "internalType": "uint256",
          "name": "newWithdrawFee",
          "type": "uint256"
        }
      ],
      "name": "setFee",
      "outputs": [],
      "stateMutability": "nonpayable",
      "type": "function"
    },
    {
      "inputs": [
        {
          "internalType": "address",
          "name": "_feeController",
          "type": "address"
        }
      ],
      "name": "setFeeController",
      "outputs": [],
      "stateMutability": "nonpayable",
      "type": "function"
    },
    {
      "inputs": [
        {
          "internalType": "address",
          "name": "_feeDistributor",
          "type": "address"
        }
      ],
      "name": "setFeeDistributor",
      "outputs": [],
      "stateMutability": "nonpayable",
      "type": "function"
    },
    {
      "inputs": [],
      "name": "stopRampA",
      "outputs": [],
      "stateMutability": "nonpayable",
      "type": "function"
    },
    {
      "inputs": [
        {
          "internalType": "uint8",
          "name": "fromIndex",
          "type": "uint8"
        },
        {
          "internalType": "uint8",
          "name": "toIndex",
          "type": "uint8"
        },
        {
          "internalType": "uint256",
          "name": "inAmount",
          "type": "uint256"
        },
        {
          "internalType": "uint256",
          "name": "minOutAmount",
          "type": "uint256"
        },
        {
          "internalType": "address",
          "name": "to",
          "type": "address"
        },
        {
          "internalType": "uint256",
          "name": "deadline",
          "type": "uint256"
        }
      ],
      "name": "swap",
      "outputs": [
        {
          "internalType": "uint256",
          "name": "",
          "type": "uint256"
        }
      ],
      "stateMutability": "nonpayable",
      "type": "function"
    },
    {
      "inputs": [],
      "name": "swapStorage",
      "outputs": [
        {
          "internalType": "contract LPToken",
          "name": "lpToken",
          "type": "address"
        },
        {
          "internalType": "uint256",
          "name": "fee",
          "type": "uint256"
        },
        {
          "internalType": "uint256",
          "name": "adminFee",
          "type": "uint256"
        },
        {
          "internalType": "uint256",
          "name": "initialA",
          "type": "uint256"
        },
        {
          "internalType": "uint256",
          "name": "futureA",
          "type": "uint256"
        },
        {
          "internalType": "uint256",
          "name": "initialATime",
          "type": "uint256"
        },
        {
          "internalType": "uint256",
          "name": "futureATime",
          "type": "uint256"
        },
        {
          "internalType": "uint256",
          "name": "defaultWithdrawFee",
          "type": "uint256"
        }
      ],
      "stateMutability": "view",
      "type": "function"
    },
    {
      "inputs": [
        {
          "internalType": "address",
          "name": "",
          "type": "address"
        }
      ],
      "name": "tokenIndexes",
      "outputs": [
        {
          "internalType": "uint8",
          "name": "",
          "type": "uint8"
        }
      ],
      "stateMutability": "view",
      "type": "function"
    },
    {
      "inputs": [
        {
          "internalType": "address",
          "name": "newOwner",
          "type": "address"
        }
      ],
      "name": "transferOwnership",
      "outputs": [],
      "stateMutability": "nonpayable",
      "type": "function"
    },
    {
      "inputs": [],
      "name": "unpause",
      "outputs": [],
      "stateMutability": "nonpayable",
      "type": "function"
    },
    {
      "inputs": [
        {
          "internalType": "address",
          "name": "recipient",
          "type": "address"
        },
        {
          "internalType": "uint256",
          "name": "transferAmount",
          "type": "uint256"
        }
      ],
      "name": "updateUserWithdrawFee",
      "outputs": [],
      "stateMutability": "nonpayable",
      "type": "function"
    },
    {
      "inputs": [],
      "name": "withdrawAdminFee",
      "outputs": [],
      "stateMutability": "nonpayable",
      "type": "function"
    }
  ],
  "bytecode": "0x60806040523480156200001157600080fd5b506200001d3362000034565b6000805460ff60a01b191690556001805562000084565b600080546001600160a01b038381166001600160a01b0319831681178455604051919092169283917f8be0079c531659141344cd1fd0a4f28419497f9722a3daafe3b4186f6b6457e09190a35050565b6159d680620000946000396000f3fe60806040523480156200001157600080fd5b5060043610620003855760003560e01c806384cdd9bc11620001e1578063cc56fd43116200010d578063e25aa5fa11620000af578063efeecb511162000086578063efeecb5114620007c1578063f2fde38b14620007ca578063f3de036214620007e1578063fe49abe314620007ee57600080fd5b8063e25aa5fa1462000789578063e6ab28061462000793578063e9255bae14620007aa57600080fd5b8063d46300fd11620000e4578063d46300fd1462000768578063d4b0de2f14620006e3578063df3ed68d146200077257600080fd5b8063cc56fd431462000730578063ccfc2e8d1462000747578063d41f6568146200075e57600080fd5b8063a95b089f1162000183578063ab5ac061116200015a578063ab5ac06114620006ef578063bfd3956b14620006f8578063c00c125c146200070f578063c4db7fa0146200072657600080fd5b8063a95b089f14620006b3578063aa6ca80814620006ca578063ab3d854414620006e357600080fd5b806391ceb3eb11620001b857806391ceb3eb146200067b57806398899f401462000692578063a1dc903114620006a957600080fd5b806384cdd9bc146200063b5780638554a7d414620006525780638da5cb5b146200066957600080fd5b80634ac00e0311620002c157806366c0bd2411620002635780637c61e561116200023a5780637c61e56114620005f15780638214f5a4146200060857806382b86600146200061a5780638456cb59146200063157600080fd5b806366c0bd2414620005bc5780636999b37714620005d3578063715018a614620005e757600080fd5b80635b65b9ab11620002985780635b65b9ab14620005005780635c975abb14620005175780635fd65f0f146200054657600080fd5b80634ac00e0314620004bb5780634d49e87d14620004d2578063593d132c14620004e957600080fd5b806331cd52b0116200032b5780633ed4c67811620003025780633ed4c67814620004815780633f4ba83a146200049a5780634a1b0d5714620004a457600080fd5b806331cd52b0146200044857806339698415146200045f5780633e3a1560146200046a57600080fd5b80630d43e8ad11620003605780630d43e8ad14620003eb5780630e6d8bce146200041857806318f52ce2146200042f57600080fd5b806304bc3b1c146200038a57806306e9481c14620003c75780630ba8195914620003e1575b600080fd5b620003b06200039b366004620036a6565b60126020526000908152604090205460ff1681565b60405160ff90911681526020015b60405180910390f35b620003d26201518081565b604051908152602001620003be565b620003d2620007f8565b601054620003ff906001600160a01b031681565b6040516001600160a01b039091168152602001620003be565b620003d262000429366004620036c4565b62000891565b6200043962000a47565b604051620003be919062003722565b620004396200045936600462003883565b62000b73565b620003d2620f424081565b620003d26200047b366004620038e9565b62000cec565b6200049862000492366004620036a6565b62000e89565b005b6200049862000faa565b620003d2620004b5366004620036a6565b62001012565b620003d2620004cc366004620036c4565b62001027565b620003d2620004e336600462003927565b6200118c565b62000498620004fa36600462003979565b62001342565b62000498620005113660046200399c565b62001695565b60005474010000000000000000000000000000000000000000900460ff166040519015158152602001620003be565b600454600754600854600954600a54600b54600c54600d5462000576976001600160a01b03169695949392919088565b604080516001600160a01b0390991689526020890197909752958701949094526060860192909252608085015260a084015260c083015260e082015261010001620003be565b620003b0620005cd366004620036a6565b62001849565b601154620003ff906001600160a01b031681565b62000498620018e9565b6200043962000602366004620039c9565b62001951565b6004546001600160a01b0316620003ff565b620003ff6200062b366004620039f6565b62001a23565b6200049862001a5c565b620003d26200064c36600462003927565b62001ac2565b620003d262000663366004620039f6565b62001c35565b6000546001600160a01b0316620003ff565b620003d26200068c366004620039f6565b62001cd1565b620003d2620006a336600462003a14565b62001d00565b6200043962001dbb565b620003d2620006c436600462003a55565b62001e17565b620006d462001e84565b604051620003be919062003a96565b620003d26305f5e10081565b620003d2600a81565b620003d26200070936600462003ad9565b62001eea565b6200049862000720366004620039c9565b620020d3565b62000498620021c7565b620003d26200074136600462003b3f565b62002359565b6200049862000758366004620036a6565b620023e7565b6200043962002502565b620003d26200255d565b620004986200078336600462003cdb565b620025b2565b620003d262002d32565b620003d2620007a436600462003dde565b62002d87565b620003d2620007bb36600462003b3f565b62002de3565b600354620003d2565b62000498620007db366004620036a6565b62002e71565b620003d26402540be40081565b6200049862002f59565b6040517fa30355850000000000000000000000000000000000000000000000000000000081526003600482015260009073__$6aaf67e7827a013dd22ce71b2520632c86$__9063a3035585906024015b602060405180830381865af415801562000866573d6000803e3d6000fd5b505050506040513d601f19601f820116820180604052508101906200088c919062003e6b565b905090565b6000805474010000000000000000000000000000000000000000900460ff1615620009035760405162461bcd60e51b815260206004820152601060248201527f5061757361626c653a207061757365640000000000000000000000000000000060448201526064015b60405180910390fd5b60026001541415620009585760405162461bcd60e51b815260206004820152601f60248201527f5265656e7472616e637947756172643a207265656e7472616e742063616c6c006044820152606401620008fa565b60026001556001600160a01b03868116600090815260126020526040808220548884168352918190205490517f8e6da7b60000000000000000000000000000000000000000000000000000000081526003600482015260ff928316602482015291166044820152606481018690526084810185905290831660a482015273__$6aaf67e7827a013dd22ce71b2520632c86$__90638e6da7b69060c4015b602060405180830381865af415801562000a13573d6000803e3d6000fd5b505050506040513d601f19601f8201168201806040525081019062000a39919062003e6b565b600180559695505050505050565b6003546060908067ffffffffffffffff81111562000a695762000a6962003768565b60405190808252806020026020018201604052801562000a93578160200160208202803683370190505b50915060005b8181101562000b6e576040517fe2eba89b000000000000000000000000000000000000000000000000000000008152600360048201526024810182905273__$6aaf67e7827a013dd22ce71b2520632c86$__9063e2eba89b90604401602060405180830381865af415801562000b13573d6000803e3d6000fd5b505050506040513d601f19601f8201168201806040525081019062000b39919062003e6b565b83828151811062000b4e5762000b4e62003e85565b60209081029190910101528062000b658162003ee3565b91505062000a99565b505090565b60606002600154141562000bca5760405162461bcd60e51b815260206004820152601f60248201527f5265656e7472616e637947756172643a207265656e7472616e742063616c6c006044820152606401620008fa565b6002600155814281101562000c225760405162461bcd60e51b815260206004820152600760248201527f74696d656f7574000000000000000000000000000000000000000000000000006044820152606401620008fa565b6040517fc685696c00000000000000000000000000000000000000000000000000000000815273__$6aaf67e7827a013dd22ce71b2520632c86$__9063c685696c9062000c79906003908990899060040162003f5c565b600060405180830381865af415801562000c97573d6000803e3d6000fd5b505050506040513d6000823e601f3d9081017fffffffffffffffffffffffffffffffffffffffffffffffffffffffffffffffe016820160405262000cdf919081019062003f86565b6001805595945050505050565b60006002600154141562000d435760405162461bcd60e51b815260206004820152601f60248201527f5265656e7472616e637947756172643a207265656e7472616e742063616c6c006044820152606401620008fa565b600260015560005474010000000000000000000000000000000000000000900460ff161562000db55760405162461bcd60e51b815260206004820152601060248201527f5061757361626c653a20706175736564000000000000000000000000000000006044820152606401620008fa565b818042111562000e085760405162461bcd60e51b815260206004820152600760248201527f74696d656f7574000000000000000000000000000000000000000000000000006044820152606401620008fa565b6040517f2bfe30d0000000000000000000000000000000000000000000000000000000008152600360048201526024810187905260ff861660448201526064810185905273__$6aaf67e7827a013dd22ce71b2520632c86$__90632bfe30d090608401602060405180830381865af415801562000a13573d6000803e3d6000fd5b6000546001600160a01b0316331462000ee55760405162461bcd60e51b815260206004820181905260248201527f4f776e61626c653a2063616c6c6572206973206e6f7420746865206f776e65726044820152606401620008fa565b6001600160a01b03811662000f3d5760405162461bcd60e51b815260206004820152600b60248201527f7a65726f416464726573730000000000000000000000000000000000000000006044820152606401620008fa565b601180547fffffffffffffffffffffffff0000000000000000000000000000000000000000166001600160a01b0383169081179091556040519081527f4c3f3b9852ccceadd50f16518f348e2624c8f0240acdd5bc81911c0fba83ec67906020015b60405180910390a150565b6000546001600160a01b03163314620010065760405162461bcd60e51b815260206004820181905260248201527f4f776e61626c653a2063616c6c6572206973206e6f7420746865206f776e65726044820152606401620008fa565b6200101062003140565b565b60006200102160038362003214565b92915050565b6000805474010000000000000000000000000000000000000000900460ff1615620010955760405162461bcd60e51b815260206004820152601060248201527f5061757361626c653a20706175736564000000000000000000000000000000006044820152606401620008fa565b60026001541415620010ea5760405162461bcd60e51b815260206004820152601f60248201527f5265656e7472616e637947756172643a207265656e7472616e742063616c6c006044820152606401620008fa565b60026001556001600160a01b03868116600090815260126020526040808220548884168352918190205490517f0da350f60000000000000000000000000000000000000000000000000000000081526003600482015260ff928316602482015291166044820152606481018690526084810185905290831660a482015273__$6aaf67e7827a013dd22ce71b2520632c86$__90630da350f69060c401620009f5565b6000805474010000000000000000000000000000000000000000900460ff1615620011fa5760405162461bcd60e51b815260206004820152601060248201527f5061757361626c653a20706175736564000000000000000000000000000000006044820152606401620008fa565b600260015414156200124f5760405162461bcd60e51b815260206004820152601f60248201527f5265656e7472616e637947756172643a207265656e7472616e742063616c6c006044820152606401620008fa565b60026001558142811015620012a75760405162461bcd60e51b815260206004820152600760248201527f74696d656f7574000000000000000000000000000000000000000000000000006044820152606401620008fa565b6040517f7a6cba3c00000000000000000000000000000000000000000000000000000000815273__$6aaf67e7827a013dd22ce71b2520632c86$__90637a6cba3c90620012fe906003908990899060040162004020565b602060405180830381865af41580156200131c573d6000803e3d6000fd5b505050506040513d601f19601f8201168201806040525081019062000cdf919062003e6b565b6000546001600160a01b031633146200139e5760405162461bcd60e51b815260206004820181905260248201527f4f776e61626c653a2063616c6c6572206973206e6f7420746865206f776e65726044820152606401620008fa565b600b54620013b090620151806200404b565b421015620014015760405162461bcd60e51b815260206004820152600b60248201527f3c2072616d7044656c61790000000000000000000000000000000000000000006044820152606401620008fa565b6200141062015180426200404b565b811015620014615760405162461bcd60e51b815260206004820152600d60248201527f3c206d696e52616d7054696d65000000000000000000000000000000000000006044820152606401620008fa565b816000108015620014745750620f424082105b620014c25760405162461bcd60e51b815260206004820152600a60248201527f6f75744f6652616e6765000000000000000000000000000000000000000000006044820152606401620008fa565b6040517fa30355850000000000000000000000000000000000000000000000000000000081526003600482015260009073__$6aaf67e7827a013dd22ce71b2520632c86$__9063a303558590602401602060405180830381865af41580156200152f573d6000803e3d6000fd5b505050506040513d601f19601f8201168201806040525081019062001555919062003e6b565b905060006200156660648562004066565b905081811015620015d557816200157f600a8362004066565b1015620015cf5760405162461bcd60e51b815260206004820152600b60248201527f3e206d61784368616e67650000000000000000000000000000000000000000006044820152606401620008fa565b62001633565b620015e2600a8362004066565b811115620016335760405162461bcd60e51b815260206004820152600b60248201527f3e206d61784368616e67650000000000000000000000000000000000000000006044820152606401620008fa565b6009829055600a81905542600b819055600c84905560408051848152602081018490528082019290925260608201859052517fa2b71ec6df949300b59aab36b55e189697b750119dd349fcfa8c0f779e83c2549181900360800190a150505050565b6000546001600160a01b03163314620016f15760405162461bcd60e51b815260206004820181905260248201527f4f776e61626c653a2063616c6c6572206973206e6f7420746865206f776e65726044820152606401620008fa565b6305f5e100831115620017475760405162461bcd60e51b815260206004820152600c60248201527f3e206d61785377617046656500000000000000000000000000000000000000006044820152606401620008fa565b6402540be4008211156200179e5760405162461bcd60e51b815260206004820152600d60248201527f3e206d617841646d696e466565000000000000000000000000000000000000006044820152606401620008fa565b6305f5e100811115620017f45760405162461bcd60e51b815260206004820152601060248201527f3e206d61785769746864726177466565000000000000000000000000000000006044820152606401620008fa565b60088290556007839055600d81905560408051848152602081018490529081018290527fcfca96e0fef3432146913b2a5a2268a55d3f475fe057e7ffde1082b77693f4f39060600160405180910390a1505050565b6001600160a01b0381166000818152601260205260409020546003805460ff90921692918390811062001880576200188062003e85565b6000918252602090912001546001600160a01b031614620018e45760405162461bcd60e51b815260206004820152600d60248201527f746f6b656e4e6f74466f756e64000000000000000000000000000000000000006044820152606401620008fa565b919050565b6000546001600160a01b03163314620019455760405162461bcd60e51b815260206004820181905260248201527f4f776e61626c653a2063616c6c6572206973206e6f7420746865206f776e65726044820152606401620008fa565b620010106000620032ce565b6040517ffa563597000000000000000000000000000000000000000000000000000000008152600360048201526001600160a01b03831660248201526044810182905260609073__$6aaf67e7827a013dd22ce71b2520632c86$__9063fa56359790606401600060405180830381865af4158015620019d4573d6000803e3d6000fd5b505050506040513d6000823e601f3d9081017fffffffffffffffffffffffffffffffffffffffffffffffffffffffffffffffe016820160405262001a1c919081019062003f86565b9392505050565b600060036000018260ff168154811062001a415762001a4162003e85565b6000918252602090912001546001600160a01b031692915050565b6000546001600160a01b0316331462001ab85760405162461bcd60e51b815260206004820181905260248201527f4f776e61626c653a2063616c6c6572206973206e6f7420746865206f776e65726044820152606401620008fa565b6200101062003336565b60006002600154141562001b195760405162461bcd60e51b815260206004820152601f60248201527f5265656e7472616e637947756172643a207265656e7472616e742063616c6c006044820152606401620008fa565b600260015560005474010000000000000000000000000000000000000000900460ff161562001b8b5760405162461bcd60e51b815260206004820152601060248201527f5061757361626c653a20706175736564000000000000000000000000000000006044820152606401620008fa565b818042111562001bde5760405162461bcd60e51b815260206004820152600760248201527f74696d656f7574000000000000000000000000000000000000000000000000006044820152606401620008fa565b6040517fc8344c0600000000000000000000000000000000000000000000000000000000815273__$6aaf67e7827a013dd22ce71b2520632c86$__9063c8344c0690620012fe906003908990899060040162004020565b6040517fe2eba89b0000000000000000000000000000000000000000000000000000000081526003600482015260ff8216602482015260009073__$6aaf67e7827a013dd22ce71b2520632c86$__9063e2eba89b90604401602060405180830381865af415801562001cab573d6000803e3d6000fd5b505050506040513d601f19601f8201168201806040525081019062001021919062003e6b565b6000600380018260ff168154811062001cee5762001cee62003e85565b90600052602060002001549050919050565b6040517f159763bb000000000000000000000000000000000000000000000000000000008152600360048201526001600160a01b03841660248201526044810183905260ff8216606482015260009073__$6aaf67e7827a013dd22ce71b2520632c86$__9063159763bb906084015b602060405180830381865af415801562001d8d573d6000803e3d6000fd5b505050506040513d601f19601f8201168201806040525081019062001db3919062003e6b565b949350505050565b60606003800180548060200260200160405190810160405280929190818152602001828054801562001e0d57602002820191906000526020600020905b81548152602001906001019080831162001df8575b5050505050905090565b6040517fba2998d90000000000000000000000000000000000000000000000000000000081526003600482015260ff8085166024830152831660448201526064810182905260009073__$6aaf67e7827a013dd22ce71b2520632c86$__9063ba2998d99060840162001d6f565b6060600360000180548060200260200160405190810160405280929190818152602001828054801562001e0d57602002820191906000526020600020905b81546001600160a01b0316815260019091019060200180831162001ec2575050505050905090565b6000805474010000000000000000000000000000000000000000900460ff161562001f585760405162461bcd60e51b815260206004820152601060248201527f5061757361626c653a20706175736564000000000000000000000000000000006044820152606401620008fa565b6002600154141562001fad5760405162461bcd60e51b815260206004820152601f60248201527f5265656e7472616e637947756172643a207265656e7472616e742063616c6c006044820152606401620008fa565b60026001558142811015620020055760405162461bcd60e51b815260206004820152600760248201527f74696d656f7574000000000000000000000000000000000000000000000000006044820152606401620008fa565b6040517fad30093f0000000000000000000000000000000000000000000000000000000081526003600482015260ff808a1660248301528816604482015260648101879052608481018690526001600160a01b03851660a482015273__$6aaf67e7827a013dd22ce71b2520632c86$__9063ad30093f9060c401602060405180830381865af41580156200209d573d6000803e3d6000fd5b505050506040513d601f19601f82011682018060405250810190620020c3919062003e6b565b6001805598975050505050505050565b6004546001600160a01b031633146200212f5760405162461bcd60e51b815260206004820152600860248201527f216c70546f6b656e0000000000000000000000000000000000000000000000006044820152606401620008fa565b6040517fc188e4be000000000000000000000000000000000000000000000000000000008152600360048201526001600160a01b03831660248201526044810182905273__$6aaf67e7827a013dd22ce71b2520632c86$__9063c188e4be9060640160006040518083038186803b158015620021aa57600080fd5b505af4158015620021bf573d6000803e3d6000fd5b505050505050565b6000546001600160a01b03163314620022235760405162461bcd60e51b815260206004820181905260248201527f4f776e61626c653a2063616c6c6572206973206e6f7420746865206f776e65726044820152606401620008fa565b600c544210620022765760405162461bcd60e51b815260206004820152600e60248201527f616c726561647953746f707065640000000000000000000000000000000000006044820152606401620008fa565b6040517fa30355850000000000000000000000000000000000000000000000000000000081526003600482015260009073__$6aaf67e7827a013dd22ce71b2520632c86$__9063a303558590602401602060405180830381865af4158015620022e3573d6000803e3d6000fd5b505050506040513d601f19601f8201168201806040525081019062002309919062003e6b565b6009819055600a81905542600b819055600c8190556040519192507f46e22fb3709ad289f62ce63d469248536dbc78d82b84a3d7e74ad606dc2019389162000f9f91848252602082015260400190565b6001600160a01b038381166000908152601260205260408082205492851682528082205490517faa054aee0000000000000000000000000000000000000000000000000000000081526003600482015260ff938416602482015292166044830152606482018390529073__$6aaf67e7827a013dd22ce71b2520632c86$__9063aa054aee9060840162001d6f565b6000546001600160a01b03163314620024435760405162461bcd60e51b815260206004820181905260248201527f4f776e61626c653a2063616c6c6572206973206e6f7420746865206f776e65726044820152606401620008fa565b6001600160a01b0381166200249b5760405162461bcd60e51b815260206004820152600b60248201527f7a65726f416464726573730000000000000000000000000000000000000000006044820152606401620008fa565b601080547fffffffffffffffffffffffff0000000000000000000000000000000000000000166001600160a01b0383169081179091556040519081527fae5a12c29e496b092467a620746b9eaf4e0e231a631a4370c233b1fac38e8e269060200162000f9f565b6060600360020180548060200260200160405190810160405280929190818152602001828054801562001e0d576020028201919060005260206000209081548152602001906001019080831162001df8575050505050905090565b6040517fb52e146f0000000000000000000000000000000000000000000000000000000081526003600482015260009073__$6aaf67e7827a013dd22ce71b2520632c86$__9063b52e146f9060240162000848565b6000546001600160a01b031633146200260e5760405162461bcd60e51b815260206004820181905260248201527f4f776e61626c653a2063616c6c6572206973206e6f7420746865206f776e65726044820152606401620008fa565b600254610100900460ff168062002628575060025460ff16155b6200269c5760405162461bcd60e51b815260206004820152602e60248201527f496e697469616c697a61626c653a20636f6e747261637420697320616c72656160448201527f647920696e697469616c697a65640000000000000000000000000000000000006064820152608401620008fa565b600254610100900460ff16158015620026dc57600280547fffffffffffffffffffffffffffffffffffffffffffffffffffffffffffff0000166101011790555b88518a51146200272f5760405162461bcd60e51b815260206004820152601d60248201527f636f696e734c656e67746820213d20646563696d616c734c656e6774680000006044820152606401620008fa565b6001600160a01b038216620027875760405162461bcd60e51b815260206004820152601660248201527f6665654469737472696275746f72203d20656d707479000000000000000000006044820152606401620008fa565b895160008167ffffffffffffffff811115620027a757620027a762003768565b604051908082528060200260200182016040528015620027d1578160200160208202803683370190505b50905060008267ffffffffffffffff811115620027f257620027f262003768565b6040519080825280602002602001820160405280156200281c578160200160208202803683370190505b50905060005b8381101562002a3c5760006001600160a01b03168e82815181106200284b576200284b62003e85565b60200260200101516001600160a01b03161415620028ac5760405162461bcd60e51b815260206004820152601360248201527f696e76616c6964546f6b656e41646472657373000000000000000000000000006044820152606401620008fa565b60128d8281518110620028c357620028c362003e85565b602002602001015160ff1611156200291e5760405162461bcd60e51b815260206004820152600f60248201527f696e76616c6964446563696d616c7300000000000000000000000000000000006044820152606401620008fa565b8c818151811062002933576200293362003e85565b602002602001015160ff1660126200294c9190620040a6565b6200295990600a620041f9565b8382815181106200296e576200296e62003e85565b6020026020010181815250508d81815181106200298f576200298f62003e85565b6020026020010151828281518110620029ac57620029ac62003e85565b60200260200101906001600160a01b031690816001600160a01b0316815250508060126000848481518110620029e657620029e662003e85565b60200260200101516001600160a01b03166001600160a01b0316815260200190815260200160002060006101000a81548160ff021916908360ff160217905550808062002a339062003ee3565b91505062002822565b50620f4240891062002a915760405162461bcd60e51b815260206004820152600660248201527f3e206d61784100000000000000000000000000000000000000000000000000006044820152606401620008fa565b6305f5e10088111562002ae75760405162461bcd60e51b815260206004820152600c60248201527f3e206d61785377617046656500000000000000000000000000000000000000006044820152606401620008fa565b6402540be40087111562002b3e5760405162461bcd60e51b815260206004820152600d60248201527f3e206d617841646d696e466565000000000000000000000000000000000000006044820152606401620008fa565b6305f5e10086111562002b945760405162461bcd60e51b815260206004820152601060248201527f3e206d61785769746864726177466565000000000000000000000000000000006044820152606401620008fa565b8a8a60405162002ba490620035a9565b62002bb192919062004282565b604051809103906000f08015801562002bce573d6000803e3d6000fd5b50600480547fffffffffffffffffffffffff0000000000000000000000000000000000000000166001600160a01b03929092169190911790558267ffffffffffffffff81111562002c235762002c2362003768565b60405190808252806020026020018201604052801562002c4d578160200160208202803683370190505b50805162002c6491600691602090910190620035b7565b50815162002c7a906005906020850190620035b7565b50805162002c9090600390602084019062003607565b5062002c9e60648a62004066565b60095562002cae60648a62004066565b600a5550505060078590556008849055600d839055601080547fffffffffffffffffffffffff0000000000000000000000000000000000000000166001600160a01b038416179055801562002d2657600280547fffffffffffffffffffffffffffffffffffffffffffffffffffffffffffff00ff1690555b50505050505050505050565b6040517fd36604ac0000000000000000000000000000000000000000000000000000000081526003600482015260009073__$6aaf67e7827a013dd22ce71b2520632c86$__9063d36604ac9060240162000848565b6040517f1e7e95d300000000000000000000000000000000000000000000000000000000815260009073__$6aaf67e7827a013dd22ce71b2520632c86$__90631e7e95d39062001d6f90600390889088908890600401620042ab565b6001600160a01b038381166000908152601260205260408082205492851682528082205490517fba2998d90000000000000000000000000000000000000000000000000000000081526003600482015260ff938416602482015292166044830152606482018390529073__$6aaf67e7827a013dd22ce71b2520632c86$__9063ba2998d99060840162001d6f565b6000546001600160a01b0316331462002ecd5760405162461bcd60e51b815260206004820181905260248201527f4f776e61626c653a2063616c6c6572206973206e6f7420746865206f776e65726044820152606401620008fa565b6001600160a01b03811662002f4b5760405162461bcd60e51b815260206004820152602660248201527f4f776e61626c653a206e6577206f776e657220697320746865207a65726f206160448201527f64647265737300000000000000000000000000000000000000000000000000006064820152608401620008fa565b62002f5681620032ce565b50565b6011546001600160a01b031633148062002f7d57506000546001600160a01b031633145b62002fcb5760405162461bcd60e51b815260206004820152601560248201527f21666565436f6e74726f6c6c65724f724f776e657200000000000000000000006044820152606401620008fa565b60005b60035481101562002f565760006003600001828154811062002ff45762002ff462003e85565b6000918252602082200154600680546001600160a01b039092169350908490811062003024576200302462003e85565b6000918252602090912001546040517f70a082310000000000000000000000000000000000000000000000000000000081523060048201526001600160a01b038416906370a0823190602401602060405180830381865afa1580156200308e573d6000803e3d6000fd5b505050506040513d601f19601f82011682018060405250810190620030b4919062003e6b565b620030c09190620040a6565b905080156200312857601054620030e5906001600160a01b038481169116836200340b565b604080516001600160a01b0384168152602081018390527fee3859efa95e525bc2bcb149b51b60a8bb4e89c647392d9d4112e03c3e73bdd6910160405180910390a15b50508080620031379062003ee3565b91505062002fce565b60005474010000000000000000000000000000000000000000900460ff16620031ac5760405162461bcd60e51b815260206004820152601460248201527f5061757361626c653a206e6f74207061757365640000000000000000000000006044820152606401620008fa565b600080547fffffffffffffffffffffff00ffffffffffffffffffffffffffffffffffffffff1690557f5db9ee0a495bf2e6ff9c91a7834c1ba4fdd244a5e8aa4e537bd38aeae4b073aa335b6040516001600160a01b03909116815260200160405180910390a1565b6001600160a01b0381166000908152600b83016020526040812054819062003240906224ea006200404b565b905042811115620032c4576000620032594283620040a6565b6001600160a01b0385166000908152600c87016020526040902054600a8701549192506402540be400916224ea0091849162003296919062004066565b620032a2919062004066565b620032ae919062004315565b620032ba919062004315565b9250505062001021565b5060009392505050565b600080546001600160a01b038381167fffffffffffffffffffffffff0000000000000000000000000000000000000000831681178455604051919092169283917f8be0079c531659141344cd1fd0a4f28419497f9722a3daafe3b4186f6b6457e09190a35050565b60005474010000000000000000000000000000000000000000900460ff1615620033a35760405162461bcd60e51b815260206004820152601060248201527f5061757361626c653a20706175736564000000000000000000000000000000006044820152606401620008fa565b600080547fffffffffffffffffffffff00ffffffffffffffffffffffffffffffffffffffff16740100000000000000000000000000000000000000001790557f62e78cea01bee320cd4e420270b5ea74000d11b0c9f74754ebdbfc544b05a258620031f73390565b604080516001600160a01b038416602482015260448082018490528251808303909101815260649091019091526020810180517bffffffffffffffffffffffffffffffffffffffffffffffffffffffff167fa9059cbb000000000000000000000000000000000000000000000000000000001790526200348d90849062003492565b505050565b600080836001600160a01b031683604051620034af919062004351565b6000604051808303816000865af19150503d8060008114620034ee576040519150601f19603f3d011682016040523d82523d6000602084013e620034f3565b606091505b509150915060008214156200350c573d6000803e3d6000fd5b6200353b815160001480620035325750818060200190518101906200353291906200436f565b6101a262003541565b50505050565b816200355257620035528162003556565b5050565b62461bcd60e51b6000908152602060045260076024526652455123000030600a808404818106603090810160081b95839006959095019082900491820690940160101b939093010160c81b604452606490fd5b611611806200439083390190565b828054828255906000526020600020908101928215620035f5579160200282015b82811115620035f5578251825591602001919060010190620035d8565b506200360392915062003677565b5090565b828054828255906000526020600020908101928215620035f5579160200282015b82811115620035f557825182547fffffffffffffffffffffffff0000000000000000000000000000000000000000166001600160a01b0390911617825560209092019160019091019062003628565b5b8082111562003603576000815560010162003678565b80356001600160a01b0381168114620018e457600080fd5b600060208284031215620036b957600080fd5b62001a1c826200368e565b600080600080600060a08688031215620036dd57600080fd5b620036e8866200368e565b9450620036f8602087016200368e565b9350604086013592506060860135915062003716608087016200368e565b90509295509295909350565b6020808252825182820181905260009190848201906040850190845b818110156200375c578351835292840192918401916001016200373e565b50909695505050505050565b7f4e487b7100000000000000000000000000000000000000000000000000000000600052604160045260246000fd5b604051601f82017fffffffffffffffffffffffffffffffffffffffffffffffffffffffffffffffe016810167ffffffffffffffff81118282101715620037e157620037e162003768565b604052919050565b600067ffffffffffffffff82111562003806576200380662003768565b5060051b60200190565b600082601f8301126200382257600080fd5b813560206200383b6200383583620037e9565b62003797565b82815260059290921b840181019181810190868411156200385b57600080fd5b8286015b848110156200387857803583529183019183016200385f565b509695505050505050565b6000806000606084860312156200389957600080fd5b83359250602084013567ffffffffffffffff811115620038b857600080fd5b620038c68682870162003810565b925050604084013590509250925092565b803560ff81168114620018e457600080fd5b600080600080608085870312156200390057600080fd5b843593506200391260208601620038d7565b93969395505050506040820135916060013590565b6000806000606084860312156200393d57600080fd5b833567ffffffffffffffff8111156200395557600080fd5b620039638682870162003810565b9660208601359650604090950135949350505050565b600080604083850312156200398d57600080fd5b50508035926020909101359150565b600080600060608486031215620039b257600080fd5b505081359360208301359350604090920135919050565b60008060408385031215620039dd57600080fd5b620039e8836200368e565b946020939093013593505050565b60006020828403121562003a0957600080fd5b62001a1c82620038d7565b60008060006060848603121562003a2a57600080fd5b62003a35846200368e565b92506020840135915062003a4c60408501620038d7565b90509250925092565b60008060006060848603121562003a6b57600080fd5b62003a7684620038d7565b925062003a8660208501620038d7565b9150604084013590509250925092565b6020808252825182820181905260009190848201906040850190845b818110156200375c5783516001600160a01b03168352928401929184019160010162003ab2565b60008060008060008060c0878903121562003af357600080fd5b62003afe87620038d7565b955062003b0e60208801620038d7565b9450604087013593506060870135925062003b2c608088016200368e565b915060a087013590509295509295509295565b60008060006060848603121562003b5557600080fd5b62003b60846200368e565b925062003a86602085016200368e565b600082601f83011262003b8257600080fd5b8135602062003b956200383583620037e9565b82815260059290921b8401810191818101908684111562003bb557600080fd5b8286015b84811015620038785762003bcd816200368e565b835291830191830162003bb9565b600082601f83011262003bed57600080fd5b8135602062003c006200383583620037e9565b82815260059290921b8401810191818101908684111562003c2057600080fd5b8286015b84811015620038785762003c3881620038d7565b835291830191830162003c24565b600082601f83011262003c5857600080fd5b813567ffffffffffffffff81111562003c755762003c7562003768565b62003ca860207fffffffffffffffffffffffffffffffffffffffffffffffffffffffffffffffe0601f8401160162003797565b81815284602083860101111562003cbe57600080fd5b816020850160208301376000918101602001919091529392505050565b60008060008060008060008060006101208a8c03121562003cfb57600080fd5b893567ffffffffffffffff8082111562003d1457600080fd5b62003d228d838e0162003b70565b9a5060208c013591508082111562003d3957600080fd5b62003d478d838e0162003bdb565b995060408c013591508082111562003d5e57600080fd5b62003d6c8d838e0162003c46565b985060608c013591508082111562003d8357600080fd5b5062003d928c828d0162003c46565b96505060808a0135945060a08a0135935060c08a0135925060e08a0135915062003dc06101008b016200368e565b90509295985092959850929598565b801515811462002f5657600080fd5b60008060006040848603121562003df457600080fd5b833567ffffffffffffffff8082111562003e0d57600080fd5b818601915086601f83011262003e2257600080fd5b81358181111562003e3257600080fd5b8760208260051b850101111562003e4857600080fd5b6020928301955093505084013562003e608162003dcf565b809150509250925092565b60006020828403121562003e7e57600080fd5b5051919050565b7f4e487b7100000000000000000000000000000000000000000000000000000000600052603260045260246000fd5b7f4e487b7100000000000000000000000000000000000000000000000000000000600052601160045260246000fd5b60007fffffffffffffffffffffffffffffffffffffffffffffffffffffffffffffffff82141562003f185762003f1862003eb4565b5060010190565b600081518084526020808501945080840160005b8381101562003f515781518752958201959082019060010162003f33565b509495945050505050565b83815282602082015260606040820152600062003f7d606083018462003f1f565b95945050505050565b6000602080838503121562003f9a57600080fd5b825167ffffffffffffffff81111562003fb257600080fd5b8301601f8101851362003fc457600080fd5b805162003fd56200383582620037e9565b81815260059190911b8201830190838101908783111562003ff557600080fd5b928401925b82841015620040155783518252928401929084019062003ffa565b979650505050505050565b8381526060602082015260006200403b606083018562003f1f565b9050826040830152949350505050565b6000821982111562004061576200406162003eb4565b500190565b6000817fffffffffffffffffffffffffffffffffffffffffffffffffffffffffffffffff0483118215151615620040a157620040a162003eb4565b500290565b600082821015620040bb57620040bb62003eb4565b500390565b600181815b808511156200411f57817fffffffffffffffffffffffffffffffffffffffffffffffffffffffffffffffff0482111562004103576200410362003eb4565b808516156200411157918102915b93841c9390800290620040c5565b509250929050565b600082620041385750600162001021565b81620041475750600062001021565b81600181146200416057600281146200416b576200418b565b600191505062001021565b60ff8411156200417f576200417f62003eb4565b50506001821b62001021565b5060208310610133831016604e8410600b8410161715620041b0575081810a62001021565b620041bc8383620040c0565b807fffffffffffffffffffffffffffffffffffffffffffffffffffffffffffffffff04821115620041f157620041f162003eb4565b029392505050565b600062001a1c838362004127565b60005b83811015620042245781810151838201526020016200420a565b838111156200353b5750506000910152565b600081518084526200425081602086016020860162004207565b601f017fffffffffffffffffffffffffffffffffffffffffffffffffffffffffffffffe0169290920160200192915050565b60408152600062004297604083018562004236565b828103602084015262003f7d818562004236565b8481526060602082015282606082015260007f07ffffffffffffffffffffffffffffffffffffffffffffffffffffffffffffff841115620042eb57600080fd5b8360051b808660808501376000908301608001908152921515604090920191909152509392505050565b6000826200434c577f4e487b7100000000000000000000000000000000000000000000000000000000600052601260045260246000fd5b500490565b600082516200436581846020870162004207565b9190910192915050565b6000602082840312156200438257600080fd5b815162001a1c8162003dcf56fe60806040523480156200001157600080fd5b506040516200161138038062001611833981016040819052620000349162000256565b8181620000413362000093565b815162000056906004906020850190620000e3565b5080516200006c906005906020840190620000e3565b50506006805433610100026001600160a81b031990911617601217905550620002fd915050565b600080546001600160a01b038381166001600160a01b0319831681178455604051919092169283917f8be0079c531659141344cd1fd0a4f28419497f9722a3daafe3b4186f6b6457e09190a35050565b828054620000f190620002c0565b90600052602060002090601f01602090048101928262000115576000855562000160565b82601f106200013057805160ff191683800117855562000160565b8280016001018555821562000160579182015b828111156200016057825182559160200191906001019062000143565b506200016e92915062000172565b5090565b5b808211156200016e576000815560010162000173565b634e487b7160e01b600052604160045260246000fd5b600082601f830112620001b157600080fd5b81516001600160401b0380821115620001ce57620001ce62000189565b604051601f8301601f19908116603f01168101908282118183101715620001f957620001f962000189565b816040528381526020925086838588010111156200021657600080fd5b600091505b838210156200023a57858201830151818301840152908201906200021b565b838211156200024c5760008385830101525b9695505050505050565b600080604083850312156200026a57600080fd5b82516001600160401b03808211156200028257600080fd5b62000290868387016200019f565b93506020850151915080821115620002a757600080fd5b50620002b6858286016200019f565b9150509250929050565b600181811c90821680620002d557607f821691505b60208210811415620002f757634e487b7160e01b600052602260045260246000fd5b50919050565b611304806200030d6000396000f3fe608060405234801561001057600080fd5b50600436106101365760003560e01c8063715018a6116100b257806395d89b4111610081578063a9059cbb11610066578063a9059cbb146102bf578063dd62ed3e146102d2578063f2fde38b1461031857600080fd5b806395d89b41146102a4578063a457c2d7146102ac57600080fd5b8063715018a61461022157806379cc6790146102295780638119c0651461023c5780638da5cb5b1461028657600080fd5b8063313ce5671161010957806340c10f19116100ee57806340c10f19146101c357806342966c68146101d857806370a08231146101eb57600080fd5b8063313ce567146101a157806339509351146101b057600080fd5b806306fdde031461013b578063095ea7b31461015957806318160ddd1461017c57806323b872dd1461018e575b600080fd5b61014361032b565b60405161015091906110ac565b60405180910390f35b61016c610167366004611148565b6103bd565b6040519015158152602001610150565b6003545b604051908152602001610150565b61016c61019c366004611172565b6103d3565b60405160128152602001610150565b61016c6101be366004611148565b6104a4565b6101d66101d1366004611148565b6104ed565b005b6101d66101e63660046111ae565b6105b2565b6101806101f93660046111c7565b73ffffffffffffffffffffffffffffffffffffffff1660009081526001602052604090205490565b6101d66105bf565b6101d6610237366004611148565b610632565b60065461026190610100900473ffffffffffffffffffffffffffffffffffffffff1681565b60405173ffffffffffffffffffffffffffffffffffffffff9091168152602001610150565b60005473ffffffffffffffffffffffffffffffffffffffff16610261565b61014361068c565b61016c6102ba366004611148565b61069b565b61016c6102cd366004611148565b610759565b6101806102e03660046111e9565b73ffffffffffffffffffffffffffffffffffffffff918216600090815260026020908152604080832093909416825291909152205490565b6101d66103263660046111c7565b610766565b60606004805461033a9061121c565b80601f01602080910402602001604051908101604052809291908181526020018280546103669061121c565b80156103b35780601f10610388576101008083540402835291602001916103b3565b820191906000526020600020905b81548152906001019060200180831161039657829003601f168201915b5050505050905090565b60006103ca33848461085f565b50600192915050565b60006103e08484846109de565b73ffffffffffffffffffffffffffffffffffffffff841660009081526002602090815260408083203384529091529020548281101561048c5760405162461bcd60e51b815260206004820152602860248201527f45524332303a207472616e7366657220616d6f756e742065786365656473206160448201527f6c6c6f77616e636500000000000000000000000000000000000000000000000060648201526084015b60405180910390fd5b610499853385840361085f565b506001949350505050565b33600081815260026020908152604080832073ffffffffffffffffffffffffffffffffffffffff8716845290915281205490916103ca9185906104e890869061129f565b61085f565b60005473ffffffffffffffffffffffffffffffffffffffff1633146105545760405162461bcd60e51b815260206004820181905260248201527f4f776e61626c653a2063616c6c6572206973206e6f7420746865206f776e65726044820152606401610483565b600081116105a45760405162461bcd60e51b815260206004820152600e60248201527f7a65726f4d696e74416d6f756e740000000000000000000000000000000000006044820152606401610483565b6105ae8282610c4f565b5050565b6105bc3382610d61565b50565b60005473ffffffffffffffffffffffffffffffffffffffff1633146106265760405162461bcd60e51b815260206004820181905260248201527f4f776e61626c653a2063616c6c6572206973206e6f7420746865206f776e65726044820152606401610483565b6106306000610f26565b565b73ffffffffffffffffffffffffffffffffffffffff8216600090815260026020908152604080832033845290915281205461067090836101a1610f9b565b905061067d83338361085f565b6106878383610d61565b505050565b60606005805461033a9061121c565b33600090815260026020908152604080832073ffffffffffffffffffffffffffffffffffffffff86168452909152812054828110156107425760405162461bcd60e51b815260206004820152602560248201527f45524332303a2064656372656173656420616c6c6f77616e63652062656c6f7760448201527f207a65726f0000000000000000000000000000000000000000000000000000006064820152608401610483565b61074f338585840361085f565b5060019392505050565b60006103ca3384846109de565b60005473ffffffffffffffffffffffffffffffffffffffff1633146107cd5760405162461bcd60e51b815260206004820181905260248201527f4f776e61626c653a2063616c6c6572206973206e6f7420746865206f776e65726044820152606401610483565b73ffffffffffffffffffffffffffffffffffffffff81166108565760405162461bcd60e51b815260206004820152602660248201527f4f776e61626c653a206e6577206f776e657220697320746865207a65726f206160448201527f64647265737300000000000000000000000000000000000000000000000000006064820152608401610483565b6105bc81610f26565b73ffffffffffffffffffffffffffffffffffffffff83166108e75760405162461bcd60e51b8152602060048201526024808201527f45524332303a20617070726f76652066726f6d20746865207a65726f2061646460448201527f72657373000000000000000000000000000000000000000000000000000000006064820152608401610483565b73ffffffffffffffffffffffffffffffffffffffff82166109705760405162461bcd60e51b815260206004820152602260248201527f45524332303a20617070726f766520746f20746865207a65726f20616464726560448201527f73730000000000000000000000000000000000000000000000000000000000006064820152608401610483565b73ffffffffffffffffffffffffffffffffffffffff83811660008181526002602090815260408083209487168084529482529182902085905590518481527f8c5be1e5ebec7d5bd14f71427d1e84f3dd0314c0f7b2291e5b200ac8c7c3b925910160405180910390a3505050565b73ffffffffffffffffffffffffffffffffffffffff8316610a675760405162461bcd60e51b815260206004820152602560248201527f45524332303a207472616e736665722066726f6d20746865207a65726f20616460448201527f64726573730000000000000000000000000000000000000000000000000000006064820152608401610483565b73ffffffffffffffffffffffffffffffffffffffff8216610af05760405162461bcd60e51b815260206004820152602360248201527f45524332303a207472616e7366657220746f20746865207a65726f206164647260448201527f65737300000000000000000000000000000000000000000000000000000000006064820152608401610483565b610afb838383610fbf565b73ffffffffffffffffffffffffffffffffffffffff831660009081526001602052604090205481811015610b975760405162461bcd60e51b815260206004820152602660248201527f45524332303a207472616e7366657220616d6f756e742065786365656473206260448201527f616c616e636500000000000000000000000000000000000000000000000000006064820152608401610483565b73ffffffffffffffffffffffffffffffffffffffff808516600090815260016020526040808220858503905591851681529081208054849290610bdb90849061129f565b925050819055508273ffffffffffffffffffffffffffffffffffffffff168473ffffffffffffffffffffffffffffffffffffffff167fddf252ad1be2c89b69c2b068fc378daa952ba7f163c4a11628f55a4df523b3ef84604051610c4191815260200190565b60405180910390a350505050565b73ffffffffffffffffffffffffffffffffffffffff8216610cb25760405162461bcd60e51b815260206004820152601f60248201527f45524332303a206d696e7420746f20746865207a65726f2061646472657373006044820152606401610483565b610cbe60008383610fbf565b8060036000828254610cd0919061129f565b909155505073ffffffffffffffffffffffffffffffffffffffff821660009081526001602052604081208054839290610d0a90849061129f565b909155505060405181815273ffffffffffffffffffffffffffffffffffffffff8316906000907fddf252ad1be2c89b69c2b068fc378daa952ba7f163c4a11628f55a4df523b3ef9060200160405180910390a35050565b73ffffffffffffffffffffffffffffffffffffffff8216610dea5760405162461bcd60e51b815260206004820152602160248201527f45524332303a206275726e2066726f6d20746865207a65726f2061646472657360448201527f73000000000000000000000000000000000000000000000000000000000000006064820152608401610483565b610df682600083610fbf565b73ffffffffffffffffffffffffffffffffffffffff821660009081526001602052604090205481811015610e925760405162461bcd60e51b815260206004820152602260248201527f45524332303a206275726e20616d6f756e7420657863656564732062616c616e60448201527f63650000000000000000000000000000000000000000000000000000000000006064820152608401610483565b73ffffffffffffffffffffffffffffffffffffffff83166000908152600160205260408120838303905560038054849290610ece9084906112b7565b909155505060405182815260009073ffffffffffffffffffffffffffffffffffffffff8516907fddf252ad1be2c89b69c2b068fc378daa952ba7f163c4a11628f55a4df523b3ef9060200160405180910390a3505050565b6000805473ffffffffffffffffffffffffffffffffffffffff8381167fffffffffffffffffffffffff0000000000000000000000000000000000000000831681178455604051919092169283917f8be0079c531659141344cd1fd0a4f28419497f9722a3daafe3b4186f6b6457e09190a35050565b6000610faa8484111583611056565b6000610fb684866112b7565b95945050505050565b6006546040517fc00c125c00000000000000000000000000000000000000000000000000000000815273ffffffffffffffffffffffffffffffffffffffff8481166004830152602482018490526101009092049091169063c00c125c90604401600060405180830381600087803b15801561103957600080fd5b505af115801561104d573d6000803e3d6000fd5b50505050505050565b816105ae5762461bcd60e51b600090815260206004526007602452600a808304818104828106603090810160101b848706949093060160081b929092010166524551230000300160c81b6044526105ae91606490fd5b600060208083528351808285015260005b818110156110d9578581018301518582016040015282016110bd565b818111156110eb576000604083870101525b50601f017fffffffffffffffffffffffffffffffffffffffffffffffffffffffffffffffe016929092016040019392505050565b803573ffffffffffffffffffffffffffffffffffffffff8116811461114357600080fd5b919050565b6000806040838503121561115b57600080fd5b6111648361111f565b946020939093013593505050565b60008060006060848603121561118757600080fd5b6111908461111f565b925061119e6020850161111f565b9150604084013590509250925092565b6000602082840312156111c057600080fd5b5035919050565b6000602082840312156111d957600080fd5b6111e28261111f565b9392505050565b600080604083850312156111fc57600080fd5b6112058361111f565b91506112136020840161111f565b90509250929050565b600181811c9082168061123057607f821691505b6020821081141561126a577f4e487b7100000000000000000000000000000000000000000000000000000000600052602260045260246000fd5b50919050565b7f4e487b7100000000000000000000000000000000000000000000000000000000600052601160045260246000fd5b600082198211156112b2576112b2611270565b500190565b6000828210156112c9576112c9611270565b50039056fea2646970667358221220901995dc99d1bf3317f83f3d43645017723dd3892f756276f9450fd371d475df64736f6c634300080a0033a2646970667358221220be9fb10d657b435da02a9d2f41375683c034c3d1641c91489a6a5145cadbed0964736f6c634300080a0033",
  "linkReferences": {
    "contracts/RequiemStableSwapLib.sol": {
      "RequiemStableSwapLib": [
        {
          "length": 20,
          "start": 2238
        },
        {
          "length": 20,
          "start": 2667
        },
        {
          "length": 20,
          "start": 2924
        },
        {
          "length": 20,
          "start": 3294
        },
        {
          "length": 20,
          "start": 3810
        },
        {
          "length": 20,
          "start": 4605
        },
        {
          "length": 20,
          "start": 4963
        },
        {
          "length": 20,
          "start": 5512
        },
        {
          "length": 20,
          "start": 6701
        },
        {
          "length": 20,
          "start": 7322
        },
        {
          "length": 20,
          "start": 7428
        },
        {
          "length": 20,
          "start": 7653
        },
        {
          "length": 20,
          "start": 7925
        },
        {
          "length": 20,
          "start": 8438
        },
        {
          "length": 20,
          "start": 8712
        },
        {
          "length": 20,
          "start": 9020
        },
        {
          "length": 20,
          "start": 9304
        },
        {
          "length": 20,
          "start": 9763
        },
        {
          "length": 20,
          "start": 11768
        },
        {
          "length": 20,
          "start": 11846
        },
        {
          "length": 20,
          "start": 12002
        }
      ]
    }
  },
  "deployedLinkReferences": {
    "contracts/RequiemStableSwapLib.sol": {
      "RequiemStableSwapLib": [
        {
          "length": 20,
          "start": 2090
        },
        {
          "length": 20,
          "start": 2519
        },
        {
          "length": 20,
          "start": 2776
        },
        {
          "length": 20,
          "start": 3146
        },
        {
          "length": 20,
          "start": 3662
        },
        {
          "length": 20,
          "start": 4457
        },
        {
          "length": 20,
          "start": 4815
        },
        {
          "length": 20,
          "start": 5364
        },
        {
          "length": 20,
          "start": 6553
        },
        {
          "length": 20,
          "start": 7174
        },
        {
          "length": 20,
          "start": 7280
        },
        {
          "length": 20,
          "start": 7505
        },
        {
          "length": 20,
          "start": 7777
        },
        {
          "length": 20,
          "start": 8290
        },
        {
          "length": 20,
          "start": 8564
        },
        {
          "length": 20,
          "start": 8872
        },
        {
          "length": 20,
          "start": 9156
        },
        {
          "length": 20,
          "start": 9615
        },
        {
          "length": 20,
          "start": 11620
        },
        {
          "length": 20,
          "start": 11698
        },
        {
          "length": 20,
          "start": 11854
        }
      ]
    }
  }
}