{
  "_format": "hh-sol-artifact-1",
  "contractName": "RequiemStableSwap",
  "sourceName": "contracts/RequiemStableSwap.sol",
  "abi": [
    {
      "anonymous": false,
      "inputs": [
        {
          "indexed": true,
          "internalType": "address",
          "name": "provider",
          "type": "address"
        },
        {
          "indexed": false,
          "internalType": "uint256[]",
          "name": "tokenAmounts",
          "type": "uint256[]"
        },
        {
          "indexed": false,
          "internalType": "uint256[]",
          "name": "fees",
          "type": "uint256[]"
        },
        {
          "indexed": false,
          "internalType": "uint256",
          "name": "invariant",
          "type": "uint256"
        },
        {
          "indexed": false,
          "internalType": "uint256",
          "name": "tokenSupply",
          "type": "uint256"
        }
      ],
      "name": "AddLiquidity",
      "type": "event"
    },
    {
      "anonymous": false,
      "inputs": [
        {
          "indexed": false,
          "internalType": "address",
          "name": "token",
          "type": "address"
        },
        {
          "indexed": false,
          "internalType": "uint256",
          "name": "amount",
          "type": "uint256"
        }
      ],
      "name": "CollectProtocolFee",
      "type": "event"
    },
    {
      "anonymous": false,
      "inputs": [
        {
          "indexed": false,
          "internalType": "address",
          "name": "newController",
          "type": "address"
        }
      ],
      "name": "FeeControllerChanged",
      "type": "event"
    },
    {
      "anonymous": false,
      "inputs": [
        {
          "indexed": false,
          "internalType": "address",
          "name": "newController",
          "type": "address"
        }
      ],
      "name": "FeeDistributorChanged",
      "type": "event"
    },
    {
      "anonymous": false,
      "inputs": [
        {
          "indexed": false,
          "internalType": "uint256",
          "name": "fee",
          "type": "uint256"
        },
        {
          "indexed": false,
          "internalType": "uint256",
          "name": "adminFee",
          "type": "uint256"
        },
        {
          "indexed": false,
          "internalType": "uint256",
          "name": "withdrawFee",
          "type": "uint256"
        }
      ],
      "name": "NewFee",
      "type": "event"
    },
    {
      "anonymous": false,
      "inputs": [
        {
          "indexed": true,
          "internalType": "address",
          "name": "previousOwner",
          "type": "address"
        },
        {
          "indexed": true,
          "internalType": "address",
          "name": "newOwner",
          "type": "address"
        }
      ],
      "name": "OwnershipTransferred",
      "type": "event"
    },
    {
      "anonymous": false,
      "inputs": [
        {
          "indexed": false,
          "internalType": "address",
          "name": "account",
          "type": "address"
        }
      ],
      "name": "Paused",
      "type": "event"
    },
    {
      "anonymous": false,
      "inputs": [
        {
          "indexed": false,
          "internalType": "uint256",
          "name": "oldA",
          "type": "uint256"
        },
        {
          "indexed": false,
          "internalType": "uint256",
          "name": "newA",
          "type": "uint256"
        },
        {
          "indexed": false,
          "internalType": "uint256",
          "name": "initialTime",
          "type": "uint256"
        },
        {
          "indexed": false,
          "internalType": "uint256",
          "name": "futureTime",
          "type": "uint256"
        }
      ],
      "name": "RampA",
      "type": "event"
    },
    {
      "anonymous": false,
      "inputs": [
        {
          "indexed": true,
          "internalType": "address",
          "name": "provider",
          "type": "address"
        },
        {
          "indexed": false,
          "internalType": "uint256[]",
          "name": "tokenAmounts",
          "type": "uint256[]"
        },
        {
          "indexed": false,
          "internalType": "uint256[]",
          "name": "fees",
          "type": "uint256[]"
        },
        {
          "indexed": false,
          "internalType": "uint256",
          "name": "tokenSupply",
          "type": "uint256"
        }
      ],
      "name": "RemoveLiquidity",
      "type": "event"
    },
    {
      "anonymous": false,
      "inputs": [
        {
          "indexed": true,
          "internalType": "address",
          "name": "provider",
          "type": "address"
        },
        {
          "indexed": false,
          "internalType": "uint256[]",
          "name": "tokenAmounts",
          "type": "uint256[]"
        },
        {
          "indexed": false,
          "internalType": "uint256[]",
          "name": "fees",
          "type": "uint256[]"
        },
        {
          "indexed": false,
          "internalType": "uint256",
          "name": "invariant",
          "type": "uint256"
        },
        {
          "indexed": false,
          "internalType": "uint256",
          "name": "tokenSupply",
          "type": "uint256"
        }
      ],
      "name": "RemoveLiquidityImbalance",
      "type": "event"
    },
    {
      "anonymous": false,
      "inputs": [
        {
          "indexed": true,
          "internalType": "address",
          "name": "provider",
          "type": "address"
        },
        {
          "indexed": false,
          "internalType": "uint256",
          "name": "tokenIndex",
          "type": "uint256"
        },
        {
          "indexed": false,
          "internalType": "uint256",
          "name": "tokenAmount",
          "type": "uint256"
        },
        {
          "indexed": false,
          "internalType": "uint256",
          "name": "coinAmount",
          "type": "uint256"
        }
      ],
      "name": "RemoveLiquidityOne",
      "type": "event"
    },
    {
      "anonymous": false,
      "inputs": [
        {
          "indexed": false,
          "internalType": "uint256",
          "name": "A",
          "type": "uint256"
        },
        {
          "indexed": false,
          "internalType": "uint256",
          "name": "timestamp",
          "type": "uint256"
        }
      ],
      "name": "StopRampA",
      "type": "event"
    },
    {
      "anonymous": false,
      "inputs": [
        {
          "indexed": true,
          "internalType": "address",
          "name": "buyer",
          "type": "address"
        },
        {
          "indexed": false,
          "internalType": "uint256",
          "name": "soldId",
          "type": "uint256"
        },
        {
          "indexed": false,
          "internalType": "uint256",
          "name": "tokensSold",
          "type": "uint256"
        },
        {
          "indexed": false,
          "internalType": "uint256",
          "name": "boughtId",
          "type": "uint256"
        },
        {
          "indexed": false,
          "internalType": "uint256",
          "name": "tokensBought",
          "type": "uint256"
        }
      ],
      "name": "TokenExchange",
      "type": "event"
    },
    {
      "anonymous": false,
      "inputs": [
        {
          "indexed": false,
          "internalType": "address",
          "name": "account",
          "type": "address"
        }
      ],
      "name": "Unpaused",
      "type": "event"
    },
    {
      "inputs": [],
      "name": "MAX_A",
      "outputs": [
        {
          "internalType": "uint256",
          "name": "",
          "type": "uint256"
        }
      ],
      "stateMutability": "view",
      "type": "function"
    },
    {
      "inputs": [],
      "name": "MAX_ADMIN_FEE",
      "outputs": [
        {
          "internalType": "uint256",
          "name": "",
          "type": "uint256"
        }
      ],
      "stateMutability": "view",
      "type": "function"
    },
    {
      "inputs": [],
      "name": "MAX_A_CHANGE",
      "outputs": [
        {
          "internalType": "uint256",
          "name": "",
          "type": "uint256"
        }
      ],
      "stateMutability": "view",
      "type": "function"
    },
    {
      "inputs": [],
      "name": "MAX_SWAP_FEE",
      "outputs": [
        {
          "internalType": "uint256",
          "name": "",
          "type": "uint256"
        }
      ],
      "stateMutability": "view",
      "type": "function"
    },
    {
      "inputs": [],
      "name": "MAX_WITHDRAW_FEE",
      "outputs": [
        {
          "internalType": "uint256",
          "name": "",
          "type": "uint256"
        }
      ],
      "stateMutability": "view",
      "type": "function"
    },
    {
      "inputs": [],
      "name": "MIN_RAMP_TIME",
      "outputs": [
        {
          "internalType": "uint256",
          "name": "",
          "type": "uint256"
        }
      ],
      "stateMutability": "view",
      "type": "function"
    },
    {
      "inputs": [
        {
          "internalType": "uint256[]",
          "name": "amounts",
          "type": "uint256[]"
        },
        {
          "internalType": "uint256",
          "name": "minMintAmount",
          "type": "uint256"
        },
        {
          "internalType": "uint256",
          "name": "deadline",
          "type": "uint256"
        }
      ],
      "name": "addLiquidity",
      "outputs": [
        {
          "internalType": "uint256",
          "name": "",
          "type": "uint256"
        }
      ],
      "stateMutability": "nonpayable",
      "type": "function"
    },
    {
      "inputs": [
        {
          "internalType": "address",
          "name": "account",
          "type": "address"
        }
      ],
      "name": "calculateCurrentWithdrawFee",
      "outputs": [
        {
          "internalType": "uint256",
          "name": "",
          "type": "uint256"
        }
      ],
      "stateMutability": "view",
      "type": "function"
    },
    {
      "inputs": [
        {
          "internalType": "address",
          "name": "account",
          "type": "address"
        },
        {
          "internalType": "uint256",
          "name": "amount",
          "type": "uint256"
        }
      ],
      "name": "calculateRemoveLiquidity",
      "outputs": [
        {
          "internalType": "uint256[]",
          "name": "",
          "type": "uint256[]"
        }
      ],
      "stateMutability": "view",
      "type": "function"
    },
    {
      "inputs": [
        {
          "internalType": "address",
          "name": "account",
          "type": "address"
        },
        {
          "internalType": "uint256",
          "name": "amount",
          "type": "uint256"
        },
        {
          "internalType": "uint8",
          "name": "index",
          "type": "uint8"
        }
      ],
      "name": "calculateRemoveLiquidityOneToken",
      "outputs": [
        {
          "internalType": "uint256",
          "name": "",
          "type": "uint256"
        }
      ],
      "stateMutability": "view",
      "type": "function"
    },
    {
      "inputs": [
        {
          "internalType": "uint8",
          "name": "inIndex",
          "type": "uint8"
        },
        {
          "internalType": "uint8",
          "name": "outIndex",
          "type": "uint8"
        },
        {
          "internalType": "uint256",
          "name": "inAmount",
          "type": "uint256"
        }
      ],
      "name": "calculateSwap",
      "outputs": [
        {
          "internalType": "uint256",
          "name": "",
          "type": "uint256"
        }
      ],
      "stateMutability": "view",
      "type": "function"
    },
    {
      "inputs": [
        {
          "internalType": "uint256[]",
          "name": "amounts",
          "type": "uint256[]"
        },
        {
          "internalType": "bool",
          "name": "deposit",
          "type": "bool"
        }
      ],
      "name": "calculateTokenAmount",
      "outputs": [
        {
          "internalType": "uint256",
          "name": "",
          "type": "uint256"
        }
      ],
      "stateMutability": "view",
      "type": "function"
    },
    {
      "inputs": [],
      "name": "feeController",
      "outputs": [
        {
          "internalType": "address",
          "name": "",
          "type": "address"
        }
      ],
      "stateMutability": "view",
      "type": "function"
    },
    {
      "inputs": [],
      "name": "feeDistributor",
      "outputs": [
        {
          "internalType": "address",
          "name": "",
          "type": "address"
        }
      ],
      "stateMutability": "view",
      "type": "function"
    },
    {
      "inputs": [],
      "name": "getA",
      "outputs": [
        {
          "internalType": "uint256",
          "name": "",
          "type": "uint256"
        }
      ],
      "stateMutability": "view",
      "type": "function"
    },
    {
      "inputs": [],
      "name": "getAPrecise",
      "outputs": [
        {
          "internalType": "uint256",
          "name": "",
          "type": "uint256"
        }
      ],
      "stateMutability": "view",
      "type": "function"
    },
    {
      "inputs": [
        {
          "internalType": "uint8",
          "name": "index",
          "type": "uint8"
        }
      ],
      "name": "getAdminBalance",
      "outputs": [
        {
          "internalType": "uint256",
          "name": "",
          "type": "uint256"
        }
      ],
      "stateMutability": "view",
      "type": "function"
    },
    {
      "inputs": [],
      "name": "getAdminBalances",
      "outputs": [
        {
          "internalType": "uint256[]",
          "name": "adminBalances",
          "type": "uint256[]"
        }
      ],
      "stateMutability": "view",
      "type": "function"
    },
    {
      "inputs": [],
      "name": "getLpToken",
      "outputs": [
        {
          "internalType": "contract IERC20",
          "name": "",
          "type": "address"
        }
      ],
      "stateMutability": "view",
      "type": "function"
    },
    {
      "inputs": [],
      "name": "getNumberOfTokens",
      "outputs": [
        {
          "internalType": "uint256",
          "name": "",
          "type": "uint256"
        }
      ],
      "stateMutability": "view",
      "type": "function"
    },
    {
      "inputs": [
        {
          "internalType": "uint8",
          "name": "index",
          "type": "uint8"
        }
      ],
      "name": "getToken",
      "outputs": [
        {
          "internalType": "contract IERC20",
          "name": "",
          "type": "address"
        }
      ],
      "stateMutability": "view",
      "type": "function"
    },
    {
      "inputs": [
        {
          "internalType": "uint8",
          "name": "index",
          "type": "uint8"
        }
      ],
      "name": "getTokenBalance",
      "outputs": [
        {
          "internalType": "uint256",
          "name": "",
          "type": "uint256"
        }
      ],
      "stateMutability": "view",
      "type": "function"
    },
    {
      "inputs": [],
      "name": "getTokenBalances",
      "outputs": [
        {
          "internalType": "uint256[]",
          "name": "",
          "type": "uint256[]"
        }
      ],
      "stateMutability": "view",
      "type": "function"
    },
    {
      "inputs": [
        {
          "internalType": "address",
          "name": "token",
          "type": "address"
        }
      ],
      "name": "getTokenIndex",
      "outputs": [
        {
          "internalType": "uint8",
          "name": "index",
          "type": "uint8"
        }
      ],
      "stateMutability": "view",
      "type": "function"
    },
    {
      "inputs": [],
      "name": "getTokenPrecisionMultipliers",
      "outputs": [
        {
          "internalType": "uint256[]",
          "name": "",
          "type": "uint256[]"
        }
      ],
      "stateMutability": "view",
      "type": "function"
    },
    {
      "inputs": [],
      "name": "getTokens",
      "outputs": [
        {
          "internalType": "contract IERC20[]",
          "name": "",
          "type": "address[]"
        }
      ],
      "stateMutability": "view",
      "type": "function"
    },
    {
      "inputs": [],
      "name": "getVirtualPrice",
      "outputs": [
        {
          "internalType": "uint256",
          "name": "",
          "type": "uint256"
        }
      ],
      "stateMutability": "view",
      "type": "function"
    },
    {
      "inputs": [
        {
          "internalType": "address[]",
          "name": "_coins",
          "type": "address[]"
        },
        {
          "internalType": "uint8[]",
          "name": "_decimals",
          "type": "uint8[]"
        },
        {
          "internalType": "string",
          "name": "lpTokenName",
          "type": "string"
        },
        {
          "internalType": "string",
          "name": "lpTokenSymbol",
          "type": "string"
        },
        {
          "internalType": "uint256",
          "name": "_A",
          "type": "uint256"
        },
        {
          "internalType": "uint256",
          "name": "_fee",
          "type": "uint256"
        },
        {
          "internalType": "uint256",
          "name": "_adminFee",
          "type": "uint256"
        },
        {
          "internalType": "uint256",
          "name": "_withdrawFee",
          "type": "uint256"
        },
        {
          "internalType": "address",
          "name": "_feeDistributor",
          "type": "address"
        }
      ],
      "name": "initialize",
      "outputs": [],
      "stateMutability": "nonpayable",
      "type": "function"
    },
    {
      "inputs": [],
      "name": "owner",
      "outputs": [
        {
          "internalType": "address",
          "name": "",
          "type": "address"
        }
      ],
      "stateMutability": "view",
      "type": "function"
    },
    {
      "inputs": [],
      "name": "pause",
      "outputs": [],
      "stateMutability": "nonpayable",
      "type": "function"
    },
    {
      "inputs": [],
      "name": "paused",
      "outputs": [
        {
          "internalType": "bool",
          "name": "",
          "type": "bool"
        }
      ],
      "stateMutability": "view",
      "type": "function"
    },
    {
      "inputs": [
        {
          "internalType": "uint256",
          "name": "futureA",
          "type": "uint256"
        },
        {
          "internalType": "uint256",
          "name": "futureATime",
          "type": "uint256"
        }
      ],
      "name": "rampA",
      "outputs": [],
      "stateMutability": "nonpayable",
      "type": "function"
    },
    {
      "inputs": [
        {
          "internalType": "uint256",
          "name": "lpAmount",
          "type": "uint256"
        },
        {
          "internalType": "uint256[]",
          "name": "minAmounts",
          "type": "uint256[]"
        },
        {
          "internalType": "uint256",
          "name": "deadline",
          "type": "uint256"
        }
      ],
      "name": "removeLiquidity",
      "outputs": [
        {
          "internalType": "uint256[]",
          "name": "",
          "type": "uint256[]"
        }
      ],
      "stateMutability": "nonpayable",
      "type": "function"
    },
    {
      "inputs": [
        {
          "internalType": "uint256[]",
          "name": "amounts",
          "type": "uint256[]"
        },
        {
          "internalType": "uint256",
          "name": "maxBurnAmount",
          "type": "uint256"
        },
        {
          "internalType": "uint256",
          "name": "deadline",
          "type": "uint256"
        }
      ],
      "name": "removeLiquidityImbalance",
      "outputs": [
        {
          "internalType": "uint256",
          "name": "",
          "type": "uint256"
        }
      ],
      "stateMutability": "nonpayable",
      "type": "function"
    },
    {
      "inputs": [
        {
          "internalType": "uint256",
          "name": "lpAmount",
          "type": "uint256"
        },
        {
          "internalType": "uint8",
          "name": "index",
          "type": "uint8"
        },
        {
          "internalType": "uint256",
          "name": "minAmount",
          "type": "uint256"
        },
        {
          "internalType": "uint256",
          "name": "deadline",
          "type": "uint256"
        }
      ],
      "name": "removeLiquidityOneToken",
      "outputs": [
        {
          "internalType": "uint256",
          "name": "",
          "type": "uint256"
        }
      ],
      "stateMutability": "nonpayable",
      "type": "function"
    },
    {
      "inputs": [],
      "name": "renounceOwnership",
      "outputs": [],
      "stateMutability": "nonpayable",
      "type": "function"
    },
    {
      "inputs": [
        {
          "internalType": "uint256",
          "name": "newSwapFee",
          "type": "uint256"
        },
        {
          "internalType": "uint256",
          "name": "newAdminFee",
          "type": "uint256"
        },
        {
          "internalType": "uint256",
          "name": "newWithdrawFee",
          "type": "uint256"
        }
      ],
      "name": "setFee",
      "outputs": [],
      "stateMutability": "nonpayable",
      "type": "function"
    },
    {
      "inputs": [
        {
          "internalType": "address",
          "name": "_feeController",
          "type": "address"
        }
      ],
      "name": "setFeeController",
      "outputs": [],
      "stateMutability": "nonpayable",
      "type": "function"
    },
    {
      "inputs": [
        {
          "internalType": "address",
          "name": "_feeDistributor",
          "type": "address"
        }
      ],
      "name": "setFeeDistributor",
      "outputs": [],
      "stateMutability": "nonpayable",
      "type": "function"
    },
    {
      "inputs": [],
      "name": "stopRampA",
      "outputs": [],
      "stateMutability": "nonpayable",
      "type": "function"
    },
    {
      "inputs": [
        {
          "internalType": "uint8",
          "name": "fromIndex",
          "type": "uint8"
        },
        {
          "internalType": "uint8",
          "name": "toIndex",
          "type": "uint8"
        },
        {
          "internalType": "uint256",
          "name": "inAmount",
          "type": "uint256"
        },
        {
          "internalType": "uint256",
          "name": "minOutAmount",
          "type": "uint256"
        },
        {
          "internalType": "uint256",
          "name": "deadline",
          "type": "uint256"
        }
      ],
      "name": "swap",
      "outputs": [
        {
          "internalType": "uint256",
          "name": "",
          "type": "uint256"
        }
      ],
      "stateMutability": "nonpayable",
      "type": "function"
    },
    {
      "inputs": [],
      "name": "swapStorage",
      "outputs": [
        {
          "internalType": "contract LPToken",
          "name": "lpToken",
          "type": "address"
        },
        {
          "internalType": "uint256",
          "name": "fee",
          "type": "uint256"
        },
        {
          "internalType": "uint256",
          "name": "adminFee",
          "type": "uint256"
        },
        {
          "internalType": "uint256",
          "name": "initialA",
          "type": "uint256"
        },
        {
          "internalType": "uint256",
          "name": "futureA",
          "type": "uint256"
        },
        {
          "internalType": "uint256",
          "name": "initialATime",
          "type": "uint256"
        },
        {
          "internalType": "uint256",
          "name": "futureATime",
          "type": "uint256"
        },
        {
          "internalType": "uint256",
          "name": "defaultWithdrawFee",
          "type": "uint256"
        }
      ],
      "stateMutability": "view",
      "type": "function"
    },
    {
      "inputs": [
        {
          "internalType": "address",
          "name": "",
          "type": "address"
        }
      ],
      "name": "tokenIndexes",
      "outputs": [
        {
          "internalType": "uint8",
          "name": "",
          "type": "uint8"
        }
      ],
      "stateMutability": "view",
      "type": "function"
    },
    {
      "inputs": [
        {
          "internalType": "address",
          "name": "newOwner",
          "type": "address"
        }
      ],
      "name": "transferOwnership",
      "outputs": [],
      "stateMutability": "nonpayable",
      "type": "function"
    },
    {
      "inputs": [],
      "name": "unpause",
      "outputs": [],
      "stateMutability": "nonpayable",
      "type": "function"
    },
    {
      "inputs": [
        {
          "internalType": "address",
          "name": "recipient",
          "type": "address"
        },
        {
          "internalType": "uint256",
          "name": "transferAmount",
          "type": "uint256"
        }
      ],
      "name": "updateUserWithdrawFee",
      "outputs": [],
      "stateMutability": "nonpayable",
      "type": "function"
    },
    {
      "inputs": [],
      "name": "withdrawAdminFee",
      "outputs": [],
      "stateMutability": "nonpayable",
      "type": "function"
    }
  ],
  "bytecode": "0x608060405234801561001057600080fd5b5061001a33610030565b6000805460ff60a01b1916905560018055610080565b600080546001600160a01b038381166001600160a01b0319831681178455604051919092169283917f8be0079c531659141344cd1fd0a4f28419497f9722a3daafe3b4186f6b6457e09190a35050565b61456780620000906000396000f3fe60806040523480156200001157600080fd5b5060043610620002565760003560e01c806304bc3b1c146200025b57806306e9481c14620002985780630ba8195914620002b25780630d43e8ad14620002bc57806318f52ce214620002df57806331cd52b014620002f857806339698415146200030f5780633e3a1560146200031a5780633ed4c67814620003315780633f4ba83a146200034a5780634a1b0d5714620003545780634d49e87d146200036b578063593d132c14620003825780635b65b9ab14620003995780635c975abb14620003b05780635fd65f0f14620003cb57806366c0bd2414620004415780636999b3771462000458578063715018a6146200046c5780637c61e56114620004765780638214f5a4146200048d57806382b86600146200049f5780638456cb5914620004b657806384cdd9bc14620004c05780638554a7d414620004d75780638da5cb5b14620004ee5780639169558614620004f857806391ceb3eb146200050f57806398899f401462000526578063a1dc9031146200053d578063a95b089f1462000547578063aa6ca808146200055e578063ab3d85441462000577578063ab5ac0611462000583578063c00c125c146200058c578063c4db7fa014620005a3578063ccfc2e8d14620005ad578063d41f656814620005c4578063d46300fd14620005ce578063d4b0de2f1462000577578063df3ed68d14620005d8578063e25aa5fa14620005ef578063e6ab280614620005f9578063efeecb511462000610578063f2fde38b1462000619578063f3de03621462000630578063fe49abe3146200063d575b600080fd5b620002816200026c36600462002652565b60126020526000908152604090205460ff1681565b60405160ff90911681526020015b60405180910390f35b620002a36201518081565b6040519081526020016200028f565b620002a362000647565b601054620002d0906001600160a01b031681565b6040516200028f919062002670565b620002e9620006c7565b6040516200028f919062002684565b620002e962000309366004620027ac565b620007d9565b620002a3620f424081565b620002a36200032b36600462002811565b620008c6565b620003486200034236600462002652565b620009dd565b005b6200034862000a92565b620002a36200036536600462002652565b62000ad2565b620002a36200037c3660046200284f565b62000ae7565b6200034862000393366004620028a0565b62000be4565b62000348620003aa366004620028c3565b62000e63565b620003ba62000f62565b60405190151581526020016200028f565b600454600754600854600954600a54600b54600c54600d54620003fb976001600160a01b03169695949392919088565b604080516001600160a01b0390991689526020890197909752958701949094526060860192909252608085015260a084015260c083015260e0820152610100016200028f565b620002816200045236600462002652565b62000f72565b601154620002d0906001600160a01b031681565b6200034862001002565b620002e962000487366004620028f0565b62001042565b6004546001600160a01b0316620002d0565b620002d0620004b03660046200291d565b620010d2565b620003486200110b565b620002a3620004d13660046200284f565b62001149565b620002a3620004e83660046200291d565b62001202565b620002d062001285565b620002a3620005093660046200293b565b62001294565b620002a3620005203660046200291d565b620013b4565b620002a3620005373660046200298d565b620013e3565b620002e962001485565b620002a362000558366004620029ce565b620014e1565b6200056862001535565b6040516200028f919062002a0f565b620002a36305f5e10081565b620002a3600a81565b620003486200059d366004620028f0565b6200159b565b6200034862001656565b62000348620005be36600462002652565b62001798565b620002e962001842565b620002a36200189d565b62000348620005e936600462002b9e565b620018d9565b620002a362001ef2565b620002a36200060a36600462002ca0565b62001f2e565b600354620002a3565b620003486200062a36600462002652565b62001f71565b620002a36402540be40081565b620003486200201a565b60405163a303558560e01b81526003600482015260009073__$6aaf67e7827a013dd22ce71b2520632c86$__9063a3035585906024015b602060405180830381865af41580156200069c573d6000803e3d6000fd5b505050506040513d601f19601f82011682018060405250810190620006c2919062002d2c565b905090565b600354606090806001600160401b03811115620006e857620006e8620026ca565b60405190808252806020026020018201604052801562000712578160200160208202803683370190505b50915060005b81811015620007d45760405163e2eba89b60e01b8152600360048201526024810182905273__$6aaf67e7827a013dd22ce71b2520632c86$__9063e2eba89b90604401602060405180830381865af415801562000779573d6000803e3d6000fd5b505050506040513d601f19601f820116820180604052508101906200079f919062002d2c565b838281518110620007b457620007b462002d46565b602090810291909101015280620007cb8162002d72565b91505062000718565b505090565b6060600260015414156200080a5760405162461bcd60e51b8152600401620008019062002d90565b60405180910390fd5b60026001558142811015620008335760405162461bcd60e51b8152600401620008019062002dc7565b6040516331a15a5b60e21b815273__$6aaf67e7827a013dd22ce71b2520632c86$__9063c685696c9062000871906003908990899060040162002e25565b600060405180830381865af41580156200088f573d6000803e3d6000fd5b505050506040513d6000823e601f3d908101601f19168201604052620008b9919081019062002e4f565b6001805595945050505050565b600060026001541415620008ee5760405162461bcd60e51b8152600401620008019062002d90565b6002600155620008fd62000f62565b156200091d5760405162461bcd60e51b8152600401620008019062002ee8565b8180421115620009415760405162461bcd60e51b8152600401620008019062002dc7565b6040516302bfe30d60e41b8152600360048201526024810187905260ff861660448201526064810185905273__$6aaf67e7827a013dd22ce71b2520632c86$__90632bfe30d090608401602060405180830381865af4158015620009a9573d6000803e3d6000fd5b505050506040513d601f19601f82011682018060405250810190620009cf919062002d2c565b600180559695505050505050565b33620009e862001285565b6001600160a01b03161462000a115760405162461bcd60e51b8152600401620008019062002f12565b6001600160a01b03811662000a3a5760405162461bcd60e51b8152600401620008019062002f47565b601180546001600160a01b0319166001600160a01b0383161790556040517f4c3f3b9852ccceadd50f16518f348e2624c8f0240acdd5bc81911c0fba83ec679062000a8790839062002670565b60405180910390a150565b3362000a9d62001285565b6001600160a01b03161462000ac65760405162461bcd60e51b8152600401620008019062002f12565b62000ad0620021ef565b565b600062000ae160038362002287565b92915050565b600062000af362000f62565b1562000b135760405162461bcd60e51b8152600401620008019062002ee8565b6002600154141562000b395760405162461bcd60e51b8152600401620008019062002d90565b6002600155814281101562000b625760405162461bcd60e51b8152600401620008019062002dc7565b604051631e9b2e8f60e21b815273__$6aaf67e7827a013dd22ce71b2520632c86$__90637a6cba3c9062000ba0906003908990899060040162002f6c565b602060405180830381865af415801562000bbe573d6000803e3d6000fd5b505050506040513d601f19601f82011682018060405250810190620008b9919062002d2c565b3362000bef62001285565b6001600160a01b03161462000c185760405162461bcd60e51b8152600401620008019062002f12565b600b5462000c2a906201518062002f97565b42101562000c695760405162461bcd60e51b815260206004820152600b60248201526a3c2072616d7044656c617960a81b604482015260640162000801565b62000c78620151804262002f97565b81101562000cb95760405162461bcd60e51b815260206004820152600d60248201526c3c206d696e52616d7054696d6560981b604482015260640162000801565b81600010801562000ccc5750620f424082105b62000d075760405162461bcd60e51b815260206004820152600a6024820152696f75744f6652616e676560b01b604482015260640162000801565b60405163a303558560e01b81526003600482015260009073__$6aaf67e7827a013dd22ce71b2520632c86$__9063a303558590602401602060405180830381865af415801562000d5b573d6000803e3d6000fd5b505050506040513d601f19601f8201168201806040525081019062000d81919062002d2c565b9050600062000d9260648562002fb2565b90508181101562000dd2578162000dab600a8362002fb2565b101562000dcc5760405162461bcd60e51b8152600401620008019062002fd4565b62000e01565b62000ddf600a8362002fb2565b81111562000e015760405162461bcd60e51b8152600401620008019062002fd4565b6009829055600a81905542600b819055600c84905560408051848152602081018490528082019290925260608201859052517fa2b71ec6df949300b59aab36b55e189697b750119dd349fcfa8c0f779e83c2549181900360800190a150505050565b3362000e6e62001285565b6001600160a01b03161462000e975760405162461bcd60e51b8152600401620008019062002f12565b6305f5e10083111562000ebe5760405162461bcd60e51b8152600401620008019062002ff9565b6402540be40082111562000ee65760405162461bcd60e51b815260040162000801906200301f565b6305f5e10081111562000f0d5760405162461bcd60e51b8152600401620008019062003046565b60088290556007839055600d81905560408051848152602081018490529081018290527fcfca96e0fef3432146913b2a5a2268a55d3f475fe057e7ffde1082b77693f4f39060600160405180910390a1505050565b600054600160a01b900460ff1690565b6001600160a01b0381166000818152601260205260409020546003805460ff90921692918390811062000fa95762000fa962002d46565b6000918252602090912001546001600160a01b03161462000ffd5760405162461bcd60e51b815260206004820152600d60248201526c1d1bdad95b939bdd119bdd5b99609a1b604482015260640162000801565b919050565b336200100d62001285565b6001600160a01b031614620010365760405162461bcd60e51b8152600401620008019062002f12565b62000ad0600062002341565b60405163fa56359760e01b815260609073__$6aaf67e7827a013dd22ce71b2520632c86$__9063fa5635979062001083906003908790879060040162003070565b600060405180830381865af4158015620010a1573d6000803e3d6000fd5b505050506040513d6000823e601f3d908101601f19168201604052620010cb919081019062002e4f565b9392505050565b600060036000018260ff1681548110620010f057620010f062002d46565b6000918252602090912001546001600160a01b031692915050565b336200111662001285565b6001600160a01b0316146200113f5760405162461bcd60e51b8152600401620008019062002f12565b62000ad062002391565b600060026001541415620011715760405162461bcd60e51b8152600401620008019062002d90565b60026001556200118062000f62565b15620011a05760405162461bcd60e51b8152600401620008019062002ee8565b8180421115620011c45760405162461bcd60e51b8152600401620008019062002dc7565b60405163641a260360e11b815273__$6aaf67e7827a013dd22ce71b2520632c86$__9063c8344c069062000ba0906003908990899060040162002f6c565b60405163e2eba89b60e01b81526003600482015260ff8216602482015260009073__$6aaf67e7827a013dd22ce71b2520632c86$__9063e2eba89b90604401602060405180830381865af41580156200125f573d6000803e3d6000fd5b505050506040513d601f19601f8201168201806040525081019062000ae1919062002d2c565b6000546001600160a01b031690565b6000620012a062000f62565b15620012c05760405162461bcd60e51b8152600401620008019062002ee8565b60026001541415620012e65760405162461bcd60e51b8152600401620008019062002d90565b600260015581428110156200130f5760405162461bcd60e51b8152600401620008019062002dc7565b604051636e9b505d60e01b81526003600482015260ff808916602483015287166044820152606481018690526084810185905273__$6aaf67e7827a013dd22ce71b2520632c86$__90636e9b505d9060a401602060405180830381865af41580156200137f573d6000803e3d6000fd5b505050506040513d601f19601f82011682018060405250810190620013a5919062002d2c565b60018055979650505050505050565b6000600380018260ff1681548110620013d157620013d162002d46565b90600052602060002001549050919050565b60405163159763bb60e01b8152600360048201526001600160a01b03841660248201526044810183905260ff8216606482015260009073__$6aaf67e7827a013dd22ce71b2520632c86$__9063159763bb906084015b602060405180830381865af415801562001457573d6000803e3d6000fd5b505050506040513d601f19601f820116820180604052508101906200147d919062002d2c565b949350505050565b606060038001805480602002602001604051908101604052809291908181526020018280548015620014d757602002820191906000526020600020905b815481526020019060010190808311620014c2575b5050505050905090565b60405163ba2998d960e01b81526003600482015260ff8085166024830152831660448201526064810182905260009073__$6aaf67e7827a013dd22ce71b2520632c86$__9063ba2998d99060840162001439565b60606003600001805480602002602001604051908101604052809291908181526020018280548015620014d757602002820191906000526020600020905b81546001600160a01b0316815260019091019060200180831162001573575050505050905090565b6004546001600160a01b03163314620015e25760405162461bcd60e51b815260206004820152600860248201526710b6382a37b5b2b760c11b604482015260640162000801565b6040516360c4725f60e11b815273__$6aaf67e7827a013dd22ce71b2520632c86$__9063c188e4be9062001620906003908690869060040162003070565b60006040518083038186803b1580156200163957600080fd5b505af41580156200164e573d6000803e3d6000fd5b505050505050565b336200166162001285565b6001600160a01b0316146200168a5760405162461bcd60e51b8152600401620008019062002f12565b600c544210620016ce5760405162461bcd60e51b815260206004820152600e60248201526d185b1c9958591e54dd1bdc1c195960921b604482015260640162000801565b60405163a303558560e01b81526003600482015260009073__$6aaf67e7827a013dd22ce71b2520632c86$__9063a303558590602401602060405180830381865af415801562001722573d6000803e3d6000fd5b505050506040513d601f19601f8201168201806040525081019062001748919062002d2c565b6009819055600a81905542600b819055600c8190556040519192507f46e22fb3709ad289f62ce63d469248536dbc78d82b84a3d7e74ad606dc2019389162000a8791848252602082015260400190565b33620017a362001285565b6001600160a01b031614620017cc5760405162461bcd60e51b8152600401620008019062002f12565b6001600160a01b038116620017f55760405162461bcd60e51b8152600401620008019062002f47565b601080546001600160a01b0319166001600160a01b0383161790556040517fae5a12c29e496b092467a620746b9eaf4e0e231a631a4370c233b1fac38e8e269062000a8790839062002670565b60606003600201805480602002602001604051908101604052809291908181526020018280548015620014d75760200282019190600052602060002090815481526020019060010190808311620014c2575050505050905090565b60405163b52e146f60e01b81526003600482015260009073__$6aaf67e7827a013dd22ce71b2520632c86$__9063b52e146f906024016200067e565b33620018e462001285565b6001600160a01b0316146200190d5760405162461bcd60e51b8152600401620008019062002f12565b600254610100900460ff168062001927575060025460ff16155b6200198c5760405162461bcd60e51b815260206004820152602e60248201527f496e697469616c697a61626c653a20636f6e747261637420697320616c72656160448201526d191e481a5b9a5d1a585b1a5e995960921b606482015260840162000801565b600254610100900460ff16158015620019af576002805461ffff19166101011790555b88518a511462001a025760405162461bcd60e51b815260206004820152601d60248201527f636f696e734c656e67746820213d20646563696d616c734c656e677468000000604482015260640162000801565b6001600160a01b03821662001a535760405162461bcd60e51b81526020600482015260166024820152756665654469737472696275746f72203d20656d70747960501b604482015260640162000801565b89516000816001600160401b0381111562001a725762001a72620026ca565b60405190808252806020026020018201604052801562001a9c578160200160208202803683370190505b5090506000826001600160401b0381111562001abc5762001abc620026ca565b60405190808252806020026020018201604052801562001ae6578160200160208202803683370190505b50905060005b8381101562001cee5760006001600160a01b03168e828151811062001b155762001b1562002d46565b60200260200101516001600160a01b0316141562001b6c5760405162461bcd60e51b8152602060048201526013602482015272696e76616c6964546f6b656e4164647265737360681b604482015260640162000801565b60128d828151811062001b835762001b8362002d46565b602002602001015160ff16111562001bd05760405162461bcd60e51b815260206004820152600f60248201526e696e76616c6964446563696d616c7360881b604482015260640162000801565b8c818151811062001be55762001be562002d46565b602002602001015160ff16601262001bfe91906200308f565b62001c0b90600a620031a6565b83828151811062001c205762001c2062002d46565b6020026020010181815250508d818151811062001c415762001c4162002d46565b602002602001015182828151811062001c5e5762001c5e62002d46565b60200260200101906001600160a01b031690816001600160a01b031681525050806012600084848151811062001c985762001c9862002d46565b60200260200101516001600160a01b03166001600160a01b0316815260200190815260200160002060006101000a81548160ff021916908360ff160217905550808062001ce59062002d72565b91505062001aec565b50620f4240891062001d2c5760405162461bcd60e51b81526020600482015260066024820152653e206d61784160d01b604482015260640162000801565b6305f5e10088111562001d535760405162461bcd60e51b8152600401620008019062002ff9565b6402540be40087111562001d7b5760405162461bcd60e51b815260040162000801906200301f565b6305f5e10086111562001da25760405162461bcd60e51b8152600401620008019062003046565b8a8a60405162001db2906200256d565b62001dbf92919062003211565b604051809103906000f08015801562001ddc573d6000803e3d6000fd5b50600480546001600160a01b0319166001600160a01b0392909216919091179055826001600160401b0381111562001e185762001e18620026ca565b60405190808252806020026020018201604052801562001e42578160200160208202803683370190505b50805162001e59916006916020909101906200257b565b50815162001e6f9060059060208501906200257b565b50805162001e85906003906020840190620025cb565b5062001e9360648a62002fb2565b60095562001ea360648a62002fb2565b600a5550505060078590556008849055600d839055601080546001600160a01b0319166001600160a01b038416179055801562001ee6576002805461ff00191690555b50505050505050505050565b6040516334d9812b60e21b81526003600482015260009073__$6aaf67e7827a013dd22ce71b2520632c86$__9063d36604ac906024016200067e565b604051631e7e95d360e01b815260009073__$6aaf67e7827a013dd22ce71b2520632c86$__90631e7e95d39062001439906003908890889088906004016200323a565b3362001f7c62001285565b6001600160a01b03161462001fa55760405162461bcd60e51b8152600401620008019062002f12565b6001600160a01b0381166200200c5760405162461bcd60e51b815260206004820152602660248201527f4f776e61626c653a206e6577206f776e657220697320746865207a65726f206160448201526564647265737360d01b606482015260840162000801565b620020178162002341565b50565b6011546001600160a01b03163314806200204e57506200203962001285565b6001600160a01b0316336001600160a01b0316145b620020945760405162461bcd60e51b815260206004820152601560248201527410b332b2a1b7b73a3937b63632b927b927bbb732b960591b604482015260640162000801565b60005b6003548110156200201757600060036000018281548110620020bd57620020bd62002d46565b6000918252602082200154600680546001600160a01b0390921693509084908110620020ed57620020ed62002d46565b9060005260206000200154826001600160a01b03166370a08231306040518263ffffffff1660e01b815260040162002126919062002670565b602060405180830381865afa15801562002144573d6000803e3d6000fd5b505050506040513d601f19601f820116820180604052508101906200216a919062002d2c565b6200217691906200308f565b90508015620021d7576010546200219b906001600160a01b03848116911683620023f7565b7fee3859efa95e525bc2bcb149b51b60a8bb4e89c647392d9d4112e03c3e73bdd68282604051620021ce9291906200328c565b60405180910390a15b50508080620021e69062002d72565b91505062002097565b620021f962000f62565b6200223e5760405162461bcd60e51b815260206004820152601460248201527314185d5cd8589b194e881b9bdd081c185d5cd95960621b604482015260640162000801565b6000805460ff60a01b191690557f5db9ee0a495bf2e6ff9c91a7834c1ba4fdd244a5e8aa4e537bd38aeae4b073aa335b6040516200227d919062002670565b60405180910390a1565b6001600160a01b0381166000908152600b830160205260408120548190620022b3906224ea0062002f97565b90504281111562002337576000620022cc42836200308f565b6001600160a01b0385166000908152600c87016020526040902054600a8701549192506402540be400916224ea0091849162002309919062002fb2565b62002315919062002fb2565b620023219190620032a5565b6200232d9190620032a5565b9250505062000ae1565b5060009392505050565b600080546001600160a01b038381166001600160a01b0319831681178455604051919092169283917f8be0079c531659141344cd1fd0a4f28419497f9722a3daafe3b4186f6b6457e09190a35050565b6200239b62000f62565b15620023bb5760405162461bcd60e51b8152600401620008019062002ee8565b6000805460ff60a01b1916600160a01b1790557f62e78cea01bee320cd4e420270b5ea74000d11b0c9f74754ebdbfc544b05a2586200226e3390565b620024518363a9059cbb60e01b8484604051602401620024199291906200328c565b60408051601f198184030181529190526020810180516001600160e01b03166001600160e01b03199093169290921790915262002456565b505050565b600080836001600160a01b031683604051620024739190620032c8565b6000604051808303816000865af19150503d8060008114620024b2576040519150601f19603f3d011682016040523d82523d6000602084013e620024b7565b606091505b50915091506000821415620024d0573d6000803e3d6000fd5b620024ff815160001480620024f6575081806020019051810190620024f69190620032e6565b6101a262002505565b50505050565b81620025165762002516816200251a565b5050565b62461bcd60e51b6000908152602060045260076024526652455123000030600a808404818106603090810160081b95839006959095019082900491820690940160101b939093010160c81b604452606490fd5b61122b806200330783390190565b828054828255906000526020600020908101928215620025b9579160200282015b82811115620025b95782518255916020019190600101906200259c565b50620025c792915062002623565b5090565b828054828255906000526020600020908101928215620025b9579160200282015b82811115620025b957825182546001600160a01b0319166001600160a01b03909116178255602090920191600190910190620025ec565b5b80821115620025c7576000815560010162002624565b80356001600160a01b038116811462000ffd57600080fd5b6000602082840312156200266557600080fd5b620010cb826200263a565b6001600160a01b0391909116815260200190565b6020808252825182820181905260009190848201906040850190845b81811015620026be57835183529284019291840191600101620026a0565b50909695505050505050565b634e487b7160e01b600052604160045260246000fd5b604051601f8201601f191681016001600160401b03811182821017156200270b576200270b620026ca565b604052919050565b60006001600160401b038211156200272f576200272f620026ca565b5060051b60200190565b600082601f8301126200274b57600080fd5b81356020620027646200275e8362002713565b620026e0565b82815260059290921b840181019181810190868411156200278457600080fd5b8286015b84811015620027a1578035835291830191830162002788565b509695505050505050565b600080600060608486031215620027c257600080fd5b8335925060208401356001600160401b03811115620027e057600080fd5b620027ee8682870162002739565b925050604084013590509250925092565b803560ff8116811462000ffd57600080fd5b600080600080608085870312156200282857600080fd5b843593506200283a60208601620027ff565b93969395505050506040820135916060013590565b6000806000606084860312156200286557600080fd5b83356001600160401b038111156200287c57600080fd5b6200288a8682870162002739565b9660208601359650604090950135949350505050565b60008060408385031215620028b457600080fd5b50508035926020909101359150565b600080600060608486031215620028d957600080fd5b505081359360208301359350604090920135919050565b600080604083850312156200290457600080fd5b6200290f836200263a565b946020939093013593505050565b6000602082840312156200293057600080fd5b620010cb82620027ff565b600080600080600060a086880312156200295457600080fd5b6200295f86620027ff565b94506200296f60208701620027ff565b94979496505050506040830135926060810135926080909101359150565b600080600060608486031215620029a357600080fd5b620029ae846200263a565b925060208401359150620029c560408501620027ff565b90509250925092565b600080600060608486031215620029e457600080fd5b620029ef84620027ff565b9250620029ff60208501620027ff565b9150604084013590509250925092565b6020808252825182820181905260009190848201906040850190845b81811015620026be5783516001600160a01b03168352928401929184019160010162002a2b565b600082601f83011262002a6457600080fd5b8135602062002a776200275e8362002713565b82815260059290921b8401810191818101908684111562002a9757600080fd5b8286015b84811015620027a15762002aaf816200263a565b835291830191830162002a9b565b600082601f83011262002acf57600080fd5b8135602062002ae26200275e8362002713565b82815260059290921b8401810191818101908684111562002b0257600080fd5b8286015b84811015620027a15762002b1a81620027ff565b835291830191830162002b06565b600082601f83011262002b3a57600080fd5b81356001600160401b0381111562002b565762002b56620026ca565b62002b6b601f8201601f1916602001620026e0565b81815284602083860101111562002b8157600080fd5b816020850160208301376000918101602001919091529392505050565b60008060008060008060008060006101208a8c03121562002bbe57600080fd5b89356001600160401b038082111562002bd657600080fd5b62002be48d838e0162002a52565b9a5060208c013591508082111562002bfb57600080fd5b62002c098d838e0162002abd565b995060408c013591508082111562002c2057600080fd5b62002c2e8d838e0162002b28565b985060608c013591508082111562002c4557600080fd5b5062002c548c828d0162002b28565b96505060808a0135945060a08a0135935060c08a0135925060e08a0135915062002c826101008b016200263a565b90509295985092959850929598565b80151581146200201757600080fd5b60008060006040848603121562002cb657600080fd5b83356001600160401b038082111562002cce57600080fd5b818601915086601f83011262002ce357600080fd5b81358181111562002cf357600080fd5b8760208260051b850101111562002d0957600080fd5b6020928301955093505084013562002d218162002c91565b809150509250925092565b60006020828403121562002d3f57600080fd5b5051919050565b634e487b7160e01b600052603260045260246000fd5b634e487b7160e01b600052601160045260246000fd5b600060001982141562002d895762002d8962002d5c565b5060010190565b6020808252601f908201527f5265656e7472616e637947756172643a207265656e7472616e742063616c6c00604082015260600190565b6020808252600790820152661d1a5b595bdd5d60ca1b604082015260600190565b600081518084526020808501945080840160005b8381101562002e1a5781518752958201959082019060010162002dfc565b509495945050505050565b83815282602082015260606040820152600062002e46606083018462002de8565b95945050505050565b6000602080838503121562002e6357600080fd5b82516001600160401b0381111562002e7a57600080fd5b8301601f8101851362002e8c57600080fd5b805162002e9d6200275e8262002713565b81815260059190911b8201830190838101908783111562002ebd57600080fd5b928401925b8284101562002edd5783518252928401929084019062002ec2565b979650505050505050565b60208082526010908201526f14185d5cd8589b194e881c185d5cd95960821b604082015260600190565b6020808252818101527f4f776e61626c653a2063616c6c6572206973206e6f7420746865206f776e6572604082015260600190565b6020808252600b908201526a7a65726f4164647265737360a81b604082015260600190565b83815260606020820152600062002f87606083018562002de8565b9050826040830152949350505050565b6000821982111562002fad5762002fad62002d5c565b500190565b600081600019048311821515161562002fcf5762002fcf62002d5c565b500290565b6020808252600b908201526a3e206d61784368616e676560a81b604082015260600190565b6020808252600c908201526b3e206d61785377617046656560a01b604082015260600190565b6020808252600d908201526c3e206d617841646d696e46656560981b604082015260600190565b60208082526010908201526f3e206d6178576974686472617746656560801b604082015260600190565b9283526001600160a01b03919091166020830152604082015260600190565b600082821015620030a457620030a462002d5c565b500390565b600181815b80851115620030ea578160001904821115620030ce57620030ce62002d5c565b80851615620030dc57918102915b93841c9390800290620030ae565b509250929050565b600082620031035750600162000ae1565b81620031125750600062000ae1565b81600181146200312b5760028114620031365762003156565b600191505062000ae1565b60ff8411156200314a576200314a62002d5c565b50506001821b62000ae1565b5060208310610133831016604e8410600b84101617156200317b575081810a62000ae1565b620031878383620030a9565b80600019048211156200319e576200319e62002d5c565b029392505050565b6000620010cb8383620030f2565b60005b83811015620031d1578181015183820152602001620031b7565b83811115620024ff5750506000910152565b60008151808452620031fd816020860160208601620031b4565b601f01601f19169290920160200192915050565b604081526000620032266040830185620031e3565b828103602084015262002e468185620031e3565b848152606060208201819052810183905260006001600160fb1b038411156200326257600080fd5b8360051b808660808501376000908301608001908152921515604090920191909152509392505050565b6001600160a01b03929092168252602082015260400190565b600082620032c357634e487b7160e01b600052601260045260246000fd5b500490565b60008251620032dc818460208701620031b4565b9190910192915050565b600060208284031215620032f957600080fd5b8151620010cb8162002c9156fe60806040523480156200001157600080fd5b506040516200122b3803806200122b833981016040819052620000349162000256565b8181620000413362000093565b815162000056906004906020850190620000e3565b5080516200006c906005906020840190620000e3565b50506006805433610100026001600160a81b031990911617601217905550620002fd915050565b600080546001600160a01b038381166001600160a01b0319831681178455604051919092169283917f8be0079c531659141344cd1fd0a4f28419497f9722a3daafe3b4186f6b6457e09190a35050565b828054620000f190620002c0565b90600052602060002090601f01602090048101928262000115576000855562000160565b82601f106200013057805160ff191683800117855562000160565b8280016001018555821562000160579182015b828111156200016057825182559160200191906001019062000143565b506200016e92915062000172565b5090565b5b808211156200016e576000815560010162000173565b634e487b7160e01b600052604160045260246000fd5b600082601f830112620001b157600080fd5b81516001600160401b0380821115620001ce57620001ce62000189565b604051601f8301601f19908116603f01168101908282118183101715620001f957620001f962000189565b816040528381526020925086838588010111156200021657600080fd5b600091505b838210156200023a57858201830151818301840152908201906200021b565b838211156200024c5760008385830101525b9695505050505050565b600080604083850312156200026a57600080fd5b82516001600160401b03808211156200028257600080fd5b62000290868387016200019f565b93506020850151915080821115620002a757600080fd5b50620002b6858286016200019f565b9150509250929050565b600181811c90821680620002d557607f821691505b60208210811415620002f757634e487b7160e01b600052602260045260246000fd5b50919050565b610f1e806200030d6000396000f3fe608060405234801561001057600080fd5b50600436106100e65760003560e01c806306fdde03146100eb578063095ea7b31461010957806318160ddd1461012c57806323b872dd1461013e578063313ce56714610151578063395093511461016057806340c10f191461017357806342966c681461018857806370a082311461019b578063715018a6146101c457806379cc6790146101cc5780638119c065146101df5780638da5cb5b1461020f57806395d89b4114610217578063a457c2d71461021f578063a9059cbb14610232578063dd62ed3e14610245578063f2fde38b14610258575b600080fd5b6100f361026b565b6040516101009190610cce565b60405180910390f35b61011c610117366004610d3f565b6102fd565b6040519015158152602001610100565b6003545b604051908152602001610100565b61011c61014c366004610d69565b610313565b60405160128152602001610100565b61011c61016e366004610d3f565b6103c2565b610186610181366004610d3f565b6103fe565b005b610186610196366004610da5565b61047c565b6101306101a9366004610dbe565b6001600160a01b031660009081526001602052604090205490565b610186610489565b6101866101da366004610d3f565b6104c4565b6006546101f79061010090046001600160a01b031681565b6040516001600160a01b039091168152602001610100565b6101f76104fa565b6100f3610509565b61011c61022d366004610d3f565b610518565b61011c610240366004610d3f565b6105b1565b610130610253366004610de0565b6105be565b610186610266366004610dbe565b6105e9565b60606004805461027a90610e13565b80601f01602080910402602001604051908101604052809291908181526020018280546102a690610e13565b80156102f35780601f106102c8576101008083540402835291602001916102f3565b820191906000526020600020905b8154815290600101906020018083116102d657829003601f168201915b5050505050905090565b600061030a338484610686565b50600192915050565b60006103208484846107aa565b6001600160a01b0384166000908152600260209081526040808320338452909152902054828110156103aa5760405162461bcd60e51b815260206004820152602860248201527f45524332303a207472616e7366657220616d6f756e74206578636565647320616044820152676c6c6f77616e636560c01b60648201526084015b60405180910390fd5b6103b78533858403610686565b506001949350505050565b3360008181526002602090815260408083206001600160a01b0387168452909152812054909161030a9185906103f9908690610e64565b610686565b336104076104fa565b6001600160a01b03161461042d5760405162461bcd60e51b81526004016103a190610e7c565b6000811161046e5760405162461bcd60e51b815260206004820152600e60248201526d1e995c9bd35a5b9d105b5bdd5b9d60921b60448201526064016103a1565b6104788282610972565b5050565b6104863382610a4b565b50565b336104926104fa565b6001600160a01b0316146104b85760405162461bcd60e51b81526004016103a190610e7c565b6104c26000610b93565b565b60006104de826101a16104d786336105be565b9190610be3565b90506104eb833383610686565b6104f58383610a4b565b505050565b6000546001600160a01b031690565b60606005805461027a90610e13565b3360009081526002602090815260408083206001600160a01b03861684529091528120548281101561059a5760405162461bcd60e51b815260206004820152602560248201527f45524332303a2064656372656173656420616c6c6f77616e63652062656c6f77604482015264207a65726f60d81b60648201526084016103a1565b6105a73385858403610686565b5060019392505050565b600061030a3384846107aa565b6001600160a01b03918216600090815260026020908152604080832093909416825291909152205490565b336105f26104fa565b6001600160a01b0316146106185760405162461bcd60e51b81526004016103a190610e7c565b6001600160a01b03811661067d5760405162461bcd60e51b815260206004820152602660248201527f4f776e61626c653a206e6577206f776e657220697320746865207a65726f206160448201526564647265737360d01b60648201526084016103a1565b61048681610b93565b6001600160a01b0383166106e85760405162461bcd60e51b8152602060048201526024808201527f45524332303a20617070726f76652066726f6d20746865207a65726f206164646044820152637265737360e01b60648201526084016103a1565b6001600160a01b0382166107495760405162461bcd60e51b815260206004820152602260248201527f45524332303a20617070726f766520746f20746865207a65726f206164647265604482015261737360f01b60648201526084016103a1565b6001600160a01b0383811660008181526002602090815260408083209487168084529482529182902085905590518481527f8c5be1e5ebec7d5bd14f71427d1e84f3dd0314c0f7b2291e5b200ac8c7c3b925910160405180910390a3505050565b6001600160a01b03831661080e5760405162461bcd60e51b815260206004820152602560248201527f45524332303a207472616e736665722066726f6d20746865207a65726f206164604482015264647265737360d81b60648201526084016103a1565b6001600160a01b0382166108705760405162461bcd60e51b815260206004820152602360248201527f45524332303a207472616e7366657220746f20746865207a65726f206164647260448201526265737360e81b60648201526084016103a1565b61087b838383610c07565b6001600160a01b038316600090815260016020526040902054818110156108f35760405162461bcd60e51b815260206004820152602660248201527f45524332303a207472616e7366657220616d6f756e7420657863656564732062604482015265616c616e636560d01b60648201526084016103a1565b6001600160a01b0380851660009081526001602052604080822085850390559185168152908120805484929061092a908490610e64565b92505081905550826001600160a01b0316846001600160a01b0316600080516020610ec98339815191528460405161096491815260200190565b60405180910390a350505050565b6001600160a01b0382166109c85760405162461bcd60e51b815260206004820152601f60248201527f45524332303a206d696e7420746f20746865207a65726f20616464726573730060448201526064016103a1565b6109d460008383610c07565b80600360008282546109e69190610e64565b90915550506001600160a01b03821660009081526001602052604081208054839290610a13908490610e64565b90915550506040518181526001600160a01b03831690600090600080516020610ec98339815191529060200160405180910390a35050565b6001600160a01b038216610aab5760405162461bcd60e51b815260206004820152602160248201527f45524332303a206275726e2066726f6d20746865207a65726f206164647265736044820152607360f81b60648201526084016103a1565b610ab782600083610c07565b6001600160a01b03821660009081526001602052604090205481811015610b2b5760405162461bcd60e51b815260206004820152602260248201527f45524332303a206275726e20616d6f756e7420657863656564732062616c616e604482015261636560f01b60648201526084016103a1565b6001600160a01b0383166000908152600160205260408120838303905560038054849290610b5a908490610eb1565b90915550506040518281526000906001600160a01b03851690600080516020610ec98339815191529060200160405180910390a3505050565b600080546001600160a01b038381166001600160a01b0319831681178455604051919092169283917f8be0079c531659141344cd1fd0a4f28419497f9722a3daafe3b4186f6b6457e09190a35050565b6000610bf28484111583610c78565b6000610bfe8486610eb1565b95945050505050565b600654604051633003049760e21b81526001600160a01b038481166004830152602482018490526101009092049091169063c00c125c90604401600060405180830381600087803b158015610c5b57600080fd5b505af1158015610c6f573d6000803e3d6000fd5b50505050505050565b816104785762461bcd60e51b600090815260206004526007602452600a808304818104828106603090810160101b848706949093060160081b929092010166524551230000300160c81b60445261047891606490fd5b600060208083528351808285015260005b81811015610cfb57858101830151858201604001528201610cdf565b81811115610d0d576000604083870101525b50601f01601f1916929092016040019392505050565b80356001600160a01b0381168114610d3a57600080fd5b919050565b60008060408385031215610d5257600080fd5b610d5b83610d23565b946020939093013593505050565b600080600060608486031215610d7e57600080fd5b610d8784610d23565b9250610d9560208501610d23565b9150604084013590509250925092565b600060208284031215610db757600080fd5b5035919050565b600060208284031215610dd057600080fd5b610dd982610d23565b9392505050565b60008060408385031215610df357600080fd5b610dfc83610d23565b9150610e0a60208401610d23565b90509250929050565b600181811c90821680610e2757607f821691505b60208210811415610e4857634e487b7160e01b600052602260045260246000fd5b50919050565b634e487b7160e01b600052601160045260246000fd5b60008219821115610e7757610e77610e4e565b500190565b6020808252818101527f4f776e61626c653a2063616c6c6572206973206e6f7420746865206f776e6572604082015260600190565b600082821015610ec357610ec3610e4e565b50039056feddf252ad1be2c89b69c2b068fc378daa952ba7f163c4a11628f55a4df523b3efa26469706673582212207bb83c696a9365df35dac9117d91bfca567fdf5b8fb88fb0ad5d0e28f6e9e4bb64736f6c634300080a0033a2646970667358221220df20c2001af19a21e0225ad41f247960a3d68016ac6a920f6a58616d981c4ff164736f6c634300080a0033",
  "linkReferences": {
    "contracts/RequiemStableSwapLib.sol": {
      "RequiemStableSwapLib": [
        {
          "length": 20,
          "start": 1776
        },
        {
          "length": 20,
          "start": 1998
        },
        {
          "length": 20,
          "start": 2258
        },
        {
          "length": 20,
          "start": 2558
        },
        {
          "length": 20,
          "start": 3073
        },
        {
          "length": 20,
          "start": 3504
        },
        {
          "length": 20,
          "start": 4324
        },
        {
          "length": 20,
          "start": 4707
        },
        {
          "length": 20,
          "start": 4788
        },
        {
          "length": 20,
          "start": 5076
        },
        {
          "length": 20,
          "start": 5291
        },
        {
          "length": 20,
          "start": 5538
        },
        {
          "length": 20,
          "start": 5761
        },
        {
          "length": 20,
          "start": 6007
        },
        {
          "length": 20,
          "start": 6470
        },
        {
          "length": 20,
          "start": 8091
        },
        {
          "length": 20,
          "start": 8144
        }
      ]
    }
  },
  "deployedLinkReferences": {
    "contracts/RequiemStableSwapLib.sol": {
      "RequiemStableSwapLib": [
        {
          "length": 20,
          "start": 1632
        },
        {
          "length": 20,
          "start": 1854
        },
        {
          "length": 20,
          "start": 2114
        },
        {
          "length": 20,
          "start": 2414
        },
        {
          "length": 20,
          "start": 2929
        },
        {
          "length": 20,
          "start": 3360
        },
        {
          "length": 20,
          "start": 4180
        },
        {
          "length": 20,
          "start": 4563
        },
        {
          "length": 20,
          "start": 4644
        },
        {
          "length": 20,
          "start": 4932
        },
        {
          "length": 20,
          "start": 5147
        },
        {
          "length": 20,
          "start": 5394
        },
        {
          "length": 20,
          "start": 5617
        },
        {
          "length": 20,
          "start": 5863
        },
        {
          "length": 20,
          "start": 6326
        },
        {
          "length": 20,
          "start": 7947
        },
        {
          "length": 20,
          "start": 8000
        }
      ]
    }
  }
}