{
  "_format": "hh-sol-artifact-1",
  "contractName": "RequiemStableSwap",
  "sourceName": "contracts/RequiemStableSwap.sol",
  "abi": [
    {
      "anonymous": false,
      "inputs": [
        {
          "indexed": true,
          "internalType": "address",
          "name": "provider",
          "type": "address"
        },
        {
          "indexed": false,
          "internalType": "uint256[]",
          "name": "tokenAmounts",
          "type": "uint256[]"
        },
        {
          "indexed": false,
          "internalType": "uint256[]",
          "name": "fees",
          "type": "uint256[]"
        },
        {
          "indexed": false,
          "internalType": "uint256",
          "name": "invariant",
          "type": "uint256"
        },
        {
          "indexed": false,
          "internalType": "uint256",
          "name": "tokenSupply",
          "type": "uint256"
        }
      ],
      "name": "AddLiquidity",
      "type": "event"
    },
    {
      "anonymous": false,
      "inputs": [
        {
          "indexed": false,
          "internalType": "address",
          "name": "token",
          "type": "address"
        },
        {
          "indexed": false,
          "internalType": "uint256",
          "name": "amount",
          "type": "uint256"
        }
      ],
      "name": "CollectProtocolFee",
      "type": "event"
    },
    {
      "anonymous": false,
      "inputs": [
        {
          "indexed": false,
          "internalType": "address",
          "name": "newController",
          "type": "address"
        }
      ],
      "name": "FeeControllerChanged",
      "type": "event"
    },
    {
      "anonymous": false,
      "inputs": [
        {
          "indexed": false,
          "internalType": "address",
          "name": "newController",
          "type": "address"
        }
      ],
      "name": "FeeDistributorChanged",
      "type": "event"
    },
    {
      "anonymous": false,
      "inputs": [
        {
          "indexed": false,
          "internalType": "uint256",
          "name": "fee",
          "type": "uint256"
        },
        {
          "indexed": false,
          "internalType": "uint256",
          "name": "adminFee",
          "type": "uint256"
        },
        {
          "indexed": false,
          "internalType": "uint256",
          "name": "withdrawFee",
          "type": "uint256"
        }
      ],
      "name": "NewFee",
      "type": "event"
    },
    {
      "anonymous": false,
      "inputs": [
        {
          "indexed": true,
          "internalType": "address",
          "name": "previousOwner",
          "type": "address"
        },
        {
          "indexed": true,
          "internalType": "address",
          "name": "newOwner",
          "type": "address"
        }
      ],
      "name": "OwnershipTransferred",
      "type": "event"
    },
    {
      "anonymous": false,
      "inputs": [
        {
          "indexed": false,
          "internalType": "address",
          "name": "account",
          "type": "address"
        }
      ],
      "name": "Paused",
      "type": "event"
    },
    {
      "anonymous": false,
      "inputs": [
        {
          "indexed": false,
          "internalType": "uint256",
          "name": "oldA",
          "type": "uint256"
        },
        {
          "indexed": false,
          "internalType": "uint256",
          "name": "newA",
          "type": "uint256"
        },
        {
          "indexed": false,
          "internalType": "uint256",
          "name": "initialTime",
          "type": "uint256"
        },
        {
          "indexed": false,
          "internalType": "uint256",
          "name": "futureTime",
          "type": "uint256"
        }
      ],
      "name": "RampA",
      "type": "event"
    },
    {
      "anonymous": false,
      "inputs": [
        {
          "indexed": true,
          "internalType": "address",
          "name": "provider",
          "type": "address"
        },
        {
          "indexed": false,
          "internalType": "uint256[]",
          "name": "tokenAmounts",
          "type": "uint256[]"
        },
        {
          "indexed": false,
          "internalType": "uint256[]",
          "name": "fees",
          "type": "uint256[]"
        },
        {
          "indexed": false,
          "internalType": "uint256",
          "name": "tokenSupply",
          "type": "uint256"
        }
      ],
      "name": "RemoveLiquidity",
      "type": "event"
    },
    {
      "anonymous": false,
      "inputs": [
        {
          "indexed": true,
          "internalType": "address",
          "name": "provider",
          "type": "address"
        },
        {
          "indexed": false,
          "internalType": "uint256[]",
          "name": "tokenAmounts",
          "type": "uint256[]"
        },
        {
          "indexed": false,
          "internalType": "uint256[]",
          "name": "fees",
          "type": "uint256[]"
        },
        {
          "indexed": false,
          "internalType": "uint256",
          "name": "invariant",
          "type": "uint256"
        },
        {
          "indexed": false,
          "internalType": "uint256",
          "name": "tokenSupply",
          "type": "uint256"
        }
      ],
      "name": "RemoveLiquidityImbalance",
      "type": "event"
    },
    {
      "anonymous": false,
      "inputs": [
        {
          "indexed": true,
          "internalType": "address",
          "name": "provider",
          "type": "address"
        },
        {
          "indexed": false,
          "internalType": "uint256",
          "name": "tokenIndex",
          "type": "uint256"
        },
        {
          "indexed": false,
          "internalType": "uint256",
          "name": "tokenAmount",
          "type": "uint256"
        },
        {
          "indexed": false,
          "internalType": "uint256",
          "name": "coinAmount",
          "type": "uint256"
        }
      ],
      "name": "RemoveLiquidityOne",
      "type": "event"
    },
    {
      "anonymous": false,
      "inputs": [
        {
          "indexed": false,
          "internalType": "uint256",
          "name": "A",
          "type": "uint256"
        },
        {
          "indexed": false,
          "internalType": "uint256",
          "name": "timestamp",
          "type": "uint256"
        }
      ],
      "name": "StopRampA",
      "type": "event"
    },
    {
      "anonymous": false,
      "inputs": [
        {
          "indexed": true,
          "internalType": "address",
          "name": "buyer",
          "type": "address"
        },
        {
          "indexed": false,
          "internalType": "uint256",
          "name": "soldId",
          "type": "uint256"
        },
        {
          "indexed": false,
          "internalType": "uint256",
          "name": "tokensSold",
          "type": "uint256"
        },
        {
          "indexed": false,
          "internalType": "uint256",
          "name": "boughtId",
          "type": "uint256"
        },
        {
          "indexed": false,
          "internalType": "uint256",
          "name": "tokensBought",
          "type": "uint256"
        }
      ],
      "name": "TokenExchange",
      "type": "event"
    },
    {
      "anonymous": false,
      "inputs": [
        {
          "indexed": false,
          "internalType": "address",
          "name": "account",
          "type": "address"
        }
      ],
      "name": "Unpaused",
      "type": "event"
    },
    {
      "inputs": [],
      "name": "MAX_A",
      "outputs": [
        {
          "internalType": "uint256",
          "name": "",
          "type": "uint256"
        }
      ],
      "stateMutability": "view",
      "type": "function"
    },
    {
      "inputs": [],
      "name": "MAX_ADMIN_FEE",
      "outputs": [
        {
          "internalType": "uint256",
          "name": "",
          "type": "uint256"
        }
      ],
      "stateMutability": "view",
      "type": "function"
    },
    {
      "inputs": [],
      "name": "MAX_A_CHANGE",
      "outputs": [
        {
          "internalType": "uint256",
          "name": "",
          "type": "uint256"
        }
      ],
      "stateMutability": "view",
      "type": "function"
    },
    {
      "inputs": [],
      "name": "MAX_SWAP_FEE",
      "outputs": [
        {
          "internalType": "uint256",
          "name": "",
          "type": "uint256"
        }
      ],
      "stateMutability": "view",
      "type": "function"
    },
    {
      "inputs": [],
      "name": "MAX_WITHDRAW_FEE",
      "outputs": [
        {
          "internalType": "uint256",
          "name": "",
          "type": "uint256"
        }
      ],
      "stateMutability": "view",
      "type": "function"
    },
    {
      "inputs": [],
      "name": "MIN_RAMP_TIME",
      "outputs": [
        {
          "internalType": "uint256",
          "name": "",
          "type": "uint256"
        }
      ],
      "stateMutability": "view",
      "type": "function"
    },
    {
      "inputs": [
        {
          "internalType": "uint256[]",
          "name": "amounts",
          "type": "uint256[]"
        },
        {
          "internalType": "uint256",
          "name": "minMintAmount",
          "type": "uint256"
        },
        {
          "internalType": "uint256",
          "name": "deadline",
          "type": "uint256"
        }
      ],
      "name": "addLiquidity",
      "outputs": [
        {
          "internalType": "uint256",
          "name": "",
          "type": "uint256"
        }
      ],
      "stateMutability": "nonpayable",
      "type": "function"
    },
    {
      "inputs": [
        {
          "internalType": "address",
          "name": "account",
          "type": "address"
        }
      ],
      "name": "calculateCurrentWithdrawFee",
      "outputs": [
        {
          "internalType": "uint256",
          "name": "",
          "type": "uint256"
        }
      ],
      "stateMutability": "view",
      "type": "function"
    },
    {
      "inputs": [
        {
          "internalType": "address",
          "name": "account",
          "type": "address"
        },
        {
          "internalType": "uint256",
          "name": "amount",
          "type": "uint256"
        }
      ],
      "name": "calculateRemoveLiquidity",
      "outputs": [
        {
          "internalType": "uint256[]",
          "name": "",
          "type": "uint256[]"
        }
      ],
      "stateMutability": "view",
      "type": "function"
    },
    {
      "inputs": [
        {
          "internalType": "address",
          "name": "account",
          "type": "address"
        },
        {
          "internalType": "uint256",
          "name": "amount",
          "type": "uint256"
        },
        {
          "internalType": "uint8",
          "name": "index",
          "type": "uint8"
        }
      ],
      "name": "calculateRemoveLiquidityOneToken",
      "outputs": [
        {
          "internalType": "uint256",
          "name": "",
          "type": "uint256"
        }
      ],
      "stateMutability": "view",
      "type": "function"
    },
    {
      "inputs": [
        {
          "internalType": "uint8",
          "name": "inIndex",
          "type": "uint8"
        },
        {
          "internalType": "uint8",
          "name": "outIndex",
          "type": "uint8"
        },
        {
          "internalType": "uint256",
          "name": "inAmount",
          "type": "uint256"
        }
      ],
      "name": "calculateSwap",
      "outputs": [
        {
          "internalType": "uint256",
          "name": "",
          "type": "uint256"
        }
      ],
      "stateMutability": "view",
      "type": "function"
    },
    {
      "inputs": [
        {
          "internalType": "address",
          "name": "tokenIn",
          "type": "address"
        },
        {
          "internalType": "address",
          "name": "tokenOut",
          "type": "address"
        },
        {
          "internalType": "uint256",
          "name": "amountIn",
          "type": "uint256"
        }
      ],
      "name": "calculateSwapGivenIn",
      "outputs": [
        {
          "internalType": "uint256",
          "name": "",
          "type": "uint256"
        }
      ],
      "stateMutability": "view",
      "type": "function"
    },
    {
      "inputs": [
        {
          "internalType": "address",
          "name": "tokenIn",
          "type": "address"
        },
        {
          "internalType": "address",
          "name": "tokenOut",
          "type": "address"
        },
        {
          "internalType": "uint256",
          "name": "amountIn",
          "type": "uint256"
        }
      ],
      "name": "calculateSwapGivenIn1",
      "outputs": [
        {
          "internalType": "uint256",
          "name": "",
          "type": "uint256"
        }
      ],
      "stateMutability": "view",
      "type": "function"
    },
    {
      "inputs": [
        {
          "internalType": "address",
          "name": "tokenIn",
          "type": "address"
        },
        {
          "internalType": "address",
          "name": "tokenOut",
          "type": "address"
        },
        {
          "internalType": "uint256",
          "name": "amountOut",
          "type": "uint256"
        }
      ],
      "name": "calculateSwapGivenOut",
      "outputs": [
        {
          "internalType": "uint256",
          "name": "",
          "type": "uint256"
        }
      ],
      "stateMutability": "view",
      "type": "function"
    },
    {
      "inputs": [
        {
          "internalType": "uint256[]",
          "name": "amounts",
          "type": "uint256[]"
        },
        {
          "internalType": "bool",
          "name": "deposit",
          "type": "bool"
        }
      ],
      "name": "calculateTokenAmount",
      "outputs": [
        {
          "internalType": "uint256",
          "name": "",
          "type": "uint256"
        }
      ],
      "stateMutability": "view",
      "type": "function"
    },
    {
      "inputs": [],
      "name": "feeController",
      "outputs": [
        {
          "internalType": "address",
          "name": "",
          "type": "address"
        }
      ],
      "stateMutability": "view",
      "type": "function"
    },
    {
      "inputs": [],
      "name": "feeDistributor",
      "outputs": [
        {
          "internalType": "address",
          "name": "",
          "type": "address"
        }
      ],
      "stateMutability": "view",
      "type": "function"
    },
    {
      "inputs": [],
      "name": "getA",
      "outputs": [
        {
          "internalType": "uint256",
          "name": "",
          "type": "uint256"
        }
      ],
      "stateMutability": "view",
      "type": "function"
    },
    {
      "inputs": [],
      "name": "getAPrecise",
      "outputs": [
        {
          "internalType": "uint256",
          "name": "",
          "type": "uint256"
        }
      ],
      "stateMutability": "view",
      "type": "function"
    },
    {
      "inputs": [
        {
          "internalType": "uint8",
          "name": "index",
          "type": "uint8"
        }
      ],
      "name": "getAdminBalance",
      "outputs": [
        {
          "internalType": "uint256",
          "name": "",
          "type": "uint256"
        }
      ],
      "stateMutability": "view",
      "type": "function"
    },
    {
      "inputs": [],
      "name": "getAdminBalances",
      "outputs": [
        {
          "internalType": "uint256[]",
          "name": "adminBalances",
          "type": "uint256[]"
        }
      ],
      "stateMutability": "view",
      "type": "function"
    },
    {
      "inputs": [],
      "name": "getLpToken",
      "outputs": [
        {
          "internalType": "contract IERC20",
          "name": "",
          "type": "address"
        }
      ],
      "stateMutability": "view",
      "type": "function"
    },
    {
      "inputs": [],
      "name": "getNumberOfTokens",
      "outputs": [
        {
          "internalType": "uint256",
          "name": "",
          "type": "uint256"
        }
      ],
      "stateMutability": "view",
      "type": "function"
    },
    {
      "inputs": [
        {
          "internalType": "uint8",
          "name": "index",
          "type": "uint8"
        }
      ],
      "name": "getToken",
      "outputs": [
        {
          "internalType": "contract IERC20",
          "name": "",
          "type": "address"
        }
      ],
      "stateMutability": "view",
      "type": "function"
    },
    {
      "inputs": [
        {
          "internalType": "uint8",
          "name": "index",
          "type": "uint8"
        }
      ],
      "name": "getTokenBalance",
      "outputs": [
        {
          "internalType": "uint256",
          "name": "",
          "type": "uint256"
        }
      ],
      "stateMutability": "view",
      "type": "function"
    },
    {
      "inputs": [],
      "name": "getTokenBalances",
      "outputs": [
        {
          "internalType": "uint256[]",
          "name": "",
          "type": "uint256[]"
        }
      ],
      "stateMutability": "view",
      "type": "function"
    },
    {
      "inputs": [
        {
          "internalType": "address",
          "name": "token",
          "type": "address"
        }
      ],
      "name": "getTokenIndex",
      "outputs": [
        {
          "internalType": "uint8",
          "name": "index",
          "type": "uint8"
        }
      ],
      "stateMutability": "view",
      "type": "function"
    },
    {
      "inputs": [],
      "name": "getTokenPrecisionMultipliers",
      "outputs": [
        {
          "internalType": "uint256[]",
          "name": "",
          "type": "uint256[]"
        }
      ],
      "stateMutability": "view",
      "type": "function"
    },
    {
      "inputs": [],
      "name": "getTokens",
      "outputs": [
        {
          "internalType": "contract IERC20[]",
          "name": "",
          "type": "address[]"
        }
      ],
      "stateMutability": "view",
      "type": "function"
    },
    {
      "inputs": [],
      "name": "getVirtualPrice",
      "outputs": [
        {
          "internalType": "uint256",
          "name": "",
          "type": "uint256"
        }
      ],
      "stateMutability": "view",
      "type": "function"
    },
    {
      "inputs": [
        {
          "internalType": "address[]",
          "name": "_coins",
          "type": "address[]"
        },
        {
          "internalType": "uint8[]",
          "name": "_decimals",
          "type": "uint8[]"
        },
        {
          "internalType": "string",
          "name": "lpTokenName",
          "type": "string"
        },
        {
          "internalType": "string",
          "name": "lpTokenSymbol",
          "type": "string"
        },
        {
          "internalType": "uint256",
          "name": "_A",
          "type": "uint256"
        },
        {
          "internalType": "uint256",
          "name": "_fee",
          "type": "uint256"
        },
        {
          "internalType": "uint256",
          "name": "_adminFee",
          "type": "uint256"
        },
        {
          "internalType": "uint256",
          "name": "_withdrawFee",
          "type": "uint256"
        },
        {
          "internalType": "address",
          "name": "_feeDistributor",
          "type": "address"
        }
      ],
      "name": "initialize",
      "outputs": [],
      "stateMutability": "nonpayable",
      "type": "function"
    },
    {
      "inputs": [
        {
          "internalType": "address",
          "name": "tokenIn",
          "type": "address"
        },
        {
          "internalType": "address",
          "name": "tokenOut",
          "type": "address"
        },
        {
          "internalType": "uint256",
          "name": "amountIn",
          "type": "uint256"
        },
        {
          "internalType": "uint256",
          "name": "amountOutMin",
          "type": "uint256"
        },
        {
          "internalType": "address",
          "name": "to",
          "type": "address"
        }
      ],
      "name": "onSwapGivenIn",
      "outputs": [
        {
          "internalType": "uint256",
          "name": "",
          "type": "uint256"
        }
      ],
      "stateMutability": "nonpayable",
      "type": "function"
    },
    {
      "inputs": [
        {
          "internalType": "address",
          "name": "tokenIn",
          "type": "address"
        },
        {
          "internalType": "address",
          "name": "tokenOut",
          "type": "address"
        },
        {
          "internalType": "uint256",
          "name": "amountOut",
          "type": "uint256"
        },
        {
          "internalType": "uint256",
          "name": "amountInMax",
          "type": "uint256"
        },
        {
          "internalType": "address",
          "name": "to",
          "type": "address"
        }
      ],
      "name": "onSwapGivenOut",
      "outputs": [
        {
          "internalType": "uint256",
          "name": "",
          "type": "uint256"
        }
      ],
      "stateMutability": "nonpayable",
      "type": "function"
    },
    {
      "inputs": [],
      "name": "owner",
      "outputs": [
        {
          "internalType": "address",
          "name": "",
          "type": "address"
        }
      ],
      "stateMutability": "view",
      "type": "function"
    },
    {
      "inputs": [],
      "name": "pause",
      "outputs": [],
      "stateMutability": "nonpayable",
      "type": "function"
    },
    {
      "inputs": [],
      "name": "paused",
      "outputs": [
        {
          "internalType": "bool",
          "name": "",
          "type": "bool"
        }
      ],
      "stateMutability": "view",
      "type": "function"
    },
    {
      "inputs": [
        {
          "internalType": "uint256",
          "name": "futureA",
          "type": "uint256"
        },
        {
          "internalType": "uint256",
          "name": "futureATime",
          "type": "uint256"
        }
      ],
      "name": "rampA",
      "outputs": [],
      "stateMutability": "nonpayable",
      "type": "function"
    },
    {
      "inputs": [
        {
          "internalType": "uint256",
          "name": "lpAmount",
          "type": "uint256"
        },
        {
          "internalType": "uint256[]",
          "name": "minAmounts",
          "type": "uint256[]"
        },
        {
          "internalType": "uint256",
          "name": "deadline",
          "type": "uint256"
        }
      ],
      "name": "removeLiquidity",
      "outputs": [
        {
          "internalType": "uint256[]",
          "name": "",
          "type": "uint256[]"
        }
      ],
      "stateMutability": "nonpayable",
      "type": "function"
    },
    {
      "inputs": [
        {
          "internalType": "uint256[]",
          "name": "amounts",
          "type": "uint256[]"
        },
        {
          "internalType": "uint256",
          "name": "maxBurnAmount",
          "type": "uint256"
        },
        {
          "internalType": "uint256",
          "name": "deadline",
          "type": "uint256"
        }
      ],
      "name": "removeLiquidityImbalance",
      "outputs": [
        {
          "internalType": "uint256",
          "name": "",
          "type": "uint256"
        }
      ],
      "stateMutability": "nonpayable",
      "type": "function"
    },
    {
      "inputs": [
        {
          "internalType": "uint256",
          "name": "lpAmount",
          "type": "uint256"
        },
        {
          "internalType": "uint8",
          "name": "index",
          "type": "uint8"
        },
        {
          "internalType": "uint256",
          "name": "minAmount",
          "type": "uint256"
        },
        {
          "internalType": "uint256",
          "name": "deadline",
          "type": "uint256"
        }
      ],
      "name": "removeLiquidityOneToken",
      "outputs": [
        {
          "internalType": "uint256",
          "name": "",
          "type": "uint256"
        }
      ],
      "stateMutability": "nonpayable",
      "type": "function"
    },
    {
      "inputs": [],
      "name": "renounceOwnership",
      "outputs": [],
      "stateMutability": "nonpayable",
      "type": "function"
    },
    {
      "inputs": [
        {
          "internalType": "uint256",
          "name": "newSwapFee",
          "type": "uint256"
        },
        {
          "internalType": "uint256",
          "name": "newAdminFee",
          "type": "uint256"
        },
        {
          "internalType": "uint256",
          "name": "newWithdrawFee",
          "type": "uint256"
        }
      ],
      "name": "setFee",
      "outputs": [],
      "stateMutability": "nonpayable",
      "type": "function"
    },
    {
      "inputs": [
        {
          "internalType": "address",
          "name": "_feeController",
          "type": "address"
        }
      ],
      "name": "setFeeController",
      "outputs": [],
      "stateMutability": "nonpayable",
      "type": "function"
    },
    {
      "inputs": [
        {
          "internalType": "address",
          "name": "_feeDistributor",
          "type": "address"
        }
      ],
      "name": "setFeeDistributor",
      "outputs": [],
      "stateMutability": "nonpayable",
      "type": "function"
    },
    {
      "inputs": [],
      "name": "stopRampA",
      "outputs": [],
      "stateMutability": "nonpayable",
      "type": "function"
    },
    {
      "inputs": [
        {
          "internalType": "uint8",
          "name": "fromIndex",
          "type": "uint8"
        },
        {
          "internalType": "uint8",
          "name": "toIndex",
          "type": "uint8"
        },
        {
          "internalType": "uint256",
          "name": "inAmount",
          "type": "uint256"
        },
        {
          "internalType": "uint256",
          "name": "minOutAmount",
          "type": "uint256"
        },
        {
          "internalType": "address",
          "name": "to",
          "type": "address"
        },
        {
          "internalType": "uint256",
          "name": "deadline",
          "type": "uint256"
        }
      ],
      "name": "swap",
      "outputs": [
        {
          "internalType": "uint256",
          "name": "",
          "type": "uint256"
        }
      ],
      "stateMutability": "nonpayable",
      "type": "function"
    },
    {
      "inputs": [],
      "name": "swapStorage",
      "outputs": [
        {
          "internalType": "contract LPToken",
          "name": "lpToken",
          "type": "address"
        },
        {
          "internalType": "uint256",
          "name": "fee",
          "type": "uint256"
        },
        {
          "internalType": "uint256",
          "name": "adminFee",
          "type": "uint256"
        },
        {
          "internalType": "uint256",
          "name": "initialA",
          "type": "uint256"
        },
        {
          "internalType": "uint256",
          "name": "futureA",
          "type": "uint256"
        },
        {
          "internalType": "uint256",
          "name": "initialATime",
          "type": "uint256"
        },
        {
          "internalType": "uint256",
          "name": "futureATime",
          "type": "uint256"
        },
        {
          "internalType": "uint256",
          "name": "defaultWithdrawFee",
          "type": "uint256"
        }
      ],
      "stateMutability": "view",
      "type": "function"
    },
    {
      "inputs": [
        {
          "internalType": "address",
          "name": "",
          "type": "address"
        }
      ],
      "name": "tokenIndexes",
      "outputs": [
        {
          "internalType": "uint8",
          "name": "",
          "type": "uint8"
        }
      ],
      "stateMutability": "view",
      "type": "function"
    },
    {
      "inputs": [
        {
          "internalType": "address",
          "name": "newOwner",
          "type": "address"
        }
      ],
      "name": "transferOwnership",
      "outputs": [],
      "stateMutability": "nonpayable",
      "type": "function"
    },
    {
      "inputs": [],
      "name": "unpause",
      "outputs": [],
      "stateMutability": "nonpayable",
      "type": "function"
    },
    {
      "inputs": [
        {
          "internalType": "address",
          "name": "recipient",
          "type": "address"
        },
        {
          "internalType": "uint256",
          "name": "transferAmount",
          "type": "uint256"
        }
      ],
      "name": "updateUserWithdrawFee",
      "outputs": [],
      "stateMutability": "nonpayable",
      "type": "function"
    },
    {
      "inputs": [],
      "name": "withdrawAdminFee",
      "outputs": [],
      "stateMutability": "nonpayable",
      "type": "function"
    }
  ],
  "bytecode": "0x60806040523480156200001157600080fd5b506200001d3362000034565b6000805460ff60a01b191690556001805562000084565b600080546001600160a01b038381166001600160a01b0319831681178455604051919092169283917f8be0079c531659141344cd1fd0a4f28419497f9722a3daafe3b4186f6b6457e09190a35050565b615a8780620000946000396000f3fe60806040523480156200001157600080fd5b5060043610620003915760003560e01c80638554a7d411620001e1578063ccfc2e8d116200010d578063e652671c11620000af578063efeecb511162000086578063efeecb5114620007e4578063f2fde38b14620007ed578063f3de03621462000804578063fe49abe3146200081157600080fd5b8063e652671c146200079f578063e6ab280614620007b6578063e9255bae14620007cd57600080fd5b8063d4b0de2f11620000e4578063d4b0de2f14620006ef578063df3ed68d146200077e578063e25aa5fa146200079557600080fd5b8063ccfc2e8d1462000753578063d41f6568146200076a578063d46300fd146200077457600080fd5b8063aa6ca8081162000183578063bfd3956b116200015a578063bfd3956b1462000704578063c00c125c146200071b578063c4db7fa01462000732578063cc56fd43146200073c57600080fd5b8063aa6ca80814620006d6578063ab3d854414620006ef578063ab5ac06114620006fb57600080fd5b806398899f4011620001b857806398899f40146200069e578063a1dc903114620006b5578063a95b089f14620006bf57600080fd5b80638554a7d4146200065e5780638da5cb5b146200067557806391ceb3eb146200068757600080fd5b80634d49e87d11620002c15780636999b37711620002635780638214f5a4116200023a5780638214f5a4146200061457806382b8660014620006265780638456cb59146200063d57806384cdd9bc146200064757600080fd5b80636999b37714620005df578063715018a614620005f35780637c61e56114620005fd57600080fd5b80635c975abb11620002985780635c975abb14620005235780635fd65f0f146200055257806366c0bd2414620005c857600080fd5b80634d49e87d14620004de578063593d132c14620004f55780635b65b9ab146200050c57600080fd5b806331cd52b011620003375780633ed4c678116200030e5780633ed4c678146200048d5780633f4ba83a14620004a65780634a1b0d5714620004b05780634ac00e0314620004c757600080fd5b806331cd52b0146200045457806339698415146200046b5780633e3a1560146200047657600080fd5b80630d43e8ad116200036c5780630d43e8ad14620003f75780630e6d8bce146200042457806318f52ce2146200043b57600080fd5b806304bc3b1c146200039657806306e9481c14620003d35780630ba8195914620003ed575b600080fd5b620003bc620003a736600462003757565b60126020526000908152604090205460ff1681565b60405160ff90911681526020015b60405180910390f35b620003de6201518081565b604051908152602001620003ca565b620003de6200081b565b6010546200040b906001600160a01b031681565b6040516001600160a01b039091168152602001620003ca565b620003de6200043536600462003775565b620008b4565b6200044562000a6a565b604051620003ca9190620037d3565b620004456200046536600462003934565b62000b96565b620003de620f424081565b620003de620004873660046200399a565b62000d0f565b620004a46200049e36600462003757565b62000eac565b005b620004a462000fcd565b620003de620004c136600462003757565b62001035565b620003de620004d836600462003775565b6200104a565b620003de620004ef366004620039d8565b620011af565b620004a46200050636600462003a2a565b62001365565b620004a46200051d36600462003a4d565b620016b8565b60005474010000000000000000000000000000000000000000900460ff166040519015158152602001620003ca565b600454600754600854600954600a54600b54600c54600d5462000582976001600160a01b03169695949392919088565b604080516001600160a01b0390991689526020890197909752958701949094526060860192909252608085015260a084015260c083015260e082015261010001620003ca565b620003bc620005d936600462003757565b6200186c565b6011546200040b906001600160a01b031681565b620004a46200190c565b620004456200060e36600462003a7a565b62001974565b6004546001600160a01b03166200040b565b6200040b6200063736600462003aa7565b62001a46565b620004a462001a7f565b620003de62000658366004620039d8565b62001ae5565b620003de6200066f36600462003aa7565b62001c58565b6000546001600160a01b03166200040b565b620003de6200069836600462003aa7565b62001cf4565b620003de620006af36600462003ac5565b62001d23565b6200044562001dde565b620003de620006d036600462003b06565b62001e3a565b620006e062001ea7565b604051620003ca919062003b47565b620003de6305f5e10081565b620003de600a81565b620003de6200071536600462003b8a565b62001f0d565b620004a46200072c36600462003a7a565b620020f6565b620004a4620021ea565b620003de6200074d36600462003bf0565b6200237c565b620004a46200076436600462003757565b6200240a565b6200044562002525565b620003de62002580565b620004a46200078f36600462003d8c565b620025d5565b620003de62002d55565b620003de620007b036600462003bf0565b62002daa565b620003de620007c736600462003e8f565b62002e38565b620003de620007de36600462003bf0565b62002e94565b600354620003de565b620004a4620007fe36600462003757565b62002f22565b620003de6402540be40081565b620004a46200300a565b6040517fa30355850000000000000000000000000000000000000000000000000000000081526003600482015260009073__$6aaf67e7827a013dd22ce71b2520632c86$__9063a3035585906024015b602060405180830381865af415801562000889573d6000803e3d6000fd5b505050506040513d601f19601f82011682018060405250810190620008af919062003f1c565b905090565b6000805474010000000000000000000000000000000000000000900460ff1615620009265760405162461bcd60e51b815260206004820152601060248201527f5061757361626c653a207061757365640000000000000000000000000000000060448201526064015b60405180910390fd5b600260015414156200097b5760405162461bcd60e51b815260206004820152601f60248201527f5265656e7472616e637947756172643a207265656e7472616e742063616c6c0060448201526064016200091d565b60026001556001600160a01b03868116600090815260126020526040808220548884168352918190205490517f8e6da7b60000000000000000000000000000000000000000000000000000000081526003600482015260ff928316602482015291166044820152606481018690526084810185905290831660a482015273__$6aaf67e7827a013dd22ce71b2520632c86$__90638e6da7b69060c4015b602060405180830381865af415801562000a36573d6000803e3d6000fd5b505050506040513d601f19601f8201168201806040525081019062000a5c919062003f1c565b600180559695505050505050565b6003546060908067ffffffffffffffff81111562000a8c5762000a8c62003819565b60405190808252806020026020018201604052801562000ab6578160200160208202803683370190505b50915060005b8181101562000b91576040517fe2eba89b000000000000000000000000000000000000000000000000000000008152600360048201526024810182905273__$6aaf67e7827a013dd22ce71b2520632c86$__9063e2eba89b90604401602060405180830381865af415801562000b36573d6000803e3d6000fd5b505050506040513d601f19601f8201168201806040525081019062000b5c919062003f1c565b83828151811062000b715762000b7162003f36565b60209081029190910101528062000b888162003f94565b91505062000abc565b505090565b60606002600154141562000bed5760405162461bcd60e51b815260206004820152601f60248201527f5265656e7472616e637947756172643a207265656e7472616e742063616c6c0060448201526064016200091d565b6002600155814281101562000c455760405162461bcd60e51b815260206004820152600760248201527f74696d656f75740000000000000000000000000000000000000000000000000060448201526064016200091d565b6040517fc685696c00000000000000000000000000000000000000000000000000000000815273__$6aaf67e7827a013dd22ce71b2520632c86$__9063c685696c9062000c9c90600390899089906004016200400d565b600060405180830381865af415801562000cba573d6000803e3d6000fd5b505050506040513d6000823e601f3d9081017fffffffffffffffffffffffffffffffffffffffffffffffffffffffffffffffe016820160405262000d02919081019062004037565b6001805595945050505050565b60006002600154141562000d665760405162461bcd60e51b815260206004820152601f60248201527f5265656e7472616e637947756172643a207265656e7472616e742063616c6c0060448201526064016200091d565b600260015560005474010000000000000000000000000000000000000000900460ff161562000dd85760405162461bcd60e51b815260206004820152601060248201527f5061757361626c653a207061757365640000000000000000000000000000000060448201526064016200091d565b818042111562000e2b5760405162461bcd60e51b815260206004820152600760248201527f74696d656f75740000000000000000000000000000000000000000000000000060448201526064016200091d565b6040517f2bfe30d0000000000000000000000000000000000000000000000000000000008152600360048201526024810187905260ff861660448201526064810185905273__$6aaf67e7827a013dd22ce71b2520632c86$__90632bfe30d090608401602060405180830381865af415801562000a36573d6000803e3d6000fd5b6000546001600160a01b0316331462000f085760405162461bcd60e51b815260206004820181905260248201527f4f776e61626c653a2063616c6c6572206973206e6f7420746865206f776e657260448201526064016200091d565b6001600160a01b03811662000f605760405162461bcd60e51b815260206004820152600b60248201527f7a65726f4164647265737300000000000000000000000000000000000000000060448201526064016200091d565b601180547fffffffffffffffffffffffff0000000000000000000000000000000000000000166001600160a01b0383169081179091556040519081527f4c3f3b9852ccceadd50f16518f348e2624c8f0240acdd5bc81911c0fba83ec67906020015b60405180910390a150565b6000546001600160a01b03163314620010295760405162461bcd60e51b815260206004820181905260248201527f4f776e61626c653a2063616c6c6572206973206e6f7420746865206f776e657260448201526064016200091d565b62001033620031f1565b565b600062001044600383620032c5565b92915050565b6000805474010000000000000000000000000000000000000000900460ff1615620010b85760405162461bcd60e51b815260206004820152601060248201527f5061757361626c653a207061757365640000000000000000000000000000000060448201526064016200091d565b600260015414156200110d5760405162461bcd60e51b815260206004820152601f60248201527f5265656e7472616e637947756172643a207265656e7472616e742063616c6c0060448201526064016200091d565b60026001556001600160a01b03868116600090815260126020526040808220548884168352918190205490517f0da350f60000000000000000000000000000000000000000000000000000000081526003600482015260ff928316602482015291166044820152606481018690526084810185905290831660a482015273__$6aaf67e7827a013dd22ce71b2520632c86$__90630da350f69060c40162000a18565b6000805474010000000000000000000000000000000000000000900460ff16156200121d5760405162461bcd60e51b815260206004820152601060248201527f5061757361626c653a207061757365640000000000000000000000000000000060448201526064016200091d565b60026001541415620012725760405162461bcd60e51b815260206004820152601f60248201527f5265656e7472616e637947756172643a207265656e7472616e742063616c6c0060448201526064016200091d565b60026001558142811015620012ca5760405162461bcd60e51b815260206004820152600760248201527f74696d656f75740000000000000000000000000000000000000000000000000060448201526064016200091d565b6040517f7a6cba3c00000000000000000000000000000000000000000000000000000000815273__$6aaf67e7827a013dd22ce71b2520632c86$__90637a6cba3c90620013219060039089908990600401620040d1565b602060405180830381865af41580156200133f573d6000803e3d6000fd5b505050506040513d601f19601f8201168201806040525081019062000d02919062003f1c565b6000546001600160a01b03163314620013c15760405162461bcd60e51b815260206004820181905260248201527f4f776e61626c653a2063616c6c6572206973206e6f7420746865206f776e657260448201526064016200091d565b600b54620013d39062015180620040fc565b421015620014245760405162461bcd60e51b815260206004820152600b60248201527f3c2072616d7044656c617900000000000000000000000000000000000000000060448201526064016200091d565b620014336201518042620040fc565b811015620014845760405162461bcd60e51b815260206004820152600d60248201527f3c206d696e52616d7054696d650000000000000000000000000000000000000060448201526064016200091d565b816000108015620014975750620f424082105b620014e55760405162461bcd60e51b815260206004820152600a60248201527f6f75744f6652616e67650000000000000000000000000000000000000000000060448201526064016200091d565b6040517fa30355850000000000000000000000000000000000000000000000000000000081526003600482015260009073__$6aaf67e7827a013dd22ce71b2520632c86$__9063a303558590602401602060405180830381865af415801562001552573d6000803e3d6000fd5b505050506040513d601f19601f8201168201806040525081019062001578919062003f1c565b905060006200158960648562004117565b905081811015620015f85781620015a2600a8362004117565b1015620015f25760405162461bcd60e51b815260206004820152600b60248201527f3e206d61784368616e676500000000000000000000000000000000000000000060448201526064016200091d565b62001656565b62001605600a8362004117565b811115620016565760405162461bcd60e51b815260206004820152600b60248201527f3e206d61784368616e676500000000000000000000000000000000000000000060448201526064016200091d565b6009829055600a81905542600b819055600c84905560408051848152602081018490528082019290925260608201859052517fa2b71ec6df949300b59aab36b55e189697b750119dd349fcfa8c0f779e83c2549181900360800190a150505050565b6000546001600160a01b03163314620017145760405162461bcd60e51b815260206004820181905260248201527f4f776e61626c653a2063616c6c6572206973206e6f7420746865206f776e657260448201526064016200091d565b6305f5e1008311156200176a5760405162461bcd60e51b815260206004820152600c60248201527f3e206d617853776170466565000000000000000000000000000000000000000060448201526064016200091d565b6402540be400821115620017c15760405162461bcd60e51b815260206004820152600d60248201527f3e206d617841646d696e4665650000000000000000000000000000000000000060448201526064016200091d565b6305f5e100811115620018175760405162461bcd60e51b815260206004820152601060248201527f3e206d617857697468647261774665650000000000000000000000000000000060448201526064016200091d565b60088290556007839055600d81905560408051848152602081018490529081018290527fcfca96e0fef3432146913b2a5a2268a55d3f475fe057e7ffde1082b77693f4f39060600160405180910390a1505050565b6001600160a01b0381166000818152601260205260409020546003805460ff909216929183908110620018a357620018a362003f36565b6000918252602090912001546001600160a01b031614620019075760405162461bcd60e51b815260206004820152600d60248201527f746f6b656e4e6f74466f756e640000000000000000000000000000000000000060448201526064016200091d565b919050565b6000546001600160a01b03163314620019685760405162461bcd60e51b815260206004820181905260248201527f4f776e61626c653a2063616c6c6572206973206e6f7420746865206f776e657260448201526064016200091d565b6200103360006200337f565b6040517ffa563597000000000000000000000000000000000000000000000000000000008152600360048201526001600160a01b03831660248201526044810182905260609073__$6aaf67e7827a013dd22ce71b2520632c86$__9063fa56359790606401600060405180830381865af4158015620019f7573d6000803e3d6000fd5b505050506040513d6000823e601f3d9081017fffffffffffffffffffffffffffffffffffffffffffffffffffffffffffffffe016820160405262001a3f919081019062004037565b9392505050565b600060036000018260ff168154811062001a645762001a6462003f36565b6000918252602090912001546001600160a01b031692915050565b6000546001600160a01b0316331462001adb5760405162461bcd60e51b815260206004820181905260248201527f4f776e61626c653a2063616c6c6572206973206e6f7420746865206f776e657260448201526064016200091d565b62001033620033e7565b60006002600154141562001b3c5760405162461bcd60e51b815260206004820152601f60248201527f5265656e7472616e637947756172643a207265656e7472616e742063616c6c0060448201526064016200091d565b600260015560005474010000000000000000000000000000000000000000900460ff161562001bae5760405162461bcd60e51b815260206004820152601060248201527f5061757361626c653a207061757365640000000000000000000000000000000060448201526064016200091d565b818042111562001c015760405162461bcd60e51b815260206004820152600760248201527f74696d656f75740000000000000000000000000000000000000000000000000060448201526064016200091d565b6040517fc8344c0600000000000000000000000000000000000000000000000000000000815273__$6aaf67e7827a013dd22ce71b2520632c86$__9063c8344c0690620013219060039089908990600401620040d1565b6040517fe2eba89b0000000000000000000000000000000000000000000000000000000081526003600482015260ff8216602482015260009073__$6aaf67e7827a013dd22ce71b2520632c86$__9063e2eba89b90604401602060405180830381865af415801562001cce573d6000803e3d6000fd5b505050506040513d601f19601f8201168201806040525081019062001044919062003f1c565b6000600380018260ff168154811062001d115762001d1162003f36565b90600052602060002001549050919050565b6040517f159763bb000000000000000000000000000000000000000000000000000000008152600360048201526001600160a01b03841660248201526044810183905260ff8216606482015260009073__$6aaf67e7827a013dd22ce71b2520632c86$__9063159763bb906084015b602060405180830381865af415801562001db0573d6000803e3d6000fd5b505050506040513d601f19601f8201168201806040525081019062001dd6919062003f1c565b949350505050565b60606003800180548060200260200160405190810160405280929190818152602001828054801562001e3057602002820191906000526020600020905b81548152602001906001019080831162001e1b575b5050505050905090565b6040517fba2998d90000000000000000000000000000000000000000000000000000000081526003600482015260ff8085166024830152831660448201526064810182905260009073__$6aaf67e7827a013dd22ce71b2520632c86$__9063ba2998d99060840162001d92565b6060600360000180548060200260200160405190810160405280929190818152602001828054801562001e3057602002820191906000526020600020905b81546001600160a01b0316815260019091019060200180831162001ee5575050505050905090565b6000805474010000000000000000000000000000000000000000900460ff161562001f7b5760405162461bcd60e51b815260206004820152601060248201527f5061757361626c653a207061757365640000000000000000000000000000000060448201526064016200091d565b6002600154141562001fd05760405162461bcd60e51b815260206004820152601f60248201527f5265656e7472616e637947756172643a207265656e7472616e742063616c6c0060448201526064016200091d565b60026001558142811015620020285760405162461bcd60e51b815260206004820152600760248201527f74696d656f75740000000000000000000000000000000000000000000000000060448201526064016200091d565b6040517fad30093f0000000000000000000000000000000000000000000000000000000081526003600482015260ff808a1660248301528816604482015260648101879052608481018690526001600160a01b03851660a482015273__$6aaf67e7827a013dd22ce71b2520632c86$__9063ad30093f9060c401602060405180830381865af4158015620020c0573d6000803e3d6000fd5b505050506040513d601f19601f82011682018060405250810190620020e6919062003f1c565b6001805598975050505050505050565b6004546001600160a01b03163314620021525760405162461bcd60e51b815260206004820152600860248201527f216c70546f6b656e00000000000000000000000000000000000000000000000060448201526064016200091d565b6040517fc188e4be000000000000000000000000000000000000000000000000000000008152600360048201526001600160a01b03831660248201526044810182905273__$6aaf67e7827a013dd22ce71b2520632c86$__9063c188e4be9060640160006040518083038186803b158015620021cd57600080fd5b505af4158015620021e2573d6000803e3d6000fd5b505050505050565b6000546001600160a01b03163314620022465760405162461bcd60e51b815260206004820181905260248201527f4f776e61626c653a2063616c6c6572206973206e6f7420746865206f776e657260448201526064016200091d565b600c544210620022995760405162461bcd60e51b815260206004820152600e60248201527f616c726561647953746f7070656400000000000000000000000000000000000060448201526064016200091d565b6040517fa30355850000000000000000000000000000000000000000000000000000000081526003600482015260009073__$6aaf67e7827a013dd22ce71b2520632c86$__9063a303558590602401602060405180830381865af415801562002306573d6000803e3d6000fd5b505050506040513d601f19601f820116820180604052508101906200232c919062003f1c565b6009819055600a81905542600b819055600c8190556040519192507f46e22fb3709ad289f62ce63d469248536dbc78d82b84a3d7e74ad606dc2019389162000fc291848252602082015260400190565b6001600160a01b038381166000908152601260205260408082205492851682528082205490517faa054aee0000000000000000000000000000000000000000000000000000000081526003600482015260ff938416602482015292166044830152606482018390529073__$6aaf67e7827a013dd22ce71b2520632c86$__9063aa054aee9060840162001d92565b6000546001600160a01b03163314620024665760405162461bcd60e51b815260206004820181905260248201527f4f776e61626c653a2063616c6c6572206973206e6f7420746865206f776e657260448201526064016200091d565b6001600160a01b038116620024be5760405162461bcd60e51b815260206004820152600b60248201527f7a65726f4164647265737300000000000000000000000000000000000000000060448201526064016200091d565b601080547fffffffffffffffffffffffff0000000000000000000000000000000000000000166001600160a01b0383169081179091556040519081527fae5a12c29e496b092467a620746b9eaf4e0e231a631a4370c233b1fac38e8e269060200162000fc2565b6060600360020180548060200260200160405190810160405280929190818152602001828054801562001e30576020028201919060005260206000209081548152602001906001019080831162001e1b575050505050905090565b6040517fb52e146f0000000000000000000000000000000000000000000000000000000081526003600482015260009073__$6aaf67e7827a013dd22ce71b2520632c86$__9063b52e146f906024016200086b565b6000546001600160a01b03163314620026315760405162461bcd60e51b815260206004820181905260248201527f4f776e61626c653a2063616c6c6572206973206e6f7420746865206f776e657260448201526064016200091d565b600254610100900460ff16806200264b575060025460ff16155b620026bf5760405162461bcd60e51b815260206004820152602e60248201527f496e697469616c697a61626c653a20636f6e747261637420697320616c72656160448201527f647920696e697469616c697a656400000000000000000000000000000000000060648201526084016200091d565b600254610100900460ff16158015620026ff57600280547fffffffffffffffffffffffffffffffffffffffffffffffffffffffffffff0000166101011790555b88518a5114620027525760405162461bcd60e51b815260206004820152601d60248201527f636f696e734c656e67746820213d20646563696d616c734c656e67746800000060448201526064016200091d565b6001600160a01b038216620027aa5760405162461bcd60e51b815260206004820152601660248201527f6665654469737472696275746f72203d20656d7074790000000000000000000060448201526064016200091d565b895160008167ffffffffffffffff811115620027ca57620027ca62003819565b604051908082528060200260200182016040528015620027f4578160200160208202803683370190505b50905060008267ffffffffffffffff81111562002815576200281562003819565b6040519080825280602002602001820160405280156200283f578160200160208202803683370190505b50905060005b8381101562002a5f5760006001600160a01b03168e82815181106200286e576200286e62003f36565b60200260200101516001600160a01b03161415620028cf5760405162461bcd60e51b815260206004820152601360248201527f696e76616c6964546f6b656e416464726573730000000000000000000000000060448201526064016200091d565b60128d8281518110620028e657620028e662003f36565b602002602001015160ff161115620029415760405162461bcd60e51b815260206004820152600f60248201527f696e76616c6964446563696d616c73000000000000000000000000000000000060448201526064016200091d565b8c818151811062002956576200295662003f36565b602002602001015160ff1660126200296f919062004157565b6200297c90600a620042aa565b83828151811062002991576200299162003f36565b6020026020010181815250508d8181518110620029b257620029b262003f36565b6020026020010151828281518110620029cf57620029cf62003f36565b60200260200101906001600160a01b031690816001600160a01b031681525050806012600084848151811062002a095762002a0962003f36565b60200260200101516001600160a01b03166001600160a01b0316815260200190815260200160002060006101000a81548160ff021916908360ff160217905550808062002a569062003f94565b91505062002845565b50620f4240891062002ab45760405162461bcd60e51b815260206004820152600660248201527f3e206d617841000000000000000000000000000000000000000000000000000060448201526064016200091d565b6305f5e10088111562002b0a5760405162461bcd60e51b815260206004820152600c60248201527f3e206d617853776170466565000000000000000000000000000000000000000060448201526064016200091d565b6402540be40087111562002b615760405162461bcd60e51b815260206004820152600d60248201527f3e206d617841646d696e4665650000000000000000000000000000000000000060448201526064016200091d565b6305f5e10086111562002bb75760405162461bcd60e51b815260206004820152601060248201527f3e206d617857697468647261774665650000000000000000000000000000000060448201526064016200091d565b8a8a60405162002bc7906200365a565b62002bd492919062004333565b604051809103906000f08015801562002bf1573d6000803e3d6000fd5b50600480547fffffffffffffffffffffffff0000000000000000000000000000000000000000166001600160a01b03929092169190911790558267ffffffffffffffff81111562002c465762002c4662003819565b60405190808252806020026020018201604052801562002c70578160200160208202803683370190505b50805162002c879160069160209091019062003668565b50815162002c9d90600590602085019062003668565b50805162002cb3906003906020840190620036b8565b5062002cc160648a62004117565b60095562002cd160648a62004117565b600a5550505060078590556008849055600d839055601080547fffffffffffffffffffffffff0000000000000000000000000000000000000000166001600160a01b038416179055801562002d4957600280547fffffffffffffffffffffffffffffffffffffffffffffffffffffffffffff00ff1690555b50505050505050505050565b6040517fd36604ac0000000000000000000000000000000000000000000000000000000081526003600482015260009073__$6aaf67e7827a013dd22ce71b2520632c86$__9063d36604ac906024016200086b565b6001600160a01b038381166000908152601260205260408082205492851682528082205490517f71c60d0d0000000000000000000000000000000000000000000000000000000081526003600482015260ff938416602482015292166044830152606482018390529073__$6aaf67e7827a013dd22ce71b2520632c86$__906371c60d0d9060840162001d92565b6040517f1e7e95d300000000000000000000000000000000000000000000000000000000815260009073__$6aaf67e7827a013dd22ce71b2520632c86$__90631e7e95d39062001d92906003908890889088906004016200435c565b6001600160a01b038381166000908152601260205260408082205492851682528082205490517fba2998d90000000000000000000000000000000000000000000000000000000081526003600482015260ff938416602482015292166044830152606482018390529073__$6aaf67e7827a013dd22ce71b2520632c86$__9063ba2998d99060840162001d92565b6000546001600160a01b0316331462002f7e5760405162461bcd60e51b815260206004820181905260248201527f4f776e61626c653a2063616c6c6572206973206e6f7420746865206f776e657260448201526064016200091d565b6001600160a01b03811662002ffc5760405162461bcd60e51b815260206004820152602660248201527f4f776e61626c653a206e6577206f776e657220697320746865207a65726f206160448201527f646472657373000000000000000000000000000000000000000000000000000060648201526084016200091d565b62003007816200337f565b50565b6011546001600160a01b03163314806200302e57506000546001600160a01b031633145b6200307c5760405162461bcd60e51b815260206004820152601560248201527f21666565436f6e74726f6c6c65724f724f776e6572000000000000000000000060448201526064016200091d565b60005b6003548110156200300757600060036000018281548110620030a557620030a562003f36565b6000918252602082200154600680546001600160a01b0390921693509084908110620030d557620030d562003f36565b6000918252602090912001546040517f70a082310000000000000000000000000000000000000000000000000000000081523060048201526001600160a01b038416906370a0823190602401602060405180830381865afa1580156200313f573d6000803e3d6000fd5b505050506040513d601f19601f8201168201806040525081019062003165919062003f1c565b62003171919062004157565b90508015620031d95760105462003196906001600160a01b03848116911683620034bc565b604080516001600160a01b0384168152602081018390527fee3859efa95e525bc2bcb149b51b60a8bb4e89c647392d9d4112e03c3e73bdd6910160405180910390a15b50508080620031e89062003f94565b9150506200307f565b60005474010000000000000000000000000000000000000000900460ff166200325d5760405162461bcd60e51b815260206004820152601460248201527f5061757361626c653a206e6f742070617573656400000000000000000000000060448201526064016200091d565b600080547fffffffffffffffffffffff00ffffffffffffffffffffffffffffffffffffffff1690557f5db9ee0a495bf2e6ff9c91a7834c1ba4fdd244a5e8aa4e537bd38aeae4b073aa335b6040516001600160a01b03909116815260200160405180910390a1565b6001600160a01b0381166000908152600b830160205260408120548190620032f1906224ea00620040fc565b905042811115620033755760006200330a428362004157565b6001600160a01b0385166000908152600c87016020526040902054600a8701549192506402540be400916224ea0091849162003347919062004117565b62003353919062004117565b6200335f9190620043c6565b6200336b9190620043c6565b9250505062001044565b5060009392505050565b600080546001600160a01b038381167fffffffffffffffffffffffff0000000000000000000000000000000000000000831681178455604051919092169283917f8be0079c531659141344cd1fd0a4f28419497f9722a3daafe3b4186f6b6457e09190a35050565b60005474010000000000000000000000000000000000000000900460ff1615620034545760405162461bcd60e51b815260206004820152601060248201527f5061757361626c653a207061757365640000000000000000000000000000000060448201526064016200091d565b600080547fffffffffffffffffffffff00ffffffffffffffffffffffffffffffffffffffff16740100000000000000000000000000000000000000001790557f62e78cea01bee320cd4e420270b5ea74000d11b0c9f74754ebdbfc544b05a258620032a83390565b604080516001600160a01b038416602482015260448082018490528251808303909101815260649091019091526020810180517bffffffffffffffffffffffffffffffffffffffffffffffffffffffff167fa9059cbb000000000000000000000000000000000000000000000000000000001790526200353e90849062003543565b505050565b600080836001600160a01b03168360405162003560919062004402565b6000604051808303816000865af19150503d80600081146200359f576040519150601f19603f3d011682016040523d82523d6000602084013e620035a4565b606091505b50915091506000821415620035bd573d6000803e3d6000fd5b620035ec815160001480620035e3575081806020019051810190620035e3919062004420565b6101a2620035f2565b50505050565b816200360357620036038162003607565b5050565b62461bcd60e51b6000908152602060045260076024526652455123000030600a808404818106603090810160081b95839006959095019082900491820690940160101b939093010160c81b604452606490fd5b611611806200444183390190565b828054828255906000526020600020908101928215620036a6579160200282015b82811115620036a657825182559160200191906001019062003689565b50620036b492915062003728565b5090565b828054828255906000526020600020908101928215620036a6579160200282015b82811115620036a657825182547fffffffffffffffffffffffff0000000000000000000000000000000000000000166001600160a01b03909116178255602090920191600190910190620036d9565b5b80821115620036b4576000815560010162003729565b80356001600160a01b03811681146200190757600080fd5b6000602082840312156200376a57600080fd5b62001a3f826200373f565b600080600080600060a086880312156200378e57600080fd5b62003799866200373f565b9450620037a9602087016200373f565b93506040860135925060608601359150620037c7608087016200373f565b90509295509295909350565b6020808252825182820181905260009190848201906040850190845b818110156200380d57835183529284019291840191600101620037ef565b50909695505050505050565b7f4e487b7100000000000000000000000000000000000000000000000000000000600052604160045260246000fd5b604051601f82017fffffffffffffffffffffffffffffffffffffffffffffffffffffffffffffffe016810167ffffffffffffffff8111828210171562003892576200389262003819565b604052919050565b600067ffffffffffffffff821115620038b757620038b762003819565b5060051b60200190565b600082601f830112620038d357600080fd5b81356020620038ec620038e6836200389a565b62003848565b82815260059290921b840181019181810190868411156200390c57600080fd5b8286015b8481101562003929578035835291830191830162003910565b509695505050505050565b6000806000606084860312156200394a57600080fd5b83359250602084013567ffffffffffffffff8111156200396957600080fd5b6200397786828701620038c1565b925050604084013590509250925092565b803560ff811681146200190757600080fd5b60008060008060808587031215620039b157600080fd5b84359350620039c36020860162003988565b93969395505050506040820135916060013590565b600080600060608486031215620039ee57600080fd5b833567ffffffffffffffff81111562003a0657600080fd5b62003a1486828701620038c1565b9660208601359650604090950135949350505050565b6000806040838503121562003a3e57600080fd5b50508035926020909101359150565b60008060006060848603121562003a6357600080fd5b505081359360208301359350604090920135919050565b6000806040838503121562003a8e57600080fd5b62003a99836200373f565b946020939093013593505050565b60006020828403121562003aba57600080fd5b62001a3f8262003988565b60008060006060848603121562003adb57600080fd5b62003ae6846200373f565b92506020840135915062003afd6040850162003988565b90509250925092565b60008060006060848603121562003b1c57600080fd5b62003b278462003988565b925062003b376020850162003988565b9150604084013590509250925092565b6020808252825182820181905260009190848201906040850190845b818110156200380d5783516001600160a01b03168352928401929184019160010162003b63565b60008060008060008060c0878903121562003ba457600080fd5b62003baf8762003988565b955062003bbf6020880162003988565b9450604087013593506060870135925062003bdd608088016200373f565b915060a087013590509295509295509295565b60008060006060848603121562003c0657600080fd5b62003c11846200373f565b925062003b37602085016200373f565b600082601f83011262003c3357600080fd5b8135602062003c46620038e6836200389a565b82815260059290921b8401810191818101908684111562003c6657600080fd5b8286015b84811015620039295762003c7e816200373f565b835291830191830162003c6a565b600082601f83011262003c9e57600080fd5b8135602062003cb1620038e6836200389a565b82815260059290921b8401810191818101908684111562003cd157600080fd5b8286015b84811015620039295762003ce98162003988565b835291830191830162003cd5565b600082601f83011262003d0957600080fd5b813567ffffffffffffffff81111562003d265762003d2662003819565b62003d5960207fffffffffffffffffffffffffffffffffffffffffffffffffffffffffffffffe0601f8401160162003848565b81815284602083860101111562003d6f57600080fd5b816020850160208301376000918101602001919091529392505050565b60008060008060008060008060006101208a8c03121562003dac57600080fd5b893567ffffffffffffffff8082111562003dc557600080fd5b62003dd38d838e0162003c21565b9a5060208c013591508082111562003dea57600080fd5b62003df88d838e0162003c8c565b995060408c013591508082111562003e0f57600080fd5b62003e1d8d838e0162003cf7565b985060608c013591508082111562003e3457600080fd5b5062003e438c828d0162003cf7565b96505060808a0135945060a08a0135935060c08a0135925060e08a0135915062003e716101008b016200373f565b90509295985092959850929598565b80151581146200300757600080fd5b60008060006040848603121562003ea557600080fd5b833567ffffffffffffffff8082111562003ebe57600080fd5b818601915086601f83011262003ed357600080fd5b81358181111562003ee357600080fd5b8760208260051b850101111562003ef957600080fd5b6020928301955093505084013562003f118162003e80565b809150509250925092565b60006020828403121562003f2f57600080fd5b5051919050565b7f4e487b7100000000000000000000000000000000000000000000000000000000600052603260045260246000fd5b7f4e487b7100000000000000000000000000000000000000000000000000000000600052601160045260246000fd5b60007fffffffffffffffffffffffffffffffffffffffffffffffffffffffffffffffff82141562003fc95762003fc962003f65565b5060010190565b600081518084526020808501945080840160005b83811015620040025781518752958201959082019060010162003fe4565b509495945050505050565b8381528260208201526060604082015260006200402e606083018462003fd0565b95945050505050565b600060208083850312156200404b57600080fd5b825167ffffffffffffffff8111156200406357600080fd5b8301601f810185136200407557600080fd5b805162004086620038e6826200389a565b81815260059190911b82018301908381019087831115620040a657600080fd5b928401925b82841015620040c657835182529284019290840190620040ab565b979650505050505050565b838152606060208201526000620040ec606083018562003fd0565b9050826040830152949350505050565b6000821982111562004112576200411262003f65565b500190565b6000817fffffffffffffffffffffffffffffffffffffffffffffffffffffffffffffffff048311821515161562004152576200415262003f65565b500290565b6000828210156200416c576200416c62003f65565b500390565b600181815b80851115620041d057817fffffffffffffffffffffffffffffffffffffffffffffffffffffffffffffffff04821115620041b457620041b462003f65565b80851615620041c257918102915b93841c939080029062004176565b509250929050565b600082620041e95750600162001044565b81620041f85750600062001044565b81600181146200421157600281146200421c576200423c565b600191505062001044565b60ff84111562004230576200423062003f65565b50506001821b62001044565b5060208310610133831016604e8410600b841016171562004261575081810a62001044565b6200426d838362004171565b807fffffffffffffffffffffffffffffffffffffffffffffffffffffffffffffffff04821115620042a257620042a262003f65565b029392505050565b600062001a3f8383620041d8565b60005b83811015620042d5578181015183820152602001620042bb565b83811115620035ec5750506000910152565b6000815180845262004301816020860160208601620042b8565b601f017fffffffffffffffffffffffffffffffffffffffffffffffffffffffffffffffe0169290920160200192915050565b604081526000620043486040830185620042e7565b82810360208401526200402e8185620042e7565b8481526060602082015282606082015260007f07ffffffffffffffffffffffffffffffffffffffffffffffffffffffffffffff8411156200439c57600080fd5b8360051b808660808501376000908301608001908152921515604090920191909152509392505050565b600082620043fd577f4e487b7100000000000000000000000000000000000000000000000000000000600052601260045260246000fd5b500490565b6000825162004416818460208701620042b8565b9190910192915050565b6000602082840312156200443357600080fd5b815162001a3f8162003e8056fe60806040523480156200001157600080fd5b506040516200161138038062001611833981016040819052620000349162000256565b8181620000413362000093565b815162000056906004906020850190620000e3565b5080516200006c906005906020840190620000e3565b50506006805433610100026001600160a81b031990911617601217905550620002fd915050565b600080546001600160a01b038381166001600160a01b0319831681178455604051919092169283917f8be0079c531659141344cd1fd0a4f28419497f9722a3daafe3b4186f6b6457e09190a35050565b828054620000f190620002c0565b90600052602060002090601f01602090048101928262000115576000855562000160565b82601f106200013057805160ff191683800117855562000160565b8280016001018555821562000160579182015b828111156200016057825182559160200191906001019062000143565b506200016e92915062000172565b5090565b5b808211156200016e576000815560010162000173565b634e487b7160e01b600052604160045260246000fd5b600082601f830112620001b157600080fd5b81516001600160401b0380821115620001ce57620001ce62000189565b604051601f8301601f19908116603f01168101908282118183101715620001f957620001f962000189565b816040528381526020925086838588010111156200021657600080fd5b600091505b838210156200023a57858201830151818301840152908201906200021b565b838211156200024c5760008385830101525b9695505050505050565b600080604083850312156200026a57600080fd5b82516001600160401b03808211156200028257600080fd5b62000290868387016200019f565b93506020850151915080821115620002a757600080fd5b50620002b6858286016200019f565b9150509250929050565b600181811c90821680620002d557607f821691505b60208210811415620002f757634e487b7160e01b600052602260045260246000fd5b50919050565b611304806200030d6000396000f3fe608060405234801561001057600080fd5b50600436106101365760003560e01c8063715018a6116100b257806395d89b4111610081578063a9059cbb11610066578063a9059cbb146102bf578063dd62ed3e146102d2578063f2fde38b1461031857600080fd5b806395d89b41146102a4578063a457c2d7146102ac57600080fd5b8063715018a61461022157806379cc6790146102295780638119c0651461023c5780638da5cb5b1461028657600080fd5b8063313ce5671161010957806340c10f19116100ee57806340c10f19146101c357806342966c68146101d857806370a08231146101eb57600080fd5b8063313ce567146101a157806339509351146101b057600080fd5b806306fdde031461013b578063095ea7b31461015957806318160ddd1461017c57806323b872dd1461018e575b600080fd5b61014361032b565b60405161015091906110ac565b60405180910390f35b61016c610167366004611148565b6103bd565b6040519015158152602001610150565b6003545b604051908152602001610150565b61016c61019c366004611172565b6103d3565b60405160128152602001610150565b61016c6101be366004611148565b6104a4565b6101d66101d1366004611148565b6104ed565b005b6101d66101e63660046111ae565b6105b2565b6101806101f93660046111c7565b73ffffffffffffffffffffffffffffffffffffffff1660009081526001602052604090205490565b6101d66105bf565b6101d6610237366004611148565b610632565b60065461026190610100900473ffffffffffffffffffffffffffffffffffffffff1681565b60405173ffffffffffffffffffffffffffffffffffffffff9091168152602001610150565b60005473ffffffffffffffffffffffffffffffffffffffff16610261565b61014361068c565b61016c6102ba366004611148565b61069b565b61016c6102cd366004611148565b610759565b6101806102e03660046111e9565b73ffffffffffffffffffffffffffffffffffffffff918216600090815260026020908152604080832093909416825291909152205490565b6101d66103263660046111c7565b610766565b60606004805461033a9061121c565b80601f01602080910402602001604051908101604052809291908181526020018280546103669061121c565b80156103b35780601f10610388576101008083540402835291602001916103b3565b820191906000526020600020905b81548152906001019060200180831161039657829003601f168201915b5050505050905090565b60006103ca33848461085f565b50600192915050565b60006103e08484846109de565b73ffffffffffffffffffffffffffffffffffffffff841660009081526002602090815260408083203384529091529020548281101561048c5760405162461bcd60e51b815260206004820152602860248201527f45524332303a207472616e7366657220616d6f756e742065786365656473206160448201527f6c6c6f77616e636500000000000000000000000000000000000000000000000060648201526084015b60405180910390fd5b610499853385840361085f565b506001949350505050565b33600081815260026020908152604080832073ffffffffffffffffffffffffffffffffffffffff8716845290915281205490916103ca9185906104e890869061129f565b61085f565b60005473ffffffffffffffffffffffffffffffffffffffff1633146105545760405162461bcd60e51b815260206004820181905260248201527f4f776e61626c653a2063616c6c6572206973206e6f7420746865206f776e65726044820152606401610483565b600081116105a45760405162461bcd60e51b815260206004820152600e60248201527f7a65726f4d696e74416d6f756e740000000000000000000000000000000000006044820152606401610483565b6105ae8282610c4f565b5050565b6105bc3382610d61565b50565b60005473ffffffffffffffffffffffffffffffffffffffff1633146106265760405162461bcd60e51b815260206004820181905260248201527f4f776e61626c653a2063616c6c6572206973206e6f7420746865206f776e65726044820152606401610483565b6106306000610f26565b565b73ffffffffffffffffffffffffffffffffffffffff8216600090815260026020908152604080832033845290915281205461067090836101a1610f9b565b905061067d83338361085f565b6106878383610d61565b505050565b60606005805461033a9061121c565b33600090815260026020908152604080832073ffffffffffffffffffffffffffffffffffffffff86168452909152812054828110156107425760405162461bcd60e51b815260206004820152602560248201527f45524332303a2064656372656173656420616c6c6f77616e63652062656c6f7760448201527f207a65726f0000000000000000000000000000000000000000000000000000006064820152608401610483565b61074f338585840361085f565b5060019392505050565b60006103ca3384846109de565b60005473ffffffffffffffffffffffffffffffffffffffff1633146107cd5760405162461bcd60e51b815260206004820181905260248201527f4f776e61626c653a2063616c6c6572206973206e6f7420746865206f776e65726044820152606401610483565b73ffffffffffffffffffffffffffffffffffffffff81166108565760405162461bcd60e51b815260206004820152602660248201527f4f776e61626c653a206e6577206f776e657220697320746865207a65726f206160448201527f64647265737300000000000000000000000000000000000000000000000000006064820152608401610483565b6105bc81610f26565b73ffffffffffffffffffffffffffffffffffffffff83166108e75760405162461bcd60e51b8152602060048201526024808201527f45524332303a20617070726f76652066726f6d20746865207a65726f2061646460448201527f72657373000000000000000000000000000000000000000000000000000000006064820152608401610483565b73ffffffffffffffffffffffffffffffffffffffff82166109705760405162461bcd60e51b815260206004820152602260248201527f45524332303a20617070726f766520746f20746865207a65726f20616464726560448201527f73730000000000000000000000000000000000000000000000000000000000006064820152608401610483565b73ffffffffffffffffffffffffffffffffffffffff83811660008181526002602090815260408083209487168084529482529182902085905590518481527f8c5be1e5ebec7d5bd14f71427d1e84f3dd0314c0f7b2291e5b200ac8c7c3b925910160405180910390a3505050565b73ffffffffffffffffffffffffffffffffffffffff8316610a675760405162461bcd60e51b815260206004820152602560248201527f45524332303a207472616e736665722066726f6d20746865207a65726f20616460448201527f64726573730000000000000000000000000000000000000000000000000000006064820152608401610483565b73ffffffffffffffffffffffffffffffffffffffff8216610af05760405162461bcd60e51b815260206004820152602360248201527f45524332303a207472616e7366657220746f20746865207a65726f206164647260448201527f65737300000000000000000000000000000000000000000000000000000000006064820152608401610483565b610afb838383610fbf565b73ffffffffffffffffffffffffffffffffffffffff831660009081526001602052604090205481811015610b975760405162461bcd60e51b815260206004820152602660248201527f45524332303a207472616e7366657220616d6f756e742065786365656473206260448201527f616c616e636500000000000000000000000000000000000000000000000000006064820152608401610483565b73ffffffffffffffffffffffffffffffffffffffff808516600090815260016020526040808220858503905591851681529081208054849290610bdb90849061129f565b925050819055508273ffffffffffffffffffffffffffffffffffffffff168473ffffffffffffffffffffffffffffffffffffffff167fddf252ad1be2c89b69c2b068fc378daa952ba7f163c4a11628f55a4df523b3ef84604051610c4191815260200190565b60405180910390a350505050565b73ffffffffffffffffffffffffffffffffffffffff8216610cb25760405162461bcd60e51b815260206004820152601f60248201527f45524332303a206d696e7420746f20746865207a65726f2061646472657373006044820152606401610483565b610cbe60008383610fbf565b8060036000828254610cd0919061129f565b909155505073ffffffffffffffffffffffffffffffffffffffff821660009081526001602052604081208054839290610d0a90849061129f565b909155505060405181815273ffffffffffffffffffffffffffffffffffffffff8316906000907fddf252ad1be2c89b69c2b068fc378daa952ba7f163c4a11628f55a4df523b3ef9060200160405180910390a35050565b73ffffffffffffffffffffffffffffffffffffffff8216610dea5760405162461bcd60e51b815260206004820152602160248201527f45524332303a206275726e2066726f6d20746865207a65726f2061646472657360448201527f73000000000000000000000000000000000000000000000000000000000000006064820152608401610483565b610df682600083610fbf565b73ffffffffffffffffffffffffffffffffffffffff821660009081526001602052604090205481811015610e925760405162461bcd60e51b815260206004820152602260248201527f45524332303a206275726e20616d6f756e7420657863656564732062616c616e60448201527f63650000000000000000000000000000000000000000000000000000000000006064820152608401610483565b73ffffffffffffffffffffffffffffffffffffffff83166000908152600160205260408120838303905560038054849290610ece9084906112b7565b909155505060405182815260009073ffffffffffffffffffffffffffffffffffffffff8516907fddf252ad1be2c89b69c2b068fc378daa952ba7f163c4a11628f55a4df523b3ef9060200160405180910390a3505050565b6000805473ffffffffffffffffffffffffffffffffffffffff8381167fffffffffffffffffffffffff0000000000000000000000000000000000000000831681178455604051919092169283917f8be0079c531659141344cd1fd0a4f28419497f9722a3daafe3b4186f6b6457e09190a35050565b6000610faa8484111583611056565b6000610fb684866112b7565b95945050505050565b6006546040517fc00c125c00000000000000000000000000000000000000000000000000000000815273ffffffffffffffffffffffffffffffffffffffff8481166004830152602482018490526101009092049091169063c00c125c90604401600060405180830381600087803b15801561103957600080fd5b505af115801561104d573d6000803e3d6000fd5b50505050505050565b816105ae5762461bcd60e51b600090815260206004526007602452600a808304818104828106603090810160101b848706949093060160081b929092010166524551230000300160c81b6044526105ae91606490fd5b600060208083528351808285015260005b818110156110d9578581018301518582016040015282016110bd565b818111156110eb576000604083870101525b50601f017fffffffffffffffffffffffffffffffffffffffffffffffffffffffffffffffe016929092016040019392505050565b803573ffffffffffffffffffffffffffffffffffffffff8116811461114357600080fd5b919050565b6000806040838503121561115b57600080fd5b6111648361111f565b946020939093013593505050565b60008060006060848603121561118757600080fd5b6111908461111f565b925061119e6020850161111f565b9150604084013590509250925092565b6000602082840312156111c057600080fd5b5035919050565b6000602082840312156111d957600080fd5b6111e28261111f565b9392505050565b600080604083850312156111fc57600080fd5b6112058361111f565b91506112136020840161111f565b90509250929050565b600181811c9082168061123057607f821691505b6020821081141561126a577f4e487b7100000000000000000000000000000000000000000000000000000000600052602260045260246000fd5b50919050565b7f4e487b7100000000000000000000000000000000000000000000000000000000600052601160045260246000fd5b600082198211156112b2576112b2611270565b500190565b6000828210156112c9576112c9611270565b50039056fea2646970667358221220901995dc99d1bf3317f83f3d43645017723dd3892f756276f9450fd371d475df64736f6c634300080a0033a26469706673582212208794634f9f8070262dd4b36780dd6ed77617f7ec38b008525959c01839a92fa164736f6c634300080a0033",
  "linkReferences": {
    "contracts/RequiemStableSwapLib.sol": {
      "RequiemStableSwapLib": [
        {
          "length": 20,
          "start": 2273
        },
        {
          "length": 20,
          "start": 2702
        },
        {
          "length": 20,
          "start": 2959
        },
        {
          "length": 20,
          "start": 3329
        },
        {
          "length": 20,
          "start": 3845
        },
        {
          "length": 20,
          "start": 4640
        },
        {
          "length": 20,
          "start": 4998
        },
        {
          "length": 20,
          "start": 5547
        },
        {
          "length": 20,
          "start": 6736
        },
        {
          "length": 20,
          "start": 7357
        },
        {
          "length": 20,
          "start": 7463
        },
        {
          "length": 20,
          "start": 7688
        },
        {
          "length": 20,
          "start": 7960
        },
        {
          "length": 20,
          "start": 8473
        },
        {
          "length": 20,
          "start": 8747
        },
        {
          "length": 20,
          "start": 9055
        },
        {
          "length": 20,
          "start": 9339
        },
        {
          "length": 20,
          "start": 9798
        },
        {
          "length": 20,
          "start": 11803
        },
        {
          "length": 20,
          "start": 11945
        },
        {
          "length": 20,
          "start": 12023
        },
        {
          "length": 20,
          "start": 12179
        }
      ]
    }
  },
  "deployedLinkReferences": {
    "contracts/RequiemStableSwapLib.sol": {
      "RequiemStableSwapLib": [
        {
          "length": 20,
          "start": 2125
        },
        {
          "length": 20,
          "start": 2554
        },
        {
          "length": 20,
          "start": 2811
        },
        {
          "length": 20,
          "start": 3181
        },
        {
          "length": 20,
          "start": 3697
        },
        {
          "length": 20,
          "start": 4492
        },
        {
          "length": 20,
          "start": 4850
        },
        {
          "length": 20,
          "start": 5399
        },
        {
          "length": 20,
          "start": 6588
        },
        {
          "length": 20,
          "start": 7209
        },
        {
          "length": 20,
          "start": 7315
        },
        {
          "length": 20,
          "start": 7540
        },
        {
          "length": 20,
          "start": 7812
        },
        {
          "length": 20,
          "start": 8325
        },
        {
          "length": 20,
          "start": 8599
        },
        {
          "length": 20,
          "start": 8907
        },
        {
          "length": 20,
          "start": 9191
        },
        {
          "length": 20,
          "start": 9650
        },
        {
          "length": 20,
          "start": 11655
        },
        {
          "length": 20,
          "start": 11797
        },
        {
          "length": 20,
          "start": 11875
        },
        {
          "length": 20,
          "start": 12031
        }
      ]
    }
  }
}