{
  "_format": "hh-sol-artifact-1",
  "contractName": "RequiemStableSwap",
  "sourceName": "contracts/RequiemStableSwap.sol",
  "abi": [
    {
      "anonymous": false,
      "inputs": [
        {
          "indexed": true,
          "internalType": "address",
          "name": "provider",
          "type": "address"
        },
        {
          "indexed": false,
          "internalType": "uint256[]",
          "name": "tokenAmounts",
          "type": "uint256[]"
        },
        {
          "indexed": false,
          "internalType": "uint256[]",
          "name": "fees",
          "type": "uint256[]"
        },
        {
          "indexed": false,
          "internalType": "uint256",
          "name": "invariant",
          "type": "uint256"
        },
        {
          "indexed": false,
          "internalType": "uint256",
          "name": "tokenSupply",
          "type": "uint256"
        }
      ],
      "name": "AddLiquidity",
      "type": "event"
    },
    {
      "anonymous": false,
      "inputs": [
        {
          "indexed": false,
          "internalType": "address",
          "name": "token",
          "type": "address"
        },
        {
          "indexed": false,
          "internalType": "uint256",
          "name": "amount",
          "type": "uint256"
        }
      ],
      "name": "CollectProtocolFee",
      "type": "event"
    },
    {
      "anonymous": false,
      "inputs": [
        {
          "indexed": false,
          "internalType": "address",
          "name": "newController",
          "type": "address"
        }
      ],
      "name": "FeeControllerChanged",
      "type": "event"
    },
    {
      "anonymous": false,
      "inputs": [
        {
          "indexed": false,
          "internalType": "address",
          "name": "newController",
          "type": "address"
        }
      ],
      "name": "FeeDistributorChanged",
      "type": "event"
    },
    {
      "anonymous": false,
      "inputs": [
        {
          "indexed": false,
          "internalType": "uint256",
          "name": "fee",
          "type": "uint256"
        },
        {
          "indexed": false,
          "internalType": "uint256",
          "name": "adminFee",
          "type": "uint256"
        },
        {
          "indexed": false,
          "internalType": "uint256",
          "name": "withdrawFee",
          "type": "uint256"
        }
      ],
      "name": "NewFee",
      "type": "event"
    },
    {
      "anonymous": false,
      "inputs": [
        {
          "indexed": true,
          "internalType": "address",
          "name": "previousOwner",
          "type": "address"
        },
        {
          "indexed": true,
          "internalType": "address",
          "name": "newOwner",
          "type": "address"
        }
      ],
      "name": "OwnershipTransferred",
      "type": "event"
    },
    {
      "anonymous": false,
      "inputs": [
        {
          "indexed": false,
          "internalType": "address",
          "name": "account",
          "type": "address"
        }
      ],
      "name": "Paused",
      "type": "event"
    },
    {
      "anonymous": false,
      "inputs": [
        {
          "indexed": false,
          "internalType": "uint256",
          "name": "oldA",
          "type": "uint256"
        },
        {
          "indexed": false,
          "internalType": "uint256",
          "name": "newA",
          "type": "uint256"
        },
        {
          "indexed": false,
          "internalType": "uint256",
          "name": "initialTime",
          "type": "uint256"
        },
        {
          "indexed": false,
          "internalType": "uint256",
          "name": "futureTime",
          "type": "uint256"
        }
      ],
      "name": "RampA",
      "type": "event"
    },
    {
      "anonymous": false,
      "inputs": [
        {
          "indexed": true,
          "internalType": "address",
          "name": "provider",
          "type": "address"
        },
        {
          "indexed": false,
          "internalType": "uint256[]",
          "name": "tokenAmounts",
          "type": "uint256[]"
        },
        {
          "indexed": false,
          "internalType": "uint256[]",
          "name": "fees",
          "type": "uint256[]"
        },
        {
          "indexed": false,
          "internalType": "uint256",
          "name": "tokenSupply",
          "type": "uint256"
        }
      ],
      "name": "RemoveLiquidity",
      "type": "event"
    },
    {
      "anonymous": false,
      "inputs": [
        {
          "indexed": true,
          "internalType": "address",
          "name": "provider",
          "type": "address"
        },
        {
          "indexed": false,
          "internalType": "uint256[]",
          "name": "tokenAmounts",
          "type": "uint256[]"
        },
        {
          "indexed": false,
          "internalType": "uint256[]",
          "name": "fees",
          "type": "uint256[]"
        },
        {
          "indexed": false,
          "internalType": "uint256",
          "name": "invariant",
          "type": "uint256"
        },
        {
          "indexed": false,
          "internalType": "uint256",
          "name": "tokenSupply",
          "type": "uint256"
        }
      ],
      "name": "RemoveLiquidityImbalance",
      "type": "event"
    },
    {
      "anonymous": false,
      "inputs": [
        {
          "indexed": true,
          "internalType": "address",
          "name": "provider",
          "type": "address"
        },
        {
          "indexed": false,
          "internalType": "uint256",
          "name": "tokenIndex",
          "type": "uint256"
        },
        {
          "indexed": false,
          "internalType": "uint256",
          "name": "tokenAmount",
          "type": "uint256"
        },
        {
          "indexed": false,
          "internalType": "uint256",
          "name": "coinAmount",
          "type": "uint256"
        }
      ],
      "name": "RemoveLiquidityOne",
      "type": "event"
    },
    {
      "anonymous": false,
      "inputs": [
        {
          "indexed": false,
          "internalType": "uint256",
          "name": "A",
          "type": "uint256"
        },
        {
          "indexed": false,
          "internalType": "uint256",
          "name": "timestamp",
          "type": "uint256"
        }
      ],
      "name": "StopRampA",
      "type": "event"
    },
    {
      "anonymous": false,
      "inputs": [
        {
          "indexed": true,
          "internalType": "address",
          "name": "buyer",
          "type": "address"
        },
        {
          "indexed": false,
          "internalType": "uint256",
          "name": "soldId",
          "type": "uint256"
        },
        {
          "indexed": false,
          "internalType": "uint256",
          "name": "tokensSold",
          "type": "uint256"
        },
        {
          "indexed": false,
          "internalType": "uint256",
          "name": "boughtId",
          "type": "uint256"
        },
        {
          "indexed": false,
          "internalType": "uint256",
          "name": "tokensBought",
          "type": "uint256"
        }
      ],
      "name": "TokenExchange",
      "type": "event"
    },
    {
      "anonymous": false,
      "inputs": [
        {
          "indexed": false,
          "internalType": "address",
          "name": "account",
          "type": "address"
        }
      ],
      "name": "Unpaused",
      "type": "event"
    },
    {
      "inputs": [],
      "name": "MAX_A",
      "outputs": [
        {
          "internalType": "uint256",
          "name": "",
          "type": "uint256"
        }
      ],
      "stateMutability": "view",
      "type": "function"
    },
    {
      "inputs": [],
      "name": "MAX_ADMIN_FEE",
      "outputs": [
        {
          "internalType": "uint256",
          "name": "",
          "type": "uint256"
        }
      ],
      "stateMutability": "view",
      "type": "function"
    },
    {
      "inputs": [],
      "name": "MAX_A_CHANGE",
      "outputs": [
        {
          "internalType": "uint256",
          "name": "",
          "type": "uint256"
        }
      ],
      "stateMutability": "view",
      "type": "function"
    },
    {
      "inputs": [],
      "name": "MAX_SWAP_FEE",
      "outputs": [
        {
          "internalType": "uint256",
          "name": "",
          "type": "uint256"
        }
      ],
      "stateMutability": "view",
      "type": "function"
    },
    {
      "inputs": [],
      "name": "MAX_WITHDRAW_FEE",
      "outputs": [
        {
          "internalType": "uint256",
          "name": "",
          "type": "uint256"
        }
      ],
      "stateMutability": "view",
      "type": "function"
    },
    {
      "inputs": [],
      "name": "MIN_RAMP_TIME",
      "outputs": [
        {
          "internalType": "uint256",
          "name": "",
          "type": "uint256"
        }
      ],
      "stateMutability": "view",
      "type": "function"
    },
    {
      "inputs": [
        {
          "internalType": "uint256[]",
          "name": "amounts",
          "type": "uint256[]"
        },
        {
          "internalType": "uint256",
          "name": "minMintAmount",
          "type": "uint256"
        },
        {
          "internalType": "uint256",
          "name": "deadline",
          "type": "uint256"
        }
      ],
      "name": "addLiquidity",
      "outputs": [
        {
          "internalType": "uint256",
          "name": "",
          "type": "uint256"
        }
      ],
      "stateMutability": "nonpayable",
      "type": "function"
    },
    {
      "inputs": [
        {
          "internalType": "address",
          "name": "account",
          "type": "address"
        }
      ],
      "name": "calculateCurrentWithdrawFee",
      "outputs": [
        {
          "internalType": "uint256",
          "name": "",
          "type": "uint256"
        }
      ],
      "stateMutability": "view",
      "type": "function"
    },
    {
      "inputs": [
        {
          "internalType": "address",
          "name": "account",
          "type": "address"
        },
        {
          "internalType": "uint256",
          "name": "amount",
          "type": "uint256"
        }
      ],
      "name": "calculateRemoveLiquidity",
      "outputs": [
        {
          "internalType": "uint256[]",
          "name": "",
          "type": "uint256[]"
        }
      ],
      "stateMutability": "view",
      "type": "function"
    },
    {
      "inputs": [
        {
          "internalType": "address",
          "name": "account",
          "type": "address"
        },
        {
          "internalType": "uint256",
          "name": "amount",
          "type": "uint256"
        },
        {
          "internalType": "uint8",
          "name": "index",
          "type": "uint8"
        }
      ],
      "name": "calculateRemoveLiquidityOneToken",
      "outputs": [
        {
          "internalType": "uint256",
          "name": "",
          "type": "uint256"
        }
      ],
      "stateMutability": "view",
      "type": "function"
    },
    {
      "inputs": [
        {
          "internalType": "uint8",
          "name": "inIndex",
          "type": "uint8"
        },
        {
          "internalType": "uint8",
          "name": "outIndex",
          "type": "uint8"
        },
        {
          "internalType": "uint256",
          "name": "inAmount",
          "type": "uint256"
        }
      ],
      "name": "calculateSwap",
      "outputs": [
        {
          "internalType": "uint256",
          "name": "",
          "type": "uint256"
        }
      ],
      "stateMutability": "view",
      "type": "function"
    },
    {
      "inputs": [
        {
          "internalType": "address",
          "name": "tokenIn",
          "type": "address"
        },
        {
          "internalType": "address",
          "name": "tokenOut",
          "type": "address"
        },
        {
          "internalType": "uint256",
          "name": "amountIn",
          "type": "uint256"
        }
      ],
      "name": "calculateSwapGivenIn",
      "outputs": [
        {
          "internalType": "uint256",
          "name": "",
          "type": "uint256"
        }
      ],
      "stateMutability": "view",
      "type": "function"
    },
    {
      "inputs": [
        {
          "internalType": "address",
          "name": "tokenIn",
          "type": "address"
        },
        {
          "internalType": "address",
          "name": "tokenOut",
          "type": "address"
        },
        {
          "internalType": "uint256",
          "name": "amountOut",
          "type": "uint256"
        }
      ],
      "name": "calculateSwapGivenOut",
      "outputs": [
        {
          "internalType": "uint256",
          "name": "",
          "type": "uint256"
        }
      ],
      "stateMutability": "view",
      "type": "function"
    },
    {
      "inputs": [
        {
          "internalType": "uint256[]",
          "name": "amounts",
          "type": "uint256[]"
        },
        {
          "internalType": "bool",
          "name": "deposit",
          "type": "bool"
        }
      ],
      "name": "calculateTokenAmount",
      "outputs": [
        {
          "internalType": "uint256",
          "name": "",
          "type": "uint256"
        }
      ],
      "stateMutability": "view",
      "type": "function"
    },
    {
      "inputs": [],
      "name": "feeController",
      "outputs": [
        {
          "internalType": "address",
          "name": "",
          "type": "address"
        }
      ],
      "stateMutability": "view",
      "type": "function"
    },
    {
      "inputs": [],
      "name": "feeDistributor",
      "outputs": [
        {
          "internalType": "address",
          "name": "",
          "type": "address"
        }
      ],
      "stateMutability": "view",
      "type": "function"
    },
    {
      "inputs": [],
      "name": "getA",
      "outputs": [
        {
          "internalType": "uint256",
          "name": "",
          "type": "uint256"
        }
      ],
      "stateMutability": "view",
      "type": "function"
    },
    {
      "inputs": [],
      "name": "getAPrecise",
      "outputs": [
        {
          "internalType": "uint256",
          "name": "",
          "type": "uint256"
        }
      ],
      "stateMutability": "view",
      "type": "function"
    },
    {
      "inputs": [
        {
          "internalType": "uint8",
          "name": "index",
          "type": "uint8"
        }
      ],
      "name": "getAdminBalance",
      "outputs": [
        {
          "internalType": "uint256",
          "name": "",
          "type": "uint256"
        }
      ],
      "stateMutability": "view",
      "type": "function"
    },
    {
      "inputs": [],
      "name": "getAdminBalances",
      "outputs": [
        {
          "internalType": "uint256[]",
          "name": "adminBalances",
          "type": "uint256[]"
        }
      ],
      "stateMutability": "view",
      "type": "function"
    },
    {
      "inputs": [],
      "name": "getLpToken",
      "outputs": [
        {
          "internalType": "contract IERC20",
          "name": "",
          "type": "address"
        }
      ],
      "stateMutability": "view",
      "type": "function"
    },
    {
      "inputs": [],
      "name": "getNumberOfTokens",
      "outputs": [
        {
          "internalType": "uint256",
          "name": "",
          "type": "uint256"
        }
      ],
      "stateMutability": "view",
      "type": "function"
    },
    {
      "inputs": [
        {
          "internalType": "uint8",
          "name": "index",
          "type": "uint8"
        }
      ],
      "name": "getToken",
      "outputs": [
        {
          "internalType": "contract IERC20",
          "name": "",
          "type": "address"
        }
      ],
      "stateMutability": "view",
      "type": "function"
    },
    {
      "inputs": [
        {
          "internalType": "uint8",
          "name": "index",
          "type": "uint8"
        }
      ],
      "name": "getTokenBalance",
      "outputs": [
        {
          "internalType": "uint256",
          "name": "",
          "type": "uint256"
        }
      ],
      "stateMutability": "view",
      "type": "function"
    },
    {
      "inputs": [],
      "name": "getTokenBalances",
      "outputs": [
        {
          "internalType": "uint256[]",
          "name": "",
          "type": "uint256[]"
        }
      ],
      "stateMutability": "view",
      "type": "function"
    },
    {
      "inputs": [
        {
          "internalType": "address",
          "name": "token",
          "type": "address"
        }
      ],
      "name": "getTokenIndex",
      "outputs": [
        {
          "internalType": "uint8",
          "name": "index",
          "type": "uint8"
        }
      ],
      "stateMutability": "view",
      "type": "function"
    },
    {
      "inputs": [],
      "name": "getTokenPrecisionMultipliers",
      "outputs": [
        {
          "internalType": "uint256[]",
          "name": "",
          "type": "uint256[]"
        }
      ],
      "stateMutability": "view",
      "type": "function"
    },
    {
      "inputs": [],
      "name": "getTokens",
      "outputs": [
        {
          "internalType": "contract IERC20[]",
          "name": "",
          "type": "address[]"
        }
      ],
      "stateMutability": "view",
      "type": "function"
    },
    {
      "inputs": [],
      "name": "getVirtualPrice",
      "outputs": [
        {
          "internalType": "uint256",
          "name": "",
          "type": "uint256"
        }
      ],
      "stateMutability": "view",
      "type": "function"
    },
    {
      "inputs": [
        {
          "internalType": "address[]",
          "name": "_coins",
          "type": "address[]"
        },
        {
          "internalType": "uint8[]",
          "name": "_decimals",
          "type": "uint8[]"
        },
        {
          "internalType": "string",
          "name": "lpTokenName",
          "type": "string"
        },
        {
          "internalType": "string",
          "name": "lpTokenSymbol",
          "type": "string"
        },
        {
          "internalType": "uint256",
          "name": "_A",
          "type": "uint256"
        },
        {
          "internalType": "uint256",
          "name": "_fee",
          "type": "uint256"
        },
        {
          "internalType": "uint256",
          "name": "_adminFee",
          "type": "uint256"
        },
        {
          "internalType": "uint256",
          "name": "_withdrawFee",
          "type": "uint256"
        },
        {
          "internalType": "address",
          "name": "_feeDistributor",
          "type": "address"
        }
      ],
      "name": "initialize",
      "outputs": [],
      "stateMutability": "nonpayable",
      "type": "function"
    },
    {
      "inputs": [
        {
          "internalType": "address",
          "name": "tokenIn",
          "type": "address"
        },
        {
          "internalType": "address",
          "name": "tokenOut",
          "type": "address"
        },
        {
          "internalType": "uint256",
          "name": "amountIn",
          "type": "uint256"
        },
        {
          "internalType": "uint256",
          "name": "amountOut",
          "type": "uint256"
        },
        {
          "internalType": "address",
          "name": "to",
          "type": "address"
        }
      ],
      "name": "onSwap",
      "outputs": [],
      "stateMutability": "nonpayable",
      "type": "function"
    },
    {
      "inputs": [
        {
          "internalType": "address",
          "name": "tokenIn",
          "type": "address"
        },
        {
          "internalType": "address",
          "name": "tokenOut",
          "type": "address"
        },
        {
          "internalType": "uint256",
          "name": "amountIn",
          "type": "uint256"
        },
        {
          "internalType": "uint256",
          "name": "amountOutMin",
          "type": "uint256"
        },
        {
          "internalType": "address",
          "name": "to",
          "type": "address"
        }
      ],
      "name": "onSwapGivenIn",
      "outputs": [
        {
          "internalType": "uint256",
          "name": "",
          "type": "uint256"
        }
      ],
      "stateMutability": "nonpayable",
      "type": "function"
    },
    {
      "inputs": [
        {
          "internalType": "address",
          "name": "tokenIn",
          "type": "address"
        },
        {
          "internalType": "address",
          "name": "tokenOut",
          "type": "address"
        },
        {
          "internalType": "uint256",
          "name": "amountOut",
          "type": "uint256"
        },
        {
          "internalType": "uint256",
          "name": "amountInMax",
          "type": "uint256"
        },
        {
          "internalType": "address",
          "name": "to",
          "type": "address"
        }
      ],
      "name": "onSwapGivenOut",
      "outputs": [
        {
          "internalType": "uint256",
          "name": "",
          "type": "uint256"
        }
      ],
      "stateMutability": "nonpayable",
      "type": "function"
    },
    {
      "inputs": [],
      "name": "owner",
      "outputs": [
        {
          "internalType": "address",
          "name": "",
          "type": "address"
        }
      ],
      "stateMutability": "view",
      "type": "function"
    },
    {
      "inputs": [],
      "name": "pause",
      "outputs": [],
      "stateMutability": "nonpayable",
      "type": "function"
    },
    {
      "inputs": [],
      "name": "paused",
      "outputs": [
        {
          "internalType": "bool",
          "name": "",
          "type": "bool"
        }
      ],
      "stateMutability": "view",
      "type": "function"
    },
    {
      "inputs": [
        {
          "internalType": "uint256",
          "name": "futureA",
          "type": "uint256"
        },
        {
          "internalType": "uint256",
          "name": "futureATime",
          "type": "uint256"
        }
      ],
      "name": "rampA",
      "outputs": [],
      "stateMutability": "nonpayable",
      "type": "function"
    },
    {
      "inputs": [
        {
          "internalType": "uint256",
          "name": "lpAmount",
          "type": "uint256"
        },
        {
          "internalType": "uint256[]",
          "name": "minAmounts",
          "type": "uint256[]"
        },
        {
          "internalType": "uint256",
          "name": "deadline",
          "type": "uint256"
        }
      ],
      "name": "removeLiquidity",
      "outputs": [
        {
          "internalType": "uint256[]",
          "name": "",
          "type": "uint256[]"
        }
      ],
      "stateMutability": "nonpayable",
      "type": "function"
    },
    {
      "inputs": [
        {
          "internalType": "uint256[]",
          "name": "amounts",
          "type": "uint256[]"
        },
        {
          "internalType": "uint256",
          "name": "maxBurnAmount",
          "type": "uint256"
        },
        {
          "internalType": "uint256",
          "name": "deadline",
          "type": "uint256"
        }
      ],
      "name": "removeLiquidityImbalance",
      "outputs": [
        {
          "internalType": "uint256",
          "name": "",
          "type": "uint256"
        }
      ],
      "stateMutability": "nonpayable",
      "type": "function"
    },
    {
      "inputs": [
        {
          "internalType": "uint256",
          "name": "lpAmount",
          "type": "uint256"
        },
        {
          "internalType": "uint8",
          "name": "index",
          "type": "uint8"
        },
        {
          "internalType": "uint256",
          "name": "minAmount",
          "type": "uint256"
        },
        {
          "internalType": "uint256",
          "name": "deadline",
          "type": "uint256"
        }
      ],
      "name": "removeLiquidityOneToken",
      "outputs": [
        {
          "internalType": "uint256",
          "name": "",
          "type": "uint256"
        }
      ],
      "stateMutability": "nonpayable",
      "type": "function"
    },
    {
      "inputs": [],
      "name": "renounceOwnership",
      "outputs": [],
      "stateMutability": "nonpayable",
      "type": "function"
    },
    {
      "inputs": [
        {
          "internalType": "uint256",
          "name": "newSwapFee",
          "type": "uint256"
        },
        {
          "internalType": "uint256",
          "name": "newAdminFee",
          "type": "uint256"
        },
        {
          "internalType": "uint256",
          "name": "newWithdrawFee",
          "type": "uint256"
        }
      ],
      "name": "setFee",
      "outputs": [],
      "stateMutability": "nonpayable",
      "type": "function"
    },
    {
      "inputs": [
        {
          "internalType": "address",
          "name": "_feeController",
          "type": "address"
        }
      ],
      "name": "setFeeController",
      "outputs": [],
      "stateMutability": "nonpayable",
      "type": "function"
    },
    {
      "inputs": [
        {
          "internalType": "address",
          "name": "_feeDistributor",
          "type": "address"
        }
      ],
      "name": "setFeeDistributor",
      "outputs": [],
      "stateMutability": "nonpayable",
      "type": "function"
    },
    {
      "inputs": [],
      "name": "stopRampA",
      "outputs": [],
      "stateMutability": "nonpayable",
      "type": "function"
    },
    {
      "inputs": [
        {
          "internalType": "uint8",
          "name": "fromIndex",
          "type": "uint8"
        },
        {
          "internalType": "uint8",
          "name": "toIndex",
          "type": "uint8"
        },
        {
          "internalType": "uint256",
          "name": "inAmount",
          "type": "uint256"
        },
        {
          "internalType": "uint256",
          "name": "minOutAmount",
          "type": "uint256"
        },
        {
          "internalType": "address",
          "name": "to",
          "type": "address"
        },
        {
          "internalType": "uint256",
          "name": "deadline",
          "type": "uint256"
        }
      ],
      "name": "swap",
      "outputs": [
        {
          "internalType": "uint256",
          "name": "",
          "type": "uint256"
        }
      ],
      "stateMutability": "nonpayable",
      "type": "function"
    },
    {
      "inputs": [],
      "name": "swapStorage",
      "outputs": [
        {
          "internalType": "contract LPToken",
          "name": "lpToken",
          "type": "address"
        },
        {
          "internalType": "uint256",
          "name": "fee",
          "type": "uint256"
        },
        {
          "internalType": "uint256",
          "name": "adminFee",
          "type": "uint256"
        },
        {
          "internalType": "uint256",
          "name": "initialA",
          "type": "uint256"
        },
        {
          "internalType": "uint256",
          "name": "futureA",
          "type": "uint256"
        },
        {
          "internalType": "uint256",
          "name": "initialATime",
          "type": "uint256"
        },
        {
          "internalType": "uint256",
          "name": "futureATime",
          "type": "uint256"
        },
        {
          "internalType": "uint256",
          "name": "defaultWithdrawFee",
          "type": "uint256"
        }
      ],
      "stateMutability": "view",
      "type": "function"
    },
    {
      "inputs": [
        {
          "internalType": "address",
          "name": "",
          "type": "address"
        }
      ],
      "name": "tokenIndexes",
      "outputs": [
        {
          "internalType": "uint8",
          "name": "",
          "type": "uint8"
        }
      ],
      "stateMutability": "view",
      "type": "function"
    },
    {
      "inputs": [
        {
          "internalType": "address",
          "name": "newOwner",
          "type": "address"
        }
      ],
      "name": "transferOwnership",
      "outputs": [],
      "stateMutability": "nonpayable",
      "type": "function"
    },
    {
      "inputs": [],
      "name": "unpause",
      "outputs": [],
      "stateMutability": "nonpayable",
      "type": "function"
    },
    {
      "inputs": [
        {
          "internalType": "address",
          "name": "recipient",
          "type": "address"
        },
        {
          "internalType": "uint256",
          "name": "transferAmount",
          "type": "uint256"
        }
      ],
      "name": "updateUserWithdrawFee",
      "outputs": [],
      "stateMutability": "nonpayable",
      "type": "function"
    },
    {
      "inputs": [],
      "name": "withdrawAdminFee",
      "outputs": [],
      "stateMutability": "nonpayable",
      "type": "function"
    }
  ],
  "bytecode": "0x60806040523480156200001157600080fd5b506200001d3362000034565b6000805460ff60a01b191690556001805562000084565b600080546001600160a01b038381166001600160a01b0319831681178455604051919092169283917f8be0079c531659141344cd1fd0a4f28419497f9722a3daafe3b4186f6b6457e09190a35050565b615ba780620000946000396000f3fe60806040523480156200001157600080fd5b5060043610620003915760003560e01c806384cdd9bc11620001e1578063cc56fd43116200010d578063e25aa5fa11620000af578063efeecb511162000086578063efeecb5114620007e4578063f2fde38b14620007ed578063f3de03621462000804578063fe49abe3146200081157600080fd5b8063e25aa5fa14620007ac578063e6ab280614620007b6578063e9255bae14620007cd57600080fd5b8063d46300fd11620000e4578063d46300fd146200078b578063d4b0de2f1462000706578063df3ed68d146200079557600080fd5b8063cc56fd431462000753578063ccfc2e8d146200076a578063d41f6568146200078157600080fd5b8063a95b089f1162000183578063ab5ac061116200015a578063ab5ac0611462000712578063bfd3956b146200071b578063c00c125c1462000732578063c4db7fa0146200074957600080fd5b8063a95b089f14620006d6578063aa6ca80814620006ed578063ab3d8544146200070657600080fd5b806391ceb3eb11620001b857806391ceb3eb146200069e57806398899f4014620006b5578063a1dc903114620006cc57600080fd5b806384cdd9bc146200065e5780638554a7d414620006755780638da5cb5b146200068c57600080fd5b80634ac00e0311620002c157806366c0bd2411620002635780637c61e561116200023a5780637c61e56114620006145780638214f5a4146200062b57806382b86600146200063d5780638456cb59146200065457600080fd5b806366c0bd2414620005df5780636999b37714620005f6578063715018a6146200060a57600080fd5b80635b65b9ab11620002985780635b65b9ab14620005235780635c975abb146200053a5780635fd65f0f146200056957600080fd5b80634ac00e0314620004de5780634d49e87d14620004f5578063593d132c146200050c57600080fd5b806331cd52b011620003375780633e3a1560116200030e5780633e3a1560146200048f5780633ed4c67814620004a65780633f4ba83a14620004bd5780634a1b0d5714620004c757600080fd5b806331cd52b0146200045457806332fd5493146200046b57806339698415146200048457600080fd5b80630d43e8ad116200036c5780630d43e8ad14620003f75780630e6d8bce146200042457806318f52ce2146200043b57600080fd5b806304bc3b1c146200039657806306e9481c14620003d35780630ba8195914620003ed575b600080fd5b620003bc620003a736600462003877565b60126020526000908152604090205460ff1681565b60405160ff90911681526020015b60405180910390f35b620003de6201518081565b604051908152602001620003ca565b620003de6200081b565b6010546200040b906001600160a01b031681565b6040516001600160a01b039091168152602001620003ca565b620003de6200043536600462003895565b620008b4565b6200044562000a6a565b604051620003ca9190620038f3565b620004456200046536600462003a54565b62000b96565b620004826200047c36600462003895565b62000d0f565b005b620003de620f424081565b620003de620004a036600462003aba565b62000ebd565b62000482620004b736600462003877565b6200105a565b620004826200117b565b620003de620004d836600462003877565b620011e3565b620003de620004ef36600462003895565b620011f8565b620003de6200050636600462003af8565b6200135d565b620004826200051d36600462003b4a565b62001513565b620004826200053436600462003b6d565b62001866565b60005474010000000000000000000000000000000000000000900460ff166040519015158152602001620003ca565b600454600754600854600954600a54600b54600c54600d5462000599976001600160a01b03169695949392919088565b604080516001600160a01b0390991689526020890197909752958701949094526060860192909252608085015260a084015260c083015260e082015261010001620003ca565b620003bc620005f036600462003877565b62001a1a565b6011546200040b906001600160a01b031681565b6200048262001aba565b620004456200062536600462003b9a565b62001b22565b6004546001600160a01b03166200040b565b6200040b6200064e36600462003bc7565b62001bf4565b6200048262001c2d565b620003de6200066f36600462003af8565b62001c93565b620003de6200068636600462003bc7565b62001e06565b6000546001600160a01b03166200040b565b620003de620006af36600462003bc7565b62001ea2565b620003de620006c636600462003be5565b62001ed1565b6200044562001f8c565b620003de620006e736600462003c26565b62001fe8565b620006f762002055565b604051620003ca919062003c67565b620003de6305f5e10081565b620003de600a81565b620003de6200072c36600462003caa565b620020bb565b620004826200074336600462003b9a565b620022a4565b6200048262002398565b620003de6200076436600462003d10565b6200252a565b620004826200077b36600462003877565b620025b8565b62000445620026d3565b620003de6200272e565b62000482620007a636600462003eac565b62002783565b620003de62002f03565b620003de620007c736600462003faf565b62002f58565b620003de620007de36600462003d10565b62002fb4565b600354620003de565b62000482620007fe36600462003877565b62003042565b620003de6402540be40081565b620004826200312a565b6040517fa30355850000000000000000000000000000000000000000000000000000000081526003600482015260009073__$6aaf67e7827a013dd22ce71b2520632c86$__9063a3035585906024015b602060405180830381865af415801562000889573d6000803e3d6000fd5b505050506040513d601f19601f82011682018060405250810190620008af91906200403c565b905090565b6000805474010000000000000000000000000000000000000000900460ff1615620009265760405162461bcd60e51b815260206004820152601060248201527f5061757361626c653a207061757365640000000000000000000000000000000060448201526064015b60405180910390fd5b600260015414156200097b5760405162461bcd60e51b815260206004820152601f60248201527f5265656e7472616e637947756172643a207265656e7472616e742063616c6c0060448201526064016200091d565b60026001556001600160a01b03868116600090815260126020526040808220548884168352918190205490517f8e6da7b60000000000000000000000000000000000000000000000000000000081526003600482015260ff928316602482015291166044820152606481018690526084810185905290831660a482015273__$6aaf67e7827a013dd22ce71b2520632c86$__90638e6da7b69060c4015b602060405180830381865af415801562000a36573d6000803e3d6000fd5b505050506040513d601f19601f8201168201806040525081019062000a5c91906200403c565b600180559695505050505050565b6003546060908067ffffffffffffffff81111562000a8c5762000a8c62003939565b60405190808252806020026020018201604052801562000ab6578160200160208202803683370190505b50915060005b8181101562000b91576040517fe2eba89b000000000000000000000000000000000000000000000000000000008152600360048201526024810182905273__$6aaf67e7827a013dd22ce71b2520632c86$__9063e2eba89b90604401602060405180830381865af415801562000b36573d6000803e3d6000fd5b505050506040513d601f19601f8201168201806040525081019062000b5c91906200403c565b83828151811062000b715762000b7162004056565b60209081029190910101528062000b8881620040b4565b91505062000abc565b505090565b60606002600154141562000bed5760405162461bcd60e51b815260206004820152601f60248201527f5265656e7472616e637947756172643a207265656e7472616e742063616c6c0060448201526064016200091d565b6002600155814281101562000c455760405162461bcd60e51b815260206004820152600760248201527f74696d656f75740000000000000000000000000000000000000000000000000060448201526064016200091d565b6040517fc685696c00000000000000000000000000000000000000000000000000000000815273__$6aaf67e7827a013dd22ce71b2520632c86$__9063c685696c9062000c9c90600390899089906004016200412d565b600060405180830381865af415801562000cba573d6000803e3d6000fd5b505050506040513d6000823e601f3d9081017fffffffffffffffffffffffffffffffffffffffffffffffffffffffffffffffe016820160405262000d02919081019062004157565b6001805595945050505050565b60005474010000000000000000000000000000000000000000900460ff161562000d7c5760405162461bcd60e51b815260206004820152601060248201527f5061757361626c653a207061757365640000000000000000000000000000000060448201526064016200091d565b6002600154141562000dd15760405162461bcd60e51b815260206004820152601f60248201527f5265656e7472616e637947756172643a207265656e7472616e742063616c6c0060448201526064016200091d565b60026001556001600160a01b03858116600090815260126020526040808220548784168352918190205490517f2fcdda4f0000000000000000000000000000000000000000000000000000000081526003600482015260ff928316602482015291166044820152606481018590526084810184905290821660a482015273__$6aaf67e7827a013dd22ce71b2520632c86$__90632fcdda4f9060c401602060405180830381865af415801562000e8b573d6000803e3d6000fd5b505050506040513d601f19601f8201168201806040525081019062000eb191906200403c565b50506001805550505050565b60006002600154141562000f145760405162461bcd60e51b815260206004820152601f60248201527f5265656e7472616e637947756172643a207265656e7472616e742063616c6c0060448201526064016200091d565b600260015560005474010000000000000000000000000000000000000000900460ff161562000f865760405162461bcd60e51b815260206004820152601060248201527f5061757361626c653a207061757365640000000000000000000000000000000060448201526064016200091d565b818042111562000fd95760405162461bcd60e51b815260206004820152600760248201527f74696d656f75740000000000000000000000000000000000000000000000000060448201526064016200091d565b6040517f2bfe30d0000000000000000000000000000000000000000000000000000000008152600360048201526024810187905260ff861660448201526064810185905273__$6aaf67e7827a013dd22ce71b2520632c86$__90632bfe30d090608401602060405180830381865af415801562000a36573d6000803e3d6000fd5b6000546001600160a01b03163314620010b65760405162461bcd60e51b815260206004820181905260248201527f4f776e61626c653a2063616c6c6572206973206e6f7420746865206f776e657260448201526064016200091d565b6001600160a01b0381166200110e5760405162461bcd60e51b815260206004820152600b60248201527f7a65726f4164647265737300000000000000000000000000000000000000000060448201526064016200091d565b601180547fffffffffffffffffffffffff0000000000000000000000000000000000000000166001600160a01b0383169081179091556040519081527f4c3f3b9852ccceadd50f16518f348e2624c8f0240acdd5bc81911c0fba83ec67906020015b60405180910390a150565b6000546001600160a01b03163314620011d75760405162461bcd60e51b815260206004820181905260248201527f4f776e61626c653a2063616c6c6572206973206e6f7420746865206f776e657260448201526064016200091d565b620011e162003311565b565b6000620011f2600383620033e5565b92915050565b6000805474010000000000000000000000000000000000000000900460ff1615620012665760405162461bcd60e51b815260206004820152601060248201527f5061757361626c653a207061757365640000000000000000000000000000000060448201526064016200091d565b60026001541415620012bb5760405162461bcd60e51b815260206004820152601f60248201527f5265656e7472616e637947756172643a207265656e7472616e742063616c6c0060448201526064016200091d565b60026001556001600160a01b03868116600090815260126020526040808220548884168352918190205490517f0da350f60000000000000000000000000000000000000000000000000000000081526003600482015260ff928316602482015291166044820152606481018690526084810185905290831660a482015273__$6aaf67e7827a013dd22ce71b2520632c86$__90630da350f69060c40162000a18565b6000805474010000000000000000000000000000000000000000900460ff1615620013cb5760405162461bcd60e51b815260206004820152601060248201527f5061757361626c653a207061757365640000000000000000000000000000000060448201526064016200091d565b60026001541415620014205760405162461bcd60e51b815260206004820152601f60248201527f5265656e7472616e637947756172643a207265656e7472616e742063616c6c0060448201526064016200091d565b60026001558142811015620014785760405162461bcd60e51b815260206004820152600760248201527f74696d656f75740000000000000000000000000000000000000000000000000060448201526064016200091d565b6040517f7a6cba3c00000000000000000000000000000000000000000000000000000000815273__$6aaf67e7827a013dd22ce71b2520632c86$__90637a6cba3c90620014cf9060039089908990600401620041f1565b602060405180830381865af4158015620014ed573d6000803e3d6000fd5b505050506040513d601f19601f8201168201806040525081019062000d0291906200403c565b6000546001600160a01b031633146200156f5760405162461bcd60e51b815260206004820181905260248201527f4f776e61626c653a2063616c6c6572206973206e6f7420746865206f776e657260448201526064016200091d565b600b546200158190620151806200421c565b421015620015d25760405162461bcd60e51b815260206004820152600b60248201527f3c2072616d7044656c617900000000000000000000000000000000000000000060448201526064016200091d565b620015e162015180426200421c565b811015620016325760405162461bcd60e51b815260206004820152600d60248201527f3c206d696e52616d7054696d650000000000000000000000000000000000000060448201526064016200091d565b816000108015620016455750620f424082105b620016935760405162461bcd60e51b815260206004820152600a60248201527f6f75744f6652616e67650000000000000000000000000000000000000000000060448201526064016200091d565b6040517fa30355850000000000000000000000000000000000000000000000000000000081526003600482015260009073__$6aaf67e7827a013dd22ce71b2520632c86$__9063a303558590602401602060405180830381865af415801562001700573d6000803e3d6000fd5b505050506040513d601f19601f820116820180604052508101906200172691906200403c565b905060006200173760648562004237565b905081811015620017a6578162001750600a8362004237565b1015620017a05760405162461bcd60e51b815260206004820152600b60248201527f3e206d61784368616e676500000000000000000000000000000000000000000060448201526064016200091d565b62001804565b620017b3600a8362004237565b811115620018045760405162461bcd60e51b815260206004820152600b60248201527f3e206d61784368616e676500000000000000000000000000000000000000000060448201526064016200091d565b6009829055600a81905542600b819055600c84905560408051848152602081018490528082019290925260608201859052517fa2b71ec6df949300b59aab36b55e189697b750119dd349fcfa8c0f779e83c2549181900360800190a150505050565b6000546001600160a01b03163314620018c25760405162461bcd60e51b815260206004820181905260248201527f4f776e61626c653a2063616c6c6572206973206e6f7420746865206f776e657260448201526064016200091d565b6305f5e100831115620019185760405162461bcd60e51b815260206004820152600c60248201527f3e206d617853776170466565000000000000000000000000000000000000000060448201526064016200091d565b6402540be4008211156200196f5760405162461bcd60e51b815260206004820152600d60248201527f3e206d617841646d696e4665650000000000000000000000000000000000000060448201526064016200091d565b6305f5e100811115620019c55760405162461bcd60e51b815260206004820152601060248201527f3e206d617857697468647261774665650000000000000000000000000000000060448201526064016200091d565b60088290556007839055600d81905560408051848152602081018490529081018290527fcfca96e0fef3432146913b2a5a2268a55d3f475fe057e7ffde1082b77693f4f39060600160405180910390a1505050565b6001600160a01b0381166000818152601260205260409020546003805460ff90921692918390811062001a515762001a5162004056565b6000918252602090912001546001600160a01b03161462001ab55760405162461bcd60e51b815260206004820152600d60248201527f746f6b656e4e6f74466f756e640000000000000000000000000000000000000060448201526064016200091d565b919050565b6000546001600160a01b0316331462001b165760405162461bcd60e51b815260206004820181905260248201527f4f776e61626c653a2063616c6c6572206973206e6f7420746865206f776e657260448201526064016200091d565b620011e160006200349f565b6040517ffa563597000000000000000000000000000000000000000000000000000000008152600360048201526001600160a01b03831660248201526044810182905260609073__$6aaf67e7827a013dd22ce71b2520632c86$__9063fa56359790606401600060405180830381865af415801562001ba5573d6000803e3d6000fd5b505050506040513d6000823e601f3d9081017fffffffffffffffffffffffffffffffffffffffffffffffffffffffffffffffe016820160405262001bed919081019062004157565b9392505050565b600060036000018260ff168154811062001c125762001c1262004056565b6000918252602090912001546001600160a01b031692915050565b6000546001600160a01b0316331462001c895760405162461bcd60e51b815260206004820181905260248201527f4f776e61626c653a2063616c6c6572206973206e6f7420746865206f776e657260448201526064016200091d565b620011e162003507565b60006002600154141562001cea5760405162461bcd60e51b815260206004820152601f60248201527f5265656e7472616e637947756172643a207265656e7472616e742063616c6c0060448201526064016200091d565b600260015560005474010000000000000000000000000000000000000000900460ff161562001d5c5760405162461bcd60e51b815260206004820152601060248201527f5061757361626c653a207061757365640000000000000000000000000000000060448201526064016200091d565b818042111562001daf5760405162461bcd60e51b815260206004820152600760248201527f74696d656f75740000000000000000000000000000000000000000000000000060448201526064016200091d565b6040517fc8344c0600000000000000000000000000000000000000000000000000000000815273__$6aaf67e7827a013dd22ce71b2520632c86$__9063c8344c0690620014cf9060039089908990600401620041f1565b6040517fe2eba89b0000000000000000000000000000000000000000000000000000000081526003600482015260ff8216602482015260009073__$6aaf67e7827a013dd22ce71b2520632c86$__9063e2eba89b90604401602060405180830381865af415801562001e7c573d6000803e3d6000fd5b505050506040513d601f19601f82011682018060405250810190620011f291906200403c565b6000600380018260ff168154811062001ebf5762001ebf62004056565b90600052602060002001549050919050565b6040517f159763bb000000000000000000000000000000000000000000000000000000008152600360048201526001600160a01b03841660248201526044810183905260ff8216606482015260009073__$6aaf67e7827a013dd22ce71b2520632c86$__9063159763bb906084015b602060405180830381865af415801562001f5e573d6000803e3d6000fd5b505050506040513d601f19601f8201168201806040525081019062001f8491906200403c565b949350505050565b60606003800180548060200260200160405190810160405280929190818152602001828054801562001fde57602002820191906000526020600020905b81548152602001906001019080831162001fc9575b5050505050905090565b6040517fba2998d90000000000000000000000000000000000000000000000000000000081526003600482015260ff8085166024830152831660448201526064810182905260009073__$6aaf67e7827a013dd22ce71b2520632c86$__9063ba2998d99060840162001f40565b6060600360000180548060200260200160405190810160405280929190818152602001828054801562001fde57602002820191906000526020600020905b81546001600160a01b0316815260019091019060200180831162002093575050505050905090565b6000805474010000000000000000000000000000000000000000900460ff1615620021295760405162461bcd60e51b815260206004820152601060248201527f5061757361626c653a207061757365640000000000000000000000000000000060448201526064016200091d565b600260015414156200217e5760405162461bcd60e51b815260206004820152601f60248201527f5265656e7472616e637947756172643a207265656e7472616e742063616c6c0060448201526064016200091d565b60026001558142811015620021d65760405162461bcd60e51b815260206004820152600760248201527f74696d656f75740000000000000000000000000000000000000000000000000060448201526064016200091d565b6040517fad30093f0000000000000000000000000000000000000000000000000000000081526003600482015260ff808a1660248301528816604482015260648101879052608481018690526001600160a01b03851660a482015273__$6aaf67e7827a013dd22ce71b2520632c86$__9063ad30093f9060c401602060405180830381865af41580156200226e573d6000803e3d6000fd5b505050506040513d601f19601f820116820180604052508101906200229491906200403c565b6001805598975050505050505050565b6004546001600160a01b03163314620023005760405162461bcd60e51b815260206004820152600860248201527f216c70546f6b656e00000000000000000000000000000000000000000000000060448201526064016200091d565b6040517fc188e4be000000000000000000000000000000000000000000000000000000008152600360048201526001600160a01b03831660248201526044810182905273__$6aaf67e7827a013dd22ce71b2520632c86$__9063c188e4be9060640160006040518083038186803b1580156200237b57600080fd5b505af415801562002390573d6000803e3d6000fd5b505050505050565b6000546001600160a01b03163314620023f45760405162461bcd60e51b815260206004820181905260248201527f4f776e61626c653a2063616c6c6572206973206e6f7420746865206f776e657260448201526064016200091d565b600c544210620024475760405162461bcd60e51b815260206004820152600e60248201527f616c726561647953746f7070656400000000000000000000000000000000000060448201526064016200091d565b6040517fa30355850000000000000000000000000000000000000000000000000000000081526003600482015260009073__$6aaf67e7827a013dd22ce71b2520632c86$__9063a303558590602401602060405180830381865af4158015620024b4573d6000803e3d6000fd5b505050506040513d601f19601f82011682018060405250810190620024da91906200403c565b6009819055600a81905542600b819055600c8190556040519192507f46e22fb3709ad289f62ce63d469248536dbc78d82b84a3d7e74ad606dc201938916200117091848252602082015260400190565b6001600160a01b038381166000908152601260205260408082205492851682528082205490517faa054aee0000000000000000000000000000000000000000000000000000000081526003600482015260ff938416602482015292166044830152606482018390529073__$6aaf67e7827a013dd22ce71b2520632c86$__9063aa054aee9060840162001f40565b6000546001600160a01b03163314620026145760405162461bcd60e51b815260206004820181905260248201527f4f776e61626c653a2063616c6c6572206973206e6f7420746865206f776e657260448201526064016200091d565b6001600160a01b0381166200266c5760405162461bcd60e51b815260206004820152600b60248201527f7a65726f4164647265737300000000000000000000000000000000000000000060448201526064016200091d565b601080547fffffffffffffffffffffffff0000000000000000000000000000000000000000166001600160a01b0383169081179091556040519081527fae5a12c29e496b092467a620746b9eaf4e0e231a631a4370c233b1fac38e8e269060200162001170565b6060600360020180548060200260200160405190810160405280929190818152602001828054801562001fde576020028201919060005260206000209081548152602001906001019080831162001fc9575050505050905090565b6040517fb52e146f0000000000000000000000000000000000000000000000000000000081526003600482015260009073__$6aaf67e7827a013dd22ce71b2520632c86$__9063b52e146f906024016200086b565b6000546001600160a01b03163314620027df5760405162461bcd60e51b815260206004820181905260248201527f4f776e61626c653a2063616c6c6572206973206e6f7420746865206f776e657260448201526064016200091d565b600254610100900460ff1680620027f9575060025460ff16155b6200286d5760405162461bcd60e51b815260206004820152602e60248201527f496e697469616c697a61626c653a20636f6e747261637420697320616c72656160448201527f647920696e697469616c697a656400000000000000000000000000000000000060648201526084016200091d565b600254610100900460ff16158015620028ad57600280547fffffffffffffffffffffffffffffffffffffffffffffffffffffffffffff0000166101011790555b88518a5114620029005760405162461bcd60e51b815260206004820152601d60248201527f636f696e734c656e67746820213d20646563696d616c734c656e67746800000060448201526064016200091d565b6001600160a01b038216620029585760405162461bcd60e51b815260206004820152601660248201527f6665654469737472696275746f72203d20656d7074790000000000000000000060448201526064016200091d565b895160008167ffffffffffffffff81111562002978576200297862003939565b604051908082528060200260200182016040528015620029a2578160200160208202803683370190505b50905060008267ffffffffffffffff811115620029c357620029c362003939565b604051908082528060200260200182016040528015620029ed578160200160208202803683370190505b50905060005b8381101562002c0d5760006001600160a01b03168e828151811062002a1c5762002a1c62004056565b60200260200101516001600160a01b0316141562002a7d5760405162461bcd60e51b815260206004820152601360248201527f696e76616c6964546f6b656e416464726573730000000000000000000000000060448201526064016200091d565b60128d828151811062002a945762002a9462004056565b602002602001015160ff16111562002aef5760405162461bcd60e51b815260206004820152600f60248201527f696e76616c6964446563696d616c73000000000000000000000000000000000060448201526064016200091d565b8c818151811062002b045762002b0462004056565b602002602001015160ff16601262002b1d919062004277565b62002b2a90600a620043ca565b83828151811062002b3f5762002b3f62004056565b6020026020010181815250508d818151811062002b605762002b6062004056565b602002602001015182828151811062002b7d5762002b7d62004056565b60200260200101906001600160a01b031690816001600160a01b031681525050806012600084848151811062002bb75762002bb762004056565b60200260200101516001600160a01b03166001600160a01b0316815260200190815260200160002060006101000a81548160ff021916908360ff160217905550808062002c0490620040b4565b915050620029f3565b50620f4240891062002c625760405162461bcd60e51b815260206004820152600660248201527f3e206d617841000000000000000000000000000000000000000000000000000060448201526064016200091d565b6305f5e10088111562002cb85760405162461bcd60e51b815260206004820152600c60248201527f3e206d617853776170466565000000000000000000000000000000000000000060448201526064016200091d565b6402540be40087111562002d0f5760405162461bcd60e51b815260206004820152600d60248201527f3e206d617841646d696e4665650000000000000000000000000000000000000060448201526064016200091d565b6305f5e10086111562002d655760405162461bcd60e51b815260206004820152601060248201527f3e206d617857697468647261774665650000000000000000000000000000000060448201526064016200091d565b8a8a60405162002d75906200377a565b62002d8292919062004453565b604051809103906000f08015801562002d9f573d6000803e3d6000fd5b50600480547fffffffffffffffffffffffff0000000000000000000000000000000000000000166001600160a01b03929092169190911790558267ffffffffffffffff81111562002df45762002df462003939565b60405190808252806020026020018201604052801562002e1e578160200160208202803683370190505b50805162002e359160069160209091019062003788565b50815162002e4b90600590602085019062003788565b50805162002e61906003906020840190620037d8565b5062002e6f60648a62004237565b60095562002e7f60648a62004237565b600a5550505060078590556008849055600d839055601080547fffffffffffffffffffffffff0000000000000000000000000000000000000000166001600160a01b038416179055801562002ef757600280547fffffffffffffffffffffffffffffffffffffffffffffffffffffffffffff00ff1690555b50505050505050505050565b6040517fd36604ac0000000000000000000000000000000000000000000000000000000081526003600482015260009073__$6aaf67e7827a013dd22ce71b2520632c86$__9063d36604ac906024016200086b565b6040517f1e7e95d300000000000000000000000000000000000000000000000000000000815260009073__$6aaf67e7827a013dd22ce71b2520632c86$__90631e7e95d39062001f40906003908890889088906004016200447c565b6001600160a01b038381166000908152601260205260408082205492851682528082205490517fba2998d90000000000000000000000000000000000000000000000000000000081526003600482015260ff938416602482015292166044830152606482018390529073__$6aaf67e7827a013dd22ce71b2520632c86$__9063ba2998d99060840162001f40565b6000546001600160a01b031633146200309e5760405162461bcd60e51b815260206004820181905260248201527f4f776e61626c653a2063616c6c6572206973206e6f7420746865206f776e657260448201526064016200091d565b6001600160a01b0381166200311c5760405162461bcd60e51b815260206004820152602660248201527f4f776e61626c653a206e6577206f776e657220697320746865207a65726f206160448201527f646472657373000000000000000000000000000000000000000000000000000060648201526084016200091d565b62003127816200349f565b50565b6011546001600160a01b03163314806200314e57506000546001600160a01b031633145b6200319c5760405162461bcd60e51b815260206004820152601560248201527f21666565436f6e74726f6c6c65724f724f776e6572000000000000000000000060448201526064016200091d565b60005b6003548110156200312757600060036000018281548110620031c557620031c562004056565b6000918252602082200154600680546001600160a01b0390921693509084908110620031f557620031f562004056565b6000918252602090912001546040517f70a082310000000000000000000000000000000000000000000000000000000081523060048201526001600160a01b038416906370a0823190602401602060405180830381865afa1580156200325f573d6000803e3d6000fd5b505050506040513d601f19601f820116820180604052508101906200328591906200403c565b62003291919062004277565b90508015620032f957601054620032b6906001600160a01b03848116911683620035dc565b604080516001600160a01b0384168152602081018390527fee3859efa95e525bc2bcb149b51b60a8bb4e89c647392d9d4112e03c3e73bdd6910160405180910390a15b505080806200330890620040b4565b9150506200319f565b60005474010000000000000000000000000000000000000000900460ff166200337d5760405162461bcd60e51b815260206004820152601460248201527f5061757361626c653a206e6f742070617573656400000000000000000000000060448201526064016200091d565b600080547fffffffffffffffffffffff00ffffffffffffffffffffffffffffffffffffffff1690557f5db9ee0a495bf2e6ff9c91a7834c1ba4fdd244a5e8aa4e537bd38aeae4b073aa335b6040516001600160a01b03909116815260200160405180910390a1565b6001600160a01b0381166000908152600b83016020526040812054819062003411906224ea006200421c565b905042811115620034955760006200342a428362004277565b6001600160a01b0385166000908152600c87016020526040902054600a8701549192506402540be400916224ea0091849162003467919062004237565b62003473919062004237565b6200347f9190620044e6565b6200348b9190620044e6565b92505050620011f2565b5060009392505050565b600080546001600160a01b038381167fffffffffffffffffffffffff0000000000000000000000000000000000000000831681178455604051919092169283917f8be0079c531659141344cd1fd0a4f28419497f9722a3daafe3b4186f6b6457e09190a35050565b60005474010000000000000000000000000000000000000000900460ff1615620035745760405162461bcd60e51b815260206004820152601060248201527f5061757361626c653a207061757365640000000000000000000000000000000060448201526064016200091d565b600080547fffffffffffffffffffffff00ffffffffffffffffffffffffffffffffffffffff16740100000000000000000000000000000000000000001790557f62e78cea01bee320cd4e420270b5ea74000d11b0c9f74754ebdbfc544b05a258620033c83390565b604080516001600160a01b038416602482015260448082018490528251808303909101815260649091019091526020810180517bffffffffffffffffffffffffffffffffffffffffffffffffffffffff167fa9059cbb000000000000000000000000000000000000000000000000000000001790526200365e90849062003663565b505050565b600080836001600160a01b03168360405162003680919062004522565b6000604051808303816000865af19150503d8060008114620036bf576040519150601f19603f3d011682016040523d82523d6000602084013e620036c4565b606091505b50915091506000821415620036dd573d6000803e3d6000fd5b6200370c8151600014806200370357508180602001905181019062003703919062004540565b6101a262003712565b50505050565b816200372357620037238162003727565b5050565b62461bcd60e51b6000908152602060045260076024526652455123000030600a808404818106603090810160081b95839006959095019082900491820690940160101b939093010160c81b604452606490fd5b611611806200456183390190565b828054828255906000526020600020908101928215620037c6579160200282015b82811115620037c6578251825591602001919060010190620037a9565b50620037d492915062003848565b5090565b828054828255906000526020600020908101928215620037c6579160200282015b82811115620037c657825182547fffffffffffffffffffffffff0000000000000000000000000000000000000000166001600160a01b03909116178255602090920191600190910190620037f9565b5b80821115620037d4576000815560010162003849565b80356001600160a01b038116811462001ab557600080fd5b6000602082840312156200388a57600080fd5b62001bed826200385f565b600080600080600060a08688031215620038ae57600080fd5b620038b9866200385f565b9450620038c9602087016200385f565b93506040860135925060608601359150620038e7608087016200385f565b90509295509295909350565b6020808252825182820181905260009190848201906040850190845b818110156200392d578351835292840192918401916001016200390f565b50909695505050505050565b7f4e487b7100000000000000000000000000000000000000000000000000000000600052604160045260246000fd5b604051601f82017fffffffffffffffffffffffffffffffffffffffffffffffffffffffffffffffe016810167ffffffffffffffff81118282101715620039b257620039b262003939565b604052919050565b600067ffffffffffffffff821115620039d757620039d762003939565b5060051b60200190565b600082601f830112620039f357600080fd5b8135602062003a0c62003a0683620039ba565b62003968565b82815260059290921b8401810191818101908684111562003a2c57600080fd5b8286015b8481101562003a49578035835291830191830162003a30565b509695505050505050565b60008060006060848603121562003a6a57600080fd5b83359250602084013567ffffffffffffffff81111562003a8957600080fd5b62003a9786828701620039e1565b925050604084013590509250925092565b803560ff8116811462001ab557600080fd5b6000806000806080858703121562003ad157600080fd5b8435935062003ae36020860162003aa8565b93969395505050506040820135916060013590565b60008060006060848603121562003b0e57600080fd5b833567ffffffffffffffff81111562003b2657600080fd5b62003b3486828701620039e1565b9660208601359650604090950135949350505050565b6000806040838503121562003b5e57600080fd5b50508035926020909101359150565b60008060006060848603121562003b8357600080fd5b505081359360208301359350604090920135919050565b6000806040838503121562003bae57600080fd5b62003bb9836200385f565b946020939093013593505050565b60006020828403121562003bda57600080fd5b62001bed8262003aa8565b60008060006060848603121562003bfb57600080fd5b62003c06846200385f565b92506020840135915062003c1d6040850162003aa8565b90509250925092565b60008060006060848603121562003c3c57600080fd5b62003c478462003aa8565b925062003c576020850162003aa8565b9150604084013590509250925092565b6020808252825182820181905260009190848201906040850190845b818110156200392d5783516001600160a01b03168352928401929184019160010162003c83565b60008060008060008060c0878903121562003cc457600080fd5b62003ccf8762003aa8565b955062003cdf6020880162003aa8565b9450604087013593506060870135925062003cfd608088016200385f565b915060a087013590509295509295509295565b60008060006060848603121562003d2657600080fd5b62003d31846200385f565b925062003c57602085016200385f565b600082601f83011262003d5357600080fd5b8135602062003d6662003a0683620039ba565b82815260059290921b8401810191818101908684111562003d8657600080fd5b8286015b8481101562003a495762003d9e816200385f565b835291830191830162003d8a565b600082601f83011262003dbe57600080fd5b8135602062003dd162003a0683620039ba565b82815260059290921b8401810191818101908684111562003df157600080fd5b8286015b8481101562003a495762003e098162003aa8565b835291830191830162003df5565b600082601f83011262003e2957600080fd5b813567ffffffffffffffff81111562003e465762003e4662003939565b62003e7960207fffffffffffffffffffffffffffffffffffffffffffffffffffffffffffffffe0601f8401160162003968565b81815284602083860101111562003e8f57600080fd5b816020850160208301376000918101602001919091529392505050565b60008060008060008060008060006101208a8c03121562003ecc57600080fd5b893567ffffffffffffffff8082111562003ee557600080fd5b62003ef38d838e0162003d41565b9a5060208c013591508082111562003f0a57600080fd5b62003f188d838e0162003dac565b995060408c013591508082111562003f2f57600080fd5b62003f3d8d838e0162003e17565b985060608c013591508082111562003f5457600080fd5b5062003f638c828d0162003e17565b96505060808a0135945060a08a0135935060c08a0135925060e08a0135915062003f916101008b016200385f565b90509295985092959850929598565b80151581146200312757600080fd5b60008060006040848603121562003fc557600080fd5b833567ffffffffffffffff8082111562003fde57600080fd5b818601915086601f83011262003ff357600080fd5b8135818111156200400357600080fd5b8760208260051b85010111156200401957600080fd5b60209283019550935050840135620040318162003fa0565b809150509250925092565b6000602082840312156200404f57600080fd5b5051919050565b7f4e487b7100000000000000000000000000000000000000000000000000000000600052603260045260246000fd5b7f4e487b7100000000000000000000000000000000000000000000000000000000600052601160045260246000fd5b60007fffffffffffffffffffffffffffffffffffffffffffffffffffffffffffffffff821415620040e957620040e962004085565b5060010190565b600081518084526020808501945080840160005b83811015620041225781518752958201959082019060010162004104565b509495945050505050565b8381528260208201526060604082015260006200414e6060830184620040f0565b95945050505050565b600060208083850312156200416b57600080fd5b825167ffffffffffffffff8111156200418357600080fd5b8301601f810185136200419557600080fd5b8051620041a662003a0682620039ba565b81815260059190911b82018301908381019087831115620041c657600080fd5b928401925b82841015620041e657835182529284019290840190620041cb565b979650505050505050565b8381526060602082015260006200420c6060830185620040f0565b9050826040830152949350505050565b6000821982111562004232576200423262004085565b500190565b6000817fffffffffffffffffffffffffffffffffffffffffffffffffffffffffffffffff048311821515161562004272576200427262004085565b500290565b6000828210156200428c576200428c62004085565b500390565b600181815b80851115620042f057817fffffffffffffffffffffffffffffffffffffffffffffffffffffffffffffffff04821115620042d457620042d462004085565b80851615620042e257918102915b93841c939080029062004296565b509250929050565b6000826200430957506001620011f2565b816200431857506000620011f2565b81600181146200433157600281146200433c576200435c565b6001915050620011f2565b60ff84111562004350576200435062004085565b50506001821b620011f2565b5060208310610133831016604e8410600b841016171562004381575081810a620011f2565b6200438d838362004291565b807fffffffffffffffffffffffffffffffffffffffffffffffffffffffffffffffff04821115620043c257620043c262004085565b029392505050565b600062001bed8383620042f8565b60005b83811015620043f5578181015183820152602001620043db565b838111156200370c5750506000910152565b6000815180845262004421816020860160208601620043d8565b601f017fffffffffffffffffffffffffffffffffffffffffffffffffffffffffffffffe0169290920160200192915050565b60408152600062004468604083018562004407565b82810360208401526200414e818562004407565b8481526060602082015282606082015260007f07ffffffffffffffffffffffffffffffffffffffffffffffffffffffffffffff841115620044bc57600080fd5b8360051b808660808501376000908301608001908152921515604090920191909152509392505050565b6000826200451d577f4e487b7100000000000000000000000000000000000000000000000000000000600052601260045260246000fd5b500490565b6000825162004536818460208701620043d8565b9190910192915050565b6000602082840312156200455357600080fd5b815162001bed8162003fa056fe60806040523480156200001157600080fd5b506040516200161138038062001611833981016040819052620000349162000256565b8181620000413362000093565b815162000056906004906020850190620000e3565b5080516200006c906005906020840190620000e3565b50506006805433610100026001600160a81b031990911617601217905550620002fd915050565b600080546001600160a01b038381166001600160a01b0319831681178455604051919092169283917f8be0079c531659141344cd1fd0a4f28419497f9722a3daafe3b4186f6b6457e09190a35050565b828054620000f190620002c0565b90600052602060002090601f01602090048101928262000115576000855562000160565b82601f106200013057805160ff191683800117855562000160565b8280016001018555821562000160579182015b828111156200016057825182559160200191906001019062000143565b506200016e92915062000172565b5090565b5b808211156200016e576000815560010162000173565b634e487b7160e01b600052604160045260246000fd5b600082601f830112620001b157600080fd5b81516001600160401b0380821115620001ce57620001ce62000189565b604051601f8301601f19908116603f01168101908282118183101715620001f957620001f962000189565b816040528381526020925086838588010111156200021657600080fd5b600091505b838210156200023a57858201830151818301840152908201906200021b565b838211156200024c5760008385830101525b9695505050505050565b600080604083850312156200026a57600080fd5b82516001600160401b03808211156200028257600080fd5b62000290868387016200019f565b93506020850151915080821115620002a757600080fd5b50620002b6858286016200019f565b9150509250929050565b600181811c90821680620002d557607f821691505b60208210811415620002f757634e487b7160e01b600052602260045260246000fd5b50919050565b611304806200030d6000396000f3fe608060405234801561001057600080fd5b50600436106101365760003560e01c8063715018a6116100b257806395d89b4111610081578063a9059cbb11610066578063a9059cbb146102bf578063dd62ed3e146102d2578063f2fde38b1461031857600080fd5b806395d89b41146102a4578063a457c2d7146102ac57600080fd5b8063715018a61461022157806379cc6790146102295780638119c0651461023c5780638da5cb5b1461028657600080fd5b8063313ce5671161010957806340c10f19116100ee57806340c10f19146101c357806342966c68146101d857806370a08231146101eb57600080fd5b8063313ce567146101a157806339509351146101b057600080fd5b806306fdde031461013b578063095ea7b31461015957806318160ddd1461017c57806323b872dd1461018e575b600080fd5b61014361032b565b60405161015091906110ac565b60405180910390f35b61016c610167366004611148565b6103bd565b6040519015158152602001610150565b6003545b604051908152602001610150565b61016c61019c366004611172565b6103d3565b60405160128152602001610150565b61016c6101be366004611148565b6104a4565b6101d66101d1366004611148565b6104ed565b005b6101d66101e63660046111ae565b6105b2565b6101806101f93660046111c7565b73ffffffffffffffffffffffffffffffffffffffff1660009081526001602052604090205490565b6101d66105bf565b6101d6610237366004611148565b610632565b60065461026190610100900473ffffffffffffffffffffffffffffffffffffffff1681565b60405173ffffffffffffffffffffffffffffffffffffffff9091168152602001610150565b60005473ffffffffffffffffffffffffffffffffffffffff16610261565b61014361068c565b61016c6102ba366004611148565b61069b565b61016c6102cd366004611148565b610759565b6101806102e03660046111e9565b73ffffffffffffffffffffffffffffffffffffffff918216600090815260026020908152604080832093909416825291909152205490565b6101d66103263660046111c7565b610766565b60606004805461033a9061121c565b80601f01602080910402602001604051908101604052809291908181526020018280546103669061121c565b80156103b35780601f10610388576101008083540402835291602001916103b3565b820191906000526020600020905b81548152906001019060200180831161039657829003601f168201915b5050505050905090565b60006103ca33848461085f565b50600192915050565b60006103e08484846109de565b73ffffffffffffffffffffffffffffffffffffffff841660009081526002602090815260408083203384529091529020548281101561048c5760405162461bcd60e51b815260206004820152602860248201527f45524332303a207472616e7366657220616d6f756e742065786365656473206160448201527f6c6c6f77616e636500000000000000000000000000000000000000000000000060648201526084015b60405180910390fd5b610499853385840361085f565b506001949350505050565b33600081815260026020908152604080832073ffffffffffffffffffffffffffffffffffffffff8716845290915281205490916103ca9185906104e890869061129f565b61085f565b60005473ffffffffffffffffffffffffffffffffffffffff1633146105545760405162461bcd60e51b815260206004820181905260248201527f4f776e61626c653a2063616c6c6572206973206e6f7420746865206f776e65726044820152606401610483565b600081116105a45760405162461bcd60e51b815260206004820152600e60248201527f7a65726f4d696e74416d6f756e740000000000000000000000000000000000006044820152606401610483565b6105ae8282610c4f565b5050565b6105bc3382610d61565b50565b60005473ffffffffffffffffffffffffffffffffffffffff1633146106265760405162461bcd60e51b815260206004820181905260248201527f4f776e61626c653a2063616c6c6572206973206e6f7420746865206f776e65726044820152606401610483565b6106306000610f26565b565b73ffffffffffffffffffffffffffffffffffffffff8216600090815260026020908152604080832033845290915281205461067090836101a1610f9b565b905061067d83338361085f565b6106878383610d61565b505050565b60606005805461033a9061121c565b33600090815260026020908152604080832073ffffffffffffffffffffffffffffffffffffffff86168452909152812054828110156107425760405162461bcd60e51b815260206004820152602560248201527f45524332303a2064656372656173656420616c6c6f77616e63652062656c6f7760448201527f207a65726f0000000000000000000000000000000000000000000000000000006064820152608401610483565b61074f338585840361085f565b5060019392505050565b60006103ca3384846109de565b60005473ffffffffffffffffffffffffffffffffffffffff1633146107cd5760405162461bcd60e51b815260206004820181905260248201527f4f776e61626c653a2063616c6c6572206973206e6f7420746865206f776e65726044820152606401610483565b73ffffffffffffffffffffffffffffffffffffffff81166108565760405162461bcd60e51b815260206004820152602660248201527f4f776e61626c653a206e6577206f776e657220697320746865207a65726f206160448201527f64647265737300000000000000000000000000000000000000000000000000006064820152608401610483565b6105bc81610f26565b73ffffffffffffffffffffffffffffffffffffffff83166108e75760405162461bcd60e51b8152602060048201526024808201527f45524332303a20617070726f76652066726f6d20746865207a65726f2061646460448201527f72657373000000000000000000000000000000000000000000000000000000006064820152608401610483565b73ffffffffffffffffffffffffffffffffffffffff82166109705760405162461bcd60e51b815260206004820152602260248201527f45524332303a20617070726f766520746f20746865207a65726f20616464726560448201527f73730000000000000000000000000000000000000000000000000000000000006064820152608401610483565b73ffffffffffffffffffffffffffffffffffffffff83811660008181526002602090815260408083209487168084529482529182902085905590518481527f8c5be1e5ebec7d5bd14f71427d1e84f3dd0314c0f7b2291e5b200ac8c7c3b925910160405180910390a3505050565b73ffffffffffffffffffffffffffffffffffffffff8316610a675760405162461bcd60e51b815260206004820152602560248201527f45524332303a207472616e736665722066726f6d20746865207a65726f20616460448201527f64726573730000000000000000000000000000000000000000000000000000006064820152608401610483565b73ffffffffffffffffffffffffffffffffffffffff8216610af05760405162461bcd60e51b815260206004820152602360248201527f45524332303a207472616e7366657220746f20746865207a65726f206164647260448201527f65737300000000000000000000000000000000000000000000000000000000006064820152608401610483565b610afb838383610fbf565b73ffffffffffffffffffffffffffffffffffffffff831660009081526001602052604090205481811015610b975760405162461bcd60e51b815260206004820152602660248201527f45524332303a207472616e7366657220616d6f756e742065786365656473206260448201527f616c616e636500000000000000000000000000000000000000000000000000006064820152608401610483565b73ffffffffffffffffffffffffffffffffffffffff808516600090815260016020526040808220858503905591851681529081208054849290610bdb90849061129f565b925050819055508273ffffffffffffffffffffffffffffffffffffffff168473ffffffffffffffffffffffffffffffffffffffff167fddf252ad1be2c89b69c2b068fc378daa952ba7f163c4a11628f55a4df523b3ef84604051610c4191815260200190565b60405180910390a350505050565b73ffffffffffffffffffffffffffffffffffffffff8216610cb25760405162461bcd60e51b815260206004820152601f60248201527f45524332303a206d696e7420746f20746865207a65726f2061646472657373006044820152606401610483565b610cbe60008383610fbf565b8060036000828254610cd0919061129f565b909155505073ffffffffffffffffffffffffffffffffffffffff821660009081526001602052604081208054839290610d0a90849061129f565b909155505060405181815273ffffffffffffffffffffffffffffffffffffffff8316906000907fddf252ad1be2c89b69c2b068fc378daa952ba7f163c4a11628f55a4df523b3ef9060200160405180910390a35050565b73ffffffffffffffffffffffffffffffffffffffff8216610dea5760405162461bcd60e51b815260206004820152602160248201527f45524332303a206275726e2066726f6d20746865207a65726f2061646472657360448201527f73000000000000000000000000000000000000000000000000000000000000006064820152608401610483565b610df682600083610fbf565b73ffffffffffffffffffffffffffffffffffffffff821660009081526001602052604090205481811015610e925760405162461bcd60e51b815260206004820152602260248201527f45524332303a206275726e20616d6f756e7420657863656564732062616c616e60448201527f63650000000000000000000000000000000000000000000000000000000000006064820152608401610483565b73ffffffffffffffffffffffffffffffffffffffff83166000908152600160205260408120838303905560038054849290610ece9084906112b7565b909155505060405182815260009073ffffffffffffffffffffffffffffffffffffffff8516907fddf252ad1be2c89b69c2b068fc378daa952ba7f163c4a11628f55a4df523b3ef9060200160405180910390a3505050565b6000805473ffffffffffffffffffffffffffffffffffffffff8381167fffffffffffffffffffffffff0000000000000000000000000000000000000000831681178455604051919092169283917f8be0079c531659141344cd1fd0a4f28419497f9722a3daafe3b4186f6b6457e09190a35050565b6000610faa8484111583611056565b6000610fb684866112b7565b95945050505050565b6006546040517fc00c125c00000000000000000000000000000000000000000000000000000000815273ffffffffffffffffffffffffffffffffffffffff8481166004830152602482018490526101009092049091169063c00c125c90604401600060405180830381600087803b15801561103957600080fd5b505af115801561104d573d6000803e3d6000fd5b50505050505050565b816105ae5762461bcd60e51b600090815260206004526007602452600a808304818104828106603090810160101b848706949093060160081b929092010166524551230000300160c81b6044526105ae91606490fd5b600060208083528351808285015260005b818110156110d9578581018301518582016040015282016110bd565b818111156110eb576000604083870101525b50601f017fffffffffffffffffffffffffffffffffffffffffffffffffffffffffffffffe016929092016040019392505050565b803573ffffffffffffffffffffffffffffffffffffffff8116811461114357600080fd5b919050565b6000806040838503121561115b57600080fd5b6111648361111f565b946020939093013593505050565b60008060006060848603121561118757600080fd5b6111908461111f565b925061119e6020850161111f565b9150604084013590509250925092565b6000602082840312156111c057600080fd5b5035919050565b6000602082840312156111d957600080fd5b6111e28261111f565b9392505050565b600080604083850312156111fc57600080fd5b6112058361111f565b91506112136020840161111f565b90509250929050565b600181811c9082168061123057607f821691505b6020821081141561126a577f4e487b7100000000000000000000000000000000000000000000000000000000600052602260045260246000fd5b50919050565b7f4e487b7100000000000000000000000000000000000000000000000000000000600052601160045260246000fd5b600082198211156112b2576112b2611270565b500190565b6000828210156112c9576112c9611270565b50039056fea2646970667358221220901995dc99d1bf3317f83f3d43645017723dd3892f756276f9450fd371d475df64736f6c634300080a0033a264697066735822122046b67b023d1b03248e679e15992252b74e11d4fa6049b6c3f38a929c895cf33864736f6c634300080a0033",
  "linkReferences": {
    "contracts/RequiemStableSwapLib.sol": {
      "RequiemStableSwapLib": [
        {
          "length": 20,
          "start": 2273
        },
        {
          "length": 20,
          "start": 2702
        },
        {
          "length": 20,
          "start": 2959
        },
        {
          "length": 20,
          "start": 3329
        },
        {
          "length": 20,
          "start": 3812
        },
        {
          "length": 20,
          "start": 4275
        },
        {
          "length": 20,
          "start": 5070
        },
        {
          "length": 20,
          "start": 5428
        },
        {
          "length": 20,
          "start": 5977
        },
        {
          "length": 20,
          "start": 7166
        },
        {
          "length": 20,
          "start": 7787
        },
        {
          "length": 20,
          "start": 7893
        },
        {
          "length": 20,
          "start": 8118
        },
        {
          "length": 20,
          "start": 8390
        },
        {
          "length": 20,
          "start": 8903
        },
        {
          "length": 20,
          "start": 9177
        },
        {
          "length": 20,
          "start": 9485
        },
        {
          "length": 20,
          "start": 9769
        },
        {
          "length": 20,
          "start": 10228
        },
        {
          "length": 20,
          "start": 12233
        },
        {
          "length": 20,
          "start": 12311
        },
        {
          "length": 20,
          "start": 12467
        }
      ]
    }
  },
  "deployedLinkReferences": {
    "contracts/RequiemStableSwapLib.sol": {
      "RequiemStableSwapLib": [
        {
          "length": 20,
          "start": 2125
        },
        {
          "length": 20,
          "start": 2554
        },
        {
          "length": 20,
          "start": 2811
        },
        {
          "length": 20,
          "start": 3181
        },
        {
          "length": 20,
          "start": 3664
        },
        {
          "length": 20,
          "start": 4127
        },
        {
          "length": 20,
          "start": 4922
        },
        {
          "length": 20,
          "start": 5280
        },
        {
          "length": 20,
          "start": 5829
        },
        {
          "length": 20,
          "start": 7018
        },
        {
          "length": 20,
          "start": 7639
        },
        {
          "length": 20,
          "start": 7745
        },
        {
          "length": 20,
          "start": 7970
        },
        {
          "length": 20,
          "start": 8242
        },
        {
          "length": 20,
          "start": 8755
        },
        {
          "length": 20,
          "start": 9029
        },
        {
          "length": 20,
          "start": 9337
        },
        {
          "length": 20,
          "start": 9621
        },
        {
          "length": 20,
          "start": 10080
        },
        {
          "length": 20,
          "start": 12085
        },
        {
          "length": 20,
          "start": 12163
        },
        {
          "length": 20,
          "start": 12319
        }
      ]
    }
  }
}