{
  "_format": "hh-sol-artifact-1",
  "contractName": "Requiem2Pool",
  "sourceName": "contracts/Requiem2Pool.sol",
  "abi": [
    {
      "inputs": [],
      "stateMutability": "nonpayable",
      "type": "constructor"
    },
    {
      "anonymous": false,
      "inputs": [
        {
          "indexed": true,
          "internalType": "address",
          "name": "owner",
          "type": "address"
        },
        {
          "indexed": true,
          "internalType": "address",
          "name": "spender",
          "type": "address"
        },
        {
          "indexed": false,
          "internalType": "uint256",
          "name": "value",
          "type": "uint256"
        }
      ],
      "name": "Approval",
      "type": "event"
    },
    {
      "anonymous": false,
      "inputs": [
        {
          "indexed": true,
          "internalType": "address",
          "name": "sender",
          "type": "address"
        },
        {
          "indexed": false,
          "internalType": "uint256",
          "name": "amount0",
          "type": "uint256"
        },
        {
          "indexed": false,
          "internalType": "uint256",
          "name": "amount1",
          "type": "uint256"
        },
        {
          "indexed": true,
          "internalType": "address",
          "name": "to",
          "type": "address"
        }
      ],
      "name": "Burn",
      "type": "event"
    },
    {
      "anonymous": false,
      "inputs": [
        {
          "indexed": true,
          "internalType": "address",
          "name": "sender",
          "type": "address"
        },
        {
          "indexed": false,
          "internalType": "uint256",
          "name": "amount0",
          "type": "uint256"
        },
        {
          "indexed": false,
          "internalType": "uint256",
          "name": "amount1",
          "type": "uint256"
        }
      ],
      "name": "Mint",
      "type": "event"
    },
    {
      "anonymous": false,
      "inputs": [
        {
          "indexed": false,
          "internalType": "uint256",
          "name": "collectedFee0",
          "type": "uint256"
        },
        {
          "indexed": false,
          "internalType": "uint256",
          "name": "collectedFee1",
          "type": "uint256"
        }
      ],
      "name": "PaidProtocolFee",
      "type": "event"
    },
    {
      "anonymous": false,
      "inputs": [
        {
          "indexed": true,
          "internalType": "address",
          "name": "sender",
          "type": "address"
        },
        {
          "indexed": false,
          "internalType": "uint256",
          "name": "amount0In",
          "type": "uint256"
        },
        {
          "indexed": false,
          "internalType": "uint256",
          "name": "amount1In",
          "type": "uint256"
        },
        {
          "indexed": false,
          "internalType": "uint256",
          "name": "amount0Out",
          "type": "uint256"
        },
        {
          "indexed": false,
          "internalType": "uint256",
          "name": "amount1Out",
          "type": "uint256"
        },
        {
          "indexed": true,
          "internalType": "address",
          "name": "to",
          "type": "address"
        }
      ],
      "name": "Swap",
      "type": "event"
    },
    {
      "anonymous": false,
      "inputs": [
        {
          "indexed": false,
          "internalType": "uint256",
          "name": "swapFeePercentage",
          "type": "uint256"
        }
      ],
      "name": "SwapFeePercentageChanged",
      "type": "event"
    },
    {
      "anonymous": false,
      "inputs": [
        {
          "indexed": false,
          "internalType": "uint256",
          "name": "reserve0",
          "type": "uint256"
        },
        {
          "indexed": false,
          "internalType": "uint256",
          "name": "reserve1",
          "type": "uint256"
        }
      ],
      "name": "Sync",
      "type": "event"
    },
    {
      "anonymous": false,
      "inputs": [
        {
          "indexed": true,
          "internalType": "address",
          "name": "from",
          "type": "address"
        },
        {
          "indexed": true,
          "internalType": "address",
          "name": "to",
          "type": "address"
        },
        {
          "indexed": false,
          "internalType": "uint256",
          "name": "value",
          "type": "uint256"
        }
      ],
      "name": "Transfer",
      "type": "event"
    },
    {
      "inputs": [],
      "name": "DOMAIN_SEPARATOR",
      "outputs": [
        {
          "internalType": "bytes32",
          "name": "",
          "type": "bytes32"
        }
      ],
      "stateMutability": "view",
      "type": "function"
    },
    {
      "inputs": [],
      "name": "MINIMUM_LIQUIDITY",
      "outputs": [
        {
          "internalType": "uint256",
          "name": "",
          "type": "uint256"
        }
      ],
      "stateMutability": "view",
      "type": "function"
    },
    {
      "inputs": [],
      "name": "PERMIT_TYPEHASH",
      "outputs": [
        {
          "internalType": "bytes32",
          "name": "",
          "type": "bytes32"
        }
      ],
      "stateMutability": "view",
      "type": "function"
    },
    {
      "inputs": [
        {
          "internalType": "address",
          "name": "",
          "type": "address"
        },
        {
          "internalType": "address",
          "name": "",
          "type": "address"
        }
      ],
      "name": "allowance",
      "outputs": [
        {
          "internalType": "uint256",
          "name": "",
          "type": "uint256"
        }
      ],
      "stateMutability": "view",
      "type": "function"
    },
    {
      "inputs": [
        {
          "internalType": "address",
          "name": "spender",
          "type": "address"
        },
        {
          "internalType": "uint256",
          "name": "value",
          "type": "uint256"
        }
      ],
      "name": "approve",
      "outputs": [
        {
          "internalType": "bool",
          "name": "",
          "type": "bool"
        }
      ],
      "stateMutability": "nonpayable",
      "type": "function"
    },
    {
      "inputs": [
        {
          "internalType": "address",
          "name": "",
          "type": "address"
        }
      ],
      "name": "balanceOf",
      "outputs": [
        {
          "internalType": "uint256",
          "name": "",
          "type": "uint256"
        }
      ],
      "stateMutability": "view",
      "type": "function"
    },
    {
      "inputs": [],
      "name": "baseFormula",
      "outputs": [
        {
          "internalType": "address",
          "name": "",
          "type": "address"
        }
      ],
      "stateMutability": "view",
      "type": "function"
    },
    {
      "inputs": [
        {
          "internalType": "address",
          "name": "to",
          "type": "address"
        }
      ],
      "name": "burn",
      "outputs": [
        {
          "internalType": "uint256",
          "name": "amount0",
          "type": "uint256"
        },
        {
          "internalType": "uint256",
          "name": "amount1",
          "type": "uint256"
        }
      ],
      "stateMutability": "nonpayable",
      "type": "function"
    },
    {
      "inputs": [],
      "name": "decimals",
      "outputs": [
        {
          "internalType": "uint8",
          "name": "",
          "type": "uint8"
        }
      ],
      "stateMutability": "view",
      "type": "function"
    },
    {
      "inputs": [],
      "name": "factory",
      "outputs": [
        {
          "internalType": "address",
          "name": "",
          "type": "address"
        }
      ],
      "stateMutability": "view",
      "type": "function"
    },
    {
      "inputs": [],
      "name": "getCollectedFees",
      "outputs": [
        {
          "internalType": "uint256",
          "name": "_collectedFee0",
          "type": "uint256"
        },
        {
          "internalType": "uint256",
          "name": "_collectedFee1",
          "type": "uint256"
        }
      ],
      "stateMutability": "view",
      "type": "function"
    },
    {
      "inputs": [],
      "name": "getLastInvariant",
      "outputs": [
        {
          "internalType": "uint256",
          "name": "",
          "type": "uint256"
        }
      ],
      "stateMutability": "view",
      "type": "function"
    },
    {
      "inputs": [],
      "name": "getNormalizedWeights",
      "outputs": [
        {
          "internalType": "uint256[]",
          "name": "",
          "type": "uint256[]"
        }
      ],
      "stateMutability": "view",
      "type": "function"
    },
    {
      "inputs": [],
      "name": "getReserves",
      "outputs": [
        {
          "internalType": "uint256",
          "name": "_reserve0",
          "type": "uint256"
        },
        {
          "internalType": "uint256",
          "name": "_reserve1",
          "type": "uint256"
        },
        {
          "internalType": "uint32",
          "name": "_blockTimestampLast",
          "type": "uint32"
        }
      ],
      "stateMutability": "view",
      "type": "function"
    },
    {
      "inputs": [],
      "name": "getSwapFee",
      "outputs": [
        {
          "internalType": "uint32",
          "name": "_swapFee",
          "type": "uint32"
        }
      ],
      "stateMutability": "view",
      "type": "function"
    },
    {
      "inputs": [],
      "name": "getSwapFeePercentage",
      "outputs": [
        {
          "internalType": "uint256",
          "name": "",
          "type": "uint256"
        }
      ],
      "stateMutability": "view",
      "type": "function"
    },
    {
      "inputs": [],
      "name": "getTokenWeights",
      "outputs": [
        {
          "internalType": "uint256",
          "name": "_tokenWeight0",
          "type": "uint256"
        },
        {
          "internalType": "uint256",
          "name": "_tokenWeight1",
          "type": "uint256"
        }
      ],
      "stateMutability": "view",
      "type": "function"
    },
    {
      "inputs": [
        {
          "internalType": "address",
          "name": "token0",
          "type": "address"
        },
        {
          "internalType": "address",
          "name": "token1",
          "type": "address"
        },
        {
          "internalType": "uint256",
          "name": "normalizedWeight0",
          "type": "uint256"
        },
        {
          "internalType": "uint32",
          "name": "swapFeePercentage",
          "type": "uint32"
        }
      ],
      "name": "initialize",
      "outputs": [],
      "stateMutability": "nonpayable",
      "type": "function"
    },
    {
      "inputs": [
        {
          "internalType": "address",
          "name": "to",
          "type": "address"
        }
      ],
      "name": "mint",
      "outputs": [
        {
          "internalType": "uint256",
          "name": "liquidity",
          "type": "uint256"
        }
      ],
      "stateMutability": "nonpayable",
      "type": "function"
    },
    {
      "inputs": [],
      "name": "name",
      "outputs": [
        {
          "internalType": "string",
          "name": "",
          "type": "string"
        }
      ],
      "stateMutability": "view",
      "type": "function"
    },
    {
      "inputs": [
        {
          "internalType": "address",
          "name": "",
          "type": "address"
        }
      ],
      "name": "nonces",
      "outputs": [
        {
          "internalType": "uint256",
          "name": "",
          "type": "uint256"
        }
      ],
      "stateMutability": "view",
      "type": "function"
    },
    {
      "inputs": [
        {
          "components": [
            {
              "internalType": "enum IMinimalSwapInfo.SwapKind",
              "name": "kind",
              "type": "uint8"
            },
            {
              "internalType": "address",
              "name": "tokenIn",
              "type": "address"
            },
            {
              "internalType": "address",
              "name": "tokenOut",
              "type": "address"
            },
            {
              "internalType": "uint256",
              "name": "amount",
              "type": "uint256"
            },
            {
              "internalType": "address",
              "name": "from",
              "type": "address"
            },
            {
              "internalType": "address",
              "name": "to",
              "type": "address"
            }
          ],
          "internalType": "struct IMinimalSwapInfo.SwapRequest",
          "name": "request",
          "type": "tuple"
        },
        {
          "internalType": "uint256",
          "name": "balanceTokenIn",
          "type": "uint256"
        },
        {
          "internalType": "uint256",
          "name": "balanceTokenOut",
          "type": "uint256"
        }
      ],
      "name": "onSwap",
      "outputs": [
        {
          "internalType": "uint256",
          "name": "",
          "type": "uint256"
        }
      ],
      "stateMutability": "nonpayable",
      "type": "function"
    },
    {
      "inputs": [
        {
          "internalType": "address",
          "name": "owner",
          "type": "address"
        },
        {
          "internalType": "address",
          "name": "spender",
          "type": "address"
        },
        {
          "internalType": "uint256",
          "name": "value",
          "type": "uint256"
        },
        {
          "internalType": "uint256",
          "name": "deadline",
          "type": "uint256"
        },
        {
          "internalType": "uint8",
          "name": "v",
          "type": "uint8"
        },
        {
          "internalType": "bytes32",
          "name": "r",
          "type": "bytes32"
        },
        {
          "internalType": "bytes32",
          "name": "s",
          "type": "bytes32"
        }
      ],
      "name": "permit",
      "outputs": [],
      "stateMutability": "nonpayable",
      "type": "function"
    },
    {
      "inputs": [],
      "name": "price0CumulativeLast",
      "outputs": [
        {
          "internalType": "uint256",
          "name": "",
          "type": "uint256"
        }
      ],
      "stateMutability": "view",
      "type": "function"
    },
    {
      "inputs": [],
      "name": "price1CumulativeLast",
      "outputs": [
        {
          "internalType": "uint256",
          "name": "",
          "type": "uint256"
        }
      ],
      "stateMutability": "view",
      "type": "function"
    },
    {
      "inputs": [
        {
          "internalType": "address",
          "name": "to",
          "type": "address"
        }
      ],
      "name": "skim",
      "outputs": [],
      "stateMutability": "nonpayable",
      "type": "function"
    },
    {
      "inputs": [],
      "name": "symbol",
      "outputs": [
        {
          "internalType": "string",
          "name": "",
          "type": "string"
        }
      ],
      "stateMutability": "view",
      "type": "function"
    },
    {
      "inputs": [],
      "name": "sync",
      "outputs": [],
      "stateMutability": "nonpayable",
      "type": "function"
    },
    {
      "inputs": [],
      "name": "token0",
      "outputs": [
        {
          "internalType": "address",
          "name": "",
          "type": "address"
        }
      ],
      "stateMutability": "view",
      "type": "function"
    },
    {
      "inputs": [],
      "name": "token1",
      "outputs": [
        {
          "internalType": "address",
          "name": "",
          "type": "address"
        }
      ],
      "stateMutability": "view",
      "type": "function"
    },
    {
      "inputs": [],
      "name": "totalSupply",
      "outputs": [
        {
          "internalType": "uint256",
          "name": "",
          "type": "uint256"
        }
      ],
      "stateMutability": "view",
      "type": "function"
    },
    {
      "inputs": [
        {
          "internalType": "address",
          "name": "to",
          "type": "address"
        },
        {
          "internalType": "uint256",
          "name": "value",
          "type": "uint256"
        }
      ],
      "name": "transfer",
      "outputs": [
        {
          "internalType": "bool",
          "name": "",
          "type": "bool"
        }
      ],
      "stateMutability": "nonpayable",
      "type": "function"
    },
    {
      "inputs": [
        {
          "internalType": "address",
          "name": "from",
          "type": "address"
        },
        {
          "internalType": "address",
          "name": "to",
          "type": "address"
        },
        {
          "internalType": "uint256",
          "name": "value",
          "type": "uint256"
        }
      ],
      "name": "transferFrom",
      "outputs": [
        {
          "internalType": "bool",
          "name": "",
          "type": "bool"
        }
      ],
      "stateMutability": "nonpayable",
      "type": "function"
    }
  ],
  "bytecode": "0x60a06040526001600e553480156200001657600080fd5b50604080518082018252601a81527f5265717569656d204c69717569646974792050726f76696465720000000000006020918201528151808301835260018152603160f81b9082015281517f8b73c3c69bb8fe3d512ecc4cf759cc79239f7b179b0ffacaa9a75d522b39400f818301527f2e1adfbb118fada029d9623aa0ed8dd2318a25545f57095be55dcbd209508e12818401527fc89efdaa54c0f20c7adf612882df0950f5a951637e0307cdcb4c672f298b8bc660608201524660808201523060a0808301919091528351808303909101815260c08201808552815191840191909120600355600580546001600160a01b031916339081179091556328b1fab360e01b90915292516328b1fab39260c4808401939192918290030181865afa15801562000149573d6000803e3d6000fd5b505050506040513d601f19601f820116820180604052508101906200016f919062000181565b6001600160a01b0316608052620001b3565b6000602082840312156200019457600080fd5b81516001600160a01b0381168114620001ac57600080fd5b9392505050565b60805161302b620001e46000396000818161088b0152818161093901528181611b510152611c3c015261302b6000f3fe608060405234801561001057600080fd5b506004361061020b5760003560e01c806370a082311161012a578063bc25cf77116100bd578063d505accf1161008c578063dd62ed3e11610071578063dd62ed3e1461053b578063f89f27ed14610566578063fff6cae91461057b57600080fd5b8063d505accf1461051d578063d54a8d181461053057600080fd5b8063bc25cf77146104b2578063c45a0155146104c5578063d21220a7146104e5578063d4cadf681461050557600080fd5b806395d89b41116100f957806395d89b41146104525780639b02cdde1461048e578063a9059cbb14610496578063ba9a7a56146104a957600080fd5b806370a08231146103df5780637ecebe00146103ff57806389afcb441461041f578063955a8d381461043257600080fd5b806332bfe469116101a2578063566f7f9c11610171578063566f7f9c146103a55780635909c0d5146103ba5780635a3d5493146103c35780636a627842146103cc57600080fd5b806332bfe4691461035f5780633644e5151461037b5780635543410f1461038457806355c676281461039757600080fd5b806318160ddd116101de57806318160ddd146102f457806323b872dd1461030b57806330adf81f1461031e578063313ce5671461034557600080fd5b806306fdde03146102105780630902f1ac14610262578063095ea7b31461028c5780630dfe1681146102af575b600080fd5b61024c6040518060400160405280601a81526020017f5265717569656d204c69717569646974792050726f766964657200000000000081525081565b6040516102599190612936565b60405180910390f35b600954600a54600b5460408051938452602084019290925263ffffffff1690820152606001610259565b61029f61029a3660046129b7565b610583565b6040519015158152602001610259565b6007546102cf9073ffffffffffffffffffffffffffffffffffffffff1681565b60405173ffffffffffffffffffffffffffffffffffffffff9091168152602001610259565b6102fd60005481565b604051908152602001610259565b61029f6103193660046129e3565b61059a565b6102fd7f6e71edae12b1b97f4d1f60370fef10105fa2faae0126114a169c64845d6126c981565b61034d601281565b60405160ff9091168152602001610259565b6015546016545b60408051928352602083019190915201610259565b6102fd60035481565b6102fd610392366004612a33565b610674565b601a5463ffffffff166102fd565b6103b86103b3366004612b14565b6107cf565b005b6102fd600c5481565b6102fd600d5481565b6102fd6103da366004612b70565b610a5a565b6102fd6103ed366004612b70565b60016020526000908152604090205481565b6102fd61040d366004612b70565b60046020526000908152604090205481565b61036661042d366004612b70565b610d95565b6006546102cf9073ffffffffffffffffffffffffffffffffffffffff1681565b61024c6040518060400160405280600381526020017f524c50000000000000000000000000000000000000000000000000000000000081525081565b6012546102fd565b61029f6104a43660046129b7565b6111ef565b6102fd6103e881565b6103b86104c0366004612b70565b6111fc565b6005546102cf9073ffffffffffffffffffffffffffffffffffffffff1681565b6008546102cf9073ffffffffffffffffffffffffffffffffffffffff1681565b601a5460405163ffffffff9091168152602001610259565b6103b861052b366004612b9c565b61138c565b600f54601054610366565b6102fd610549366004612c0d565b600260209081526000928352604080842090915290825290205481565b61056e611677565b6040516102599190612c46565b6103b8611686565b600061059033848461182f565b5060015b92915050565b73ffffffffffffffffffffffffffffffffffffffff831660009081526002602090815260408083203384529091528120547fffffffffffffffffffffffffffffffffffffffffffffffffffffffffffffffff1461065e5773ffffffffffffffffffffffffffffffffffffffff8416600090815260026020908152604080832033845290915290205461062c908361189e565b73ffffffffffffffffffffffffffffffffffffffff851660009081526002602090815260408083203384529091529020555b6106698484846118ac565b5060015b9392505050565b601354602084015160009173ffffffffffffffffffffffffffffffffffffffff918216911614816106a482611979565b905060006106b28315611979565b905060006106bf84611990565b905060006106cd8515611990565b90506106d988856119a7565b97506106e587846119a7565b96506000895160018111156106fc576106fc612c8a565b1415610771576000610721610716601a5463ffffffff1690565b60608c0151906119b3565b905061074361073d828c60600151611a7d90919063ffffffff16565b866119a7565b60608b015260006107578b8b8b8787611afd565b90506107638186611bdc565b97505050505050505061066d565b61077f8960600151846119a7565b60608a015260006107938a8a8a8686611be8565b905061079f8186611c80565b90506107c26107bb6107b6601a5463ffffffff1690565b611c8c565b8290611cb6565b965050505050505061066d565b60055473ffffffffffffffffffffffffffffffffffffffff163314610855576040517f08c379a000000000000000000000000000000000000000000000000000000000815260206004820152601060248201527f5245514c503a20464f5242494444454e0000000000000000000000000000000060448201526064015b60405180910390fd5b600061086983670de0b6b3a7640000612ce8565b905061087485611dc8565b60185561088084611dc8565b6019819055506109347f000000000000000000000000000000000000000000000000000000000000000073ffffffffffffffffffffffffffffffffffffffff1663418307846040518163ffffffff1660e01b8152600401602060405180830381865afa1580156108f4573d6000803e3d6000fd5b505050506040513d601f19601f820116820180604052508101906109189190612cff565b61092a85670de0b6b3a7640000612d18565b101561012e611e59565b6109d87f000000000000000000000000000000000000000000000000000000000000000073ffffffffffffffffffffffffffffffffffffffff1663418307846040518163ffffffff1660e01b8152600401602060405180830381865afa1580156109a2573d6000803e3d6000fd5b505050506040513d601f19601f820116820180604052508101906109c69190612cff565b61092a83670de0b6b3a7640000612d18565b60006109e48285612d55565b90506109fc670de0b6b3a76400008214610134611e59565b6015849055601682905581841015610a15576001610a18565b60005b60ff166017555050601a80547fffffffffffffffffffffffffffffffffffffffffffffffffffffffff000000001663ffffffff92909216919091179055505050565b6000600e54600114610ac8576040517f08c379a000000000000000000000000000000000000000000000000000000000815260206004820152600d60248201527f5245514c503a204c4f434b454400000000000000000000000000000000000000604482015260640161084c565b6000600e819055600954600a54600754604080517f70a0823100000000000000000000000000000000000000000000000000000000815230600482015290519394929373ffffffffffffffffffffffffffffffffffffffff909216916370a08231916024808201926020929091908290030181865afa158015610b4f573d6000803e3d6000fd5b505050506040513d601f19601f82011682018060405250810190610b739190612cff565b6008546040517f70a0823100000000000000000000000000000000000000000000000000000000815230600482015291925060009173ffffffffffffffffffffffffffffffffffffffff909116906370a0823190602401602060405180830381865afa158015610be7573d6000803e3d6000fd5b505050506040513d601f19601f82011682018060405250810190610c0b9190612cff565b90506000610c198386611a7d565b90506000610c278386611a7d565b9050610c338686611e6b565b5060005480610c6e57610c5a6103e8610c54610c4f8587612d18565b612117565b90611a7d565b9750610c6960006103e8612187565b610ca3565b610ca087610c7c8386612d18565b610c869190612d9c565b87610c918486612d18565b610c9b9190612d9c565b612230565b97505b60008811610d32576040517f08c379a0000000000000000000000000000000000000000000000000000000008152602060048201526024808201527f5245514c503a20494e53554646494349454e545f4c49515549444954595f4d4960448201527f4e54454400000000000000000000000000000000000000000000000000000000606482015260840161084c565b610d3c8989612187565b610d4885858989612246565b604080518481526020810184905233917f4c209b5fc8ad50758f13e2e1088ba56a560dff690a1c6fef26394f4c03821c4f910160405180910390a250506001600e55509395945050505050565b600080600e54600114610e04576040517f08c379a000000000000000000000000000000000000000000000000000000000815260206004820152600d60248201527f5245514c503a204c4f434b454400000000000000000000000000000000000000604482015260640161084c565b6000600e819055600954600a54600b5483929190506007546008546040517f70a0823100000000000000000000000000000000000000000000000000000000815230600482015293955091935073ffffffffffffffffffffffffffffffffffffffff9081169291169060009083906370a0823190602401602060405180830381865afa158015610e98573d6000803e3d6000fd5b505050506040513d601f19601f82011682018060405250810190610ebc9190612cff565b6040517f70a0823100000000000000000000000000000000000000000000000000000000815230600482015290915060009073ffffffffffffffffffffffffffffffffffffffff8416906370a0823190602401602060405180830381865afa158015610f2c573d6000803e3d6000fd5b505050506040513d601f19601f82011682018060405250810190610f509190612cff565b30600090815260016020526040902054909150610f6d8787611e6b565b5060005480610f7c8584612d18565b610f869190612d9c565b995080610f938484612d18565b610f9d9190612d9c565b985060008a118015610faf5750600089115b61103a576040517f08c379a0000000000000000000000000000000000000000000000000000000008152602060048201526024808201527f5245514c503a20494e53554646494349454e545f4c49515549444954595f425560448201527f524e454400000000000000000000000000000000000000000000000000000000606482015260840161084c565b611044308361247b565b61104f868c8c61252c565b61105a858c8b61252c565b6040517f70a0823100000000000000000000000000000000000000000000000000000000815230600482015273ffffffffffffffffffffffffffffffffffffffff8716906370a0823190602401602060405180830381865afa1580156110c4573d6000803e3d6000fd5b505050506040513d601f19601f820116820180604052508101906110e89190612cff565b6040517f70a0823100000000000000000000000000000000000000000000000000000000815230600482015290945073ffffffffffffffffffffffffffffffffffffffff8616906370a0823190602401602060405180830381865afa158015611155573d6000803e3d6000fd5b505050506040513d601f19601f820116820180604052508101906111799190612cff565b925061118784848a8a612246565b604080518b8152602081018b905273ffffffffffffffffffffffffffffffffffffffff8d169133917fdccd412f0b1252819cb1fd330b93224ca42612892bb3f4f789976e6d81936496910160405180910390a350505050505050506001600e81905550915091565b60006105903384846118ac565b600e54600114611268576040517f08c379a000000000000000000000000000000000000000000000000000000000815260206004820152600d60248201527f5245514c503a204c4f434b454400000000000000000000000000000000000000604482015260640161084c565b6000600e556007546008546009546040517f70a0823100000000000000000000000000000000000000000000000000000000815230600482015273ffffffffffffffffffffffffffffffffffffffff938416939092169161132491849186919083906370a08231906024015b602060405180830381865afa1580156112f1573d6000803e3d6000fd5b505050506040513d601f19601f820116820180604052508101906113159190612cff565b61131f9190612ce8565b61252c565b600a546040517f70a0823100000000000000000000000000000000000000000000000000000000815230600482015261138291839186919073ffffffffffffffffffffffffffffffffffffffff8416906370a08231906024016112d4565b50506001600e5550565b428410156113f6576040517f08c379a000000000000000000000000000000000000000000000000000000000815260206004820152600c60248201527f524c503a20455850495245440000000000000000000000000000000000000000604482015260640161084c565b60035473ffffffffffffffffffffffffffffffffffffffff8816600090815260046020526040812080549192917f6e71edae12b1b97f4d1f60370fef10105fa2faae0126114a169c64845d6126c9918b918b918b91908761145683612db0565b9091555060408051602081019690965273ffffffffffffffffffffffffffffffffffffffff94851690860152929091166060840152608083015260a082015260c0810187905260e001604051602081830303815290604052805190602001206040516020016114f79291907f190100000000000000000000000000000000000000000000000000000000000081526002810192909252602282015260420190565b604080517fffffffffffffffffffffffffffffffffffffffffffffffffffffffffffffffe08184030181528282528051602091820120600080855291840180845281905260ff88169284019290925260608301869052608083018590529092509060019060a0016020604051602081039080840390855afa158015611580573d6000803e3d6000fd5b50506040517fffffffffffffffffffffffffffffffffffffffffffffffffffffffffffffffe0015191505073ffffffffffffffffffffffffffffffffffffffff8116158015906115fb57508873ffffffffffffffffffffffffffffffffffffffff168173ffffffffffffffffffffffffffffffffffffffff16145b611661576040517f08c379a000000000000000000000000000000000000000000000000000000000815260206004820152601660248201527f524c503a20494e56414c49445f5349474e415455524500000000000000000000604482015260640161084c565b61166c89898961182f565b505050505050505050565b60606116816126cc565b905090565b600e546001146116f2576040517f08c379a000000000000000000000000000000000000000000000000000000000815260206004820152600d60248201527f5245514c503a204c4f434b454400000000000000000000000000000000000000604482015260640161084c565b6000600e556007546040517f70a082310000000000000000000000000000000000000000000000000000000081523060048201526118289173ffffffffffffffffffffffffffffffffffffffff16906370a0823190602401602060405180830381865afa158015611767573d6000803e3d6000fd5b505050506040513d601f19601f8201168201806040525081019061178b9190612cff565b6008546040517f70a0823100000000000000000000000000000000000000000000000000000000815230600482015273ffffffffffffffffffffffffffffffffffffffff909116906370a0823190602401602060405180830381865afa1580156117f9573d6000803e3d6000fd5b505050506040513d601f19601f8201168201806040525081019061181d9190612cff565b600954600a54612246565b6001600e55565b73ffffffffffffffffffffffffffffffffffffffff83811660008181526002602090815260408083209487168084529482529182902085905590518481527f8c5be1e5ebec7d5bd14f71427d1e84f3dd0314c0f7b2291e5b200ac8c7c3b92591015b60405180910390a3505050565b600061066d83836001612747565b73ffffffffffffffffffffffffffffffffffffffff83166000908152600160205260409020546118dc908261189e565b73ffffffffffffffffffffffffffffffffffffffff8085166000908152600160205260408082209390935590841681522054611918908261276b565b73ffffffffffffffffffffffffffffffffffffffff80841660008181526001602052604090819020939093559151908516907fddf252ad1be2c89b69c2b068fc378daa952ba7f163c4a11628f55a4df523b3ef906118919085815260200190565b60008161198857601954610594565b505060185490565b60008161199f57601654610594565b505060155490565b600061066d8284612d18565b6000806119c08385612d18565b90508315806119d75750826119d58583612d9c565b145b611a3d576040517f08c379a000000000000000000000000000000000000000000000000000000000815260206004820152600c60248201527f4d554c5f4f564552464c4f570000000000000000000000000000000000000000604482015260640161084c565b80611a4c576000915050610594565b670de0b6b3a7640000611a60600183612ce8565b611a6a9190612d9c565b611a75906001612d55565b915050610594565b600082821115611ae9576040517f08c379a000000000000000000000000000000000000000000000000000000000815260206004820152600c60248201527f5355425f4f564552464c4f570000000000000000000000000000000000000000604482015260640161084c565b6000611af58385612ce8565b949350505050565b60608501516040517f5ce3dd580000000000000000000000000000000000000000000000000000000081526004810186905260248101849052604481018590526064810183905260848101919091526000907f000000000000000000000000000000000000000000000000000000000000000073ffffffffffffffffffffffffffffffffffffffff1690635ce3dd589060a4015b602060405180830381865afa158015611bae573d6000803e3d6000fd5b505050506040513d601f19601f82011682018060405250810190611bd29190612cff565b9695505050505050565b600061066d8383612788565b60608501516040517fe9be73ef0000000000000000000000000000000000000000000000000000000081526004810186905260248101849052604481018590526064810183905260848101919091526000907f000000000000000000000000000000000000000000000000000000000000000073ffffffffffffffffffffffffffffffffffffffff169063e9be73ef9060a401611b91565b600061066d83836127fb565b6000670de0b6b3a76400008210611ca4576000610594565b61059482670de0b6b3a7640000612ce8565b600081611d1f576040517f08c379a000000000000000000000000000000000000000000000000000000000815260206004820152600d60248201527f5a45524f5f4449564953494f4e00000000000000000000000000000000000000604482015260640161084c565b82611d2c57506000610594565b6000611d40670de0b6b3a764000085612d18565b9050670de0b6b3a7640000611d558583612d9c565b14611dbc576040517f08c379a000000000000000000000000000000000000000000000000000000000815260206004820152600c60248201527f4449565f494e5445524e414c0000000000000000000000000000000000000000604482015260640161084c565b82611a60600183612ce8565b6000808273ffffffffffffffffffffffffffffffffffffffff1663313ce5676040518163ffffffff1660e01b8152600401602060405180830381865afa158015611e16573d6000803e3d6000fd5b505050506040513d601f19601f82011682018060405250810190611e3a9190612de9565b60ff1690506000611e4c826012612ce8565b9050611af581600a612f26565b81611e6757611e6781612899565b5050565b600080600560009054906101000a900473ffffffffffffffffffffffffffffffffffffffff1673ffffffffffffffffffffffffffffffffffffffff1663017e7e586040518163ffffffff1660e01b8152600401602060405180830381865afa158015611edb573d6000803e3d6000fd5b505050506040513d601f19601f82011682018060405250810190611eff9190612f32565b90506000600560009054906101000a900473ffffffffffffffffffffffffffffffffffffffff1673ffffffffffffffffffffffffffffffffffffffff1663b0e21e8a6040518163ffffffff1660e01b8152600401602060405180830381865afa158015611f70573d6000803e3d6000fd5b505050506040513d601f19601f82011682018060405250810190611f949190612cff565b73ffffffffffffffffffffffffffffffffffffffff8316151593509050600080611fc1600f546010549091565b91509150600083118015611fd25750845b8015611fe857506000821180611fe85750600081115b156120f5576011546006546000805463ffffffff90931692909173ffffffffffffffffffffffffffffffffffffffff1690630c8750c2908b8b8661202d816064612ce8565b6120378c8c612d9c565b6120418d8c612d9c565b6040517fffffffff0000000000000000000000000000000000000000000000000000000060e08a901b1681526004810197909752602487019590955260448601939093526064850191909152608484015260a483015260c482015260e401602060405180830381865afa1580156120bc573d6000803e3d6000fd5b505050506040513d601f19601f820116820180604052508101906120e09190612cff565b905080156120f2576120f28682612187565b50505b8115612101576000600f555b801561210d5760006010555b5050505092915050565b600060038211156121785750806000612131600283612d9c565b61213c906001612d55565b90505b81811015612172579050806002816121578186612d9c565b6121619190612d55565b61216b9190612d9c565b905061213f565b50919050565b8115612182575060015b919050565b600054612194908261276b565b600090815573ffffffffffffffffffffffffffffffffffffffff83168152600160205260409020546121c6908261276b565b73ffffffffffffffffffffffffffffffffffffffff83166000818152600160205260408082209390935591519091907fddf252ad1be2c89b69c2b068fc378daa952ba7f163c4a11628f55a4df523b3ef906122249085815260200190565b60405180910390a35050565b600081831061223f578161066d565b5090919050565b60115463ffffffff167fffffffffffffffffffffffffffffffffffffffffffffffffffffffffffffffff61227b826064612ce8565b6122859087612d18565b111580156122bc57507fffffffffffffffffffffffffffffffffffffffffffffffffffffffffffffffff6122b98286612d18565b11155b612322576040517f08c379a000000000000000000000000000000000000000000000000000000000815260206004820152600f60248201527f5245514c503a204f564552464c4f570000000000000000000000000000000000604482015260640161084c565b600061233364010000000042612f4f565b600b5490915060009061234c9063ffffffff1683612f63565b905060008163ffffffff1611801561236357508415155b801561236e57508315155b156123ff576000612380846064612ce8565b61238a9087612d18565b905060006123988587612d18565b905063ffffffff83166123ab8383612d9c565b6123b59190612d18565b600c60008282546123c69190612d55565b909155505063ffffffff83166123dc8284612d9c565b6123e69190612d18565b600d60008282546123f79190612d55565b909155505050505b6009879055600a869055600b80547fffffffffffffffffffffffffffffffffffffffffffffffffffffffff000000001663ffffffff841617905560408051888152602081018890527fcf2aa50876cdfbb541206f89af0ee78d44a2abf8d328e37fa4917f982149848a910160405180910390a150505050505050565b73ffffffffffffffffffffffffffffffffffffffff82166000908152600160205260409020546124ab908261189e565b73ffffffffffffffffffffffffffffffffffffffff8316600090815260016020526040812091909155546124df908261189e565b600090815560405182815273ffffffffffffffffffffffffffffffffffffffff8416907fddf252ad1be2c89b69c2b068fc378daa952ba7f163c4a11628f55a4df523b3ef90602001612224565b604080518082018252601981527f7472616e7366657228616464726573732c75696e743235362900000000000000602091820152815173ffffffffffffffffffffffffffffffffffffffff85811660248301526044808301869052845180840390910181526064909201845291810180517bffffffffffffffffffffffffffffffffffffffffffffffffffffffff167fa9059cbb00000000000000000000000000000000000000000000000000000000179052915160009283928716916125f39190612f88565b6000604051808303816000865af19150503d8060008114612630576040519150601f19603f3d011682016040523d82523d6000602084013e612635565b606091505b509150915081801561265f57508051158061265f57508080602001905181019061265f9190612fa4565b6126c5576040517f08c379a000000000000000000000000000000000000000000000000000000000815260206004820152601660248201527f5245514c503a205452414e534645525f4641494c454400000000000000000000604482015260640161084c565b5050505050565b604080516002808252606080830184529260009291906020830190803683370190505090506126fb6001611990565b8160008151811061270e5761270e612fc6565b6020026020010181815250506127246000611990565b8160018151811061273757612737612fc6565b6020908102919091010152919050565b60006127568484111583611e59565b60006127628486612ce8565b95945050505050565b6000806127788385612d55565b905061066d848210156000611e59565b6000816127f1576040517f08c379a000000000000000000000000000000000000000000000000000000000815260206004820152600d60248201527f5a45524f5f4449564953494f4e00000000000000000000000000000000000000604482015260640161084c565b61066d8284612d9c565b600081612864576040517f08c379a000000000000000000000000000000000000000000000000000000000815260206004820152600d60248201527f5a45524f5f4449564953494f4e00000000000000000000000000000000000000604482015260640161084c565b8261287157506000610594565b8161287d600185612ce8565b6128879190612d9c565b612892906001612d55565b9050610594565b7f08c379a0000000000000000000000000000000000000000000000000000000006000908152602060045260076024526652455123000030600a808404818106603090810160081b95839006959095019082900491820690940160101b939093010160c81b604452606490fd5b60005b83811015612921578181015183820152602001612909565b83811115612930576000848401525b50505050565b6020815260008251806020840152612955816040850160208701612906565b601f017fffffffffffffffffffffffffffffffffffffffffffffffffffffffffffffffe0169190910160400192915050565b73ffffffffffffffffffffffffffffffffffffffff811681146129a957600080fd5b50565b803561218281612987565b600080604083850312156129ca57600080fd5b82356129d581612987565b946020939093013593505050565b6000806000606084860312156129f857600080fd5b8335612a0381612987565b92506020840135612a1381612987565b929592945050506040919091013590565b80356002811061218257600080fd5b6000806000838503610100811215612a4a57600080fd5b60c0811215612a5857600080fd5b5060405160c0810181811067ffffffffffffffff82111715612aa3577f4e487b7100000000000000000000000000000000000000000000000000000000600052604160045260246000fd5b604052612aaf85612a24565b8152612abd602086016129ac565b6020820152612ace604086016129ac565b604082015260608501356060820152612ae9608086016129ac565b6080820152612afa60a086016129ac565b60a08201529560c0850135955060e0909401359392505050565b60008060008060808587031215612b2a57600080fd5b8435612b3581612987565b93506020850135612b4581612987565b925060408501359150606085013563ffffffff81168114612b6557600080fd5b939692955090935050565b600060208284031215612b8257600080fd5b813561066d81612987565b60ff811681146129a957600080fd5b600080600080600080600060e0888a031215612bb757600080fd5b8735612bc281612987565b96506020880135612bd281612987565b955060408801359450606088013593506080880135612bf081612b8d565b9699959850939692959460a0840135945060c09093013592915050565b60008060408385031215612c2057600080fd5b8235612c2b81612987565b91506020830135612c3b81612987565b809150509250929050565b6020808252825182820181905260009190848201906040850190845b81811015612c7e57835183529284019291840191600101612c62565b50909695505050505050565b7f4e487b7100000000000000000000000000000000000000000000000000000000600052602160045260246000fd5b7f4e487b7100000000000000000000000000000000000000000000000000000000600052601160045260246000fd5b600082821015612cfa57612cfa612cb9565b500390565b600060208284031215612d1157600080fd5b5051919050565b6000817fffffffffffffffffffffffffffffffffffffffffffffffffffffffffffffffff0483118215151615612d5057612d50612cb9565b500290565b60008219821115612d6857612d68612cb9565b500190565b7f4e487b7100000000000000000000000000000000000000000000000000000000600052601260045260246000fd5b600082612dab57612dab612d6d565b500490565b60007fffffffffffffffffffffffffffffffffffffffffffffffffffffffffffffffff821415612de257612de2612cb9565b5060010190565b600060208284031215612dfb57600080fd5b815161066d81612b8d565b600181815b80851115612e5f57817fffffffffffffffffffffffffffffffffffffffffffffffffffffffffffffffff04821115612e4557612e45612cb9565b80851615612e5257918102915b93841c9390800290612e0b565b509250929050565b600082612e7657506001610594565b81612e8357506000610594565b8160018114612e995760028114612ea357612ebf565b6001915050610594565b60ff841115612eb457612eb4612cb9565b50506001821b610594565b5060208310610133831016604e8410600b8410161715612ee2575081810a610594565b612eec8383612e06565b807fffffffffffffffffffffffffffffffffffffffffffffffffffffffffffffffff04821115612f1e57612f1e612cb9565b029392505050565b600061066d8383612e67565b600060208284031215612f4457600080fd5b815161066d81612987565b600082612f5e57612f5e612d6d565b500690565b600063ffffffff83811690831681811015612f8057612f80612cb9565b039392505050565b60008251612f9a818460208701612906565b9190910192915050565b600060208284031215612fb657600080fd5b8151801515811461066d57600080fd5b7f4e487b7100000000000000000000000000000000000000000000000000000000600052603260045260246000fdfea2646970667358221220804046c7cc59e5416e371c970fe043e31360a31f0035a13adf6a6ee905e16e4164736f6c634300080a0033",
  "linkReferences": {},
  "deployedLinkReferences": {}
}