{
  "_format": "hh-sol-artifact-1",
  "contractName": "RequiemFactory",
  "sourceName": "contracts/RequiemFactory.sol",
  "abi": [
    {
      "inputs": [
        {
          "internalType": "address",
          "name": "_feeToSetter",
          "type": "address"
        },
        {
          "internalType": "address",
          "name": "_formula",
          "type": "address"
        }
      ],
      "stateMutability": "nonpayable",
      "type": "constructor"
    },
    {
      "anonymous": false,
      "inputs": [
        {
          "indexed": true,
          "internalType": "address",
          "name": "token0",
          "type": "address"
        },
        {
          "indexed": true,
          "internalType": "address",
          "name": "token1",
          "type": "address"
        },
        {
          "indexed": false,
          "internalType": "address",
          "name": "pair",
          "type": "address"
        },
        {
          "indexed": false,
          "internalType": "uint32",
          "name": "tokenWeight0",
          "type": "uint32"
        },
        {
          "indexed": false,
          "internalType": "uint32",
          "name": "swapFee",
          "type": "uint32"
        },
        {
          "indexed": false,
          "internalType": "uint256",
          "name": "",
          "type": "uint256"
        }
      ],
      "name": "PairCreated",
      "type": "event"
    },
    {
      "inputs": [
        {
          "internalType": "uint256",
          "name": "",
          "type": "uint256"
        }
      ],
      "name": "allPairs",
      "outputs": [
        {
          "internalType": "address",
          "name": "",
          "type": "address"
        }
      ],
      "stateMutability": "view",
      "type": "function"
    },
    {
      "inputs": [],
      "name": "allPairsLength",
      "outputs": [
        {
          "internalType": "uint256",
          "name": "",
          "type": "uint256"
        }
      ],
      "stateMutability": "view",
      "type": "function"
    },
    {
      "inputs": [
        {
          "internalType": "address",
          "name": "tokenA",
          "type": "address"
        },
        {
          "internalType": "address",
          "name": "tokenB",
          "type": "address"
        },
        {
          "internalType": "uint32",
          "name": "tokenWeightA",
          "type": "uint32"
        },
        {
          "internalType": "uint32",
          "name": "swapFee",
          "type": "uint32"
        }
      ],
      "name": "createPair",
      "outputs": [
        {
          "internalType": "address",
          "name": "pair",
          "type": "address"
        }
      ],
      "stateMutability": "nonpayable",
      "type": "function"
    },
    {
      "inputs": [],
      "name": "feeTo",
      "outputs": [
        {
          "internalType": "address",
          "name": "",
          "type": "address"
        }
      ],
      "stateMutability": "view",
      "type": "function"
    },
    {
      "inputs": [],
      "name": "feeToSetter",
      "outputs": [
        {
          "internalType": "address",
          "name": "",
          "type": "address"
        }
      ],
      "stateMutability": "view",
      "type": "function"
    },
    {
      "inputs": [],
      "name": "formula",
      "outputs": [
        {
          "internalType": "address",
          "name": "",
          "type": "address"
        }
      ],
      "stateMutability": "view",
      "type": "function"
    },
    {
      "inputs": [
        {
          "internalType": "address",
          "name": "tokenA",
          "type": "address"
        },
        {
          "internalType": "address",
          "name": "tokenB",
          "type": "address"
        },
        {
          "internalType": "uint32",
          "name": "tokenWeightA",
          "type": "uint32"
        },
        {
          "internalType": "uint32",
          "name": "swapFee",
          "type": "uint32"
        }
      ],
      "name": "getPair",
      "outputs": [
        {
          "internalType": "address",
          "name": "pair",
          "type": "address"
        }
      ],
      "stateMutability": "view",
      "type": "function"
    },
    {
      "inputs": [
        {
          "internalType": "address",
          "name": "pair",
          "type": "address"
        }
      ],
      "name": "getWeightsAndSwapFee",
      "outputs": [
        {
          "internalType": "uint32",
          "name": "tokenWeight0",
          "type": "uint32"
        },
        {
          "internalType": "uint32",
          "name": "tokenWeight1",
          "type": "uint32"
        },
        {
          "internalType": "uint32",
          "name": "swapFee",
          "type": "uint32"
        }
      ],
      "stateMutability": "view",
      "type": "function"
    },
    {
      "inputs": [
        {
          "internalType": "address",
          "name": "b",
          "type": "address"
        }
      ],
      "name": "isPair",
      "outputs": [
        {
          "internalType": "bool",
          "name": "",
          "type": "bool"
        }
      ],
      "stateMutability": "view",
      "type": "function"
    },
    {
      "inputs": [],
      "name": "protocolFee",
      "outputs": [
        {
          "internalType": "uint256",
          "name": "",
          "type": "uint256"
        }
      ],
      "stateMutability": "view",
      "type": "function"
    },
    {
      "inputs": [
        {
          "internalType": "address",
          "name": "_feeTo",
          "type": "address"
        }
      ],
      "name": "setFeeTo",
      "outputs": [],
      "stateMutability": "nonpayable",
      "type": "function"
    },
    {
      "inputs": [
        {
          "internalType": "address",
          "name": "_feeToSetter",
          "type": "address"
        }
      ],
      "name": "setFeeToSetter",
      "outputs": [],
      "stateMutability": "nonpayable",
      "type": "function"
    },
    {
      "inputs": [
        {
          "internalType": "uint256",
          "name": "_protocolFee",
          "type": "uint256"
        }
      ],
      "name": "setProtocolFee",
      "outputs": [],
      "stateMutability": "nonpayable",
      "type": "function"
    }
  ],
  "bytecode": "0x608060405234801561001057600080fd5b506040516133a53803806133a583398101604081905261002f9161007c565b600380546001600160a01b039384166001600160a01b031991821617909155600180549290931691161790556100af565b80516001600160a01b038116811461007757600080fd5b919050565b6000806040838503121561008f57600080fd5b61009883610060565b91506100a660208401610060565b90509250929050565b6132e7806100be6000396000f3fe608060405234801561001057600080fd5b50600436106100cf5760003560e01c8063787dce3d1161008c578063bfd63f4d11610066578063bfd63f4d14610193578063ca222979146101a6578063e5e31b13146101e0578063f46901ed1461022557600080fd5b8063787dce3d14610162578063a2e74af614610177578063b0e21e8a1461018a57600080fd5b8063017e7e58146100d4578063094b74151461010457806314572adb146101175780631e3dd18b1461012a5780634b75f54f1461013d578063574f2ba314610150575b600080fd5b6000546100e7906001600160a01b031681565b6040516001600160a01b0390911681526020015b60405180910390f35b6003546100e7906001600160a01b031681565b6100e76101253660046108d4565b610238565b6100e7610138366004610928565b610645565b6001546100e7906001600160a01b031681565b6005545b6040519081526020016100fb565b610175610170366004610928565b61066f565b005b610175610185366004610941565b610707565b61015460025481565b6100e76101a13660046108d4565b610753565b6101b96101b4366004610941565b6107e2565b6040805163ffffffff948516815292841660208401529216918101919091526060016100fb565b6102156101ee366004610941565b6001600160a01b031660009081526006602052604090205467ffffffffffffffff16151590565b60405190151581526020016100fb565b610175610233366004610941565b61084b565b6000836001600160a01b0316856001600160a01b031614156102a15760405162461bcd60e51b815260206004820152601860248201527f524c503a204944454e544943414c5f414444524553534553000000000000000060448201526064015b60405180910390fd5b60028363ffffffff16101580156102bf575060628363ffffffff1611155b80156102d957506102d1600284610963565b63ffffffff16155b6103255760405162461bcd60e51b815260206004820152601960248201527f524c503a20494e56414c49445f544f4b454e5f574549474854000000000000006044820152606401610298565b60018263ffffffff161015801561034457506107d08263ffffffff1611155b6103885760405162461bcd60e51b8152602060048201526015602482015274524c503a20494e56414c49445f535741505f46454560581b6044820152606401610298565b6000806000866001600160a01b0316886001600160a01b0316106103b85786886103b3886064610994565b6103bc565b8787875b919450925090506001600160a01b03831661040d5760405162461bcd60e51b8152602060048201526011602482015270524c503a205a45524f5f4144445245535360781b6044820152606401610298565b60006040518060200161041f90610897565b6020820181038252601f19601f82011660405250905060008484848960405160200161044e94939291906109c7565b60408051601f198184030181529181528151602092830120600081815260049093529120549091506001600160a01b0316156104bf5760405162461bcd60e51b815260206004820152601060248201526f524c503a20504149525f45584953545360801b6044820152606401610298565b808251602084016000f560405163d0f6957960e01b81526001600160a01b038781166004830152868116602483015263ffffffff80871660448401528a1660648301529197509087169063d0f6957990608401600060405180830381600087803b15801561052c57600080fd5b505af1158015610540573d6000803e3d6000fd5b505050600082815260046020908152604080832080546001600160a01b03199081166001600160a01b038d8116918217909355600580546001810182557f036b6384b5eca791c62761152d0c79bb0604c104a5fb6f4eb0703f3154bb3db001805490931682179092558086526006855294839020805463ffffffff8f81168c881b67ffffffff0000000016811767ffffffffffffffff19909316831790935592548551978852928b169587019590955292850192909252606084019190915290925086811691908816907f41f8736f924f57e464ededb08bf71f868f9d142885bbc73a1516db2be21fc4289060800160405180910390a3505050505050949350505050565b6005818154811061065557600080fd5b6000918252602090912001546001600160a01b0316905081565b6003546001600160a01b031633146106995760405162461bcd60e51b815260040161029890610a0e565b8015806106b6575061271081101580156106b65750620186a08111155b6107025760405162461bcd60e51b815260206004820152601960248201527f524c503a20496e76616c69642050726f746f636f6c20666565000000000000006044820152606401610298565b600255565b6003546001600160a01b031633146107315760405162461bcd60e51b815260040161029890610a0e565b600380546001600160a01b0319166001600160a01b0392909216919091179055565b600080600080866001600160a01b0316886001600160a01b03161061078457868861077f886064610994565b610788565b8787875b9250925092506000838383886040516020016107a794939291906109c7565b60408051601f198184030181529181528151602092830120600090815260049092529020546001600160a01b03169998505050505050505050565b6001600160a01b0381166000908152600660205260408120548190819067ffffffffffffffff1680156108315763ffffffff602082901c16935090508061082a846064610994565b9250610842565b603280601e93509350935050610844565b505b9193909250565b6003546001600160a01b031633146108755760405162461bcd60e51b815260040161029890610a0e565b600080546001600160a01b0319166001600160a01b0392909216919091179055565b61287b80610a3783390190565b80356001600160a01b03811681146108bb57600080fd5b919050565b803563ffffffff811681146108bb57600080fd5b600080600080608085870312156108ea57600080fd5b6108f3856108a4565b9350610901602086016108a4565b925061090f604086016108c0565b915061091d606086016108c0565b905092959194509250565b60006020828403121561093a57600080fd5b5035919050565b60006020828403121561095357600080fd5b61095c826108a4565b9392505050565b600063ffffffff8084168061098857634e487b7160e01b600052601260045260246000fd5b92169190910692915050565b600063ffffffff838116908316818110156109bf57634e487b7160e01b600052601160045260246000fd5b039392505050565b6bffffffffffffffffffffffff19606095861b811682529390941b90921660148401526001600160e01b031960e091821b8116602885015291901b16602c82015260300190565b6020808252600e908201526d2926281d102327a92124a22222a760911b60408201526060019056fe60806040526001600b5534801561001557600080fd5b50604080518082018252601a81527f5265717569656d204c69717569646974792050726f76696465720000000000006020918201528151808301835260018152603160f81b9082015281517f8b73c3c69bb8fe3d512ecc4cf759cc79239f7b179b0ffacaa9a75d522b39400f818301527f2e1adfbb118fada029d9623aa0ed8dd2318a25545f57095be55dcbd209508e12818401527fc89efdaa54c0f20c7adf612882df0950f5a951637e0307cdcb4c672f298b8bc660608201524660808201523060a0808301919091528351808303909101815260c09091019092528151910120600355600580546001600160a01b031916331790556127608061011b6000396000f3fe608060405234801561001057600080fd5b50600436106101da5760003560e01c806370a0823111610104578063c45a0155116100a2578063d505accf11610071578063d505accf146104a3578063d54a8d18146104b6578063dd62ed3e146104e0578063fff6cae91461050b57600080fd5b8063c45a015514610452578063d0f6957914610465578063d21220a714610478578063d4cadf681461048b57600080fd5b806395d89b41116100de57806395d89b4114610401578063a9059cbb14610423578063ba9a7a5614610436578063bc25cf771461043f57600080fd5b806370a08231146103995780637ecebe00146103b957806389afcb44146103d957600080fd5b806330adf81f1161017c5780634b75f54f1161014b5780634b75f54f146103615780635909c0d5146103745780635a3d54931461037d5780636a6278421461038657600080fd5b806330adf81f146102f2578063313ce5671461031957806332bfe469146103335780633644e5151461035857600080fd5b8063095ea7b3116101b8578063095ea7b31461027a5780630dfe16811461029d57806318160ddd146102c857806323b872dd146102df57600080fd5b8063022c0d9f146101df57806306fdde03146101f45780630902f1ac14610246575b600080fd5b6101f26101ed36600461222d565b610513565b005b6102306040518060400160405280601a81526020017f5265717569656d204c69717569646974792050726f766964657200000000000081525081565b60405161023d91906122f3565b60405180910390f35b61024e610bcd565b604080516001600160701b03948516815293909216602084015263ffffffff169082015260600161023d565b61028d610288366004612326565b610bf7565b604051901515815260200161023d565b6006546102b0906001600160a01b031681565b6040516001600160a01b03909116815260200161023d565b6102d160005481565b60405190815260200161023d565b61028d6102ed366004612352565b610c0d565b6102d17f6e71edae12b1b97f4d1f60370fef10105fa2faae0126114a169c64845d6126c981565b610321601281565b60405160ff909116815260200161023d565b61033b610ca1565b6040805163ffffffff93841681529290911660208301520161023d565b6102d160035481565b600c546102b0906001600160a01b031681565b6102d160095481565b6102d1600a5481565b6102d1610394366004612393565b610cc4565b6102d16103a7366004612393565b60016020526000908152604090205481565b6102d16103c7366004612393565b60046020526000908152604090205481565b6103ec6103e7366004612393565b610f5b565b6040805192835260208301919091520161023d565b610230604051806040016040528060038152602001620524c560ec1b81525081565b61028d610431366004612326565b61128f565b6102d16103e881565b6101f261044d366004612393565b61129c565b6005546102b0906001600160a01b031681565b6101f26104733660046123c4565b6113b0565b6007546102b0906001600160a01b031681565b600e5460405163ffffffff909116815260200161023d565b6101f26104b136600461241c565b6114f1565b600d54604080516001600160701b038084168252600160701b90930490921660208301520161023d565b6102d16104ee366004612493565b600260209081526000928352604080842090915290825290205481565b6101f26116f8565b600b5460011461053e5760405162461bcd60e51b8152600401610535906124cc565b60405180910390fd5b6000600b55841515806105515750600084115b6105a75760405162461bcd60e51b815260206004820152602160248201527f5245514c503a20494e53554646494349454e545f4f55545055545f414d4f554e6044820152601560fa1b6064820152608401610535565b6008546001600160701b0380821691600160701b90041681871080156105d55750806001600160701b031686105b6106215760405162461bcd60e51b815260206004820152601d60248201527f5245514c503a20494e53554646494349454e545f4c49515549444954590000006044820152606401610535565b60065460075460009182916001600160a01b0391821691908116908916821480159061065f5750806001600160a01b0316896001600160a01b031614155b61069f5760405162461bcd60e51b81526020600482015260116024820152705245514c503a20494e56414c49445f544f60781b6044820152606401610535565b8a156106b0576106b0828a8d61181c565b89156106c1576106c1818a8c61181c565b861561072e576040516304347a1760e21b81526001600160a01b038a16906310d1e85c906106fb9033908f908f908e908e906004016124f3565b600060405180830381600087803b15801561071557600080fd5b505af1158015610729573d6000803e3d6000fd5b505050505b6040516370a0823160e01b81523060048201526001600160a01b038316906370a0823190602401602060405180830381865afa158015610772573d6000803e3d6000fd5b505050506040513d601f19601f82011682018060405250810190610796919061253f565b6040516370a0823160e01b81523060048201529094506001600160a01b038216906370a0823190602401602060405180830381865afa1580156107dd573d6000803e3d6000fd5b505050506040513d601f19601f82011682018060405250810190610801919061253f565b92505050600089856001600160701b031661081c919061256e565b8311610829576000610846565b61083c8a6001600160701b03871661256e565b610846908461256e565b9050600061085d8a6001600160701b03871661256e565b831161086a576000610887565b61087d8a6001600160701b03871661256e565b610887908461256e565b905060008211806108985750600081115b6108e45760405162461bcd60e51b815260206004820181905260248201527f5245514c503a20494e53554646494349454e545f494e5055545f414d4f554e546044820152606401610535565b60006108f285612710611960565b9050600061090285612710611960565b9050831561096c57600e5460009061092590869063ffffffff9081169061196016565b90506109318382611973565b600d5490935061094a906001600160701b031682611981565b600d80546001600160701b0319166001600160701b0392909216919091179055505b82156109e157600e5460009061098d90859063ffffffff9081169061196016565b90506109998282611973565b600d549092506109b990600160701b90046001600160701b031682611981565b600d600e6101000a8154816001600160701b0302191690836001600160701b03160217905550505b600d54600160e01b900463ffffffff166032811415610a6657610a1e6305f5e100610a186001600160701b038c8116908c16611960565b90611960565b610a288484611960565b1015610a615760405162461bcd60e51b81526020600482015260086024820152675245514c503a204b60c01b6044820152606401610535565b610b57565b600c546001600160a01b03166379c91b37610a8c6001600160701b038c16612710611960565b610aa16001600160701b038c16612710611960565b6040516001600160e01b031960e085901b16815260048101929092526024820152604481018690526064810185905263ffffffff8416608482015260a401602060405180830381865afa158015610afc573d6000803e3d6000fd5b505050506040513d601f19601f82011682018060405250810190610b209190612585565b610b575760405162461bcd60e51b81526020600482015260086024820152675245514c503a204b60c01b6044820152606401610535565b505050610b668484888861199e565b60408051838152602081018390529081018c9052606081018b90526001600160a01b038a169033907fd78ad95fa46c994b6551d0da85fc275fe613ce37657fb8d5e3d130840159d8229060800160405180910390a350506001600b55505050505050505050565b6008546001600160701b0380821692600160701b830490911691600160e01b900463ffffffff1690565b6000610c04338484611bf5565b50600192915050565b6001600160a01b038316600090815260026020908152604080832033845290915281205460001914610c8c576001600160a01b0384166000908152600260209081526040808320338452909152902054610c679083611973565b6001600160a01b03851660009081526002602090815260408083203384529091529020555b610c97848484611c57565b5060019392505050565b600d54600160e01b900463ffffffff166000610cbe8260646125a7565b90509091565b6000600b54600114610ce85760405162461bcd60e51b8152600401610535906124cc565b6000600b81905580610cf8610bcd565b506006546040516370a0823160e01b81523060048201529294509092506000916001600160a01b03909116906370a0823190602401602060405180830381865afa158015610d4a573d6000803e3d6000fd5b505050506040513d601f19601f82011682018060405250810190610d6e919061253f565b6007546040516370a0823160e01b81523060048201529192506000916001600160a01b03909116906370a0823190602401602060405180830381865afa158015610dbc573d6000803e3d6000fd5b505050506040513d601f19601f82011682018060405250810190610de0919061253f565b90506000610df7836001600160701b038716611973565b90506000610e0e836001600160701b038716611973565b9050610e1a8686611cfd565b5060005480610e5557610e416103e8610e3b610e368686611960565b611fb9565b90611973565b9750610e5060006103e8612029565b610e9c565b610e996001600160701b038816610e6c8584611960565b610e7691906125e2565b6001600160701b038816610e8a8585611960565b610e9491906125e2565b6120b8565b97505b60008811610ef85760405162461bcd60e51b8152602060048201526024808201527f5245514c503a20494e53554646494349454e545f4c49515549444954595f4d496044820152631395115160e21b6064820152608401610535565b610f028989612029565b610f0e8585898961199e565b604080518481526020810184905233917f4c209b5fc8ad50758f13e2e1088ba56a560dff690a1c6fef26394f4c03821c4f910160405180910390a250506001600b55509395945050505050565b600080600b54600114610f805760405162461bcd60e51b8152600401610535906124cc565b6000600b81905580610f90610bcd565b506006546007546040516370a0823160e01b81523060048201529395509193506001600160a01b039081169291169060009083906370a0823190602401602060405180830381865afa158015610fea573d6000803e3d6000fd5b505050506040513d601f19601f8201168201806040525081019061100e919061253f565b6040516370a0823160e01b81523060048201529091506000906001600160a01b038416906370a0823190602401602060405180830381865afa158015611058573d6000803e3d6000fd5b505050506040513d601f19601f8201168201806040525081019061107c919061253f565b306000908152600160205260409020549091506110998787611cfd565b50600054806110a88386611960565b6110b291906125e2565b9950806110bf8385611960565b6110c991906125e2565b985060008a1180156110db5750600089115b6111335760405162461bcd60e51b8152602060048201526024808201527f5245514c503a20494e53554646494349454e545f4c49515549444954595f42556044820152631493915160e21b6064820152608401610535565b61113d30836120ce565b611148868c8c61181c565b611153858c8b61181c565b6040516370a0823160e01b81523060048201526001600160a01b038716906370a0823190602401602060405180830381865afa158015611197573d6000803e3d6000fd5b505050506040513d601f19601f820116820180604052508101906111bb919061253f565b6040516370a0823160e01b81523060048201529094506001600160a01b038616906370a0823190602401602060405180830381865afa158015611202573d6000803e3d6000fd5b505050506040513d601f19601f82011682018060405250810190611226919061253f565b925061123484848a8a61199e565b604080518b8152602081018b90526001600160a01b038d169133917fdccd412f0b1252819cb1fd330b93224ca42612892bb3f4f789976e6d81936496910160405180910390a350505050505050506001600b81905550915091565b6000610c04338484611c57565b600b546001146112be5760405162461bcd60e51b8152600401610535906124cc565b6000600b556006546007546008546040516370a0823160e01b81523060048201526001600160a01b0393841693909216916113599184918691611354916001600160701b039091169084906370a08231906024015b602060405180830381865afa158015611330573d6000803e3d6000fd5b505050506040513d601f19601f82011682018060405250810190610e3b919061253f565b61181c565b6008546040516370a0823160e01b81523060048201526113a6918391869161135491600160701b9091046001600160701b0316906001600160a01b038516906370a0823190602401611313565b50506001600b5550565b6005546001600160a01b031633146113fd5760405162461bcd60e51b815260206004820152601060248201526f2922a8a6281d102327a92124a22222a760811b6044820152606401610535565b600680546001600160a01b038087166001600160a01b031992831617909255600780548684169216919091179055600d805463ffffffff808616600160e01b026001600160e01b0390921691909117909155600e805491841663ffffffff1990921691909117905560055460408051634b75f54f60e01b815290519190921691634b75f54f9160048083019260209291908290030181865afa1580156114a7573d6000803e3d6000fd5b505050506040513d601f19601f820116820180604052508101906114cb91906125f6565b600c80546001600160a01b0319166001600160a01b039290921691909117905550505050565b428410156115305760405162461bcd60e51b815260206004820152600c60248201526b1493140e881156141254915160a21b6044820152606401610535565b6003546001600160a01b038816600090815260046020526040812080549192917f6e71edae12b1b97f4d1f60370fef10105fa2faae0126114a169c64845d6126c9918b918b918b91908761158383612613565b909155506040805160208101969096526001600160a01b0394851690860152929091166060840152608083015260a082015260c0810187905260e001604051602081830303815290604052805190602001206040516020016115fc92919061190160f01b81526002810192909252602282015260420190565b60408051601f198184030181528282528051602091820120600080855291840180845281905260ff88169284019290925260608301869052608083018590529092509060019060a0016020604051602081039080840390855afa158015611667573d6000803e3d6000fd5b5050604051601f1901519150506001600160a01b0381161580159061169d5750886001600160a01b0316816001600160a01b0316145b6116e25760405162461bcd60e51b8152602060048201526016602482015275524c503a20494e56414c49445f5349474e415455524560501b6044820152606401610535565b6116ed898989611bf5565b505050505050505050565b600b5460011461171a5760405162461bcd60e51b8152600401610535906124cc565b6000600b556006546040516370a0823160e01b8152306004820152611815916001600160a01b0316906370a0823190602401602060405180830381865afa158015611769573d6000803e3d6000fd5b505050506040513d601f19601f8201168201806040525081019061178d919061253f565b6007546040516370a0823160e01b81523060048201526001600160a01b03909116906370a0823190602401602060405180830381865afa1580156117d5573d6000803e3d6000fd5b505050506040513d601f19601f820116820180604052508101906117f9919061253f565b6008546001600160701b0380821691600160701b90041661199e565b6001600b55565b604080518082018252601981527f7472616e7366657228616464726573732c75696e74323536290000000000000060209182015281516001600160a01b0385811660248301526044808301869052845180840390910181526064909201845291810180516001600160e01b031663a9059cbb60e01b179052915160009283928716916118a8919061262e565b6000604051808303816000865af19150503d80600081146118e5576040519150601f19603f3d011682016040523d82523d6000602084013e6118ea565b606091505b50915091508180156119145750805115806119145750808060200190518101906119149190612585565b6119595760405162461bcd60e51b815260206004820152601660248201527514915453140e881514905394d1915497d1905253115160521b6044820152606401610535565b5050505050565b600061196c828461264a565b9392505050565b600061196c83836001612158565b60008061198e8385612669565b905061196c84821015600061217c565b600d54600160e01b900463ffffffff166001600160701b036119c18260646125a7565b6119d19063ffffffff168761264a565b111580156119f557506001600160701b036119f263ffffffff83168661264a565b11155b611a335760405162461bcd60e51b815260206004820152600f60248201526e5245514c503a204f564552464c4f5760881b6044820152606401610535565b6000611a4464010000000042612681565b600854909150600090611a6490600160e01b900463ffffffff16836125a7565b905060008163ffffffff16118015611a8457506001600160701b03851615155b8015611a9857506001600160701b03841615155b15611b5c576000611aaa8460646125a7565b611aba9063ffffffff1687612695565b90506000611ace63ffffffff861687612695565b90508263ffffffff16611af383611ae48461218e565b6001600160e01b0316906121ad565b6001600160e01b0316611b06919061264a565b60096000828254611b179190612669565b909155505063ffffffff8316611b3082611ae48561218e565b6001600160e01b0316611b43919061264a565b600a6000828254611b549190612669565b909155505050505b6008805463ffffffff8416600160e01b026001600160e01b036001600160701b038a8116600160701b9081026001600160e01b03199095168d83161794909417918216831794859055604080519382169282169290921783529290930490911660208201527f1c411e9a96e071241c2f21f7726b17ae89e3cab4c78be50e062b03a9fffbbad1910160405180910390a150505050505050565b6001600160a01b0383811660008181526002602090815260408083209487168084529482529182902085905590518481527f8c5be1e5ebec7d5bd14f71427d1e84f3dd0314c0f7b2291e5b200ac8c7c3b92591015b60405180910390a3505050565b6001600160a01b038316600090815260016020526040902054611c7a9082611973565b6001600160a01b038085166000908152600160205260408082209390935590841681522054611ca99082611981565b6001600160a01b0380841660008181526001602052604090819020939093559151908516907fddf252ad1be2c89b69c2b068fc378daa952ba7f163c4a11628f55a4df523b3ef90611c4a9085815260200190565b600080600560009054906101000a90046001600160a01b03166001600160a01b031663017e7e586040518163ffffffff1660e01b8152600401602060405180830381865afa158015611d53573d6000803e3d6000fd5b505050506040513d601f19601f82011682018060405250810190611d7791906125f6565b90506000600560009054906101000a90046001600160a01b03166001600160a01b031663b0e21e8a6040518163ffffffff1660e01b8152600401602060405180830381865afa158015611dce573d6000803e3d6000fd5b505050506040513d601f19601f82011682018060405250810190611df2919061253f565b6001600160a01b038316151593509050600080611e23600d546001600160701b0380821692600160701b9092041690565b915091506000836001600160701b0316118015611e3d5750845b8015611e6557506000826001600160701b03161180611e6557506000816001600160701b0316115b15611f6557600d54600c5460008054600160e01b90930463ffffffff169290916001600160a01b0316906392aec23c908b8b86611ea38160646125a7565b611ead8c8c6126c4565b611eb78d8c6126c4565b6040516001600160e01b031960e08a901b16815260048101979097526001600160701b039586166024880152938516604487015263ffffffff928316606487015291166084850152821660a48401521660c482015260e401602060405180830381865afa158015611f2c573d6000803e3d6000fd5b505050506040513d601f19601f82011682018060405250810190611f50919061253f565b90508015611f6257611f628682612029565b50505b6001600160701b03821615611f8557600d80546001600160701b03191690555b6001600160701b03811615611faf57600d80546dffffffffffffffffffffffffffff60701b191690555b5050505092915050565b6000600382111561201a5750806000611fd36002836125e2565b611fde906001612669565b90505b8181101561201457905080600281611ff981866125e2565b6120039190612669565b61200d91906125e2565b9050611fe1565b50919050565b8115612024575060015b919050565b6000546120369082611981565b60009081556001600160a01b03831681526001602052604090205461205b9082611981565b6001600160a01b0383166000818152600160205260408082209390935591519091907fddf252ad1be2c89b69c2b068fc378daa952ba7f163c4a11628f55a4df523b3ef906120ac9085815260200190565b60405180910390a35050565b60008183106120c7578161196c565b5090919050565b6001600160a01b0382166000908152600160205260409020546120f19082611973565b6001600160a01b038316600090815260016020526040812091909155546121189082611973565b60009081556040518281526001600160a01b038416907fddf252ad1be2c89b69c2b068fc378daa952ba7f163c4a11628f55a4df523b3ef906020016120ac565b6000612167848411158361217c565b6000612173848661256e565b95945050505050565b8161218a5761218a816121c2565b5050565b60006121a7600160701b6001600160701b0384166126ea565b92915050565b600061196c6001600160701b03831684612710565b62461bcd60e51b6000908152602060045260076024526642414c23000030600a808404818106603090810160081b95839006959095019082900491820690940160101b939093010160c81b604452606490fd5b6001600160a01b038116811461222a57600080fd5b50565b60008060008060006080868803121561224557600080fd5b8535945060208601359350604086013561225e81612215565b9250606086013567ffffffffffffffff8082111561227b57600080fd5b818801915088601f83011261228f57600080fd5b81358181111561229e57600080fd5b8960208285010111156122b057600080fd5b9699959850939650602001949392505050565b60005b838110156122de5781810151838201526020016122c6565b838111156122ed576000848401525b50505050565b60208152600082518060208401526123128160408501602087016122c3565b601f01601f19169190910160400192915050565b6000806040838503121561233957600080fd5b823561234481612215565b946020939093013593505050565b60008060006060848603121561236757600080fd5b833561237281612215565b9250602084013561238281612215565b929592945050506040919091013590565b6000602082840312156123a557600080fd5b813561196c81612215565b803563ffffffff8116811461202457600080fd5b600080600080608085870312156123da57600080fd5b84356123e581612215565b935060208501356123f581612215565b9250612403604086016123b0565b9150612411606086016123b0565b905092959194509250565b600080600080600080600060e0888a03121561243757600080fd5b873561244281612215565b9650602088013561245281612215565b95506040880135945060608801359350608088013560ff8116811461247657600080fd5b9699959850939692959460a0840135945060c09093013592915050565b600080604083850312156124a657600080fd5b82356124b181612215565b915060208301356124c181612215565b809150509250929050565b6020808252600d908201526c14915453140e881313d0d2d151609a1b604082015260600190565b60018060a01b038616815284602082015283604082015260806060820152816080820152818360a0830137600081830160a090810191909152601f909201601f19160101949350505050565b60006020828403121561255157600080fd5b5051919050565b634e487b7160e01b600052601160045260246000fd5b60008282101561258057612580612558565b500390565b60006020828403121561259757600080fd5b8151801515811461196c57600080fd5b600063ffffffff838116908316818110156125c4576125c4612558565b039392505050565b634e487b7160e01b600052601260045260246000fd5b6000826125f1576125f16125cc565b500490565b60006020828403121561260857600080fd5b815161196c81612215565b600060001982141561262757612627612558565b5060010190565b600082516126408184602087016122c3565b9190910192915050565b600081600019048311821515161561266457612664612558565b500290565b6000821982111561267c5761267c612558565b500190565b600082612690576126906125cc565b500690565b60006001600160701b03808316818516818304811182151516156126bb576126bb612558565b02949350505050565b60006001600160701b03808416806126de576126de6125cc565b92169190910492915050565b60006001600160e01b03828116848216811515828404821116156126bb576126bb612558565b60006001600160e01b03838116806126de576126de6125cc56fea26469706673582212209b16ca245178457475f7df683e767d3afb1f2d4ab0a1b7a6d9722974fa11106264736f6c634300080a0033a2646970667358221220866b40586bb0f824a17062f12966c01d42bca688f0028e84f277aac6e276b46c64736f6c634300080a0033",
  "linkReferences": {},
  "deployedLinkReferences": {}
}