{
  "_format": "hh-sol-artifact-1",
  "contractName": "StakePoolEpochReward",
  "sourceName": "contracts/StakePoolEpochReward.sol",
  "abi": [
    {
      "inputs": [
        {
          "internalType": "address",
          "name": "_controller",
          "type": "address"
        },
        {
          "internalType": "uint256",
          "name": "_version",
          "type": "uint256"
        }
      ],
      "stateMutability": "nonpayable",
      "type": "constructor"
    },
    {
      "anonymous": false,
      "inputs": [
        {
          "indexed": false,
          "internalType": "uint256",
          "name": "blocktime",
          "type": "uint256"
        },
        {
          "indexed": false,
          "internalType": "uint256",
          "name": "amount",
          "type": "uint256"
        }
      ],
      "name": "AllocateReward",
      "type": "event"
    },
    {
      "anonymous": false,
      "inputs": [
        {
          "indexed": true,
          "internalType": "address",
          "name": "account",
          "type": "address"
        },
        {
          "indexed": false,
          "internalType": "uint256",
          "name": "amount",
          "type": "uint256"
        }
      ],
      "name": "Deposit",
      "type": "event"
    },
    {
      "anonymous": false,
      "inputs": [
        {
          "indexed": true,
          "internalType": "uint256",
          "name": "poolId",
          "type": "uint256"
        },
        {
          "indexed": true,
          "internalType": "address",
          "name": "rewardToken",
          "type": "address"
        },
        {
          "indexed": true,
          "internalType": "address",
          "name": "account",
          "type": "address"
        },
        {
          "indexed": false,
          "internalType": "uint256",
          "name": "pendingReward",
          "type": "uint256"
        },
        {
          "indexed": false,
          "internalType": "uint256",
          "name": "rebaseAmount",
          "type": "uint256"
        },
        {
          "indexed": false,
          "internalType": "uint256",
          "name": "paidReward",
          "type": "uint256"
        }
      ],
      "name": "PayRewardPool",
      "type": "event"
    },
    {
      "anonymous": false,
      "inputs": [
        {
          "indexed": true,
          "internalType": "address",
          "name": "account",
          "type": "address"
        },
        {
          "indexed": false,
          "internalType": "uint256",
          "name": "amount",
          "type": "uint256"
        }
      ],
      "name": "Withdraw",
      "type": "event"
    },
    {
      "inputs": [],
      "name": "BLOCKS_PER_DAY",
      "outputs": [
        {
          "internalType": "uint256",
          "name": "",
          "type": "uint256"
        }
      ],
      "stateMutability": "view",
      "type": "function"
    },
    {
      "inputs": [
        {
          "internalType": "uint256",
          "name": "_amount",
          "type": "uint256"
        }
      ],
      "name": "allocateReward",
      "outputs": [],
      "stateMutability": "nonpayable",
      "type": "function"
    },
    {
      "inputs": [
        {
          "internalType": "address",
          "name": "_token",
          "type": "address"
        }
      ],
      "name": "allowRecoverRewardToken",
      "outputs": [
        {
          "internalType": "bool",
          "name": "",
          "type": "bool"
        }
      ],
      "stateMutability": "view",
      "type": "function"
    },
    {
      "inputs": [],
      "name": "balance",
      "outputs": [
        {
          "internalType": "uint256",
          "name": "",
          "type": "uint256"
        }
      ],
      "stateMutability": "view",
      "type": "function"
    },
    {
      "inputs": [
        {
          "internalType": "address",
          "name": "_account",
          "type": "address"
        }
      ],
      "name": "canClaimReward",
      "outputs": [
        {
          "internalType": "bool",
          "name": "",
          "type": "bool"
        }
      ],
      "stateMutability": "view",
      "type": "function"
    },
    {
      "inputs": [
        {
          "internalType": "address",
          "name": "_account",
          "type": "address"
        }
      ],
      "name": "canWithdraw",
      "outputs": [
        {
          "internalType": "bool",
          "name": "",
          "type": "bool"
        }
      ],
      "stateMutability": "view",
      "type": "function"
    },
    {
      "inputs": [],
      "name": "claimReward",
      "outputs": [],
      "stateMutability": "nonpayable",
      "type": "function"
    },
    {
      "inputs": [],
      "name": "controller",
      "outputs": [
        {
          "internalType": "address",
          "name": "",
          "type": "address"
        }
      ],
      "stateMutability": "view",
      "type": "function"
    },
    {
      "inputs": [
        {
          "internalType": "address",
          "name": "_account",
          "type": "address"
        }
      ],
      "name": "earned",
      "outputs": [
        {
          "internalType": "uint256",
          "name": "",
          "type": "uint256"
        }
      ],
      "stateMutability": "view",
      "type": "function"
    },
    {
      "inputs": [],
      "name": "emergencyWithdraw",
      "outputs": [],
      "stateMutability": "nonpayable",
      "type": "function"
    },
    {
      "inputs": [],
      "name": "epoch",
      "outputs": [
        {
          "internalType": "uint256",
          "name": "",
          "type": "uint256"
        }
      ],
      "stateMutability": "view",
      "type": "function"
    },
    {
      "inputs": [],
      "name": "epochController",
      "outputs": [
        {
          "internalType": "address",
          "name": "",
          "type": "address"
        }
      ],
      "stateMutability": "view",
      "type": "function"
    },
    {
      "inputs": [],
      "name": "exit",
      "outputs": [],
      "stateMutability": "nonpayable",
      "type": "function"
    },
    {
      "inputs": [
        {
          "internalType": "address",
          "name": "_account",
          "type": "address"
        }
      ],
      "name": "getLastSnapshotIndexOf",
      "outputs": [
        {
          "internalType": "uint256",
          "name": "",
          "type": "uint256"
        }
      ],
      "stateMutability": "view",
      "type": "function"
    },
    {
      "inputs": [
        {
          "internalType": "address",
          "name": "_stakeToken",
          "type": "address"
        },
        {
          "internalType": "address",
          "name": "_rewardFund",
          "type": "address"
        },
        {
          "internalType": "address",
          "name": "_timelock",
          "type": "address"
        },
        {
          "internalType": "address",
          "name": "_epochController",
          "type": "address"
        },
        {
          "internalType": "address",
          "name": "_rewardToken",
          "type": "address"
        },
        {
          "internalType": "uint256",
          "name": "_withdrawLockupEpochs",
          "type": "uint256"
        },
        {
          "internalType": "uint256",
          "name": "_rewardLockupEpochs",
          "type": "uint256"
        }
      ],
      "name": "initialize",
      "outputs": [],
      "stateMutability": "nonpayable",
      "type": "function"
    },
    {
      "inputs": [],
      "name": "latestSnapshotIndex",
      "outputs": [
        {
          "internalType": "uint256",
          "name": "",
          "type": "uint256"
        }
      ],
      "stateMutability": "view",
      "type": "function"
    },
    {
      "inputs": [],
      "name": "nextEpochAllocatedReward",
      "outputs": [
        {
          "internalType": "uint256",
          "name": "",
          "type": "uint256"
        }
      ],
      "stateMutability": "view",
      "type": "function"
    },
    {
      "inputs": [],
      "name": "nextEpochLength",
      "outputs": [
        {
          "internalType": "uint256",
          "name": "",
          "type": "uint256"
        }
      ],
      "stateMutability": "view",
      "type": "function"
    },
    {
      "inputs": [],
      "name": "nextEpochPoint",
      "outputs": [
        {
          "internalType": "uint256",
          "name": "",
          "type": "uint256"
        }
      ],
      "stateMutability": "view",
      "type": "function"
    },
    {
      "inputs": [],
      "name": "rewardFund",
      "outputs": [
        {
          "internalType": "address",
          "name": "",
          "type": "address"
        }
      ],
      "stateMutability": "view",
      "type": "function"
    },
    {
      "inputs": [],
      "name": "rewardLockupEpochs",
      "outputs": [
        {
          "internalType": "uint256",
          "name": "",
          "type": "uint256"
        }
      ],
      "stateMutability": "view",
      "type": "function"
    },
    {
      "inputs": [],
      "name": "rewardPerShare",
      "outputs": [
        {
          "internalType": "uint256",
          "name": "",
          "type": "uint256"
        }
      ],
      "stateMutability": "view",
      "type": "function"
    },
    {
      "inputs": [],
      "name": "rewardToken",
      "outputs": [
        {
          "internalType": "address",
          "name": "",
          "type": "address"
        }
      ],
      "stateMutability": "view",
      "type": "function"
    },
    {
      "inputs": [
        {
          "internalType": "address",
          "name": "_epochController",
          "type": "address"
        }
      ],
      "name": "setEpochController",
      "outputs": [],
      "stateMutability": "nonpayable",
      "type": "function"
    },
    {
      "inputs": [
        {
          "internalType": "uint256",
          "name": "_withdrawLockupEpochs",
          "type": "uint256"
        },
        {
          "internalType": "uint256",
          "name": "_rewardLockupEpochs",
          "type": "uint256"
        }
      ],
      "name": "setLockUp",
      "outputs": [],
      "stateMutability": "nonpayable",
      "type": "function"
    },
    {
      "inputs": [
        {
          "internalType": "uint256",
          "name": "",
          "type": "uint256"
        }
      ],
      "name": "snapshotHistory",
      "outputs": [
        {
          "internalType": "uint256",
          "name": "time",
          "type": "uint256"
        },
        {
          "internalType": "uint256",
          "name": "rewardReceived",
          "type": "uint256"
        },
        {
          "internalType": "uint256",
          "name": "rewardPerShare",
          "type": "uint256"
        }
      ],
      "stateMutability": "view",
      "type": "function"
    },
    {
      "inputs": [
        {
          "internalType": "uint256",
          "name": "_amount",
          "type": "uint256"
        }
      ],
      "name": "stake",
      "outputs": [],
      "stateMutability": "nonpayable",
      "type": "function"
    },
    {
      "inputs": [
        {
          "internalType": "address",
          "name": "_account",
          "type": "address"
        }
      ],
      "name": "stakeFor",
      "outputs": [],
      "stateMutability": "nonpayable",
      "type": "function"
    },
    {
      "inputs": [],
      "name": "stakeToken",
      "outputs": [
        {
          "internalType": "address",
          "name": "",
          "type": "address"
        }
      ],
      "stateMutability": "view",
      "type": "function"
    },
    {
      "inputs": [],
      "name": "timelock",
      "outputs": [
        {
          "internalType": "address",
          "name": "",
          "type": "address"
        }
      ],
      "stateMutability": "view",
      "type": "function"
    },
    {
      "inputs": [
        {
          "internalType": "address",
          "name": "_account",
          "type": "address"
        }
      ],
      "name": "unlockRewardEpoch",
      "outputs": [
        {
          "internalType": "uint256",
          "name": "",
          "type": "uint256"
        }
      ],
      "stateMutability": "view",
      "type": "function"
    },
    {
      "inputs": [
        {
          "internalType": "address",
          "name": "_account",
          "type": "address"
        }
      ],
      "name": "unlockWithdrawEpoch",
      "outputs": [
        {
          "internalType": "uint256",
          "name": "",
          "type": "uint256"
        }
      ],
      "stateMutability": "view",
      "type": "function"
    },
    {
      "inputs": [
        {
          "internalType": "address",
          "name": "",
          "type": "address"
        }
      ],
      "name": "userInfo",
      "outputs": [
        {
          "internalType": "uint256",
          "name": "amount",
          "type": "uint256"
        },
        {
          "internalType": "uint256",
          "name": "lastSnapshotIndex",
          "type": "uint256"
        },
        {
          "internalType": "uint256",
          "name": "rewardEarned",
          "type": "uint256"
        },
        {
          "internalType": "uint256",
          "name": "epochTimerStart",
          "type": "uint256"
        }
      ],
      "stateMutability": "view",
      "type": "function"
    },
    {
      "inputs": [],
      "name": "version",
      "outputs": [
        {
          "internalType": "uint256",
          "name": "",
          "type": "uint256"
        }
      ],
      "stateMutability": "view",
      "type": "function"
    },
    {
      "inputs": [
        {
          "internalType": "uint256",
          "name": "_amount",
          "type": "uint256"
        }
      ],
      "name": "withdraw",
      "outputs": [],
      "stateMutability": "nonpayable",
      "type": "function"
    },
    {
      "inputs": [],
      "name": "withdrawLockupEpochs",
      "outputs": [
        {
          "internalType": "uint256",
          "name": "",
          "type": "uint256"
        }
      ],
      "stateMutability": "view",
      "type": "function"
    }
  ],
  "bytecode": "0x60806040526001600c55600d805460ff1916905534801561001f57600080fd5b50604051611cbc380380611cbc83398101604081905261003e91610112565b600a80546001600160a01b039093166001600160a01b031993841617905560098054909216331790915560009081556040805160608101825243815260208101838152918101838152600680546001810182559452905160039093027ff652222313e28459528d920b65115c16c04f3efc82aaedc97be59f3f377c0d3f81019390935590517ff652222313e28459528d920b65115c16c04f3efc82aaedc97be59f3f377c0d40830155517ff652222313e28459528d920b65115c16c04f3efc82aaedc97be59f3f377c0d419091015561014c565b6000806040838503121561012557600080fd5b82516001600160a01b038116811461013c57600080fd5b6020939093015192949293505050565b611b618061015b6000396000f3fe608060405234801561001057600080fd5b50600436106101ab5760003560e01c80628cc262146101b0578063022ba18d146101d657806303df4868146101df578063046335d0146101ff57806307284ce91461022257806311815a391461022a57806319262d301461024c5780631959a0021461025f5780631e85cd65146102b457806322455618146102bd5780632e1a7d4d146102c55780632ffaaa09146102da5780633468a5b8146102ed5780633f9e3f0414610300578063446a2ec8146103085780634bf692061461031057806351ed6a301461032357806354fd4d50146103365780635a9c06441461033f57806362e7e463146103525780636bb987fe14610365578063714b46581461036e578063900cf0cf14610381578063a694fc3a14610389578063b33f95271461039c578063b69ef8a8146103af578063b88a802f146103b8578063c5967c26146103c0578063d33219b4146103c8578063db2e21bc146103db578063e2dcb616146103e3578063e7d80e31146103f6578063e9fad8ee14610409578063efe2226614610411578063f77c479114610424578063f7c618c114610437575b600080fd5b6101c36101be3660046118ae565b61044a565b6040519081526020015b60405180910390f35b6101c360045481565b6001546101f2906001600160a01b031681565b6040516101cd91906118c9565b61021261020d3660046118ae565b6104f0565b60405190151581526020016101cd565b6101c361052a565b61023d6102383660046118dd565b61059d565b6040516101cd939291906118f6565b61021261025a3660046118ae565b6105d0565b61029461026d3660046118ae565b60056020526000908152604090208054600182015460028301546003909301549192909184565b6040805194855260208501939093529183015260608201526080016101cd565b6101c360035481565b6101c3610603565b6102d86102d33660046118dd565b610651565b005b6102d86102e836600461190c565b6106de565b6102126102fb3660046118ae565b61079b565b6101c36107eb565b6101c36107fc565b6102d861031e3660046118ae565b61080f565b6007546101f2906001600160a01b031681565b6101c360005481565b6102d861034d3660046118ae565b6108fb565b6101c36103603660046118ae565b610993565b6101c361708081565b6101c361037c3660046118ae565b6109c4565b6101c36109e2565b6102d86103973660046118dd565b610a2c565b6102d86103aa36600461192e565b610a74565b6101c3600b5481565b6102d8610b4d565b6101c3610b59565b6009546101f2906001600160a01b031681565b6102d8610ba3565b6102d86103f13660046118dd565b610cbd565b6101c36104043660046118ae565b610fdb565b6102d8611004565b6008546101f2906001600160a01b031681565b600a546101f2906001600160a01b031681565b6002546101f2906001600160a01b031681565b60008061045561101d565b60400151905060006104668461107b565b6040908101516001600160a01b038616600090815260056020908152908390208351608081018552815481526001820154928101929092526002810154938201849052600301546060820152909250906104e7906104e1670de0b6b3a76400006104db6104d388886110dc565b8651906110f1565b906110fd565b90611109565b95945050505050565b60006104fa6109e2565b6004546001600160a01b03841660009081526005602052604090206003015461052291611109565b111592915050565b600154604080516307284ce960e01b815290516000926001600160a01b0316916307284ce99160048083019260209291908290030181865afa158015610574573d6000803e3d6000fd5b505050506040513d601f19601f8201168201806040525081019061059891906119a6565b905090565b600681815481106105ad57600080fd5b600091825260209091206003909102018054600182015460029092015490925083565b60006105da6109e2565b600380546001600160a01b03851660009081526005602052604090209091015461052291611109565b600154604051633f7fd2db60e11b81526000916001600160a01b031690637effa5b6906106349030906004016118c9565b602060405180830381865afa158015610574573d6000803e3d6000fd5b600c5460011461067c5760405162461bcd60e51b8152600401610673906119bf565b60405180910390fd5b6000600c5561068a81611126565b6007546106a1906001600160a01b0316338361122d565b60405181815233907f884edad9ce6fa2440d8a54cc123490eb96d2768479d49ff9c7366125a94243649060200160405180910390a2506001600c55565b600c546001146107005760405162461bcd60e51b8152600401610673906119bf565b6000600c556009546001600160a01b0316331461072f5760405162461bcd60e51b8152600401610673906119e5565b808210158015610740575060388211155b61078b5760405162461bcd60e51b815260206004820152601c60248201527b5f77697468647261774c6f636b757045706f6368733a2072616e676560201b6044820152606401610673565b6003919091556004556001600c55565b6002546000906001600160a01b03838116911614156107e3576107c16170806007611a24565b6107c961101d565b516107d49190611a43565b4310156107e357506000919050565b506001919050565b6006546000906105989060016110dc565b600061080661101d565b60400151905090565b600c546001146108315760405162461bcd60e51b8152600401610673906119bf565b6000600c55600a54604051630e4e9d2160e21b81526001600160a01b039091169063393a7484906108669033906004016118c9565b602060405180830381865afa158015610883573d6000803e3d6000fd5b505050506040513d601f19601f820116820180604052508101906108a79190611a5b565b6108ea5760405162461bcd60e51b815260206004820152601460248201527329a822a91d1024b73b30b634b21039b2b73232b960611b6044820152606401610673565b6108f381611348565b506001600c55565b600c5460011461091d5760405162461bcd60e51b8152600401610673906119bf565b6000600c556009546001600160a01b0316331461094c5760405162461bcd60e51b8152600401610673906119e5565b600180546001600160a01b0319166001600160a01b03831617905561096f6109e2565b50610978610b59565b5061098161052a565b5061098a610603565b50506001600c55565b6004546001600160a01b03821660009081526005602052604081206003015490916109be9190611109565b92915050565b6001600160a01b031660009081526005602052604090206001015490565b6001546040805163900cf0cf60e01b815290516000926001600160a01b03169163900cf0cf9160048083019260209291908290030181865afa158015610574573d6000803e3d6000fd5b600c54600114610a4e5760405162461bcd60e51b8152600401610673906119bf565b6000600c55600754610a6b906001600160a01b031633308461149b565b6108f333611348565b600d5460ff1615610ac75760405162461bcd60e51b815260206004820152601f60248201527f535045523a20496e697469616c697a65206d7573742062652066616c73652e006044820152606401610673565b600780546001600160a01b03808a166001600160a01b031992831617909255600280548684169083161790556008805492891692909116919091179055610b0d846108fb565b610b1782826106de565b5050600980546001600160a01b0319166001600160a01b0394909416939093179092555050600d805460ff191660011790555050565b610b5760016115c7565b565b600154604080516362cb3e1360e11b815290516000926001600160a01b03169163c5967c269160048083019260209291908290030181865afa158015610574573d6000803e3d6000fd5b600c54600114610bc55760405162461bcd60e51b8152600401610673906119bf565b6000600c55600a5460405163753a084f60e11b81526001600160a01b039091169063ea74109e90610bfa9030906004016118c9565b602060405180830381865afa158015610c17573d6000803e3d6000fd5b505050506040513d601f19601f82011682018060405250810190610c3b9190611a5b565b610c7b5760405162461bcd60e51b815260206004820152601160248201527014d411548e88139bdd08185b1b1bddd959607a1b6044820152606401610673565b3360009081526005602052604090208054600b54610c9990826110dc565b600b556000808355600283015560075461098a906001600160a01b0316338361122d565b600c54600114610cdf5760405162461bcd60e51b8152600401610673906119bf565b6000600c556001546001600160a01b03163314610d375760405162461bcd60e51b815260206004820152601660248201527529a822a91d1010b2b837b1b421b7b73a3937b63632b960511b6044820152606401610673565b60008111610d815760405162461bcd60e51b81526020600482015260176024820152760535045523a2043616e6e6f7420616c6c6f63617465203604c1b6044820152606401610673565b6002546008546040516370a0823160e01b81526000926001600160a01b03908116926370a0823192610db992909116906004016118c9565b602060405180830381865afa158015610dd6573d6000803e3d6000fd5b505050506040513d601f19601f82011682018060405250810190610dfa91906119a6565b600254600854919250610e1c916001600160a01b03918216913391168561149b565b600b541561098a576002546008546040516370a0823160e01b81526000926001600160a01b03908116926370a0823192610e5c92909116906004016118c9565b602060405180830381865afa158015610e79573d6000803e3d6000fd5b505050506040513d601f19601f82011682018060405250810190610e9d91906119a6565b9050610ea981836110dc565b92506000610eb561101d565b6040015190506000610ee8610ee1600b546104db670de0b6b3a7640000896110f190919063ffffffff16565b8390611109565b604080516060810182524380825260208083018a905282840185905283519182528101899052929350917fae0e1452e3105698745005d16edaee897b9daf225b8434ea419008b58e60cb76910160405180910390a160068054600181018255600091909152815160039091027ff652222313e28459528d920b65115c16c04f3efc82aaedc97be59f3f377c0d3f81019190915560208201517ff652222313e28459528d920b65115c16c04f3efc82aaedc97be59f3f377c0d408201556040909101517ff652222313e28459528d920b65115c16c04f3efc82aaedc97be59f3f377c0d419091015550505050506001600c55565b600380546001600160a01b0383166000908152600560205260408120909201546109be91611109565b33600090815260056020526040902054610b5790610651565b611025611871565b600661102f6107eb565b8154811061103f5761103f611a7d565b90600052602060002090600302016040518060600160405290816000820154815260200160018201548152602001600282015481525050905090565b611083611871565b600661108e836109c4565b8154811061109e5761109e611a7d565b906000526020600020906003020160405180606001604052908160008201548152602001600182015481526020016002820154815250509050919050565b60006110ea838360016117f1565b9392505050565b60006110ea8284611a24565b60006110ea8284611a93565b6000806111168385611a43565b90506110ea84821015600061180c565b3360009081526005602052604081209061113e6109e2565b90508061115a600354846003015461110990919063ffffffff16565b11156111a85760405162461bcd60e51b815260206004820152601e60248201527f535045523a207374696c6c20696e207769746864726177206c6f636b757000006044820152606401610673565b81548311156111f95760405162461bcd60e51b815260206004820152601d60248201527f535045523a20696e76616c696420776974686472617720616d6f756e740000006044820152606401610673565b61120360006115c7565b600b5461121090846110dc565b600b5560038201819055815461122690846110dc565b9091555050565b604080516001600160a01b038481166024830152604480830185905283518084039091018152606490920183526020820180516001600160e01b031663a9059cbb60e01b17905291516000928392908716916112899190611ab5565b6000604051808303816000865af19150503d80600081146112c6576040519150601f19603f3d011682016040523d82523d6000602084013e6112cb565b606091505b50915091508180156112f55750805115806112f55750808060200190518101906112f59190611a5b565b6113415760405162461bcd60e51b815260206004820152601f60248201527f5472616e7366657248656c7065723a205452414e534645525f4641494c4544006044820152606401610673565b5050505050565b600b546007546040516370a0823160e01b81526000926113cb9290916001600160a01b03909116906370a08231906113849030906004016118c9565b602060405180830381865afa1580156113a1573d6000803e3d6000fd5b505050506040513d601f19601f820116820180604052508101906113c591906119a6565b906110dc565b9050600081116114155760405162461bcd60e51b8152602060048201526015602482015274535045523a20496e76616c69642062616c616e636560581b6044820152606401610673565b600b546114229082611109565b600b556001600160a01b03821660009081526005602052604090206114456109e2565b600382015580546114569083611109565b81556040518281526001600160a01b038416907fe1fffcc4923d04b559f4d29a8bfc6cda04eb5b0d3c460751c2402c5c5cc9109c9060200160405180910390a2505050565b600080856001600160a01b03166323b872dd8686866040516024016114c293929190611af0565b6040516020818303038152906040529060e01b6020820180516001600160e01b0383818316178352505050506040516114fb9190611ab5565b6000604051808303816000865af19150503d8060008114611538576040519150601f19603f3d011682016040523d82523d6000602084013e61153d565b606091505b50915091508180156115675750805115806115675750808060200190518101906115679190611a5b565b6115bf5760405162461bcd60e51b8152602060048201526024808201527f5472616e7366657248656c7065723a205452414e534645525f46524f4d5f46416044820152631253115160e21b6064820152608401610673565b505050505050565b338015611603576001600160a01b03811660009081526005602052604090206115ef8261044a565b60028201556115fc6107eb565b6001909101555b336000908152600560205260409020600281015480156117eb57831561169c57600061162d6109e2565b905080611649600454856003015461110990919063ffffffff16565b11156116965760405162461bcd60e51b815260206004820152601c60248201527b0535045523a207374696c6c20696e20726577617264206c6f636b75760241b6044820152606401610673565b60038301555b60006002808401829055546008546040516370a0823160e01b81526001600160a01b03928316926370a08231926116d8929116906004016118c9565b602060405180830381865afa1580156116f5573d6000803e3d6000fd5b505050506040513d601f19601f8201168201806040525081019061171991906119a6565b9050600082821161172a578161172c565b825b60085460025460405163d1660f9960e01b81529293506001600160a01b039182169263d1660f999261176692169033908690600401611af0565b600060405180830381600087803b15801561178057600080fd5b505af1158015611794573d6000803e3d6000fd5b50506002546040513393506001600160a01b0390911691506000907f16dc511f817964d1eb39e0c3e84ce317f07b5b12cdfa1f8c2f179a08836af51a906117e0908890819088906118f6565b60405180910390a450505b50505050565b6000611800848411158361180c565b60006104e78486611b14565b8161181a5761181a8161181e565b5050565b62461bcd60e51b6000908152602060045260076024526652455123000030600a808404818106603090810160081b95839006959095019082900491820690940160101b939093010160c81b604452606490fd5b60405180606001604052806000815260200160008152602001600081525090565b80356001600160a01b03811681146118a957600080fd5b919050565b6000602082840312156118c057600080fd5b6110ea82611892565b6001600160a01b0391909116815260200190565b6000602082840312156118ef57600080fd5b5035919050565b9283526020830191909152604082015260600190565b6000806040838503121561191f57600080fd5b50508035926020909101359150565b600080600080600080600060e0888a03121561194957600080fd5b61195288611892565b965061196060208901611892565b955061196e60408901611892565b945061197c60608901611892565b935061198a60808901611892565b925060a0880135915060c0880135905092959891949750929550565b6000602082840312156119b857600080fd5b5051919050565b6020808252600c908201526b14d411548e881313d0d2d15160a21b604082015260600190565b6020808252600f908201526e535045523a202174696d656c6f636b60881b604082015260600190565b634e487b7160e01b600052601160045260246000fd5b6000816000190483118215151615611a3e57611a3e611a0e565b500290565b60008219821115611a5657611a56611a0e565b500190565b600060208284031215611a6d57600080fd5b815180151581146110ea57600080fd5b634e487b7160e01b600052603260045260246000fd5b600082611ab057634e487b7160e01b600052601260045260246000fd5b500490565b6000825160005b81811015611ad65760208186018101518583015201611abc565b81811115611ae5576000828501525b509190910192915050565b6001600160a01b039384168152919092166020820152604081019190915260600190565b600082821015611b2657611b26611a0e565b50039056fea2646970667358221220caf3bac3e5b69cd724183da55f0986024f9bc3bc6fd58bcacab45542ab8cdef464736f6c634300080a0033",
  "linkReferences": {},
  "deployedLinkReferences": {}
}