{
  "address": "0x274B1F7F8e66B044B2DC773E017750957f70490c",
  "abi": [
    {
      "inputs": [
        {
          "internalType": "address",
          "name": "_feeToSetter",
          "type": "address"
        },
        {
          "internalType": "address",
          "name": "_formula",
          "type": "address"
        }
      ],
      "stateMutability": "nonpayable",
      "type": "constructor"
    },
    {
      "anonymous": false,
      "inputs": [
        {
          "indexed": true,
          "internalType": "address",
          "name": "token0",
          "type": "address"
        },
        {
          "indexed": true,
          "internalType": "address",
          "name": "token1",
          "type": "address"
        },
        {
          "indexed": false,
          "internalType": "address",
          "name": "pair",
          "type": "address"
        },
        {
          "indexed": false,
          "internalType": "uint32",
          "name": "tokenWeight0",
          "type": "uint32"
        },
        {
          "indexed": false,
          "internalType": "uint32",
          "name": "swapFee",
          "type": "uint32"
        },
        {
          "indexed": false,
          "internalType": "uint256",
          "name": "",
          "type": "uint256"
        }
      ],
      "name": "PairCreated",
      "type": "event"
    },
    {
      "inputs": [],
      "name": "INIT_CODE_HASH",
      "outputs": [
        {
          "internalType": "bytes32",
          "name": "",
          "type": "bytes32"
        }
      ],
      "stateMutability": "view",
      "type": "function"
    },
    {
      "inputs": [
        {
          "internalType": "uint256",
          "name": "",
          "type": "uint256"
        }
      ],
      "name": "allPairs",
      "outputs": [
        {
          "internalType": "address",
          "name": "",
          "type": "address"
        }
      ],
      "stateMutability": "view",
      "type": "function"
    },
    {
      "inputs": [],
      "name": "allPairsLength",
      "outputs": [
        {
          "internalType": "uint256",
          "name": "",
          "type": "uint256"
        }
      ],
      "stateMutability": "view",
      "type": "function"
    },
    {
      "inputs": [
        {
          "internalType": "address",
          "name": "tokenA",
          "type": "address"
        },
        {
          "internalType": "address",
          "name": "tokenB",
          "type": "address"
        },
        {
          "internalType": "uint32",
          "name": "tokenWeightA",
          "type": "uint32"
        },
        {
          "internalType": "uint32",
          "name": "swapFee",
          "type": "uint32"
        }
      ],
      "name": "createPair",
      "outputs": [
        {
          "internalType": "address",
          "name": "pair",
          "type": "address"
        }
      ],
      "stateMutability": "nonpayable",
      "type": "function"
    },
    {
      "inputs": [],
      "name": "feeTo",
      "outputs": [
        {
          "internalType": "address",
          "name": "",
          "type": "address"
        }
      ],
      "stateMutability": "view",
      "type": "function"
    },
    {
      "inputs": [],
      "name": "feeToSetter",
      "outputs": [
        {
          "internalType": "address",
          "name": "",
          "type": "address"
        }
      ],
      "stateMutability": "view",
      "type": "function"
    },
    {
      "inputs": [],
      "name": "formula",
      "outputs": [
        {
          "internalType": "address",
          "name": "",
          "type": "address"
        }
      ],
      "stateMutability": "view",
      "type": "function"
    },
    {
      "inputs": [
        {
          "internalType": "address",
          "name": "tokenA",
          "type": "address"
        },
        {
          "internalType": "address",
          "name": "tokenB",
          "type": "address"
        },
        {
          "internalType": "uint32",
          "name": "tokenWeightA",
          "type": "uint32"
        },
        {
          "internalType": "uint32",
          "name": "swapFee",
          "type": "uint32"
        }
      ],
      "name": "getPair",
      "outputs": [
        {
          "internalType": "address",
          "name": "pair",
          "type": "address"
        }
      ],
      "stateMutability": "view",
      "type": "function"
    },
    {
      "inputs": [
        {
          "internalType": "contract IERC20",
          "name": "token0",
          "type": "address"
        },
        {
          "internalType": "contract IERC20",
          "name": "token1",
          "type": "address"
        }
      ],
      "name": "getPairs",
      "outputs": [
        {
          "internalType": "address[]",
          "name": "_tokenPairs",
          "type": "address[]"
        }
      ],
      "stateMutability": "view",
      "type": "function"
    },
    {
      "inputs": [
        {
          "internalType": "address",
          "name": "pair",
          "type": "address"
        }
      ],
      "name": "getWeightsAndSwapFee",
      "outputs": [
        {
          "internalType": "uint32",
          "name": "tokenWeight0",
          "type": "uint32"
        },
        {
          "internalType": "uint32",
          "name": "tokenWeight1",
          "type": "uint32"
        },
        {
          "internalType": "uint32",
          "name": "swapFee",
          "type": "uint32"
        }
      ],
      "stateMutability": "view",
      "type": "function"
    },
    {
      "inputs": [
        {
          "internalType": "address",
          "name": "b",
          "type": "address"
        }
      ],
      "name": "isPair",
      "outputs": [
        {
          "internalType": "bool",
          "name": "",
          "type": "bool"
        }
      ],
      "stateMutability": "view",
      "type": "function"
    },
    {
      "inputs": [],
      "name": "protocolFee",
      "outputs": [
        {
          "internalType": "uint256",
          "name": "",
          "type": "uint256"
        }
      ],
      "stateMutability": "view",
      "type": "function"
    },
    {
      "inputs": [
        {
          "internalType": "address",
          "name": "_feeTo",
          "type": "address"
        }
      ],
      "name": "setFeeTo",
      "outputs": [],
      "stateMutability": "nonpayable",
      "type": "function"
    },
    {
      "inputs": [
        {
          "internalType": "address",
          "name": "_feeToSetter",
          "type": "address"
        }
      ],
      "name": "setFeeToSetter",
      "outputs": [],
      "stateMutability": "nonpayable",
      "type": "function"
    },
    {
      "inputs": [
        {
          "internalType": "uint256",
          "name": "_protocolFee",
          "type": "uint256"
        }
      ],
      "name": "setProtocolFee",
      "outputs": [],
      "stateMutability": "nonpayable",
      "type": "function"
    }
  ],
  "transactionHash": "0x387469c99298f3c95817fd58f749c9230626de924f2f6ab055a94dc3e2ab4237",
  "args": [
    "0x10E38dFfFCfdBaaf590D5A9958B01C9cfcF6A63B",
    "0xb3a65e1bF6884eC96fdA1e8F09e477d203357BF0"
  ],
  "solcInputHash": "e0eb249e18fde66ee987adcef851d11b",
  "bytecode": "0x608060405234801561001057600080fd5b5060405161401e38038061401e83398101604081905261002f9161007c565b600380546001600160a01b039384166001600160a01b031991821617909155600180549290931691161790556100af565b80516001600160a01b038116811461007757600080fd5b919050565b6000806040838503121561008f57600080fd5b61009883610060565b91506100a660208401610060565b90509250929050565b613f60806100be6000396000f3fe608060405234801561001057600080fd5b50600436106100c55760003560e01c8063017e7e58146100ca578063094b7415146100fa57806314572adb1461010d57806316093fad146101205780631e3dd18b14610140578063257671f5146101535780634b75f54f14610169578063574f2ba31461017c578063787dce3d14610184578063a2e74af614610199578063b0e21e8a146101ac578063bfd63f4d146101b5578063ca222979146101c8578063e5e31b1314610202578063f46901ed14610246575b600080fd5b6000546100dd906001600160a01b031681565b6040516001600160a01b0390911681526020015b60405180910390f35b6003546100dd906001600160a01b031681565b6100dd61011b366004610b4f565b610259565b61013361012e366004610ba7565b610671565b6040516100f19190610be0565b6100dd61014e366004610c2d565b61075c565b61015b610786565b6040519081526020016100f1565b6001546100dd906001600160a01b031681565b60055461015b565b610197610192366004610c2d565b6107d0565b005b6101976101a7366004610c46565b610853565b61015b60025481565b6100dd6101c3366004610b4f565b61089f565b6101db6101d6366004610c46565b61092e565b6040805163ffffffff948516815292841660208401529216918101919091526060016100f1565b610236610210366004610c46565b6001600160a01b03166000908152600660205260409020546001600160401b0316151590565b60405190151581526020016100f1565b610197610254366004610c46565b610996565b6000836001600160a01b0316856001600160a01b031614156102ac5760405162461bcd60e51b8152602060048201526007602482015266524c503a20494160c81b60448201526064015b60405180910390fd5b60028363ffffffff16101580156102ca575060628363ffffffff1611155b80156102e457506102dc600284610c63565b63ffffffff16155b61031a5760405162461bcd60e51b8152602060048201526007602482015266524c503a20495760c81b60448201526064016102a3565b60018263ffffffff161015801561033957506107d08263ffffffff1611155b6103705760405162461bcd60e51b81526020600482015260086024820152672926281d1024a9a360c11b60448201526064016102a3565b6000806000866001600160a01b0316886001600160a01b0316106103a057868861039b886064610caa565b6103a4565b8787875b919450925090506001600160a01b0383166103eb5760405162461bcd60e51b8152602060048201526007602482015266524c503a205a4160c81b60448201526064016102a3565b6000604051806020016103fd90610b11565b6020820181038252601f19601f82011660405250905060008484848960405160200161042c9493929190610ccf565b60408051601f198184030181529181528151602092830120600081815260049093529120549091506001600160a01b0316156104945760405162461bcd60e51b8152602060048201526007602482015266524c503a20504560c81b60448201526064016102a3565b808251602084016000f560405163d0f6957960e01b81526001600160a01b038781166004830152868116602483015263ffffffff80871660448401528a1660648301529197509087169063d0f6957990608401600060405180830381600087803b15801561050157600080fd5b505af1158015610515573d6000803e3d6000fd5b5050506001600160a01b0380871660009081526007602090815260408083209389168352929052206105489150876109e2565b506001600160a01b03808516600090815260076020908152604080832093891683529290522061057890876109e2565b50600081815260046020908152604080832080546001600160a01b03199081166001600160a01b038c8116918217909355600580546001810182557f036b6384b5eca791c62761152d0c79bb0604c104a5fb6f4eb0703f3154bb3db001805490931682179092558086526006855294839020805463ffffffff8e81168b881b63ffffffff60201b1681176001600160401b0319909316831790935592548551978852928a16958701959095528584015260608501529051919287821692918916917f41f8736f924f57e464ededb08bf71f868f9d142885bbc73a1516db2be21fc4289181900360800190a3505050505050949350505050565b6001600160a01b03828116600090815260076020908152604080832093851683529290522054606090806001600160401b038111156106b2576106b2610d11565b6040519080825280602002602001820160405280156106db578160200160208202803683370190505b50915060005b81811015610754576001600160a01b0380861660009081526007602090815260408083209388168352929052206107189082610a56565b83828151811061072a5761072a610d27565b6001600160a01b03909216602092830291909101909101528061074c81610d3d565b9150506106e1565b505092915050565b6005818154811061076c57600080fd5b6000918252602090912001546001600160a01b0316905081565b60405161079560208201610b11565b601f1982820381018352601f9091011660408190526107b79190602001610d58565b6040516020818303038152906040528051906020012081565b6003546001600160a01b031633146107fa5760405162461bcd60e51b81526004016102a390610d93565b801580610817575061271081101580156108175750620186a08111155b61084e5760405162461bcd60e51b81526020600482015260086024820152672926281d1024a82360c11b60448201526064016102a3565b600255565b6003546001600160a01b0316331461087d5760405162461bcd60e51b81526004016102a390610d93565b600380546001600160a01b0319166001600160a01b0392909216919091179055565b600080600080866001600160a01b0316886001600160a01b0316106108d05786886108cb886064610caa565b6108d4565b8787875b9250925092506000838383886040516020016108f39493929190610ccf565b60408051601f198184030181529181528151602092830120600090815260049092529020546001600160a01b03169998505050505050505050565b6001600160a01b038116600090815260066020526040812054819081906001600160401b0316801561097c5763ffffffff602082901c169350905080610975846064610caa565b925061098d565b603280601e9350935093505061098f565b505b9193909250565b6003546001600160a01b031633146109c05760405162461bcd60e51b81526004016102a390610d93565b600080546001600160a01b0319166001600160a01b0392909216919091179055565b6001600160a01b0381166000908152600183016020526040812054610a4c57508154600180820184556000848152602080822090930180546001600160a01b0319166001600160a01b03861690811790915585549082528286019093526040902091909155610a50565b5060005b92915050565b8154600090610a689083106064610a79565b610a728383610a8b565b9392505050565b81610a8757610a8781610abe565b5050565b6000826000018281548110610aa257610aa2610d27565b6000918252602090912001546001600160a01b03169392505050565b62461bcd60e51b6000908152602060045260076024526652455123000030600a808404818106603090810160081b95839006959095019082900491820690940160101b939093010160c81b604452606490fd5b61317780610db483390190565b6001600160a01b0381168114610b3357600080fd5b50565b803563ffffffff81168114610b4a57600080fd5b919050565b60008060008060808587031215610b6557600080fd5b8435610b7081610b1e565b93506020850135610b8081610b1e565b9250610b8e60408601610b36565b9150610b9c60608601610b36565b905092959194509250565b60008060408385031215610bba57600080fd5b8235610bc581610b1e565b91506020830135610bd581610b1e565b809150509250929050565b6020808252825182820181905260009190848201906040850190845b81811015610c215783516001600160a01b031683529284019291840191600101610bfc565b50909695505050505050565b600060208284031215610c3f57600080fd5b5035919050565b600060208284031215610c5857600080fd5b8135610a7281610b1e565b600063ffffffff80841680610c8857634e487b7160e01b600052601260045260246000fd5b92169190910692915050565b634e487b7160e01b600052601160045260246000fd5b600063ffffffff83811690831681811015610cc757610cc7610c94565b039392505050565b6001600160601b0319606095861b811682529390941b90921660148401526001600160e01b031960e091821b8116602885015291901b16602c82015260300190565b634e487b7160e01b600052604160045260246000fd5b634e487b7160e01b600052603260045260246000fd5b6000600019821415610d5157610d51610c94565b5060010190565b6000825160005b81811015610d795760208186018101518583015201610d5f565b81811115610d88576000828501525b509190910192915050565b6020808252600690820152652926281d102360d11b60408201526060019056fe60806040526001600b5534801561001557600080fd5b50604080518082018252601f81527f5265717569656d2050616972204c69717569646974792050726f7669646572006020918201528151808301835260018152603160f81b9082015281517f8b73c3c69bb8fe3d512ecc4cf759cc79239f7b179b0ffacaa9a75d522b39400f818301527f4d949f5c4c4f80d7bdbde28a36135fecf440532cf0f2bb46c4801ec3299b1062818401527fc89efdaa54c0f20c7adf612882df0950f5a951637e0307cdcb4c672f298b8bc660608201524660808201523060a0808301919091528351808303909101815260c09091019092528151910120600355600580546001600160a01b0319163317905561305c8061011b6000396000f3fe608060405234801561001057600080fd5b50600436106101a15760003560e01c8063022c0d9f146101a657806306fdde03146101bb5780630902f1ac1461020d578063095ea7b3146102415780630dfe1681146102645780630e6d8bce1461028457806318160ddd146102a557806323b872dd146102ae57806330adf81f146102c1578063313ce567146102d657806332bfe469146102f057806332fd54931461031a5780633644e5151461032d5780634ac00e03146103365780634b75f54f146103495780635909c0d51461035c5780635a3d5493146103655780636a6278421461036e57806370a08231146103815780637ecebe00146103a157806389afcb44146103c157806395d89b41146103e9578063a9059cbb1461040c578063ba9a7a561461041f578063bc25cf7714610428578063c45a01551461043b578063cc56fd431461044e578063d0f6957914610461578063d21220a714610474578063d4cadf6814610487578063d505accf146104ac578063d54a8d18146104bf578063dd62ed3e146104d5578063e9255bae14610500578063fff6cae914610513575b600080fd5b6101b96101b4366004612966565b61051b565b005b6101f76040518060400160405280601f81526020017f5265717569656d2050616972204c69717569646974792050726f76696465720081525081565b6040516102049190612a2b565b60405180910390f35b610215610563565b604080516001600160701b03948516815293909216602084015263ffffffff1690820152606001610204565b61025461024f366004612a5e565b61058d565b6040519015158152602001610204565b600654610277906001600160a01b031681565b6040516102049190612a8a565b610297610292366004612a9e565b6105a3565b604051908152602001610204565b61029760005481565b6102546102bc366004612afd565b61072c565b610297600080516020612fe783398151915281565b6102de601281565b60405160ff9091168152602001610204565b600d54600e5460408051600160e01b90930463ffffffff9081168452909116602083015201610204565b6101b9610328366004612a9e565b6107a6565b61029760035481565b610297610344366004612a9e565b610d01565b600c54610277906001600160a01b031681565b61029760095481565b610297600a5481565b61029761037c366004612b3e565b610e0d565b61029761038f366004612b3e565b60016020526000908152604090205481565b6102976103af366004612b3e565b60046020526000908152604090205481565b6103d46103cf366004612b3e565b611090565b60408051928352602083019190915201610204565b6101f760405180604001604052806004815260200163052504c560e41b81525081565b61025461041a366004612a5e565b6113b7565b6102976103e881565b6101b9610436366004612b3e565b6113c4565b600554610277906001600160a01b031681565b61029761045c366004612afd565b6114db565b6101b961046f366004612b6f565b61160b565b600754610277906001600160a01b031681565b600e54600160201b900463ffffffff1660405163ffffffff9091168152602001610204565b6101b96104ba366004612bc7565b611771565b6104c7611957565b604051610204929190612c3e565b6102976104e3366004612c58565b600260209081526000928352604080842090915290825290205481565b61029761050e366004612afd565b611972565b6101b9611a55565b600b546001146105465760405162461bcd60e51b815260040161053d90612c91565b60405180910390fd5b6000600b55610556858585611b83565b50506001600b5550505050565b6008546001600160701b0380821692600160701b830490911691600160e01b900463ffffffff1690565b600061059a338484612099565b50600192915050565b6000600b546001146105c75760405162461bcd60e51b815260040161053d90612c91565b6000600b8190556006546001600160a01b03888116911614908080808461061b57600854600e54600d546001600160701b03600160701b8404811693169163ffffffff90811691600160e01b90041661064b565b600854600d54600e546001600160701b0380841693600160701b9004169163ffffffff600160e01b909104811691165b600c54600e54604051630b19210b60e41b81526001600160701b039687169a5094909516975091955093506000926001600160a01b039091169163b19210b0916106af918e918a918a918a918a91600160201b900463ffffffff1690600401612cb3565b602060405180830381865afa1580156106cc573d6000803e3d6000fd5b505050506040513d601f19601f820116820180604052508101906106f09190612ce7565b90506000808761070257826000610706565b6000835b9150915061071582828c611b83565b6001600b559e9d5050505050505050505050505050565b6001600160a01b038316600090815260026020908152604080832033845290915281205460001914610791576001600160a01b03841660009081526002602090815260408083203384529091528120805484929061078b908490612d16565b90915550505b61079c8484846120fb565b5060019392505050565b600b546001146107c85760405162461bcd60e51b815260040161053d90612c91565b6000600b81905560065481906001600160a01b038881169116146107ee578360006107f2565b6000845b9150915060008211806108055750600081115b6108215760405162461bcd60e51b815260040161053d90612d2d565b6008546001600160701b0380821691600160701b900416818410801561084f5750806001600160701b031683105b61086b5760405162461bcd60e51b815260040161053d90612d51565b60065460075460009182916001600160a01b039182169190811690891682148015906108a95750806001600160a01b0316896001600160a01b031614155b6108c55760405162461bcd60e51b815260040161053d90612d74565b87156108d6576108d6828a8a61218a565b86156108e7576108e7818a8961218a565b6040516370a0823160e01b81526001600160a01b038316906370a0823190610913903090600401612a8a565b602060405180830381865afa158015610930573d6000803e3d6000fd5b505050506040513d601f19601f820116820180604052508101906109549190612ce7565b6040516370a0823160e01b81529094506001600160a01b038216906370a0823190610983903090600401612a8a565b602060405180830381865afa1580156109a0573d6000803e3d6000fd5b505050506040513d601f19601f820116820180604052508101906109c49190612ce7565b92505050600086856001600160701b03166109df9190612d16565b83116109ec576000610a09565b6109ff876001600160701b038716612d16565b610a099084612d16565b90506000610a20876001600160701b038716612d16565b8311610a2d576000610a4a565b610a40876001600160701b038716612d16565b610a4a9084612d16565b90506000821180610a5b5750600081115b610a775760405162461bcd60e51b815260040161053d90612d97565b6000610a8585612710612dbb565b90506000610a9585612710612dbb565b90508315610b0257600e54600090610aba90600160201b900463ffffffff1686612dbb565b9050610ac68184612d16565b600d54909350610ae09082906001600160701b0316612dda565b600d80546001600160701b0319166001600160701b0392909216919091179055505b8215610b7a57600e54600090610b2590600160201b900463ffffffff1685612dbb565b9050610b318183612d16565b600d54909250610b52908290600160701b90046001600160701b0316612dda565b600d600e6101000a8154816001600160701b0302191690836001600160701b03160217905550505b600d54600160e01b900463ffffffff166032811415610be457610ba96001600160701b03808a16908b16612dbb565b610bb7906305f5e100612dbb565b610bc18385612dbb565b1015610bdf5760405162461bcd60e51b815260040161053d90612df2565b610c9f565b600c546001600160a01b03166379c91b37610c0a6001600160701b038c16612710612dbb565b610c1f6001600160701b038c16612710612dbb565b8686866040518663ffffffff1660e01b8152600401610c42959493929190612e14565b602060405180830381865afa158015610c5f573d6000803e3d6000fd5b505050506040513d601f19601f82011682018060405250810190610c839190612e3d565b610c9f5760405162461bcd60e51b815260040161053d90612df2565b505050610cae848488886122bd565b886001600160a01b0316336001600160a01b031660008051602061300783398151915284848c8c604051610ce59493929190612e5f565b60405180910390a350506001600b555050505050505050505050565b6000600b54600114610d255760405162461bcd60e51b815260040161053d90612c91565b6000600b8190556006546001600160a01b038881169116149080808084610d7957600854600e54600d546001600160701b03600160701b8404811693169163ffffffff90811691600160e01b900416610da9565b600854600d54600e546001600160701b0380841693600160701b9004169163ffffffff600160e01b909104811691165b600c54600e5460405163671a11b560e01b81526001600160701b039687169a5094909516975091955093506000926001600160a01b039091169163671a11b5916106af918e918a918a918a918a91600160201b900463ffffffff1690600401612cb3565b6000600b54600114610e315760405162461bcd60e51b815260040161053d90612c91565b6000600b81905580610e41610563565b506006546040516370a0823160e01b81529294509092506000916001600160a01b03909116906370a0823190610e7b903090600401612a8a565b602060405180830381865afa158015610e98573d6000803e3d6000fd5b505050506040513d601f19601f82011682018060405250810190610ebc9190612ce7565b6007546040516370a0823160e01b81529192506000916001600160a01b03909116906370a0823190610ef2903090600401612a8a565b602060405180830381865afa158015610f0f573d6000803e3d6000fd5b505050506040513d601f19601f82011682018060405250810190610f339190612ce7565b90506000610f4a6001600160701b03861684612d16565b90506000610f616001600160701b03861684612d16565b9050610f6d868661250b565b5060005480610fa9576103e8610f8b610f868486612dbb565b6127aa565b610f959190612d16565b9750610fa460006103e861281a565b610ff0565b610fed6001600160701b038816610fc08386612dbb565b610fca9190612e90565b6001600160701b038816610fde8486612dbb565b610fe89190612e90565b612891565b97505b6000881161102d5760405162461bcd60e51b815260206004820152600a6024820152695245514c503a20494c4d60b01b604482015260640161053d565b611037898961281a565b611043858589896122bd565b604080518481526020810184905233917f4c209b5fc8ad50758f13e2e1088ba56a560dff690a1c6fef26394f4c03821c4f910160405180910390a250506001600b55509395945050505050565b600080600b546001146110b55760405162461bcd60e51b815260040161053d90612c91565b6000600b819055806110c5610563565b506006546007546040516370a0823160e01b81529395509193506001600160a01b039081169291169060009083906370a0823190611107903090600401612a8a565b602060405180830381865afa158015611124573d6000803e3d6000fd5b505050506040513d601f19601f820116820180604052508101906111489190612ce7565b90506000826001600160a01b03166370a08231306040518263ffffffff1660e01b81526004016111789190612a8a565b602060405180830381865afa158015611195573d6000803e3d6000fd5b505050506040513d601f19601f820116820180604052508101906111b99190612ce7565b306000908152600160205260409020549091506111d6878761250b565b50600054806111e58584612dbb565b6111ef9190612e90565b9950806111fc8484612dbb565b6112069190612e90565b985060008a1180156112185750600089115b6112515760405162461bcd60e51b815260206004820152600a6024820152692922a8a6281d1024a62160b11b604482015260640161053d565b61125b30836128a9565b611266868c8c61218a565b611271858c8b61218a565b6040516370a0823160e01b81526001600160a01b038716906370a082319061129d903090600401612a8a565b602060405180830381865afa1580156112ba573d6000803e3d6000fd5b505050506040513d601f19601f820116820180604052508101906112de9190612ce7565b6040516370a0823160e01b81529094506001600160a01b038616906370a082319061130d903090600401612a8a565b602060405180830381865afa15801561132a573d6000803e3d6000fd5b505050506040513d601f19601f8201168201806040525081019061134e9190612ce7565b925061135c84848a8a6122bd565b604080518b8152602081018b90526001600160a01b038d169133917fdccd412f0b1252819cb1fd330b93224ca42612892bb3f4f789976e6d81936496910160405180910390a350505050505050506001600b81905550915091565b600061059a3384846120fb565b600b546001146113e65760405162461bcd60e51b815260040161053d90612c91565b6000600b556006546007546008546040516370a0823160e01b81526001600160a01b03938416939092169161148991849186916001600160701b03169083906370a0823190611439903090600401612a8a565b602060405180830381865afa158015611456573d6000803e3d6000fd5b505050506040513d601f19601f8201168201806040525081019061147a9190612ce7565b6114849190612d16565b61218a565b6008546040516370a0823160e01b81526114d19183918691600160701b90046001600160701b0316906001600160a01b038416906370a0823190611439903090600401612a8a565b50506001600b5550565b60065460009081908190819081906001600160a01b0389811691161461152e57600854600e54600d546001600160701b03600160701b8404811693169163ffffffff90811691600160e01b90041661155e565b600854600d54600e546001600160701b0380841693600160701b9004169163ffffffff600160e01b909104811691165b600c54600e54604051630b19210b60e41b81526001600160701b039687169a5094909516975091955093506001600160a01b03169163b19210b0916115be918a918991899189918991600160201b90910463ffffffff1690600401612cb3565b602060405180830381865afa1580156115db573d6000803e3d6000fd5b505050506040513d601f19601f820116820180604052508101906115ff9190612ce7565b98975050505050505050565b6005546001600160a01b031633146116505760405162461bcd60e51b81526020600482015260086024820152672922a8a6281d102360c11b604482015260640161053d565b600680546001600160a01b03199081166001600160a01b038781169190911790925560078054909116918516919091179055600d80546001600160e01b0316600160e01b63ffffffff858116820292909217928390556116b39204166064612ea4565b600e805463ffffffff848116600160201b026001600160401b031990921693169290921791909117905560055460408051634b75f54f60e01b815290516001600160a01b0390921691634b75f54f916004818101926020929091908290030181865afa158015611727573d6000803e3d6000fd5b505050506040513d601f19601f8201168201806040525081019061174b9190612ec9565b600c80546001600160a01b0319166001600160a01b039290921691909117905550505050565b428410156117b05760405162461bcd60e51b815260206004820152600c60248201526b1493140e881156141254915160a21b604482015260640161053d565b6003546001600160a01b03881660009081526004602052604081208054919291600080516020612fe7833981519152918b918b918b9190876117f183612ee6565b909155506040805160208101969096526001600160a01b0394851690860152929091166060840152608083015260a082015260c0810187905260e0016040516020818303038152906040528051906020012060405160200161186a92919061190160f01b81526002810192909252602282015260420190565b60408051601f198184030181528282528051602091820120600080855291840180845281905260ff88169284019290925260608301869052608083018590529092509060019060a0016020604051602081039080840390855afa1580156118d5573d6000803e3d6000fd5b5050604051601f1901519150506001600160a01b0381161580159061190b5750886001600160a01b0316816001600160a01b0316145b6119415760405162461bcd60e51b8152602060048201526007602482015266524c503a20495360c81b604482015260640161053d565b61194c898989612099565b505050505050505050565b600d546001600160701b0380821692600160701b9092041690565b60065460009081908190819081906001600160a01b038981169116146119c557600854600e54600d546001600160701b03600160701b8404811693169163ffffffff90811691600160e01b9004166119f5565b600854600d54600e546001600160701b0380841693600160701b9004169163ffffffff600160e01b909104811691165b600c54600e5460405163671a11b560e01b81526001600160701b039687169a5094909516975091955093506001600160a01b03169163671a11b5916115be918a918991899189918991600160201b90910463ffffffff1690600401612cb3565b600b54600114611a775760405162461bcd60e51b815260040161053d90612c91565b6000600b556006546040516370a0823160e01b8152611b7c916001600160a01b0316906370a0823190611aae903090600401612a8a565b602060405180830381865afa158015611acb573d6000803e3d6000fd5b505050506040513d601f19601f82011682018060405250810190611aef9190612ce7565b6007546040516370a0823160e01b81526001600160a01b03909116906370a0823190611b1f903090600401612a8a565b602060405180830381865afa158015611b3c573d6000803e3d6000fd5b505050506040513d601f19601f82011682018060405250810190611b609190612ce7565b6008546001600160701b0380821691600160701b9004166122bd565b6001600b55565b600080841180611b935750600083115b611baf5760405162461bcd60e51b815260040161053d90612d2d565b6008546001600160701b0380821691600160701b9004168186108015611bdd5750806001600160701b031685105b611bf95760405162461bcd60e51b815260040161053d90612d51565b60065460075460009182916001600160a01b03918216919081169088168214801590611c375750806001600160a01b0316886001600160a01b031614155b611c535760405162461bcd60e51b815260040161053d90612d74565b8915611c6457611c6482898c61218a565b8815611c7557611c7581898b61218a565b6040516370a0823160e01b81526001600160a01b038316906370a0823190611ca1903090600401612a8a565b602060405180830381865afa158015611cbe573d6000803e3d6000fd5b505050506040513d601f19601f82011682018060405250810190611ce29190612ce7565b6040516370a0823160e01b81529094506001600160a01b038216906370a0823190611d11903090600401612a8a565b602060405180830381865afa158015611d2e573d6000803e3d6000fd5b505050506040513d601f19601f82011682018060405250810190611d529190612ce7565b92505050600088856001600160701b0316611d6d9190612d16565b8311611d7a576000611d97565b611d8d896001600160701b038716612d16565b611d979084612d16565b90506000611dae896001600160701b038716612d16565b8311611dbb576000611dd8565b611dce896001600160701b038716612d16565b611dd89084612d16565b90506000821180611de95750600081115b611e055760405162461bcd60e51b815260040161053d90612d97565b6000611e1385612710612dbb565b90506000611e2385612710612dbb565b90508315611e9057600e54600090611e4890600160201b900463ffffffff1686612dbb565b9050611e548184612d16565b600d54909350611e6e9082906001600160701b0316612dda565b600d80546001600160701b0319166001600160701b0392909216919091179055505b8215611f0857600e54600090611eb390600160201b900463ffffffff1685612dbb565b9050611ebf8183612d16565b600d54909250611ee0908290600160701b90046001600160701b0316612dda565b600d600e6101000a8154816001600160701b0302191690836001600160701b03160217905550505b600d54600160e01b900463ffffffff166032811415611f7257611f376001600160701b03808a16908b16612dbb565b611f45906305f5e100612dbb565b611f4f8385612dbb565b1015611f6d5760405162461bcd60e51b815260040161053d90612df2565b61202d565b600c546001600160a01b03166379c91b37611f986001600160701b038c16612710612dbb565b611fad6001600160701b038c16612710612dbb565b8686866040518663ffffffff1660e01b8152600401611fd0959493929190612e14565b602060405180830381865afa158015611fed573d6000803e3d6000fd5b505050506040513d601f19601f820116820180604052508101906120119190612e3d565b61202d5760405162461bcd60e51b815260040161053d90612df2565b50505061203c848488886122bd565b876001600160a01b0316336001600160a01b031660008051602061300783398151915284848e8e6040516120739493929190612e5f565b60405180910390a360008a11612089578861208b565b895b9a9950505050505050505050565b6001600160a01b0383811660008181526002602090815260408083209487168084529482529182902085905590518481527f8c5be1e5ebec7d5bd14f71427d1e84f3dd0314c0f7b2291e5b200ac8c7c3b92591015b60405180910390a3505050565b6001600160a01b03831660009081526001602052604081208054839290612123908490612d16565b90915550506001600160a01b03821660009081526001602052604081208054839290612150908490612dda565b92505081905550816001600160a01b0316836001600160a01b0316600080516020612fc7833981519152836040516120ee91815260200190565b60408051808201825260198152787472616e7366657228616464726573732c75696e743235362960381b60209182015281516001600160a01b0385811660248301526044808301869052845180840390910181526064909201845291810180516001600160e01b031663a9059cbb60e01b179052915160009283928716916122129190612f01565b6000604051808303816000865af19150503d806000811461224f576040519150601f19603f3d011682016040523d82523d6000602084013e612254565b606091505b509150915081801561227e57508051158061227e57508080602001905181019061227e9190612e3d565b6122b65760405162461bcd60e51b81526020600482015260096024820152682922a8a6281d102a2360b91b604482015260640161053d565b5050505050565b600d54600160e01b900463ffffffff166001600160701b036122e0826064612ea4565b6122f09063ffffffff1687612dbb565b1115801561231457506001600160701b0361231163ffffffff831686612dbb565b11155b61234b5760405162461bcd60e51b81526020600482015260086024820152675245514c503a204f60c01b604482015260640161053d565b600061235b600160201b42612f1d565b60085490915060009061237b90600160e01b900463ffffffff1683612ea4565b905060008163ffffffff1611801561239b57506001600160701b03851615155b80156123af57506001600160701b03841615155b156124735760006123c1846064612ea4565b6123d19063ffffffff1687612f31565b905060006123e563ffffffff861687612f31565b90508263ffffffff1661240a836123fb8461291a565b6001600160e01b031690612939565b6001600160e01b031661241d9190612dbb565b6009600082825461242e9190612dda565b909155505063ffffffff8316612447826123fb8561291a565b6001600160e01b031661245a9190612dbb565b600a600082825461246b9190612dda565b909155505050505b6008805463ffffffff8416600160e01b026001600160e01b036001600160701b038a8116600160701b9081026001600160e01b0319909516828e1617949094179182168317948590556040517f1c411e9a96e071241c2f21f7726b17ae89e3cab4c78be50e062b03a9fffbbad1956124fa9594831693831693909317939092041690612c3e565b60405180910390a150505050505050565b600080600560009054906101000a90046001600160a01b03166001600160a01b031663017e7e586040518163ffffffff1660e01b8152600401602060405180830381865afa158015612561573d6000803e3d6000fd5b505050506040513d601f19601f820116820180604052508101906125859190612ec9565b90506000600560009054906101000a90046001600160a01b03166001600160a01b031663b0e21e8a6040518163ffffffff1660e01b8152600401602060405180830381865afa1580156125dc573d6000803e3d6000fd5b505050506040513d601f19601f820116820180604052508101906126009190612ce7565b6001600160a01b03831615159350905060008061261b611957565b915091506000836001600160701b03161180156126355750845b801561265d57506000826001600160701b0316118061265d57506000816001600160701b0316115b1561275d57600d54600c5460008054600160e01b90930463ffffffff169290916001600160a01b0316906392aec23c908b8b8661269b816064612ea4565b6126a58c8c612f60565b6126af8d8c612f60565b6040516001600160e01b031960e08a901b16815260048101979097526001600160701b039586166024880152938516604487015263ffffffff928316606487015291166084850152821660a48401521660c482015260e401602060405180830381865afa158015612724573d6000803e3d6000fd5b505050506040513d601f19601f820116820180604052508101906127489190612ce7565b9050801561275a5761275a868261281a565b50505b6001600160701b0382161561277d57600d80546001600160701b03191690555b6001600160701b038116156127a057600d8054600160701b600160e01b03191690555b5050505092915050565b6000600382111561280b57508060006127c4600283612e90565b6127cf906001612dda565b90505b81811015612805579050806002816127ea8186612e90565b6127f49190612dda565b6127fe9190612e90565b90506127d2565b50919050565b8115612815575060015b919050565b8060008082825461282b9190612dda565b90915550506001600160a01b03821660009081526001602052604081208054839290612858908490612dda565b90915550506040518181526001600160a01b03831690600090600080516020612fc7833981519152906020015b60405180910390a35050565b60008183106128a057816128a2565b825b9392505050565b6001600160a01b038216600090815260016020526040812080548392906128d1908490612d16565b92505081905550806000808282546128e99190612d16565b90915550506040518181526000906001600160a01b03841690600080516020612fc783398151915290602001612885565b6000612933600160701b6001600160701b038416612f86565b92915050565b60006128a26001600160701b03831684612fac565b6001600160a01b038116811461296357600080fd5b50565b60008060008060006080868803121561297e57600080fd5b853594506020860135935060408601356129978161294e565b925060608601356001600160401b03808211156129b357600080fd5b818801915088601f8301126129c757600080fd5b8135818111156129d657600080fd5b8960208285010111156129e857600080fd5b9699959850939650602001949392505050565b60005b83811015612a165781810151838201526020016129fe565b83811115612a25576000848401525b50505050565b6020815260008251806020840152612a4a8160408501602087016129fb565b601f01601f19169190910160400192915050565b60008060408385031215612a7157600080fd5b8235612a7c8161294e565b946020939093013593505050565b6001600160a01b0391909116815260200190565b600080600080600060a08688031215612ab657600080fd5b8535612ac18161294e565b94506020860135612ad18161294e565b935060408601359250606086013591506080860135612aef8161294e565b809150509295509295909350565b600080600060608486031215612b1257600080fd5b8335612b1d8161294e565b92506020840135612b2d8161294e565b929592945050506040919091013590565b600060208284031215612b5057600080fd5b81356128a28161294e565b803563ffffffff8116811461281557600080fd5b60008060008060808587031215612b8557600080fd5b8435612b908161294e565b93506020850135612ba08161294e565b9250612bae60408601612b5b565b9150612bbc60608601612b5b565b905092959194509250565b600080600080600080600060e0888a031215612be257600080fd5b8735612bed8161294e565b96506020880135612bfd8161294e565b95506040880135945060608801359350608088013560ff81168114612c2157600080fd5b9699959850939692959460a0840135945060c09093013592915050565b6001600160701b0392831681529116602082015260400190565b60008060408385031215612c6b57600080fd5b8235612c768161294e565b91506020830135612c868161294e565b809150509250929050565b60208082526008908201526714915453140e881360c21b604082015260600190565b9586526020860194909452604085019290925263ffffffff908116606085015290811660808401521660a082015260c00190565b600060208284031215612cf957600080fd5b5051919050565b634e487b7160e01b600052601160045260246000fd5b600082821015612d2857612d28612d00565b500390565b6020808252600a90820152695245514c503a20494f4160b01b604082015260600190565b60208082526009908201526814915453140e88125360ba1b604082015260600190565b60208082526009908201526814915453140e88125560ba1b604082015260600190565b6020808252600a90820152695245514c503a2049494160b01b604082015260600190565b6000816000190483118215151615612dd557612dd5612d00565b500290565b60008219821115612ded57612ded612d00565b500190565b6020808252600890820152675245514c503a204b60c01b604082015260600190565b94855260208501939093526040840191909152606083015263ffffffff16608082015260a00190565b600060208284031215612e4f57600080fd5b815180151581146128a257600080fd5b93845260208401929092526040830152606082015260800190565b634e487b7160e01b600052601260045260246000fd5b600082612e9f57612e9f612e7a565b500490565b600063ffffffff83811690831681811015612ec157612ec1612d00565b039392505050565b600060208284031215612edb57600080fd5b81516128a28161294e565b6000600019821415612efa57612efa612d00565b5060010190565b60008251612f138184602087016129fb565b9190910192915050565b600082612f2c57612f2c612e7a565b500690565b60006001600160701b0382811684821681151582840482111615612f5757612f57612d00565b02949350505050565b60006001600160701b0383811680612f7a57612f7a612e7a565b92169190910492915050565b60006001600160e01b0382811684821681151582840482111615612f5757612f57612d00565b60006001600160e01b0383811680612f7a57612f7a612e7a56feddf252ad1be2c89b69c2b068fc378daa952ba7f163c4a11628f55a4df523b3ef6e71edae12b1b97f4d1f60370fef10105fa2faae0126114a169c64845d6126c9d78ad95fa46c994b6551d0da85fc275fe613ce37657fb8d5e3d130840159d822a2646970667358221220c781003ee866af1150de62e00d2557140cb22a9b29366cdf7d70eadda0ecfd3364736f6c634300080a0033a26469706673582212208fefb1d3523035c42a48a9ddcc4721cac94c6edcdd1c989bbfdd3eabde45583864736f6c634300080a0033",
  "devdoc": {
    "kind": "dev",
    "methods": {},
    "version": 1
  },
  "userdoc": {
    "kind": "user",
    "methods": {},
    "version": 1
  },
  "storageLayout": {
    "storage": [
      {
        "astId": 23151,
        "contract": "contracts/RequiemWeightedPairFactory.sol:RequiemWeightedPairFactory",
        "label": "feeTo",
        "offset": 0,
        "slot": "0",
        "type": "t_address"
      },
      {
        "astId": 23153,
        "contract": "contracts/RequiemWeightedPairFactory.sol:RequiemWeightedPairFactory",
        "label": "formula",
        "offset": 0,
        "slot": "1",
        "type": "t_address"
      },
      {
        "astId": 23155,
        "contract": "contracts/RequiemWeightedPairFactory.sol:RequiemWeightedPairFactory",
        "label": "protocolFee",
        "offset": 0,
        "slot": "2",
        "type": "t_uint256"
      },
      {
        "astId": 23157,
        "contract": "contracts/RequiemWeightedPairFactory.sol:RequiemWeightedPairFactory",
        "label": "feeToSetter",
        "offset": 0,
        "slot": "3",
        "type": "t_address"
      },
      {
        "astId": 23172,
        "contract": "contracts/RequiemWeightedPairFactory.sol:RequiemWeightedPairFactory",
        "label": "_pairSalts",
        "offset": 0,
        "slot": "4",
        "type": "t_mapping(t_bytes32,t_address)"
      },
      {
        "astId": 23175,
        "contract": "contracts/RequiemWeightedPairFactory.sol:RequiemWeightedPairFactory",
        "label": "allPairs",
        "offset": 0,
        "slot": "5",
        "type": "t_array(t_address)dyn_storage"
      },
      {
        "astId": 23179,
        "contract": "contracts/RequiemWeightedPairFactory.sol:RequiemWeightedPairFactory",
        "label": "_pairs",
        "offset": 0,
        "slot": "6",
        "type": "t_mapping(t_address,t_uint64)"
      },
      {
        "astId": 23188,
        "contract": "contracts/RequiemWeightedPairFactory.sol:RequiemWeightedPairFactory",
        "label": "tokenPairs",
        "offset": 0,
        "slot": "7",
        "type": "t_mapping(t_contract(IERC20)30555,t_mapping(t_contract(IERC20)30555,t_struct(AddressSet)37118_storage))"
      }
    ],
    "types": {
      "t_address": {
        "encoding": "inplace",
        "label": "address",
        "numberOfBytes": "20"
      },
      "t_array(t_address)dyn_storage": {
        "base": "t_address",
        "encoding": "dynamic_array",
        "label": "address[]",
        "numberOfBytes": "32"
      },
      "t_bytes32": {
        "encoding": "inplace",
        "label": "bytes32",
        "numberOfBytes": "32"
      },
      "t_contract(IERC20)30555": {
        "encoding": "inplace",
        "label": "contract IERC20",
        "numberOfBytes": "20"
      },
      "t_mapping(t_address,t_uint256)": {
        "encoding": "mapping",
        "key": "t_address",
        "label": "mapping(address => uint256)",
        "numberOfBytes": "32",
        "value": "t_uint256"
      },
      "t_mapping(t_address,t_uint64)": {
        "encoding": "mapping",
        "key": "t_address",
        "label": "mapping(address => uint64)",
        "numberOfBytes": "32",
        "value": "t_uint64"
      },
      "t_mapping(t_bytes32,t_address)": {
        "encoding": "mapping",
        "key": "t_bytes32",
        "label": "mapping(bytes32 => address)",
        "numberOfBytes": "32",
        "value": "t_address"
      },
      "t_mapping(t_contract(IERC20)30555,t_mapping(t_contract(IERC20)30555,t_struct(AddressSet)37118_storage))": {
        "encoding": "mapping",
        "key": "t_contract(IERC20)30555",
        "label": "mapping(contract IERC20 => mapping(contract IERC20 => struct EnumerableSet.AddressSet))",
        "numberOfBytes": "32",
        "value": "t_mapping(t_contract(IERC20)30555,t_struct(AddressSet)37118_storage)"
      },
      "t_mapping(t_contract(IERC20)30555,t_struct(AddressSet)37118_storage)": {
        "encoding": "mapping",
        "key": "t_contract(IERC20)30555",
        "label": "mapping(contract IERC20 => struct EnumerableSet.AddressSet)",
        "numberOfBytes": "32",
        "value": "t_struct(AddressSet)37118_storage"
      },
      "t_struct(AddressSet)37118_storage": {
        "encoding": "inplace",
        "label": "struct EnumerableSet.AddressSet",
        "members": [
          {
            "astId": 37113,
            "contract": "contracts/RequiemWeightedPairFactory.sol:RequiemWeightedPairFactory",
            "label": "_values",
            "offset": 0,
            "slot": "0",
            "type": "t_array(t_address)dyn_storage"
          },
          {
            "astId": 37117,
            "contract": "contracts/RequiemWeightedPairFactory.sol:RequiemWeightedPairFactory",
            "label": "_indexes",
            "offset": 0,
            "slot": "1",
            "type": "t_mapping(t_address,t_uint256)"
          }
        ],
        "numberOfBytes": "64"
      },
      "t_uint256": {
        "encoding": "inplace",
        "label": "uint256",
        "numberOfBytes": "32"
      },
      "t_uint64": {
        "encoding": "inplace",
        "label": "uint64",
        "numberOfBytes": "8"
      }
    }
  }
}