{
  "address": "0xc00d9cf36e1d223A815c8446694A165858B973Db",
  "abi": [
    {
      "inputs": [
        {
          "internalType": "address",
          "name": "_factory",
          "type": "address"
        },
        {
          "internalType": "address",
          "name": "_WETH",
          "type": "address"
        }
      ],
      "stateMutability": "nonpayable",
      "type": "constructor"
    },
    {
      "inputs": [],
      "name": "WETH",
      "outputs": [
        {
          "internalType": "address",
          "name": "",
          "type": "address"
        }
      ],
      "stateMutability": "view",
      "type": "function"
    },
    {
      "inputs": [
        {
          "internalType": "address",
          "name": "pair",
          "type": "address"
        },
        {
          "internalType": "address",
          "name": "tokenA",
          "type": "address"
        },
        {
          "internalType": "address",
          "name": "tokenB",
          "type": "address"
        },
        {
          "internalType": "uint256",
          "name": "amountADesired",
          "type": "uint256"
        },
        {
          "internalType": "uint256",
          "name": "amountBDesired",
          "type": "uint256"
        },
        {
          "internalType": "uint256",
          "name": "amountAMin",
          "type": "uint256"
        },
        {
          "internalType": "uint256",
          "name": "amountBMin",
          "type": "uint256"
        },
        {
          "internalType": "address",
          "name": "to",
          "type": "address"
        },
        {
          "internalType": "uint256",
          "name": "deadline",
          "type": "uint256"
        }
      ],
      "name": "addLiquidity",
      "outputs": [
        {
          "internalType": "uint256",
          "name": "amountA",
          "type": "uint256"
        },
        {
          "internalType": "uint256",
          "name": "amountB",
          "type": "uint256"
        },
        {
          "internalType": "uint256",
          "name": "liquidity",
          "type": "uint256"
        }
      ],
      "stateMutability": "nonpayable",
      "type": "function"
    },
    {
      "inputs": [
        {
          "internalType": "address",
          "name": "pair",
          "type": "address"
        },
        {
          "internalType": "address",
          "name": "token",
          "type": "address"
        },
        {
          "internalType": "uint256",
          "name": "amountTokenDesired",
          "type": "uint256"
        },
        {
          "internalType": "uint256",
          "name": "amountTokenMin",
          "type": "uint256"
        },
        {
          "internalType": "uint256",
          "name": "amountETHMin",
          "type": "uint256"
        },
        {
          "internalType": "address",
          "name": "to",
          "type": "address"
        },
        {
          "internalType": "uint256",
          "name": "deadline",
          "type": "uint256"
        }
      ],
      "name": "addLiquidityETH",
      "outputs": [
        {
          "internalType": "uint256",
          "name": "amountToken",
          "type": "uint256"
        },
        {
          "internalType": "uint256",
          "name": "amountETH",
          "type": "uint256"
        },
        {
          "internalType": "uint256",
          "name": "liquidity",
          "type": "uint256"
        }
      ],
      "stateMutability": "payable",
      "type": "function"
    },
    {
      "inputs": [
        {
          "internalType": "address",
          "name": "tokenA",
          "type": "address"
        },
        {
          "internalType": "address",
          "name": "tokenB",
          "type": "address"
        },
        {
          "internalType": "uint256",
          "name": "amountA",
          "type": "uint256"
        },
        {
          "internalType": "uint256",
          "name": "amountB",
          "type": "uint256"
        },
        {
          "internalType": "uint32",
          "name": "tokenWeightA",
          "type": "uint32"
        },
        {
          "internalType": "uint32",
          "name": "swapFee",
          "type": "uint32"
        },
        {
          "internalType": "address",
          "name": "to",
          "type": "address"
        }
      ],
      "name": "createPair",
      "outputs": [
        {
          "internalType": "uint256",
          "name": "liquidity",
          "type": "uint256"
        }
      ],
      "stateMutability": "nonpayable",
      "type": "function"
    },
    {
      "inputs": [
        {
          "internalType": "address",
          "name": "token",
          "type": "address"
        },
        {
          "internalType": "uint256",
          "name": "amountToken",
          "type": "uint256"
        },
        {
          "internalType": "uint32",
          "name": "tokenWeight",
          "type": "uint32"
        },
        {
          "internalType": "uint32",
          "name": "swapFee",
          "type": "uint32"
        },
        {
          "internalType": "address",
          "name": "to",
          "type": "address"
        }
      ],
      "name": "createPairETH",
      "outputs": [
        {
          "internalType": "uint256",
          "name": "liquidity",
          "type": "uint256"
        }
      ],
      "stateMutability": "payable",
      "type": "function"
    },
    {
      "inputs": [],
      "name": "factory",
      "outputs": [
        {
          "internalType": "address",
          "name": "",
          "type": "address"
        }
      ],
      "stateMutability": "view",
      "type": "function"
    },
    {
      "inputs": [],
      "name": "formula",
      "outputs": [
        {
          "internalType": "address",
          "name": "",
          "type": "address"
        }
      ],
      "stateMutability": "view",
      "type": "function"
    },
    {
      "inputs": [
        {
          "internalType": "address",
          "name": "pair",
          "type": "address"
        },
        {
          "internalType": "address",
          "name": "tokenA",
          "type": "address"
        },
        {
          "internalType": "address",
          "name": "tokenB",
          "type": "address"
        },
        {
          "internalType": "uint256",
          "name": "liquidity",
          "type": "uint256"
        },
        {
          "internalType": "uint256",
          "name": "amountAMin",
          "type": "uint256"
        },
        {
          "internalType": "uint256",
          "name": "amountBMin",
          "type": "uint256"
        },
        {
          "internalType": "address",
          "name": "to",
          "type": "address"
        },
        {
          "internalType": "uint256",
          "name": "deadline",
          "type": "uint256"
        }
      ],
      "name": "removeLiquidity",
      "outputs": [
        {
          "internalType": "uint256",
          "name": "amountA",
          "type": "uint256"
        },
        {
          "internalType": "uint256",
          "name": "amountB",
          "type": "uint256"
        }
      ],
      "stateMutability": "nonpayable",
      "type": "function"
    },
    {
      "inputs": [
        {
          "internalType": "address",
          "name": "pair",
          "type": "address"
        },
        {
          "internalType": "address",
          "name": "token",
          "type": "address"
        },
        {
          "internalType": "uint256",
          "name": "liquidity",
          "type": "uint256"
        },
        {
          "internalType": "uint256",
          "name": "amountTokenMin",
          "type": "uint256"
        },
        {
          "internalType": "uint256",
          "name": "amountETHMin",
          "type": "uint256"
        },
        {
          "internalType": "address",
          "name": "to",
          "type": "address"
        },
        {
          "internalType": "uint256",
          "name": "deadline",
          "type": "uint256"
        }
      ],
      "name": "removeLiquidityETH",
      "outputs": [
        {
          "internalType": "uint256",
          "name": "amountToken",
          "type": "uint256"
        },
        {
          "internalType": "uint256",
          "name": "amountETH",
          "type": "uint256"
        }
      ],
      "stateMutability": "nonpayable",
      "type": "function"
    },
    {
      "inputs": [
        {
          "internalType": "address",
          "name": "pair",
          "type": "address"
        },
        {
          "internalType": "address",
          "name": "token",
          "type": "address"
        },
        {
          "internalType": "uint256",
          "name": "liquidity",
          "type": "uint256"
        },
        {
          "internalType": "uint256",
          "name": "amountTokenMin",
          "type": "uint256"
        },
        {
          "internalType": "uint256",
          "name": "amountETHMin",
          "type": "uint256"
        },
        {
          "internalType": "address",
          "name": "to",
          "type": "address"
        },
        {
          "internalType": "uint256",
          "name": "deadline",
          "type": "uint256"
        }
      ],
      "name": "removeLiquidityETHSupportingFeeOnTransferTokens",
      "outputs": [
        {
          "internalType": "uint256",
          "name": "amountETH",
          "type": "uint256"
        }
      ],
      "stateMutability": "nonpayable",
      "type": "function"
    },
    {
      "inputs": [
        {
          "internalType": "address",
          "name": "pair",
          "type": "address"
        },
        {
          "internalType": "address",
          "name": "token",
          "type": "address"
        },
        {
          "internalType": "uint256",
          "name": "liquidity",
          "type": "uint256"
        },
        {
          "internalType": "uint256",
          "name": "amountTokenMin",
          "type": "uint256"
        },
        {
          "internalType": "uint256",
          "name": "amountETHMin",
          "type": "uint256"
        },
        {
          "internalType": "address",
          "name": "to",
          "type": "address"
        },
        {
          "internalType": "uint256",
          "name": "deadline",
          "type": "uint256"
        },
        {
          "internalType": "bool",
          "name": "approveMax",
          "type": "bool"
        },
        {
          "internalType": "uint8",
          "name": "v",
          "type": "uint8"
        },
        {
          "internalType": "bytes32",
          "name": "r",
          "type": "bytes32"
        },
        {
          "internalType": "bytes32",
          "name": "s",
          "type": "bytes32"
        }
      ],
      "name": "removeLiquidityETHWithPermit",
      "outputs": [
        {
          "internalType": "uint256",
          "name": "amountToken",
          "type": "uint256"
        },
        {
          "internalType": "uint256",
          "name": "amountETH",
          "type": "uint256"
        }
      ],
      "stateMutability": "nonpayable",
      "type": "function"
    },
    {
      "inputs": [
        {
          "internalType": "address",
          "name": "pair",
          "type": "address"
        },
        {
          "internalType": "address",
          "name": "token",
          "type": "address"
        },
        {
          "internalType": "uint256",
          "name": "liquidity",
          "type": "uint256"
        },
        {
          "internalType": "uint256",
          "name": "amountTokenMin",
          "type": "uint256"
        },
        {
          "internalType": "uint256",
          "name": "amountETHMin",
          "type": "uint256"
        },
        {
          "internalType": "address",
          "name": "to",
          "type": "address"
        },
        {
          "internalType": "uint256",
          "name": "deadline",
          "type": "uint256"
        },
        {
          "internalType": "bool",
          "name": "approveMax",
          "type": "bool"
        },
        {
          "internalType": "uint8",
          "name": "v",
          "type": "uint8"
        },
        {
          "internalType": "bytes32",
          "name": "r",
          "type": "bytes32"
        },
        {
          "internalType": "bytes32",
          "name": "s",
          "type": "bytes32"
        }
      ],
      "name": "removeLiquidityETHWithPermitSupportingFeeOnTransferTokens",
      "outputs": [
        {
          "internalType": "uint256",
          "name": "amountETH",
          "type": "uint256"
        }
      ],
      "stateMutability": "nonpayable",
      "type": "function"
    },
    {
      "inputs": [
        {
          "internalType": "address",
          "name": "pair",
          "type": "address"
        },
        {
          "internalType": "address",
          "name": "tokenA",
          "type": "address"
        },
        {
          "internalType": "address",
          "name": "tokenB",
          "type": "address"
        },
        {
          "internalType": "uint256",
          "name": "liquidity",
          "type": "uint256"
        },
        {
          "internalType": "uint256",
          "name": "amountAMin",
          "type": "uint256"
        },
        {
          "internalType": "uint256",
          "name": "amountBMin",
          "type": "uint256"
        },
        {
          "internalType": "address",
          "name": "to",
          "type": "address"
        },
        {
          "internalType": "uint256",
          "name": "deadline",
          "type": "uint256"
        },
        {
          "internalType": "bool",
          "name": "approveMax",
          "type": "bool"
        },
        {
          "internalType": "uint8",
          "name": "v",
          "type": "uint8"
        },
        {
          "internalType": "bytes32",
          "name": "r",
          "type": "bytes32"
        },
        {
          "internalType": "bytes32",
          "name": "s",
          "type": "bytes32"
        }
      ],
      "name": "removeLiquidityWithPermit",
      "outputs": [
        {
          "internalType": "uint256",
          "name": "amountA",
          "type": "uint256"
        },
        {
          "internalType": "uint256",
          "name": "amountB",
          "type": "uint256"
        }
      ],
      "stateMutability": "nonpayable",
      "type": "function"
    },
    {
      "stateMutability": "payable",
      "type": "receive"
    }
  ],
  "transactionHash": "0x44044cf1b3a049d07f497d14321b8dabdcc29c0f4c2144211fc48837937ec129",
  "args": [
    "0x274B1F7F8e66B044B2DC773E017750957f70490c",
    "0xfb40cd35C0cF322fA3cfB8D67b533Bd9ad7df056"
  ],
  "solcInputHash": "e0eb249e18fde66ee987adcef851d11b",
  "bytecode": "0x60e06040523480156200001157600080fd5b5060405162001ddc38038062001ddc8339810160408190526200003491620000db565b6001600160a01b038216608081905260408051634b75f54f60e01b81529051634b75f54f916004808201926020929091908290030181865afa1580156200007f573d6000803e3d6000fd5b505050506040513d601f19601f82011682018060405250810190620000a5919062000113565b6001600160a01b0390811660a0521660c0525062000138565b80516001600160a01b0381168114620000d657600080fd5b919050565b60008060408385031215620000ef57600080fd5b620000fa83620000be565b91506200010a60208401620000be565b90509250929050565b6000602082840312156200012657600080fd5b6200013182620000be565b9392505050565b60805160a05160c051611c0c620001d06000396000818160b6015281816101fa015281816104e00152818161065101528181610840015281816109da01528181610ee80152818161133e01526113c401526000818161015101528181610c9d01528181610fe40152818161108a015261115201526000818161024e015281816104b0015281816106bb0152610aba0152611c0c6000f3fe6080604052600436106100a65760003560e01c80630e2f024c146100ea5780633990ba541461011d5780634b75f54f1461013f5780634c17fd7c146101805780636cb49428146101b5578063a4aabb08146101c8578063ad5c4648146101e8578063b56b681d1461021c578063c45a01551461023c578063d0f2c82a14610270578063e1f4a78414610290578063ebb5d2e9146102b0578063fbf45135146102d057600080fd5b366100e557336001600160a01b037f000000000000000000000000000000000000000000000000000000000000000016146100e3576100e361151f565b005b600080fd5b3480156100f657600080fd5b5061010a610105366004611571565b6102f0565b6040519081526020015b60405180910390f35b61013061012b36600461161b565b61038f565b6040516101149392919061168d565b34801561014b57600080fd5b506101737f000000000000000000000000000000000000000000000000000000000000000081565b60405161011491906116a3565b34801561018c57600080fd5b506101a061019b3660046116b7565b6103e0565b60408051928352602083019190915201610114565b61010a6101c3366004611787565b6104ab565b3480156101d457600080fd5b506101a06101e3366004611571565b610581565b3480156101f457600080fd5b506101737f000000000000000000000000000000000000000000000000000000000000000081565b34801561022857600080fd5b506101a061023736600461161b565b610626565b34801561024857600080fd5b506101737f000000000000000000000000000000000000000000000000000000000000000081565b34801561027c57600080fd5b5061010a61028b3660046117eb565b6106b6565b34801561029c57600080fd5b506101a06102ab36600461186b565b6107d1565b3480156102bc57600080fd5b5061010a6102cb36600461161b565b610816565b3480156102dc57600080fd5b506101306102eb3660046118f0565b610913565b600080856102fe578a610302565b6000195b60405163d505accf60e01b81529091506001600160a01b038e169063d505accf9061033d903390309086908d908c908c908c9060040161197f565b600060405180830381600087803b15801561035757600080fd5b505af115801561036b573d6000803e3d6000fd5b5050505061037e8d8d8d8d8d8d8d610816565b9d9c50505050505050505050505050565b600080600083428110156103be5760405162461bcd60e51b81526004016103b5906119c0565b60405180910390fd5b6103cc8b8b8b8b8b8b6109ce565b919d909c50909a5098505050505050505050565b60008086428110156104045760405162461bcd60e51b81526004016103b5906119c0565b600087610411578c610415565b6000195b90508f6001600160a01b031663d505accf3330848d8c8c8c6040518863ffffffff1660e01b815260040161044f979695949392919061197f565b600060405180830381600087803b15801561046957600080fd5b505af115801561047d573d6000803e3d6000fd5b50505050506104918f8f8f8f8f8f8f610ab5565b8093508194505050509c509c9a5050505050505050505050565b6000807f00000000000000000000000000000000000000000000000000000000000000006001600160a01b03166314572adb887f000000000000000000000000000000000000000000000000000000000000000088886040518563ffffffff1660e01b815260040161052094939291906119e9565b6020604051808303816000875af115801561053f573d6000803e3d6000fd5b505050506040513d601f19601f820116820180604052508101906105639190611a1a565b9050610574818888600080886109ce565b9998505050505050505050565b600080600086610591578b610595565b6000195b60405163d505accf60e01b81529091506001600160a01b038f169063d505accf906105d0903390309086908e908d908d908d9060040161197f565b600060405180830381600087803b1580156105ea57600080fd5b505af11580156105fe573d6000803e3d6000fd5b505050506106118e8e8e8e8e8e8e610626565b909f909e509c50505050505050505050505050565b600080824281101561064a5760405162461bcd60e51b81526004016103b5906119c0565b6106798a8a7f00000000000000000000000000000000000000000000000000000000000000008b8b8b30610ab5565b9093509150610689898685610d81565b6106a873eeeeeeeeeeeeeeeeeeeeeeeeeeeeeeeeeeeeeeee8684610e9e565b505097509795505050505050565b6000807f00000000000000000000000000000000000000000000000000000000000000006001600160a01b03166314572adb8a8a88886040518563ffffffff1660e01b815260040161070b94939291906119e9565b6020604051808303816000875af115801561072a573d6000803e3d6000fd5b505050506040513d601f19601f8201168201806040525081019061074e9190611a1a565b9050610760818a8a8a8a600080610f71565b50506040516335313c2160e11b81526001600160a01b03821690636a6278429061078e9086906004016116a3565b6020604051808303816000875af11580156107ad573d6000803e3d6000fd5b505050506040513d601f19601f820116820180604052508101906105749190611a37565b60008082428110156107f55760405162461bcd60e51b81526004016103b5906119c0565b6108048b8b8b8b8b8b8b610ab5565b909c909b509950505050505050505050565b600081428110156108395760405162461bcd60e51b81526004016103b5906119c0565b61086989897f00000000000000000000000000000000000000000000000000000000000000008a8a8a308a6107d1565b6040516370a0823160e01b81529093506108e79150899086906001600160a01b038316906370a08231906108a19030906004016116a3565b602060405180830381865afa1580156108be573d6000803e3d6000fd5b505050506040513d601f19601f820116820180604052508101906108e29190611a37565b610d81565b61090673eeeeeeeeeeeeeeeeeeeeeeeeeeeeeeeeeeeeeeee8584610e9e565b5050979650505050505050565b600080600083428110156109395760405162461bcd60e51b81526004016103b5906119c0565b6109488d8d8d8d8d8d8d610f71565b6040516335313c2160e11b815291955093506001600160a01b038e1690636a627842906109799089906004016116a3565b6020604051808303816000875af1158015610998573d6000803e3d6000fd5b505050506040513d601f19601f820116820180604052508101906109bc9190611a37565b91505099509950999650505050505050565b6000806000610a0289897f00000000000000000000000000000000000000000000000000000000000000008a348b8b610fac565b9093509150610a1388338b86611210565b610a1d828a61133c565b6040516335313c2160e11b81526001600160a01b038a1690636a62784290610a499087906004016116a3565b6020604051808303816000875af1158015610a68573d6000803e3d6000fd5b505050506040513d601f19601f82011682018060405250810190610a8c9190611a37565b905081341115610aa957610aa933610aa48434611a50565b611451565b96509650969350505050565b6000807f00000000000000000000000000000000000000000000000000000000000000006001600160a01b031663e5e31b138a6040518263ffffffff1660e01b8152600401610b0491906116a3565b602060405180830381865afa158015610b21573d6000803e3d6000fd5b505050506040513d601f19601f82011682018060405250810190610b459190611a75565b610b885760405162461bcd60e51b81526020600482015260146024820152732937baba32b91d1024b73b30b634b2103830b4b960611b60448201526064016103b5565b6040516323b872dd60e01b81526001600160a01b038a16906323b872dd90610bb89033908d908b90600401611a92565b6020604051808303816000875af1158015610bd7573d6000803e3d6000fd5b505050506040513d601f19601f82011682018060405250810190610bfb9190611a75565b506000808a6001600160a01b03166389afcb44866040518263ffffffff1660e01b8152600401610c2b91906116a3565b60408051808303816000875af1158015610c49573d6000803e3d6000fd5b505050506040513d601f19601f82011682018060405250810190610c6d9190611ab6565b604051632a26552b60e11b81526001600160a01b038d811660048301528c811660248301529294509092506000917f0000000000000000000000000000000000000000000000000000000000000000169063544caa56906044016040805180830381865afa158015610ce3573d6000803e3d6000fd5b505050506040513d601f19601f82011682018060405250810190610d079190611ada565b509050806001600160a01b03168b6001600160a01b031614610d2a578183610d2d565b82825b909550935087851015610d525760405162461bcd60e51b81526004016103b590611b14565b86841015610d725760405162461bcd60e51b81526004016103b590611b4b565b50505097509795505050505050565b600080846001600160a01b031663a9059cbb8585604051602401610da6929190611b82565b6040516020818303038152906040529060e01b6020820180516001600160e01b038381831617835250505050604051610ddf9190611b9b565b6000604051808303816000865af19150503d8060008114610e1c576040519150601f19603f3d011682016040523d82523d6000602084013e610e21565b606091505b5091509150818015610e4b575080511580610e4b575080806020019051810190610e4b9190611a75565b610e975760405162461bcd60e51b815260206004820152601f60248201527f5472616e7366657248656c7065723a205452414e534645525f4641494c45440060448201526064016103b5565b5050505050565b600081610ead57506001610f6a565b73eeeeeeeeeeeeeeeeeeeeeeeeeeeeeeeeeeeeeeee6001600160a01b0385161415610f5b57604051632e1a7d4d60e01b8152600481018390527f00000000000000000000000000000000000000000000000000000000000000006001600160a01b031690632e1a7d4d90602401600060405180830381600087803b158015610f3457600080fd5b505af1158015610f48573d6000803e3d6000fd5b50505050610f568383611451565b610f66565b610f66848484610d81565b5060015b9392505050565b600080610f8389898989898989610fac565b9092509050610f9488338b85611210565b610fa087338b84611210565b97509795505050505050565b604051633274946160e01b81526001600160a01b038881166004830152878116602483015286811660448301526000918291829182917f000000000000000000000000000000000000000000000000000000000000000016906332749461906064016040805180830381865afa15801561102a573d6000803e3d6000fd5b505050506040513d601f19601f8201168201806040525081019061104e9190611ab6565b91509150816000148015611060575080155b15611070578793508692506106a8565b604051632b58577b60e21b81526000906001600160a01b037f0000000000000000000000000000000000000000000000000000000000000000169063ad615dec906110c3908c908790879060040161168d565b602060405180830381865afa1580156110e0573d6000803e3d6000fd5b505050506040513d601f19601f820116820180604052508101906111049190611a37565b9050878111611138578581101561112d5760405162461bcd60e51b81526004016103b590611b4b565b889450925082610d72565b604051632b58577b60e21b81526000906001600160a01b037f0000000000000000000000000000000000000000000000000000000000000000169063ad615dec9061118b908c908790899060040161168d565b602060405180830381865afa1580156111a8573d6000803e3d6000fd5b505050506040513d601f19601f820116820180604052508101906111cc9190611a37565b9050898111156111de576111de61151f565b878110156111fe5760405162461bcd60e51b81526004016103b590611b14565b9c979b50969950505050505050505050565b600080856001600160a01b03166323b872dd86868660405160240161123793929190611a92565b6040516020818303038152906040529060e01b6020820180516001600160e01b0383818316178352505050506040516112709190611b9b565b6000604051808303816000865af19150503d80600081146112ad576040519150601f19603f3d011682016040523d82523d6000602084013e6112b2565b606091505b50915091508180156112dc5750805115806112dc5750808060200190518101906112dc9190611a75565b6113345760405162461bcd60e51b8152602060048201526024808201527f5472616e7366657248656c7065723a205452414e534645525f46524f4d5f46416044820152631253115160e21b60648201526084016103b5565b505050505050565b7f00000000000000000000000000000000000000000000000000000000000000006001600160a01b031663d0e30db0836040518263ffffffff1660e01b81526004016000604051808303818588803b15801561139757600080fd5b505af11580156113ab573d6000803e3d6000fd5b505060405163a9059cbb60e01b81526001600160a01b037f000000000000000000000000000000000000000000000000000000000000000016935063a9059cbb92506113fe915084908690600401611b82565b6020604051808303816000875af115801561141d573d6000803e3d6000fd5b505050506040513d601f19601f820116820180604052508101906114419190611a75565b61144d5761144d61151f565b5050565b604080516000808252602082019092526001600160a01b03841690839060405161147b9190611b9b565b60006040518083038185875af1925050503d80600081146114b8576040519150601f19603f3d011682016040523d82523d6000602084013e6114bd565b606091505b505090508061151a5760405162461bcd60e51b815260206004820152602360248201527f5472616e7366657248656c7065723a204554485f5452414e534645525f46414960448201526213115160ea1b60648201526084016103b5565b505050565b634e487b7160e01b600052600160045260246000fd5b6001600160a01b038116811461154a57600080fd5b50565b801515811461154a57600080fd5b803560ff8116811461156c57600080fd5b919050565b60008060008060008060008060008060006101608c8e03121561159357600080fd5b8b3561159e81611535565b9a5060208c01356115ae81611535565b995060408c0135985060608c0135975060808c0135965060a08c01356115d381611535565b955060c08c0135945060e08c01356115ea8161154d565b93506115f96101008d0161155b565b92506101208c013591506101408c013590509295989b509295989b9093969950565b600080600080600080600060e0888a03121561163657600080fd5b873561164181611535565b9650602088013561165181611535565b955060408801359450606088013593506080880135925060a088013561167681611535565b8092505060c0880135905092959891949750929550565b9283526020830191909152604082015260600190565b6001600160a01b0391909116815260200190565b6000806000806000806000806000806000806101808d8f0312156116da57600080fd5b8c356116e581611535565b9b5060208d01356116f581611535565b9a5060408d013561170581611535565b995060608d0135985060808d0135975060a08d0135965060c08d013561172a81611535565b955060e08d013594506101008d01356117428161154d565b93506117516101208e0161155b565b92506101408d013591506101608d013590509295989b509295989b509295989b565b803563ffffffff8116811461156c57600080fd5b600080600080600060a0868803121561179f57600080fd5b85356117aa81611535565b9450602086013593506117bf60408701611773565b92506117cd60608701611773565b915060808601356117dd81611535565b809150509295509295909350565b600080600080600080600060e0888a03121561180657600080fd5b873561181181611535565b9650602088013561182181611535565b9550604088013594506060880135935061183d60808901611773565b925061184b60a08901611773565b915060c088013561185b81611535565b8091505092959891949750929550565b600080600080600080600080610100898b03121561188857600080fd5b883561189381611535565b975060208901356118a381611535565b965060408901356118b381611535565b9550606089013594506080890135935060a0890135925060c08901356118d881611535565b8092505060e089013590509295985092959890939650565b60008060008060008060008060006101208a8c03121561190f57600080fd5b893561191a81611535565b985060208a013561192a81611535565b975060408a013561193a81611535565b965060608a0135955060808a0135945060a08a0135935060c08a0135925060e08a013561196681611535565b809250506101008a013590509295985092959850929598565b6001600160a01b0397881681529590961660208601526040850193909352606084019190915260ff16608083015260a082015260c081019190915260e00190565b6020808252600f908201526e149bdd5d195c8e8811561412549151608a1b604082015260600190565b6001600160a01b03948516815292909316602083015263ffffffff9081166040830152909116606082015260800190565b600060208284031215611a2c57600080fd5b8151610f6a81611535565b600060208284031215611a4957600080fd5b5051919050565b600082821015611a7057634e487b7160e01b600052601160045260246000fd5b500390565b600060208284031215611a8757600080fd5b8151610f6a8161154d565b6001600160a01b039384168152919092166020820152604081019190915260600190565b60008060408385031215611ac957600080fd5b505080516020909101519092909150565b60008060408385031215611aed57600080fd5b8251611af881611535565b6020840151909250611b0981611535565b809150509250929050565b6020808252601d908201527f526f757465723a20494e53554646494349454e545f415f414d4f554e54000000604082015260600190565b6020808252601d908201527f526f757465723a20494e53554646494349454e545f425f414d4f554e54000000604082015260600190565b6001600160a01b03929092168252602082015260400190565b6000825160005b81811015611bbc5760208186018101518583015201611ba2565b81811115611bcb576000828501525b50919091019291505056fea26469706673582212201f3fcf4c8a0ee18223f33a7f932e731b9adde1165263e34f224d7130605cadc464736f6c634300080a0033",
  "devdoc": {
    "kind": "dev",
    "methods": {},
    "version": 1
  },
  "userdoc": {
    "kind": "user",
    "methods": {},
    "version": 1
  },
  "storageLayout": {
    "storage": [],
    "types": null
  }
}