{
  "_format": "hh-sol-artifact-1",
  "contractName": "RequiemQRouter",
  "sourceName": "contracts/RequiemQRouter.sol",
  "abi": [
    {
      "inputs": [
        {
          "internalType": "address",
          "name": "_factory",
          "type": "address"
        },
        {
          "internalType": "address",
          "name": "_WETH",
          "type": "address"
        }
      ],
      "stateMutability": "nonpayable",
      "type": "constructor"
    },
    {
      "anonymous": false,
      "inputs": [
        {
          "indexed": false,
          "internalType": "address",
          "name": "pair",
          "type": "address"
        },
        {
          "indexed": false,
          "internalType": "uint256",
          "name": "amountOut",
          "type": "uint256"
        },
        {
          "indexed": false,
          "internalType": "address",
          "name": "output",
          "type": "address"
        }
      ],
      "name": "Exchange",
      "type": "event"
    },
    {
      "inputs": [],
      "name": "WETH",
      "outputs": [
        {
          "internalType": "address",
          "name": "",
          "type": "address"
        }
      ],
      "stateMutability": "view",
      "type": "function"
    },
    {
      "inputs": [
        {
          "internalType": "address",
          "name": "pair",
          "type": "address"
        },
        {
          "internalType": "address",
          "name": "tokenA",
          "type": "address"
        },
        {
          "internalType": "address",
          "name": "tokenB",
          "type": "address"
        },
        {
          "internalType": "uint256",
          "name": "amountADesired",
          "type": "uint256"
        },
        {
          "internalType": "uint256",
          "name": "amountBDesired",
          "type": "uint256"
        },
        {
          "internalType": "uint256",
          "name": "amountAMin",
          "type": "uint256"
        },
        {
          "internalType": "uint256",
          "name": "amountBMin",
          "type": "uint256"
        },
        {
          "internalType": "address",
          "name": "to",
          "type": "address"
        },
        {
          "internalType": "uint256",
          "name": "deadline",
          "type": "uint256"
        }
      ],
      "name": "addLiquidity",
      "outputs": [
        {
          "internalType": "uint256",
          "name": "amountA",
          "type": "uint256"
        },
        {
          "internalType": "uint256",
          "name": "amountB",
          "type": "uint256"
        },
        {
          "internalType": "uint256",
          "name": "liquidity",
          "type": "uint256"
        }
      ],
      "stateMutability": "nonpayable",
      "type": "function"
    },
    {
      "inputs": [
        {
          "internalType": "address",
          "name": "pair",
          "type": "address"
        },
        {
          "internalType": "address",
          "name": "token",
          "type": "address"
        },
        {
          "internalType": "uint256",
          "name": "amountTokenDesired",
          "type": "uint256"
        },
        {
          "internalType": "uint256",
          "name": "amountTokenMin",
          "type": "uint256"
        },
        {
          "internalType": "uint256",
          "name": "amountETHMin",
          "type": "uint256"
        },
        {
          "internalType": "address",
          "name": "to",
          "type": "address"
        },
        {
          "internalType": "uint256",
          "name": "deadline",
          "type": "uint256"
        }
      ],
      "name": "addLiquidityETH",
      "outputs": [
        {
          "internalType": "uint256",
          "name": "amountToken",
          "type": "uint256"
        },
        {
          "internalType": "uint256",
          "name": "amountETH",
          "type": "uint256"
        },
        {
          "internalType": "uint256",
          "name": "liquidity",
          "type": "uint256"
        }
      ],
      "stateMutability": "payable",
      "type": "function"
    },
    {
      "inputs": [
        {
          "internalType": "address",
          "name": "tokenA",
          "type": "address"
        },
        {
          "internalType": "address",
          "name": "tokenB",
          "type": "address"
        },
        {
          "internalType": "uint256",
          "name": "amountA",
          "type": "uint256"
        },
        {
          "internalType": "uint256",
          "name": "amountB",
          "type": "uint256"
        },
        {
          "internalType": "uint32",
          "name": "tokenWeightA",
          "type": "uint32"
        },
        {
          "internalType": "uint32",
          "name": "swapFee",
          "type": "uint32"
        },
        {
          "internalType": "address",
          "name": "to",
          "type": "address"
        }
      ],
      "name": "createPair",
      "outputs": [
        {
          "internalType": "uint256",
          "name": "liquidity",
          "type": "uint256"
        }
      ],
      "stateMutability": "nonpayable",
      "type": "function"
    },
    {
      "inputs": [
        {
          "internalType": "address",
          "name": "token",
          "type": "address"
        },
        {
          "internalType": "uint256",
          "name": "amountToken",
          "type": "uint256"
        },
        {
          "internalType": "uint32",
          "name": "tokenWeight",
          "type": "uint32"
        },
        {
          "internalType": "uint32",
          "name": "swapFee",
          "type": "uint32"
        },
        {
          "internalType": "address",
          "name": "to",
          "type": "address"
        }
      ],
      "name": "createPairETH",
      "outputs": [
        {
          "internalType": "uint256",
          "name": "liquidity",
          "type": "uint256"
        }
      ],
      "stateMutability": "payable",
      "type": "function"
    },
    {
      "inputs": [],
      "name": "factory",
      "outputs": [
        {
          "internalType": "address",
          "name": "",
          "type": "address"
        }
      ],
      "stateMutability": "view",
      "type": "function"
    },
    {
      "inputs": [],
      "name": "formula",
      "outputs": [
        {
          "internalType": "address",
          "name": "",
          "type": "address"
        }
      ],
      "stateMutability": "view",
      "type": "function"
    },
    {
      "inputs": [
        {
          "components": [
            {
              "internalType": "address",
              "name": "pool",
              "type": "address"
            },
            {
              "internalType": "address",
              "name": "tokenIn",
              "type": "address"
            },
            {
              "internalType": "address",
              "name": "tokenOut",
              "type": "address"
            },
            {
              "internalType": "uint256",
              "name": "swapAmount",
              "type": "uint256"
            },
            {
              "internalType": "uint256",
              "name": "limitReturnAmount",
              "type": "uint256"
            },
            {
              "internalType": "uint256",
              "name": "maxPrice",
              "type": "uint256"
            }
          ],
          "internalType": "struct IRequiemRouter.Swap[][]",
          "name": "swapSequences",
          "type": "tuple[][]"
        },
        {
          "internalType": "address",
          "name": "tokenIn",
          "type": "address"
        },
        {
          "internalType": "address",
          "name": "tokenOut",
          "type": "address"
        },
        {
          "internalType": "uint256",
          "name": "totalAmountIn",
          "type": "uint256"
        },
        {
          "internalType": "uint256",
          "name": "minTotalAmountOut",
          "type": "uint256"
        },
        {
          "internalType": "uint256",
          "name": "deadline",
          "type": "uint256"
        }
      ],
      "name": "multihopBatchSwapExactIn",
      "outputs": [
        {
          "internalType": "uint256",
          "name": "totalAmountOut",
          "type": "uint256"
        }
      ],
      "stateMutability": "payable",
      "type": "function"
    },
    {
      "inputs": [
        {
          "components": [
            {
              "internalType": "address",
              "name": "pool",
              "type": "address"
            },
            {
              "internalType": "address",
              "name": "tokenIn",
              "type": "address"
            },
            {
              "internalType": "address",
              "name": "tokenOut",
              "type": "address"
            },
            {
              "internalType": "uint256",
              "name": "swapAmount",
              "type": "uint256"
            },
            {
              "internalType": "uint256",
              "name": "limitReturnAmount",
              "type": "uint256"
            },
            {
              "internalType": "uint256",
              "name": "maxPrice",
              "type": "uint256"
            }
          ],
          "internalType": "struct IRequiemRouter.Swap[][]",
          "name": "swapSequences",
          "type": "tuple[][]"
        },
        {
          "internalType": "address",
          "name": "tokenIn",
          "type": "address"
        },
        {
          "internalType": "address",
          "name": "tokenOut",
          "type": "address"
        },
        {
          "internalType": "uint256",
          "name": "maxTotalAmountIn",
          "type": "uint256"
        },
        {
          "internalType": "uint256",
          "name": "deadline",
          "type": "uint256"
        }
      ],
      "name": "multihopBatchSwapExactOut",
      "outputs": [
        {
          "internalType": "uint256",
          "name": "totalAmountIn",
          "type": "uint256"
        }
      ],
      "stateMutability": "payable",
      "type": "function"
    },
    {
      "inputs": [
        {
          "components": [
            {
              "internalType": "uint8",
              "name": "structure",
              "type": "uint8"
            },
            {
              "internalType": "address",
              "name": "pool",
              "type": "address"
            },
            {
              "internalType": "address",
              "name": "tokenIn",
              "type": "address"
            },
            {
              "internalType": "address",
              "name": "tokenOut",
              "type": "address"
            }
          ],
          "internalType": "struct IRequiemSwap.QSwapStep[]",
          "name": "params",
          "type": "tuple[]"
        },
        {
          "internalType": "uint256",
          "name": "amountOutMin",
          "type": "uint256"
        },
        {
          "internalType": "address",
          "name": "to",
          "type": "address"
        },
        {
          "internalType": "uint256",
          "name": "deadline",
          "type": "uint256"
        }
      ],
      "name": "onSwapExactETHForTokens",
      "outputs": [
        {
          "internalType": "uint256",
          "name": "amountLast",
          "type": "uint256"
        }
      ],
      "stateMutability": "payable",
      "type": "function"
    },
    {
      "inputs": [
        {
          "components": [
            {
              "internalType": "uint8",
              "name": "structure",
              "type": "uint8"
            },
            {
              "internalType": "address",
              "name": "pool",
              "type": "address"
            },
            {
              "internalType": "address",
              "name": "tokenIn",
              "type": "address"
            },
            {
              "internalType": "address",
              "name": "tokenOut",
              "type": "address"
            }
          ],
          "internalType": "struct IRequiemSwap.QSwapStep[]",
          "name": "params",
          "type": "tuple[]"
        },
        {
          "internalType": "uint256",
          "name": "amountIn",
          "type": "uint256"
        },
        {
          "internalType": "uint256",
          "name": "amountOutMin",
          "type": "uint256"
        },
        {
          "internalType": "address",
          "name": "to",
          "type": "address"
        },
        {
          "internalType": "uint256",
          "name": "deadline",
          "type": "uint256"
        }
      ],
      "name": "onSwapExactTokensForTokens",
      "outputs": [
        {
          "internalType": "uint256",
          "name": "amountLast",
          "type": "uint256"
        }
      ],
      "stateMutability": "nonpayable",
      "type": "function"
    },
    {
      "inputs": [
        {
          "components": [
            {
              "internalType": "uint8",
              "name": "structure",
              "type": "uint8"
            },
            {
              "internalType": "address",
              "name": "pool",
              "type": "address"
            },
            {
              "internalType": "address",
              "name": "tokenIn",
              "type": "address"
            },
            {
              "internalType": "address",
              "name": "tokenOut",
              "type": "address"
            }
          ],
          "internalType": "struct IRequiemSwap.QSwapStep[]",
          "name": "params",
          "type": "tuple[]"
        },
        {
          "internalType": "uint256",
          "name": "amountOut",
          "type": "uint256"
        },
        {
          "internalType": "uint256",
          "name": "amountInMax",
          "type": "uint256"
        },
        {
          "internalType": "address",
          "name": "to",
          "type": "address"
        },
        {
          "internalType": "uint256",
          "name": "deadline",
          "type": "uint256"
        }
      ],
      "name": "onSwapTokensForExactETH",
      "outputs": [
        {
          "internalType": "uint256[]",
          "name": "amounts",
          "type": "uint256[]"
        }
      ],
      "stateMutability": "nonpayable",
      "type": "function"
    },
    {
      "inputs": [
        {
          "components": [
            {
              "internalType": "uint8",
              "name": "structure",
              "type": "uint8"
            },
            {
              "internalType": "address",
              "name": "pool",
              "type": "address"
            },
            {
              "internalType": "address",
              "name": "tokenIn",
              "type": "address"
            },
            {
              "internalType": "address",
              "name": "tokenOut",
              "type": "address"
            }
          ],
          "internalType": "struct IRequiemSwap.QSwapStep[]",
          "name": "params",
          "type": "tuple[]"
        },
        {
          "internalType": "uint256",
          "name": "amountOut",
          "type": "uint256"
        },
        {
          "internalType": "uint256",
          "name": "amountInMax",
          "type": "uint256"
        },
        {
          "internalType": "address",
          "name": "to",
          "type": "address"
        },
        {
          "internalType": "uint256",
          "name": "deadline",
          "type": "uint256"
        }
      ],
      "name": "onSwapTokensForExactTokens",
      "outputs": [
        {
          "internalType": "uint256[]",
          "name": "amounts",
          "type": "uint256[]"
        }
      ],
      "stateMutability": "nonpayable",
      "type": "function"
    },
    {
      "inputs": [
        {
          "internalType": "address",
          "name": "pair",
          "type": "address"
        },
        {
          "internalType": "address",
          "name": "tokenA",
          "type": "address"
        },
        {
          "internalType": "address",
          "name": "tokenB",
          "type": "address"
        },
        {
          "internalType": "uint256",
          "name": "liquidity",
          "type": "uint256"
        },
        {
          "internalType": "uint256",
          "name": "amountAMin",
          "type": "uint256"
        },
        {
          "internalType": "uint256",
          "name": "amountBMin",
          "type": "uint256"
        },
        {
          "internalType": "address",
          "name": "to",
          "type": "address"
        },
        {
          "internalType": "uint256",
          "name": "deadline",
          "type": "uint256"
        }
      ],
      "name": "removeLiquidity",
      "outputs": [
        {
          "internalType": "uint256",
          "name": "amountA",
          "type": "uint256"
        },
        {
          "internalType": "uint256",
          "name": "amountB",
          "type": "uint256"
        }
      ],
      "stateMutability": "nonpayable",
      "type": "function"
    },
    {
      "inputs": [
        {
          "internalType": "address",
          "name": "pair",
          "type": "address"
        },
        {
          "internalType": "address",
          "name": "token",
          "type": "address"
        },
        {
          "internalType": "uint256",
          "name": "liquidity",
          "type": "uint256"
        },
        {
          "internalType": "uint256",
          "name": "amountTokenMin",
          "type": "uint256"
        },
        {
          "internalType": "uint256",
          "name": "amountETHMin",
          "type": "uint256"
        },
        {
          "internalType": "address",
          "name": "to",
          "type": "address"
        },
        {
          "internalType": "uint256",
          "name": "deadline",
          "type": "uint256"
        }
      ],
      "name": "removeLiquidityETH",
      "outputs": [
        {
          "internalType": "uint256",
          "name": "amountToken",
          "type": "uint256"
        },
        {
          "internalType": "uint256",
          "name": "amountETH",
          "type": "uint256"
        }
      ],
      "stateMutability": "nonpayable",
      "type": "function"
    },
    {
      "inputs": [
        {
          "internalType": "address",
          "name": "pair",
          "type": "address"
        },
        {
          "internalType": "address",
          "name": "token",
          "type": "address"
        },
        {
          "internalType": "uint256",
          "name": "liquidity",
          "type": "uint256"
        },
        {
          "internalType": "uint256",
          "name": "amountTokenMin",
          "type": "uint256"
        },
        {
          "internalType": "uint256",
          "name": "amountETHMin",
          "type": "uint256"
        },
        {
          "internalType": "address",
          "name": "to",
          "type": "address"
        },
        {
          "internalType": "uint256",
          "name": "deadline",
          "type": "uint256"
        }
      ],
      "name": "removeLiquidityETHSupportingFeeOnTransferTokens",
      "outputs": [
        {
          "internalType": "uint256",
          "name": "amountETH",
          "type": "uint256"
        }
      ],
      "stateMutability": "nonpayable",
      "type": "function"
    },
    {
      "inputs": [
        {
          "internalType": "address",
          "name": "pair",
          "type": "address"
        },
        {
          "internalType": "address",
          "name": "token",
          "type": "address"
        },
        {
          "internalType": "uint256",
          "name": "liquidity",
          "type": "uint256"
        },
        {
          "internalType": "uint256",
          "name": "amountTokenMin",
          "type": "uint256"
        },
        {
          "internalType": "uint256",
          "name": "amountETHMin",
          "type": "uint256"
        },
        {
          "internalType": "address",
          "name": "to",
          "type": "address"
        },
        {
          "internalType": "uint256",
          "name": "deadline",
          "type": "uint256"
        },
        {
          "internalType": "bool",
          "name": "approveMax",
          "type": "bool"
        },
        {
          "internalType": "uint8",
          "name": "v",
          "type": "uint8"
        },
        {
          "internalType": "bytes32",
          "name": "r",
          "type": "bytes32"
        },
        {
          "internalType": "bytes32",
          "name": "s",
          "type": "bytes32"
        }
      ],
      "name": "removeLiquidityETHWithPermit",
      "outputs": [
        {
          "internalType": "uint256",
          "name": "amountToken",
          "type": "uint256"
        },
        {
          "internalType": "uint256",
          "name": "amountETH",
          "type": "uint256"
        }
      ],
      "stateMutability": "nonpayable",
      "type": "function"
    },
    {
      "inputs": [
        {
          "internalType": "address",
          "name": "pair",
          "type": "address"
        },
        {
          "internalType": "address",
          "name": "token",
          "type": "address"
        },
        {
          "internalType": "uint256",
          "name": "liquidity",
          "type": "uint256"
        },
        {
          "internalType": "uint256",
          "name": "amountTokenMin",
          "type": "uint256"
        },
        {
          "internalType": "uint256",
          "name": "amountETHMin",
          "type": "uint256"
        },
        {
          "internalType": "address",
          "name": "to",
          "type": "address"
        },
        {
          "internalType": "uint256",
          "name": "deadline",
          "type": "uint256"
        },
        {
          "internalType": "bool",
          "name": "approveMax",
          "type": "bool"
        },
        {
          "internalType": "uint8",
          "name": "v",
          "type": "uint8"
        },
        {
          "internalType": "bytes32",
          "name": "r",
          "type": "bytes32"
        },
        {
          "internalType": "bytes32",
          "name": "s",
          "type": "bytes32"
        }
      ],
      "name": "removeLiquidityETHWithPermitSupportingFeeOnTransferTokens",
      "outputs": [
        {
          "internalType": "uint256",
          "name": "amountETH",
          "type": "uint256"
        }
      ],
      "stateMutability": "nonpayable",
      "type": "function"
    },
    {
      "inputs": [
        {
          "internalType": "address",
          "name": "pair",
          "type": "address"
        },
        {
          "internalType": "address",
          "name": "tokenA",
          "type": "address"
        },
        {
          "internalType": "address",
          "name": "tokenB",
          "type": "address"
        },
        {
          "internalType": "uint256",
          "name": "liquidity",
          "type": "uint256"
        },
        {
          "internalType": "uint256",
          "name": "amountAMin",
          "type": "uint256"
        },
        {
          "internalType": "uint256",
          "name": "amountBMin",
          "type": "uint256"
        },
        {
          "internalType": "address",
          "name": "to",
          "type": "address"
        },
        {
          "internalType": "uint256",
          "name": "deadline",
          "type": "uint256"
        },
        {
          "internalType": "bool",
          "name": "approveMax",
          "type": "bool"
        },
        {
          "internalType": "uint8",
          "name": "v",
          "type": "uint8"
        },
        {
          "internalType": "bytes32",
          "name": "r",
          "type": "bytes32"
        },
        {
          "internalType": "bytes32",
          "name": "s",
          "type": "bytes32"
        }
      ],
      "name": "removeLiquidityWithPermit",
      "outputs": [
        {
          "internalType": "uint256",
          "name": "amountA",
          "type": "uint256"
        },
        {
          "internalType": "uint256",
          "name": "amountB",
          "type": "uint256"
        }
      ],
      "stateMutability": "nonpayable",
      "type": "function"
    },
    {
      "inputs": [
        {
          "internalType": "address",
          "name": "tokenOut",
          "type": "address"
        },
        {
          "internalType": "uint256",
          "name": "amountOut",
          "type": "uint256"
        },
        {
          "internalType": "address[]",
          "name": "path",
          "type": "address[]"
        },
        {
          "internalType": "address",
          "name": "to",
          "type": "address"
        },
        {
          "internalType": "uint256",
          "name": "deadline",
          "type": "uint256"
        }
      ],
      "name": "swapETHForExactTokens",
      "outputs": [
        {
          "internalType": "uint256[]",
          "name": "amounts",
          "type": "uint256[]"
        }
      ],
      "stateMutability": "payable",
      "type": "function"
    },
    {
      "inputs": [
        {
          "internalType": "address",
          "name": "tokenOut",
          "type": "address"
        },
        {
          "internalType": "uint256",
          "name": "amountOutMin",
          "type": "uint256"
        },
        {
          "internalType": "address[]",
          "name": "path",
          "type": "address[]"
        },
        {
          "internalType": "address",
          "name": "to",
          "type": "address"
        },
        {
          "internalType": "uint256",
          "name": "deadline",
          "type": "uint256"
        }
      ],
      "name": "swapExactETHForTokens",
      "outputs": [
        {
          "internalType": "uint256[]",
          "name": "amounts",
          "type": "uint256[]"
        }
      ],
      "stateMutability": "payable",
      "type": "function"
    },
    {
      "inputs": [
        {
          "internalType": "address",
          "name": "tokenOut",
          "type": "address"
        },
        {
          "internalType": "uint256",
          "name": "amountOutMin",
          "type": "uint256"
        },
        {
          "internalType": "address[]",
          "name": "path",
          "type": "address[]"
        },
        {
          "internalType": "address",
          "name": "to",
          "type": "address"
        },
        {
          "internalType": "uint256",
          "name": "deadline",
          "type": "uint256"
        }
      ],
      "name": "swapExactETHForTokensSupportingFeeOnTransferTokens",
      "outputs": [],
      "stateMutability": "payable",
      "type": "function"
    },
    {
      "inputs": [
        {
          "internalType": "address",
          "name": "tokenIn",
          "type": "address"
        },
        {
          "internalType": "uint256",
          "name": "amountIn",
          "type": "uint256"
        },
        {
          "internalType": "uint256",
          "name": "amountOutMin",
          "type": "uint256"
        },
        {
          "internalType": "address[]",
          "name": "path",
          "type": "address[]"
        },
        {
          "internalType": "address",
          "name": "to",
          "type": "address"
        },
        {
          "internalType": "uint256",
          "name": "deadline",
          "type": "uint256"
        }
      ],
      "name": "swapExactTokensForETH",
      "outputs": [
        {
          "internalType": "uint256[]",
          "name": "amounts",
          "type": "uint256[]"
        }
      ],
      "stateMutability": "nonpayable",
      "type": "function"
    },
    {
      "inputs": [
        {
          "internalType": "address",
          "name": "tokenIn",
          "type": "address"
        },
        {
          "internalType": "uint256",
          "name": "amountIn",
          "type": "uint256"
        },
        {
          "internalType": "uint256",
          "name": "amountOutMin",
          "type": "uint256"
        },
        {
          "internalType": "address[]",
          "name": "path",
          "type": "address[]"
        },
        {
          "internalType": "address",
          "name": "to",
          "type": "address"
        },
        {
          "internalType": "uint256",
          "name": "deadline",
          "type": "uint256"
        }
      ],
      "name": "swapExactTokensForETHSupportingFeeOnTransferTokens",
      "outputs": [],
      "stateMutability": "nonpayable",
      "type": "function"
    },
    {
      "inputs": [
        {
          "internalType": "address",
          "name": "tokenIn",
          "type": "address"
        },
        {
          "internalType": "address",
          "name": "tokenOut",
          "type": "address"
        },
        {
          "internalType": "uint256",
          "name": "amountIn",
          "type": "uint256"
        },
        {
          "internalType": "uint256",
          "name": "amountOutMin",
          "type": "uint256"
        },
        {
          "internalType": "address[]",
          "name": "path",
          "type": "address[]"
        },
        {
          "internalType": "address",
          "name": "to",
          "type": "address"
        },
        {
          "internalType": "uint256",
          "name": "deadline",
          "type": "uint256"
        }
      ],
      "name": "swapExactTokensForTokens",
      "outputs": [
        {
          "internalType": "uint256[]",
          "name": "amounts",
          "type": "uint256[]"
        }
      ],
      "stateMutability": "nonpayable",
      "type": "function"
    },
    {
      "inputs": [
        {
          "internalType": "address",
          "name": "tokenIn",
          "type": "address"
        },
        {
          "internalType": "address",
          "name": "tokenOut",
          "type": "address"
        },
        {
          "internalType": "uint256",
          "name": "amountIn",
          "type": "uint256"
        },
        {
          "internalType": "uint256",
          "name": "amountOutMin",
          "type": "uint256"
        },
        {
          "internalType": "address[]",
          "name": "path",
          "type": "address[]"
        },
        {
          "internalType": "address",
          "name": "to",
          "type": "address"
        },
        {
          "internalType": "uint256",
          "name": "deadline",
          "type": "uint256"
        }
      ],
      "name": "swapExactTokensForTokensSupportingFeeOnTransferTokens",
      "outputs": [],
      "stateMutability": "nonpayable",
      "type": "function"
    },
    {
      "inputs": [
        {
          "internalType": "address",
          "name": "tokenIn",
          "type": "address"
        },
        {
          "internalType": "uint256",
          "name": "amountOut",
          "type": "uint256"
        },
        {
          "internalType": "uint256",
          "name": "amountInMax",
          "type": "uint256"
        },
        {
          "internalType": "address[]",
          "name": "path",
          "type": "address[]"
        },
        {
          "internalType": "address",
          "name": "to",
          "type": "address"
        },
        {
          "internalType": "uint256",
          "name": "deadline",
          "type": "uint256"
        }
      ],
      "name": "swapTokensForExactETH",
      "outputs": [
        {
          "internalType": "uint256[]",
          "name": "amounts",
          "type": "uint256[]"
        }
      ],
      "stateMutability": "nonpayable",
      "type": "function"
    },
    {
      "inputs": [
        {
          "internalType": "address",
          "name": "tokenIn",
          "type": "address"
        },
        {
          "internalType": "address",
          "name": "tokenOut",
          "type": "address"
        },
        {
          "internalType": "uint256",
          "name": "amountOut",
          "type": "uint256"
        },
        {
          "internalType": "uint256",
          "name": "amountInMax",
          "type": "uint256"
        },
        {
          "internalType": "address[]",
          "name": "path",
          "type": "address[]"
        },
        {
          "internalType": "address",
          "name": "to",
          "type": "address"
        },
        {
          "internalType": "uint256",
          "name": "deadline",
          "type": "uint256"
        }
      ],
      "name": "swapTokensForExactTokens",
      "outputs": [
        {
          "internalType": "uint256[]",
          "name": "amounts",
          "type": "uint256[]"
        }
      ],
      "stateMutability": "nonpayable",
      "type": "function"
    },
    {
      "stateMutability": "payable",
      "type": "receive"
    }
  ],
  "bytecode": "0x60e06040523480156200001157600080fd5b5060405162005f3138038062005f318339810160408190526200003491620000db565b6001600160a01b038216608081905260408051634b75f54f60e01b81529051634b75f54f916004808201926020929091908290030181865afa1580156200007f573d6000803e3d6000fd5b505050506040513d601f19601f82011682018060405250810190620000a5919062000113565b6001600160a01b0390811660a0521660c0525062000138565b80516001600160a01b0381168114620000d657600080fd5b919050565b60008060408385031215620000ef57600080fd5b620000fa83620000be565b91506200010a60208401620000be565b90509250929050565b6000602082840312156200012657600080fd5b6200013182620000be565b9392505050565b60805160a05160c051615cb8620002796000396000818161015b015281816103850152818161079c0152818161092701528181610a5701528181611d7b015281816120af0152818161214201528181612224015281816127c801528181612c5501528181612d9201528181612e0a01528181612e71015281816136cc01528181613757015281816137dd0152818161388a0152613c6d0152600081816101f6015281816111fe0152818161312f0152818161337a0152818161347f0152818161397701528181613d340152818161408701528181614383015281816144890152818161474c0152818161481601526148de01526000818161040c01528181610a270152818161122d0152818161257901528181612f4c015281816133a9015281816139a401528181613d61015281816140b401526143b20152615cb86000f3fe60806040526004361061014b5760003560e01c80630e2f024c1461018f5780633990ba54146101c25780634b75f54f146101e45780634c17fd7c146102255780635cae03101461025a578063674ee80b1461027a5780636cb494281461028d57806370e3adcc146102a0578063840c34d0146102cd57806393b2dfe0146102e0578063944264fe146103005780639c91fcb514610313578063a4aabb0814610333578063a67d0e3c14610353578063ad5c464814610373578063b05f579e146103a7578063b56b681d146103ba578063bff51d71146103da578063c45a0155146103fa578063ce8196321461042e578063d0f2c82a14610441578063d59e44ee14610461578063e1f4a78414610481578063ebb5d2e9146104a1578063ee63113f146104c1578063fa3219d5146104e1578063fbf4513514610501578063fde1adda1461052157600080fd5b3661018a57336001600160a01b037f0000000000000000000000000000000000000000000000000000000000000000161461018857610188614a0d565b005b600080fd5b34801561019b57600080fd5b506101af6101aa366004614a65565b610534565b6040519081526020015b60405180910390f35b6101d56101d0366004614b0f565b6105d3565b6040516101b993929190614b81565b3480156101f057600080fd5b506102187f000000000000000000000000000000000000000000000000000000000000000081565b6040516101b99190614b97565b34801561023157600080fd5b50610245610240366004614bab565b610624565b604080519283526020830191909152016101b9565b34801561026657600080fd5b50610188610275366004614cb2565b6106ef565b610188610288366004614d38565b61085f565b6101af61029b366004614dc5565b610a22565b3480156102ac57600080fd5b506102c06102bb366004614f9a565b610af8565b6040516101b99190615004565b6101af6102db366004615182565b611082565b3480156102ec57600080fd5b506102c06102fb366004614f9a565b6113fb565b6101af61030e3660046151f5565b6117f1565b34801561031f57600080fd5b506102c061032e366004614cb2565b611d52565b34801561033f57600080fd5b5061024561034e366004614a65565b611ea9565b34801561035f57600080fd5b5061018861036e366004615255565b611f4e565b34801561037f57600080fd5b506102187f000000000000000000000000000000000000000000000000000000000000000081565b6102c06103b5366004614d38565b612087565b3480156103c657600080fd5b506102456103d5366004614b0f565b6121f9565b3480156103e657600080fd5b506102c06103f53660046152ed565b612289565b34801561040657600080fd5b506102187f000000000000000000000000000000000000000000000000000000000000000081565b6101af61043c3660046153db565b612306565b34801561044d57600080fd5b506101af61045c366004615458565b612574565b34801561046d57600080fd5b506102c061047c366004615255565b61268f565b34801561048d57600080fd5b5061024561049c3660046154dc565b612759565b3480156104ad57600080fd5b506101af6104bc366004614b0f565b61279e565b3480156104cd57600080fd5b506101af6104dc366004614f9a565b61288e565b3480156104ed57600080fd5b506102c06104fc366004614cb2565b612c2c565b34801561050d57600080fd5b506101d561051c366004615561565b612caf565b6102c061052f366004614d38565b612d6a565b60008085610542578a610546565b6000195b60405163d505accf60e01b81529091506001600160a01b038e169063d505accf90610581903390309086908d908c908c908c906004016155f0565b600060405180830381600087803b15801561059b57600080fd5b505af11580156105af573d6000803e3d6000fd5b505050506105c28d8d8d8d8d8d8d61279e565b9d9c50505050505050505050505050565b600080600083428110156106025760405162461bcd60e51b81526004016105f990615631565b60405180910390fd5b6106108b8b8b8b8b8b612e65565b919d909c50909a5098505050505050505050565b60008086428110156106485760405162461bcd60e51b81526004016105f990615631565b600087610655578c610659565b6000195b90508f6001600160a01b031663d505accf3330848d8c8c8c6040518863ffffffff1660e01b815260040161069397969594939291906155f0565b600060405180830381600087803b1580156106ad57600080fd5b505af11580156106c1573d6000803e3d6000fd5b50505050506106d58f8f8f8f8f8f8f612f47565b8093508194505050509c509c9a5050505050505050505050565b80428110156107105760405162461bcd60e51b81526004016105f990615631565b6107438833878760008181106107285761072861565a565b905060200201602081019061073d9190615670565b8a613213565b6107828886868080602002602001604051908101604052809392919081815260200183836020028082843760009201919091525030925061333f915050565b6040516370a0823160e01b81526000906001600160a01b037f000000000000000000000000000000000000000000000000000000000000000016906370a08231906107d1903090600401614b97565b602060405180830381865afa1580156107ee573d6000803e3d6000fd5b505050506040513d601f19601f82011682018060405250810190610812919061568d565b9050868110156108345760405162461bcd60e51b81526004016105f9906156a6565b61085373eeeeeeeeeeeeeeeeeeeeeeeeeeeeeeeeeeeeeeee8583613699565b50505050505050505050565b80428110156108805760405162461bcd60e51b81526004016105f990615631565b346108b08187876000816108965761089661565a565b90506020020160208101906108ab9190615670565b613755565b6040516370a0823160e01b81526000906001600160a01b038a16906370a08231906108df908890600401614b97565b602060405180830381865afa1580156108fc573d6000803e3d6000fd5b505050506040513d601f19601f82011682018060405250810190610920919061568d565b90506109817f00000000000000000000000000000000000000000000000000000000000000008888808060200260200160405190810160405280939291908181526020018383602002808284376000920191909152508a925061333f915050565b876109f9828b6001600160a01b03166370a08231896040518263ffffffff1660e01b81526004016109b29190614b97565b602060405180830381865afa1580156109cf573d6000803e3d6000fd5b505050506040513d601f19601f820116820180604052508101906109f3919061568d565b9061386a565b1015610a175760405162461bcd60e51b81526004016105f9906156a6565b505050505050505050565b6000807f00000000000000000000000000000000000000000000000000000000000000006001600160a01b03166314572adb887f000000000000000000000000000000000000000000000000000000000000000088886040518563ffffffff1660e01b8152600401610a9794939291906156e8565b6020604051808303816000875af1158015610ab6573d6000803e3d6000fd5b505050506040513d601f19601f82011682018060405250810190610ada9190615719565b9050610aeb81888860008088612e65565b9998505050505050505050565b60608142811015610b1b5760405162461bcd60e51b81526004016105f990615631565b8651610b2890600161574c565b6001600160401b03811115610b3f57610b3f614e2d565b604051908082528060200260200182016040528015610b68578160200160208202803683370190505b5091508582885181518110610b7f57610b7f61565a565b602002602001018181525050600060018351610b9b9190615764565b90505b8015610ce05787610bb0600183615764565b81518110610bc057610bc061565a565b6020026020010151602001516001600160a01b031663cc56fd4389600184610be89190615764565b81518110610bf857610bf861565a565b6020026020010151604001518a600185610c129190615764565b81518110610c2257610c2261565a565b602002602001015160600151868581518110610c4057610c4061565a565b60200260200101516040518463ffffffff1660e01b8152600401610c669392919061577b565b602060405180830381865afa158015610c83573d6000803e3d6000fd5b505050506040513d601f19601f82011682018060405250810190610ca7919061568d565b83610cb3600184615764565b81518110610cc357610cc361565a565b602090810291909101015280610cd88161579f565b915050610b9e565b508482600081518110610cf557610cf561565a565b60200260200101511115610d1b5760405162461bcd60e51b81526004016105f9906157b6565b610d7d87600081518110610d3157610d3161565a565b6020026020010151604001513389600081518110610d5157610d5161565a565b60200260200101516020015185600081518110610d7057610d7061565a565b6020026020010151613213565b60005b60018851610d8e9190615764565b8160ff161015610f2157878160ff1681518110610dad57610dad61565a565b6020026020010151602001516001600160a01b0316634ac00e03898360ff1681518110610ddc57610ddc61565a565b6020026020010151604001518a8460ff1681518110610dfd57610dfd61565a565b602002602001015160600151868560ff1681518110610e1e57610e1e61565a565b60200260200101518c8660ff1681518110610e3b57610e3b61565a565b60200260200101516000015160ff16600014610e58576000610e80565b87610e648760016157df565b60ff1681518110610e7757610e7761565a565b60200260200101515b8d610e8c8860016157df565b60ff1681518110610e9f57610e9f61565a565b6020026020010151602001516040518663ffffffff1660e01b8152600401610ecb959493929190615804565b6020604051808303816000875af1158015610eea573d6000803e3d6000fd5b505050506040513d601f19601f82011682018060405250810190610f0e919061568d565b5080610f1981615834565b915050610d80565b508660018851610f319190615764565b81518110610f4157610f4161565a565b6020026020010151602001516001600160a01b0316634ac00e038860018a51610f6a9190615764565b81518110610f7a57610f7a61565a565b6020026020010151604001518960018b51610f959190615764565b81518110610fa557610fa561565a565b6020026020010151606001518560018c51610fc09190615764565b81518110610fd057610fd061565a565b6020026020010151868c5181518110610feb57610feb61565a565b6020026020010151306040518663ffffffff1660e01b8152600401611014959493929190615804565b6020604051808303816000875af1158015611033573d6000803e3d6000fd5b505050506040513d601f19601f82011682018060405250810190611057919061568d565b5061107773eeeeeeeeeeeeeeeeeeeeeeeeeeeeeeeeeeeeeeee8588613699565b505095945050505050565b600081428110156110a55760405162461bcd60e51b81526004016105f990615631565b6110af8685613878565b5060005b87518110156113995760008882815181106110d0576110d061565a565b602002602001015151600114156111425760008983815181106110f5576110f561565a565b602002602001015160008151811061110f5761110f61565a565b6020026020010151905061113a81602001518260400151836000015184606001518560800151613916565b915050611379565b6000808a84815181106111575761115761565a565b60200260200101516001815181106111715761117161565a565b60200260200101519050600060016001600160401b0381111561119657611196614e2d565b6040519080825280602002602001820160405280156111bf578160200160208202803683370190505b5090508160000151816000815181106111da576111da61565a565b60200260200101906001600160a01b031690816001600160a01b03168152505060007f00000000000000000000000000000000000000000000000000000000000000006001600160a01b03166367f84adc7f0000000000000000000000000000000000000000000000000000000000000000856020015186604001518760600151876040518663ffffffff1660e01b815260040161127c959493929190615854565b600060405180830381865afa158015611299573d6000803e3d6000fd5b505050506040513d6000823e601f3d908101601f191682016040526112c191908101906158c7565b9050806000815181106112d6576112d661565a565b6020026020010151935082608001518411156113045760405162461bcd60e51b81526004016105f990615957565b505060008b858151811061131a5761131a61565a565b60200260200101516000815181106113345761133461565a565b6020026020010151905061135b816020015182604001518360000151868560800151613916565b935061137582602001518360000151858560600151613a7a565b5050505b6113838185613c29565b93505080806113919061598e565b9150506110b3565b50838211156113d95760405162461bcd60e51b815260206004820152600c60248201526b22a9292fa624a6a4aa2fa4a760a11b60448201526064016105f9565b6113ec85336113e788613c46565b613699565b5061107786336113e789613c46565b6060814281101561141e5760405162461bcd60e51b81526004016105f990615631565b865161142b90600161574c565b6001600160401b0381111561144257611442614e2d565b60405190808252806020026020018201604052801561146b578160200160208202803683370190505b50915085828851815181106114825761148261565a565b60200260200101818152505060006001835161149e9190615764565b90505b80156115e357876114b3600183615764565b815181106114c3576114c361565a565b6020026020010151602001516001600160a01b031663cc56fd43896001846114eb9190615764565b815181106114fb576114fb61565a565b6020026020010151604001518a6001856115159190615764565b815181106115255761152561565a565b6020026020010151606001518685815181106115435761154361565a565b60200260200101516040518463ffffffff1660e01b81526004016115699392919061577b565b602060405180830381865afa158015611586573d6000803e3d6000fd5b505050506040513d601f19601f820116820180604052508101906115aa919061568d565b836115b6600184615764565b815181106115c6576115c661565a565b6020908102919091010152806115db8161579f565b9150506114a1565b5084826000815181106115f8576115f861565a565b6020026020010151111561161e5760405162461bcd60e51b81526004016105f9906157b6565b61163487600081518110610d3157610d3161565a565b60005b87518160ff161015611077576000600189516116539190615764565b8260ff161461168c57886116688360016157df565b60ff168151811061167b5761167b61565a565b60200260200101516020015161168e565b855b9050888260ff16815181106116a5576116a561565a565b6020026020010151602001516001600160a01b0316634ac00e038a8460ff16815181106116d4576116d461565a565b6020026020010151604001518b8560ff16815181106116f5576116f561565a565b602002602001015160600151878660ff16815181106117165761171661565a565b60200260200101518d8760ff16815181106117335761173361565a565b60200260200101516000015160ff16600014611750576000611778565b8861175c8860016157df565b60ff168151811061176f5761176f61565a565b60200260200101515b866040518663ffffffff1660e01b8152600401611799959493929190615804565b6020604051808303816000875af11580156117b8573d6000803e3d6000fd5b505050506040513d601f19601f820116820180604052508101906117dc919061568d565b505080806117e990615834565b915050611637565b600081428110156118145760405162461bcd60e51b81526004016105f990615631565b600034905061184134886000815181106118305761183061565a565b602002602001015160200151613755565b866000815181106118545761185461565a565b6020026020010151602001516001600160a01b031663e9255bae886000815181106118815761188161565a565b602002602001015160400151896000815181106118a0576118a061565a565b602002602001015160600151846040518463ffffffff1660e01b81526004016118cb9392919061577b565b602060405180830381865afa1580156118e8573d6000803e3d6000fd5b505050506040513d601f19601f8201168201806040525081019061190c919061568d565b9250866000815181106119215761192161565a565b6020026020010151602001516001600160a01b0316634ac00e038860008151811061194e5761194e61565a565b6020026020010151604001518960008151811061196d5761196d61565a565b60200260200101516060015184878c60018151811061198e5761198e61565a565b6020026020010151602001516040518663ffffffff1660e01b81526004016119ba959493929190615804565b6020604051808303816000875af11580156119d9573d6000803e3d6000fd5b505050506040513d601f19601f820116820180604052508101906119fd919061568d565b5060015b87518160ff161015611d2757600060018951611a1d9190615764565b8260ff1614611a565788611a328360016157df565b60ff1681518110611a4557611a4561565a565b602002602001015160200151611a58565b865b9050888260ff1681518110611a6f57611a6f61565a565b60200260200101516000015160ff1660001415611c3957849250888260ff1681518110611a9e57611a9e61565a565b6020026020010151602001516001600160a01b031663e9255bae8a8460ff1681518110611acd57611acd61565a565b6020026020010151604001518b8560ff1681518110611aee57611aee61565a565b602002602001015160600151886040518463ffffffff1660e01b8152600401611b199392919061577b565b602060405180830381865afa158015611b36573d6000803e3d6000fd5b505050506040513d601f19601f82011682018060405250810190611b5a919061568d565b9450888260ff1681518110611b7157611b7161565a565b6020026020010151602001516001600160a01b0316634ac00e038a8460ff1681518110611ba057611ba061565a565b6020026020010151604001518b8560ff1681518110611bc157611bc161565a565b6020026020010151606001518689866040518663ffffffff1660e01b8152600401611bf0959493929190615804565b6020604051808303816000875af1158015611c0f573d6000803e3d6000fd5b505050506040513d601f19601f82011682018060405250810190611c33919061568d565b50611d14565b888260ff1681518110611c4e57611c4e61565a565b6020026020010151602001516001600160a01b0316634ac00e038a8460ff1681518110611c7d57611c7d61565a565b6020026020010151604001518b8560ff1681518110611c9e57611c9e61565a565b602002602001015160600151886000866040518663ffffffff1660e01b8152600401611cce959493929190615804565b6020604051808303816000875af1158015611ced573d6000803e3d6000fd5b505050506040513d601f19601f82011682018060405250810190611d11919061568d565b94505b5080611d1f81615834565b915050611a01565b5082861115611d485760405162461bcd60e51b81526004016105f9906159a9565b5050949350505050565b60608142811015611d755760405162461bcd60e51b81526004016105f990615631565b611dd5897f00000000000000000000000000000000000000000000000000000000000000008a8a8a8a80806020026020016040519081016040528093929190818152602001838360200280828437600092019190915250613d1a92505050565b9150611e17893388886000818110611def57611def61565a565b9050602002016020810190611e049190615670565b85600081518110610d7057610d7061565a565b611e578983888880806020026020016040519081016040528093929190818152602001838360200280828437600092019190915250309250613e27915050565b611e9c73eeeeeeeeeeeeeeeeeeeeeeeeeeeeeeeeeeeeeeee858460018651611e7f9190615764565b81518110611e8f57611e8f61565a565b6020026020010151613699565b5050979650505050505050565b600080600086611eb9578b611ebd565b6000195b60405163d505accf60e01b81529091506001600160a01b038f169063d505accf90611ef8903390309086908e908d908d908d906004016155f0565b600060405180830381600087803b158015611f1257600080fd5b505af1158015611f26573d6000803e3d6000fd5b50505050611f398e8e8e8e8e8e8e6121f9565b909f909e509c50505050505050505050505050565b8042811015611f6f5760405162461bcd60e51b81526004016105f990615631565b611f878933878760008181106107285761072861565a565b6040516370a0823160e01b81526000906001600160a01b038a16906370a0823190611fb6908790600401614b97565b602060405180830381865afa158015611fd3573d6000803e3d6000fd5b505050506040513d601f19601f82011682018060405250810190611ff7919061568d565b90506120388a87878080602002602001604051908101604052809392919081815260200183836020028082843760009201919091525089925061333f915050565b86612069828b6001600160a01b03166370a08231886040518263ffffffff1660e01b81526004016109b29190614b97565b10156108535760405162461bcd60e51b81526004016105f9906156a6565b606081428110156120aa5760405162461bcd60e51b81526004016105f990615631565b61210a7f00000000000000000000000000000000000000000000000000000000000000008989348a8a8080602002602001604051908101604052809392919081815260200183836020028082843760009201919091525061406d92505050565b915061213d826000815181106121225761212261565a565b6020026020010151878760008181106108965761089661565a565b61219d7f0000000000000000000000000000000000000000000000000000000000000000838888808060200260200160405190810160405280939291908181526020018383602002808284376000920191909152508a9250613e27915050565b816000815181106121b0576121b061565a565b60200260200101513411156121ee576121ee33836000815181106121d6576121d661565a565b6020026020010151346121e99190615764565b614165565b509695505050505050565b600080824281101561221d5760405162461bcd60e51b81526004016105f990615631565b61224c8a8a7f00000000000000000000000000000000000000000000000000000000000000008b8b8b30612f47565b909350915061225c898685614233565b61227b73eeeeeeeeeeeeeeeeeeeeeeeeeeeeeeeeeeeeeeee8684613699565b505097509795505050505050565b606081428110156122ac5760405162461bcd60e51b81526004016105f990615631565b6122b98989898989613d1a565b91506122ee8933876000815181106122d3576122d361565a565b602002602001015185600081518110610d7057610d7061565a565b6122fa89838787613e27565b50979650505050505050565b600081428110156123295760405162461bcd60e51b81526004016105f990615631565b6123338786613878565b50600061233f87614349565b6123b3576040516370a0823160e01b81526001600160a01b038816906370a082319061236f903390600401614b97565b602060405180830381865afa15801561238c573d6000803e3d6000fd5b505050506040513d601f19601f820116820180604052508101906123b0919061568d565b90505b60005b8951811015612485576000805b8b83815181106123d5576123d561565a565b6020026020010151518110156124645760008c84815181106123f9576123f961565a565b602002602001015182815181106124125761241261565a565b60200260200101519050600082111561242d57606081018390525b61244e8160200151826040015183600001518460600151856080015161436b565b925050808061245c9061598e565b9150506123c3565b5061246f8186613c29565b945050808061247d9061598e565b9150506123b6565b50612491873385613699565b506124a088336113e78b613c46565b506124aa87614349565b156124f457848310156124ef5760405162461bcd60e51b815260206004820152600d60248201526c11549497d31253525517d3d555609a1b60448201526064016105f9565b612568565b8461252582896001600160a01b03166370a08231336040518263ffffffff1660e01b81526004016109b29190614b97565b10156125685760405162461bcd60e51b81526020600482015260126024820152710f1b5a5b951bdd185b105b5bdd5b9d13dd5d60721b60448201526064016105f9565b50509695505050505050565b6000807f00000000000000000000000000000000000000000000000000000000000000006001600160a01b03166314572adb8a8a88886040518563ffffffff1660e01b81526004016125c994939291906156e8565b6020604051808303816000875af11580156125e8573d6000803e3d6000fd5b505050506040513d601f19601f8201168201806040525081019061260c9190615719565b905061261e818a8a8a8a600080614709565b50506040516335313c2160e11b81526001600160a01b03821690636a6278429061264c908690600401614b97565b6020604051808303816000875af115801561266b573d6000803e3d6000fd5b505050506040513d601f19601f82011682018060405250810190610aeb919061568d565b606081428110156126b25760405162461bcd60e51b81526004016105f990615631565b6126f28a8a8a8a8a8a8080602002602001604051908101604052809392919081815260200183836020028082843760009201919091525061406d92505050565b915061270c8a3388886000818110611def57611def61565a565b61274c8a838888808060200260200160405190810160405280939291908181526020018383602002808284376000920191909152508a9250613e27915050565b5098975050505050505050565b600080824281101561277d5760405162461bcd60e51b81526004016105f990615631565b61278c8b8b8b8b8b8b8b612f47565b909c909b509950505050505050505050565b600081428110156127c15760405162461bcd60e51b81526004016105f990615631565b6127f189897f00000000000000000000000000000000000000000000000000000000000000008a8a8a308a612759565b6040516370a0823160e01b815290935061286f9150899086906001600160a01b038316906370a0823190612829903090600401614b97565b602060405180830381865afa158015612846573d6000803e3d6000fd5b505050506040513d601f19601f8201168201806040525081019061286a919061568d565b614233565b611e9c73eeeeeeeeeeeeeeeeeeeeeeeeeeeeeeeeeeeeeeee8584613699565b600081428110156128b15760405162461bcd60e51b81526004016105f990615631565b8591506128fc876000815181106128ca576128ca61565a565b60200260200101516040015133896000815181106128ea576128ea61565a565b60200260200101516020015189613213565b60005b8751811015612c01576000600189516129189190615764565b821461294b578861292a83600161574c565b8151811061293a5761293a61565a565b60200260200101516020015161294d565b855b90508882815181106129615761296161565a565b60200260200101516000015160ff1660001415612b1c57600084905089838151811061298f5761298f61565a565b6020026020010151602001516001600160a01b031663e9255bae8b85815181106129bb576129bb61565a565b6020026020010151604001518c86815181106129d9576129d961565a565b602002602001015160600151886040518463ffffffff1660e01b8152600401612a049392919061577b565b602060405180830381865afa158015612a21573d6000803e3d6000fd5b505050506040513d601f19601f82011682018060405250810190612a45919061568d565b9450898381518110612a5957612a5961565a565b6020026020010151602001516001600160a01b0316634ac00e038b8581518110612a8557612a8561565a565b6020026020010151604001518c8681518110612aa357612aa361565a565b6020026020010151606001518489876040518663ffffffff1660e01b8152600401612ad2959493929190615804565b6020604051808303816000875af1158015612af1573d6000803e3d6000fd5b505050506040513d601f19601f82011682018060405250810190612b15919061568d565b5050612bee565b888281518110612b2e57612b2e61565a565b6020026020010151602001516001600160a01b0316634ac00e038a8481518110612b5a57612b5a61565a565b6020026020010151604001518b8581518110612b7857612b7861565a565b602002602001015160600151876000866040518663ffffffff1660e01b8152600401612ba8959493929190615804565b6020604051808303816000875af1158015612bc7573d6000803e3d6000fd5b505050506040513d601f19601f82011682018060405250810190612beb919061568d565b93505b5080612bf98161598e565b9150506128ff565b5081851115612c225760405162461bcd60e51b81526004016105f9906159a9565b5095945050505050565b60608142811015612c4f5760405162461bcd60e51b81526004016105f990615631565b611dd5897f00000000000000000000000000000000000000000000000000000000000000008a8a8a8a8080602002602001604051908101604052809392919081815260200183836020028082843760009201919091525061406d92505050565b60008060008342811015612cd55760405162461bcd60e51b81526004016105f990615631565b612ce48d8d8d8d8d8d8d614709565b6040516335313c2160e11b815291955093506001600160a01b038e1690636a62784290612d15908990600401614b97565b6020604051808303816000875af1158015612d34573d6000803e3d6000fd5b505050506040513d601f19601f82011682018060405250810190612d58919061568d565b91505099509950999650505050505050565b60608142811015612d8d5760405162461bcd60e51b81526004016105f990615631565b612ded7f000000000000000000000000000000000000000000000000000000000000000089348a8a8a80806020026020016040519081016040528093929190818152602001838360200280828437600092019190915250613d1a92505050565b9150612e05826000815181106121225761212261565a565b6121ee7f0000000000000000000000000000000000000000000000000000000000000000838888808060200260200160405190810160405280939291908181526020018383602002808284376000920191909152508a9250613e27915050565b6000806000612e9989897f00000000000000000000000000000000000000000000000000000000000000008a348b8b614744565b9093509150612eaa88338b86613213565b612eb4828a613755565b6040516335313c2160e11b81526001600160a01b038a1690636a62784290612ee0908790600401614b97565b6020604051808303816000875af1158015612eff573d6000803e3d6000fd5b505050506040513d601f19601f82011682018060405250810190612f23919061568d565b905081341115612f3b57612f3b336121e98434615764565b96509650969350505050565b6000807f00000000000000000000000000000000000000000000000000000000000000006001600160a01b031663e5e31b138a6040518263ffffffff1660e01b8152600401612f969190614b97565b602060405180830381865afa158015612fb3573d6000803e3d6000fd5b505050506040513d601f19601f82011682018060405250810190612fd791906159d6565b61301a5760405162461bcd60e51b81526020600482015260146024820152732937baba32b91d1024b73b30b634b2103830b4b960611b60448201526064016105f9565b6040516323b872dd60e01b81526001600160a01b038a16906323b872dd9061304a9033908d908b9060040161577b565b6020604051808303816000875af1158015613069573d6000803e3d6000fd5b505050506040513d601f19601f8201168201806040525081019061308d91906159d6565b506000808a6001600160a01b03166389afcb44866040518263ffffffff1660e01b81526004016130bd9190614b97565b60408051808303816000875af11580156130db573d6000803e3d6000fd5b505050506040513d601f19601f820116820180604052508101906130ff91906159f3565b604051632a26552b60e11b81526001600160a01b038d811660048301528c811660248301529294509092506000917f0000000000000000000000000000000000000000000000000000000000000000169063544caa56906044016040805180830381865afa158015613175573d6000803e3d6000fd5b505050506040513d601f19601f820116820180604052508101906131999190615a17565b509050806001600160a01b03168b6001600160a01b0316146131bc5781836131bf565b82825b9095509350878510156131e45760405162461bcd60e51b81526004016105f990615a51565b868410156132045760405162461bcd60e51b81526004016105f990615a88565b50505097509795505050505050565b600080856001600160a01b03166323b872dd86868660405160240161323a9392919061577b565b6040516020818303038152906040529060e01b6020820180516001600160e01b0383818316178352505050506040516132739190615aef565b6000604051808303816000865af19150503d80600081146132b0576040519150601f19603f3d011682016040523d82523d6000602084013e6132b5565b606091505b50915091508180156132df5750805115806132df5750808060200190518101906132df91906159d6565b6133375760405162461bcd60e51b8152602060048201526024808201527f5472616e7366657248656c7065723a205452414e534645525f46524f4d5f46416044820152631253115160e21b60648201526084016105f9565b505050505050565b8260005b83518110156136925760008482815181106133605761336061565a565b6020026020010151905060008060008060008060008060007f00000000000000000000000000000000000000000000000000000000000000006001600160a01b031663b33d96b07f00000000000000000000000000000000000000000000000000000000000000008c8f6040518463ffffffff1660e01b81526004016133e893929190615b0b565b60c060405180830381865afa158015613405573d6000803e3d6000fd5b505050506040513d601f19601f820116820180604052508101906134299190615b2e565b955095509550955095509550613465858d6001600160a01b03166370a082318d6040518263ffffffff1660e01b81526004016109b29190614b97565b60405163671a11b560e01b81529099506001600160a01b037f0000000000000000000000000000000000000000000000000000000000000000169063671a11b5906134be908c9089908990899089908990600401615ba2565b602060405180830381865afa1580156134db573d6000803e3d6000fd5b505050506040513d601f19601f820116820180604052508101906134ff919061568d565b9750859650505050505050600080856001600160a01b0316630dfe16816040518163ffffffff1660e01b8152600401602060405180830381865afa15801561354b573d6000803e3d6000fd5b505050506040513d601f19601f8201168201806040525081019061356f9190615719565b6001600160a01b0316886001600160a01b03161461358f57836000613593565b6000845b91509150600060018b516135a79190615764565b88106135b357896135d8565b8a6135bf89600161574c565b815181106135cf576135cf61565a565b60200260200101515b6040805160008152602081019182905263022c0d9f60e01b9091529091506001600160a01b0388169063022c0d9f9061361a9086908690869060248101615bd6565b600060405180830381600087803b15801561363457600080fd5b505af1158015613648573d6000803e3d6000fd5b50505050600080516020615c6383398151915287868660405161366d93929190615c26565b60405180910390a183985050505050505050808061368a9061598e565b915050613343565b5050505050565b6000816136a85750600161374e565b6136b184614349565b1561373f57604051632e1a7d4d60e01b8152600481018390527f00000000000000000000000000000000000000000000000000000000000000006001600160a01b031690632e1a7d4d90602401600060405180830381600087803b15801561371857600080fd5b505af115801561372c573d6000803e3d6000fd5b5050505061373a8383614165565b61374a565b61374a848484614233565b5060015b9392505050565b7f00000000000000000000000000000000000000000000000000000000000000006001600160a01b031663d0e30db0836040518263ffffffff1660e01b81526004016000604051808303818588803b1580156137b057600080fd5b505af11580156137c4573d6000803e3d6000fd5b505060405163a9059cbb60e01b81526001600160a01b037f000000000000000000000000000000000000000000000000000000000000000016935063a9059cbb9250613817915084908690600401615c49565b6020604051808303816000875af1158015613836573d6000803e3d6000fd5b505050506040513d601f19601f8201168201806040525081019061385a91906159d6565b61386657613866614a0d565b5050565b600061374e8383600161499c565b600061388383614349565b15613901577f00000000000000000000000000000000000000000000000000000000000000006001600160a01b031663d0e30db0346040518263ffffffff1660e01b81526004016000604051808303818588803b1580156138e357600080fd5b505af11580156138f7573d6000803e3d6000fd5b505050505061390d565b61390d83333085613213565b50600192915050565b60408051600180825281830190925260009182919060208083019080368337019050509050848160008151811061394f5761394f61565a565b6001600160a01b0392831660209182029290920101526040516319fe12b760e21b81526000917f000000000000000000000000000000000000000000000000000000000000000016906367f84adc906139d4907f0000000000000000000000000000000000000000000000000000000000000000908c908c908b908990600401615854565b600060405180830381865afa1580156139f1573d6000803e3d6000fd5b505050506040513d6000823e601f3d908101601f19168201604052613a1991908101906158c7565b905080600081518110613a2e57613a2e61565a565b6020026020010151925083831115613a585760405162461bcd60e51b81526004016105f990615957565b61107788878584600181518110613a7157613a7161565a565b60200260200101515b613a85848484614233565b60008390506000816001600160a01b0316630dfe16816040518163ffffffff1660e01b8152600401602060405180830381865afa158015613aca573d6000803e3d6000fd5b505050506040513d601f19601f82011682018060405250810190613aee9190615719565b90506000806000836001600160a01b0316896001600160a01b031614613b175785600085613b7c565b600086866001600160a01b031663d21220a76040518163ffffffff1660e01b8152600401602060405180830381865afa158015613b58573d6000803e3d6000fd5b505050506040513d601f19601f82011682018060405250810190613b7c9190615719565b6040805160008152602081019182905263022c0d9f60e01b90915292955090935091506001600160a01b0386169063022c0d9f90613bc39086908690309060248101615bd6565b600060405180830381600087803b158015613bdd57600080fd5b505af1158015613bf1573d6000803e3d6000fd5b50505050600080516020615c63833981519152888783604051613c1693929190615c26565b60405180910390a1505050505050505050565b600080613c36838561574c565b905061374e8482101560006149b7565b6000613c5182614349565b15613ce9576040516370a0823160e01b81526001600160a01b037f000000000000000000000000000000000000000000000000000000000000000016906370a0823190613ca2903090600401614b97565b602060405180830381865afa158015613cbf573d6000803e3d6000fd5b505050506040513d601f19601f82011682018060405250810190613ce3919061568d565b92915050565b6040516370a0823160e01b81526001600160a01b038316906370a0823190613ca2903090600401614b97565b919050565b60405163119220a560e01b81526060906001600160a01b037f0000000000000000000000000000000000000000000000000000000000000000169063119220a590613d91907f0000000000000000000000000000000000000000000000000000000000000000908a908a908a908990600401615854565b600060405180830381865afa158015613dae573d6000803e3d6000fd5b505050506040513d6000823e601f3d908101601f19168201604052613dd691908101906158c7565b9050828160018351613de89190615764565b81518110613df857613df861565a565b60200260200101511015613e1e5760405162461bcd60e51b81526004016105f9906156a6565b95945050505050565b8360005b8351811015613337576000848281518110613e4857613e4861565a565b602002602001015190506000816001600160a01b0316630dfe16816040518163ffffffff1660e01b8152600401602060405180830381865afa158015613e92573d6000803e3d6000fd5b505050506040513d601f19601f82011682018060405250810190613eb69190615719565b9050600087613ec685600161574c565b81518110613ed657613ed661565a565b602002602001015190506000806000846001600160a01b0316886001600160a01b031614613f075783600086613f6c565b600084876001600160a01b031663d21220a76040518163ffffffff1660e01b8152600401602060405180830381865afa158015613f48573d6000803e3d6000fd5b505050506040513d601f19601f82011682018060405250810190613f6c9190615719565b925092509250600060018b51613f829190615764565b8810613f8e5789613fb3565b8a613f9a89600161574c565b81518110613faa57613faa61565a565b60200260200101515b6040805160008152602081019182905263022c0d9f60e01b9091529091506001600160a01b0388169063022c0d9f90613ff59087908790869060248101615bd6565b600060405180830381600087803b15801561400f57600080fd5b505af1158015614023573d6000803e3d6000fd5b50505050600080516020615c6383398151915287868460405161404893929190615c26565b60405180910390a18198505050505050505080806140659061598e565b915050613e2b565b6040516319fe12b760e21b81526060906001600160a01b037f000000000000000000000000000000000000000000000000000000000000000016906367f84adc906140e4907f0000000000000000000000000000000000000000000000000000000000000000908a908a908a908990600401615854565b600060405180830381865afa158015614101573d6000803e3d6000fd5b505050506040513d6000823e601f3d908101601f1916820160405261412991908101906158c7565b9050828160008151811061413f5761413f61565a565b60200260200101511115613e1e5760405162461bcd60e51b81526004016105f990615957565b604080516000808252602082019092526001600160a01b03841690839060405161418f9190615aef565b60006040518083038185875af1925050503d80600081146141cc576040519150601f19603f3d011682016040523d82523d6000602084013e6141d1565b606091505b505090508061422e5760405162461bcd60e51b815260206004820152602360248201527f5472616e7366657248656c7065723a204554485f5452414e534645525f46414960448201526213115160ea1b60648201526084016105f9565b505050565b600080846001600160a01b031663a9059cbb8585604051602401614258929190615c49565b6040516020818303038152906040529060e01b6020820180516001600160e01b0383818316178352505050506040516142919190615aef565b6000604051808303816000865af19150503d80600081146142ce576040519150601f19603f3d011682016040523d82523d6000602084013e6142d3565b606091505b50915091508180156142fd5750805115806142fd5750808060200190518101906142fd91906159d6565b6136925760405162461bcd60e51b815260206004820152601f60248201527f5472616e7366657248656c7065723a205452414e534645525f4641494c45440060448201526064016105f9565b6001600160a01b031673eeeeeeeeeeeeeeeeeeeeeeeeeeeeeeeeeeeeeeee1490565b6000614378868585614233565b6000806000806000807f00000000000000000000000000000000000000000000000000000000000000006001600160a01b031663b33d96b07f00000000000000000000000000000000000000000000000000000000000000008c8f6040518463ffffffff1660e01b81526004016143f193929190615b0b565b60c060405180830381865afa15801561440e573d6000803e3d6000fd5b505050506040513d601f19601f820116820180604052508101906144329190615b2e565b9550955095509550955050600061446f868e6001600160a01b03166370a082318e6040518263ffffffff1660e01b81526004016109b29190614b97565b60405163671a11b560e01b81529091506001600160a01b037f0000000000000000000000000000000000000000000000000000000000000000169063671a11b5906144c89084908a908a908a908a908a90600401615ba2565b602060405180830381865afa1580156144e5573d6000803e3d6000fd5b505050506040513d601f19601f82011682018060405250810190614509919061568d565b96505050505050506000866001600160a01b03166370a08231306040518263ffffffff1660e01b815260040161453f9190614b97565b602060405180830381865afa15801561455c573d6000803e3d6000fd5b505050506040513d601f19601f82011682018060405250810190614580919061568d565b9050600080876001600160a01b0316630dfe16816040518163ffffffff1660e01b8152600401602060405180830381865afa1580156145c3573d6000803e3d6000fd5b505050506040513d601f19601f820116820180604052508101906145e79190615719565b6001600160a01b03168a6001600160a01b0316146146075783600061460b565b6000845b6040805160008152602081019182905263022c0d9f60e01b90915291935091506001600160a01b0389169063022c0d9f9061464f9085908590309060248101615bd6565b600060405180830381600087803b15801561466957600080fd5b505af115801561467d573d6000803e3d6000fd5b50505050600080516020615c6383398151915288858b6040516146a293929190615c26565b60405180910390a16146da838a6001600160a01b03166370a08231306040518263ffffffff1660e01b81526004016109b29190614b97565b9450858510156146fc5760405162461bcd60e51b81526004016105f9906156a6565b5050505095945050505050565b60008061471b89898989898989614744565b909250905061472c88338b85613213565b61473887338b84613213565b97509795505050505050565b6000806000807f00000000000000000000000000000000000000000000000000000000000000006001600160a01b031663327494618c8c8c6040518463ffffffff1660e01b815260040161479a93929190615b0b565b6040805180830381865afa1580156147b6573d6000803e3d6000fd5b505050506040513d601f19601f820116820180604052508101906147da91906159f3565b915091508160001480156147ec575080155b156147fc5787935086925061227b565b604051632b58577b60e21b81526000906001600160a01b037f0000000000000000000000000000000000000000000000000000000000000000169063ad615dec9061484f908c9087908790600401614b81565b602060405180830381865afa15801561486c573d6000803e3d6000fd5b505050506040513d601f19601f82011682018060405250810190614890919061568d565b90508781116148c457858110156148b95760405162461bcd60e51b81526004016105f990615a88565b889450925082613204565b604051632b58577b60e21b81526000906001600160a01b037f0000000000000000000000000000000000000000000000000000000000000000169063ad615dec90614917908c9087908990600401614b81565b602060405180830381865afa158015614934573d6000803e3d6000fd5b505050506040513d601f19601f82011682018060405250810190614958919061568d565b90508981111561496a5761496a614a0d565b8781101561498a5760405162461bcd60e51b81526004016105f990615a51565b9c979b50969950505050505050505050565b60006149ab84841115836149b7565b6000613e1e8486615764565b816138665762461bcd60e51b600090815260206004526007602452600a808304818104828106603090810160101b848706949093060160081b929092010166524551230000300160c81b60445261386691606490fd5b634e487b7160e01b600052600160045260246000fd5b6001600160a01b0381168114614a3857600080fd5b50565b8035613d1581614a23565b8015158114614a3857600080fd5b803560ff81168114613d1557600080fd5b60008060008060008060008060008060006101608c8e031215614a8757600080fd5b8b35614a9281614a23565b9a5060208c0135614aa281614a23565b995060408c0135985060608c0135975060808c0135965060a08c0135614ac781614a23565b955060c08c0135945060e08c0135614ade81614a46565b9350614aed6101008d01614a54565b92506101208c013591506101408c013590509295989b509295989b9093969950565b600080600080600080600060e0888a031215614b2a57600080fd5b8735614b3581614a23565b96506020880135614b4581614a23565b955060408801359450606088013593506080880135925060a0880135614b6a81614a23565b8092505060c0880135905092959891949750929550565b9283526020830191909152604082015260600190565b6001600160a01b0391909116815260200190565b6000806000806000806000806000806000806101808d8f031215614bce57600080fd5b8c35614bd981614a23565b9b5060208d0135614be981614a23565b9a5060408d0135614bf981614a23565b995060608d0135985060808d0135975060a08d0135965060c08d0135614c1e81614a23565b955060e08d013594506101008d0135614c3681614a46565b9350614c456101208e01614a54565b92506101408d013591506101608d013590509295989b509295989b509295989b565b60008083601f840112614c7957600080fd5b5081356001600160401b03811115614c9057600080fd5b6020830191508360208260051b8501011115614cab57600080fd5b9250929050565b600080600080600080600060c0888a031215614ccd57600080fd5b8735614cd881614a23565b9650602088013595506040880135945060608801356001600160401b03811115614d0157600080fd5b614d0d8a828b01614c67565b9095509350506080880135614d2181614a23565b8092505060a0880135905092959891949750929550565b60008060008060008060a08789031215614d5157600080fd5b8635614d5c81614a23565b95506020870135945060408701356001600160401b03811115614d7e57600080fd5b614d8a89828a01614c67565b9095509350506060870135614d9e81614a23565b80925050608087013590509295509295509295565b63ffffffff81168114614a3857600080fd5b600080600080600060a08688031215614ddd57600080fd5b8535614de881614a23565b9450602086013593506040860135614dff81614db3565b92506060860135614e0f81614db3565b91506080860135614e1f81614a23565b809150509295509295909350565b634e487b7160e01b600052604160045260246000fd5b604051608081016001600160401b0381118282101715614e6557614e65614e2d565b60405290565b60405160c081016001600160401b0381118282101715614e6557614e65614e2d565b604051601f8201601f191681016001600160401b0381118282101715614eb557614eb5614e2d565b604052919050565b60006001600160401b03821115614ed657614ed6614e2d565b5060051b60200190565b600082601f830112614ef157600080fd5b81356020614f06614f0183614ebd565b614e8d565b82815260079290921b84018101918181019086841115614f2557600080fd5b8286015b848110156121ee5760808189031215614f425760008081fd5b614f4a614e43565b614f5382614a54565b815284820135614f6281614a23565b81860152604082810135614f7581614a23565b90820152606082810135614f8881614a23565b90820152835291830191608001614f29565b600080600080600060a08688031215614fb257600080fd5b85356001600160401b03811115614fc857600080fd5b614fd488828901614ee0565b95505060208601359350604086013592506060860135614ff381614a23565b949793965091946080013592915050565b6020808252825182820181905260009190848201906040850190845b8181101561503c57835183529284019291840191600101615020565b50909695505050505050565b600082601f83011261505957600080fd5b81356020615069614f0183614ebd565b82815260059290921b8401810191818101908684111561508857600080fd5b8286015b848110156121ee5780356001600160401b038111156150ab5760008081fd5b8701603f810189136150bd5760008081fd5b8481013560406150cf614f0183614ebd565b82815260c0928302840182019288820191908d8511156150ef5760008081fd5b948301945b848610156151705780868f03121561510c5760008081fd5b615114614e6b565b863561511f81614a23565b8152868b013561512e81614a23565b818c01528685013561513f81614a23565b81860152606087810135908201526080808801359082015260a08088013590820152835294850194918901916150f4565b5087525050509284019250830161508c565b600080600080600060a0868803121561519a57600080fd5b85356001600160401b038111156151b057600080fd5b6151bc88828901615048565b95505060208601356151cd81614a23565b935060408601356151dd81614a23565b94979396509394606081013594506080013592915050565b6000806000806080858703121561520b57600080fd5b84356001600160401b0381111561522157600080fd5b61522d87828801614ee0565b94505060208501359250604085013561524581614a23565b9396929550929360600135925050565b60008060008060008060008060e0898b03121561527157600080fd5b883561527c81614a23565b9750602089013561528c81614a23565b9650604089013595506060890135945060808901356001600160401b038111156152b557600080fd5b6152c18b828c01614c67565b90955093505060a08901356152d581614a23565b8092505060c089013590509295985092959890939650565b600080600080600080600060e0888a03121561530857600080fd5b873561531381614a23565b965060208881013561532481614a23565b9650604089013595506060890135945060808901356001600160401b0381111561534d57600080fd5b8901601f81018b1361535e57600080fd5b803561536c614f0182614ebd565b81815260059190911b8201830190838101908d83111561538b57600080fd5b928401925b828410156153b25783356153a381614a23565b82529284019290840190615390565b80975050505050506153c660a08901614a3b565b915060c0880135905092959891949750929550565b60008060008060008060c087890312156153f457600080fd5b86356001600160401b0381111561540a57600080fd5b61541689828a01615048565b965050602087013561542781614a23565b9450604087013561543781614a23565b959894975094956060810135955060808101359460a0909101359350915050565b600080600080600080600060e0888a03121561547357600080fd5b873561547e81614a23565b9650602088013561548e81614a23565b9550604088013594506060880135935060808801356154ac81614db3565b925060a08801356154bc81614db3565b915060c08801356154cc81614a23565b8091505092959891949750929550565b600080600080600080600080610100898b0312156154f957600080fd5b883561550481614a23565b9750602089013561551481614a23565b9650604089013561552481614a23565b9550606089013594506080890135935060a0890135925060c089013561554981614a23565b8092505060e089013590509295985092959890939650565b60008060008060008060008060006101208a8c03121561558057600080fd5b893561558b81614a23565b985060208a013561559b81614a23565b975060408a01356155ab81614a23565b965060608a0135955060808a0135945060a08a0135935060c08a0135925060e08a01356155d781614a23565b809250506101008a013590509295985092959850929598565b6001600160a01b0397881681529590961660208601526040850193909352606084019190915260ff16608083015260a082015260c081019190915260e00190565b6020808252600f908201526e149bdd5d195c8e8811561412549151608a1b604082015260600190565b634e487b7160e01b600052603260045260246000fd5b60006020828403121561568257600080fd5b813561374e81614a23565b60006020828403121561569f57600080fd5b5051919050565b60208082526022908201527f526f757465723a20494e53554646494349454e545f4f55545055545f414d4f55604082015261139560f21b606082015260800190565b6001600160a01b03948516815292909316602083015263ffffffff9081166040830152909116606082015260800190565b60006020828403121561572b57600080fd5b815161374e81614a23565b634e487b7160e01b600052601160045260246000fd5b6000821982111561575f5761575f615736565b500190565b60008282101561577657615776615736565b500390565b6001600160a01b039384168152919092166020820152604081019190915260600190565b6000816157ae576157ae615736565b506000190190565b6020808252600f908201526e115610d154d4d2559157d253941555608a1b604082015260600190565b600060ff821660ff84168060ff038211156157fc576157fc615736565b019392505050565b6001600160a01b039586168152938516602085015260408401929092526060830152909116608082015260a00190565b600060ff821660ff81141561584b5761584b615736565b60010192915050565b600060a0820160018060a01b038089168452602081891681860152818816604086015286606086015260a0608086015282865180855260c087019150828801945060005b818110156158b6578551851683529483019491830191600101615898565b50909b9a5050505050505050505050565b600060208083850312156158da57600080fd5b82516001600160401b038111156158f057600080fd5b8301601f8101851361590157600080fd5b805161590f614f0182614ebd565b81815260059190911b8201830190838101908783111561592e57600080fd5b928401925b8284101561594c57835182529284019290840190615933565b979650505050505050565b6020808252601e908201527f526f757465723a204558434553534956455f494e5055545f414d4f554e540000604082015260600190565b60006000198214156159a2576159a2615736565b5060010190565b602080825260139082015272125394d551919250d251539517d3d555141555606a1b604082015260600190565b6000602082840312156159e857600080fd5b815161374e81614a46565b60008060408385031215615a0657600080fd5b505080516020909101519092909150565b60008060408385031215615a2a57600080fd5b8251615a3581614a23565b6020840151909250615a4681614a23565b809150509250929050565b6020808252601d908201527f526f757465723a20494e53554646494349454e545f415f414d4f554e54000000604082015260600190565b6020808252601d908201527f526f757465723a20494e53554646494349454e545f425f414d4f554e54000000604082015260600190565b60005b83811015615ada578181015183820152602001615ac2565b83811115615ae9576000848401525b50505050565b60008251615b01818460208701615abf565b9190910192915050565b6001600160a01b0393841681529183166020830152909116604082015260600190565b60008060008060008060c08789031215615b4757600080fd5b8651615b5281614a23565b8096505060208701519450604087015193506060870151615b7281614db3565b6080880151909350615b8381614db3565b60a0880151909250615b9481614db3565b809150509295509295509295565b9586526020860194909452604085019290925263ffffffff908116606085015290811660808401521660a082015260c00190565b84815283602082015260018060a01b03831660408201526080606082015260008251806080840152615c0f8160a0850160208701615abf565b601f01601f19169190910160a00195945050505050565b6001600160a01b0393841681526020810192909252909116604082015260600190565b6001600160a01b0392909216825260208201526040019056feddac40937f35385a34f721af292e5a83fc5b840f722bff57c2fc71adba708c48a26469706673582212205b3269feac14e5f9aea440ef1c9c16002e20d1ed133e9fd7e55104db758bc54964736f6c634300080a0033",
  "linkReferences": {},
  "deployedLinkReferences": {}
}