{
  "_format": "hh-sol-artifact-1",
  "contractName": "RequiemQRouter",
  "sourceName": "contracts/RequiemQRouter.sol",
  "abi": [
    {
      "inputs": [
        {
          "internalType": "address",
          "name": "_factory",
          "type": "address"
        },
        {
          "internalType": "address",
          "name": "_WETH",
          "type": "address"
        }
      ],
      "stateMutability": "nonpayable",
      "type": "constructor"
    },
    {
      "anonymous": false,
      "inputs": [
        {
          "indexed": false,
          "internalType": "address",
          "name": "pair",
          "type": "address"
        },
        {
          "indexed": false,
          "internalType": "uint256",
          "name": "amountOut",
          "type": "uint256"
        },
        {
          "indexed": false,
          "internalType": "address",
          "name": "output",
          "type": "address"
        }
      ],
      "name": "Exchange",
      "type": "event"
    },
    {
      "inputs": [],
      "name": "WETH",
      "outputs": [
        {
          "internalType": "address",
          "name": "",
          "type": "address"
        }
      ],
      "stateMutability": "view",
      "type": "function"
    },
    {
      "inputs": [],
      "name": "factory",
      "outputs": [
        {
          "internalType": "address",
          "name": "",
          "type": "address"
        }
      ],
      "stateMutability": "view",
      "type": "function"
    },
    {
      "inputs": [],
      "name": "formula",
      "outputs": [
        {
          "internalType": "address",
          "name": "",
          "type": "address"
        }
      ],
      "stateMutability": "view",
      "type": "function"
    },
    {
      "inputs": [
        {
          "components": [
            {
              "internalType": "address",
              "name": "pool",
              "type": "address"
            },
            {
              "internalType": "address",
              "name": "tokenIn",
              "type": "address"
            },
            {
              "internalType": "address",
              "name": "tokenOut",
              "type": "address"
            },
            {
              "internalType": "uint256",
              "name": "swapAmount",
              "type": "uint256"
            },
            {
              "internalType": "uint256",
              "name": "limitReturnAmount",
              "type": "uint256"
            },
            {
              "internalType": "uint256",
              "name": "maxPrice",
              "type": "uint256"
            }
          ],
          "internalType": "struct IRequiemQRouter.Swap[][]",
          "name": "swapSequences",
          "type": "tuple[][]"
        },
        {
          "internalType": "address",
          "name": "tokenIn",
          "type": "address"
        },
        {
          "internalType": "address",
          "name": "tokenOut",
          "type": "address"
        },
        {
          "internalType": "uint256",
          "name": "totalAmountIn",
          "type": "uint256"
        },
        {
          "internalType": "uint256",
          "name": "minTotalAmountOut",
          "type": "uint256"
        },
        {
          "internalType": "uint256",
          "name": "deadline",
          "type": "uint256"
        }
      ],
      "name": "multihopBatchSwapExactIn",
      "outputs": [
        {
          "internalType": "uint256",
          "name": "totalAmountOut",
          "type": "uint256"
        }
      ],
      "stateMutability": "payable",
      "type": "function"
    },
    {
      "inputs": [
        {
          "components": [
            {
              "internalType": "address",
              "name": "pool",
              "type": "address"
            },
            {
              "internalType": "address",
              "name": "tokenIn",
              "type": "address"
            },
            {
              "internalType": "address",
              "name": "tokenOut",
              "type": "address"
            },
            {
              "internalType": "uint256",
              "name": "swapAmount",
              "type": "uint256"
            },
            {
              "internalType": "uint256",
              "name": "limitReturnAmount",
              "type": "uint256"
            },
            {
              "internalType": "uint256",
              "name": "maxPrice",
              "type": "uint256"
            }
          ],
          "internalType": "struct IRequiemQRouter.Swap[][]",
          "name": "swapSequences",
          "type": "tuple[][]"
        },
        {
          "internalType": "address",
          "name": "tokenIn",
          "type": "address"
        },
        {
          "internalType": "address",
          "name": "tokenOut",
          "type": "address"
        },
        {
          "internalType": "uint256",
          "name": "maxTotalAmountIn",
          "type": "uint256"
        },
        {
          "internalType": "uint256",
          "name": "deadline",
          "type": "uint256"
        }
      ],
      "name": "multihopBatchSwapExactOut",
      "outputs": [
        {
          "internalType": "uint256",
          "name": "totalAmountIn",
          "type": "uint256"
        }
      ],
      "stateMutability": "payable",
      "type": "function"
    },
    {
      "inputs": [
        {
          "internalType": "address[]",
          "name": "pools",
          "type": "address[]"
        },
        {
          "internalType": "address[]",
          "name": "tokens",
          "type": "address[]"
        },
        {
          "internalType": "uint256",
          "name": "amountOut",
          "type": "uint256"
        },
        {
          "internalType": "address",
          "name": "to",
          "type": "address"
        },
        {
          "internalType": "uint256",
          "name": "deadline",
          "type": "uint256"
        }
      ],
      "name": "onSwapETHForExactTokens",
      "outputs": [
        {
          "internalType": "uint256[]",
          "name": "amounts",
          "type": "uint256[]"
        }
      ],
      "stateMutability": "payable",
      "type": "function"
    },
    {
      "inputs": [
        {
          "internalType": "address[]",
          "name": "pools",
          "type": "address[]"
        },
        {
          "internalType": "address[]",
          "name": "tokens",
          "type": "address[]"
        },
        {
          "internalType": "uint256",
          "name": "amountOutMin",
          "type": "uint256"
        },
        {
          "internalType": "address",
          "name": "to",
          "type": "address"
        },
        {
          "internalType": "uint256",
          "name": "deadline",
          "type": "uint256"
        }
      ],
      "name": "onSwapExactETHForTokens",
      "outputs": [
        {
          "internalType": "uint256",
          "name": "amountLast",
          "type": "uint256"
        }
      ],
      "stateMutability": "payable",
      "type": "function"
    },
    {
      "inputs": [
        {
          "internalType": "address[]",
          "name": "pools",
          "type": "address[]"
        },
        {
          "internalType": "address[]",
          "name": "tokens",
          "type": "address[]"
        },
        {
          "internalType": "uint256",
          "name": "amountIn",
          "type": "uint256"
        },
        {
          "internalType": "uint256",
          "name": "amountOutMin",
          "type": "uint256"
        },
        {
          "internalType": "address",
          "name": "to",
          "type": "address"
        },
        {
          "internalType": "uint256",
          "name": "deadline",
          "type": "uint256"
        }
      ],
      "name": "onSwapExactTokensForETH",
      "outputs": [
        {
          "internalType": "uint256",
          "name": "amountLast",
          "type": "uint256"
        }
      ],
      "stateMutability": "nonpayable",
      "type": "function"
    },
    {
      "inputs": [
        {
          "internalType": "address[]",
          "name": "pools",
          "type": "address[]"
        },
        {
          "internalType": "address[]",
          "name": "tokens",
          "type": "address[]"
        },
        {
          "internalType": "uint256",
          "name": "amountIn",
          "type": "uint256"
        },
        {
          "internalType": "uint256",
          "name": "amountOutMin",
          "type": "uint256"
        },
        {
          "internalType": "address",
          "name": "to",
          "type": "address"
        },
        {
          "internalType": "uint256",
          "name": "deadline",
          "type": "uint256"
        }
      ],
      "name": "onSwapExactTokensForTokens",
      "outputs": [
        {
          "internalType": "uint256",
          "name": "amountLast",
          "type": "uint256"
        }
      ],
      "stateMutability": "nonpayable",
      "type": "function"
    },
    {
      "inputs": [
        {
          "internalType": "address[]",
          "name": "pools",
          "type": "address[]"
        },
        {
          "internalType": "address[]",
          "name": "tokens",
          "type": "address[]"
        },
        {
          "internalType": "uint256",
          "name": "amountOut",
          "type": "uint256"
        },
        {
          "internalType": "uint256",
          "name": "amountInMax",
          "type": "uint256"
        },
        {
          "internalType": "address",
          "name": "to",
          "type": "address"
        },
        {
          "internalType": "uint256",
          "name": "deadline",
          "type": "uint256"
        }
      ],
      "name": "onSwapTokensForExactETH",
      "outputs": [
        {
          "internalType": "uint256[]",
          "name": "amounts",
          "type": "uint256[]"
        }
      ],
      "stateMutability": "nonpayable",
      "type": "function"
    },
    {
      "inputs": [
        {
          "internalType": "address[]",
          "name": "pools",
          "type": "address[]"
        },
        {
          "internalType": "address[]",
          "name": "tokens",
          "type": "address[]"
        },
        {
          "internalType": "uint256",
          "name": "amountOut",
          "type": "uint256"
        },
        {
          "internalType": "uint256",
          "name": "amountInMax",
          "type": "uint256"
        },
        {
          "internalType": "address",
          "name": "to",
          "type": "address"
        },
        {
          "internalType": "uint256",
          "name": "deadline",
          "type": "uint256"
        }
      ],
      "name": "onSwapTokensForExactTokens",
      "outputs": [
        {
          "internalType": "uint256[]",
          "name": "amounts",
          "type": "uint256[]"
        }
      ],
      "stateMutability": "nonpayable",
      "type": "function"
    },
    {
      "inputs": [
        {
          "internalType": "address",
          "name": "tokenOut",
          "type": "address"
        },
        {
          "internalType": "uint256",
          "name": "amountOut",
          "type": "uint256"
        },
        {
          "internalType": "address[]",
          "name": "path",
          "type": "address[]"
        },
        {
          "internalType": "address",
          "name": "to",
          "type": "address"
        },
        {
          "internalType": "uint256",
          "name": "deadline",
          "type": "uint256"
        }
      ],
      "name": "swapETHForExactTokens",
      "outputs": [
        {
          "internalType": "uint256[]",
          "name": "amounts",
          "type": "uint256[]"
        }
      ],
      "stateMutability": "payable",
      "type": "function"
    },
    {
      "inputs": [
        {
          "internalType": "address",
          "name": "tokenOut",
          "type": "address"
        },
        {
          "internalType": "uint256",
          "name": "amountOutMin",
          "type": "uint256"
        },
        {
          "internalType": "address[]",
          "name": "path",
          "type": "address[]"
        },
        {
          "internalType": "address",
          "name": "to",
          "type": "address"
        },
        {
          "internalType": "uint256",
          "name": "deadline",
          "type": "uint256"
        }
      ],
      "name": "swapExactETHForTokens",
      "outputs": [
        {
          "internalType": "uint256[]",
          "name": "amounts",
          "type": "uint256[]"
        }
      ],
      "stateMutability": "payable",
      "type": "function"
    },
    {
      "inputs": [
        {
          "internalType": "address",
          "name": "tokenOut",
          "type": "address"
        },
        {
          "internalType": "uint256",
          "name": "amountOutMin",
          "type": "uint256"
        },
        {
          "internalType": "address[]",
          "name": "path",
          "type": "address[]"
        },
        {
          "internalType": "address",
          "name": "to",
          "type": "address"
        },
        {
          "internalType": "uint256",
          "name": "deadline",
          "type": "uint256"
        }
      ],
      "name": "swapExactETHForTokensSupportingFeeOnTransferTokens",
      "outputs": [],
      "stateMutability": "payable",
      "type": "function"
    },
    {
      "inputs": [
        {
          "internalType": "address",
          "name": "tokenIn",
          "type": "address"
        },
        {
          "internalType": "uint256",
          "name": "amountIn",
          "type": "uint256"
        },
        {
          "internalType": "uint256",
          "name": "amountOutMin",
          "type": "uint256"
        },
        {
          "internalType": "address[]",
          "name": "path",
          "type": "address[]"
        },
        {
          "internalType": "address",
          "name": "to",
          "type": "address"
        },
        {
          "internalType": "uint256",
          "name": "deadline",
          "type": "uint256"
        }
      ],
      "name": "swapExactTokensForETH",
      "outputs": [
        {
          "internalType": "uint256[]",
          "name": "amounts",
          "type": "uint256[]"
        }
      ],
      "stateMutability": "nonpayable",
      "type": "function"
    },
    {
      "inputs": [
        {
          "internalType": "address",
          "name": "tokenIn",
          "type": "address"
        },
        {
          "internalType": "uint256",
          "name": "amountIn",
          "type": "uint256"
        },
        {
          "internalType": "uint256",
          "name": "amountOutMin",
          "type": "uint256"
        },
        {
          "internalType": "address[]",
          "name": "path",
          "type": "address[]"
        },
        {
          "internalType": "address",
          "name": "to",
          "type": "address"
        },
        {
          "internalType": "uint256",
          "name": "deadline",
          "type": "uint256"
        }
      ],
      "name": "swapExactTokensForETHSupportingFeeOnTransferTokens",
      "outputs": [],
      "stateMutability": "nonpayable",
      "type": "function"
    },
    {
      "inputs": [
        {
          "internalType": "address",
          "name": "tokenIn",
          "type": "address"
        },
        {
          "internalType": "address",
          "name": "tokenOut",
          "type": "address"
        },
        {
          "internalType": "uint256",
          "name": "amountIn",
          "type": "uint256"
        },
        {
          "internalType": "uint256",
          "name": "amountOutMin",
          "type": "uint256"
        },
        {
          "internalType": "address[]",
          "name": "path",
          "type": "address[]"
        },
        {
          "internalType": "address",
          "name": "to",
          "type": "address"
        },
        {
          "internalType": "uint256",
          "name": "deadline",
          "type": "uint256"
        }
      ],
      "name": "swapExactTokensForTokens",
      "outputs": [
        {
          "internalType": "uint256[]",
          "name": "amounts",
          "type": "uint256[]"
        }
      ],
      "stateMutability": "nonpayable",
      "type": "function"
    },
    {
      "inputs": [
        {
          "internalType": "address",
          "name": "tokenIn",
          "type": "address"
        },
        {
          "internalType": "address",
          "name": "tokenOut",
          "type": "address"
        },
        {
          "internalType": "uint256",
          "name": "amountIn",
          "type": "uint256"
        },
        {
          "internalType": "uint256",
          "name": "amountOutMin",
          "type": "uint256"
        },
        {
          "internalType": "address[]",
          "name": "path",
          "type": "address[]"
        },
        {
          "internalType": "address",
          "name": "to",
          "type": "address"
        },
        {
          "internalType": "uint256",
          "name": "deadline",
          "type": "uint256"
        }
      ],
      "name": "swapExactTokensForTokensSupportingFeeOnTransferTokens",
      "outputs": [],
      "stateMutability": "nonpayable",
      "type": "function"
    },
    {
      "inputs": [
        {
          "internalType": "address",
          "name": "tokenIn",
          "type": "address"
        },
        {
          "internalType": "uint256",
          "name": "amountOut",
          "type": "uint256"
        },
        {
          "internalType": "uint256",
          "name": "amountInMax",
          "type": "uint256"
        },
        {
          "internalType": "address[]",
          "name": "path",
          "type": "address[]"
        },
        {
          "internalType": "address",
          "name": "to",
          "type": "address"
        },
        {
          "internalType": "uint256",
          "name": "deadline",
          "type": "uint256"
        }
      ],
      "name": "swapTokensForExactETH",
      "outputs": [
        {
          "internalType": "uint256[]",
          "name": "amounts",
          "type": "uint256[]"
        }
      ],
      "stateMutability": "nonpayable",
      "type": "function"
    },
    {
      "inputs": [
        {
          "internalType": "address",
          "name": "tokenIn",
          "type": "address"
        },
        {
          "internalType": "address",
          "name": "tokenOut",
          "type": "address"
        },
        {
          "internalType": "uint256",
          "name": "amountOut",
          "type": "uint256"
        },
        {
          "internalType": "uint256",
          "name": "amountInMax",
          "type": "uint256"
        },
        {
          "internalType": "address[]",
          "name": "path",
          "type": "address[]"
        },
        {
          "internalType": "address",
          "name": "to",
          "type": "address"
        },
        {
          "internalType": "uint256",
          "name": "deadline",
          "type": "uint256"
        }
      ],
      "name": "swapTokensForExactTokens",
      "outputs": [
        {
          "internalType": "uint256[]",
          "name": "amounts",
          "type": "uint256[]"
        }
      ],
      "stateMutability": "nonpayable",
      "type": "function"
    },
    {
      "stateMutability": "payable",
      "type": "receive"
    }
  ],
  "bytecode": "0x60e06040523480156200001157600080fd5b5060405162005d6438038062005d648339810160408190526200003491620000db565b6001600160a01b038216608081905260408051634b75f54f60e01b81529051634b75f54f916004808201926020929091908290030181865afa1580156200007f573d6000803e3d6000fd5b505050506040513d601f19601f82011682018060405250810190620000a5919062000113565b6001600160a01b0390811660a0521660c0525062000138565b80516001600160a01b0381168114620000d657600080fd5b919050565b60008060408385031215620000ef57600080fd5b620000fa83620000be565b91506200010a60208401620000be565b90509250929050565b6000602082840312156200012657600080fd5b6200013182620000be565b9392505050565b60805160a05160c051615b386200022c600039600081816101800152818161032f0152818161121b0152818161148e01528181611b1b0152818161241e015281816124b1015281816130900152818161315c015281816131d401528181613231015281816132f901528181613b5801528181613c24015261414901526000818161021001528181611800015281816136620152818161385201528181613d4401528181614267015281816146f7015281816148cc0152614a410152600081816103b60152818161183c0152818161369e01528181613d71015281816142940152818161472401526148870152615b386000f3fe6080604052600436106101635760003560e01c8063ad5c4648116100c0578063ce81963211610074578063f35aaf6311610059578063f35aaf631461040b578063fa3219d51461042b578063fde1adda1461044b57600080fd5b8063ce819632146103d8578063d59e44ee146103eb57600080fd5b8063b4e819fd116100a5578063b4e819fd14610364578063bff51d7114610384578063c45a0155146103a457600080fd5b8063ad5c46481461031d578063b05f579e1461035157600080fd5b8063674ee80b116101175780639c91fcb5116100fc5780639c91fcb5146102bd578063a67d0e3c146102dd578063abbfddc5146102fd57600080fd5b8063674ee80b14610297578063840c34d0146102aa57600080fd5b80634b75f54f116101485780634b75f54f146101fe57806351bf1830146102575780635cae03101461027757600080fd5b806308c820da146101b45780630d1424a3146101dd57600080fd5b366101af573373ffffffffffffffffffffffffffffffffffffffff7f000000000000000000000000000000000000000000000000000000000000000016146101ad576101ad614faa565b005b600080fd5b6101c76101c2366004615132565b61045e565b6040516101d491906151ba565b60405180910390f35b6101f06101eb366004615132565b610994565b6040519081526020016101d4565b34801561020a57600080fd5b506102327f000000000000000000000000000000000000000000000000000000000000000081565b60405173ffffffffffffffffffffffffffffffffffffffff90911681526020016101d4565b34801561026357600080fd5b506101c76102723660046151fe565b610c10565b34801561028357600080fd5b506101ad6102923660046152de565b61110d565b6101ad6102a5366004615365565b611358565b6101f06102b836600461551c565b61161f565b3480156102c957600080fd5b506101c76102d83660046152de565b611aa8565b3480156102e957600080fd5b506101ad6102f8366004615590565b611c49565b34801561030957600080fd5b506101c76103183660046151fe565b611ecd565b34801561032957600080fd5b506102327f000000000000000000000000000000000000000000000000000000000000000081565b6101c761035f366004615365565b6123ac565b34801561037057600080fd5b506101f061037f3660046151fe565b612550565b34801561039057600080fd5b506101c761039f366004615629565b6127f5565b3480156103b057600080fd5b506102327f000000000000000000000000000000000000000000000000000000000000000081565b6101f06103e63660046156bd565b6128a1565b3480156103f757600080fd5b506101c7610406366004615590565b612c6f565b34801561041757600080fd5b506101f06104263660046151fe565b612d83565b34801561043757600080fd5b506101c76104463660046152de565b61301d565b6101c7610459366004615365565b6130ea565b606081428110156104d0576040517f08c379a000000000000000000000000000000000000000000000000000000000815260206004820152600f60248201527f526f757465723a2045585049524544000000000000000000000000000000000060448201526064015b60405180910390fd5b855167ffffffffffffffff8111156104ea576104ea614fd9565b604051908082528060200260200182016040528015610513578160200160208202803683370190505b509150848288518151811061052a5761052a61573b565b6020026020010181815250506000600183516105469190615799565b90505b80156106bf578761055b600183615799565b8151811061056b5761056b61573b565b602002602001015173ffffffffffffffffffffffffffffffffffffffff1663cc56fd438860018461059c9190615799565b815181106105ac576105ac61573b565b60200260200101518984815181106105c6576105c661573b565b60200260200101518685815181106105e0576105e061573b565b60209081029190910101516040517fffffffff0000000000000000000000000000000000000000000000000000000060e086901b16815273ffffffffffffffffffffffffffffffffffffffff93841660048201529290911660248301526044820152606401602060405180830381865afa158015610662573d6000803e3d6000fd5b505050506040513d601f19601f8201168201806040525081019061068691906157b0565b83610692600184615799565b815181106106a2576106a261573b565b6020908102919091010152806106b7816157c9565b915050610549565b5034826000815181106106d4576106d461573b565b60200260200101511115610744576040517f08c379a000000000000000000000000000000000000000000000000000000000815260206004820152600f60248201527f4558434553534956455f494e505554000000000000000000000000000000000060448201526064016104c7565b6107828260008151811061075a5761075a61573b565b6020026020010151886000815181106107755761077561573b565b602002602001015161322f565b60005b87518110156109385760006001895161079e9190615799565b82146107cd57886107b08360016157fe565b815181106107c0576107c061573b565b60200260200101516107cf565b855b90508882815181106107e3576107e361573b565b602002602001015173ffffffffffffffffffffffffffffffffffffffff166332fd54938984815181106108185761081861573b565b60200260200101518a85600161082e91906157fe565b8151811061083e5761083e61573b565b60200260200101518786815181106108585761085861573b565b60200260200101518887600161086e91906157fe565b8151811061087e5761087e61573b565b60209081029190910101516040517fffffffff0000000000000000000000000000000000000000000000000000000060e087901b16815273ffffffffffffffffffffffffffffffffffffffff9485166004820152928416602484015260448301919091526064820152908416608482015260a401600060405180830381600087803b15801561090c57600080fd5b505af1158015610920573d6000803e3d6000fd5b5050505050808061093090615816565b915050610785565b508160008151811061094c5761094c61573b565b602002602001015134111561098a5761098a33836000815181106109725761097261573b565b6020026020010151346109859190615799565b61337a565b5095945050505050565b60008142811015610a01576040517f08c379a000000000000000000000000000000000000000000000000000000000815260206004820152600f60248201527f526f757465723a2045585049524544000000000000000000000000000000000060448201526064016104c7565b349150610a1b34886000815181106107755761077561573b565b60005b8751811015610ba557600060018951610a379190615799565b8214610a665788610a498360016157fe565b81518110610a5957610a5961573b565b6020026020010151610a68565b855b9050888281518110610a7c57610a7c61573b565b602002602001015173ffffffffffffffffffffffffffffffffffffffff16634ac00e03898481518110610ab157610ab161573b565b60200260200101518a856001610ac791906157fe565b81518110610ad757610ad761573b565b60209081029190910101516040517fffffffff0000000000000000000000000000000000000000000000000000000060e085901b16815273ffffffffffffffffffffffffffffffffffffffff928316600482015290821660248201526044810188905260006064820152908416608482015260a4016020604051808303816000875af1158015610b6b573d6000803e3d6000fd5b505050506040513d601f19601f82011682018060405250810190610b8f91906157b0565b9350508080610b9d90615816565b915050610a1e565b508185111561098a576040517f08c379a000000000000000000000000000000000000000000000000000000000815260206004820152601360248201527f494e53554646494349454e545f4f55545055540000000000000000000000000060448201526064016104c7565b60608142811015610c7d576040517f08c379a000000000000000000000000000000000000000000000000000000000815260206004820152600f60248201527f526f757465723a2045585049524544000000000000000000000000000000000060448201526064016104c7565b865167ffffffffffffffff811115610c9757610c97614fd9565b604051908082528060200260200182016040528015610cc0578160200160208202803683370190505b5091508582895181518110610cd757610cd761573b565b602002602001018181525050600060018351610cf39190615799565b90505b8015610e6c5788610d08600183615799565b81518110610d1857610d1861573b565b602002602001015173ffffffffffffffffffffffffffffffffffffffff1663cc56fd4389600184610d499190615799565b81518110610d5957610d5961573b565b60200260200101518a8481518110610d7357610d7361573b565b6020026020010151868581518110610d8d57610d8d61573b565b60209081029190910101516040517fffffffff0000000000000000000000000000000000000000000000000000000060e086901b16815273ffffffffffffffffffffffffffffffffffffffff93841660048201529290911660248301526044820152606401602060405180830381865afa158015610e0f573d6000803e3d6000fd5b505050506040513d601f19601f82011682018060405250810190610e3391906157b0565b83610e3f600184615799565b81518110610e4f57610e4f61573b565b602090810291909101015280610e64816157c9565b915050610cf6565b508482600081518110610e8157610e8161573b565b60200260200101511115610ef1576040517f08c379a000000000000000000000000000000000000000000000000000000000815260206004820152600f60248201527f4558434553534956455f494e505554000000000000000000000000000000000060448201526064016104c7565b610f4b87600081518110610f0757610f0761573b565b6020026020010151338a600081518110610f2357610f2361573b565b602002602001015185600081518110610f3e57610f3e61573b565b6020026020010151613489565b60005b885181101561110157600060018a51610f679190615799565b8214610f965789610f798360016157fe565b81518110610f8957610f8961573b565b6020026020010151610f98565b855b9050898281518110610fac57610fac61573b565b602002602001015173ffffffffffffffffffffffffffffffffffffffff166332fd54938a8481518110610fe157610fe161573b565b60200260200101518b856001610ff791906157fe565b815181106110075761100761573b565b60200260200101518786815181106110215761102161573b565b60200260200101518887600161103791906157fe565b815181106110475761104761573b565b60209081029190910101516040517fffffffff0000000000000000000000000000000000000000000000000000000060e087901b16815273ffffffffffffffffffffffffffffffffffffffff9485166004820152928416602484015260448301919091526064820152908416608482015260a401600060405180830381600087803b1580156110d557600080fd5b505af11580156110e9573d6000803e3d6000fd5b505050505080806110f990615816565b915050610f4e565b50509695505050505050565b8042811015611178576040517f08c379a000000000000000000000000000000000000000000000000000000000815260206004820152600f60248201527f526f757465723a2045585049524544000000000000000000000000000000000060448201526064016104c7565b6111ab8833878760008181106111905761119061573b565b90506020020160208101906111a5919061584f565b8a613489565b6111ea88868680806020026020016040519081016040528093929190818152602001838360200280828437600092019190915250309250613627915050565b6040517f70a082310000000000000000000000000000000000000000000000000000000081523060048201526000907f000000000000000000000000000000000000000000000000000000000000000073ffffffffffffffffffffffffffffffffffffffff16906370a0823190602401602060405180830381865afa158015611277573d6000803e3d6000fd5b505050506040513d601f19601f8201168201806040525081019061129b91906157b0565b90508681101561132d576040517f08c379a000000000000000000000000000000000000000000000000000000000815260206004820152602260248201527f526f757465723a20494e53554646494349454e545f4f55545055545f414d4f5560448201527f4e5400000000000000000000000000000000000000000000000000000000000060648201526084016104c7565b61134c73eeeeeeeeeeeeeeeeeeeeeeeeeeeeeeeeeeeeeeee8583613ae8565b50505050505050505050565b80428110156113c3576040517f08c379a000000000000000000000000000000000000000000000000000000000815260206004820152600f60248201527f526f757465723a2045585049524544000000000000000000000000000000000060448201526064016104c7565b346113f38187876000816113d9576113d961573b565b90506020020160208101906113ee919061584f565b61322f565b6040517f70a0823100000000000000000000000000000000000000000000000000000000815273ffffffffffffffffffffffffffffffffffffffff8581166004830152600091908a16906370a0823190602401602060405180830381865afa158015611463573d6000803e3d6000fd5b505050506040513d601f19601f8201168201806040525081019061148791906157b0565b90506114e87f00000000000000000000000000000000000000000000000000000000000000008888808060200260200160405190810160405280939291908181526020018383602002808284376000920191909152508a9250613627915050565b6040517f70a0823100000000000000000000000000000000000000000000000000000000815273ffffffffffffffffffffffffffffffffffffffff8681166004830152899183918c16906370a0823190602401602060405180830381865afa158015611558573d6000803e3d6000fd5b505050506040513d601f19601f8201168201806040525081019061157c91906157b0565b6115869190615799565b1015611614576040517f08c379a000000000000000000000000000000000000000000000000000000000815260206004820152602260248201527f526f757465723a20494e53554646494349454e545f4f55545055545f414d4f5560448201527f4e5400000000000000000000000000000000000000000000000000000000000060648201526084016104c7565b505050505050505050565b6000814281101561168c576040517f08c379a000000000000000000000000000000000000000000000000000000000815260206004820152600f60248201527f526f757465723a2045585049524544000000000000000000000000000000000060448201526064016104c7565b6116968685613bee565b5060005b8751811015611a105760008882815181106116b7576116b761573b565b602002602001015151600114156117295760008983815181106116dc576116dc61573b565b60200260200101516000815181106116f6576116f661573b565b6020026020010151905061172181602001518260400151836000015184606001518560800151613cbd565b9150506119f0565b6000808a848151811061173e5761173e61573b565b60200260200101516001815181106117585761175861573b565b602002602001015190506000600167ffffffffffffffff81111561177e5761177e614fd9565b6040519080825280602002602001820160405280156117a7578160200160208202803683370190505b5090508160000151816000815181106117c2576117c261573b565b602002602001019073ffffffffffffffffffffffffffffffffffffffff16908173ffffffffffffffffffffffffffffffffffffffff168152505060007f000000000000000000000000000000000000000000000000000000000000000073ffffffffffffffffffffffffffffffffffffffff166367f84adc7f0000000000000000000000000000000000000000000000000000000000000000856020015186604001518760600151876040518663ffffffff1660e01b815260040161188b95949392919061586c565b600060405180830381865afa1580156118a8573d6000803e3d6000fd5b505050506040513d6000823e601f3d9081017fffffffffffffffffffffffffffffffffffffffffffffffffffffffffffffffe01682016040526118ee91908101906158ed565b9050806000815181106119035761190361573b565b60200260200101519350826080015184111561197b576040517f08c379a000000000000000000000000000000000000000000000000000000000815260206004820152601e60248201527f526f757465723a204558434553534956455f494e5055545f414d4f554e54000060448201526064016104c7565b505060008b85815181106119915761199161573b565b60200260200101516000815181106119ab576119ab61573b565b602002602001015190506119d2816020015182604001518360000151868560800151613cbd565b93506119ec82602001518360000151858560600151613eaf565b5050505b6119fa81856157fe565b9350508080611a0890615816565b91505061169a565b5083821115611a7b576040517f08c379a000000000000000000000000000000000000000000000000000000000815260206004820152600c60248201527f4552525f4c494d49545f494e000000000000000000000000000000000000000060448201526064016104c7565b611a8e8533611a89886140e7565b613ae8565b50611a9d8633611a89896140e7565b505095945050505050565b60608142811015611b15576040517f08c379a000000000000000000000000000000000000000000000000000000000815260206004820152600f60248201527f526f757465723a2045585049524544000000000000000000000000000000000060448201526064016104c7565b611b75897f00000000000000000000000000000000000000000000000000000000000000008a8a8a8a8080602002602001604051908101604052809392919081815260200183836020028082843760009201919091525061422792505050565b9150611bb7893388886000818110611b8f57611b8f61573b565b9050602002016020810190611ba4919061584f565b85600081518110610f3e57610f3e61573b565b611bf789838888808060200260200160405190810160405280939291908181526020018383602002808284376000920191909152503092506143e8915050565b611c3c73eeeeeeeeeeeeeeeeeeeeeeeeeeeeeeeeeeeeeeee858460018651611c1f9190615799565b81518110611c2f57611c2f61573b565b6020026020010151613ae8565b5050979650505050505050565b8042811015611cb4576040517f08c379a000000000000000000000000000000000000000000000000000000000815260206004820152600f60248201527f526f757465723a2045585049524544000000000000000000000000000000000060448201526064016104c7565b611ccc8933878760008181106111905761119061573b565b6040517f70a0823100000000000000000000000000000000000000000000000000000000815273ffffffffffffffffffffffffffffffffffffffff8481166004830152600091908a16906370a0823190602401602060405180830381865afa158015611d3c573d6000803e3d6000fd5b505050506040513d601f19601f82011682018060405250810190611d6091906157b0565b9050611da18a878780806020026020016040519081016040528093929190818152602001838360200280828437600092019190915250899250613627915050565b6040517f70a0823100000000000000000000000000000000000000000000000000000000815273ffffffffffffffffffffffffffffffffffffffff8581166004830152889183918c16906370a0823190602401602060405180830381865afa158015611e11573d6000803e3d6000fd5b505050506040513d601f19601f82011682018060405250810190611e3591906157b0565b611e3f9190615799565b101561134c576040517f08c379a000000000000000000000000000000000000000000000000000000000815260206004820152602260248201527f526f757465723a20494e53554646494349454e545f4f55545055545f414d4f5560448201527f4e5400000000000000000000000000000000000000000000000000000000000060648201526084016104c7565b60608142811015611f3a576040517f08c379a000000000000000000000000000000000000000000000000000000000815260206004820152600f60248201527f526f757465723a2045585049524544000000000000000000000000000000000060448201526064016104c7565b865167ffffffffffffffff811115611f5457611f54614fd9565b604051908082528060200260200182016040528015611f7d578160200160208202803683370190505b5091508582895181518110611f9457611f9461573b565b602002602001018181525050600060018351611fb09190615799565b90505b80156121295788611fc5600183615799565b81518110611fd557611fd561573b565b602002602001015173ffffffffffffffffffffffffffffffffffffffff1663cc56fd43896001846120069190615799565b815181106120165761201661573b565b60200260200101518a84815181106120305761203061573b565b602002602001015186858151811061204a5761204a61573b565b60209081029190910101516040517fffffffff0000000000000000000000000000000000000000000000000000000060e086901b16815273ffffffffffffffffffffffffffffffffffffffff93841660048201529290911660248301526044820152606401602060405180830381865afa1580156120cc573d6000803e3d6000fd5b505050506040513d601f19601f820116820180604052508101906120f091906157b0565b836120fc600184615799565b8151811061210c5761210c61573b565b602090810291909101015280612121816157c9565b915050611fb3565b50848260008151811061213e5761213e61573b565b602002602001015111156121ae576040517f08c379a000000000000000000000000000000000000000000000000000000000815260206004820152600f60248201527f4558434553534956455f494e505554000000000000000000000000000000000060448201526064016104c7565b6121c487600081518110610f0757610f0761573b565b60005b885181101561238c57600060018a516121e09190615799565b821461220f57896121f28360016157fe565b815181106122025761220261573b565b6020026020010151612211565b305b90508982815181106122255761222561573b565b602002602001015173ffffffffffffffffffffffffffffffffffffffff16634ac00e038a848151811061225a5761225a61573b565b60200260200101518b85600161227091906157fe565b815181106122805761228061573b565b602002602001015187868151811061229a5761229a61573b565b6020026020010151888760016122b091906157fe565b815181106122c0576122c061573b565b60209081029190910101516040517fffffffff0000000000000000000000000000000000000000000000000000000060e087901b16815273ffffffffffffffffffffffffffffffffffffffff9485166004820152928416602484015260448301919091526064820152908416608482015260a4016020604051808303816000875af1158015612353573d6000803e3d6000fd5b505050506040513d601f19601f8201168201806040525081019061237791906157b0565b5050808061238490615816565b9150506121c7565b5061110173eeeeeeeeeeeeeeeeeeeeeeeeeeeeeeeeeeeeeeee8588613ae8565b60608142811015612419576040517f08c379a000000000000000000000000000000000000000000000000000000000815260206004820152600f60248201527f526f757465723a2045585049524544000000000000000000000000000000000060448201526064016104c7565b6124797f00000000000000000000000000000000000000000000000000000000000000008989348a8a808060200260200160405190810160405280939291908181526020018383602002808284376000920191909152506146b792505050565b91506124ac826000815181106124915761249161573b565b6020026020010151878760008181106113d9576113d961573b565b61250c7f0000000000000000000000000000000000000000000000000000000000000000838888808060200260200160405190810160405280939291908181526020018383602002808284376000920191909152508a92506143e8915050565b8160008151811061251f5761251f61573b565b60200260200101513411156125455761254533836000815181106109725761097261573b565b509695505050505050565b600081428110156125bd576040517f08c379a000000000000000000000000000000000000000000000000000000000815260206004820152600f60248201527f526f757465723a2045585049524544000000000000000000000000000000000060448201526064016104c7565b859150612600876000815181106125d6576125d661573b565b6020026020010151338a6000815181106125f2576125f261573b565b602002602001015189613489565b60005b885181101561278a57600060018a5161261c9190615799565b821461264b578961262e8360016157fe565b8151811061263e5761263e61573b565b602002602001015161264d565b855b90508982815181106126615761266161573b565b602002602001015173ffffffffffffffffffffffffffffffffffffffff16634ac00e038a84815181106126965761269661573b565b60200260200101518b8560016126ac91906157fe565b815181106126bc576126bc61573b565b60209081029190910101516040517fffffffff0000000000000000000000000000000000000000000000000000000060e085901b16815273ffffffffffffffffffffffffffffffffffffffff928316600482015290821660248201526044810188905260006064820152908416608482015260a4016020604051808303816000875af1158015612750573d6000803e3d6000fd5b505050506040513d601f19601f8201168201806040525081019061277491906157b0565b935050808061278290615816565b915050612603565b5081851115612545576040517f08c379a000000000000000000000000000000000000000000000000000000000815260206004820152601360248201527f494e53554646494349454e545f4f55545055540000000000000000000000000060448201526064016104c7565b60608142811015612862576040517f08c379a000000000000000000000000000000000000000000000000000000000815260206004820152600f60248201527f526f757465723a2045585049524544000000000000000000000000000000000060448201526064016104c7565b61286f8989898989614227565b9150612889893387600081518110610f2357610f2361573b565b612895898387876143e8565b50979650505050505050565b6000814281101561290e576040517f08c379a000000000000000000000000000000000000000000000000000000000815260206004820152600f60248201527f526f757465723a2045585049524544000000000000000000000000000000000060448201526064016104c7565b6129188786613bee565b50600073eeeeeeeeeeeeeeeeeeeeeeeeeeeeeeeeeeeeeeee73ffffffffffffffffffffffffffffffffffffffff8816146129dd576040517f70a0823100000000000000000000000000000000000000000000000000000000815233600482015273ffffffffffffffffffffffffffffffffffffffff8816906370a0823190602401602060405180830381865afa1580156129b6573d6000803e3d6000fd5b505050506040513d601f19601f820116820180604052508101906129da91906157b0565b90505b60005b8951811015612aae576000805b8b83815181106129ff576129ff61573b565b602002602001015151811015612a8e5760008c8481518110612a2357612a2361573b565b60200260200101518281518110612a3c57612a3c61573b565b602002602001015190506000821115612a5757606081018390525b612a788160200151826040015183600001518460600151856080015161483d565b9250508080612a8690615816565b9150506129ed565b50612a9985826157fe565b50819050612aa681615816565b9150506129e0565b50612aba873385613ae8565b50612ac98833611a898b6140e7565b5073eeeeeeeeeeeeeeeeeeeeeeeeeeeeeeeeeeeeeeee73ffffffffffffffffffffffffffffffffffffffff88161415612b6b5784831015612b66576040517f08c379a000000000000000000000000000000000000000000000000000000000815260206004820152600d60248201527f4552525f4c494d49545f4f55540000000000000000000000000000000000000060448201526064016104c7565b611101565b6040517f70a082310000000000000000000000000000000000000000000000000000000081523360048201528590829073ffffffffffffffffffffffffffffffffffffffff8a16906370a0823190602401602060405180830381865afa158015612bd9573d6000803e3d6000fd5b505050506040513d601f19601f82011682018060405250810190612bfd91906157b0565b612c079190615799565b1015611101576040517f08c379a000000000000000000000000000000000000000000000000000000000815260206004820152601260248201527f3c6d696e546f74616c416d6f756e744f7574000000000000000000000000000060448201526064016104c7565b60608142811015612cdc576040517f08c379a000000000000000000000000000000000000000000000000000000000815260206004820152600f60248201527f526f757465723a2045585049524544000000000000000000000000000000000060448201526064016104c7565b612d1c8a8a8a8a8a8a808060200260200160405190810160405280939291908181526020018383602002808284376000920191909152506146b792505050565b9150612d368a3388886000818110611b8f57611b8f61573b565b612d768a838888808060200260200160405190810160405280939291908181526020018383602002808284376000920191909152508a92506143e8915050565b5098975050505050505050565b60008142811015612df0576040517f08c379a000000000000000000000000000000000000000000000000000000000815260206004820152600f60248201527f526f757465723a2045585049524544000000000000000000000000000000000060448201526064016104c7565b859150612e09876000815181106125d6576125d661573b565b60005b8851811015612f9357600060018a51612e259190615799565b8214612e545789612e378360016157fe565b81518110612e4757612e4761573b565b6020026020010151612e56565b305b9050898281518110612e6a57612e6a61573b565b602002602001015173ffffffffffffffffffffffffffffffffffffffff16634ac00e038a8481518110612e9f57612e9f61573b565b60200260200101518b856001612eb591906157fe565b81518110612ec557612ec561573b565b60209081029190910101516040517fffffffff0000000000000000000000000000000000000000000000000000000060e085901b16815273ffffffffffffffffffffffffffffffffffffffff928316600482015290821660248201526044810188905260006064820152908416608482015260a4016020604051808303816000875af1158015612f59573d6000803e3d6000fd5b505050506040513d601f19601f82011682018060405250810190612f7d91906157b0565b9350508080612f8b90615816565b915050612e0c565b5081851115612ffe576040517f08c379a000000000000000000000000000000000000000000000000000000000815260206004820152601360248201527f494e53554646494349454e545f4f55545055540000000000000000000000000060448201526064016104c7565b61110173eeeeeeeeeeeeeeeeeeeeeeeeeeeeeeeeeeeeeeee8584613ae8565b6060814281101561308a576040517f08c379a000000000000000000000000000000000000000000000000000000000815260206004820152600f60248201527f526f757465723a2045585049524544000000000000000000000000000000000060448201526064016104c7565b611b75897f00000000000000000000000000000000000000000000000000000000000000008a8a8a8a808060200260200160405190810160405280939291908181526020018383602002808284376000920191909152506146b792505050565b60608142811015613157576040517f08c379a000000000000000000000000000000000000000000000000000000000815260206004820152600f60248201527f526f757465723a2045585049524544000000000000000000000000000000000060448201526064016104c7565b6131b77f000000000000000000000000000000000000000000000000000000000000000089348a8a8a8080602002602001604051908101604052809392919081815260200183836020028082843760009201919091525061422792505050565b91506131cf826000815181106124915761249161573b565b6125457f0000000000000000000000000000000000000000000000000000000000000000838888808060200260200160405190810160405280939291908181526020018383602002808284376000920191909152508a92506143e8915050565b7f000000000000000000000000000000000000000000000000000000000000000073ffffffffffffffffffffffffffffffffffffffff1663d0e30db0836040518263ffffffff1660e01b81526004016000604051808303818588803b15801561329757600080fd5b505af11580156132ab573d6000803e3d6000fd5b50506040517fa9059cbb00000000000000000000000000000000000000000000000000000000815273ffffffffffffffffffffffffffffffffffffffff8581166004830152602482018790527f000000000000000000000000000000000000000000000000000000000000000016935063a9059cbb925060440190506020604051808303816000875af1158015613346573d6000803e3d6000fd5b505050506040513d601f19601f8201168201806040525081019061336a919061597e565b61337657613376614faa565b5050565b6040805160008082526020820190925273ffffffffffffffffffffffffffffffffffffffff84169083906040516133b191906159d0565b60006040518083038185875af1925050503d80600081146133ee576040519150601f19603f3d011682016040523d82523d6000602084013e6133f3565b606091505b5050905080613484576040517f08c379a000000000000000000000000000000000000000000000000000000000815260206004820152602360248201527f5472616e7366657248656c7065723a204554485f5452414e534645525f46414960448201527f4c4544000000000000000000000000000000000000000000000000000000000060648201526084016104c7565b505050565b6040805173ffffffffffffffffffffffffffffffffffffffff85811660248301528481166044830152606480830185905283518084039091018152608490920183526020820180517bffffffffffffffffffffffffffffffffffffffffffffffffffffffff167f23b872dd00000000000000000000000000000000000000000000000000000000179052915160009283929088169161352891906159d0565b6000604051808303816000865af19150503d8060008114613565576040519150601f19603f3d011682016040523d82523d6000602084013e61356a565b606091505b5091509150818015613594575080511580613594575080806020019051810190613594919061597e565b61361f576040517f08c379a0000000000000000000000000000000000000000000000000000000008152602060048201526024808201527f5472616e7366657248656c7065723a205452414e534645525f46524f4d5f464160448201527f494c45440000000000000000000000000000000000000000000000000000000060648201526084016104c7565b505050505050565b8260005b8351811015613ae15760008482815181106136485761364861573b565b6020026020010151905060008060008060008060008060007f000000000000000000000000000000000000000000000000000000000000000073ffffffffffffffffffffffffffffffffffffffff1663b33d96b07f00000000000000000000000000000000000000000000000000000000000000008c8f6040518463ffffffff1660e01b81526004016137089392919073ffffffffffffffffffffffffffffffffffffffff93841681529183166020830152909116604082015260600190565b60c060405180830381865afa158015613725573d6000803e3d6000fd5b505050506040513d601f19601f820116820180604052508101906137499190615a00565b955095509550955095509550848c73ffffffffffffffffffffffffffffffffffffffff166370a082318c6040518263ffffffff1660e01b81526004016137ab919073ffffffffffffffffffffffffffffffffffffffff91909116815260200190565b602060405180830381865afa1580156137c8573d6000803e3d6000fd5b505050506040513d601f19601f820116820180604052508101906137ec91906157b0565b6137f69190615799565b6040517f671a11b500000000000000000000000000000000000000000000000000000000815260048101829052602481018790526044810186905263ffffffff80861660648301528085166084830152831660a48201529099507f000000000000000000000000000000000000000000000000000000000000000073ffffffffffffffffffffffffffffffffffffffff169063671a11b59060c401602060405180830381865afa1580156138ae573d6000803e3d6000fd5b505050506040513d601f19601f820116820180604052508101906138d291906157b0565b97508596505050505050506000808573ffffffffffffffffffffffffffffffffffffffff16630dfe16816040518163ffffffff1660e01b8152600401602060405180830381865afa15801561392b573d6000803e3d6000fd5b505050506040513d601f19601f8201168201806040525081019061394f9190615a69565b73ffffffffffffffffffffffffffffffffffffffff168873ffffffffffffffffffffffffffffffffffffffff16146139895783600061398d565b6000845b91509150600060018b516139a19190615799565b88106139ad57896139d2565b8a6139b98960016157fe565b815181106139c9576139c961573b565b60200260200101515b604080516000815260208101918290527f022c0d9f0000000000000000000000000000000000000000000000000000000090915290915073ffffffffffffffffffffffffffffffffffffffff88169063022c0d9f90613a3a9086908690869060248101615a86565b600060405180830381600087803b158015613a5457600080fd5b505af1158015613a68573d6000803e3d6000fd5b50506040805173ffffffffffffffffffffffffffffffffffffffff8b81168252602082018a905288168183015290517fddac40937f35385a34f721af292e5a83fc5b840f722bff57c2fc71adba708c489350908190036060019150a1839850505050505050508080613ad990615816565b91505061362b565b5050505050565b600081613af757506001613be7565b73eeeeeeeeeeeeeeeeeeeeeeeeeeeeeeeeeeeeeeee73ffffffffffffffffffffffffffffffffffffffff85161415613bd8576040517f2e1a7d4d000000000000000000000000000000000000000000000000000000008152600481018390527f000000000000000000000000000000000000000000000000000000000000000073ffffffffffffffffffffffffffffffffffffffff1690632e1a7d4d90602401600060405180830381600087803b158015613bb157600080fd5b505af1158015613bc5573d6000803e3d6000fd5b50505050613bd3838361337a565b613be3565b613be3848484614e41565b5060015b9392505050565b600073eeeeeeeeeeeeeeeeeeeeeeeeeeeeeeeeeeeeeeee73ffffffffffffffffffffffffffffffffffffffff84161415613ca8577f000000000000000000000000000000000000000000000000000000000000000073ffffffffffffffffffffffffffffffffffffffff1663d0e30db0346040518263ffffffff1660e01b81526004016000604051808303818588803b158015613c8a57600080fd5b505af1158015613c9e573d6000803e3d6000fd5b5050505050613cb4565b613cb483333085613489565b50600192915050565b604080516001808252818301909252600091829190602080830190803683370190505090508481600081518110613cf657613cf661573b565b73ffffffffffffffffffffffffffffffffffffffff92831660209182029290920101526040517f67f84adc0000000000000000000000000000000000000000000000000000000081526000917f000000000000000000000000000000000000000000000000000000000000000016906367f84adc90613da1907f0000000000000000000000000000000000000000000000000000000000000000908c908c908b90899060040161586c565b600060405180830381865afa158015613dbe573d6000803e3d6000fd5b505050506040513d6000823e601f3d9081017fffffffffffffffffffffffffffffffffffffffffffffffffffffffffffffffe0168201604052613e0491908101906158ed565b905080600081518110613e1957613e1961573b565b6020026020010151925083831115613e8d576040517f08c379a000000000000000000000000000000000000000000000000000000000815260206004820152601e60248201527f526f757465723a204558434553534956455f494e5055545f414d4f554e54000060448201526064016104c7565b611a9d88878584600181518110613ea657613ea661573b565b60200260200101515b613eba848484614e41565b600083905060008173ffffffffffffffffffffffffffffffffffffffff16630dfe16816040518163ffffffff1660e01b8152600401602060405180830381865afa158015613f0c573d6000803e3d6000fd5b505050506040513d601f19601f82011682018060405250810190613f309190615a69565b905060008060008373ffffffffffffffffffffffffffffffffffffffff168973ffffffffffffffffffffffffffffffffffffffff1614613f735785600085613fe5565b6000868673ffffffffffffffffffffffffffffffffffffffff1663d21220a76040518163ffffffff1660e01b8152600401602060405180830381865afa158015613fc1573d6000803e3d6000fd5b505050506040513d601f19601f82011682018060405250810190613fe59190615a69565b604080516000815260208101918290527f022c0d9f00000000000000000000000000000000000000000000000000000000909152929550909350915073ffffffffffffffffffffffffffffffffffffffff86169063022c0d9f906140529086908690309060248101615a86565b600060405180830381600087803b15801561406c57600080fd5b505af1158015614080573d6000803e3d6000fd5b50506040805173ffffffffffffffffffffffffffffffffffffffff8c81168252602082018b905285168183015290517fddac40937f35385a34f721af292e5a83fc5b840f722bff57c2fc71adba708c489350908190036060019150a1505050505050505050565b600073eeeeeeeeeeeeeeeeeeeeeeeeeeeeeeeeeeeeeeee73ffffffffffffffffffffffffffffffffffffffff831614156141d0576040517f70a082310000000000000000000000000000000000000000000000000000000081523060048201527f000000000000000000000000000000000000000000000000000000000000000073ffffffffffffffffffffffffffffffffffffffff16906370a08231906024015b602060405180830381865afa1580156141a6573d6000803e3d6000fd5b505050506040513d601f19601f820116820180604052508101906141ca91906157b0565b92915050565b6040517f70a0823100000000000000000000000000000000000000000000000000000000815230600482015273ffffffffffffffffffffffffffffffffffffffff8316906370a0823190602401614189565b919050565b6040517f119220a500000000000000000000000000000000000000000000000000000000815260609073ffffffffffffffffffffffffffffffffffffffff7f0000000000000000000000000000000000000000000000000000000000000000169063119220a5906142c4907f0000000000000000000000000000000000000000000000000000000000000000908a908a908a90899060040161586c565b600060405180830381865afa1580156142e1573d6000803e3d6000fd5b505050506040513d6000823e601f3d9081017fffffffffffffffffffffffffffffffffffffffffffffffffffffffffffffffe016820160405261432791908101906158ed565b90508281600183516143399190615799565b815181106143495761434961573b565b602002602001015110156143df576040517f08c379a000000000000000000000000000000000000000000000000000000000815260206004820152602260248201527f526f757465723a20494e53554646494349454e545f4f55545055545f414d4f5560448201527f4e5400000000000000000000000000000000000000000000000000000000000060648201526084016104c7565b95945050505050565b8360005b835181101561361f5760008482815181106144095761440961573b565b6020026020010151905060008173ffffffffffffffffffffffffffffffffffffffff16630dfe16816040518163ffffffff1660e01b8152600401602060405180830381865afa158015614460573d6000803e3d6000fd5b505050506040513d601f19601f820116820180604052508101906144849190615a69565b90506000876144948560016157fe565b815181106144a4576144a461573b565b6020026020010151905060008060008473ffffffffffffffffffffffffffffffffffffffff168873ffffffffffffffffffffffffffffffffffffffff16146144ef5783600086614561565b6000848773ffffffffffffffffffffffffffffffffffffffff1663d21220a76040518163ffffffff1660e01b8152600401602060405180830381865afa15801561453d573d6000803e3d6000fd5b505050506040513d601f19601f820116820180604052508101906145619190615a69565b925092509250600060018b516145779190615799565b881061458357896145a8565b8a61458f8960016157fe565b8151811061459f5761459f61573b565b60200260200101515b604080516000815260208101918290527f022c0d9f0000000000000000000000000000000000000000000000000000000090915290915073ffffffffffffffffffffffffffffffffffffffff88169063022c0d9f906146109087908790869060248101615a86565b600060405180830381600087803b15801561462a57600080fd5b505af115801561463e573d6000803e3d6000fd5b50506040805173ffffffffffffffffffffffffffffffffffffffff8b81168252602082018a905286168183015290517fddac40937f35385a34f721af292e5a83fc5b840f722bff57c2fc71adba708c489350908190036060019150a18198505050505050505080806146af90615816565b9150506143ec565b6040517f67f84adc00000000000000000000000000000000000000000000000000000000815260609073ffffffffffffffffffffffffffffffffffffffff7f000000000000000000000000000000000000000000000000000000000000000016906367f84adc90614754907f0000000000000000000000000000000000000000000000000000000000000000908a908a908a90899060040161586c565b600060405180830381865afa158015614771573d6000803e3d6000fd5b505050506040513d6000823e601f3d9081017fffffffffffffffffffffffffffffffffffffffffffffffffffffffffffffffe01682016040526147b791908101906158ed565b905082816000815181106147cd576147cd61573b565b602002602001015111156143df576040517f08c379a000000000000000000000000000000000000000000000000000000000815260206004820152601e60248201527f526f757465723a204558434553534956455f494e5055545f414d4f554e54000060448201526064016104c7565b600061484a868585614e41565b6040517fb33d96b000000000000000000000000000000000000000000000000000000000815273ffffffffffffffffffffffffffffffffffffffff7f00000000000000000000000000000000000000000000000000000000000000008116600483015285811660248301528781166044830152600091829182918291829182917f0000000000000000000000000000000000000000000000000000000000000000169063b33d96b09060640160c060405180830381865afa158015614913573d6000803e3d6000fd5b505050506040513d601f19601f820116820180604052508101906149379190615a00565b95509550955095509550506000858d73ffffffffffffffffffffffffffffffffffffffff166370a082318d6040518263ffffffff1660e01b815260040161499a919073ffffffffffffffffffffffffffffffffffffffff91909116815260200190565b602060405180830381865afa1580156149b7573d6000803e3d6000fd5b505050506040513d601f19601f820116820180604052508101906149db91906157b0565b6149e59190615799565b6040517f671a11b500000000000000000000000000000000000000000000000000000000815260048101829052602481018890526044810187905263ffffffff80871660648301528086166084830152841660a48201529091507f000000000000000000000000000000000000000000000000000000000000000073ffffffffffffffffffffffffffffffffffffffff169063671a11b59060c401602060405180830381865afa158015614a9d573d6000803e3d6000fd5b505050506040513d601f19601f82011682018060405250810190614ac191906157b0565b6040517f70a082310000000000000000000000000000000000000000000000000000000081523060048201529097506000965073ffffffffffffffffffffffffffffffffffffffff8d1695506370a0823194506024019250614b21915050565b602060405180830381865afa158015614b3e573d6000803e3d6000fd5b505050506040513d601f19601f82011682018060405250810190614b6291906157b0565b90506000808773ffffffffffffffffffffffffffffffffffffffff16630dfe16816040518163ffffffff1660e01b8152600401602060405180830381865afa158015614bb2573d6000803e3d6000fd5b505050506040513d601f19601f82011682018060405250810190614bd69190615a69565b73ffffffffffffffffffffffffffffffffffffffff168a73ffffffffffffffffffffffffffffffffffffffff1614614c1057836000614c14565b6000845b604080516000815260208101918290527f022c0d9f00000000000000000000000000000000000000000000000000000000909152919350915073ffffffffffffffffffffffffffffffffffffffff89169063022c0d9f90614c7e9085908590309060248101615a86565b600060405180830381600087803b158015614c9857600080fd5b505af1158015614cac573d6000803e3d6000fd5b50506040805173ffffffffffffffffffffffffffffffffffffffff8c81168252602082018990528d168183015290517fddac40937f35385a34f721af292e5a83fc5b840f722bff57c2fc71adba708c489350908190036060019150a16040517f70a08231000000000000000000000000000000000000000000000000000000008152306004820152839073ffffffffffffffffffffffffffffffffffffffff8b16906370a0823190602401602060405180830381865afa158015614d74573d6000803e3d6000fd5b505050506040513d601f19601f82011682018060405250810190614d9891906157b0565b614da29190615799565b945085851015614e34576040517f08c379a000000000000000000000000000000000000000000000000000000000815260206004820152602260248201527f526f757465723a20494e53554646494349454e545f4f55545055545f414d4f5560448201527f4e5400000000000000000000000000000000000000000000000000000000000060648201526084016104c7565b5050505095945050505050565b6040805173ffffffffffffffffffffffffffffffffffffffff8481166024830152604480830185905283518084039091018152606490920183526020820180517bffffffffffffffffffffffffffffffffffffffffffffffffffffffff167fa9059cbb000000000000000000000000000000000000000000000000000000001790529151600092839290871691614ed891906159d0565b6000604051808303816000865af19150503d8060008114614f15576040519150601f19603f3d011682016040523d82523d6000602084013e614f1a565b606091505b5091509150818015614f44575080511580614f44575080806020019051810190614f44919061597e565b613ae1576040517f08c379a000000000000000000000000000000000000000000000000000000000815260206004820152601f60248201527f5472616e7366657248656c7065723a205452414e534645525f4641494c45440060448201526064016104c7565b7f4e487b7100000000000000000000000000000000000000000000000000000000600052600160045260246000fd5b7f4e487b7100000000000000000000000000000000000000000000000000000000600052604160045260246000fd5b60405160c0810167ffffffffffffffff8111828210171561502b5761502b614fd9565b60405290565b604051601f82017fffffffffffffffffffffffffffffffffffffffffffffffffffffffffffffffe016810167ffffffffffffffff8111828210171561507857615078614fd9565b604052919050565b600067ffffffffffffffff82111561509a5761509a614fd9565b5060051b60200190565b73ffffffffffffffffffffffffffffffffffffffff811681146150c657600080fd5b50565b600082601f8301126150da57600080fd5b813560206150ef6150ea83615080565b615031565b82815260059290921b8401810191818101908684111561510e57600080fd5b8286015b84811015612545578035615125816150a4565b8352918301918301615112565b600080600080600060a0868803121561514a57600080fd5b853567ffffffffffffffff8082111561516257600080fd5b61516e89838a016150c9565b9650602088013591508082111561518457600080fd5b50615191888289016150c9565b9450506040860135925060608601356151a9816150a4565b949793965091946080013592915050565b6020808252825182820181905260009190848201906040850190845b818110156151f2578351835292840192918401916001016151d6565b50909695505050505050565b60008060008060008060c0878903121561521757600080fd5b863567ffffffffffffffff8082111561522f57600080fd5b61523b8a838b016150c9565b9750602089013591508082111561525157600080fd5b5061525e89828a016150c9565b9550506040870135935060608701359250608087013561527d816150a4565b8092505060a087013590509295509295509295565b60008083601f8401126152a457600080fd5b50813567ffffffffffffffff8111156152bc57600080fd5b6020830191508360208260051b85010111156152d757600080fd5b9250929050565b600080600080600080600060c0888a0312156152f957600080fd5b8735615304816150a4565b96506020880135955060408801359450606088013567ffffffffffffffff81111561532e57600080fd5b61533a8a828b01615292565b909550935050608088013561534e816150a4565b8092505060a0880135905092959891949750929550565b60008060008060008060a0878903121561537e57600080fd5b8635615389816150a4565b955060208701359450604087013567ffffffffffffffff8111156153ac57600080fd5b6153b889828a01615292565b90955093505060608701356153cc816150a4565b80925050608087013590509295509295509295565b600082601f8301126153f257600080fd5b813560206154026150ea83615080565b82815260059290921b8401810191818101908684111561542157600080fd5b8286015b8481101561254557803567ffffffffffffffff8111156154455760008081fd5b8701603f810189136154575760008081fd5b8481013560406154696150ea83615080565b82815260c0928302840182019288820191908d8511156154895760008081fd5b948301945b8486101561550a5780868f0312156154a65760008081fd5b6154ae615008565b86356154b9816150a4565b8152868b01356154c8816150a4565b818c0152868501356154d9816150a4565b81860152606087810135908201526080808801359082015260a080880135908201528352948501949189019161548e565b50875250505092840192508301615425565b600080600080600060a0868803121561553457600080fd5b853567ffffffffffffffff81111561554b57600080fd5b615557888289016153e1565b9550506020860135615568816150a4565b93506040860135615578816150a4565b94979396509394606081013594506080013592915050565b60008060008060008060008060e0898b0312156155ac57600080fd5b88356155b7816150a4565b975060208901356155c7816150a4565b96506040890135955060608901359450608089013567ffffffffffffffff8111156155f157600080fd5b6155fd8b828c01615292565b90955093505060a0890135615611816150a4565b8092505060c089013590509295985092959890939650565b600080600080600080600060e0888a03121561564457600080fd5b873561564f816150a4565b9650602088013561565f816150a4565b95506040880135945060608801359350608088013567ffffffffffffffff81111561568957600080fd5b6156958a828b016150c9565b93505060a08801356156a6816150a4565b8092505060c0880135905092959891949750929550565b60008060008060008060c087890312156156d657600080fd5b863567ffffffffffffffff8111156156ed57600080fd5b6156f989828a016153e1565b965050602087013561570a816150a4565b9450604087013561571a816150a4565b959894975094956060810135955060808101359460a0909101359350915050565b7f4e487b7100000000000000000000000000000000000000000000000000000000600052603260045260246000fd5b7f4e487b7100000000000000000000000000000000000000000000000000000000600052601160045260246000fd5b6000828210156157ab576157ab61576a565b500390565b6000602082840312156157c257600080fd5b5051919050565b6000816157d8576157d861576a565b507fffffffffffffffffffffffffffffffffffffffffffffffffffffffffffffffff0190565b600082198211156158115761581161576a565b500190565b60007fffffffffffffffffffffffffffffffffffffffffffffffffffffffffffffffff8214156158485761584861576a565b5060010190565b60006020828403121561586157600080fd5b8135613be7816150a4565b600060a0820173ffffffffffffffffffffffffffffffffffffffff8089168452602081891681860152818816604086015286606086015260a0608086015282865180855260c087019150828801945060005b818110156158dc5785518516835294830194918301916001016158be565b50909b9a5050505050505050505050565b6000602080838503121561590057600080fd5b825167ffffffffffffffff81111561591757600080fd5b8301601f8101851361592857600080fd5b80516159366150ea82615080565b81815260059190911b8201830190838101908783111561595557600080fd5b928401925b828410156159735783518252928401929084019061595a565b979650505050505050565b60006020828403121561599057600080fd5b81518015158114613be757600080fd5b60005b838110156159bb5781810151838201526020016159a3565b838111156159ca576000848401525b50505050565b600082516159e28184602087016159a0565b9190910192915050565b805163ffffffff8116811461422257600080fd5b60008060008060008060c08789031215615a1957600080fd5b8651615a24816150a4565b6020880151604089015191975095509350615a41606088016159ec565b9250615a4f608088016159ec565b9150615a5d60a088016159ec565b90509295509295509295565b600060208284031215615a7b57600080fd5b8151613be7816150a4565b84815283602082015273ffffffffffffffffffffffffffffffffffffffff831660408201526080606082015260008251806080840152615acd8160a08501602087016159a0565b601f017fffffffffffffffffffffffffffffffffffffffffffffffffffffffffffffffe0169190910160a0019594505050505056fea2646970667358221220f5b9a4c43183ad1cf7b28ee19cf7aa8b50892fd2e34c62dcac3376cd60b9ad9364736f6c634300080a0033",
  "linkReferences": {},
  "deployedLinkReferences": {}
}