{
  "_format": "hh-sol-artifact-1",
  "contractName": "RequiemQRouter",
  "sourceName": "contracts/RequiemQRouter.sol",
  "abi": [
    {
      "inputs": [
        {
          "internalType": "address",
          "name": "_factory",
          "type": "address"
        },
        {
          "internalType": "address",
          "name": "_WETH",
          "type": "address"
        }
      ],
      "stateMutability": "nonpayable",
      "type": "constructor"
    },
    {
      "anonymous": false,
      "inputs": [
        {
          "indexed": false,
          "internalType": "address",
          "name": "pair",
          "type": "address"
        },
        {
          "indexed": false,
          "internalType": "uint256",
          "name": "amountOut",
          "type": "uint256"
        },
        {
          "indexed": false,
          "internalType": "address",
          "name": "output",
          "type": "address"
        }
      ],
      "name": "Exchange",
      "type": "event"
    },
    {
      "inputs": [],
      "name": "WETH",
      "outputs": [
        {
          "internalType": "address",
          "name": "",
          "type": "address"
        }
      ],
      "stateMutability": "view",
      "type": "function"
    },
    {
      "inputs": [],
      "name": "factory",
      "outputs": [
        {
          "internalType": "address",
          "name": "",
          "type": "address"
        }
      ],
      "stateMutability": "view",
      "type": "function"
    },
    {
      "inputs": [],
      "name": "formula",
      "outputs": [
        {
          "internalType": "address",
          "name": "",
          "type": "address"
        }
      ],
      "stateMutability": "view",
      "type": "function"
    },
    {
      "inputs": [
        {
          "components": [
            {
              "internalType": "address",
              "name": "pool",
              "type": "address"
            },
            {
              "internalType": "address",
              "name": "tokenIn",
              "type": "address"
            },
            {
              "internalType": "address",
              "name": "tokenOut",
              "type": "address"
            },
            {
              "internalType": "uint256",
              "name": "swapAmount",
              "type": "uint256"
            },
            {
              "internalType": "uint256",
              "name": "limitReturnAmount",
              "type": "uint256"
            },
            {
              "internalType": "uint256",
              "name": "maxPrice",
              "type": "uint256"
            }
          ],
          "internalType": "struct IRequiemQRouter.Swap[][]",
          "name": "swapSequences",
          "type": "tuple[][]"
        },
        {
          "internalType": "address",
          "name": "tokenIn",
          "type": "address"
        },
        {
          "internalType": "address",
          "name": "tokenOut",
          "type": "address"
        },
        {
          "internalType": "uint256",
          "name": "totalAmountIn",
          "type": "uint256"
        },
        {
          "internalType": "uint256",
          "name": "minTotalAmountOut",
          "type": "uint256"
        },
        {
          "internalType": "uint256",
          "name": "deadline",
          "type": "uint256"
        }
      ],
      "name": "multihopBatchSwapExactIn",
      "outputs": [
        {
          "internalType": "uint256",
          "name": "totalAmountOut",
          "type": "uint256"
        }
      ],
      "stateMutability": "payable",
      "type": "function"
    },
    {
      "inputs": [
        {
          "components": [
            {
              "internalType": "address",
              "name": "pool",
              "type": "address"
            },
            {
              "internalType": "address",
              "name": "tokenIn",
              "type": "address"
            },
            {
              "internalType": "address",
              "name": "tokenOut",
              "type": "address"
            },
            {
              "internalType": "uint256",
              "name": "swapAmount",
              "type": "uint256"
            },
            {
              "internalType": "uint256",
              "name": "limitReturnAmount",
              "type": "uint256"
            },
            {
              "internalType": "uint256",
              "name": "maxPrice",
              "type": "uint256"
            }
          ],
          "internalType": "struct IRequiemQRouter.Swap[][]",
          "name": "swapSequences",
          "type": "tuple[][]"
        },
        {
          "internalType": "address",
          "name": "tokenIn",
          "type": "address"
        },
        {
          "internalType": "address",
          "name": "tokenOut",
          "type": "address"
        },
        {
          "internalType": "uint256",
          "name": "maxTotalAmountIn",
          "type": "uint256"
        },
        {
          "internalType": "uint256",
          "name": "deadline",
          "type": "uint256"
        }
      ],
      "name": "multihopBatchSwapExactOut",
      "outputs": [
        {
          "internalType": "uint256",
          "name": "totalAmountIn",
          "type": "uint256"
        }
      ],
      "stateMutability": "payable",
      "type": "function"
    },
    {
      "inputs": [
        {
          "internalType": "address[]",
          "name": "pools",
          "type": "address[]"
        },
        {
          "internalType": "address[]",
          "name": "tokens",
          "type": "address[]"
        },
        {
          "internalType": "uint256",
          "name": "amountOut",
          "type": "uint256"
        },
        {
          "internalType": "address",
          "name": "to",
          "type": "address"
        },
        {
          "internalType": "uint256",
          "name": "deadline",
          "type": "uint256"
        }
      ],
      "name": "onSwapETHForExactTokens",
      "outputs": [
        {
          "internalType": "uint256[]",
          "name": "amounts",
          "type": "uint256[]"
        }
      ],
      "stateMutability": "payable",
      "type": "function"
    },
    {
      "inputs": [
        {
          "internalType": "address[]",
          "name": "pools",
          "type": "address[]"
        },
        {
          "internalType": "address[]",
          "name": "tokens",
          "type": "address[]"
        },
        {
          "internalType": "uint256",
          "name": "amountOutMin",
          "type": "uint256"
        },
        {
          "internalType": "address",
          "name": "to",
          "type": "address"
        },
        {
          "internalType": "uint256",
          "name": "deadline",
          "type": "uint256"
        }
      ],
      "name": "onSwapExactETHForTokens",
      "outputs": [
        {
          "internalType": "uint256",
          "name": "amountLast",
          "type": "uint256"
        }
      ],
      "stateMutability": "payable",
      "type": "function"
    },
    {
      "inputs": [
        {
          "internalType": "address[]",
          "name": "pools",
          "type": "address[]"
        },
        {
          "internalType": "address[]",
          "name": "tokens",
          "type": "address[]"
        },
        {
          "internalType": "uint256",
          "name": "amountIn",
          "type": "uint256"
        },
        {
          "internalType": "uint256",
          "name": "amountOutMin",
          "type": "uint256"
        },
        {
          "internalType": "address",
          "name": "to",
          "type": "address"
        },
        {
          "internalType": "uint256",
          "name": "deadline",
          "type": "uint256"
        }
      ],
      "name": "onSwapExactTokensForETH",
      "outputs": [
        {
          "internalType": "uint256",
          "name": "amountLast",
          "type": "uint256"
        }
      ],
      "stateMutability": "nonpayable",
      "type": "function"
    },
    {
      "inputs": [
        {
          "internalType": "address[]",
          "name": "pools",
          "type": "address[]"
        },
        {
          "internalType": "address[]",
          "name": "tokens",
          "type": "address[]"
        },
        {
          "internalType": "uint256",
          "name": "amountIn",
          "type": "uint256"
        },
        {
          "internalType": "uint256",
          "name": "amountOutMin",
          "type": "uint256"
        },
        {
          "internalType": "address",
          "name": "to",
          "type": "address"
        },
        {
          "internalType": "uint256",
          "name": "deadline",
          "type": "uint256"
        }
      ],
      "name": "onSwapExactTokensForTokens",
      "outputs": [
        {
          "internalType": "uint256",
          "name": "amountLast",
          "type": "uint256"
        }
      ],
      "stateMutability": "nonpayable",
      "type": "function"
    },
    {
      "inputs": [
        {
          "internalType": "address[]",
          "name": "pools",
          "type": "address[]"
        },
        {
          "internalType": "address[]",
          "name": "tokens",
          "type": "address[]"
        },
        {
          "internalType": "uint256",
          "name": "amountOut",
          "type": "uint256"
        },
        {
          "internalType": "uint256",
          "name": "amountInMax",
          "type": "uint256"
        },
        {
          "internalType": "address",
          "name": "to",
          "type": "address"
        },
        {
          "internalType": "uint256",
          "name": "deadline",
          "type": "uint256"
        }
      ],
      "name": "onSwapTokensForExactETH",
      "outputs": [
        {
          "internalType": "uint256[]",
          "name": "amounts",
          "type": "uint256[]"
        }
      ],
      "stateMutability": "nonpayable",
      "type": "function"
    },
    {
      "inputs": [
        {
          "internalType": "address[]",
          "name": "pools",
          "type": "address[]"
        },
        {
          "internalType": "address[]",
          "name": "tokens",
          "type": "address[]"
        },
        {
          "internalType": "uint256",
          "name": "amountOut",
          "type": "uint256"
        },
        {
          "internalType": "uint256",
          "name": "amountInMax",
          "type": "uint256"
        },
        {
          "internalType": "address",
          "name": "to",
          "type": "address"
        },
        {
          "internalType": "uint256",
          "name": "deadline",
          "type": "uint256"
        }
      ],
      "name": "onSwapTokensForExactTokens",
      "outputs": [
        {
          "internalType": "uint256[]",
          "name": "amounts",
          "type": "uint256[]"
        }
      ],
      "stateMutability": "nonpayable",
      "type": "function"
    },
    {
      "inputs": [
        {
          "internalType": "address",
          "name": "tokenOut",
          "type": "address"
        },
        {
          "internalType": "uint256",
          "name": "amountOut",
          "type": "uint256"
        },
        {
          "internalType": "address[]",
          "name": "path",
          "type": "address[]"
        },
        {
          "internalType": "address",
          "name": "to",
          "type": "address"
        },
        {
          "internalType": "uint256",
          "name": "deadline",
          "type": "uint256"
        }
      ],
      "name": "swapETHForExactTokens",
      "outputs": [
        {
          "internalType": "uint256[]",
          "name": "amounts",
          "type": "uint256[]"
        }
      ],
      "stateMutability": "payable",
      "type": "function"
    },
    {
      "inputs": [
        {
          "internalType": "address",
          "name": "tokenOut",
          "type": "address"
        },
        {
          "internalType": "uint256",
          "name": "amountOutMin",
          "type": "uint256"
        },
        {
          "internalType": "address[]",
          "name": "path",
          "type": "address[]"
        },
        {
          "internalType": "address",
          "name": "to",
          "type": "address"
        },
        {
          "internalType": "uint256",
          "name": "deadline",
          "type": "uint256"
        }
      ],
      "name": "swapExactETHForTokens",
      "outputs": [
        {
          "internalType": "uint256[]",
          "name": "amounts",
          "type": "uint256[]"
        }
      ],
      "stateMutability": "payable",
      "type": "function"
    },
    {
      "inputs": [
        {
          "internalType": "address",
          "name": "tokenOut",
          "type": "address"
        },
        {
          "internalType": "uint256",
          "name": "amountOutMin",
          "type": "uint256"
        },
        {
          "internalType": "address[]",
          "name": "path",
          "type": "address[]"
        },
        {
          "internalType": "address",
          "name": "to",
          "type": "address"
        },
        {
          "internalType": "uint256",
          "name": "deadline",
          "type": "uint256"
        }
      ],
      "name": "swapExactETHForTokensSupportingFeeOnTransferTokens",
      "outputs": [],
      "stateMutability": "payable",
      "type": "function"
    },
    {
      "inputs": [
        {
          "internalType": "address",
          "name": "tokenIn",
          "type": "address"
        },
        {
          "internalType": "uint256",
          "name": "amountIn",
          "type": "uint256"
        },
        {
          "internalType": "uint256",
          "name": "amountOutMin",
          "type": "uint256"
        },
        {
          "internalType": "address[]",
          "name": "path",
          "type": "address[]"
        },
        {
          "internalType": "address",
          "name": "to",
          "type": "address"
        },
        {
          "internalType": "uint256",
          "name": "deadline",
          "type": "uint256"
        }
      ],
      "name": "swapExactTokensForETH",
      "outputs": [
        {
          "internalType": "uint256[]",
          "name": "amounts",
          "type": "uint256[]"
        }
      ],
      "stateMutability": "nonpayable",
      "type": "function"
    },
    {
      "inputs": [
        {
          "internalType": "address",
          "name": "tokenIn",
          "type": "address"
        },
        {
          "internalType": "uint256",
          "name": "amountIn",
          "type": "uint256"
        },
        {
          "internalType": "uint256",
          "name": "amountOutMin",
          "type": "uint256"
        },
        {
          "internalType": "address[]",
          "name": "path",
          "type": "address[]"
        },
        {
          "internalType": "address",
          "name": "to",
          "type": "address"
        },
        {
          "internalType": "uint256",
          "name": "deadline",
          "type": "uint256"
        }
      ],
      "name": "swapExactTokensForETHSupportingFeeOnTransferTokens",
      "outputs": [],
      "stateMutability": "nonpayable",
      "type": "function"
    },
    {
      "inputs": [
        {
          "internalType": "address",
          "name": "tokenIn",
          "type": "address"
        },
        {
          "internalType": "address",
          "name": "tokenOut",
          "type": "address"
        },
        {
          "internalType": "uint256",
          "name": "amountIn",
          "type": "uint256"
        },
        {
          "internalType": "uint256",
          "name": "amountOutMin",
          "type": "uint256"
        },
        {
          "internalType": "address[]",
          "name": "path",
          "type": "address[]"
        },
        {
          "internalType": "address",
          "name": "to",
          "type": "address"
        },
        {
          "internalType": "uint256",
          "name": "deadline",
          "type": "uint256"
        }
      ],
      "name": "swapExactTokensForTokens",
      "outputs": [
        {
          "internalType": "uint256[]",
          "name": "amounts",
          "type": "uint256[]"
        }
      ],
      "stateMutability": "nonpayable",
      "type": "function"
    },
    {
      "inputs": [
        {
          "internalType": "address",
          "name": "tokenIn",
          "type": "address"
        },
        {
          "internalType": "address",
          "name": "tokenOut",
          "type": "address"
        },
        {
          "internalType": "uint256",
          "name": "amountIn",
          "type": "uint256"
        },
        {
          "internalType": "uint256",
          "name": "amountOutMin",
          "type": "uint256"
        },
        {
          "internalType": "address[]",
          "name": "path",
          "type": "address[]"
        },
        {
          "internalType": "address",
          "name": "to",
          "type": "address"
        },
        {
          "internalType": "uint256",
          "name": "deadline",
          "type": "uint256"
        }
      ],
      "name": "swapExactTokensForTokensSupportingFeeOnTransferTokens",
      "outputs": [],
      "stateMutability": "nonpayable",
      "type": "function"
    },
    {
      "inputs": [
        {
          "internalType": "address",
          "name": "tokenIn",
          "type": "address"
        },
        {
          "internalType": "uint256",
          "name": "amountOut",
          "type": "uint256"
        },
        {
          "internalType": "uint256",
          "name": "amountInMax",
          "type": "uint256"
        },
        {
          "internalType": "address[]",
          "name": "path",
          "type": "address[]"
        },
        {
          "internalType": "address",
          "name": "to",
          "type": "address"
        },
        {
          "internalType": "uint256",
          "name": "deadline",
          "type": "uint256"
        }
      ],
      "name": "swapTokensForExactETH",
      "outputs": [
        {
          "internalType": "uint256[]",
          "name": "amounts",
          "type": "uint256[]"
        }
      ],
      "stateMutability": "nonpayable",
      "type": "function"
    },
    {
      "inputs": [
        {
          "internalType": "address",
          "name": "tokenIn",
          "type": "address"
        },
        {
          "internalType": "address",
          "name": "tokenOut",
          "type": "address"
        },
        {
          "internalType": "uint256",
          "name": "amountOut",
          "type": "uint256"
        },
        {
          "internalType": "uint256",
          "name": "amountInMax",
          "type": "uint256"
        },
        {
          "internalType": "address[]",
          "name": "path",
          "type": "address[]"
        },
        {
          "internalType": "address",
          "name": "to",
          "type": "address"
        },
        {
          "internalType": "uint256",
          "name": "deadline",
          "type": "uint256"
        }
      ],
      "name": "swapTokensForExactTokens",
      "outputs": [
        {
          "internalType": "uint256[]",
          "name": "amounts",
          "type": "uint256[]"
        }
      ],
      "stateMutability": "nonpayable",
      "type": "function"
    },
    {
      "stateMutability": "payable",
      "type": "receive"
    }
  ],
  "bytecode": "0x60e06040523480156200001157600080fd5b50604051620054b7380380620054b78339810160408190526200003491620000db565b6001600160a01b038216608081905260408051634b75f54f60e01b81529051634b75f54f916004808201926020929091908290030181865afa1580156200007f573d6000803e3d6000fd5b505050506040513d601f19601f82011682018060405250810190620000a5919062000113565b6001600160a01b0390811660a0521660c0525062000138565b80516001600160a01b0381168114620000d657600080fd5b919050565b60008060408385031215620000ef57600080fd5b620000fa83620000be565b91506200010a60208401620000be565b90509250929050565b6000602082840312156200012657600080fd5b6200013182620000be565b9392505050565b60805160a05160c05161528b6200022c6000396000818161017301528181610315015281816110c9015281816112ee015281816118a7015281816120da0152818161216d01528181612be001528181612c9201528181612d0a01528181612d6701528181612e1501528181613597015281816136490152613ac10152600081816102030152818161160501528181613130015281816132ec0152818161374f01528181613bb801528181613fb50152818161414501526142a001526000818161039c015281816116340152818161315f0152818161377c01528181613be501528181613fe20152614100015261528b6000f3fe6080604052600436106101635760003560e01c8063ad5c4648116100c0578063ce81963211610074578063f35aaf6311610059578063f35aaf63146103f1578063fa3219d514610411578063fde1adda1461043157600080fd5b8063ce819632146103be578063d59e44ee146103d157600080fd5b8063b4e819fd116100a5578063b4e819fd1461034a578063bff51d711461036a578063c45a01551461038a57600080fd5b8063ad5c464814610303578063b05f579e1461033757600080fd5b8063674ee80b116101175780639c91fcb5116100fc5780639c91fcb5146102a3578063a67d0e3c146102c3578063abbfddc5146102e357600080fd5b8063674ee80b1461027d578063840c34d01461029057600080fd5b80634b75f54f116101485780634b75f54f146101f157806351bf18301461023d5780635cae03101461025d57600080fd5b806308c820da146101a75780630d1424a3146101d057600080fd5b366101a257336001600160a01b037f000000000000000000000000000000000000000000000000000000000000000016146101a0576101a0614760565b005b600080fd5b6101ba6101b53660046148bd565b610444565b6040516101c79190614945565b60405180910390f35b6101e36101de3660046148bd565b610912565b6040519081526020016101c7565b3480156101fd57600080fd5b506102257f000000000000000000000000000000000000000000000000000000000000000081565b6040516001600160a01b0390911681526020016101c7565b34801561024957600080fd5b506101ba610258366004614989565b610b40565b34801561026957600080fd5b506101a0610278366004614a69565b610fd5565b6101a061028b366004614af0565b6111df565b6101e361029e366004614ca7565b611458565b3480156102af57600080fd5b506101ba6102be366004614a69565b61184e565b3480156102cf57600080fd5b506101a06102de366004614d1b565b6119d5565b3480156102ef57600080fd5b506101ba6102fe366004614989565b611c0b565b34801561030f57600080fd5b506102257f000000000000000000000000000000000000000000000000000000000000000081565b6101ba610345366004614af0565b612082565b34801561035657600080fd5b506101e3610365366004614989565b61220c565b34801561037657600080fd5b506101ba610385366004614db4565b612463565b34801561039657600080fd5b506102257f000000000000000000000000000000000000000000000000000000000000000081565b6101e36103cc366004614e48565b6124f5565b3480156103dd57600080fd5b506101ba6103ec366004614d1b565b612841565b3480156103fd57600080fd5b506101e361040c366004614989565b61293b565b34801561041d57600080fd5b506101ba61042c366004614a69565b612b87565b6101ba61043f366004614af0565b612c3a565b6060814281101561049c5760405162461bcd60e51b815260206004820152600f60248201527f526f757465723a2045585049524544000000000000000000000000000000000060448201526064015b60405180910390fd5b855167ffffffffffffffff8111156104b6576104b661478f565b6040519080825280602002602001820160405280156104df578160200160208202803683370190505b50915084828851815181106104f6576104f6614ec6565b6020026020010181815250506000600183516105129190614f24565b90505b80156106715787610527600183614f24565b8151811061053757610537614ec6565b60200260200101516001600160a01b031663cc56fd438860018461055b9190614f24565b8151811061056b5761056b614ec6565b602002602001015189848151811061058557610585614ec6565b602002602001015186858151811061059f5761059f614ec6565b60209081029190910101516040517fffffffff0000000000000000000000000000000000000000000000000000000060e086901b1681526001600160a01b0393841660048201529290911660248301526044820152606401602060405180830381865afa158015610614573d6000803e3d6000fd5b505050506040513d601f19601f820116820180604052508101906106389190614f3b565b83610644600184614f24565b8151811061065457610654614ec6565b60209081029190910101528061066981614f54565b915050610515565b50348260008151811061068657610686614ec6565b602002602001015111156106dc5760405162461bcd60e51b815260206004820152600f60248201527f4558434553534956455f494e50555400000000000000000000000000000000006044820152606401610493565b61071a826000815181106106f2576106f2614ec6565b60200260200101518860008151811061070d5761070d614ec6565b6020026020010151612d65565b60005b87518110156108b6576000600189516107369190614f24565b82146107655788610748836001614f89565b8151811061075857610758614ec6565b6020026020010151610767565b855b905088828151811061077b5761077b614ec6565b60200260200101516001600160a01b03166332fd54938984815181106107a3576107a3614ec6565b60200260200101518a8560016107b99190614f89565b815181106107c9576107c9614ec6565b60200260200101518786815181106107e3576107e3614ec6565b6020026020010151888760016107f99190614f89565b8151811061080957610809614ec6565b60209081029190910101516040517fffffffff0000000000000000000000000000000000000000000000000000000060e087901b1681526001600160a01b039485166004820152928416602484015260448301919091526064820152908416608482015260a401600060405180830381600087803b15801561088a57600080fd5b505af115801561089e573d6000803e3d6000fd5b505050505080806108ae90614fa1565b91505061071d565b50816000815181106108ca576108ca614ec6565b60200260200101513411156109085761090833836000815181106108f0576108f0614ec6565b6020026020010151346109039190614f24565b612e96565b5095945050505050565b600081428110156109655760405162461bcd60e51b815260206004820152600f60248201527f526f757465723a204558504952454400000000000000000000000000000000006044820152606401610493565b34915061097f348860008151811061070d5761070d614ec6565b60005b8751811015610aef5760006001895161099b9190614f24565b82146109ca57886109ad836001614f89565b815181106109bd576109bd614ec6565b60200260200101516109cc565b855b90508882815181106109e0576109e0614ec6565b60200260200101516001600160a01b0316634ac00e03898481518110610a0857610a08614ec6565b60200260200101518a856001610a1e9190614f89565b81518110610a2e57610a2e614ec6565b60209081029190910101516040517fffffffff0000000000000000000000000000000000000000000000000000000060e085901b1681526001600160a01b03928316600482015290821660248201526044810188905260006064820152908416608482015260a4016020604051808303816000875af1158015610ab5573d6000803e3d6000fd5b505050506040513d601f19601f82011682018060405250810190610ad99190614f3b565b9350508080610ae790614fa1565b915050610982565b50818511156109085760405162461bcd60e51b815260206004820152601360248201527f494e53554646494349454e545f4f5554505554000000000000000000000000006044820152606401610493565b60608142811015610b935760405162461bcd60e51b815260206004820152600f60248201527f526f757465723a204558504952454400000000000000000000000000000000006044820152606401610493565b865167ffffffffffffffff811115610bad57610bad61478f565b604051908082528060200260200182016040528015610bd6578160200160208202803683370190505b5091508582895181518110610bed57610bed614ec6565b602002602001018181525050600060018351610c099190614f24565b90505b8015610d685788610c1e600183614f24565b81518110610c2e57610c2e614ec6565b60200260200101516001600160a01b031663cc56fd4389600184610c529190614f24565b81518110610c6257610c62614ec6565b60200260200101518a8481518110610c7c57610c7c614ec6565b6020026020010151868581518110610c9657610c96614ec6565b60209081029190910101516040517fffffffff0000000000000000000000000000000000000000000000000000000060e086901b1681526001600160a01b0393841660048201529290911660248301526044820152606401602060405180830381865afa158015610d0b573d6000803e3d6000fd5b505050506040513d601f19601f82011682018060405250810190610d2f9190614f3b565b83610d3b600184614f24565b81518110610d4b57610d4b614ec6565b602090810291909101015280610d6081614f54565b915050610c0c565b508482600081518110610d7d57610d7d614ec6565b60200260200101511115610dd35760405162461bcd60e51b815260206004820152600f60248201527f4558434553534956455f494e50555400000000000000000000000000000000006044820152606401610493565b610e2d87600081518110610de957610de9614ec6565b6020026020010151338a600081518110610e0557610e05614ec6565b602002602001015185600081518110610e2057610e20614ec6565b6020026020010151612f7e565b60005b8851811015610fc957600060018a51610e499190614f24565b8214610e785789610e5b836001614f89565b81518110610e6b57610e6b614ec6565b6020026020010151610e7a565b855b9050898281518110610e8e57610e8e614ec6565b60200260200101516001600160a01b03166332fd54938a8481518110610eb657610eb6614ec6565b60200260200101518b856001610ecc9190614f89565b81518110610edc57610edc614ec6565b6020026020010151878681518110610ef657610ef6614ec6565b602002602001015188876001610f0c9190614f89565b81518110610f1c57610f1c614ec6565b60209081029190910101516040517fffffffff0000000000000000000000000000000000000000000000000000000060e087901b1681526001600160a01b039485166004820152928416602484015260448301919091526064820152908416608482015260a401600060405180830381600087803b158015610f9d57600080fd5b505af1158015610fb1573d6000803e3d6000fd5b50505050508080610fc190614fa1565b915050610e30565b50509695505050505050565b80428110156110265760405162461bcd60e51b815260206004820152600f60248201527f526f757465723a204558504952454400000000000000000000000000000000006044820152606401610493565b61105988338787600081811061103e5761103e614ec6565b90506020020160208101906110539190614fda565b8a612f7e565b611098888686808060200260200160405190810160405280939291908181526020018383602002808284376000920191909152503092506130f5915050565b6040517f70a082310000000000000000000000000000000000000000000000000000000081523060048201526000907f00000000000000000000000000000000000000000000000000000000000000006001600160a01b0316906370a0823190602401602060405180830381865afa158015611118573d6000803e3d6000fd5b505050506040513d601f19601f8201168201806040525081019061113c9190614f3b565b9050868110156111b45760405162461bcd60e51b815260206004820152602260248201527f526f757465723a20494e53554646494349454e545f4f55545055545f414d4f5560448201527f4e540000000000000000000000000000000000000000000000000000000000006064820152608401610493565b6111d373eeeeeeeeeeeeeeeeeeeeeeeeeeeeeeeeeeeeeeee8583613534565b50505050505050505050565b80428110156112305760405162461bcd60e51b815260206004820152600f60248201527f526f757465723a204558504952454400000000000000000000000000000000006044820152606401610493565b3461126081878760008161124657611246614ec6565b905060200201602081019061125b9190614fda565b612d65565b6040517f70a082310000000000000000000000000000000000000000000000000000000081526001600160a01b038581166004830152600091908a16906370a0823190602401602060405180830381865afa1580156112c3573d6000803e3d6000fd5b505050506040513d601f19601f820116820180604052508101906112e79190614f3b565b90506113487f00000000000000000000000000000000000000000000000000000000000000008888808060200260200160405190810160405280939291908181526020018383602002808284376000920191909152508a92506130f5915050565b6040517f70a082310000000000000000000000000000000000000000000000000000000081526001600160a01b038681166004830152899183918c16906370a0823190602401602060405180830381865afa1580156113ab573d6000803e3d6000fd5b505050506040513d601f19601f820116820180604052508101906113cf9190614f3b565b6113d99190614f24565b101561144d5760405162461bcd60e51b815260206004820152602260248201527f526f757465723a20494e53554646494349454e545f4f55545055545f414d4f5560448201527f4e540000000000000000000000000000000000000000000000000000000000006064820152608401610493565b505050505050505050565b600081428110156114ab5760405162461bcd60e51b815260206004820152600f60248201527f526f757465723a204558504952454400000000000000000000000000000000006044820152606401610493565b6114b58685613620565b5060005b87518110156117d05760008882815181106114d6576114d6614ec6565b602002602001015151600114156115485760008983815181106114fb576114fb614ec6565b602002602001015160008151811061151557611515614ec6565b60200260200101519050611540816020015182604001518360000151846060015185608001516136d5565b9150506117b0565b6000808a848151811061155d5761155d614ec6565b602002602001015160018151811061157757611577614ec6565b602002602001015190506000600167ffffffffffffffff81111561159d5761159d61478f565b6040519080825280602002602001820160405280156115c6578160200160208202803683370190505b5090508160000151816000815181106115e1576115e1614ec6565b60200260200101906001600160a01b031690816001600160a01b03168152505060007f00000000000000000000000000000000000000000000000000000000000000006001600160a01b03166367f84adc7f0000000000000000000000000000000000000000000000000000000000000000856020015186604001518760600151876040518663ffffffff1660e01b8152600401611683959493929190614ff7565b600060405180830381865afa1580156116a0573d6000803e3d6000fd5b505050506040513d6000823e601f3d908101601f191682016040526116c8919081019061506b565b9050806000815181106116dd576116dd614ec6565b60200260200101519350826080015184111561173b5760405162461bcd60e51b815260206004820152601e60248201527f526f757465723a204558434553534956455f494e5055545f414d4f554e5400006044820152606401610493565b505060008b858151811061175157611751614ec6565b602002602001015160008151811061176b5761176b614ec6565b602002602001015190506117928160200151826040015183600001518685608001516136d5565b93506117ac82602001518360000151858560600151613882565b5050505b6117ba8185614f89565b93505080806117c890614fa1565b9150506114b9565b50838211156118215760405162461bcd60e51b815260206004820152600c60248201527f4552525f4c494d49545f494e00000000000000000000000000000000000000006044820152606401610493565b611834853361182f88613a6c565b613534565b50611843863361182f89613a6c565b505095945050505050565b606081428110156118a15760405162461bcd60e51b815260206004820152600f60248201527f526f757465723a204558504952454400000000000000000000000000000000006044820152606401610493565b611901897f00000000000000000000000000000000000000000000000000000000000000008a8a8a8a80806020026020016040519081016040528093929190818152602001838360200280828437600092019190915250613b8592505050565b915061194389338888600081811061191b5761191b614ec6565b90506020020160208101906119309190614fda565b85600081518110610e2057610e20614ec6565b6119838983888880806020026020016040519081016040528093929190818152602001838360200280828437600092019190915250309250613d01915050565b6119c873eeeeeeeeeeeeeeeeeeeeeeeeeeeeeeeeeeeeeeee8584600186516119ab9190614f24565b815181106119bb576119bb614ec6565b6020026020010151613534565b5050979650505050505050565b8042811015611a265760405162461bcd60e51b815260206004820152600f60248201527f526f757465723a204558504952454400000000000000000000000000000000006044820152606401610493565b611a3e89338787600081811061103e5761103e614ec6565b6040517f70a082310000000000000000000000000000000000000000000000000000000081526001600160a01b038481166004830152600091908a16906370a0823190602401602060405180830381865afa158015611aa1573d6000803e3d6000fd5b505050506040513d601f19601f82011682018060405250810190611ac59190614f3b565b9050611b068a8787808060200260200160405190810160405280939291908181526020018383602002808284376000920191909152508992506130f5915050565b6040517f70a082310000000000000000000000000000000000000000000000000000000081526001600160a01b038581166004830152889183918c16906370a0823190602401602060405180830381865afa158015611b69573d6000803e3d6000fd5b505050506040513d601f19601f82011682018060405250810190611b8d9190614f3b565b611b979190614f24565b10156111d35760405162461bcd60e51b815260206004820152602260248201527f526f757465723a20494e53554646494349454e545f4f55545055545f414d4f5560448201527f4e540000000000000000000000000000000000000000000000000000000000006064820152608401610493565b60608142811015611c5e5760405162461bcd60e51b815260206004820152600f60248201527f526f757465723a204558504952454400000000000000000000000000000000006044820152606401610493565b865167ffffffffffffffff811115611c7857611c7861478f565b604051908082528060200260200182016040528015611ca1578160200160208202803683370190505b5091508582895181518110611cb857611cb8614ec6565b602002602001018181525050600060018351611cd49190614f24565b90505b8015611e335788611ce9600183614f24565b81518110611cf957611cf9614ec6565b60200260200101516001600160a01b031663cc56fd4389600184611d1d9190614f24565b81518110611d2d57611d2d614ec6565b60200260200101518a8481518110611d4757611d47614ec6565b6020026020010151868581518110611d6157611d61614ec6565b60209081029190910101516040517fffffffff0000000000000000000000000000000000000000000000000000000060e086901b1681526001600160a01b0393841660048201529290911660248301526044820152606401602060405180830381865afa158015611dd6573d6000803e3d6000fd5b505050506040513d601f19601f82011682018060405250810190611dfa9190614f3b565b83611e06600184614f24565b81518110611e1657611e16614ec6565b602090810291909101015280611e2b81614f54565b915050611cd7565b508482600081518110611e4857611e48614ec6565b60200260200101511115611e9e5760405162461bcd60e51b815260206004820152600f60248201527f4558434553534956455f494e50555400000000000000000000000000000000006044820152606401610493565b611eb487600081518110610de957610de9614ec6565b60005b885181101561206257600060018a51611ed09190614f24565b8214611eff5789611ee2836001614f89565b81518110611ef257611ef2614ec6565b6020026020010151611f01565b305b9050898281518110611f1557611f15614ec6565b60200260200101516001600160a01b0316634ac00e038a8481518110611f3d57611f3d614ec6565b60200260200101518b856001611f539190614f89565b81518110611f6357611f63614ec6565b6020026020010151878681518110611f7d57611f7d614ec6565b602002602001015188876001611f939190614f89565b81518110611fa357611fa3614ec6565b60209081029190910101516040517fffffffff0000000000000000000000000000000000000000000000000000000060e087901b1681526001600160a01b039485166004820152928416602484015260448301919091526064820152908416608482015260a4016020604051808303816000875af1158015612029573d6000803e3d6000fd5b505050506040513d601f19601f8201168201806040525081019061204d9190614f3b565b5050808061205a90614fa1565b915050611eb7565b50610fc973eeeeeeeeeeeeeeeeeeeeeeeeeeeeeeeeeeeeeeee8588613534565b606081428110156120d55760405162461bcd60e51b815260206004820152600f60248201527f526f757465723a204558504952454400000000000000000000000000000000006044820152606401610493565b6121357f00000000000000000000000000000000000000000000000000000000000000008989348a8a80806020026020016040519081016040528093929190818152602001838360200280828437600092019190915250613f8292505050565b91506121688260008151811061214d5761214d614ec6565b60200260200101518787600081811061124657611246614ec6565b6121c87f0000000000000000000000000000000000000000000000000000000000000000838888808060200260200160405190810160405280939291908181526020018383602002808284376000920191909152508a9250613d01915050565b816000815181106121db576121db614ec6565b60200260200101513411156122015761220133836000815181106108f0576108f0614ec6565b509695505050505050565b6000814281101561225f5760405162461bcd60e51b815260206004820152600f60248201527f526f757465723a204558504952454400000000000000000000000000000000006044820152606401610493565b8591506122a28760008151811061227857612278614ec6565b6020026020010151338a60008151811061229457612294614ec6565b602002602001015189612f7e565b60005b885181101561241257600060018a516122be9190614f24565b82146122ed57896122d0836001614f89565b815181106122e0576122e0614ec6565b60200260200101516122ef565b855b905089828151811061230357612303614ec6565b60200260200101516001600160a01b0316634ac00e038a848151811061232b5761232b614ec6565b60200260200101518b8560016123419190614f89565b8151811061235157612351614ec6565b60209081029190910101516040517fffffffff0000000000000000000000000000000000000000000000000000000060e085901b1681526001600160a01b03928316600482015290821660248201526044810188905260006064820152908416608482015260a4016020604051808303816000875af11580156123d8573d6000803e3d6000fd5b505050506040513d601f19601f820116820180604052508101906123fc9190614f3b565b935050808061240a90614fa1565b9150506122a5565b50818511156122015760405162461bcd60e51b815260206004820152601360248201527f494e53554646494349454e545f4f5554505554000000000000000000000000006044820152606401610493565b606081428110156124b65760405162461bcd60e51b815260206004820152600f60248201527f526f757465723a204558504952454400000000000000000000000000000000006044820152606401610493565b6124c38989898989613b85565b91506124dd893387600081518110610e0557610e05614ec6565b6124e989838787613d01565b50979650505050505050565b600081428110156125485760405162461bcd60e51b815260206004820152600f60248201527f526f757465723a204558504952454400000000000000000000000000000000006044820152606401610493565b6125528786613620565b50600073eeeeeeeeeeeeeeeeeeeeeeeeeeeeeeeeeeeeeeee6001600160a01b038816146125fd576040517f70a082310000000000000000000000000000000000000000000000000000000081523360048201526001600160a01b038816906370a0823190602401602060405180830381865afa1580156125d6573d6000803e3d6000fd5b505050506040513d601f19601f820116820180604052508101906125fa9190614f3b565b90505b60005b89518110156126ce576000805b8b838151811061261f5761261f614ec6565b6020026020010151518110156126ae5760008c848151811061264357612643614ec6565b6020026020010151828151811061265c5761265c614ec6565b60200260200101519050600082111561267757606081018390525b612698816020015182604001518360000151846060015185608001516140c3565b92505080806126a690614fa1565b91505061260d565b506126b98582614f89565b508190506126c681614fa1565b915050612600565b506126da873385613534565b506126e9883361182f8b613a6c565b5073eeeeeeeeeeeeeeeeeeeeeeeeeeeeeeeeeeeeeeee6001600160a01b0388161415612764578483101561275f5760405162461bcd60e51b815260206004820152600d60248201527f4552525f4c494d49545f4f5554000000000000000000000000000000000000006044820152606401610493565b610fc9565b6040517f70a08231000000000000000000000000000000000000000000000000000000008152336004820152859082906001600160a01b038a16906370a0823190602401602060405180830381865afa1580156127c5573d6000803e3d6000fd5b505050506040513d601f19601f820116820180604052508101906127e99190614f3b565b6127f39190614f24565b1015610fc95760405162461bcd60e51b815260206004820152601260248201527f3c6d696e546f74616c416d6f756e744f757400000000000000000000000000006044820152606401610493565b606081428110156128945760405162461bcd60e51b815260206004820152600f60248201527f526f757465723a204558504952454400000000000000000000000000000000006044820152606401610493565b6128d48a8a8a8a8a8a80806020026020016040519081016040528093929190818152602001838360200280828437600092019190915250613f8292505050565b91506128ee8a338888600081811061191b5761191b614ec6565b61292e8a838888808060200260200160405190810160405280939291908181526020018383602002808284376000920191909152508a9250613d01915050565b5098975050505050505050565b6000814281101561298e5760405162461bcd60e51b815260206004820152600f60248201527f526f757465723a204558504952454400000000000000000000000000000000006044820152606401610493565b8591506129a78760008151811061227857612278614ec6565b60005b8851811015612b1757600060018a516129c39190614f24565b82146129f257896129d5836001614f89565b815181106129e5576129e5614ec6565b60200260200101516129f4565b305b9050898281518110612a0857612a08614ec6565b60200260200101516001600160a01b0316634ac00e038a8481518110612a3057612a30614ec6565b60200260200101518b856001612a469190614f89565b81518110612a5657612a56614ec6565b60209081029190910101516040517fffffffff0000000000000000000000000000000000000000000000000000000060e085901b1681526001600160a01b03928316600482015290821660248201526044810188905260006064820152908416608482015260a4016020604051808303816000875af1158015612add573d6000803e3d6000fd5b505050506040513d601f19601f82011682018060405250810190612b019190614f3b565b9350508080612b0f90614fa1565b9150506129aa565b5081851115612b685760405162461bcd60e51b815260206004820152601360248201527f494e53554646494349454e545f4f5554505554000000000000000000000000006044820152606401610493565b610fc973eeeeeeeeeeeeeeeeeeeeeeeeeeeeeeeeeeeeeeee8584613534565b60608142811015612bda5760405162461bcd60e51b815260206004820152600f60248201527f526f757465723a204558504952454400000000000000000000000000000000006044820152606401610493565b611901897f00000000000000000000000000000000000000000000000000000000000000008a8a8a8a80806020026020016040519081016040528093929190818152602001838360200280828437600092019190915250613f8292505050565b60608142811015612c8d5760405162461bcd60e51b815260206004820152600f60248201527f526f757465723a204558504952454400000000000000000000000000000000006044820152606401610493565b612ced7f000000000000000000000000000000000000000000000000000000000000000089348a8a8a80806020026020016040519081016040528093929190818152602001838360200280828437600092019190915250613b8592505050565b9150612d058260008151811061214d5761214d614ec6565b6122017f0000000000000000000000000000000000000000000000000000000000000000838888808060200260200160405190810160405280939291908181526020018383602002808284376000920191909152508a9250613d01915050565b7f00000000000000000000000000000000000000000000000000000000000000006001600160a01b031663d0e30db0836040518263ffffffff1660e01b81526004016000604051808303818588803b158015612dc057600080fd5b505af1158015612dd4573d6000803e3d6000fd5b50506040517fa9059cbb0000000000000000000000000000000000000000000000000000000081526001600160a01b038581166004830152602482018790527f000000000000000000000000000000000000000000000000000000000000000016935063a9059cbb925060440190506020604051808303816000875af1158015612e62573d6000803e3d6000fd5b505050506040513d601f19601f82011682018060405250810190612e8691906150fc565b612e9257612e92614760565b5050565b604080516000808252602082019092526001600160a01b038416908390604051612ec0919061514e565b60006040518083038185875af1925050503d8060008114612efd576040519150601f19603f3d011682016040523d82523d6000602084013e612f02565b606091505b5050905080612f795760405162461bcd60e51b815260206004820152602360248201527f5472616e7366657248656c7065723a204554485f5452414e534645525f46414960448201527f4c454400000000000000000000000000000000000000000000000000000000006064820152608401610493565b505050565b604080516001600160a01b0385811660248301528481166044830152606480830185905283518084039091018152608490920183526020820180517bffffffffffffffffffffffffffffffffffffffffffffffffffffffff167f23b872dd000000000000000000000000000000000000000000000000000000001790529151600092839290881691613010919061514e565b6000604051808303816000865af19150503d806000811461304d576040519150601f19603f3d011682016040523d82523d6000602084013e613052565b606091505b509150915081801561307c57508051158061307c57508080602001905181019061307c91906150fc565b6130ed5760405162461bcd60e51b8152602060048201526024808201527f5472616e7366657248656c7065723a205452414e534645525f46524f4d5f464160448201527f494c4544000000000000000000000000000000000000000000000000000000006064820152608401610493565b505050505050565b8260005b835181101561352d57600084828151811061311657613116614ec6565b6020026020010151905060008060008060008060008060007f00000000000000000000000000000000000000000000000000000000000000006001600160a01b031663b33d96b07f00000000000000000000000000000000000000000000000000000000000000008c8f6040518463ffffffff1660e01b81526004016131bc939291906001600160a01b0393841681529183166020830152909116604082015260600190565b60c060405180830381865afa1580156131d9573d6000803e3d6000fd5b505050506040513d601f19601f820116820180604052508101906131fd919061517e565b955095509550955095509550848c6001600160a01b03166370a082318c6040518263ffffffff1660e01b815260040161324591906001600160a01b0391909116815260200190565b602060405180830381865afa158015613262573d6000803e3d6000fd5b505050506040513d601f19601f820116820180604052508101906132869190614f3b565b6132909190614f24565b6040517f671a11b500000000000000000000000000000000000000000000000000000000815260048101829052602481018790526044810186905263ffffffff80861660648301528085166084830152831660a48201529099507f00000000000000000000000000000000000000000000000000000000000000006001600160a01b03169063671a11b59060c401602060405180830381865afa15801561333b573d6000803e3d6000fd5b505050506040513d601f19601f8201168201806040525081019061335f9190614f3b565b9750859650505050505050600080856001600160a01b0316630dfe16816040518163ffffffff1660e01b8152600401602060405180830381865afa1580156133ab573d6000803e3d6000fd5b505050506040513d601f19601f820116820180604052508101906133cf91906151e7565b6001600160a01b0316886001600160a01b0316146133ef578360006133f3565b6000845b91509150600060018b516134079190614f24565b88106134135789613438565b8a61341f896001614f89565b8151811061342f5761342f614ec6565b60200260200101515b604080516000815260208101918290527f022c0d9f000000000000000000000000000000000000000000000000000000009091529091506001600160a01b0388169063022c0d9f906134939086908690869060248101615204565b600060405180830381600087803b1580156134ad57600080fd5b505af11580156134c1573d6000803e3d6000fd5b5050604080516001600160a01b038b81168252602082018a905288168183015290517fddac40937f35385a34f721af292e5a83fc5b840f722bff57c2fc71adba708c489350908190036060019150a183985050505050505050808061352590614fa1565b9150506130f9565b5050505050565b60008161354357506001613619565b73eeeeeeeeeeeeeeeeeeeeeeeeeeeeeeeeeeeeeeee6001600160a01b038516141561360a576040517f2e1a7d4d000000000000000000000000000000000000000000000000000000008152600481018390527f00000000000000000000000000000000000000000000000000000000000000006001600160a01b031690632e1a7d4d90602401600060405180830381600087803b1580156135e357600080fd5b505af11580156135f7573d6000803e3d6000fd5b505050506136058383612e96565b613615565b61361584848461461e565b5060015b9392505050565b600073eeeeeeeeeeeeeeeeeeeeeeeeeeeeeeeeeeeeeeee6001600160a01b03841614156136c0577f00000000000000000000000000000000000000000000000000000000000000006001600160a01b031663d0e30db0346040518263ffffffff1660e01b81526004016000604051808303818588803b1580156136a257600080fd5b505af11580156136b6573d6000803e3d6000fd5b50505050506136cc565b6136cc83333085612f7e565b50600192915050565b60408051600180825281830190925260009182919060208083019080368337019050509050848160008151811061370e5761370e614ec6565b6001600160a01b0392831660209182029290920101526040517f67f84adc0000000000000000000000000000000000000000000000000000000081526000917f000000000000000000000000000000000000000000000000000000000000000016906367f84adc906137ac907f0000000000000000000000000000000000000000000000000000000000000000908c908c908b908990600401614ff7565b600060405180830381865afa1580156137c9573d6000803e3d6000fd5b505050506040513d6000823e601f3d908101601f191682016040526137f1919081019061506b565b90508060008151811061380657613806614ec6565b60200260200101519250838311156138605760405162461bcd60e51b815260206004820152601e60248201527f526f757465723a204558434553534956455f494e5055545f414d4f554e5400006044820152606401610493565b6118438887858460018151811061387957613879614ec6565b60200260200101515b61388d84848461461e565b60008390506000816001600160a01b0316630dfe16816040518163ffffffff1660e01b8152600401602060405180830381865afa1580156138d2573d6000803e3d6000fd5b505050506040513d601f19601f820116820180604052508101906138f691906151e7565b90506000806000836001600160a01b0316896001600160a01b03161461391f5785600085613984565b600086866001600160a01b031663d21220a76040518163ffffffff1660e01b8152600401602060405180830381865afa158015613960573d6000803e3d6000fd5b505050506040513d601f19601f8201168201806040525081019061398491906151e7565b604080516000815260208101918290527f022c0d9f0000000000000000000000000000000000000000000000000000000090915292955090935091506001600160a01b0386169063022c0d9f906139e49086908690309060248101615204565b600060405180830381600087803b1580156139fe57600080fd5b505af1158015613a12573d6000803e3d6000fd5b5050604080516001600160a01b038c81168252602082018b905285168183015290517fddac40937f35385a34f721af292e5a83fc5b840f722bff57c2fc71adba708c489350908190036060019150a1505050505050505050565b600073eeeeeeeeeeeeeeeeeeeeeeeeeeeeeeeeeeeeeeee6001600160a01b0383161415613b3b576040517f70a082310000000000000000000000000000000000000000000000000000000081523060048201527f00000000000000000000000000000000000000000000000000000000000000006001600160a01b0316906370a08231906024015b602060405180830381865afa158015613b11573d6000803e3d6000fd5b505050506040513d601f19601f82011682018060405250810190613b359190614f3b565b92915050565b6040517f70a082310000000000000000000000000000000000000000000000000000000081523060048201526001600160a01b038316906370a0823190602401613af4565b919050565b6040517f119220a50000000000000000000000000000000000000000000000000000000081526060906001600160a01b037f0000000000000000000000000000000000000000000000000000000000000000169063119220a590613c15907f0000000000000000000000000000000000000000000000000000000000000000908a908a908a908990600401614ff7565b600060405180830381865afa158015613c32573d6000803e3d6000fd5b505050506040513d6000823e601f3d908101601f19168201604052613c5a919081019061506b565b9050828160018351613c6c9190614f24565b81518110613c7c57613c7c614ec6565b60200260200101511015613cf85760405162461bcd60e51b815260206004820152602260248201527f526f757465723a20494e53554646494349454e545f4f55545055545f414d4f5560448201527f4e540000000000000000000000000000000000000000000000000000000000006064820152608401610493565b95945050505050565b8360005b83518110156130ed576000848281518110613d2257613d22614ec6565b602002602001015190506000816001600160a01b0316630dfe16816040518163ffffffff1660e01b8152600401602060405180830381865afa158015613d6c573d6000803e3d6000fd5b505050506040513d601f19601f82011682018060405250810190613d9091906151e7565b9050600087613da0856001614f89565b81518110613db057613db0614ec6565b602002602001015190506000806000846001600160a01b0316886001600160a01b031614613de15783600086613e46565b600084876001600160a01b031663d21220a76040518163ffffffff1660e01b8152600401602060405180830381865afa158015613e22573d6000803e3d6000fd5b505050506040513d601f19601f82011682018060405250810190613e4691906151e7565b925092509250600060018b51613e5c9190614f24565b8810613e685789613e8d565b8a613e74896001614f89565b81518110613e8457613e84614ec6565b60200260200101515b604080516000815260208101918290527f022c0d9f000000000000000000000000000000000000000000000000000000009091529091506001600160a01b0388169063022c0d9f90613ee89087908790869060248101615204565b600060405180830381600087803b158015613f0257600080fd5b505af1158015613f16573d6000803e3d6000fd5b5050604080516001600160a01b038b81168252602082018a905286168183015290517fddac40937f35385a34f721af292e5a83fc5b840f722bff57c2fc71adba708c489350908190036060019150a1819850505050505050508080613f7a90614fa1565b915050613d05565b6040517f67f84adc0000000000000000000000000000000000000000000000000000000081526060906001600160a01b037f000000000000000000000000000000000000000000000000000000000000000016906367f84adc90614012907f0000000000000000000000000000000000000000000000000000000000000000908a908a908a908990600401614ff7565b600060405180830381865afa15801561402f573d6000803e3d6000fd5b505050506040513d6000823e601f3d908101601f19168201604052614057919081019061506b565b9050828160008151811061406d5761406d614ec6565b60200260200101511115613cf85760405162461bcd60e51b815260206004820152601e60248201527f526f757465723a204558434553534956455f494e5055545f414d4f554e5400006044820152606401610493565b60006140d086858561461e565b6040517fb33d96b00000000000000000000000000000000000000000000000000000000081526001600160a01b037f00000000000000000000000000000000000000000000000000000000000000008116600483015285811660248301528781166044830152600091829182918291829182917f0000000000000000000000000000000000000000000000000000000000000000169063b33d96b09060640160c060405180830381865afa15801561418c573d6000803e3d6000fd5b505050506040513d601f19601f820116820180604052508101906141b0919061517e565b95509550955095509550506000858d6001600160a01b03166370a082318d6040518263ffffffff1660e01b81526004016141f991906001600160a01b0391909116815260200190565b602060405180830381865afa158015614216573d6000803e3d6000fd5b505050506040513d601f19601f8201168201806040525081019061423a9190614f3b565b6142449190614f24565b6040517f671a11b500000000000000000000000000000000000000000000000000000000815260048101829052602481018890526044810187905263ffffffff80871660648301528086166084830152841660a48201529091507f00000000000000000000000000000000000000000000000000000000000000006001600160a01b03169063671a11b59060c401602060405180830381865afa1580156142ef573d6000803e3d6000fd5b505050506040513d601f19601f820116820180604052508101906143139190614f3b565b6040517f70a08231000000000000000000000000000000000000000000000000000000008152306004820152909750600096506001600160a01b038d1695506370a0823194506024019250614366915050565b602060405180830381865afa158015614383573d6000803e3d6000fd5b505050506040513d601f19601f820116820180604052508101906143a79190614f3b565b9050600080876001600160a01b0316630dfe16816040518163ffffffff1660e01b8152600401602060405180830381865afa1580156143ea573d6000803e3d6000fd5b505050506040513d601f19601f8201168201806040525081019061440e91906151e7565b6001600160a01b03168a6001600160a01b03161461442e57836000614432565b6000845b604080516000815260208101918290527f022c0d9f0000000000000000000000000000000000000000000000000000000090915291935091506001600160a01b0389169063022c0d9f9061448f9085908590309060248101615204565b600060405180830381600087803b1580156144a957600080fd5b505af11580156144bd573d6000803e3d6000fd5b5050604080516001600160a01b038c81168252602082018990528d168183015290517fddac40937f35385a34f721af292e5a83fc5b840f722bff57c2fc71adba708c489350908190036060019150a16040517f70a0823100000000000000000000000000000000000000000000000000000000815230600482015283906001600160a01b038b16906370a0823190602401602060405180830381865afa15801561456b573d6000803e3d6000fd5b505050506040513d601f19601f8201168201806040525081019061458f9190614f3b565b6145999190614f24565b9450858510156146115760405162461bcd60e51b815260206004820152602260248201527f526f757465723a20494e53554646494349454e545f4f55545055545f414d4f5560448201527f4e540000000000000000000000000000000000000000000000000000000000006064820152608401610493565b5050505095945050505050565b604080516001600160a01b038481166024830152604480830185905283518084039091018152606490920183526020820180517bffffffffffffffffffffffffffffffffffffffffffffffffffffffff167fa9059cbb0000000000000000000000000000000000000000000000000000000017905291516000928392908716916146a8919061514e565b6000604051808303816000865af19150503d80600081146146e5576040519150601f19603f3d011682016040523d82523d6000602084013e6146ea565b606091505b509150915081801561471457508051158061471457508080602001905181019061471491906150fc565b61352d5760405162461bcd60e51b815260206004820152601f60248201527f5472616e7366657248656c7065723a205452414e534645525f4641494c4544006044820152606401610493565b7f4e487b7100000000000000000000000000000000000000000000000000000000600052600160045260246000fd5b7f4e487b7100000000000000000000000000000000000000000000000000000000600052604160045260246000fd5b60405160c0810167ffffffffffffffff811182821017156147e1576147e161478f565b60405290565b604051601f8201601f1916810167ffffffffffffffff811182821017156148105761481061478f565b604052919050565b600067ffffffffffffffff8211156148325761483261478f565b5060051b60200190565b6001600160a01b038116811461485157600080fd5b50565b600082601f83011261486557600080fd5b8135602061487a61487583614818565b6147e7565b82815260059290921b8401810191818101908684111561489957600080fd5b8286015b848110156122015780356148b08161483c565b835291830191830161489d565b600080600080600060a086880312156148d557600080fd5b853567ffffffffffffffff808211156148ed57600080fd5b6148f989838a01614854565b9650602088013591508082111561490f57600080fd5b5061491c88828901614854565b9450506040860135925060608601356149348161483c565b949793965091946080013592915050565b6020808252825182820181905260009190848201906040850190845b8181101561497d57835183529284019291840191600101614961565b50909695505050505050565b60008060008060008060c087890312156149a257600080fd5b863567ffffffffffffffff808211156149ba57600080fd5b6149c68a838b01614854565b975060208901359150808211156149dc57600080fd5b506149e989828a01614854565b95505060408701359350606087013592506080870135614a088161483c565b8092505060a087013590509295509295509295565b60008083601f840112614a2f57600080fd5b50813567ffffffffffffffff811115614a4757600080fd5b6020830191508360208260051b8501011115614a6257600080fd5b9250929050565b600080600080600080600060c0888a031215614a8457600080fd5b8735614a8f8161483c565b96506020880135955060408801359450606088013567ffffffffffffffff811115614ab957600080fd5b614ac58a828b01614a1d565b9095509350506080880135614ad98161483c565b8092505060a0880135905092959891949750929550565b60008060008060008060a08789031215614b0957600080fd5b8635614b148161483c565b955060208701359450604087013567ffffffffffffffff811115614b3757600080fd5b614b4389828a01614a1d565b9095509350506060870135614b578161483c565b80925050608087013590509295509295509295565b600082601f830112614b7d57600080fd5b81356020614b8d61487583614818565b82815260059290921b84018101918181019086841115614bac57600080fd5b8286015b8481101561220157803567ffffffffffffffff811115614bd05760008081fd5b8701603f81018913614be25760008081fd5b848101356040614bf461487583614818565b82815260c0928302840182019288820191908d851115614c145760008081fd5b948301945b84861015614c955780868f031215614c315760008081fd5b614c396147be565b8635614c448161483c565b8152868b0135614c538161483c565b818c015286850135614c648161483c565b81860152606087810135908201526080808801359082015260a0808801359082015283529485019491890191614c19565b50875250505092840192508301614bb0565b600080600080600060a08688031215614cbf57600080fd5b853567ffffffffffffffff811115614cd657600080fd5b614ce288828901614b6c565b9550506020860135614cf38161483c565b93506040860135614d038161483c565b94979396509394606081013594506080013592915050565b60008060008060008060008060e0898b031215614d3757600080fd5b8835614d428161483c565b97506020890135614d528161483c565b96506040890135955060608901359450608089013567ffffffffffffffff811115614d7c57600080fd5b614d888b828c01614a1d565b90955093505060a0890135614d9c8161483c565b8092505060c089013590509295985092959890939650565b600080600080600080600060e0888a031215614dcf57600080fd5b8735614dda8161483c565b96506020880135614dea8161483c565b95506040880135945060608801359350608088013567ffffffffffffffff811115614e1457600080fd5b614e208a828b01614854565b93505060a0880135614e318161483c565b8092505060c0880135905092959891949750929550565b60008060008060008060c08789031215614e6157600080fd5b863567ffffffffffffffff811115614e7857600080fd5b614e8489828a01614b6c565b9650506020870135614e958161483c565b94506040870135614ea58161483c565b959894975094956060810135955060808101359460a0909101359350915050565b7f4e487b7100000000000000000000000000000000000000000000000000000000600052603260045260246000fd5b7f4e487b7100000000000000000000000000000000000000000000000000000000600052601160045260246000fd5b600082821015614f3657614f36614ef5565b500390565b600060208284031215614f4d57600080fd5b5051919050565b600081614f6357614f63614ef5565b507fffffffffffffffffffffffffffffffffffffffffffffffffffffffffffffffff0190565b60008219821115614f9c57614f9c614ef5565b500190565b60007fffffffffffffffffffffffffffffffffffffffffffffffffffffffffffffffff821415614fd357614fd3614ef5565b5060010190565b600060208284031215614fec57600080fd5b81356136198161483c565b600060a082016001600160a01b038089168452602081891681860152818816604086015286606086015260a0608086015282865180855260c087019150828801945060005b8181101561505a57855185168352948301949183019160010161503c565b50909b9a5050505050505050505050565b6000602080838503121561507e57600080fd5b825167ffffffffffffffff81111561509557600080fd5b8301601f810185136150a657600080fd5b80516150b461487582614818565b81815260059190911b820183019083810190878311156150d357600080fd5b928401925b828410156150f1578351825292840192908401906150d8565b979650505050505050565b60006020828403121561510e57600080fd5b8151801515811461361957600080fd5b60005b83811015615139578181015183820152602001615121565b83811115615148576000848401525b50505050565b6000825161516081846020870161511e565b9190910192915050565b805163ffffffff81168114613b8057600080fd5b60008060008060008060c0878903121561519757600080fd5b86516151a28161483c565b60208801516040890151919750955093506151bf6060880161516a565b92506151cd6080880161516a565b91506151db60a0880161516a565b90509295509295509295565b6000602082840312156151f957600080fd5b81516136198161483c565b8481528360208201526001600160a01b0383166040820152608060608201526000825180608084015261523e8160a085016020870161511e565b601f01601f19169190910160a0019594505050505056fea26469706673582212204b32ea6c114f9bc2ac74b91599cdc2f9080744f208bcb28350967c935a6f20ad64736f6c634300080a0033",
  "linkReferences": {},
  "deployedLinkReferences": {}
}