{
  "_format": "hh-sol-artifact-1",
  "contractName": "RequiemQRouter",
  "sourceName": "contracts/RequiemQRouter.sol",
  "abi": [
    {
      "inputs": [
        {
          "internalType": "address",
          "name": "_factory",
          "type": "address"
        },
        {
          "internalType": "address",
          "name": "_WETH",
          "type": "address"
        }
      ],
      "stateMutability": "nonpayable",
      "type": "constructor"
    },
    {
      "anonymous": false,
      "inputs": [
        {
          "indexed": false,
          "internalType": "address",
          "name": "pair",
          "type": "address"
        },
        {
          "indexed": false,
          "internalType": "uint256",
          "name": "amountOut",
          "type": "uint256"
        },
        {
          "indexed": false,
          "internalType": "address",
          "name": "output",
          "type": "address"
        }
      ],
      "name": "Exchange",
      "type": "event"
    },
    {
      "inputs": [],
      "name": "WETH",
      "outputs": [
        {
          "internalType": "address",
          "name": "",
          "type": "address"
        }
      ],
      "stateMutability": "view",
      "type": "function"
    },
    {
      "inputs": [],
      "name": "factory",
      "outputs": [
        {
          "internalType": "address",
          "name": "",
          "type": "address"
        }
      ],
      "stateMutability": "view",
      "type": "function"
    },
    {
      "inputs": [],
      "name": "formula",
      "outputs": [
        {
          "internalType": "address",
          "name": "",
          "type": "address"
        }
      ],
      "stateMutability": "view",
      "type": "function"
    },
    {
      "inputs": [
        {
          "components": [
            {
              "internalType": "address",
              "name": "pool",
              "type": "address"
            },
            {
              "internalType": "address",
              "name": "tokenIn",
              "type": "address"
            },
            {
              "internalType": "address",
              "name": "tokenOut",
              "type": "address"
            },
            {
              "internalType": "uint256",
              "name": "swapAmount",
              "type": "uint256"
            },
            {
              "internalType": "uint256",
              "name": "limitReturnAmount",
              "type": "uint256"
            },
            {
              "internalType": "uint256",
              "name": "maxPrice",
              "type": "uint256"
            }
          ],
          "internalType": "struct IRequiemQRouter.Swap[][]",
          "name": "swapSequences",
          "type": "tuple[][]"
        },
        {
          "internalType": "address",
          "name": "tokenIn",
          "type": "address"
        },
        {
          "internalType": "address",
          "name": "tokenOut",
          "type": "address"
        },
        {
          "internalType": "uint256",
          "name": "totalAmountIn",
          "type": "uint256"
        },
        {
          "internalType": "uint256",
          "name": "minTotalAmountOut",
          "type": "uint256"
        },
        {
          "internalType": "uint256",
          "name": "deadline",
          "type": "uint256"
        }
      ],
      "name": "multihopBatchSwapExactIn",
      "outputs": [
        {
          "internalType": "uint256",
          "name": "totalAmountOut",
          "type": "uint256"
        }
      ],
      "stateMutability": "payable",
      "type": "function"
    },
    {
      "inputs": [
        {
          "components": [
            {
              "internalType": "address",
              "name": "pool",
              "type": "address"
            },
            {
              "internalType": "address",
              "name": "tokenIn",
              "type": "address"
            },
            {
              "internalType": "address",
              "name": "tokenOut",
              "type": "address"
            },
            {
              "internalType": "uint256",
              "name": "swapAmount",
              "type": "uint256"
            },
            {
              "internalType": "uint256",
              "name": "limitReturnAmount",
              "type": "uint256"
            },
            {
              "internalType": "uint256",
              "name": "maxPrice",
              "type": "uint256"
            }
          ],
          "internalType": "struct IRequiemQRouter.Swap[][]",
          "name": "swapSequences",
          "type": "tuple[][]"
        },
        {
          "internalType": "address",
          "name": "tokenIn",
          "type": "address"
        },
        {
          "internalType": "address",
          "name": "tokenOut",
          "type": "address"
        },
        {
          "internalType": "uint256",
          "name": "maxTotalAmountIn",
          "type": "uint256"
        },
        {
          "internalType": "uint256",
          "name": "deadline",
          "type": "uint256"
        }
      ],
      "name": "multihopBatchSwapExactOut",
      "outputs": [
        {
          "internalType": "uint256",
          "name": "totalAmountIn",
          "type": "uint256"
        }
      ],
      "stateMutability": "payable",
      "type": "function"
    },
    {
      "inputs": [
        {
          "internalType": "address[]",
          "name": "pools",
          "type": "address[]"
        },
        {
          "internalType": "address[]",
          "name": "tokens",
          "type": "address[]"
        },
        {
          "internalType": "uint256",
          "name": "amountOutMin",
          "type": "uint256"
        },
        {
          "internalType": "address",
          "name": "to",
          "type": "address"
        },
        {
          "internalType": "uint256",
          "name": "deadline",
          "type": "uint256"
        }
      ],
      "name": "onSwapExactETHForTokens",
      "outputs": [
        {
          "internalType": "uint256",
          "name": "amountLast",
          "type": "uint256"
        }
      ],
      "stateMutability": "payable",
      "type": "function"
    },
    {
      "inputs": [
        {
          "internalType": "address[]",
          "name": "pools",
          "type": "address[]"
        },
        {
          "internalType": "address[]",
          "name": "tokens",
          "type": "address[]"
        },
        {
          "internalType": "uint256",
          "name": "amountIn",
          "type": "uint256"
        },
        {
          "internalType": "uint256",
          "name": "amountOutMin",
          "type": "uint256"
        },
        {
          "internalType": "address",
          "name": "to",
          "type": "address"
        },
        {
          "internalType": "uint256",
          "name": "deadline",
          "type": "uint256"
        }
      ],
      "name": "onSwapExactTokensForETH",
      "outputs": [
        {
          "internalType": "uint256",
          "name": "amountLast",
          "type": "uint256"
        }
      ],
      "stateMutability": "nonpayable",
      "type": "function"
    },
    {
      "inputs": [
        {
          "internalType": "address[]",
          "name": "pools",
          "type": "address[]"
        },
        {
          "internalType": "address[]",
          "name": "tokens",
          "type": "address[]"
        },
        {
          "internalType": "uint256",
          "name": "amountIn",
          "type": "uint256"
        },
        {
          "internalType": "uint256",
          "name": "amountOutMin",
          "type": "uint256"
        },
        {
          "internalType": "address",
          "name": "to",
          "type": "address"
        },
        {
          "internalType": "uint256",
          "name": "deadline",
          "type": "uint256"
        }
      ],
      "name": "onSwapExactTokensForTokens",
      "outputs": [
        {
          "internalType": "uint256",
          "name": "amountLast",
          "type": "uint256"
        }
      ],
      "stateMutability": "nonpayable",
      "type": "function"
    },
    {
      "inputs": [
        {
          "internalType": "address",
          "name": "tokenOut",
          "type": "address"
        },
        {
          "internalType": "uint256",
          "name": "amountOut",
          "type": "uint256"
        },
        {
          "internalType": "address[]",
          "name": "path",
          "type": "address[]"
        },
        {
          "internalType": "address",
          "name": "to",
          "type": "address"
        },
        {
          "internalType": "uint256",
          "name": "deadline",
          "type": "uint256"
        }
      ],
      "name": "swapETHForExactTokens",
      "outputs": [
        {
          "internalType": "uint256[]",
          "name": "amounts",
          "type": "uint256[]"
        }
      ],
      "stateMutability": "payable",
      "type": "function"
    },
    {
      "inputs": [
        {
          "internalType": "address",
          "name": "tokenOut",
          "type": "address"
        },
        {
          "internalType": "uint256",
          "name": "amountOutMin",
          "type": "uint256"
        },
        {
          "internalType": "address[]",
          "name": "path",
          "type": "address[]"
        },
        {
          "internalType": "address",
          "name": "to",
          "type": "address"
        },
        {
          "internalType": "uint256",
          "name": "deadline",
          "type": "uint256"
        }
      ],
      "name": "swapExactETHForTokens",
      "outputs": [
        {
          "internalType": "uint256[]",
          "name": "amounts",
          "type": "uint256[]"
        }
      ],
      "stateMutability": "payable",
      "type": "function"
    },
    {
      "inputs": [
        {
          "internalType": "address",
          "name": "tokenOut",
          "type": "address"
        },
        {
          "internalType": "uint256",
          "name": "amountOutMin",
          "type": "uint256"
        },
        {
          "internalType": "address[]",
          "name": "path",
          "type": "address[]"
        },
        {
          "internalType": "address",
          "name": "to",
          "type": "address"
        },
        {
          "internalType": "uint256",
          "name": "deadline",
          "type": "uint256"
        }
      ],
      "name": "swapExactETHForTokensSupportingFeeOnTransferTokens",
      "outputs": [],
      "stateMutability": "payable",
      "type": "function"
    },
    {
      "inputs": [
        {
          "internalType": "address",
          "name": "tokenIn",
          "type": "address"
        },
        {
          "internalType": "uint256",
          "name": "amountIn",
          "type": "uint256"
        },
        {
          "internalType": "uint256",
          "name": "amountOutMin",
          "type": "uint256"
        },
        {
          "internalType": "address[]",
          "name": "path",
          "type": "address[]"
        },
        {
          "internalType": "address",
          "name": "to",
          "type": "address"
        },
        {
          "internalType": "uint256",
          "name": "deadline",
          "type": "uint256"
        }
      ],
      "name": "swapExactTokensForETH",
      "outputs": [
        {
          "internalType": "uint256[]",
          "name": "amounts",
          "type": "uint256[]"
        }
      ],
      "stateMutability": "nonpayable",
      "type": "function"
    },
    {
      "inputs": [
        {
          "internalType": "address",
          "name": "tokenIn",
          "type": "address"
        },
        {
          "internalType": "uint256",
          "name": "amountIn",
          "type": "uint256"
        },
        {
          "internalType": "uint256",
          "name": "amountOutMin",
          "type": "uint256"
        },
        {
          "internalType": "address[]",
          "name": "path",
          "type": "address[]"
        },
        {
          "internalType": "address",
          "name": "to",
          "type": "address"
        },
        {
          "internalType": "uint256",
          "name": "deadline",
          "type": "uint256"
        }
      ],
      "name": "swapExactTokensForETHSupportingFeeOnTransferTokens",
      "outputs": [],
      "stateMutability": "nonpayable",
      "type": "function"
    },
    {
      "inputs": [
        {
          "internalType": "address",
          "name": "tokenIn",
          "type": "address"
        },
        {
          "internalType": "address",
          "name": "tokenOut",
          "type": "address"
        },
        {
          "internalType": "uint256",
          "name": "amountIn",
          "type": "uint256"
        },
        {
          "internalType": "uint256",
          "name": "amountOutMin",
          "type": "uint256"
        },
        {
          "internalType": "address[]",
          "name": "path",
          "type": "address[]"
        },
        {
          "internalType": "address",
          "name": "to",
          "type": "address"
        },
        {
          "internalType": "uint256",
          "name": "deadline",
          "type": "uint256"
        }
      ],
      "name": "swapExactTokensForTokens",
      "outputs": [
        {
          "internalType": "uint256[]",
          "name": "amounts",
          "type": "uint256[]"
        }
      ],
      "stateMutability": "nonpayable",
      "type": "function"
    },
    {
      "inputs": [
        {
          "internalType": "address",
          "name": "tokenIn",
          "type": "address"
        },
        {
          "internalType": "address",
          "name": "tokenOut",
          "type": "address"
        },
        {
          "internalType": "uint256",
          "name": "amountIn",
          "type": "uint256"
        },
        {
          "internalType": "uint256",
          "name": "amountOutMin",
          "type": "uint256"
        },
        {
          "internalType": "address[]",
          "name": "path",
          "type": "address[]"
        },
        {
          "internalType": "address",
          "name": "to",
          "type": "address"
        },
        {
          "internalType": "uint256",
          "name": "deadline",
          "type": "uint256"
        }
      ],
      "name": "swapExactTokensForTokensSupportingFeeOnTransferTokens",
      "outputs": [],
      "stateMutability": "nonpayable",
      "type": "function"
    },
    {
      "inputs": [
        {
          "internalType": "address",
          "name": "tokenIn",
          "type": "address"
        },
        {
          "internalType": "uint256",
          "name": "amountOut",
          "type": "uint256"
        },
        {
          "internalType": "uint256",
          "name": "amountInMax",
          "type": "uint256"
        },
        {
          "internalType": "address[]",
          "name": "path",
          "type": "address[]"
        },
        {
          "internalType": "address",
          "name": "to",
          "type": "address"
        },
        {
          "internalType": "uint256",
          "name": "deadline",
          "type": "uint256"
        }
      ],
      "name": "swapTokensForExactETH",
      "outputs": [
        {
          "internalType": "uint256[]",
          "name": "amounts",
          "type": "uint256[]"
        }
      ],
      "stateMutability": "nonpayable",
      "type": "function"
    },
    {
      "inputs": [
        {
          "internalType": "address",
          "name": "tokenIn",
          "type": "address"
        },
        {
          "internalType": "address",
          "name": "tokenOut",
          "type": "address"
        },
        {
          "internalType": "uint256",
          "name": "amountOut",
          "type": "uint256"
        },
        {
          "internalType": "uint256",
          "name": "amountInMax",
          "type": "uint256"
        },
        {
          "internalType": "address[]",
          "name": "path",
          "type": "address[]"
        },
        {
          "internalType": "address",
          "name": "to",
          "type": "address"
        },
        {
          "internalType": "uint256",
          "name": "deadline",
          "type": "uint256"
        }
      ],
      "name": "swapTokensForExactTokens",
      "outputs": [
        {
          "internalType": "uint256[]",
          "name": "amounts",
          "type": "uint256[]"
        }
      ],
      "stateMutability": "nonpayable",
      "type": "function"
    },
    {
      "stateMutability": "payable",
      "type": "receive"
    }
  ],
  "bytecode": "0x60e06040523480156200001157600080fd5b5060405162004668380380620046688339810160408190526200003491620000db565b6001600160a01b038216608081905260408051634b75f54f60e01b81529051634b75f54f916004808201926020929091908290030181865afa1580156200007f573d6000803e3d6000fd5b505050506040513d601f19601f82011682018060405250810190620000a5919062000113565b6001600160a01b0390811660a0521660c0525062000138565b80516001600160a01b0381168114620000d657600080fd5b919050565b60008060408385031215620000ef57600080fd5b620000fa83620000be565b91506200010a60208401620000be565b90509250929050565b6000602082840312156200012657600080fd5b6200013182620000be565b9392505050565b60805160a05160c05161443c6200022c600039600081816101220152818161026d015281816106da015281816108ff01528181610eb8015281816112810152818161131401528181611dc601528181611e7801528181611ef001528181611f4d01528181611ffb01528181612695015281816127470152612bbf01526000818161018e01528181610c160152818161222e015281816123ea0152818161284d01528181612cb6015281816130b30152818161332b01526134860152600081816102f401528181610c450152818161225d0152818161287a01528181612ce3015281816130e001526132e6015261443c6000f3fe6080604052600436106101125760003560e01c8063b05f579e116100a5578063ce81963211610074578063f35aaf6311610059578063f35aaf6314610349578063fa3219d514610369578063fde1adda1461038957600080fd5b8063ce81963214610316578063d59e44ee1461032957600080fd5b8063b05f579e1461028f578063b4e819fd146102a2578063bff51d71146102c2578063c45a0155146102e257600080fd5b8063840c34d0116100e1578063840c34d0146101fb5780639c91fcb51461020e578063a67d0e3c1461023b578063ad5c46481461025b57600080fd5b80630d1424a3146101565780634b75f54f1461017c5780635cae0310146101c8578063674ee80b146101e857600080fd5b3661015157336001600160a01b037f0000000000000000000000000000000000000000000000000000000000000000161461014f5761014f613946565b005b600080fd5b610169610164366004613aa3565b61039c565b6040519081526020015b60405180910390f35b34801561018857600080fd5b506101b07f000000000000000000000000000000000000000000000000000000000000000081565b6040516001600160a01b039091168152602001610173565b3480156101d457600080fd5b5061014f6101e3366004613b77565b6105e6565b61014f6101f6366004613bfe565b6107f0565b610169610209366004613db5565b610a69565b34801561021a57600080fd5b5061022e610229366004613b77565b610e5f565b6040516101739190613e29565b34801561024757600080fd5b5061014f610256366004613e6d565b610ff3565b34801561026757600080fd5b506101b07f000000000000000000000000000000000000000000000000000000000000000081565b61022e61029d366004613bfe565b611229565b3480156102ae57600080fd5b506101696102bd366004613f06565b6113cb565b3480156102ce57600080fd5b5061022e6102dd366004613f9a565b611622565b3480156102ee57600080fd5b506101b07f000000000000000000000000000000000000000000000000000000000000000081565b61016961032436600461402e565b6116cf565b34801561033557600080fd5b5061022e610344366004613e6d565b611a27565b34801561035557600080fd5b50610169610364366004613f06565b611b21565b34801561037557600080fd5b5061022e610384366004613b77565b611d6d565b61022e610397366004613bfe565b611e20565b600081428110156103f45760405162461bcd60e51b815260206004820152600f60248201527f526f757465723a2045585049524544000000000000000000000000000000000060448201526064015b60405180910390fd5b34915061041b348860008151811061040e5761040e6140ac565b6020026020010151611f4b565b60005b875181101561058b57600060018951610437919061410a565b82146104665788610449836001614121565b81518110610459576104596140ac565b6020026020010151610468565b855b905088828151811061047c5761047c6140ac565b60200260200101516001600160a01b0316634ac00e038984815181106104a4576104a46140ac565b60200260200101518a8560016104ba9190614121565b815181106104ca576104ca6140ac565b60209081029190910101516040517fffffffff0000000000000000000000000000000000000000000000000000000060e085901b1681526001600160a01b03928316600482015290821660248201526044810188905260006064820152908416608482015260a4016020604051808303816000875af1158015610551573d6000803e3d6000fd5b505050506040513d601f19601f820116820180604052508101906105759190614139565b935050808061058390614152565b91505061041e565b50818511156105dc5760405162461bcd60e51b815260206004820152601360248201527f494e53554646494349454e545f4f55545055540000000000000000000000000060448201526064016103eb565b5095945050505050565b80428110156106375760405162461bcd60e51b815260206004820152600f60248201527f526f757465723a2045585049524544000000000000000000000000000000000060448201526064016103eb565b61066a88338787600081811061064f5761064f6140ac565b9050602002016020810190610664919061418b565b8a61207c565b6106a9888686808060200260200160405190810160405280939291908181526020018383602002808284376000920191909152503092506121f3915050565b6040517f70a082310000000000000000000000000000000000000000000000000000000081523060048201526000907f00000000000000000000000000000000000000000000000000000000000000006001600160a01b0316906370a0823190602401602060405180830381865afa158015610729573d6000803e3d6000fd5b505050506040513d601f19601f8201168201806040525081019061074d9190614139565b9050868110156107c55760405162461bcd60e51b815260206004820152602260248201527f526f757465723a20494e53554646494349454e545f4f55545055545f414d4f5560448201527f4e5400000000000000000000000000000000000000000000000000000000000060648201526084016103eb565b6107e473eeeeeeeeeeeeeeeeeeeeeeeeeeeeeeeeeeeeeeee8583612632565b50505050505050505050565b80428110156108415760405162461bcd60e51b815260206004820152600f60248201527f526f757465723a2045585049524544000000000000000000000000000000000060448201526064016103eb565b34610871818787600081610857576108576140ac565b905060200201602081019061086c919061418b565b611f4b565b6040517f70a082310000000000000000000000000000000000000000000000000000000081526001600160a01b038581166004830152600091908a16906370a0823190602401602060405180830381865afa1580156108d4573d6000803e3d6000fd5b505050506040513d601f19601f820116820180604052508101906108f89190614139565b90506109597f00000000000000000000000000000000000000000000000000000000000000008888808060200260200160405190810160405280939291908181526020018383602002808284376000920191909152508a92506121f3915050565b6040517f70a082310000000000000000000000000000000000000000000000000000000081526001600160a01b038681166004830152899183918c16906370a0823190602401602060405180830381865afa1580156109bc573d6000803e3d6000fd5b505050506040513d601f19601f820116820180604052508101906109e09190614139565b6109ea919061410a565b1015610a5e5760405162461bcd60e51b815260206004820152602260248201527f526f757465723a20494e53554646494349454e545f4f55545055545f414d4f5560448201527f4e5400000000000000000000000000000000000000000000000000000000000060648201526084016103eb565b505050505050505050565b60008142811015610abc5760405162461bcd60e51b815260206004820152600f60248201527f526f757465723a2045585049524544000000000000000000000000000000000060448201526064016103eb565b610ac6868561271e565b5060005b8751811015610de1576000888281518110610ae757610ae76140ac565b60200260200101515160011415610b59576000898381518110610b0c57610b0c6140ac565b6020026020010151600081518110610b2657610b266140ac565b60200260200101519050610b51816020015182604001518360000151846060015185608001516127d3565b915050610dc1565b6000808a8481518110610b6e57610b6e6140ac565b6020026020010151600181518110610b8857610b886140ac565b602002602001015190506000600167ffffffffffffffff811115610bae57610bae613975565b604051908082528060200260200182016040528015610bd7578160200160208202803683370190505b509050816000015181600081518110610bf257610bf26140ac565b60200260200101906001600160a01b031690816001600160a01b03168152505060007f00000000000000000000000000000000000000000000000000000000000000006001600160a01b03166367f84adc7f0000000000000000000000000000000000000000000000000000000000000000856020015186604001518760600151876040518663ffffffff1660e01b8152600401610c949594939291906141a8565b600060405180830381865afa158015610cb1573d6000803e3d6000fd5b505050506040513d6000823e601f3d908101601f19168201604052610cd9919081019061421c565b905080600081518110610cee57610cee6140ac565b602002602001015193508260800151841115610d4c5760405162461bcd60e51b815260206004820152601e60248201527f526f757465723a204558434553534956455f494e5055545f414d4f554e54000060448201526064016103eb565b505060008b8581518110610d6257610d626140ac565b6020026020010151600081518110610d7c57610d7c6140ac565b60200260200101519050610da38160200151826040015183600001518685608001516127d3565b9350610dbd82602001518360000151858560600151612980565b5050505b610dcb8185614121565b9350508080610dd990614152565b915050610aca565b5083821115610e325760405162461bcd60e51b815260206004820152600c60248201527f4552525f4c494d49545f494e000000000000000000000000000000000000000060448201526064016103eb565b610e458533610e4088612b6a565b612632565b50610e548633610e4089612b6a565b505095945050505050565b60608142811015610eb25760405162461bcd60e51b815260206004820152600f60248201527f526f757465723a2045585049524544000000000000000000000000000000000060448201526064016103eb565b610f12897f00000000000000000000000000000000000000000000000000000000000000008a8a8a8a80806020026020016040519081016040528093929190818152602001838360200280828437600092019190915250612c8392505050565b9150610f61893388886000818110610f2c57610f2c6140ac565b9050602002016020810190610f41919061418b565b85600081518110610f5457610f546140ac565b602002602001015161207c565b610fa18983888880806020026020016040519081016040528093929190818152602001838360200280828437600092019190915250309250612dff915050565b610fe673eeeeeeeeeeeeeeeeeeeeeeeeeeeeeeeeeeeeeeee858460018651610fc9919061410a565b81518110610fd957610fd96140ac565b6020026020010151612632565b5050979650505050505050565b80428110156110445760405162461bcd60e51b815260206004820152600f60248201527f526f757465723a2045585049524544000000000000000000000000000000000060448201526064016103eb565b61105c89338787600081811061064f5761064f6140ac565b6040517f70a082310000000000000000000000000000000000000000000000000000000081526001600160a01b038481166004830152600091908a16906370a0823190602401602060405180830381865afa1580156110bf573d6000803e3d6000fd5b505050506040513d601f19601f820116820180604052508101906110e39190614139565b90506111248a8787808060200260200160405190810160405280939291908181526020018383602002808284376000920191909152508992506121f3915050565b6040517f70a082310000000000000000000000000000000000000000000000000000000081526001600160a01b038581166004830152889183918c16906370a0823190602401602060405180830381865afa158015611187573d6000803e3d6000fd5b505050506040513d601f19601f820116820180604052508101906111ab9190614139565b6111b5919061410a565b10156107e45760405162461bcd60e51b815260206004820152602260248201527f526f757465723a20494e53554646494349454e545f4f55545055545f414d4f5560448201527f4e5400000000000000000000000000000000000000000000000000000000000060648201526084016103eb565b6060814281101561127c5760405162461bcd60e51b815260206004820152600f60248201527f526f757465723a2045585049524544000000000000000000000000000000000060448201526064016103eb565b6112dc7f00000000000000000000000000000000000000000000000000000000000000008989348a8a8080602002602001604051908101604052809392919081815260200183836020028082843760009201919091525061308092505050565b915061130f826000815181106112f4576112f46140ac565b602002602001015187876000818110610857576108576140ac565b61136f7f0000000000000000000000000000000000000000000000000000000000000000838888808060200260200160405190810160405280939291908181526020018383602002808284376000920191909152508a9250612dff915050565b81600081518110611382576113826140ac565b60200260200101513411156113c0576113c033836000815181106113a8576113a86140ac565b6020026020010151346113bb919061410a565b6131c1565b509695505050505050565b6000814281101561141e5760405162461bcd60e51b815260206004820152600f60248201527f526f757465723a2045585049524544000000000000000000000000000000000060448201526064016103eb565b85915061146187600081518110611437576114376140ac565b6020026020010151338a600081518110611453576114536140ac565b60200260200101518961207c565b60005b88518110156115d157600060018a5161147d919061410a565b82146114ac578961148f836001614121565b8151811061149f5761149f6140ac565b60200260200101516114ae565b855b90508982815181106114c2576114c26140ac565b60200260200101516001600160a01b0316634ac00e038a84815181106114ea576114ea6140ac565b60200260200101518b8560016115009190614121565b81518110611510576115106140ac565b60209081029190910101516040517fffffffff0000000000000000000000000000000000000000000000000000000060e085901b1681526001600160a01b03928316600482015290821660248201526044810188905260006064820152908416608482015260a4016020604051808303816000875af1158015611597573d6000803e3d6000fd5b505050506040513d601f19601f820116820180604052508101906115bb9190614139565b93505080806115c990614152565b915050611464565b50818511156113c05760405162461bcd60e51b815260206004820152601360248201527f494e53554646494349454e545f4f55545055540000000000000000000000000060448201526064016103eb565b606081428110156116755760405162461bcd60e51b815260206004820152600f60248201527f526f757465723a2045585049524544000000000000000000000000000000000060448201526064016103eb565b6116828989898989612c83565b91506116b789338760008151811061169c5761169c6140ac565b602002602001015185600081518110610f5457610f546140ac565b6116c389838787612dff565b50979650505050505050565b600081428110156117225760405162461bcd60e51b815260206004820152600f60248201527f526f757465723a2045585049524544000000000000000000000000000000000060448201526064016103eb565b61172c878661271e565b50600073eeeeeeeeeeeeeeeeeeeeeeeeeeeeeeeeeeeeeeee6001600160a01b038816146117d7576040517f70a082310000000000000000000000000000000000000000000000000000000081523360048201526001600160a01b038816906370a0823190602401602060405180830381865afa1580156117b0573d6000803e3d6000fd5b505050506040513d601f19601f820116820180604052508101906117d49190614139565b90505b60005b89518110156118a8576000805b8b83815181106117f9576117f96140ac565b6020026020010151518110156118885760008c848151811061181d5761181d6140ac565b60200260200101518281518110611836576118366140ac565b60200260200101519050600082111561185157606081018390525b611872816020015182604001518360000151846060015185608001516132a9565b925050808061188090614152565b9150506117e7565b506118938582614121565b508190506118a081614152565b9150506117da565b506118b4873385612632565b506118c38833610e408b612b6a565b5073eeeeeeeeeeeeeeeeeeeeeeeeeeeeeeeeeeeeeeee6001600160a01b038816141561193e57848310156119395760405162461bcd60e51b815260206004820152600d60248201527f4552525f4c494d49545f4f55540000000000000000000000000000000000000060448201526064016103eb565b611a1b565b6040517f70a08231000000000000000000000000000000000000000000000000000000008152336004820152859082906001600160a01b038a16906370a0823190602401602060405180830381865afa15801561199f573d6000803e3d6000fd5b505050506040513d601f19601f820116820180604052508101906119c39190614139565b6119cd919061410a565b1015611a1b5760405162461bcd60e51b815260206004820152601260248201527f3c6d696e546f74616c416d6f756e744f7574000000000000000000000000000060448201526064016103eb565b50509695505050505050565b60608142811015611a7a5760405162461bcd60e51b815260206004820152600f60248201527f526f757465723a2045585049524544000000000000000000000000000000000060448201526064016103eb565b611aba8a8a8a8a8a8a8080602002602001604051908101604052809392919081815260200183836020028082843760009201919091525061308092505050565b9150611ad48a3388886000818110610f2c57610f2c6140ac565b611b148a838888808060200260200160405190810160405280939291908181526020018383602002808284376000920191909152508a9250612dff915050565b5098975050505050505050565b60008142811015611b745760405162461bcd60e51b815260206004820152600f60248201527f526f757465723a2045585049524544000000000000000000000000000000000060448201526064016103eb565b859150611b8d87600081518110611437576114376140ac565b60005b8851811015611cfd57600060018a51611ba9919061410a565b8214611bd85789611bbb836001614121565b81518110611bcb57611bcb6140ac565b6020026020010151611bda565b305b9050898281518110611bee57611bee6140ac565b60200260200101516001600160a01b0316634ac00e038a8481518110611c1657611c166140ac565b60200260200101518b856001611c2c9190614121565b81518110611c3c57611c3c6140ac565b60209081029190910101516040517fffffffff0000000000000000000000000000000000000000000000000000000060e085901b1681526001600160a01b03928316600482015290821660248201526044810188905260006064820152908416608482015260a4016020604051808303816000875af1158015611cc3573d6000803e3d6000fd5b505050506040513d601f19601f82011682018060405250810190611ce79190614139565b9350508080611cf590614152565b915050611b90565b5081851115611d4e5760405162461bcd60e51b815260206004820152601360248201527f494e53554646494349454e545f4f55545055540000000000000000000000000060448201526064016103eb565b611a1b73eeeeeeeeeeeeeeeeeeeeeeeeeeeeeeeeeeeeeeee8584612632565b60608142811015611dc05760405162461bcd60e51b815260206004820152600f60248201527f526f757465723a2045585049524544000000000000000000000000000000000060448201526064016103eb565b610f12897f00000000000000000000000000000000000000000000000000000000000000008a8a8a8a8080602002602001604051908101604052809392919081815260200183836020028082843760009201919091525061308092505050565b60608142811015611e735760405162461bcd60e51b815260206004820152600f60248201527f526f757465723a2045585049524544000000000000000000000000000000000060448201526064016103eb565b611ed37f000000000000000000000000000000000000000000000000000000000000000089348a8a8a80806020026020016040519081016040528093929190818152602001838360200280828437600092019190915250612c8392505050565b9150611eeb826000815181106112f4576112f46140ac565b6113c07f0000000000000000000000000000000000000000000000000000000000000000838888808060200260200160405190810160405280939291908181526020018383602002808284376000920191909152508a9250612dff915050565b7f00000000000000000000000000000000000000000000000000000000000000006001600160a01b031663d0e30db0836040518263ffffffff1660e01b81526004016000604051808303818588803b158015611fa657600080fd5b505af1158015611fba573d6000803e3d6000fd5b50506040517fa9059cbb0000000000000000000000000000000000000000000000000000000081526001600160a01b038581166004830152602482018790527f000000000000000000000000000000000000000000000000000000000000000016935063a9059cbb925060440190506020604051808303816000875af1158015612048573d6000803e3d6000fd5b505050506040513d601f19601f8201168201806040525081019061206c91906142ad565b61207857612078613946565b5050565b604080516001600160a01b0385811660248301528481166044830152606480830185905283518084039091018152608490920183526020820180517bffffffffffffffffffffffffffffffffffffffffffffffffffffffff167f23b872dd00000000000000000000000000000000000000000000000000000000179052915160009283929088169161210e91906142ff565b6000604051808303816000865af19150503d806000811461214b576040519150601f19603f3d011682016040523d82523d6000602084013e612150565b606091505b509150915081801561217a57508051158061217a57508080602001905181019061217a91906142ad565b6121eb5760405162461bcd60e51b8152602060048201526024808201527f5472616e7366657248656c7065723a205452414e534645525f46524f4d5f464160448201527f494c45440000000000000000000000000000000000000000000000000000000060648201526084016103eb565b505050505050565b8260005b835181101561262b576000848281518110612214576122146140ac565b6020026020010151905060008060008060008060008060007f00000000000000000000000000000000000000000000000000000000000000006001600160a01b031663b33d96b07f00000000000000000000000000000000000000000000000000000000000000008c8f6040518463ffffffff1660e01b81526004016122ba939291906001600160a01b0393841681529183166020830152909116604082015260600190565b60c060405180830381865afa1580156122d7573d6000803e3d6000fd5b505050506040513d601f19601f820116820180604052508101906122fb919061432f565b955095509550955095509550848c6001600160a01b03166370a082318c6040518263ffffffff1660e01b815260040161234391906001600160a01b0391909116815260200190565b602060405180830381865afa158015612360573d6000803e3d6000fd5b505050506040513d601f19601f820116820180604052508101906123849190614139565b61238e919061410a565b6040517f671a11b500000000000000000000000000000000000000000000000000000000815260048101829052602481018790526044810186905263ffffffff80861660648301528085166084830152831660a48201529099507f00000000000000000000000000000000000000000000000000000000000000006001600160a01b03169063671a11b59060c401602060405180830381865afa158015612439573d6000803e3d6000fd5b505050506040513d601f19601f8201168201806040525081019061245d9190614139565b9750859650505050505050600080856001600160a01b0316630dfe16816040518163ffffffff1660e01b8152600401602060405180830381865afa1580156124a9573d6000803e3d6000fd5b505050506040513d601f19601f820116820180604052508101906124cd9190614398565b6001600160a01b0316886001600160a01b0316146124ed578360006124f1565b6000845b91509150600060018b51612505919061410a565b88106125115789612536565b8a61251d896001614121565b8151811061252d5761252d6140ac565b60200260200101515b604080516000815260208101918290527f022c0d9f000000000000000000000000000000000000000000000000000000009091529091506001600160a01b0388169063022c0d9f9061259190869086908690602481016143b5565b600060405180830381600087803b1580156125ab57600080fd5b505af11580156125bf573d6000803e3d6000fd5b5050604080516001600160a01b038b81168252602082018a905288168183015290517fddac40937f35385a34f721af292e5a83fc5b840f722bff57c2fc71adba708c489350908190036060019150a183985050505050505050808061262390614152565b9150506121f7565b5050505050565b60008161264157506001612717565b73eeeeeeeeeeeeeeeeeeeeeeeeeeeeeeeeeeeeeeee6001600160a01b0385161415612708576040517f2e1a7d4d000000000000000000000000000000000000000000000000000000008152600481018390527f00000000000000000000000000000000000000000000000000000000000000006001600160a01b031690632e1a7d4d90602401600060405180830381600087803b1580156126e157600080fd5b505af11580156126f5573d6000803e3d6000fd5b5050505061270383836131c1565b612713565b612713848484613804565b5060015b9392505050565b600073eeeeeeeeeeeeeeeeeeeeeeeeeeeeeeeeeeeeeeee6001600160a01b03841614156127be577f00000000000000000000000000000000000000000000000000000000000000006001600160a01b031663d0e30db0346040518263ffffffff1660e01b81526004016000604051808303818588803b1580156127a057600080fd5b505af11580156127b4573d6000803e3d6000fd5b50505050506127ca565b6127ca8333308561207c565b50600192915050565b60408051600180825281830190925260009182919060208083019080368337019050509050848160008151811061280c5761280c6140ac565b6001600160a01b0392831660209182029290920101526040517f67f84adc0000000000000000000000000000000000000000000000000000000081526000917f000000000000000000000000000000000000000000000000000000000000000016906367f84adc906128aa907f0000000000000000000000000000000000000000000000000000000000000000908c908c908b9089906004016141a8565b600060405180830381865afa1580156128c7573d6000803e3d6000fd5b505050506040513d6000823e601f3d908101601f191682016040526128ef919081019061421c565b905080600081518110612904576129046140ac565b602002602001015192508383111561295e5760405162461bcd60e51b815260206004820152601e60248201527f526f757465723a204558434553534956455f494e5055545f414d4f554e54000060448201526064016103eb565b610e5488878584600181518110612977576129776140ac565b60200260200101515b61298b848484613804565b60008390506000816001600160a01b0316630dfe16816040518163ffffffff1660e01b8152600401602060405180830381865afa1580156129d0573d6000803e3d6000fd5b505050506040513d601f19601f820116820180604052508101906129f49190614398565b90506000806000836001600160a01b0316896001600160a01b031614612a1d5785600085612a82565b600086866001600160a01b031663d21220a76040518163ffffffff1660e01b8152600401602060405180830381865afa158015612a5e573d6000803e3d6000fd5b505050506040513d601f19601f82011682018060405250810190612a829190614398565b604080516000815260208101918290527f022c0d9f0000000000000000000000000000000000000000000000000000000090915292955090935091506001600160a01b0386169063022c0d9f90612ae290869086903090602481016143b5565b600060405180830381600087803b158015612afc57600080fd5b505af1158015612b10573d6000803e3d6000fd5b5050604080516001600160a01b038c81168252602082018b905285168183015290517fddac40937f35385a34f721af292e5a83fc5b840f722bff57c2fc71adba708c489350908190036060019150a1505050505050505050565b600073eeeeeeeeeeeeeeeeeeeeeeeeeeeeeeeeeeeeeeee6001600160a01b0383161415612c39576040517f70a082310000000000000000000000000000000000000000000000000000000081523060048201527f00000000000000000000000000000000000000000000000000000000000000006001600160a01b0316906370a08231906024015b602060405180830381865afa158015612c0f573d6000803e3d6000fd5b505050506040513d601f19601f82011682018060405250810190612c339190614139565b92915050565b6040517f70a082310000000000000000000000000000000000000000000000000000000081523060048201526001600160a01b038316906370a0823190602401612bf2565b919050565b6040517f119220a50000000000000000000000000000000000000000000000000000000081526060906001600160a01b037f0000000000000000000000000000000000000000000000000000000000000000169063119220a590612d13907f0000000000000000000000000000000000000000000000000000000000000000908a908a908a9089906004016141a8565b600060405180830381865afa158015612d30573d6000803e3d6000fd5b505050506040513d6000823e601f3d908101601f19168201604052612d58919081019061421c565b9050828160018351612d6a919061410a565b81518110612d7a57612d7a6140ac565b60200260200101511015612df65760405162461bcd60e51b815260206004820152602260248201527f526f757465723a20494e53554646494349454e545f4f55545055545f414d4f5560448201527f4e5400000000000000000000000000000000000000000000000000000000000060648201526084016103eb565b95945050505050565b8360005b83518110156121eb576000848281518110612e2057612e206140ac565b602002602001015190506000816001600160a01b0316630dfe16816040518163ffffffff1660e01b8152600401602060405180830381865afa158015612e6a573d6000803e3d6000fd5b505050506040513d601f19601f82011682018060405250810190612e8e9190614398565b9050600087612e9e856001614121565b81518110612eae57612eae6140ac565b602002602001015190506000806000846001600160a01b0316886001600160a01b031614612edf5783600086612f44565b600084876001600160a01b031663d21220a76040518163ffffffff1660e01b8152600401602060405180830381865afa158015612f20573d6000803e3d6000fd5b505050506040513d601f19601f82011682018060405250810190612f449190614398565b925092509250600060018b51612f5a919061410a565b8810612f665789612f8b565b8a612f72896001614121565b81518110612f8257612f826140ac565b60200260200101515b604080516000815260208101918290527f022c0d9f000000000000000000000000000000000000000000000000000000009091529091506001600160a01b0388169063022c0d9f90612fe690879087908690602481016143b5565b600060405180830381600087803b15801561300057600080fd5b505af1158015613014573d6000803e3d6000fd5b5050604080516001600160a01b038b81168252602082018a905286168183015290517fddac40937f35385a34f721af292e5a83fc5b840f722bff57c2fc71adba708c489350908190036060019150a181985050505050505050808061307890614152565b915050612e03565b6040517f67f84adc0000000000000000000000000000000000000000000000000000000081526060906001600160a01b037f000000000000000000000000000000000000000000000000000000000000000016906367f84adc90613110907f0000000000000000000000000000000000000000000000000000000000000000908a908a908a9089906004016141a8565b600060405180830381865afa15801561312d573d6000803e3d6000fd5b505050506040513d6000823e601f3d908101601f19168201604052613155919081019061421c565b9050828160008151811061316b5761316b6140ac565b60200260200101511115612df65760405162461bcd60e51b815260206004820152601e60248201527f526f757465723a204558434553534956455f494e5055545f414d4f554e54000060448201526064016103eb565b604080516000808252602082019092526001600160a01b0384169083906040516131eb91906142ff565b60006040518083038185875af1925050503d8060008114613228576040519150601f19603f3d011682016040523d82523d6000602084013e61322d565b606091505b50509050806132a45760405162461bcd60e51b815260206004820152602360248201527f5472616e7366657248656c7065723a204554485f5452414e534645525f46414960448201527f4c4544000000000000000000000000000000000000000000000000000000000060648201526084016103eb565b505050565b60006132b6868585613804565b6040517fb33d96b00000000000000000000000000000000000000000000000000000000081526001600160a01b037f00000000000000000000000000000000000000000000000000000000000000008116600483015285811660248301528781166044830152600091829182918291829182917f0000000000000000000000000000000000000000000000000000000000000000169063b33d96b09060640160c060405180830381865afa158015613372573d6000803e3d6000fd5b505050506040513d601f19601f82011682018060405250810190613396919061432f565b95509550955095509550506000858d6001600160a01b03166370a082318d6040518263ffffffff1660e01b81526004016133df91906001600160a01b0391909116815260200190565b602060405180830381865afa1580156133fc573d6000803e3d6000fd5b505050506040513d601f19601f820116820180604052508101906134209190614139565b61342a919061410a565b6040517f671a11b500000000000000000000000000000000000000000000000000000000815260048101829052602481018890526044810187905263ffffffff80871660648301528086166084830152841660a48201529091507f00000000000000000000000000000000000000000000000000000000000000006001600160a01b03169063671a11b59060c401602060405180830381865afa1580156134d5573d6000803e3d6000fd5b505050506040513d601f19601f820116820180604052508101906134f99190614139565b6040517f70a08231000000000000000000000000000000000000000000000000000000008152306004820152909750600096506001600160a01b038d1695506370a082319450602401925061354c915050565b602060405180830381865afa158015613569573d6000803e3d6000fd5b505050506040513d601f19601f8201168201806040525081019061358d9190614139565b9050600080876001600160a01b0316630dfe16816040518163ffffffff1660e01b8152600401602060405180830381865afa1580156135d0573d6000803e3d6000fd5b505050506040513d601f19601f820116820180604052508101906135f49190614398565b6001600160a01b03168a6001600160a01b03161461361457836000613618565b6000845b604080516000815260208101918290527f022c0d9f0000000000000000000000000000000000000000000000000000000090915291935091506001600160a01b0389169063022c0d9f9061367590859085903090602481016143b5565b600060405180830381600087803b15801561368f57600080fd5b505af11580156136a3573d6000803e3d6000fd5b5050604080516001600160a01b038c81168252602082018990528d168183015290517fddac40937f35385a34f721af292e5a83fc5b840f722bff57c2fc71adba708c489350908190036060019150a16040517f70a0823100000000000000000000000000000000000000000000000000000000815230600482015283906001600160a01b038b16906370a0823190602401602060405180830381865afa158015613751573d6000803e3d6000fd5b505050506040513d601f19601f820116820180604052508101906137759190614139565b61377f919061410a565b9450858510156137f75760405162461bcd60e51b815260206004820152602260248201527f526f757465723a20494e53554646494349454e545f4f55545055545f414d4f5560448201527f4e5400000000000000000000000000000000000000000000000000000000000060648201526084016103eb565b5050505095945050505050565b604080516001600160a01b038481166024830152604480830185905283518084039091018152606490920183526020820180517bffffffffffffffffffffffffffffffffffffffffffffffffffffffff167fa9059cbb00000000000000000000000000000000000000000000000000000000179052915160009283929087169161388e91906142ff565b6000604051808303816000865af19150503d80600081146138cb576040519150601f19603f3d011682016040523d82523d6000602084013e6138d0565b606091505b50915091508180156138fa5750805115806138fa5750808060200190518101906138fa91906142ad565b61262b5760405162461bcd60e51b815260206004820152601f60248201527f5472616e7366657248656c7065723a205452414e534645525f4641494c45440060448201526064016103eb565b7f4e487b7100000000000000000000000000000000000000000000000000000000600052600160045260246000fd5b7f4e487b7100000000000000000000000000000000000000000000000000000000600052604160045260246000fd5b60405160c0810167ffffffffffffffff811182821017156139c7576139c7613975565b60405290565b604051601f8201601f1916810167ffffffffffffffff811182821017156139f6576139f6613975565b604052919050565b600067ffffffffffffffff821115613a1857613a18613975565b5060051b60200190565b6001600160a01b0381168114613a3757600080fd5b50565b600082601f830112613a4b57600080fd5b81356020613a60613a5b836139fe565b6139cd565b82815260059290921b84018101918181019086841115613a7f57600080fd5b8286015b848110156113c0578035613a9681613a22565b8352918301918301613a83565b600080600080600060a08688031215613abb57600080fd5b853567ffffffffffffffff80821115613ad357600080fd5b613adf89838a01613a3a565b96506020880135915080821115613af557600080fd5b50613b0288828901613a3a565b945050604086013592506060860135613b1a81613a22565b949793965091946080013592915050565b60008083601f840112613b3d57600080fd5b50813567ffffffffffffffff811115613b5557600080fd5b6020830191508360208260051b8501011115613b7057600080fd5b9250929050565b600080600080600080600060c0888a031215613b9257600080fd5b8735613b9d81613a22565b96506020880135955060408801359450606088013567ffffffffffffffff811115613bc757600080fd5b613bd38a828b01613b2b565b9095509350506080880135613be781613a22565b8092505060a0880135905092959891949750929550565b60008060008060008060a08789031215613c1757600080fd5b8635613c2281613a22565b955060208701359450604087013567ffffffffffffffff811115613c4557600080fd5b613c5189828a01613b2b565b9095509350506060870135613c6581613a22565b80925050608087013590509295509295509295565b600082601f830112613c8b57600080fd5b81356020613c9b613a5b836139fe565b82815260059290921b84018101918181019086841115613cba57600080fd5b8286015b848110156113c057803567ffffffffffffffff811115613cde5760008081fd5b8701603f81018913613cf05760008081fd5b848101356040613d02613a5b836139fe565b82815260c0928302840182019288820191908d851115613d225760008081fd5b948301945b84861015613da35780868f031215613d3f5760008081fd5b613d476139a4565b8635613d5281613a22565b8152868b0135613d6181613a22565b818c015286850135613d7281613a22565b81860152606087810135908201526080808801359082015260a0808801359082015283529485019491890191613d27565b50875250505092840192508301613cbe565b600080600080600060a08688031215613dcd57600080fd5b853567ffffffffffffffff811115613de457600080fd5b613df088828901613c7a565b9550506020860135613e0181613a22565b93506040860135613e1181613a22565b94979396509394606081013594506080013592915050565b6020808252825182820181905260009190848201906040850190845b81811015613e6157835183529284019291840191600101613e45565b50909695505050505050565b60008060008060008060008060e0898b031215613e8957600080fd5b8835613e9481613a22565b97506020890135613ea481613a22565b96506040890135955060608901359450608089013567ffffffffffffffff811115613ece57600080fd5b613eda8b828c01613b2b565b90955093505060a0890135613eee81613a22565b8092505060c089013590509295985092959890939650565b60008060008060008060c08789031215613f1f57600080fd5b863567ffffffffffffffff80821115613f3757600080fd5b613f438a838b01613a3a565b97506020890135915080821115613f5957600080fd5b50613f6689828a01613a3a565b95505060408701359350606087013592506080870135613f8581613a22565b8092505060a087013590509295509295509295565b600080600080600080600060e0888a031215613fb557600080fd5b8735613fc081613a22565b96506020880135613fd081613a22565b95506040880135945060608801359350608088013567ffffffffffffffff811115613ffa57600080fd5b6140068a828b01613a3a565b93505060a088013561401781613a22565b8092505060c0880135905092959891949750929550565b60008060008060008060c0878903121561404757600080fd5b863567ffffffffffffffff81111561405e57600080fd5b61406a89828a01613c7a565b965050602087013561407b81613a22565b9450604087013561408b81613a22565b959894975094956060810135955060808101359460a0909101359350915050565b7f4e487b7100000000000000000000000000000000000000000000000000000000600052603260045260246000fd5b7f4e487b7100000000000000000000000000000000000000000000000000000000600052601160045260246000fd5b60008282101561411c5761411c6140db565b500390565b60008219821115614134576141346140db565b500190565b60006020828403121561414b57600080fd5b5051919050565b60007fffffffffffffffffffffffffffffffffffffffffffffffffffffffffffffffff821415614184576141846140db565b5060010190565b60006020828403121561419d57600080fd5b813561271781613a22565b600060a082016001600160a01b038089168452602081891681860152818816604086015286606086015260a0608086015282865180855260c087019150828801945060005b8181101561420b5785518516835294830194918301916001016141ed565b50909b9a5050505050505050505050565b6000602080838503121561422f57600080fd5b825167ffffffffffffffff81111561424657600080fd5b8301601f8101851361425757600080fd5b8051614265613a5b826139fe565b81815260059190911b8201830190838101908783111561428457600080fd5b928401925b828410156142a257835182529284019290840190614289565b979650505050505050565b6000602082840312156142bf57600080fd5b8151801515811461271757600080fd5b60005b838110156142ea5781810151838201526020016142d2565b838111156142f9576000848401525b50505050565b600082516143118184602087016142cf565b9190910192915050565b805163ffffffff81168114612c7e57600080fd5b60008060008060008060c0878903121561434857600080fd5b865161435381613a22565b60208801516040890151919750955093506143706060880161431b565b925061437e6080880161431b565b915061438c60a0880161431b565b90509295509295509295565b6000602082840312156143aa57600080fd5b815161271781613a22565b8481528360208201526001600160a01b038316604082015260806060820152600082518060808401526143ef8160a08501602087016142cf565b601f01601f19169190910160a0019594505050505056fea26469706673582212208528560d84d5deff78a84a9071ca379dd609f42a43c1aff855f0d28490bb97d864736f6c634300080a0033",
  "linkReferences": {},
  "deployedLinkReferences": {}
}