{
  "address": "0xB7f8BC63BbcaD18155201308C8f3540b07f84F5e",
  "abi": [
    {
      "inputs": [],
      "stateMutability": "nonpayable",
      "type": "constructor"
    },
    {
      "anonymous": false,
      "inputs": [
        {
          "indexed": false,
          "internalType": "address",
          "name": "changeValue",
          "type": "address"
        }
      ],
      "name": "ChangeGovernance",
      "type": "event"
    },
    {
      "anonymous": false,
      "inputs": [
        {
          "indexed": false,
          "internalType": "address",
          "name": "changeValue",
          "type": "address"
        }
      ],
      "name": "ChangeReceiver",
      "type": "event"
    },
    {
      "anonymous": false,
      "inputs": [
        {
          "indexed": true,
          "internalType": "address",
          "name": "pair",
          "type": "address"
        },
        {
          "indexed": false,
          "internalType": "uint256",
          "name": "token0",
          "type": "uint256"
        },
        {
          "indexed": false,
          "internalType": "uint256",
          "name": "token1",
          "type": "uint256"
        }
      ],
      "name": "RemoveLiquidity",
      "type": "event"
    },
    {
      "inputs": [],
      "name": "governance",
      "outputs": [
        {
          "internalType": "address",
          "name": "",
          "type": "address"
        }
      ],
      "stateMutability": "view",
      "type": "function"
    },
    {
      "inputs": [],
      "name": "receiver",
      "outputs": [
        {
          "internalType": "address",
          "name": "",
          "type": "address"
        }
      ],
      "stateMutability": "view",
      "type": "function"
    },
    {
      "inputs": [
        {
          "internalType": "address[]",
          "name": "pairs",
          "type": "address[]"
        }
      ],
      "name": "remove",
      "outputs": [],
      "stateMutability": "nonpayable",
      "type": "function"
    },
    {
      "inputs": [
        {
          "internalType": "address",
          "name": "_governance",
          "type": "address"
        }
      ],
      "name": "setGovernance",
      "outputs": [],
      "stateMutability": "nonpayable",
      "type": "function"
    },
    {
      "inputs": [
        {
          "internalType": "address",
          "name": "_receiver",
          "type": "address"
        }
      ],
      "name": "setReceiver",
      "outputs": [],
      "stateMutability": "nonpayable",
      "type": "function"
    },
    {
      "inputs": [
        {
          "internalType": "address",
          "name": "_token",
          "type": "address"
        },
        {
          "internalType": "uint256",
          "name": "_value",
          "type": "uint256"
        }
      ],
      "name": "transfer",
      "outputs": [],
      "stateMutability": "nonpayable",
      "type": "function"
    },
    {
      "inputs": [
        {
          "internalType": "address[]",
          "name": "_tokens",
          "type": "address[]"
        }
      ],
      "name": "transferAllTokens",
      "outputs": [],
      "stateMutability": "nonpayable",
      "type": "function"
    }
  ],
  "transactionHash": "0x40529f97f196c0369d09db710fca0e26699d709fb08ef05a02a1765861a42edc",
  "args": [],
  "solcInputHash": "238606047f22772c3f8250a1182ecfba",
  "bytecode": "0x608060405234801561001057600080fd5b50600180546001600160a01b03191633179055610ad7806100326000396000f3fe608060405234801561001057600080fd5b506004361061007d5760003560e01c8063a9059cbb1161005b578063a9059cbb146100d9578063ab033ea9146100ec578063f7260d3e146100ff578063ffb769f41461011257600080fd5b80635aa6e675146100825780635e4ba17c146100b1578063718da7ee146100c6575b600080fd5b600154610095906001600160a01b031681565b6040516001600160a01b03909116815260200160405180910390f35b6100c46100bf3660046108eb565b610125565b005b6100c46100d436600461097c565b6103ac565b6100c46100e736600461099e565b610468565b6100c46100fa36600461097c565b61054b565b600054610095906001600160a01b031681565b6100c46101203660046108eb565b610600565b6000546001600160a01b0316806101985760405162461bcd60e51b815260206004820152602c60248201527f50726f746f636f6c46656552656d6f7665723a20496e76616c6964205265636560448201526b69766572206164647265737360a01b60648201526084015b60405180910390fd5b60005b828110156103a65760008484838181106101b7576101b76109c8565b90506020020160208101906101cc919061097c565b6040516370a0823160e01b81523060048201529091506000906001600160a01b038316906370a0823190602401602060405180830381865afa158015610216573d6000803e3d6000fd5b505050506040513d601f19601f8201168201806040525081019061023a91906109de565b905080156103915760405163a9059cbb60e01b81526001600160a01b03831660048201819052602482018390529063a9059cbb906044016020604051808303816000875af1158015610290573d6000803e3d6000fd5b505050506040513d601f19601f820116820180604052508101906102b491906109f7565b506040517f89afcb440000000000000000000000000000000000000000000000000000000081526001600160a01b03858116600483015260009182918516906389afcb449060240160408051808303816000875af115801561031a573d6000803e3d6000fd5b505050506040513d601f19601f8201168201806040525081019061033e9190610a19565b91509150836001600160a01b03167f0fbf06c058b90cb038a618f8c2acbf6145f8b3570fd1fa56abb8f0f3f05b36e88383604051610386929190918252602082015260400190565b60405180910390a250505b5050808061039e90610a3d565b91505061019b565b50505050565b6001546001600160a01b031633146104065760405162461bcd60e51b815260206004820152601d60248201527f50726f746f636f6c46656552656d6f7665723a20464f5242494444454e000000604482015260640161018f565b6000805473ffffffffffffffffffffffffffffffffffffffff19166001600160a01b0383169081179091556040519081527f2f69edf1b496867b439a36a0d934c9770b139d2790222bdeafc4f6daaa79c83a906020015b60405180910390a150565b6001546001600160a01b031633146104c25760405162461bcd60e51b815260206004820152601d60248201527f50726f746f636f6c46656552656d6f7665723a20464f5242494444454e000000604482015260640161018f565b6000546001600160a01b031661052f5760405162461bcd60e51b815260206004820152602c60248201527f50726f746f636f6c46656552656d6f7665723a20496e76616c6964205265636560448201526b69766572206164647265737360a01b606482015260840161018f565b6000546105479083906001600160a01b0316836107bb565b5050565b6001546001600160a01b031633146105a55760405162461bcd60e51b815260206004820152601d60248201527f50726f746f636f6c46656552656d6f7665723a20464f5242494444454e000000604482015260640161018f565b6001805473ffffffffffffffffffffffffffffffffffffffff19166001600160a01b0383169081179091556040519081527f13079bd259b6c430f434e223f09ff073409b818146629085e53378cf536d3ce89060200161045d565b6001546001600160a01b0316331461065a5760405162461bcd60e51b815260206004820152601d60248201527f50726f746f636f6c46656552656d6f7665723a20464f5242494444454e000000604482015260640161018f565b6000546001600160a01b03166106c75760405162461bcd60e51b815260206004820152602c60248201527f50726f746f636f6c46656552656d6f7665723a20496e76616c6964205265636560448201526b69766572206164647265737360a01b606482015260840161018f565b60005b818110156107b65760008383838181106106e6576106e66109c8565b90506020020160208101906106fb919061097c565b6040516370a0823160e01b81523060048201526001600160a01b0391909116906370a0823190602401602060405180830381865afa158015610741573d6000803e3d6000fd5b505050506040513d601f19601f8201168201806040525081019061076591906109de565b90506107a384848481811061077c5761077c6109c8565b9050602002016020810190610791919061097c565b6000546001600160a01b0316836107bb565b50806107ae81610a3d565b9150506106ca565b505050565b604080516001600160a01b038481166024830152604480830185905283518084039091018152606490920183526020820180517bffffffffffffffffffffffffffffffffffffffffffffffffffffffff1663a9059cbb60e01b179052915160009283929087169161082c9190610a66565b6000604051808303816000865af19150503d8060008114610869576040519150601f19603f3d011682016040523d82523d6000602084013e61086e565b606091505b509150915081801561089857508051158061089857508080602001905181019061089891906109f7565b6108e45760405162461bcd60e51b815260206004820152601f60248201527f5472616e7366657248656c7065723a205452414e534645525f4641494c454400604482015260640161018f565b5050505050565b600080602083850312156108fe57600080fd5b823567ffffffffffffffff8082111561091657600080fd5b818501915085601f83011261092a57600080fd5b81358181111561093957600080fd5b8660208260051b850101111561094e57600080fd5b60209290920196919550909350505050565b80356001600160a01b038116811461097757600080fd5b919050565b60006020828403121561098e57600080fd5b61099782610960565b9392505050565b600080604083850312156109b157600080fd5b6109ba83610960565b946020939093013593505050565b634e487b7160e01b600052603260045260246000fd5b6000602082840312156109f057600080fd5b5051919050565b600060208284031215610a0957600080fd5b8151801515811461099757600080fd5b60008060408385031215610a2c57600080fd5b505080516020909101519092909150565b6000600019821415610a5f57634e487b7160e01b600052601160045260246000fd5b5060010190565b6000825160005b81811015610a875760208186018101518583015201610a6d565b81811115610a96576000828501525b50919091019291505056fea26469706673582212201d36de53d1712d3712de623be98c5929311db8c5e1d5fc1aad31baef981f5ba364736f6c634300080c0033",
  "devdoc": {
    "kind": "dev",
    "methods": {},
    "version": 1
  },
  "userdoc": {
    "kind": "user",
    "methods": {},
    "version": 1
  },
  "storageLayout": {
    "storage": [
      {
        "astId": 478,
        "contract": "contracts/ProtocolFeeRemover.sol:ProtocolFeeRemover",
        "label": "receiver",
        "offset": 0,
        "slot": "0",
        "type": "t_address"
      },
      {
        "astId": 480,
        "contract": "contracts/ProtocolFeeRemover.sol:ProtocolFeeRemover",
        "label": "governance",
        "offset": 0,
        "slot": "1",
        "type": "t_address"
      }
    ],
    "types": {
      "t_address": {
        "encoding": "inplace",
        "label": "address",
        "numberOfBytes": "20"
      }
    }
  }
}