{
  "address": "0x610178dA211FEF7D417bC0e6FeD39F05609AD788",
  "abi": [
    {
      "inputs": [],
      "name": "_MAX_INVARIANT_RATIO",
      "outputs": [
        {
          "internalType": "uint256",
          "name": "",
          "type": "uint256"
        }
      ],
      "stateMutability": "view",
      "type": "function"
    },
    {
      "inputs": [],
      "name": "_MAX_IN_RATIO",
      "outputs": [
        {
          "internalType": "uint256",
          "name": "",
          "type": "uint256"
        }
      ],
      "stateMutability": "view",
      "type": "function"
    },
    {
      "inputs": [],
      "name": "_MAX_OUT_RATIO",
      "outputs": [
        {
          "internalType": "uint256",
          "name": "",
          "type": "uint256"
        }
      ],
      "stateMutability": "view",
      "type": "function"
    },
    {
      "inputs": [],
      "name": "_MAX_WEIGHTED_TOKENS",
      "outputs": [
        {
          "internalType": "uint256",
          "name": "",
          "type": "uint256"
        }
      ],
      "stateMutability": "view",
      "type": "function"
    },
    {
      "inputs": [],
      "name": "_MIN_INVARIANT_RATIO",
      "outputs": [
        {
          "internalType": "uint256",
          "name": "",
          "type": "uint256"
        }
      ],
      "stateMutability": "view",
      "type": "function"
    },
    {
      "inputs": [],
      "name": "_MIN_WEIGHT",
      "outputs": [
        {
          "internalType": "uint256",
          "name": "",
          "type": "uint256"
        }
      ],
      "stateMutability": "view",
      "type": "function"
    },
    {
      "inputs": [
        {
          "internalType": "uint256[]",
          "name": "balances",
          "type": "uint256[]"
        },
        {
          "internalType": "uint256",
          "name": "bptAmountOut",
          "type": "uint256"
        },
        {
          "internalType": "uint256",
          "name": "totalBPT",
          "type": "uint256"
        }
      ],
      "name": "_calcAllTokensInGivenExactBptOut",
      "outputs": [
        {
          "internalType": "uint256[]",
          "name": "",
          "type": "uint256[]"
        }
      ],
      "stateMutability": "pure",
      "type": "function"
    },
    {
      "inputs": [
        {
          "internalType": "uint256[]",
          "name": "balances",
          "type": "uint256[]"
        },
        {
          "internalType": "uint256[]",
          "name": "normalizedWeights",
          "type": "uint256[]"
        },
        {
          "internalType": "uint256[]",
          "name": "amountsOut",
          "type": "uint256[]"
        },
        {
          "internalType": "uint256",
          "name": "bptTotalSupply",
          "type": "uint256"
        },
        {
          "internalType": "uint256",
          "name": "swapFeePercentage",
          "type": "uint256"
        }
      ],
      "name": "_calcBptInGivenExactTokensOut",
      "outputs": [
        {
          "internalType": "uint256",
          "name": "",
          "type": "uint256"
        },
        {
          "internalType": "uint256[]",
          "name": "",
          "type": "uint256[]"
        }
      ],
      "stateMutability": "pure",
      "type": "function"
    },
    {
      "inputs": [
        {
          "internalType": "uint256[]",
          "name": "balances",
          "type": "uint256[]"
        },
        {
          "internalType": "uint256[]",
          "name": "normalizedWeights",
          "type": "uint256[]"
        },
        {
          "internalType": "uint256[]",
          "name": "amountsIn",
          "type": "uint256[]"
        },
        {
          "internalType": "uint256",
          "name": "bptTotalSupply",
          "type": "uint256"
        },
        {
          "internalType": "uint256",
          "name": "swapFeePercentage",
          "type": "uint256"
        }
      ],
      "name": "_calcBptOutGivenExactTokensIn",
      "outputs": [
        {
          "internalType": "uint256",
          "name": "",
          "type": "uint256"
        },
        {
          "internalType": "uint256[]",
          "name": "",
          "type": "uint256[]"
        }
      ],
      "stateMutability": "pure",
      "type": "function"
    },
    {
      "inputs": [
        {
          "internalType": "uint256",
          "name": "balance",
          "type": "uint256"
        },
        {
          "internalType": "uint256",
          "name": "normalizedWeight",
          "type": "uint256"
        },
        {
          "internalType": "uint256",
          "name": "previousInvariant",
          "type": "uint256"
        },
        {
          "internalType": "uint256",
          "name": "currentInvariant",
          "type": "uint256"
        },
        {
          "internalType": "uint256",
          "name": "protocolSwapFeePercentage",
          "type": "uint256"
        }
      ],
      "name": "_calcDueTokenProtocolSwapFeeAmount",
      "outputs": [
        {
          "internalType": "uint256",
          "name": "",
          "type": "uint256"
        }
      ],
      "stateMutability": "pure",
      "type": "function"
    },
    {
      "inputs": [
        {
          "internalType": "uint256",
          "name": "balanceIn",
          "type": "uint256"
        },
        {
          "internalType": "uint256",
          "name": "weightIn",
          "type": "uint256"
        },
        {
          "internalType": "uint256",
          "name": "balanceOut",
          "type": "uint256"
        },
        {
          "internalType": "uint256",
          "name": "weightOut",
          "type": "uint256"
        },
        {
          "internalType": "uint256",
          "name": "amountOut",
          "type": "uint256"
        }
      ],
      "name": "_calcInGivenOut",
      "outputs": [
        {
          "internalType": "uint256",
          "name": "",
          "type": "uint256"
        }
      ],
      "stateMutability": "pure",
      "type": "function"
    },
    {
      "inputs": [
        {
          "internalType": "uint256",
          "name": "balanceIn",
          "type": "uint256"
        },
        {
          "internalType": "uint256",
          "name": "weightIn",
          "type": "uint256"
        },
        {
          "internalType": "uint256",
          "name": "balanceOut",
          "type": "uint256"
        },
        {
          "internalType": "uint256",
          "name": "weightOut",
          "type": "uint256"
        },
        {
          "internalType": "uint256",
          "name": "amountIn",
          "type": "uint256"
        }
      ],
      "name": "_calcOutGivenIn",
      "outputs": [
        {
          "internalType": "uint256",
          "name": "",
          "type": "uint256"
        }
      ],
      "stateMutability": "pure",
      "type": "function"
    },
    {
      "inputs": [
        {
          "internalType": "uint256",
          "name": "balance",
          "type": "uint256"
        },
        {
          "internalType": "uint256",
          "name": "normalizedWeight",
          "type": "uint256"
        },
        {
          "internalType": "uint256",
          "name": "bptAmountOut",
          "type": "uint256"
        },
        {
          "internalType": "uint256",
          "name": "bptTotalSupply",
          "type": "uint256"
        },
        {
          "internalType": "uint256",
          "name": "swapFeePercentage",
          "type": "uint256"
        }
      ],
      "name": "_calcTokenInGivenExactBptOut",
      "outputs": [
        {
          "internalType": "uint256",
          "name": "amountIn",
          "type": "uint256"
        },
        {
          "internalType": "uint256",
          "name": "swapFee",
          "type": "uint256"
        }
      ],
      "stateMutability": "pure",
      "type": "function"
    },
    {
      "inputs": [
        {
          "internalType": "uint256",
          "name": "balance",
          "type": "uint256"
        },
        {
          "internalType": "uint256",
          "name": "normalizedWeight",
          "type": "uint256"
        },
        {
          "internalType": "uint256",
          "name": "bptAmountIn",
          "type": "uint256"
        },
        {
          "internalType": "uint256",
          "name": "bptTotalSupply",
          "type": "uint256"
        },
        {
          "internalType": "uint256",
          "name": "swapFeePercentage",
          "type": "uint256"
        }
      ],
      "name": "_calcTokenOutGivenExactBptIn",
      "outputs": [
        {
          "internalType": "uint256",
          "name": "amountOut",
          "type": "uint256"
        },
        {
          "internalType": "uint256",
          "name": "swapFee",
          "type": "uint256"
        }
      ],
      "stateMutability": "pure",
      "type": "function"
    },
    {
      "inputs": [
        {
          "internalType": "uint256[]",
          "name": "balances",
          "type": "uint256[]"
        },
        {
          "internalType": "uint256",
          "name": "bptAmountIn",
          "type": "uint256"
        },
        {
          "internalType": "uint256",
          "name": "totalBPT",
          "type": "uint256"
        }
      ],
      "name": "_calcTokensOutGivenExactBptIn",
      "outputs": [
        {
          "internalType": "uint256[]",
          "name": "",
          "type": "uint256[]"
        }
      ],
      "stateMutability": "pure",
      "type": "function"
    },
    {
      "inputs": [
        {
          "internalType": "uint256[]",
          "name": "normalizedWeights",
          "type": "uint256[]"
        },
        {
          "internalType": "uint256[]",
          "name": "balances",
          "type": "uint256[]"
        }
      ],
      "name": "_calculateInvariant",
      "outputs": [
        {
          "internalType": "uint256",
          "name": "invariant",
          "type": "uint256"
        }
      ],
      "stateMutability": "pure",
      "type": "function"
    }
  ],
  "transactionHash": "0x6ba4347877626061a2bf62cf4216050f007f77bd9b6bee9638da8206d2838b41",
  "args": [],
  "solcInputHash": "805deb118869de4d09a8d2c6ccdde3e0",
  "bytecode": "0x608060405234801561001057600080fd5b506126f7806100206000396000f3fe608060405234801561001057600080fd5b50600436106100d05760003560e01c80631152af7a146100d5578063256fae4c146100ff57806328953058146100ff5780632d09954d1461011c578063418307841461013c578063572c58a31461014a5780635ce3dd581461015d578063906c417514610170578063a62cdb8414610183578063a8c79d6914610192578063cac2832b146101ba578063e89dd41f146101cd578063e9be73ef146101e0578063ea9c12f9146101f3578063f8ce54ae14610202578063ff43734e14610215575b600080fd5b6100e86100e3366004612240565b61021d565b6040516100f6929190612314565b60405180910390f35b61010e670429d069189e000081565b6040519081526020016100f6565b61012f61012a36600461232d565b610394565b6040516100f6919061237a565b61010e662386f26fc1000081565b61010e61015836600461238d565b61045c565b61010e61016b3660046123f0565b6104ea565b61012f61017e36600461232d565b610567565b61010e6729a2241af62c000081565b6101a56101a03660046123f0565b61060f565b604080519283526020830191909152016100f6565b6101a56101c83660046123f0565b6106ec565b6100e86101db366004612240565b6107a2565b61010e6101ee3660046123f0565b610910565b61010e6709b6e64a8ec6000081565b61010e6102103660046123f0565b610986565b61010e606481565b60006060600085516001600160401b0381111561023c5761023c61219b565b604051908082528060200260200182016040528015610265578160200160208202803683370190505b5090506000805b8951811015610357576102d68a828151811061028a5761028a61242b565b60200260200101518983815181106102a4576102a461242b565b60200260200101518c84815181106102be576102be61242b565b60200260200101516102d09190612457565b906109f7565b8382815181106102e8576102e861242b565b6020026020010181815250506103398982815181106103095761030961242b565b60200260200101518483815181106103235761032361242b565b6020026020010151610a9b90919063ffffffff16565b610343908361246e565b91508061034f81612486565b91505061026c565b506000806103698b8b8b87878c610afe565b91509150600061038261037b84610ce3565b8a90610a9b565b9c919b50909950505050505050505050565b606060006103a28484610d0d565b9050600085516001600160401b038111156103bf576103bf61219b565b6040519080825280602002602001820160405280156103e8578160200160208202803683370190505b50905060005b8651811015610452576104238388838151811061040d5761040d61242b565b6020026020010151610d8990919063ffffffff16565b8282815181106104355761043561242b565b60209081029190910101528061044a81612486565b9150506103ee565b5095945050505050565b670de0b6b3a764000060005b83518110156104d4576104c06104b98583815181106104895761048961242b565b60200260200101518584815181106104a3576104a361242b565b6020026020010151610de390919063ffffffff16565b8390610d89565b9150806104cc81612486565b915050610468565b506104e460008211610137610e32565b92915050565b600061050c61050187670429d069189e0000610d89565b831115610130610e32565b6000610518838861246e565b9050600061052688836109f7565b905060006105348887610d0d565b905060006105428383610e44565b905061055761055082610ce3565b8990610d89565b9450505050505b95945050505050565b6060600061057584846109f7565b9050600085516001600160401b038111156105925761059261219b565b6040519080825280602002602001820160405280156105bb578160200160208202803683370190505b50905060005b8651811015610452576105e0838883815181106103235761032361242b565b8282815181106105f2576105f261242b565b60209081029190910101528061060781612486565b9150506105c1565b60008080610621856102d0888261246e565b905061063a6729a2241af62c0000821115610133610e32565b6000610658610651670de0b6b3a76400008a6109f7565b8390610e44565b90506000610678610671670de0b6b3a764000084612457565b8b90610a9b565b905060006106858a610ce3565b905060006106938383610a9b565b905060006106a18285612457565b905060006106c16106ba8b670de0b6b3a7640000612457565b84906109f7565b90506106cd8382612457565b97506106d9818361246e565b9850505050505050509550959350505050565b600080806106fe856102d08882612457565b90506107176709b6e64a8ec60000821015610132610e32565b600061072e610651670de0b6b3a76400008a610d0d565b9050600061074561073e83610ce3565b8b90610d89565b905060006107528a610ce3565b905060006107608383610a9b565b9050600061076e8285612457565b905061077a828a610a9b565b96506107868783612457565b610790908261246e565b97505050505050509550959350505050565b60006060600085516001600160401b038111156107c1576107c161219b565b6040519080825280602002602001820160405280156107ea578160200160208202803683370190505b5090506000805b89518110156108c65761085b8a828151811061080f5761080f61242b565b60200260200101518983815181106108295761082961242b565b60200260200101518c84815181106108435761084361242b565b6020026020010151610855919061246e565b90610d0d565b83828151811061086d5761086d61242b565b6020026020010181815250506108a889828151811061088e5761088e61242b565b602002602001015184838151811061040d5761040d61242b565b6108b2908361246e565b9150806108be81612486565b9150506107f1565b506000806108d88b8b8b87878c610e70565b915091506000670de0b6b3a764000083116108f4576000610382565b610382610909670de0b6b3a764000085612457565b8a90610d89565b600061093261092785670429d069189e0000610d89565b831115610131610e32565b60006109486109418487612457565b86906109f7565b9050600061095685886109f7565b905060006109648383610e44565b9050600061097a670de0b6b3a764000083612457565b90506105578a82610a9b565b60008383116109975750600061055e565b60006109a385856109f7565b905060006109b9670de0b6b3a764000088610d0d565b90506109cd826709b6e64a8ec60000611000565b915060006109db8383610e44565b905060006109eb61073e83610ce3565b90506105578187610d89565b600081610a1f5760405162461bcd60e51b8152600401610a16906124a1565b60405180910390fd5b82610a2c575060006104e4565b6000610a40670de0b6b3a7640000856124c8565b9050670de0b6b3a7640000610a5585836124fd565b14610a725760405162461bcd60e51b8152600401610a1690612511565b82610a7e600183612457565b610a8891906124fd565b610a9390600161246e565b9150506104e4565b600080610aa883856124c8565b9050831580610abf575082610abd85836124fd565b145b610adb5760405162461bcd60e51b8152600401610a1690612537565b80610aea5760009150506104e4565b670de0b6b3a7640000610a7e600183612457565b6000606085516001600160401b03811115610b1b57610b1b61219b565b604051908082528060200260200182016040528015610b44578160200160208202803683370190505b509050670de0b6b3a7640000915060005b8851811015610cd7576000868281518110610b7257610b7261242b565b6020026020010151861115610c27576000610ba1610b8f88610ce3565b8c858151811061040d5761040d61242b565b90506000818a8581518110610bb857610bb861242b565b6020026020010151610bca9190612457565b90506000610bea610be389670de0b6b3a7640000612457565b83906109f7565b9050610bf68282612457565b868681518110610c0857610c0861242b565b6020908102919091010152610c1d818461246e565b9350505050610c44565b878281518110610c3957610c3961242b565b602002602001015190505b6000610c888b8481518110610c5b57610c5b61242b565b6020026020010151838d8681518110610c7657610c7661242b565b60200260200101516108559190612457565b9050610cc0610cb98b8581518110610ca257610ca261242b565b602002602001015183610de390919063ffffffff16565b8690610d89565b945050508080610ccf90612486565b915050610b55565b50965096945050505050565b6000670de0b6b3a76400008210610cfb5760006104e4565b6104e482670de0b6b3a7640000612457565b600081610d2c5760405162461bcd60e51b8152600401610a16906124a1565b82610d39575060006104e4565b6000610d4d670de0b6b3a7640000856124c8565b9050670de0b6b3a7640000610d6285836124fd565b14610d7f5760405162461bcd60e51b8152600401610a1690612511565b610a9383826124fd565b600080610d9683856124c8565b9050831580610dad575082610dab85836124fd565b145b610dc95760405162461bcd60e51b8152600401610a1690612537565b610ddb670de0b6b3a7640000826124fd565b949350505050565b600080610df08484611019565b90506000610e0a610e0383612710610a9b565b600161122a565b905080821015610e1f576000925050506104e4565b610e298282611278565b925050506104e4565b81610e4057610e40816112c5565b5050565b600080610e518484611019565b90506000610e64610e0383612710610a9b565b905061055e828261122a565b6000606085516001600160401b03811115610e8d57610e8d61219b565b604051908082528060200260200182016040528015610eb6578160200160208202803683370190505b509050670de0b6b3a7640000915060005b8851811015610cd757600085878381518110610ee557610ee561242b565b60200260200101511115610f80576000610f0a610b8f670de0b6b3a764000089612457565b90506000818a8581518110610f2157610f2161242b565b6020026020010151610f339190612457565b90506000610f418289610a9b565b9050610f4d8183612457565b610f57908461246e565b935080868681518110610f6c57610f6c61242b565b602002602001018181525050505050610f9d565b878281518110610f9257610f9261242b565b602002602001015190505b6000610fcf8b8481518110610fb457610fb461242b565b6020026020010151838d86815181106108435761084361242b565b9050610fe9610cb98b8581518110610ca257610ca261242b565b945050508080610ff890612486565b915050610ec7565b6000818310156110105781611012565b825b9392505050565b60008161102f5750670de0b6b3a76400006104e4565b8261103c575060006104e4565b600160ff1b83106110815760405162461bcd60e51b815260206004820152600f60248201526e585f4f55545f4f465f424f554e445360881b6044820152606401610a16565b8261109968056bc75e2d63100000600160fe1b6124fd565b83106110d95760405162461bcd60e51b815260206004820152600f60248201526e595f4f55545f4f465f424f554e445360881b6044820152606401610a16565b826000826110f767016345785d8a0000670de0b6b3a764000061255d565b12801561111c5750611119670de0b6b3a764000067016345785d8a000061259c565b83125b1561118557600061112c84611318565b9050670de0b6b3a76400008361114282846125dd565b61114c91906125f1565b6111569190612676565b83611169670de0b6b3a764000084612676565b61117391906125f1565b61117d919061259c565b91505061119c565b8161118f8461154f565b61119991906125f1565b90505b6111ae670de0b6b3a764000082612676565b905080680238fd42c5cf03ffff19131580156111d3575068070c1cc73b00c800008113155b6112175760405162461bcd60e51b815260206004820152601560248201527450524f445543545f4f55545f4f465f424f554e445360581b6044820152606401610a16565b61122081611b31565b9695505050505050565b600080611237838561246e565b9050838110156110125760405162461bcd60e51b815260206004820152600c60248201526b4144445f4f564552464c4f5760a01b6044820152606401610a16565b6000828211156112b95760405162461bcd60e51b815260206004820152600c60248201526b5355425f4f564552464c4f5760a01b6044820152606401610a16565b6000610ddb8385612457565b62461bcd60e51b6000908152602060045260076024526652455123000030600a808404818106603090810160081b95839006959095019082900491820690940160101b939093010160c81b604452606490fd5b600061132c670de0b6b3a7640000836125f1565b915060006113486a0c097ce7bc90715b34b9f160241b8461259c565b6a0c097ce7bc90715b34b9f160241b611361818661255d565b61136b91906125f1565b6113759190612676565b905060006a0c097ce7bc90715b34b9f160241b61139283806125f1565b61139c9190612676565b905081806a0c097ce7bc90715b34b9f160241b6113b984836125f1565b6113c39190612676565b91506113d0600383612676565b6113da908261259c565b90506a0c097ce7bc90715b34b9f160241b6113f584846125f1565b6113ff9190612676565b915061140c600583612676565b611416908261259c565b90506a0c097ce7bc90715b34b9f160241b61143184846125f1565b61143b9190612676565b9150611448600783612676565b611452908261259c565b90506a0c097ce7bc90715b34b9f160241b61146d84846125f1565b6114779190612676565b9150611484600983612676565b61148e908261259c565b90506a0c097ce7bc90715b34b9f160241b6114a984846125f1565b6114b39190612676565b91506114c0600b83612676565b6114ca908261259c565b90506a0c097ce7bc90715b34b9f160241b6114e584846125f1565b6114ef9190612676565b91506114fc600d83612676565b611506908261259c565b90506a0c097ce7bc90715b34b9f160241b61152184846125f1565b61152b9190612676565b9150611538600f83612676565b611542908261259c565b90506112208160026125f1565b6000670de0b6b3a764000082121561158f5761158682611577670de0b6b3a7640000806125f1565b6115819190612676565b61154f565b6104e4906126a4565b60006115b9670de0b6b3a764000072195e54c5dd42177f53a27172fa9ec63026282760241b6125f1565b83126115f7576115df72195e54c5dd42177f53a27172fa9ec63026282760241b84612676565b92506115f46806f05b59d3b20000008261259c565b90505b611615670de0b6b3a76400006b1425982cf597cd205cef73806125f1565b8312611649576116316b1425982cf597cd205cef738084612676565b92506116466803782dace9d90000008261259c565b90505b6116546064826125f1565b90506116616064846125f1565b92506e01855144814a7ff805980ff008400083126116be576e01855144814a7ff805980ff008400061169c68056bc75e2d63100000856125f1565b6116a69190612676565b92506116bb68ad78ebc5ac620000008261259c565b90505b6b02df0ab5a80a22c61ab5a7008312611713576b02df0ab5a80a22c61ab5a7006116f168056bc75e2d63100000856125f1565b6116fb9190612676565b92506117106856bc75e2d6310000008261259c565b90505b693f1fce3da636ea5cf850831261176457693f1fce3da636ea5cf85061174268056bc75e2d63100000856125f1565b61174c9190612676565b9250611761682b5e3af16b188000008261259c565b90505b690127fa27722cc06cc5e283126117b557690127fa27722cc06cc5e261179368056bc75e2d63100000856125f1565b61179d9190612676565b92506117b26815af1d78b58c4000008261259c565b90505b68280e60114edb805d0383126118045768280e60114edb805d036117e268056bc75e2d63100000856125f1565b6117ec9190612676565b9250611801680ad78ebc5ac62000008261259c565b90505b680ebc5fb41746121110831261185357680ebc5fb4174612111061183168056bc75e2d63100000856125f1565b61183b9190612676565b925061185068056bc75e2d631000008261259c565b90505b6808f00f760a4b2db55d83126118a2576808f00f760a4b2db55d61188068056bc75e2d63100000856125f1565b61188a9190612676565b925061189f6802b5e3af16b18800008261259c565b90505b6806f5f177578893793783126118f1576806f5f17757889379376118cf68056bc75e2d63100000856125f1565b6118d99190612676565b92506118ee68015af1d78b58c400008261259c565b90505b6806248f33704b286603831261193f576806248f33704b28660361191e68056bc75e2d63100000856125f1565b6119289190612676565b925061193c67ad78ebc5ac6200008261259c565b90505b6805c548670b9510e7ac831261198d576805c548670b9510e7ac61196c68056bc75e2d63100000856125f1565b6119769190612676565b925061198a6756bc75e2d63100008261259c565b90505b60006119a268056bc75e2d631000008561259c565b68056bc75e2d631000006119b6818761255d565b6119c091906125f1565b6119ca9190612676565b9050600068056bc75e2d631000006119e283806125f1565b6119ec9190612676565b9050818068056bc75e2d63100000611a0484836125f1565b611a0e9190612676565b9150611a1b600383612676565b611a25908261259c565b905068056bc75e2d63100000611a3b84846125f1565b611a459190612676565b9150611a52600583612676565b611a5c908261259c565b905068056bc75e2d63100000611a7284846125f1565b611a7c9190612676565b9150611a89600783612676565b611a93908261259c565b905068056bc75e2d63100000611aa984846125f1565b611ab39190612676565b9150611ac0600983612676565b611aca908261259c565b905068056bc75e2d63100000611ae084846125f1565b611aea9190612676565b9150611af7600b83612676565b611b01908261259c565b9050611b0e6002826125f1565b90506064611b1c828761259c565b611b269190612676565b979650505050505050565b6000680238fd42c5cf03ffff198212158015611b56575068070c1cc73b00c800008213155b611b955760405162461bcd60e51b815260206004820152601060248201526f1253959053125117d1561413d391539560821b6044820152606401610a16565b6000821215611bcb57611baf611baa836126a4565b611b31565b611bc1670de0b6b3a7640000806125f1565b6104e49190612676565b60006806f05b59d3b20000008312611c1057611bf06806f05b59d3b20000008461255d565b925072195e54c5dd42177f53a27172fa9ec63026282760241b9050611c4d565b6803782dace9d90000008312611c4957611c336803782dace9d90000008461255d565b92506b1425982cf597cd205cef73809050611c4d565b5060015b611c586064846125f1565b925068056bc75e2d6310000068ad78ebc5ac620000008412611cb957611c8768ad78ebc5ac620000008561255d565b935068056bc75e2d63100000611cac6e01855144814a7ff805980ff0084000836125f1565b611cb69190612676565b90505b6856bc75e2d6310000008412611d0b57611cdc6856bc75e2d6310000008561255d565b935068056bc75e2d63100000611cfe6b02df0ab5a80a22c61ab5a700836125f1565b611d089190612676565b90505b682b5e3af16b188000008412611d5b57611d2e682b5e3af16b188000008561255d565b935068056bc75e2d63100000611d4e693f1fce3da636ea5cf850836125f1565b611d589190612676565b90505b6815af1d78b58c4000008412611dab57611d7e6815af1d78b58c4000008561255d565b935068056bc75e2d63100000611d9e690127fa27722cc06cc5e2836125f1565b611da89190612676565b90505b680ad78ebc5ac62000008412611dfa57611dce680ad78ebc5ac62000008561255d565b935068056bc75e2d63100000611ded68280e60114edb805d03836125f1565b611df79190612676565b90505b68056bc75e2d631000008412611e4957611e1d68056bc75e2d631000008561255d565b935068056bc75e2d63100000611e3c680ebc5fb41746121110836125f1565b611e469190612676565b90505b6802b5e3af16b18800008412611e9857611e6c6802b5e3af16b18800008561255d565b935068056bc75e2d63100000611e8b6808f00f760a4b2db55d836125f1565b611e959190612676565b90505b68015af1d78b58c400008412611ee757611ebb68015af1d78b58c400008561255d565b935068056bc75e2d63100000611eda6806f5f1775788937937836125f1565b611ee49190612676565b90505b68056bc75e2d6310000084611efc818361259c565b9150600268056bc75e2d63100000611f1488846125f1565b611f1e9190612676565b611f289190612676565b9050611f34818361259c565b9150600368056bc75e2d63100000611f4c88846125f1565b611f569190612676565b611f609190612676565b9050611f6c818361259c565b9150600468056bc75e2d63100000611f8488846125f1565b611f8e9190612676565b611f989190612676565b9050611fa4818361259c565b9150600568056bc75e2d63100000611fbc88846125f1565b611fc69190612676565b611fd09190612676565b9050611fdc818361259c565b9150600668056bc75e2d63100000611ff488846125f1565b611ffe9190612676565b6120089190612676565b9050612014818361259c565b9150600768056bc75e2d6310000061202c88846125f1565b6120369190612676565b6120409190612676565b905061204c818361259c565b9150600868056bc75e2d6310000061206488846125f1565b61206e9190612676565b6120789190612676565b9050612084818361259c565b9150600968056bc75e2d6310000061209c88846125f1565b6120a69190612676565b6120b09190612676565b90506120bc818361259c565b9150600a68056bc75e2d631000006120d488846125f1565b6120de9190612676565b6120e89190612676565b90506120f4818361259c565b9150600b68056bc75e2d6310000061210c88846125f1565b6121169190612676565b6121209190612676565b905061212c818361259c565b9150600c68056bc75e2d6310000061214488846125f1565b61214e9190612676565b6121589190612676565b9050612164818361259c565b915060648468056bc75e2d6310000061217d85876125f1565b6121879190612676565b61219191906125f1565b6112209190612676565b634e487b7160e01b600052604160045260246000fd5b600082601f8301126121c257600080fd5b813560206001600160401b03808311156121de576121de61219b565b8260051b604051601f19603f830116810181811084821117156122035761220361219b565b60405293845285810183019383810192508785111561222157600080fd5b83870191505b84821015611b2657813583529183019190830190612227565b600080600080600060a0868803121561225857600080fd5b85356001600160401b038082111561226f57600080fd5b61227b89838a016121b1565b9650602088013591508082111561229157600080fd5b61229d89838a016121b1565b955060408801359150808211156122b357600080fd5b506122c0888289016121b1565b9598949750949560608101359550608001359392505050565b600081518084526020808501945080840160005b83811015612309578151875295820195908201906001016122ed565b509495945050505050565b828152604060208201526000610ddb60408301846122d9565b60008060006060848603121561234257600080fd5b83356001600160401b0381111561235857600080fd5b612364868287016121b1565b9660208601359650604090950135949350505050565b60208152600061101260208301846122d9565b600080604083850312156123a057600080fd5b82356001600160401b03808211156123b757600080fd5b6123c3868387016121b1565b935060208501359150808211156123d957600080fd5b506123e6858286016121b1565b9150509250929050565b600080600080600060a0868803121561240857600080fd5b505083359560208501359550604085013594606081013594506080013592509050565b634e487b7160e01b600052603260045260246000fd5b634e487b7160e01b600052601160045260246000fd5b60008282101561246957612469612441565b500390565b6000821982111561248157612481612441565b500190565b600060001982141561249a5761249a612441565b5060010190565b6020808252600d908201526c2d22a927afa224ab24a9a4a7a760991b604082015260600190565b60008160001904831182151516156124e2576124e2612441565b500290565b634e487b7160e01b600052601260045260246000fd5b60008261250c5761250c6124e7565b500490565b6020808252600c908201526b11125597d25395115493905360a21b604082015260600190565b6020808252600c908201526b4d554c5f4f564552464c4f5760a01b604082015260600190565b60008083128015600160ff1b85018412161561257b5761257b612441565b6001600160ff1b038401831381161561259657612596612441565b50500390565b600080821280156001600160ff1b03849003851316156125be576125be612441565b600160ff1b83900384128116156125d7576125d7612441565b50500190565b6000826125ec576125ec6124e7565b500790565b60006001600160ff1b038184138284138082168684048611161561261757612617612441565b600160ff1b600087128281168783058912161561263657612636612441565b6000871292508782058712848416161561265257612652612441565b8785058712818416161561266857612668612441565b505050929093029392505050565b600082612685576126856124e7565b600160ff1b82146000198414161561269f5761269f612441565b500590565b6000600160ff1b8214156126ba576126ba612441565b506000039056fea2646970667358221220bfd9b5d452de7abebcb4805dc43dbb8d7109723834cd5f938dc421dccbd56cb964736f6c634300080a0033",
  "devdoc": {
    "kind": "dev",
    "methods": {
      "_calcTokenInGivenExactBptOut(uint256,uint256,uint256,uint256,uint256)": {
        "details": "Intermediate function to avoid stack-too-deep \""
      },
      "_calcTokenOutGivenExactBptIn(uint256,uint256,uint256,uint256,uint256)": {
        "details": "Intermediate function to avoid stack-too-deep \""
      }
    },
    "version": 1
  },
  "userdoc": {
    "kind": "user",
    "methods": {},
    "version": 1
  },
  "storageLayout": {
    "storage": [],
    "types": null
  }
}