{
  "address": "0x1613beB3B2C4f22Ee086B2b38C1476A3cE7f78E8",
  "abi": [
    {
      "anonymous": false,
      "inputs": [
        {
          "indexed": true,
          "internalType": "address",
          "name": "provider",
          "type": "address"
        },
        {
          "indexed": false,
          "internalType": "uint256[]",
          "name": "tokenAmounts",
          "type": "uint256[]"
        },
        {
          "indexed": false,
          "internalType": "uint256[]",
          "name": "fees",
          "type": "uint256[]"
        },
        {
          "indexed": false,
          "internalType": "uint256",
          "name": "invariant",
          "type": "uint256"
        },
        {
          "indexed": false,
          "internalType": "uint256",
          "name": "tokenSupply",
          "type": "uint256"
        }
      ],
      "name": "AddLiquidity",
      "type": "event"
    },
    {
      "anonymous": false,
      "inputs": [
        {
          "indexed": false,
          "internalType": "address",
          "name": "token",
          "type": "address"
        },
        {
          "indexed": false,
          "internalType": "uint256",
          "name": "amount",
          "type": "uint256"
        }
      ],
      "name": "CollectProtocolFee",
      "type": "event"
    },
    {
      "anonymous": false,
      "inputs": [
        {
          "indexed": false,
          "internalType": "address",
          "name": "newController",
          "type": "address"
        }
      ],
      "name": "FeeControllerChanged",
      "type": "event"
    },
    {
      "anonymous": false,
      "inputs": [
        {
          "indexed": false,
          "internalType": "address",
          "name": "newController",
          "type": "address"
        }
      ],
      "name": "FeeDistributorChanged",
      "type": "event"
    },
    {
      "anonymous": false,
      "inputs": [
        {
          "indexed": false,
          "internalType": "uint256",
          "name": "fee",
          "type": "uint256"
        },
        {
          "indexed": false,
          "internalType": "uint256",
          "name": "adminFee",
          "type": "uint256"
        },
        {
          "indexed": false,
          "internalType": "uint256",
          "name": "withdrawFee",
          "type": "uint256"
        }
      ],
      "name": "NewFee",
      "type": "event"
    },
    {
      "anonymous": false,
      "inputs": [
        {
          "indexed": true,
          "internalType": "address",
          "name": "previousOwner",
          "type": "address"
        },
        {
          "indexed": true,
          "internalType": "address",
          "name": "newOwner",
          "type": "address"
        }
      ],
      "name": "OwnershipTransferred",
      "type": "event"
    },
    {
      "anonymous": false,
      "inputs": [
        {
          "indexed": false,
          "internalType": "address",
          "name": "account",
          "type": "address"
        }
      ],
      "name": "Paused",
      "type": "event"
    },
    {
      "anonymous": false,
      "inputs": [
        {
          "indexed": false,
          "internalType": "uint256",
          "name": "oldA",
          "type": "uint256"
        },
        {
          "indexed": false,
          "internalType": "uint256",
          "name": "newA",
          "type": "uint256"
        },
        {
          "indexed": false,
          "internalType": "uint256",
          "name": "initialTime",
          "type": "uint256"
        },
        {
          "indexed": false,
          "internalType": "uint256",
          "name": "futureTime",
          "type": "uint256"
        }
      ],
      "name": "RampA",
      "type": "event"
    },
    {
      "anonymous": false,
      "inputs": [
        {
          "indexed": true,
          "internalType": "address",
          "name": "provider",
          "type": "address"
        },
        {
          "indexed": false,
          "internalType": "uint256[]",
          "name": "tokenAmounts",
          "type": "uint256[]"
        },
        {
          "indexed": false,
          "internalType": "uint256[]",
          "name": "fees",
          "type": "uint256[]"
        },
        {
          "indexed": false,
          "internalType": "uint256",
          "name": "tokenSupply",
          "type": "uint256"
        }
      ],
      "name": "RemoveLiquidity",
      "type": "event"
    },
    {
      "anonymous": false,
      "inputs": [
        {
          "indexed": true,
          "internalType": "address",
          "name": "provider",
          "type": "address"
        },
        {
          "indexed": false,
          "internalType": "uint256[]",
          "name": "tokenAmounts",
          "type": "uint256[]"
        },
        {
          "indexed": false,
          "internalType": "uint256[]",
          "name": "fees",
          "type": "uint256[]"
        },
        {
          "indexed": false,
          "internalType": "uint256",
          "name": "invariant",
          "type": "uint256"
        },
        {
          "indexed": false,
          "internalType": "uint256",
          "name": "tokenSupply",
          "type": "uint256"
        }
      ],
      "name": "RemoveLiquidityImbalance",
      "type": "event"
    },
    {
      "anonymous": false,
      "inputs": [
        {
          "indexed": true,
          "internalType": "address",
          "name": "provider",
          "type": "address"
        },
        {
          "indexed": false,
          "internalType": "uint256",
          "name": "tokenIndex",
          "type": "uint256"
        },
        {
          "indexed": false,
          "internalType": "uint256",
          "name": "tokenAmount",
          "type": "uint256"
        },
        {
          "indexed": false,
          "internalType": "uint256",
          "name": "coinAmount",
          "type": "uint256"
        }
      ],
      "name": "RemoveLiquidityOne",
      "type": "event"
    },
    {
      "anonymous": false,
      "inputs": [
        {
          "indexed": false,
          "internalType": "uint256",
          "name": "A",
          "type": "uint256"
        },
        {
          "indexed": false,
          "internalType": "uint256",
          "name": "timestamp",
          "type": "uint256"
        }
      ],
      "name": "StopRampA",
      "type": "event"
    },
    {
      "anonymous": false,
      "inputs": [
        {
          "indexed": true,
          "internalType": "address",
          "name": "buyer",
          "type": "address"
        },
        {
          "indexed": false,
          "internalType": "uint256",
          "name": "soldId",
          "type": "uint256"
        },
        {
          "indexed": false,
          "internalType": "uint256",
          "name": "tokensSold",
          "type": "uint256"
        },
        {
          "indexed": false,
          "internalType": "uint256",
          "name": "boughtId",
          "type": "uint256"
        },
        {
          "indexed": false,
          "internalType": "uint256",
          "name": "tokensBought",
          "type": "uint256"
        }
      ],
      "name": "TokenExchange",
      "type": "event"
    },
    {
      "anonymous": false,
      "inputs": [
        {
          "indexed": false,
          "internalType": "address",
          "name": "account",
          "type": "address"
        }
      ],
      "name": "Unpaused",
      "type": "event"
    },
    {
      "inputs": [],
      "name": "MAX_A",
      "outputs": [
        {
          "internalType": "uint256",
          "name": "",
          "type": "uint256"
        }
      ],
      "stateMutability": "view",
      "type": "function"
    },
    {
      "inputs": [],
      "name": "MAX_ADMIN_FEE",
      "outputs": [
        {
          "internalType": "uint256",
          "name": "",
          "type": "uint256"
        }
      ],
      "stateMutability": "view",
      "type": "function"
    },
    {
      "inputs": [],
      "name": "MAX_A_CHANGE",
      "outputs": [
        {
          "internalType": "uint256",
          "name": "",
          "type": "uint256"
        }
      ],
      "stateMutability": "view",
      "type": "function"
    },
    {
      "inputs": [],
      "name": "MAX_SWAP_FEE",
      "outputs": [
        {
          "internalType": "uint256",
          "name": "",
          "type": "uint256"
        }
      ],
      "stateMutability": "view",
      "type": "function"
    },
    {
      "inputs": [],
      "name": "MAX_WITHDRAW_FEE",
      "outputs": [
        {
          "internalType": "uint256",
          "name": "",
          "type": "uint256"
        }
      ],
      "stateMutability": "view",
      "type": "function"
    },
    {
      "inputs": [],
      "name": "MIN_RAMP_TIME",
      "outputs": [
        {
          "internalType": "uint256",
          "name": "",
          "type": "uint256"
        }
      ],
      "stateMutability": "view",
      "type": "function"
    },
    {
      "inputs": [
        {
          "internalType": "uint256[]",
          "name": "amounts",
          "type": "uint256[]"
        },
        {
          "internalType": "uint256",
          "name": "minMintAmount",
          "type": "uint256"
        },
        {
          "internalType": "uint256",
          "name": "deadline",
          "type": "uint256"
        }
      ],
      "name": "addLiquidity",
      "outputs": [
        {
          "internalType": "uint256",
          "name": "",
          "type": "uint256"
        }
      ],
      "stateMutability": "nonpayable",
      "type": "function"
    },
    {
      "inputs": [
        {
          "internalType": "address",
          "name": "account",
          "type": "address"
        }
      ],
      "name": "calculateCurrentWithdrawFee",
      "outputs": [
        {
          "internalType": "uint256",
          "name": "",
          "type": "uint256"
        }
      ],
      "stateMutability": "view",
      "type": "function"
    },
    {
      "inputs": [
        {
          "internalType": "address",
          "name": "account",
          "type": "address"
        },
        {
          "internalType": "uint256",
          "name": "amount",
          "type": "uint256"
        }
      ],
      "name": "calculateRemoveLiquidity",
      "outputs": [
        {
          "internalType": "uint256[]",
          "name": "",
          "type": "uint256[]"
        }
      ],
      "stateMutability": "view",
      "type": "function"
    },
    {
      "inputs": [
        {
          "internalType": "address",
          "name": "account",
          "type": "address"
        },
        {
          "internalType": "uint256",
          "name": "amount",
          "type": "uint256"
        },
        {
          "internalType": "uint8",
          "name": "index",
          "type": "uint8"
        }
      ],
      "name": "calculateRemoveLiquidityOneToken",
      "outputs": [
        {
          "internalType": "uint256",
          "name": "",
          "type": "uint256"
        }
      ],
      "stateMutability": "view",
      "type": "function"
    },
    {
      "inputs": [
        {
          "internalType": "uint8",
          "name": "inIndex",
          "type": "uint8"
        },
        {
          "internalType": "uint8",
          "name": "outIndex",
          "type": "uint8"
        },
        {
          "internalType": "uint256",
          "name": "inAmount",
          "type": "uint256"
        }
      ],
      "name": "calculateSwap",
      "outputs": [
        {
          "internalType": "uint256",
          "name": "",
          "type": "uint256"
        }
      ],
      "stateMutability": "view",
      "type": "function"
    },
    {
      "inputs": [
        {
          "internalType": "address",
          "name": "tokenIn",
          "type": "address"
        },
        {
          "internalType": "address",
          "name": "tokenOut",
          "type": "address"
        },
        {
          "internalType": "uint256",
          "name": "amountIn",
          "type": "uint256"
        }
      ],
      "name": "calculateSwapGivenIn",
      "outputs": [
        {
          "internalType": "uint256",
          "name": "",
          "type": "uint256"
        }
      ],
      "stateMutability": "view",
      "type": "function"
    },
    {
      "inputs": [
        {
          "internalType": "address",
          "name": "tokenIn",
          "type": "address"
        },
        {
          "internalType": "address",
          "name": "tokenOut",
          "type": "address"
        },
        {
          "internalType": "uint256",
          "name": "amountOut",
          "type": "uint256"
        }
      ],
      "name": "calculateSwapGivenOut",
      "outputs": [
        {
          "internalType": "uint256",
          "name": "",
          "type": "uint256"
        }
      ],
      "stateMutability": "view",
      "type": "function"
    },
    {
      "inputs": [
        {
          "internalType": "uint256[]",
          "name": "amounts",
          "type": "uint256[]"
        },
        {
          "internalType": "bool",
          "name": "deposit",
          "type": "bool"
        }
      ],
      "name": "calculateTokenAmount",
      "outputs": [
        {
          "internalType": "uint256",
          "name": "",
          "type": "uint256"
        }
      ],
      "stateMutability": "view",
      "type": "function"
    },
    {
      "inputs": [],
      "name": "feeController",
      "outputs": [
        {
          "internalType": "address",
          "name": "",
          "type": "address"
        }
      ],
      "stateMutability": "view",
      "type": "function"
    },
    {
      "inputs": [],
      "name": "feeDistributor",
      "outputs": [
        {
          "internalType": "address",
          "name": "",
          "type": "address"
        }
      ],
      "stateMutability": "view",
      "type": "function"
    },
    {
      "inputs": [],
      "name": "getA",
      "outputs": [
        {
          "internalType": "uint256",
          "name": "",
          "type": "uint256"
        }
      ],
      "stateMutability": "view",
      "type": "function"
    },
    {
      "inputs": [],
      "name": "getAPrecise",
      "outputs": [
        {
          "internalType": "uint256",
          "name": "",
          "type": "uint256"
        }
      ],
      "stateMutability": "view",
      "type": "function"
    },
    {
      "inputs": [
        {
          "internalType": "uint8",
          "name": "index",
          "type": "uint8"
        }
      ],
      "name": "getAdminBalance",
      "outputs": [
        {
          "internalType": "uint256",
          "name": "",
          "type": "uint256"
        }
      ],
      "stateMutability": "view",
      "type": "function"
    },
    {
      "inputs": [],
      "name": "getAdminBalances",
      "outputs": [
        {
          "internalType": "uint256[]",
          "name": "adminBalances",
          "type": "uint256[]"
        }
      ],
      "stateMutability": "view",
      "type": "function"
    },
    {
      "inputs": [],
      "name": "getLpToken",
      "outputs": [
        {
          "internalType": "contract IERC20",
          "name": "",
          "type": "address"
        }
      ],
      "stateMutability": "view",
      "type": "function"
    },
    {
      "inputs": [],
      "name": "getNumberOfTokens",
      "outputs": [
        {
          "internalType": "uint256",
          "name": "",
          "type": "uint256"
        }
      ],
      "stateMutability": "view",
      "type": "function"
    },
    {
      "inputs": [
        {
          "internalType": "uint8",
          "name": "index",
          "type": "uint8"
        }
      ],
      "name": "getToken",
      "outputs": [
        {
          "internalType": "contract IERC20",
          "name": "",
          "type": "address"
        }
      ],
      "stateMutability": "view",
      "type": "function"
    },
    {
      "inputs": [
        {
          "internalType": "uint8",
          "name": "index",
          "type": "uint8"
        }
      ],
      "name": "getTokenBalance",
      "outputs": [
        {
          "internalType": "uint256",
          "name": "",
          "type": "uint256"
        }
      ],
      "stateMutability": "view",
      "type": "function"
    },
    {
      "inputs": [],
      "name": "getTokenBalances",
      "outputs": [
        {
          "internalType": "uint256[]",
          "name": "",
          "type": "uint256[]"
        }
      ],
      "stateMutability": "view",
      "type": "function"
    },
    {
      "inputs": [
        {
          "internalType": "address",
          "name": "token",
          "type": "address"
        }
      ],
      "name": "getTokenIndex",
      "outputs": [
        {
          "internalType": "uint8",
          "name": "index",
          "type": "uint8"
        }
      ],
      "stateMutability": "view",
      "type": "function"
    },
    {
      "inputs": [],
      "name": "getTokenPrecisionMultipliers",
      "outputs": [
        {
          "internalType": "uint256[]",
          "name": "",
          "type": "uint256[]"
        }
      ],
      "stateMutability": "view",
      "type": "function"
    },
    {
      "inputs": [],
      "name": "getTokens",
      "outputs": [
        {
          "internalType": "contract IERC20[]",
          "name": "",
          "type": "address[]"
        }
      ],
      "stateMutability": "view",
      "type": "function"
    },
    {
      "inputs": [],
      "name": "getVirtualPrice",
      "outputs": [
        {
          "internalType": "uint256",
          "name": "",
          "type": "uint256"
        }
      ],
      "stateMutability": "view",
      "type": "function"
    },
    {
      "inputs": [
        {
          "internalType": "address[]",
          "name": "_coins",
          "type": "address[]"
        },
        {
          "internalType": "uint8[]",
          "name": "_decimals",
          "type": "uint8[]"
        },
        {
          "internalType": "string",
          "name": "lpTokenName",
          "type": "string"
        },
        {
          "internalType": "string",
          "name": "lpTokenSymbol",
          "type": "string"
        },
        {
          "internalType": "uint256",
          "name": "_A",
          "type": "uint256"
        },
        {
          "internalType": "uint256",
          "name": "_fee",
          "type": "uint256"
        },
        {
          "internalType": "uint256",
          "name": "_adminFee",
          "type": "uint256"
        },
        {
          "internalType": "uint256",
          "name": "_withdrawFee",
          "type": "uint256"
        },
        {
          "internalType": "address",
          "name": "_feeDistributor",
          "type": "address"
        }
      ],
      "name": "initialize",
      "outputs": [],
      "stateMutability": "nonpayable",
      "type": "function"
    },
    {
      "inputs": [
        {
          "components": [
            {
              "internalType": "address",
              "name": "pool",
              "type": "address"
            },
            {
              "internalType": "address",
              "name": "tokenIn",
              "type": "address"
            },
            {
              "internalType": "address",
              "name": "tokenOut",
              "type": "address"
            },
            {
              "internalType": "uint256",
              "name": "swapAmount",
              "type": "uint256"
            },
            {
              "internalType": "uint256",
              "name": "limitReturnAmount",
              "type": "uint256"
            },
            {
              "internalType": "uint256",
              "name": "maxPrice",
              "type": "uint256"
            }
          ],
          "internalType": "struct IRequiemSwap.SwapStep",
          "name": "params",
          "type": "tuple"
        },
        {
          "internalType": "address",
          "name": "to",
          "type": "address"
        }
      ],
      "name": "onSwap",
      "outputs": [
        {
          "internalType": "uint256",
          "name": "",
          "type": "uint256"
        }
      ],
      "stateMutability": "nonpayable",
      "type": "function"
    },
    {
      "inputs": [
        {
          "internalType": "address",
          "name": "tokenIn",
          "type": "address"
        },
        {
          "internalType": "address",
          "name": "tokenOut",
          "type": "address"
        },
        {
          "internalType": "uint256",
          "name": "amountIn",
          "type": "uint256"
        },
        {
          "internalType": "uint256",
          "name": "amountOutMin",
          "type": "uint256"
        },
        {
          "internalType": "address",
          "name": "to",
          "type": "address"
        }
      ],
      "name": "onSwapGivenIn",
      "outputs": [
        {
          "internalType": "uint256",
          "name": "",
          "type": "uint256"
        }
      ],
      "stateMutability": "nonpayable",
      "type": "function"
    },
    {
      "inputs": [
        {
          "internalType": "address",
          "name": "tokenIn",
          "type": "address"
        },
        {
          "internalType": "address",
          "name": "tokenOut",
          "type": "address"
        },
        {
          "internalType": "uint256",
          "name": "amountOut",
          "type": "uint256"
        },
        {
          "internalType": "uint256",
          "name": "amountInMax",
          "type": "uint256"
        },
        {
          "internalType": "address",
          "name": "to",
          "type": "address"
        }
      ],
      "name": "onSwapGivenOut",
      "outputs": [
        {
          "internalType": "uint256",
          "name": "",
          "type": "uint256"
        }
      ],
      "stateMutability": "nonpayable",
      "type": "function"
    },
    {
      "inputs": [],
      "name": "owner",
      "outputs": [
        {
          "internalType": "address",
          "name": "",
          "type": "address"
        }
      ],
      "stateMutability": "view",
      "type": "function"
    },
    {
      "inputs": [],
      "name": "pause",
      "outputs": [],
      "stateMutability": "nonpayable",
      "type": "function"
    },
    {
      "inputs": [],
      "name": "paused",
      "outputs": [
        {
          "internalType": "bool",
          "name": "",
          "type": "bool"
        }
      ],
      "stateMutability": "view",
      "type": "function"
    },
    {
      "inputs": [
        {
          "internalType": "uint256",
          "name": "futureA",
          "type": "uint256"
        },
        {
          "internalType": "uint256",
          "name": "futureATime",
          "type": "uint256"
        }
      ],
      "name": "rampA",
      "outputs": [],
      "stateMutability": "nonpayable",
      "type": "function"
    },
    {
      "inputs": [
        {
          "internalType": "uint256",
          "name": "lpAmount",
          "type": "uint256"
        },
        {
          "internalType": "uint256[]",
          "name": "minAmounts",
          "type": "uint256[]"
        },
        {
          "internalType": "uint256",
          "name": "deadline",
          "type": "uint256"
        }
      ],
      "name": "removeLiquidity",
      "outputs": [
        {
          "internalType": "uint256[]",
          "name": "",
          "type": "uint256[]"
        }
      ],
      "stateMutability": "nonpayable",
      "type": "function"
    },
    {
      "inputs": [
        {
          "internalType": "uint256[]",
          "name": "amounts",
          "type": "uint256[]"
        },
        {
          "internalType": "uint256",
          "name": "maxBurnAmount",
          "type": "uint256"
        },
        {
          "internalType": "uint256",
          "name": "deadline",
          "type": "uint256"
        }
      ],
      "name": "removeLiquidityImbalance",
      "outputs": [
        {
          "internalType": "uint256",
          "name": "",
          "type": "uint256"
        }
      ],
      "stateMutability": "nonpayable",
      "type": "function"
    },
    {
      "inputs": [
        {
          "internalType": "uint256",
          "name": "lpAmount",
          "type": "uint256"
        },
        {
          "internalType": "uint8",
          "name": "index",
          "type": "uint8"
        },
        {
          "internalType": "uint256",
          "name": "minAmount",
          "type": "uint256"
        },
        {
          "internalType": "uint256",
          "name": "deadline",
          "type": "uint256"
        }
      ],
      "name": "removeLiquidityOneToken",
      "outputs": [
        {
          "internalType": "uint256",
          "name": "",
          "type": "uint256"
        }
      ],
      "stateMutability": "nonpayable",
      "type": "function"
    },
    {
      "inputs": [],
      "name": "renounceOwnership",
      "outputs": [],
      "stateMutability": "nonpayable",
      "type": "function"
    },
    {
      "inputs": [
        {
          "internalType": "uint256",
          "name": "newSwapFee",
          "type": "uint256"
        },
        {
          "internalType": "uint256",
          "name": "newAdminFee",
          "type": "uint256"
        },
        {
          "internalType": "uint256",
          "name": "newWithdrawFee",
          "type": "uint256"
        }
      ],
      "name": "setFee",
      "outputs": [],
      "stateMutability": "nonpayable",
      "type": "function"
    },
    {
      "inputs": [
        {
          "internalType": "address",
          "name": "_feeController",
          "type": "address"
        }
      ],
      "name": "setFeeController",
      "outputs": [],
      "stateMutability": "nonpayable",
      "type": "function"
    },
    {
      "inputs": [
        {
          "internalType": "address",
          "name": "_feeDistributor",
          "type": "address"
        }
      ],
      "name": "setFeeDistributor",
      "outputs": [],
      "stateMutability": "nonpayable",
      "type": "function"
    },
    {
      "inputs": [],
      "name": "stopRampA",
      "outputs": [],
      "stateMutability": "nonpayable",
      "type": "function"
    },
    {
      "inputs": [
        {
          "internalType": "uint8",
          "name": "fromIndex",
          "type": "uint8"
        },
        {
          "internalType": "uint8",
          "name": "toIndex",
          "type": "uint8"
        },
        {
          "internalType": "uint256",
          "name": "inAmount",
          "type": "uint256"
        },
        {
          "internalType": "uint256",
          "name": "minOutAmount",
          "type": "uint256"
        },
        {
          "internalType": "address",
          "name": "to",
          "type": "address"
        },
        {
          "internalType": "uint256",
          "name": "deadline",
          "type": "uint256"
        }
      ],
      "name": "swap",
      "outputs": [
        {
          "internalType": "uint256",
          "name": "",
          "type": "uint256"
        }
      ],
      "stateMutability": "nonpayable",
      "type": "function"
    },
    {
      "inputs": [],
      "name": "swapStorage",
      "outputs": [
        {
          "internalType": "contract LPToken",
          "name": "lpToken",
          "type": "address"
        },
        {
          "internalType": "uint256",
          "name": "fee",
          "type": "uint256"
        },
        {
          "internalType": "uint256",
          "name": "adminFee",
          "type": "uint256"
        },
        {
          "internalType": "uint256",
          "name": "initialA",
          "type": "uint256"
        },
        {
          "internalType": "uint256",
          "name": "futureA",
          "type": "uint256"
        },
        {
          "internalType": "uint256",
          "name": "initialATime",
          "type": "uint256"
        },
        {
          "internalType": "uint256",
          "name": "futureATime",
          "type": "uint256"
        },
        {
          "internalType": "uint256",
          "name": "defaultWithdrawFee",
          "type": "uint256"
        }
      ],
      "stateMutability": "view",
      "type": "function"
    },
    {
      "inputs": [
        {
          "internalType": "address",
          "name": "",
          "type": "address"
        }
      ],
      "name": "tokenIndexes",
      "outputs": [
        {
          "internalType": "uint8",
          "name": "",
          "type": "uint8"
        }
      ],
      "stateMutability": "view",
      "type": "function"
    },
    {
      "inputs": [
        {
          "internalType": "address",
          "name": "newOwner",
          "type": "address"
        }
      ],
      "name": "transferOwnership",
      "outputs": [],
      "stateMutability": "nonpayable",
      "type": "function"
    },
    {
      "inputs": [],
      "name": "unpause",
      "outputs": [],
      "stateMutability": "nonpayable",
      "type": "function"
    },
    {
      "inputs": [
        {
          "internalType": "address",
          "name": "recipient",
          "type": "address"
        },
        {
          "internalType": "uint256",
          "name": "transferAmount",
          "type": "uint256"
        }
      ],
      "name": "updateUserWithdrawFee",
      "outputs": [],
      "stateMutability": "nonpayable",
      "type": "function"
    },
    {
      "inputs": [],
      "name": "withdrawAdminFee",
      "outputs": [],
      "stateMutability": "nonpayable",
      "type": "function"
    }
  ],
  "transactionHash": "0xc4043fdc763dd7d52299edc09ff491d27ee6ac8001e7d4f7118765606ec3d35e",
  "args": [],
  "solcInputHash": "550e4d753b3429079c3ff672185b4b19",
  "bytecode": "0x60806040523480156200001157600080fd5b506200001d3362000034565b6000805460ff60a01b191690556001805562000084565b600080546001600160a01b038381166001600160a01b0319831681178455604051919092169283917f8be0079c531659141344cd1fd0a4f28419497f9722a3daafe3b4186f6b6457e09190a35050565b615af480620000946000396000f3fe60806040523480156200001157600080fd5b5060043610620003915760003560e01c80638554a7d411620001e1578063cc56fd43116200010d578063e25aa5fa11620000af578063efeecb511162000086578063efeecb5114620007cd578063f2fde38b14620007d6578063f3de036214620007ed578063fe49abe314620007fa57600080fd5b8063e25aa5fa1462000795578063e6ab2806146200079f578063e9255bae14620007b657600080fd5b8063d46300fd11620000e4578063d46300fd1462000774578063d4b0de2f14620006ef578063df3ed68d146200077e57600080fd5b8063cc56fd43146200073c578063ccfc2e8d1462000753578063d41f6568146200076a57600080fd5b8063a95b089f1162000183578063ab5ac061116200015a578063ab5ac06114620006fb578063bfd3956b1462000704578063c00c125c146200071b578063c4db7fa0146200073257600080fd5b8063a95b089f14620006bf578063aa6ca80814620006d6578063ab3d854414620006ef57600080fd5b806396a65a6c11620001b857806396a65a6c146200068757806398899f40146200069e578063a1dc903114620006b557600080fd5b80638554a7d414620006475780638da5cb5b146200065e57806391ceb3eb146200067057600080fd5b80634d49e87d11620002c15780636999b37711620002635780638214f5a4116200023a5780638214f5a414620005fd57806382b86600146200060f5780638456cb59146200062657806384cdd9bc146200063057600080fd5b80636999b37714620005c8578063715018a614620005dc5780637c61e56114620005e657600080fd5b80635c975abb11620002985780635c975abb146200050c5780635fd65f0f146200053b57806366c0bd2414620005b157600080fd5b80634d49e87d14620004c7578063593d132c14620004de5780635b65b9ab14620004f557600080fd5b806331cd52b011620003375780633ed4c678116200030e5780633ed4c678146200048d5780633f4ba83a14620004a65780634a1b0d5714620004b05780634ac00e03146200042457600080fd5b806331cd52b0146200045457806339698415146200046b5780633e3a1560146200047657600080fd5b80630d43e8ad116200036c5780630d43e8ad14620003f75780630e6d8bce146200042457806318f52ce2146200043b57600080fd5b806304bc3b1c146200039657806306e9481c14620003d35780630ba8195914620003ed575b600080fd5b620003bc620003a73660046200370a565b60126020526000908152604090205460ff1681565b60405160ff90911681526020015b60405180910390f35b620003de6201518081565b604051908152602001620003ca565b620003de62000804565b6010546200040b906001600160a01b031681565b6040516001600160a01b039091168152602001620003ca565b620003de6200043536600462003728565b6200089d565b6200044562000a52565b604051620003ca919062003786565b6200044562000465366004620038e7565b62000b7e565b620003de620f424081565b620003de620004873660046200394d565b62000cf7565b620004a46200049e3660046200370a565b62000e94565b005b620004a462000fb5565b620003de620004c13660046200370a565b6200101d565b620003de620004d83660046200398b565b62001032565b620004a4620004ef366004620039dd565b620011e8565b620004a46200050636600462003a00565b6200153b565b60005474010000000000000000000000000000000000000000900460ff166040519015158152602001620003ca565b600454600754600854600954600a54600b54600c54600d546200056b976001600160a01b03169695949392919088565b604080516001600160a01b0390991689526020890197909752958701949094526060860192909252608085015260a084015260c083015260e082015261010001620003ca565b620003bc620005c23660046200370a565b620016ef565b6011546200040b906001600160a01b031681565b620004a46200178f565b62000445620005f736600462003a2d565b620017f7565b6004546001600160a01b03166200040b565b6200040b6200062036600462003a5a565b620018c9565b620004a462001902565b620003de620006413660046200398b565b62001968565b620003de6200065836600462003a5a565b62001adb565b6000546001600160a01b03166200040b565b620003de6200068136600462003a5a565b62001b77565b620003de6200069836600462003a78565b62001ba6565b620003de620006af36600462003b32565b62001d64565b6200044562001e1f565b620003de620006d036600462003b73565b62001e7b565b620006e062001ee8565b604051620003ca919062003bb4565b620003de6305f5e10081565b620003de600a81565b620003de6200071536600462003bf7565b62001f4e565b620004a46200072c36600462003a2d565b62002137565b620004a46200222b565b620003de6200074d36600462003c5d565b620023bd565b620004a4620007643660046200370a565b6200244b565b6200044562002566565b620003de620025c1565b620004a46200078f36600462003df9565b62002616565b620003de62002d96565b620003de620007b036600462003efc565b62002deb565b620003de620007c736600462003c5d565b62002e47565b600354620003de565b620004a4620007e73660046200370a565b62002ed5565b620003de6402540be40081565b620004a462002fbd565b6040517fa30355850000000000000000000000000000000000000000000000000000000081526003600482015260009073a82fF9aFd8f496c3d6ac40E2a0F282E47488CFc99063a3035585906024015b602060405180830381865af415801562000872573d6000803e3d6000fd5b505050506040513d601f19601f8201168201806040525081019062000898919062003f89565b905090565b6000805474010000000000000000000000000000000000000000900460ff16156200090f5760405162461bcd60e51b815260206004820152601060248201527f5061757361626c653a207061757365640000000000000000000000000000000060448201526064015b60405180910390fd5b60026001541415620009645760405162461bcd60e51b815260206004820152601f60248201527f5265656e7472616e637947756172643a207265656e7472616e742063616c6c00604482015260640162000906565b60026001556001600160a01b03868116600090815260126020526040808220548884168352918190205490517fce055b8d0000000000000000000000000000000000000000000000000000000081526003600482015260ff928316602482015291166044820152606481018690526084810185905290831660a482015273a82fF9aFd8f496c3d6ac40E2a0F282E47488CFc99063ce055b8d9060c401602060405180830381865af415801562000a1e573d6000803e3d6000fd5b505050506040513d601f19601f8201168201806040525081019062000a44919062003f89565b600180559695505050505050565b6003546060908067ffffffffffffffff81111562000a745762000a74620037cc565b60405190808252806020026020018201604052801562000a9e578160200160208202803683370190505b50915060005b8181101562000b79576040517fe2eba89b000000000000000000000000000000000000000000000000000000008152600360048201526024810182905273a82fF9aFd8f496c3d6ac40E2a0F282E47488CFc99063e2eba89b90604401602060405180830381865af415801562000b1e573d6000803e3d6000fd5b505050506040513d601f19601f8201168201806040525081019062000b44919062003f89565b83828151811062000b595762000b5962003fa3565b60209081029190910101528062000b708162004001565b91505062000aa4565b505090565b60606002600154141562000bd55760405162461bcd60e51b815260206004820152601f60248201527f5265656e7472616e637947756172643a207265656e7472616e742063616c6c00604482015260640162000906565b6002600155814281101562000c2d5760405162461bcd60e51b815260206004820152600760248201527f74696d656f757400000000000000000000000000000000000000000000000000604482015260640162000906565b6040517fc685696c00000000000000000000000000000000000000000000000000000000815273a82fF9aFd8f496c3d6ac40E2a0F282E47488CFc99063c685696c9062000c8490600390899089906004016200407a565b600060405180830381865af415801562000ca2573d6000803e3d6000fd5b505050506040513d6000823e601f3d9081017fffffffffffffffffffffffffffffffffffffffffffffffffffffffffffffffe016820160405262000cea9190810190620040a4565b6001805595945050505050565b60006002600154141562000d4e5760405162461bcd60e51b815260206004820152601f60248201527f5265656e7472616e637947756172643a207265656e7472616e742063616c6c00604482015260640162000906565b600260015560005474010000000000000000000000000000000000000000900460ff161562000dc05760405162461bcd60e51b815260206004820152601060248201527f5061757361626c653a2070617573656400000000000000000000000000000000604482015260640162000906565b818042111562000e135760405162461bcd60e51b815260206004820152600760248201527f74696d656f757400000000000000000000000000000000000000000000000000604482015260640162000906565b6040517f2bfe30d0000000000000000000000000000000000000000000000000000000008152600360048201526024810187905260ff861660448201526064810185905273a82fF9aFd8f496c3d6ac40E2a0F282E47488CFc990632bfe30d090608401602060405180830381865af415801562000a1e573d6000803e3d6000fd5b6000546001600160a01b0316331462000ef05760405162461bcd60e51b815260206004820181905260248201527f4f776e61626c653a2063616c6c6572206973206e6f7420746865206f776e6572604482015260640162000906565b6001600160a01b03811662000f485760405162461bcd60e51b815260206004820152600b60248201527f7a65726f41646472657373000000000000000000000000000000000000000000604482015260640162000906565b601180547fffffffffffffffffffffffff0000000000000000000000000000000000000000166001600160a01b0383169081179091556040519081527f4c3f3b9852ccceadd50f16518f348e2624c8f0240acdd5bc81911c0fba83ec67906020015b60405180910390a150565b6000546001600160a01b03163314620010115760405162461bcd60e51b815260206004820181905260248201527f4f776e61626c653a2063616c6c6572206973206e6f7420746865206f776e6572604482015260640162000906565b6200101b620031a4565b565b60006200102c60038362003278565b92915050565b6000805474010000000000000000000000000000000000000000900460ff1615620010a05760405162461bcd60e51b815260206004820152601060248201527f5061757361626c653a2070617573656400000000000000000000000000000000604482015260640162000906565b60026001541415620010f55760405162461bcd60e51b815260206004820152601f60248201527f5265656e7472616e637947756172643a207265656e7472616e742063616c6c00604482015260640162000906565b600260015581428110156200114d5760405162461bcd60e51b815260206004820152600760248201527f74696d656f757400000000000000000000000000000000000000000000000000604482015260640162000906565b6040517f7a6cba3c00000000000000000000000000000000000000000000000000000000815273a82fF9aFd8f496c3d6ac40E2a0F282E47488CFc990637a6cba3c90620011a490600390899089906004016200413e565b602060405180830381865af4158015620011c2573d6000803e3d6000fd5b505050506040513d601f19601f8201168201806040525081019062000cea919062003f89565b6000546001600160a01b03163314620012445760405162461bcd60e51b815260206004820181905260248201527f4f776e61626c653a2063616c6c6572206973206e6f7420746865206f776e6572604482015260640162000906565b600b5462001256906201518062004169565b421015620012a75760405162461bcd60e51b815260206004820152600b60248201527f3c2072616d7044656c6179000000000000000000000000000000000000000000604482015260640162000906565b620012b6620151804262004169565b811015620013075760405162461bcd60e51b815260206004820152600d60248201527f3c206d696e52616d7054696d6500000000000000000000000000000000000000604482015260640162000906565b8160001080156200131a5750620f424082105b620013685760405162461bcd60e51b815260206004820152600a60248201527f6f75744f6652616e676500000000000000000000000000000000000000000000604482015260640162000906565b6040517fa30355850000000000000000000000000000000000000000000000000000000081526003600482015260009073a82fF9aFd8f496c3d6ac40E2a0F282E47488CFc99063a303558590602401602060405180830381865af4158015620013d5573d6000803e3d6000fd5b505050506040513d601f19601f82011682018060405250810190620013fb919062003f89565b905060006200140c60648562004184565b9050818110156200147b578162001425600a8362004184565b1015620014755760405162461bcd60e51b815260206004820152600b60248201527f3e206d61784368616e6765000000000000000000000000000000000000000000604482015260640162000906565b620014d9565b62001488600a8362004184565b811115620014d95760405162461bcd60e51b815260206004820152600b60248201527f3e206d61784368616e6765000000000000000000000000000000000000000000604482015260640162000906565b6009829055600a81905542600b819055600c84905560408051848152602081018490528082019290925260608201859052517fa2b71ec6df949300b59aab36b55e189697b750119dd349fcfa8c0f779e83c2549181900360800190a150505050565b6000546001600160a01b03163314620015975760405162461bcd60e51b815260206004820181905260248201527f4f776e61626c653a2063616c6c6572206973206e6f7420746865206f776e6572604482015260640162000906565b6305f5e100831115620015ed5760405162461bcd60e51b815260206004820152600c60248201527f3e206d6178537761704665650000000000000000000000000000000000000000604482015260640162000906565b6402540be400821115620016445760405162461bcd60e51b815260206004820152600d60248201527f3e206d617841646d696e46656500000000000000000000000000000000000000604482015260640162000906565b6305f5e1008111156200169a5760405162461bcd60e51b815260206004820152601060248201527f3e206d6178576974686472617746656500000000000000000000000000000000604482015260640162000906565b60088290556007839055600d81905560408051848152602081018490529081018290527fcfca96e0fef3432146913b2a5a2268a55d3f475fe057e7ffde1082b77693f4f39060600160405180910390a1505050565b6001600160a01b0381166000818152601260205260409020546003805460ff90921692918390811062001726576200172662003fa3565b6000918252602090912001546001600160a01b0316146200178a5760405162461bcd60e51b815260206004820152600d60248201527f746f6b656e4e6f74466f756e6400000000000000000000000000000000000000604482015260640162000906565b919050565b6000546001600160a01b03163314620017eb5760405162461bcd60e51b815260206004820181905260248201527f4f776e61626c653a2063616c6c6572206973206e6f7420746865206f776e6572604482015260640162000906565b6200101b600062003332565b6040517ffa563597000000000000000000000000000000000000000000000000000000008152600360048201526001600160a01b03831660248201526044810182905260609073a82fF9aFd8f496c3d6ac40E2a0F282E47488CFc99063fa56359790606401600060405180830381865af41580156200187a573d6000803e3d6000fd5b505050506040513d6000823e601f3d9081017fffffffffffffffffffffffffffffffffffffffffffffffffffffffffffffffe0168201604052620018c29190810190620040a4565b9392505050565b600060036000018260ff1681548110620018e757620018e762003fa3565b6000918252602090912001546001600160a01b031692915050565b6000546001600160a01b031633146200195e5760405162461bcd60e51b815260206004820181905260248201527f4f776e61626c653a2063616c6c6572206973206e6f7420746865206f776e6572604482015260640162000906565b6200101b6200339a565b600060026001541415620019bf5760405162461bcd60e51b815260206004820152601f60248201527f5265656e7472616e637947756172643a207265656e7472616e742063616c6c00604482015260640162000906565b600260015560005474010000000000000000000000000000000000000000900460ff161562001a315760405162461bcd60e51b815260206004820152601060248201527f5061757361626c653a2070617573656400000000000000000000000000000000604482015260640162000906565b818042111562001a845760405162461bcd60e51b815260206004820152600760248201527f74696d656f757400000000000000000000000000000000000000000000000000604482015260640162000906565b6040517fc8344c0600000000000000000000000000000000000000000000000000000000815273a82fF9aFd8f496c3d6ac40E2a0F282E47488CFc99063c8344c0690620011a490600390899089906004016200413e565b6040517fe2eba89b0000000000000000000000000000000000000000000000000000000081526003600482015260ff8216602482015260009073a82fF9aFd8f496c3d6ac40E2a0F282E47488CFc99063e2eba89b90604401602060405180830381865af415801562001b51573d6000803e3d6000fd5b505050506040513d601f19601f820116820180604052508101906200102c919062003f89565b6000600380018260ff168154811062001b945762001b9462003fa3565b90600052602060002001549050919050565b6000805474010000000000000000000000000000000000000000900460ff161562001c145760405162461bcd60e51b815260206004820152601060248201527f5061757361626c653a2070617573656400000000000000000000000000000000604482015260640162000906565b6002600154141562001c695760405162461bcd60e51b815260206004820152601f60248201527f5265656e7472616e637947756172643a207265656e7472616e742063616c6c00604482015260640162000906565b60026001556020838101516001600160a01b0390811660009081526012909252604080832054818701518316845292819020546060870151608088015192517fce055b8d0000000000000000000000000000000000000000000000000000000081526003600482015260ff958616602482015294909116604485015260648401526084830152831660a482015273a82fF9aFd8f496c3d6ac40E2a0F282E47488CFc99063ce055b8d9060c401602060405180830381865af415801562001d33573d6000803e3d6000fd5b505050506040513d601f19601f8201168201806040525081019062001d59919062003f89565b600180559392505050565b6040517f159763bb000000000000000000000000000000000000000000000000000000008152600360048201526001600160a01b03841660248201526044810183905260ff8216606482015260009073a82fF9aFd8f496c3d6ac40E2a0F282E47488CFc99063159763bb906084015b602060405180830381865af415801562001df1573d6000803e3d6000fd5b505050506040513d601f19601f8201168201806040525081019062001e17919062003f89565b949350505050565b60606003800180548060200260200160405190810160405280929190818152602001828054801562001e7157602002820191906000526020600020905b81548152602001906001019080831162001e5c575b5050505050905090565b6040517fba2998d90000000000000000000000000000000000000000000000000000000081526003600482015260ff8085166024830152831660448201526064810182905260009073a82fF9aFd8f496c3d6ac40E2a0F282E47488CFc99063ba2998d99060840162001dd3565b6060600360000180548060200260200160405190810160405280929190818152602001828054801562001e7157602002820191906000526020600020905b81546001600160a01b0316815260019091019060200180831162001f26575050505050905090565b6000805474010000000000000000000000000000000000000000900460ff161562001fbc5760405162461bcd60e51b815260206004820152601060248201527f5061757361626c653a2070617573656400000000000000000000000000000000604482015260640162000906565b60026001541415620020115760405162461bcd60e51b815260206004820152601f60248201527f5265656e7472616e637947756172643a207265656e7472616e742063616c6c00604482015260640162000906565b60026001558142811015620020695760405162461bcd60e51b815260206004820152600760248201527f74696d656f757400000000000000000000000000000000000000000000000000604482015260640162000906565b6040517fad30093f0000000000000000000000000000000000000000000000000000000081526003600482015260ff808a1660248301528816604482015260648101879052608481018690526001600160a01b03851660a482015273a82fF9aFd8f496c3d6ac40E2a0F282E47488CFc99063ad30093f9060c401602060405180830381865af415801562002101573d6000803e3d6000fd5b505050506040513d601f19601f8201168201806040525081019062002127919062003f89565b6001805598975050505050505050565b6004546001600160a01b03163314620021935760405162461bcd60e51b815260206004820152600860248201527f216c70546f6b656e000000000000000000000000000000000000000000000000604482015260640162000906565b6040517fc188e4be000000000000000000000000000000000000000000000000000000008152600360048201526001600160a01b03831660248201526044810182905273a82fF9aFd8f496c3d6ac40E2a0F282E47488CFc99063c188e4be9060640160006040518083038186803b1580156200220e57600080fd5b505af415801562002223573d6000803e3d6000fd5b505050505050565b6000546001600160a01b03163314620022875760405162461bcd60e51b815260206004820181905260248201527f4f776e61626c653a2063616c6c6572206973206e6f7420746865206f776e6572604482015260640162000906565b600c544210620022da5760405162461bcd60e51b815260206004820152600e60248201527f616c726561647953746f70706564000000000000000000000000000000000000604482015260640162000906565b6040517fa30355850000000000000000000000000000000000000000000000000000000081526003600482015260009073a82fF9aFd8f496c3d6ac40E2a0F282E47488CFc99063a303558590602401602060405180830381865af415801562002347573d6000803e3d6000fd5b505050506040513d601f19601f820116820180604052508101906200236d919062003f89565b6009819055600a81905542600b819055600c8190556040519192507f46e22fb3709ad289f62ce63d469248536dbc78d82b84a3d7e74ad606dc2019389162000faa91848252602082015260400190565b6001600160a01b038281166000908152601260205260408082205492861682528082205490517fba2998d90000000000000000000000000000000000000000000000000000000081526003600482015260ff938416602482015292166044830152606482018390529073a82fF9aFd8f496c3d6ac40E2a0F282E47488CFc99063ba2998d99060840162001dd3565b6000546001600160a01b03163314620024a75760405162461bcd60e51b815260206004820181905260248201527f4f776e61626c653a2063616c6c6572206973206e6f7420746865206f776e6572604482015260640162000906565b6001600160a01b038116620024ff5760405162461bcd60e51b815260206004820152600b60248201527f7a65726f41646472657373000000000000000000000000000000000000000000604482015260640162000906565b601080547fffffffffffffffffffffffff0000000000000000000000000000000000000000166001600160a01b0383169081179091556040519081527fae5a12c29e496b092467a620746b9eaf4e0e231a631a4370c233b1fac38e8e269060200162000faa565b6060600360020180548060200260200160405190810160405280929190818152602001828054801562001e71576020028201919060005260206000209081548152602001906001019080831162001e5c575050505050905090565b6040517fb52e146f0000000000000000000000000000000000000000000000000000000081526003600482015260009073a82fF9aFd8f496c3d6ac40E2a0F282E47488CFc99063b52e146f9060240162000854565b6000546001600160a01b03163314620026725760405162461bcd60e51b815260206004820181905260248201527f4f776e61626c653a2063616c6c6572206973206e6f7420746865206f776e6572604482015260640162000906565b600254610100900460ff16806200268c575060025460ff16155b620027005760405162461bcd60e51b815260206004820152602e60248201527f496e697469616c697a61626c653a20636f6e747261637420697320616c72656160448201527f647920696e697469616c697a6564000000000000000000000000000000000000606482015260840162000906565b600254610100900460ff161580156200274057600280547fffffffffffffffffffffffffffffffffffffffffffffffffffffffffffff0000166101011790555b88518a5114620027935760405162461bcd60e51b815260206004820152601d60248201527f636f696e734c656e67746820213d20646563696d616c734c656e677468000000604482015260640162000906565b6001600160a01b038216620027eb5760405162461bcd60e51b815260206004820152601660248201527f6665654469737472696275746f72203d20656d70747900000000000000000000604482015260640162000906565b895160008167ffffffffffffffff8111156200280b576200280b620037cc565b60405190808252806020026020018201604052801562002835578160200160208202803683370190505b50905060008267ffffffffffffffff811115620028565762002856620037cc565b60405190808252806020026020018201604052801562002880578160200160208202803683370190505b50905060005b8381101562002aa05760006001600160a01b03168e8281518110620028af57620028af62003fa3565b60200260200101516001600160a01b03161415620029105760405162461bcd60e51b815260206004820152601360248201527f696e76616c6964546f6b656e4164647265737300000000000000000000000000604482015260640162000906565b60128d828151811062002927576200292762003fa3565b602002602001015160ff161115620029825760405162461bcd60e51b815260206004820152600f60248201527f696e76616c6964446563696d616c730000000000000000000000000000000000604482015260640162000906565b8c818151811062002997576200299762003fa3565b602002602001015160ff166012620029b09190620041c4565b620029bd90600a62004317565b838281518110620029d257620029d262003fa3565b6020026020010181815250508d8181518110620029f357620029f362003fa3565b602002602001015182828151811062002a105762002a1062003fa3565b60200260200101906001600160a01b031690816001600160a01b031681525050806012600084848151811062002a4a5762002a4a62003fa3565b60200260200101516001600160a01b03166001600160a01b0316815260200190815260200160002060006101000a81548160ff021916908360ff160217905550808062002a979062004001565b91505062002886565b50620f4240891062002af55760405162461bcd60e51b815260206004820152600660248201527f3e206d6178410000000000000000000000000000000000000000000000000000604482015260640162000906565b6305f5e10088111562002b4b5760405162461bcd60e51b815260206004820152600c60248201527f3e206d6178537761704665650000000000000000000000000000000000000000604482015260640162000906565b6402540be40087111562002ba25760405162461bcd60e51b815260206004820152600d60248201527f3e206d617841646d696e46656500000000000000000000000000000000000000604482015260640162000906565b6305f5e10086111562002bf85760405162461bcd60e51b815260206004820152601060248201527f3e206d6178576974686472617746656500000000000000000000000000000000604482015260640162000906565b8a8a60405162002c08906200360d565b62002c15929190620043a0565b604051809103906000f08015801562002c32573d6000803e3d6000fd5b50600480547fffffffffffffffffffffffff0000000000000000000000000000000000000000166001600160a01b03929092169190911790558267ffffffffffffffff81111562002c875762002c87620037cc565b60405190808252806020026020018201604052801562002cb1578160200160208202803683370190505b50805162002cc8916006916020909101906200361b565b50815162002cde9060059060208501906200361b565b50805162002cf49060039060208401906200366b565b5062002d0260648a62004184565b60095562002d1260648a62004184565b600a5550505060078590556008849055600d839055601080547fffffffffffffffffffffffff0000000000000000000000000000000000000000166001600160a01b038416179055801562002d8a57600280547fffffffffffffffffffffffffffffffffffffffffffffffffffffffffffff00ff1690555b50505050505050505050565b6040517fd36604ac0000000000000000000000000000000000000000000000000000000081526003600482015260009073a82fF9aFd8f496c3d6ac40E2a0F282E47488CFc99063d36604ac9060240162000854565b6040517f1e7e95d300000000000000000000000000000000000000000000000000000000815260009073a82fF9aFd8f496c3d6ac40E2a0F282E47488CFc990631e7e95d39062001dd390600390889088908890600401620043c9565b6001600160a01b038381166000908152601260205260408082205492851682528082205490517fba2998d90000000000000000000000000000000000000000000000000000000081526003600482015260ff938416602482015292166044830152606482018390529073a82fF9aFd8f496c3d6ac40E2a0F282E47488CFc99063ba2998d99060840162001dd3565b6000546001600160a01b0316331462002f315760405162461bcd60e51b815260206004820181905260248201527f4f776e61626c653a2063616c6c6572206973206e6f7420746865206f776e6572604482015260640162000906565b6001600160a01b03811662002faf5760405162461bcd60e51b815260206004820152602660248201527f4f776e61626c653a206e6577206f776e657220697320746865207a65726f206160448201527f6464726573730000000000000000000000000000000000000000000000000000606482015260840162000906565b62002fba8162003332565b50565b6011546001600160a01b031633148062002fe157506000546001600160a01b031633145b6200302f5760405162461bcd60e51b815260206004820152601560248201527f21666565436f6e74726f6c6c65724f724f776e65720000000000000000000000604482015260640162000906565b60005b60035481101562002fba5760006003600001828154811062003058576200305862003fa3565b6000918252602082200154600680546001600160a01b039092169350908490811062003088576200308862003fa3565b6000918252602090912001546040517f70a082310000000000000000000000000000000000000000000000000000000081523060048201526001600160a01b038416906370a0823190602401602060405180830381865afa158015620030f2573d6000803e3d6000fd5b505050506040513d601f19601f8201168201806040525081019062003118919062003f89565b620031249190620041c4565b905080156200318c5760105462003149906001600160a01b038481169116836200346f565b604080516001600160a01b0384168152602081018390527fee3859efa95e525bc2bcb149b51b60a8bb4e89c647392d9d4112e03c3e73bdd6910160405180910390a15b505080806200319b9062004001565b91505062003032565b60005474010000000000000000000000000000000000000000900460ff16620032105760405162461bcd60e51b815260206004820152601460248201527f5061757361626c653a206e6f7420706175736564000000000000000000000000604482015260640162000906565b600080547fffffffffffffffffffffff00ffffffffffffffffffffffffffffffffffffffff1690557f5db9ee0a495bf2e6ff9c91a7834c1ba4fdd244a5e8aa4e537bd38aeae4b073aa335b6040516001600160a01b03909116815260200160405180910390a1565b6001600160a01b0381166000908152600b830160205260408120548190620032a4906224ea0062004169565b90504281111562003328576000620032bd4283620041c4565b6001600160a01b0385166000908152600c87016020526040902054600a8701549192506402540be400916224ea00918491620032fa919062004184565b62003306919062004184565b62003312919062004433565b6200331e919062004433565b925050506200102c565b5060009392505050565b600080546001600160a01b038381167fffffffffffffffffffffffff0000000000000000000000000000000000000000831681178455604051919092169283917f8be0079c531659141344cd1fd0a4f28419497f9722a3daafe3b4186f6b6457e09190a35050565b60005474010000000000000000000000000000000000000000900460ff1615620034075760405162461bcd60e51b815260206004820152601060248201527f5061757361626c653a2070617573656400000000000000000000000000000000604482015260640162000906565b600080547fffffffffffffffffffffff00ffffffffffffffffffffffffffffffffffffffff16740100000000000000000000000000000000000000001790557f62e78cea01bee320cd4e420270b5ea74000d11b0c9f74754ebdbfc544b05a2586200325b3390565b604080516001600160a01b038416602482015260448082018490528251808303909101815260649091019091526020810180517bffffffffffffffffffffffffffffffffffffffffffffffffffffffff167fa9059cbb00000000000000000000000000000000000000000000000000000000179052620034f1908490620034f6565b505050565b600080836001600160a01b0316836040516200351391906200446f565b6000604051808303816000865af19150503d806000811462003552576040519150601f19603f3d011682016040523d82523d6000602084013e62003557565b606091505b5091509150600082141562003570573d6000803e3d6000fd5b6200359f815160001480620035965750818060200190518101906200359691906200448d565b6101a2620035a5565b50505050565b81620035b657620035b681620035ba565b5050565b62461bcd60e51b6000908152602060045260076024526652455123000030600a808404818106603090810160081b95839006959095019082900491820690940160101b939093010160c81b604452606490fd5b61161180620044ae83390190565b82805482825590600052602060002090810192821562003659579160200282015b82811115620036595782518255916020019190600101906200363c565b5062003667929150620036db565b5090565b82805482825590600052602060002090810192821562003659579160200282015b828111156200365957825182547fffffffffffffffffffffffff0000000000000000000000000000000000000000166001600160a01b039091161782556020909201916001909101906200368c565b5b80821115620036675760008155600101620036dc565b80356001600160a01b03811681146200178a57600080fd5b6000602082840312156200371d57600080fd5b620018c282620036f2565b600080600080600060a086880312156200374157600080fd5b6200374c86620036f2565b94506200375c60208701620036f2565b935060408601359250606086013591506200377a60808701620036f2565b90509295509295909350565b6020808252825182820181905260009190848201906040850190845b81811015620037c057835183529284019291840191600101620037a2565b50909695505050505050565b7f4e487b7100000000000000000000000000000000000000000000000000000000600052604160045260246000fd5b604051601f82017fffffffffffffffffffffffffffffffffffffffffffffffffffffffffffffffe016810167ffffffffffffffff81118282101715620038455762003845620037cc565b604052919050565b600067ffffffffffffffff8211156200386a576200386a620037cc565b5060051b60200190565b600082601f8301126200388657600080fd5b813560206200389f62003899836200384d565b620037fb565b82815260059290921b84018101918181019086841115620038bf57600080fd5b8286015b84811015620038dc5780358352918301918301620038c3565b509695505050505050565b600080600060608486031215620038fd57600080fd5b83359250602084013567ffffffffffffffff8111156200391c57600080fd5b6200392a8682870162003874565b925050604084013590509250925092565b803560ff811681146200178a57600080fd5b600080600080608085870312156200396457600080fd5b8435935062003976602086016200393b565b93969395505050506040820135916060013590565b600080600060608486031215620039a157600080fd5b833567ffffffffffffffff811115620039b957600080fd5b620039c78682870162003874565b9660208601359650604090950135949350505050565b60008060408385031215620039f157600080fd5b50508035926020909101359150565b60008060006060848603121562003a1657600080fd5b505081359360208301359350604090920135919050565b6000806040838503121562003a4157600080fd5b62003a4c83620036f2565b946020939093013593505050565b60006020828403121562003a6d57600080fd5b620018c2826200393b565b60008082840360e081121562003a8d57600080fd5b60c081121562003a9c57600080fd5b5060405160c0810181811067ffffffffffffffff8211171562003ac35762003ac3620037cc565b60405262003ad184620036f2565b815262003ae160208501620036f2565b602082015262003af460408501620036f2565b6040820152606084013560608201526080840135608082015260a084013560a08201528092505062003b2960c08401620036f2565b90509250929050565b60008060006060848603121562003b4857600080fd5b62003b5384620036f2565b92506020840135915062003b6a604085016200393b565b90509250925092565b60008060006060848603121562003b8957600080fd5b62003b94846200393b565b925062003ba4602085016200393b565b9150604084013590509250925092565b6020808252825182820181905260009190848201906040850190845b81811015620037c05783516001600160a01b03168352928401929184019160010162003bd0565b60008060008060008060c0878903121562003c1157600080fd5b62003c1c876200393b565b955062003c2c602088016200393b565b9450604087013593506060870135925062003c4a60808801620036f2565b915060a087013590509295509295509295565b60008060006060848603121562003c7357600080fd5b62003c7e84620036f2565b925062003ba460208501620036f2565b600082601f83011262003ca057600080fd5b8135602062003cb362003899836200384d565b82815260059290921b8401810191818101908684111562003cd357600080fd5b8286015b84811015620038dc5762003ceb81620036f2565b835291830191830162003cd7565b600082601f83011262003d0b57600080fd5b8135602062003d1e62003899836200384d565b82815260059290921b8401810191818101908684111562003d3e57600080fd5b8286015b84811015620038dc5762003d56816200393b565b835291830191830162003d42565b600082601f83011262003d7657600080fd5b813567ffffffffffffffff81111562003d935762003d93620037cc565b62003dc660207fffffffffffffffffffffffffffffffffffffffffffffffffffffffffffffffe0601f84011601620037fb565b81815284602083860101111562003ddc57600080fd5b816020850160208301376000918101602001919091529392505050565b60008060008060008060008060006101208a8c03121562003e1957600080fd5b893567ffffffffffffffff8082111562003e3257600080fd5b62003e408d838e0162003c8e565b9a5060208c013591508082111562003e5757600080fd5b62003e658d838e0162003cf9565b995060408c013591508082111562003e7c57600080fd5b62003e8a8d838e0162003d64565b985060608c013591508082111562003ea157600080fd5b5062003eb08c828d0162003d64565b96505060808a0135945060a08a0135935060c08a0135925060e08a0135915062003ede6101008b01620036f2565b90509295985092959850929598565b801515811462002fba57600080fd5b60008060006040848603121562003f1257600080fd5b833567ffffffffffffffff8082111562003f2b57600080fd5b818601915086601f83011262003f4057600080fd5b81358181111562003f5057600080fd5b8760208260051b850101111562003f6657600080fd5b6020928301955093505084013562003f7e8162003eed565b809150509250925092565b60006020828403121562003f9c57600080fd5b5051919050565b7f4e487b7100000000000000000000000000000000000000000000000000000000600052603260045260246000fd5b7f4e487b7100000000000000000000000000000000000000000000000000000000600052601160045260246000fd5b60007fffffffffffffffffffffffffffffffffffffffffffffffffffffffffffffffff82141562004036576200403662003fd2565b5060010190565b600081518084526020808501945080840160005b838110156200406f5781518752958201959082019060010162004051565b509495945050505050565b8381528260208201526060604082015260006200409b60608301846200403d565b95945050505050565b60006020808385031215620040b857600080fd5b825167ffffffffffffffff811115620040d057600080fd5b8301601f81018513620040e257600080fd5b8051620040f362003899826200384d565b81815260059190911b820183019083810190878311156200411357600080fd5b928401925b82841015620041335783518252928401929084019062004118565b979650505050505050565b8381526060602082015260006200415960608301856200403d565b9050826040830152949350505050565b600082198211156200417f576200417f62003fd2565b500190565b6000817fffffffffffffffffffffffffffffffffffffffffffffffffffffffffffffffff0483118215151615620041bf57620041bf62003fd2565b500290565b600082821015620041d957620041d962003fd2565b500390565b600181815b808511156200423d57817fffffffffffffffffffffffffffffffffffffffffffffffffffffffffffffffff0482111562004221576200422162003fd2565b808516156200422f57918102915b93841c9390800290620041e3565b509250929050565b60008262004256575060016200102c565b8162004265575060006200102c565b81600181146200427e57600281146200428957620042a9565b60019150506200102c565b60ff8411156200429d576200429d62003fd2565b50506001821b6200102c565b5060208310610133831016604e8410600b8410161715620042ce575081810a6200102c565b620042da8383620041de565b807fffffffffffffffffffffffffffffffffffffffffffffffffffffffffffffffff048211156200430f576200430f62003fd2565b029392505050565b6000620018c2838362004245565b60005b838110156200434257818101518382015260200162004328565b838111156200359f5750506000910152565b600081518084526200436e81602086016020860162004325565b601f017fffffffffffffffffffffffffffffffffffffffffffffffffffffffffffffffe0169290920160200192915050565b604081526000620043b5604083018562004354565b82810360208401526200409b818562004354565b8481526060602082015282606082015260007f07ffffffffffffffffffffffffffffffffffffffffffffffffffffffffffffff8411156200440957600080fd5b8360051b808660808501376000908301608001908152921515604090920191909152509392505050565b6000826200446a577f4e487b7100000000000000000000000000000000000000000000000000000000600052601260045260246000fd5b500490565b600082516200448381846020870162004325565b9190910192915050565b600060208284031215620044a057600080fd5b8151620018c28162003eed56fe60806040523480156200001157600080fd5b506040516200161138038062001611833981016040819052620000349162000256565b8181620000413362000093565b815162000056906004906020850190620000e3565b5080516200006c906005906020840190620000e3565b50506006805433610100026001600160a81b031990911617601217905550620002fd915050565b600080546001600160a01b038381166001600160a01b0319831681178455604051919092169283917f8be0079c531659141344cd1fd0a4f28419497f9722a3daafe3b4186f6b6457e09190a35050565b828054620000f190620002c0565b90600052602060002090601f01602090048101928262000115576000855562000160565b82601f106200013057805160ff191683800117855562000160565b8280016001018555821562000160579182015b828111156200016057825182559160200191906001019062000143565b506200016e92915062000172565b5090565b5b808211156200016e576000815560010162000173565b634e487b7160e01b600052604160045260246000fd5b600082601f830112620001b157600080fd5b81516001600160401b0380821115620001ce57620001ce62000189565b604051601f8301601f19908116603f01168101908282118183101715620001f957620001f962000189565b816040528381526020925086838588010111156200021657600080fd5b600091505b838210156200023a57858201830151818301840152908201906200021b565b838211156200024c5760008385830101525b9695505050505050565b600080604083850312156200026a57600080fd5b82516001600160401b03808211156200028257600080fd5b62000290868387016200019f565b93506020850151915080821115620002a757600080fd5b50620002b6858286016200019f565b9150509250929050565b600181811c90821680620002d557607f821691505b60208210811415620002f757634e487b7160e01b600052602260045260246000fd5b50919050565b611304806200030d6000396000f3fe608060405234801561001057600080fd5b50600436106101365760003560e01c8063715018a6116100b257806395d89b4111610081578063a9059cbb11610066578063a9059cbb146102bf578063dd62ed3e146102d2578063f2fde38b1461031857600080fd5b806395d89b41146102a4578063a457c2d7146102ac57600080fd5b8063715018a61461022157806379cc6790146102295780638119c0651461023c5780638da5cb5b1461028657600080fd5b8063313ce5671161010957806340c10f19116100ee57806340c10f19146101c357806342966c68146101d857806370a08231146101eb57600080fd5b8063313ce567146101a157806339509351146101b057600080fd5b806306fdde031461013b578063095ea7b31461015957806318160ddd1461017c57806323b872dd1461018e575b600080fd5b61014361032b565b60405161015091906110ac565b60405180910390f35b61016c610167366004611148565b6103bd565b6040519015158152602001610150565b6003545b604051908152602001610150565b61016c61019c366004611172565b6103d3565b60405160128152602001610150565b61016c6101be366004611148565b6104a4565b6101d66101d1366004611148565b6104ed565b005b6101d66101e63660046111ae565b6105b2565b6101806101f93660046111c7565b73ffffffffffffffffffffffffffffffffffffffff1660009081526001602052604090205490565b6101d66105bf565b6101d6610237366004611148565b610632565b60065461026190610100900473ffffffffffffffffffffffffffffffffffffffff1681565b60405173ffffffffffffffffffffffffffffffffffffffff9091168152602001610150565b60005473ffffffffffffffffffffffffffffffffffffffff16610261565b61014361068c565b61016c6102ba366004611148565b61069b565b61016c6102cd366004611148565b610759565b6101806102e03660046111e9565b73ffffffffffffffffffffffffffffffffffffffff918216600090815260026020908152604080832093909416825291909152205490565b6101d66103263660046111c7565b610766565b60606004805461033a9061121c565b80601f01602080910402602001604051908101604052809291908181526020018280546103669061121c565b80156103b35780601f10610388576101008083540402835291602001916103b3565b820191906000526020600020905b81548152906001019060200180831161039657829003601f168201915b5050505050905090565b60006103ca33848461085f565b50600192915050565b60006103e08484846109de565b73ffffffffffffffffffffffffffffffffffffffff841660009081526002602090815260408083203384529091529020548281101561048c5760405162461bcd60e51b815260206004820152602860248201527f45524332303a207472616e7366657220616d6f756e742065786365656473206160448201527f6c6c6f77616e636500000000000000000000000000000000000000000000000060648201526084015b60405180910390fd5b610499853385840361085f565b506001949350505050565b33600081815260026020908152604080832073ffffffffffffffffffffffffffffffffffffffff8716845290915281205490916103ca9185906104e890869061129f565b61085f565b60005473ffffffffffffffffffffffffffffffffffffffff1633146105545760405162461bcd60e51b815260206004820181905260248201527f4f776e61626c653a2063616c6c6572206973206e6f7420746865206f776e65726044820152606401610483565b600081116105a45760405162461bcd60e51b815260206004820152600e60248201527f7a65726f4d696e74416d6f756e740000000000000000000000000000000000006044820152606401610483565b6105ae8282610c4f565b5050565b6105bc3382610d61565b50565b60005473ffffffffffffffffffffffffffffffffffffffff1633146106265760405162461bcd60e51b815260206004820181905260248201527f4f776e61626c653a2063616c6c6572206973206e6f7420746865206f776e65726044820152606401610483565b6106306000610f26565b565b73ffffffffffffffffffffffffffffffffffffffff8216600090815260026020908152604080832033845290915281205461067090836101a1610f9b565b905061067d83338361085f565b6106878383610d61565b505050565b60606005805461033a9061121c565b33600090815260026020908152604080832073ffffffffffffffffffffffffffffffffffffffff86168452909152812054828110156107425760405162461bcd60e51b815260206004820152602560248201527f45524332303a2064656372656173656420616c6c6f77616e63652062656c6f7760448201527f207a65726f0000000000000000000000000000000000000000000000000000006064820152608401610483565b61074f338585840361085f565b5060019392505050565b60006103ca3384846109de565b60005473ffffffffffffffffffffffffffffffffffffffff1633146107cd5760405162461bcd60e51b815260206004820181905260248201527f4f776e61626c653a2063616c6c6572206973206e6f7420746865206f776e65726044820152606401610483565b73ffffffffffffffffffffffffffffffffffffffff81166108565760405162461bcd60e51b815260206004820152602660248201527f4f776e61626c653a206e6577206f776e657220697320746865207a65726f206160448201527f64647265737300000000000000000000000000000000000000000000000000006064820152608401610483565b6105bc81610f26565b73ffffffffffffffffffffffffffffffffffffffff83166108e75760405162461bcd60e51b8152602060048201526024808201527f45524332303a20617070726f76652066726f6d20746865207a65726f2061646460448201527f72657373000000000000000000000000000000000000000000000000000000006064820152608401610483565b73ffffffffffffffffffffffffffffffffffffffff82166109705760405162461bcd60e51b815260206004820152602260248201527f45524332303a20617070726f766520746f20746865207a65726f20616464726560448201527f73730000000000000000000000000000000000000000000000000000000000006064820152608401610483565b73ffffffffffffffffffffffffffffffffffffffff83811660008181526002602090815260408083209487168084529482529182902085905590518481527f8c5be1e5ebec7d5bd14f71427d1e84f3dd0314c0f7b2291e5b200ac8c7c3b925910160405180910390a3505050565b73ffffffffffffffffffffffffffffffffffffffff8316610a675760405162461bcd60e51b815260206004820152602560248201527f45524332303a207472616e736665722066726f6d20746865207a65726f20616460448201527f64726573730000000000000000000000000000000000000000000000000000006064820152608401610483565b73ffffffffffffffffffffffffffffffffffffffff8216610af05760405162461bcd60e51b815260206004820152602360248201527f45524332303a207472616e7366657220746f20746865207a65726f206164647260448201527f65737300000000000000000000000000000000000000000000000000000000006064820152608401610483565b610afb838383610fbf565b73ffffffffffffffffffffffffffffffffffffffff831660009081526001602052604090205481811015610b975760405162461bcd60e51b815260206004820152602660248201527f45524332303a207472616e7366657220616d6f756e742065786365656473206260448201527f616c616e636500000000000000000000000000000000000000000000000000006064820152608401610483565b73ffffffffffffffffffffffffffffffffffffffff808516600090815260016020526040808220858503905591851681529081208054849290610bdb90849061129f565b925050819055508273ffffffffffffffffffffffffffffffffffffffff168473ffffffffffffffffffffffffffffffffffffffff167fddf252ad1be2c89b69c2b068fc378daa952ba7f163c4a11628f55a4df523b3ef84604051610c4191815260200190565b60405180910390a350505050565b73ffffffffffffffffffffffffffffffffffffffff8216610cb25760405162461bcd60e51b815260206004820152601f60248201527f45524332303a206d696e7420746f20746865207a65726f2061646472657373006044820152606401610483565b610cbe60008383610fbf565b8060036000828254610cd0919061129f565b909155505073ffffffffffffffffffffffffffffffffffffffff821660009081526001602052604081208054839290610d0a90849061129f565b909155505060405181815273ffffffffffffffffffffffffffffffffffffffff8316906000907fddf252ad1be2c89b69c2b068fc378daa952ba7f163c4a11628f55a4df523b3ef9060200160405180910390a35050565b73ffffffffffffffffffffffffffffffffffffffff8216610dea5760405162461bcd60e51b815260206004820152602160248201527f45524332303a206275726e2066726f6d20746865207a65726f2061646472657360448201527f73000000000000000000000000000000000000000000000000000000000000006064820152608401610483565b610df682600083610fbf565b73ffffffffffffffffffffffffffffffffffffffff821660009081526001602052604090205481811015610e925760405162461bcd60e51b815260206004820152602260248201527f45524332303a206275726e20616d6f756e7420657863656564732062616c616e60448201527f63650000000000000000000000000000000000000000000000000000000000006064820152608401610483565b73ffffffffffffffffffffffffffffffffffffffff83166000908152600160205260408120838303905560038054849290610ece9084906112b7565b909155505060405182815260009073ffffffffffffffffffffffffffffffffffffffff8516907fddf252ad1be2c89b69c2b068fc378daa952ba7f163c4a11628f55a4df523b3ef9060200160405180910390a3505050565b6000805473ffffffffffffffffffffffffffffffffffffffff8381167fffffffffffffffffffffffff0000000000000000000000000000000000000000831681178455604051919092169283917f8be0079c531659141344cd1fd0a4f28419497f9722a3daafe3b4186f6b6457e09190a35050565b6000610faa8484111583611056565b6000610fb684866112b7565b95945050505050565b6006546040517fc00c125c00000000000000000000000000000000000000000000000000000000815273ffffffffffffffffffffffffffffffffffffffff8481166004830152602482018490526101009092049091169063c00c125c90604401600060405180830381600087803b15801561103957600080fd5b505af115801561104d573d6000803e3d6000fd5b50505050505050565b816105ae5762461bcd60e51b600090815260206004526007602452600a808304818104828106603090810160101b848706949093060160081b929092010166524551230000300160c81b6044526105ae91606490fd5b600060208083528351808285015260005b818110156110d9578581018301518582016040015282016110bd565b818111156110eb576000604083870101525b50601f017fffffffffffffffffffffffffffffffffffffffffffffffffffffffffffffffe016929092016040019392505050565b803573ffffffffffffffffffffffffffffffffffffffff8116811461114357600080fd5b919050565b6000806040838503121561115b57600080fd5b6111648361111f565b946020939093013593505050565b60008060006060848603121561118757600080fd5b6111908461111f565b925061119e6020850161111f565b9150604084013590509250925092565b6000602082840312156111c057600080fd5b5035919050565b6000602082840312156111d957600080fd5b6111e28261111f565b9392505050565b600080604083850312156111fc57600080fd5b6112058361111f565b91506112136020840161111f565b90509250929050565b600181811c9082168061123057607f821691505b6020821081141561126a577f4e487b7100000000000000000000000000000000000000000000000000000000600052602260045260246000fd5b50919050565b7f4e487b7100000000000000000000000000000000000000000000000000000000600052601160045260246000fd5b600082198211156112b2576112b2611270565b500190565b6000828210156112c9576112c9611270565b50039056fea2646970667358221220901995dc99d1bf3317f83f3d43645017723dd3892f756276f9450fd371d475df64736f6c634300080a0033a2646970667358221220c9ce6de471569ab04b6d8e7eab78d9a78d138d5320f19834dd468ded5d391bfb64736f6c634300080a0033",
  "deployedBytecode": "0x60806040523480156200001157600080fd5b5060043610620003915760003560e01c80638554a7d411620001e1578063cc56fd43116200010d578063e25aa5fa11620000af578063efeecb511162000086578063efeecb5114620007cd578063f2fde38b14620007d6578063f3de036214620007ed578063fe49abe314620007fa57600080fd5b8063e25aa5fa1462000795578063e6ab2806146200079f578063e9255bae14620007b657600080fd5b8063d46300fd11620000e4578063d46300fd1462000774578063d4b0de2f14620006ef578063df3ed68d146200077e57600080fd5b8063cc56fd43146200073c578063ccfc2e8d1462000753578063d41f6568146200076a57600080fd5b8063a95b089f1162000183578063ab5ac061116200015a578063ab5ac06114620006fb578063bfd3956b1462000704578063c00c125c146200071b578063c4db7fa0146200073257600080fd5b8063a95b089f14620006bf578063aa6ca80814620006d6578063ab3d854414620006ef57600080fd5b806396a65a6c11620001b857806396a65a6c146200068757806398899f40146200069e578063a1dc903114620006b557600080fd5b80638554a7d414620006475780638da5cb5b146200065e57806391ceb3eb146200067057600080fd5b80634d49e87d11620002c15780636999b37711620002635780638214f5a4116200023a5780638214f5a414620005fd57806382b86600146200060f5780638456cb59146200062657806384cdd9bc146200063057600080fd5b80636999b37714620005c8578063715018a614620005dc5780637c61e56114620005e657600080fd5b80635c975abb11620002985780635c975abb146200050c5780635fd65f0f146200053b57806366c0bd2414620005b157600080fd5b80634d49e87d14620004c7578063593d132c14620004de5780635b65b9ab14620004f557600080fd5b806331cd52b011620003375780633ed4c678116200030e5780633ed4c678146200048d5780633f4ba83a14620004a65780634a1b0d5714620004b05780634ac00e03146200042457600080fd5b806331cd52b0146200045457806339698415146200046b5780633e3a1560146200047657600080fd5b80630d43e8ad116200036c5780630d43e8ad14620003f75780630e6d8bce146200042457806318f52ce2146200043b57600080fd5b806304bc3b1c146200039657806306e9481c14620003d35780630ba8195914620003ed575b600080fd5b620003bc620003a73660046200370a565b60126020526000908152604090205460ff1681565b60405160ff90911681526020015b60405180910390f35b620003de6201518081565b604051908152602001620003ca565b620003de62000804565b6010546200040b906001600160a01b031681565b6040516001600160a01b039091168152602001620003ca565b620003de6200043536600462003728565b6200089d565b6200044562000a52565b604051620003ca919062003786565b6200044562000465366004620038e7565b62000b7e565b620003de620f424081565b620003de620004873660046200394d565b62000cf7565b620004a46200049e3660046200370a565b62000e94565b005b620004a462000fb5565b620003de620004c13660046200370a565b6200101d565b620003de620004d83660046200398b565b62001032565b620004a4620004ef366004620039dd565b620011e8565b620004a46200050636600462003a00565b6200153b565b60005474010000000000000000000000000000000000000000900460ff166040519015158152602001620003ca565b600454600754600854600954600a54600b54600c54600d546200056b976001600160a01b03169695949392919088565b604080516001600160a01b0390991689526020890197909752958701949094526060860192909252608085015260a084015260c083015260e082015261010001620003ca565b620003bc620005c23660046200370a565b620016ef565b6011546200040b906001600160a01b031681565b620004a46200178f565b62000445620005f736600462003a2d565b620017f7565b6004546001600160a01b03166200040b565b6200040b6200062036600462003a5a565b620018c9565b620004a462001902565b620003de620006413660046200398b565b62001968565b620003de6200065836600462003a5a565b62001adb565b6000546001600160a01b03166200040b565b620003de6200068136600462003a5a565b62001b77565b620003de6200069836600462003a78565b62001ba6565b620003de620006af36600462003b32565b62001d64565b6200044562001e1f565b620003de620006d036600462003b73565b62001e7b565b620006e062001ee8565b604051620003ca919062003bb4565b620003de6305f5e10081565b620003de600a81565b620003de6200071536600462003bf7565b62001f4e565b620004a46200072c36600462003a2d565b62002137565b620004a46200222b565b620003de6200074d36600462003c5d565b620023bd565b620004a4620007643660046200370a565b6200244b565b6200044562002566565b620003de620025c1565b620004a46200078f36600462003df9565b62002616565b620003de62002d96565b620003de620007b036600462003efc565b62002deb565b620003de620007c736600462003c5d565b62002e47565b600354620003de565b620004a4620007e73660046200370a565b62002ed5565b620003de6402540be40081565b620004a462002fbd565b6040517fa30355850000000000000000000000000000000000000000000000000000000081526003600482015260009073__$6aaf67e7827a013dd22ce71b2520632c86$__9063a3035585906024015b602060405180830381865af415801562000872573d6000803e3d6000fd5b505050506040513d601f19601f8201168201806040525081019062000898919062003f89565b905090565b6000805474010000000000000000000000000000000000000000900460ff16156200090f5760405162461bcd60e51b815260206004820152601060248201527f5061757361626c653a207061757365640000000000000000000000000000000060448201526064015b60405180910390fd5b60026001541415620009645760405162461bcd60e51b815260206004820152601f60248201527f5265656e7472616e637947756172643a207265656e7472616e742063616c6c00604482015260640162000906565b60026001556001600160a01b03868116600090815260126020526040808220548884168352918190205490517fce055b8d0000000000000000000000000000000000000000000000000000000081526003600482015260ff928316602482015291166044820152606481018690526084810185905290831660a482015273__$6aaf67e7827a013dd22ce71b2520632c86$__9063ce055b8d9060c401602060405180830381865af415801562000a1e573d6000803e3d6000fd5b505050506040513d601f19601f8201168201806040525081019062000a44919062003f89565b600180559695505050505050565b6003546060908067ffffffffffffffff81111562000a745762000a74620037cc565b60405190808252806020026020018201604052801562000a9e578160200160208202803683370190505b50915060005b8181101562000b79576040517fe2eba89b000000000000000000000000000000000000000000000000000000008152600360048201526024810182905273__$6aaf67e7827a013dd22ce71b2520632c86$__9063e2eba89b90604401602060405180830381865af415801562000b1e573d6000803e3d6000fd5b505050506040513d601f19601f8201168201806040525081019062000b44919062003f89565b83828151811062000b595762000b5962003fa3565b60209081029190910101528062000b708162004001565b91505062000aa4565b505090565b60606002600154141562000bd55760405162461bcd60e51b815260206004820152601f60248201527f5265656e7472616e637947756172643a207265656e7472616e742063616c6c00604482015260640162000906565b6002600155814281101562000c2d5760405162461bcd60e51b815260206004820152600760248201527f74696d656f757400000000000000000000000000000000000000000000000000604482015260640162000906565b6040517fc685696c00000000000000000000000000000000000000000000000000000000815273__$6aaf67e7827a013dd22ce71b2520632c86$__9063c685696c9062000c8490600390899089906004016200407a565b600060405180830381865af415801562000ca2573d6000803e3d6000fd5b505050506040513d6000823e601f3d9081017fffffffffffffffffffffffffffffffffffffffffffffffffffffffffffffffe016820160405262000cea9190810190620040a4565b6001805595945050505050565b60006002600154141562000d4e5760405162461bcd60e51b815260206004820152601f60248201527f5265656e7472616e637947756172643a207265656e7472616e742063616c6c00604482015260640162000906565b600260015560005474010000000000000000000000000000000000000000900460ff161562000dc05760405162461bcd60e51b815260206004820152601060248201527f5061757361626c653a2070617573656400000000000000000000000000000000604482015260640162000906565b818042111562000e135760405162461bcd60e51b815260206004820152600760248201527f74696d656f757400000000000000000000000000000000000000000000000000604482015260640162000906565b6040517f2bfe30d0000000000000000000000000000000000000000000000000000000008152600360048201526024810187905260ff861660448201526064810185905273__$6aaf67e7827a013dd22ce71b2520632c86$__90632bfe30d090608401602060405180830381865af415801562000a1e573d6000803e3d6000fd5b6000546001600160a01b0316331462000ef05760405162461bcd60e51b815260206004820181905260248201527f4f776e61626c653a2063616c6c6572206973206e6f7420746865206f776e6572604482015260640162000906565b6001600160a01b03811662000f485760405162461bcd60e51b815260206004820152600b60248201527f7a65726f41646472657373000000000000000000000000000000000000000000604482015260640162000906565b601180547fffffffffffffffffffffffff0000000000000000000000000000000000000000166001600160a01b0383169081179091556040519081527f4c3f3b9852ccceadd50f16518f348e2624c8f0240acdd5bc81911c0fba83ec67906020015b60405180910390a150565b6000546001600160a01b03163314620010115760405162461bcd60e51b815260206004820181905260248201527f4f776e61626c653a2063616c6c6572206973206e6f7420746865206f776e6572604482015260640162000906565b6200101b620031a4565b565b60006200102c60038362003278565b92915050565b6000805474010000000000000000000000000000000000000000900460ff1615620010a05760405162461bcd60e51b815260206004820152601060248201527f5061757361626c653a2070617573656400000000000000000000000000000000604482015260640162000906565b60026001541415620010f55760405162461bcd60e51b815260206004820152601f60248201527f5265656e7472616e637947756172643a207265656e7472616e742063616c6c00604482015260640162000906565b600260015581428110156200114d5760405162461bcd60e51b815260206004820152600760248201527f74696d656f757400000000000000000000000000000000000000000000000000604482015260640162000906565b6040517f7a6cba3c00000000000000000000000000000000000000000000000000000000815273__$6aaf67e7827a013dd22ce71b2520632c86$__90637a6cba3c90620011a490600390899089906004016200413e565b602060405180830381865af4158015620011c2573d6000803e3d6000fd5b505050506040513d601f19601f8201168201806040525081019062000cea919062003f89565b6000546001600160a01b03163314620012445760405162461bcd60e51b815260206004820181905260248201527f4f776e61626c653a2063616c6c6572206973206e6f7420746865206f776e6572604482015260640162000906565b600b5462001256906201518062004169565b421015620012a75760405162461bcd60e51b815260206004820152600b60248201527f3c2072616d7044656c6179000000000000000000000000000000000000000000604482015260640162000906565b620012b6620151804262004169565b811015620013075760405162461bcd60e51b815260206004820152600d60248201527f3c206d696e52616d7054696d6500000000000000000000000000000000000000604482015260640162000906565b8160001080156200131a5750620f424082105b620013685760405162461bcd60e51b815260206004820152600a60248201527f6f75744f6652616e676500000000000000000000000000000000000000000000604482015260640162000906565b6040517fa30355850000000000000000000000000000000000000000000000000000000081526003600482015260009073__$6aaf67e7827a013dd22ce71b2520632c86$__9063a303558590602401602060405180830381865af4158015620013d5573d6000803e3d6000fd5b505050506040513d601f19601f82011682018060405250810190620013fb919062003f89565b905060006200140c60648562004184565b9050818110156200147b578162001425600a8362004184565b1015620014755760405162461bcd60e51b815260206004820152600b60248201527f3e206d61784368616e6765000000000000000000000000000000000000000000604482015260640162000906565b620014d9565b62001488600a8362004184565b811115620014d95760405162461bcd60e51b815260206004820152600b60248201527f3e206d61784368616e6765000000000000000000000000000000000000000000604482015260640162000906565b6009829055600a81905542600b819055600c84905560408051848152602081018490528082019290925260608201859052517fa2b71ec6df949300b59aab36b55e189697b750119dd349fcfa8c0f779e83c2549181900360800190a150505050565b6000546001600160a01b03163314620015975760405162461bcd60e51b815260206004820181905260248201527f4f776e61626c653a2063616c6c6572206973206e6f7420746865206f776e6572604482015260640162000906565b6305f5e100831115620015ed5760405162461bcd60e51b815260206004820152600c60248201527f3e206d6178537761704665650000000000000000000000000000000000000000604482015260640162000906565b6402540be400821115620016445760405162461bcd60e51b815260206004820152600d60248201527f3e206d617841646d696e46656500000000000000000000000000000000000000604482015260640162000906565b6305f5e1008111156200169a5760405162461bcd60e51b815260206004820152601060248201527f3e206d6178576974686472617746656500000000000000000000000000000000604482015260640162000906565b60088290556007839055600d81905560408051848152602081018490529081018290527fcfca96e0fef3432146913b2a5a2268a55d3f475fe057e7ffde1082b77693f4f39060600160405180910390a1505050565b6001600160a01b0381166000818152601260205260409020546003805460ff90921692918390811062001726576200172662003fa3565b6000918252602090912001546001600160a01b0316146200178a5760405162461bcd60e51b815260206004820152600d60248201527f746f6b656e4e6f74466f756e6400000000000000000000000000000000000000604482015260640162000906565b919050565b6000546001600160a01b03163314620017eb5760405162461bcd60e51b815260206004820181905260248201527f4f776e61626c653a2063616c6c6572206973206e6f7420746865206f776e6572604482015260640162000906565b6200101b600062003332565b6040517ffa563597000000000000000000000000000000000000000000000000000000008152600360048201526001600160a01b03831660248201526044810182905260609073__$6aaf67e7827a013dd22ce71b2520632c86$__9063fa56359790606401600060405180830381865af41580156200187a573d6000803e3d6000fd5b505050506040513d6000823e601f3d9081017fffffffffffffffffffffffffffffffffffffffffffffffffffffffffffffffe0168201604052620018c29190810190620040a4565b9392505050565b600060036000018260ff1681548110620018e757620018e762003fa3565b6000918252602090912001546001600160a01b031692915050565b6000546001600160a01b031633146200195e5760405162461bcd60e51b815260206004820181905260248201527f4f776e61626c653a2063616c6c6572206973206e6f7420746865206f776e6572604482015260640162000906565b6200101b6200339a565b600060026001541415620019bf5760405162461bcd60e51b815260206004820152601f60248201527f5265656e7472616e637947756172643a207265656e7472616e742063616c6c00604482015260640162000906565b600260015560005474010000000000000000000000000000000000000000900460ff161562001a315760405162461bcd60e51b815260206004820152601060248201527f5061757361626c653a2070617573656400000000000000000000000000000000604482015260640162000906565b818042111562001a845760405162461bcd60e51b815260206004820152600760248201527f74696d656f757400000000000000000000000000000000000000000000000000604482015260640162000906565b6040517fc8344c0600000000000000000000000000000000000000000000000000000000815273__$6aaf67e7827a013dd22ce71b2520632c86$__9063c8344c0690620011a490600390899089906004016200413e565b6040517fe2eba89b0000000000000000000000000000000000000000000000000000000081526003600482015260ff8216602482015260009073__$6aaf67e7827a013dd22ce71b2520632c86$__9063e2eba89b90604401602060405180830381865af415801562001b51573d6000803e3d6000fd5b505050506040513d601f19601f820116820180604052508101906200102c919062003f89565b6000600380018260ff168154811062001b945762001b9462003fa3565b90600052602060002001549050919050565b6000805474010000000000000000000000000000000000000000900460ff161562001c145760405162461bcd60e51b815260206004820152601060248201527f5061757361626c653a2070617573656400000000000000000000000000000000604482015260640162000906565b6002600154141562001c695760405162461bcd60e51b815260206004820152601f60248201527f5265656e7472616e637947756172643a207265656e7472616e742063616c6c00604482015260640162000906565b60026001556020838101516001600160a01b0390811660009081526012909252604080832054818701518316845292819020546060870151608088015192517fce055b8d0000000000000000000000000000000000000000000000000000000081526003600482015260ff958616602482015294909116604485015260648401526084830152831660a482015273__$6aaf67e7827a013dd22ce71b2520632c86$__9063ce055b8d9060c401602060405180830381865af415801562001d33573d6000803e3d6000fd5b505050506040513d601f19601f8201168201806040525081019062001d59919062003f89565b600180559392505050565b6040517f159763bb000000000000000000000000000000000000000000000000000000008152600360048201526001600160a01b03841660248201526044810183905260ff8216606482015260009073__$6aaf67e7827a013dd22ce71b2520632c86$__9063159763bb906084015b602060405180830381865af415801562001df1573d6000803e3d6000fd5b505050506040513d601f19601f8201168201806040525081019062001e17919062003f89565b949350505050565b60606003800180548060200260200160405190810160405280929190818152602001828054801562001e7157602002820191906000526020600020905b81548152602001906001019080831162001e5c575b5050505050905090565b6040517fba2998d90000000000000000000000000000000000000000000000000000000081526003600482015260ff8085166024830152831660448201526064810182905260009073__$6aaf67e7827a013dd22ce71b2520632c86$__9063ba2998d99060840162001dd3565b6060600360000180548060200260200160405190810160405280929190818152602001828054801562001e7157602002820191906000526020600020905b81546001600160a01b0316815260019091019060200180831162001f26575050505050905090565b6000805474010000000000000000000000000000000000000000900460ff161562001fbc5760405162461bcd60e51b815260206004820152601060248201527f5061757361626c653a2070617573656400000000000000000000000000000000604482015260640162000906565b60026001541415620020115760405162461bcd60e51b815260206004820152601f60248201527f5265656e7472616e637947756172643a207265656e7472616e742063616c6c00604482015260640162000906565b60026001558142811015620020695760405162461bcd60e51b815260206004820152600760248201527f74696d656f757400000000000000000000000000000000000000000000000000604482015260640162000906565b6040517fad30093f0000000000000000000000000000000000000000000000000000000081526003600482015260ff808a1660248301528816604482015260648101879052608481018690526001600160a01b03851660a482015273__$6aaf67e7827a013dd22ce71b2520632c86$__9063ad30093f9060c401602060405180830381865af415801562002101573d6000803e3d6000fd5b505050506040513d601f19601f8201168201806040525081019062002127919062003f89565b6001805598975050505050505050565b6004546001600160a01b03163314620021935760405162461bcd60e51b815260206004820152600860248201527f216c70546f6b656e000000000000000000000000000000000000000000000000604482015260640162000906565b6040517fc188e4be000000000000000000000000000000000000000000000000000000008152600360048201526001600160a01b03831660248201526044810182905273__$6aaf67e7827a013dd22ce71b2520632c86$__9063c188e4be9060640160006040518083038186803b1580156200220e57600080fd5b505af415801562002223573d6000803e3d6000fd5b505050505050565b6000546001600160a01b03163314620022875760405162461bcd60e51b815260206004820181905260248201527f4f776e61626c653a2063616c6c6572206973206e6f7420746865206f776e6572604482015260640162000906565b600c544210620022da5760405162461bcd60e51b815260206004820152600e60248201527f616c726561647953746f70706564000000000000000000000000000000000000604482015260640162000906565b6040517fa30355850000000000000000000000000000000000000000000000000000000081526003600482015260009073__$6aaf67e7827a013dd22ce71b2520632c86$__9063a303558590602401602060405180830381865af415801562002347573d6000803e3d6000fd5b505050506040513d601f19601f820116820180604052508101906200236d919062003f89565b6009819055600a81905542600b819055600c8190556040519192507f46e22fb3709ad289f62ce63d469248536dbc78d82b84a3d7e74ad606dc2019389162000faa91848252602082015260400190565b6001600160a01b038281166000908152601260205260408082205492861682528082205490517fba2998d90000000000000000000000000000000000000000000000000000000081526003600482015260ff938416602482015292166044830152606482018390529073__$6aaf67e7827a013dd22ce71b2520632c86$__9063ba2998d99060840162001dd3565b6000546001600160a01b03163314620024a75760405162461bcd60e51b815260206004820181905260248201527f4f776e61626c653a2063616c6c6572206973206e6f7420746865206f776e6572604482015260640162000906565b6001600160a01b038116620024ff5760405162461bcd60e51b815260206004820152600b60248201527f7a65726f41646472657373000000000000000000000000000000000000000000604482015260640162000906565b601080547fffffffffffffffffffffffff0000000000000000000000000000000000000000166001600160a01b0383169081179091556040519081527fae5a12c29e496b092467a620746b9eaf4e0e231a631a4370c233b1fac38e8e269060200162000faa565b6060600360020180548060200260200160405190810160405280929190818152602001828054801562001e71576020028201919060005260206000209081548152602001906001019080831162001e5c575050505050905090565b6040517fb52e146f0000000000000000000000000000000000000000000000000000000081526003600482015260009073__$6aaf67e7827a013dd22ce71b2520632c86$__9063b52e146f9060240162000854565b6000546001600160a01b03163314620026725760405162461bcd60e51b815260206004820181905260248201527f4f776e61626c653a2063616c6c6572206973206e6f7420746865206f776e6572604482015260640162000906565b600254610100900460ff16806200268c575060025460ff16155b620027005760405162461bcd60e51b815260206004820152602e60248201527f496e697469616c697a61626c653a20636f6e747261637420697320616c72656160448201527f647920696e697469616c697a6564000000000000000000000000000000000000606482015260840162000906565b600254610100900460ff161580156200274057600280547fffffffffffffffffffffffffffffffffffffffffffffffffffffffffffff0000166101011790555b88518a5114620027935760405162461bcd60e51b815260206004820152601d60248201527f636f696e734c656e67746820213d20646563696d616c734c656e677468000000604482015260640162000906565b6001600160a01b038216620027eb5760405162461bcd60e51b815260206004820152601660248201527f6665654469737472696275746f72203d20656d70747900000000000000000000604482015260640162000906565b895160008167ffffffffffffffff8111156200280b576200280b620037cc565b60405190808252806020026020018201604052801562002835578160200160208202803683370190505b50905060008267ffffffffffffffff811115620028565762002856620037cc565b60405190808252806020026020018201604052801562002880578160200160208202803683370190505b50905060005b8381101562002aa05760006001600160a01b03168e8281518110620028af57620028af62003fa3565b60200260200101516001600160a01b03161415620029105760405162461bcd60e51b815260206004820152601360248201527f696e76616c6964546f6b656e4164647265737300000000000000000000000000604482015260640162000906565b60128d828151811062002927576200292762003fa3565b602002602001015160ff161115620029825760405162461bcd60e51b815260206004820152600f60248201527f696e76616c6964446563696d616c730000000000000000000000000000000000604482015260640162000906565b8c818151811062002997576200299762003fa3565b602002602001015160ff166012620029b09190620041c4565b620029bd90600a62004317565b838281518110620029d257620029d262003fa3565b6020026020010181815250508d8181518110620029f357620029f362003fa3565b602002602001015182828151811062002a105762002a1062003fa3565b60200260200101906001600160a01b031690816001600160a01b031681525050806012600084848151811062002a4a5762002a4a62003fa3565b60200260200101516001600160a01b03166001600160a01b0316815260200190815260200160002060006101000a81548160ff021916908360ff160217905550808062002a979062004001565b91505062002886565b50620f4240891062002af55760405162461bcd60e51b815260206004820152600660248201527f3e206d6178410000000000000000000000000000000000000000000000000000604482015260640162000906565b6305f5e10088111562002b4b5760405162461bcd60e51b815260206004820152600c60248201527f3e206d6178537761704665650000000000000000000000000000000000000000604482015260640162000906565b6402540be40087111562002ba25760405162461bcd60e51b815260206004820152600d60248201527f3e206d617841646d696e46656500000000000000000000000000000000000000604482015260640162000906565b6305f5e10086111562002bf85760405162461bcd60e51b815260206004820152601060248201527f3e206d6178576974686472617746656500000000000000000000000000000000604482015260640162000906565b8a8a60405162002c08906200360d565b62002c15929190620043a0565b604051809103906000f08015801562002c32573d6000803e3d6000fd5b50600480547fffffffffffffffffffffffff0000000000000000000000000000000000000000166001600160a01b03929092169190911790558267ffffffffffffffff81111562002c875762002c87620037cc565b60405190808252806020026020018201604052801562002cb1578160200160208202803683370190505b50805162002cc8916006916020909101906200361b565b50815162002cde9060059060208501906200361b565b50805162002cf49060039060208401906200366b565b5062002d0260648a62004184565b60095562002d1260648a62004184565b600a5550505060078590556008849055600d839055601080547fffffffffffffffffffffffff0000000000000000000000000000000000000000166001600160a01b038416179055801562002d8a57600280547fffffffffffffffffffffffffffffffffffffffffffffffffffffffffffff00ff1690555b50505050505050505050565b6040517fd36604ac0000000000000000000000000000000000000000000000000000000081526003600482015260009073__$6aaf67e7827a013dd22ce71b2520632c86$__9063d36604ac9060240162000854565b6040517f1e7e95d300000000000000000000000000000000000000000000000000000000815260009073__$6aaf67e7827a013dd22ce71b2520632c86$__90631e7e95d39062001dd390600390889088908890600401620043c9565b6001600160a01b038381166000908152601260205260408082205492851682528082205490517fba2998d90000000000000000000000000000000000000000000000000000000081526003600482015260ff938416602482015292166044830152606482018390529073__$6aaf67e7827a013dd22ce71b2520632c86$__9063ba2998d99060840162001dd3565b6000546001600160a01b0316331462002f315760405162461bcd60e51b815260206004820181905260248201527f4f776e61626c653a2063616c6c6572206973206e6f7420746865206f776e6572604482015260640162000906565b6001600160a01b03811662002faf5760405162461bcd60e51b815260206004820152602660248201527f4f776e61626c653a206e6577206f776e657220697320746865207a65726f206160448201527f6464726573730000000000000000000000000000000000000000000000000000606482015260840162000906565b62002fba8162003332565b50565b6011546001600160a01b031633148062002fe157506000546001600160a01b031633145b6200302f5760405162461bcd60e51b815260206004820152601560248201527f21666565436f6e74726f6c6c65724f724f776e65720000000000000000000000604482015260640162000906565b60005b60035481101562002fba5760006003600001828154811062003058576200305862003fa3565b6000918252602082200154600680546001600160a01b039092169350908490811062003088576200308862003fa3565b6000918252602090912001546040517f70a082310000000000000000000000000000000000000000000000000000000081523060048201526001600160a01b038416906370a0823190602401602060405180830381865afa158015620030f2573d6000803e3d6000fd5b505050506040513d601f19601f8201168201806040525081019062003118919062003f89565b620031249190620041c4565b905080156200318c5760105462003149906001600160a01b038481169116836200346f565b604080516001600160a01b0384168152602081018390527fee3859efa95e525bc2bcb149b51b60a8bb4e89c647392d9d4112e03c3e73bdd6910160405180910390a15b505080806200319b9062004001565b91505062003032565b60005474010000000000000000000000000000000000000000900460ff16620032105760405162461bcd60e51b815260206004820152601460248201527f5061757361626c653a206e6f7420706175736564000000000000000000000000604482015260640162000906565b600080547fffffffffffffffffffffff00ffffffffffffffffffffffffffffffffffffffff1690557f5db9ee0a495bf2e6ff9c91a7834c1ba4fdd244a5e8aa4e537bd38aeae4b073aa335b6040516001600160a01b03909116815260200160405180910390a1565b6001600160a01b0381166000908152600b830160205260408120548190620032a4906224ea0062004169565b90504281111562003328576000620032bd4283620041c4565b6001600160a01b0385166000908152600c87016020526040902054600a8701549192506402540be400916224ea00918491620032fa919062004184565b62003306919062004184565b62003312919062004433565b6200331e919062004433565b925050506200102c565b5060009392505050565b600080546001600160a01b038381167fffffffffffffffffffffffff0000000000000000000000000000000000000000831681178455604051919092169283917f8be0079c531659141344cd1fd0a4f28419497f9722a3daafe3b4186f6b6457e09190a35050565b60005474010000000000000000000000000000000000000000900460ff1615620034075760405162461bcd60e51b815260206004820152601060248201527f5061757361626c653a2070617573656400000000000000000000000000000000604482015260640162000906565b600080547fffffffffffffffffffffff00ffffffffffffffffffffffffffffffffffffffff16740100000000000000000000000000000000000000001790557f62e78cea01bee320cd4e420270b5ea74000d11b0c9f74754ebdbfc544b05a2586200325b3390565b604080516001600160a01b038416602482015260448082018490528251808303909101815260649091019091526020810180517bffffffffffffffffffffffffffffffffffffffffffffffffffffffff167fa9059cbb00000000000000000000000000000000000000000000000000000000179052620034f1908490620034f6565b505050565b600080836001600160a01b0316836040516200351391906200446f565b6000604051808303816000865af19150503d806000811462003552576040519150601f19603f3d011682016040523d82523d6000602084013e62003557565b606091505b5091509150600082141562003570573d6000803e3d6000fd5b6200359f815160001480620035965750818060200190518101906200359691906200448d565b6101a2620035a5565b50505050565b81620035b657620035b681620035ba565b5050565b62461bcd60e51b6000908152602060045260076024526652455123000030600a808404818106603090810160081b95839006959095019082900491820690940160101b939093010160c81b604452606490fd5b61161180620044ae83390190565b82805482825590600052602060002090810192821562003659579160200282015b82811115620036595782518255916020019190600101906200363c565b5062003667929150620036db565b5090565b82805482825590600052602060002090810192821562003659579160200282015b828111156200365957825182547fffffffffffffffffffffffff0000000000000000000000000000000000000000166001600160a01b039091161782556020909201916001909101906200368c565b5b80821115620036675760008155600101620036dc565b80356001600160a01b03811681146200178a57600080fd5b6000602082840312156200371d57600080fd5b620018c282620036f2565b600080600080600060a086880312156200374157600080fd5b6200374c86620036f2565b94506200375c60208701620036f2565b935060408601359250606086013591506200377a60808701620036f2565b90509295509295909350565b6020808252825182820181905260009190848201906040850190845b81811015620037c057835183529284019291840191600101620037a2565b50909695505050505050565b7f4e487b7100000000000000000000000000000000000000000000000000000000600052604160045260246000fd5b604051601f82017fffffffffffffffffffffffffffffffffffffffffffffffffffffffffffffffe016810167ffffffffffffffff81118282101715620038455762003845620037cc565b604052919050565b600067ffffffffffffffff8211156200386a576200386a620037cc565b5060051b60200190565b600082601f8301126200388657600080fd5b813560206200389f62003899836200384d565b620037fb565b82815260059290921b84018101918181019086841115620038bf57600080fd5b8286015b84811015620038dc5780358352918301918301620038c3565b509695505050505050565b600080600060608486031215620038fd57600080fd5b83359250602084013567ffffffffffffffff8111156200391c57600080fd5b6200392a8682870162003874565b925050604084013590509250925092565b803560ff811681146200178a57600080fd5b600080600080608085870312156200396457600080fd5b8435935062003976602086016200393b565b93969395505050506040820135916060013590565b600080600060608486031215620039a157600080fd5b833567ffffffffffffffff811115620039b957600080fd5b620039c78682870162003874565b9660208601359650604090950135949350505050565b60008060408385031215620039f157600080fd5b50508035926020909101359150565b60008060006060848603121562003a1657600080fd5b505081359360208301359350604090920135919050565b6000806040838503121562003a4157600080fd5b62003a4c83620036f2565b946020939093013593505050565b60006020828403121562003a6d57600080fd5b620018c2826200393b565b60008082840360e081121562003a8d57600080fd5b60c081121562003a9c57600080fd5b5060405160c0810181811067ffffffffffffffff8211171562003ac35762003ac3620037cc565b60405262003ad184620036f2565b815262003ae160208501620036f2565b602082015262003af460408501620036f2565b6040820152606084013560608201526080840135608082015260a084013560a08201528092505062003b2960c08401620036f2565b90509250929050565b60008060006060848603121562003b4857600080fd5b62003b5384620036f2565b92506020840135915062003b6a604085016200393b565b90509250925092565b60008060006060848603121562003b8957600080fd5b62003b94846200393b565b925062003ba4602085016200393b565b9150604084013590509250925092565b6020808252825182820181905260009190848201906040850190845b81811015620037c05783516001600160a01b03168352928401929184019160010162003bd0565b60008060008060008060c0878903121562003c1157600080fd5b62003c1c876200393b565b955062003c2c602088016200393b565b9450604087013593506060870135925062003c4a60808801620036f2565b915060a087013590509295509295509295565b60008060006060848603121562003c7357600080fd5b62003c7e84620036f2565b925062003ba460208501620036f2565b600082601f83011262003ca057600080fd5b8135602062003cb362003899836200384d565b82815260059290921b8401810191818101908684111562003cd357600080fd5b8286015b84811015620038dc5762003ceb81620036f2565b835291830191830162003cd7565b600082601f83011262003d0b57600080fd5b8135602062003d1e62003899836200384d565b82815260059290921b8401810191818101908684111562003d3e57600080fd5b8286015b84811015620038dc5762003d56816200393b565b835291830191830162003d42565b600082601f83011262003d7657600080fd5b813567ffffffffffffffff81111562003d935762003d93620037cc565b62003dc660207fffffffffffffffffffffffffffffffffffffffffffffffffffffffffffffffe0601f84011601620037fb565b81815284602083860101111562003ddc57600080fd5b816020850160208301376000918101602001919091529392505050565b60008060008060008060008060006101208a8c03121562003e1957600080fd5b893567ffffffffffffffff8082111562003e3257600080fd5b62003e408d838e0162003c8e565b9a5060208c013591508082111562003e5757600080fd5b62003e658d838e0162003cf9565b995060408c013591508082111562003e7c57600080fd5b62003e8a8d838e0162003d64565b985060608c013591508082111562003ea157600080fd5b5062003eb08c828d0162003d64565b96505060808a0135945060a08a0135935060c08a0135925060e08a0135915062003ede6101008b01620036f2565b90509295985092959850929598565b801515811462002fba57600080fd5b60008060006040848603121562003f1257600080fd5b833567ffffffffffffffff8082111562003f2b57600080fd5b818601915086601f83011262003f4057600080fd5b81358181111562003f5057600080fd5b8760208260051b850101111562003f6657600080fd5b6020928301955093505084013562003f7e8162003eed565b809150509250925092565b60006020828403121562003f9c57600080fd5b5051919050565b7f4e487b7100000000000000000000000000000000000000000000000000000000600052603260045260246000fd5b7f4e487b7100000000000000000000000000000000000000000000000000000000600052601160045260246000fd5b60007fffffffffffffffffffffffffffffffffffffffffffffffffffffffffffffffff82141562004036576200403662003fd2565b5060010190565b600081518084526020808501945080840160005b838110156200406f5781518752958201959082019060010162004051565b509495945050505050565b8381528260208201526060604082015260006200409b60608301846200403d565b95945050505050565b60006020808385031215620040b857600080fd5b825167ffffffffffffffff811115620040d057600080fd5b8301601f81018513620040e257600080fd5b8051620040f362003899826200384d565b81815260059190911b820183019083810190878311156200411357600080fd5b928401925b82841015620041335783518252928401929084019062004118565b979650505050505050565b8381526060602082015260006200415960608301856200403d565b9050826040830152949350505050565b600082198211156200417f576200417f62003fd2565b500190565b6000817fffffffffffffffffffffffffffffffffffffffffffffffffffffffffffffffff0483118215151615620041bf57620041bf62003fd2565b500290565b600082821015620041d957620041d962003fd2565b500390565b600181815b808511156200423d57817fffffffffffffffffffffffffffffffffffffffffffffffffffffffffffffffff0482111562004221576200422162003fd2565b808516156200422f57918102915b93841c9390800290620041e3565b509250929050565b60008262004256575060016200102c565b8162004265575060006200102c565b81600181146200427e57600281146200428957620042a9565b60019150506200102c565b60ff8411156200429d576200429d62003fd2565b50506001821b6200102c565b5060208310610133831016604e8410600b8410161715620042ce575081810a6200102c565b620042da8383620041de565b807fffffffffffffffffffffffffffffffffffffffffffffffffffffffffffffffff048211156200430f576200430f62003fd2565b029392505050565b6000620018c2838362004245565b60005b838110156200434257818101518382015260200162004328565b838111156200359f5750506000910152565b600081518084526200436e81602086016020860162004325565b601f017fffffffffffffffffffffffffffffffffffffffffffffffffffffffffffffffe0169290920160200192915050565b604081526000620043b5604083018562004354565b82810360208401526200409b818562004354565b8481526060602082015282606082015260007f07ffffffffffffffffffffffffffffffffffffffffffffffffffffffffffffff8411156200440957600080fd5b8360051b808660808501376000908301608001908152921515604090920191909152509392505050565b6000826200446a577f4e487b7100000000000000000000000000000000000000000000000000000000600052601260045260246000fd5b500490565b600082516200448381846020870162004325565b9190910192915050565b600060208284031215620044a057600080fd5b8151620018c28162003eed56fe60806040523480156200001157600080fd5b506040516200161138038062001611833981016040819052620000349162000256565b8181620000413362000093565b815162000056906004906020850190620000e3565b5080516200006c906005906020840190620000e3565b50506006805433610100026001600160a81b031990911617601217905550620002fd915050565b600080546001600160a01b038381166001600160a01b0319831681178455604051919092169283917f8be0079c531659141344cd1fd0a4f28419497f9722a3daafe3b4186f6b6457e09190a35050565b828054620000f190620002c0565b90600052602060002090601f01602090048101928262000115576000855562000160565b82601f106200013057805160ff191683800117855562000160565b8280016001018555821562000160579182015b828111156200016057825182559160200191906001019062000143565b506200016e92915062000172565b5090565b5b808211156200016e576000815560010162000173565b634e487b7160e01b600052604160045260246000fd5b600082601f830112620001b157600080fd5b81516001600160401b0380821115620001ce57620001ce62000189565b604051601f8301601f19908116603f01168101908282118183101715620001f957620001f962000189565b816040528381526020925086838588010111156200021657600080fd5b600091505b838210156200023a57858201830151818301840152908201906200021b565b838211156200024c5760008385830101525b9695505050505050565b600080604083850312156200026a57600080fd5b82516001600160401b03808211156200028257600080fd5b62000290868387016200019f565b93506020850151915080821115620002a757600080fd5b50620002b6858286016200019f565b9150509250929050565b600181811c90821680620002d557607f821691505b60208210811415620002f757634e487b7160e01b600052602260045260246000fd5b50919050565b611304806200030d6000396000f3fe608060405234801561001057600080fd5b50600436106101365760003560e01c8063715018a6116100b257806395d89b4111610081578063a9059cbb11610066578063a9059cbb146102bf578063dd62ed3e146102d2578063f2fde38b1461031857600080fd5b806395d89b41146102a4578063a457c2d7146102ac57600080fd5b8063715018a61461022157806379cc6790146102295780638119c0651461023c5780638da5cb5b1461028657600080fd5b8063313ce5671161010957806340c10f19116100ee57806340c10f19146101c357806342966c68146101d857806370a08231146101eb57600080fd5b8063313ce567146101a157806339509351146101b057600080fd5b806306fdde031461013b578063095ea7b31461015957806318160ddd1461017c57806323b872dd1461018e575b600080fd5b61014361032b565b60405161015091906110ac565b60405180910390f35b61016c610167366004611148565b6103bd565b6040519015158152602001610150565b6003545b604051908152602001610150565b61016c61019c366004611172565b6103d3565b60405160128152602001610150565b61016c6101be366004611148565b6104a4565b6101d66101d1366004611148565b6104ed565b005b6101d66101e63660046111ae565b6105b2565b6101806101f93660046111c7565b73ffffffffffffffffffffffffffffffffffffffff1660009081526001602052604090205490565b6101d66105bf565b6101d6610237366004611148565b610632565b60065461026190610100900473ffffffffffffffffffffffffffffffffffffffff1681565b60405173ffffffffffffffffffffffffffffffffffffffff9091168152602001610150565b60005473ffffffffffffffffffffffffffffffffffffffff16610261565b61014361068c565b61016c6102ba366004611148565b61069b565b61016c6102cd366004611148565b610759565b6101806102e03660046111e9565b73ffffffffffffffffffffffffffffffffffffffff918216600090815260026020908152604080832093909416825291909152205490565b6101d66103263660046111c7565b610766565b60606004805461033a9061121c565b80601f01602080910402602001604051908101604052809291908181526020018280546103669061121c565b80156103b35780601f10610388576101008083540402835291602001916103b3565b820191906000526020600020905b81548152906001019060200180831161039657829003601f168201915b5050505050905090565b60006103ca33848461085f565b50600192915050565b60006103e08484846109de565b73ffffffffffffffffffffffffffffffffffffffff841660009081526002602090815260408083203384529091529020548281101561048c5760405162461bcd60e51b815260206004820152602860248201527f45524332303a207472616e7366657220616d6f756e742065786365656473206160448201527f6c6c6f77616e636500000000000000000000000000000000000000000000000060648201526084015b60405180910390fd5b610499853385840361085f565b506001949350505050565b33600081815260026020908152604080832073ffffffffffffffffffffffffffffffffffffffff8716845290915281205490916103ca9185906104e890869061129f565b61085f565b60005473ffffffffffffffffffffffffffffffffffffffff1633146105545760405162461bcd60e51b815260206004820181905260248201527f4f776e61626c653a2063616c6c6572206973206e6f7420746865206f776e65726044820152606401610483565b600081116105a45760405162461bcd60e51b815260206004820152600e60248201527f7a65726f4d696e74416d6f756e740000000000000000000000000000000000006044820152606401610483565b6105ae8282610c4f565b5050565b6105bc3382610d61565b50565b60005473ffffffffffffffffffffffffffffffffffffffff1633146106265760405162461bcd60e51b815260206004820181905260248201527f4f776e61626c653a2063616c6c6572206973206e6f7420746865206f776e65726044820152606401610483565b6106306000610f26565b565b73ffffffffffffffffffffffffffffffffffffffff8216600090815260026020908152604080832033845290915281205461067090836101a1610f9b565b905061067d83338361085f565b6106878383610d61565b505050565b60606005805461033a9061121c565b33600090815260026020908152604080832073ffffffffffffffffffffffffffffffffffffffff86168452909152812054828110156107425760405162461bcd60e51b815260206004820152602560248201527f45524332303a2064656372656173656420616c6c6f77616e63652062656c6f7760448201527f207a65726f0000000000000000000000000000000000000000000000000000006064820152608401610483565b61074f338585840361085f565b5060019392505050565b60006103ca3384846109de565b60005473ffffffffffffffffffffffffffffffffffffffff1633146107cd5760405162461bcd60e51b815260206004820181905260248201527f4f776e61626c653a2063616c6c6572206973206e6f7420746865206f776e65726044820152606401610483565b73ffffffffffffffffffffffffffffffffffffffff81166108565760405162461bcd60e51b815260206004820152602660248201527f4f776e61626c653a206e6577206f776e657220697320746865207a65726f206160448201527f64647265737300000000000000000000000000000000000000000000000000006064820152608401610483565b6105bc81610f26565b73ffffffffffffffffffffffffffffffffffffffff83166108e75760405162461bcd60e51b8152602060048201526024808201527f45524332303a20617070726f76652066726f6d20746865207a65726f2061646460448201527f72657373000000000000000000000000000000000000000000000000000000006064820152608401610483565b73ffffffffffffffffffffffffffffffffffffffff82166109705760405162461bcd60e51b815260206004820152602260248201527f45524332303a20617070726f766520746f20746865207a65726f20616464726560448201527f73730000000000000000000000000000000000000000000000000000000000006064820152608401610483565b73ffffffffffffffffffffffffffffffffffffffff83811660008181526002602090815260408083209487168084529482529182902085905590518481527f8c5be1e5ebec7d5bd14f71427d1e84f3dd0314c0f7b2291e5b200ac8c7c3b925910160405180910390a3505050565b73ffffffffffffffffffffffffffffffffffffffff8316610a675760405162461bcd60e51b815260206004820152602560248201527f45524332303a207472616e736665722066726f6d20746865207a65726f20616460448201527f64726573730000000000000000000000000000000000000000000000000000006064820152608401610483565b73ffffffffffffffffffffffffffffffffffffffff8216610af05760405162461bcd60e51b815260206004820152602360248201527f45524332303a207472616e7366657220746f20746865207a65726f206164647260448201527f65737300000000000000000000000000000000000000000000000000000000006064820152608401610483565b610afb838383610fbf565b73ffffffffffffffffffffffffffffffffffffffff831660009081526001602052604090205481811015610b975760405162461bcd60e51b815260206004820152602660248201527f45524332303a207472616e7366657220616d6f756e742065786365656473206260448201527f616c616e636500000000000000000000000000000000000000000000000000006064820152608401610483565b73ffffffffffffffffffffffffffffffffffffffff808516600090815260016020526040808220858503905591851681529081208054849290610bdb90849061129f565b925050819055508273ffffffffffffffffffffffffffffffffffffffff168473ffffffffffffffffffffffffffffffffffffffff167fddf252ad1be2c89b69c2b068fc378daa952ba7f163c4a11628f55a4df523b3ef84604051610c4191815260200190565b60405180910390a350505050565b73ffffffffffffffffffffffffffffffffffffffff8216610cb25760405162461bcd60e51b815260206004820152601f60248201527f45524332303a206d696e7420746f20746865207a65726f2061646472657373006044820152606401610483565b610cbe60008383610fbf565b8060036000828254610cd0919061129f565b909155505073ffffffffffffffffffffffffffffffffffffffff821660009081526001602052604081208054839290610d0a90849061129f565b909155505060405181815273ffffffffffffffffffffffffffffffffffffffff8316906000907fddf252ad1be2c89b69c2b068fc378daa952ba7f163c4a11628f55a4df523b3ef9060200160405180910390a35050565b73ffffffffffffffffffffffffffffffffffffffff8216610dea5760405162461bcd60e51b815260206004820152602160248201527f45524332303a206275726e2066726f6d20746865207a65726f2061646472657360448201527f73000000000000000000000000000000000000000000000000000000000000006064820152608401610483565b610df682600083610fbf565b73ffffffffffffffffffffffffffffffffffffffff821660009081526001602052604090205481811015610e925760405162461bcd60e51b815260206004820152602260248201527f45524332303a206275726e20616d6f756e7420657863656564732062616c616e60448201527f63650000000000000000000000000000000000000000000000000000000000006064820152608401610483565b73ffffffffffffffffffffffffffffffffffffffff83166000908152600160205260408120838303905560038054849290610ece9084906112b7565b909155505060405182815260009073ffffffffffffffffffffffffffffffffffffffff8516907fddf252ad1be2c89b69c2b068fc378daa952ba7f163c4a11628f55a4df523b3ef9060200160405180910390a3505050565b6000805473ffffffffffffffffffffffffffffffffffffffff8381167fffffffffffffffffffffffff0000000000000000000000000000000000000000831681178455604051919092169283917f8be0079c531659141344cd1fd0a4f28419497f9722a3daafe3b4186f6b6457e09190a35050565b6000610faa8484111583611056565b6000610fb684866112b7565b95945050505050565b6006546040517fc00c125c00000000000000000000000000000000000000000000000000000000815273ffffffffffffffffffffffffffffffffffffffff8481166004830152602482018490526101009092049091169063c00c125c90604401600060405180830381600087803b15801561103957600080fd5b505af115801561104d573d6000803e3d6000fd5b50505050505050565b816105ae5762461bcd60e51b600090815260206004526007602452600a808304818104828106603090810160101b848706949093060160081b929092010166524551230000300160c81b6044526105ae91606490fd5b600060208083528351808285015260005b818110156110d9578581018301518582016040015282016110bd565b818111156110eb576000604083870101525b50601f017fffffffffffffffffffffffffffffffffffffffffffffffffffffffffffffffe016929092016040019392505050565b803573ffffffffffffffffffffffffffffffffffffffff8116811461114357600080fd5b919050565b6000806040838503121561115b57600080fd5b6111648361111f565b946020939093013593505050565b60008060006060848603121561118757600080fd5b6111908461111f565b925061119e6020850161111f565b9150604084013590509250925092565b6000602082840312156111c057600080fd5b5035919050565b6000602082840312156111d957600080fd5b6111e28261111f565b9392505050565b600080604083850312156111fc57600080fd5b6112058361111f565b91506112136020840161111f565b90509250929050565b600181811c9082168061123057607f821691505b6020821081141561126a577f4e487b7100000000000000000000000000000000000000000000000000000000600052602260045260246000fd5b50919050565b7f4e487b7100000000000000000000000000000000000000000000000000000000600052601160045260246000fd5b600082198211156112b2576112b2611270565b500190565b6000828210156112c9576112c9611270565b50039056fea2646970667358221220901995dc99d1bf3317f83f3d43645017723dd3892f756276f9450fd371d475df64736f6c634300080a0033a2646970667358221220c9ce6de471569ab04b6d8e7eab78d9a78d138d5320f19834dd468ded5d391bfb64736f6c634300080a0033",
  "libraries": {
    "RequiemStableSwapLib": "0xa82fF9aFd8f496c3d6ac40E2a0F282E47488CFc9"
  },
  "devdoc": {
    "kind": "dev",
    "methods": {
      "owner()": {
        "details": "Returns the address of the current owner."
      },
      "paused()": {
        "details": "Returns true if the contract is paused, and false otherwise."
      },
      "rampA(uint256,uint256)": {
        "params": {
          "futureA": "the new A to ramp towards",
          "futureATime": "timestamp when the new A should be reached"
        }
      },
      "renounceOwnership()": {
        "details": "Leaves the contract without owner. It will not be possible to call `onlyOwner` functions anymore. Can only be called by the current owner. NOTE: Renouncing ownership will leave the contract without an owner, thereby removing any functionality that is only available to the owner."
      },
      "setFee(uint256,uint256,uint256)": {
        "details": "adminFee cannot be higher than 100% of the swap fee swap fee cannot be higher than 1% of each swap",
        "params": {
          "newAdminFee": "new admin fee to be applied on future transactions",
          "newSwapFee": "new swap fee to be applied on future transactions",
          "newWithdrawFee": "new initial withdraw fee to be applied on future withdrawal transactions"
        }
      },
      "transferOwnership(address)": {
        "details": "Transfers ownership of the contract to a new account (`newOwner`). Can only be called by the current owner."
      },
      "updateUserWithdrawFee(address,uint256)": {
        "params": {
          "recipient": "address of the recipient of pool token",
          "transferAmount": "amount of pool token to transfer"
        }
      }
    },
    "version": 1
  },
  "userdoc": {
    "events": {
      "AddLiquidity(address,uint256[],uint256[],uint256,uint256)": {
        "notice": "EVENTS"
      }
    },
    "kind": "user",
    "methods": {
      "MIN_RAMP_TIME()": {
        "notice": "constants"
      },
      "addLiquidity(uint256[],uint256,uint256)": {
        "notice": "PUBLIC FUNCTIONS"
      },
      "getVirtualPrice()": {
        "notice": "VIEW FUNCTIONS"
      },
      "rampA(uint256,uint256)": {
        "notice": "Start ramping up or down A parameter towards given futureA_ and futureTime_ Checks if the change is too rapid, and commits the new A value only when it falls under the limit range."
      },
      "setFee(uint256,uint256,uint256)": {
        "notice": "Sets the admin fee"
      },
      "swapStorage()": {
        "notice": "STATE VARS"
      },
      "updateUserWithdrawFee(address,uint256)": {
        "notice": "Updates the user withdraw fee. This function can only be called by the pool token. Should be used to update the withdraw fee on transfer of pool tokens. Transferring your pool token will reset the 4 weeks period. If the recipient is already holding some pool tokens, the withdraw fee will be discounted in respective amounts."
      }
    },
    "version": 1
  },
  "storageLayout": {
    "storage": [
      {
        "astId": 42241,
        "contract": "contracts/RequiemStableSwap.sol:RequiemStableSwap",
        "label": "_owner",
        "offset": 0,
        "slot": "0",
        "type": "t_address"
      },
      {
        "astId": 42356,
        "contract": "contracts/RequiemStableSwap.sol:RequiemStableSwap",
        "label": "_paused",
        "offset": 20,
        "slot": "0",
        "type": "t_bool"
      },
      {
        "astId": 42441,
        "contract": "contracts/RequiemStableSwap.sol:RequiemStableSwap",
        "label": "_status",
        "offset": 0,
        "slot": "1",
        "type": "t_uint256"
      },
      {
        "astId": 42050,
        "contract": "contracts/RequiemStableSwap.sol:RequiemStableSwap",
        "label": "_initialized",
        "offset": 0,
        "slot": "2",
        "type": "t_bool"
      },
      {
        "astId": 42053,
        "contract": "contracts/RequiemStableSwap.sol:RequiemStableSwap",
        "label": "_initializing",
        "offset": 1,
        "slot": "2",
        "type": "t_bool"
      },
      {
        "astId": 21646,
        "contract": "contracts/RequiemStableSwap.sol:RequiemStableSwap",
        "label": "swapStorage",
        "offset": 0,
        "slot": "3",
        "type": "t_struct(SwapStorage)23020_storage"
      },
      {
        "astId": 21648,
        "contract": "contracts/RequiemStableSwap.sol:RequiemStableSwap",
        "label": "feeDistributor",
        "offset": 0,
        "slot": "16",
        "type": "t_address"
      },
      {
        "astId": 21650,
        "contract": "contracts/RequiemStableSwap.sol:RequiemStableSwap",
        "label": "feeController",
        "offset": 0,
        "slot": "17",
        "type": "t_address"
      },
      {
        "astId": 21654,
        "contract": "contracts/RequiemStableSwap.sol:RequiemStableSwap",
        "label": "tokenIndexes",
        "offset": 0,
        "slot": "18",
        "type": "t_mapping(t_address,t_uint8)"
      }
    ],
    "types": {
      "t_address": {
        "encoding": "inplace",
        "label": "address",
        "numberOfBytes": "20"
      },
      "t_array(t_contract(IERC20)33973)dyn_storage": {
        "base": "t_contract(IERC20)33973",
        "encoding": "dynamic_array",
        "label": "contract IERC20[]",
        "numberOfBytes": "32"
      },
      "t_array(t_uint256)dyn_storage": {
        "base": "t_uint256",
        "encoding": "dynamic_array",
        "label": "uint256[]",
        "numberOfBytes": "32"
      },
      "t_bool": {
        "encoding": "inplace",
        "label": "bool",
        "numberOfBytes": "1"
      },
      "t_contract(IERC20)33973": {
        "encoding": "inplace",
        "label": "contract IERC20",
        "numberOfBytes": "20"
      },
      "t_contract(LPToken)51840": {
        "encoding": "inplace",
        "label": "contract LPToken",
        "numberOfBytes": "20"
      },
      "t_mapping(t_address,t_uint256)": {
        "encoding": "mapping",
        "key": "t_address",
        "label": "mapping(address => uint256)",
        "numberOfBytes": "32",
        "value": "t_uint256"
      },
      "t_mapping(t_address,t_uint8)": {
        "encoding": "mapping",
        "key": "t_address",
        "label": "mapping(address => uint8)",
        "numberOfBytes": "32",
        "value": "t_uint8"
      },
      "t_struct(SwapStorage)23020_storage": {
        "encoding": "inplace",
        "label": "struct RequiemStableSwapLib.SwapStorage",
        "members": [
          {
            "astId": 22983,
            "contract": "contracts/RequiemStableSwap.sol:RequiemStableSwap",
            "label": "pooledTokens",
            "offset": 0,
            "slot": "0",
            "type": "t_array(t_contract(IERC20)33973)dyn_storage"
          },
          {
            "astId": 22986,
            "contract": "contracts/RequiemStableSwap.sol:RequiemStableSwap",
            "label": "lpToken",
            "offset": 0,
            "slot": "1",
            "type": "t_contract(LPToken)51840"
          },
          {
            "astId": 22990,
            "contract": "contracts/RequiemStableSwap.sol:RequiemStableSwap",
            "label": "tokenMultipliers",
            "offset": 0,
            "slot": "2",
            "type": "t_array(t_uint256)dyn_storage"
          },
          {
            "astId": 22994,
            "contract": "contracts/RequiemStableSwap.sol:RequiemStableSwap",
            "label": "balances",
            "offset": 0,
            "slot": "3",
            "type": "t_array(t_uint256)dyn_storage"
          },
          {
            "astId": 22997,
            "contract": "contracts/RequiemStableSwap.sol:RequiemStableSwap",
            "label": "fee",
            "offset": 0,
            "slot": "4",
            "type": "t_uint256"
          },
          {
            "astId": 23000,
            "contract": "contracts/RequiemStableSwap.sol:RequiemStableSwap",
            "label": "adminFee",
            "offset": 0,
            "slot": "5",
            "type": "t_uint256"
          },
          {
            "astId": 23003,
            "contract": "contracts/RequiemStableSwap.sol:RequiemStableSwap",
            "label": "initialA",
            "offset": 0,
            "slot": "6",
            "type": "t_uint256"
          },
          {
            "astId": 23005,
            "contract": "contracts/RequiemStableSwap.sol:RequiemStableSwap",
            "label": "futureA",
            "offset": 0,
            "slot": "7",
            "type": "t_uint256"
          },
          {
            "astId": 23007,
            "contract": "contracts/RequiemStableSwap.sol:RequiemStableSwap",
            "label": "initialATime",
            "offset": 0,
            "slot": "8",
            "type": "t_uint256"
          },
          {
            "astId": 23009,
            "contract": "contracts/RequiemStableSwap.sol:RequiemStableSwap",
            "label": "futureATime",
            "offset": 0,
            "slot": "9",
            "type": "t_uint256"
          },
          {
            "astId": 23011,
            "contract": "contracts/RequiemStableSwap.sol:RequiemStableSwap",
            "label": "defaultWithdrawFee",
            "offset": 0,
            "slot": "10",
            "type": "t_uint256"
          },
          {
            "astId": 23015,
            "contract": "contracts/RequiemStableSwap.sol:RequiemStableSwap",
            "label": "depositTimestamp",
            "offset": 0,
            "slot": "11",
            "type": "t_mapping(t_address,t_uint256)"
          },
          {
            "astId": 23019,
            "contract": "contracts/RequiemStableSwap.sol:RequiemStableSwap",
            "label": "withdrawFeeMultiplier",
            "offset": 0,
            "slot": "12",
            "type": "t_mapping(t_address,t_uint256)"
          }
        ],
        "numberOfBytes": "416"
      },
      "t_uint256": {
        "encoding": "inplace",
        "label": "uint256",
        "numberOfBytes": "32"
      },
      "t_uint8": {
        "encoding": "inplace",
        "label": "uint8",
        "numberOfBytes": "1"
      }
    }
  }
}