{
  "address": "0xa82fF9aFd8f496c3d6ac40E2a0F282E47488CFc9",
  "abi": [
    {
      "anonymous": false,
      "inputs": [
        {
          "indexed": true,
          "internalType": "address",
          "name": "provider",
          "type": "address"
        },
        {
          "indexed": false,
          "internalType": "uint256[]",
          "name": "token_amounts",
          "type": "uint256[]"
        },
        {
          "indexed": false,
          "internalType": "uint256[]",
          "name": "fees",
          "type": "uint256[]"
        },
        {
          "indexed": false,
          "internalType": "uint256",
          "name": "invariant",
          "type": "uint256"
        },
        {
          "indexed": false,
          "internalType": "uint256",
          "name": "token_supply",
          "type": "uint256"
        }
      ],
      "name": "AddLiquidity",
      "type": "event"
    },
    {
      "anonymous": false,
      "inputs": [
        {
          "indexed": true,
          "internalType": "contract IFlashLoanRecipient",
          "name": "recipient",
          "type": "address"
        },
        {
          "indexed": true,
          "internalType": "contract IERC20",
          "name": "token",
          "type": "address"
        },
        {
          "indexed": false,
          "internalType": "uint256",
          "name": "amount",
          "type": "uint256"
        },
        {
          "indexed": false,
          "internalType": "uint256",
          "name": "feeAmount",
          "type": "uint256"
        }
      ],
      "name": "FlashLoan",
      "type": "event"
    },
    {
      "anonymous": false,
      "inputs": [
        {
          "indexed": true,
          "internalType": "address",
          "name": "provider",
          "type": "address"
        },
        {
          "indexed": false,
          "internalType": "uint256[]",
          "name": "token_amounts",
          "type": "uint256[]"
        },
        {
          "indexed": false,
          "internalType": "uint256[]",
          "name": "fees",
          "type": "uint256[]"
        },
        {
          "indexed": false,
          "internalType": "uint256",
          "name": "token_supply",
          "type": "uint256"
        }
      ],
      "name": "RemoveLiquidity",
      "type": "event"
    },
    {
      "anonymous": false,
      "inputs": [
        {
          "indexed": true,
          "internalType": "address",
          "name": "provider",
          "type": "address"
        },
        {
          "indexed": false,
          "internalType": "uint256[]",
          "name": "token_amounts",
          "type": "uint256[]"
        },
        {
          "indexed": false,
          "internalType": "uint256[]",
          "name": "fees",
          "type": "uint256[]"
        },
        {
          "indexed": false,
          "internalType": "uint256",
          "name": "invariant",
          "type": "uint256"
        },
        {
          "indexed": false,
          "internalType": "uint256",
          "name": "token_supply",
          "type": "uint256"
        }
      ],
      "name": "RemoveLiquidityImbalance",
      "type": "event"
    },
    {
      "anonymous": false,
      "inputs": [
        {
          "indexed": true,
          "internalType": "address",
          "name": "provider",
          "type": "address"
        },
        {
          "indexed": false,
          "internalType": "uint256",
          "name": "index",
          "type": "uint256"
        },
        {
          "indexed": false,
          "internalType": "uint256",
          "name": "token_amount",
          "type": "uint256"
        },
        {
          "indexed": false,
          "internalType": "uint256",
          "name": "coin_amount",
          "type": "uint256"
        }
      ],
      "name": "RemoveLiquidityOne",
      "type": "event"
    },
    {
      "anonymous": false,
      "inputs": [
        {
          "indexed": true,
          "internalType": "address",
          "name": "buyer",
          "type": "address"
        },
        {
          "indexed": false,
          "internalType": "uint256",
          "name": "sold_id",
          "type": "uint256"
        },
        {
          "indexed": false,
          "internalType": "uint256",
          "name": "tokens_sold",
          "type": "uint256"
        },
        {
          "indexed": false,
          "internalType": "uint256",
          "name": "bought_id",
          "type": "uint256"
        },
        {
          "indexed": false,
          "internalType": "uint256",
          "name": "tokens_bought",
          "type": "uint256"
        }
      ],
      "name": "TokenExchange",
      "type": "event"
    },
    {
      "inputs": [],
      "name": "A_PRECISION",
      "outputs": [
        {
          "internalType": "uint256",
          "name": "",
          "type": "uint256"
        }
      ],
      "stateMutability": "view",
      "type": "function"
    },
    {
      "inputs": [],
      "name": "FEE_DENOMINATOR",
      "outputs": [
        {
          "internalType": "uint256",
          "name": "",
          "type": "uint256"
        }
      ],
      "stateMutability": "view",
      "type": "function"
    },
    {
      "inputs": [],
      "name": "POOL_TOKEN_COMMON_DECIMALS",
      "outputs": [
        {
          "internalType": "uint256",
          "name": "",
          "type": "uint256"
        }
      ],
      "stateMutability": "view",
      "type": "function"
    }
  ],
  "transactionHash": "0x3aa3e0ad6d85f9fda4a9c746541a55809ce6361217345eed53c9eafcc730a230",
  "args": [],
  "solcInputHash": "4e81be7ca6d5fa17ee70d6a1b612e989",
  "bytecode": "0x61481761003a600b82828239805160001a60731461002d57634e487b7160e01b600052600060045260246000fd5b30600052607381538281f3fe730000000000000000000000000000000000000000301460806040526004361061014c5760003560e01c8063c188e4be116100c2578063ce055b8d11610086578063ce055b8d1461030d578063d011f9181461032d578063d36604ac14610335578063d73792a914610348578063e2eba89b14610354578063fa5635971461036757600080fd5b8063c188e4be14610276578063c20aace814610298578063c685696c146102a0578063c8232501146102cd578063c8344c06146102ed57600080fd5b80638e6da7b6116101145780638e6da7b6146101ea578063a30355851461020a578063aa054aee1461021d578063ad30093f14610230578063b52e146f14610250578063ba2998d91461026357600080fd5b80630da350f614610151578063159763bb146101845780631e7e95d3146101975780632bfe30d0146101aa5780637a6cba3c146101ca575b600080fd5b81801561015d57600080fd5b5061017161016c366004613ef0565b61037a565b6040519081526020015b60405180910390f35b610171610192366004613f45565b6106d5565b6101716101a5366004614059565b6106ed565b8180156101b657600080fd5b506101716101c53660046140b3565b6109f6565b8180156101d657600080fd5b506101716101e53660046140e5565b610d3f565b8180156101f657600080fd5b50610171610205366004613ef0565b6113b1565b610171610218366004614134565b6115bb565b61017161022b3660046140b3565b6115cc565b81801561023c57600080fd5b5061017161024b366004613ef0565b6116be565b61017161025e366004614134565b61193b565b6101716102713660046140b3565b611952565b81801561028257600080fd5b5061029661029136600461414d565b611a45565b005b610171601281565b8180156102ac57600080fd5b506102c06102bb366004614185565b611a55565b60405161017b91906141d4565b8180156102d957600080fd5b506102966102e8366004614287565b611cf9565b8180156102f957600080fd5b506101716103083660046140e5565b612259565b81801561031957600080fd5b50610171610328366004613ef0565b612835565b610171606481565b610171610343366004614134565b612a53565b6101716402540be40081565b61017161036236600461438b565b612b18565b6102c061037536600461414d565b612bef565b6000866000018681548110610391576103916143ad565b6000918252602090912001546040516370a0823160e01b81523060048201526001600160a01b03909116906370a0823190602401602060405180830381865afa1580156103e2573d6000803e3d6000fd5b505050506040513d601f19601f8201168201806040525081019061040691906143c3565b8488600301888154811061041c5761041c6143ad565b906000526020600020015461043191906143f2565b111561046c5760405162461bcd60e51b81526020600482015260056024820152641a5b9c1d5d60da1b60448201526064015b60405180910390fd5b600061047788612bfc565b90506000886002018881548110610490576104906143ad565b9060005260206000200154866104a6919061440a565b8289815181106104b8576104b86143ad565b60200260200101516104ca91906143f2565b905060006104db8a8a8a8587612caa565b9050600181848a815181106104f2576104f26143ad565b60200260200101516105049190614429565b61050e9190614429565b935060006402540be4008b6004015486610528919061440a565b6105329190614440565b90508a6002018981548110610549576105496143ad565b906000526020600020015481866105609190614429565b61056a9190614440565b94508685101561058c5760405162461bcd60e51b815260040161046390614462565b60008b6002018a815481106105a3576105a36143ad565b90600052602060002001546402540be4008d60060154846105c4919061440a565b6105ce9190614440565b6105d89190614440565b9050888c6003018c815481106105f0576105f06143ad565b90600052602060002001600082825461060991906143f2565b90915550610619905081876143f2565b8c6003018b8154811061062e5761062e6143ad565b9060005260206000200160008282546106479190614429565b9250508190555061068487878e6000018d81548110610668576106686143ad565b6000918252602090912001546001600160a01b03169190612ee3565b604080518c8152602081018b90529081018b9052606081018790526001600160a01b038816906000805160206147c2833981519152906080015b60405180910390a250505050509695505050505050565b60006106e385858585612f46565b5095945050505050565b825482516000919081146107135760405162461bcd60e51b81526004016104639061447f565b600061071e86613261565b9050600061073461072e88612bfc565b8361333a565b905060008760030180548060200260200160405190810160405280929190818152602001828054801561078657602002820191906000526020600020905b815481526020019060010190808311610772575b5050505050905060005b8481101561083c5786156107e6578781815181106107b0576107b06143ad565b60200260200101518282815181106107ca576107ca6143ad565b602002602001018181516107de91906143f2565b90525061082a565b8781815181106107f8576107f86143ad565b6020026020010151828281518110610812576108126143ad565b602002602001018181516108269190614429565b9052505b806108348161449f565b915050610790565b5060006108a461089e838b60020180548060200260200160405190810160405280929190818152602001828054801561089457602002820191906000526020600020905b815481526020019060010190808311610880575b50505050506134d6565b8561333a565b905060008960010160009054906101000a90046001600160a01b03166001600160a01b03166318160ddd6040518163ffffffff1660e01b8152600401602060405180830381865afa1580156108fd573d6000803e3d6000fd5b505050506040513d601f19601f8201168201806040525081019061092191906143c3565b905080610935575094506109ef9350505050565b60008861094b576109468386614429565b610955565b6109558584614429565b9050848b60010160009054906101000a90046001600160a01b03166001600160a01b03166318160ddd6040518163ffffffff1660e01b8152600401602060405180830381865afa1580156109ad573d6000803e3d6000fd5b505050506040513d601f19601f820116820180604052508101906109d191906143c3565b6109db908361440a565b6109e59190614440565b9750505050505050505b9392505050565b6000808560010160009054906101000a90046001600160a01b03166001600160a01b03166318160ddd6040518163ffffffff1660e01b8152600401602060405180830381865afa158015610a4e573d6000803e3d6000fd5b505050506040513d601f19601f82011682018060405250810190610a7291906143c3565b905060008111610ab65760405162461bcd60e51b815260206004820152600f60248201526e0746f74616c537570706c79203d203608c1b6044820152606401610463565b855460018701546040516370a0823160e01b81523360048201526001600160a01b03909116906370a0823190602401602060405180830381865afa158015610b02573d6000803e3d6000fd5b505050506040513d601f19601f82011682018060405250810190610b2691906143c3565b861115610b615760405162461bcd60e51b81526020600482015260096024820152683e2062616c616e636560b81b6044820152606401610463565b81861115610ba15760405162461bcd60e51b815260206004820152600d60248201526c3e20746f74616c537570706c7960981b6044820152606401610463565b808510610be05760405162461bcd60e51b815260206004820152600d60248201526c1d1bdad95b939bdd119bdd5b99609a1b6044820152606401610463565b600080610bef89338a8a612f46565b9250905085811015610c135760405162461bcd60e51b815260040161046390614462565b6402540be400896006015483610c29919061440a565b610c339190614440565b610c3d90826143f2565b896003018881548110610c5257610c526143ad565b906000526020600020016000828254610c6b9190614429565b9091555050600189015460405163079cc67960e41b8152336004820152602481018a90526001600160a01b03909116906379cc679090604401600060405180830381600087803b158015610cbe57600080fd5b505af1158015610cd2573d6000803e3d6000fd5b50505050610cf033828b6000018a81548110610668576106686143ad565b60408051888152602081018a905290810182905233907f5ad056f2e28a8cec232015406b843668c1e36cda598127ec3b8c59b8c72773a09060600160405180910390a298975050505050505050565b82548251600091908114610d655760405162461bcd60e51b81526004016104639061447f565b6000816001600160401b03811115610d7f57610d7f613f82565b604051908082528060200260200182016040528015610da8578160200160208202803683370190505b5090506000610db687613559565b905060008760010160009054906101000a90046001600160a01b03166001600160a01b03166318160ddd6040518163ffffffff1660e01b8152600401602060405180830381865afa158015610e0f573d6000803e3d6000fd5b505050506040513d601f19601f82011682018060405250810190610e3391906143c3565b90506000610e4089613261565b905060008215610efc57610ef961072e8b600301805480602002602001604051908101604052809291908181526020018280548015610e9e57602002820191906000526020600020905b815481526020019060010190808311610e8a575b50505050508c60020180548060200260200160405190810160405280929190818152602001828054801561089457602002820191906000526020600020908154815260200190600101908083116108805750505050506134d6565b90505b60008a600301805480602002602001604051908101604052809291908181526020018280548015610f4c57602002820191906000526020600020905b815481526020019060010190808311610f38575b5050505050905060005b878110156110455784610fb55760008b8281518110610f7757610f776143ad565b602002602001015111610fb55760405162461bcd60e51b8152602060048201526006602482015265746f6b656e7360d01b6044820152606401610463565b61100a8c6000018281548110610fcd57610fcd6143ad565b9060005260206000200160009054906101000a90046001600160a01b03168c8381518110610ffd57610ffd6143ad565b602002602001015161358e565b82828151811061101c5761101c6143ad565b6020026020010181815161103091906143f2565b9052508061103d8161449f565b915050610f56565b5060006110a561089e838e60020180548060200260200160405190810160405280929190818152602001828054801561089457602002820191906000526020600020908154815260200190600101908083116108805750505050506134d6565b90508281116110b6576110b66144ba565b846110d95781516110d09060038e01906020850190613e78565b508098506112d5565b6000805b8981101561124c5761113d858f60030183815481106110fe576110fe6143ad565b906000526020600020015485611114919061440a565b61111e9190614440565b858381518110611130576111306143ad565b6020026020010151613686565b91506402540be40061114f838a61440a565b6111599190614440565b89828151811061116b5761116b6143ad565b6020026020010181815250506402540be4008e600601548a8381518110611194576111946143ad565b60200260200101516111a6919061440a565b6111b09190614440565b8482815181106111c2576111c26143ad565b60200260200101516111d49190614429565b8e60030182815481106111e9576111e96143ad565b9060005260206000200181905550888181518110611209576112096143ad565b6020026020010151848281518110611223576112236143ad565b602002602001018181516112379190614429565b905250806112448161449f565b9150506110dd565b506112b06112aa848f60020180548060200260200160405190810160405280929190818152602001828054801561089457602002820191906000526020600020908154815260200190600101908083116108805750505050506134d6565b8661333a565b9150836112bd8184614429565b6112c7908861440a565b6112d19190614440565b9950505b898910156112f55760405162461bcd60e51b815260040161046390614462565b60018c01546040516340c10f1960e01b8152336004820152602481018b90526001600160a01b03909116906340c10f1990604401600060405180830381600087803b15801561134357600080fd5b505af1158015611357573d6000803e3d6000fd5b50505050336001600160a01b03167f189c623b666b1b45b83d7178f39b8c087cb09774317ca2f53c2d3c3726f222a28c89848d60405161139a949392919061450b565b60405180910390a250505050505050509392505050565b6000806113bd88612bfc565b905060006113e5866402540be4008b600401546402540be4006113e09190614429565b6136a8565b905060008960020188815481106113fe576113fe6143ad565b906000526020600020015482611414919061440a565b838981518110611426576114266143ad565b60200260200101516114389190614429565b905060006114498b8a8c8588612caa565b9050838a8151811061145d5761145d6143ad565b6020026020010151816114709190614429565b94508a6002018a81548110611487576114876143ad565b90600052602060002001548561149d9190614440565b9450868511156114bf5760405162461bcd60e51b815260040161046390614462565b848b6003018b815481106114d5576114d56143ad565b9060005260206000200160008282546114ee9190614429565b92505081905550828b6003018a8154811061150b5761150b6143ad565b9060005260206000200160008282546115249190614429565b90915550508a546000908c908c908110611540576115406143ad565b6000918252602090912001546001600160a01b03169050611561818761358e565b955061157d878a8e6000018d81548110610668576106686143ad565b604080518c8152602081018890529081018b9052606081018a90526001600160a01b038816906000805160206147c2833981519152906080016106be565b60006115c682613261565b92915050565b6000806115d886612bfc565b905060006115fb846402540be40089600401546402540be4006113e09190614429565b90506000876002018681548110611614576116146143ad565b90600052602060002001548261162a919061440a565b83878151811061163c5761163c6143ad565b602002602001015161164e9190614429565b9050600061165f89888a8588612caa565b905060006116b0858a81518110611678576116786143ad565b60200260200101518361168b9190614429565b8b6002018b815481106116a0576116a06143ad565b9060005260206000200154613757565b9a9950505050505050505050565b6000808760000187815481106116d6576116d66143ad565b60009182526020822001546001600160a01b031691506116f589612bfc565b9050611701828761358e565b955060006117608a8a8a8d6002018d81548110611720576117206143ad565b90600052602060002001548b611736919061440a565b868e81518110611748576117486143ad565b602002602001015161175a91906143f2565b86612caa565b90506000600182848b81518110611779576117796143ad565b602002602001015161178b9190614429565b6117959190614429565b905060006402540be4008c60040154836117af919061440a565b6117b99190614440565b90508b6002018a815481106117d0576117d06143ad565b906000526020600020015481836117e79190614429565b6117f19190614440565b9150878210156118135760405162461bcd60e51b815260040161046390614462565b888c6003018c81548110611829576118296143ad565b90600052602060002001600082825461184291906143f2565b909155505060028c0180548b90811061185d5761185d6143ad565b90600052602060002001546402540be4008d600601548361187e919061440a565b6118889190614440565b6118929190614440565b61189c90836143f2565b8c6003018b815481106118b1576118b16143ad565b9060005260206000200160008282546118ca9190614429565b925050819055506118eb87838e6000018d81548110610668576106686143ad565b604080518c8152602081018b90529081018b9052606081018390526001600160a01b038816906000805160206147c28339815191529060800160405180910390a2509a9950505050505050505050565b6000606461194883613261565b6115c69190614440565b60008061195e86612bfc565b90506000866002018681548110611977576119776143ad565b90600052602060002001548461198d919061440a565b82878151811061199f5761199f6143ad565b60200260200101516119b191906143f2565b905060006119c28888888587612caa565b905060008860020187815481106119db576119db6143ad565b9060005260206000200154828589815181106119f9576119f96143ad565b6020026020010151611a0b9190614429565b611a159190614440565b905060006402540be400828b60040154611a2f919061440a565b611a399190614440565b90506116b08183614429565b611a508383836137c1565b505050565b606060008460010160009054906101000a90046001600160a01b03166001600160a01b03166318160ddd6040518163ffffffff1660e01b8152600401602060405180830381865afa158015611aae573d6000803e3d6000fd5b505050506040513d601f19601f82011682018060405250810190611ad291906143c3565b905080841115611ae157600080fd5b84546000816001600160401b03811115611afd57611afd613f82565b604051908082528060200260200182016040528015611b26578160200160208202803683370190505b509050611b3487338861393d565b935060005b8451811015611c4057858181518110611b5457611b546143ad565b6020026020010151858281518110611b6e57611b6e6143ad565b60200260200101511015611b945760405162461bcd60e51b815260040161046390614462565b848181518110611ba657611ba66143ad565b6020026020010151886003018281548110611bc357611bc36143ad565b9060005260206000200154611bd89190614429565b886003018281548110611bed57611bed6143ad565b9060005260206000200181905550611c2e33868381518110611c1157611c116143ad565b60200260200101518a6000018481548110610668576106686143ad565b80611c388161449f565b915050611b39565b50600187015460405163079cc67960e41b8152336004820152602481018890526001600160a01b03909116906379cc679090604401600060405180830381600087803b158015611c8f57600080fd5b505af1158015611ca3573d6000803e3d6000fd5b503392507f347ad828e58cbe534d8f6b67985d791360756b18f0d95fd9f197a66cc46480ea915086905083611cd88a88614429565b604051611ce793929190614544565b60405180910390a25050509392505050565b8151835114611d335760405162461bcd60e51b8152602060048201526006602482015265696e7075747360d01b6044820152606401610463565b600083516001600160401b03811115611d4e57611d4e613f82565b604051908082528060200260200182016040528015611d77578160200160208202803683370190505b509050600084516001600160401b03811115611d9557611d95613f82565b604051908082528060200260200182016040528015611dbe578160200160208202803683370190505b5090506000805b8651811015611fed576000878281518110611de257611de26143ad565b602002602001015190506000878381518110611e0057611e006143ad565b60200260200101519050836001600160a01b0316826001600160a01b03161160006001600160a01b0316836001600160a01b031614611e5f57604051806040016040528060088152602001671d5b9cdbdc9d195960c21b815250611e7e565b604051806040016040528060058152602001643a37b5b2b760d91b8152505b90611e9c5760405162461bcd60e51b815260040161046391906145d2565b506040516370a0823160e01b815230600482015291935083916001600160a01b038316906370a0823190602401602060405180830381865afa158015611ee6573d6000803e3d6000fd5b505050506040513d601f19601f82011682018060405250810190611f0a91906143c3565b858481518110611f1c57611f1c6143ad565b6020026020010181815250506402540be4008b6005015482611f3e919061440a565b611f489190614440565b868481518110611f5a57611f5a6143ad565b60200260200101818152505080858481518110611f7957611f796143ad565b60200260200101511015611fc65760405162461bcd60e51b8152602060048201526014602482015273696e73756666696369656e742062616c616e636560601b6044820152606401610463565b611fda6001600160a01b0383168b83612ee3565b505080611fe69061449f565b9050611dc5565b5060405163f04f270760e01b81526001600160a01b0388169063f04f270790612020908990899088908a906004016145e5565b600060405180830381600087803b15801561203a57600080fd5b505af115801561204e573d6000803e3d6000fd5b5050505060005b865181101561224e576000878281518110612072576120726143ad565b602002602001015190506000848381518110612090576120906143ad565b60209081029190910101516040516370a0823160e01b81523060048201529091506000906001600160a01b038416906370a0823190602401602060405180830381865afa1580156120e5573d6000803e3d6000fd5b505050506040513d601f19601f8201168201806040525081019061210991906143c3565b90508181101561215b5760405162461bcd60e51b815260206004820152601960248201527f696e76616c696420706f7374206c6f616e2062616c616e6365000000000000006044820152606401610463565b60006121678383614429565b905087858151811061217b5761217b6143ad565b60200260200101518110156121ca5760405162461bcd60e51b8152602060048201526015602482015274696e73756666696369656e74206c6f616e2066656560581b6044820152606401610463565b836001600160a01b03168c6001600160a01b03167f0d7d75e01ab95780d3cd1c8ec0dd6c2ce19e3a20427eec8bf53283b6fb8e95f08c8881518110612211576122116143ad565b602002602001015184604051612231929190918252602082015260400190565b60405180910390a350505050806122479061449f565b9050612055565b505050505050505050565b8254825160009190811461227f5760405162461bcd60e51b81526004016104639061447f565b6001850154604080516318160ddd60e01b815290516000926001600160a01b0316916318160ddd9160048083019260209291908290030181865afa1580156122cb573d6000803e3d6000fd5b505050506040513d601f19601f820116820180604052508101906122ef91906143c3565b9050806123305760405162461bcd60e51b815260206004820152600f60248201526e0746f74616c537570706c79203d203608c1b6044820152606401610463565b600061233b87613559565b9050600061234888613261565b905060008860030180548060200260200160405190810160405280929190818152602001828054801561239a57602002820191906000526020600020905b815481526020019060010190808311612386575b5050505050905060006123b56123af8b612bfc565b8461333a565b905060005b86811015612417578981815181106123d4576123d46143ad565b60200260200101518382815181106123ee576123ee6143ad565b602002602001018181516124029190614429565b9052508061240f8161449f565b9150506123ba565b50600061247761089e848d60020180548060200260200160405190810160405280929190818152602001828054801561089457602002820191906000526020600020908154815260200190600101908083116108805750505050506134d6565b90506000876001600160401b0381111561249357612493613f82565b6040519080825280602002602001820160405280156124bc578160200160208202803683370190505b50905060005b8881101561263c576000848e60030183815481106124e2576124e26143ad565b9060005260206000200154856124f8919061440a565b6125029190614440565b9050600061252987848151811061251b5761251b6143ad565b602002602001015183613686565b90506402540be40061253b828b61440a565b6125459190614440565b848481518110612557576125576143ad565b6020026020010181815250506402540be4008f60060154858581518110612580576125806143ad565b6020026020010151612592919061440a565b61259c9190614440565b8784815181106125ae576125ae6143ad565b60200260200101516125c09190614429565b8f60030184815481106125d5576125d56143ad565b90600052602060002001819055508383815181106125f5576125f56143ad565b602002602001015187848151811061260f5761260f6143ad565b602002602001018181516126239190614429565b90525082915061263490508161449f565b9150506124c2565b5061269a6112aa858e60020180548060200260200160405190810160405280929190818152602001828054801561089457602002820191906000526020600020908154815260200190600101908083116108805750505050506134d6565b915082876126a88483614429565b6126b2919061440a565b6126bc9190614440565b9850600089116126ce576126ce6144ba565b6126d88c33613af7565b6126e7906402540be400614429565b6126f28a60016143f2565b6126fc919061440a565b98508989111561271e5760405162461bcd60e51b815260040161046390614462565b60018c015460405163079cc67960e41b8152336004820152602481018b90526001600160a01b03909116906379cc679090604401600060405180830381600087803b15801561276c57600080fd5b505af1158015612780573d6000803e3d6000fd5b5050505060005b888110156127f5578b81815181106127a1576127a16143ad565b60200260200101516000146127e3576127e3338d83815181106127c6576127c66143ad565b60200260200101518f6000018481548110610668576106686143ad565b806127ed8161449f565b915050612787565b50337f3631c28b1f9dd213e0319fb167b554d76b6c283a41143eb400a0d1adb1af17558c83856128258e8d614429565b60405161139a949392919061450b565b60008061284188612bfc565b905060006128888989898c6002018c81548110612860576128606143ad565b90600052602060002001548a612876919061440a565b868d81518110611748576117486143ad565b905060008183898151811061289f5761289f6143ad565b60200260200101516128b19190614429565b905060006128c9828c600401546402540be4006136a8565b90506128ed6128d88284614429565b8c6002018b815481106116a0576116a06143ad565b91508187111561292c5760405162461bcd60e51b815260206004820152600a602482015269647920746f6f206c6f7760b01b6044820152606401610463565b878b6003018b81548110612942576129426143ad565b90600052602060002001600082825461295b91906143f2565b909155505060028b0180548a908110612976576129766143ad565b90600052602060002001546402540be4008c6006015483612997919061440a565b6129a19190614440565b6129ab9190614440565b6129b590836143f2565b8b6003018a815481106129ca576129ca6143ad565b9060005260206000200160008282546129e39190614429565b92505081905550612a0486888d6000018c81548110610668576106686143ad565b604080518b8152602081018a90529081018a9052606081018890526001600160a01b038716906000805160206147c28339815191529060800160405180910390a2509998505050505050505050565b600080612a70612a6284612bfc565b612a6b85613261565b61333a565b905060008360010160009054906101000a90046001600160a01b03166001600160a01b03166318160ddd6040518163ffffffff1660e01b8152600401602060405180830381865afa158015612ac9573d6000803e3d6000fd5b505050506040513d601f19601f82011682018060405250810190612aed91906143c3565b905080612afc6012600a614753565b612b06908461440a565b612b109190614440565b949350505050565b81546000908210612b3b5760405162461bcd60e51b81526004016104639061475f565b826003018281548110612b5057612b506143ad565b9060005260206000200154836000018381548110612b7057612b706143ad565b6000918252602090912001546040516370a0823160e01b81523060048201526001600160a01b03909116906370a0823190602401602060405180830381865afa158015612bc1573d6000803e3d6000fd5b505050506040513d601f19601f82011682018060405250810190612be591906143c3565b6109ef9190614429565b6060612b1084848461393d565b60606115c682600301805480602002602001604051908101604052809291908181526020018280548015612c4f57602002820191906000526020600020905b815481526020019060010190808311612c3b575b50505050508360020180548060200260200160405190810160405280929190818152602001828054801561089457602002820191906000526020600020908154815260200190600101908083116108805750505050506134d6565b600083851415612ce85760405162461bcd60e51b815260206004820152600960248201526839b0b6b2aa37b5b2b760b91b6044820152606401610463565b85548086108015612cf857508085105b612d145760405162461bcd60e51b81526004016104639061475f565b6000612d1f88613261565b90506000612d2d838361440a565b90506000612d3b868461333a565b9050600081815b86811015612dc3578a811415612d5757612db1565b60008c8214612d7f57898281518110612d7257612d726143ad565b6020026020010151612d81565b8a5b9050612d8d81856143f2565b9350612d99888261440a565b612da3868561440a565b612dad9190614440565b9250505b80612dbb8161449f565b915050612d42565b50612dce868561440a565b6064612dda858461440a565b612de4919061440a565b612dee9190614440565b9050600084612dfe60648661440a565b612e089190614440565b612e1290846143f2565b9050600084815b610100811015612e9c57819250612e66858384612e36919061440a565b612e4091906143f2565b8886612e4d86600261440a565b612e5791906143f2565b612e619190614429565b613757565b91506001612e748484613686565b11612e8a57509850612eda975050505050505050565b80612e948161449f565b915050612e19565b5060405162461bcd60e51b81526020600482015260126024820152711e50d85b18dd5b185d1a5bdb91985a5b195960721b6044820152606401610463565b95945050505050565b6040516001600160a01b038316602482015260448101829052611a5090849063a9059cbb60e01b906064015b60408051601f198184030181529190526020810180516001600160e01b03166001600160e01b031990931692909217909152613ba3565b835460009081908310612f6b5760405162461bcd60e51b81526004016104639061475f565b6000612f7687613261565b90506000612f8388612bfc565b90506000612f91828461333a565b905060008960010160009054906101000a90046001600160a01b03166001600160a01b03166318160ddd6040518163ffffffff1660e01b8152600401602060405180830381865afa158015612fea573d6000803e3d6000fd5b505050506040513d601f19601f8201168201806040525081019061300e91906143c3565b613018838a61440a565b6130229190614440565b61302c9083614429565b9050600061303d8b868a8786613c80565b905083600061304b8d613559565b905060005b8d548110156131535760008b8214156130a5578487878a8581518110613078576130786143ad565b602002602001015161308a919061440a565b6130949190614440565b61309e9190614429565b90506130fc565b86868984815181106130b9576130b96143ad565b60200260200101516130cb919061440a565b6130d59190614440565b8883815181106130e7576130e76143ad565b60200260200101516130f99190614429565b90505b6402540be40061310c828561440a565b6131169190614440565b848381518110613128576131286143ad565b6020026020010181815161313c9190614429565b90525081905061314b8161449f565b915050613050565b506131618d888c8588613c80565b828b81518110613173576131736143ad565b60200260200101516131859190614429565b98508c6002018a8154811061319c5761319c6143ad565b906000526020600020015460018a6131b49190614429565b6131be9190614440565b9850888d6002018b815481106131d6576131d66143ad565b906000526020600020015484888d815181106131f4576131f46143ad565b60200260200101516132069190614429565b6132109190614440565b61321a9190614429565b97506402540be40061322c8e8e613af7565b61323b906402540be400614429565b613245908b61440a565b61324f9190614440565b98505050505050505094509492505050565b600081600a0154421061327657506008015490565b8160070154826008015411156132e057816009015482600a015461329a9190614429565b60098301546132a99042614429565b836007015484600801546132bd9190614429565b6132c7919061440a565b6132d19190614440565b82600701546115c691906143f2565b816009015482600a01546132f49190614429565b60098301546133039042614429565b836008015484600701546133179190614429565b613321919061440a565b61332b9190614440565b82600701546115c69190614429565b81516000908161334985613df4565b90508061335b576000925050506115c6565b60008181613369858861440a565b905060005b61010081101561348d578260005b8a518110156133d257878b8281518110613398576133986143ad565b60200260200101516133aa919061440a565b6133b4868461440a565b6133be9190614440565b9150806133ca8161449f565b91505061337c565b50839450808760016133e491906143f2565b6133ee919061440a565b6064856133fb8287614429565b613405919061440a565b61340f9190614440565b61341991906143f2565b84613424898461440a565b60646134308a8861440a565b61343a9190614440565b61344491906143f2565b61344e919061440a565b6134589190614440565b935060016134668587613686565b1161347a57839750505050505050506115c6565b50806134858161449f565b91505061336e565b5060405162461bcd60e51b815260206004820152601a60248201527f696e76617269616e7443616c63756c6174696f6e4661696c65640000000000006044820152606401610463565b606060005b8351811015613551578381815181106134f6576134f66143ad565b6020026020010151838281518110613510576135106143ad565b6020026020010151613522919061440a565b838281518110613534576135346143ad565b6020908102919091010152806135498161449f565b9150506134db565b509092915050565b8054600090613569600182614429565b61357490600461440a565b818460040154613584919061440a565b6109ef9190614440565b6040516370a0823160e01b815230600482015260009081906001600160a01b038516906370a0823190602401602060405180830381865afa1580156135d7573d6000803e3d6000fd5b505050506040513d601f19601f820116820180604052508101906135fb91906143c3565b90506136126001600160a01b038516333086613e40565b6040516370a0823160e01b815230600482015281906001600160a01b038616906370a0823190602401602060405180830381865afa158015613658573d6000803e3d6000fd5b505050506040513d601f19601f8201168201806040525081019061367c91906143c3565b612b109190614429565b600081831161369e576136998383614429565b6109ef565b6109ef8284614429565b6000808060001985870985870292508281108382030391505080600014156136e257600084116136d757600080fd5b5082900490506109ef565b8084116136ee57600080fd5b60008486880960026001871981018816978890046003810283188082028403028082028403028082028403028082028403028082028403029081029092039091026000889003889004909101858311909403939093029303949094049190911702949350505050565b60008161378c5760405162461bcd60e51b81526020600482015260036024820152623234bb60e91b6044820152606401610463565b82613799575060006115c6565b816137a5600185614429565b6137af9190614440565b6137ba9060016143f2565b90506115c6565b6001600160a01b0382166137d457505050565b600b830154613804576001600160a01b0382166000908152600d8401602052604090206402540be400905561391d565b60006138108484613af7565b60018501546040516370a0823160e01b81526001600160a01b038681166004830152929350600092909116906370a0823190602401602060405180830381865afa158015613862573d6000803e3d6000fd5b505050506040513d601f19601f8201168201806040525081019061388691906143c3565b600b86015490915061389882856143f2565b6138a2919061440a565b1561391a57600b8501546138b682856143f2565b6138c0919061440a565b6402540be40086600b0154856138d6919061440a565b6138e0858561440a565b6138ea91906143f2565b6138f4919061440a565b6138fe9190614440565b6001600160a01b0385166000908152600d870160205260409020555b50505b506001600160a01b03166000908152600c90910160205260409020429055565b606060008460010160009054906101000a90046001600160a01b03166001600160a01b03166318160ddd6040518163ffffffff1660e01b8152600401602060405180830381865afa158015613996573d6000803e3d6000fd5b505050506040513d601f19601f820116820180604052508101906139ba91906143c3565b9050808311156139fb5760405162461bcd60e51b815260206004820152600c60248201526b746f74616c20737570706c7960a01b6044820152606401610463565b60006402540be400613a0d8787613af7565b613a1c906402540be400614429565b613a26908661440a565b613a309190614440565b86549091506000906001600160401b03811115613a4f57613a4f613f82565b604051908082528060200260200182016040528015613a78578160200160208202803683370190505b50905060005b8754811015613aec578383896003018381548110613a9e57613a9e6143ad565b9060005260206000200154613ab3919061440a565b613abd9190614440565b828281518110613acf57613acf6143ad565b602090810291909101015280613ae48161449f565b915050613a7e565b509695505050505050565b6001600160a01b0381166000908152600c830160205260408120548190613b21906224ea006143f2565b905042811115613b99576000613b374283614429565b6001600160a01b0385166000908152600d87016020526040902054600b8701549192506402540be400916224ea00918491613b72919061440a565b613b7c919061440a565b613b869190614440565b613b909190614440565b925050506115c6565b5060009392505050565b600080836001600160a01b031683604051613bbe9190614788565b6000604051808303816000865af19150503d8060008114613bfb576040519150601f19603f3d011682016040523d82523d6000602084013e613c00565b606091505b50915091506000821415613c18573d6000803e3d6000fd5b80511580613c35575080806020019051810190613c3591906147a4565b613c7a5760405162461bcd60e51b815260206004820152601660248201527514d0519157d15490cc8c17d0d0531317d1905253115160521b6044820152606401610463565b50505050565b8454600090808510613c9457613c946144ba565b6000613ca0828861440a565b90508360008080805b86811015613d1b578a811415613cbe57613d09565b898181518110613cd057613cd06143ad565b602002602001015192508284613ce691906143f2565b9350613cf2878461440a565b613cfc8a8761440a565b613d069190614440565b94505b80613d138161449f565b915050613ca9565b50613d26868661440a565b6064613d328a8761440a565b613d3c919061440a565b613d469190614440565b9350600085613d5660648b61440a565b613d609190614440565b613d6a90856143f2565b90508860005b61010081101561348d578193508a83836002613d8c919061440a565b613d9691906143f2565b613da09190614429565b87613dab848061440a565b613db591906143f2565b613dbf9190614440565b91506001613dcd8584613686565b11613de257509750612eda9650505050505050565b80613dec8161449f565b915050613d70565b6000805b8251811015613e3a57828181518110613e1357613e136143ad565b602002602001015182613e2691906143f2565b915080613e328161449f565b915050613df8565b50919050565b6040516001600160a01b0380851660248301528316604482015260648101829052613c7a9085906323b872dd60e01b90608401612f0f565b828054828255906000526020600020908101928215613eb3579160200282015b82811115613eb3578251825591602001919060010190613e98565b50613ebf929150613ec3565b5090565b5b80821115613ebf5760008155600101613ec4565b6001600160a01b0381168114613eed57600080fd5b50565b60008060008060008060c08789031215613f0957600080fd5b863595506020870135945060408701359350606087013592506080870135915060a0870135613f3781613ed8565b809150509295509295509295565b60008060008060808587031215613f5b57600080fd5b843593506020850135613f6d81613ed8565b93969395505050506040820135916060013590565b634e487b7160e01b600052604160045260246000fd5b604051601f8201601f191681016001600160401b0381118282101715613fc057613fc0613f82565b604052919050565b60006001600160401b03821115613fe157613fe1613f82565b5060051b60200190565b600082601f830112613ffc57600080fd5b8135602061401161400c83613fc8565b613f98565b82815260059290921b8401810191818101908684111561403057600080fd5b8286015b84811015613aec5780358352918301918301614034565b8015158114613eed57600080fd5b60008060006060848603121561406e57600080fd5b8335925060208401356001600160401b0381111561408b57600080fd5b61409786828701613feb565b92505060408401356140a88161404b565b809150509250925092565b600080600080608085870312156140c957600080fd5b5050823594602084013594506040840135936060013592509050565b6000806000606084860312156140fa57600080fd5b8335925060208401356001600160401b0381111561411757600080fd5b61412386828701613feb565b925050604084013590509250925092565b60006020828403121561414657600080fd5b5035919050565b60008060006060848603121561416257600080fd5b83359250602084013561417481613ed8565b929592945050506040919091013590565b60008060006060848603121561419a57600080fd5b833592506020840135915060408401356001600160401b038111156141be57600080fd5b6141ca86828701613feb565b9150509250925092565b6020808252825182820181905260009190848201906040850190845b8181101561420c578351835292840192918401916001016141f0565b50909695505050505050565b600082601f83011261422957600080fd5b81356001600160401b0381111561424257614242613f82565b614255601f8201601f1916602001613f98565b81815284602083860101111561426a57600080fd5b816020850160208301376000918101602001919091529392505050565b600080600080600060a0868803121561429f57600080fd5b853594506020808701356142b281613ed8565b945060408701356001600160401b03808211156142ce57600080fd5b818901915089601f8301126142e257600080fd5b81356142f061400c82613fc8565b81815260059190911b8301840190848101908c83111561430f57600080fd5b938501935b8285101561433657843561432781613ed8565b82529385019390850190614314565b97505050606089013592508083111561434e57600080fd5b61435a8a848b01613feb565b9450608089013592508083111561437057600080fd5b505061437e88828901614218565b9150509295509295909350565b6000806040838503121561439e57600080fd5b50508035926020909101359150565b634e487b7160e01b600052603260045260246000fd5b6000602082840312156143d557600080fd5b5051919050565b634e487b7160e01b600052601160045260246000fd5b60008219821115614405576144056143dc565b500190565b6000816000190483118215151615614424576144246143dc565b500290565b60008282101561443b5761443b6143dc565b500390565b60008261445d57634e487b7160e01b600052601260045260246000fd5b500490565b6020808252600390820152623e207360e81b604082015260600190565b6020808252600690820152650d8cadccee8d60d31b604082015260600190565b60006000198214156144b3576144b36143dc565b5060010190565b634e487b7160e01b600052600160045260246000fd5b600081518084526020808501945080840160005b83811015614500578151875295820195908201906001016144e4565b509495945050505050565b60808152600061451e60808301876144d0565b828103602084015261453081876144d0565b604084019590955250506060015292915050565b60608152600061455760608301866144d0565b828103602084015261456981866144d0565b915050826040830152949350505050565b60005b8381101561459557818101518382015260200161457d565b83811115613c7a5750506000910152565b600081518084526145be81602086016020860161457a565b601f01601f19169290920160200192915050565b6020815260006109ef60208301846145a6565b6080808252855190820181905260009060209060a0840190828901845b828110156146275781516001600160a01b031684529284019290840190600101614602565b5050508381038285015261463b81886144d0565b915050828103604084015261465081866144d0565b9050828103606084015261466481856145a6565b979650505050505050565b600181815b808511156146aa578160001904821115614690576146906143dc565b8085161561469d57918102915b93841c9390800290614674565b509250929050565b6000826146c1575060016115c6565b816146ce575060006115c6565b81600181146146e457600281146146ee5761470a565b60019150506115c6565b60ff8411156146ff576146ff6143dc565b50506001821b6115c6565b5060208310610133831016604e8410600b841016171561472d575081810a6115c6565b614737838361466f565b806000190482111561474b5761474b6143dc565b029392505050565b60006109ef83836146b2565b6020808252600f908201526e696e6465784f75744f6652616e676560881b604082015260600190565b6000825161479a81846020870161457a565b9190910192915050565b6000602082840312156147b657600080fd5b81516109ef8161404b56feb2e76ae99761dc136e598d4a629bb347eccb9532a5f8bbd72e18467c3c34cc98a2646970667358221220fe21fe355100082e1349d7f65e0a878e99f6ba98d44c42e9ac112d08c35ae28764736f6c634300080b0033",
  "devdoc": {
    "events": {
      "FlashLoan(address,address,uint256,uint256)": {
        "details": "Emitted for each individual flash loan performed by `flashLoan`."
      }
    },
    "kind": "dev",
    "methods": {
      "addLiquidity(RequiemStableSwapLib.SwapStorage storage,uint256[],uint256)": {
        "params": {
          "amounts": "List of amounts of coins to deposit",
          "minMintAmount": "Minimum amount of LP tokens to mint from the deposit"
        },
        "returns": {
          "mintAmount": "Amount of LP tokens received by depositing"
        }
      },
      "onSwap(RequiemStableSwapLib.SwapStorage storage,uint256,uint256,uint256,uint256,address)": {
        "params": {
          "i": "token index in",
          "j": "token index out",
          "outAmount": "the target out amount - only a cap at the decimalplaces of the lower one, the rest is taken as fee                  - that fee is always about the lowes amount possible of the one with the lower decimal number                  this will have a negative"
        }
      },
      "onSwapGivenIn(RequiemStableSwapLib.SwapStorage storage,uint256,uint256,uint256,uint256,address)": {
        "params": {
          "i": "token index in",
          "j": "token index out"
        }
      },
      "onSwapGivenOut(RequiemStableSwapLib.SwapStorage storage,uint256,uint256,uint256,uint256,address)": {
        "params": {
          "i": "token index in",
          "j": "token index out"
        }
      },
      "updateUserWithdrawFee(RequiemStableSwapLib.SwapStorage storage,address,uint256)": {
        "params": {
          "self": "Swap struct to read from and write to",
          "toMint": "amount of pool tokens to be minted",
          "user": "address of the user depositing tokens"
        }
      }
    },
    "stateVariables": {
      "A_PRECISION": {
        "details": "protect from division loss when run approximation loop. We cannot divide at the end because of overflow, so we add some (small) PRECISION when divide in each iteration"
      },
      "MAX_ITERATION": {
        "details": "max iteration of converge calccuate"
      }
    },
    "version": 1
  },
  "userdoc": {
    "kind": "user",
    "methods": {
      "addLiquidity(RequiemStableSwapLib.SwapStorage storage,uint256[],uint256)": {
        "notice": "Deposit coins into the pool"
      },
      "calculateTokenAmount(RequiemStableSwapLib.SwapStorage storage,uint256[],bool)": {
        "notice": "Estimate amount of LP token minted or burned at deposit or withdrawal without taking fees into account"
      },
      "flashLoan(RequiemStableSwapLib.SwapStorage storage,IFlashLoanRecipient,IERC20[],uint256[],bytes)": {
        "notice": "Flash Loan"
      },
      "getAPrecise(RequiemStableSwapLib.SwapStorage storage)": {
        "notice": "VIEW FUNCTIONS"
      },
      "getVirtualPrice(RequiemStableSwapLib.SwapStorage storage)": {
        "notice": "Returns portfolio virtual price (for calculating profit) scaled up by 1e18"
      },
      "onSwap(RequiemStableSwapLib.SwapStorage storage,uint256,uint256,uint256,uint256,address)": {
        "notice": "the same function as swap, but it expects that amounts already have been  sent to the contract   - designed to be used in the Requiem Swap framework   - deducts the fee from the output and caps it at outAmount to   - this is to avoid issues with the rounding when using the calculateSwapGivenOut function to determine the input          -> that is because e.g. a 6 digit input can never exactly hit a 18 digit output, so the input is selected slightly higher              such that the output also is essentially rounded up at the sixth digit          -> the outAmount can only be lower than the actual calculated dy   - viable function for batch swapping"
      },
      "onSwapGivenIn(RequiemStableSwapLib.SwapStorage storage,uint256,uint256,uint256,uint256,address)": {
        "notice": "the same function as swap, but it expects that amounts already have been  sent to the contract   - designed to be used in the Requiem Swap framework   - deducts the fee from the output, in this case simple as the output is the calculated value   - viable function for batch swapping"
      },
      "onSwapGivenOut(RequiemStableSwapLib.SwapStorage storage,uint256,uint256,uint256,uint256,address)": {
        "notice": "the same function as swap, but it espects that amounts already have been sent to the contract and it requires the output to be provided  - designed to be used in the requirem swap framework  - deducts the fees from the output, that means that the    output has to be increased by the fee to then create a highe input"
      },
      "updateUserWithdrawFee(RequiemStableSwapLib.SwapStorage storage,address,uint256)": {
        "notice": "Update the withdraw fee for `user`. If the user is currently not providing liquidity in the pool, sets to default value. If not, recalculate the starting withdraw fee based on the last deposit's time & amount relative to the new deposit."
      }
    },
    "notice": "StableSwap main algorithm",
    "version": 1
  },
  "storageLayout": {
    "storage": [],
    "types": null
  }
}