{
  "address": "0x610178dA211FEF7D417bC0e6FeD39F05609AD788",
  "abi": [
    {
      "inputs": [
        {
          "internalType": "address",
          "name": "_feeToSetter",
          "type": "address"
        },
        {
          "internalType": "address",
          "name": "_formula",
          "type": "address"
        },
        {
          "internalType": "address",
          "name": "_pairGovernance",
          "type": "address"
        }
      ],
      "stateMutability": "nonpayable",
      "type": "constructor"
    },
    {
      "anonymous": false,
      "inputs": [
        {
          "indexed": true,
          "internalType": "address",
          "name": "previousOwner",
          "type": "address"
        },
        {
          "indexed": true,
          "internalType": "address",
          "name": "newOwner",
          "type": "address"
        }
      ],
      "name": "OwnershipTransferred",
      "type": "event"
    },
    {
      "anonymous": false,
      "inputs": [
        {
          "indexed": true,
          "internalType": "address",
          "name": "token0",
          "type": "address"
        },
        {
          "indexed": true,
          "internalType": "address",
          "name": "token1",
          "type": "address"
        },
        {
          "indexed": false,
          "internalType": "address",
          "name": "pair",
          "type": "address"
        },
        {
          "indexed": false,
          "internalType": "uint32",
          "name": "tokenWeight0",
          "type": "uint32"
        },
        {
          "indexed": false,
          "internalType": "uint256",
          "name": "",
          "type": "uint256"
        }
      ],
      "name": "PairCreated",
      "type": "event"
    },
    {
      "inputs": [],
      "name": "INIT_CODE_HASH",
      "outputs": [
        {
          "internalType": "bytes32",
          "name": "",
          "type": "bytes32"
        }
      ],
      "stateMutability": "view",
      "type": "function"
    },
    {
      "inputs": [
        {
          "internalType": "uint256",
          "name": "",
          "type": "uint256"
        }
      ],
      "name": "allPairs",
      "outputs": [
        {
          "internalType": "address",
          "name": "",
          "type": "address"
        }
      ],
      "stateMutability": "view",
      "type": "function"
    },
    {
      "inputs": [],
      "name": "allPairsLength",
      "outputs": [
        {
          "internalType": "uint256",
          "name": "",
          "type": "uint256"
        }
      ],
      "stateMutability": "view",
      "type": "function"
    },
    {
      "inputs": [
        {
          "internalType": "address",
          "name": "tokenA",
          "type": "address"
        },
        {
          "internalType": "address",
          "name": "tokenB",
          "type": "address"
        },
        {
          "internalType": "uint32",
          "name": "tokenWeightA",
          "type": "uint32"
        },
        {
          "internalType": "uint32",
          "name": "initialFee",
          "type": "uint32"
        }
      ],
      "name": "createPair",
      "outputs": [
        {
          "internalType": "address",
          "name": "pair",
          "type": "address"
        }
      ],
      "stateMutability": "nonpayable",
      "type": "function"
    },
    {
      "inputs": [],
      "name": "feeTo",
      "outputs": [
        {
          "internalType": "address",
          "name": "",
          "type": "address"
        }
      ],
      "stateMutability": "view",
      "type": "function"
    },
    {
      "inputs": [],
      "name": "feeToSetter",
      "outputs": [
        {
          "internalType": "address",
          "name": "",
          "type": "address"
        }
      ],
      "stateMutability": "view",
      "type": "function"
    },
    {
      "inputs": [],
      "name": "formula",
      "outputs": [
        {
          "internalType": "address",
          "name": "",
          "type": "address"
        }
      ],
      "stateMutability": "view",
      "type": "function"
    },
    {
      "inputs": [
        {
          "internalType": "address",
          "name": "tokenA",
          "type": "address"
        },
        {
          "internalType": "address",
          "name": "tokenB",
          "type": "address"
        },
        {
          "internalType": "uint32",
          "name": "tokenWeightA",
          "type": "uint32"
        }
      ],
      "name": "getPair",
      "outputs": [
        {
          "internalType": "address",
          "name": "pair",
          "type": "address"
        }
      ],
      "stateMutability": "view",
      "type": "function"
    },
    {
      "inputs": [
        {
          "internalType": "contract IERC20",
          "name": "token0",
          "type": "address"
        },
        {
          "internalType": "contract IERC20",
          "name": "token1",
          "type": "address"
        }
      ],
      "name": "getPairs",
      "outputs": [
        {
          "internalType": "address[]",
          "name": "_tokenPairs",
          "type": "address[]"
        }
      ],
      "stateMutability": "view",
      "type": "function"
    },
    {
      "inputs": [
        {
          "internalType": "address",
          "name": "pair",
          "type": "address"
        }
      ],
      "name": "getWeightsAndSwapFee",
      "outputs": [
        {
          "internalType": "uint32",
          "name": "tokenWeight0",
          "type": "uint32"
        },
        {
          "internalType": "uint32",
          "name": "tokenWeight1",
          "type": "uint32"
        },
        {
          "internalType": "uint32",
          "name": "swapFee",
          "type": "uint32"
        }
      ],
      "stateMutability": "view",
      "type": "function"
    },
    {
      "inputs": [
        {
          "internalType": "address",
          "name": "b",
          "type": "address"
        }
      ],
      "name": "isPair",
      "outputs": [
        {
          "internalType": "bool",
          "name": "",
          "type": "bool"
        }
      ],
      "stateMutability": "view",
      "type": "function"
    },
    {
      "inputs": [],
      "name": "owner",
      "outputs": [
        {
          "internalType": "address",
          "name": "",
          "type": "address"
        }
      ],
      "stateMutability": "view",
      "type": "function"
    },
    {
      "inputs": [],
      "name": "pairGovernance",
      "outputs": [
        {
          "internalType": "address",
          "name": "",
          "type": "address"
        }
      ],
      "stateMutability": "view",
      "type": "function"
    },
    {
      "inputs": [],
      "name": "protocolFee",
      "outputs": [
        {
          "internalType": "uint256",
          "name": "",
          "type": "uint256"
        }
      ],
      "stateMutability": "view",
      "type": "function"
    },
    {
      "inputs": [],
      "name": "renounceOwnership",
      "outputs": [],
      "stateMutability": "nonpayable",
      "type": "function"
    },
    {
      "inputs": [
        {
          "internalType": "address",
          "name": "_feeTo",
          "type": "address"
        }
      ],
      "name": "setFeeTo",
      "outputs": [],
      "stateMutability": "nonpayable",
      "type": "function"
    },
    {
      "inputs": [
        {
          "internalType": "address",
          "name": "_feeToSetter",
          "type": "address"
        }
      ],
      "name": "setFeeToSetter",
      "outputs": [],
      "stateMutability": "nonpayable",
      "type": "function"
    },
    {
      "inputs": [
        {
          "internalType": "uint256",
          "name": "_protocolFee",
          "type": "uint256"
        }
      ],
      "name": "setProtocolFee",
      "outputs": [],
      "stateMutability": "nonpayable",
      "type": "function"
    },
    {
      "inputs": [
        {
          "internalType": "address",
          "name": "_pair",
          "type": "address"
        },
        {
          "internalType": "uint32",
          "name": "_newSwapFee",
          "type": "uint32"
        }
      ],
      "name": "setSwapFee",
      "outputs": [],
      "stateMutability": "nonpayable",
      "type": "function"
    },
    {
      "inputs": [],
      "name": "swapFeeGovernance",
      "outputs": [
        {
          "internalType": "address",
          "name": "",
          "type": "address"
        }
      ],
      "stateMutability": "view",
      "type": "function"
    },
    {
      "inputs": [
        {
          "internalType": "address",
          "name": "newOwner",
          "type": "address"
        }
      ],
      "name": "transferOwnership",
      "outputs": [],
      "stateMutability": "nonpayable",
      "type": "function"
    },
    {
      "inputs": [
        {
          "internalType": "address",
          "name": "_pair",
          "type": "address"
        },
        {
          "internalType": "address",
          "name": "_to",
          "type": "address"
        }
      ],
      "name": "withdrawFee",
      "outputs": [],
      "stateMutability": "nonpayable",
      "type": "function"
    }
  ],
  "transactionHash": "0x57f4d04650a63b010037b591cdf998604801b32e18cbcf0683668071e6bed85a",
  "args": [
    "0xf39Fd6e51aad88F6F4ce6aB8827279cffFb92266",
    "0x8A791620dd6260079BF849Dc5567aDC3F2FdC318",
    "0xf39Fd6e51aad88F6F4ce6aB8827279cffFb92266"
  ],
  "solcInputHash": "0dc166cf1c5dabbbdfd7d39ea91efa3d",
  "bytecode": "0x60806040523480156200001157600080fd5b5060405162005dea38038062005dea8339810160408190526200003491620000ef565b6200003f3362000082565b600480546001600160a01b039485166001600160a01b0319918216179091556002805493851693821693909317909255600a805491909316911617905562000139565b600080546001600160a01b038381166001600160a01b0319831681178455604051919092169283917f8be0079c531659141344cd1fd0a4f28419497f9722a3daafe3b4186f6b6457e09190a35050565b80516001600160a01b0381168114620000ea57600080fd5b919050565b6000806000606084860312156200010557600080fd5b6200011084620000d2565b92506200012060208501620000d2565b91506200013060408501620000d2565b90509250925092565b615ca180620001496000396000f3fe608060405234801561001057600080fd5b50600436106101825760003560e01c8063715018a6116100d8578063b0e21e8a1161008c578063e5e31b1311610066578063e5e31b131461037f578063f2fde38b146103c8578063f46901ed146103db57600080fd5b8063b0e21e8a14610329578063c879c6d814610332578063ca2229791461034557600080fd5b80638da5cb5b116100bd5780638da5cb5b146102e55780639e68ceb814610303578063a2e74af61461031657600080fd5b8063715018a6146102c8578063787dce3d146102d257600080fd5b80631e3dd18b1161013a578063493468f511610114578063493468f5146102805780634b75f54f146102a0578063574f2ba3146102c057600080fd5b80631e3dd18b14610244578063257671f51461025757806335a54e061461026d57600080fd5b806314572adb1161016b57806314572adb146101f157806316093fad146102045780631d44d4571461022457600080fd5b8063017e7e5814610187578063094b7415146101d1575b600080fd5b6001546101a79073ffffffffffffffffffffffffffffffffffffffff1681565b60405173ffffffffffffffffffffffffffffffffffffffff90911681526020015b60405180910390f35b6004546101a79073ffffffffffffffffffffffffffffffffffffffff1681565b6101a76101ff3660046116eb565b6103ee565b610217610212366004611747565b610a2e565b6040516101c89190611780565b6005546101a79073ffffffffffffffffffffffffffffffffffffffff1681565b6101a76102523660046117da565b610b41565b61025f610b78565b6040519081526020016101c8565b6101a761027b3660046117f3565b610be0565b600a546101a79073ffffffffffffffffffffffffffffffffffffffff1681565b6002546101a79073ffffffffffffffffffffffffffffffffffffffff1681565b60075461025f565b6102d0610d07565b005b6102d06102e03660046117da565b610d94565b60005473ffffffffffffffffffffffffffffffffffffffff166101a7565b6102d061031136600461183e565b610e9d565b6102d061032436600461186c565b610fc9565b61025f60035481565b6102d0610340366004611747565b611091565b61035861035336600461186c565b6111a9565b6040805163ffffffff948516815292841660208401529216918101919091526060016101c8565b6103b861038d36600461186c565b73ffffffffffffffffffffffffffffffffffffffff1660009081526008602052604090205460ff1690565b60405190151581526020016101c8565b6102d06103d636600461186c565b6112d9565b6102d06103e936600461186c565b611409565b60008373ffffffffffffffffffffffffffffffffffffffff168573ffffffffffffffffffffffffffffffffffffffff160361048a576040517f08c379a000000000000000000000000000000000000000000000000000000000815260206004820152600760248201527f524c503a2049410000000000000000000000000000000000000000000000000060448201526064015b60405180910390fd5b60028363ffffffff16101580156104a8575060628363ffffffff1611155b80156104c257506104ba600284611889565b63ffffffff16155b610528576040517f08c379a000000000000000000000000000000000000000000000000000000000815260206004820152600760248201527f524c503a204957000000000000000000000000000000000000000000000000006044820152606401610481565b60008060008673ffffffffffffffffffffffffffffffffffffffff168873ffffffffffffffffffffffffffffffffffffffff161061057257868861056d886064611902565b610576565b8787875b9194509250905073ffffffffffffffffffffffffffffffffffffffff83166105fa576040517f08c379a000000000000000000000000000000000000000000000000000000000815260206004820152600760248201527f524c503a205a41000000000000000000000000000000000000000000000000006044820152606401610481565b60006040518060200161060c906116aa565b7fffffffffffffffffffffffffffffffffffffffffffffffffffffffffffffffe082820381018352601f9091011660408190527fffffffffffffffffffffffffffffffffffffffff000000000000000000000000606087811b8216602084015286901b1660348201527fffffffff0000000000000000000000000000000000000000000000000000000060e085901b166048820152909150600090604c01604080517fffffffffffffffffffffffffffffffffffffffffffffffffffffffffffffffe081840301815291815281516020928301206000818152600690935291205490915073ffffffffffffffffffffffffffffffffffffffff161561076d576040517f08c379a000000000000000000000000000000000000000000000000000000000815260206004820152600760248201527f524c503a205045000000000000000000000000000000000000000000000000006044820152606401610481565b808251602084016000f56040517f6ecf2b2200000000000000000000000000000000000000000000000000000000815273ffffffffffffffffffffffffffffffffffffffff8781166004830152868116602483015263ffffffff8616604483015291975090871690636ecf2b2290606401600060405180830381600087803b1580156107f857600080fd5b505af115801561080c573d6000803e3d6000fd5b50506040517fd6d788c300000000000000000000000000000000000000000000000000000000815263ffffffff8a16600482015273ffffffffffffffffffffffffffffffffffffffff8916925063d6d788c39150602401600060405180830381600087803b15801561087d57600080fd5b505af1158015610891573d6000803e3d6000fd5b50505073ffffffffffffffffffffffffffffffffffffffff80871660009081526009602090815260408083209389168352929052206108d19150876114d1565b5073ffffffffffffffffffffffffffffffffffffffff808516600090815260096020908152604080832093891683529290522061090e90876114d1565b506000818152600660209081526040808320805473ffffffffffffffffffffffffffffffffffffffff8b81167fffffffffffffffffffffffff0000000000000000000000000000000000000000928316811790935560078054600181810183557fa66cc928b5edb82af9bd49922954155ab7b0942694bea4ce44661d9a8736c68890910180549094168517909355838752600886529584902080547fffffffffffffffffffffffffffffffffffffffffffffffffffffffffffffff00169092179091559354825191825263ffffffff88169382019390935290810191909152858216918716907f3541d8fea55be35f686281f975bf8b7ab8fbb500c1c7ddd6c4e714655e9cd4e29060600160405180910390a35050505050949350505050565b73ffffffffffffffffffffffffffffffffffffffff8281166000908152600960209081526040808320938516835292905220546060908067ffffffffffffffff811115610a7d57610a7d611927565b604051908082528060200260200182016040528015610aa6578160200160208202803683370190505b50915060005b81811015610b395773ffffffffffffffffffffffffffffffffffffffff8086166000908152600960209081526040808320938816835292905220610af09082611577565b838281518110610b0257610b02611956565b73ffffffffffffffffffffffffffffffffffffffff9092166020928302919091019091015280610b3181611985565b915050610aac565b505092915050565b60078181548110610b5157600080fd5b60009182526020909120015473ffffffffffffffffffffffffffffffffffffffff16905081565b604051610b87602082016116aa565b7fffffffffffffffffffffffffffffffffffffffffffffffffffffffffffffffe082820381018352601f909101166040819052610bc791906020016119bd565b6040516020818303038152906040528051906020012081565b6000806000808573ffffffffffffffffffffffffffffffffffffffff168773ffffffffffffffffffffffffffffffffffffffff1610610c2b578587610c26876064611902565b610c2f565b8686865b6040517fffffffffffffffffffffffffffffffffffffffff000000000000000000000000606085811b8216602084015284901b1660348201527fffffffff0000000000000000000000000000000000000000000000000000000060e083901b1660488201529295509093509150600090604c01604080517fffffffffffffffffffffffffffffffffffffffffffffffffffffffffffffffe081840301815291815281516020928301206000908152600690925290205473ffffffffffffffffffffffffffffffffffffffff1698975050505050505050565b60005473ffffffffffffffffffffffffffffffffffffffff163314610d88576040517f08c379a000000000000000000000000000000000000000000000000000000000815260206004820181905260248201527f4f776e61626c653a2063616c6c6572206973206e6f7420746865206f776e65726044820152606401610481565b610d9260006115f5565b565b60045473ffffffffffffffffffffffffffffffffffffffff163314610e15576040517f08c379a000000000000000000000000000000000000000000000000000000000815260206004820152600660248201527f524c503a204600000000000000000000000000000000000000000000000000006044820152606401610481565b801580610e3257506127108110158015610e325750620186a08111155b610e98576040517f08c379a000000000000000000000000000000000000000000000000000000000815260206004820152600860248201527f524c503a204950460000000000000000000000000000000000000000000000006044820152606401610481565b600355565b600a5473ffffffffffffffffffffffffffffffffffffffff16331480610eda575060005473ffffffffffffffffffffffffffffffffffffffff1633145b610f40576040517f08c379a000000000000000000000000000000000000000000000000000000000815260206004820152600c60248201527f756e617574686f72697a656400000000000000000000000000000000000000006044820152606401610481565b6040517fd6d788c300000000000000000000000000000000000000000000000000000000815263ffffffff8216600482015273ffffffffffffffffffffffffffffffffffffffff83169063d6d788c390602401600060405180830381600087803b158015610fad57600080fd5b505af1158015610fc1573d6000803e3d6000fd5b505050505050565b60045473ffffffffffffffffffffffffffffffffffffffff16331461104a576040517f08c379a000000000000000000000000000000000000000000000000000000000815260206004820152600660248201527f524c503a204600000000000000000000000000000000000000000000000000006044820152606401610481565b600480547fffffffffffffffffffffffff00000000000000000000000000000000000000001673ffffffffffffffffffffffffffffffffffffffff92909216919091179055565b60015473ffffffffffffffffffffffffffffffffffffffff163314611112576040517f08c379a000000000000000000000000000000000000000000000000000000000815260206004820152600c60248201527f756e617574686f72697a656400000000000000000000000000000000000000006044820152606401610481565b6040517fd883c43d00000000000000000000000000000000000000000000000000000000815273ffffffffffffffffffffffffffffffffffffffff828116600483015283169063d883c43d9060240160408051808303816000875af115801561117f573d6000803e3d6000fd5b505050506040513d601f19601f820116820180604052508101906111a39190611a1b565b50505050565b73ffffffffffffffffffffffffffffffffffffffff81166000908152600860205260408120548190819060ff16156112c7578373ffffffffffffffffffffffffffffffffffffffff166332bfe4696040518163ffffffff1660e01b81526004016040805180830381865afa158015611225573d6000803e3d6000fd5b505050506040513d601f19601f820116820180604052508101906112499190611a4e565b80935081945050508373ffffffffffffffffffffffffffffffffffffffff1663d4cadf686040518163ffffffff1660e01b8152600401602060405180830381865afa15801561129c573d6000803e3d6000fd5b505050506040513d601f19601f820116820180604052508101906112c09190611a7d565b90506112d2565b5060329150819050601e5b9193909250565b60005473ffffffffffffffffffffffffffffffffffffffff16331461135a576040517f08c379a000000000000000000000000000000000000000000000000000000000815260206004820181905260248201527f4f776e61626c653a2063616c6c6572206973206e6f7420746865206f776e65726044820152606401610481565b73ffffffffffffffffffffffffffffffffffffffff81166113fd576040517f08c379a000000000000000000000000000000000000000000000000000000000815260206004820152602660248201527f4f776e61626c653a206e6577206f776e657220697320746865207a65726f206160448201527f64647265737300000000000000000000000000000000000000000000000000006064820152608401610481565b611406816115f5565b50565b60045473ffffffffffffffffffffffffffffffffffffffff16331461148a576040517f08c379a000000000000000000000000000000000000000000000000000000000815260206004820152600660248201527f524c503a204600000000000000000000000000000000000000000000000000006044820152606401610481565b600180547fffffffffffffffffffffffff00000000000000000000000000000000000000001673ffffffffffffffffffffffffffffffffffffffff92909216919091179055565b73ffffffffffffffffffffffffffffffffffffffff8116600090815260018301602052604081205461156d57508154600180820184556000848152602080822090930180547fffffffffffffffffffffffff00000000000000000000000000000000000000001673ffffffffffffffffffffffffffffffffffffffff861690811790915585549082528286019093526040902091909155611571565b5060005b92915050565b815460009082106115e4576040517f08c379a000000000000000000000000000000000000000000000000000000000815260206004820152600d60248201527f4f55545f4f465f424f554e4453000000000000000000000000000000000000006044820152606401610481565b6115ee838361166a565b9392505050565b6000805473ffffffffffffffffffffffffffffffffffffffff8381167fffffffffffffffffffffffff0000000000000000000000000000000000000000831681178455604051919092169283917f8be0079c531659141344cd1fd0a4f28419497f9722a3daafe3b4186f6b6457e09190a35050565b600082600001828154811061168157611681611956565b60009182526020909120015473ffffffffffffffffffffffffffffffffffffffff169392505050565b6141d180611a9b83390190565b73ffffffffffffffffffffffffffffffffffffffff8116811461140657600080fd5b63ffffffff8116811461140657600080fd5b6000806000806080858703121561170157600080fd5b843561170c816116b7565b9350602085013561171c816116b7565b9250604085013561172c816116d9565b9150606085013561173c816116d9565b939692955090935050565b6000806040838503121561175a57600080fd5b8235611765816116b7565b91506020830135611775816116b7565b809150509250929050565b6020808252825182820181905260009190848201906040850190845b818110156117ce57835173ffffffffffffffffffffffffffffffffffffffff168352928401929184019160010161179c565b50909695505050505050565b6000602082840312156117ec57600080fd5b5035919050565b60008060006060848603121561180857600080fd5b8335611813816116b7565b92506020840135611823816116b7565b91506040840135611833816116d9565b809150509250925092565b6000806040838503121561185157600080fd5b823561185c816116b7565b91506020830135611775816116d9565b60006020828403121561187e57600080fd5b81356115ee816116b7565b600063ffffffff808416806118c7577f4e487b7100000000000000000000000000000000000000000000000000000000600052601260045260246000fd5b92169190910692915050565b7f4e487b7100000000000000000000000000000000000000000000000000000000600052601160045260246000fd5b600063ffffffff8381169083168181101561191f5761191f6118d3565b039392505050565b7f4e487b7100000000000000000000000000000000000000000000000000000000600052604160045260246000fd5b7f4e487b7100000000000000000000000000000000000000000000000000000000600052603260045260246000fd5b60007fffffffffffffffffffffffffffffffffffffffffffffffffffffffffffffffff82036119b6576119b66118d3565b5060010190565b6000825160005b818110156119de57602081860181015185830152016119c4565b818111156119ed576000828501525b509190910192915050565b80516dffffffffffffffffffffffffffff81168114611a1657600080fd5b919050565b60008060408385031215611a2e57600080fd5b611a37836119f8565b9150611a45602084016119f8565b90509250929050565b60008060408385031215611a6157600080fd5b8251611a6c816116d9565b6020840151909250611775816116d9565b600060208284031215611a8f57600080fd5b81516115ee816116d956fe60806040526001600b5534801561001557600080fd5b50604080518082018252601f81527f5265717569656d2050616972204c69717569646974792050726f7669646572006020918201528151808301835260018152603160f81b9082015281517f8b73c3c69bb8fe3d512ecc4cf759cc79239f7b179b0ffacaa9a75d522b39400f818301527f4d949f5c4c4f80d7bdbde28a36135fecf440532cf0f2bb46c4801ec3299b1062818401527fc89efdaa54c0f20c7adf612882df0950f5a951637e0307cdcb4c672f298b8bc660608201524660808201523060a0808301919091528351808303909101815260c09091019092528151910120600355600580546001600160a01b031916331790556140b68061011b6000396000f3fe608060405234801561001057600080fd5b50600436106102775760003560e01c80636ecf2b2211610160578063cc56fd43116100d8578063d6d788c31161008c578063dd62ed3e11610071578063dd62ed3e146106cf578063e9255bae146106fa578063fff6cae91461070d57600080fd5b8063d6d788c3146106a9578063d883c43d146106bc57600080fd5b8063d4cadf68116100bd578063d4cadf681461061f578063d505accf14610645578063d54a8d181461065857600080fd5b8063cc56fd43146105ec578063d21220a7146105ff57600080fd5b806395d89b411161012f578063ba9a7a5611610114578063ba9a7a56146105b0578063bc25cf77146105b9578063c45a0155146105cc57600080fd5b806395d89b4114610561578063a9059cbb1461059d57600080fd5b80636ecf2b22146104e657806370a08231146104f95780637ecebe001461051957806389afcb441461053957600080fd5b8063313ce567116101f35780634ac00e03116101c25780635909c0d5116101a75780635909c0d5146104c15780635a3d5493146104ca5780636a627842146104d357600080fd5b80634ac00e031461048e5780634b75f54f146104a157600080fd5b8063313ce5671461041557806332bfe4691461042f57806332fd5493146104725780633644e5151461048557600080fd5b80630dfe16811161024a57806318160ddd1161022f57806318160ddd146103d257806323b872dd146103db57806330adf81f146103ee57600080fd5b80630dfe16811461036c5780630e6d8bce146103b157600080fd5b8063022c0d9f1461027c57806306fdde03146102915780630902f1ac146102e3578063095ea7b314610349575b600080fd5b61028f61028a366004613a79565b610715565b005b6102cd6040518060400160405280601f81526020017f5265717569656d2050616972204c69717569646974792050726f76696465720081525081565b6040516102da9190613b89565b60405180910390f35b600854604080516dffffffffffffffffffffffffffff80841682526e01000000000000000000000000000084041660208201527c010000000000000000000000000000000000000000000000000000000090920463ffffffff16908201526060016102da565b61035c610357366004613b9c565b6107dd565b60405190151581526020016102da565b60065461038c9073ffffffffffffffffffffffffffffffffffffffff1681565b60405173ffffffffffffffffffffffffffffffffffffffff90911681526020016102da565b6103c46103bf366004613bc8565b6107f3565b6040519081526020016102da565b6103c460005481565b61035c6103e9366004613c27565b610ab6565b6103c47f6e71edae12b1b97f4d1f60370fef10105fa2faae0126114a169c64845d6126c981565b61041d601281565b60405160ff90911681526020016102da565b600e54600f54604080517c010000000000000000000000000000000000000000000000000000000090930463ffffffff90811684529091166020830152016102da565b61028f610480366004613bc8565b610b68565b6103c460035481565b6103c461049c366004613bc8565b610c2c565b600c5461038c9073ffffffffffffffffffffffffffffffffffffffff1681565b6103c460095481565b6103c4600a5481565b6103c46104e1366004613c68565b610e43565b61028f6104f4366004613c99565b6111fe565b6103c4610507366004613c68565b60016020526000908152604090205481565b6103c4610527366004613c68565b60046020526000908152604090205481565b61054c610547366004613c68565b611451565b604080519283526020830191909152016102da565b6102cd6040518060400160405280600481526020017f52504c500000000000000000000000000000000000000000000000000000000081525081565b61035c6105ab366004613b9c565b6118e5565b6103c46103e881565b61028f6105c7366004613c68565b6118f2565b60055461038c9073ffffffffffffffffffffffffffffffffffffffff1681565b6103c46105fa366004613c27565b611ab4565b60075461038c9073ffffffffffffffffffffffffffffffffffffffff1681565b600f54640100000000900463ffffffff1660405163ffffffff90911681526020016102da565b61028f610653366004613ce0565b611c90565b600e546dffffffffffffffffffffffffffff808216916e0100000000000000000000000000009004165b604080516dffffffffffffffffffffffffffff9384168152929091166020830152016102da565b61028f6106b7366004613d57565b611f7b565b6106826106ca366004613c68565b6120c0565b6103c46106dd366004613d72565b600260209081526000928352604080842090915290825290205481565b6103c4610708366004613c27565b61221f565b61028f6123b2565b600b54600114610786576040517f08c379a000000000000000000000000000000000000000000000000000000000815260206004820152600860248201527f5245514c503a204c00000000000000000000000000000000000000000000000060448201526064015b60405180910390fd5b6000600b819055506107d085858585858080601f01602080910402602001604051908101604052809392919081815260200183838082843760009201919091525061257e92505050565b50506001600b5550505050565b60006107ea338484612e8a565b50600192915050565b6000600b54600114610861576040517f08c379a000000000000000000000000000000000000000000000000000000000815260206004820152600860248201527f5245514c503a204c000000000000000000000000000000000000000000000000604482015260640161077d565b6000600b81905560065473ffffffffffffffffffffffffffffffffffffffff88811691161490808080846108ed57600854600f54600e546dffffffffffffffffffffffffffff6e0100000000000000000000000000008404811693169163ffffffff908116917c0100000000000000000000000000000000000000000000000000000000900416610948565b600854600e54600f546dffffffffffffffffffffffffffff808416936e0100000000000000000000000000009004169163ffffffff7c0100000000000000000000000000000000000000000000000000000000909104811691165b600c54600f546040517fb19210b00000000000000000000000000000000000000000000000000000000081526dffffffffffffffffffffffffffff9687169a50949095169750919550935060009273ffffffffffffffffffffffffffffffffffffffff9091169163b19210b091610a0a918e918a918a918a918a9163ffffffff64010000000090910416906004019586526020860194909452604085019290925263ffffffff908116606085015290811660808401521660a082015260c00190565b602060405180830381865afa158015610a27573d6000803e3d6000fd5b505050506040513d601f19601f82011682018060405250810190610a4b9190613dab565b905060008087610a5d57826000610a61565b6000835b9092509050610a9f82828c60005b6040519080825280601f01601f191660200182016040528015610a99576020820181803683370190505b5061257e565b6001600b559e9d5050505050505050505050505050565b73ffffffffffffffffffffffffffffffffffffffff831660009081526002602090815260408083203384529091528120547fffffffffffffffffffffffffffffffffffffffffffffffffffffffffffffffff14610b535773ffffffffffffffffffffffffffffffffffffffff8416600090815260026020908152604080832033845290915281208054849290610b4d908490613df3565b90915550505b610b5e848484612ef9565b5060019392505050565b600b54600114610bd4576040517f08c379a000000000000000000000000000000000000000000000000000000000815260206004820152600860248201527f5245514c503a204c000000000000000000000000000000000000000000000000604482015260640161077d565b6000600b819055600654819073ffffffffffffffffffffffffffffffffffffffff888116911614610c0757836000610c0b565b6000845b9092509050610c1d8282856000610a6f565b50506001600b55505050505050565b6000600b54600114610c9a576040517f08c379a000000000000000000000000000000000000000000000000000000000815260206004820152600860248201527f5245514c503a204c000000000000000000000000000000000000000000000000604482015260640161077d565b6000600b81905560065473ffffffffffffffffffffffffffffffffffffffff8881169116149080808084610d2657600854600f54600e546dffffffffffffffffffffffffffff6e0100000000000000000000000000008404811693169163ffffffff908116917c0100000000000000000000000000000000000000000000000000000000900416610d81565b600854600e54600f546dffffffffffffffffffffffffffff808416936e0100000000000000000000000000009004169163ffffffff7c0100000000000000000000000000000000000000000000000000000000909104811691165b600c54600f546040517f671a11b50000000000000000000000000000000000000000000000000000000081526dffffffffffffffffffffffffffff9687169a50949095169750919550935060009273ffffffffffffffffffffffffffffffffffffffff9091169163671a11b591610a0a918e918a918a918a918a9163ffffffff64010000000090910416906004019586526020860194909452604085019290925263ffffffff908116606085015290811660808401521660a082015260c00190565b6000600b54600114610eb1576040517f08c379a000000000000000000000000000000000000000000000000000000000815260206004820152600860248201527f5245514c503a204c000000000000000000000000000000000000000000000000604482015260640161077d565b6000600b819055600854600d54600654604080517f70a0823100000000000000000000000000000000000000000000000000000000815230600482015290516dffffffffffffffffffffffffffff808616966e01000000000000000000000000000090960481169594169273ffffffffffffffffffffffffffffffffffffffff16916370a082319160248083019260209291908290030181865afa158015610f5d573d6000803e3d6000fd5b505050506040513d601f19601f82011682018060405250810190610f819190613dab565b610f8b9190613df3565b600d546007546040517f70a082310000000000000000000000000000000000000000000000000000000081523060048201529293506000926e0100000000000000000000000000009092046dffffffffffffffffffffffffffff169173ffffffffffffffffffffffffffffffffffffffff909116906370a0823190602401602060405180830381865afa158015611026573d6000803e3d6000fd5b505050506040513d601f19601f8201168201806040525081019061104a9190613dab565b6110549190613df3565b905060006110726dffffffffffffffffffffffffffff861684613df3565b905060006110906dffffffffffffffffffffffffffff861684613df3565b905061109c8686612fce565b5060008054908190036110dc576103e86110be6110b98486613e0a565b61336b565b6110c89190613df3565b97506110d760006103e86133db565b611131565b61112e6dffffffffffffffffffffffffffff88166110fa8386613e0a565b6111049190613e76565b6dffffffffffffffffffffffffffff881661111f8486613e0a565b6111299190613e76565b61347e565b97505b6000881161119b576040517f08c379a000000000000000000000000000000000000000000000000000000000815260206004820152600a60248201527f5245514c503a20494c4d00000000000000000000000000000000000000000000604482015260640161077d565b6111a589896133db565b6111b185858989613496565b604080518481526020810184905233917f4c209b5fc8ad50758f13e2e1088ba56a560dff690a1c6fef26394f4c03821c4f910160405180910390a250506001600b55509395945050505050565b60055473ffffffffffffffffffffffffffffffffffffffff16331461127f576040517f08c379a000000000000000000000000000000000000000000000000000000000815260206004820152600860248201527f5245514c503a2046000000000000000000000000000000000000000000000000604482015260640161077d565b600680547fffffffffffffffffffffffff000000000000000000000000000000000000000090811673ffffffffffffffffffffffffffffffffffffffff8681169190911790925560078054909116918416919091179055600e80547bffffffffffffffffffffffffffffffffffffffffffffffffffffffff167c010000000000000000000000000000000000000000000000000000000063ffffffff848116820292909217928390556113359204166064613e8a565b600f805463ffffffff929092167fffffffffffffffffffffffffffffffffffffffffffffffff000000000000000090921691909117640a00000000179055600554604080517f4b75f54f000000000000000000000000000000000000000000000000000000008152905173ffffffffffffffffffffffffffffffffffffffff90921691634b75f54f916004808201926020929091908290030181865afa1580156113e3573d6000803e3d6000fd5b505050506040513d601f19601f820116820180604052508101906114079190613eaf565b600c80547fffffffffffffffffffffffff00000000000000000000000000000000000000001673ffffffffffffffffffffffffffffffffffffffff92909216919091179055505050565b600080600b546001146114c0576040517f08c379a000000000000000000000000000000000000000000000000000000000815260206004820152600860248201527f5245514c503a204c000000000000000000000000000000000000000000000000604482015260640161077d565b6000600b819055600854600654600754600d54604080517f70a0823100000000000000000000000000000000000000000000000000000000815230600482015290516dffffffffffffffffffffffffffff808716976e01000000000000000000000000000090970481169673ffffffffffffffffffffffffffffffffffffffff968716969095169493169185916370a08231916024808201926020929091908290030181865afa158015611578573d6000803e3d6000fd5b505050506040513d601f19601f8201168201806040525081019061159c9190613dab565b6115a69190613df3565b600d546040517f70a082310000000000000000000000000000000000000000000000000000000081523060048201529192506000916e0100000000000000000000000000009091046dffffffffffffffffffffffffffff169073ffffffffffffffffffffffffffffffffffffffff8516906370a0823190602401602060405180830381865afa15801561163d573d6000803e3d6000fd5b505050506040513d601f19601f820116820180604052508101906116619190613dab565b61166b9190613df3565b306000908152600160205260409020549091506116888787612fce565b50600054806116978584613e0a565b6116a19190613e76565b9950806116ae8484613e0a565b6116b89190613e76565b985060008a1180156116ca5750600089115b611730576040517f08c379a000000000000000000000000000000000000000000000000000000000815260206004820152600a60248201527f5245514c503a20494c4200000000000000000000000000000000000000000000604482015260640161077d565b61173a30836137fa565b611745868c8c613897565b611750858c8b613897565b6040517f70a0823100000000000000000000000000000000000000000000000000000000815230600482015273ffffffffffffffffffffffffffffffffffffffff8716906370a0823190602401602060405180830381865afa1580156117ba573d6000803e3d6000fd5b505050506040513d601f19601f820116820180604052508101906117de9190613dab565b6040517f70a0823100000000000000000000000000000000000000000000000000000000815230600482015290945073ffffffffffffffffffffffffffffffffffffffff8616906370a0823190602401602060405180830381865afa15801561184b573d6000803e3d6000fd5b505050506040513d601f19601f8201168201806040525081019061186f9190613dab565b925061187d84848a8a613496565b604080518b8152602081018b905273ffffffffffffffffffffffffffffffffffffffff8d169133917fdccd412f0b1252819cb1fd330b93224ca42612892bb3f4f789976e6d81936496910160405180910390a350505050505050506001600b81905550915091565b60006107ea338484612ef9565b600b5460011461195e576040517f08c379a000000000000000000000000000000000000000000000000000000000815260206004820152600860248201527f5245514c503a204c000000000000000000000000000000000000000000000000604482015260640161077d565b6000600b556006546007546008546040517f70a0823100000000000000000000000000000000000000000000000000000000815230600482015273ffffffffffffffffffffffffffffffffffffffff9384169390921691611a2a91849186916dffffffffffffffffffffffffffff169083906370a08231906024015b602060405180830381865afa1580156119f7573d6000803e3d6000fd5b505050506040513d601f19601f82011682018060405250810190611a1b9190613dab565b611a259190613df3565b613897565b6008546040517f70a08231000000000000000000000000000000000000000000000000000000008152306004820152611aaa91839186916e01000000000000000000000000000090046dffffffffffffffffffffffffffff169073ffffffffffffffffffffffffffffffffffffffff8416906370a08231906024016119da565b50506001600b5550565b600654600090819081908190819073ffffffffffffffffffffffffffffffffffffffff898116911614611b3f57600854600f54600e546dffffffffffffffffffffffffffff6e0100000000000000000000000000008404811693169163ffffffff908116917c0100000000000000000000000000000000000000000000000000000000900416611b9a565b600854600e54600f546dffffffffffffffffffffffffffff808416936e0100000000000000000000000000009004169163ffffffff7c0100000000000000000000000000000000000000000000000000000000909104811691165b600c54600f546040517fb19210b0000000000000000000000000000000000000000000000000000000008152600481018d90526dffffffffffffffffffffffffffff96871660248201819052959096166044870181905263ffffffff8086166064890152808516608489015264010000000090920490911660a4870152939850929650909450925073ffffffffffffffffffffffffffffffffffffffff169063b19210b09060c4015b602060405180830381865afa158015611c60573d6000803e3d6000fd5b505050506040513d601f19601f82011682018060405250810190611c849190613dab565b98975050505050505050565b42841015611cfa576040517f08c379a000000000000000000000000000000000000000000000000000000000815260206004820152600c60248201527f524c503a20455850495245440000000000000000000000000000000000000000604482015260640161077d565b60035473ffffffffffffffffffffffffffffffffffffffff8816600090815260046020526040812080549192917f6e71edae12b1b97f4d1f60370fef10105fa2faae0126114a169c64845d6126c9918b918b918b919087611d5a83613ecc565b9091555060408051602081019690965273ffffffffffffffffffffffffffffffffffffffff94851690860152929091166060840152608083015260a082015260c0810187905260e00160405160208183030381529060405280519060200120604051602001611dfb9291907f190100000000000000000000000000000000000000000000000000000000000081526002810192909252602282015260420190565b604080517fffffffffffffffffffffffffffffffffffffffffffffffffffffffffffffffe08184030181528282528051602091820120600080855291840180845281905260ff88169284019290925260608301869052608083018590529092509060019060a0016020604051602081039080840390855afa158015611e84573d6000803e3d6000fd5b50506040517fffffffffffffffffffffffffffffffffffffffffffffffffffffffffffffffe0015191505073ffffffffffffffffffffffffffffffffffffffff811615801590611eff57508873ffffffffffffffffffffffffffffffffffffffff168173ffffffffffffffffffffffffffffffffffffffff16145b611f65576040517f08c379a000000000000000000000000000000000000000000000000000000000815260206004820152600760248201527f524c503a20495300000000000000000000000000000000000000000000000000604482015260640161077d565b611f70898989612e8a565b505050505050505050565b60055473ffffffffffffffffffffffffffffffffffffffff163314611ffc576040517f08c379a000000000000000000000000000000000000000000000000000000000815260206004820152600d60248201527f617574686f72697a6174696f6e00000000000000000000000000000000000000604482015260640161077d565b60018163ffffffff161015801561201b57506101f48163ffffffff1611155b612081576040517f08c379a000000000000000000000000000000000000000000000000000000000815260206004820152600860248201527f524c503a20495346000000000000000000000000000000000000000000000000604482015260640161077d565b600f805463ffffffff909216640100000000027fffffffffffffffffffffffffffffffffffffffffffffffff00000000ffffffff909216919091179055565b600554600090819073ffffffffffffffffffffffffffffffffffffffff163314612146576040517f08c379a000000000000000000000000000000000000000000000000000000000815260206004820152600d60248201527f617574686f72697a6174696f6e00000000000000000000000000000000000000604482015260640161077d565b600654600d5461217e9173ffffffffffffffffffffffffffffffffffffffff169085906dffffffffffffffffffffffffffff16613897565b600754600d546121c89173ffffffffffffffffffffffffffffffffffffffff169085906e01000000000000000000000000000090046dffffffffffffffffffffffffffff16613897565b5050600d80547fffffffff0000000000000000000000000000000000000000000000000000000081169091556dffffffffffffffffffffffffffff808216936e010000000000000000000000000000909204169150565b600654600090819081908190819073ffffffffffffffffffffffffffffffffffffffff8981169116146122aa57600854600f54600e546dffffffffffffffffffffffffffff6e0100000000000000000000000000008404811693169163ffffffff908116917c0100000000000000000000000000000000000000000000000000000000900416612305565b600854600e54600f546dffffffffffffffffffffffffffff808416936e0100000000000000000000000000009004169163ffffffff7c0100000000000000000000000000000000000000000000000000000000909104811691165b600c54600f546040517f671a11b5000000000000000000000000000000000000000000000000000000008152600481018d90526dffffffffffffffffffffffffffff96871660248201819052959096166044870181905263ffffffff8086166064890152808516608489015264010000000090920490911660a4870152939850929650909450925073ffffffffffffffffffffffffffffffffffffffff169063671a11b59060c401611c43565b600b5460011461241e576040517f08c379a000000000000000000000000000000000000000000000000000000000815260206004820152600860248201527f5245514c503a204c000000000000000000000000000000000000000000000000604482015260640161077d565b6000600b556006546040517f70a082310000000000000000000000000000000000000000000000000000000081523060048201526125779173ffffffffffffffffffffffffffffffffffffffff16906370a0823190602401602060405180830381865afa158015612493573d6000803e3d6000fd5b505050506040513d601f19601f820116820180604052508101906124b79190613dab565b6007546040517f70a0823100000000000000000000000000000000000000000000000000000000815230600482015273ffffffffffffffffffffffffffffffffffffffff909116906370a0823190602401602060405180830381865afa158015612525573d6000803e3d6000fd5b505050506040513d601f19601f820116820180604052508101906125499190613dab565b6008546dffffffffffffffffffffffffffff808216916e010000000000000000000000000000900416613496565b6001600b55565b60008085118061258e5750600084115b6125f4576040517f08c379a000000000000000000000000000000000000000000000000000000000815260206004820152600a60248201527f5245514c503a20494f4100000000000000000000000000000000000000000000604482015260640161077d565b6008546dffffffffffffffffffffffffffff808216916e010000000000000000000000000000900416818710801561263b5750806dffffffffffffffffffffffffffff1686105b6126a1576040517f08c379a000000000000000000000000000000000000000000000000000000000815260206004820152600960248201527f5245514c503a20494c0000000000000000000000000000000000000000000000604482015260640161077d565b600654600754600091829173ffffffffffffffffffffffffffffffffffffffff91821691908116908916821480159061270657508073ffffffffffffffffffffffffffffffffffffffff168973ffffffffffffffffffffffffffffffffffffffff1614155b61276c576040517f08c379a000000000000000000000000000000000000000000000000000000000815260206004820152600960248201527f5245514c503a2049540000000000000000000000000000000000000000000000604482015260640161077d565b8a1561277d5761277d828a8d613897565b891561278e5761278e818a8c613897565b875115612820576040517f8492923100000000000000000000000000000000000000000000000000000000815273ffffffffffffffffffffffffffffffffffffffff8a16906384929231906127ed9033908f908f908e90600401613f04565b600060405180830381600087803b15801561280757600080fd5b505af115801561281b573d6000803e3d6000fd5b505050505b6040517f70a0823100000000000000000000000000000000000000000000000000000000815230600482015273ffffffffffffffffffffffffffffffffffffffff8316906370a0823190602401602060405180830381865afa15801561288a573d6000803e3d6000fd5b505050506040513d601f19601f820116820180604052508101906128ae9190613dab565b6040517f70a0823100000000000000000000000000000000000000000000000000000000815230600482015290945073ffffffffffffffffffffffffffffffffffffffff8216906370a0823190602401602060405180830381865afa15801561291b573d6000803e3d6000fd5b505050506040513d601f19601f8201168201806040525081019061293f9190613dab565b92505050600089856dffffffffffffffffffffffffffff166129619190613df3565b831161296e576000612992565b6129888a6dffffffffffffffffffffffffffff8716613df3565b6129929084613df3565b905060006129b08a6dffffffffffffffffffffffffffff8716613df3565b83116129bd5760006129e1565b6129d78a6dffffffffffffffffffffffffffff8716613df3565b6129e19084613df3565b905060008211806129f25750600081115b612a58576040517f08c379a000000000000000000000000000000000000000000000000000000000815260206004820152600a60248201527f5245514c503a2049494100000000000000000000000000000000000000000000604482015260640161077d565b6000612a6685612710613e0a565b90506000612a7685612710613e0a565b90508315612b2257600f54600090612a9c90640100000000900463ffffffff1686613e0a565b9050612aa88184613df3565b9250620f4240612aba61271083613e0a565b612ac49190613e76565b600d54612ae191906dffffffffffffffffffffffffffff16613f49565b600d80547fffffffffffffffffffffffffffffffffffff0000000000000000000000000000166dffffffffffffffffffffffffffff92909216919091179055505b8215612bd357600f54600090612b4690640100000000900463ffffffff1685613e0a565b9050612b528183613df3565b9150620f4240612b6461271083613e0a565b612b6e9190613e76565b600d54612b9d91906e01000000000000000000000000000090046dffffffffffffffffffffffffffff16613f49565b600d600e6101000a8154816dffffffffffffffffffffffffffff02191690836dffffffffffffffffffffffffffff160217905550505b600e547c0100000000000000000000000000000000000000000000000000000000900463ffffffff166032819003612ca757612c226dffffffffffffffffffffffffffff808a16908b16613e0a565b612c30906305f5e100613e0a565b612c3a8385613e0a565b1015612ca2576040517f08c379a000000000000000000000000000000000000000000000000000000000815260206004820152600860248201527f5245514c503a204b000000000000000000000000000000000000000000000000604482015260640161077d565b612dfa565b600c5473ffffffffffffffffffffffffffffffffffffffff166379c91b37612ce16dffffffffffffffffffffffffffff8c16612710613e0a565b612cfd6dffffffffffffffffffffffffffff8c16612710613e0a565b6040517fffffffff0000000000000000000000000000000000000000000000000000000060e085901b16815260048101929092526024820152604481018690526064810185905263ffffffff8416608482015260a401602060405180830381865afa158015612d70573d6000803e3d6000fd5b505050506040513d601f19601f82011682018060405250810190612d949190613f61565b612dfa576040517f08c379a000000000000000000000000000000000000000000000000000000000815260206004820152600860248201527f5245514c503a204b000000000000000000000000000000000000000000000000604482015260640161077d565b505050612e0984848888613496565b60408051838152602081018390529081018c9052606081018b905273ffffffffffffffffffffffffffffffffffffffff8a169033907fd78ad95fa46c994b6551d0da85fc275fe613ce37657fb8d5e3d130840159d8229060800160405180910390a360008b11612e795789612e7b565b8a5b9b9a5050505050505050505050565b73ffffffffffffffffffffffffffffffffffffffff83811660008181526002602090815260408083209487168084529482529182902085905590518481527f8c5be1e5ebec7d5bd14f71427d1e84f3dd0314c0f7b2291e5b200ac8c7c3b92591015b60405180910390a3505050565b73ffffffffffffffffffffffffffffffffffffffff831660009081526001602052604081208054839290612f2e908490613df3565b909155505073ffffffffffffffffffffffffffffffffffffffff821660009081526001602052604081208054839290612f68908490613f49565b925050819055508173ffffffffffffffffffffffffffffffffffffffff168373ffffffffffffffffffffffffffffffffffffffff167fddf252ad1be2c89b69c2b068fc378daa952ba7f163c4a11628f55a4df523b3ef83604051612eec91815260200190565b600080600560009054906101000a900473ffffffffffffffffffffffffffffffffffffffff1673ffffffffffffffffffffffffffffffffffffffff1663017e7e586040518163ffffffff1660e01b8152600401602060405180830381865afa15801561303e573d6000803e3d6000fd5b505050506040513d601f19601f820116820180604052508101906130629190613eaf565b90506000600560009054906101000a900473ffffffffffffffffffffffffffffffffffffffff1673ffffffffffffffffffffffffffffffffffffffff1663b0e21e8a6040518163ffffffff1660e01b8152600401602060405180830381865afa1580156130d3573d6000803e3d6000fd5b505050506040513d601f19601f820116820180604052508101906130f79190613dab565b73ffffffffffffffffffffffffffffffffffffffff8316151593509050600080613147600e546dffffffffffffffffffffffffffff808216926e0100000000000000000000000000009092041690565b915091506000836dffffffffffffffffffffffffffff161180156131685750845b801561319e57506000826dffffffffffffffffffffffffffff16118061319e57506000816dffffffffffffffffffffffffffff16115b156132e357600e54600c54600080547c010000000000000000000000000000000000000000000000000000000090930463ffffffff1692909173ffffffffffffffffffffffffffffffffffffffff16906392aec23c908b8b86613202816064613e8a565b61320c8c8c613f83565b6132168d8c613f83565b6040517fffffffff0000000000000000000000000000000000000000000000000000000060e08a901b16815260048101979097526dffffffffffffffffffffffffffff9586166024880152938516604487015263ffffffff928316606487015291166084850152821660a48401521660c482015260e401602060405180830381865afa1580156132aa573d6000803e3d6000fd5b505050506040513d601f19601f820116820180604052508101906132ce9190613dab565b905080156132e0576132e086826133db565b50505b6dffffffffffffffffffffffffffff82161561332257600e80547fffffffffffffffffffffffffffffffffffff00000000000000000000000000001690555b6dffffffffffffffffffffffffffff81161561336157600e80547fffffffff0000000000000000000000000000ffffffffffffffffffffffffffff1690555b5050505092915050565b600060038211156133cc5750806000613385600283613e76565b613390906001613f49565b90505b818110156133c6579050806002816133ab8186613e76565b6133b59190613f49565b6133bf9190613e76565b9050613393565b50919050565b81156133d6575060015b919050565b806000808282546133ec9190613f49565b909155505073ffffffffffffffffffffffffffffffffffffffff821660009081526001602052604081208054839290613426908490613f49565b909155505060405181815273ffffffffffffffffffffffffffffffffffffffff8316906000907fddf252ad1be2c89b69c2b068fc378daa952ba7f163c4a11628f55a4df523b3ef906020015b60405180910390a35050565b600081831061348d578161348f565b825b9392505050565b600e547c0100000000000000000000000000000000000000000000000000000000900463ffffffff166dffffffffffffffffffffffffffff6134d9826064613e8a565b6134e99063ffffffff1687613e0a565b1115801561351457506dffffffffffffffffffffffffffff61351163ffffffff831686613e0a565b11155b61357a576040517f08c379a000000000000000000000000000000000000000000000000000000000815260206004820152600860248201527f5245514c503a204f000000000000000000000000000000000000000000000000604482015260640161077d565b600061358b64010000000042613fb0565b6008549091506000906135c4907c0100000000000000000000000000000000000000000000000000000000900463ffffffff1683613e8a565b905060008163ffffffff161180156135eb57506dffffffffffffffffffffffffffff851615155b801561360657506dffffffffffffffffffffffffffff841615155b15613709576000613618846064613e8a565b6136289063ffffffff1687613fc4565b9050600061363c63ffffffff861687613fc4565b90508263ffffffff166136768361365284613a07565b7bffffffffffffffffffffffffffffffffffffffffffffffffffffffff1690613a38565b7bffffffffffffffffffffffffffffffffffffffffffffffffffffffff1661369e9190613e0a565b600960008282546136af9190613f49565b909155505063ffffffff83166136c88261365285613a07565b7bffffffffffffffffffffffffffffffffffffffffffffffffffffffff166136f09190613e0a565b600a60008282546137019190613f49565b909155505050505b6008805463ffffffff84167c0100000000000000000000000000000000000000000000000000000000027bffffffffffffffffffffffffffffffffffffffffffffffffffffffff6dffffffffffffffffffffffffffff8a81166e0100000000000000000000000000009081027fffffffff000000000000000000000000000000000000000000000000000000009095168d83161794909417918216831794859055604080519382169282169290921783529290930490911660208201527f1c411e9a96e071241c2f21f7726b17ae89e3cab4c78be50e062b03a9fffbbad1910160405180910390a150505050505050565b73ffffffffffffffffffffffffffffffffffffffff82166000908152600160205260408120805483929061382f908490613df3565b92505081905550806000808282546138479190613df3565b909155505060405181815260009073ffffffffffffffffffffffffffffffffffffffff8416907fddf252ad1be2c89b69c2b068fc378daa952ba7f163c4a11628f55a4df523b3ef90602001613472565b6040805173ffffffffffffffffffffffffffffffffffffffff8481166024830152604480830185905283518084039091018152606490920183526020820180517bffffffffffffffffffffffffffffffffffffffffffffffffffffffff167fa9059cbb00000000000000000000000000000000000000000000000000000000179052915160009283929087169161392e9190613ffa565b6000604051808303816000865af19150503d806000811461396b576040519150601f19603f3d011682016040523d82523d6000602084013e613970565b606091505b509150915081801561399a57508051158061399a57508080602001905181019061399a9190613f61565b613a00576040517f08c379a000000000000000000000000000000000000000000000000000000000815260206004820152600960248201527f5245514c503a2054460000000000000000000000000000000000000000000000604482015260640161077d565b5050505050565b6000613a326e0100000000000000000000000000006dffffffffffffffffffffffffffff8416614016565b92915050565b600061348f6dffffffffffffffffffffffffffff831684614051565b73ffffffffffffffffffffffffffffffffffffffff81168114613a7657600080fd5b50565b600080600080600060808688031215613a9157600080fd5b85359450602086013593506040860135613aaa81613a54565b9250606086013567ffffffffffffffff80821115613ac757600080fd5b818801915088601f830112613adb57600080fd5b813581811115613aea57600080fd5b896020828501011115613afc57600080fd5b9699959850939650602001949392505050565b60005b83811015613b2a578181015183820152602001613b12565b83811115613b39576000848401525b50505050565b60008151808452613b57816020860160208601613b0f565b601f017fffffffffffffffffffffffffffffffffffffffffffffffffffffffffffffffe0169290920160200192915050565b60208152600061348f6020830184613b3f565b60008060408385031215613baf57600080fd5b8235613bba81613a54565b946020939093013593505050565b600080600080600060a08688031215613be057600080fd5b8535613beb81613a54565b94506020860135613bfb81613a54565b935060408601359250606086013591506080860135613c1981613a54565b809150509295509295909350565b600080600060608486031215613c3c57600080fd5b8335613c4781613a54565b92506020840135613c5781613a54565b929592945050506040919091013590565b600060208284031215613c7a57600080fd5b813561348f81613a54565b803563ffffffff811681146133d657600080fd5b600080600060608486031215613cae57600080fd5b8335613cb981613a54565b92506020840135613cc981613a54565b9150613cd760408501613c85565b90509250925092565b600080600080600080600060e0888a031215613cfb57600080fd5b8735613d0681613a54565b96506020880135613d1681613a54565b95506040880135945060608801359350608088013560ff81168114613d3a57600080fd5b9699959850939692959460a0840135945060c09093013592915050565b600060208284031215613d6957600080fd5b61348f82613c85565b60008060408385031215613d8557600080fd5b8235613d9081613a54565b91506020830135613da081613a54565b809150509250929050565b600060208284031215613dbd57600080fd5b5051919050565b7f4e487b7100000000000000000000000000000000000000000000000000000000600052601160045260246000fd5b600082821015613e0557613e05613dc4565b500390565b6000817fffffffffffffffffffffffffffffffffffffffffffffffffffffffffffffffff0483118215151615613e4257613e42613dc4565b500290565b7f4e487b7100000000000000000000000000000000000000000000000000000000600052601260045260246000fd5b600082613e8557613e85613e47565b500490565b600063ffffffff83811690831681811015613ea757613ea7613dc4565b039392505050565b600060208284031215613ec157600080fd5b815161348f81613a54565b60007fffffffffffffffffffffffffffffffffffffffffffffffffffffffffffffffff8203613efd57613efd613dc4565b5060010190565b73ffffffffffffffffffffffffffffffffffffffff85168152836020820152826040820152608060608201526000613f3f6080830184613b3f565b9695505050505050565b60008219821115613f5c57613f5c613dc4565b500190565b600060208284031215613f7357600080fd5b8151801515811461348f57600080fd5b60006dffffffffffffffffffffffffffff80841680613fa457613fa4613e47565b92169190910492915050565b600082613fbf57613fbf613e47565b500690565b60006dffffffffffffffffffffffffffff80831681851681830481118215151615613ff157613ff1613dc4565b02949350505050565b6000825161400c818460208701613b0f565b9190910192915050565b60007bffffffffffffffffffffffffffffffffffffffffffffffffffffffff80831681851681830481118215151615613ff157613ff1613dc4565b60007bffffffffffffffffffffffffffffffffffffffffffffffffffffffff80841680613fa457613fa4613e4756fea2646970667358221220353244c44b4b2de046ac97ecf6d7c5bc5e6e670dc0c2aff622a46217cebf246764736f6c634300080d0033a26469706673582212205047b96c60804b5877184177a725621aef5b8ed0dee19a1a539e037a80570a1a64736f6c634300080d0033",
  "devdoc": {
    "kind": "dev",
    "methods": {
      "owner()": {
        "details": "Returns the address of the current owner."
      },
      "renounceOwnership()": {
        "details": "Leaves the contract without owner. It will not be possible to call `onlyOwner` functions anymore. Can only be called by the current owner. NOTE: Renouncing ownership will leave the contract without an owner, thereby removing any functionality that is only available to the owner."
      },
      "transferOwnership(address)": {
        "details": "Transfers ownership of the contract to a new account (`newOwner`). Can only be called by the current owner."
      }
    },
    "version": 1
  },
  "userdoc": {
    "kind": "user",
    "methods": {},
    "version": 1
  },
  "storageLayout": {
    "storage": [
      {
        "astId": 41306,
        "contract": "contracts/WeightedPairFactoryV2.sol:RequiemWeightedPairFactoryV2",
        "label": "_owner",
        "offset": 0,
        "slot": "0",
        "type": "t_address"
      },
      {
        "astId": 31407,
        "contract": "contracts/WeightedPairFactoryV2.sol:RequiemWeightedPairFactoryV2",
        "label": "feeTo",
        "offset": 0,
        "slot": "1",
        "type": "t_address"
      },
      {
        "astId": 31409,
        "contract": "contracts/WeightedPairFactoryV2.sol:RequiemWeightedPairFactoryV2",
        "label": "formula",
        "offset": 0,
        "slot": "2",
        "type": "t_address"
      },
      {
        "astId": 31411,
        "contract": "contracts/WeightedPairFactoryV2.sol:RequiemWeightedPairFactoryV2",
        "label": "protocolFee",
        "offset": 0,
        "slot": "3",
        "type": "t_uint256"
      },
      {
        "astId": 31413,
        "contract": "contracts/WeightedPairFactoryV2.sol:RequiemWeightedPairFactoryV2",
        "label": "feeToSetter",
        "offset": 0,
        "slot": "4",
        "type": "t_address"
      },
      {
        "astId": 31415,
        "contract": "contracts/WeightedPairFactoryV2.sol:RequiemWeightedPairFactoryV2",
        "label": "swapFeeGovernance",
        "offset": 0,
        "slot": "5",
        "type": "t_address"
      },
      {
        "astId": 31430,
        "contract": "contracts/WeightedPairFactoryV2.sol:RequiemWeightedPairFactoryV2",
        "label": "_pairSalts",
        "offset": 0,
        "slot": "6",
        "type": "t_mapping(t_bytes32,t_address)"
      },
      {
        "astId": 31433,
        "contract": "contracts/WeightedPairFactoryV2.sol:RequiemWeightedPairFactoryV2",
        "label": "allPairs",
        "offset": 0,
        "slot": "7",
        "type": "t_array(t_address)dyn_storage"
      },
      {
        "astId": 31437,
        "contract": "contracts/WeightedPairFactoryV2.sol:RequiemWeightedPairFactoryV2",
        "label": "_pairs",
        "offset": 0,
        "slot": "8",
        "type": "t_mapping(t_address,t_bool)"
      },
      {
        "astId": 31446,
        "contract": "contracts/WeightedPairFactoryV2.sol:RequiemWeightedPairFactoryV2",
        "label": "tokenPairs",
        "offset": 0,
        "slot": "9",
        "type": "t_mapping(t_contract(IERC20)33676,t_mapping(t_contract(IERC20)33676,t_struct(AddressSet)40402_storage))"
      },
      {
        "astId": 31448,
        "contract": "contracts/WeightedPairFactoryV2.sol:RequiemWeightedPairFactoryV2",
        "label": "pairGovernance",
        "offset": 0,
        "slot": "10",
        "type": "t_address"
      }
    ],
    "types": {
      "t_address": {
        "encoding": "inplace",
        "label": "address",
        "numberOfBytes": "20"
      },
      "t_array(t_address)dyn_storage": {
        "base": "t_address",
        "encoding": "dynamic_array",
        "label": "address[]",
        "numberOfBytes": "32"
      },
      "t_bool": {
        "encoding": "inplace",
        "label": "bool",
        "numberOfBytes": "1"
      },
      "t_bytes32": {
        "encoding": "inplace",
        "label": "bytes32",
        "numberOfBytes": "32"
      },
      "t_contract(IERC20)33676": {
        "encoding": "inplace",
        "label": "contract IERC20",
        "numberOfBytes": "20"
      },
      "t_mapping(t_address,t_bool)": {
        "encoding": "mapping",
        "key": "t_address",
        "label": "mapping(address => bool)",
        "numberOfBytes": "32",
        "value": "t_bool"
      },
      "t_mapping(t_address,t_uint256)": {
        "encoding": "mapping",
        "key": "t_address",
        "label": "mapping(address => uint256)",
        "numberOfBytes": "32",
        "value": "t_uint256"
      },
      "t_mapping(t_bytes32,t_address)": {
        "encoding": "mapping",
        "key": "t_bytes32",
        "label": "mapping(bytes32 => address)",
        "numberOfBytes": "32",
        "value": "t_address"
      },
      "t_mapping(t_contract(IERC20)33676,t_mapping(t_contract(IERC20)33676,t_struct(AddressSet)40402_storage))": {
        "encoding": "mapping",
        "key": "t_contract(IERC20)33676",
        "label": "mapping(contract IERC20 => mapping(contract IERC20 => struct EnumerableSet.AddressSet))",
        "numberOfBytes": "32",
        "value": "t_mapping(t_contract(IERC20)33676,t_struct(AddressSet)40402_storage)"
      },
      "t_mapping(t_contract(IERC20)33676,t_struct(AddressSet)40402_storage)": {
        "encoding": "mapping",
        "key": "t_contract(IERC20)33676",
        "label": "mapping(contract IERC20 => struct EnumerableSet.AddressSet)",
        "numberOfBytes": "32",
        "value": "t_struct(AddressSet)40402_storage"
      },
      "t_struct(AddressSet)40402_storage": {
        "encoding": "inplace",
        "label": "struct EnumerableSet.AddressSet",
        "members": [
          {
            "astId": 40397,
            "contract": "contracts/WeightedPairFactoryV2.sol:RequiemWeightedPairFactoryV2",
            "label": "_values",
            "offset": 0,
            "slot": "0",
            "type": "t_array(t_address)dyn_storage"
          },
          {
            "astId": 40401,
            "contract": "contracts/WeightedPairFactoryV2.sol:RequiemWeightedPairFactoryV2",
            "label": "_indexes",
            "offset": 0,
            "slot": "1",
            "type": "t_mapping(t_address,t_uint256)"
          }
        ],
        "numberOfBytes": "64"
      },
      "t_uint256": {
        "encoding": "inplace",
        "label": "uint256",
        "numberOfBytes": "32"
      }
    }
  }
}