{
  "address": "0x1613beB3B2C4f22Ee086B2b38C1476A3cE7f78E8",
  "abi": [
    {
      "anonymous": false,
      "inputs": [
        {
          "indexed": true,
          "internalType": "address",
          "name": "provider",
          "type": "address"
        },
        {
          "indexed": false,
          "internalType": "uint256[]",
          "name": "tokenAmounts",
          "type": "uint256[]"
        },
        {
          "indexed": false,
          "internalType": "uint256[]",
          "name": "fees",
          "type": "uint256[]"
        },
        {
          "indexed": false,
          "internalType": "uint256",
          "name": "invariant",
          "type": "uint256"
        },
        {
          "indexed": false,
          "internalType": "uint256",
          "name": "tokenSupply",
          "type": "uint256"
        }
      ],
      "name": "AddLiquidity",
      "type": "event"
    },
    {
      "anonymous": false,
      "inputs": [
        {
          "indexed": false,
          "internalType": "address",
          "name": "token",
          "type": "address"
        },
        {
          "indexed": false,
          "internalType": "uint256",
          "name": "amount",
          "type": "uint256"
        }
      ],
      "name": "CollectProtocolFee",
      "type": "event"
    },
    {
      "anonymous": false,
      "inputs": [
        {
          "indexed": false,
          "internalType": "address",
          "name": "newController",
          "type": "address"
        }
      ],
      "name": "FeeControllerChanged",
      "type": "event"
    },
    {
      "anonymous": false,
      "inputs": [
        {
          "indexed": false,
          "internalType": "address",
          "name": "newController",
          "type": "address"
        }
      ],
      "name": "FeeDistributorChanged",
      "type": "event"
    },
    {
      "anonymous": false,
      "inputs": [
        {
          "indexed": false,
          "internalType": "uint256",
          "name": "fee",
          "type": "uint256"
        },
        {
          "indexed": false,
          "internalType": "uint256",
          "name": "flashFee",
          "type": "uint256"
        },
        {
          "indexed": false,
          "internalType": "uint256",
          "name": "adminFee",
          "type": "uint256"
        },
        {
          "indexed": false,
          "internalType": "uint256",
          "name": "withdrawFee",
          "type": "uint256"
        }
      ],
      "name": "NewFee",
      "type": "event"
    },
    {
      "anonymous": false,
      "inputs": [
        {
          "indexed": true,
          "internalType": "address",
          "name": "previousOwner",
          "type": "address"
        },
        {
          "indexed": true,
          "internalType": "address",
          "name": "newOwner",
          "type": "address"
        }
      ],
      "name": "OwnershipTransferred",
      "type": "event"
    },
    {
      "anonymous": false,
      "inputs": [
        {
          "indexed": false,
          "internalType": "address",
          "name": "account",
          "type": "address"
        }
      ],
      "name": "Paused",
      "type": "event"
    },
    {
      "anonymous": false,
      "inputs": [
        {
          "indexed": false,
          "internalType": "uint256",
          "name": "oldA",
          "type": "uint256"
        },
        {
          "indexed": false,
          "internalType": "uint256",
          "name": "newA",
          "type": "uint256"
        },
        {
          "indexed": false,
          "internalType": "uint256",
          "name": "initialTime",
          "type": "uint256"
        },
        {
          "indexed": false,
          "internalType": "uint256",
          "name": "futureTime",
          "type": "uint256"
        }
      ],
      "name": "RampA",
      "type": "event"
    },
    {
      "anonymous": false,
      "inputs": [
        {
          "indexed": true,
          "internalType": "address",
          "name": "provider",
          "type": "address"
        },
        {
          "indexed": false,
          "internalType": "uint256[]",
          "name": "tokenAmounts",
          "type": "uint256[]"
        },
        {
          "indexed": false,
          "internalType": "uint256[]",
          "name": "fees",
          "type": "uint256[]"
        },
        {
          "indexed": false,
          "internalType": "uint256",
          "name": "tokenSupply",
          "type": "uint256"
        }
      ],
      "name": "RemoveLiquidity",
      "type": "event"
    },
    {
      "anonymous": false,
      "inputs": [
        {
          "indexed": true,
          "internalType": "address",
          "name": "provider",
          "type": "address"
        },
        {
          "indexed": false,
          "internalType": "uint256[]",
          "name": "tokenAmounts",
          "type": "uint256[]"
        },
        {
          "indexed": false,
          "internalType": "uint256[]",
          "name": "fees",
          "type": "uint256[]"
        },
        {
          "indexed": false,
          "internalType": "uint256",
          "name": "invariant",
          "type": "uint256"
        },
        {
          "indexed": false,
          "internalType": "uint256",
          "name": "tokenSupply",
          "type": "uint256"
        }
      ],
      "name": "RemoveLiquidityImbalance",
      "type": "event"
    },
    {
      "anonymous": false,
      "inputs": [
        {
          "indexed": true,
          "internalType": "address",
          "name": "provider",
          "type": "address"
        },
        {
          "indexed": false,
          "internalType": "uint256",
          "name": "tokenIndex",
          "type": "uint256"
        },
        {
          "indexed": false,
          "internalType": "uint256",
          "name": "tokenAmount",
          "type": "uint256"
        },
        {
          "indexed": false,
          "internalType": "uint256",
          "name": "coinAmount",
          "type": "uint256"
        }
      ],
      "name": "RemoveLiquidityOne",
      "type": "event"
    },
    {
      "anonymous": false,
      "inputs": [
        {
          "indexed": false,
          "internalType": "uint256",
          "name": "A",
          "type": "uint256"
        },
        {
          "indexed": false,
          "internalType": "uint256",
          "name": "timestamp",
          "type": "uint256"
        }
      ],
      "name": "StopRampA",
      "type": "event"
    },
    {
      "anonymous": false,
      "inputs": [
        {
          "indexed": true,
          "internalType": "address",
          "name": "buyer",
          "type": "address"
        },
        {
          "indexed": false,
          "internalType": "uint256",
          "name": "soldId",
          "type": "uint256"
        },
        {
          "indexed": false,
          "internalType": "uint256",
          "name": "tokensSold",
          "type": "uint256"
        },
        {
          "indexed": false,
          "internalType": "uint256",
          "name": "boughtId",
          "type": "uint256"
        },
        {
          "indexed": false,
          "internalType": "uint256",
          "name": "tokensBought",
          "type": "uint256"
        }
      ],
      "name": "TokenExchange",
      "type": "event"
    },
    {
      "anonymous": false,
      "inputs": [
        {
          "indexed": false,
          "internalType": "address",
          "name": "account",
          "type": "address"
        }
      ],
      "name": "Unpaused",
      "type": "event"
    },
    {
      "inputs": [],
      "name": "MAX_A",
      "outputs": [
        {
          "internalType": "uint256",
          "name": "",
          "type": "uint256"
        }
      ],
      "stateMutability": "view",
      "type": "function"
    },
    {
      "inputs": [],
      "name": "MAX_ADMIN_FEE",
      "outputs": [
        {
          "internalType": "uint256",
          "name": "",
          "type": "uint256"
        }
      ],
      "stateMutability": "view",
      "type": "function"
    },
    {
      "inputs": [],
      "name": "MAX_A_CHANGE",
      "outputs": [
        {
          "internalType": "uint256",
          "name": "",
          "type": "uint256"
        }
      ],
      "stateMutability": "view",
      "type": "function"
    },
    {
      "inputs": [],
      "name": "MAX_FLASH_FEE",
      "outputs": [
        {
          "internalType": "uint256",
          "name": "",
          "type": "uint256"
        }
      ],
      "stateMutability": "view",
      "type": "function"
    },
    {
      "inputs": [],
      "name": "MAX_SWAP_FEE",
      "outputs": [
        {
          "internalType": "uint256",
          "name": "",
          "type": "uint256"
        }
      ],
      "stateMutability": "view",
      "type": "function"
    },
    {
      "inputs": [],
      "name": "MAX_WITHDRAW_FEE",
      "outputs": [
        {
          "internalType": "uint256",
          "name": "",
          "type": "uint256"
        }
      ],
      "stateMutability": "view",
      "type": "function"
    },
    {
      "inputs": [],
      "name": "MIN_RAMP_TIME",
      "outputs": [
        {
          "internalType": "uint256",
          "name": "",
          "type": "uint256"
        }
      ],
      "stateMutability": "view",
      "type": "function"
    },
    {
      "inputs": [
        {
          "internalType": "uint256[]",
          "name": "amounts",
          "type": "uint256[]"
        },
        {
          "internalType": "uint256",
          "name": "minMintAmount",
          "type": "uint256"
        },
        {
          "internalType": "uint256",
          "name": "deadline",
          "type": "uint256"
        }
      ],
      "name": "addLiquidity",
      "outputs": [
        {
          "internalType": "uint256",
          "name": "",
          "type": "uint256"
        }
      ],
      "stateMutability": "nonpayable",
      "type": "function"
    },
    {
      "inputs": [
        {
          "internalType": "address",
          "name": "account",
          "type": "address"
        }
      ],
      "name": "calculateCurrentWithdrawFee",
      "outputs": [
        {
          "internalType": "uint256",
          "name": "",
          "type": "uint256"
        }
      ],
      "stateMutability": "view",
      "type": "function"
    },
    {
      "inputs": [
        {
          "internalType": "address",
          "name": "account",
          "type": "address"
        },
        {
          "internalType": "uint256",
          "name": "amount",
          "type": "uint256"
        }
      ],
      "name": "calculateRemoveLiquidity",
      "outputs": [
        {
          "internalType": "uint256[]",
          "name": "",
          "type": "uint256[]"
        }
      ],
      "stateMutability": "view",
      "type": "function"
    },
    {
      "inputs": [
        {
          "internalType": "address",
          "name": "account",
          "type": "address"
        },
        {
          "internalType": "uint256",
          "name": "amount",
          "type": "uint256"
        },
        {
          "internalType": "uint8",
          "name": "index",
          "type": "uint8"
        }
      ],
      "name": "calculateRemoveLiquidityOneToken",
      "outputs": [
        {
          "internalType": "uint256",
          "name": "",
          "type": "uint256"
        }
      ],
      "stateMutability": "view",
      "type": "function"
    },
    {
      "inputs": [
        {
          "internalType": "uint8",
          "name": "inIndex",
          "type": "uint8"
        },
        {
          "internalType": "uint8",
          "name": "outIndex",
          "type": "uint8"
        },
        {
          "internalType": "uint256",
          "name": "inAmount",
          "type": "uint256"
        }
      ],
      "name": "calculateSwap",
      "outputs": [
        {
          "internalType": "uint256",
          "name": "",
          "type": "uint256"
        }
      ],
      "stateMutability": "view",
      "type": "function"
    },
    {
      "inputs": [
        {
          "internalType": "address",
          "name": "tokenIn",
          "type": "address"
        },
        {
          "internalType": "address",
          "name": "tokenOut",
          "type": "address"
        },
        {
          "internalType": "uint256",
          "name": "amountIn",
          "type": "uint256"
        }
      ],
      "name": "calculateSwapGivenIn",
      "outputs": [
        {
          "internalType": "uint256",
          "name": "",
          "type": "uint256"
        }
      ],
      "stateMutability": "view",
      "type": "function"
    },
    {
      "inputs": [
        {
          "internalType": "address",
          "name": "tokenIn",
          "type": "address"
        },
        {
          "internalType": "address",
          "name": "tokenOut",
          "type": "address"
        },
        {
          "internalType": "uint256",
          "name": "amountOut",
          "type": "uint256"
        }
      ],
      "name": "calculateSwapGivenOut",
      "outputs": [
        {
          "internalType": "uint256",
          "name": "",
          "type": "uint256"
        }
      ],
      "stateMutability": "view",
      "type": "function"
    },
    {
      "inputs": [
        {
          "internalType": "uint256[]",
          "name": "amounts",
          "type": "uint256[]"
        },
        {
          "internalType": "bool",
          "name": "deposit",
          "type": "bool"
        }
      ],
      "name": "calculateTokenAmount",
      "outputs": [
        {
          "internalType": "uint256",
          "name": "",
          "type": "uint256"
        }
      ],
      "stateMutability": "view",
      "type": "function"
    },
    {
      "inputs": [],
      "name": "feeController",
      "outputs": [
        {
          "internalType": "address",
          "name": "",
          "type": "address"
        }
      ],
      "stateMutability": "view",
      "type": "function"
    },
    {
      "inputs": [],
      "name": "feeDistributor",
      "outputs": [
        {
          "internalType": "address",
          "name": "",
          "type": "address"
        }
      ],
      "stateMutability": "view",
      "type": "function"
    },
    {
      "inputs": [
        {
          "internalType": "contract IFlashLoanRecipient",
          "name": "recipient",
          "type": "address"
        },
        {
          "internalType": "contract IERC20[]",
          "name": "tokens",
          "type": "address[]"
        },
        {
          "internalType": "uint256[]",
          "name": "amounts",
          "type": "uint256[]"
        },
        {
          "internalType": "bytes",
          "name": "userData",
          "type": "bytes"
        }
      ],
      "name": "flashLoan",
      "outputs": [],
      "stateMutability": "nonpayable",
      "type": "function"
    },
    {
      "inputs": [],
      "name": "getA",
      "outputs": [
        {
          "internalType": "uint256",
          "name": "",
          "type": "uint256"
        }
      ],
      "stateMutability": "view",
      "type": "function"
    },
    {
      "inputs": [],
      "name": "getAPrecise",
      "outputs": [
        {
          "internalType": "uint256",
          "name": "",
          "type": "uint256"
        }
      ],
      "stateMutability": "view",
      "type": "function"
    },
    {
      "inputs": [
        {
          "internalType": "uint8",
          "name": "index",
          "type": "uint8"
        }
      ],
      "name": "getAdminBalance",
      "outputs": [
        {
          "internalType": "uint256",
          "name": "",
          "type": "uint256"
        }
      ],
      "stateMutability": "view",
      "type": "function"
    },
    {
      "inputs": [],
      "name": "getAdminBalances",
      "outputs": [
        {
          "internalType": "uint256[]",
          "name": "adminBalances",
          "type": "uint256[]"
        }
      ],
      "stateMutability": "view",
      "type": "function"
    },
    {
      "inputs": [],
      "name": "getLpToken",
      "outputs": [
        {
          "internalType": "contract IERC20",
          "name": "",
          "type": "address"
        }
      ],
      "stateMutability": "view",
      "type": "function"
    },
    {
      "inputs": [],
      "name": "getNumberOfTokens",
      "outputs": [
        {
          "internalType": "uint256",
          "name": "",
          "type": "uint256"
        }
      ],
      "stateMutability": "view",
      "type": "function"
    },
    {
      "inputs": [
        {
          "internalType": "uint8",
          "name": "index",
          "type": "uint8"
        }
      ],
      "name": "getToken",
      "outputs": [
        {
          "internalType": "contract IERC20",
          "name": "",
          "type": "address"
        }
      ],
      "stateMutability": "view",
      "type": "function"
    },
    {
      "inputs": [
        {
          "internalType": "uint8",
          "name": "index",
          "type": "uint8"
        }
      ],
      "name": "getTokenBalance",
      "outputs": [
        {
          "internalType": "uint256",
          "name": "",
          "type": "uint256"
        }
      ],
      "stateMutability": "view",
      "type": "function"
    },
    {
      "inputs": [],
      "name": "getTokenBalances",
      "outputs": [
        {
          "internalType": "uint256[]",
          "name": "",
          "type": "uint256[]"
        }
      ],
      "stateMutability": "view",
      "type": "function"
    },
    {
      "inputs": [
        {
          "internalType": "address",
          "name": "token",
          "type": "address"
        }
      ],
      "name": "getTokenIndex",
      "outputs": [
        {
          "internalType": "uint8",
          "name": "index",
          "type": "uint8"
        }
      ],
      "stateMutability": "view",
      "type": "function"
    },
    {
      "inputs": [],
      "name": "getTokenPrecisionMultipliers",
      "outputs": [
        {
          "internalType": "uint256[]",
          "name": "",
          "type": "uint256[]"
        }
      ],
      "stateMutability": "view",
      "type": "function"
    },
    {
      "inputs": [],
      "name": "getTokens",
      "outputs": [
        {
          "internalType": "contract IERC20[]",
          "name": "",
          "type": "address[]"
        }
      ],
      "stateMutability": "view",
      "type": "function"
    },
    {
      "inputs": [],
      "name": "getVirtualPrice",
      "outputs": [
        {
          "internalType": "uint256",
          "name": "",
          "type": "uint256"
        }
      ],
      "stateMutability": "view",
      "type": "function"
    },
    {
      "inputs": [
        {
          "internalType": "address[]",
          "name": "_coins",
          "type": "address[]"
        },
        {
          "internalType": "uint8[]",
          "name": "_decimals",
          "type": "uint8[]"
        },
        {
          "internalType": "string",
          "name": "lpTokenName",
          "type": "string"
        },
        {
          "internalType": "string",
          "name": "lpTokenSymbol",
          "type": "string"
        },
        {
          "internalType": "uint256",
          "name": "_A",
          "type": "uint256"
        },
        {
          "internalType": "uint256",
          "name": "_fee",
          "type": "uint256"
        },
        {
          "internalType": "uint256",
          "name": "_flashFee",
          "type": "uint256"
        },
        {
          "internalType": "uint256",
          "name": "_adminFee",
          "type": "uint256"
        },
        {
          "internalType": "uint256",
          "name": "_withdrawFee",
          "type": "uint256"
        },
        {
          "internalType": "address",
          "name": "_feeDistributor",
          "type": "address"
        }
      ],
      "name": "initialize",
      "outputs": [],
      "stateMutability": "nonpayable",
      "type": "function"
    },
    {
      "inputs": [
        {
          "internalType": "address",
          "name": "tokenIn",
          "type": "address"
        },
        {
          "internalType": "address",
          "name": "tokenOut",
          "type": "address"
        },
        {
          "internalType": "uint256",
          "name": "amountIn",
          "type": "uint256"
        },
        {
          "internalType": "uint256",
          "name": "amountOut",
          "type": "uint256"
        },
        {
          "internalType": "address",
          "name": "to",
          "type": "address"
        }
      ],
      "name": "onSwap",
      "outputs": [],
      "stateMutability": "nonpayable",
      "type": "function"
    },
    {
      "inputs": [
        {
          "internalType": "address",
          "name": "tokenIn",
          "type": "address"
        },
        {
          "internalType": "address",
          "name": "tokenOut",
          "type": "address"
        },
        {
          "internalType": "uint256",
          "name": "amountIn",
          "type": "uint256"
        },
        {
          "internalType": "uint256",
          "name": "amountOutMin",
          "type": "uint256"
        },
        {
          "internalType": "address",
          "name": "to",
          "type": "address"
        }
      ],
      "name": "onSwapGivenIn",
      "outputs": [
        {
          "internalType": "uint256",
          "name": "",
          "type": "uint256"
        }
      ],
      "stateMutability": "nonpayable",
      "type": "function"
    },
    {
      "inputs": [
        {
          "internalType": "address",
          "name": "tokenIn",
          "type": "address"
        },
        {
          "internalType": "address",
          "name": "tokenOut",
          "type": "address"
        },
        {
          "internalType": "uint256",
          "name": "amountOut",
          "type": "uint256"
        },
        {
          "internalType": "uint256",
          "name": "amountInMax",
          "type": "uint256"
        },
        {
          "internalType": "address",
          "name": "to",
          "type": "address"
        }
      ],
      "name": "onSwapGivenOut",
      "outputs": [
        {
          "internalType": "uint256",
          "name": "",
          "type": "uint256"
        }
      ],
      "stateMutability": "nonpayable",
      "type": "function"
    },
    {
      "inputs": [],
      "name": "owner",
      "outputs": [
        {
          "internalType": "address",
          "name": "",
          "type": "address"
        }
      ],
      "stateMutability": "view",
      "type": "function"
    },
    {
      "inputs": [],
      "name": "pause",
      "outputs": [],
      "stateMutability": "nonpayable",
      "type": "function"
    },
    {
      "inputs": [],
      "name": "paused",
      "outputs": [
        {
          "internalType": "bool",
          "name": "",
          "type": "bool"
        }
      ],
      "stateMutability": "view",
      "type": "function"
    },
    {
      "inputs": [
        {
          "internalType": "uint256",
          "name": "futureA",
          "type": "uint256"
        },
        {
          "internalType": "uint256",
          "name": "futureATime",
          "type": "uint256"
        }
      ],
      "name": "rampA",
      "outputs": [],
      "stateMutability": "nonpayable",
      "type": "function"
    },
    {
      "inputs": [
        {
          "internalType": "uint256",
          "name": "lpAmount",
          "type": "uint256"
        },
        {
          "internalType": "uint256[]",
          "name": "minAmounts",
          "type": "uint256[]"
        },
        {
          "internalType": "uint256",
          "name": "deadline",
          "type": "uint256"
        }
      ],
      "name": "removeLiquidity",
      "outputs": [
        {
          "internalType": "uint256[]",
          "name": "",
          "type": "uint256[]"
        }
      ],
      "stateMutability": "nonpayable",
      "type": "function"
    },
    {
      "inputs": [
        {
          "internalType": "uint256[]",
          "name": "amounts",
          "type": "uint256[]"
        },
        {
          "internalType": "uint256",
          "name": "maxBurnAmount",
          "type": "uint256"
        },
        {
          "internalType": "uint256",
          "name": "deadline",
          "type": "uint256"
        }
      ],
      "name": "removeLiquidityImbalance",
      "outputs": [
        {
          "internalType": "uint256",
          "name": "",
          "type": "uint256"
        }
      ],
      "stateMutability": "nonpayable",
      "type": "function"
    },
    {
      "inputs": [
        {
          "internalType": "uint256",
          "name": "lpAmount",
          "type": "uint256"
        },
        {
          "internalType": "uint8",
          "name": "index",
          "type": "uint8"
        },
        {
          "internalType": "uint256",
          "name": "minAmount",
          "type": "uint256"
        },
        {
          "internalType": "uint256",
          "name": "deadline",
          "type": "uint256"
        }
      ],
      "name": "removeLiquidityOneToken",
      "outputs": [
        {
          "internalType": "uint256",
          "name": "",
          "type": "uint256"
        }
      ],
      "stateMutability": "nonpayable",
      "type": "function"
    },
    {
      "inputs": [],
      "name": "renounceOwnership",
      "outputs": [],
      "stateMutability": "nonpayable",
      "type": "function"
    },
    {
      "inputs": [
        {
          "internalType": "uint256",
          "name": "newSwapFee",
          "type": "uint256"
        },
        {
          "internalType": "uint256",
          "name": "newFlashFee",
          "type": "uint256"
        },
        {
          "internalType": "uint256",
          "name": "newAdminFee",
          "type": "uint256"
        },
        {
          "internalType": "uint256",
          "name": "newWithdrawFee",
          "type": "uint256"
        }
      ],
      "name": "setFee",
      "outputs": [],
      "stateMutability": "nonpayable",
      "type": "function"
    },
    {
      "inputs": [
        {
          "internalType": "address",
          "name": "_feeController",
          "type": "address"
        }
      ],
      "name": "setFeeController",
      "outputs": [],
      "stateMutability": "nonpayable",
      "type": "function"
    },
    {
      "inputs": [
        {
          "internalType": "address",
          "name": "_feeDistributor",
          "type": "address"
        }
      ],
      "name": "setFeeDistributor",
      "outputs": [],
      "stateMutability": "nonpayable",
      "type": "function"
    },
    {
      "inputs": [],
      "name": "stopRampA",
      "outputs": [],
      "stateMutability": "nonpayable",
      "type": "function"
    },
    {
      "inputs": [
        {
          "internalType": "uint8",
          "name": "fromIndex",
          "type": "uint8"
        },
        {
          "internalType": "uint8",
          "name": "toIndex",
          "type": "uint8"
        },
        {
          "internalType": "uint256",
          "name": "inAmount",
          "type": "uint256"
        },
        {
          "internalType": "uint256",
          "name": "minOutAmount",
          "type": "uint256"
        },
        {
          "internalType": "address",
          "name": "to",
          "type": "address"
        },
        {
          "internalType": "uint256",
          "name": "deadline",
          "type": "uint256"
        }
      ],
      "name": "swap",
      "outputs": [
        {
          "internalType": "uint256",
          "name": "",
          "type": "uint256"
        }
      ],
      "stateMutability": "nonpayable",
      "type": "function"
    },
    {
      "inputs": [],
      "name": "swapStorage",
      "outputs": [
        {
          "internalType": "contract LPToken",
          "name": "lpToken",
          "type": "address"
        },
        {
          "internalType": "uint256",
          "name": "fee",
          "type": "uint256"
        },
        {
          "internalType": "uint256",
          "name": "flashFee",
          "type": "uint256"
        },
        {
          "internalType": "uint256",
          "name": "adminFee",
          "type": "uint256"
        },
        {
          "internalType": "uint256",
          "name": "initialA",
          "type": "uint256"
        },
        {
          "internalType": "uint256",
          "name": "futureA",
          "type": "uint256"
        },
        {
          "internalType": "uint256",
          "name": "initialATime",
          "type": "uint256"
        },
        {
          "internalType": "uint256",
          "name": "futureATime",
          "type": "uint256"
        },
        {
          "internalType": "uint256",
          "name": "defaultWithdrawFee",
          "type": "uint256"
        }
      ],
      "stateMutability": "view",
      "type": "function"
    },
    {
      "inputs": [
        {
          "internalType": "address",
          "name": "",
          "type": "address"
        }
      ],
      "name": "tokenIndexes",
      "outputs": [
        {
          "internalType": "uint8",
          "name": "",
          "type": "uint8"
        }
      ],
      "stateMutability": "view",
      "type": "function"
    },
    {
      "inputs": [
        {
          "internalType": "address",
          "name": "newOwner",
          "type": "address"
        }
      ],
      "name": "transferOwnership",
      "outputs": [],
      "stateMutability": "nonpayable",
      "type": "function"
    },
    {
      "inputs": [],
      "name": "unpause",
      "outputs": [],
      "stateMutability": "nonpayable",
      "type": "function"
    },
    {
      "inputs": [
        {
          "internalType": "address",
          "name": "recipient",
          "type": "address"
        },
        {
          "internalType": "uint256",
          "name": "transferAmount",
          "type": "uint256"
        }
      ],
      "name": "updateUserWithdrawFee",
      "outputs": [],
      "stateMutability": "nonpayable",
      "type": "function"
    },
    {
      "inputs": [],
      "name": "withdrawAdminFee",
      "outputs": [],
      "stateMutability": "nonpayable",
      "type": "function"
    }
  ],
  "transactionHash": "0x14936c97a7d1fa27d49e7e460e146f31fc973c99b4572ccc8b20734e7ece39c6",
  "args": [],
  "solcInputHash": "b68fc32492a33c9dfb64dfd079d60aab",
  "bytecode": "0x60806040523480156200001157600080fd5b506200001d3362000034565b6000805460ff60a01b191690556001805562000084565b600080546001600160a01b038381166001600160a01b0319831681178455604051919092169283917f8be0079c531659141344cd1fd0a4f28419497f9722a3daafe3b4186f6b6457e09190a35050565b614db680620000946000396000f3fe60806040523480156200001157600080fd5b5060043610620002aa5760003560e01c806304bc3b1c14620002af57806306e9481c14620002ec5780630ba8195914620003065780630d43e8ad14620003105780630e6d8bce146200033357806318f52ce2146200034a57806319762b73146200036357806331cd52b0146200037c57806332fd549314620003935780633969841514620003aa5780633e3a156014620003b55780633ed4c67814620003cc5780633f4ba83a14620003e35780634a1b0d5714620003ed5780634ac00e0314620004045780634d49e87d146200041b578063593d132c14620004325780635c38449e14620004495780635c975abb14620004605780635fd65f0f146200047b57806366c0bd2414620004fe5780636999b3771462000515578063715018a614620005295780637c61e56114620005335780638214f5a4146200054a57806382b86600146200055c5780638456cb59146200057357806384cdd9bc146200057d5780638554a7d414620005945780638da5cb5b14620005ab57806391ceb3eb14620005b557806398899f4014620005cc578063a1dc903114620005e3578063a2a957bb14620005ed578063a95b089f1462000604578063aa6ca808146200061b578063ab3d85441462000634578063ab5ac0611462000640578063bfd3956b1462000649578063c00c125c1462000660578063c4db7fa01462000677578063cc56fd431462000681578063ccfc2e8d1462000698578063d41f656814620006af578063d46300fd14620006b9578063d4b0de2f1462000634578063e25aa5fa14620006c3578063e6ab280614620006cd578063e9255bae14620006e4578063efeecb5114620006fb578063f2fde38b1462000704578063f3de0362146200071b578063fe49abe31462000728578063ff68562c1462000634575b600080fd5b620002d5620002c036600462002c49565b60136020526000908152604090205460ff1681565b60405160ff90911681526020015b60405180910390f35b620002f76201518081565b604051908152602001620002e3565b620002f762000732565b60115462000324906001600160a01b031681565b604051620002e3919062002c69565b620002f76200034436600462002c7d565b620007b2565b62000354620008d0565b604051620002e3919062002ce3565b6200037a6200037436600462002f09565b620009e2565b005b620003546200038d36600462003069565b6200108a565b6200037a620003a436600462002c7d565b6200116e565b620002f7620f424081565b620002f7620003c6366004620030bc565b6200127f565b6200037a620003dd36600462002c49565b62001362565b6200037a62001417565b620002f7620003fe36600462002c49565b62001457565b620002f76200041536600462002c7d565b6200146c565b620002f76200042c366004620030fa565b6200152f565b6200037a620004433660046200314b565b6200162c565b6200037a6200045a3660046200316e565b6200189b565b6200046a6200196e565b6040519015158152602001620002e3565b600454600754600854600954600a54600b54600c54600d54600e54620004af986001600160a01b0316979695949392919089565b604080516001600160a01b03909a168a5260208a0198909852968801959095526060870193909352608086019190915260a085015260c084015260e083015261010082015261012001620002e3565b620002d56200050f36600462002c49565b6200197e565b60125462000324906001600160a01b031681565b6200037a62001a0e565b62000354620005443660046200327b565b62001a4e565b6004546001600160a01b031662000324565b620003246200056d366004620032aa565b62001ade565b6200037a62001b17565b620002f76200058e366004620030fa565b62001b55565b620002f7620005a5366004620032aa565b62001c0e565b6200032462001c91565b620002f7620005c6366004620032aa565b62001ca0565b620002f7620005dd366004620032c8565b62001ccf565b6200035462001d71565b6200037a620005fe3660046200330b565b62001dcd565b620002f7620006153660046200333e565b62001f15565b6200062562001f58565b604051620002e391906200337f565b620002f76305f5e10081565b620002f7600a81565b620002f76200065a366004620033c2565b62001fbe565b6200037a620006713660046200327b565b620020d1565b6200037a6200218c565b620002f7620006923660046200342c565b620022ce565b6200037a620006a936600462002c49565b62002339565b62000354620023e3565b620002f76200243e565b620002f76200247a565b620002f7620006de36600462003481565b620024b6565b620002f7620006f53660046200342c565b620024f9565b600354620002f7565b6200037a6200071536600462002c49565b62002564565b620002f76402540be40081565b6200037a6200260d565b60405163a303558560e01b81526003600482015260009073a82fF9aFd8f496c3d6ac40E2a0F282E47488CFc99063a3035585906024015b602060405180830381865af415801562000787573d6000803e3d6000fd5b505050506040513d601f19601f82011682018060405250810190620007ad91906200350d565b905090565b6000620007be6200196e565b15620007e75760405162461bcd60e51b8152600401620007de9062003527565b60405180910390fd5b600260015414156200080d5760405162461bcd60e51b8152600401620007de9062003551565b60026001556001600160a01b0380871660009081526013602052604080822054928816825290819020549051634736d3db60e11b815273a82fF9aFd8f496c3d6ac40E2a0F282E47488CFc992638e6da7b6926200087e9260039260ff9081169216908a908a908a9060040162003588565b602060405180830381865af41580156200089c573d6000803e3d6000fd5b505050506040513d601f19601f82011682018060405250810190620008c291906200350d565b600180559695505050505050565b600354606090806001600160401b03811115620008f157620008f162002d29565b6040519080825280602002602001820160405280156200091b578160200160208202803683370190505b50915060005b81811015620009dd5760405163e2eba89b60e01b8152600360048201526024810182905273a82fF9aFd8f496c3d6ac40E2a0F282E47488CFc99063e2eba89b90604401602060405180830381865af415801562000982573d6000803e3d6000fd5b505050506040513d601f19601f82011682018060405250810190620009a891906200350d565b838281518110620009bd57620009bd620035bf565b602090810291909101015280620009d481620035eb565b91505062000921565b505090565b33620009ed62001c91565b6001600160a01b03161462000a165760405162461bcd60e51b8152600401620007de9062003609565b600254610100900460ff168062000a30575060025460ff16155b62000a955760405162461bcd60e51b815260206004820152602e60248201527f496e697469616c697a61626c653a20636f6e747261637420697320616c72656160448201526d191e481a5b9a5d1a585b1a5e995960921b6064820152608401620007de565b600254610100900460ff1615801562000ab8576002805461ffff19166101011790555b89518b511462000b015760405162461bcd60e51b815260206004820152601360248201527218dbda5b9cd308084f48191958da5b585b1cd3606a1b6044820152606401620007de565b6001600160a01b03821662000b525760405162461bcd60e51b81526020600482015260166024820152756665654469737472696275746f72203d20656d70747960501b6044820152606401620007de565b8a516000816001600160401b0381111562000b715762000b7162002d29565b60405190808252806020026020018201604052801562000b9b578160200160208202803683370190505b5090506000826001600160401b0381111562000bbb5762000bbb62002d29565b60405190808252806020026020018201604052801562000be5578160200160208202803683370190505b50905060005b8381101562000ded5760006001600160a01b03168f828151811062000c145762000c14620035bf565b60200260200101516001600160a01b0316141562000c6b5760405162461bcd60e51b8152602060048201526013602482015272696e76616c6964546f6b656e4164647265737360681b6044820152606401620007de565b60128e828151811062000c825762000c82620035bf565b602002602001015160ff16111562000ccf5760405162461bcd60e51b815260206004820152600f60248201526e696e76616c6964446563696d616c7360881b6044820152606401620007de565b8d818151811062000ce45762000ce4620035bf565b602002602001015160ff16601262000cfd91906200363e565b62000d0a90600a62003755565b83828151811062000d1f5762000d1f620035bf565b6020026020010181815250508e818151811062000d405762000d40620035bf565b602002602001015182828151811062000d5d5762000d5d620035bf565b60200260200101906001600160a01b031690816001600160a01b031681525050806013600084848151811062000d975762000d97620035bf565b60200260200101516001600160a01b03166001600160a01b0316815260200190815260200160002060006101000a81548160ff021916908360ff160217905550808062000de490620035eb565b91505062000beb565b50620f42408a1062000e2b5760405162461bcd60e51b81526020600482015260066024820152653e206d61784160d01b6044820152606401620007de565b6305f5e10089111562000e6d5760405162461bcd60e51b81526020600482015260096024820152683e206d61785346656560b81b6044820152606401620007de565b6305f5e10088111562000eaf5760405162461bcd60e51b81526020600482015260096024820152683e206d61784646656560b81b6044820152606401620007de565b6402540be40087111562000ef25760405162461bcd60e51b81526020600482015260096024820152683e206d61784146656560b81b6044820152606401620007de565b6305f5e10086111562000f345760405162461bcd60e51b81526020600482015260096024820152683e206d61785746656560b81b6044820152606401620007de565b8b8b60405162000f449062002b59565b62000f51929190620037c0565b604051809103906000f08015801562000f6e573d6000803e3d6000fd5b50600480546001600160a01b0319166001600160a01b0392909216919091179055826001600160401b0381111562000faa5762000faa62002d29565b60405190808252806020026020018201604052801562000fd4578160200160208202803683370190505b50805162000feb9160069160209091019062002b67565b5081516200100190600590602085019062002b67565b5080516200101790600390602084019062002bb7565b506200102560648b620037f2565b600a556200103560648b620037f2565b600b55505050600786905560088590556009849055600e839055601180546001600160a01b0319166001600160a01b03841617905580156200107d576002805461ff00191690555b5050505050505050505050565b606060026001541415620010b25760405162461bcd60e51b8152600401620007de9062003551565b60026001558142811015620010db5760405162461bcd60e51b8152600401620007de9062003814565b6040516331a15a5b60e21b815273a82fF9aFd8f496c3d6ac40E2a0F282E47488CFc99063c685696c9062001119906003908990899060040162003872565b600060405180830381865af415801562001137573d6000803e3d6000fd5b505050506040513d6000823e601f3d908101601f1916820160405262001161919081019062003893565b6001805595945050505050565b620011786200196e565b15620011985760405162461bcd60e51b8152600401620007de9062003527565b60026001541415620011be5760405162461bcd60e51b8152600401620007de9062003551565b60026001556001600160a01b038086166000908152601360205260408082205492871682529081902054905163ce055b8d60e01b815273a82fF9aFd8f496c3d6ac40E2a0F282E47488CFc99263ce055b8d926200122f9260039260ff90811692169089908990899060040162003588565b602060405180830381865af41580156200124d573d6000803e3d6000fd5b505050506040513d601f19601f820116820180604052508101906200127391906200350d565b50506001805550505050565b600060026001541415620012a75760405162461bcd60e51b8152600401620007de9062003551565b6002600155620012b66200196e565b15620012d65760405162461bcd60e51b8152600401620007de9062003527565b8180421115620012fa5760405162461bcd60e51b8152600401620007de9062003814565b6040516302bfe30d60e41b8152600360048201526024810187905260ff861660448201526064810185905273a82fF9aFd8f496c3d6ac40E2a0F282E47488CFc990632bfe30d090608401602060405180830381865af41580156200089c573d6000803e3d6000fd5b336200136d62001c91565b6001600160a01b031614620013965760405162461bcd60e51b8152600401620007de9062003609565b6001600160a01b038116620013bf5760405162461bcd60e51b8152600401620007de906200392c565b601280546001600160a01b0319166001600160a01b0383161790556040517f4c3f3b9852ccceadd50f16518f348e2624c8f0240acdd5bc81911c0fba83ec67906200140c90839062002c69565b60405180910390a150565b336200142262001c91565b6001600160a01b0316146200144b5760405162461bcd60e51b8152600401620007de9062003609565b62001455620027db565b565b60006200146660038362002873565b92915050565b6000620014786200196e565b15620014985760405162461bcd60e51b8152600401620007de9062003527565b60026001541415620014be5760405162461bcd60e51b8152600401620007de9062003551565b60026001556001600160a01b03808716600090815260136020526040808220549288168252908190205490516306d1a87b60e11b815273a82fF9aFd8f496c3d6ac40E2a0F282E47488CFc992630da350f6926200087e9260039260ff9081169216908a908a908a9060040162003588565b60006200153b6200196e565b156200155b5760405162461bcd60e51b8152600401620007de9062003527565b60026001541415620015815760405162461bcd60e51b8152600401620007de9062003551565b60026001558142811015620015aa5760405162461bcd60e51b8152600401620007de9062003814565b604051631e9b2e8f60e21b815273a82fF9aFd8f496c3d6ac40E2a0F282E47488CFc990637a6cba3c90620015e890600390899089906004016200394a565b602060405180830381865af415801562001606573d6000803e3d6000fd5b505050506040513d601f19601f820116820180604052508101906200116191906200350d565b336200163762001c91565b6001600160a01b031614620016605760405162461bcd60e51b8152600401620007de9062003609565b600c5462001672906201518062003975565b421015620016ad5760405162461bcd60e51b81526020600482015260076024820152660f081c985b5c1160ca1b6044820152606401620007de565b620016bc620151804262003975565b811015620016fa5760405162461bcd60e51b815260206004820152600a6024820152690f081b5a5b94985b5c1560b21b6044820152606401620007de565b8160001080156200170d5750620f424082105b620017485760405162461bcd60e51b815260206004820152600a6024820152696f75744f6652616e676560b01b6044820152606401620007de565b60405163a303558560e01b81526003600482015260009073a82fF9aFd8f496c3d6ac40E2a0F282E47488CFc99063a303558590602401602060405180830381865af41580156200179c573d6000803e3d6000fd5b505050506040513d601f19601f82011682018060405250810190620017c291906200350d565b90506000620017d3606485620037f2565b905081811015620018135781620017ec600a83620037f2565b10156200180d5760405162461bcd60e51b8152600401620007de9062003990565b62001842565b62001820600a83620037f2565b811115620018425760405162461bcd60e51b8152600401620007de9062003990565b600a829055600b81905542600c819055600d8490556040517fa2b71ec6df949300b59aab36b55e189697b750119dd349fcfa8c0f779e83c254916200188d91859185918890620039b0565b60405180910390a150505050565b60026001541415620018c15760405162461bcd60e51b8152600401620007de9062003551565b6002600155620018d06200196e565b15620018f05760405162461bcd60e51b8152600401620007de9062003527565b60405163c823250160e01b815273a82fF9aFd8f496c3d6ac40E2a0F282E47488CFc99063c82325019062001932906003908890889088908890600401620039cb565b60006040518083038186803b1580156200194b57600080fd5b505af415801562001960573d6000803e3d6000fd5b505060018055505050505050565b600054600160a01b900460ff1690565b6001600160a01b0381166000818152601360205260409020546003805460ff909216929183908110620019b557620019b5620035bf565b6000918252602090912001546001600160a01b03161462001a095760405162461bcd60e51b815260206004820152600d60248201526c1d1bdad95b939bdd119bdd5b99609a1b6044820152606401620007de565b919050565b3362001a1962001c91565b6001600160a01b03161462001a425760405162461bcd60e51b8152600401620007de9062003609565b6200145560006200292d565b60405163fa56359760e01b815260609073a82fF9aFd8f496c3d6ac40E2a0F282E47488CFc99063fa5635979062001a8f906003908790879060040162003a5a565b600060405180830381865af415801562001aad573d6000803e3d6000fd5b505050506040513d6000823e601f3d908101601f1916820160405262001ad7919081019062003893565b9392505050565b600060036000018260ff168154811062001afc5762001afc620035bf565b6000918252602090912001546001600160a01b031692915050565b3362001b2262001c91565b6001600160a01b03161462001b4b5760405162461bcd60e51b8152600401620007de9062003609565b620014556200297d565b60006002600154141562001b7d5760405162461bcd60e51b8152600401620007de9062003551565b600260015562001b8c6200196e565b1562001bac5760405162461bcd60e51b8152600401620007de9062003527565b818042111562001bd05760405162461bcd60e51b8152600401620007de9062003814565b60405163641a260360e11b815273a82fF9aFd8f496c3d6ac40E2a0F282E47488CFc99063c8344c0690620015e890600390899089906004016200394a565b60405163e2eba89b60e01b81526003600482015260ff8216602482015260009073a82fF9aFd8f496c3d6ac40E2a0F282E47488CFc99063e2eba89b90604401602060405180830381865af415801562001c6b573d6000803e3d6000fd5b505050506040513d601f19601f820116820180604052508101906200146691906200350d565b6000546001600160a01b031690565b6000600380018260ff168154811062001cbd5762001cbd620035bf565b90600052602060002001549050919050565b60405163159763bb60e01b8152600360048201526001600160a01b03841660248201526044810183905260ff8216606482015260009073a82fF9aFd8f496c3d6ac40E2a0F282E47488CFc99063159763bb906084015b602060405180830381865af415801562001d43573d6000803e3d6000fd5b505050506040513d601f19601f8201168201806040525081019062001d6991906200350d565b949350505050565b60606003800180548060200260200160405190810160405280929190818152602001828054801562001dc357602002820191906000526020600020905b81548152602001906001019080831162001dae575b5050505050905090565b3362001dd862001c91565b6001600160a01b03161462001e015760405162461bcd60e51b8152600401620007de9062003609565b6305f5e10084111562001e285760405162461bcd60e51b8152600401620007de9062003a79565b6305f5e10083111562001e4f5760405162461bcd60e51b8152600401620007de9062003a79565b6402540be40082111562001e8f5760405162461bcd60e51b81526020600482015260066024820152653e204146656560d01b6044820152606401620007de565b6305f5e10081111562001ece5760405162461bcd60e51b81526020600482015260066024820152653e205746656560d01b6044820152606401620007de565b60098290556007849055600e8190556040517f0272af61e59abaa206f4d3d15474b045c5fdbad2379f620b67074e9b13bfaad1906200188d908690869086908690620039b0565b60405163ba2998d960e01b815260009073a82fF9aFd8f496c3d6ac40E2a0F282E47488CFc99063ba2998d99062001d259060039088908890889060040162003a99565b6060600360000180548060200260200160405190810160405280929190818152602001828054801562001dc357602002820191906000526020600020905b81546001600160a01b0316815260019091019060200180831162001f96575050505050905090565b600062001fca6200196e565b1562001fea5760405162461bcd60e51b8152600401620007de9062003527565b60026001541415620020105760405162461bcd60e51b8152600401620007de9062003551565b60026001558142811015620020395760405162461bcd60e51b8152600401620007de9062003814565b60405163ad30093f60e01b815273a82fF9aFd8f496c3d6ac40E2a0F282E47488CFc99063ad30093f906200207d906003908c908c908c908c908c9060040162003588565b602060405180830381865af41580156200209b573d6000803e3d6000fd5b505050506040513d601f19601f82011682018060405250810190620020c191906200350d565b6001805598975050505050505050565b6004546001600160a01b03163314620021185760405162461bcd60e51b815260206004820152600860248201526710b6382a37b5b2b760c11b6044820152606401620007de565b6040516360c4725f60e11b815273a82fF9aFd8f496c3d6ac40E2a0F282E47488CFc99063c188e4be9062002156906003908690869060040162003a5a565b60006040518083038186803b1580156200216f57600080fd5b505af415801562002184573d6000803e3d6000fd5b505050505050565b336200219762001c91565b6001600160a01b031614620021c05760405162461bcd60e51b8152600401620007de9062003609565b600d544210620022045760405162461bcd60e51b815260206004820152600e60248201526d185b1c9958591e54dd1bdc1c195960921b6044820152606401620007de565b60405163a303558560e01b81526003600482015260009073a82fF9aFd8f496c3d6ac40E2a0F282E47488CFc99063a303558590602401602060405180830381865af415801562002258573d6000803e3d6000fd5b505050506040513d601f19601f820116820180604052508101906200227e91906200350d565b600a819055600b81905542600c819055600d8190556040519192507f46e22fb3709ad289f62ce63d469248536dbc78d82b84a3d7e74ad606dc201938916200140c91848252602082015260400190565b6001600160a01b03808416600090815260136020526040808220549285168252808220549051635502a57760e11b8152919273a82fF9aFd8f496c3d6ac40E2a0F282E47488CFc99263aa054aee9262001d259260039260ff9182169290911690889060040162003a99565b336200234462001c91565b6001600160a01b0316146200236d5760405162461bcd60e51b8152600401620007de9062003609565b6001600160a01b038116620023965760405162461bcd60e51b8152600401620007de906200392c565b601180546001600160a01b0319166001600160a01b0383161790556040517fae5a12c29e496b092467a620746b9eaf4e0e231a631a4370c233b1fac38e8e26906200140c90839062002c69565b6060600360020180548060200260200160405190810160405280929190818152602001828054801562001dc3576020028201919060005260206000209081548152602001906001019080831162001dae575050505050905090565b60405163b52e146f60e01b81526003600482015260009073a82fF9aFd8f496c3d6ac40E2a0F282E47488CFc99063b52e146f9060240162000769565b6040516334d9812b60e21b81526003600482015260009073a82fF9aFd8f496c3d6ac40E2a0F282E47488CFc99063d36604ac9060240162000769565b604051631e7e95d360e01b815260009073a82fF9aFd8f496c3d6ac40E2a0F282E47488CFc990631e7e95d39062001d259060039088908890889060040162003ab8565b6001600160a01b0380841660009081526013602052604080822054928516825280822054905163ba2998d960e01b8152919273a82fF9aFd8f496c3d6ac40E2a0F282E47488CFc99263ba2998d99262001d259260039260ff9182169290911690889060040162003a99565b336200256f62001c91565b6001600160a01b031614620025985760405162461bcd60e51b8152600401620007de9062003609565b6001600160a01b038116620025ff5760405162461bcd60e51b815260206004820152602660248201527f4f776e61626c653a206e6577206f776e657220697320746865207a65726f206160448201526564647265737360d01b6064820152608401620007de565b6200260a816200292d565b50565b6012546001600160a01b03163314806200264157506200262c62001c91565b6001600160a01b0316336001600160a01b0316145b620026805760405162461bcd60e51b815260206004820152600e60248201526d10b332b2a1b7b73a3937b63632b960911b6044820152606401620007de565b60005b6003548110156200260a57600060036000018281548110620026a957620026a9620035bf565b6000918252602082200154600680546001600160a01b0390921693509084908110620026d957620026d9620035bf565b9060005260206000200154826001600160a01b03166370a08231306040518263ffffffff1660e01b815260040162002712919062002c69565b602060405180830381865afa15801562002730573d6000803e3d6000fd5b505050506040513d601f19601f820116820180604052508101906200275691906200350d565b6200276291906200363e565b90508015620027c35760115462002787906001600160a01b03848116911683620029e3565b7fee3859efa95e525bc2bcb149b51b60a8bb4e89c647392d9d4112e03c3e73bdd68282604051620027ba92919062003b0a565b60405180910390a15b50508080620027d290620035eb565b91505062002683565b620027e56200196e565b6200282a5760405162461bcd60e51b815260206004820152601460248201527314185d5cd8589b194e881b9bdd081c185d5cd95960621b6044820152606401620007de565b6000805460ff60a01b191690557f5db9ee0a495bf2e6ff9c91a7834c1ba4fdd244a5e8aa4e537bd38aeae4b073aa335b60405162002869919062002c69565b60405180910390a1565b6001600160a01b0381166000908152600c8301602052604081205481906200289f906224ea0062003975565b90504281111562002923576000620028b842836200363e565b6001600160a01b0385166000908152600d87016020526040902054600b8701549192506402540be400916224ea00918491620028f59190620037f2565b620029019190620037f2565b6200290d919062003b23565b62002919919062003b23565b9250505062001466565b5060009392505050565b600080546001600160a01b038381166001600160a01b0319831681178455604051919092169283917f8be0079c531659141344cd1fd0a4f28419497f9722a3daafe3b4186f6b6457e09190a35050565b620029876200196e565b15620029a75760405162461bcd60e51b8152600401620007de9062003527565b6000805460ff60a01b1916600160a01b1790557f62e78cea01bee320cd4e420270b5ea74000d11b0c9f74754ebdbfc544b05a2586200285a3390565b62002a3d8363a9059cbb60e01b848460405160240162002a0592919062003b0a565b60408051601f198184030181529190526020810180516001600160e01b03166001600160e01b03199093169290921790915262002a42565b505050565b600080836001600160a01b03168360405162002a5f919062003b46565b6000604051808303816000865af19150503d806000811462002a9e576040519150601f19603f3d011682016040523d82523d6000602084013e62002aa3565b606091505b5091509150600082141562002abc573d6000803e3d6000fd5b62002aeb81516000148062002ae257508180602001905181019062002ae2919062003b64565b6101a262002af1565b50505050565b8162002b025762002b028162002b06565b5050565b62461bcd60e51b6000908152602060045260076024526652455123000030600a808404818106603090810160081b95839006959095019082900491820690940160101b939093010160c81b604452606490fd5b6111fc8062003b8583390190565b82805482825590600052602060002090810192821562002ba5579160200282015b8281111562002ba557825182559160200191906001019062002b88565b5062002bb392915062002c0f565b5090565b82805482825590600052602060002090810192821562002ba5579160200282015b8281111562002ba557825182546001600160a01b0319166001600160a01b0390911617825560209092019160019091019062002bd8565b5b8082111562002bb3576000815560010162002c10565b6001600160a01b03811681146200260a57600080fd5b803562001a098162002c26565b60006020828403121562002c5c57600080fd5b813562001ad78162002c26565b6001600160a01b0391909116815260200190565b600080600080600060a0868803121562002c9657600080fd5b853562002ca38162002c26565b9450602086013562002cb58162002c26565b93506040860135925060608601359150608086013562002cd58162002c26565b809150509295509295909350565b6020808252825182820181905260009190848201906040850190845b8181101562002d1d5783518352928401929184019160010162002cff565b50909695505050505050565b634e487b7160e01b600052604160045260246000fd5b604051601f8201601f191681016001600160401b038111828210171562002d6a5762002d6a62002d29565b604052919050565b60006001600160401b0382111562002d8e5762002d8e62002d29565b5060051b60200190565b600082601f83011262002daa57600080fd5b8135602062002dc362002dbd8362002d72565b62002d3f565b82815260059290921b8401810191818101908684111562002de357600080fd5b8286015b8481101562002e0b57803562002dfd8162002c26565b835291830191830162002de7565b509695505050505050565b803560ff8116811462001a0957600080fd5b600082601f83011262002e3a57600080fd5b8135602062002e4d62002dbd8362002d72565b82815260059290921b8401810191818101908684111562002e6d57600080fd5b8286015b8481101562002e0b5762002e858162002e16565b835291830191830162002e71565b600082601f83011262002ea557600080fd5b81356001600160401b0381111562002ec15762002ec162002d29565b62002ed6601f8201601f191660200162002d3f565b81815284602083860101111562002eec57600080fd5b816020850160208301376000918101602001919091529392505050565b6000806000806000806000806000806101408b8d03121562002f2a57600080fd5b8a356001600160401b038082111562002f4257600080fd5b62002f508e838f0162002d98565b9b5060208d013591508082111562002f6757600080fd5b62002f758e838f0162002e28565b9a5060408d013591508082111562002f8c57600080fd5b62002f9a8e838f0162002e93565b995060608d013591508082111562002fb157600080fd5b5062002fc08d828e0162002e93565b97505060808b0135955060a08b0135945060c08b0135935060e08b013592506101008b0135915062002ff66101208c0162002c3c565b90509295989b9194979a5092959850565b600082601f8301126200301957600080fd5b813560206200302c62002dbd8362002d72565b82815260059290921b840181019181810190868411156200304c57600080fd5b8286015b8481101562002e0b578035835291830191830162003050565b6000806000606084860312156200307f57600080fd5b8335925060208401356001600160401b038111156200309d57600080fd5b620030ab8682870162003007565b925050604084013590509250925092565b60008060008060808587031215620030d357600080fd5b84359350620030e56020860162002e16565b93969395505050506040820135916060013590565b6000806000606084860312156200311057600080fd5b83356001600160401b038111156200312757600080fd5b620031358682870162003007565b9660208601359650604090950135949350505050565b600080604083850312156200315f57600080fd5b50508035926020909101359150565b600080600080608085870312156200318557600080fd5b8435620031928162002c26565b93506020858101356001600160401b0380821115620031b057600080fd5b818801915088601f830112620031c557600080fd5b8135620031d662002dbd8262002d72565b81815260059190911b8301840190848101908b831115620031f657600080fd5b938501935b8285101562003221578435620032118162002c26565b82529385019390850190620031fb565b9750505060408801359250808311156200323a57600080fd5b6200324889848a0162003007565b945060608801359250808311156200325f57600080fd5b50506200326f8782880162002e93565b91505092959194509250565b600080604083850312156200328f57600080fd5b82356200329c8162002c26565b946020939093013593505050565b600060208284031215620032bd57600080fd5b62001ad78262002e16565b600080600060608486031215620032de57600080fd5b8335620032eb8162002c26565b925060208401359150620033026040850162002e16565b90509250925092565b600080600080608085870312156200332257600080fd5b5050823594602084013594506040840135936060013592509050565b6000806000606084860312156200335457600080fd5b6200335f8462002e16565b92506200336f6020850162002e16565b9150604084013590509250925092565b6020808252825182820181905260009190848201906040850190845b8181101562002d1d5783516001600160a01b0316835292840192918401916001016200339b565b60008060008060008060c08789031215620033dc57600080fd5b620033e78762002e16565b9550620033f76020880162002e16565b945060408701359350606087013592506080870135620034178162002c26565b8092505060a087013590509295509295509295565b6000806000606084860312156200344257600080fd5b83356200344f8162002c26565b92506020840135620034618162002c26565b929592945050506040919091013590565b80151581146200260a57600080fd5b6000806000604084860312156200349757600080fd5b83356001600160401b0380821115620034af57600080fd5b818601915086601f830112620034c457600080fd5b813581811115620034d457600080fd5b8760208260051b8501011115620034ea57600080fd5b60209283019550935050840135620035028162003472565b809150509250925092565b6000602082840312156200352057600080fd5b5051919050565b60208082526010908201526f14185d5cd8589b194e881c185d5cd95960821b604082015260600190565b6020808252601f908201527f5265656e7472616e637947756172643a207265656e7472616e742063616c6c00604082015260600190565b95865260ff9485166020870152929093166040850152606084015260808301919091526001600160a01b031660a082015260c00190565b634e487b7160e01b600052603260045260246000fd5b634e487b7160e01b600052601160045260246000fd5b6000600019821415620036025762003602620035d5565b5060010190565b6020808252818101527f4f776e61626c653a2063616c6c6572206973206e6f7420746865206f776e6572604082015260600190565b600082821015620036535762003653620035d5565b500390565b600181815b80851115620036995781600019048211156200367d576200367d620035d5565b808516156200368b57918102915b93841c93908002906200365d565b509250929050565b600082620036b25750600162001466565b81620036c15750600062001466565b8160018114620036da5760028114620036e55762003705565b600191505062001466565b60ff841115620036f957620036f9620035d5565b50506001821b62001466565b5060208310610133831016604e8410600b84101617156200372a575081810a62001466565b62003736838362003658565b80600019048211156200374d576200374d620035d5565b029392505050565b600062001ad78383620036a1565b60005b838110156200378057818101518382015260200162003766565b8381111562002aeb5750506000910152565b60008151808452620037ac81602086016020860162003763565b601f01601f19169290920160200192915050565b604081526000620037d5604083018562003792565b8281036020840152620037e9818562003792565b95945050505050565b60008160001904831182151516156200380f576200380f620035d5565b500290565b6020808252600790820152661d1a5b595bdd5d60ca1b604082015260600190565b600081518084526020808501945080840160005b83811015620038675781518752958201959082019060010162003849565b509495945050505050565b838152826020820152606060408201526000620037e9606083018462003835565b60006020808385031215620038a757600080fd5b82516001600160401b03811115620038be57600080fd5b8301601f81018513620038d057600080fd5b8051620038e162002dbd8262002d72565b81815260059190911b820183019083810190878311156200390157600080fd5b928401925b82841015620039215783518252928401929084019062003906565b979650505050505050565b6020808252600490820152637a65726f60e01b604082015260600190565b83815260606020820152600062003965606083018562003835565b9050826040830152949350505050565b600082198211156200398b576200398b620035d5565b500190565b6020808252600690820152653e206d61784360d01b604082015260600190565b93845260208401929092526040830152606082015260800190565b600060a08201878352602060018060a01b038089168286015260a0604086015282885180855260c087019150838a01945060005b8181101562003a1f578551841683529484019491840191600101620039ff565b5050858103606087015262003a35818962003835565b9350505050828103608084015262003a4e818562003792565b98975050505050505050565b9283526001600160a01b03919091166020830152604082015260600190565b6020808252600690820152653e205346656560d01b604082015260600190565b93845260ff928316602085015291166040830152606082015260800190565b848152606060208201819052810183905260006001600160fb1b0384111562003ae057600080fd5b8360051b808660808501376000908301608001908152921515604090920191909152509392505050565b6001600160a01b03929092168252602082015260400190565b60008262003b4157634e487b7160e01b600052601260045260246000fd5b500490565b6000825162003b5a81846020870162003763565b9190910192915050565b60006020828403121562003b7757600080fd5b815162001ad7816200347256fe60806040523480156200001157600080fd5b50604051620011fc380380620011fc833981016040819052620000349162000256565b8181620000413362000093565b815162000056906004906020850190620000e3565b5080516200006c906005906020840190620000e3565b50506006805433610100026001600160a81b031990911617601217905550620002fd915050565b600080546001600160a01b038381166001600160a01b0319831681178455604051919092169283917f8be0079c531659141344cd1fd0a4f28419497f9722a3daafe3b4186f6b6457e09190a35050565b828054620000f190620002c0565b90600052602060002090601f01602090048101928262000115576000855562000160565b82601f106200013057805160ff191683800117855562000160565b8280016001018555821562000160579182015b828111156200016057825182559160200191906001019062000143565b506200016e92915062000172565b5090565b5b808211156200016e576000815560010162000173565b634e487b7160e01b600052604160045260246000fd5b600082601f830112620001b157600080fd5b81516001600160401b0380821115620001ce57620001ce62000189565b604051601f8301601f19908116603f01168101908282118183101715620001f957620001f962000189565b816040528381526020925086838588010111156200021657600080fd5b600091505b838210156200023a57858201830151818301840152908201906200021b565b838211156200024c5760008385830101525b9695505050505050565b600080604083850312156200026a57600080fd5b82516001600160401b03808211156200028257600080fd5b62000290868387016200019f565b93506020850151915080821115620002a757600080fd5b50620002b6858286016200019f565b9150509250929050565b600181811c90821680620002d557607f821691505b60208210811415620002f757634e487b7160e01b600052602260045260246000fd5b50919050565b610eef806200030d6000396000f3fe608060405234801561001057600080fd5b50600436106100e65760003560e01c806306fdde03146100eb578063095ea7b31461010957806318160ddd1461012c57806323b872dd1461013e578063313ce56714610151578063395093511461016057806340c10f191461017357806342966c681461018857806370a082311461019b578063715018a6146101c457806379cc6790146101cc5780638119c065146101df5780638da5cb5b1461020f57806395d89b4114610217578063a457c2d71461021f578063a9059cbb14610232578063dd62ed3e14610245578063f2fde38b1461027e575b600080fd5b6100f3610291565b6040516101009190610c9f565b60405180910390f35b61011c610117366004610d10565b610323565b6040519015158152602001610100565b6003545b604051908152602001610100565b61011c61014c366004610d3a565b610339565b60405160128152602001610100565b61011c61016e366004610d10565b6103e8565b610186610181366004610d10565b610424565b005b610186610196366004610d76565b6104a2565b6101306101a9366004610d8f565b6001600160a01b031660009081526001602052604090205490565b6101866104af565b6101866101da366004610d10565b6104ea565b6006546101f79061010090046001600160a01b031681565b6040516001600160a01b039091168152602001610100565b6101f7610570565b6100f361057f565b61011c61022d366004610d10565b61058e565b61011c610240366004610d10565b610627565b610130610253366004610db1565b6001600160a01b03918216600090815260026020908152604080832093909416825291909152205490565b61018661028c366004610d8f565b610634565b6060600480546102a090610de4565b80601f01602080910402602001604051908101604052809291908181526020018280546102cc90610de4565b80156103195780601f106102ee57610100808354040283529160200191610319565b820191906000526020600020905b8154815290600101906020018083116102fc57829003601f168201915b5050505050905090565b60006103303384846106d1565b50600192915050565b60006103468484846107f5565b6001600160a01b0384166000908152600260209081526040808320338452909152902054828110156103d05760405162461bcd60e51b815260206004820152602860248201527f45524332303a207472616e7366657220616d6f756e74206578636565647320616044820152676c6c6f77616e636560c01b60648201526084015b60405180910390fd5b6103dd85338584036106d1565b506001949350505050565b3360008181526002602090815260408083206001600160a01b0387168452909152812054909161033091859061041f908690610e35565b6106d1565b3361042d610570565b6001600160a01b0316146104535760405162461bcd60e51b81526004016103c790610e4d565b600081116104945760405162461bcd60e51b815260206004820152600e60248201526d1e995c9bd35a5b9d105b5bdd5b9d60921b60448201526064016103c7565b61049e82826109bd565b5050565b6104ac3382610a96565b50565b336104b8610570565b6001600160a01b0316146104de5760405162461bcd60e51b81526004016103c790610e4d565b6104e86000610bde565b565b60006104f68333610253565b9050818110156105545760405162461bcd60e51b8152602060048201526024808201527f45524332303a206275726e20616d6f756e74206578636565647320616c6c6f77604482015263616e636560e01b60648201526084016103c7565b61056183338484036106d1565b61056b8383610a96565b505050565b6000546001600160a01b031690565b6060600580546102a090610de4565b3360009081526002602090815260408083206001600160a01b0386168452909152812054828110156106105760405162461bcd60e51b815260206004820152602560248201527f45524332303a2064656372656173656420616c6c6f77616e63652062656c6f77604482015264207a65726f60d81b60648201526084016103c7565b61061d33858584036106d1565b5060019392505050565b60006103303384846107f5565b3361063d610570565b6001600160a01b0316146106635760405162461bcd60e51b81526004016103c790610e4d565b6001600160a01b0381166106c85760405162461bcd60e51b815260206004820152602660248201527f4f776e61626c653a206e6577206f776e657220697320746865207a65726f206160448201526564647265737360d01b60648201526084016103c7565b6104ac81610bde565b6001600160a01b0383166107335760405162461bcd60e51b8152602060048201526024808201527f45524332303a20617070726f76652066726f6d20746865207a65726f206164646044820152637265737360e01b60648201526084016103c7565b6001600160a01b0382166107945760405162461bcd60e51b815260206004820152602260248201527f45524332303a20617070726f766520746f20746865207a65726f206164647265604482015261737360f01b60648201526084016103c7565b6001600160a01b0383811660008181526002602090815260408083209487168084529482529182902085905590518481527f8c5be1e5ebec7d5bd14f71427d1e84f3dd0314c0f7b2291e5b200ac8c7c3b925910160405180910390a3505050565b6001600160a01b0383166108595760405162461bcd60e51b815260206004820152602560248201527f45524332303a207472616e736665722066726f6d20746865207a65726f206164604482015264647265737360d81b60648201526084016103c7565b6001600160a01b0382166108bb5760405162461bcd60e51b815260206004820152602360248201527f45524332303a207472616e7366657220746f20746865207a65726f206164647260448201526265737360e81b60648201526084016103c7565b6108c6838383610c2e565b6001600160a01b0383166000908152600160205260409020548181101561093e5760405162461bcd60e51b815260206004820152602660248201527f45524332303a207472616e7366657220616d6f756e7420657863656564732062604482015265616c616e636560d01b60648201526084016103c7565b6001600160a01b03808516600090815260016020526040808220858503905591851681529081208054849290610975908490610e35565b92505081905550826001600160a01b0316846001600160a01b0316600080516020610e9a833981519152846040516109af91815260200190565b60405180910390a350505050565b6001600160a01b038216610a135760405162461bcd60e51b815260206004820152601f60248201527f45524332303a206d696e7420746f20746865207a65726f20616464726573730060448201526064016103c7565b610a1f60008383610c2e565b8060036000828254610a319190610e35565b90915550506001600160a01b03821660009081526001602052604081208054839290610a5e908490610e35565b90915550506040518181526001600160a01b03831690600090600080516020610e9a8339815191529060200160405180910390a35050565b6001600160a01b038216610af65760405162461bcd60e51b815260206004820152602160248201527f45524332303a206275726e2066726f6d20746865207a65726f206164647265736044820152607360f81b60648201526084016103c7565b610b0282600083610c2e565b6001600160a01b03821660009081526001602052604090205481811015610b765760405162461bcd60e51b815260206004820152602260248201527f45524332303a206275726e20616d6f756e7420657863656564732062616c616e604482015261636560f01b60648201526084016103c7565b6001600160a01b0383166000908152600160205260408120838303905560038054849290610ba5908490610e82565b90915550506040518281526000906001600160a01b03851690600080516020610e9a8339815191529060200160405180910390a3505050565b600080546001600160a01b038381166001600160a01b0319831681178455604051919092169283917f8be0079c531659141344cd1fd0a4f28419497f9722a3daafe3b4186f6b6457e09190a35050565b600654604051633003049760e21b81526001600160a01b038481166004830152602482018490526101009092049091169063c00c125c90604401600060405180830381600087803b158015610c8257600080fd5b505af1158015610c96573d6000803e3d6000fd5b50505050505050565b600060208083528351808285015260005b81811015610ccc57858101830151858201604001528201610cb0565b81811115610cde576000604083870101525b50601f01601f1916929092016040019392505050565b80356001600160a01b0381168114610d0b57600080fd5b919050565b60008060408385031215610d2357600080fd5b610d2c83610cf4565b946020939093013593505050565b600080600060608486031215610d4f57600080fd5b610d5884610cf4565b9250610d6660208501610cf4565b9150604084013590509250925092565b600060208284031215610d8857600080fd5b5035919050565b600060208284031215610da157600080fd5b610daa82610cf4565b9392505050565b60008060408385031215610dc457600080fd5b610dcd83610cf4565b9150610ddb60208401610cf4565b90509250929050565b600181811c90821680610df857607f821691505b60208210811415610e1957634e487b7160e01b600052602260045260246000fd5b50919050565b634e487b7160e01b600052601160045260246000fd5b60008219821115610e4857610e48610e1f565b500190565b6020808252818101527f4f776e61626c653a2063616c6c6572206973206e6f7420746865206f776e6572604082015260600190565b600082821015610e9457610e94610e1f565b50039056feddf252ad1be2c89b69c2b068fc378daa952ba7f163c4a11628f55a4df523b3efa2646970667358221220effd6f81c034d4de3f9e39042ccc6043dfbe956fef1bcded3b6d2e9e274ba63364736f6c634300080b0033a264697066735822122089508fb0864eccfa502b398b6cbe71a2a66b3a4658a4760a893955c3ae8e7d1b64736f6c634300080b0033",
  "deployedBytecode": "0x60806040523480156200001157600080fd5b5060043610620002aa5760003560e01c806304bc3b1c14620002af57806306e9481c14620002ec5780630ba8195914620003065780630d43e8ad14620003105780630e6d8bce146200033357806318f52ce2146200034a57806319762b73146200036357806331cd52b0146200037c57806332fd549314620003935780633969841514620003aa5780633e3a156014620003b55780633ed4c67814620003cc5780633f4ba83a14620003e35780634a1b0d5714620003ed5780634ac00e0314620004045780634d49e87d146200041b578063593d132c14620004325780635c38449e14620004495780635c975abb14620004605780635fd65f0f146200047b57806366c0bd2414620004fe5780636999b3771462000515578063715018a614620005295780637c61e56114620005335780638214f5a4146200054a57806382b86600146200055c5780638456cb59146200057357806384cdd9bc146200057d5780638554a7d414620005945780638da5cb5b14620005ab57806391ceb3eb14620005b557806398899f4014620005cc578063a1dc903114620005e3578063a2a957bb14620005ed578063a95b089f1462000604578063aa6ca808146200061b578063ab3d85441462000634578063ab5ac0611462000640578063bfd3956b1462000649578063c00c125c1462000660578063c4db7fa01462000677578063cc56fd431462000681578063ccfc2e8d1462000698578063d41f656814620006af578063d46300fd14620006b9578063d4b0de2f1462000634578063e25aa5fa14620006c3578063e6ab280614620006cd578063e9255bae14620006e4578063efeecb5114620006fb578063f2fde38b1462000704578063f3de0362146200071b578063fe49abe31462000728578063ff68562c1462000634575b600080fd5b620002d5620002c036600462002c49565b60136020526000908152604090205460ff1681565b60405160ff90911681526020015b60405180910390f35b620002f76201518081565b604051908152602001620002e3565b620002f762000732565b60115462000324906001600160a01b031681565b604051620002e3919062002c69565b620002f76200034436600462002c7d565b620007b2565b62000354620008d0565b604051620002e3919062002ce3565b6200037a6200037436600462002f09565b620009e2565b005b620003546200038d36600462003069565b6200108a565b6200037a620003a436600462002c7d565b6200116e565b620002f7620f424081565b620002f7620003c6366004620030bc565b6200127f565b6200037a620003dd36600462002c49565b62001362565b6200037a62001417565b620002f7620003fe36600462002c49565b62001457565b620002f76200041536600462002c7d565b6200146c565b620002f76200042c366004620030fa565b6200152f565b6200037a620004433660046200314b565b6200162c565b6200037a6200045a3660046200316e565b6200189b565b6200046a6200196e565b6040519015158152602001620002e3565b600454600754600854600954600a54600b54600c54600d54600e54620004af986001600160a01b0316979695949392919089565b604080516001600160a01b03909a168a5260208a0198909852968801959095526060870193909352608086019190915260a085015260c084015260e083015261010082015261012001620002e3565b620002d56200050f36600462002c49565b6200197e565b60125462000324906001600160a01b031681565b6200037a62001a0e565b62000354620005443660046200327b565b62001a4e565b6004546001600160a01b031662000324565b620003246200056d366004620032aa565b62001ade565b6200037a62001b17565b620002f76200058e366004620030fa565b62001b55565b620002f7620005a5366004620032aa565b62001c0e565b6200032462001c91565b620002f7620005c6366004620032aa565b62001ca0565b620002f7620005dd366004620032c8565b62001ccf565b6200035462001d71565b6200037a620005fe3660046200330b565b62001dcd565b620002f7620006153660046200333e565b62001f15565b6200062562001f58565b604051620002e391906200337f565b620002f76305f5e10081565b620002f7600a81565b620002f76200065a366004620033c2565b62001fbe565b6200037a620006713660046200327b565b620020d1565b6200037a6200218c565b620002f7620006923660046200342c565b620022ce565b6200037a620006a936600462002c49565b62002339565b62000354620023e3565b620002f76200243e565b620002f76200247a565b620002f7620006de36600462003481565b620024b6565b620002f7620006f53660046200342c565b620024f9565b600354620002f7565b6200037a6200071536600462002c49565b62002564565b620002f76402540be40081565b6200037a6200260d565b60405163a303558560e01b81526003600482015260009073__$6aaf67e7827a013dd22ce71b2520632c86$__9063a3035585906024015b602060405180830381865af415801562000787573d6000803e3d6000fd5b505050506040513d601f19601f82011682018060405250810190620007ad91906200350d565b905090565b6000620007be6200196e565b15620007e75760405162461bcd60e51b8152600401620007de9062003527565b60405180910390fd5b600260015414156200080d5760405162461bcd60e51b8152600401620007de9062003551565b60026001556001600160a01b0380871660009081526013602052604080822054928816825290819020549051634736d3db60e11b815273__$6aaf67e7827a013dd22ce71b2520632c86$__92638e6da7b6926200087e9260039260ff9081169216908a908a908a9060040162003588565b602060405180830381865af41580156200089c573d6000803e3d6000fd5b505050506040513d601f19601f82011682018060405250810190620008c291906200350d565b600180559695505050505050565b600354606090806001600160401b03811115620008f157620008f162002d29565b6040519080825280602002602001820160405280156200091b578160200160208202803683370190505b50915060005b81811015620009dd5760405163e2eba89b60e01b8152600360048201526024810182905273__$6aaf67e7827a013dd22ce71b2520632c86$__9063e2eba89b90604401602060405180830381865af415801562000982573d6000803e3d6000fd5b505050506040513d601f19601f82011682018060405250810190620009a891906200350d565b838281518110620009bd57620009bd620035bf565b602090810291909101015280620009d481620035eb565b91505062000921565b505090565b33620009ed62001c91565b6001600160a01b03161462000a165760405162461bcd60e51b8152600401620007de9062003609565b600254610100900460ff168062000a30575060025460ff16155b62000a955760405162461bcd60e51b815260206004820152602e60248201527f496e697469616c697a61626c653a20636f6e747261637420697320616c72656160448201526d191e481a5b9a5d1a585b1a5e995960921b6064820152608401620007de565b600254610100900460ff1615801562000ab8576002805461ffff19166101011790555b89518b511462000b015760405162461bcd60e51b815260206004820152601360248201527218dbda5b9cd308084f48191958da5b585b1cd3606a1b6044820152606401620007de565b6001600160a01b03821662000b525760405162461bcd60e51b81526020600482015260166024820152756665654469737472696275746f72203d20656d70747960501b6044820152606401620007de565b8a516000816001600160401b0381111562000b715762000b7162002d29565b60405190808252806020026020018201604052801562000b9b578160200160208202803683370190505b5090506000826001600160401b0381111562000bbb5762000bbb62002d29565b60405190808252806020026020018201604052801562000be5578160200160208202803683370190505b50905060005b8381101562000ded5760006001600160a01b03168f828151811062000c145762000c14620035bf565b60200260200101516001600160a01b0316141562000c6b5760405162461bcd60e51b8152602060048201526013602482015272696e76616c6964546f6b656e4164647265737360681b6044820152606401620007de565b60128e828151811062000c825762000c82620035bf565b602002602001015160ff16111562000ccf5760405162461bcd60e51b815260206004820152600f60248201526e696e76616c6964446563696d616c7360881b6044820152606401620007de565b8d818151811062000ce45762000ce4620035bf565b602002602001015160ff16601262000cfd91906200363e565b62000d0a90600a62003755565b83828151811062000d1f5762000d1f620035bf565b6020026020010181815250508e818151811062000d405762000d40620035bf565b602002602001015182828151811062000d5d5762000d5d620035bf565b60200260200101906001600160a01b031690816001600160a01b031681525050806013600084848151811062000d975762000d97620035bf565b60200260200101516001600160a01b03166001600160a01b0316815260200190815260200160002060006101000a81548160ff021916908360ff160217905550808062000de490620035eb565b91505062000beb565b50620f42408a1062000e2b5760405162461bcd60e51b81526020600482015260066024820152653e206d61784160d01b6044820152606401620007de565b6305f5e10089111562000e6d5760405162461bcd60e51b81526020600482015260096024820152683e206d61785346656560b81b6044820152606401620007de565b6305f5e10088111562000eaf5760405162461bcd60e51b81526020600482015260096024820152683e206d61784646656560b81b6044820152606401620007de565b6402540be40087111562000ef25760405162461bcd60e51b81526020600482015260096024820152683e206d61784146656560b81b6044820152606401620007de565b6305f5e10086111562000f345760405162461bcd60e51b81526020600482015260096024820152683e206d61785746656560b81b6044820152606401620007de565b8b8b60405162000f449062002b59565b62000f51929190620037c0565b604051809103906000f08015801562000f6e573d6000803e3d6000fd5b50600480546001600160a01b0319166001600160a01b0392909216919091179055826001600160401b0381111562000faa5762000faa62002d29565b60405190808252806020026020018201604052801562000fd4578160200160208202803683370190505b50805162000feb9160069160209091019062002b67565b5081516200100190600590602085019062002b67565b5080516200101790600390602084019062002bb7565b506200102560648b620037f2565b600a556200103560648b620037f2565b600b55505050600786905560088590556009849055600e839055601180546001600160a01b0319166001600160a01b03841617905580156200107d576002805461ff00191690555b5050505050505050505050565b606060026001541415620010b25760405162461bcd60e51b8152600401620007de9062003551565b60026001558142811015620010db5760405162461bcd60e51b8152600401620007de9062003814565b6040516331a15a5b60e21b815273__$6aaf67e7827a013dd22ce71b2520632c86$__9063c685696c9062001119906003908990899060040162003872565b600060405180830381865af415801562001137573d6000803e3d6000fd5b505050506040513d6000823e601f3d908101601f1916820160405262001161919081019062003893565b6001805595945050505050565b620011786200196e565b15620011985760405162461bcd60e51b8152600401620007de9062003527565b60026001541415620011be5760405162461bcd60e51b8152600401620007de9062003551565b60026001556001600160a01b038086166000908152601360205260408082205492871682529081902054905163ce055b8d60e01b815273__$6aaf67e7827a013dd22ce71b2520632c86$__9263ce055b8d926200122f9260039260ff90811692169089908990899060040162003588565b602060405180830381865af41580156200124d573d6000803e3d6000fd5b505050506040513d601f19601f820116820180604052508101906200127391906200350d565b50506001805550505050565b600060026001541415620012a75760405162461bcd60e51b8152600401620007de9062003551565b6002600155620012b66200196e565b15620012d65760405162461bcd60e51b8152600401620007de9062003527565b8180421115620012fa5760405162461bcd60e51b8152600401620007de9062003814565b6040516302bfe30d60e41b8152600360048201526024810187905260ff861660448201526064810185905273__$6aaf67e7827a013dd22ce71b2520632c86$__90632bfe30d090608401602060405180830381865af41580156200089c573d6000803e3d6000fd5b336200136d62001c91565b6001600160a01b031614620013965760405162461bcd60e51b8152600401620007de9062003609565b6001600160a01b038116620013bf5760405162461bcd60e51b8152600401620007de906200392c565b601280546001600160a01b0319166001600160a01b0383161790556040517f4c3f3b9852ccceadd50f16518f348e2624c8f0240acdd5bc81911c0fba83ec67906200140c90839062002c69565b60405180910390a150565b336200142262001c91565b6001600160a01b0316146200144b5760405162461bcd60e51b8152600401620007de9062003609565b62001455620027db565b565b60006200146660038362002873565b92915050565b6000620014786200196e565b15620014985760405162461bcd60e51b8152600401620007de9062003527565b60026001541415620014be5760405162461bcd60e51b8152600401620007de9062003551565b60026001556001600160a01b03808716600090815260136020526040808220549288168252908190205490516306d1a87b60e11b815273__$6aaf67e7827a013dd22ce71b2520632c86$__92630da350f6926200087e9260039260ff9081169216908a908a908a9060040162003588565b60006200153b6200196e565b156200155b5760405162461bcd60e51b8152600401620007de9062003527565b60026001541415620015815760405162461bcd60e51b8152600401620007de9062003551565b60026001558142811015620015aa5760405162461bcd60e51b8152600401620007de9062003814565b604051631e9b2e8f60e21b815273__$6aaf67e7827a013dd22ce71b2520632c86$__90637a6cba3c90620015e890600390899089906004016200394a565b602060405180830381865af415801562001606573d6000803e3d6000fd5b505050506040513d601f19601f820116820180604052508101906200116191906200350d565b336200163762001c91565b6001600160a01b031614620016605760405162461bcd60e51b8152600401620007de9062003609565b600c5462001672906201518062003975565b421015620016ad5760405162461bcd60e51b81526020600482015260076024820152660f081c985b5c1160ca1b6044820152606401620007de565b620016bc620151804262003975565b811015620016fa5760405162461bcd60e51b815260206004820152600a6024820152690f081b5a5b94985b5c1560b21b6044820152606401620007de565b8160001080156200170d5750620f424082105b620017485760405162461bcd60e51b815260206004820152600a6024820152696f75744f6652616e676560b01b6044820152606401620007de565b60405163a303558560e01b81526003600482015260009073__$6aaf67e7827a013dd22ce71b2520632c86$__9063a303558590602401602060405180830381865af41580156200179c573d6000803e3d6000fd5b505050506040513d601f19601f82011682018060405250810190620017c291906200350d565b90506000620017d3606485620037f2565b905081811015620018135781620017ec600a83620037f2565b10156200180d5760405162461bcd60e51b8152600401620007de9062003990565b62001842565b62001820600a83620037f2565b811115620018425760405162461bcd60e51b8152600401620007de9062003990565b600a829055600b81905542600c819055600d8490556040517fa2b71ec6df949300b59aab36b55e189697b750119dd349fcfa8c0f779e83c254916200188d91859185918890620039b0565b60405180910390a150505050565b60026001541415620018c15760405162461bcd60e51b8152600401620007de9062003551565b6002600155620018d06200196e565b15620018f05760405162461bcd60e51b8152600401620007de9062003527565b60405163c823250160e01b815273__$6aaf67e7827a013dd22ce71b2520632c86$__9063c82325019062001932906003908890889088908890600401620039cb565b60006040518083038186803b1580156200194b57600080fd5b505af415801562001960573d6000803e3d6000fd5b505060018055505050505050565b600054600160a01b900460ff1690565b6001600160a01b0381166000818152601360205260409020546003805460ff909216929183908110620019b557620019b5620035bf565b6000918252602090912001546001600160a01b03161462001a095760405162461bcd60e51b815260206004820152600d60248201526c1d1bdad95b939bdd119bdd5b99609a1b6044820152606401620007de565b919050565b3362001a1962001c91565b6001600160a01b03161462001a425760405162461bcd60e51b8152600401620007de9062003609565b6200145560006200292d565b60405163fa56359760e01b815260609073__$6aaf67e7827a013dd22ce71b2520632c86$__9063fa5635979062001a8f906003908790879060040162003a5a565b600060405180830381865af415801562001aad573d6000803e3d6000fd5b505050506040513d6000823e601f3d908101601f1916820160405262001ad7919081019062003893565b9392505050565b600060036000018260ff168154811062001afc5762001afc620035bf565b6000918252602090912001546001600160a01b031692915050565b3362001b2262001c91565b6001600160a01b03161462001b4b5760405162461bcd60e51b8152600401620007de9062003609565b620014556200297d565b60006002600154141562001b7d5760405162461bcd60e51b8152600401620007de9062003551565b600260015562001b8c6200196e565b1562001bac5760405162461bcd60e51b8152600401620007de9062003527565b818042111562001bd05760405162461bcd60e51b8152600401620007de9062003814565b60405163641a260360e11b815273__$6aaf67e7827a013dd22ce71b2520632c86$__9063c8344c0690620015e890600390899089906004016200394a565b60405163e2eba89b60e01b81526003600482015260ff8216602482015260009073__$6aaf67e7827a013dd22ce71b2520632c86$__9063e2eba89b90604401602060405180830381865af415801562001c6b573d6000803e3d6000fd5b505050506040513d601f19601f820116820180604052508101906200146691906200350d565b6000546001600160a01b031690565b6000600380018260ff168154811062001cbd5762001cbd620035bf565b90600052602060002001549050919050565b60405163159763bb60e01b8152600360048201526001600160a01b03841660248201526044810183905260ff8216606482015260009073__$6aaf67e7827a013dd22ce71b2520632c86$__9063159763bb906084015b602060405180830381865af415801562001d43573d6000803e3d6000fd5b505050506040513d601f19601f8201168201806040525081019062001d6991906200350d565b949350505050565b60606003800180548060200260200160405190810160405280929190818152602001828054801562001dc357602002820191906000526020600020905b81548152602001906001019080831162001dae575b5050505050905090565b3362001dd862001c91565b6001600160a01b03161462001e015760405162461bcd60e51b8152600401620007de9062003609565b6305f5e10084111562001e285760405162461bcd60e51b8152600401620007de9062003a79565b6305f5e10083111562001e4f5760405162461bcd60e51b8152600401620007de9062003a79565b6402540be40082111562001e8f5760405162461bcd60e51b81526020600482015260066024820152653e204146656560d01b6044820152606401620007de565b6305f5e10081111562001ece5760405162461bcd60e51b81526020600482015260066024820152653e205746656560d01b6044820152606401620007de565b60098290556007849055600e8190556040517f0272af61e59abaa206f4d3d15474b045c5fdbad2379f620b67074e9b13bfaad1906200188d908690869086908690620039b0565b60405163ba2998d960e01b815260009073__$6aaf67e7827a013dd22ce71b2520632c86$__9063ba2998d99062001d259060039088908890889060040162003a99565b6060600360000180548060200260200160405190810160405280929190818152602001828054801562001dc357602002820191906000526020600020905b81546001600160a01b0316815260019091019060200180831162001f96575050505050905090565b600062001fca6200196e565b1562001fea5760405162461bcd60e51b8152600401620007de9062003527565b60026001541415620020105760405162461bcd60e51b8152600401620007de9062003551565b60026001558142811015620020395760405162461bcd60e51b8152600401620007de9062003814565b60405163ad30093f60e01b815273__$6aaf67e7827a013dd22ce71b2520632c86$__9063ad30093f906200207d906003908c908c908c908c908c9060040162003588565b602060405180830381865af41580156200209b573d6000803e3d6000fd5b505050506040513d601f19601f82011682018060405250810190620020c191906200350d565b6001805598975050505050505050565b6004546001600160a01b03163314620021185760405162461bcd60e51b815260206004820152600860248201526710b6382a37b5b2b760c11b6044820152606401620007de565b6040516360c4725f60e11b815273__$6aaf67e7827a013dd22ce71b2520632c86$__9063c188e4be9062002156906003908690869060040162003a5a565b60006040518083038186803b1580156200216f57600080fd5b505af415801562002184573d6000803e3d6000fd5b505050505050565b336200219762001c91565b6001600160a01b031614620021c05760405162461bcd60e51b8152600401620007de9062003609565b600d544210620022045760405162461bcd60e51b815260206004820152600e60248201526d185b1c9958591e54dd1bdc1c195960921b6044820152606401620007de565b60405163a303558560e01b81526003600482015260009073__$6aaf67e7827a013dd22ce71b2520632c86$__9063a303558590602401602060405180830381865af415801562002258573d6000803e3d6000fd5b505050506040513d601f19601f820116820180604052508101906200227e91906200350d565b600a819055600b81905542600c819055600d8190556040519192507f46e22fb3709ad289f62ce63d469248536dbc78d82b84a3d7e74ad606dc201938916200140c91848252602082015260400190565b6001600160a01b03808416600090815260136020526040808220549285168252808220549051635502a57760e11b8152919273__$6aaf67e7827a013dd22ce71b2520632c86$__9263aa054aee9262001d259260039260ff9182169290911690889060040162003a99565b336200234462001c91565b6001600160a01b0316146200236d5760405162461bcd60e51b8152600401620007de9062003609565b6001600160a01b038116620023965760405162461bcd60e51b8152600401620007de906200392c565b601180546001600160a01b0319166001600160a01b0383161790556040517fae5a12c29e496b092467a620746b9eaf4e0e231a631a4370c233b1fac38e8e26906200140c90839062002c69565b6060600360020180548060200260200160405190810160405280929190818152602001828054801562001dc3576020028201919060005260206000209081548152602001906001019080831162001dae575050505050905090565b60405163b52e146f60e01b81526003600482015260009073__$6aaf67e7827a013dd22ce71b2520632c86$__9063b52e146f9060240162000769565b6040516334d9812b60e21b81526003600482015260009073__$6aaf67e7827a013dd22ce71b2520632c86$__9063d36604ac9060240162000769565b604051631e7e95d360e01b815260009073__$6aaf67e7827a013dd22ce71b2520632c86$__90631e7e95d39062001d259060039088908890889060040162003ab8565b6001600160a01b0380841660009081526013602052604080822054928516825280822054905163ba2998d960e01b8152919273__$6aaf67e7827a013dd22ce71b2520632c86$__9263ba2998d99262001d259260039260ff9182169290911690889060040162003a99565b336200256f62001c91565b6001600160a01b031614620025985760405162461bcd60e51b8152600401620007de9062003609565b6001600160a01b038116620025ff5760405162461bcd60e51b815260206004820152602660248201527f4f776e61626c653a206e6577206f776e657220697320746865207a65726f206160448201526564647265737360d01b6064820152608401620007de565b6200260a816200292d565b50565b6012546001600160a01b03163314806200264157506200262c62001c91565b6001600160a01b0316336001600160a01b0316145b620026805760405162461bcd60e51b815260206004820152600e60248201526d10b332b2a1b7b73a3937b63632b960911b6044820152606401620007de565b60005b6003548110156200260a57600060036000018281548110620026a957620026a9620035bf565b6000918252602082200154600680546001600160a01b0390921693509084908110620026d957620026d9620035bf565b9060005260206000200154826001600160a01b03166370a08231306040518263ffffffff1660e01b815260040162002712919062002c69565b602060405180830381865afa15801562002730573d6000803e3d6000fd5b505050506040513d601f19601f820116820180604052508101906200275691906200350d565b6200276291906200363e565b90508015620027c35760115462002787906001600160a01b03848116911683620029e3565b7fee3859efa95e525bc2bcb149b51b60a8bb4e89c647392d9d4112e03c3e73bdd68282604051620027ba92919062003b0a565b60405180910390a15b50508080620027d290620035eb565b91505062002683565b620027e56200196e565b6200282a5760405162461bcd60e51b815260206004820152601460248201527314185d5cd8589b194e881b9bdd081c185d5cd95960621b6044820152606401620007de565b6000805460ff60a01b191690557f5db9ee0a495bf2e6ff9c91a7834c1ba4fdd244a5e8aa4e537bd38aeae4b073aa335b60405162002869919062002c69565b60405180910390a1565b6001600160a01b0381166000908152600c8301602052604081205481906200289f906224ea0062003975565b90504281111562002923576000620028b842836200363e565b6001600160a01b0385166000908152600d87016020526040902054600b8701549192506402540be400916224ea00918491620028f59190620037f2565b620029019190620037f2565b6200290d919062003b23565b62002919919062003b23565b9250505062001466565b5060009392505050565b600080546001600160a01b038381166001600160a01b0319831681178455604051919092169283917f8be0079c531659141344cd1fd0a4f28419497f9722a3daafe3b4186f6b6457e09190a35050565b620029876200196e565b15620029a75760405162461bcd60e51b8152600401620007de9062003527565b6000805460ff60a01b1916600160a01b1790557f62e78cea01bee320cd4e420270b5ea74000d11b0c9f74754ebdbfc544b05a2586200285a3390565b62002a3d8363a9059cbb60e01b848460405160240162002a0592919062003b0a565b60408051601f198184030181529190526020810180516001600160e01b03166001600160e01b03199093169290921790915262002a42565b505050565b600080836001600160a01b03168360405162002a5f919062003b46565b6000604051808303816000865af19150503d806000811462002a9e576040519150601f19603f3d011682016040523d82523d6000602084013e62002aa3565b606091505b5091509150600082141562002abc573d6000803e3d6000fd5b62002aeb81516000148062002ae257508180602001905181019062002ae2919062003b64565b6101a262002af1565b50505050565b8162002b025762002b028162002b06565b5050565b62461bcd60e51b6000908152602060045260076024526652455123000030600a808404818106603090810160081b95839006959095019082900491820690940160101b939093010160c81b604452606490fd5b6111fc8062003b8583390190565b82805482825590600052602060002090810192821562002ba5579160200282015b8281111562002ba557825182559160200191906001019062002b88565b5062002bb392915062002c0f565b5090565b82805482825590600052602060002090810192821562002ba5579160200282015b8281111562002ba557825182546001600160a01b0319166001600160a01b0390911617825560209092019160019091019062002bd8565b5b8082111562002bb3576000815560010162002c10565b6001600160a01b03811681146200260a57600080fd5b803562001a098162002c26565b60006020828403121562002c5c57600080fd5b813562001ad78162002c26565b6001600160a01b0391909116815260200190565b600080600080600060a0868803121562002c9657600080fd5b853562002ca38162002c26565b9450602086013562002cb58162002c26565b93506040860135925060608601359150608086013562002cd58162002c26565b809150509295509295909350565b6020808252825182820181905260009190848201906040850190845b8181101562002d1d5783518352928401929184019160010162002cff565b50909695505050505050565b634e487b7160e01b600052604160045260246000fd5b604051601f8201601f191681016001600160401b038111828210171562002d6a5762002d6a62002d29565b604052919050565b60006001600160401b0382111562002d8e5762002d8e62002d29565b5060051b60200190565b600082601f83011262002daa57600080fd5b8135602062002dc362002dbd8362002d72565b62002d3f565b82815260059290921b8401810191818101908684111562002de357600080fd5b8286015b8481101562002e0b57803562002dfd8162002c26565b835291830191830162002de7565b509695505050505050565b803560ff8116811462001a0957600080fd5b600082601f83011262002e3a57600080fd5b8135602062002e4d62002dbd8362002d72565b82815260059290921b8401810191818101908684111562002e6d57600080fd5b8286015b8481101562002e0b5762002e858162002e16565b835291830191830162002e71565b600082601f83011262002ea557600080fd5b81356001600160401b0381111562002ec15762002ec162002d29565b62002ed6601f8201601f191660200162002d3f565b81815284602083860101111562002eec57600080fd5b816020850160208301376000918101602001919091529392505050565b6000806000806000806000806000806101408b8d03121562002f2a57600080fd5b8a356001600160401b038082111562002f4257600080fd5b62002f508e838f0162002d98565b9b5060208d013591508082111562002f6757600080fd5b62002f758e838f0162002e28565b9a5060408d013591508082111562002f8c57600080fd5b62002f9a8e838f0162002e93565b995060608d013591508082111562002fb157600080fd5b5062002fc08d828e0162002e93565b97505060808b0135955060a08b0135945060c08b0135935060e08b013592506101008b0135915062002ff66101208c0162002c3c565b90509295989b9194979a5092959850565b600082601f8301126200301957600080fd5b813560206200302c62002dbd8362002d72565b82815260059290921b840181019181810190868411156200304c57600080fd5b8286015b8481101562002e0b578035835291830191830162003050565b6000806000606084860312156200307f57600080fd5b8335925060208401356001600160401b038111156200309d57600080fd5b620030ab8682870162003007565b925050604084013590509250925092565b60008060008060808587031215620030d357600080fd5b84359350620030e56020860162002e16565b93969395505050506040820135916060013590565b6000806000606084860312156200311057600080fd5b83356001600160401b038111156200312757600080fd5b620031358682870162003007565b9660208601359650604090950135949350505050565b600080604083850312156200315f57600080fd5b50508035926020909101359150565b600080600080608085870312156200318557600080fd5b8435620031928162002c26565b93506020858101356001600160401b0380821115620031b057600080fd5b818801915088601f830112620031c557600080fd5b8135620031d662002dbd8262002d72565b81815260059190911b8301840190848101908b831115620031f657600080fd5b938501935b8285101562003221578435620032118162002c26565b82529385019390850190620031fb565b9750505060408801359250808311156200323a57600080fd5b6200324889848a0162003007565b945060608801359250808311156200325f57600080fd5b50506200326f8782880162002e93565b91505092959194509250565b600080604083850312156200328f57600080fd5b82356200329c8162002c26565b946020939093013593505050565b600060208284031215620032bd57600080fd5b62001ad78262002e16565b600080600060608486031215620032de57600080fd5b8335620032eb8162002c26565b925060208401359150620033026040850162002e16565b90509250925092565b600080600080608085870312156200332257600080fd5b5050823594602084013594506040840135936060013592509050565b6000806000606084860312156200335457600080fd5b6200335f8462002e16565b92506200336f6020850162002e16565b9150604084013590509250925092565b6020808252825182820181905260009190848201906040850190845b8181101562002d1d5783516001600160a01b0316835292840192918401916001016200339b565b60008060008060008060c08789031215620033dc57600080fd5b620033e78762002e16565b9550620033f76020880162002e16565b945060408701359350606087013592506080870135620034178162002c26565b8092505060a087013590509295509295509295565b6000806000606084860312156200344257600080fd5b83356200344f8162002c26565b92506020840135620034618162002c26565b929592945050506040919091013590565b80151581146200260a57600080fd5b6000806000604084860312156200349757600080fd5b83356001600160401b0380821115620034af57600080fd5b818601915086601f830112620034c457600080fd5b813581811115620034d457600080fd5b8760208260051b8501011115620034ea57600080fd5b60209283019550935050840135620035028162003472565b809150509250925092565b6000602082840312156200352057600080fd5b5051919050565b60208082526010908201526f14185d5cd8589b194e881c185d5cd95960821b604082015260600190565b6020808252601f908201527f5265656e7472616e637947756172643a207265656e7472616e742063616c6c00604082015260600190565b95865260ff9485166020870152929093166040850152606084015260808301919091526001600160a01b031660a082015260c00190565b634e487b7160e01b600052603260045260246000fd5b634e487b7160e01b600052601160045260246000fd5b6000600019821415620036025762003602620035d5565b5060010190565b6020808252818101527f4f776e61626c653a2063616c6c6572206973206e6f7420746865206f776e6572604082015260600190565b600082821015620036535762003653620035d5565b500390565b600181815b80851115620036995781600019048211156200367d576200367d620035d5565b808516156200368b57918102915b93841c93908002906200365d565b509250929050565b600082620036b25750600162001466565b81620036c15750600062001466565b8160018114620036da5760028114620036e55762003705565b600191505062001466565b60ff841115620036f957620036f9620035d5565b50506001821b62001466565b5060208310610133831016604e8410600b84101617156200372a575081810a62001466565b62003736838362003658565b80600019048211156200374d576200374d620035d5565b029392505050565b600062001ad78383620036a1565b60005b838110156200378057818101518382015260200162003766565b8381111562002aeb5750506000910152565b60008151808452620037ac81602086016020860162003763565b601f01601f19169290920160200192915050565b604081526000620037d5604083018562003792565b8281036020840152620037e9818562003792565b95945050505050565b60008160001904831182151516156200380f576200380f620035d5565b500290565b6020808252600790820152661d1a5b595bdd5d60ca1b604082015260600190565b600081518084526020808501945080840160005b83811015620038675781518752958201959082019060010162003849565b509495945050505050565b838152826020820152606060408201526000620037e9606083018462003835565b60006020808385031215620038a757600080fd5b82516001600160401b03811115620038be57600080fd5b8301601f81018513620038d057600080fd5b8051620038e162002dbd8262002d72565b81815260059190911b820183019083810190878311156200390157600080fd5b928401925b82841015620039215783518252928401929084019062003906565b979650505050505050565b6020808252600490820152637a65726f60e01b604082015260600190565b83815260606020820152600062003965606083018562003835565b9050826040830152949350505050565b600082198211156200398b576200398b620035d5565b500190565b6020808252600690820152653e206d61784360d01b604082015260600190565b93845260208401929092526040830152606082015260800190565b600060a08201878352602060018060a01b038089168286015260a0604086015282885180855260c087019150838a01945060005b8181101562003a1f578551841683529484019491840191600101620039ff565b5050858103606087015262003a35818962003835565b9350505050828103608084015262003a4e818562003792565b98975050505050505050565b9283526001600160a01b03919091166020830152604082015260600190565b6020808252600690820152653e205346656560d01b604082015260600190565b93845260ff928316602085015291166040830152606082015260800190565b848152606060208201819052810183905260006001600160fb1b0384111562003ae057600080fd5b8360051b808660808501376000908301608001908152921515604090920191909152509392505050565b6001600160a01b03929092168252602082015260400190565b60008262003b4157634e487b7160e01b600052601260045260246000fd5b500490565b6000825162003b5a81846020870162003763565b9190910192915050565b60006020828403121562003b7757600080fd5b815162001ad7816200347256fe60806040523480156200001157600080fd5b50604051620011fc380380620011fc833981016040819052620000349162000256565b8181620000413362000093565b815162000056906004906020850190620000e3565b5080516200006c906005906020840190620000e3565b50506006805433610100026001600160a81b031990911617601217905550620002fd915050565b600080546001600160a01b038381166001600160a01b0319831681178455604051919092169283917f8be0079c531659141344cd1fd0a4f28419497f9722a3daafe3b4186f6b6457e09190a35050565b828054620000f190620002c0565b90600052602060002090601f01602090048101928262000115576000855562000160565b82601f106200013057805160ff191683800117855562000160565b8280016001018555821562000160579182015b828111156200016057825182559160200191906001019062000143565b506200016e92915062000172565b5090565b5b808211156200016e576000815560010162000173565b634e487b7160e01b600052604160045260246000fd5b600082601f830112620001b157600080fd5b81516001600160401b0380821115620001ce57620001ce62000189565b604051601f8301601f19908116603f01168101908282118183101715620001f957620001f962000189565b816040528381526020925086838588010111156200021657600080fd5b600091505b838210156200023a57858201830151818301840152908201906200021b565b838211156200024c5760008385830101525b9695505050505050565b600080604083850312156200026a57600080fd5b82516001600160401b03808211156200028257600080fd5b62000290868387016200019f565b93506020850151915080821115620002a757600080fd5b50620002b6858286016200019f565b9150509250929050565b600181811c90821680620002d557607f821691505b60208210811415620002f757634e487b7160e01b600052602260045260246000fd5b50919050565b610eef806200030d6000396000f3fe608060405234801561001057600080fd5b50600436106100e65760003560e01c806306fdde03146100eb578063095ea7b31461010957806318160ddd1461012c57806323b872dd1461013e578063313ce56714610151578063395093511461016057806340c10f191461017357806342966c681461018857806370a082311461019b578063715018a6146101c457806379cc6790146101cc5780638119c065146101df5780638da5cb5b1461020f57806395d89b4114610217578063a457c2d71461021f578063a9059cbb14610232578063dd62ed3e14610245578063f2fde38b1461027e575b600080fd5b6100f3610291565b6040516101009190610c9f565b60405180910390f35b61011c610117366004610d10565b610323565b6040519015158152602001610100565b6003545b604051908152602001610100565b61011c61014c366004610d3a565b610339565b60405160128152602001610100565b61011c61016e366004610d10565b6103e8565b610186610181366004610d10565b610424565b005b610186610196366004610d76565b6104a2565b6101306101a9366004610d8f565b6001600160a01b031660009081526001602052604090205490565b6101866104af565b6101866101da366004610d10565b6104ea565b6006546101f79061010090046001600160a01b031681565b6040516001600160a01b039091168152602001610100565b6101f7610570565b6100f361057f565b61011c61022d366004610d10565b61058e565b61011c610240366004610d10565b610627565b610130610253366004610db1565b6001600160a01b03918216600090815260026020908152604080832093909416825291909152205490565b61018661028c366004610d8f565b610634565b6060600480546102a090610de4565b80601f01602080910402602001604051908101604052809291908181526020018280546102cc90610de4565b80156103195780601f106102ee57610100808354040283529160200191610319565b820191906000526020600020905b8154815290600101906020018083116102fc57829003601f168201915b5050505050905090565b60006103303384846106d1565b50600192915050565b60006103468484846107f5565b6001600160a01b0384166000908152600260209081526040808320338452909152902054828110156103d05760405162461bcd60e51b815260206004820152602860248201527f45524332303a207472616e7366657220616d6f756e74206578636565647320616044820152676c6c6f77616e636560c01b60648201526084015b60405180910390fd5b6103dd85338584036106d1565b506001949350505050565b3360008181526002602090815260408083206001600160a01b0387168452909152812054909161033091859061041f908690610e35565b6106d1565b3361042d610570565b6001600160a01b0316146104535760405162461bcd60e51b81526004016103c790610e4d565b600081116104945760405162461bcd60e51b815260206004820152600e60248201526d1e995c9bd35a5b9d105b5bdd5b9d60921b60448201526064016103c7565b61049e82826109bd565b5050565b6104ac3382610a96565b50565b336104b8610570565b6001600160a01b0316146104de5760405162461bcd60e51b81526004016103c790610e4d565b6104e86000610bde565b565b60006104f68333610253565b9050818110156105545760405162461bcd60e51b8152602060048201526024808201527f45524332303a206275726e20616d6f756e74206578636565647320616c6c6f77604482015263616e636560e01b60648201526084016103c7565b61056183338484036106d1565b61056b8383610a96565b505050565b6000546001600160a01b031690565b6060600580546102a090610de4565b3360009081526002602090815260408083206001600160a01b0386168452909152812054828110156106105760405162461bcd60e51b815260206004820152602560248201527f45524332303a2064656372656173656420616c6c6f77616e63652062656c6f77604482015264207a65726f60d81b60648201526084016103c7565b61061d33858584036106d1565b5060019392505050565b60006103303384846107f5565b3361063d610570565b6001600160a01b0316146106635760405162461bcd60e51b81526004016103c790610e4d565b6001600160a01b0381166106c85760405162461bcd60e51b815260206004820152602660248201527f4f776e61626c653a206e6577206f776e657220697320746865207a65726f206160448201526564647265737360d01b60648201526084016103c7565b6104ac81610bde565b6001600160a01b0383166107335760405162461bcd60e51b8152602060048201526024808201527f45524332303a20617070726f76652066726f6d20746865207a65726f206164646044820152637265737360e01b60648201526084016103c7565b6001600160a01b0382166107945760405162461bcd60e51b815260206004820152602260248201527f45524332303a20617070726f766520746f20746865207a65726f206164647265604482015261737360f01b60648201526084016103c7565b6001600160a01b0383811660008181526002602090815260408083209487168084529482529182902085905590518481527f8c5be1e5ebec7d5bd14f71427d1e84f3dd0314c0f7b2291e5b200ac8c7c3b925910160405180910390a3505050565b6001600160a01b0383166108595760405162461bcd60e51b815260206004820152602560248201527f45524332303a207472616e736665722066726f6d20746865207a65726f206164604482015264647265737360d81b60648201526084016103c7565b6001600160a01b0382166108bb5760405162461bcd60e51b815260206004820152602360248201527f45524332303a207472616e7366657220746f20746865207a65726f206164647260448201526265737360e81b60648201526084016103c7565b6108c6838383610c2e565b6001600160a01b0383166000908152600160205260409020548181101561093e5760405162461bcd60e51b815260206004820152602660248201527f45524332303a207472616e7366657220616d6f756e7420657863656564732062604482015265616c616e636560d01b60648201526084016103c7565b6001600160a01b03808516600090815260016020526040808220858503905591851681529081208054849290610975908490610e35565b92505081905550826001600160a01b0316846001600160a01b0316600080516020610e9a833981519152846040516109af91815260200190565b60405180910390a350505050565b6001600160a01b038216610a135760405162461bcd60e51b815260206004820152601f60248201527f45524332303a206d696e7420746f20746865207a65726f20616464726573730060448201526064016103c7565b610a1f60008383610c2e565b8060036000828254610a319190610e35565b90915550506001600160a01b03821660009081526001602052604081208054839290610a5e908490610e35565b90915550506040518181526001600160a01b03831690600090600080516020610e9a8339815191529060200160405180910390a35050565b6001600160a01b038216610af65760405162461bcd60e51b815260206004820152602160248201527f45524332303a206275726e2066726f6d20746865207a65726f206164647265736044820152607360f81b60648201526084016103c7565b610b0282600083610c2e565b6001600160a01b03821660009081526001602052604090205481811015610b765760405162461bcd60e51b815260206004820152602260248201527f45524332303a206275726e20616d6f756e7420657863656564732062616c616e604482015261636560f01b60648201526084016103c7565b6001600160a01b0383166000908152600160205260408120838303905560038054849290610ba5908490610e82565b90915550506040518281526000906001600160a01b03851690600080516020610e9a8339815191529060200160405180910390a3505050565b600080546001600160a01b038381166001600160a01b0319831681178455604051919092169283917f8be0079c531659141344cd1fd0a4f28419497f9722a3daafe3b4186f6b6457e09190a35050565b600654604051633003049760e21b81526001600160a01b038481166004830152602482018490526101009092049091169063c00c125c90604401600060405180830381600087803b158015610c8257600080fd5b505af1158015610c96573d6000803e3d6000fd5b50505050505050565b600060208083528351808285015260005b81811015610ccc57858101830151858201604001528201610cb0565b81811115610cde576000604083870101525b50601f01601f1916929092016040019392505050565b80356001600160a01b0381168114610d0b57600080fd5b919050565b60008060408385031215610d2357600080fd5b610d2c83610cf4565b946020939093013593505050565b600080600060608486031215610d4f57600080fd5b610d5884610cf4565b9250610d6660208501610cf4565b9150604084013590509250925092565b600060208284031215610d8857600080fd5b5035919050565b600060208284031215610da157600080fd5b610daa82610cf4565b9392505050565b60008060408385031215610dc457600080fd5b610dcd83610cf4565b9150610ddb60208401610cf4565b90509250929050565b600181811c90821680610df857607f821691505b60208210811415610e1957634e487b7160e01b600052602260045260246000fd5b50919050565b634e487b7160e01b600052601160045260246000fd5b60008219821115610e4857610e48610e1f565b500190565b6020808252818101527f4f776e61626c653a2063616c6c6572206973206e6f7420746865206f776e6572604082015260600190565b600082821015610e9457610e94610e1f565b50039056feddf252ad1be2c89b69c2b068fc378daa952ba7f163c4a11628f55a4df523b3efa2646970667358221220effd6f81c034d4de3f9e39042ccc6043dfbe956fef1bcded3b6d2e9e274ba63364736f6c634300080b0033a264697066735822122089508fb0864eccfa502b398b6cbe71a2a66b3a4658a4760a893955c3ae8e7d1b64736f6c634300080b0033",
  "libraries": {
    "RequiemStableSwapLib": "0xa82fF9aFd8f496c3d6ac40E2a0F282E47488CFc9"
  },
  "devdoc": {
    "kind": "dev",
    "methods": {
      "owner()": {
        "details": "Returns the address of the current owner."
      },
      "paused()": {
        "details": "Returns true if the contract is paused, and false otherwise."
      },
      "rampA(uint256,uint256)": {
        "params": {
          "futureA": "the new A to ramp towards",
          "futureATime": "timestamp when the new A should be reached"
        }
      },
      "renounceOwnership()": {
        "details": "Leaves the contract without owner. It will not be possible to call `onlyOwner` functions anymore. Can only be called by the current owner. NOTE: Renouncing ownership will leave the contract without an owner, thereby removing any functionality that is only available to the owner."
      },
      "setFee(uint256,uint256,uint256,uint256)": {
        "details": "adminFee cannot be higher than 100% of the swap fee swap fee cannot be higher than 1% of each swap",
        "params": {
          "newAdminFee": "new admin fee to be applied on future transactions",
          "newSwapFee": "new swap fee to be applied on future transactions",
          "newWithdrawFee": "new initial withdraw fee to be applied on future withdrawal transactions"
        }
      },
      "transferOwnership(address)": {
        "details": "Transfers ownership of the contract to a new account (`newOwner`). Can only be called by the current owner."
      },
      "updateUserWithdrawFee(address,uint256)": {
        "params": {
          "recipient": "address of the recipient of pool token",
          "transferAmount": "amount of pool token to transfer"
        }
      }
    },
    "version": 1
  },
  "userdoc": {
    "events": {
      "AddLiquidity(address,uint256[],uint256[],uint256,uint256)": {
        "notice": "EVENTS"
      }
    },
    "kind": "user",
    "methods": {
      "MIN_RAMP_TIME()": {
        "notice": "constants"
      },
      "addLiquidity(uint256[],uint256,uint256)": {
        "notice": "PUBLIC FUNCTIONS"
      },
      "flashLoan(address,address[],uint256[],bytes)": {
        "notice": "Flash Loan"
      },
      "getVirtualPrice()": {
        "notice": "VIEW FUNCTIONS"
      },
      "rampA(uint256,uint256)": {
        "notice": "Start ramping up or down A parameter towards given futureA_ and futureTime_ Checks if the change is too rapid, and commits the new A value only when it falls under the limit range."
      },
      "setFee(uint256,uint256,uint256,uint256)": {
        "notice": "Sets the admin fee"
      },
      "swapStorage()": {
        "notice": "STATE VARS"
      },
      "updateUserWithdrawFee(address,uint256)": {
        "notice": "Updates the user withdraw fee. This function can only be called by the pool token. Should be used to update the withdraw fee on transfer of pool tokens. Transferring your pool token will reset the 4 weeks period. If the recipient is already holding some pool tokens, the withdraw fee will be discounted in respective amounts."
      }
    },
    "version": 1
  },
  "storageLayout": {
    "storage": [
      {
        "astId": 38026,
        "contract": "contracts/RequiemStableSwap.sol:RequiemStableSwap",
        "label": "_owner",
        "offset": 0,
        "slot": "0",
        "type": "t_address"
      },
      {
        "astId": 38141,
        "contract": "contracts/RequiemStableSwap.sol:RequiemStableSwap",
        "label": "_paused",
        "offset": 20,
        "slot": "0",
        "type": "t_bool"
      },
      {
        "astId": 38226,
        "contract": "contracts/RequiemStableSwap.sol:RequiemStableSwap",
        "label": "_status",
        "offset": 0,
        "slot": "1",
        "type": "t_uint256"
      },
      {
        "astId": 37835,
        "contract": "contracts/RequiemStableSwap.sol:RequiemStableSwap",
        "label": "_initialized",
        "offset": 0,
        "slot": "2",
        "type": "t_bool"
      },
      {
        "astId": 37838,
        "contract": "contracts/RequiemStableSwap.sol:RequiemStableSwap",
        "label": "_initializing",
        "offset": 1,
        "slot": "2",
        "type": "t_bool"
      },
      {
        "astId": 15187,
        "contract": "contracts/RequiemStableSwap.sol:RequiemStableSwap",
        "label": "swapStorage",
        "offset": 0,
        "slot": "3",
        "type": "t_struct(SwapStorage)16636_storage"
      },
      {
        "astId": 15189,
        "contract": "contracts/RequiemStableSwap.sol:RequiemStableSwap",
        "label": "feeDistributor",
        "offset": 0,
        "slot": "17",
        "type": "t_address"
      },
      {
        "astId": 15191,
        "contract": "contracts/RequiemStableSwap.sol:RequiemStableSwap",
        "label": "feeController",
        "offset": 0,
        "slot": "18",
        "type": "t_address"
      },
      {
        "astId": 15195,
        "contract": "contracts/RequiemStableSwap.sol:RequiemStableSwap",
        "label": "tokenIndexes",
        "offset": 0,
        "slot": "19",
        "type": "t_mapping(t_address,t_uint8)"
      }
    ],
    "types": {
      "t_address": {
        "encoding": "inplace",
        "label": "address",
        "numberOfBytes": "20"
      },
      "t_array(t_contract(IERC20)30553)dyn_storage": {
        "base": "t_contract(IERC20)30553",
        "encoding": "dynamic_array",
        "label": "contract IERC20[]",
        "numberOfBytes": "32"
      },
      "t_array(t_uint256)dyn_storage": {
        "base": "t_uint256",
        "encoding": "dynamic_array",
        "label": "uint256[]",
        "numberOfBytes": "32"
      },
      "t_bool": {
        "encoding": "inplace",
        "label": "bool",
        "numberOfBytes": "1"
      },
      "t_contract(IERC20)30553": {
        "encoding": "inplace",
        "label": "contract IERC20",
        "numberOfBytes": "20"
      },
      "t_contract(LPToken)47804": {
        "encoding": "inplace",
        "label": "contract LPToken",
        "numberOfBytes": "20"
      },
      "t_mapping(t_address,t_uint256)": {
        "encoding": "mapping",
        "key": "t_address",
        "label": "mapping(address => uint256)",
        "numberOfBytes": "32",
        "value": "t_uint256"
      },
      "t_mapping(t_address,t_uint8)": {
        "encoding": "mapping",
        "key": "t_address",
        "label": "mapping(address => uint8)",
        "numberOfBytes": "32",
        "value": "t_uint8"
      },
      "t_struct(SwapStorage)16636_storage": {
        "encoding": "inplace",
        "label": "struct RequiemStableSwapLib.SwapStorage",
        "members": [
          {
            "astId": 16596,
            "contract": "contracts/RequiemStableSwap.sol:RequiemStableSwap",
            "label": "pooledTokens",
            "offset": 0,
            "slot": "0",
            "type": "t_array(t_contract(IERC20)30553)dyn_storage"
          },
          {
            "astId": 16599,
            "contract": "contracts/RequiemStableSwap.sol:RequiemStableSwap",
            "label": "lpToken",
            "offset": 0,
            "slot": "1",
            "type": "t_contract(LPToken)47804"
          },
          {
            "astId": 16603,
            "contract": "contracts/RequiemStableSwap.sol:RequiemStableSwap",
            "label": "tokenMultipliers",
            "offset": 0,
            "slot": "2",
            "type": "t_array(t_uint256)dyn_storage"
          },
          {
            "astId": 16607,
            "contract": "contracts/RequiemStableSwap.sol:RequiemStableSwap",
            "label": "balances",
            "offset": 0,
            "slot": "3",
            "type": "t_array(t_uint256)dyn_storage"
          },
          {
            "astId": 16610,
            "contract": "contracts/RequiemStableSwap.sol:RequiemStableSwap",
            "label": "fee",
            "offset": 0,
            "slot": "4",
            "type": "t_uint256"
          },
          {
            "astId": 16613,
            "contract": "contracts/RequiemStableSwap.sol:RequiemStableSwap",
            "label": "flashFee",
            "offset": 0,
            "slot": "5",
            "type": "t_uint256"
          },
          {
            "astId": 16616,
            "contract": "contracts/RequiemStableSwap.sol:RequiemStableSwap",
            "label": "adminFee",
            "offset": 0,
            "slot": "6",
            "type": "t_uint256"
          },
          {
            "astId": 16619,
            "contract": "contracts/RequiemStableSwap.sol:RequiemStableSwap",
            "label": "initialA",
            "offset": 0,
            "slot": "7",
            "type": "t_uint256"
          },
          {
            "astId": 16621,
            "contract": "contracts/RequiemStableSwap.sol:RequiemStableSwap",
            "label": "futureA",
            "offset": 0,
            "slot": "8",
            "type": "t_uint256"
          },
          {
            "astId": 16623,
            "contract": "contracts/RequiemStableSwap.sol:RequiemStableSwap",
            "label": "initialATime",
            "offset": 0,
            "slot": "9",
            "type": "t_uint256"
          },
          {
            "astId": 16625,
            "contract": "contracts/RequiemStableSwap.sol:RequiemStableSwap",
            "label": "futureATime",
            "offset": 0,
            "slot": "10",
            "type": "t_uint256"
          },
          {
            "astId": 16627,
            "contract": "contracts/RequiemStableSwap.sol:RequiemStableSwap",
            "label": "defaultWithdrawFee",
            "offset": 0,
            "slot": "11",
            "type": "t_uint256"
          },
          {
            "astId": 16631,
            "contract": "contracts/RequiemStableSwap.sol:RequiemStableSwap",
            "label": "depositTimestamp",
            "offset": 0,
            "slot": "12",
            "type": "t_mapping(t_address,t_uint256)"
          },
          {
            "astId": 16635,
            "contract": "contracts/RequiemStableSwap.sol:RequiemStableSwap",
            "label": "withdrawFeeMultiplier",
            "offset": 0,
            "slot": "13",
            "type": "t_mapping(t_address,t_uint256)"
          }
        ],
        "numberOfBytes": "448"
      },
      "t_uint256": {
        "encoding": "inplace",
        "label": "uint256",
        "numberOfBytes": "32"
      },
      "t_uint8": {
        "encoding": "inplace",
        "label": "uint8",
        "numberOfBytes": "1"
      }
    }
  }
}