{
  "address": "0x1613beB3B2C4f22Ee086B2b38C1476A3cE7f78E8",
  "abi": [
    {
      "anonymous": false,
      "inputs": [
        {
          "indexed": true,
          "internalType": "address",
          "name": "provider",
          "type": "address"
        },
        {
          "indexed": false,
          "internalType": "uint256[]",
          "name": "tokenAmounts",
          "type": "uint256[]"
        },
        {
          "indexed": false,
          "internalType": "uint256[]",
          "name": "fees",
          "type": "uint256[]"
        },
        {
          "indexed": false,
          "internalType": "uint256",
          "name": "invariant",
          "type": "uint256"
        },
        {
          "indexed": false,
          "internalType": "uint256",
          "name": "tokenSupply",
          "type": "uint256"
        }
      ],
      "name": "AddLiquidity",
      "type": "event"
    },
    {
      "anonymous": false,
      "inputs": [
        {
          "indexed": false,
          "internalType": "address",
          "name": "token",
          "type": "address"
        },
        {
          "indexed": false,
          "internalType": "uint256",
          "name": "amount",
          "type": "uint256"
        }
      ],
      "name": "CollectProtocolFee",
      "type": "event"
    },
    {
      "anonymous": false,
      "inputs": [
        {
          "indexed": false,
          "internalType": "address",
          "name": "newController",
          "type": "address"
        }
      ],
      "name": "FeeControllerChanged",
      "type": "event"
    },
    {
      "anonymous": false,
      "inputs": [
        {
          "indexed": false,
          "internalType": "address",
          "name": "newController",
          "type": "address"
        }
      ],
      "name": "FeeDistributorChanged",
      "type": "event"
    },
    {
      "anonymous": false,
      "inputs": [
        {
          "indexed": false,
          "internalType": "uint256",
          "name": "fee",
          "type": "uint256"
        },
        {
          "indexed": false,
          "internalType": "uint256",
          "name": "flashFee",
          "type": "uint256"
        },
        {
          "indexed": false,
          "internalType": "uint256",
          "name": "adminFee",
          "type": "uint256"
        },
        {
          "indexed": false,
          "internalType": "uint256",
          "name": "withdrawFee",
          "type": "uint256"
        }
      ],
      "name": "NewFee",
      "type": "event"
    },
    {
      "anonymous": false,
      "inputs": [
        {
          "indexed": true,
          "internalType": "address",
          "name": "previousOwner",
          "type": "address"
        },
        {
          "indexed": true,
          "internalType": "address",
          "name": "newOwner",
          "type": "address"
        }
      ],
      "name": "OwnershipTransferred",
      "type": "event"
    },
    {
      "anonymous": false,
      "inputs": [
        {
          "indexed": false,
          "internalType": "address",
          "name": "account",
          "type": "address"
        }
      ],
      "name": "Paused",
      "type": "event"
    },
    {
      "anonymous": false,
      "inputs": [
        {
          "indexed": false,
          "internalType": "uint256",
          "name": "oldA",
          "type": "uint256"
        },
        {
          "indexed": false,
          "internalType": "uint256",
          "name": "newA",
          "type": "uint256"
        },
        {
          "indexed": false,
          "internalType": "uint256",
          "name": "initialTime",
          "type": "uint256"
        },
        {
          "indexed": false,
          "internalType": "uint256",
          "name": "futureTime",
          "type": "uint256"
        }
      ],
      "name": "RampA",
      "type": "event"
    },
    {
      "anonymous": false,
      "inputs": [
        {
          "indexed": true,
          "internalType": "address",
          "name": "provider",
          "type": "address"
        },
        {
          "indexed": false,
          "internalType": "uint256[]",
          "name": "tokenAmounts",
          "type": "uint256[]"
        },
        {
          "indexed": false,
          "internalType": "uint256[]",
          "name": "fees",
          "type": "uint256[]"
        },
        {
          "indexed": false,
          "internalType": "uint256",
          "name": "tokenSupply",
          "type": "uint256"
        }
      ],
      "name": "RemoveLiquidity",
      "type": "event"
    },
    {
      "anonymous": false,
      "inputs": [
        {
          "indexed": true,
          "internalType": "address",
          "name": "provider",
          "type": "address"
        },
        {
          "indexed": false,
          "internalType": "uint256[]",
          "name": "tokenAmounts",
          "type": "uint256[]"
        },
        {
          "indexed": false,
          "internalType": "uint256[]",
          "name": "fees",
          "type": "uint256[]"
        },
        {
          "indexed": false,
          "internalType": "uint256",
          "name": "invariant",
          "type": "uint256"
        },
        {
          "indexed": false,
          "internalType": "uint256",
          "name": "tokenSupply",
          "type": "uint256"
        }
      ],
      "name": "RemoveLiquidityImbalance",
      "type": "event"
    },
    {
      "anonymous": false,
      "inputs": [
        {
          "indexed": true,
          "internalType": "address",
          "name": "provider",
          "type": "address"
        },
        {
          "indexed": false,
          "internalType": "uint256",
          "name": "tokenIndex",
          "type": "uint256"
        },
        {
          "indexed": false,
          "internalType": "uint256",
          "name": "tokenAmount",
          "type": "uint256"
        },
        {
          "indexed": false,
          "internalType": "uint256",
          "name": "coinAmount",
          "type": "uint256"
        }
      ],
      "name": "RemoveLiquidityOne",
      "type": "event"
    },
    {
      "anonymous": false,
      "inputs": [
        {
          "indexed": false,
          "internalType": "uint256",
          "name": "A",
          "type": "uint256"
        },
        {
          "indexed": false,
          "internalType": "uint256",
          "name": "timestamp",
          "type": "uint256"
        }
      ],
      "name": "StopRampA",
      "type": "event"
    },
    {
      "anonymous": false,
      "inputs": [
        {
          "indexed": true,
          "internalType": "address",
          "name": "buyer",
          "type": "address"
        },
        {
          "indexed": false,
          "internalType": "uint256",
          "name": "soldId",
          "type": "uint256"
        },
        {
          "indexed": false,
          "internalType": "uint256",
          "name": "tokensSold",
          "type": "uint256"
        },
        {
          "indexed": false,
          "internalType": "uint256",
          "name": "boughtId",
          "type": "uint256"
        },
        {
          "indexed": false,
          "internalType": "uint256",
          "name": "tokensBought",
          "type": "uint256"
        }
      ],
      "name": "TokenExchange",
      "type": "event"
    },
    {
      "anonymous": false,
      "inputs": [
        {
          "indexed": false,
          "internalType": "address",
          "name": "account",
          "type": "address"
        }
      ],
      "name": "Unpaused",
      "type": "event"
    },
    {
      "inputs": [],
      "name": "MAX_A",
      "outputs": [
        {
          "internalType": "uint256",
          "name": "",
          "type": "uint256"
        }
      ],
      "stateMutability": "view",
      "type": "function"
    },
    {
      "inputs": [],
      "name": "MAX_ADMIN_FEE",
      "outputs": [
        {
          "internalType": "uint256",
          "name": "",
          "type": "uint256"
        }
      ],
      "stateMutability": "view",
      "type": "function"
    },
    {
      "inputs": [],
      "name": "MAX_A_CHANGE",
      "outputs": [
        {
          "internalType": "uint256",
          "name": "",
          "type": "uint256"
        }
      ],
      "stateMutability": "view",
      "type": "function"
    },
    {
      "inputs": [],
      "name": "MAX_FLASH_FEE",
      "outputs": [
        {
          "internalType": "uint256",
          "name": "",
          "type": "uint256"
        }
      ],
      "stateMutability": "view",
      "type": "function"
    },
    {
      "inputs": [],
      "name": "MAX_SWAP_FEE",
      "outputs": [
        {
          "internalType": "uint256",
          "name": "",
          "type": "uint256"
        }
      ],
      "stateMutability": "view",
      "type": "function"
    },
    {
      "inputs": [],
      "name": "MAX_WITHDRAW_FEE",
      "outputs": [
        {
          "internalType": "uint256",
          "name": "",
          "type": "uint256"
        }
      ],
      "stateMutability": "view",
      "type": "function"
    },
    {
      "inputs": [],
      "name": "MIN_RAMP_TIME",
      "outputs": [
        {
          "internalType": "uint256",
          "name": "",
          "type": "uint256"
        }
      ],
      "stateMutability": "view",
      "type": "function"
    },
    {
      "inputs": [
        {
          "internalType": "uint256[]",
          "name": "amounts",
          "type": "uint256[]"
        },
        {
          "internalType": "uint256",
          "name": "minMintAmount",
          "type": "uint256"
        },
        {
          "internalType": "uint256",
          "name": "deadline",
          "type": "uint256"
        }
      ],
      "name": "addLiquidity",
      "outputs": [
        {
          "internalType": "uint256",
          "name": "",
          "type": "uint256"
        }
      ],
      "stateMutability": "nonpayable",
      "type": "function"
    },
    {
      "inputs": [
        {
          "internalType": "address",
          "name": "account",
          "type": "address"
        }
      ],
      "name": "calculateCurrentWithdrawFee",
      "outputs": [
        {
          "internalType": "uint256",
          "name": "",
          "type": "uint256"
        }
      ],
      "stateMutability": "view",
      "type": "function"
    },
    {
      "inputs": [
        {
          "internalType": "address",
          "name": "account",
          "type": "address"
        },
        {
          "internalType": "uint256",
          "name": "amount",
          "type": "uint256"
        }
      ],
      "name": "calculateRemoveLiquidity",
      "outputs": [
        {
          "internalType": "uint256[]",
          "name": "",
          "type": "uint256[]"
        }
      ],
      "stateMutability": "view",
      "type": "function"
    },
    {
      "inputs": [
        {
          "internalType": "address",
          "name": "account",
          "type": "address"
        },
        {
          "internalType": "uint256",
          "name": "amount",
          "type": "uint256"
        },
        {
          "internalType": "uint8",
          "name": "index",
          "type": "uint8"
        }
      ],
      "name": "calculateRemoveLiquidityOneToken",
      "outputs": [
        {
          "internalType": "uint256",
          "name": "",
          "type": "uint256"
        }
      ],
      "stateMutability": "view",
      "type": "function"
    },
    {
      "inputs": [
        {
          "internalType": "uint8",
          "name": "inIndex",
          "type": "uint8"
        },
        {
          "internalType": "uint8",
          "name": "outIndex",
          "type": "uint8"
        },
        {
          "internalType": "uint256",
          "name": "inAmount",
          "type": "uint256"
        }
      ],
      "name": "calculateSwap",
      "outputs": [
        {
          "internalType": "uint256",
          "name": "",
          "type": "uint256"
        }
      ],
      "stateMutability": "view",
      "type": "function"
    },
    {
      "inputs": [
        {
          "internalType": "address",
          "name": "tokenIn",
          "type": "address"
        },
        {
          "internalType": "address",
          "name": "tokenOut",
          "type": "address"
        },
        {
          "internalType": "uint256",
          "name": "amountIn",
          "type": "uint256"
        }
      ],
      "name": "calculateSwapGivenIn",
      "outputs": [
        {
          "internalType": "uint256",
          "name": "",
          "type": "uint256"
        }
      ],
      "stateMutability": "view",
      "type": "function"
    },
    {
      "inputs": [
        {
          "internalType": "address",
          "name": "tokenIn",
          "type": "address"
        },
        {
          "internalType": "address",
          "name": "tokenOut",
          "type": "address"
        },
        {
          "internalType": "uint256",
          "name": "amountOut",
          "type": "uint256"
        }
      ],
      "name": "calculateSwapGivenOut",
      "outputs": [
        {
          "internalType": "uint256",
          "name": "",
          "type": "uint256"
        }
      ],
      "stateMutability": "view",
      "type": "function"
    },
    {
      "inputs": [
        {
          "internalType": "uint256[]",
          "name": "amounts",
          "type": "uint256[]"
        },
        {
          "internalType": "bool",
          "name": "deposit",
          "type": "bool"
        }
      ],
      "name": "calculateTokenAmount",
      "outputs": [
        {
          "internalType": "uint256",
          "name": "",
          "type": "uint256"
        }
      ],
      "stateMutability": "view",
      "type": "function"
    },
    {
      "inputs": [],
      "name": "feeController",
      "outputs": [
        {
          "internalType": "address",
          "name": "",
          "type": "address"
        }
      ],
      "stateMutability": "view",
      "type": "function"
    },
    {
      "inputs": [],
      "name": "feeDistributor",
      "outputs": [
        {
          "internalType": "address",
          "name": "",
          "type": "address"
        }
      ],
      "stateMutability": "view",
      "type": "function"
    },
    {
      "inputs": [
        {
          "internalType": "contract IFlashLoanRecipient",
          "name": "recipient",
          "type": "address"
        },
        {
          "internalType": "contract IERC20[]",
          "name": "tokens",
          "type": "address[]"
        },
        {
          "internalType": "uint256[]",
          "name": "amounts",
          "type": "uint256[]"
        },
        {
          "internalType": "bytes",
          "name": "userData",
          "type": "bytes"
        }
      ],
      "name": "flashLoan",
      "outputs": [],
      "stateMutability": "nonpayable",
      "type": "function"
    },
    {
      "inputs": [],
      "name": "getA",
      "outputs": [
        {
          "internalType": "uint256",
          "name": "",
          "type": "uint256"
        }
      ],
      "stateMutability": "view",
      "type": "function"
    },
    {
      "inputs": [],
      "name": "getAPrecise",
      "outputs": [
        {
          "internalType": "uint256",
          "name": "",
          "type": "uint256"
        }
      ],
      "stateMutability": "view",
      "type": "function"
    },
    {
      "inputs": [
        {
          "internalType": "uint8",
          "name": "index",
          "type": "uint8"
        }
      ],
      "name": "getAdminBalance",
      "outputs": [
        {
          "internalType": "uint256",
          "name": "",
          "type": "uint256"
        }
      ],
      "stateMutability": "view",
      "type": "function"
    },
    {
      "inputs": [],
      "name": "getAdminBalances",
      "outputs": [
        {
          "internalType": "uint256[]",
          "name": "adminBalances",
          "type": "uint256[]"
        }
      ],
      "stateMutability": "view",
      "type": "function"
    },
    {
      "inputs": [],
      "name": "getLpToken",
      "outputs": [
        {
          "internalType": "contract IERC20",
          "name": "",
          "type": "address"
        }
      ],
      "stateMutability": "view",
      "type": "function"
    },
    {
      "inputs": [],
      "name": "getNumberOfTokens",
      "outputs": [
        {
          "internalType": "uint256",
          "name": "",
          "type": "uint256"
        }
      ],
      "stateMutability": "view",
      "type": "function"
    },
    {
      "inputs": [
        {
          "internalType": "uint8",
          "name": "index",
          "type": "uint8"
        }
      ],
      "name": "getToken",
      "outputs": [
        {
          "internalType": "contract IERC20",
          "name": "",
          "type": "address"
        }
      ],
      "stateMutability": "view",
      "type": "function"
    },
    {
      "inputs": [
        {
          "internalType": "uint8",
          "name": "index",
          "type": "uint8"
        }
      ],
      "name": "getTokenBalance",
      "outputs": [
        {
          "internalType": "uint256",
          "name": "",
          "type": "uint256"
        }
      ],
      "stateMutability": "view",
      "type": "function"
    },
    {
      "inputs": [],
      "name": "getTokenBalances",
      "outputs": [
        {
          "internalType": "uint256[]",
          "name": "",
          "type": "uint256[]"
        }
      ],
      "stateMutability": "view",
      "type": "function"
    },
    {
      "inputs": [
        {
          "internalType": "address",
          "name": "token",
          "type": "address"
        }
      ],
      "name": "getTokenIndex",
      "outputs": [
        {
          "internalType": "uint8",
          "name": "index",
          "type": "uint8"
        }
      ],
      "stateMutability": "view",
      "type": "function"
    },
    {
      "inputs": [],
      "name": "getTokenPrecisionMultipliers",
      "outputs": [
        {
          "internalType": "uint256[]",
          "name": "",
          "type": "uint256[]"
        }
      ],
      "stateMutability": "view",
      "type": "function"
    },
    {
      "inputs": [],
      "name": "getTokens",
      "outputs": [
        {
          "internalType": "contract IERC20[]",
          "name": "",
          "type": "address[]"
        }
      ],
      "stateMutability": "view",
      "type": "function"
    },
    {
      "inputs": [],
      "name": "getVirtualPrice",
      "outputs": [
        {
          "internalType": "uint256",
          "name": "",
          "type": "uint256"
        }
      ],
      "stateMutability": "view",
      "type": "function"
    },
    {
      "inputs": [
        {
          "internalType": "address[]",
          "name": "_coins",
          "type": "address[]"
        },
        {
          "internalType": "uint8[]",
          "name": "_decimals",
          "type": "uint8[]"
        },
        {
          "internalType": "string",
          "name": "lpTokenName",
          "type": "string"
        },
        {
          "internalType": "string",
          "name": "lpTokenSymbol",
          "type": "string"
        },
        {
          "internalType": "uint256",
          "name": "_A",
          "type": "uint256"
        },
        {
          "internalType": "uint256",
          "name": "_fee",
          "type": "uint256"
        },
        {
          "internalType": "uint256",
          "name": "_flashFee",
          "type": "uint256"
        },
        {
          "internalType": "uint256",
          "name": "_adminFee",
          "type": "uint256"
        },
        {
          "internalType": "uint256",
          "name": "_withdrawFee",
          "type": "uint256"
        },
        {
          "internalType": "address",
          "name": "_feeDistributor",
          "type": "address"
        }
      ],
      "name": "initialize",
      "outputs": [],
      "stateMutability": "nonpayable",
      "type": "function"
    },
    {
      "inputs": [
        {
          "internalType": "address",
          "name": "tokenIn",
          "type": "address"
        },
        {
          "internalType": "address",
          "name": "tokenOut",
          "type": "address"
        },
        {
          "internalType": "uint256",
          "name": "amountIn",
          "type": "uint256"
        },
        {
          "internalType": "uint256",
          "name": "amountOut",
          "type": "uint256"
        },
        {
          "internalType": "address",
          "name": "to",
          "type": "address"
        }
      ],
      "name": "onSwap",
      "outputs": [],
      "stateMutability": "nonpayable",
      "type": "function"
    },
    {
      "inputs": [
        {
          "internalType": "address",
          "name": "tokenIn",
          "type": "address"
        },
        {
          "internalType": "address",
          "name": "tokenOut",
          "type": "address"
        },
        {
          "internalType": "uint256",
          "name": "amountIn",
          "type": "uint256"
        },
        {
          "internalType": "uint256",
          "name": "amountOutMin",
          "type": "uint256"
        },
        {
          "internalType": "address",
          "name": "to",
          "type": "address"
        }
      ],
      "name": "onSwapGivenIn",
      "outputs": [
        {
          "internalType": "uint256",
          "name": "",
          "type": "uint256"
        }
      ],
      "stateMutability": "nonpayable",
      "type": "function"
    },
    {
      "inputs": [
        {
          "internalType": "address",
          "name": "tokenIn",
          "type": "address"
        },
        {
          "internalType": "address",
          "name": "tokenOut",
          "type": "address"
        },
        {
          "internalType": "uint256",
          "name": "amountOut",
          "type": "uint256"
        },
        {
          "internalType": "uint256",
          "name": "amountInMax",
          "type": "uint256"
        },
        {
          "internalType": "address",
          "name": "to",
          "type": "address"
        }
      ],
      "name": "onSwapGivenOut",
      "outputs": [
        {
          "internalType": "uint256",
          "name": "",
          "type": "uint256"
        }
      ],
      "stateMutability": "nonpayable",
      "type": "function"
    },
    {
      "inputs": [],
      "name": "owner",
      "outputs": [
        {
          "internalType": "address",
          "name": "",
          "type": "address"
        }
      ],
      "stateMutability": "view",
      "type": "function"
    },
    {
      "inputs": [],
      "name": "pause",
      "outputs": [],
      "stateMutability": "nonpayable",
      "type": "function"
    },
    {
      "inputs": [],
      "name": "paused",
      "outputs": [
        {
          "internalType": "bool",
          "name": "",
          "type": "bool"
        }
      ],
      "stateMutability": "view",
      "type": "function"
    },
    {
      "inputs": [
        {
          "internalType": "uint256",
          "name": "futureA",
          "type": "uint256"
        },
        {
          "internalType": "uint256",
          "name": "futureATime",
          "type": "uint256"
        }
      ],
      "name": "rampA",
      "outputs": [],
      "stateMutability": "nonpayable",
      "type": "function"
    },
    {
      "inputs": [
        {
          "internalType": "uint256",
          "name": "lpAmount",
          "type": "uint256"
        },
        {
          "internalType": "uint256[]",
          "name": "minAmounts",
          "type": "uint256[]"
        },
        {
          "internalType": "uint256",
          "name": "deadline",
          "type": "uint256"
        }
      ],
      "name": "removeLiquidity",
      "outputs": [
        {
          "internalType": "uint256[]",
          "name": "",
          "type": "uint256[]"
        }
      ],
      "stateMutability": "nonpayable",
      "type": "function"
    },
    {
      "inputs": [
        {
          "internalType": "uint256[]",
          "name": "amounts",
          "type": "uint256[]"
        },
        {
          "internalType": "uint256",
          "name": "maxBurnAmount",
          "type": "uint256"
        },
        {
          "internalType": "uint256",
          "name": "deadline",
          "type": "uint256"
        }
      ],
      "name": "removeLiquidityImbalance",
      "outputs": [
        {
          "internalType": "uint256",
          "name": "",
          "type": "uint256"
        }
      ],
      "stateMutability": "nonpayable",
      "type": "function"
    },
    {
      "inputs": [
        {
          "internalType": "uint256",
          "name": "lpAmount",
          "type": "uint256"
        },
        {
          "internalType": "uint8",
          "name": "index",
          "type": "uint8"
        },
        {
          "internalType": "uint256",
          "name": "minAmount",
          "type": "uint256"
        },
        {
          "internalType": "uint256",
          "name": "deadline",
          "type": "uint256"
        }
      ],
      "name": "removeLiquidityOneToken",
      "outputs": [
        {
          "internalType": "uint256",
          "name": "",
          "type": "uint256"
        }
      ],
      "stateMutability": "nonpayable",
      "type": "function"
    },
    {
      "inputs": [],
      "name": "renounceOwnership",
      "outputs": [],
      "stateMutability": "nonpayable",
      "type": "function"
    },
    {
      "inputs": [
        {
          "internalType": "uint256",
          "name": "newSwapFee",
          "type": "uint256"
        },
        {
          "internalType": "uint256",
          "name": "newFlashFee",
          "type": "uint256"
        },
        {
          "internalType": "uint256",
          "name": "newAdminFee",
          "type": "uint256"
        },
        {
          "internalType": "uint256",
          "name": "newWithdrawFee",
          "type": "uint256"
        }
      ],
      "name": "setFee",
      "outputs": [],
      "stateMutability": "nonpayable",
      "type": "function"
    },
    {
      "inputs": [
        {
          "internalType": "address",
          "name": "_feeController",
          "type": "address"
        }
      ],
      "name": "setFeeController",
      "outputs": [],
      "stateMutability": "nonpayable",
      "type": "function"
    },
    {
      "inputs": [
        {
          "internalType": "address",
          "name": "_feeDistributor",
          "type": "address"
        }
      ],
      "name": "setFeeDistributor",
      "outputs": [],
      "stateMutability": "nonpayable",
      "type": "function"
    },
    {
      "inputs": [],
      "name": "stopRampA",
      "outputs": [],
      "stateMutability": "nonpayable",
      "type": "function"
    },
    {
      "inputs": [
        {
          "internalType": "uint8",
          "name": "fromIndex",
          "type": "uint8"
        },
        {
          "internalType": "uint8",
          "name": "toIndex",
          "type": "uint8"
        },
        {
          "internalType": "uint256",
          "name": "inAmount",
          "type": "uint256"
        },
        {
          "internalType": "uint256",
          "name": "minOutAmount",
          "type": "uint256"
        },
        {
          "internalType": "address",
          "name": "to",
          "type": "address"
        },
        {
          "internalType": "uint256",
          "name": "deadline",
          "type": "uint256"
        }
      ],
      "name": "swap",
      "outputs": [
        {
          "internalType": "uint256",
          "name": "",
          "type": "uint256"
        }
      ],
      "stateMutability": "nonpayable",
      "type": "function"
    },
    {
      "inputs": [],
      "name": "swapStorage",
      "outputs": [
        {
          "internalType": "contract LPToken",
          "name": "lpToken",
          "type": "address"
        },
        {
          "internalType": "uint256",
          "name": "fee",
          "type": "uint256"
        },
        {
          "internalType": "uint256",
          "name": "flashFee",
          "type": "uint256"
        },
        {
          "internalType": "uint256",
          "name": "adminFee",
          "type": "uint256"
        },
        {
          "internalType": "uint256",
          "name": "initialA",
          "type": "uint256"
        },
        {
          "internalType": "uint256",
          "name": "futureA",
          "type": "uint256"
        },
        {
          "internalType": "uint256",
          "name": "initialATime",
          "type": "uint256"
        },
        {
          "internalType": "uint256",
          "name": "futureATime",
          "type": "uint256"
        },
        {
          "internalType": "uint256",
          "name": "defaultWithdrawFee",
          "type": "uint256"
        }
      ],
      "stateMutability": "view",
      "type": "function"
    },
    {
      "inputs": [
        {
          "internalType": "address",
          "name": "",
          "type": "address"
        }
      ],
      "name": "tokenIndexes",
      "outputs": [
        {
          "internalType": "uint8",
          "name": "",
          "type": "uint8"
        }
      ],
      "stateMutability": "view",
      "type": "function"
    },
    {
      "inputs": [
        {
          "internalType": "address",
          "name": "newOwner",
          "type": "address"
        }
      ],
      "name": "transferOwnership",
      "outputs": [],
      "stateMutability": "nonpayable",
      "type": "function"
    },
    {
      "inputs": [],
      "name": "unpause",
      "outputs": [],
      "stateMutability": "nonpayable",
      "type": "function"
    },
    {
      "inputs": [
        {
          "internalType": "address",
          "name": "recipient",
          "type": "address"
        },
        {
          "internalType": "uint256",
          "name": "transferAmount",
          "type": "uint256"
        }
      ],
      "name": "updateUserWithdrawFee",
      "outputs": [],
      "stateMutability": "nonpayable",
      "type": "function"
    },
    {
      "inputs": [],
      "name": "withdrawAdminFee",
      "outputs": [],
      "stateMutability": "nonpayable",
      "type": "function"
    }
  ],
  "transactionHash": "0x56b37269a53761ec42df3818bf569b6ede506878d80dfc171a15be2dd503ccb9",
  "args": [],
  "solcInputHash": "238606047f22772c3f8250a1182ecfba",
  "bytecode": "0x60806040523480156200001157600080fd5b506200001d3362000034565b6000805460ff60a01b191690556001805562000084565b600080546001600160a01b038381166001600160a01b0319831681178455604051919092169283917f8be0079c531659141344cd1fd0a4f28419497f9722a3daafe3b4186f6b6457e09190a35050565b61583e80620000946000396000f3fe60806040523480156200001157600080fd5b5060043610620003a95760003560e01c806384cdd9bc11620001ed578063c4db7fa01162000119578063e6ab280611620000af578063f2fde38b1162000086578063f2fde38b1462000818578063f3de0362146200082f578063fe49abe3146200083c578063ff68562c146200074857600080fd5b8063e6ab280614620007e1578063e9255bae14620007f8578063efeecb51146200080f57600080fd5b8063d41f656811620000f0578063d41f656814620007c3578063d46300fd14620007cd578063d4b0de2f1462000748578063e25aa5fa14620007d757600080fd5b8063c4db7fa0146200078b578063cc56fd431462000795578063ccfc2e8d14620007ac57600080fd5b8063a2a957bb116200018f578063ab3d85441162000166578063ab3d85441462000748578063ab5ac0611462000754578063bfd3956b146200075d578063c00c125c146200077457600080fd5b8063a2a957bb1462000701578063a95b089f1462000718578063aa6ca808146200072f57600080fd5b806391ceb3eb11620001c457806391ceb3eb14620006c957806398899f4014620006e0578063a1dc903114620006f757600080fd5b806384cdd9bc14620006895780638554a7d414620006a05780638da5cb5b14620006b757600080fd5b80634a1b0d5711620002d957806366c0bd24116200026f5780637c61e56111620002465780637c61e561146200063f5780638214f5a4146200065657806382b8660014620006685780638456cb59146200067f57600080fd5b806366c0bd24146200060a5780636999b3771462000621578063715018a6146200063557600080fd5b8063593d132c11620002b0578063593d132c146200053b5780635c38449e14620005525780635c975abb14620005695780635fd65f0f146200058757600080fd5b80634a1b0d5714620004f65780634ac00e03146200050d5780634d49e87d146200052457600080fd5b806319762b73116200034f5780633969841511620003265780633969841514620004b35780633e3a156014620004be5780633ed4c67814620004d55780633f4ba83a14620004ec57600080fd5b806319762b73146200046c57806331cd52b0146200048557806332fd5493146200049c57600080fd5b80630d43e8ad11620003845780630d43e8ad146200040f5780630e6d8bce146200043c57806318f52ce2146200045357600080fd5b806304bc3b1c14620003ae57806306e9481c14620003eb5780630ba819591462000405575b600080fd5b620003d4620003bf36600462003684565b60136020526000908152604090205460ff1681565b60405160ff90911681526020015b60405180910390f35b620003f66201518081565b604051908152602001620003e2565b620003f662000846565b60115462000423906001600160a01b031681565b6040516001600160a01b039091168152602001620003e2565b620003f66200044d366004620036a4565b620008c6565b6200045d62000a5e565b604051620003e291906200370a565b620004836200047d36600462003933565b62000b71565b005b6200045d6200049636600462003a94565b620012e3565b62000483620004ad366004620036a4565b62001428565b620003f6620f424081565b620003f6620004cf36600462003ae8565b620015b8565b62000483620004e636600462003684565b62001721565b6200048362001813565b620003f66200050736600462003684565b6200187b565b620003f66200051e366004620036a4565b62001890565b620003f66200053536600462003b26565b620019d7565b620004836200054c36600462003b78565b62001b59565b620004836200056336600462003b9b565b62001e68565b600054600160a01b900460ff166040519015158152602001620003e2565b600454600754600854600954600a54600b54600c54600d54600e54620005bb986001600160a01b0316979695949392919089565b604080516001600160a01b03909a168a5260208a0198909852968801959095526060870193909352608086019190915260a085015260c084015260e083015261010082015261012001620003e2565b620003d46200061b36600462003684565b62001fa8565b60125462000423906001600160a01b031681565b6200048362002048565b6200045d6200065036600462003ca9565b620020b0565b6004546001600160a01b031662000423565b620004236200067936600462003cd8565b62002164565b620004836200219d565b620003f66200069a36600462003b26565b62002203565b620003f6620006b136600462003cd8565b62002342565b6000546001600160a01b031662000423565b620003f6620006da36600462003cd8565b620023c5565b620003f6620006f136600462003cf6565b620023f4565b6200045d620024af565b620004836200071236600462003d39565b6200250b565b620003f66200072936600462003d6c565b620026e7565b620007396200273b565b604051620003e2919062003dad565b620003f66305f5e10081565b620003f6600a81565b620003f66200076e36600462003df0565b620027a1565b620004836200078536600462003ca9565b62002956565b6200048362002a4a565b620003f6620007a636600462003e5a565b62002bc3565b62000483620007bd36600462003684565b62002c51565b6200045d62002d3d565b620003f662002d98565b620003f662002ded565b620003f6620007f236600462003eaf565b62002e42565b620003f66200080936600462003e5a565b62002e9e565b600354620003f6565b620004836200082936600462003684565b62002f13565b620003f66402540be40081565b6200048362002ffb565b60405163a303558560e01b81526003600482015260009073a82fF9aFd8f496c3d6ac40E2a0F282E47488CFc99063a3035585906024015b602060405180830381865af41580156200089b573d6000803e3d6000fd5b505050506040513d601f19601f82011682018060405250810190620008c1919062003f3c565b905090565b60008054600160a01b900460ff16156200091a5760405162461bcd60e51b815260206004820152601060248201526f14185d5cd8589b194e881c185d5cd95960821b60448201526064015b60405180910390fd5b600260015414156200096f5760405162461bcd60e51b815260206004820152601f60248201527f5265656e7472616e637947756172643a207265656e7472616e742063616c6c00604482015260640162000911565b60026001556001600160a01b03868116600090815260136020526040808220548884168352918190205490517f8e6da7b60000000000000000000000000000000000000000000000000000000081526003600482015260ff928316602482015291166044820152606481018690526084810185905290831660a482015273a82fF9aFd8f496c3d6ac40E2a0F282E47488CFc990638e6da7b69060c4015b602060405180830381865af415801562000a2a573d6000803e3d6000fd5b505050506040513d601f19601f8201168201806040525081019062000a50919062003f3c565b600180559695505050505050565b6003546060908067ffffffffffffffff81111562000a805762000a8062003750565b60405190808252806020026020018201604052801562000aaa578160200160208202803683370190505b50915060005b8181101562000b6c5760405163e2eba89b60e01b8152600360048201526024810182905273a82fF9aFd8f496c3d6ac40E2a0F282E47488CFc99063e2eba89b90604401602060405180830381865af415801562000b11573d6000803e3d6000fd5b505050506040513d601f19601f8201168201806040525081019062000b37919062003f3c565b83828151811062000b4c5762000b4c62003f56565b60209081029190910101528062000b638162003f82565b91505062000ab0565b505090565b6000546001600160a01b0316331462000bcd5760405162461bcd60e51b815260206004820181905260248201527f4f776e61626c653a2063616c6c6572206973206e6f7420746865206f776e6572604482015260640162000911565b600254610100900460ff168062000be7575060025460ff16155b62000c5b5760405162461bcd60e51b815260206004820152602e60248201527f496e697469616c697a61626c653a20636f6e747261637420697320616c72656160448201527f647920696e697469616c697a6564000000000000000000000000000000000000606482015260840162000911565b600254610100900460ff1615801562000c7e576002805461ffff19166101011790555b89518b511462000cd15760405162461bcd60e51b815260206004820152601360248201527f636f696e734c20213d20646563696d616c734c00000000000000000000000000604482015260640162000911565b6001600160a01b03821662000d295760405162461bcd60e51b815260206004820152601660248201527f6665654469737472696275746f72203d20656d70747900000000000000000000604482015260640162000911565b8a5160008167ffffffffffffffff81111562000d495762000d4962003750565b60405190808252806020026020018201604052801562000d73578160200160208202803683370190505b50905060008267ffffffffffffffff81111562000d945762000d9462003750565b60405190808252806020026020018201604052801562000dbe578160200160208202803683370190505b50905060005b8381101562000fde5760006001600160a01b03168f828151811062000ded5762000ded62003f56565b60200260200101516001600160a01b0316141562000e4e5760405162461bcd60e51b815260206004820152601360248201527f696e76616c6964546f6b656e4164647265737300000000000000000000000000604482015260640162000911565b60128e828151811062000e655762000e6562003f56565b602002602001015160ff16111562000ec05760405162461bcd60e51b815260206004820152600f60248201527f696e76616c6964446563696d616c730000000000000000000000000000000000604482015260640162000911565b8d818151811062000ed55762000ed562003f56565b602002602001015160ff16601262000eee919062003fa0565b62000efb90600a620040b7565b83828151811062000f105762000f1062003f56565b6020026020010181815250508e818151811062000f315762000f3162003f56565b602002602001015182828151811062000f4e5762000f4e62003f56565b60200260200101906001600160a01b031690816001600160a01b031681525050806013600084848151811062000f885762000f8862003f56565b60200260200101516001600160a01b03166001600160a01b0316815260200190815260200160002060006101000a81548160ff021916908360ff160217905550808062000fd59062003f82565b91505062000dc4565b50620f42408a10620010335760405162461bcd60e51b815260206004820152600660248201527f3e206d6178410000000000000000000000000000000000000000000000000000604482015260640162000911565b6305f5e100891115620010895760405162461bcd60e51b815260206004820152600960248201527f3e206d6178534665650000000000000000000000000000000000000000000000604482015260640162000911565b6305f5e100881115620010df5760405162461bcd60e51b815260206004820152600960248201527f3e206d6178464665650000000000000000000000000000000000000000000000604482015260640162000911565b6402540be400871115620011365760405162461bcd60e51b815260206004820152600960248201527f3e206d6178414665650000000000000000000000000000000000000000000000604482015260640162000911565b6305f5e1008611156200118c5760405162461bcd60e51b815260206004820152600960248201527f3e206d6178574665650000000000000000000000000000000000000000000000604482015260640162000911565b8b8b6040516200119c9062003594565b620011a992919062004122565b604051809103906000f080158015620011c6573d6000803e3d6000fd5b50600480546001600160a01b0319166001600160a01b03929092169190911790558267ffffffffffffffff81111562001203576200120362003750565b6040519080825280602002602001820160405280156200122d578160200160208202803683370190505b5080516200124491600691602090910190620035a2565b5081516200125a906005906020850190620035a2565b50805162001270906003906020840190620035f2565b506200127e60648b62004154565b600a556200128e60648b62004154565b600b55505050600786905560088590556009849055600e839055601180546001600160a01b0319166001600160a01b0384161790558015620012d6576002805461ff00191690555b5050505050505050505050565b6060600260015414156200133a5760405162461bcd60e51b815260206004820152601f60248201527f5265656e7472616e637947756172643a207265656e7472616e742063616c6c00604482015260640162000911565b600260015581428110156200137c5760405162461bcd60e51b81526020600482015260076024820152661d1a5b595bdd5d60ca1b604482015260640162000911565b6040517fc685696c00000000000000000000000000000000000000000000000000000000815273a82fF9aFd8f496c3d6ac40E2a0F282E47488CFc99063c685696c90620013d39060039089908990600401620041b3565b600060405180830381865af4158015620013f1573d6000803e3d6000fd5b505050506040513d6000823e601f3d908101601f191682016040526200141b9190810190620041d4565b6001805595945050505050565b600054600160a01b900460ff1615620014775760405162461bcd60e51b815260206004820152601060248201526f14185d5cd8589b194e881c185d5cd95960821b604482015260640162000911565b60026001541415620014cc5760405162461bcd60e51b815260206004820152601f60248201527f5265656e7472616e637947756172643a207265656e7472616e742063616c6c00604482015260640162000911565b60026001556001600160a01b03858116600090815260136020526040808220548784168352918190205490517fce055b8d0000000000000000000000000000000000000000000000000000000081526003600482015260ff928316602482015291166044820152606481018590526084810184905290821660a482015273a82fF9aFd8f496c3d6ac40E2a0F282E47488CFc99063ce055b8d9060c401602060405180830381865af415801562001586573d6000803e3d6000fd5b505050506040513d601f19601f82011682018060405250810190620015ac919062003f3c565b50506001805550505050565b6000600260015414156200160f5760405162461bcd60e51b815260206004820152601f60248201527f5265656e7472616e637947756172643a207265656e7472616e742063616c6c00604482015260640162000911565b6002600155600054600160a01b900460ff1615620016635760405162461bcd60e51b815260206004820152601060248201526f14185d5cd8589b194e881c185d5cd95960821b604482015260640162000911565b8180421115620016a05760405162461bcd60e51b81526020600482015260076024820152661d1a5b595bdd5d60ca1b604482015260640162000911565b6040517f2bfe30d0000000000000000000000000000000000000000000000000000000008152600360048201526024810187905260ff861660448201526064810185905273a82fF9aFd8f496c3d6ac40E2a0F282E47488CFc990632bfe30d090608401602060405180830381865af415801562000a2a573d6000803e3d6000fd5b6000546001600160a01b031633146200177d5760405162461bcd60e51b815260206004820181905260248201527f4f776e61626c653a2063616c6c6572206973206e6f7420746865206f776e6572604482015260640162000911565b6001600160a01b038116620017be5760405162461bcd60e51b815260040162000911906020808252600490820152637a65726f60e01b604082015260600190565b601280546001600160a01b0319166001600160a01b0383169081179091556040519081527f4c3f3b9852ccceadd50f16518f348e2624c8f0240acdd5bc81911c0fba83ec67906020015b60405180910390a150565b6000546001600160a01b031633146200186f5760405162461bcd60e51b815260206004820181905260248201527f4f776e61626c653a2063616c6c6572206973206e6f7420746865206f776e6572604482015260640162000911565b62001879620031e2565b565b60006200188a6003836200328a565b92915050565b60008054600160a01b900460ff1615620018e05760405162461bcd60e51b815260206004820152601060248201526f14185d5cd8589b194e881c185d5cd95960821b604482015260640162000911565b60026001541415620019355760405162461bcd60e51b815260206004820152601f60248201527f5265656e7472616e637947756172643a207265656e7472616e742063616c6c00604482015260640162000911565b60026001556001600160a01b03868116600090815260136020526040808220548884168352918190205490517f0da350f60000000000000000000000000000000000000000000000000000000081526003600482015260ff928316602482015291166044820152606481018690526084810185905290831660a482015273a82fF9aFd8f496c3d6ac40E2a0F282E47488CFc990630da350f69060c40162000a0c565b60008054600160a01b900460ff161562001a275760405162461bcd60e51b815260206004820152601060248201526f14185d5cd8589b194e881c185d5cd95960821b604482015260640162000911565b6002600154141562001a7c5760405162461bcd60e51b815260206004820152601f60248201527f5265656e7472616e637947756172643a207265656e7472616e742063616c6c00604482015260640162000911565b6002600155814281101562001abe5760405162461bcd60e51b81526020600482015260076024820152661d1a5b595bdd5d60ca1b604482015260640162000911565b6040517f7a6cba3c00000000000000000000000000000000000000000000000000000000815273a82fF9aFd8f496c3d6ac40E2a0F282E47488CFc990637a6cba3c9062001b1590600390899089906004016200426e565b602060405180830381865af415801562001b33573d6000803e3d6000fd5b505050506040513d601f19601f820116820180604052508101906200141b919062003f3c565b6000546001600160a01b0316331462001bb55760405162461bcd60e51b815260206004820181905260248201527f4f776e61626c653a2063616c6c6572206973206e6f7420746865206f776e6572604482015260640162000911565b600c5462001bc7906201518062004299565b42101562001c185760405162461bcd60e51b815260206004820152600760248201527f3c2072616d704400000000000000000000000000000000000000000000000000604482015260640162000911565b62001c27620151804262004299565b81101562001c785760405162461bcd60e51b815260206004820152600a60248201527f3c206d696e52616d705400000000000000000000000000000000000000000000604482015260640162000911565b81600010801562001c8b5750620f424082105b62001cd95760405162461bcd60e51b815260206004820152600a60248201527f6f75744f6652616e676500000000000000000000000000000000000000000000604482015260640162000911565b60405163a303558560e01b81526003600482015260009073a82fF9aFd8f496c3d6ac40E2a0F282E47488CFc99063a303558590602401602060405180830381865af415801562001d2d573d6000803e3d6000fd5b505050506040513d601f19601f8201168201806040525081019062001d53919062003f3c565b9050600062001d6460648562004154565b90508181101562001dbc578162001d7d600a8362004154565b101562001db65760405162461bcd60e51b81526020600482015260066024820152653e206d61784360d01b604482015260640162000911565b62001e03565b62001dc9600a8362004154565b81111562001e035760405162461bcd60e51b81526020600482015260066024820152653e206d61784360d01b604482015260640162000911565b600a829055600b81905542600c819055600d849055604080518481526020810184905290810191909152606081018490527fa2b71ec6df949300b59aab36b55e189697b750119dd349fcfa8c0f779e83c254906080015b60405180910390a150505050565b6002600154141562001ebd5760405162461bcd60e51b815260206004820152601f60248201527f5265656e7472616e637947756172643a207265656e7472616e742063616c6c00604482015260640162000911565b6002600155600054600160a01b900460ff161562001f115760405162461bcd60e51b815260206004820152601060248201526f14185d5cd8589b194e881c185d5cd95960821b604482015260640162000911565b6040517fc823250100000000000000000000000000000000000000000000000000000000815273a82fF9aFd8f496c3d6ac40E2a0F282E47488CFc99063c82325019062001f6c906003908890889088908890600401620042b4565b60006040518083038186803b15801562001f8557600080fd5b505af415801562001f9a573d6000803e3d6000fd5b505060018055505050505050565b6001600160a01b0381166000818152601360205260409020546003805460ff90921692918390811062001fdf5762001fdf62003f56565b6000918252602090912001546001600160a01b031614620020435760405162461bcd60e51b815260206004820152600d60248201527f746f6b656e4e6f74466f756e6400000000000000000000000000000000000000604482015260640162000911565b919050565b6000546001600160a01b03163314620020a45760405162461bcd60e51b815260206004820181905260248201527f4f776e61626c653a2063616c6c6572206973206e6f7420746865206f776e6572604482015260640162000911565b62001879600062003344565b6040517ffa563597000000000000000000000000000000000000000000000000000000008152600360048201526001600160a01b03831660248201526044810182905260609073a82fF9aFd8f496c3d6ac40E2a0F282E47488CFc99063fa56359790606401600060405180830381865af415801562002133573d6000803e3d6000fd5b505050506040513d6000823e601f3d908101601f191682016040526200215d9190810190620041d4565b9392505050565b600060036000018260ff168154811062002182576200218262003f56565b6000918252602090912001546001600160a01b031692915050565b6000546001600160a01b03163314620021f95760405162461bcd60e51b815260206004820181905260248201527f4f776e61626c653a2063616c6c6572206973206e6f7420746865206f776e6572604482015260640162000911565b6200187962003394565b6000600260015414156200225a5760405162461bcd60e51b815260206004820152601f60248201527f5265656e7472616e637947756172643a207265656e7472616e742063616c6c00604482015260640162000911565b6002600155600054600160a01b900460ff1615620022ae5760405162461bcd60e51b815260206004820152601060248201526f14185d5cd8589b194e881c185d5cd95960821b604482015260640162000911565b8180421115620022eb5760405162461bcd60e51b81526020600482015260076024820152661d1a5b595bdd5d60ca1b604482015260640162000911565b6040517fc8344c0600000000000000000000000000000000000000000000000000000000815273a82fF9aFd8f496c3d6ac40E2a0F282E47488CFc99063c8344c069062001b1590600390899089906004016200426e565b60405163e2eba89b60e01b81526003600482015260ff8216602482015260009073a82fF9aFd8f496c3d6ac40E2a0F282E47488CFc99063e2eba89b90604401602060405180830381865af41580156200239f573d6000803e3d6000fd5b505050506040513d601f19601f820116820180604052508101906200188a919062003f3c565b6000600380018260ff1681548110620023e257620023e262003f56565b90600052602060002001549050919050565b6040517f159763bb000000000000000000000000000000000000000000000000000000008152600360048201526001600160a01b03841660248201526044810183905260ff8216606482015260009073a82fF9aFd8f496c3d6ac40E2a0F282E47488CFc99063159763bb906084015b602060405180830381865af415801562002481573d6000803e3d6000fd5b505050506040513d601f19601f82011682018060405250810190620024a7919062003f3c565b949350505050565b6060600380018054806020026020016040519081016040528092919081815260200182805480156200250157602002820191906000526020600020905b815481526020019060010190808311620024ec575b5050505050905090565b6000546001600160a01b03163314620025675760405162461bcd60e51b815260206004820181905260248201527f4f776e61626c653a2063616c6c6572206973206e6f7420746865206f776e6572604482015260640162000911565b6305f5e100841115620025a65760405162461bcd60e51b81526020600482015260066024820152653e205346656560d01b604482015260640162000911565b6305f5e100831115620025e55760405162461bcd60e51b81526020600482015260066024820152653e205346656560d01b604482015260640162000911565b6402540be4008211156200263c5760405162461bcd60e51b815260206004820152600660248201527f3e20414665650000000000000000000000000000000000000000000000000000604482015260640162000911565b6305f5e100811115620026925760405162461bcd60e51b815260206004820152600660248201527f3e20574665650000000000000000000000000000000000000000000000000000604482015260640162000911565b60098290556007849055600e8190556040805185815260208101859052908101839052606081018290527f0272af61e59abaa206f4d3d15474b045c5fdbad2379f620b67074e9b13bfaad19060800162001e5a565b60405163ba2998d960e01b81526003600482015260ff8085166024830152831660448201526064810182905260009073a82fF9aFd8f496c3d6ac40E2a0F282E47488CFc99063ba2998d99060840162002463565b606060036000018054806020026020016040519081016040528092919081815260200182805480156200250157602002820191906000526020600020905b81546001600160a01b0316815260019091019060200180831162002779575050505050905090565b60008054600160a01b900460ff1615620027f15760405162461bcd60e51b815260206004820152601060248201526f14185d5cd8589b194e881c185d5cd95960821b604482015260640162000911565b60026001541415620028465760405162461bcd60e51b815260206004820152601f60248201527f5265656e7472616e637947756172643a207265656e7472616e742063616c6c00604482015260640162000911565b60026001558142811015620028885760405162461bcd60e51b81526020600482015260076024820152661d1a5b595bdd5d60ca1b604482015260640162000911565b6040517fad30093f0000000000000000000000000000000000000000000000000000000081526003600482015260ff808a1660248301528816604482015260648101879052608481018690526001600160a01b03851660a482015273a82fF9aFd8f496c3d6ac40E2a0F282E47488CFc99063ad30093f9060c401602060405180830381865af415801562002920573d6000803e3d6000fd5b505050506040513d601f19601f8201168201806040525081019062002946919062003f3c565b6001805598975050505050505050565b6004546001600160a01b03163314620029b25760405162461bcd60e51b815260206004820152600860248201527f216c70546f6b656e000000000000000000000000000000000000000000000000604482015260640162000911565b6040517fc188e4be000000000000000000000000000000000000000000000000000000008152600360048201526001600160a01b03831660248201526044810182905273a82fF9aFd8f496c3d6ac40E2a0F282E47488CFc99063c188e4be9060640160006040518083038186803b15801562002a2d57600080fd5b505af415801562002a42573d6000803e3d6000fd5b505050505050565b6000546001600160a01b0316331462002aa65760405162461bcd60e51b815260206004820181905260248201527f4f776e61626c653a2063616c6c6572206973206e6f7420746865206f776e6572604482015260640162000911565b600d54421062002af95760405162461bcd60e51b815260206004820152600e60248201527f616c726561647953746f70706564000000000000000000000000000000000000604482015260640162000911565b60405163a303558560e01b81526003600482015260009073a82fF9aFd8f496c3d6ac40E2a0F282E47488CFc99063a303558590602401602060405180830381865af415801562002b4d573d6000803e3d6000fd5b505050506040513d601f19601f8201168201806040525081019062002b73919062003f3c565b600a819055600b81905542600c819055600d8190556040519192507f46e22fb3709ad289f62ce63d469248536dbc78d82b84a3d7e74ad606dc201938916200180891848252602082015260400190565b6001600160a01b038381166000908152601360205260408082205492851682528082205490517faa054aee0000000000000000000000000000000000000000000000000000000081526003600482015260ff938416602482015292166044830152606482018390529073a82fF9aFd8f496c3d6ac40E2a0F282E47488CFc99063aa054aee9060840162002463565b6000546001600160a01b0316331462002cad5760405162461bcd60e51b815260206004820181905260248201527f4f776e61626c653a2063616c6c6572206973206e6f7420746865206f776e6572604482015260640162000911565b6001600160a01b03811662002cee5760405162461bcd60e51b815260040162000911906020808252600490820152637a65726f60e01b604082015260600190565b601180546001600160a01b0319166001600160a01b0383169081179091556040519081527fae5a12c29e496b092467a620746b9eaf4e0e231a631a4370c233b1fac38e8e269060200162001808565b60606003600201805480602002602001604051908101604052809291908181526020018280548015620025015760200282019190600052602060002090815481526020019060010190808311620024ec575050505050905090565b6040517fb52e146f0000000000000000000000000000000000000000000000000000000081526003600482015260009073a82fF9aFd8f496c3d6ac40E2a0F282E47488CFc99063b52e146f906024016200087d565b6040517fd36604ac0000000000000000000000000000000000000000000000000000000081526003600482015260009073a82fF9aFd8f496c3d6ac40E2a0F282E47488CFc99063d36604ac906024016200087d565b6040517f1e7e95d300000000000000000000000000000000000000000000000000000000815260009073a82fF9aFd8f496c3d6ac40E2a0F282E47488CFc990631e7e95d390620024639060039088908890889060040162004344565b6001600160a01b0383811660009081526013602052604080822054928516825280822054905163ba2998d960e01b81526003600482015260ff938416602482015292166044830152606482018390529073a82fF9aFd8f496c3d6ac40E2a0F282E47488CFc99063ba2998d99060840162002463565b6000546001600160a01b0316331462002f6f5760405162461bcd60e51b815260206004820181905260248201527f4f776e61626c653a2063616c6c6572206973206e6f7420746865206f776e6572604482015260640162000911565b6001600160a01b03811662002fed5760405162461bcd60e51b815260206004820152602660248201527f4f776e61626c653a206e6577206f776e657220697320746865207a65726f206160448201527f6464726573730000000000000000000000000000000000000000000000000000606482015260840162000911565b62002ff88162003344565b50565b6012546001600160a01b03163314806200301f57506000546001600160a01b031633145b6200306d5760405162461bcd60e51b815260206004820152600e60248201527f21666565436f6e74726f6c6c6572000000000000000000000000000000000000604482015260640162000911565b60005b60035481101562002ff85760006003600001828154811062003096576200309662003f56565b6000918252602082200154600680546001600160a01b0390921693509084908110620030c657620030c662003f56565b6000918252602090912001546040517f70a082310000000000000000000000000000000000000000000000000000000081523060048201526001600160a01b038416906370a0823190602401602060405180830381865afa15801562003130573d6000803e3d6000fd5b505050506040513d601f19601f8201168201806040525081019062003156919062003f3c565b62003162919062003fa0565b90508015620031ca5760115462003187906001600160a01b038481169116836200341f565b604080516001600160a01b0384168152602081018390527fee3859efa95e525bc2bcb149b51b60a8bb4e89c647392d9d4112e03c3e73bdd6910160405180910390a15b50508080620031d99062003f82565b91505062003070565b600054600160a01b900460ff166200323d5760405162461bcd60e51b815260206004820152601460248201527f5061757361626c653a206e6f7420706175736564000000000000000000000000604482015260640162000911565b6000805460ff60a01b191690557f5db9ee0a495bf2e6ff9c91a7834c1ba4fdd244a5e8aa4e537bd38aeae4b073aa335b6040516001600160a01b03909116815260200160405180910390a1565b6001600160a01b0381166000908152600c830160205260408120548190620032b6906224ea0062004299565b9050428111156200333a576000620032cf428362003fa0565b6001600160a01b0385166000908152600d87016020526040902054600b8701549192506402540be400916224ea009184916200330c919062004154565b62003318919062004154565b620033249190620043ae565b620033309190620043ae565b925050506200188a565b5060009392505050565b600080546001600160a01b038381166001600160a01b0319831681178455604051919092169283917f8be0079c531659141344cd1fd0a4f28419497f9722a3daafe3b4186f6b6457e09190a35050565b600054600160a01b900460ff1615620033e35760405162461bcd60e51b815260206004820152601060248201526f14185d5cd8589b194e881c185d5cd95960821b604482015260640162000911565b6000805460ff60a01b1916600160a01b1790557f62e78cea01bee320cd4e420270b5ea74000d11b0c9f74754ebdbfc544b05a2586200326d3390565b604080516001600160a01b038416602482015260448082018490528251808303909101815260649091019091526020810180517bffffffffffffffffffffffffffffffffffffffffffffffffffffffff167fa9059cbb00000000000000000000000000000000000000000000000000000000179052620034a1908490620034a6565b505050565b600080836001600160a01b031683604051620034c39190620043d1565b6000604051808303816000865af19150503d806000811462003502576040519150601f19603f3d011682016040523d82523d6000602084013e62003507565b606091505b5091509150600082141562003520573d6000803e3d6000fd5b8051158062003540575080806020019051810190620035409190620043ef565b6200358e5760405162461bcd60e51b815260206004820152601660248201527f534146455f45524332305f43414c4c5f4641494c454400000000000000000000604482015260640162000911565b50505050565b6113f9806200441083390190565b828054828255906000526020600020908101928215620035e0579160200282015b82811115620035e0578251825591602001919060010190620035c3565b50620035ee9291506200364a565b5090565b828054828255906000526020600020908101928215620035e0579160200282015b82811115620035e057825182546001600160a01b0319166001600160a01b0390911617825560209092019160019091019062003613565b5b80821115620035ee57600081556001016200364b565b6001600160a01b038116811462002ff857600080fd5b8035620020438162003661565b6000602082840312156200369757600080fd5b81356200215d8162003661565b600080600080600060a08688031215620036bd57600080fd5b8535620036ca8162003661565b94506020860135620036dc8162003661565b935060408601359250606086013591506080860135620036fc8162003661565b809150509295509295909350565b6020808252825182820181905260009190848201906040850190845b81811015620037445783518352928401929184019160010162003726565b50909695505050505050565b634e487b7160e01b600052604160045260246000fd5b604051601f8201601f1916810167ffffffffffffffff8111828210171562003792576200379262003750565b604052919050565b600067ffffffffffffffff821115620037b757620037b762003750565b5060051b60200190565b600082601f830112620037d357600080fd5b81356020620037ec620037e6836200379a565b62003766565b82815260059290921b840181019181810190868411156200380c57600080fd5b8286015b8481101562003834578035620038268162003661565b835291830191830162003810565b509695505050505050565b803560ff811681146200204357600080fd5b600082601f8301126200386357600080fd5b8135602062003876620037e6836200379a565b82815260059290921b840181019181810190868411156200389657600080fd5b8286015b848110156200383457620038ae816200383f565b83529183019183016200389a565b600082601f830112620038ce57600080fd5b813567ffffffffffffffff811115620038eb57620038eb62003750565b62003900601f8201601f191660200162003766565b8181528460208386010111156200391657600080fd5b816020850160208301376000918101602001919091529392505050565b6000806000806000806000806000806101408b8d0312156200395457600080fd5b8a3567ffffffffffffffff808211156200396d57600080fd5b6200397b8e838f01620037c1565b9b5060208d01359150808211156200399257600080fd5b620039a08e838f0162003851565b9a5060408d0135915080821115620039b757600080fd5b620039c58e838f01620038bc565b995060608d0135915080821115620039dc57600080fd5b50620039eb8d828e01620038bc565b97505060808b0135955060a08b0135945060c08b0135935060e08b013592506101008b0135915062003a216101208c0162003677565b90509295989b9194979a5092959850565b600082601f83011262003a4457600080fd5b8135602062003a57620037e6836200379a565b82815260059290921b8401810191818101908684111562003a7757600080fd5b8286015b8481101562003834578035835291830191830162003a7b565b60008060006060848603121562003aaa57600080fd5b83359250602084013567ffffffffffffffff81111562003ac957600080fd5b62003ad78682870162003a32565b925050604084013590509250925092565b6000806000806080858703121562003aff57600080fd5b8435935062003b11602086016200383f565b93969395505050506040820135916060013590565b60008060006060848603121562003b3c57600080fd5b833567ffffffffffffffff81111562003b5457600080fd5b62003b628682870162003a32565b9660208601359650604090950135949350505050565b6000806040838503121562003b8c57600080fd5b50508035926020909101359150565b6000806000806080858703121562003bb257600080fd5b843562003bbf8162003661565b935060208581013567ffffffffffffffff8082111562003bde57600080fd5b818801915088601f83011262003bf357600080fd5b813562003c04620037e6826200379a565b81815260059190911b8301840190848101908b83111562003c2457600080fd5b938501935b8285101562003c4f57843562003c3f8162003661565b8252938501939085019062003c29565b97505050604088013592508083111562003c6857600080fd5b62003c7689848a0162003a32565b9450606088013592508083111562003c8d57600080fd5b505062003c9d87828801620038bc565b91505092959194509250565b6000806040838503121562003cbd57600080fd5b823562003cca8162003661565b946020939093013593505050565b60006020828403121562003ceb57600080fd5b6200215d826200383f565b60008060006060848603121562003d0c57600080fd5b833562003d198162003661565b92506020840135915062003d30604085016200383f565b90509250925092565b6000806000806080858703121562003d5057600080fd5b5050823594602084013594506040840135936060013592509050565b60008060006060848603121562003d8257600080fd5b62003d8d846200383f565b925062003d9d602085016200383f565b9150604084013590509250925092565b6020808252825182820181905260009190848201906040850190845b81811015620037445783516001600160a01b03168352928401929184019160010162003dc9565b60008060008060008060c0878903121562003e0a57600080fd5b62003e15876200383f565b955062003e25602088016200383f565b94506040870135935060608701359250608087013562003e458162003661565b8092505060a087013590509295509295509295565b60008060006060848603121562003e7057600080fd5b833562003e7d8162003661565b9250602084013562003e8f8162003661565b929592945050506040919091013590565b801515811462002ff857600080fd5b60008060006040848603121562003ec557600080fd5b833567ffffffffffffffff8082111562003ede57600080fd5b818601915086601f83011262003ef357600080fd5b81358181111562003f0357600080fd5b8760208260051b850101111562003f1957600080fd5b6020928301955093505084013562003f318162003ea0565b809150509250925092565b60006020828403121562003f4f57600080fd5b5051919050565b634e487b7160e01b600052603260045260246000fd5b634e487b7160e01b600052601160045260246000fd5b600060001982141562003f995762003f9962003f6c565b5060010190565b60008282101562003fb55762003fb562003f6c565b500390565b600181815b8085111562003ffb57816000190482111562003fdf5762003fdf62003f6c565b8085161562003fed57918102915b93841c939080029062003fbf565b509250929050565b60008262004014575060016200188a565b8162004023575060006200188a565b81600181146200403c5760028114620040475762004067565b60019150506200188a565b60ff8411156200405b576200405b62003f6c565b50506001821b6200188a565b5060208310610133831016604e8410600b84101617156200408c575081810a6200188a565b62004098838362003fba565b8060001904821115620040af57620040af62003f6c565b029392505050565b60006200215d838362004003565b60005b83811015620040e2578181015183820152602001620040c8565b838111156200358e5750506000910152565b600081518084526200410e816020860160208601620040c5565b601f01601f19169290920160200192915050565b604081526000620041376040830185620040f4565b82810360208401526200414b8185620040f4565b95945050505050565b600081600019048311821515161562004171576200417162003f6c565b500290565b600081518084526020808501945080840160005b83811015620041a8578151875295820195908201906001016200418a565b509495945050505050565b8381528260208201526060604082015260006200414b606083018462004176565b60006020808385031215620041e857600080fd5b825167ffffffffffffffff8111156200420057600080fd5b8301601f810185136200421257600080fd5b805162004223620037e6826200379a565b81815260059190911b820183019083810190878311156200424357600080fd5b928401925b82841015620042635783518252928401929084019062004248565b979650505050505050565b83815260606020820152600062004289606083018562004176565b9050826040830152949350505050565b60008219821115620042af57620042af62003f6c565b500190565b600060a0820187835260206001600160a01b038089168286015260a0604086015282885180855260c087019150838a01945060005b8181101562004309578551841683529484019491840191600101620042e9565b505085810360608701526200431f818962004176565b93505050508281036080840152620043388185620040f4565b98975050505050505050565b8481526060602082015282606082015260007f07ffffffffffffffffffffffffffffffffffffffffffffffffffffffffffffff8411156200438457600080fd5b8360051b808660808501376000908301608001908152921515604090920191909152509392505050565b600082620043cc57634e487b7160e01b600052601260045260246000fd5b500490565b60008251620043e5818460208701620040c5565b9190910192915050565b6000602082840312156200440257600080fd5b81516200215d8162003ea056fe60806040523480156200001157600080fd5b50604051620013f9380380620013f9833981016040819052620000349162000256565b8181620000413362000093565b815162000056906004906020850190620000e3565b5080516200006c906005906020840190620000e3565b50506006805433610100026001600160a81b031990911617601217905550620002fd915050565b600080546001600160a01b038381166001600160a01b0319831681178455604051919092169283917f8be0079c531659141344cd1fd0a4f28419497f9722a3daafe3b4186f6b6457e09190a35050565b828054620000f190620002c0565b90600052602060002090601f01602090048101928262000115576000855562000160565b82601f106200013057805160ff191683800117855562000160565b8280016001018555821562000160579182015b828111156200016057825182559160200191906001019062000143565b506200016e92915062000172565b5090565b5b808211156200016e576000815560010162000173565b634e487b7160e01b600052604160045260246000fd5b600082601f830112620001b157600080fd5b81516001600160401b0380821115620001ce57620001ce62000189565b604051601f8301601f19908116603f01168101908282118183101715620001f957620001f962000189565b816040528381526020925086838588010111156200021657600080fd5b600091505b838210156200023a57858201830151818301840152908201906200021b565b838211156200024c5760008385830101525b9695505050505050565b600080604083850312156200026a57600080fd5b82516001600160401b03808211156200028257600080fd5b62000290868387016200019f565b93506020850151915080821115620002a757600080fd5b50620002b6858286016200019f565b9150509250929050565b600181811c90821680620002d557607f821691505b60208210811415620002f757634e487b7160e01b600052602260045260246000fd5b50919050565b6110ec806200030d6000396000f3fe608060405234801561001057600080fd5b50600436106101365760003560e01c8063715018a6116100b257806395d89b4111610081578063a9059cbb11610066578063a9059cbb1461028b578063dd62ed3e1461029e578063f2fde38b146102d757600080fd5b806395d89b4114610270578063a457c2d71461027857600080fd5b8063715018a61461021457806379cc67901461021c5780638119c0651461022f5780638da5cb5b1461025f57600080fd5b8063313ce5671161010957806340c10f19116100ee57806340c10f19146101c357806342966c68146101d857806370a08231146101eb57600080fd5b8063313ce567146101a157806339509351146101b057600080fd5b806306fdde031461013b578063095ea7b31461015957806318160ddd1461017c57806323b872dd1461018e575b600080fd5b6101436102ea565b6040516101509190610ef1565b60405180910390f35b61016c610167366004610f62565b61037c565b6040519015158152602001610150565b6003545b604051908152602001610150565b61016c61019c366004610f8c565b610392565b60405160128152602001610150565b61016c6101be366004610f62565b610456565b6101d66101d1366004610f62565b610492565b005b6101d66101e6366004610fc8565b61054a565b6101806101f9366004610fe1565b6001600160a01b031660009081526001602052604090205490565b6101d6610557565b6101d661022a366004610f62565b6105bd565b6006546102479061010090046001600160a01b031681565b6040516001600160a01b039091168152602001610150565b6000546001600160a01b0316610247565b61014361065c565b61016c610286366004610f62565b61066b565b61016c610299366004610f62565b61071c565b6101806102ac366004611003565b6001600160a01b03918216600090815260026020908152604080832093909416825291909152205490565b6101d66102e5366004610fe1565b610729565b6060600480546102f990611036565b80601f016020809104026020016040519081016040528092919081815260200182805461032590611036565b80156103725780601f1061034757610100808354040283529160200191610372565b820191906000526020600020905b81548152906001019060200180831161035557829003601f168201915b5050505050905090565b6000610389338484610808565b50600192915050565b600061039f848484610960565b6001600160a01b03841660009081526002602090815260408083203384529091529020548281101561043e5760405162461bcd60e51b815260206004820152602860248201527f45524332303a207472616e7366657220616d6f756e742065786365656473206160448201527f6c6c6f77616e636500000000000000000000000000000000000000000000000060648201526084015b60405180910390fd5b61044b8533858403610808565b506001949350505050565b3360008181526002602090815260408083206001600160a01b0387168452909152812054909161038991859061048d908690611087565b610808565b6000546001600160a01b031633146104ec5760405162461bcd60e51b815260206004820181905260248201527f4f776e61626c653a2063616c6c6572206973206e6f7420746865206f776e65726044820152606401610435565b6000811161053c5760405162461bcd60e51b815260206004820152600e60248201527f7a65726f4d696e74416d6f756e740000000000000000000000000000000000006044820152606401610435565b6105468282610b83565b5050565b6105543382610c6e565b50565b6000546001600160a01b031633146105b15760405162461bcd60e51b815260206004820181905260248201527f4f776e61626c653a2063616c6c6572206973206e6f7420746865206f776e65726044820152606401610435565b6105bb6000610dff565b565b60006105c983336102ac565b9050818110156106405760405162461bcd60e51b8152602060048201526024808201527f45524332303a206275726e20616d6f756e74206578636565647320616c6c6f7760448201527f616e6365000000000000000000000000000000000000000000000000000000006064820152608401610435565b61064d8333848403610808565b6106578383610c6e565b505050565b6060600580546102f990611036565b3360009081526002602090815260408083206001600160a01b0386168452909152812054828110156107055760405162461bcd60e51b815260206004820152602560248201527f45524332303a2064656372656173656420616c6c6f77616e63652062656c6f7760448201527f207a65726f0000000000000000000000000000000000000000000000000000006064820152608401610435565b6107123385858403610808565b5060019392505050565b6000610389338484610960565b6000546001600160a01b031633146107835760405162461bcd60e51b815260206004820181905260248201527f4f776e61626c653a2063616c6c6572206973206e6f7420746865206f776e65726044820152606401610435565b6001600160a01b0381166107ff5760405162461bcd60e51b815260206004820152602660248201527f4f776e61626c653a206e6577206f776e657220697320746865207a65726f206160448201527f64647265737300000000000000000000000000000000000000000000000000006064820152608401610435565b61055481610dff565b6001600160a01b0383166108835760405162461bcd60e51b8152602060048201526024808201527f45524332303a20617070726f76652066726f6d20746865207a65726f2061646460448201527f72657373000000000000000000000000000000000000000000000000000000006064820152608401610435565b6001600160a01b0382166108ff5760405162461bcd60e51b815260206004820152602260248201527f45524332303a20617070726f766520746f20746865207a65726f20616464726560448201527f73730000000000000000000000000000000000000000000000000000000000006064820152608401610435565b6001600160a01b0383811660008181526002602090815260408083209487168084529482529182902085905590518481527f8c5be1e5ebec7d5bd14f71427d1e84f3dd0314c0f7b2291e5b200ac8c7c3b925910160405180910390a3505050565b6001600160a01b0383166109dc5760405162461bcd60e51b815260206004820152602560248201527f45524332303a207472616e736665722066726f6d20746865207a65726f20616460448201527f64726573730000000000000000000000000000000000000000000000000000006064820152608401610435565b6001600160a01b038216610a585760405162461bcd60e51b815260206004820152602360248201527f45524332303a207472616e7366657220746f20746865207a65726f206164647260448201527f65737300000000000000000000000000000000000000000000000000000000006064820152608401610435565b610a63838383610e67565b6001600160a01b03831660009081526001602052604090205481811015610af25760405162461bcd60e51b815260206004820152602660248201527f45524332303a207472616e7366657220616d6f756e742065786365656473206260448201527f616c616e636500000000000000000000000000000000000000000000000000006064820152608401610435565b6001600160a01b03808516600090815260016020526040808220858503905591851681529081208054849290610b29908490611087565b92505081905550826001600160a01b0316846001600160a01b03167fddf252ad1be2c89b69c2b068fc378daa952ba7f163c4a11628f55a4df523b3ef84604051610b7591815260200190565b60405180910390a350505050565b6001600160a01b038216610bd95760405162461bcd60e51b815260206004820152601f60248201527f45524332303a206d696e7420746f20746865207a65726f2061646472657373006044820152606401610435565b610be560008383610e67565b8060036000828254610bf79190611087565b90915550506001600160a01b03821660009081526001602052604081208054839290610c24908490611087565b90915550506040518181526001600160a01b038316906000907fddf252ad1be2c89b69c2b068fc378daa952ba7f163c4a11628f55a4df523b3ef9060200160405180910390a35050565b6001600160a01b038216610cea5760405162461bcd60e51b815260206004820152602160248201527f45524332303a206275726e2066726f6d20746865207a65726f2061646472657360448201527f73000000000000000000000000000000000000000000000000000000000000006064820152608401610435565b610cf682600083610e67565b6001600160a01b03821660009081526001602052604090205481811015610d855760405162461bcd60e51b815260206004820152602260248201527f45524332303a206275726e20616d6f756e7420657863656564732062616c616e60448201527f63650000000000000000000000000000000000000000000000000000000000006064820152608401610435565b6001600160a01b0383166000908152600160205260408120838303905560038054849290610db490849061109f565b90915550506040518281526000906001600160a01b038516907fddf252ad1be2c89b69c2b068fc378daa952ba7f163c4a11628f55a4df523b3ef9060200160405180910390a3505050565b600080546001600160a01b038381167fffffffffffffffffffffffff0000000000000000000000000000000000000000831681178455604051919092169283917f8be0079c531659141344cd1fd0a4f28419497f9722a3daafe3b4186f6b6457e09190a35050565b6006546040517fc00c125c0000000000000000000000000000000000000000000000000000000081526001600160a01b038481166004830152602482018490526101009092049091169063c00c125c90604401600060405180830381600087803b158015610ed457600080fd5b505af1158015610ee8573d6000803e3d6000fd5b50505050505050565b600060208083528351808285015260005b81811015610f1e57858101830151858201604001528201610f02565b81811115610f30576000604083870101525b50601f01601f1916929092016040019392505050565b80356001600160a01b0381168114610f5d57600080fd5b919050565b60008060408385031215610f7557600080fd5b610f7e83610f46565b946020939093013593505050565b600080600060608486031215610fa157600080fd5b610faa84610f46565b9250610fb860208501610f46565b9150604084013590509250925092565b600060208284031215610fda57600080fd5b5035919050565b600060208284031215610ff357600080fd5b610ffc82610f46565b9392505050565b6000806040838503121561101657600080fd5b61101f83610f46565b915061102d60208401610f46565b90509250929050565b600181811c9082168061104a57607f821691505b6020821081141561106b57634e487b7160e01b600052602260045260246000fd5b50919050565b634e487b7160e01b600052601160045260246000fd5b6000821982111561109a5761109a611071565b500190565b6000828210156110b1576110b1611071565b50039056fea2646970667358221220379ad36da58070db0bb1afb67394a52bef264feda89c02a40879eb6a9f5e7a4b64736f6c634300080c0033a2646970667358221220cb1653e8156c2b7bcfd21bd055358df0e7b0815c3659211100e575602870ebc964736f6c634300080c0033",
  "deployedBytecode": "0x60806040523480156200001157600080fd5b5060043610620003a95760003560e01c806384cdd9bc11620001ed578063c4db7fa01162000119578063e6ab280611620000af578063f2fde38b1162000086578063f2fde38b1462000818578063f3de0362146200082f578063fe49abe3146200083c578063ff68562c146200074857600080fd5b8063e6ab280614620007e1578063e9255bae14620007f8578063efeecb51146200080f57600080fd5b8063d41f656811620000f0578063d41f656814620007c3578063d46300fd14620007cd578063d4b0de2f1462000748578063e25aa5fa14620007d757600080fd5b8063c4db7fa0146200078b578063cc56fd431462000795578063ccfc2e8d14620007ac57600080fd5b8063a2a957bb116200018f578063ab3d85441162000166578063ab3d85441462000748578063ab5ac0611462000754578063bfd3956b146200075d578063c00c125c146200077457600080fd5b8063a2a957bb1462000701578063a95b089f1462000718578063aa6ca808146200072f57600080fd5b806391ceb3eb11620001c457806391ceb3eb14620006c957806398899f4014620006e0578063a1dc903114620006f757600080fd5b806384cdd9bc14620006895780638554a7d414620006a05780638da5cb5b14620006b757600080fd5b80634a1b0d5711620002d957806366c0bd24116200026f5780637c61e56111620002465780637c61e561146200063f5780638214f5a4146200065657806382b8660014620006685780638456cb59146200067f57600080fd5b806366c0bd24146200060a5780636999b3771462000621578063715018a6146200063557600080fd5b8063593d132c11620002b0578063593d132c146200053b5780635c38449e14620005525780635c975abb14620005695780635fd65f0f146200058757600080fd5b80634a1b0d5714620004f65780634ac00e03146200050d5780634d49e87d146200052457600080fd5b806319762b73116200034f5780633969841511620003265780633969841514620004b35780633e3a156014620004be5780633ed4c67814620004d55780633f4ba83a14620004ec57600080fd5b806319762b73146200046c57806331cd52b0146200048557806332fd5493146200049c57600080fd5b80630d43e8ad11620003845780630d43e8ad146200040f5780630e6d8bce146200043c57806318f52ce2146200045357600080fd5b806304bc3b1c14620003ae57806306e9481c14620003eb5780630ba819591462000405575b600080fd5b620003d4620003bf36600462003684565b60136020526000908152604090205460ff1681565b60405160ff90911681526020015b60405180910390f35b620003f66201518081565b604051908152602001620003e2565b620003f662000846565b60115462000423906001600160a01b031681565b6040516001600160a01b039091168152602001620003e2565b620003f66200044d366004620036a4565b620008c6565b6200045d62000a5e565b604051620003e291906200370a565b620004836200047d36600462003933565b62000b71565b005b6200045d6200049636600462003a94565b620012e3565b62000483620004ad366004620036a4565b62001428565b620003f6620f424081565b620003f6620004cf36600462003ae8565b620015b8565b62000483620004e636600462003684565b62001721565b6200048362001813565b620003f66200050736600462003684565b6200187b565b620003f66200051e366004620036a4565b62001890565b620003f66200053536600462003b26565b620019d7565b620004836200054c36600462003b78565b62001b59565b620004836200056336600462003b9b565b62001e68565b600054600160a01b900460ff166040519015158152602001620003e2565b600454600754600854600954600a54600b54600c54600d54600e54620005bb986001600160a01b0316979695949392919089565b604080516001600160a01b03909a168a5260208a0198909852968801959095526060870193909352608086019190915260a085015260c084015260e083015261010082015261012001620003e2565b620003d46200061b36600462003684565b62001fa8565b60125462000423906001600160a01b031681565b6200048362002048565b6200045d6200065036600462003ca9565b620020b0565b6004546001600160a01b031662000423565b620004236200067936600462003cd8565b62002164565b620004836200219d565b620003f66200069a36600462003b26565b62002203565b620003f6620006b136600462003cd8565b62002342565b6000546001600160a01b031662000423565b620003f6620006da36600462003cd8565b620023c5565b620003f6620006f136600462003cf6565b620023f4565b6200045d620024af565b620004836200071236600462003d39565b6200250b565b620003f66200072936600462003d6c565b620026e7565b620007396200273b565b604051620003e2919062003dad565b620003f66305f5e10081565b620003f6600a81565b620003f66200076e36600462003df0565b620027a1565b620004836200078536600462003ca9565b62002956565b6200048362002a4a565b620003f6620007a636600462003e5a565b62002bc3565b62000483620007bd36600462003684565b62002c51565b6200045d62002d3d565b620003f662002d98565b620003f662002ded565b620003f6620007f236600462003eaf565b62002e42565b620003f66200080936600462003e5a565b62002e9e565b600354620003f6565b620004836200082936600462003684565b62002f13565b620003f66402540be40081565b6200048362002ffb565b60405163a303558560e01b81526003600482015260009073__$6aaf67e7827a013dd22ce71b2520632c86$__9063a3035585906024015b602060405180830381865af41580156200089b573d6000803e3d6000fd5b505050506040513d601f19601f82011682018060405250810190620008c1919062003f3c565b905090565b60008054600160a01b900460ff16156200091a5760405162461bcd60e51b815260206004820152601060248201526f14185d5cd8589b194e881c185d5cd95960821b60448201526064015b60405180910390fd5b600260015414156200096f5760405162461bcd60e51b815260206004820152601f60248201527f5265656e7472616e637947756172643a207265656e7472616e742063616c6c00604482015260640162000911565b60026001556001600160a01b03868116600090815260136020526040808220548884168352918190205490517f8e6da7b60000000000000000000000000000000000000000000000000000000081526003600482015260ff928316602482015291166044820152606481018690526084810185905290831660a482015273__$6aaf67e7827a013dd22ce71b2520632c86$__90638e6da7b69060c4015b602060405180830381865af415801562000a2a573d6000803e3d6000fd5b505050506040513d601f19601f8201168201806040525081019062000a50919062003f3c565b600180559695505050505050565b6003546060908067ffffffffffffffff81111562000a805762000a8062003750565b60405190808252806020026020018201604052801562000aaa578160200160208202803683370190505b50915060005b8181101562000b6c5760405163e2eba89b60e01b8152600360048201526024810182905273__$6aaf67e7827a013dd22ce71b2520632c86$__9063e2eba89b90604401602060405180830381865af415801562000b11573d6000803e3d6000fd5b505050506040513d601f19601f8201168201806040525081019062000b37919062003f3c565b83828151811062000b4c5762000b4c62003f56565b60209081029190910101528062000b638162003f82565b91505062000ab0565b505090565b6000546001600160a01b0316331462000bcd5760405162461bcd60e51b815260206004820181905260248201527f4f776e61626c653a2063616c6c6572206973206e6f7420746865206f776e6572604482015260640162000911565b600254610100900460ff168062000be7575060025460ff16155b62000c5b5760405162461bcd60e51b815260206004820152602e60248201527f496e697469616c697a61626c653a20636f6e747261637420697320616c72656160448201527f647920696e697469616c697a6564000000000000000000000000000000000000606482015260840162000911565b600254610100900460ff1615801562000c7e576002805461ffff19166101011790555b89518b511462000cd15760405162461bcd60e51b815260206004820152601360248201527f636f696e734c20213d20646563696d616c734c00000000000000000000000000604482015260640162000911565b6001600160a01b03821662000d295760405162461bcd60e51b815260206004820152601660248201527f6665654469737472696275746f72203d20656d70747900000000000000000000604482015260640162000911565b8a5160008167ffffffffffffffff81111562000d495762000d4962003750565b60405190808252806020026020018201604052801562000d73578160200160208202803683370190505b50905060008267ffffffffffffffff81111562000d945762000d9462003750565b60405190808252806020026020018201604052801562000dbe578160200160208202803683370190505b50905060005b8381101562000fde5760006001600160a01b03168f828151811062000ded5762000ded62003f56565b60200260200101516001600160a01b0316141562000e4e5760405162461bcd60e51b815260206004820152601360248201527f696e76616c6964546f6b656e4164647265737300000000000000000000000000604482015260640162000911565b60128e828151811062000e655762000e6562003f56565b602002602001015160ff16111562000ec05760405162461bcd60e51b815260206004820152600f60248201527f696e76616c6964446563696d616c730000000000000000000000000000000000604482015260640162000911565b8d818151811062000ed55762000ed562003f56565b602002602001015160ff16601262000eee919062003fa0565b62000efb90600a620040b7565b83828151811062000f105762000f1062003f56565b6020026020010181815250508e818151811062000f315762000f3162003f56565b602002602001015182828151811062000f4e5762000f4e62003f56565b60200260200101906001600160a01b031690816001600160a01b031681525050806013600084848151811062000f885762000f8862003f56565b60200260200101516001600160a01b03166001600160a01b0316815260200190815260200160002060006101000a81548160ff021916908360ff160217905550808062000fd59062003f82565b91505062000dc4565b50620f42408a10620010335760405162461bcd60e51b815260206004820152600660248201527f3e206d6178410000000000000000000000000000000000000000000000000000604482015260640162000911565b6305f5e100891115620010895760405162461bcd60e51b815260206004820152600960248201527f3e206d6178534665650000000000000000000000000000000000000000000000604482015260640162000911565b6305f5e100881115620010df5760405162461bcd60e51b815260206004820152600960248201527f3e206d6178464665650000000000000000000000000000000000000000000000604482015260640162000911565b6402540be400871115620011365760405162461bcd60e51b815260206004820152600960248201527f3e206d6178414665650000000000000000000000000000000000000000000000604482015260640162000911565b6305f5e1008611156200118c5760405162461bcd60e51b815260206004820152600960248201527f3e206d6178574665650000000000000000000000000000000000000000000000604482015260640162000911565b8b8b6040516200119c9062003594565b620011a992919062004122565b604051809103906000f080158015620011c6573d6000803e3d6000fd5b50600480546001600160a01b0319166001600160a01b03929092169190911790558267ffffffffffffffff81111562001203576200120362003750565b6040519080825280602002602001820160405280156200122d578160200160208202803683370190505b5080516200124491600691602090910190620035a2565b5081516200125a906005906020850190620035a2565b50805162001270906003906020840190620035f2565b506200127e60648b62004154565b600a556200128e60648b62004154565b600b55505050600786905560088590556009849055600e839055601180546001600160a01b0319166001600160a01b0384161790558015620012d6576002805461ff00191690555b5050505050505050505050565b6060600260015414156200133a5760405162461bcd60e51b815260206004820152601f60248201527f5265656e7472616e637947756172643a207265656e7472616e742063616c6c00604482015260640162000911565b600260015581428110156200137c5760405162461bcd60e51b81526020600482015260076024820152661d1a5b595bdd5d60ca1b604482015260640162000911565b6040517fc685696c00000000000000000000000000000000000000000000000000000000815273__$6aaf67e7827a013dd22ce71b2520632c86$__9063c685696c90620013d39060039089908990600401620041b3565b600060405180830381865af4158015620013f1573d6000803e3d6000fd5b505050506040513d6000823e601f3d908101601f191682016040526200141b9190810190620041d4565b6001805595945050505050565b600054600160a01b900460ff1615620014775760405162461bcd60e51b815260206004820152601060248201526f14185d5cd8589b194e881c185d5cd95960821b604482015260640162000911565b60026001541415620014cc5760405162461bcd60e51b815260206004820152601f60248201527f5265656e7472616e637947756172643a207265656e7472616e742063616c6c00604482015260640162000911565b60026001556001600160a01b03858116600090815260136020526040808220548784168352918190205490517fce055b8d0000000000000000000000000000000000000000000000000000000081526003600482015260ff928316602482015291166044820152606481018590526084810184905290821660a482015273__$6aaf67e7827a013dd22ce71b2520632c86$__9063ce055b8d9060c401602060405180830381865af415801562001586573d6000803e3d6000fd5b505050506040513d601f19601f82011682018060405250810190620015ac919062003f3c565b50506001805550505050565b6000600260015414156200160f5760405162461bcd60e51b815260206004820152601f60248201527f5265656e7472616e637947756172643a207265656e7472616e742063616c6c00604482015260640162000911565b6002600155600054600160a01b900460ff1615620016635760405162461bcd60e51b815260206004820152601060248201526f14185d5cd8589b194e881c185d5cd95960821b604482015260640162000911565b8180421115620016a05760405162461bcd60e51b81526020600482015260076024820152661d1a5b595bdd5d60ca1b604482015260640162000911565b6040517f2bfe30d0000000000000000000000000000000000000000000000000000000008152600360048201526024810187905260ff861660448201526064810185905273__$6aaf67e7827a013dd22ce71b2520632c86$__90632bfe30d090608401602060405180830381865af415801562000a2a573d6000803e3d6000fd5b6000546001600160a01b031633146200177d5760405162461bcd60e51b815260206004820181905260248201527f4f776e61626c653a2063616c6c6572206973206e6f7420746865206f776e6572604482015260640162000911565b6001600160a01b038116620017be5760405162461bcd60e51b815260040162000911906020808252600490820152637a65726f60e01b604082015260600190565b601280546001600160a01b0319166001600160a01b0383169081179091556040519081527f4c3f3b9852ccceadd50f16518f348e2624c8f0240acdd5bc81911c0fba83ec67906020015b60405180910390a150565b6000546001600160a01b031633146200186f5760405162461bcd60e51b815260206004820181905260248201527f4f776e61626c653a2063616c6c6572206973206e6f7420746865206f776e6572604482015260640162000911565b62001879620031e2565b565b60006200188a6003836200328a565b92915050565b60008054600160a01b900460ff1615620018e05760405162461bcd60e51b815260206004820152601060248201526f14185d5cd8589b194e881c185d5cd95960821b604482015260640162000911565b60026001541415620019355760405162461bcd60e51b815260206004820152601f60248201527f5265656e7472616e637947756172643a207265656e7472616e742063616c6c00604482015260640162000911565b60026001556001600160a01b03868116600090815260136020526040808220548884168352918190205490517f0da350f60000000000000000000000000000000000000000000000000000000081526003600482015260ff928316602482015291166044820152606481018690526084810185905290831660a482015273__$6aaf67e7827a013dd22ce71b2520632c86$__90630da350f69060c40162000a0c565b60008054600160a01b900460ff161562001a275760405162461bcd60e51b815260206004820152601060248201526f14185d5cd8589b194e881c185d5cd95960821b604482015260640162000911565b6002600154141562001a7c5760405162461bcd60e51b815260206004820152601f60248201527f5265656e7472616e637947756172643a207265656e7472616e742063616c6c00604482015260640162000911565b6002600155814281101562001abe5760405162461bcd60e51b81526020600482015260076024820152661d1a5b595bdd5d60ca1b604482015260640162000911565b6040517f7a6cba3c00000000000000000000000000000000000000000000000000000000815273__$6aaf67e7827a013dd22ce71b2520632c86$__90637a6cba3c9062001b1590600390899089906004016200426e565b602060405180830381865af415801562001b33573d6000803e3d6000fd5b505050506040513d601f19601f820116820180604052508101906200141b919062003f3c565b6000546001600160a01b0316331462001bb55760405162461bcd60e51b815260206004820181905260248201527f4f776e61626c653a2063616c6c6572206973206e6f7420746865206f776e6572604482015260640162000911565b600c5462001bc7906201518062004299565b42101562001c185760405162461bcd60e51b815260206004820152600760248201527f3c2072616d704400000000000000000000000000000000000000000000000000604482015260640162000911565b62001c27620151804262004299565b81101562001c785760405162461bcd60e51b815260206004820152600a60248201527f3c206d696e52616d705400000000000000000000000000000000000000000000604482015260640162000911565b81600010801562001c8b5750620f424082105b62001cd95760405162461bcd60e51b815260206004820152600a60248201527f6f75744f6652616e676500000000000000000000000000000000000000000000604482015260640162000911565b60405163a303558560e01b81526003600482015260009073__$6aaf67e7827a013dd22ce71b2520632c86$__9063a303558590602401602060405180830381865af415801562001d2d573d6000803e3d6000fd5b505050506040513d601f19601f8201168201806040525081019062001d53919062003f3c565b9050600062001d6460648562004154565b90508181101562001dbc578162001d7d600a8362004154565b101562001db65760405162461bcd60e51b81526020600482015260066024820152653e206d61784360d01b604482015260640162000911565b62001e03565b62001dc9600a8362004154565b81111562001e035760405162461bcd60e51b81526020600482015260066024820152653e206d61784360d01b604482015260640162000911565b600a829055600b81905542600c819055600d849055604080518481526020810184905290810191909152606081018490527fa2b71ec6df949300b59aab36b55e189697b750119dd349fcfa8c0f779e83c254906080015b60405180910390a150505050565b6002600154141562001ebd5760405162461bcd60e51b815260206004820152601f60248201527f5265656e7472616e637947756172643a207265656e7472616e742063616c6c00604482015260640162000911565b6002600155600054600160a01b900460ff161562001f115760405162461bcd60e51b815260206004820152601060248201526f14185d5cd8589b194e881c185d5cd95960821b604482015260640162000911565b6040517fc823250100000000000000000000000000000000000000000000000000000000815273__$6aaf67e7827a013dd22ce71b2520632c86$__9063c82325019062001f6c906003908890889088908890600401620042b4565b60006040518083038186803b15801562001f8557600080fd5b505af415801562001f9a573d6000803e3d6000fd5b505060018055505050505050565b6001600160a01b0381166000818152601360205260409020546003805460ff90921692918390811062001fdf5762001fdf62003f56565b6000918252602090912001546001600160a01b031614620020435760405162461bcd60e51b815260206004820152600d60248201527f746f6b656e4e6f74466f756e6400000000000000000000000000000000000000604482015260640162000911565b919050565b6000546001600160a01b03163314620020a45760405162461bcd60e51b815260206004820181905260248201527f4f776e61626c653a2063616c6c6572206973206e6f7420746865206f776e6572604482015260640162000911565b62001879600062003344565b6040517ffa563597000000000000000000000000000000000000000000000000000000008152600360048201526001600160a01b03831660248201526044810182905260609073__$6aaf67e7827a013dd22ce71b2520632c86$__9063fa56359790606401600060405180830381865af415801562002133573d6000803e3d6000fd5b505050506040513d6000823e601f3d908101601f191682016040526200215d9190810190620041d4565b9392505050565b600060036000018260ff168154811062002182576200218262003f56565b6000918252602090912001546001600160a01b031692915050565b6000546001600160a01b03163314620021f95760405162461bcd60e51b815260206004820181905260248201527f4f776e61626c653a2063616c6c6572206973206e6f7420746865206f776e6572604482015260640162000911565b6200187962003394565b6000600260015414156200225a5760405162461bcd60e51b815260206004820152601f60248201527f5265656e7472616e637947756172643a207265656e7472616e742063616c6c00604482015260640162000911565b6002600155600054600160a01b900460ff1615620022ae5760405162461bcd60e51b815260206004820152601060248201526f14185d5cd8589b194e881c185d5cd95960821b604482015260640162000911565b8180421115620022eb5760405162461bcd60e51b81526020600482015260076024820152661d1a5b595bdd5d60ca1b604482015260640162000911565b6040517fc8344c0600000000000000000000000000000000000000000000000000000000815273__$6aaf67e7827a013dd22ce71b2520632c86$__9063c8344c069062001b1590600390899089906004016200426e565b60405163e2eba89b60e01b81526003600482015260ff8216602482015260009073__$6aaf67e7827a013dd22ce71b2520632c86$__9063e2eba89b90604401602060405180830381865af41580156200239f573d6000803e3d6000fd5b505050506040513d601f19601f820116820180604052508101906200188a919062003f3c565b6000600380018260ff1681548110620023e257620023e262003f56565b90600052602060002001549050919050565b6040517f159763bb000000000000000000000000000000000000000000000000000000008152600360048201526001600160a01b03841660248201526044810183905260ff8216606482015260009073__$6aaf67e7827a013dd22ce71b2520632c86$__9063159763bb906084015b602060405180830381865af415801562002481573d6000803e3d6000fd5b505050506040513d601f19601f82011682018060405250810190620024a7919062003f3c565b949350505050565b6060600380018054806020026020016040519081016040528092919081815260200182805480156200250157602002820191906000526020600020905b815481526020019060010190808311620024ec575b5050505050905090565b6000546001600160a01b03163314620025675760405162461bcd60e51b815260206004820181905260248201527f4f776e61626c653a2063616c6c6572206973206e6f7420746865206f776e6572604482015260640162000911565b6305f5e100841115620025a65760405162461bcd60e51b81526020600482015260066024820152653e205346656560d01b604482015260640162000911565b6305f5e100831115620025e55760405162461bcd60e51b81526020600482015260066024820152653e205346656560d01b604482015260640162000911565b6402540be4008211156200263c5760405162461bcd60e51b815260206004820152600660248201527f3e20414665650000000000000000000000000000000000000000000000000000604482015260640162000911565b6305f5e100811115620026925760405162461bcd60e51b815260206004820152600660248201527f3e20574665650000000000000000000000000000000000000000000000000000604482015260640162000911565b60098290556007849055600e8190556040805185815260208101859052908101839052606081018290527f0272af61e59abaa206f4d3d15474b045c5fdbad2379f620b67074e9b13bfaad19060800162001e5a565b60405163ba2998d960e01b81526003600482015260ff8085166024830152831660448201526064810182905260009073__$6aaf67e7827a013dd22ce71b2520632c86$__9063ba2998d99060840162002463565b606060036000018054806020026020016040519081016040528092919081815260200182805480156200250157602002820191906000526020600020905b81546001600160a01b0316815260019091019060200180831162002779575050505050905090565b60008054600160a01b900460ff1615620027f15760405162461bcd60e51b815260206004820152601060248201526f14185d5cd8589b194e881c185d5cd95960821b604482015260640162000911565b60026001541415620028465760405162461bcd60e51b815260206004820152601f60248201527f5265656e7472616e637947756172643a207265656e7472616e742063616c6c00604482015260640162000911565b60026001558142811015620028885760405162461bcd60e51b81526020600482015260076024820152661d1a5b595bdd5d60ca1b604482015260640162000911565b6040517fad30093f0000000000000000000000000000000000000000000000000000000081526003600482015260ff808a1660248301528816604482015260648101879052608481018690526001600160a01b03851660a482015273__$6aaf67e7827a013dd22ce71b2520632c86$__9063ad30093f9060c401602060405180830381865af415801562002920573d6000803e3d6000fd5b505050506040513d601f19601f8201168201806040525081019062002946919062003f3c565b6001805598975050505050505050565b6004546001600160a01b03163314620029b25760405162461bcd60e51b815260206004820152600860248201527f216c70546f6b656e000000000000000000000000000000000000000000000000604482015260640162000911565b6040517fc188e4be000000000000000000000000000000000000000000000000000000008152600360048201526001600160a01b03831660248201526044810182905273__$6aaf67e7827a013dd22ce71b2520632c86$__9063c188e4be9060640160006040518083038186803b15801562002a2d57600080fd5b505af415801562002a42573d6000803e3d6000fd5b505050505050565b6000546001600160a01b0316331462002aa65760405162461bcd60e51b815260206004820181905260248201527f4f776e61626c653a2063616c6c6572206973206e6f7420746865206f776e6572604482015260640162000911565b600d54421062002af95760405162461bcd60e51b815260206004820152600e60248201527f616c726561647953746f70706564000000000000000000000000000000000000604482015260640162000911565b60405163a303558560e01b81526003600482015260009073__$6aaf67e7827a013dd22ce71b2520632c86$__9063a303558590602401602060405180830381865af415801562002b4d573d6000803e3d6000fd5b505050506040513d601f19601f8201168201806040525081019062002b73919062003f3c565b600a819055600b81905542600c819055600d8190556040519192507f46e22fb3709ad289f62ce63d469248536dbc78d82b84a3d7e74ad606dc201938916200180891848252602082015260400190565b6001600160a01b038381166000908152601360205260408082205492851682528082205490517faa054aee0000000000000000000000000000000000000000000000000000000081526003600482015260ff938416602482015292166044830152606482018390529073__$6aaf67e7827a013dd22ce71b2520632c86$__9063aa054aee9060840162002463565b6000546001600160a01b0316331462002cad5760405162461bcd60e51b815260206004820181905260248201527f4f776e61626c653a2063616c6c6572206973206e6f7420746865206f776e6572604482015260640162000911565b6001600160a01b03811662002cee5760405162461bcd60e51b815260040162000911906020808252600490820152637a65726f60e01b604082015260600190565b601180546001600160a01b0319166001600160a01b0383169081179091556040519081527fae5a12c29e496b092467a620746b9eaf4e0e231a631a4370c233b1fac38e8e269060200162001808565b60606003600201805480602002602001604051908101604052809291908181526020018280548015620025015760200282019190600052602060002090815481526020019060010190808311620024ec575050505050905090565b6040517fb52e146f0000000000000000000000000000000000000000000000000000000081526003600482015260009073__$6aaf67e7827a013dd22ce71b2520632c86$__9063b52e146f906024016200087d565b6040517fd36604ac0000000000000000000000000000000000000000000000000000000081526003600482015260009073__$6aaf67e7827a013dd22ce71b2520632c86$__9063d36604ac906024016200087d565b6040517f1e7e95d300000000000000000000000000000000000000000000000000000000815260009073__$6aaf67e7827a013dd22ce71b2520632c86$__90631e7e95d390620024639060039088908890889060040162004344565b6001600160a01b0383811660009081526013602052604080822054928516825280822054905163ba2998d960e01b81526003600482015260ff938416602482015292166044830152606482018390529073__$6aaf67e7827a013dd22ce71b2520632c86$__9063ba2998d99060840162002463565b6000546001600160a01b0316331462002f6f5760405162461bcd60e51b815260206004820181905260248201527f4f776e61626c653a2063616c6c6572206973206e6f7420746865206f776e6572604482015260640162000911565b6001600160a01b03811662002fed5760405162461bcd60e51b815260206004820152602660248201527f4f776e61626c653a206e6577206f776e657220697320746865207a65726f206160448201527f6464726573730000000000000000000000000000000000000000000000000000606482015260840162000911565b62002ff88162003344565b50565b6012546001600160a01b03163314806200301f57506000546001600160a01b031633145b6200306d5760405162461bcd60e51b815260206004820152600e60248201527f21666565436f6e74726f6c6c6572000000000000000000000000000000000000604482015260640162000911565b60005b60035481101562002ff85760006003600001828154811062003096576200309662003f56565b6000918252602082200154600680546001600160a01b0390921693509084908110620030c657620030c662003f56565b6000918252602090912001546040517f70a082310000000000000000000000000000000000000000000000000000000081523060048201526001600160a01b038416906370a0823190602401602060405180830381865afa15801562003130573d6000803e3d6000fd5b505050506040513d601f19601f8201168201806040525081019062003156919062003f3c565b62003162919062003fa0565b90508015620031ca5760115462003187906001600160a01b038481169116836200341f565b604080516001600160a01b0384168152602081018390527fee3859efa95e525bc2bcb149b51b60a8bb4e89c647392d9d4112e03c3e73bdd6910160405180910390a15b50508080620031d99062003f82565b91505062003070565b600054600160a01b900460ff166200323d5760405162461bcd60e51b815260206004820152601460248201527f5061757361626c653a206e6f7420706175736564000000000000000000000000604482015260640162000911565b6000805460ff60a01b191690557f5db9ee0a495bf2e6ff9c91a7834c1ba4fdd244a5e8aa4e537bd38aeae4b073aa335b6040516001600160a01b03909116815260200160405180910390a1565b6001600160a01b0381166000908152600c830160205260408120548190620032b6906224ea0062004299565b9050428111156200333a576000620032cf428362003fa0565b6001600160a01b0385166000908152600d87016020526040902054600b8701549192506402540be400916224ea009184916200330c919062004154565b62003318919062004154565b620033249190620043ae565b620033309190620043ae565b925050506200188a565b5060009392505050565b600080546001600160a01b038381166001600160a01b0319831681178455604051919092169283917f8be0079c531659141344cd1fd0a4f28419497f9722a3daafe3b4186f6b6457e09190a35050565b600054600160a01b900460ff1615620033e35760405162461bcd60e51b815260206004820152601060248201526f14185d5cd8589b194e881c185d5cd95960821b604482015260640162000911565b6000805460ff60a01b1916600160a01b1790557f62e78cea01bee320cd4e420270b5ea74000d11b0c9f74754ebdbfc544b05a2586200326d3390565b604080516001600160a01b038416602482015260448082018490528251808303909101815260649091019091526020810180517bffffffffffffffffffffffffffffffffffffffffffffffffffffffff167fa9059cbb00000000000000000000000000000000000000000000000000000000179052620034a1908490620034a6565b505050565b600080836001600160a01b031683604051620034c39190620043d1565b6000604051808303816000865af19150503d806000811462003502576040519150601f19603f3d011682016040523d82523d6000602084013e62003507565b606091505b5091509150600082141562003520573d6000803e3d6000fd5b8051158062003540575080806020019051810190620035409190620043ef565b6200358e5760405162461bcd60e51b815260206004820152601660248201527f534146455f45524332305f43414c4c5f4641494c454400000000000000000000604482015260640162000911565b50505050565b6113f9806200441083390190565b828054828255906000526020600020908101928215620035e0579160200282015b82811115620035e0578251825591602001919060010190620035c3565b50620035ee9291506200364a565b5090565b828054828255906000526020600020908101928215620035e0579160200282015b82811115620035e057825182546001600160a01b0319166001600160a01b0390911617825560209092019160019091019062003613565b5b80821115620035ee57600081556001016200364b565b6001600160a01b038116811462002ff857600080fd5b8035620020438162003661565b6000602082840312156200369757600080fd5b81356200215d8162003661565b600080600080600060a08688031215620036bd57600080fd5b8535620036ca8162003661565b94506020860135620036dc8162003661565b935060408601359250606086013591506080860135620036fc8162003661565b809150509295509295909350565b6020808252825182820181905260009190848201906040850190845b81811015620037445783518352928401929184019160010162003726565b50909695505050505050565b634e487b7160e01b600052604160045260246000fd5b604051601f8201601f1916810167ffffffffffffffff8111828210171562003792576200379262003750565b604052919050565b600067ffffffffffffffff821115620037b757620037b762003750565b5060051b60200190565b600082601f830112620037d357600080fd5b81356020620037ec620037e6836200379a565b62003766565b82815260059290921b840181019181810190868411156200380c57600080fd5b8286015b8481101562003834578035620038268162003661565b835291830191830162003810565b509695505050505050565b803560ff811681146200204357600080fd5b600082601f8301126200386357600080fd5b8135602062003876620037e6836200379a565b82815260059290921b840181019181810190868411156200389657600080fd5b8286015b848110156200383457620038ae816200383f565b83529183019183016200389a565b600082601f830112620038ce57600080fd5b813567ffffffffffffffff811115620038eb57620038eb62003750565b62003900601f8201601f191660200162003766565b8181528460208386010111156200391657600080fd5b816020850160208301376000918101602001919091529392505050565b6000806000806000806000806000806101408b8d0312156200395457600080fd5b8a3567ffffffffffffffff808211156200396d57600080fd5b6200397b8e838f01620037c1565b9b5060208d01359150808211156200399257600080fd5b620039a08e838f0162003851565b9a5060408d0135915080821115620039b757600080fd5b620039c58e838f01620038bc565b995060608d0135915080821115620039dc57600080fd5b50620039eb8d828e01620038bc565b97505060808b0135955060a08b0135945060c08b0135935060e08b013592506101008b0135915062003a216101208c0162003677565b90509295989b9194979a5092959850565b600082601f83011262003a4457600080fd5b8135602062003a57620037e6836200379a565b82815260059290921b8401810191818101908684111562003a7757600080fd5b8286015b8481101562003834578035835291830191830162003a7b565b60008060006060848603121562003aaa57600080fd5b83359250602084013567ffffffffffffffff81111562003ac957600080fd5b62003ad78682870162003a32565b925050604084013590509250925092565b6000806000806080858703121562003aff57600080fd5b8435935062003b11602086016200383f565b93969395505050506040820135916060013590565b60008060006060848603121562003b3c57600080fd5b833567ffffffffffffffff81111562003b5457600080fd5b62003b628682870162003a32565b9660208601359650604090950135949350505050565b6000806040838503121562003b8c57600080fd5b50508035926020909101359150565b6000806000806080858703121562003bb257600080fd5b843562003bbf8162003661565b935060208581013567ffffffffffffffff8082111562003bde57600080fd5b818801915088601f83011262003bf357600080fd5b813562003c04620037e6826200379a565b81815260059190911b8301840190848101908b83111562003c2457600080fd5b938501935b8285101562003c4f57843562003c3f8162003661565b8252938501939085019062003c29565b97505050604088013592508083111562003c6857600080fd5b62003c7689848a0162003a32565b9450606088013592508083111562003c8d57600080fd5b505062003c9d87828801620038bc565b91505092959194509250565b6000806040838503121562003cbd57600080fd5b823562003cca8162003661565b946020939093013593505050565b60006020828403121562003ceb57600080fd5b6200215d826200383f565b60008060006060848603121562003d0c57600080fd5b833562003d198162003661565b92506020840135915062003d30604085016200383f565b90509250925092565b6000806000806080858703121562003d5057600080fd5b5050823594602084013594506040840135936060013592509050565b60008060006060848603121562003d8257600080fd5b62003d8d846200383f565b925062003d9d602085016200383f565b9150604084013590509250925092565b6020808252825182820181905260009190848201906040850190845b81811015620037445783516001600160a01b03168352928401929184019160010162003dc9565b60008060008060008060c0878903121562003e0a57600080fd5b62003e15876200383f565b955062003e25602088016200383f565b94506040870135935060608701359250608087013562003e458162003661565b8092505060a087013590509295509295509295565b60008060006060848603121562003e7057600080fd5b833562003e7d8162003661565b9250602084013562003e8f8162003661565b929592945050506040919091013590565b801515811462002ff857600080fd5b60008060006040848603121562003ec557600080fd5b833567ffffffffffffffff8082111562003ede57600080fd5b818601915086601f83011262003ef357600080fd5b81358181111562003f0357600080fd5b8760208260051b850101111562003f1957600080fd5b6020928301955093505084013562003f318162003ea0565b809150509250925092565b60006020828403121562003f4f57600080fd5b5051919050565b634e487b7160e01b600052603260045260246000fd5b634e487b7160e01b600052601160045260246000fd5b600060001982141562003f995762003f9962003f6c565b5060010190565b60008282101562003fb55762003fb562003f6c565b500390565b600181815b8085111562003ffb57816000190482111562003fdf5762003fdf62003f6c565b8085161562003fed57918102915b93841c939080029062003fbf565b509250929050565b60008262004014575060016200188a565b8162004023575060006200188a565b81600181146200403c5760028114620040475762004067565b60019150506200188a565b60ff8411156200405b576200405b62003f6c565b50506001821b6200188a565b5060208310610133831016604e8410600b84101617156200408c575081810a6200188a565b62004098838362003fba565b8060001904821115620040af57620040af62003f6c565b029392505050565b60006200215d838362004003565b60005b83811015620040e2578181015183820152602001620040c8565b838111156200358e5750506000910152565b600081518084526200410e816020860160208601620040c5565b601f01601f19169290920160200192915050565b604081526000620041376040830185620040f4565b82810360208401526200414b8185620040f4565b95945050505050565b600081600019048311821515161562004171576200417162003f6c565b500290565b600081518084526020808501945080840160005b83811015620041a8578151875295820195908201906001016200418a565b509495945050505050565b8381528260208201526060604082015260006200414b606083018462004176565b60006020808385031215620041e857600080fd5b825167ffffffffffffffff8111156200420057600080fd5b8301601f810185136200421257600080fd5b805162004223620037e6826200379a565b81815260059190911b820183019083810190878311156200424357600080fd5b928401925b82841015620042635783518252928401929084019062004248565b979650505050505050565b83815260606020820152600062004289606083018562004176565b9050826040830152949350505050565b60008219821115620042af57620042af62003f6c565b500190565b600060a0820187835260206001600160a01b038089168286015260a0604086015282885180855260c087019150838a01945060005b8181101562004309578551841683529484019491840191600101620042e9565b505085810360608701526200431f818962004176565b93505050508281036080840152620043388185620040f4565b98975050505050505050565b8481526060602082015282606082015260007f07ffffffffffffffffffffffffffffffffffffffffffffffffffffffffffffff8411156200438457600080fd5b8360051b808660808501376000908301608001908152921515604090920191909152509392505050565b600082620043cc57634e487b7160e01b600052601260045260246000fd5b500490565b60008251620043e5818460208701620040c5565b9190910192915050565b6000602082840312156200440257600080fd5b81516200215d8162003ea056fe60806040523480156200001157600080fd5b50604051620013f9380380620013f9833981016040819052620000349162000256565b8181620000413362000093565b815162000056906004906020850190620000e3565b5080516200006c906005906020840190620000e3565b50506006805433610100026001600160a81b031990911617601217905550620002fd915050565b600080546001600160a01b038381166001600160a01b0319831681178455604051919092169283917f8be0079c531659141344cd1fd0a4f28419497f9722a3daafe3b4186f6b6457e09190a35050565b828054620000f190620002c0565b90600052602060002090601f01602090048101928262000115576000855562000160565b82601f106200013057805160ff191683800117855562000160565b8280016001018555821562000160579182015b828111156200016057825182559160200191906001019062000143565b506200016e92915062000172565b5090565b5b808211156200016e576000815560010162000173565b634e487b7160e01b600052604160045260246000fd5b600082601f830112620001b157600080fd5b81516001600160401b0380821115620001ce57620001ce62000189565b604051601f8301601f19908116603f01168101908282118183101715620001f957620001f962000189565b816040528381526020925086838588010111156200021657600080fd5b600091505b838210156200023a57858201830151818301840152908201906200021b565b838211156200024c5760008385830101525b9695505050505050565b600080604083850312156200026a57600080fd5b82516001600160401b03808211156200028257600080fd5b62000290868387016200019f565b93506020850151915080821115620002a757600080fd5b50620002b6858286016200019f565b9150509250929050565b600181811c90821680620002d557607f821691505b60208210811415620002f757634e487b7160e01b600052602260045260246000fd5b50919050565b6110ec806200030d6000396000f3fe608060405234801561001057600080fd5b50600436106101365760003560e01c8063715018a6116100b257806395d89b4111610081578063a9059cbb11610066578063a9059cbb1461028b578063dd62ed3e1461029e578063f2fde38b146102d757600080fd5b806395d89b4114610270578063a457c2d71461027857600080fd5b8063715018a61461021457806379cc67901461021c5780638119c0651461022f5780638da5cb5b1461025f57600080fd5b8063313ce5671161010957806340c10f19116100ee57806340c10f19146101c357806342966c68146101d857806370a08231146101eb57600080fd5b8063313ce567146101a157806339509351146101b057600080fd5b806306fdde031461013b578063095ea7b31461015957806318160ddd1461017c57806323b872dd1461018e575b600080fd5b6101436102ea565b6040516101509190610ef1565b60405180910390f35b61016c610167366004610f62565b61037c565b6040519015158152602001610150565b6003545b604051908152602001610150565b61016c61019c366004610f8c565b610392565b60405160128152602001610150565b61016c6101be366004610f62565b610456565b6101d66101d1366004610f62565b610492565b005b6101d66101e6366004610fc8565b61054a565b6101806101f9366004610fe1565b6001600160a01b031660009081526001602052604090205490565b6101d6610557565b6101d661022a366004610f62565b6105bd565b6006546102479061010090046001600160a01b031681565b6040516001600160a01b039091168152602001610150565b6000546001600160a01b0316610247565b61014361065c565b61016c610286366004610f62565b61066b565b61016c610299366004610f62565b61071c565b6101806102ac366004611003565b6001600160a01b03918216600090815260026020908152604080832093909416825291909152205490565b6101d66102e5366004610fe1565b610729565b6060600480546102f990611036565b80601f016020809104026020016040519081016040528092919081815260200182805461032590611036565b80156103725780601f1061034757610100808354040283529160200191610372565b820191906000526020600020905b81548152906001019060200180831161035557829003601f168201915b5050505050905090565b6000610389338484610808565b50600192915050565b600061039f848484610960565b6001600160a01b03841660009081526002602090815260408083203384529091529020548281101561043e5760405162461bcd60e51b815260206004820152602860248201527f45524332303a207472616e7366657220616d6f756e742065786365656473206160448201527f6c6c6f77616e636500000000000000000000000000000000000000000000000060648201526084015b60405180910390fd5b61044b8533858403610808565b506001949350505050565b3360008181526002602090815260408083206001600160a01b0387168452909152812054909161038991859061048d908690611087565b610808565b6000546001600160a01b031633146104ec5760405162461bcd60e51b815260206004820181905260248201527f4f776e61626c653a2063616c6c6572206973206e6f7420746865206f776e65726044820152606401610435565b6000811161053c5760405162461bcd60e51b815260206004820152600e60248201527f7a65726f4d696e74416d6f756e740000000000000000000000000000000000006044820152606401610435565b6105468282610b83565b5050565b6105543382610c6e565b50565b6000546001600160a01b031633146105b15760405162461bcd60e51b815260206004820181905260248201527f4f776e61626c653a2063616c6c6572206973206e6f7420746865206f776e65726044820152606401610435565b6105bb6000610dff565b565b60006105c983336102ac565b9050818110156106405760405162461bcd60e51b8152602060048201526024808201527f45524332303a206275726e20616d6f756e74206578636565647320616c6c6f7760448201527f616e6365000000000000000000000000000000000000000000000000000000006064820152608401610435565b61064d8333848403610808565b6106578383610c6e565b505050565b6060600580546102f990611036565b3360009081526002602090815260408083206001600160a01b0386168452909152812054828110156107055760405162461bcd60e51b815260206004820152602560248201527f45524332303a2064656372656173656420616c6c6f77616e63652062656c6f7760448201527f207a65726f0000000000000000000000000000000000000000000000000000006064820152608401610435565b6107123385858403610808565b5060019392505050565b6000610389338484610960565b6000546001600160a01b031633146107835760405162461bcd60e51b815260206004820181905260248201527f4f776e61626c653a2063616c6c6572206973206e6f7420746865206f776e65726044820152606401610435565b6001600160a01b0381166107ff5760405162461bcd60e51b815260206004820152602660248201527f4f776e61626c653a206e6577206f776e657220697320746865207a65726f206160448201527f64647265737300000000000000000000000000000000000000000000000000006064820152608401610435565b61055481610dff565b6001600160a01b0383166108835760405162461bcd60e51b8152602060048201526024808201527f45524332303a20617070726f76652066726f6d20746865207a65726f2061646460448201527f72657373000000000000000000000000000000000000000000000000000000006064820152608401610435565b6001600160a01b0382166108ff5760405162461bcd60e51b815260206004820152602260248201527f45524332303a20617070726f766520746f20746865207a65726f20616464726560448201527f73730000000000000000000000000000000000000000000000000000000000006064820152608401610435565b6001600160a01b0383811660008181526002602090815260408083209487168084529482529182902085905590518481527f8c5be1e5ebec7d5bd14f71427d1e84f3dd0314c0f7b2291e5b200ac8c7c3b925910160405180910390a3505050565b6001600160a01b0383166109dc5760405162461bcd60e51b815260206004820152602560248201527f45524332303a207472616e736665722066726f6d20746865207a65726f20616460448201527f64726573730000000000000000000000000000000000000000000000000000006064820152608401610435565b6001600160a01b038216610a585760405162461bcd60e51b815260206004820152602360248201527f45524332303a207472616e7366657220746f20746865207a65726f206164647260448201527f65737300000000000000000000000000000000000000000000000000000000006064820152608401610435565b610a63838383610e67565b6001600160a01b03831660009081526001602052604090205481811015610af25760405162461bcd60e51b815260206004820152602660248201527f45524332303a207472616e7366657220616d6f756e742065786365656473206260448201527f616c616e636500000000000000000000000000000000000000000000000000006064820152608401610435565b6001600160a01b03808516600090815260016020526040808220858503905591851681529081208054849290610b29908490611087565b92505081905550826001600160a01b0316846001600160a01b03167fddf252ad1be2c89b69c2b068fc378daa952ba7f163c4a11628f55a4df523b3ef84604051610b7591815260200190565b60405180910390a350505050565b6001600160a01b038216610bd95760405162461bcd60e51b815260206004820152601f60248201527f45524332303a206d696e7420746f20746865207a65726f2061646472657373006044820152606401610435565b610be560008383610e67565b8060036000828254610bf79190611087565b90915550506001600160a01b03821660009081526001602052604081208054839290610c24908490611087565b90915550506040518181526001600160a01b038316906000907fddf252ad1be2c89b69c2b068fc378daa952ba7f163c4a11628f55a4df523b3ef9060200160405180910390a35050565b6001600160a01b038216610cea5760405162461bcd60e51b815260206004820152602160248201527f45524332303a206275726e2066726f6d20746865207a65726f2061646472657360448201527f73000000000000000000000000000000000000000000000000000000000000006064820152608401610435565b610cf682600083610e67565b6001600160a01b03821660009081526001602052604090205481811015610d855760405162461bcd60e51b815260206004820152602260248201527f45524332303a206275726e20616d6f756e7420657863656564732062616c616e60448201527f63650000000000000000000000000000000000000000000000000000000000006064820152608401610435565b6001600160a01b0383166000908152600160205260408120838303905560038054849290610db490849061109f565b90915550506040518281526000906001600160a01b038516907fddf252ad1be2c89b69c2b068fc378daa952ba7f163c4a11628f55a4df523b3ef9060200160405180910390a3505050565b600080546001600160a01b038381167fffffffffffffffffffffffff0000000000000000000000000000000000000000831681178455604051919092169283917f8be0079c531659141344cd1fd0a4f28419497f9722a3daafe3b4186f6b6457e09190a35050565b6006546040517fc00c125c0000000000000000000000000000000000000000000000000000000081526001600160a01b038481166004830152602482018490526101009092049091169063c00c125c90604401600060405180830381600087803b158015610ed457600080fd5b505af1158015610ee8573d6000803e3d6000fd5b50505050505050565b600060208083528351808285015260005b81811015610f1e57858101830151858201604001528201610f02565b81811115610f30576000604083870101525b50601f01601f1916929092016040019392505050565b80356001600160a01b0381168114610f5d57600080fd5b919050565b60008060408385031215610f7557600080fd5b610f7e83610f46565b946020939093013593505050565b600080600060608486031215610fa157600080fd5b610faa84610f46565b9250610fb860208501610f46565b9150604084013590509250925092565b600060208284031215610fda57600080fd5b5035919050565b600060208284031215610ff357600080fd5b610ffc82610f46565b9392505050565b6000806040838503121561101657600080fd5b61101f83610f46565b915061102d60208401610f46565b90509250929050565b600181811c9082168061104a57607f821691505b6020821081141561106b57634e487b7160e01b600052602260045260246000fd5b50919050565b634e487b7160e01b600052601160045260246000fd5b6000821982111561109a5761109a611071565b500190565b6000828210156110b1576110b1611071565b50039056fea2646970667358221220379ad36da58070db0bb1afb67394a52bef264feda89c02a40879eb6a9f5e7a4b64736f6c634300080c0033a2646970667358221220cb1653e8156c2b7bcfd21bd055358df0e7b0815c3659211100e575602870ebc964736f6c634300080c0033",
  "libraries": {
    "RequiemStableSwapLib": "0xa82fF9aFd8f496c3d6ac40E2a0F282E47488CFc9"
  },
  "devdoc": {
    "kind": "dev",
    "methods": {
      "owner()": {
        "details": "Returns the address of the current owner."
      },
      "paused()": {
        "details": "Returns true if the contract is paused, and false otherwise."
      },
      "rampA(uint256,uint256)": {
        "params": {
          "futureA": "the new A to ramp towards",
          "futureATime": "timestamp when the new A should be reached"
        }
      },
      "renounceOwnership()": {
        "details": "Leaves the contract without owner. It will not be possible to call `onlyOwner` functions anymore. Can only be called by the current owner. NOTE: Renouncing ownership will leave the contract without an owner, thereby removing any functionality that is only available to the owner."
      },
      "setFee(uint256,uint256,uint256,uint256)": {
        "details": "adminFee cannot be higher than 100% of the swap fee swap fee cannot be higher than 1% of each swap",
        "params": {
          "newAdminFee": "new admin fee to be applied on future transactions",
          "newSwapFee": "new swap fee to be applied on future transactions",
          "newWithdrawFee": "new initial withdraw fee to be applied on future withdrawal transactions"
        }
      },
      "transferOwnership(address)": {
        "details": "Transfers ownership of the contract to a new account (`newOwner`). Can only be called by the current owner."
      },
      "updateUserWithdrawFee(address,uint256)": {
        "params": {
          "recipient": "address of the recipient of pool token",
          "transferAmount": "amount of pool token to transfer"
        }
      }
    },
    "version": 1
  },
  "userdoc": {
    "events": {
      "AddLiquidity(address,uint256[],uint256[],uint256,uint256)": {
        "notice": "EVENTS"
      }
    },
    "kind": "user",
    "methods": {
      "MIN_RAMP_TIME()": {
        "notice": "constants"
      },
      "addLiquidity(uint256[],uint256,uint256)": {
        "notice": "PUBLIC FUNCTIONS"
      },
      "flashLoan(address,address[],uint256[],bytes)": {
        "notice": "Flash Loan"
      },
      "getVirtualPrice()": {
        "notice": "VIEW FUNCTIONS"
      },
      "rampA(uint256,uint256)": {
        "notice": "Start ramping up or down A parameter towards given futureA_ and futureTime_ Checks if the change is too rapid, and commits the new A value only when it falls under the limit range."
      },
      "setFee(uint256,uint256,uint256,uint256)": {
        "notice": "Sets the admin fee"
      },
      "swapStorage()": {
        "notice": "STATE VARS"
      },
      "updateUserWithdrawFee(address,uint256)": {
        "notice": "Updates the user withdraw fee. This function can only be called by the pool token. Should be used to update the withdraw fee on transfer of pool tokens. Transferring your pool token will reset the 4 weeks period. If the recipient is already holding some pool tokens, the withdraw fee will be discounted in respective amounts."
      }
    },
    "version": 1
  },
  "storageLayout": {
    "storage": [
      {
        "astId": 38006,
        "contract": "contracts/RequiemStableSwap.sol:RequiemStableSwap",
        "label": "_owner",
        "offset": 0,
        "slot": "0",
        "type": "t_address"
      },
      {
        "astId": 38121,
        "contract": "contracts/RequiemStableSwap.sol:RequiemStableSwap",
        "label": "_paused",
        "offset": 20,
        "slot": "0",
        "type": "t_bool"
      },
      {
        "astId": 38206,
        "contract": "contracts/RequiemStableSwap.sol:RequiemStableSwap",
        "label": "_status",
        "offset": 0,
        "slot": "1",
        "type": "t_uint256"
      },
      {
        "astId": 37815,
        "contract": "contracts/RequiemStableSwap.sol:RequiemStableSwap",
        "label": "_initialized",
        "offset": 0,
        "slot": "2",
        "type": "t_bool"
      },
      {
        "astId": 37818,
        "contract": "contracts/RequiemStableSwap.sol:RequiemStableSwap",
        "label": "_initializing",
        "offset": 1,
        "slot": "2",
        "type": "t_bool"
      },
      {
        "astId": 15187,
        "contract": "contracts/RequiemStableSwap.sol:RequiemStableSwap",
        "label": "swapStorage",
        "offset": 0,
        "slot": "3",
        "type": "t_struct(SwapStorage)16636_storage"
      },
      {
        "astId": 15189,
        "contract": "contracts/RequiemStableSwap.sol:RequiemStableSwap",
        "label": "feeDistributor",
        "offset": 0,
        "slot": "17",
        "type": "t_address"
      },
      {
        "astId": 15191,
        "contract": "contracts/RequiemStableSwap.sol:RequiemStableSwap",
        "label": "feeController",
        "offset": 0,
        "slot": "18",
        "type": "t_address"
      },
      {
        "astId": 15195,
        "contract": "contracts/RequiemStableSwap.sol:RequiemStableSwap",
        "label": "tokenIndexes",
        "offset": 0,
        "slot": "19",
        "type": "t_mapping(t_address,t_uint8)"
      }
    ],
    "types": {
      "t_address": {
        "encoding": "inplace",
        "label": "address",
        "numberOfBytes": "20"
      },
      "t_array(t_contract(IERC20)30540)dyn_storage": {
        "base": "t_contract(IERC20)30540",
        "encoding": "dynamic_array",
        "label": "contract IERC20[]",
        "numberOfBytes": "32"
      },
      "t_array(t_uint256)dyn_storage": {
        "base": "t_uint256",
        "encoding": "dynamic_array",
        "label": "uint256[]",
        "numberOfBytes": "32"
      },
      "t_bool": {
        "encoding": "inplace",
        "label": "bool",
        "numberOfBytes": "1"
      },
      "t_contract(IERC20)30540": {
        "encoding": "inplace",
        "label": "contract IERC20",
        "numberOfBytes": "20"
      },
      "t_contract(LPToken)47784": {
        "encoding": "inplace",
        "label": "contract LPToken",
        "numberOfBytes": "20"
      },
      "t_mapping(t_address,t_uint256)": {
        "encoding": "mapping",
        "key": "t_address",
        "label": "mapping(address => uint256)",
        "numberOfBytes": "32",
        "value": "t_uint256"
      },
      "t_mapping(t_address,t_uint8)": {
        "encoding": "mapping",
        "key": "t_address",
        "label": "mapping(address => uint8)",
        "numberOfBytes": "32",
        "value": "t_uint8"
      },
      "t_struct(SwapStorage)16636_storage": {
        "encoding": "inplace",
        "label": "struct RequiemStableSwapLib.SwapStorage",
        "members": [
          {
            "astId": 16596,
            "contract": "contracts/RequiemStableSwap.sol:RequiemStableSwap",
            "label": "pooledTokens",
            "offset": 0,
            "slot": "0",
            "type": "t_array(t_contract(IERC20)30540)dyn_storage"
          },
          {
            "astId": 16599,
            "contract": "contracts/RequiemStableSwap.sol:RequiemStableSwap",
            "label": "lpToken",
            "offset": 0,
            "slot": "1",
            "type": "t_contract(LPToken)47784"
          },
          {
            "astId": 16603,
            "contract": "contracts/RequiemStableSwap.sol:RequiemStableSwap",
            "label": "tokenMultipliers",
            "offset": 0,
            "slot": "2",
            "type": "t_array(t_uint256)dyn_storage"
          },
          {
            "astId": 16607,
            "contract": "contracts/RequiemStableSwap.sol:RequiemStableSwap",
            "label": "balances",
            "offset": 0,
            "slot": "3",
            "type": "t_array(t_uint256)dyn_storage"
          },
          {
            "astId": 16610,
            "contract": "contracts/RequiemStableSwap.sol:RequiemStableSwap",
            "label": "fee",
            "offset": 0,
            "slot": "4",
            "type": "t_uint256"
          },
          {
            "astId": 16613,
            "contract": "contracts/RequiemStableSwap.sol:RequiemStableSwap",
            "label": "flashFee",
            "offset": 0,
            "slot": "5",
            "type": "t_uint256"
          },
          {
            "astId": 16616,
            "contract": "contracts/RequiemStableSwap.sol:RequiemStableSwap",
            "label": "adminFee",
            "offset": 0,
            "slot": "6",
            "type": "t_uint256"
          },
          {
            "astId": 16619,
            "contract": "contracts/RequiemStableSwap.sol:RequiemStableSwap",
            "label": "initialA",
            "offset": 0,
            "slot": "7",
            "type": "t_uint256"
          },
          {
            "astId": 16621,
            "contract": "contracts/RequiemStableSwap.sol:RequiemStableSwap",
            "label": "futureA",
            "offset": 0,
            "slot": "8",
            "type": "t_uint256"
          },
          {
            "astId": 16623,
            "contract": "contracts/RequiemStableSwap.sol:RequiemStableSwap",
            "label": "initialATime",
            "offset": 0,
            "slot": "9",
            "type": "t_uint256"
          },
          {
            "astId": 16625,
            "contract": "contracts/RequiemStableSwap.sol:RequiemStableSwap",
            "label": "futureATime",
            "offset": 0,
            "slot": "10",
            "type": "t_uint256"
          },
          {
            "astId": 16627,
            "contract": "contracts/RequiemStableSwap.sol:RequiemStableSwap",
            "label": "defaultWithdrawFee",
            "offset": 0,
            "slot": "11",
            "type": "t_uint256"
          },
          {
            "astId": 16631,
            "contract": "contracts/RequiemStableSwap.sol:RequiemStableSwap",
            "label": "depositTimestamp",
            "offset": 0,
            "slot": "12",
            "type": "t_mapping(t_address,t_uint256)"
          },
          {
            "astId": 16635,
            "contract": "contracts/RequiemStableSwap.sol:RequiemStableSwap",
            "label": "withdrawFeeMultiplier",
            "offset": 0,
            "slot": "13",
            "type": "t_mapping(t_address,t_uint256)"
          }
        ],
        "numberOfBytes": "448"
      },
      "t_uint256": {
        "encoding": "inplace",
        "label": "uint256",
        "numberOfBytes": "32"
      },
      "t_uint8": {
        "encoding": "inplace",
        "label": "uint8",
        "numberOfBytes": "1"
      }
    }
  }
}