{
  "address": "0xE6E340D132b5f46d1e472DebcD681B2aBc16e57E",
  "abi": [
    {
      "anonymous": false,
      "inputs": [
        {
          "indexed": true,
          "internalType": "address",
          "name": "provider",
          "type": "address"
        },
        {
          "indexed": false,
          "internalType": "uint256[]",
          "name": "tokenAmounts",
          "type": "uint256[]"
        },
        {
          "indexed": false,
          "internalType": "uint256[]",
          "name": "fees",
          "type": "uint256[]"
        },
        {
          "indexed": false,
          "internalType": "uint256",
          "name": "invariant",
          "type": "uint256"
        },
        {
          "indexed": false,
          "internalType": "uint256",
          "name": "tokenSupply",
          "type": "uint256"
        }
      ],
      "name": "AddLiquidity",
      "type": "event"
    },
    {
      "anonymous": false,
      "inputs": [
        {
          "indexed": false,
          "internalType": "address",
          "name": "token",
          "type": "address"
        },
        {
          "indexed": false,
          "internalType": "uint256",
          "name": "amount",
          "type": "uint256"
        }
      ],
      "name": "CollectProtocolFee",
      "type": "event"
    },
    {
      "anonymous": false,
      "inputs": [
        {
          "indexed": false,
          "internalType": "address",
          "name": "newController",
          "type": "address"
        }
      ],
      "name": "FeeControllerChanged",
      "type": "event"
    },
    {
      "anonymous": false,
      "inputs": [
        {
          "indexed": false,
          "internalType": "address",
          "name": "newController",
          "type": "address"
        }
      ],
      "name": "FeeDistributorChanged",
      "type": "event"
    },
    {
      "anonymous": false,
      "inputs": [
        {
          "indexed": false,
          "internalType": "uint256",
          "name": "fee",
          "type": "uint256"
        },
        {
          "indexed": false,
          "internalType": "uint256",
          "name": "adminFee",
          "type": "uint256"
        },
        {
          "indexed": false,
          "internalType": "uint256",
          "name": "withdrawFee",
          "type": "uint256"
        }
      ],
      "name": "NewFee",
      "type": "event"
    },
    {
      "anonymous": false,
      "inputs": [
        {
          "indexed": true,
          "internalType": "address",
          "name": "previousOwner",
          "type": "address"
        },
        {
          "indexed": true,
          "internalType": "address",
          "name": "newOwner",
          "type": "address"
        }
      ],
      "name": "OwnershipTransferred",
      "type": "event"
    },
    {
      "anonymous": false,
      "inputs": [
        {
          "indexed": false,
          "internalType": "address",
          "name": "account",
          "type": "address"
        }
      ],
      "name": "Paused",
      "type": "event"
    },
    {
      "anonymous": false,
      "inputs": [
        {
          "indexed": false,
          "internalType": "uint256",
          "name": "oldA",
          "type": "uint256"
        },
        {
          "indexed": false,
          "internalType": "uint256",
          "name": "newA",
          "type": "uint256"
        },
        {
          "indexed": false,
          "internalType": "uint256",
          "name": "initialTime",
          "type": "uint256"
        },
        {
          "indexed": false,
          "internalType": "uint256",
          "name": "futureTime",
          "type": "uint256"
        }
      ],
      "name": "RampA",
      "type": "event"
    },
    {
      "anonymous": false,
      "inputs": [
        {
          "indexed": true,
          "internalType": "address",
          "name": "provider",
          "type": "address"
        },
        {
          "indexed": false,
          "internalType": "uint256[]",
          "name": "tokenAmounts",
          "type": "uint256[]"
        },
        {
          "indexed": false,
          "internalType": "uint256[]",
          "name": "fees",
          "type": "uint256[]"
        },
        {
          "indexed": false,
          "internalType": "uint256",
          "name": "tokenSupply",
          "type": "uint256"
        }
      ],
      "name": "RemoveLiquidity",
      "type": "event"
    },
    {
      "anonymous": false,
      "inputs": [
        {
          "indexed": true,
          "internalType": "address",
          "name": "provider",
          "type": "address"
        },
        {
          "indexed": false,
          "internalType": "uint256[]",
          "name": "tokenAmounts",
          "type": "uint256[]"
        },
        {
          "indexed": false,
          "internalType": "uint256[]",
          "name": "fees",
          "type": "uint256[]"
        },
        {
          "indexed": false,
          "internalType": "uint256",
          "name": "invariant",
          "type": "uint256"
        },
        {
          "indexed": false,
          "internalType": "uint256",
          "name": "tokenSupply",
          "type": "uint256"
        }
      ],
      "name": "RemoveLiquidityImbalance",
      "type": "event"
    },
    {
      "anonymous": false,
      "inputs": [
        {
          "indexed": true,
          "internalType": "address",
          "name": "provider",
          "type": "address"
        },
        {
          "indexed": false,
          "internalType": "uint256",
          "name": "tokenIndex",
          "type": "uint256"
        },
        {
          "indexed": false,
          "internalType": "uint256",
          "name": "tokenAmount",
          "type": "uint256"
        },
        {
          "indexed": false,
          "internalType": "uint256",
          "name": "coinAmount",
          "type": "uint256"
        }
      ],
      "name": "RemoveLiquidityOne",
      "type": "event"
    },
    {
      "anonymous": false,
      "inputs": [
        {
          "indexed": false,
          "internalType": "uint256",
          "name": "A",
          "type": "uint256"
        },
        {
          "indexed": false,
          "internalType": "uint256",
          "name": "timestamp",
          "type": "uint256"
        }
      ],
      "name": "StopRampA",
      "type": "event"
    },
    {
      "anonymous": false,
      "inputs": [
        {
          "indexed": true,
          "internalType": "address",
          "name": "buyer",
          "type": "address"
        },
        {
          "indexed": false,
          "internalType": "uint256",
          "name": "soldId",
          "type": "uint256"
        },
        {
          "indexed": false,
          "internalType": "uint256",
          "name": "tokensSold",
          "type": "uint256"
        },
        {
          "indexed": false,
          "internalType": "uint256",
          "name": "boughtId",
          "type": "uint256"
        },
        {
          "indexed": false,
          "internalType": "uint256",
          "name": "tokensBought",
          "type": "uint256"
        }
      ],
      "name": "TokenExchange",
      "type": "event"
    },
    {
      "anonymous": false,
      "inputs": [
        {
          "indexed": false,
          "internalType": "address",
          "name": "account",
          "type": "address"
        }
      ],
      "name": "Unpaused",
      "type": "event"
    },
    {
      "inputs": [],
      "name": "MAX_A",
      "outputs": [
        {
          "internalType": "uint256",
          "name": "",
          "type": "uint256"
        }
      ],
      "stateMutability": "view",
      "type": "function"
    },
    {
      "inputs": [],
      "name": "MAX_ADMIN_FEE",
      "outputs": [
        {
          "internalType": "uint256",
          "name": "",
          "type": "uint256"
        }
      ],
      "stateMutability": "view",
      "type": "function"
    },
    {
      "inputs": [],
      "name": "MAX_A_CHANGE",
      "outputs": [
        {
          "internalType": "uint256",
          "name": "",
          "type": "uint256"
        }
      ],
      "stateMutability": "view",
      "type": "function"
    },
    {
      "inputs": [],
      "name": "MAX_SWAP_FEE",
      "outputs": [
        {
          "internalType": "uint256",
          "name": "",
          "type": "uint256"
        }
      ],
      "stateMutability": "view",
      "type": "function"
    },
    {
      "inputs": [],
      "name": "MAX_WITHDRAW_FEE",
      "outputs": [
        {
          "internalType": "uint256",
          "name": "",
          "type": "uint256"
        }
      ],
      "stateMutability": "view",
      "type": "function"
    },
    {
      "inputs": [],
      "name": "MIN_RAMP_TIME",
      "outputs": [
        {
          "internalType": "uint256",
          "name": "",
          "type": "uint256"
        }
      ],
      "stateMutability": "view",
      "type": "function"
    },
    {
      "inputs": [
        {
          "internalType": "uint256[]",
          "name": "amounts",
          "type": "uint256[]"
        },
        {
          "internalType": "uint256",
          "name": "minMintAmount",
          "type": "uint256"
        },
        {
          "internalType": "uint256",
          "name": "deadline",
          "type": "uint256"
        }
      ],
      "name": "addLiquidity",
      "outputs": [
        {
          "internalType": "uint256",
          "name": "",
          "type": "uint256"
        }
      ],
      "stateMutability": "nonpayable",
      "type": "function"
    },
    {
      "inputs": [
        {
          "internalType": "address",
          "name": "account",
          "type": "address"
        }
      ],
      "name": "calculateCurrentWithdrawFee",
      "outputs": [
        {
          "internalType": "uint256",
          "name": "",
          "type": "uint256"
        }
      ],
      "stateMutability": "view",
      "type": "function"
    },
    {
      "inputs": [
        {
          "internalType": "address",
          "name": "account",
          "type": "address"
        },
        {
          "internalType": "uint256",
          "name": "amount",
          "type": "uint256"
        }
      ],
      "name": "calculateRemoveLiquidity",
      "outputs": [
        {
          "internalType": "uint256[]",
          "name": "",
          "type": "uint256[]"
        }
      ],
      "stateMutability": "view",
      "type": "function"
    },
    {
      "inputs": [
        {
          "internalType": "address",
          "name": "account",
          "type": "address"
        },
        {
          "internalType": "uint256",
          "name": "amount",
          "type": "uint256"
        },
        {
          "internalType": "uint8",
          "name": "index",
          "type": "uint8"
        }
      ],
      "name": "calculateRemoveLiquidityOneToken",
      "outputs": [
        {
          "internalType": "uint256",
          "name": "",
          "type": "uint256"
        }
      ],
      "stateMutability": "view",
      "type": "function"
    },
    {
      "inputs": [
        {
          "internalType": "uint8",
          "name": "inIndex",
          "type": "uint8"
        },
        {
          "internalType": "uint8",
          "name": "outIndex",
          "type": "uint8"
        },
        {
          "internalType": "uint256",
          "name": "inAmount",
          "type": "uint256"
        }
      ],
      "name": "calculateSwap",
      "outputs": [
        {
          "internalType": "uint256",
          "name": "",
          "type": "uint256"
        }
      ],
      "stateMutability": "view",
      "type": "function"
    },
    {
      "inputs": [
        {
          "internalType": "address",
          "name": "tokenIn",
          "type": "address"
        },
        {
          "internalType": "address",
          "name": "tokenOut",
          "type": "address"
        },
        {
          "internalType": "uint256",
          "name": "amountIn",
          "type": "uint256"
        }
      ],
      "name": "calculateSwapGivenIn",
      "outputs": [
        {
          "internalType": "uint256",
          "name": "",
          "type": "uint256"
        }
      ],
      "stateMutability": "view",
      "type": "function"
    },
    {
      "inputs": [
        {
          "internalType": "address",
          "name": "tokenIn",
          "type": "address"
        },
        {
          "internalType": "address",
          "name": "tokenOut",
          "type": "address"
        },
        {
          "internalType": "uint256",
          "name": "amountOut",
          "type": "uint256"
        }
      ],
      "name": "calculateSwapGivenOut",
      "outputs": [
        {
          "internalType": "uint256",
          "name": "",
          "type": "uint256"
        }
      ],
      "stateMutability": "view",
      "type": "function"
    },
    {
      "inputs": [
        {
          "internalType": "uint256[]",
          "name": "amounts",
          "type": "uint256[]"
        },
        {
          "internalType": "bool",
          "name": "deposit",
          "type": "bool"
        }
      ],
      "name": "calculateTokenAmount",
      "outputs": [
        {
          "internalType": "uint256",
          "name": "",
          "type": "uint256"
        }
      ],
      "stateMutability": "view",
      "type": "function"
    },
    {
      "inputs": [],
      "name": "feeController",
      "outputs": [
        {
          "internalType": "address",
          "name": "",
          "type": "address"
        }
      ],
      "stateMutability": "view",
      "type": "function"
    },
    {
      "inputs": [],
      "name": "feeDistributor",
      "outputs": [
        {
          "internalType": "address",
          "name": "",
          "type": "address"
        }
      ],
      "stateMutability": "view",
      "type": "function"
    },
    {
      "inputs": [],
      "name": "getA",
      "outputs": [
        {
          "internalType": "uint256",
          "name": "",
          "type": "uint256"
        }
      ],
      "stateMutability": "view",
      "type": "function"
    },
    {
      "inputs": [],
      "name": "getAPrecise",
      "outputs": [
        {
          "internalType": "uint256",
          "name": "",
          "type": "uint256"
        }
      ],
      "stateMutability": "view",
      "type": "function"
    },
    {
      "inputs": [
        {
          "internalType": "uint8",
          "name": "index",
          "type": "uint8"
        }
      ],
      "name": "getAdminBalance",
      "outputs": [
        {
          "internalType": "uint256",
          "name": "",
          "type": "uint256"
        }
      ],
      "stateMutability": "view",
      "type": "function"
    },
    {
      "inputs": [],
      "name": "getAdminBalances",
      "outputs": [
        {
          "internalType": "uint256[]",
          "name": "adminBalances",
          "type": "uint256[]"
        }
      ],
      "stateMutability": "view",
      "type": "function"
    },
    {
      "inputs": [],
      "name": "getLpToken",
      "outputs": [
        {
          "internalType": "contract IERC20",
          "name": "",
          "type": "address"
        }
      ],
      "stateMutability": "view",
      "type": "function"
    },
    {
      "inputs": [],
      "name": "getNumberOfTokens",
      "outputs": [
        {
          "internalType": "uint256",
          "name": "",
          "type": "uint256"
        }
      ],
      "stateMutability": "view",
      "type": "function"
    },
    {
      "inputs": [
        {
          "internalType": "uint8",
          "name": "index",
          "type": "uint8"
        }
      ],
      "name": "getToken",
      "outputs": [
        {
          "internalType": "contract IERC20",
          "name": "",
          "type": "address"
        }
      ],
      "stateMutability": "view",
      "type": "function"
    },
    {
      "inputs": [
        {
          "internalType": "uint8",
          "name": "index",
          "type": "uint8"
        }
      ],
      "name": "getTokenBalance",
      "outputs": [
        {
          "internalType": "uint256",
          "name": "",
          "type": "uint256"
        }
      ],
      "stateMutability": "view",
      "type": "function"
    },
    {
      "inputs": [],
      "name": "getTokenBalances",
      "outputs": [
        {
          "internalType": "uint256[]",
          "name": "",
          "type": "uint256[]"
        }
      ],
      "stateMutability": "view",
      "type": "function"
    },
    {
      "inputs": [
        {
          "internalType": "address",
          "name": "token",
          "type": "address"
        }
      ],
      "name": "getTokenIndex",
      "outputs": [
        {
          "internalType": "uint8",
          "name": "index",
          "type": "uint8"
        }
      ],
      "stateMutability": "view",
      "type": "function"
    },
    {
      "inputs": [],
      "name": "getTokenPrecisionMultipliers",
      "outputs": [
        {
          "internalType": "uint256[]",
          "name": "",
          "type": "uint256[]"
        }
      ],
      "stateMutability": "view",
      "type": "function"
    },
    {
      "inputs": [],
      "name": "getTokens",
      "outputs": [
        {
          "internalType": "contract IERC20[]",
          "name": "",
          "type": "address[]"
        }
      ],
      "stateMutability": "view",
      "type": "function"
    },
    {
      "inputs": [],
      "name": "getVirtualPrice",
      "outputs": [
        {
          "internalType": "uint256",
          "name": "",
          "type": "uint256"
        }
      ],
      "stateMutability": "view",
      "type": "function"
    },
    {
      "inputs": [
        {
          "internalType": "address[]",
          "name": "_coins",
          "type": "address[]"
        },
        {
          "internalType": "uint8[]",
          "name": "_decimals",
          "type": "uint8[]"
        },
        {
          "internalType": "string",
          "name": "lpTokenName",
          "type": "string"
        },
        {
          "internalType": "string",
          "name": "lpTokenSymbol",
          "type": "string"
        },
        {
          "internalType": "uint256",
          "name": "_A",
          "type": "uint256"
        },
        {
          "internalType": "uint256",
          "name": "_fee",
          "type": "uint256"
        },
        {
          "internalType": "uint256",
          "name": "_adminFee",
          "type": "uint256"
        },
        {
          "internalType": "uint256",
          "name": "_withdrawFee",
          "type": "uint256"
        },
        {
          "internalType": "address",
          "name": "_feeDistributor",
          "type": "address"
        }
      ],
      "name": "initialize",
      "outputs": [],
      "stateMutability": "nonpayable",
      "type": "function"
    },
    {
      "inputs": [
        {
          "components": [
            {
              "internalType": "address",
              "name": "pool",
              "type": "address"
            },
            {
              "internalType": "address",
              "name": "tokenIn",
              "type": "address"
            },
            {
              "internalType": "address",
              "name": "tokenOut",
              "type": "address"
            },
            {
              "internalType": "uint256",
              "name": "swapAmount",
              "type": "uint256"
            },
            {
              "internalType": "uint256",
              "name": "limitReturnAmount",
              "type": "uint256"
            },
            {
              "internalType": "uint256",
              "name": "maxPrice",
              "type": "uint256"
            }
          ],
          "internalType": "struct IRequiemSwap.SwapStep",
          "name": "params",
          "type": "tuple"
        },
        {
          "internalType": "address",
          "name": "to",
          "type": "address"
        }
      ],
      "name": "onSwap",
      "outputs": [
        {
          "internalType": "uint256",
          "name": "",
          "type": "uint256"
        }
      ],
      "stateMutability": "nonpayable",
      "type": "function"
    },
    {
      "inputs": [
        {
          "internalType": "address",
          "name": "tokenIn",
          "type": "address"
        },
        {
          "internalType": "address",
          "name": "tokenOut",
          "type": "address"
        },
        {
          "internalType": "uint256",
          "name": "amountIn",
          "type": "uint256"
        },
        {
          "internalType": "uint256",
          "name": "amountOutMin",
          "type": "uint256"
        },
        {
          "internalType": "address",
          "name": "to",
          "type": "address"
        }
      ],
      "name": "onSwapGivenIn",
      "outputs": [
        {
          "internalType": "uint256",
          "name": "",
          "type": "uint256"
        }
      ],
      "stateMutability": "nonpayable",
      "type": "function"
    },
    {
      "inputs": [
        {
          "internalType": "address",
          "name": "tokenIn",
          "type": "address"
        },
        {
          "internalType": "address",
          "name": "tokenOut",
          "type": "address"
        },
        {
          "internalType": "uint256",
          "name": "amountOut",
          "type": "uint256"
        },
        {
          "internalType": "uint256",
          "name": "amountInMax",
          "type": "uint256"
        },
        {
          "internalType": "address",
          "name": "to",
          "type": "address"
        }
      ],
      "name": "onSwapGivenOut",
      "outputs": [
        {
          "internalType": "uint256",
          "name": "",
          "type": "uint256"
        }
      ],
      "stateMutability": "nonpayable",
      "type": "function"
    },
    {
      "inputs": [],
      "name": "owner",
      "outputs": [
        {
          "internalType": "address",
          "name": "",
          "type": "address"
        }
      ],
      "stateMutability": "view",
      "type": "function"
    },
    {
      "inputs": [],
      "name": "pause",
      "outputs": [],
      "stateMutability": "nonpayable",
      "type": "function"
    },
    {
      "inputs": [],
      "name": "paused",
      "outputs": [
        {
          "internalType": "bool",
          "name": "",
          "type": "bool"
        }
      ],
      "stateMutability": "view",
      "type": "function"
    },
    {
      "inputs": [
        {
          "internalType": "uint256",
          "name": "futureA",
          "type": "uint256"
        },
        {
          "internalType": "uint256",
          "name": "futureATime",
          "type": "uint256"
        }
      ],
      "name": "rampA",
      "outputs": [],
      "stateMutability": "nonpayable",
      "type": "function"
    },
    {
      "inputs": [
        {
          "internalType": "uint256",
          "name": "lpAmount",
          "type": "uint256"
        },
        {
          "internalType": "uint256[]",
          "name": "minAmounts",
          "type": "uint256[]"
        },
        {
          "internalType": "uint256",
          "name": "deadline",
          "type": "uint256"
        }
      ],
      "name": "removeLiquidity",
      "outputs": [
        {
          "internalType": "uint256[]",
          "name": "",
          "type": "uint256[]"
        }
      ],
      "stateMutability": "nonpayable",
      "type": "function"
    },
    {
      "inputs": [
        {
          "internalType": "uint256[]",
          "name": "amounts",
          "type": "uint256[]"
        },
        {
          "internalType": "uint256",
          "name": "maxBurnAmount",
          "type": "uint256"
        },
        {
          "internalType": "uint256",
          "name": "deadline",
          "type": "uint256"
        }
      ],
      "name": "removeLiquidityImbalance",
      "outputs": [
        {
          "internalType": "uint256",
          "name": "",
          "type": "uint256"
        }
      ],
      "stateMutability": "nonpayable",
      "type": "function"
    },
    {
      "inputs": [
        {
          "internalType": "uint256",
          "name": "lpAmount",
          "type": "uint256"
        },
        {
          "internalType": "uint8",
          "name": "index",
          "type": "uint8"
        },
        {
          "internalType": "uint256",
          "name": "minAmount",
          "type": "uint256"
        },
        {
          "internalType": "uint256",
          "name": "deadline",
          "type": "uint256"
        }
      ],
      "name": "removeLiquidityOneToken",
      "outputs": [
        {
          "internalType": "uint256",
          "name": "",
          "type": "uint256"
        }
      ],
      "stateMutability": "nonpayable",
      "type": "function"
    },
    {
      "inputs": [],
      "name": "renounceOwnership",
      "outputs": [],
      "stateMutability": "nonpayable",
      "type": "function"
    },
    {
      "inputs": [
        {
          "internalType": "uint256",
          "name": "newSwapFee",
          "type": "uint256"
        },
        {
          "internalType": "uint256",
          "name": "newAdminFee",
          "type": "uint256"
        },
        {
          "internalType": "uint256",
          "name": "newWithdrawFee",
          "type": "uint256"
        }
      ],
      "name": "setFee",
      "outputs": [],
      "stateMutability": "nonpayable",
      "type": "function"
    },
    {
      "inputs": [
        {
          "internalType": "address",
          "name": "_feeController",
          "type": "address"
        }
      ],
      "name": "setFeeController",
      "outputs": [],
      "stateMutability": "nonpayable",
      "type": "function"
    },
    {
      "inputs": [
        {
          "internalType": "address",
          "name": "_feeDistributor",
          "type": "address"
        }
      ],
      "name": "setFeeDistributor",
      "outputs": [],
      "stateMutability": "nonpayable",
      "type": "function"
    },
    {
      "inputs": [],
      "name": "stopRampA",
      "outputs": [],
      "stateMutability": "nonpayable",
      "type": "function"
    },
    {
      "inputs": [
        {
          "internalType": "uint8",
          "name": "fromIndex",
          "type": "uint8"
        },
        {
          "internalType": "uint8",
          "name": "toIndex",
          "type": "uint8"
        },
        {
          "internalType": "uint256",
          "name": "inAmount",
          "type": "uint256"
        },
        {
          "internalType": "uint256",
          "name": "minOutAmount",
          "type": "uint256"
        },
        {
          "internalType": "address",
          "name": "to",
          "type": "address"
        },
        {
          "internalType": "uint256",
          "name": "deadline",
          "type": "uint256"
        }
      ],
      "name": "swap",
      "outputs": [
        {
          "internalType": "uint256",
          "name": "",
          "type": "uint256"
        }
      ],
      "stateMutability": "nonpayable",
      "type": "function"
    },
    {
      "inputs": [],
      "name": "swapStorage",
      "outputs": [
        {
          "internalType": "contract LPToken",
          "name": "lpToken",
          "type": "address"
        },
        {
          "internalType": "uint256",
          "name": "fee",
          "type": "uint256"
        },
        {
          "internalType": "uint256",
          "name": "adminFee",
          "type": "uint256"
        },
        {
          "internalType": "uint256",
          "name": "initialA",
          "type": "uint256"
        },
        {
          "internalType": "uint256",
          "name": "futureA",
          "type": "uint256"
        },
        {
          "internalType": "uint256",
          "name": "initialATime",
          "type": "uint256"
        },
        {
          "internalType": "uint256",
          "name": "futureATime",
          "type": "uint256"
        },
        {
          "internalType": "uint256",
          "name": "defaultWithdrawFee",
          "type": "uint256"
        }
      ],
      "stateMutability": "view",
      "type": "function"
    },
    {
      "inputs": [
        {
          "internalType": "address",
          "name": "",
          "type": "address"
        }
      ],
      "name": "tokenIndexes",
      "outputs": [
        {
          "internalType": "uint8",
          "name": "",
          "type": "uint8"
        }
      ],
      "stateMutability": "view",
      "type": "function"
    },
    {
      "inputs": [
        {
          "internalType": "address",
          "name": "newOwner",
          "type": "address"
        }
      ],
      "name": "transferOwnership",
      "outputs": [],
      "stateMutability": "nonpayable",
      "type": "function"
    },
    {
      "inputs": [],
      "name": "unpause",
      "outputs": [],
      "stateMutability": "nonpayable",
      "type": "function"
    },
    {
      "inputs": [
        {
          "internalType": "address",
          "name": "recipient",
          "type": "address"
        },
        {
          "internalType": "uint256",
          "name": "transferAmount",
          "type": "uint256"
        }
      ],
      "name": "updateUserWithdrawFee",
      "outputs": [],
      "stateMutability": "nonpayable",
      "type": "function"
    },
    {
      "inputs": [],
      "name": "withdrawAdminFee",
      "outputs": [],
      "stateMutability": "nonpayable",
      "type": "function"
    }
  ],
  "transactionHash": "0xce8b8e1ff49976c59ee451ec1a8516034c1537e707f30fbd25dbd433b02de989",
  "args": [],
  "solcInputHash": "bda2c24233cb9e4c01414279d500fda4",
  "bytecode": "0x60806040523480156200001157600080fd5b506200001d3362000034565b6000805460ff60a01b191690556001805562000084565b600080546001600160a01b038381166001600160a01b0319831681178455604051919092169283917f8be0079c531659141344cd1fd0a4f28419497f9722a3daafe3b4186f6b6457e09190a35050565b614a7080620000946000396000f3fe60806040523480156200001157600080fd5b5060043610620002925760003560e01c806304bc3b1c146200029757806306e9481c14620002d45780630ba8195914620002ee5780630d43e8ad14620002f85780630e6d8bce146200031b57806318f52ce2146200033257806331cd52b0146200034b5780633969841514620003625780633e3a1560146200036d5780633ed4c67814620003845780633f4ba83a146200039d5780634a1b0d5714620003a75780634ac00e03146200031b5780634d49e87d14620003be578063593d132c14620003d55780635b65b9ab14620003ec5780635c975abb14620004035780635fd65f0f146200041e57806366c0bd2414620004945780636999b37714620004ab578063715018a614620004bf5780637c61e56114620004c95780638214f5a414620004e057806382b8660014620004f25780638456cb59146200050957806384cdd9bc14620005135780638554a7d4146200052a5780638da5cb5b146200054157806391ceb3eb146200054b57806396a65a6c146200056257806398899f401462000579578063a1dc90311462000590578063a95b089f146200059a578063aa6ca80814620005b1578063ab3d854414620005ca578063ab5ac06114620005d6578063bfd3956b14620005df578063c00c125c14620005f6578063c4db7fa0146200060d578063cc56fd431462000617578063ccfc2e8d146200062e578063d41f65681462000645578063d46300fd146200064f578063d4b0de2f14620005ca578063df3ed68d1462000659578063e25aa5fa1462000670578063e6ab2806146200067a578063e9255bae1462000691578063efeecb5114620006a8578063f2fde38b14620006b1578063f3de036214620006c8578063fe49abe314620006d5575b600080fd5b620002bd620002a8366004620029a9565b60126020526000908152604090205460ff1681565b60405160ff90911681526020015b60405180910390f35b620002df6201518081565b604051908152602001620002cb565b620002df620006df565b6010546200030c906001600160a01b031681565b604051620002cb9190620029c7565b620002df6200032c366004620029db565b6200075f565b6200033c6200087d565b604051620002cb919062002a39565b6200033c6200035c36600462002b61565b6200098f565b620002df620f424081565b620002df6200037e36600462002bc6565b62000a73565b6200039b62000395366004620029a9565b62000b56565b005b6200039b62000c0b565b620002df620003b8366004620029a9565b62000c4b565b620002df620003cf36600462002c04565b62000c60565b6200039b620003e636600462002c55565b62000d5d565b6200039b620003fd36600462002c78565b62000fdc565b6200040d620010db565b6040519015158152602001620002cb565b600454600754600854600954600a54600b54600c54600d546200044e976001600160a01b03169695949392919088565b604080516001600160a01b0390991689526020890197909752958701949094526060860192909252608085015260a084015260c083015260e082015261010001620002cb565b620002bd620004a5366004620029a9565b620010eb565b6011546200030c906001600160a01b031681565b6200039b6200117b565b6200033c620004da36600462002ca5565b620011bb565b6004546001600160a01b03166200030c565b6200030c6200050336600462002cd2565b6200124b565b6200039b62001284565b620002df6200052436600462002c04565b620012c2565b620002df6200053b36600462002cd2565b6200137b565b6200030c620013fe565b620002df6200055c36600462002cd2565b6200140d565b620002df6200057336600462002cf0565b6200143c565b620002df6200058a36600462002da9565b62001562565b6200033c62001604565b620002df620005ab36600462002dea565b62001660565b620005bb620016a3565b604051620002cb919062002e2b565b620002df6305f5e10081565b620002df600a81565b620002df620005f036600462002e6e565b62001709565b6200039b6200060736600462002ca5565b6200181c565b6200039b620018d7565b620002df6200062836600462002ed4565b62001a19565b6200039b6200063f366004620029a9565b62001a84565b6200033c62001b2e565b620002df62001b89565b6200039b6200066a36600462003051565b62001bc5565b620002df620021de565b620002df6200068b36600462003153565b6200221a565b620002df620006a236600462002ed4565b6200225d565b600354620002df565b6200039b620006c2366004620029a9565b620022c8565b620002df6402540be40081565b6200039b62002371565b60405163a303558560e01b8152600360048201526000907367d269191c92Caf3cD7723F116c85e6E9bf559339063a3035585906024015b602060405180830381865af415801562000734573d6000803e3d6000fd5b505050506040513d601f19601f820116820180604052508101906200075a9190620031df565b905090565b60006200076b620010db565b15620007945760405162461bcd60e51b81526004016200078b90620031f9565b60405180910390fd5b60026001541415620007ba5760405162461bcd60e51b81526004016200078b9062003223565b60026001556001600160a01b038087166000908152601260205260408082205492881682529081902054905163ce055b8d60e01b81527367d269191c92Caf3cD7723F116c85e6E9bf559339263ce055b8d926200082b9260039260ff9081169216908a908a908a906004016200325a565b602060405180830381865af415801562000849573d6000803e3d6000fd5b505050506040513d601f19601f820116820180604052508101906200086f9190620031df565b600180559695505050505050565b600354606090806001600160401b038111156200089e576200089e62002a7f565b604051908082528060200260200182016040528015620008c8578160200160208202803683370190505b50915060005b818110156200098a5760405163e2eba89b60e01b815260036004820152602481018290527367d269191c92Caf3cD7723F116c85e6E9bf559339063e2eba89b90604401602060405180830381865af41580156200092f573d6000803e3d6000fd5b505050506040513d601f19601f82011682018060405250810190620009559190620031df565b8382815181106200096a576200096a62003291565b6020908102919091010152806200098181620032bd565b915050620008ce565b505090565b606060026001541415620009b75760405162461bcd60e51b81526004016200078b9062003223565b60026001558142811015620009e05760405162461bcd60e51b81526004016200078b90620032db565b6040516331a15a5b60e21b81527367d269191c92Caf3cD7723F116c85e6E9bf559339063c685696c9062000a1e906003908990899060040162003339565b600060405180830381865af415801562000a3c573d6000803e3d6000fd5b505050506040513d6000823e601f3d908101601f1916820160405262000a66919081019062003363565b6001805595945050505050565b60006002600154141562000a9b5760405162461bcd60e51b81526004016200078b9062003223565b600260015562000aaa620010db565b1562000aca5760405162461bcd60e51b81526004016200078b90620031f9565b818042111562000aee5760405162461bcd60e51b81526004016200078b90620032db565b6040516302bfe30d60e41b8152600360048201526024810187905260ff86166044820152606481018590527367d269191c92Caf3cD7723F116c85e6E9bf5593390632bfe30d090608401602060405180830381865af415801562000849573d6000803e3d6000fd5b3362000b61620013fe565b6001600160a01b03161462000b8a5760405162461bcd60e51b81526004016200078b90620033fc565b6001600160a01b03811662000bb35760405162461bcd60e51b81526004016200078b9062003431565b601180546001600160a01b0319166001600160a01b0383161790556040517f4c3f3b9852ccceadd50f16518f348e2624c8f0240acdd5bc81911c0fba83ec679062000c00908390620029c7565b60405180910390a150565b3362000c16620013fe565b6001600160a01b03161462000c3f5760405162461bcd60e51b81526004016200078b90620033fc565b62000c4962002546565b565b600062000c5a600383620025de565b92915050565b600062000c6c620010db565b1562000c8c5760405162461bcd60e51b81526004016200078b90620031f9565b6002600154141562000cb25760405162461bcd60e51b81526004016200078b9062003223565b6002600155814281101562000cdb5760405162461bcd60e51b81526004016200078b90620032db565b604051631e9b2e8f60e21b81527367d269191c92Caf3cD7723F116c85e6E9bf5593390637a6cba3c9062000d19906003908990899060040162003456565b602060405180830381865af415801562000d37573d6000803e3d6000fd5b505050506040513d601f19601f8201168201806040525081019062000a669190620031df565b3362000d68620013fe565b6001600160a01b03161462000d915760405162461bcd60e51b81526004016200078b90620033fc565b600b5462000da3906201518062003481565b42101562000de25760405162461bcd60e51b815260206004820152600b60248201526a3c2072616d7044656c617960a81b60448201526064016200078b565b62000df1620151804262003481565b81101562000e325760405162461bcd60e51b815260206004820152600d60248201526c3c206d696e52616d7054696d6560981b60448201526064016200078b565b81600010801562000e455750620f424082105b62000e805760405162461bcd60e51b815260206004820152600a6024820152696f75744f6652616e676560b01b60448201526064016200078b565b60405163a303558560e01b8152600360048201526000907367d269191c92Caf3cD7723F116c85e6E9bf559339063a303558590602401602060405180830381865af415801562000ed4573d6000803e3d6000fd5b505050506040513d601f19601f8201168201806040525081019062000efa9190620031df565b9050600062000f0b6064856200349c565b90508181101562000f4b578162000f24600a836200349c565b101562000f455760405162461bcd60e51b81526004016200078b90620034be565b62000f7a565b62000f58600a836200349c565b81111562000f7a5760405162461bcd60e51b81526004016200078b90620034be565b6009829055600a81905542600b819055600c84905560408051848152602081018490528082019290925260608201859052517fa2b71ec6df949300b59aab36b55e189697b750119dd349fcfa8c0f779e83c2549181900360800190a150505050565b3362000fe7620013fe565b6001600160a01b031614620010105760405162461bcd60e51b81526004016200078b90620033fc565b6305f5e100831115620010375760405162461bcd60e51b81526004016200078b90620034e3565b6402540be4008211156200105f5760405162461bcd60e51b81526004016200078b9062003509565b6305f5e100811115620010865760405162461bcd60e51b81526004016200078b9062003530565b60088290556007839055600d81905560408051848152602081018490529081018290527fcfca96e0fef3432146913b2a5a2268a55d3f475fe057e7ffde1082b77693f4f39060600160405180910390a1505050565b600054600160a01b900460ff1690565b6001600160a01b0381166000818152601260205260409020546003805460ff90921692918390811062001122576200112262003291565b6000918252602090912001546001600160a01b031614620011765760405162461bcd60e51b815260206004820152600d60248201526c1d1bdad95b939bdd119bdd5b99609a1b60448201526064016200078b565b919050565b3362001186620013fe565b6001600160a01b031614620011af5760405162461bcd60e51b81526004016200078b90620033fc565b62000c49600062002698565b60405163fa56359760e01b81526060907367d269191c92Caf3cD7723F116c85e6E9bf559339063fa56359790620011fc90600390879087906004016200355a565b600060405180830381865af41580156200121a573d6000803e3d6000fd5b505050506040513d6000823e601f3d908101601f1916820160405262001244919081019062003363565b9392505050565b600060036000018260ff168154811062001269576200126962003291565b6000918252602090912001546001600160a01b031692915050565b336200128f620013fe565b6001600160a01b031614620012b85760405162461bcd60e51b81526004016200078b90620033fc565b62000c49620026e8565b600060026001541415620012ea5760405162461bcd60e51b81526004016200078b9062003223565b6002600155620012f9620010db565b15620013195760405162461bcd60e51b81526004016200078b90620031f9565b81804211156200133d5760405162461bcd60e51b81526004016200078b90620032db565b60405163641a260360e11b81527367d269191c92Caf3cD7723F116c85e6E9bf559339063c8344c069062000d19906003908990899060040162003456565b60405163e2eba89b60e01b81526003600482015260ff821660248201526000907367d269191c92Caf3cD7723F116c85e6E9bf559339063e2eba89b90604401602060405180830381865af4158015620013d8573d6000803e3d6000fd5b505050506040513d601f19601f8201168201806040525081019062000c5a9190620031df565b6000546001600160a01b031690565b6000600380018260ff16815481106200142a576200142a62003291565b90600052602060002001549050919050565b600062001448620010db565b15620014685760405162461bcd60e51b81526004016200078b90620031f9565b600260015414156200148e5760405162461bcd60e51b81526004016200078b9062003223565b60026001556020808401516001600160a01b0390811660009081526012909252604080832054818701519092168352918290205460608601516080870151935163ce055b8d60e01b81527367d269191c92Caf3cD7723F116c85e6E9bf559339463ce055b8d94620015139460039460ff928316949190921692908a906004016200325a565b602060405180830381865af415801562001531573d6000803e3d6000fd5b505050506040513d601f19601f82011682018060405250810190620015579190620031df565b600180559392505050565b60405163159763bb60e01b8152600360048201526001600160a01b03841660248201526044810183905260ff821660648201526000907367d269191c92Caf3cD7723F116c85e6E9bf559339063159763bb906084015b602060405180830381865af4158015620015d6573d6000803e3d6000fd5b505050506040513d601f19601f82011682018060405250810190620015fc9190620031df565b949350505050565b6060600380018054806020026020016040519081016040528092919081815260200182805480156200165657602002820191906000526020600020905b81548152602001906001019080831162001641575b5050505050905090565b60405163ba2998d960e01b81526000907367d269191c92Caf3cD7723F116c85e6E9bf559339063ba2998d990620015b89060039088908890889060040162003579565b606060036000018054806020026020016040519081016040528092919081815260200182805480156200165657602002820191906000526020600020905b81546001600160a01b03168152600190910190602001808311620016e1575050505050905090565b600062001715620010db565b15620017355760405162461bcd60e51b81526004016200078b90620031f9565b600260015414156200175b5760405162461bcd60e51b81526004016200078b9062003223565b60026001558142811015620017845760405162461bcd60e51b81526004016200078b90620032db565b60405163ad30093f60e01b81527367d269191c92Caf3cD7723F116c85e6E9bf559339063ad30093f90620017c8906003908c908c908c908c908c906004016200325a565b602060405180830381865af4158015620017e6573d6000803e3d6000fd5b505050506040513d601f19601f820116820180604052508101906200180c9190620031df565b6001805598975050505050505050565b6004546001600160a01b03163314620018635760405162461bcd60e51b815260206004820152600860248201526710b6382a37b5b2b760c11b60448201526064016200078b565b6040516360c4725f60e11b81527367d269191c92Caf3cD7723F116c85e6E9bf559339063c188e4be90620018a190600390869086906004016200355a565b60006040518083038186803b158015620018ba57600080fd5b505af4158015620018cf573d6000803e3d6000fd5b505050505050565b33620018e2620013fe565b6001600160a01b0316146200190b5760405162461bcd60e51b81526004016200078b90620033fc565b600c5442106200194f5760405162461bcd60e51b815260206004820152600e60248201526d185b1c9958591e54dd1bdc1c195960921b60448201526064016200078b565b60405163a303558560e01b8152600360048201526000907367d269191c92Caf3cD7723F116c85e6E9bf559339063a303558590602401602060405180830381865af4158015620019a3573d6000803e3d6000fd5b505050506040513d601f19601f82011682018060405250810190620019c99190620031df565b6009819055600a81905542600b819055600c8190556040519192507f46e22fb3709ad289f62ce63d469248536dbc78d82b84a3d7e74ad606dc2019389162000c0091848252602082015260400190565b6001600160a01b0380831660009081526012602052604080822054928616825280822054905163ba2998d960e01b815291927367d269191c92Caf3cD7723F116c85e6E9bf559339263ba2998d992620015b89260039260ff9182169290911690889060040162003579565b3362001a8f620013fe565b6001600160a01b03161462001ab85760405162461bcd60e51b81526004016200078b90620033fc565b6001600160a01b03811662001ae15760405162461bcd60e51b81526004016200078b9062003431565b601080546001600160a01b0319166001600160a01b0383161790556040517fae5a12c29e496b092467a620746b9eaf4e0e231a631a4370c233b1fac38e8e269062000c00908390620029c7565b6060600360020180548060200260200160405190810160405280929190818152602001828054801562001656576020028201919060005260206000209081548152602001906001019080831162001641575050505050905090565b60405163b52e146f60e01b8152600360048201526000907367d269191c92Caf3cD7723F116c85e6E9bf559339063b52e146f9060240162000716565b3362001bd0620013fe565b6001600160a01b03161462001bf95760405162461bcd60e51b81526004016200078b90620033fc565b600254610100900460ff168062001c13575060025460ff16155b62001c785760405162461bcd60e51b815260206004820152602e60248201527f496e697469616c697a61626c653a20636f6e747261637420697320616c72656160448201526d191e481a5b9a5d1a585b1a5e995960921b60648201526084016200078b565b600254610100900460ff1615801562001c9b576002805461ffff19166101011790555b88518a511462001cee5760405162461bcd60e51b815260206004820152601d60248201527f636f696e734c656e67746820213d20646563696d616c734c656e67746800000060448201526064016200078b565b6001600160a01b03821662001d3f5760405162461bcd60e51b81526020600482015260166024820152756665654469737472696275746f72203d20656d70747960501b60448201526064016200078b565b89516000816001600160401b0381111562001d5e5762001d5e62002a7f565b60405190808252806020026020018201604052801562001d88578160200160208202803683370190505b5090506000826001600160401b0381111562001da85762001da862002a7f565b60405190808252806020026020018201604052801562001dd2578160200160208202803683370190505b50905060005b8381101562001fda5760006001600160a01b03168e828151811062001e015762001e0162003291565b60200260200101516001600160a01b0316141562001e585760405162461bcd60e51b8152602060048201526013602482015272696e76616c6964546f6b656e4164647265737360681b60448201526064016200078b565b60128d828151811062001e6f5762001e6f62003291565b602002602001015160ff16111562001ebc5760405162461bcd60e51b815260206004820152600f60248201526e696e76616c6964446563696d616c7360881b60448201526064016200078b565b8c818151811062001ed15762001ed162003291565b602002602001015160ff16601262001eea919062003598565b62001ef790600a620036af565b83828151811062001f0c5762001f0c62003291565b6020026020010181815250508d818151811062001f2d5762001f2d62003291565b602002602001015182828151811062001f4a5762001f4a62003291565b60200260200101906001600160a01b031690816001600160a01b031681525050806012600084848151811062001f845762001f8462003291565b60200260200101516001600160a01b03166001600160a01b0316815260200190815260200160002060006101000a81548160ff021916908360ff160217905550808062001fd190620032bd565b91505062001dd8565b50620f42408910620020185760405162461bcd60e51b81526020600482015260066024820152653e206d61784160d01b60448201526064016200078b565b6305f5e1008811156200203f5760405162461bcd60e51b81526004016200078b90620034e3565b6402540be400871115620020675760405162461bcd60e51b81526004016200078b9062003509565b6305f5e1008611156200208e5760405162461bcd60e51b81526004016200078b9062003530565b8a8a6040516200209e90620028c4565b620020ab9291906200371a565b604051809103906000f080158015620020c8573d6000803e3d6000fd5b50600480546001600160a01b0319166001600160a01b0392909216919091179055826001600160401b0381111562002104576200210462002a7f565b6040519080825280602002602001820160405280156200212e578160200160208202803683370190505b5080516200214591600691602090910190620028d2565b5081516200215b906005906020850190620028d2565b5080516200217190600390602084019062002922565b506200217f60648a6200349c565b6009556200218f60648a6200349c565b600a5550505060078590556008849055600d839055601080546001600160a01b0319166001600160a01b0384161790558015620021d2576002805461ff00191690555b50505050505050505050565b6040516334d9812b60e21b8152600360048201526000907367d269191c92Caf3cD7723F116c85e6E9bf559339063d36604ac9060240162000716565b604051631e7e95d360e01b81526000907367d269191c92Caf3cD7723F116c85e6E9bf5593390631e7e95d390620015b89060039088908890889060040162003743565b6001600160a01b0380841660009081526012602052604080822054928516825280822054905163ba2998d960e01b815291927367d269191c92Caf3cD7723F116c85e6E9bf559339263ba2998d992620015b89260039260ff9182169290911690889060040162003579565b33620022d3620013fe565b6001600160a01b031614620022fc5760405162461bcd60e51b81526004016200078b90620033fc565b6001600160a01b038116620023635760405162461bcd60e51b815260206004820152602660248201527f4f776e61626c653a206e6577206f776e657220697320746865207a65726f206160448201526564647265737360d01b60648201526084016200078b565b6200236e8162002698565b50565b6011546001600160a01b0316331480620023a5575062002390620013fe565b6001600160a01b0316336001600160a01b0316145b620023eb5760405162461bcd60e51b815260206004820152601560248201527410b332b2a1b7b73a3937b63632b927b927bbb732b960591b60448201526064016200078b565b60005b6003548110156200236e5760006003600001828154811062002414576200241462003291565b6000918252602082200154600680546001600160a01b039092169350908490811062002444576200244462003291565b9060005260206000200154826001600160a01b03166370a08231306040518263ffffffff1660e01b81526004016200247d9190620029c7565b602060405180830381865afa1580156200249b573d6000803e3d6000fd5b505050506040513d601f19601f82011682018060405250810190620024c19190620031df565b620024cd919062003598565b905080156200252e57601054620024f2906001600160a01b038481169116836200274e565b7fee3859efa95e525bc2bcb149b51b60a8bb4e89c647392d9d4112e03c3e73bdd682826040516200252592919062003795565b60405180910390a15b505080806200253d90620032bd565b915050620023ee565b62002550620010db565b620025955760405162461bcd60e51b815260206004820152601460248201527314185d5cd8589b194e881b9bdd081c185d5cd95960621b60448201526064016200078b565b6000805460ff60a01b191690557f5db9ee0a495bf2e6ff9c91a7834c1ba4fdd244a5e8aa4e537bd38aeae4b073aa335b604051620025d49190620029c7565b60405180910390a1565b6001600160a01b0381166000908152600b8301602052604081205481906200260a906224ea0062003481565b9050428111156200268e57600062002623428362003598565b6001600160a01b0385166000908152600c87016020526040902054600a8701549192506402540be400916224ea009184916200266091906200349c565b6200266c91906200349c565b620026789190620037ae565b620026849190620037ae565b9250505062000c5a565b5060009392505050565b600080546001600160a01b038381166001600160a01b0319831681178455604051919092169283917f8be0079c531659141344cd1fd0a4f28419497f9722a3daafe3b4186f6b6457e09190a35050565b620026f2620010db565b15620027125760405162461bcd60e51b81526004016200078b90620031f9565b6000805460ff60a01b1916600160a01b1790557f62e78cea01bee320cd4e420270b5ea74000d11b0c9f74754ebdbfc544b05a258620025c53390565b620027a88363a9059cbb60e01b84846040516024016200277092919062003795565b60408051601f198184030181529190526020810180516001600160e01b03166001600160e01b031990931692909217909152620027ad565b505050565b600080836001600160a01b031683604051620027ca9190620037d1565b6000604051808303816000865af19150503d806000811462002809576040519150601f19603f3d011682016040523d82523d6000602084013e6200280e565b606091505b5091509150600082141562002827573d6000803e3d6000fd5b620028568151600014806200284d5750818060200190518101906200284d9190620037ef565b6101a26200285c565b50505050565b816200286d576200286d8162002871565b5050565b62461bcd60e51b6000908152602060045260076024526652455123000030600a808404818106603090810160081b95839006959095019082900491820690940160101b939093010160c81b604452606490fd5b61122b806200381083390190565b82805482825590600052602060002090810192821562002910579160200282015b8281111562002910578251825591602001919060010190620028f3565b506200291e9291506200297a565b5090565b82805482825590600052602060002090810192821562002910579160200282015b828111156200291057825182546001600160a01b0319166001600160a01b0390911617825560209092019160019091019062002943565b5b808211156200291e57600081556001016200297b565b80356001600160a01b03811681146200117657600080fd5b600060208284031215620029bc57600080fd5b620012448262002991565b6001600160a01b0391909116815260200190565b600080600080600060a08688031215620029f457600080fd5b620029ff8662002991565b945062002a0f6020870162002991565b9350604086013592506060860135915062002a2d6080870162002991565b90509295509295909350565b6020808252825182820181905260009190848201906040850190845b8181101562002a735783518352928401929184019160010162002a55565b50909695505050505050565b634e487b7160e01b600052604160045260246000fd5b604051601f8201601f191681016001600160401b038111828210171562002ac05762002ac062002a7f565b604052919050565b60006001600160401b0382111562002ae45762002ae462002a7f565b5060051b60200190565b600082601f83011262002b0057600080fd5b8135602062002b1962002b138362002ac8565b62002a95565b82815260059290921b8401810191818101908684111562002b3957600080fd5b8286015b8481101562002b56578035835291830191830162002b3d565b509695505050505050565b60008060006060848603121562002b7757600080fd5b8335925060208401356001600160401b0381111562002b9557600080fd5b62002ba38682870162002aee565b925050604084013590509250925092565b803560ff811681146200117657600080fd5b6000806000806080858703121562002bdd57600080fd5b8435935062002bef6020860162002bb4565b93969395505050506040820135916060013590565b60008060006060848603121562002c1a57600080fd5b83356001600160401b0381111562002c3157600080fd5b62002c3f8682870162002aee565b9660208601359650604090950135949350505050565b6000806040838503121562002c6957600080fd5b50508035926020909101359150565b60008060006060848603121562002c8e57600080fd5b505081359360208301359350604090920135919050565b6000806040838503121562002cb957600080fd5b62002cc48362002991565b946020939093013593505050565b60006020828403121562002ce557600080fd5b620012448262002bb4565b60008082840360e081121562002d0557600080fd5b60c081121562002d1457600080fd5b5060405160c081016001600160401b038111828210171562002d3a5762002d3a62002a7f565b60405262002d488462002991565b815262002d586020850162002991565b602082015262002d6b6040850162002991565b6040820152606084013560608201526080840135608082015260a084013560a08201528092505062002da060c0840162002991565b90509250929050565b60008060006060848603121562002dbf57600080fd5b62002dca8462002991565b92506020840135915062002de16040850162002bb4565b90509250925092565b60008060006060848603121562002e0057600080fd5b62002e0b8462002bb4565b925062002e1b6020850162002bb4565b9150604084013590509250925092565b6020808252825182820181905260009190848201906040850190845b8181101562002a735783516001600160a01b03168352928401929184019160010162002e47565b60008060008060008060c0878903121562002e8857600080fd5b62002e938762002bb4565b955062002ea36020880162002bb4565b9450604087013593506060870135925062002ec16080880162002991565b915060a087013590509295509295509295565b60008060006060848603121562002eea57600080fd5b62002ef58462002991565b925062002e1b6020850162002991565b600082601f83011262002f1757600080fd5b8135602062002f2a62002b138362002ac8565b82815260059290921b8401810191818101908684111562002f4a57600080fd5b8286015b8481101562002b565762002f628162002991565b835291830191830162002f4e565b600082601f83011262002f8257600080fd5b8135602062002f9562002b138362002ac8565b82815260059290921b8401810191818101908684111562002fb557600080fd5b8286015b8481101562002b565762002fcd8162002bb4565b835291830191830162002fb9565b600082601f83011262002fed57600080fd5b81356001600160401b0381111562003009576200300962002a7f565b6200301e601f8201601f191660200162002a95565b8181528460208386010111156200303457600080fd5b816020850160208301376000918101602001919091529392505050565b60008060008060008060008060006101208a8c0312156200307157600080fd5b89356001600160401b03808211156200308957600080fd5b620030978d838e0162002f05565b9a5060208c0135915080821115620030ae57600080fd5b620030bc8d838e0162002f70565b995060408c0135915080821115620030d357600080fd5b620030e18d838e0162002fdb565b985060608c0135915080821115620030f857600080fd5b50620031078c828d0162002fdb565b96505060808a0135945060a08a0135935060c08a0135925060e08a01359150620031356101008b0162002991565b90509295985092959850929598565b80151581146200236e57600080fd5b6000806000604084860312156200316957600080fd5b83356001600160401b03808211156200318157600080fd5b818601915086601f8301126200319657600080fd5b813581811115620031a657600080fd5b8760208260051b8501011115620031bc57600080fd5b60209283019550935050840135620031d48162003144565b809150509250925092565b600060208284031215620031f257600080fd5b5051919050565b60208082526010908201526f14185d5cd8589b194e881c185d5cd95960821b604082015260600190565b6020808252601f908201527f5265656e7472616e637947756172643a207265656e7472616e742063616c6c00604082015260600190565b95865260ff9485166020870152929093166040850152606084015260808301919091526001600160a01b031660a082015260c00190565b634e487b7160e01b600052603260045260246000fd5b634e487b7160e01b600052601160045260246000fd5b6000600019821415620032d457620032d4620032a7565b5060010190565b6020808252600790820152661d1a5b595bdd5d60ca1b604082015260600190565b600081518084526020808501945080840160005b838110156200332e5781518752958201959082019060010162003310565b509495945050505050565b8381528260208201526060604082015260006200335a6060830184620032fc565b95945050505050565b600060208083850312156200337757600080fd5b82516001600160401b038111156200338e57600080fd5b8301601f81018513620033a057600080fd5b8051620033b162002b138262002ac8565b81815260059190911b82018301908381019087831115620033d157600080fd5b928401925b82841015620033f157835182529284019290840190620033d6565b979650505050505050565b6020808252818101527f4f776e61626c653a2063616c6c6572206973206e6f7420746865206f776e6572604082015260600190565b6020808252600b908201526a7a65726f4164647265737360a81b604082015260600190565b838152606060208201526000620034716060830185620032fc565b9050826040830152949350505050565b60008219821115620034975762003497620032a7565b500190565b6000816000190483118215151615620034b957620034b9620032a7565b500290565b6020808252600b908201526a3e206d61784368616e676560a81b604082015260600190565b6020808252600c908201526b3e206d61785377617046656560a01b604082015260600190565b6020808252600d908201526c3e206d617841646d696e46656560981b604082015260600190565b60208082526010908201526f3e206d6178576974686472617746656560801b604082015260600190565b9283526001600160a01b03919091166020830152604082015260600190565b93845260ff928316602085015291166040830152606082015260800190565b600082821015620035ad57620035ad620032a7565b500390565b600181815b80851115620035f3578160001904821115620035d757620035d7620032a7565b80851615620035e557918102915b93841c9390800290620035b7565b509250929050565b6000826200360c5750600162000c5a565b816200361b5750600062000c5a565b81600181146200363457600281146200363f576200365f565b600191505062000c5a565b60ff841115620036535762003653620032a7565b50506001821b62000c5a565b5060208310610133831016604e8410600b841016171562003684575081810a62000c5a565b620036908383620035b2565b8060001904821115620036a757620036a7620032a7565b029392505050565b6000620012448383620035fb565b60005b83811015620036da578181015183820152602001620036c0565b83811115620028565750506000910152565b6000815180845262003706816020860160208601620036bd565b601f01601f19169290920160200192915050565b6040815260006200372f6040830185620036ec565b82810360208401526200335a8185620036ec565b848152606060208201819052810183905260006001600160fb1b038411156200376b57600080fd5b8360051b808660808501376000908301608001908152921515604090920191909152509392505050565b6001600160a01b03929092168252602082015260400190565b600082620037cc57634e487b7160e01b600052601260045260246000fd5b500490565b60008251620037e5818460208701620036bd565b9190910192915050565b6000602082840312156200380257600080fd5b815162001244816200314456fe60806040523480156200001157600080fd5b506040516200122b3803806200122b833981016040819052620000349162000256565b8181620000413362000093565b815162000056906004906020850190620000e3565b5080516200006c906005906020840190620000e3565b50506006805433610100026001600160a81b031990911617601217905550620002fd915050565b600080546001600160a01b038381166001600160a01b0319831681178455604051919092169283917f8be0079c531659141344cd1fd0a4f28419497f9722a3daafe3b4186f6b6457e09190a35050565b828054620000f190620002c0565b90600052602060002090601f01602090048101928262000115576000855562000160565b82601f106200013057805160ff191683800117855562000160565b8280016001018555821562000160579182015b828111156200016057825182559160200191906001019062000143565b506200016e92915062000172565b5090565b5b808211156200016e576000815560010162000173565b634e487b7160e01b600052604160045260246000fd5b600082601f830112620001b157600080fd5b81516001600160401b0380821115620001ce57620001ce62000189565b604051601f8301601f19908116603f01168101908282118183101715620001f957620001f962000189565b816040528381526020925086838588010111156200021657600080fd5b600091505b838210156200023a57858201830151818301840152908201906200021b565b838211156200024c5760008385830101525b9695505050505050565b600080604083850312156200026a57600080fd5b82516001600160401b03808211156200028257600080fd5b62000290868387016200019f565b93506020850151915080821115620002a757600080fd5b50620002b6858286016200019f565b9150509250929050565b600181811c90821680620002d557607f821691505b60208210811415620002f757634e487b7160e01b600052602260045260246000fd5b50919050565b610f1e806200030d6000396000f3fe608060405234801561001057600080fd5b50600436106100e65760003560e01c806306fdde03146100eb578063095ea7b31461010957806318160ddd1461012c57806323b872dd1461013e578063313ce56714610151578063395093511461016057806340c10f191461017357806342966c681461018857806370a082311461019b578063715018a6146101c457806379cc6790146101cc5780638119c065146101df5780638da5cb5b1461020f57806395d89b4114610217578063a457c2d71461021f578063a9059cbb14610232578063dd62ed3e14610245578063f2fde38b14610258575b600080fd5b6100f361026b565b6040516101009190610cce565b60405180910390f35b61011c610117366004610d3f565b6102fd565b6040519015158152602001610100565b6003545b604051908152602001610100565b61011c61014c366004610d69565b610313565b60405160128152602001610100565b61011c61016e366004610d3f565b6103c2565b610186610181366004610d3f565b6103fe565b005b610186610196366004610da5565b61047c565b6101306101a9366004610dbe565b6001600160a01b031660009081526001602052604090205490565b610186610489565b6101866101da366004610d3f565b6104c4565b6006546101f79061010090046001600160a01b031681565b6040516001600160a01b039091168152602001610100565b6101f76104fa565b6100f3610509565b61011c61022d366004610d3f565b610518565b61011c610240366004610d3f565b6105b1565b610130610253366004610de0565b6105be565b610186610266366004610dbe565b6105e9565b60606004805461027a90610e13565b80601f01602080910402602001604051908101604052809291908181526020018280546102a690610e13565b80156102f35780601f106102c8576101008083540402835291602001916102f3565b820191906000526020600020905b8154815290600101906020018083116102d657829003601f168201915b5050505050905090565b600061030a338484610686565b50600192915050565b60006103208484846107aa565b6001600160a01b0384166000908152600260209081526040808320338452909152902054828110156103aa5760405162461bcd60e51b815260206004820152602860248201527f45524332303a207472616e7366657220616d6f756e74206578636565647320616044820152676c6c6f77616e636560c01b60648201526084015b60405180910390fd5b6103b78533858403610686565b506001949350505050565b3360008181526002602090815260408083206001600160a01b0387168452909152812054909161030a9185906103f9908690610e64565b610686565b336104076104fa565b6001600160a01b03161461042d5760405162461bcd60e51b81526004016103a190610e7c565b6000811161046e5760405162461bcd60e51b815260206004820152600e60248201526d1e995c9bd35a5b9d105b5bdd5b9d60921b60448201526064016103a1565b6104788282610972565b5050565b6104863382610a4b565b50565b336104926104fa565b6001600160a01b0316146104b85760405162461bcd60e51b81526004016103a190610e7c565b6104c26000610b93565b565b60006104de826101a16104d786336105be565b9190610be3565b90506104eb833383610686565b6104f58383610a4b565b505050565b6000546001600160a01b031690565b60606005805461027a90610e13565b3360009081526002602090815260408083206001600160a01b03861684529091528120548281101561059a5760405162461bcd60e51b815260206004820152602560248201527f45524332303a2064656372656173656420616c6c6f77616e63652062656c6f77604482015264207a65726f60d81b60648201526084016103a1565b6105a73385858403610686565b5060019392505050565b600061030a3384846107aa565b6001600160a01b03918216600090815260026020908152604080832093909416825291909152205490565b336105f26104fa565b6001600160a01b0316146106185760405162461bcd60e51b81526004016103a190610e7c565b6001600160a01b03811661067d5760405162461bcd60e51b815260206004820152602660248201527f4f776e61626c653a206e6577206f776e657220697320746865207a65726f206160448201526564647265737360d01b60648201526084016103a1565b61048681610b93565b6001600160a01b0383166106e85760405162461bcd60e51b8152602060048201526024808201527f45524332303a20617070726f76652066726f6d20746865207a65726f206164646044820152637265737360e01b60648201526084016103a1565b6001600160a01b0382166107495760405162461bcd60e51b815260206004820152602260248201527f45524332303a20617070726f766520746f20746865207a65726f206164647265604482015261737360f01b60648201526084016103a1565b6001600160a01b0383811660008181526002602090815260408083209487168084529482529182902085905590518481527f8c5be1e5ebec7d5bd14f71427d1e84f3dd0314c0f7b2291e5b200ac8c7c3b925910160405180910390a3505050565b6001600160a01b03831661080e5760405162461bcd60e51b815260206004820152602560248201527f45524332303a207472616e736665722066726f6d20746865207a65726f206164604482015264647265737360d81b60648201526084016103a1565b6001600160a01b0382166108705760405162461bcd60e51b815260206004820152602360248201527f45524332303a207472616e7366657220746f20746865207a65726f206164647260448201526265737360e81b60648201526084016103a1565b61087b838383610c07565b6001600160a01b038316600090815260016020526040902054818110156108f35760405162461bcd60e51b815260206004820152602660248201527f45524332303a207472616e7366657220616d6f756e7420657863656564732062604482015265616c616e636560d01b60648201526084016103a1565b6001600160a01b0380851660009081526001602052604080822085850390559185168152908120805484929061092a908490610e64565b92505081905550826001600160a01b0316846001600160a01b0316600080516020610ec98339815191528460405161096491815260200190565b60405180910390a350505050565b6001600160a01b0382166109c85760405162461bcd60e51b815260206004820152601f60248201527f45524332303a206d696e7420746f20746865207a65726f20616464726573730060448201526064016103a1565b6109d460008383610c07565b80600360008282546109e69190610e64565b90915550506001600160a01b03821660009081526001602052604081208054839290610a13908490610e64565b90915550506040518181526001600160a01b03831690600090600080516020610ec98339815191529060200160405180910390a35050565b6001600160a01b038216610aab5760405162461bcd60e51b815260206004820152602160248201527f45524332303a206275726e2066726f6d20746865207a65726f206164647265736044820152607360f81b60648201526084016103a1565b610ab782600083610c07565b6001600160a01b03821660009081526001602052604090205481811015610b2b5760405162461bcd60e51b815260206004820152602260248201527f45524332303a206275726e20616d6f756e7420657863656564732062616c616e604482015261636560f01b60648201526084016103a1565b6001600160a01b0383166000908152600160205260408120838303905560038054849290610b5a908490610eb1565b90915550506040518281526000906001600160a01b03851690600080516020610ec98339815191529060200160405180910390a3505050565b600080546001600160a01b038381166001600160a01b0319831681178455604051919092169283917f8be0079c531659141344cd1fd0a4f28419497f9722a3daafe3b4186f6b6457e09190a35050565b6000610bf28484111583610c78565b6000610bfe8486610eb1565b95945050505050565b600654604051633003049760e21b81526001600160a01b038481166004830152602482018490526101009092049091169063c00c125c90604401600060405180830381600087803b158015610c5b57600080fd5b505af1158015610c6f573d6000803e3d6000fd5b50505050505050565b816104785762461bcd60e51b600090815260206004526007602452600a808304818104828106603090810160101b848706949093060160081b929092010166524551230000300160c81b60445261047891606490fd5b600060208083528351808285015260005b81811015610cfb57858101830151858201604001528201610cdf565b81811115610d0d576000604083870101525b50601f01601f1916929092016040019392505050565b80356001600160a01b0381168114610d3a57600080fd5b919050565b60008060408385031215610d5257600080fd5b610d5b83610d23565b946020939093013593505050565b600080600060608486031215610d7e57600080fd5b610d8784610d23565b9250610d9560208501610d23565b9150604084013590509250925092565b600060208284031215610db757600080fd5b5035919050565b600060208284031215610dd057600080fd5b610dd982610d23565b9392505050565b60008060408385031215610df357600080fd5b610dfc83610d23565b9150610e0a60208401610d23565b90509250929050565b600181811c90821680610e2757607f821691505b60208210811415610e4857634e487b7160e01b600052602260045260246000fd5b50919050565b634e487b7160e01b600052601160045260246000fd5b60008219821115610e7757610e77610e4e565b500190565b6020808252818101527f4f776e61626c653a2063616c6c6572206973206e6f7420746865206f776e6572604082015260600190565b600082821015610ec357610ec3610e4e565b50039056feddf252ad1be2c89b69c2b068fc378daa952ba7f163c4a11628f55a4df523b3efa26469706673582212202696d45af23898d7d56cb63f780dd08c2a12065f530a5e0c6b0c549aa55ba7f964736f6c634300080a0033a2646970667358221220edab780e81a7eae22eb652a59fc872d2a9b70558d84adee9effcf54f1b471d6264736f6c634300080a0033",
  "deployedBytecode": "0x60806040523480156200001157600080fd5b5060043610620002925760003560e01c806304bc3b1c146200029757806306e9481c14620002d45780630ba8195914620002ee5780630d43e8ad14620002f85780630e6d8bce146200031b57806318f52ce2146200033257806331cd52b0146200034b5780633969841514620003625780633e3a1560146200036d5780633ed4c67814620003845780633f4ba83a146200039d5780634a1b0d5714620003a75780634ac00e03146200031b5780634d49e87d14620003be578063593d132c14620003d55780635b65b9ab14620003ec5780635c975abb14620004035780635fd65f0f146200041e57806366c0bd2414620004945780636999b37714620004ab578063715018a614620004bf5780637c61e56114620004c95780638214f5a414620004e057806382b8660014620004f25780638456cb59146200050957806384cdd9bc14620005135780638554a7d4146200052a5780638da5cb5b146200054157806391ceb3eb146200054b57806396a65a6c146200056257806398899f401462000579578063a1dc90311462000590578063a95b089f146200059a578063aa6ca80814620005b1578063ab3d854414620005ca578063ab5ac06114620005d6578063bfd3956b14620005df578063c00c125c14620005f6578063c4db7fa0146200060d578063cc56fd431462000617578063ccfc2e8d146200062e578063d41f65681462000645578063d46300fd146200064f578063d4b0de2f14620005ca578063df3ed68d1462000659578063e25aa5fa1462000670578063e6ab2806146200067a578063e9255bae1462000691578063efeecb5114620006a8578063f2fde38b14620006b1578063f3de036214620006c8578063fe49abe314620006d5575b600080fd5b620002bd620002a8366004620029a9565b60126020526000908152604090205460ff1681565b60405160ff90911681526020015b60405180910390f35b620002df6201518081565b604051908152602001620002cb565b620002df620006df565b6010546200030c906001600160a01b031681565b604051620002cb9190620029c7565b620002df6200032c366004620029db565b6200075f565b6200033c6200087d565b604051620002cb919062002a39565b6200033c6200035c36600462002b61565b6200098f565b620002df620f424081565b620002df6200037e36600462002bc6565b62000a73565b6200039b62000395366004620029a9565b62000b56565b005b6200039b62000c0b565b620002df620003b8366004620029a9565b62000c4b565b620002df620003cf36600462002c04565b62000c60565b6200039b620003e636600462002c55565b62000d5d565b6200039b620003fd36600462002c78565b62000fdc565b6200040d620010db565b6040519015158152602001620002cb565b600454600754600854600954600a54600b54600c54600d546200044e976001600160a01b03169695949392919088565b604080516001600160a01b0390991689526020890197909752958701949094526060860192909252608085015260a084015260c083015260e082015261010001620002cb565b620002bd620004a5366004620029a9565b620010eb565b6011546200030c906001600160a01b031681565b6200039b6200117b565b6200033c620004da36600462002ca5565b620011bb565b6004546001600160a01b03166200030c565b6200030c6200050336600462002cd2565b6200124b565b6200039b62001284565b620002df6200052436600462002c04565b620012c2565b620002df6200053b36600462002cd2565b6200137b565b6200030c620013fe565b620002df6200055c36600462002cd2565b6200140d565b620002df6200057336600462002cf0565b6200143c565b620002df6200058a36600462002da9565b62001562565b6200033c62001604565b620002df620005ab36600462002dea565b62001660565b620005bb620016a3565b604051620002cb919062002e2b565b620002df6305f5e10081565b620002df600a81565b620002df620005f036600462002e6e565b62001709565b6200039b6200060736600462002ca5565b6200181c565b6200039b620018d7565b620002df6200062836600462002ed4565b62001a19565b6200039b6200063f366004620029a9565b62001a84565b6200033c62001b2e565b620002df62001b89565b6200039b6200066a36600462003051565b62001bc5565b620002df620021de565b620002df6200068b36600462003153565b6200221a565b620002df620006a236600462002ed4565b6200225d565b600354620002df565b6200039b620006c2366004620029a9565b620022c8565b620002df6402540be40081565b6200039b62002371565b60405163a303558560e01b81526003600482015260009073__$6aaf67e7827a013dd22ce71b2520632c86$__9063a3035585906024015b602060405180830381865af415801562000734573d6000803e3d6000fd5b505050506040513d601f19601f820116820180604052508101906200075a9190620031df565b905090565b60006200076b620010db565b15620007945760405162461bcd60e51b81526004016200078b90620031f9565b60405180910390fd5b60026001541415620007ba5760405162461bcd60e51b81526004016200078b9062003223565b60026001556001600160a01b038087166000908152601260205260408082205492881682529081902054905163ce055b8d60e01b815273__$6aaf67e7827a013dd22ce71b2520632c86$__9263ce055b8d926200082b9260039260ff9081169216908a908a908a906004016200325a565b602060405180830381865af415801562000849573d6000803e3d6000fd5b505050506040513d601f19601f820116820180604052508101906200086f9190620031df565b600180559695505050505050565b600354606090806001600160401b038111156200089e576200089e62002a7f565b604051908082528060200260200182016040528015620008c8578160200160208202803683370190505b50915060005b818110156200098a5760405163e2eba89b60e01b8152600360048201526024810182905273__$6aaf67e7827a013dd22ce71b2520632c86$__9063e2eba89b90604401602060405180830381865af41580156200092f573d6000803e3d6000fd5b505050506040513d601f19601f82011682018060405250810190620009559190620031df565b8382815181106200096a576200096a62003291565b6020908102919091010152806200098181620032bd565b915050620008ce565b505090565b606060026001541415620009b75760405162461bcd60e51b81526004016200078b9062003223565b60026001558142811015620009e05760405162461bcd60e51b81526004016200078b90620032db565b6040516331a15a5b60e21b815273__$6aaf67e7827a013dd22ce71b2520632c86$__9063c685696c9062000a1e906003908990899060040162003339565b600060405180830381865af415801562000a3c573d6000803e3d6000fd5b505050506040513d6000823e601f3d908101601f1916820160405262000a66919081019062003363565b6001805595945050505050565b60006002600154141562000a9b5760405162461bcd60e51b81526004016200078b9062003223565b600260015562000aaa620010db565b1562000aca5760405162461bcd60e51b81526004016200078b90620031f9565b818042111562000aee5760405162461bcd60e51b81526004016200078b90620032db565b6040516302bfe30d60e41b8152600360048201526024810187905260ff861660448201526064810185905273__$6aaf67e7827a013dd22ce71b2520632c86$__90632bfe30d090608401602060405180830381865af415801562000849573d6000803e3d6000fd5b3362000b61620013fe565b6001600160a01b03161462000b8a5760405162461bcd60e51b81526004016200078b90620033fc565b6001600160a01b03811662000bb35760405162461bcd60e51b81526004016200078b9062003431565b601180546001600160a01b0319166001600160a01b0383161790556040517f4c3f3b9852ccceadd50f16518f348e2624c8f0240acdd5bc81911c0fba83ec679062000c00908390620029c7565b60405180910390a150565b3362000c16620013fe565b6001600160a01b03161462000c3f5760405162461bcd60e51b81526004016200078b90620033fc565b62000c4962002546565b565b600062000c5a600383620025de565b92915050565b600062000c6c620010db565b1562000c8c5760405162461bcd60e51b81526004016200078b90620031f9565b6002600154141562000cb25760405162461bcd60e51b81526004016200078b9062003223565b6002600155814281101562000cdb5760405162461bcd60e51b81526004016200078b90620032db565b604051631e9b2e8f60e21b815273__$6aaf67e7827a013dd22ce71b2520632c86$__90637a6cba3c9062000d19906003908990899060040162003456565b602060405180830381865af415801562000d37573d6000803e3d6000fd5b505050506040513d601f19601f8201168201806040525081019062000a669190620031df565b3362000d68620013fe565b6001600160a01b03161462000d915760405162461bcd60e51b81526004016200078b90620033fc565b600b5462000da3906201518062003481565b42101562000de25760405162461bcd60e51b815260206004820152600b60248201526a3c2072616d7044656c617960a81b60448201526064016200078b565b62000df1620151804262003481565b81101562000e325760405162461bcd60e51b815260206004820152600d60248201526c3c206d696e52616d7054696d6560981b60448201526064016200078b565b81600010801562000e455750620f424082105b62000e805760405162461bcd60e51b815260206004820152600a6024820152696f75744f6652616e676560b01b60448201526064016200078b565b60405163a303558560e01b81526003600482015260009073__$6aaf67e7827a013dd22ce71b2520632c86$__9063a303558590602401602060405180830381865af415801562000ed4573d6000803e3d6000fd5b505050506040513d601f19601f8201168201806040525081019062000efa9190620031df565b9050600062000f0b6064856200349c565b90508181101562000f4b578162000f24600a836200349c565b101562000f455760405162461bcd60e51b81526004016200078b90620034be565b62000f7a565b62000f58600a836200349c565b81111562000f7a5760405162461bcd60e51b81526004016200078b90620034be565b6009829055600a81905542600b819055600c84905560408051848152602081018490528082019290925260608201859052517fa2b71ec6df949300b59aab36b55e189697b750119dd349fcfa8c0f779e83c2549181900360800190a150505050565b3362000fe7620013fe565b6001600160a01b031614620010105760405162461bcd60e51b81526004016200078b90620033fc565b6305f5e100831115620010375760405162461bcd60e51b81526004016200078b90620034e3565b6402540be4008211156200105f5760405162461bcd60e51b81526004016200078b9062003509565b6305f5e100811115620010865760405162461bcd60e51b81526004016200078b9062003530565b60088290556007839055600d81905560408051848152602081018490529081018290527fcfca96e0fef3432146913b2a5a2268a55d3f475fe057e7ffde1082b77693f4f39060600160405180910390a1505050565b600054600160a01b900460ff1690565b6001600160a01b0381166000818152601260205260409020546003805460ff90921692918390811062001122576200112262003291565b6000918252602090912001546001600160a01b031614620011765760405162461bcd60e51b815260206004820152600d60248201526c1d1bdad95b939bdd119bdd5b99609a1b60448201526064016200078b565b919050565b3362001186620013fe565b6001600160a01b031614620011af5760405162461bcd60e51b81526004016200078b90620033fc565b62000c49600062002698565b60405163fa56359760e01b815260609073__$6aaf67e7827a013dd22ce71b2520632c86$__9063fa56359790620011fc90600390879087906004016200355a565b600060405180830381865af41580156200121a573d6000803e3d6000fd5b505050506040513d6000823e601f3d908101601f1916820160405262001244919081019062003363565b9392505050565b600060036000018260ff168154811062001269576200126962003291565b6000918252602090912001546001600160a01b031692915050565b336200128f620013fe565b6001600160a01b031614620012b85760405162461bcd60e51b81526004016200078b90620033fc565b62000c49620026e8565b600060026001541415620012ea5760405162461bcd60e51b81526004016200078b9062003223565b6002600155620012f9620010db565b15620013195760405162461bcd60e51b81526004016200078b90620031f9565b81804211156200133d5760405162461bcd60e51b81526004016200078b90620032db565b60405163641a260360e11b815273__$6aaf67e7827a013dd22ce71b2520632c86$__9063c8344c069062000d19906003908990899060040162003456565b60405163e2eba89b60e01b81526003600482015260ff8216602482015260009073__$6aaf67e7827a013dd22ce71b2520632c86$__9063e2eba89b90604401602060405180830381865af4158015620013d8573d6000803e3d6000fd5b505050506040513d601f19601f8201168201806040525081019062000c5a9190620031df565b6000546001600160a01b031690565b6000600380018260ff16815481106200142a576200142a62003291565b90600052602060002001549050919050565b600062001448620010db565b15620014685760405162461bcd60e51b81526004016200078b90620031f9565b600260015414156200148e5760405162461bcd60e51b81526004016200078b9062003223565b60026001556020808401516001600160a01b0390811660009081526012909252604080832054818701519092168352918290205460608601516080870151935163ce055b8d60e01b815273__$6aaf67e7827a013dd22ce71b2520632c86$__9463ce055b8d94620015139460039460ff928316949190921692908a906004016200325a565b602060405180830381865af415801562001531573d6000803e3d6000fd5b505050506040513d601f19601f82011682018060405250810190620015579190620031df565b600180559392505050565b60405163159763bb60e01b8152600360048201526001600160a01b03841660248201526044810183905260ff8216606482015260009073__$6aaf67e7827a013dd22ce71b2520632c86$__9063159763bb906084015b602060405180830381865af4158015620015d6573d6000803e3d6000fd5b505050506040513d601f19601f82011682018060405250810190620015fc9190620031df565b949350505050565b6060600380018054806020026020016040519081016040528092919081815260200182805480156200165657602002820191906000526020600020905b81548152602001906001019080831162001641575b5050505050905090565b60405163ba2998d960e01b815260009073__$6aaf67e7827a013dd22ce71b2520632c86$__9063ba2998d990620015b89060039088908890889060040162003579565b606060036000018054806020026020016040519081016040528092919081815260200182805480156200165657602002820191906000526020600020905b81546001600160a01b03168152600190910190602001808311620016e1575050505050905090565b600062001715620010db565b15620017355760405162461bcd60e51b81526004016200078b90620031f9565b600260015414156200175b5760405162461bcd60e51b81526004016200078b9062003223565b60026001558142811015620017845760405162461bcd60e51b81526004016200078b90620032db565b60405163ad30093f60e01b815273__$6aaf67e7827a013dd22ce71b2520632c86$__9063ad30093f90620017c8906003908c908c908c908c908c906004016200325a565b602060405180830381865af4158015620017e6573d6000803e3d6000fd5b505050506040513d601f19601f820116820180604052508101906200180c9190620031df565b6001805598975050505050505050565b6004546001600160a01b03163314620018635760405162461bcd60e51b815260206004820152600860248201526710b6382a37b5b2b760c11b60448201526064016200078b565b6040516360c4725f60e11b815273__$6aaf67e7827a013dd22ce71b2520632c86$__9063c188e4be90620018a190600390869086906004016200355a565b60006040518083038186803b158015620018ba57600080fd5b505af4158015620018cf573d6000803e3d6000fd5b505050505050565b33620018e2620013fe565b6001600160a01b0316146200190b5760405162461bcd60e51b81526004016200078b90620033fc565b600c5442106200194f5760405162461bcd60e51b815260206004820152600e60248201526d185b1c9958591e54dd1bdc1c195960921b60448201526064016200078b565b60405163a303558560e01b81526003600482015260009073__$6aaf67e7827a013dd22ce71b2520632c86$__9063a303558590602401602060405180830381865af4158015620019a3573d6000803e3d6000fd5b505050506040513d601f19601f82011682018060405250810190620019c99190620031df565b6009819055600a81905542600b819055600c8190556040519192507f46e22fb3709ad289f62ce63d469248536dbc78d82b84a3d7e74ad606dc2019389162000c0091848252602082015260400190565b6001600160a01b0380831660009081526012602052604080822054928616825280822054905163ba2998d960e01b8152919273__$6aaf67e7827a013dd22ce71b2520632c86$__9263ba2998d992620015b89260039260ff9182169290911690889060040162003579565b3362001a8f620013fe565b6001600160a01b03161462001ab85760405162461bcd60e51b81526004016200078b90620033fc565b6001600160a01b03811662001ae15760405162461bcd60e51b81526004016200078b9062003431565b601080546001600160a01b0319166001600160a01b0383161790556040517fae5a12c29e496b092467a620746b9eaf4e0e231a631a4370c233b1fac38e8e269062000c00908390620029c7565b6060600360020180548060200260200160405190810160405280929190818152602001828054801562001656576020028201919060005260206000209081548152602001906001019080831162001641575050505050905090565b60405163b52e146f60e01b81526003600482015260009073__$6aaf67e7827a013dd22ce71b2520632c86$__9063b52e146f9060240162000716565b3362001bd0620013fe565b6001600160a01b03161462001bf95760405162461bcd60e51b81526004016200078b90620033fc565b600254610100900460ff168062001c13575060025460ff16155b62001c785760405162461bcd60e51b815260206004820152602e60248201527f496e697469616c697a61626c653a20636f6e747261637420697320616c72656160448201526d191e481a5b9a5d1a585b1a5e995960921b60648201526084016200078b565b600254610100900460ff1615801562001c9b576002805461ffff19166101011790555b88518a511462001cee5760405162461bcd60e51b815260206004820152601d60248201527f636f696e734c656e67746820213d20646563696d616c734c656e67746800000060448201526064016200078b565b6001600160a01b03821662001d3f5760405162461bcd60e51b81526020600482015260166024820152756665654469737472696275746f72203d20656d70747960501b60448201526064016200078b565b89516000816001600160401b0381111562001d5e5762001d5e62002a7f565b60405190808252806020026020018201604052801562001d88578160200160208202803683370190505b5090506000826001600160401b0381111562001da85762001da862002a7f565b60405190808252806020026020018201604052801562001dd2578160200160208202803683370190505b50905060005b8381101562001fda5760006001600160a01b03168e828151811062001e015762001e0162003291565b60200260200101516001600160a01b0316141562001e585760405162461bcd60e51b8152602060048201526013602482015272696e76616c6964546f6b656e4164647265737360681b60448201526064016200078b565b60128d828151811062001e6f5762001e6f62003291565b602002602001015160ff16111562001ebc5760405162461bcd60e51b815260206004820152600f60248201526e696e76616c6964446563696d616c7360881b60448201526064016200078b565b8c818151811062001ed15762001ed162003291565b602002602001015160ff16601262001eea919062003598565b62001ef790600a620036af565b83828151811062001f0c5762001f0c62003291565b6020026020010181815250508d818151811062001f2d5762001f2d62003291565b602002602001015182828151811062001f4a5762001f4a62003291565b60200260200101906001600160a01b031690816001600160a01b031681525050806012600084848151811062001f845762001f8462003291565b60200260200101516001600160a01b03166001600160a01b0316815260200190815260200160002060006101000a81548160ff021916908360ff160217905550808062001fd190620032bd565b91505062001dd8565b50620f42408910620020185760405162461bcd60e51b81526020600482015260066024820152653e206d61784160d01b60448201526064016200078b565b6305f5e1008811156200203f5760405162461bcd60e51b81526004016200078b90620034e3565b6402540be400871115620020675760405162461bcd60e51b81526004016200078b9062003509565b6305f5e1008611156200208e5760405162461bcd60e51b81526004016200078b9062003530565b8a8a6040516200209e90620028c4565b620020ab9291906200371a565b604051809103906000f080158015620020c8573d6000803e3d6000fd5b50600480546001600160a01b0319166001600160a01b0392909216919091179055826001600160401b0381111562002104576200210462002a7f565b6040519080825280602002602001820160405280156200212e578160200160208202803683370190505b5080516200214591600691602090910190620028d2565b5081516200215b906005906020850190620028d2565b5080516200217190600390602084019062002922565b506200217f60648a6200349c565b6009556200218f60648a6200349c565b600a5550505060078590556008849055600d839055601080546001600160a01b0319166001600160a01b0384161790558015620021d2576002805461ff00191690555b50505050505050505050565b6040516334d9812b60e21b81526003600482015260009073__$6aaf67e7827a013dd22ce71b2520632c86$__9063d36604ac9060240162000716565b604051631e7e95d360e01b815260009073__$6aaf67e7827a013dd22ce71b2520632c86$__90631e7e95d390620015b89060039088908890889060040162003743565b6001600160a01b0380841660009081526012602052604080822054928516825280822054905163ba2998d960e01b8152919273__$6aaf67e7827a013dd22ce71b2520632c86$__9263ba2998d992620015b89260039260ff9182169290911690889060040162003579565b33620022d3620013fe565b6001600160a01b031614620022fc5760405162461bcd60e51b81526004016200078b90620033fc565b6001600160a01b038116620023635760405162461bcd60e51b815260206004820152602660248201527f4f776e61626c653a206e6577206f776e657220697320746865207a65726f206160448201526564647265737360d01b60648201526084016200078b565b6200236e8162002698565b50565b6011546001600160a01b0316331480620023a5575062002390620013fe565b6001600160a01b0316336001600160a01b0316145b620023eb5760405162461bcd60e51b815260206004820152601560248201527410b332b2a1b7b73a3937b63632b927b927bbb732b960591b60448201526064016200078b565b60005b6003548110156200236e5760006003600001828154811062002414576200241462003291565b6000918252602082200154600680546001600160a01b039092169350908490811062002444576200244462003291565b9060005260206000200154826001600160a01b03166370a08231306040518263ffffffff1660e01b81526004016200247d9190620029c7565b602060405180830381865afa1580156200249b573d6000803e3d6000fd5b505050506040513d601f19601f82011682018060405250810190620024c19190620031df565b620024cd919062003598565b905080156200252e57601054620024f2906001600160a01b038481169116836200274e565b7fee3859efa95e525bc2bcb149b51b60a8bb4e89c647392d9d4112e03c3e73bdd682826040516200252592919062003795565b60405180910390a15b505080806200253d90620032bd565b915050620023ee565b62002550620010db565b620025955760405162461bcd60e51b815260206004820152601460248201527314185d5cd8589b194e881b9bdd081c185d5cd95960621b60448201526064016200078b565b6000805460ff60a01b191690557f5db9ee0a495bf2e6ff9c91a7834c1ba4fdd244a5e8aa4e537bd38aeae4b073aa335b604051620025d49190620029c7565b60405180910390a1565b6001600160a01b0381166000908152600b8301602052604081205481906200260a906224ea0062003481565b9050428111156200268e57600062002623428362003598565b6001600160a01b0385166000908152600c87016020526040902054600a8701549192506402540be400916224ea009184916200266091906200349c565b6200266c91906200349c565b620026789190620037ae565b620026849190620037ae565b9250505062000c5a565b5060009392505050565b600080546001600160a01b038381166001600160a01b0319831681178455604051919092169283917f8be0079c531659141344cd1fd0a4f28419497f9722a3daafe3b4186f6b6457e09190a35050565b620026f2620010db565b15620027125760405162461bcd60e51b81526004016200078b90620031f9565b6000805460ff60a01b1916600160a01b1790557f62e78cea01bee320cd4e420270b5ea74000d11b0c9f74754ebdbfc544b05a258620025c53390565b620027a88363a9059cbb60e01b84846040516024016200277092919062003795565b60408051601f198184030181529190526020810180516001600160e01b03166001600160e01b031990931692909217909152620027ad565b505050565b600080836001600160a01b031683604051620027ca9190620037d1565b6000604051808303816000865af19150503d806000811462002809576040519150601f19603f3d011682016040523d82523d6000602084013e6200280e565b606091505b5091509150600082141562002827573d6000803e3d6000fd5b620028568151600014806200284d5750818060200190518101906200284d9190620037ef565b6101a26200285c565b50505050565b816200286d576200286d8162002871565b5050565b62461bcd60e51b6000908152602060045260076024526652455123000030600a808404818106603090810160081b95839006959095019082900491820690940160101b939093010160c81b604452606490fd5b61122b806200381083390190565b82805482825590600052602060002090810192821562002910579160200282015b8281111562002910578251825591602001919060010190620028f3565b506200291e9291506200297a565b5090565b82805482825590600052602060002090810192821562002910579160200282015b828111156200291057825182546001600160a01b0319166001600160a01b0390911617825560209092019160019091019062002943565b5b808211156200291e57600081556001016200297b565b80356001600160a01b03811681146200117657600080fd5b600060208284031215620029bc57600080fd5b620012448262002991565b6001600160a01b0391909116815260200190565b600080600080600060a08688031215620029f457600080fd5b620029ff8662002991565b945062002a0f6020870162002991565b9350604086013592506060860135915062002a2d6080870162002991565b90509295509295909350565b6020808252825182820181905260009190848201906040850190845b8181101562002a735783518352928401929184019160010162002a55565b50909695505050505050565b634e487b7160e01b600052604160045260246000fd5b604051601f8201601f191681016001600160401b038111828210171562002ac05762002ac062002a7f565b604052919050565b60006001600160401b0382111562002ae45762002ae462002a7f565b5060051b60200190565b600082601f83011262002b0057600080fd5b8135602062002b1962002b138362002ac8565b62002a95565b82815260059290921b8401810191818101908684111562002b3957600080fd5b8286015b8481101562002b56578035835291830191830162002b3d565b509695505050505050565b60008060006060848603121562002b7757600080fd5b8335925060208401356001600160401b0381111562002b9557600080fd5b62002ba38682870162002aee565b925050604084013590509250925092565b803560ff811681146200117657600080fd5b6000806000806080858703121562002bdd57600080fd5b8435935062002bef6020860162002bb4565b93969395505050506040820135916060013590565b60008060006060848603121562002c1a57600080fd5b83356001600160401b0381111562002c3157600080fd5b62002c3f8682870162002aee565b9660208601359650604090950135949350505050565b6000806040838503121562002c6957600080fd5b50508035926020909101359150565b60008060006060848603121562002c8e57600080fd5b505081359360208301359350604090920135919050565b6000806040838503121562002cb957600080fd5b62002cc48362002991565b946020939093013593505050565b60006020828403121562002ce557600080fd5b620012448262002bb4565b60008082840360e081121562002d0557600080fd5b60c081121562002d1457600080fd5b5060405160c081016001600160401b038111828210171562002d3a5762002d3a62002a7f565b60405262002d488462002991565b815262002d586020850162002991565b602082015262002d6b6040850162002991565b6040820152606084013560608201526080840135608082015260a084013560a08201528092505062002da060c0840162002991565b90509250929050565b60008060006060848603121562002dbf57600080fd5b62002dca8462002991565b92506020840135915062002de16040850162002bb4565b90509250925092565b60008060006060848603121562002e0057600080fd5b62002e0b8462002bb4565b925062002e1b6020850162002bb4565b9150604084013590509250925092565b6020808252825182820181905260009190848201906040850190845b8181101562002a735783516001600160a01b03168352928401929184019160010162002e47565b60008060008060008060c0878903121562002e8857600080fd5b62002e938762002bb4565b955062002ea36020880162002bb4565b9450604087013593506060870135925062002ec16080880162002991565b915060a087013590509295509295509295565b60008060006060848603121562002eea57600080fd5b62002ef58462002991565b925062002e1b6020850162002991565b600082601f83011262002f1757600080fd5b8135602062002f2a62002b138362002ac8565b82815260059290921b8401810191818101908684111562002f4a57600080fd5b8286015b8481101562002b565762002f628162002991565b835291830191830162002f4e565b600082601f83011262002f8257600080fd5b8135602062002f9562002b138362002ac8565b82815260059290921b8401810191818101908684111562002fb557600080fd5b8286015b8481101562002b565762002fcd8162002bb4565b835291830191830162002fb9565b600082601f83011262002fed57600080fd5b81356001600160401b0381111562003009576200300962002a7f565b6200301e601f8201601f191660200162002a95565b8181528460208386010111156200303457600080fd5b816020850160208301376000918101602001919091529392505050565b60008060008060008060008060006101208a8c0312156200307157600080fd5b89356001600160401b03808211156200308957600080fd5b620030978d838e0162002f05565b9a5060208c0135915080821115620030ae57600080fd5b620030bc8d838e0162002f70565b995060408c0135915080821115620030d357600080fd5b620030e18d838e0162002fdb565b985060608c0135915080821115620030f857600080fd5b50620031078c828d0162002fdb565b96505060808a0135945060a08a0135935060c08a0135925060e08a01359150620031356101008b0162002991565b90509295985092959850929598565b80151581146200236e57600080fd5b6000806000604084860312156200316957600080fd5b83356001600160401b03808211156200318157600080fd5b818601915086601f8301126200319657600080fd5b813581811115620031a657600080fd5b8760208260051b8501011115620031bc57600080fd5b60209283019550935050840135620031d48162003144565b809150509250925092565b600060208284031215620031f257600080fd5b5051919050565b60208082526010908201526f14185d5cd8589b194e881c185d5cd95960821b604082015260600190565b6020808252601f908201527f5265656e7472616e637947756172643a207265656e7472616e742063616c6c00604082015260600190565b95865260ff9485166020870152929093166040850152606084015260808301919091526001600160a01b031660a082015260c00190565b634e487b7160e01b600052603260045260246000fd5b634e487b7160e01b600052601160045260246000fd5b6000600019821415620032d457620032d4620032a7565b5060010190565b6020808252600790820152661d1a5b595bdd5d60ca1b604082015260600190565b600081518084526020808501945080840160005b838110156200332e5781518752958201959082019060010162003310565b509495945050505050565b8381528260208201526060604082015260006200335a6060830184620032fc565b95945050505050565b600060208083850312156200337757600080fd5b82516001600160401b038111156200338e57600080fd5b8301601f81018513620033a057600080fd5b8051620033b162002b138262002ac8565b81815260059190911b82018301908381019087831115620033d157600080fd5b928401925b82841015620033f157835182529284019290840190620033d6565b979650505050505050565b6020808252818101527f4f776e61626c653a2063616c6c6572206973206e6f7420746865206f776e6572604082015260600190565b6020808252600b908201526a7a65726f4164647265737360a81b604082015260600190565b838152606060208201526000620034716060830185620032fc565b9050826040830152949350505050565b60008219821115620034975762003497620032a7565b500190565b6000816000190483118215151615620034b957620034b9620032a7565b500290565b6020808252600b908201526a3e206d61784368616e676560a81b604082015260600190565b6020808252600c908201526b3e206d61785377617046656560a01b604082015260600190565b6020808252600d908201526c3e206d617841646d696e46656560981b604082015260600190565b60208082526010908201526f3e206d6178576974686472617746656560801b604082015260600190565b9283526001600160a01b03919091166020830152604082015260600190565b93845260ff928316602085015291166040830152606082015260800190565b600082821015620035ad57620035ad620032a7565b500390565b600181815b80851115620035f3578160001904821115620035d757620035d7620032a7565b80851615620035e557918102915b93841c9390800290620035b7565b509250929050565b6000826200360c5750600162000c5a565b816200361b5750600062000c5a565b81600181146200363457600281146200363f576200365f565b600191505062000c5a565b60ff841115620036535762003653620032a7565b50506001821b62000c5a565b5060208310610133831016604e8410600b841016171562003684575081810a62000c5a565b620036908383620035b2565b8060001904821115620036a757620036a7620032a7565b029392505050565b6000620012448383620035fb565b60005b83811015620036da578181015183820152602001620036c0565b83811115620028565750506000910152565b6000815180845262003706816020860160208601620036bd565b601f01601f19169290920160200192915050565b6040815260006200372f6040830185620036ec565b82810360208401526200335a8185620036ec565b848152606060208201819052810183905260006001600160fb1b038411156200376b57600080fd5b8360051b808660808501376000908301608001908152921515604090920191909152509392505050565b6001600160a01b03929092168252602082015260400190565b600082620037cc57634e487b7160e01b600052601260045260246000fd5b500490565b60008251620037e5818460208701620036bd565b9190910192915050565b6000602082840312156200380257600080fd5b815162001244816200314456fe60806040523480156200001157600080fd5b506040516200122b3803806200122b833981016040819052620000349162000256565b8181620000413362000093565b815162000056906004906020850190620000e3565b5080516200006c906005906020840190620000e3565b50506006805433610100026001600160a81b031990911617601217905550620002fd915050565b600080546001600160a01b038381166001600160a01b0319831681178455604051919092169283917f8be0079c531659141344cd1fd0a4f28419497f9722a3daafe3b4186f6b6457e09190a35050565b828054620000f190620002c0565b90600052602060002090601f01602090048101928262000115576000855562000160565b82601f106200013057805160ff191683800117855562000160565b8280016001018555821562000160579182015b828111156200016057825182559160200191906001019062000143565b506200016e92915062000172565b5090565b5b808211156200016e576000815560010162000173565b634e487b7160e01b600052604160045260246000fd5b600082601f830112620001b157600080fd5b81516001600160401b0380821115620001ce57620001ce62000189565b604051601f8301601f19908116603f01168101908282118183101715620001f957620001f962000189565b816040528381526020925086838588010111156200021657600080fd5b600091505b838210156200023a57858201830151818301840152908201906200021b565b838211156200024c5760008385830101525b9695505050505050565b600080604083850312156200026a57600080fd5b82516001600160401b03808211156200028257600080fd5b62000290868387016200019f565b93506020850151915080821115620002a757600080fd5b50620002b6858286016200019f565b9150509250929050565b600181811c90821680620002d557607f821691505b60208210811415620002f757634e487b7160e01b600052602260045260246000fd5b50919050565b610f1e806200030d6000396000f3fe608060405234801561001057600080fd5b50600436106100e65760003560e01c806306fdde03146100eb578063095ea7b31461010957806318160ddd1461012c57806323b872dd1461013e578063313ce56714610151578063395093511461016057806340c10f191461017357806342966c681461018857806370a082311461019b578063715018a6146101c457806379cc6790146101cc5780638119c065146101df5780638da5cb5b1461020f57806395d89b4114610217578063a457c2d71461021f578063a9059cbb14610232578063dd62ed3e14610245578063f2fde38b14610258575b600080fd5b6100f361026b565b6040516101009190610cce565b60405180910390f35b61011c610117366004610d3f565b6102fd565b6040519015158152602001610100565b6003545b604051908152602001610100565b61011c61014c366004610d69565b610313565b60405160128152602001610100565b61011c61016e366004610d3f565b6103c2565b610186610181366004610d3f565b6103fe565b005b610186610196366004610da5565b61047c565b6101306101a9366004610dbe565b6001600160a01b031660009081526001602052604090205490565b610186610489565b6101866101da366004610d3f565b6104c4565b6006546101f79061010090046001600160a01b031681565b6040516001600160a01b039091168152602001610100565b6101f76104fa565b6100f3610509565b61011c61022d366004610d3f565b610518565b61011c610240366004610d3f565b6105b1565b610130610253366004610de0565b6105be565b610186610266366004610dbe565b6105e9565b60606004805461027a90610e13565b80601f01602080910402602001604051908101604052809291908181526020018280546102a690610e13565b80156102f35780601f106102c8576101008083540402835291602001916102f3565b820191906000526020600020905b8154815290600101906020018083116102d657829003601f168201915b5050505050905090565b600061030a338484610686565b50600192915050565b60006103208484846107aa565b6001600160a01b0384166000908152600260209081526040808320338452909152902054828110156103aa5760405162461bcd60e51b815260206004820152602860248201527f45524332303a207472616e7366657220616d6f756e74206578636565647320616044820152676c6c6f77616e636560c01b60648201526084015b60405180910390fd5b6103b78533858403610686565b506001949350505050565b3360008181526002602090815260408083206001600160a01b0387168452909152812054909161030a9185906103f9908690610e64565b610686565b336104076104fa565b6001600160a01b03161461042d5760405162461bcd60e51b81526004016103a190610e7c565b6000811161046e5760405162461bcd60e51b815260206004820152600e60248201526d1e995c9bd35a5b9d105b5bdd5b9d60921b60448201526064016103a1565b6104788282610972565b5050565b6104863382610a4b565b50565b336104926104fa565b6001600160a01b0316146104b85760405162461bcd60e51b81526004016103a190610e7c565b6104c26000610b93565b565b60006104de826101a16104d786336105be565b9190610be3565b90506104eb833383610686565b6104f58383610a4b565b505050565b6000546001600160a01b031690565b60606005805461027a90610e13565b3360009081526002602090815260408083206001600160a01b03861684529091528120548281101561059a5760405162461bcd60e51b815260206004820152602560248201527f45524332303a2064656372656173656420616c6c6f77616e63652062656c6f77604482015264207a65726f60d81b60648201526084016103a1565b6105a73385858403610686565b5060019392505050565b600061030a3384846107aa565b6001600160a01b03918216600090815260026020908152604080832093909416825291909152205490565b336105f26104fa565b6001600160a01b0316146106185760405162461bcd60e51b81526004016103a190610e7c565b6001600160a01b03811661067d5760405162461bcd60e51b815260206004820152602660248201527f4f776e61626c653a206e6577206f776e657220697320746865207a65726f206160448201526564647265737360d01b60648201526084016103a1565b61048681610b93565b6001600160a01b0383166106e85760405162461bcd60e51b8152602060048201526024808201527f45524332303a20617070726f76652066726f6d20746865207a65726f206164646044820152637265737360e01b60648201526084016103a1565b6001600160a01b0382166107495760405162461bcd60e51b815260206004820152602260248201527f45524332303a20617070726f766520746f20746865207a65726f206164647265604482015261737360f01b60648201526084016103a1565b6001600160a01b0383811660008181526002602090815260408083209487168084529482529182902085905590518481527f8c5be1e5ebec7d5bd14f71427d1e84f3dd0314c0f7b2291e5b200ac8c7c3b925910160405180910390a3505050565b6001600160a01b03831661080e5760405162461bcd60e51b815260206004820152602560248201527f45524332303a207472616e736665722066726f6d20746865207a65726f206164604482015264647265737360d81b60648201526084016103a1565b6001600160a01b0382166108705760405162461bcd60e51b815260206004820152602360248201527f45524332303a207472616e7366657220746f20746865207a65726f206164647260448201526265737360e81b60648201526084016103a1565b61087b838383610c07565b6001600160a01b038316600090815260016020526040902054818110156108f35760405162461bcd60e51b815260206004820152602660248201527f45524332303a207472616e7366657220616d6f756e7420657863656564732062604482015265616c616e636560d01b60648201526084016103a1565b6001600160a01b0380851660009081526001602052604080822085850390559185168152908120805484929061092a908490610e64565b92505081905550826001600160a01b0316846001600160a01b0316600080516020610ec98339815191528460405161096491815260200190565b60405180910390a350505050565b6001600160a01b0382166109c85760405162461bcd60e51b815260206004820152601f60248201527f45524332303a206d696e7420746f20746865207a65726f20616464726573730060448201526064016103a1565b6109d460008383610c07565b80600360008282546109e69190610e64565b90915550506001600160a01b03821660009081526001602052604081208054839290610a13908490610e64565b90915550506040518181526001600160a01b03831690600090600080516020610ec98339815191529060200160405180910390a35050565b6001600160a01b038216610aab5760405162461bcd60e51b815260206004820152602160248201527f45524332303a206275726e2066726f6d20746865207a65726f206164647265736044820152607360f81b60648201526084016103a1565b610ab782600083610c07565b6001600160a01b03821660009081526001602052604090205481811015610b2b5760405162461bcd60e51b815260206004820152602260248201527f45524332303a206275726e20616d6f756e7420657863656564732062616c616e604482015261636560f01b60648201526084016103a1565b6001600160a01b0383166000908152600160205260408120838303905560038054849290610b5a908490610eb1565b90915550506040518281526000906001600160a01b03851690600080516020610ec98339815191529060200160405180910390a3505050565b600080546001600160a01b038381166001600160a01b0319831681178455604051919092169283917f8be0079c531659141344cd1fd0a4f28419497f9722a3daafe3b4186f6b6457e09190a35050565b6000610bf28484111583610c78565b6000610bfe8486610eb1565b95945050505050565b600654604051633003049760e21b81526001600160a01b038481166004830152602482018490526101009092049091169063c00c125c90604401600060405180830381600087803b158015610c5b57600080fd5b505af1158015610c6f573d6000803e3d6000fd5b50505050505050565b816104785762461bcd60e51b600090815260206004526007602452600a808304818104828106603090810160101b848706949093060160081b929092010166524551230000300160c81b60445261047891606490fd5b600060208083528351808285015260005b81811015610cfb57858101830151858201604001528201610cdf565b81811115610d0d576000604083870101525b50601f01601f1916929092016040019392505050565b80356001600160a01b0381168114610d3a57600080fd5b919050565b60008060408385031215610d5257600080fd5b610d5b83610d23565b946020939093013593505050565b600080600060608486031215610d7e57600080fd5b610d8784610d23565b9250610d9560208501610d23565b9150604084013590509250925092565b600060208284031215610db757600080fd5b5035919050565b600060208284031215610dd057600080fd5b610dd982610d23565b9392505050565b60008060408385031215610df357600080fd5b610dfc83610d23565b9150610e0a60208401610d23565b90509250929050565b600181811c90821680610e2757607f821691505b60208210811415610e4857634e487b7160e01b600052602260045260246000fd5b50919050565b634e487b7160e01b600052601160045260246000fd5b60008219821115610e7757610e77610e4e565b500190565b6020808252818101527f4f776e61626c653a2063616c6c6572206973206e6f7420746865206f776e6572604082015260600190565b600082821015610ec357610ec3610e4e565b50039056feddf252ad1be2c89b69c2b068fc378daa952ba7f163c4a11628f55a4df523b3efa26469706673582212202696d45af23898d7d56cb63f780dd08c2a12065f530a5e0c6b0c549aa55ba7f964736f6c634300080a0033a2646970667358221220edab780e81a7eae22eb652a59fc872d2a9b70558d84adee9effcf54f1b471d6264736f6c634300080a0033",
  "libraries": {
    "RequiemStableSwapLib": "0x67d269191c92Caf3cD7723F116c85e6E9bf55933"
  },
  "devdoc": {
    "kind": "dev",
    "methods": {
      "owner()": {
        "details": "Returns the address of the current owner."
      },
      "paused()": {
        "details": "Returns true if the contract is paused, and false otherwise."
      },
      "rampA(uint256,uint256)": {
        "params": {
          "futureA": "the new A to ramp towards",
          "futureATime": "timestamp when the new A should be reached"
        }
      },
      "renounceOwnership()": {
        "details": "Leaves the contract without owner. It will not be possible to call `onlyOwner` functions anymore. Can only be called by the current owner. NOTE: Renouncing ownership will leave the contract without an owner, thereby removing any functionality that is only available to the owner."
      },
      "setFee(uint256,uint256,uint256)": {
        "details": "adminFee cannot be higher than 100% of the swap fee swap fee cannot be higher than 1% of each swap",
        "params": {
          "newAdminFee": "new admin fee to be applied on future transactions",
          "newSwapFee": "new swap fee to be applied on future transactions",
          "newWithdrawFee": "new initial withdraw fee to be applied on future withdrawal transactions"
        }
      },
      "transferOwnership(address)": {
        "details": "Transfers ownership of the contract to a new account (`newOwner`). Can only be called by the current owner."
      },
      "updateUserWithdrawFee(address,uint256)": {
        "params": {
          "recipient": "address of the recipient of pool token",
          "transferAmount": "amount of pool token to transfer"
        }
      }
    },
    "version": 1
  },
  "userdoc": {
    "events": {
      "AddLiquidity(address,uint256[],uint256[],uint256,uint256)": {
        "notice": "EVENTS"
      }
    },
    "kind": "user",
    "methods": {
      "MIN_RAMP_TIME()": {
        "notice": "constants"
      },
      "addLiquidity(uint256[],uint256,uint256)": {
        "notice": "PUBLIC FUNCTIONS"
      },
      "getVirtualPrice()": {
        "notice": "VIEW FUNCTIONS"
      },
      "rampA(uint256,uint256)": {
        "notice": "Start ramping up or down A parameter towards given futureA_ and futureTime_ Checks if the change is too rapid, and commits the new A value only when it falls under the limit range."
      },
      "setFee(uint256,uint256,uint256)": {
        "notice": "Sets the admin fee"
      },
      "swapStorage()": {
        "notice": "STATE VARS"
      },
      "updateUserWithdrawFee(address,uint256)": {
        "notice": "Updates the user withdraw fee. This function can only be called by the pool token. Should be used to update the withdraw fee on transfer of pool tokens. Transferring your pool token will reset the 4 weeks period. If the recipient is already holding some pool tokens, the withdraw fee will be discounted in respective amounts."
      }
    },
    "version": 1
  },
  "storageLayout": {
    "storage": [
      {
        "astId": 40074,
        "contract": "contracts/RequiemStableSwap.sol:RequiemStableSwap",
        "label": "_owner",
        "offset": 0,
        "slot": "0",
        "type": "t_address"
      },
      {
        "astId": 40189,
        "contract": "contracts/RequiemStableSwap.sol:RequiemStableSwap",
        "label": "_paused",
        "offset": 20,
        "slot": "0",
        "type": "t_bool"
      },
      {
        "astId": 40274,
        "contract": "contracts/RequiemStableSwap.sol:RequiemStableSwap",
        "label": "_status",
        "offset": 0,
        "slot": "1",
        "type": "t_uint256"
      },
      {
        "astId": 39883,
        "contract": "contracts/RequiemStableSwap.sol:RequiemStableSwap",
        "label": "_initialized",
        "offset": 0,
        "slot": "2",
        "type": "t_bool"
      },
      {
        "astId": 39886,
        "contract": "contracts/RequiemStableSwap.sol:RequiemStableSwap",
        "label": "_initializing",
        "offset": 1,
        "slot": "2",
        "type": "t_bool"
      },
      {
        "astId": 19980,
        "contract": "contracts/RequiemStableSwap.sol:RequiemStableSwap",
        "label": "swapStorage",
        "offset": 0,
        "slot": "3",
        "type": "t_struct(SwapStorage)21355_storage"
      },
      {
        "astId": 19982,
        "contract": "contracts/RequiemStableSwap.sol:RequiemStableSwap",
        "label": "feeDistributor",
        "offset": 0,
        "slot": "16",
        "type": "t_address"
      },
      {
        "astId": 19984,
        "contract": "contracts/RequiemStableSwap.sol:RequiemStableSwap",
        "label": "feeController",
        "offset": 0,
        "slot": "17",
        "type": "t_address"
      },
      {
        "astId": 19988,
        "contract": "contracts/RequiemStableSwap.sol:RequiemStableSwap",
        "label": "tokenIndexes",
        "offset": 0,
        "slot": "18",
        "type": "t_mapping(t_address,t_uint8)"
      }
    ],
    "types": {
      "t_address": {
        "encoding": "inplace",
        "label": "address",
        "numberOfBytes": "20"
      },
      "t_array(t_contract(IERC20)32308)dyn_storage": {
        "base": "t_contract(IERC20)32308",
        "encoding": "dynamic_array",
        "label": "contract IERC20[]",
        "numberOfBytes": "32"
      },
      "t_array(t_uint256)dyn_storage": {
        "base": "t_uint256",
        "encoding": "dynamic_array",
        "label": "uint256[]",
        "numberOfBytes": "32"
      },
      "t_bool": {
        "encoding": "inplace",
        "label": "bool",
        "numberOfBytes": "1"
      },
      "t_contract(IERC20)32308": {
        "encoding": "inplace",
        "label": "contract IERC20",
        "numberOfBytes": "20"
      },
      "t_contract(LPToken)49673": {
        "encoding": "inplace",
        "label": "contract LPToken",
        "numberOfBytes": "20"
      },
      "t_mapping(t_address,t_uint256)": {
        "encoding": "mapping",
        "key": "t_address",
        "label": "mapping(address => uint256)",
        "numberOfBytes": "32",
        "value": "t_uint256"
      },
      "t_mapping(t_address,t_uint8)": {
        "encoding": "mapping",
        "key": "t_address",
        "label": "mapping(address => uint8)",
        "numberOfBytes": "32",
        "value": "t_uint8"
      },
      "t_struct(SwapStorage)21355_storage": {
        "encoding": "inplace",
        "label": "struct RequiemStableSwapLib.SwapStorage",
        "members": [
          {
            "astId": 21318,
            "contract": "contracts/RequiemStableSwap.sol:RequiemStableSwap",
            "label": "pooledTokens",
            "offset": 0,
            "slot": "0",
            "type": "t_array(t_contract(IERC20)32308)dyn_storage"
          },
          {
            "astId": 21321,
            "contract": "contracts/RequiemStableSwap.sol:RequiemStableSwap",
            "label": "lpToken",
            "offset": 0,
            "slot": "1",
            "type": "t_contract(LPToken)49673"
          },
          {
            "astId": 21325,
            "contract": "contracts/RequiemStableSwap.sol:RequiemStableSwap",
            "label": "tokenMultipliers",
            "offset": 0,
            "slot": "2",
            "type": "t_array(t_uint256)dyn_storage"
          },
          {
            "astId": 21329,
            "contract": "contracts/RequiemStableSwap.sol:RequiemStableSwap",
            "label": "balances",
            "offset": 0,
            "slot": "3",
            "type": "t_array(t_uint256)dyn_storage"
          },
          {
            "astId": 21332,
            "contract": "contracts/RequiemStableSwap.sol:RequiemStableSwap",
            "label": "fee",
            "offset": 0,
            "slot": "4",
            "type": "t_uint256"
          },
          {
            "astId": 21335,
            "contract": "contracts/RequiemStableSwap.sol:RequiemStableSwap",
            "label": "adminFee",
            "offset": 0,
            "slot": "5",
            "type": "t_uint256"
          },
          {
            "astId": 21338,
            "contract": "contracts/RequiemStableSwap.sol:RequiemStableSwap",
            "label": "initialA",
            "offset": 0,
            "slot": "6",
            "type": "t_uint256"
          },
          {
            "astId": 21340,
            "contract": "contracts/RequiemStableSwap.sol:RequiemStableSwap",
            "label": "futureA",
            "offset": 0,
            "slot": "7",
            "type": "t_uint256"
          },
          {
            "astId": 21342,
            "contract": "contracts/RequiemStableSwap.sol:RequiemStableSwap",
            "label": "initialATime",
            "offset": 0,
            "slot": "8",
            "type": "t_uint256"
          },
          {
            "astId": 21344,
            "contract": "contracts/RequiemStableSwap.sol:RequiemStableSwap",
            "label": "futureATime",
            "offset": 0,
            "slot": "9",
            "type": "t_uint256"
          },
          {
            "astId": 21346,
            "contract": "contracts/RequiemStableSwap.sol:RequiemStableSwap",
            "label": "defaultWithdrawFee",
            "offset": 0,
            "slot": "10",
            "type": "t_uint256"
          },
          {
            "astId": 21350,
            "contract": "contracts/RequiemStableSwap.sol:RequiemStableSwap",
            "label": "depositTimestamp",
            "offset": 0,
            "slot": "11",
            "type": "t_mapping(t_address,t_uint256)"
          },
          {
            "astId": 21354,
            "contract": "contracts/RequiemStableSwap.sol:RequiemStableSwap",
            "label": "withdrawFeeMultiplier",
            "offset": 0,
            "slot": "12",
            "type": "t_mapping(t_address,t_uint256)"
          }
        ],
        "numberOfBytes": "416"
      },
      "t_uint256": {
        "encoding": "inplace",
        "label": "uint256",
        "numberOfBytes": "32"
      },
      "t_uint8": {
        "encoding": "inplace",
        "label": "uint8",
        "numberOfBytes": "1"
      }
    }
  }
}