{
  "address": "0x5FbDB2315678afecb367f032d93F642f64180aa3",
  "abi": [
    {
      "inputs": [],
      "stateMutability": "nonpayable",
      "type": "constructor"
    },
    {
      "inputs": [
        {
          "internalType": "uint256",
          "name": "reserve0",
          "type": "uint256"
        },
        {
          "internalType": "uint256",
          "name": "reserve1",
          "type": "uint256"
        },
        {
          "internalType": "uint256",
          "name": "balance0Adjusted",
          "type": "uint256"
        },
        {
          "internalType": "uint256",
          "name": "balance1Adjusted",
          "type": "uint256"
        },
        {
          "internalType": "uint32",
          "name": "tokenWeight0",
          "type": "uint32"
        }
      ],
      "name": "ensureConstantValue",
      "outputs": [
        {
          "internalType": "bool",
          "name": "",
          "type": "bool"
        }
      ],
      "stateMutability": "view",
      "type": "function"
    },
    {
      "inputs": [
        {
          "internalType": "uint256",
          "name": "_x",
          "type": "uint256"
        }
      ],
      "name": "findPositionInMaxExpArray",
      "outputs": [
        {
          "internalType": "uint8",
          "name": "",
          "type": "uint8"
        }
      ],
      "stateMutability": "view",
      "type": "function"
    },
    {
      "inputs": [
        {
          "internalType": "uint256",
          "name": "_n",
          "type": "uint256"
        }
      ],
      "name": "floorLog2",
      "outputs": [
        {
          "internalType": "uint8",
          "name": "",
          "type": "uint8"
        }
      ],
      "stateMutability": "pure",
      "type": "function"
    },
    {
      "inputs": [
        {
          "internalType": "uint256",
          "name": "_x",
          "type": "uint256"
        },
        {
          "internalType": "uint8",
          "name": "_precision",
          "type": "uint8"
        }
      ],
      "name": "generalExp",
      "outputs": [
        {
          "internalType": "uint256",
          "name": "",
          "type": "uint256"
        }
      ],
      "stateMutability": "pure",
      "type": "function"
    },
    {
      "inputs": [
        {
          "internalType": "uint256",
          "name": "x",
          "type": "uint256"
        }
      ],
      "name": "generalLog",
      "outputs": [
        {
          "internalType": "uint256",
          "name": "",
          "type": "uint256"
        }
      ],
      "stateMutability": "pure",
      "type": "function"
    },
    {
      "inputs": [
        {
          "internalType": "uint256",
          "name": "amountOut",
          "type": "uint256"
        },
        {
          "internalType": "uint256",
          "name": "reserveIn",
          "type": "uint256"
        },
        {
          "internalType": "uint256",
          "name": "reserveOut",
          "type": "uint256"
        },
        {
          "internalType": "uint32",
          "name": "tokenWeightIn",
          "type": "uint32"
        },
        {
          "internalType": "uint32",
          "name": "tokenWeightOut",
          "type": "uint32"
        },
        {
          "internalType": "uint32",
          "name": "swapFee",
          "type": "uint32"
        }
      ],
      "name": "getAmountIn",
      "outputs": [
        {
          "internalType": "uint256",
          "name": "amountIn",
          "type": "uint256"
        }
      ],
      "stateMutability": "view",
      "type": "function"
    },
    {
      "inputs": [
        {
          "internalType": "uint256",
          "name": "amountIn",
          "type": "uint256"
        },
        {
          "internalType": "uint256",
          "name": "reserveIn",
          "type": "uint256"
        },
        {
          "internalType": "uint256",
          "name": "reserveOut",
          "type": "uint256"
        },
        {
          "internalType": "uint32",
          "name": "tokenWeightIn",
          "type": "uint32"
        },
        {
          "internalType": "uint32",
          "name": "tokenWeightOut",
          "type": "uint32"
        },
        {
          "internalType": "uint32",
          "name": "swapFee",
          "type": "uint32"
        }
      ],
      "name": "getAmountOut",
      "outputs": [
        {
          "internalType": "uint256",
          "name": "amountOut",
          "type": "uint256"
        }
      ],
      "stateMutability": "view",
      "type": "function"
    },
    {
      "inputs": [
        {
          "internalType": "address",
          "name": "tokenIn",
          "type": "address"
        },
        {
          "internalType": "address",
          "name": "tokenOut",
          "type": "address"
        },
        {
          "internalType": "uint256",
          "name": "amountOut",
          "type": "uint256"
        },
        {
          "internalType": "address[]",
          "name": "path",
          "type": "address[]"
        }
      ],
      "name": "getAmountsIn",
      "outputs": [
        {
          "internalType": "uint256[]",
          "name": "amounts",
          "type": "uint256[]"
        }
      ],
      "stateMutability": "view",
      "type": "function"
    },
    {
      "inputs": [
        {
          "internalType": "address",
          "name": "tokenIn",
          "type": "address"
        },
        {
          "internalType": "address",
          "name": "tokenOut",
          "type": "address"
        },
        {
          "internalType": "uint256",
          "name": "amountIn",
          "type": "uint256"
        },
        {
          "internalType": "address[]",
          "name": "path",
          "type": "address[]"
        }
      ],
      "name": "getAmountsOut",
      "outputs": [
        {
          "internalType": "uint256[]",
          "name": "amounts",
          "type": "uint256[]"
        }
      ],
      "stateMutability": "view",
      "type": "function"
    },
    {
      "inputs": [
        {
          "internalType": "address",
          "name": "factory",
          "type": "address"
        },
        {
          "internalType": "address",
          "name": "tokenIn",
          "type": "address"
        },
        {
          "internalType": "address",
          "name": "tokenOut",
          "type": "address"
        },
        {
          "internalType": "uint256",
          "name": "amountOut",
          "type": "uint256"
        },
        {
          "internalType": "address[]",
          "name": "path",
          "type": "address[]"
        }
      ],
      "name": "getFactoryAmountsIn",
      "outputs": [
        {
          "internalType": "uint256[]",
          "name": "amounts",
          "type": "uint256[]"
        }
      ],
      "stateMutability": "view",
      "type": "function"
    },
    {
      "inputs": [
        {
          "internalType": "address",
          "name": "factory",
          "type": "address"
        },
        {
          "internalType": "address",
          "name": "tokenIn",
          "type": "address"
        },
        {
          "internalType": "address",
          "name": "tokenOut",
          "type": "address"
        },
        {
          "internalType": "uint256",
          "name": "amountIn",
          "type": "uint256"
        },
        {
          "internalType": "address[]",
          "name": "path",
          "type": "address[]"
        }
      ],
      "name": "getFactoryAmountsOut",
      "outputs": [
        {
          "internalType": "uint256[]",
          "name": "amounts",
          "type": "uint256[]"
        }
      ],
      "stateMutability": "view",
      "type": "function"
    },
    {
      "inputs": [
        {
          "internalType": "address",
          "name": "factory",
          "type": "address"
        },
        {
          "internalType": "address",
          "name": "pair",
          "type": "address"
        },
        {
          "internalType": "address",
          "name": "tokenA",
          "type": "address"
        }
      ],
      "name": "getFactoryReserveAndWeights",
      "outputs": [
        {
          "internalType": "address",
          "name": "tokenB",
          "type": "address"
        },
        {
          "internalType": "uint256",
          "name": "reserveA",
          "type": "uint256"
        },
        {
          "internalType": "uint256",
          "name": "reserveB",
          "type": "uint256"
        },
        {
          "internalType": "uint32",
          "name": "tokenWeightA",
          "type": "uint32"
        },
        {
          "internalType": "uint32",
          "name": "tokenWeightB",
          "type": "uint32"
        },
        {
          "internalType": "uint32",
          "name": "swapFee",
          "type": "uint32"
        }
      ],
      "stateMutability": "view",
      "type": "function"
    },
    {
      "inputs": [
        {
          "internalType": "address",
          "name": "factory",
          "type": "address"
        },
        {
          "internalType": "address",
          "name": "pair",
          "type": "address"
        }
      ],
      "name": "getFactoryWeightsAndSwapFee",
      "outputs": [
        {
          "internalType": "uint32",
          "name": "tokenWeight0",
          "type": "uint32"
        },
        {
          "internalType": "uint32",
          "name": "tokenWeight1",
          "type": "uint32"
        },
        {
          "internalType": "uint32",
          "name": "swapFee",
          "type": "uint32"
        }
      ],
      "stateMutability": "view",
      "type": "function"
    },
    {
      "inputs": [
        {
          "internalType": "address",
          "name": "pair",
          "type": "address"
        },
        {
          "internalType": "address",
          "name": "tokenA",
          "type": "address"
        }
      ],
      "name": "getOtherToken",
      "outputs": [
        {
          "internalType": "address",
          "name": "tokenB",
          "type": "address"
        }
      ],
      "stateMutability": "view",
      "type": "function"
    },
    {
      "inputs": [
        {
          "internalType": "address",
          "name": "pair",
          "type": "address"
        },
        {
          "internalType": "address",
          "name": "tokenIn",
          "type": "address"
        },
        {
          "internalType": "uint256",
          "name": "amountOut",
          "type": "uint256"
        }
      ],
      "name": "getPairAmountIn",
      "outputs": [
        {
          "internalType": "uint256",
          "name": "amountIn",
          "type": "uint256"
        }
      ],
      "stateMutability": "view",
      "type": "function"
    },
    {
      "inputs": [
        {
          "internalType": "address",
          "name": "pair",
          "type": "address"
        },
        {
          "internalType": "address",
          "name": "tokenIn",
          "type": "address"
        },
        {
          "internalType": "uint256",
          "name": "amountIn",
          "type": "uint256"
        }
      ],
      "name": "getPairAmountOut",
      "outputs": [
        {
          "internalType": "uint256",
          "name": "amountOut",
          "type": "uint256"
        }
      ],
      "stateMutability": "view",
      "type": "function"
    },
    {
      "inputs": [
        {
          "internalType": "address",
          "name": "pair",
          "type": "address"
        },
        {
          "internalType": "address",
          "name": "tokenA",
          "type": "address"
        }
      ],
      "name": "getReserveAndWeights",
      "outputs": [
        {
          "internalType": "address",
          "name": "tokenB",
          "type": "address"
        },
        {
          "internalType": "uint256",
          "name": "reserveA",
          "type": "uint256"
        },
        {
          "internalType": "uint256",
          "name": "reserveB",
          "type": "uint256"
        },
        {
          "internalType": "uint32",
          "name": "tokenWeightA",
          "type": "uint32"
        },
        {
          "internalType": "uint32",
          "name": "tokenWeightB",
          "type": "uint32"
        },
        {
          "internalType": "uint32",
          "name": "swapFee",
          "type": "uint32"
        }
      ],
      "stateMutability": "view",
      "type": "function"
    },
    {
      "inputs": [
        {
          "internalType": "address",
          "name": "pair",
          "type": "address"
        },
        {
          "internalType": "address",
          "name": "tokenA",
          "type": "address"
        },
        {
          "internalType": "address",
          "name": "tokenB",
          "type": "address"
        }
      ],
      "name": "getReserves",
      "outputs": [
        {
          "internalType": "uint256",
          "name": "reserveA",
          "type": "uint256"
        },
        {
          "internalType": "uint256",
          "name": "reserveB",
          "type": "uint256"
        }
      ],
      "stateMutability": "view",
      "type": "function"
    },
    {
      "inputs": [
        {
          "internalType": "address",
          "name": "pair",
          "type": "address"
        }
      ],
      "name": "getWeightsAndSwapFee",
      "outputs": [
        {
          "internalType": "uint32",
          "name": "tokenWeight0",
          "type": "uint32"
        },
        {
          "internalType": "uint32",
          "name": "tokenWeight1",
          "type": "uint32"
        },
        {
          "internalType": "uint32",
          "name": "swapFee",
          "type": "uint32"
        }
      ],
      "stateMutability": "view",
      "type": "function"
    },
    {
      "inputs": [],
      "name": "initMaxExpArray",
      "outputs": [],
      "stateMutability": "nonpayable",
      "type": "function"
    },
    {
      "inputs": [
        {
          "internalType": "uint256",
          "name": "totalLiquidity",
          "type": "uint256"
        },
        {
          "internalType": "uint112",
          "name": "reserve0",
          "type": "uint112"
        },
        {
          "internalType": "uint112",
          "name": "reserve1",
          "type": "uint112"
        },
        {
          "internalType": "uint32",
          "name": "tokenWeight0",
          "type": "uint32"
        },
        {
          "internalType": "uint32",
          "name": "tokenWeight1",
          "type": "uint32"
        },
        {
          "internalType": "uint112",
          "name": "collectedFee0",
          "type": "uint112"
        },
        {
          "internalType": "uint112",
          "name": "collectedFee1",
          "type": "uint112"
        }
      ],
      "name": "mintLiquidityFee",
      "outputs": [
        {
          "internalType": "uint256",
          "name": "amount",
          "type": "uint256"
        }
      ],
      "stateMutability": "view",
      "type": "function"
    },
    {
      "inputs": [
        {
          "internalType": "uint256",
          "name": "x",
          "type": "uint256"
        }
      ],
      "name": "optimalExp",
      "outputs": [
        {
          "internalType": "uint256",
          "name": "",
          "type": "uint256"
        }
      ],
      "stateMutability": "pure",
      "type": "function"
    },
    {
      "inputs": [
        {
          "internalType": "uint256",
          "name": "x",
          "type": "uint256"
        }
      ],
      "name": "optimalLog",
      "outputs": [
        {
          "internalType": "uint256",
          "name": "",
          "type": "uint256"
        }
      ],
      "stateMutability": "pure",
      "type": "function"
    },
    {
      "inputs": [
        {
          "internalType": "uint256",
          "name": "_baseN",
          "type": "uint256"
        },
        {
          "internalType": "uint256",
          "name": "_baseD",
          "type": "uint256"
        },
        {
          "internalType": "uint32",
          "name": "_expN",
          "type": "uint32"
        },
        {
          "internalType": "uint32",
          "name": "_expD",
          "type": "uint32"
        }
      ],
      "name": "power",
      "outputs": [
        {
          "internalType": "uint256",
          "name": "",
          "type": "uint256"
        },
        {
          "internalType": "uint8",
          "name": "",
          "type": "uint8"
        }
      ],
      "stateMutability": "view",
      "type": "function"
    },
    {
      "inputs": [
        {
          "internalType": "uint256",
          "name": "amountA",
          "type": "uint256"
        },
        {
          "internalType": "uint256",
          "name": "reserveA",
          "type": "uint256"
        },
        {
          "internalType": "uint256",
          "name": "reserveB",
          "type": "uint256"
        }
      ],
      "name": "quote",
      "outputs": [
        {
          "internalType": "uint256",
          "name": "amountB",
          "type": "uint256"
        }
      ],
      "stateMutability": "pure",
      "type": "function"
    },
    {
      "inputs": [
        {
          "internalType": "address",
          "name": "tokenA",
          "type": "address"
        },
        {
          "internalType": "address",
          "name": "tokenB",
          "type": "address"
        }
      ],
      "name": "sortTokens",
      "outputs": [
        {
          "internalType": "address",
          "name": "token0",
          "type": "address"
        },
        {
          "internalType": "address",
          "name": "token1",
          "type": "address"
        }
      ],
      "stateMutability": "pure",
      "type": "function"
    }
  ],
  "transactionHash": "0x77cd7d2348ab33644ca2459f1b0799fa8e97a2c75db5645febf4681aba471507",
  "args": [],
  "solcInputHash": "f1519a0f1a3a2823210e2f2b48b36b06",
  "bytecode": "0x608060405234801561001057600080fd5b5061073f6001641c35fedd1560601b036020556001646c3390ecc9605e1b036021556001640cf801476160611b0360225560016431bdb23e1d605f1b0360235560016502fb1d8fe083605b1b0360245560016505b771955b37605a1b036025556001650af67a93bb5160591b0360265560016515060c256cb360581b036027556001651428a2f98d7360581b036028556001654d515663970960561b03602955600165944620b0e70f60551b03602a55600166011c592761c66760541b03602b5560016602214d10d014eb60531b03602c55600166020ade36b7dbef60531b03602d5560016603eab73b3bbfe360521b03602e556001660782ee3593f6d760511b03602f556001661ccf4b44bb4821604f1b0360305560016606e7f88ad8a77760511b0360315560016669f3d1c921891d604d1b03603255600166cb2ff529eb71e5604c1b03603355600166c2d415c3db974b604c1b0360345560016702eb40f9f620fda7604a1b0360355560016705990681d961a1eb60491b03603655600167055e12902701414760491b0360375560016714962dee9dc9764160471b0360385560016704ef57b9b560fab560491b0360395560016712ed7b32a58f552b60471b03603a556001679131271922eaa60760441b03603b556001678b380f3558668c4760441b03603c556001680215f77c045fbe885760421b03603d556001600160831b03603e556001670f577eded5773a1160471b03603f556001680eb5ec597592befbf5603f1b036040556001681c35fedd14b861eb05603e1b036041556001683619c87664579bc94b603d1b0360425560016867c00a3b07ffc01fd7603c1b03604355600168c6f6c8f8739773a7a5603b1b03604455600168bec763f8209b7a72b1603b1b0360455560016902dbb8caad9b7097b91b60391b03604655600169057b3d49dda84556d6f760381b03604755600169054183095b2c8ececf3160381b036048556001690a14517cc6b9457111ef60371b0360495560016913545598e5c23276ccf160361b03604a556001692511882c39c3adea96ff60351b03604b55600169471649d87199aa99075760341b03604c557004429a21a029d4c1457cfbffffffffffff604d55700415bc6d6fb7dd71af2cb3ffffffffffff604e557003eab73b3bbfe282243ce1ffffffffffff604f557003c1771ac9fb6b4c18e229ffffffffffff605055700399e96897690418f785257fffffffffff605155700373fc456c53bb779bf0ea9fffffffffff60525570034f9e8e490c48e67e6ab8bfffffffffff60535570032cbfd4a7adc790560b3337ffffffffff60545570030b50570f6e5d2acca94613ffffffffff6055557002eb40f9f620fda6b56c2861ffffffffff6056557002cc8340ecb0d0f520a6af58ffffffffff6057557002af09481380a0a35cf1ba02ffffffffff605855700292c5bdd3b92ec810287b1b3fffffffff605955700277abdcdab07d5a77ac6d6b9fffffffff605a5570025daf6654b1eaa55fd64df5efffffffff605b55700244c49c648baa98192dce88b7ffffffff605c5570022ce03cd5619a311b2471268bffffffff605d55700215f77c045fbe885654a44a0fffffffff605e556001600160811b03605f557001eaefdbdaaee7421fc4d3ede5ffffffff6060557001d6bd8b2eb257df7e8ca57b09bfffffff6061557001c35fedd14b861eb0443f7f133fffffff6062557001b0ce43b322bcde4a56e8ada5afffffff60635570019f0028ec1fff007f5a195a39dfffffff60645570018ded91f0e72ee74f49b15ba527ffffff60655570017d8ec7f04136f4e5615fd41a63ffffff60665570016ddc6556cdb84bdc8d12d22e6fffffff60675570015ecf52776a1155b5bd8395814f7fffff60685570015060c256cb23b3b3cc3754cf40ffffff6069557001428a2f98d728ae223ddab715be3fffff606a5570013545598e5c23276ccf0ede68034fffff606b557001288c4161ce1d6f54b7f61081194fffff606c5570011c592761c666aa641d5a01a40f17ffff606d55700110a688680a7530515f3e6e6cfdcdffff606e557001056f1b5bedf75c6bcb2ce8aed428ffff606f556ffaadceceeff8a0890f3875f008277fff6070556ff05dc6b27edad306388a600f6ba0bfff6071556fe67a5a25da41063de1495d5b18cdbfff6072556fdcff115b14eedde6fc3aa5353f2e4fff6073556fd3e7a3924312399f9aae2e0f868f8fff6074556fcb2ff529eb71e41582cccd5a1ee26fff6075556fc2d415c3db974ab32a51840c0b67edff6076556fbad03e7d883f69ad5b0a186184e06bff6077556fb320d03b2c343d4829abd6075f0cc5ff6078556fabc25204e02828d73c6e80bcdb1a95bf6079556fa4b16f74ee4bb2040a1ec6c15fbbf2df607a556f9deaf736ac1f569deb1b5ae3f36c130f607b556f976bd9952c7aa957f5937d790ef65037607c556f9131271922eaa6064b73a22d0bd4f2bf607d556f8b380f3558668c46c91c49a2f8e967b9607e556f857ddf0117efa215952912839f6473e6607f55565b614351806200074f6000396000f3fe608060405234801561001057600080fd5b506004361061018e5760003560e01c80638888a737116100de578063ad615dec11610097578063b3923a9911610071578063b3923a9914610bf5578063ca22297914610c08578063ce78456414610c1b578063d691093714610c2e57600080fd5b8063ad615dec14610bbc578063b19210b014610bcf578063b33d96b014610be257600080fd5b80638888a737146103865780638fabd82d1461039957806392aec23c146103ac57806395050862146103bf578063a324cca0146103d2578063aa248a46146103e557600080fd5b80634c3eea9e1161014b5780636350d774116101255780636350d7741461032a578063671a11b51461033d57806367f84adc1461035057806379c91b371461036357600080fd5b80634c3eea9e1461028e578063544caa56146102a15780635bff1d92146102d457600080fd5b8063119220a51461019357806329576c82146101bc5780632bb66e1d146101dd578063327494611461021757806332833d511461023f57806345b8bafc14610269575b600080fd5b6101a66101a1366004613a15565b610c59565b6040516101b39190613a9a565b60405180910390f35b6101cf6101ca366004613ade565b610de9565b6040519081526020016101b3565b6101f06101eb366004613b14565b611450565b6040805163ffffffff948516815292841660208401529216918101919091526060016101b3565b61022a610225366004613b42565b6114cf565b604080519283526020830191909152016101b3565b61025261024d366004613b9f565b6116d2565b6040805192835260ff9091166020830152016101b3565b61027c610277366004613be9565b61180f565b60405160ff90911681526020016101b3565b6101cf61029c366004613be9565b61187c565b6102b46102af366004613b14565b61196c565b604080516001600160a01b039384168152929091166020830152016101b3565b6102e76102e2366004613b14565b611a62565b604080516001600160a01b03909716875260208701959095529385019290925263ffffffff908116606085015290811660808401521660a082015260c0016101b3565b6101cf610338366004613c02565b611d39565b6101cf61034b366004613c43565b611d72565b6101a661035e366004613a15565b611ede565b610376610371366004613caa565b612050565b60405190151581526020016101b3565b6101cf610394366004613c02565b612173565b6101a66103a7366004613cf7565b61219f565b6101cf6103ba366004613d7f565b612312565b6101cf6103cd366004613be9565b6123e5565b6101cf6103e0366004613be9565b612a10565b610bba701c35fedd14ffffffffffffffffffffffff602055701b0ce43b323fffffffffffffffffffffff6021557019f0028ec1ffffffffffffffffffffffff6022557018ded91f0e7fffffffffffffffffffffff6023557017d8ec7f0417ffffffffffffffffffffff6024557016ddc6556cdbffffffffffffffffffffff6025557015ecf52776a1ffffffffffffffffffffff6026557015060c256cb2ffffffffffffffffffffff602755701428a2f98d72ffffffffffffffffffffff6028557013545598e5c23fffffffffffffffffffff602955701288c4161ce1dfffffffffffffffffffff602a557011c592761c666fffffffffffffffffffff602b5570110a688680a757ffffffffffffffffffff602c55701056f1b5bedf77ffffffffffffffffffff602d55700faadceceeff8bffffffffffffffffffff602e55700f05dc6b27edadffffffffffffffffffff602f55700e67a5a25da4107fffffffffffffffffff603055700dcff115b14eedffffffffffffffffffff603155700d3e7a392431239fffffffffffffffffff603255700cb2ff529eb71e4fffffffffffffffffff603355700c2d415c3db974afffffffffffffffffff603455700bad03e7d883f69bffffffffffffffffff603555700b320d03b2c343d5ffffffffffffffffff603655700abc25204e02828dffffffffffffffffff603755700a4b16f74ee4bb207fffffffffffffffff6038557009deaf736ac1f569ffffffffffffffffff603955700976bd9952c7aa957fffffffffffffffff603a557009131271922eaa606fffffffffffffffff603b557008b380f3558668c46fffffffffffffffff603c55700857ddf0117efa215bffffffffffffffff603d557007ffffffffffffffffffffffffffffffff603e557007abbf6f6abb9d087fffffffffffffffff603f5570075af62cbac95f7dfa7fffffffffffffff60405570070d7fb7452e187ac13fffffffffffffff6041557006c3390ecc8af379295fffffffffffffff60425570067c00a3b07ffc01fd6fffffffffffffff604355700637b647c39cbb9d3d27ffffffffffffff6044557005f63b1fc104dbd39587ffffffffffffff6045557005b771955b36e12f7235ffffffffffffff60465570057b3d49dda84556d6f6ffffffffffffff60475570054183095b2c8ececf30ffffffffffffff60485570050a28be635ca2b888f77fffffffffffff6049557004d5156639708c9db33c3fffffffffffff604a557004a23105873875bd52dfdfffffffffffff604b55700471649d87199aa990756fffffffffffff604c557004429a21a029d4c1457cfbffffffffffff604d55700415bc6d6fb7dd71af2cb3ffffffffffff604e557003eab73b3bbfe282243ce1ffffffffffff604f557003c1771ac9fb6b4c18e229ffffffffffff605055700399e96897690418f785257fffffffffff605155700373fc456c53bb779bf0ea9fffffffffff60525570034f9e8e490c48e67e6ab8bfffffffffff60535570032cbfd4a7adc790560b3337ffffffffff60545570030b50570f6e5d2acca94613ffffffffff6055557002eb40f9f620fda6b56c2861ffffffffff6056557002cc8340ecb0d0f520a6af58ffffffffff6057557002af09481380a0a35cf1ba02ffffffffff605855700292c5bdd3b92ec810287b1b3fffffffff605955700277abdcdab07d5a77ac6d6b9fffffffff605a5570025daf6654b1eaa55fd64df5efffffffff605b55700244c49c648baa98192dce88b7ffffffff605c5570022ce03cd5619a311b2471268bffffffff605d55700215f77c045fbe885654a44a0fffffffff605e557001ffffffffffffffffffffffffffffffff605f557001eaefdbdaaee7421fc4d3ede5ffffffff6060557001d6bd8b2eb257df7e8ca57b09bfffffff6061557001c35fedd14b861eb0443f7f133fffffff6062557001b0ce43b322bcde4a56e8ada5afffffff60635570019f0028ec1fff007f5a195a39dfffffff60645570018ded91f0e72ee74f49b15ba527ffffff60655570017d8ec7f04136f4e5615fd41a63ffffff60665570016ddc6556cdb84bdc8d12d22e6fffffff60675570015ecf52776a1155b5bd8395814f7fffff60685570015060c256cb23b3b3cc3754cf40ffffff6069557001428a2f98d728ae223ddab715be3fffff606a5570013545598e5c23276ccf0ede68034fffff606b557001288c4161ce1d6f54b7f61081194fffff606c5570011c592761c666aa641d5a01a40f17ffff606d55700110a688680a7530515f3e6e6cfdcdffff606e557001056f1b5bedf75c6bcb2ce8aed428ffff606f556ffaadceceeff8a0890f3875f008277fff6070556ff05dc6b27edad306388a600f6ba0bfff6071556fe67a5a25da41063de1495d5b18cdbfff6072556fdcff115b14eedde6fc3aa5353f2e4fff6073556fd3e7a3924312399f9aae2e0f868f8fff6074556fcb2ff529eb71e41582cccd5a1ee26fff6075556fc2d415c3db974ab32a51840c0b67edff6076556fbad03e7d883f69ad5b0a186184e06bff6077556fb320d03b2c343d4829abd6075f0cc5ff6078556fabc25204e02828d73c6e80bcdb1a95bf6079556fa4b16f74ee4bb2040a1ec6c15fbbf2df607a556f9deaf736ac1f569deb1b5ae3f36c130f607b556f976bd9952c7aa957f5937d790ef65037607c556f9131271922eaa6064b73a22d0bd4f2bf607d556f8b380f3558668c46c91c49a2f8e967b9607e556f857ddf0117efa215952912839f6473e6607f55565b005b6101cf610bca366004613e0c565b612f7f565b6101cf610bdd366004613c43565b613025565b6102e7610bf0366004613b42565b61319d565b6101a6610c03366004613cf7565b61342b565b6101f0610c16366004613e38565b61358a565b61027c610c29366004613be9565b6136e5565b610c41610c3c366004613b14565b613798565b6040516001600160a01b0390911681526020016101b3565b606081610c815760405162461bcd60e51b8152600401610c7890613e55565b60405180910390fd5b610c8c826001613ea2565b67ffffffffffffffff811115610ca457610ca4613eba565b604051908082528060200260200182016040528015610ccd578160200160208202803683370190505b5090508381600081518110610ce457610ce4613ed0565b60209081029190910101528560005b83811015610dac57600080600080600080610d358f8c8c8a818110610d1a57610d1a613ed0565b9050602002016020810190610d2f9190613e38565b8a61319d565b955095509550955095509550610d68898881518110610d5657610d56613ed0565b60200260200101518686868686611d72565b89610d74896001613ea2565b81518110610d8457610d84613ed0565b6020026020010181815250508597505050505050508080610da490613ee6565b915050610cf3565b50856001600160a01b0316816001600160a01b031614610dde5760405162461bcd60e51b8152600401610c7890613f01565b509695505050505050565b6000828160ff8416610dfb8380613f47565b901c9150610e19826f03442c4e6074a82f1797f72ac0000000613f47565b610e239082613ea2565b905060ff8416610e338684613f47565b901c9150610e51826f0116b96f757c380fb287fd0e40000000613f47565b610e5b9082613ea2565b905060ff8416610e6b8684613f47565b901c9150610e88826e45ae5bdd5f0e03eca1ff4390000000613f47565b610e929082613ea2565b905060ff8416610ea28684613f47565b901c9150610ebf826e0defabf91302cd95b9ffda50000000613f47565b610ec99082613ea2565b905060ff8416610ed98684613f47565b901c9150610ef6826e02529ca9832b22439efff9b8000000613f47565b610f009082613ea2565b905060ff8416610f108684613f47565b901c9150610f2c826d54f1cf12bd04e516b6da88000000613f47565b610f369082613ea2565b905060ff8416610f468684613f47565b901c9150610f62826d0a9e39e257a09ca2d6db51000000613f47565b610f6c9082613ea2565b905060ff8416610f7c8684613f47565b901c9150610f98826d012e066e7b839fa050c309000000613f47565b610fa29082613ea2565b905060ff8416610fb28684613f47565b901c9150610fcd826c1e33d7d926c329a1ad1a800000613f47565b610fd79082613ea2565b905060ff8416610fe78684613f47565b901c9150611002826c02bee513bdb4a6b19b5f800000613f47565b61100c9082613ea2565b905060ff841661101c8684613f47565b901c9150611036826b3a9316fa79b88eccf2a00000613f47565b6110409082613ea2565b905060ff84166110508684613f47565b901c915061106a826b048177ebe1fa812375200000613f47565b6110749082613ea2565b905060ff84166110848684613f47565b901c915061109d826a5263fe90242dcbacf00000613f47565b6110a79082613ea2565b905060ff84166110b78684613f47565b901c91506110d0826a057e22099c030d94100000613f47565b6110da9082613ea2565b905060ff84166110ea8684613f47565b901c9150611102826957e22099c030d9410000613f47565b61110c9082613ea2565b905060ff841661111c8684613f47565b901c91506111348269052b6b54569976310000613f47565b61113e9082613ea2565b905060ff841661114e8684613f47565b901c915061116582684985f67696bf748000613f47565b61116f9082613ea2565b905060ff841661117f8684613f47565b901c9150611196826803dea12ea99e498000613f47565b6111a09082613ea2565b905060ff84166111b08684613f47565b901c91506111c6826731880f2214b6e000613f47565b6111d09082613ea2565b905060ff84166111e08684613f47565b901c91506111f68267025bcff56eb36000613f47565b6112009082613ea2565b905060ff84166112108684613f47565b901c915061122582661b722e10ab1000613f47565b61122f9082613ea2565b905060ff841661123f8684613f47565b901c9150611254826601317c70077000613f47565b61125e9082613ea2565b905060ff841661126e8684613f47565b901c915061128282650cba84aafa00613f47565b61128c9082613ea2565b905060ff841661129c8684613f47565b901c91506112af826482573a0a00613f47565b6112b99082613ea2565b905060ff84166112c98684613f47565b901c91506112dc826405035ad900613f47565b6112e69082613ea2565b905060ff84166112f68684613f47565b901c915061130882632f881b00613f47565b6113129082613ea2565b905060ff84166113228684613f47565b901c9150611334826301b29340613f47565b61133e9082613ea2565b905060ff841661134e8684613f47565b901c915061135f82620efc40613f47565b6113699082613ea2565b905060ff84166113798684613f47565b901c915061138982617fe0613f47565b6113939082613ea2565b905060ff84166113a38684613f47565b901c91506113b382610420613f47565b6113bd9082613ea2565b905060ff84166113cd8684613f47565b901c91506113dc826021613f47565b6113e69082613ea2565b905060ff84166113f68684613f47565b901c9150611405826001613f47565b61140f9082613ea2565b9050600160ff85161b856114336f0688589cc0e9505e2f2fee558000000084613f7c565b61143d9190613ea2565b6114479190613ea2565b95945050505050565b60405163ca22297960e01b81526001600160a01b038281166004830152600091829182919086169063ca22297990602401606060405180830381865afa15801561149e573d6000803e3d6000fd5b505050506040513d601f19601f820116820180604052508101906114c29190613f90565b9250925092509250925092565b6000806000806114df868661196c565b91509150600080886001600160a01b0316630902f1ac6040518163ffffffff1660e01b8152600401606060405180830381865afa158015611524573d6000803e3d6000fd5b505050506040513d601f19601f820116820180604052508101906115489190613fd2565b506001600160701b031691506001600160701b03169150886001600160a01b0316630dfe16816040518163ffffffff1660e01b8152600401602060405180830381865afa15801561159d573d6000803e3d6000fd5b505050506040513d601f19601f820116820180604052508101906115c19190614003565b6001600160a01b0316846001600160a01b03161480156116535750886001600160a01b031663d21220a76040518163ffffffff1660e01b8152600401602060405180830381865afa15801561161a573d6000803e3d6000fd5b505050506040513d601f19601f8201168201806040525081019061163e9190614003565b6001600160a01b0316836001600160a01b0316145b61169f5760405162461bcd60e51b815260206004820152601d60248201527f5265717569656d466f726d756c613a20496e76616c696420746f6b656e0000006044820152606401610c78565b836001600160a01b0316886001600160a01b0316146116bf5780826116c2565b81815b909a909950975050505050505050565b600080848610156117255760405162461bcd60e51b815260206004820152601b60248201527f6e6f7420737570706f7274205f626173654e203c205f626173654400000000006044820152606401610c78565b600160811b861061173557600080fd5b600080866117476001607f1b8a613f47565b6117519190613f7c565b905070015bf0a8b1457695355fb8ac404e7a79e381101561177c5761177581612a10565b9150611788565b6117858161187c565b91505b60008563ffffffff168763ffffffff16846117a39190613f47565b6117ad9190613f7c565b9050600160831b8110156117d2576117c4816123e5565b607f94509450505050611806565b60006117dd826136e5565b90506117f96117ed82607f614020565b60ff1683901c82610de9565b9550935061180692505050565b94509492505050565b600080610100831015611842575b600183111561183d57600192831c926118369082614043565b905061181d565b611876565b60805b60ff81161561187457600160ff82161b84106118695760ff81169390931c92908117905b60011c607f16611845565b505b92915050565b600080600160801b83106118bb57600061189d6102776001607f1b86613f7c565b60ff811694851c949091506118b7906001607f1b90613f47565b9150505b6001607f1b83111561193057607f5b60ff81161561192e576001607f1b6118e28580613f47565b6118ec9190613f7c565b9350600160801b841061191e57600193841c936119099082614020565b60ff166001901b8261191b9190613ea2565b91505b61192781614068565b90506118ca565b505b6f05b9de1d10bf4103d647b0955897ba8061195b6f03f80fe03f80fe03f80fe03f80fe03f883613f47565b6119659190613f7c565b9392505050565b600080826001600160a01b0316846001600160a01b031614156119dd5760405162461bcd60e51b815260206004820152602360248201527f5265717569656d466f726d756c613a204944454e544943414c5f41444452455360448201526253455360e81b6064820152608401610c78565b826001600160a01b0316846001600160a01b0316106119fd578284611a00565b83835b90925090506001600160a01b038216611a5b5760405162461bcd60e51b815260206004820152601c60248201527f5265717569656d466f726d756c613a205a45524f5f41444452455353000000006044820152606401610c78565b9250929050565b600080600080600080600080896001600160a01b0316630902f1ac6040518163ffffffff1660e01b8152600401606060405180830381865afa158015611aac573d6000803e3d6000fd5b505050506040513d601f19601f82011682018060405250810190611ad09190613fd2565b506001600160701b031691506001600160701b03169150600080611af38c61358a565b8097508193508294505050508b6001600160a01b0316630dfe16816040518163ffffffff1660e01b8152600401602060405180830381865afa158015611b3d573d6000803e3d6000fd5b505050506040513d601f19601f82011682018060405250810190611b619190614003565b6001600160a01b03168b6001600160a01b03161415611bf1578b6001600160a01b031663d21220a76040518163ffffffff1660e01b8152600401602060405180830381865afa158015611bb8573d6000803e3d6000fd5b505050506040513d601f19601f82011682018060405250810190611bdc9190614003565b99509297509095509350915084848484611d2b565b8b6001600160a01b031663d21220a76040518163ffffffff1660e01b8152600401602060405180830381865afa158015611c2f573d6000803e3d6000fd5b505050506040513d601f19601f82011682018060405250810190611c539190614003565b6001600160a01b03168b6001600160a01b03161415611ce3578b6001600160a01b0316630dfe16816040518163ffffffff1660e01b8152600401602060405180830381865afa158015611caa573d6000803e3d6000fd5b505050506040513d601f19601f82011682018060405250810190611cce9190614003565b99509197509195509350915083858385611d2b565b60405162461bcd60e51b815260206004820152601e60248201527f5265717569656d466f726d756c613a20496e76616c696420746f6b656e4100006044820152606401610c78565b505050509295509295509295565b600080600080600080611d4c8989611a62565b9550955095509550955050611d65878587858786613025565b9998505050505050505050565b6000808711611dd55760405162461bcd60e51b815260206004820152602960248201527f5265717569656d466f726d756c613a20494e53554646494349454e545f494e50604482015268155517d05353d5539560ba1b6064820152608401610c78565b600086118015611de55750600085115b611e015760405162461bcd60e51b8152600401610c7890614085565b6000611e27611e12846127106140cb565b63ffffffff168961390190919063ffffffff16565b90508363ffffffff168563ffffffff161415611e6f57611e5381611e4d89612710613901565b9061390d565b611e5d8783613901565b611e679190613f7c565b915050611ed4565b60008080611e8384611e4d8c612710613901565b9050611e9c81611e958c612710613901565b8a8a6116d2565b90935091506000611ead8a85613901565b905060ff83168a901b84611ec182846140f0565b611ecb9190613f7c565b96505050505050505b9695505050505050565b606081611efd5760405162461bcd60e51b8152600401610c7890613e55565b611f08826001613ea2565b67ffffffffffffffff811115611f2057611f20613eba565b604051908082528060200260200182016040528015611f49578160200160208202803683370190505b509050838160018351611f5c91906140f0565b81518110611f6c57611f6c613ed0565b602090810291909101015284825b801561201e5760008080808080611fa78f8c8c611f9860018c6140f0565b818110610d1a57610d1a613ed0565b955095509550955095509550611fda898881518110611fc857611fc8613ed0565b60200260200101518587858786613025565b89611fe660018a6140f0565b81518110611ff657611ff6613ed0565b602002602001018181525050859750505050505050808061201690614107565b915050611f7a565b50866001600160a01b0316816001600160a01b031614610dde5760405162461bcd60e51b8152600401610c789061411e565b60008163ffffffff166032141561207e5761206b8686613901565b6120758585613901565b10159050611447565b85841015801561208e5750848310155b1561209b57506001611447565b8584111580156120ab5750848311155b156120b857506000611447565b8160006120c68260646140cb565b90506000806000808b8a10612104576120e28b8a8760326116d2565b90945060ff1692506120f78a8d8860326116d2565b90925060ff16905061212f565b6121118c8b8860326116d2565b90945060ff169250612126898c8760326116d2565b90925060ff1690505b600081841061213e5781612140565b835b905061214c81856140f0565b935061215881836140f0565b9290921c9390921c92909211159a9950505050505050505050565b6000806000806000806121868989611a62565b9550955095509550955050611d65878686868686611d72565b6060816121be5760405162461bcd60e51b8152600401610c7890613e55565b6121c9826001613ea2565b67ffffffffffffffff8111156121e1576121e1613eba565b60405190808252806020026020018201604052801561220a578160200160208202803683370190505b509050838160008151811061222157612221613ed0565b60209081029190910101528560005b838110156122d6576000806000806000806122718b8b8981811061225657612256613ed0565b905060200201602081019061226b9190613e38565b89611a62565b955095509550955095509550612292898881518110610d5657610d56613ed0565b8961229e896001613ea2565b815181106122ae576122ae613ed0565b60200260200101818152505085975050505050505080806122ce90613ee6565b915050612230565b50856001600160a01b0316816001600160a01b0316146123085760405162461bcd60e51b8152600401610c7890613f01565b5095945050505050565b60006001600160701b0383161561237e5760008061235161233f6001600160701b03878116908c1661390d565b8a6001600160701b03168960646116d2565b90925060ff1690506123798a6123738361236b8387613901565b87911c61390d565b9061392a565b925050505b6001600160701b038216156123da576000806123bb6123a96001600160701b03868116908b1661390d565b896001600160701b03168860646116d2565b90925060ff1690506123d58a6123738361236b8387613901565b925050505b979650505050505050565b60008080806123f86001607c1b86614163565b91508190506001607f1b61240c8280613f47565b6124169190613f7c565b905061242a816710e1b3be415a0000613f47565b6124349084613ea2565b92506001607f1b6124458383613f47565b61244f9190613f7c565b9050612463816705a0913f6b1e0000613f47565b61246d9084613ea2565b92506001607f1b61247e8383613f47565b6124889190613f7c565b905061249c81670168244fdac78000613f47565b6124a69084613ea2565b92506001607f1b6124b78383613f47565b6124c19190613f7c565b90506124d481664807432bc18000613f47565b6124de9084613ea2565b92506001607f1b6124ef8383613f47565b6124f99190613f7c565b905061250c81660c0135dca04000613f47565b6125169084613ea2565b92506001607f1b6125278383613f47565b6125319190613f7c565b9050612544816601b707b1cdc000613f47565b61254e9084613ea2565b92506001607f1b61255f8383613f47565b6125699190613f7c565b905061257b816536e0f639b800613f47565b6125859084613ea2565b92506001607f1b6125968383613f47565b6125a09190613f7c565b90506125b281650618fee9f800613f47565b6125bc9084613ea2565b92506001607f1b6125cd8383613f47565b6125d79190613f7c565b90506125e881649c197dcc00613f47565b6125f29084613ea2565b92506001607f1b6126038383613f47565b61260d9190613f7c565b905061261e81640e30dce400613f47565b6126289084613ea2565b92506001607f1b6126398383613f47565b6126439190613f7c565b90506126548164012ebd1300613f47565b61265e9084613ea2565b92506001607f1b61266f8383613f47565b6126799190613f7c565b9050612689816317499f00613f47565b6126939084613ea2565b92506001607f1b6126a48383613f47565b6126ae9190613f7c565b90506126be816301a9d480613f47565b6126c89084613ea2565b92506001607f1b6126d98383613f47565b6126e39190613f7c565b90506126f281621c6380613f47565b6126fc9084613ea2565b92506001607f1b61270d8383613f47565b6127179190613f7c565b9050612726816201c638613f47565b6127309084613ea2565b92506001607f1b6127418383613f47565b61274b9190613f7c565b905061275981611ab8613f47565b6127639084613ea2565b92506001607f1b6127748383613f47565b61277e9190613f7c565b905061278c8161017c613f47565b6127969084613ea2565b92506001607f1b6127a78383613f47565b6127b19190613f7c565b90506127be816014613f47565b6127c89084613ea2565b92506001607f1b6127d98383613f47565b6127e39190613f7c565b90506127f0816001613f47565b6127fa9084613ea2565b92506001607f1b826128146721c3677c82b4000086613f7c565b61281e9190613ea2565b6128289190613ea2565b92506001607c1b8516156128705770018ebef9eac820ae8682b9793ac6d1e776612863847001c3d6a24ed82218787d624d3e5eba95f9613f47565b61286d9190613f7c565b92505b6001607d1b8516156128b6577001368b2fc6f9609fe7aceb46aa619baed46128a98470018ebef9eac820ae8682b9793ac6d1e778613f47565b6128b39190613f7c565b92505b6001607e1b8516156128fb576fbc5ab1b16779be3575bd8f0520a9f21f6128ee847001368b2fc6f9609fe7aceb46aa619baed5613f47565b6128f89190613f7c565b92505b6001607f1b85161561293f576f454aaa8efe072e7f6ddbab84b40a55c9612932846fbc5ab1b16779be3575bd8f0520a9f21e613f47565b61293c9190613f7c565b92505b600160801b851615612983576f0960aadc109e7a3bf4578099615711ea612976846f454aaa8efe072e7f6ddbab84b40a55c5613f47565b6129809190613f7c565b92505b600160811b8516156129c6576e2bf84208204f5977f9a8cf01fdce3d6129b9846f0960aadc109e7a3bf4578099615711d7613f47565b6129c39190613f7c565b92505b600160821b851615612a07576d03c6ab775dd0b95b4cbee7e65d116129fa846e2bf84208204f5977f9a8cf01fdc307613f47565b612a049190613f7c565b92505b50909392505050565b6000808080806fd3094c70f034de4b96ff7d5b6f99fcd88610612a6957612a3b6001607e1b85613ea2565b93506fd3094c70f034de4b96ff7d5b6f99fcd8612a5c6001607f1b88613f47565b612a669190613f7c565b95505b6fa45af1e1f40c333b3de1db4dd55f29a78610612abc57612a8e6001607d1b85613ea2565b93506fa45af1e1f40c333b3de1db4dd55f29a7612aaf6001607f1b88613f47565b612ab99190613f7c565b95505b6f910b022db7ae67ce76b441c27035c6a18610612b0f57612ae16001607c1b85613ea2565b93506f910b022db7ae67ce76b441c27035c6a1612b026001607f1b88613f47565b612b0c9190613f7c565b95505b6f88415abbe9a76bead8d00cf112e4d4a88610612b6257612b346001607b1b85613ea2565b93506f88415abbe9a76bead8d00cf112e4d4a8612b556001607f1b88613f47565b612b5f9190613f7c565b95505b6f84102b00893f64c705e841d5d4064bd38610612bb557612b876001607a1b85613ea2565b93506f84102b00893f64c705e841d5d4064bd3612ba86001607f1b88613f47565b612bb29190613f7c565b95505b6f8204055aaef1c8bd5c3259f4822735a28610612c0857612bda600160791b85613ea2565b93506f8204055aaef1c8bd5c3259f4822735a2612bfb6001607f1b88613f47565b612c059190613f7c565b95505b6f810100ab00222d861931c15e39b44e998610612c5b57612c2d600160781b85613ea2565b93506f810100ab00222d861931c15e39b44e99612c4e6001607f1b88613f47565b612c589190613f7c565b95505b6f808040155aabbbe9451521693554f7338610612cae57612c80600160771b85613ea2565b93506f808040155aabbbe9451521693554f733612ca16001607f1b88613f47565b612cab9190613f7c565b95505b612cbc6001607f1b876140f0565b92508291506001607f1b612cd08380613f47565b612cda9190613f7c565b9050600160801b612ceb84826140f0565b612cf59084613f47565b612cff9190613f7c565b612d099085613ea2565b93506001607f1b612d1a8284613f47565b612d249190613f7c565b9150600160811b612d45846faaaaaaaaaaaaaaaaaaaaaaaaaaaaaaaa6140f0565b612d4f9084613f47565b612d599190613f7c565b612d639085613ea2565b93506001607f1b612d748284613f47565b612d7e9190613f7c565b9150600360801b612d9f846f999999999999999999999999999999996140f0565b612da99084613f47565b612db39190613f7c565b612dbd9085613ea2565b93506001607f1b612dce8284613f47565b612dd89190613f7c565b9150600160821b612df9846f924924924924924924924924924924926140f0565b612e039084613f47565b612e0d9190613f7c565b612e179085613ea2565b93506001607f1b612e288284613f47565b612e329190613f7c565b9150600560801b612e53846f8e38e38e38e38e38e38e38e38e38e38e6140f0565b612e5d9084613f47565b612e679190613f7c565b612e719085613ea2565b93506001607f1b612e828284613f47565b612e8c9190613f7c565b9150600360811b612ead846f8ba2e8ba2e8ba2e8ba2e8ba2e8ba2e8b6140f0565b612eb79084613f47565b612ec19190613f7c565b612ecb9085613ea2565b93506001607f1b612edc8284613f47565b612ee69190613f7c565b9150600760801b612f07846f89d89d89d89d89d89d89d89d89d89d896140f0565b612f119084613f47565b612f1b9190613f7c565b612f259085613ea2565b93506001607f1b612f368284613f47565b612f409190613f7c565b9150600160831b612f61846f888888888888888888888888888888886140f0565b612f6b9084613f47565b612f759190613f7c565b611ed49085613ea2565b6000808411612fdc5760405162461bcd60e51b815260206004820152602360248201527f5265717569656d466f726d756c613a20494e53554646494349454e545f414d4f60448201526215539560ea1b6064820152608401610c78565b600083118015612fec5750600082115b6130085760405162461bcd60e51b8152600401610c7890614085565b826130138584613901565b61301d9190613f7c565b949350505050565b60008087116130895760405162461bcd60e51b815260206004820152602a60248201527f5265717569656d466f726d756c613a20494e53554646494349454e545f4f555460448201526914155517d05353d5539560b21b6064820152608401610c78565b6000861180156130995750600085115b6130b55760405162461bcd60e51b8152600401610c7890614085565b8263ffffffff168463ffffffff1614156131275760006130e16127106130db898b613901565b90613901565b9050600061310d6130f4856127106140cb565b63ffffffff166130db8b8a61392a90919063ffffffff16565b905061311e6001611e4d8385613f7c565b92505050611ed4565b60008080613135888b61392a565b90506131438882888a6116d2565b909350915060006131568a612710613901565b905060006131648286613901565b905060ff841682901b611ecb600161317e8a6127106140cb565b63ffffffff1660ff881661319285876140f0565b611e4d92911c613f7c565b600080600080600080600080896001600160a01b0316630902f1ac6040518163ffffffff1660e01b8152600401606060405180830381865afa1580156131e7573d6000803e3d6000fd5b505050506040513d601f19601f8201168201806040525081019061320b9190613fd2565b506001600160701b031691506001600160701b0316915060008061322f8d8d611450565b8097508193508294505050508b6001600160a01b0316630dfe16816040518163ffffffff1660e01b8152600401602060405180830381865afa158015613279573d6000803e3d6000fd5b505050506040513d601f19601f8201168201806040525081019061329d9190614003565b6001600160a01b03168b6001600160a01b0316141561332d578b6001600160a01b031663d21220a76040518163ffffffff1660e01b8152600401602060405180830381865afa1580156132f4573d6000803e3d6000fd5b505050506040513d601f19601f820116820180604052508101906133189190614003565b9950929750909550935091508484848461341b565b8b6001600160a01b031663d21220a76040518163ffffffff1660e01b8152600401602060405180830381865afa15801561336b573d6000803e3d6000fd5b505050506040513d601f19601f8201168201806040525081019061338f9190614003565b6001600160a01b03168b6001600160a01b03161415611ce3578b6001600160a01b0316630dfe16816040518163ffffffff1660e01b8152600401602060405180830381865afa1580156133e6573d6000803e3d6000fd5b505050506040513d601f19601f8201168201806040525081019061340a9190614003565b995091975091955093509150838583855b5050505093975093979195509350565b60608161344a5760405162461bcd60e51b8152600401610c7890613e55565b613455826001613ea2565b67ffffffffffffffff81111561346d5761346d613eba565b604051908082528060200260200182016040528015613496578160200160208202803683370190505b5090508381600183516134a991906140f0565b815181106134b9576134b9613ed0565b602090810291909101015284825b801561355857600080808080806134f38b8b6134e460018b6140f0565b81811061225657612256613ed0565b955095509550955095509550613514898881518110611fc857611fc8613ed0565b8961352060018a6140f0565b8151811061353057613530613ed0565b602002602001018181525050859750505050505050808061355090614107565b9150506134c7565b50866001600160a01b0316816001600160a01b0316146123085760405162461bcd60e51b8152600401610c789061411e565b6000806000836001600160a01b03166332bfe4696040518163ffffffff1660e01b81526004016040805180830381865afa9250505080156135e8575060408051601f3d908101601f191682019092526135e591810190614177565b60015b613671576135f46141a6565b806308c379a0141561362e57506136096141fd565b806136145750613630565b8060405162461bcd60e51b8152600401610c789190614287565b505b3d80801561365a576040519150601f19603f3d011682016040523d82523d6000602084013e61365f565b606091505b50603280601e935093509350506136de565b8181876001600160a01b031663d4cadf686040518163ffffffff1660e01b8152600401602060405180830381865afa1580156136b1573d6000803e3d6000fd5b505050506040513d601f19601f820116820180604052508101906136d591906142dc565b94509450945050505b9193909250565b60006020607f5b60ff81166136fb836001614043565b60ff16101561374e57600060026137128385614043565b61371c91906142f9565b90508460008260ff166080811061373557613735613ed0565b01541061374457809250613748565b8091505b506136ec565b8360008260ff166080811061376557613765613ed0565b015410613773579392505050565b8360008360ff166080811061378a5761378a613ed0565b01541061018e575092915050565b600080836001600160a01b0316630dfe16816040518163ffffffff1660e01b8152600401602060405180830381865afa1580156137d9573d6000803e3d6000fd5b505050506040513d601f19601f820116820180604052508101906137fd9190614003565b90506000846001600160a01b031663d21220a76040518163ffffffff1660e01b8152600401602060405180830381865afa15801561383f573d6000803e3d6000fd5b505050506040513d601f19601f820116820180604052508101906138639190614003565b9050836001600160a01b0316826001600160a01b031614806138965750836001600160a01b0316816001600160a01b0316145b6138e25760405162461bcd60e51b815260206004820152601e60248201527f5265717569656d466f726d756c613a20496e76616c696420746f6b656e4100006044820152606401610c78565b836001600160a01b0316826001600160a01b03161461301d5781611447565b60006119658284613f47565b60008061391a8385613ea2565b9050611965848210156000613938565b60006119658383600161394a565b816139465761394681613965565b5050565b60006139598484111583613938565b600061144784866140f0565b62461bcd60e51b6000908152602060045260076024526652455123000030600a808404818106603090810160081b95839006959095019082900491820690940160101b939093010160c81b604452606490fd5b6001600160a01b03811681146139cd57600080fd5b50565b60008083601f8401126139e257600080fd5b50813567ffffffffffffffff8111156139fa57600080fd5b6020830191508360208260051b8501011115611a5b57600080fd5b60008060008060008060a08789031215613a2e57600080fd5b8635613a39816139b8565b95506020870135613a49816139b8565b94506040870135613a59816139b8565b935060608701359250608087013567ffffffffffffffff811115613a7c57600080fd5b613a8889828a016139d0565b979a9699509497509295939492505050565b6020808252825182820181905260009190848201906040850190845b81811015613ad257835183529284019291840191600101613ab6565b50909695505050505050565b60008060408385031215613af157600080fd5b82359150602083013560ff81168114613b0957600080fd5b809150509250929050565b60008060408385031215613b2757600080fd5b8235613b32816139b8565b91506020830135613b09816139b8565b600080600060608486031215613b5757600080fd5b8335613b62816139b8565b92506020840135613b72816139b8565b91506040840135613b82816139b8565b809150509250925092565b63ffffffff811681146139cd57600080fd5b60008060008060808587031215613bb557600080fd5b84359350602085013592506040850135613bce81613b8d565b91506060850135613bde81613b8d565b939692955090935050565b600060208284031215613bfb57600080fd5b5035919050565b600080600060608486031215613c1757600080fd5b8335613c22816139b8565b92506020840135613c32816139b8565b929592945050506040919091013590565b60008060008060008060c08789031215613c5c57600080fd5b8635955060208701359450604087013593506060870135613c7c81613b8d565b92506080870135613c8c81613b8d565b915060a0870135613c9c81613b8d565b809150509295509295509295565b600080600080600060a08688031215613cc257600080fd5b853594506020860135935060408601359250606086013591506080860135613ce981613b8d565b809150509295509295909350565b600080600080600060808688031215613d0f57600080fd5b8535613d1a816139b8565b94506020860135613d2a816139b8565b935060408601359250606086013567ffffffffffffffff811115613d4d57600080fd5b613d59888289016139d0565b969995985093965092949392505050565b6001600160701b03811681146139cd57600080fd5b600080600080600080600060e0888a031215613d9a57600080fd5b873596506020880135613dac81613d6a565b95506040880135613dbc81613d6a565b94506060880135613dcc81613b8d565b93506080880135613ddc81613b8d565b925060a0880135613dec81613d6a565b915060c0880135613dfc81613d6a565b8091505092959891949750929550565b600080600060608486031215613e2157600080fd5b505081359360208301359350604090920135919050565b600060208284031215613e4a57600080fd5b8135611965816139b8565b6020808252601c908201527f5265717569656d466f726d756c613a20494e56414c49445f5041544800000000604082015260600190565b634e487b7160e01b600052601160045260246000fd5b60008219821115613eb557613eb5613e8c565b500190565b634e487b7160e01b600052604160045260246000fd5b634e487b7160e01b600052603260045260246000fd5b6000600019821415613efa57613efa613e8c565b5060010190565b60208082526026908201527f5265717569656d466f726d756c613a20494e56414c49445f544f4b454e5f4f556040820152650a8bea082a8960d31b606082015260800190565b6000816000190483118215151615613f6157613f61613e8c565b500290565b634e487b7160e01b600052601260045260246000fd5b600082613f8b57613f8b613f66565b500490565b600080600060608486031215613fa557600080fd5b8351613fb081613b8d565b6020850151909350613fc181613b8d565b6040850151909250613b8281613b8d565b600080600060608486031215613fe757600080fd5b8351613ff281613d6a565b6020850151909350613fc181613d6a565b60006020828403121561401557600080fd5b8151611965816139b8565b600060ff821660ff84168082101561403a5761403a613e8c565b90039392505050565b600060ff821660ff84168060ff0382111561406057614060613e8c565b019392505050565b600060ff82168061407b5761407b613e8c565b6000190192915050565b60208082526026908201527f5265717569656d466f726d756c613a20494e53554646494349454e545f4c495160408201526555494449545960d01b606082015260800190565b600063ffffffff838116908316818110156140e8576140e8613e8c565b039392505050565b60008282101561410257614102613e8c565b500390565b60008161411657614116613e8c565b506000190190565b60208082526025908201527f5265717569656d466f726d756c613a20494e56414c49445f544f4b454e5f494e6040820152640bea082a8960db1b606082015260800190565b60008261417257614172613f66565b500690565b6000806040838503121561418a57600080fd5b825161419581613b8d565b6020840151909250613b0981613b8d565b600060033d11156141bf5760046000803e5060005160e01c5b90565b601f8201601f1916810167ffffffffffffffff811182821017156141f657634e487b7160e01b600052604160045260246000fd5b6040525050565b600060443d101561420b5790565b6040516003193d81016004833e81513d67ffffffffffffffff816024840111818411171561423b57505050505090565b82850191508151818111156142535750505050505090565b843d870101602082850101111561426d5750505050505090565b61427c602082860101876141c2565b509095945050505050565b600060208083528351808285015260005b818110156142b457858101830151858201604001528201614298565b818111156142c6576000604083870101525b50601f01601f1916929092016040019392505050565b6000602082840312156142ee57600080fd5b815161196581613b8d565b600060ff83168061430c5761430c613f66565b8060ff8416049150509291505056fea264697066735822122020b8abda87e49fe7fe4bf504e401e3ba1bd1e51d923871a5be389abc3524516964736f6c634300080a0033",
  "devdoc": {
    "kind": "dev",
    "methods": {
      "findPositionInMaxExpArray(uint256)": {
        "details": "the global \"maxExpArray\" is sorted in descending order, and therefore the following statements are equivalent: - This function finds the position of [the smallest value in \"maxExpArray\" larger than or equal to \"x\"] - This function finds the highest position of [a value in \"maxExpArray\" larger than or equal to \"x\"]"
      },
      "floorLog2(uint256)": {
        "details": "computes the largest integer smaller than or equal to the binary logarithm of the input."
      },
      "generalExp(uint256,uint8)": {
        "details": "this function can be auto-generated by the script \"PrintFunctionGeneralExp.py\". it approximates \"e ^ x\" via maclaurin summation: \"(x^0)/0! + (x^1)/1! + ... + (x^n)/n!\". it returns \"e ^ (x / 2 ^ precision) * 2 ^ precision\", that is, the result is upshifted for accuracy. the global \"maxExpArray\" maps each \"precision\" to \"((maximumExponent + 1) << (MAX_PRECISION - precision)) - 1\". the maximum permitted value for \"x\" is therefore given by \"maxExpArray[precision] >> (MAX_PRECISION - precision)\"."
      },
      "generalLog(uint256)": {
        "details": "computes log(x / FIXED_1) * FIXED_1. This functions assumes that \"x >= FIXED_1\", because the output would be negative otherwise."
      },
      "getAmountIn(uint256,uint256,uint256,uint32,uint32,uint32)": {
        "details": "given an output amount of an asset and pair reserves, returns a required input amount of the other asset Formula: return = reserveIn * ( (reserveOut / (reserveOut - amountOut)) ^ (tokenWeightOut / tokenWeightIn) - 1) * (10000/ (10000 - swapFee)",
        "params": {
          "amountOut": "target reserve amount",
          "reserveIn": "source reserve balance",
          "reserveOut": "target reserve balance",
          "swapFee": "swap fee of the conversion",
          "tokenWeightIn": "source reserve weight, represented in ppm (2-98)",
          "tokenWeightOut": "target reserve weight, represented in ppm (2-98)"
        },
        "returns": {
          "amountIn": "amountIn"
        }
      },
      "getAmountOut(uint256,uint256,uint256,uint32,uint32,uint32)": {
        "details": "given an input amount of an asset and pair reserves, returns the maximum output amount of the other asset, Formula: return = reserveOut * (1 - (reserveIn * 10000 / (reserveIn * 10000 + amountIn * (10000 - swapFee))) ^ (tokenWeightIn / tokenWeightOut))",
        "params": {
          "amountIn": "source reserve amount",
          "reserveIn": "source reserve balance",
          "reserveOut": "target reserve balance",
          "swapFee": "swap fee of the conversion",
          "tokenWeightIn": "source reserve weight, represented in ppm (2-98)",
          "tokenWeightOut": "target reserve weight, represented in ppm (2-98)"
        },
        "returns": {
          "amountOut": "amountOut"
        }
      },
      "optimalExp(uint256)": {
        "details": "computes e ^ (x / FIXED_1) * FIXED_1 input range: 0 <= x <= OPT_EXP_MAX_VAL - 1 auto-generated via \"PrintFunctionOptimalExp.py\" Detailed description: - Rewrite the input as a sum of binary exponents and a single residual r, as small as possible - The exponentiation of each binary exponent is given (pre-calculated) - The exponentiation of r is calculated via Taylor series for e^x, where x = r - The exponentiation of the input is calculated by multiplying the intermediate results above - For example: e^5.521692859 = e^(4 + 1 + 0.5 + 0.021692859) = e^4 * e^1 * e^0.5 * e^0.021692859"
      },
      "optimalLog(uint256)": {
        "details": "computes log(x / FIXED_1) * FIXED_1 Input range: FIXED_1 <= x <= OPT_LOG_MAX_VAL - 1 Auto-generated via \"PrintFunctionOptimalLog.py\" Detailed description: - Rewrite the input as a product of natural exponents and a single residual r, such that 1 < r < 2 - The natural logarithm of each (pre-calculated) exponent is the degree of the exponent - The natural logarithm of r is calculated via Taylor series for log(1 + x), where x = r - 1 - The natural logarithm of the input is calculated by summing up the intermediate results above - For example: log(250) = log(e^4 * e^1 * e^0.5 * 1.021692859) = 4 + 1 + 0.5 + log(1 + 0.021692859)"
      },
      "power(uint256,uint256,uint32,uint32)": {
        "details": "General Description:     Determine a value of precision.     Calculate an integer approximation of (_baseN / _baseD) ^ (_expN / _expD) * 2 ^ precision.     Return the result along with the precision used. Detailed Description:     Instead of calculating \"base ^ exp\", we calculate \"e ^ (log(base) * exp)\".     The value of \"log(base)\" is represented with an integer slightly smaller than \"log(base) * 2 ^ precision\".     The larger \"precision\" is, the more accurately this value represents the real value.     However, the larger \"precision\" is, the more bits are required in order to store this value.     And the exponentiation function, which takes \"x\" and calculates \"e ^ x\", is limited to a maximum exponent (maximum value of \"x\").     This maximum exponent depends on the \"precision\" used, and it is given by \"maxExpArray[precision] >> (MAX_PRECISION - precision)\".     Hence we need to determine the highest precision which can be used for the given input, before calling the exponentiation function.     This allows us to compute \"base ^ exp\" with maximum accuracy and without exceeding 256 bits in any of the intermediate computations.     This functions assumes that \"_expN < 2 ^ 256 / log(MAX_NUM - 1)\", otherwise the multiplication should be replaced with a \"safeMul\".     Since we rely on unsigned-integer arithmetic and \"base < 1\" ==> \"log(base) < 0\", this function does not support \"_baseN < _baseD\"."
      }
    },
    "version": 1
  },
  "userdoc": {
    "kind": "user",
    "methods": {},
    "version": 1
  },
  "storageLayout": {
    "storage": [
      {
        "astId": 4534,
        "contract": "contracts/RequiemFormulaTest.sol:RequiemFormulaTest",
        "label": "maxExpArray",
        "offset": 0,
        "slot": "0",
        "type": "t_array(t_uint256)128_storage"
      }
    ],
    "types": {
      "t_array(t_uint256)128_storage": {
        "base": "t_uint256",
        "encoding": "inplace",
        "label": "uint256[128]",
        "numberOfBytes": "4096"
      },
      "t_uint256": {
        "encoding": "inplace",
        "label": "uint256",
        "numberOfBytes": "32"
      }
    }
  }
}