{
  "address": "0xA51c1fc2f0D1a1b8494Ed1FE312d7C3a78Ed91C0",
  "abi": [
    {
      "inputs": [
        {
          "internalType": "address",
          "name": "_factory",
          "type": "address"
        },
        {
          "internalType": "address",
          "name": "_WETH",
          "type": "address"
        }
      ],
      "stateMutability": "nonpayable",
      "type": "constructor"
    },
    {
      "anonymous": false,
      "inputs": [
        {
          "indexed": false,
          "internalType": "address",
          "name": "pair",
          "type": "address"
        },
        {
          "indexed": false,
          "internalType": "uint256",
          "name": "amountOut",
          "type": "uint256"
        },
        {
          "indexed": false,
          "internalType": "address",
          "name": "output",
          "type": "address"
        }
      ],
      "name": "Exchange",
      "type": "event"
    },
    {
      "inputs": [],
      "name": "WETH",
      "outputs": [
        {
          "internalType": "address",
          "name": "",
          "type": "address"
        }
      ],
      "stateMutability": "view",
      "type": "function"
    },
    {
      "inputs": [
        {
          "internalType": "address",
          "name": "pair",
          "type": "address"
        },
        {
          "internalType": "address",
          "name": "tokenA",
          "type": "address"
        },
        {
          "internalType": "address",
          "name": "tokenB",
          "type": "address"
        },
        {
          "internalType": "uint256",
          "name": "amountADesired",
          "type": "uint256"
        },
        {
          "internalType": "uint256",
          "name": "amountBDesired",
          "type": "uint256"
        },
        {
          "internalType": "uint256",
          "name": "amountAMin",
          "type": "uint256"
        },
        {
          "internalType": "uint256",
          "name": "amountBMin",
          "type": "uint256"
        },
        {
          "internalType": "address",
          "name": "to",
          "type": "address"
        },
        {
          "internalType": "uint256",
          "name": "deadline",
          "type": "uint256"
        }
      ],
      "name": "addLiquidity",
      "outputs": [
        {
          "internalType": "uint256",
          "name": "amountA",
          "type": "uint256"
        },
        {
          "internalType": "uint256",
          "name": "amountB",
          "type": "uint256"
        },
        {
          "internalType": "uint256",
          "name": "liquidity",
          "type": "uint256"
        }
      ],
      "stateMutability": "nonpayable",
      "type": "function"
    },
    {
      "inputs": [
        {
          "internalType": "address",
          "name": "pair",
          "type": "address"
        },
        {
          "internalType": "address",
          "name": "token",
          "type": "address"
        },
        {
          "internalType": "uint256",
          "name": "amountTokenDesired",
          "type": "uint256"
        },
        {
          "internalType": "uint256",
          "name": "amountTokenMin",
          "type": "uint256"
        },
        {
          "internalType": "uint256",
          "name": "amountETHMin",
          "type": "uint256"
        },
        {
          "internalType": "address",
          "name": "to",
          "type": "address"
        },
        {
          "internalType": "uint256",
          "name": "deadline",
          "type": "uint256"
        }
      ],
      "name": "addLiquidityETH",
      "outputs": [
        {
          "internalType": "uint256",
          "name": "amountToken",
          "type": "uint256"
        },
        {
          "internalType": "uint256",
          "name": "amountETH",
          "type": "uint256"
        },
        {
          "internalType": "uint256",
          "name": "liquidity",
          "type": "uint256"
        }
      ],
      "stateMutability": "payable",
      "type": "function"
    },
    {
      "inputs": [
        {
          "internalType": "address",
          "name": "tokenA",
          "type": "address"
        },
        {
          "internalType": "address",
          "name": "tokenB",
          "type": "address"
        },
        {
          "internalType": "uint256",
          "name": "amountA",
          "type": "uint256"
        },
        {
          "internalType": "uint256",
          "name": "amountB",
          "type": "uint256"
        },
        {
          "internalType": "uint32",
          "name": "tokenWeightA",
          "type": "uint32"
        },
        {
          "internalType": "uint32",
          "name": "swapFee",
          "type": "uint32"
        },
        {
          "internalType": "address",
          "name": "to",
          "type": "address"
        }
      ],
      "name": "createPair",
      "outputs": [
        {
          "internalType": "uint256",
          "name": "liquidity",
          "type": "uint256"
        }
      ],
      "stateMutability": "nonpayable",
      "type": "function"
    },
    {
      "inputs": [
        {
          "internalType": "address",
          "name": "token",
          "type": "address"
        },
        {
          "internalType": "uint256",
          "name": "amountToken",
          "type": "uint256"
        },
        {
          "internalType": "uint32",
          "name": "tokenWeight",
          "type": "uint32"
        },
        {
          "internalType": "uint32",
          "name": "swapFee",
          "type": "uint32"
        },
        {
          "internalType": "address",
          "name": "to",
          "type": "address"
        }
      ],
      "name": "createPairETH",
      "outputs": [
        {
          "internalType": "uint256",
          "name": "liquidity",
          "type": "uint256"
        }
      ],
      "stateMutability": "payable",
      "type": "function"
    },
    {
      "inputs": [],
      "name": "factory",
      "outputs": [
        {
          "internalType": "address",
          "name": "",
          "type": "address"
        }
      ],
      "stateMutability": "view",
      "type": "function"
    },
    {
      "inputs": [],
      "name": "formula",
      "outputs": [
        {
          "internalType": "address",
          "name": "",
          "type": "address"
        }
      ],
      "stateMutability": "view",
      "type": "function"
    },
    {
      "inputs": [
        {
          "components": [
            {
              "internalType": "address",
              "name": "pool",
              "type": "address"
            },
            {
              "internalType": "address",
              "name": "tokenIn",
              "type": "address"
            },
            {
              "internalType": "address",
              "name": "tokenOut",
              "type": "address"
            },
            {
              "internalType": "uint256",
              "name": "swapAmount",
              "type": "uint256"
            },
            {
              "internalType": "uint256",
              "name": "limitReturnAmount",
              "type": "uint256"
            },
            {
              "internalType": "uint256",
              "name": "maxPrice",
              "type": "uint256"
            }
          ],
          "internalType": "struct IRequiemRouter.Swap[][]",
          "name": "swapSequences",
          "type": "tuple[][]"
        },
        {
          "internalType": "address",
          "name": "tokenIn",
          "type": "address"
        },
        {
          "internalType": "address",
          "name": "tokenOut",
          "type": "address"
        },
        {
          "internalType": "uint256",
          "name": "totalAmountIn",
          "type": "uint256"
        },
        {
          "internalType": "uint256",
          "name": "minTotalAmountOut",
          "type": "uint256"
        },
        {
          "internalType": "uint256",
          "name": "deadline",
          "type": "uint256"
        }
      ],
      "name": "multihopBatchSwapExactIn",
      "outputs": [
        {
          "internalType": "uint256",
          "name": "totalAmountOut",
          "type": "uint256"
        }
      ],
      "stateMutability": "payable",
      "type": "function"
    },
    {
      "inputs": [
        {
          "components": [
            {
              "internalType": "address",
              "name": "pool",
              "type": "address"
            },
            {
              "internalType": "address",
              "name": "tokenIn",
              "type": "address"
            },
            {
              "internalType": "address",
              "name": "tokenOut",
              "type": "address"
            },
            {
              "internalType": "uint256",
              "name": "swapAmount",
              "type": "uint256"
            },
            {
              "internalType": "uint256",
              "name": "limitReturnAmount",
              "type": "uint256"
            },
            {
              "internalType": "uint256",
              "name": "maxPrice",
              "type": "uint256"
            }
          ],
          "internalType": "struct IRequiemRouter.Swap[][]",
          "name": "swapSequences",
          "type": "tuple[][]"
        },
        {
          "internalType": "address",
          "name": "tokenIn",
          "type": "address"
        },
        {
          "internalType": "address",
          "name": "tokenOut",
          "type": "address"
        },
        {
          "internalType": "uint256",
          "name": "maxTotalAmountIn",
          "type": "uint256"
        },
        {
          "internalType": "uint256",
          "name": "deadline",
          "type": "uint256"
        }
      ],
      "name": "multihopBatchSwapExactOut",
      "outputs": [
        {
          "internalType": "uint256",
          "name": "totalAmountIn",
          "type": "uint256"
        }
      ],
      "stateMutability": "payable",
      "type": "function"
    },
    {
      "inputs": [
        {
          "components": [
            {
              "internalType": "uint8",
              "name": "swapStructureId",
              "type": "uint8"
            },
            {
              "internalType": "address[]",
              "name": "pools",
              "type": "address[]"
            },
            {
              "internalType": "address[]",
              "name": "path",
              "type": "address[]"
            }
          ],
          "internalType": "struct IRequiemSwap.MultiSwapStep[]",
          "name": "params",
          "type": "tuple[]"
        },
        {
          "internalType": "uint256",
          "name": "amountOutMin",
          "type": "uint256"
        },
        {
          "internalType": "address",
          "name": "to",
          "type": "address"
        },
        {
          "internalType": "uint256",
          "name": "deadline",
          "type": "uint256"
        }
      ],
      "name": "onSwapExactETHForTokens",
      "outputs": [
        {
          "internalType": "uint256[]",
          "name": "amounts",
          "type": "uint256[]"
        }
      ],
      "stateMutability": "payable",
      "type": "function"
    },
    {
      "inputs": [
        {
          "components": [
            {
              "internalType": "uint8",
              "name": "structure",
              "type": "uint8"
            },
            {
              "internalType": "address",
              "name": "pool",
              "type": "address"
            },
            {
              "internalType": "address",
              "name": "tokenIn",
              "type": "address"
            },
            {
              "internalType": "address",
              "name": "tokenOut",
              "type": "address"
            }
          ],
          "internalType": "struct IRequiemSwap.QSwapStep[]",
          "name": "params",
          "type": "tuple[]"
        },
        {
          "internalType": "uint256",
          "name": "amountIn",
          "type": "uint256"
        },
        {
          "internalType": "uint256",
          "name": "amountOutMin",
          "type": "uint256"
        },
        {
          "internalType": "address",
          "name": "to",
          "type": "address"
        },
        {
          "internalType": "uint256",
          "name": "deadline",
          "type": "uint256"
        }
      ],
      "name": "onSwapExactTokensForTokens",
      "outputs": [
        {
          "internalType": "uint256",
          "name": "amountLast",
          "type": "uint256"
        }
      ],
      "stateMutability": "nonpayable",
      "type": "function"
    },
    {
      "inputs": [
        {
          "components": [
            {
              "internalType": "uint8",
              "name": "swapStructureId",
              "type": "uint8"
            },
            {
              "internalType": "address[]",
              "name": "pools",
              "type": "address[]"
            },
            {
              "internalType": "address[]",
              "name": "path",
              "type": "address[]"
            }
          ],
          "internalType": "struct IRequiemSwap.MultiSwapStep[]",
          "name": "params",
          "type": "tuple[]"
        },
        {
          "internalType": "uint256",
          "name": "amountOut",
          "type": "uint256"
        },
        {
          "internalType": "uint256",
          "name": "amountInMax",
          "type": "uint256"
        },
        {
          "internalType": "address",
          "name": "to",
          "type": "address"
        },
        {
          "internalType": "uint256",
          "name": "deadline",
          "type": "uint256"
        }
      ],
      "name": "onSwapTokensForExactETH",
      "outputs": [
        {
          "internalType": "uint256[][]",
          "name": "allAmounts",
          "type": "uint256[][]"
        }
      ],
      "stateMutability": "nonpayable",
      "type": "function"
    },
    {
      "inputs": [
        {
          "components": [
            {
              "internalType": "uint8",
              "name": "structure",
              "type": "uint8"
            },
            {
              "internalType": "address",
              "name": "pool",
              "type": "address"
            },
            {
              "internalType": "address",
              "name": "tokenIn",
              "type": "address"
            },
            {
              "internalType": "address",
              "name": "tokenOut",
              "type": "address"
            }
          ],
          "internalType": "struct IRequiemSwap.QSwapStep[]",
          "name": "params",
          "type": "tuple[]"
        },
        {
          "internalType": "uint256",
          "name": "amountOut",
          "type": "uint256"
        },
        {
          "internalType": "uint256",
          "name": "amountInMax",
          "type": "uint256"
        },
        {
          "internalType": "address",
          "name": "to",
          "type": "address"
        },
        {
          "internalType": "uint256",
          "name": "deadline",
          "type": "uint256"
        }
      ],
      "name": "onSwapTokensForExactTokens",
      "outputs": [
        {
          "internalType": "uint256[]",
          "name": "amounts",
          "type": "uint256[]"
        }
      ],
      "stateMutability": "nonpayable",
      "type": "function"
    },
    {
      "inputs": [
        {
          "internalType": "address",
          "name": "pair",
          "type": "address"
        },
        {
          "internalType": "address",
          "name": "tokenA",
          "type": "address"
        },
        {
          "internalType": "address",
          "name": "tokenB",
          "type": "address"
        },
        {
          "internalType": "uint256",
          "name": "liquidity",
          "type": "uint256"
        },
        {
          "internalType": "uint256",
          "name": "amountAMin",
          "type": "uint256"
        },
        {
          "internalType": "uint256",
          "name": "amountBMin",
          "type": "uint256"
        },
        {
          "internalType": "address",
          "name": "to",
          "type": "address"
        },
        {
          "internalType": "uint256",
          "name": "deadline",
          "type": "uint256"
        }
      ],
      "name": "removeLiquidity",
      "outputs": [
        {
          "internalType": "uint256",
          "name": "amountA",
          "type": "uint256"
        },
        {
          "internalType": "uint256",
          "name": "amountB",
          "type": "uint256"
        }
      ],
      "stateMutability": "nonpayable",
      "type": "function"
    },
    {
      "inputs": [
        {
          "internalType": "address",
          "name": "pair",
          "type": "address"
        },
        {
          "internalType": "address",
          "name": "token",
          "type": "address"
        },
        {
          "internalType": "uint256",
          "name": "liquidity",
          "type": "uint256"
        },
        {
          "internalType": "uint256",
          "name": "amountTokenMin",
          "type": "uint256"
        },
        {
          "internalType": "uint256",
          "name": "amountETHMin",
          "type": "uint256"
        },
        {
          "internalType": "address",
          "name": "to",
          "type": "address"
        },
        {
          "internalType": "uint256",
          "name": "deadline",
          "type": "uint256"
        }
      ],
      "name": "removeLiquidityETH",
      "outputs": [
        {
          "internalType": "uint256",
          "name": "amountToken",
          "type": "uint256"
        },
        {
          "internalType": "uint256",
          "name": "amountETH",
          "type": "uint256"
        }
      ],
      "stateMutability": "nonpayable",
      "type": "function"
    },
    {
      "inputs": [
        {
          "internalType": "address",
          "name": "pair",
          "type": "address"
        },
        {
          "internalType": "address",
          "name": "token",
          "type": "address"
        },
        {
          "internalType": "uint256",
          "name": "liquidity",
          "type": "uint256"
        },
        {
          "internalType": "uint256",
          "name": "amountTokenMin",
          "type": "uint256"
        },
        {
          "internalType": "uint256",
          "name": "amountETHMin",
          "type": "uint256"
        },
        {
          "internalType": "address",
          "name": "to",
          "type": "address"
        },
        {
          "internalType": "uint256",
          "name": "deadline",
          "type": "uint256"
        }
      ],
      "name": "removeLiquidityETHSupportingFeeOnTransferTokens",
      "outputs": [
        {
          "internalType": "uint256",
          "name": "amountETH",
          "type": "uint256"
        }
      ],
      "stateMutability": "nonpayable",
      "type": "function"
    },
    {
      "inputs": [
        {
          "internalType": "address",
          "name": "pair",
          "type": "address"
        },
        {
          "internalType": "address",
          "name": "token",
          "type": "address"
        },
        {
          "internalType": "uint256",
          "name": "liquidity",
          "type": "uint256"
        },
        {
          "internalType": "uint256",
          "name": "amountTokenMin",
          "type": "uint256"
        },
        {
          "internalType": "uint256",
          "name": "amountETHMin",
          "type": "uint256"
        },
        {
          "internalType": "address",
          "name": "to",
          "type": "address"
        },
        {
          "internalType": "uint256",
          "name": "deadline",
          "type": "uint256"
        },
        {
          "internalType": "bool",
          "name": "approveMax",
          "type": "bool"
        },
        {
          "internalType": "uint8",
          "name": "v",
          "type": "uint8"
        },
        {
          "internalType": "bytes32",
          "name": "r",
          "type": "bytes32"
        },
        {
          "internalType": "bytes32",
          "name": "s",
          "type": "bytes32"
        }
      ],
      "name": "removeLiquidityETHWithPermit",
      "outputs": [
        {
          "internalType": "uint256",
          "name": "amountToken",
          "type": "uint256"
        },
        {
          "internalType": "uint256",
          "name": "amountETH",
          "type": "uint256"
        }
      ],
      "stateMutability": "nonpayable",
      "type": "function"
    },
    {
      "inputs": [
        {
          "internalType": "address",
          "name": "pair",
          "type": "address"
        },
        {
          "internalType": "address",
          "name": "token",
          "type": "address"
        },
        {
          "internalType": "uint256",
          "name": "liquidity",
          "type": "uint256"
        },
        {
          "internalType": "uint256",
          "name": "amountTokenMin",
          "type": "uint256"
        },
        {
          "internalType": "uint256",
          "name": "amountETHMin",
          "type": "uint256"
        },
        {
          "internalType": "address",
          "name": "to",
          "type": "address"
        },
        {
          "internalType": "uint256",
          "name": "deadline",
          "type": "uint256"
        },
        {
          "internalType": "bool",
          "name": "approveMax",
          "type": "bool"
        },
        {
          "internalType": "uint8",
          "name": "v",
          "type": "uint8"
        },
        {
          "internalType": "bytes32",
          "name": "r",
          "type": "bytes32"
        },
        {
          "internalType": "bytes32",
          "name": "s",
          "type": "bytes32"
        }
      ],
      "name": "removeLiquidityETHWithPermitSupportingFeeOnTransferTokens",
      "outputs": [
        {
          "internalType": "uint256",
          "name": "amountETH",
          "type": "uint256"
        }
      ],
      "stateMutability": "nonpayable",
      "type": "function"
    },
    {
      "inputs": [
        {
          "internalType": "address",
          "name": "pair",
          "type": "address"
        },
        {
          "internalType": "address",
          "name": "tokenA",
          "type": "address"
        },
        {
          "internalType": "address",
          "name": "tokenB",
          "type": "address"
        },
        {
          "internalType": "uint256",
          "name": "liquidity",
          "type": "uint256"
        },
        {
          "internalType": "uint256",
          "name": "amountAMin",
          "type": "uint256"
        },
        {
          "internalType": "uint256",
          "name": "amountBMin",
          "type": "uint256"
        },
        {
          "internalType": "address",
          "name": "to",
          "type": "address"
        },
        {
          "internalType": "uint256",
          "name": "deadline",
          "type": "uint256"
        },
        {
          "internalType": "bool",
          "name": "approveMax",
          "type": "bool"
        },
        {
          "internalType": "uint8",
          "name": "v",
          "type": "uint8"
        },
        {
          "internalType": "bytes32",
          "name": "r",
          "type": "bytes32"
        },
        {
          "internalType": "bytes32",
          "name": "s",
          "type": "bytes32"
        }
      ],
      "name": "removeLiquidityWithPermit",
      "outputs": [
        {
          "internalType": "uint256",
          "name": "amountA",
          "type": "uint256"
        },
        {
          "internalType": "uint256",
          "name": "amountB",
          "type": "uint256"
        }
      ],
      "stateMutability": "nonpayable",
      "type": "function"
    },
    {
      "inputs": [
        {
          "internalType": "address",
          "name": "tokenOut",
          "type": "address"
        },
        {
          "internalType": "uint256",
          "name": "amountOut",
          "type": "uint256"
        },
        {
          "internalType": "address[]",
          "name": "path",
          "type": "address[]"
        },
        {
          "internalType": "address",
          "name": "to",
          "type": "address"
        },
        {
          "internalType": "uint256",
          "name": "deadline",
          "type": "uint256"
        }
      ],
      "name": "swapETHForExactTokens",
      "outputs": [
        {
          "internalType": "uint256[]",
          "name": "amounts",
          "type": "uint256[]"
        }
      ],
      "stateMutability": "payable",
      "type": "function"
    },
    {
      "inputs": [
        {
          "internalType": "address",
          "name": "tokenOut",
          "type": "address"
        },
        {
          "internalType": "uint256",
          "name": "amountOutMin",
          "type": "uint256"
        },
        {
          "internalType": "address[]",
          "name": "path",
          "type": "address[]"
        },
        {
          "internalType": "address",
          "name": "to",
          "type": "address"
        },
        {
          "internalType": "uint256",
          "name": "deadline",
          "type": "uint256"
        }
      ],
      "name": "swapExactETHForTokens",
      "outputs": [
        {
          "internalType": "uint256[]",
          "name": "amounts",
          "type": "uint256[]"
        }
      ],
      "stateMutability": "payable",
      "type": "function"
    },
    {
      "inputs": [
        {
          "internalType": "address",
          "name": "tokenOut",
          "type": "address"
        },
        {
          "internalType": "uint256",
          "name": "amountOutMin",
          "type": "uint256"
        },
        {
          "internalType": "address[]",
          "name": "path",
          "type": "address[]"
        },
        {
          "internalType": "address",
          "name": "to",
          "type": "address"
        },
        {
          "internalType": "uint256",
          "name": "deadline",
          "type": "uint256"
        }
      ],
      "name": "swapExactETHForTokensSupportingFeeOnTransferTokens",
      "outputs": [],
      "stateMutability": "payable",
      "type": "function"
    },
    {
      "inputs": [
        {
          "internalType": "address",
          "name": "tokenIn",
          "type": "address"
        },
        {
          "internalType": "uint256",
          "name": "amountIn",
          "type": "uint256"
        },
        {
          "internalType": "uint256",
          "name": "amountOutMin",
          "type": "uint256"
        },
        {
          "internalType": "address[]",
          "name": "path",
          "type": "address[]"
        },
        {
          "internalType": "address",
          "name": "to",
          "type": "address"
        },
        {
          "internalType": "uint256",
          "name": "deadline",
          "type": "uint256"
        }
      ],
      "name": "swapExactTokensForETH",
      "outputs": [
        {
          "internalType": "uint256[]",
          "name": "amounts",
          "type": "uint256[]"
        }
      ],
      "stateMutability": "nonpayable",
      "type": "function"
    },
    {
      "inputs": [
        {
          "internalType": "address",
          "name": "tokenIn",
          "type": "address"
        },
        {
          "internalType": "uint256",
          "name": "amountIn",
          "type": "uint256"
        },
        {
          "internalType": "uint256",
          "name": "amountOutMin",
          "type": "uint256"
        },
        {
          "internalType": "address[]",
          "name": "path",
          "type": "address[]"
        },
        {
          "internalType": "address",
          "name": "to",
          "type": "address"
        },
        {
          "internalType": "uint256",
          "name": "deadline",
          "type": "uint256"
        }
      ],
      "name": "swapExactTokensForETHSupportingFeeOnTransferTokens",
      "outputs": [],
      "stateMutability": "nonpayable",
      "type": "function"
    },
    {
      "inputs": [
        {
          "internalType": "address",
          "name": "tokenIn",
          "type": "address"
        },
        {
          "internalType": "address",
          "name": "tokenOut",
          "type": "address"
        },
        {
          "internalType": "uint256",
          "name": "amountIn",
          "type": "uint256"
        },
        {
          "internalType": "uint256",
          "name": "amountOutMin",
          "type": "uint256"
        },
        {
          "internalType": "address[]",
          "name": "path",
          "type": "address[]"
        },
        {
          "internalType": "address",
          "name": "to",
          "type": "address"
        },
        {
          "internalType": "uint256",
          "name": "deadline",
          "type": "uint256"
        }
      ],
      "name": "swapExactTokensForTokens",
      "outputs": [
        {
          "internalType": "uint256[]",
          "name": "amounts",
          "type": "uint256[]"
        }
      ],
      "stateMutability": "nonpayable",
      "type": "function"
    },
    {
      "inputs": [
        {
          "internalType": "address",
          "name": "tokenIn",
          "type": "address"
        },
        {
          "internalType": "address",
          "name": "tokenOut",
          "type": "address"
        },
        {
          "internalType": "uint256",
          "name": "amountIn",
          "type": "uint256"
        },
        {
          "internalType": "uint256",
          "name": "amountOutMin",
          "type": "uint256"
        },
        {
          "internalType": "address[]",
          "name": "path",
          "type": "address[]"
        },
        {
          "internalType": "address",
          "name": "to",
          "type": "address"
        },
        {
          "internalType": "uint256",
          "name": "deadline",
          "type": "uint256"
        }
      ],
      "name": "swapExactTokensForTokensSupportingFeeOnTransferTokens",
      "outputs": [],
      "stateMutability": "nonpayable",
      "type": "function"
    },
    {
      "inputs": [
        {
          "internalType": "address",
          "name": "tokenIn",
          "type": "address"
        },
        {
          "internalType": "uint256",
          "name": "amountOut",
          "type": "uint256"
        },
        {
          "internalType": "uint256",
          "name": "amountInMax",
          "type": "uint256"
        },
        {
          "internalType": "address[]",
          "name": "path",
          "type": "address[]"
        },
        {
          "internalType": "address",
          "name": "to",
          "type": "address"
        },
        {
          "internalType": "uint256",
          "name": "deadline",
          "type": "uint256"
        }
      ],
      "name": "swapTokensForExactETH",
      "outputs": [
        {
          "internalType": "uint256[]",
          "name": "amounts",
          "type": "uint256[]"
        }
      ],
      "stateMutability": "nonpayable",
      "type": "function"
    },
    {
      "inputs": [
        {
          "internalType": "address",
          "name": "tokenIn",
          "type": "address"
        },
        {
          "internalType": "address",
          "name": "tokenOut",
          "type": "address"
        },
        {
          "internalType": "uint256",
          "name": "amountOut",
          "type": "uint256"
        },
        {
          "internalType": "uint256",
          "name": "amountInMax",
          "type": "uint256"
        },
        {
          "internalType": "address[]",
          "name": "path",
          "type": "address[]"
        },
        {
          "internalType": "address",
          "name": "to",
          "type": "address"
        },
        {
          "internalType": "uint256",
          "name": "deadline",
          "type": "uint256"
        }
      ],
      "name": "swapTokensForExactTokens",
      "outputs": [
        {
          "internalType": "uint256[]",
          "name": "amounts",
          "type": "uint256[]"
        }
      ],
      "stateMutability": "nonpayable",
      "type": "function"
    },
    {
      "stateMutability": "payable",
      "type": "receive"
    }
  ],
  "transactionHash": "0x75b722bd74235d824ca5f170e0fdb132e6c338e6644ae4f4c86e8b23e5df9b7c",
  "args": [
    "0x610178dA211FEF7D417bC0e6FeD39F05609AD788",
    "0xDc64a140Aa3E981100a9becA4E685f962f0cF6C9"
  ],
  "solcInputHash": "d6a1208242f8eeb061cb4a070250613f",
  "bytecode": "0x60e06040523480156200001157600080fd5b50604051620061a2380380620061a28339810160408190526200003491620000db565b6001600160a01b038216608081905260408051634b75f54f60e01b81529051634b75f54f916004808201926020929091908290030181865afa1580156200007f573d6000803e3d6000fd5b505050506040513d601f19601f82011682018060405250810190620000a5919062000113565b6001600160a01b0390811660a0521660c0525062000138565b80516001600160a01b0381168114620000d657600080fd5b919050565b60008060408385031215620000ef57600080fd5b620000fa83620000be565b91506200010a60208401620000be565b90509250929050565b6000602082840312156200012657600080fd5b6200013182620000be565b9392505050565b60805160a05160c051615eff620002a36000396000818161015b0152818161037f015281816107a90152818161093401528181610a64015281816117eb01528181611b1f01528181611bb201528181611c9401528181611d9e01528181611ea8015281816126ff01528181612b8c01528181612cc901528181612d4101528181612da8015281816136030152818161368e0152818161371401528181613acc0152613eaf0152600081816101f60152818161118501528181613066015281816132b1015281816133b6015281816137c901528181613bb901528181613f760152818161407a01528181614356015281816143ed015281816144f3015281816147b601528181614880015261494801526000818161040601528181610a34015281816111b4015281816124b001528181612e83015281816132e0015281816137f601528181613be601528181613fa3015281816140a701528181614383015261441c0152615eff6000f3fe60806040526004361061014b5760003560e01c80630e2f024c1461018f5780633990ba54146101c25780634b75f54f146101e45780634c17fd7c146102255780635cae03101461025a578063674ee80b1461027a5780636cb494281461028d5780637a5f1fce146102a0578063840c34d0146102cd57806393b2dfe0146102e05780639c91fcb51461030d578063a4aabb081461032d578063a67d0e3c1461034d578063ad5c46481461036d578063b05f579e146103a1578063b56b681d146103b4578063bff51d71146103d4578063c45a0155146103f4578063cb6817d214610428578063ce8196321461043b578063d0f2c82a1461044e578063d59e44ee1461046e578063e1f4a7841461048e578063ebb5d2e9146104ae578063ee63113f146104ce578063fa3219d5146104ee578063fbf451351461050e578063fde1adda1461052e57600080fd5b3661018a57336001600160a01b037f0000000000000000000000000000000000000000000000000000000000000000161461018857610188614a77565b005b600080fd5b34801561019b57600080fd5b506101af6101aa366004614acf565b610541565b6040519081526020015b60405180910390f35b6101d56101d0366004614b79565b6105e0565b6040516101b993929190614beb565b3480156101f057600080fd5b506102187f000000000000000000000000000000000000000000000000000000000000000081565b6040516101b99190614c01565b34801561023157600080fd5b50610245610240366004614c15565b610631565b604080519283526020830191909152016101b9565b34801561026657600080fd5b50610188610275366004614d1c565b6106fc565b610188610288366004614da2565b61086c565b6101af61029b366004614e2f565b610a2f565b3480156102ac57600080fd5b506102c06102bb3660046150c4565b610b05565b6040516101b9919061512e565b6101af6102db3660046152f2565b611009565b3480156102ec57600080fd5b506103006102fb366004615365565b61138d565b6040516101b9919061546a565b34801561031957600080fd5b50610300610328366004614d1c565b6117c2565b34801561033957600080fd5b50610245610348366004614acf565b611919565b34801561035957600080fd5b506101886103683660046154ae565b6119be565b34801561037957600080fd5b506102187f000000000000000000000000000000000000000000000000000000000000000081565b6103006103af366004614da2565b611af7565b3480156103c057600080fd5b506102456103cf366004614b79565b611c69565b3480156103e057600080fd5b506103006103ef366004615546565b611cf9565b34801561040057600080fd5b506102187f000000000000000000000000000000000000000000000000000000000000000081565b6103006104363660046155c2565b611d76565b6101af610449366004615622565b61223d565b34801561045a57600080fd5b506101af61046936600461569f565b6124ab565b34801561047a57600080fd5b506103006104893660046154ae565b6125c6565b34801561049a57600080fd5b506102456104a9366004615723565b612690565b3480156104ba57600080fd5b506101af6104c9366004614b79565b6126d5565b3480156104da57600080fd5b506101af6104e9366004615365565b6127c5565b3480156104fa57600080fd5b50610300610509366004614d1c565b612b63565b34801561051a57600080fd5b506101d56105293660046157a8565b612be6565b61030061053c366004614da2565b612ca1565b6000808561054f578a610553565b6000195b60405163d505accf60e01b81529091506001600160a01b038e169063d505accf9061058e903390309086908d908c908c908c90600401615837565b600060405180830381600087803b1580156105a857600080fd5b505af11580156105bc573d6000803e3d6000fd5b505050506105cf8d8d8d8d8d8d8d6126d5565b9d9c50505050505050505050505050565b6000806000834281101561060f5760405162461bcd60e51b815260040161060690615878565b60405180910390fd5b61061d8b8b8b8b8b8b612d9c565b919d909c50909a5098505050505050505050565b60008086428110156106555760405162461bcd60e51b815260040161060690615878565b600087610662578c610666565b6000195b90508f6001600160a01b031663d505accf3330848d8c8c8c6040518863ffffffff1660e01b81526004016106a09796959493929190615837565b600060405180830381600087803b1580156106ba57600080fd5b505af11580156106ce573d6000803e3d6000fd5b50505050506106e28f8f8f8f8f8f8f612e7e565b8093508194505050509c509c9a5050505050505050505050565b804281101561071d5760405162461bcd60e51b815260040161060690615878565b610750883387876000818110610735576107356158a1565b905060200201602081019061074a91906158b7565b8a61314a565b61078f88868680806020026020016040519081016040528093929190818152602001838360200280828437600092019190915250309250613276915050565b6040516370a0823160e01b81526000906001600160a01b037f000000000000000000000000000000000000000000000000000000000000000016906370a08231906107de903090600401614c01565b602060405180830381865afa1580156107fb573d6000803e3d6000fd5b505050506040513d601f19601f8201168201806040525081019061081f91906158d4565b9050868110156108415760405162461bcd60e51b8152600401610606906158ed565b61086073eeeeeeeeeeeeeeeeeeeeeeeeeeeeeeeeeeeeeeee85836135d0565b50505050505050505050565b804281101561088d5760405162461bcd60e51b815260040161060690615878565b346108bd8187876000816108a3576108a36158a1565b90506020020160208101906108b891906158b7565b61368c565b6040516370a0823160e01b81526000906001600160a01b038a16906370a08231906108ec908890600401614c01565b602060405180830381865afa158015610909573d6000803e3d6000fd5b505050506040513d601f19601f8201168201806040525081019061092d91906158d4565b905061098e7f00000000000000000000000000000000000000000000000000000000000000008888808060200260200160405190810160405280939291908181526020018383602002808284376000920191909152508a9250613276915050565b87610a06828b6001600160a01b03166370a08231896040518263ffffffff1660e01b81526004016109bf9190614c01565b602060405180830381865afa1580156109dc573d6000803e3d6000fd5b505050506040513d601f19601f82011682018060405250810190610a0091906158d4565b906137a1565b1015610a245760405162461bcd60e51b8152600401610606906158ed565b505050505050505050565b6000807f00000000000000000000000000000000000000000000000000000000000000006001600160a01b03166314572adb887f000000000000000000000000000000000000000000000000000000000000000088886040518563ffffffff1660e01b8152600401610aa4949392919061592f565b6020604051808303816000875af1158015610ac3573d6000803e3d6000fd5b505050506040513d601f19601f82011682018060405250810190610ae79190615960565b9050610af881888860008088612d9c565b9998505050505050505050565b60608142811015610b285760405162461bcd60e51b815260040161060690615878565b86518690600090610b3b90600190615993565b90505b8015610c9357888181518110610b5657610b566158a1565b60200260200101516000015160ff1660001415610c8157610c2d898281518110610b8257610b826158a1565b602002602001015160400151600081518110610ba057610ba06158a1565b60200260200101518a8381518110610bba57610bba6158a1565b60200260200101516040015160018c8581518110610bda57610bda6158a1565b60200260200101516040015151610bf19190615993565b81518110610c0157610c016158a1565b6020026020010151848c8581518110610c1c57610c1c6158a1565b6020026020010151602001516137af565b848281518110610c3f57610c3f6158a1565b6020026020010181905250838181518110610c5c57610c5c6158a1565b6020026020010151600081518110610c7657610c766158a1565b602002602001015191505b80610c8b816159aa565b915050610b3e565b5085811115610cb45760405162461bcd60e51b8152600401610606906159c1565b610d6488600081518110610cca57610cca6158a1565b602002602001015160400151600081518110610ce857610ce86158a1565b6020026020010151338a600081518110610d0457610d046158a1565b602002602001015160200151600081518110610d2257610d226158a1565b602002602001015186600081518110610d3d57610d3d6158a1565b6020026020010151600081518110610d5757610d576158a1565b602002602001015161314a565b60005b8851811015610fdd57600060018a51610d809190615993565b8214610dcd5789610d928360016159ea565b81518110610da257610da26158a1565b602002602001015160200151600081518110610dc057610dc06158a1565b6020026020010151610dcf565b305b9050898281518110610de357610de36158a1565b60200260200101516000015160ff1660001415610e7857610e738a8381518110610e0f57610e0f6158a1565b602002602001015160400151600081518110610e2d57610e2d6158a1565b6020026020010151868481518110610e4757610e476158a1565b60200260200101518c8581518110610e6157610e616158a1565b60200260200101516020015184613874565b610fca565b898281518110610e8a57610e8a6158a1565b602002602001015160200151600081518110610ea857610ea86158a1565b60200260200101516001600160a01b0316634ac00e038b8481518110610ed057610ed06158a1565b602002602001015160400151600081518110610eee57610eee6158a1565b60200260200101518c8581518110610f0857610f086158a1565b602002602001015160400151600181518110610f2657610f266158a1565b6020026020010151888681518110610f4057610f406158a1565b6020026020010151600081518110610f5a57610f5a6158a1565b60200260200101516000866040518663ffffffff1660e01b8152600401610f85959493929190615a02565b6020604051808303816000875af1158015610fa4573d6000803e3d6000fd5b505050506040513d601f19601f82011682018060405250810190610fc891906158d4565b505b5080610fd581615a32565b915050610d67565b50610ffd73eeeeeeeeeeeeeeeeeeeeeeeeeeeeeeeeeeeeeeee86896135d0565b50505095945050505050565b6000814281101561102c5760405162461bcd60e51b815260040161060690615878565b6110368685613aba565b5060005b8751811015611320576000888281518110611057576110576158a1565b602002602001015151600114156110c957600089838151811061107c5761107c6158a1565b6020026020010151600081518110611096576110966158a1565b602002602001015190506110c181602001518260400151836000015184606001518560800151613b58565b915050611300565b6000808a84815181106110de576110de6158a1565b60200260200101516001815181106110f8576110f86158a1565b60200260200101519050600060016001600160401b0381111561111d5761111d614e97565b604051908082528060200260200182016040528015611146578160200160208202803683370190505b509050816000015181600081518110611161576111616158a1565b60200260200101906001600160a01b031690816001600160a01b03168152505060007f00000000000000000000000000000000000000000000000000000000000000006001600160a01b03166367f84adc7f0000000000000000000000000000000000000000000000000000000000000000856020015186604001518760600151876040518663ffffffff1660e01b8152600401611203959493929190615a4d565b600060405180830381865afa158015611220573d6000803e3d6000fd5b505050506040513d6000823e601f3d908101601f191682016040526112489190810190615ac0565b90508060008151811061125d5761125d6158a1565b60200260200101519350826080015184111561128b5760405162461bcd60e51b815260040161060690615b50565b505060008b85815181106112a1576112a16158a1565b60200260200101516000815181106112bb576112bb6158a1565b602002602001015190506112e2816020015182604001518360000151868560800151613b58565b93506112fc82602001518360000151858560600151613cbc565b5050505b61130a8185613e6b565b935050808061131890615a32565b91505061103a565b50838211156113605760405162461bcd60e51b815260206004820152600c60248201526b22a9292fa624a6a4aa2fa4a760a11b6044820152606401610606565b611373853361136e88613e88565b6135d0565b50611382863361136e89613e88565b505095945050505050565b606081428110156113b05760405162461bcd60e51b815260040161060690615878565b86516113bd9060016159ea565b6001600160401b038111156113d4576113d4614e97565b6040519080825280602002602001820160405280156113fd578160200160208202803683370190505b5091508582885181518110611414576114146158a1565b6020026020010181815250506000600183516114309190615993565b90505b80156115755787611445600183615993565b81518110611455576114556158a1565b6020026020010151602001516001600160a01b031663cc56fd438960018461147d9190615993565b8151811061148d5761148d6158a1565b6020026020010151604001518a6001856114a79190615993565b815181106114b7576114b76158a1565b6020026020010151606001518685815181106114d5576114d56158a1565b60200260200101516040518463ffffffff1660e01b81526004016114fb93929190615b87565b602060405180830381865afa158015611518573d6000803e3d6000fd5b505050506040513d601f19601f8201168201806040525081019061153c91906158d4565b83611548600184615993565b81518110611558576115586158a1565b60209081029190910101528061156d816159aa565b915050611433565b50848260008151811061158a5761158a6158a1565b602002602001015111156115b05760405162461bcd60e51b8152600401610606906159c1565b611605876000815181106115c6576115c66158a1565b60200260200101516040015133896000815181106115e6576115e66158a1565b60200260200101516020015185600081518110610d5757610d576158a1565b60005b87518160ff161015611382576000600189516116249190615993565b8260ff161461165d5788611639836001615bab565b60ff168151811061164c5761164c6158a1565b60200260200101516020015161165f565b855b9050888260ff1681518110611676576116766158a1565b6020026020010151602001516001600160a01b0316634ac00e038a8460ff16815181106116a5576116a56158a1565b6020026020010151604001518b8560ff16815181106116c6576116c66158a1565b602002602001015160600151878660ff16815181106116e7576116e76158a1565b60200260200101518d8760ff1681518110611704576117046158a1565b60200260200101516000015160ff16600014611721576000611749565b8861172d886001615bab565b60ff1681518110611740576117406158a1565b60200260200101515b866040518663ffffffff1660e01b815260040161176a959493929190615a02565b6020604051808303816000875af1158015611789573d6000803e3d6000fd5b505050506040513d601f19601f820116820180604052508101906117ad91906158d4565b505080806117ba90615bd0565b915050611608565b606081428110156117e55760405162461bcd60e51b815260040161060690615878565b611845897f00000000000000000000000000000000000000000000000000000000000000008a8a8a8a80806020026020016040519081016040528093929190818152602001838360200280828437600092019190915250613f5c92505050565b915061188789338888600081811061185f5761185f6158a1565b905060200201602081019061187491906158b7565b85600081518110610d5757610d576158a1565b6118c78983888880806020026020016040519081016040528093929190818152602001838360200280828437600092019190915250309250613874915050565b61190c73eeeeeeeeeeeeeeeeeeeeeeeeeeeeeeeeeeeeeeee8584600186516118ef9190615993565b815181106118ff576118ff6158a1565b60200260200101516135d0565b5050979650505050505050565b600080600086611929578b61192d565b6000195b60405163d505accf60e01b81529091506001600160a01b038f169063d505accf90611968903390309086908e908d908d908d90600401615837565b600060405180830381600087803b15801561198257600080fd5b505af1158015611996573d6000803e3d6000fd5b505050506119a98e8e8e8e8e8e8e611c69565b909f909e509c50505050505050505050505050565b80428110156119df5760405162461bcd60e51b815260040161060690615878565b6119f7893387876000818110610735576107356158a1565b6040516370a0823160e01b81526000906001600160a01b038a16906370a0823190611a26908790600401614c01565b602060405180830381865afa158015611a43573d6000803e3d6000fd5b505050506040513d601f19601f82011682018060405250810190611a6791906158d4565b9050611aa88a878780806020026020016040519081016040528093929190818152602001838360200280828437600092019190915250899250613276915050565b86611ad9828b6001600160a01b03166370a08231886040518263ffffffff1660e01b81526004016109bf9190614c01565b10156108605760405162461bcd60e51b8152600401610606906158ed565b60608142811015611b1a5760405162461bcd60e51b815260040161060690615878565b611b7a7f00000000000000000000000000000000000000000000000000000000000000008989348a8a8080602002602001604051908101604052809392919081815260200183836020028082843760009201919091525061406092505050565b9150611bad82600081518110611b9257611b926158a1565b6020026020010151878760008181106108a3576108a36158a1565b611c0d7f0000000000000000000000000000000000000000000000000000000000000000838888808060200260200160405190810160405280939291908181526020018383602002808284376000920191909152508a9250613874915050565b81600081518110611c2057611c206158a1565b6020026020010151341115611c5e57611c5e3383600081518110611c4657611c466158a1565b602002602001015134611c599190615993565b614158565b509695505050505050565b6000808242811015611c8d5760405162461bcd60e51b815260040161060690615878565b611cbc8a8a7f00000000000000000000000000000000000000000000000000000000000000008b8b8b30612e7e565b9093509150611ccc898685614226565b611ceb73eeeeeeeeeeeeeeeeeeeeeeeeeeeeeeeeeeeeeeee86846135d0565b505097509795505050505050565b60608142811015611d1c5760405162461bcd60e51b815260040161060690615878565b611d298989898989613f5c565b9150611d5e893387600081518110611d4357611d436158a1565b602002602001015185600081518110610d5757610d576158a1565b611d6a89838787613874565b50979650505050505050565b60608142811015611d995760405162461bcd60e51b815260040161060690615878565b611e457f000000000000000000000000000000000000000000000000000000000000000087600081518110611dd057611dd06158a1565b602002602001015160400151600189600081518110611df157611df16158a1565b60200260200101516040015151611e089190615993565b81518110611e1857611e186158a1565b60200260200101513489600081518110611e3457611e346158a1565b60200260200101516020015161433c565b9150611ea382600081518110611e5d57611e5d6158a1565b602002602001015187600081518110611e7857611e786158a1565b602002602001015160200151600081518110611e9657611e966158a1565b602002602001015161368c565b611eed7f00000000000000000000000000000000000000000000000000000000000000008388600081518110611edb57611edb6158a1565b60200260200101516020015187613874565b60008260018451611efe9190615993565b81518110611f0e57611f0e6158a1565b602002602001015190506000600190505b875181101561221257600060018951611f389190615993565b8214611f855788611f4a8360016159ea565b81518110611f5a57611f5a6158a1565b602002602001015160200151600081518110611f7857611f786158a1565b6020026020010151611f87565b865b9050888281518110611f9b57611f9b6158a1565b60200260200101516000015160ff16600014156120df57612061898381518110611fc757611fc76158a1565b602002602001015160400151600081518110611fe557611fe56158a1565b60200260200101518a8481518110611fff57611fff6158a1565b60200260200101516040015160018c868151811061201f5761201f6158a1565b602002602001015160400151516120369190615993565b81518110612046576120466158a1565b6020026020010151858c8681518110611e3457611e346158a1565b94506120b1898381518110612078576120786158a1565b602002602001015160400151600081518110612096576120966158a1565b6020026020010151868b8581518110610e6157610e616158a1565b84600186516120c09190615993565b815181106120d0576120d06158a1565b602002602001015192506121ff565b8882815181106120f1576120f16158a1565b60200260200101516020015160008151811061210f5761210f6158a1565b60200260200101516001600160a01b0316634ac00e038a8481518110612137576121376158a1565b602002602001015160400151600081518110612155576121556158a1565b60200260200101518b858151811061216f5761216f6158a1565b60200260200101516040015160018151811061218d5761218d6158a1565b6020026020010151866000866040518663ffffffff1660e01b81526004016121b9959493929190615a02565b6020604051808303816000875af11580156121d8573d6000803e3d6000fd5b505050506040513d601f19601f820116820180604052508101906121fc91906158d4565b92505b508061220a81615a32565b915050611f1f565b50808611156122335760405162461bcd60e51b815260040161060690615bf0565b5050949350505050565b600081428110156122605760405162461bcd60e51b815260040161060690615878565b61226a8786613aba565b506000612276876143b3565b6122ea576040516370a0823160e01b81526001600160a01b038816906370a08231906122a6903390600401614c01565b602060405180830381865afa1580156122c3573d6000803e3d6000fd5b505050506040513d601f19601f820116820180604052508101906122e791906158d4565b90505b60005b89518110156123bc576000805b8b838151811061230c5761230c6158a1565b60200260200101515181101561239b5760008c8481518110612330576123306158a1565b60200260200101518281518110612349576123496158a1565b60200260200101519050600082111561236457606081018390525b612385816020015182604001518360000151846060015185608001516143d5565b925050808061239390615a32565b9150506122fa565b506123a68186613e6b565b94505080806123b490615a32565b9150506122ed565b506123c88733856135d0565b506123d7883361136e8b613e88565b506123e1876143b3565b1561242b57848310156124265760405162461bcd60e51b815260206004820152600d60248201526c11549497d31253525517d3d555609a1b6044820152606401610606565b61249f565b8461245c82896001600160a01b03166370a08231336040518263ffffffff1660e01b81526004016109bf9190614c01565b101561249f5760405162461bcd60e51b81526020600482015260126024820152710f1b5a5b951bdd185b105b5bdd5b9d13dd5d60721b6044820152606401610606565b50509695505050505050565b6000807f00000000000000000000000000000000000000000000000000000000000000006001600160a01b03166314572adb8a8a88886040518563ffffffff1660e01b8152600401612500949392919061592f565b6020604051808303816000875af115801561251f573d6000803e3d6000fd5b505050506040513d601f19601f820116820180604052508101906125439190615960565b9050612555818a8a8a8a600080614773565b50506040516335313c2160e11b81526001600160a01b03821690636a62784290612583908690600401614c01565b6020604051808303816000875af11580156125a2573d6000803e3d6000fd5b505050506040513d601f19601f82011682018060405250810190610af891906158d4565b606081428110156125e95760405162461bcd60e51b815260040161060690615878565b6126298a8a8a8a8a8a8080602002602001604051908101604052809392919081815260200183836020028082843760009201919091525061406092505050565b91506126438a338888600081811061185f5761185f6158a1565b6126838a838888808060200260200160405190810160405280939291908181526020018383602002808284376000920191909152508a9250613874915050565b5098975050505050505050565b60008082428110156126b45760405162461bcd60e51b815260040161060690615878565b6126c38b8b8b8b8b8b8b612e7e565b909c909b509950505050505050505050565b600081428110156126f85760405162461bcd60e51b815260040161060690615878565b61272889897f00000000000000000000000000000000000000000000000000000000000000008a8a8a308a612690565b6040516370a0823160e01b81529093506127a69150899086906001600160a01b038316906370a0823190612760903090600401614c01565b602060405180830381865afa15801561277d573d6000803e3d6000fd5b505050506040513d601f19601f820116820180604052508101906127a191906158d4565b614226565b61190c73eeeeeeeeeeeeeeeeeeeeeeeeeeeeeeeeeeeeeeee85846135d0565b600081428110156127e85760405162461bcd60e51b815260040161060690615878565b85915061283387600081518110612801576128016158a1565b6020026020010151604001513389600081518110612821576128216158a1565b6020026020010151602001518961314a565b60005b8751811015612b385760006001895161284f9190615993565b821461288257886128618360016159ea565b81518110612871576128716158a1565b602002602001015160200151612884565b855b9050888281518110612898576128986158a1565b60200260200101516000015160ff1660001415612a535760008490508983815181106128c6576128c66158a1565b6020026020010151602001516001600160a01b031663e9255bae8b85815181106128f2576128f26158a1565b6020026020010151604001518c8681518110612910576129106158a1565b602002602001015160600151886040518463ffffffff1660e01b815260040161293b93929190615b87565b602060405180830381865afa158015612958573d6000803e3d6000fd5b505050506040513d601f19601f8201168201806040525081019061297c91906158d4565b9450898381518110612990576129906158a1565b6020026020010151602001516001600160a01b0316634ac00e038b85815181106129bc576129bc6158a1565b6020026020010151604001518c86815181106129da576129da6158a1565b6020026020010151606001518489876040518663ffffffff1660e01b8152600401612a09959493929190615a02565b6020604051808303816000875af1158015612a28573d6000803e3d6000fd5b505050506040513d601f19601f82011682018060405250810190612a4c91906158d4565b5050612b25565b888281518110612a6557612a656158a1565b6020026020010151602001516001600160a01b0316634ac00e038a8481518110612a9157612a916158a1565b6020026020010151604001518b8581518110612aaf57612aaf6158a1565b602002602001015160600151876000866040518663ffffffff1660e01b8152600401612adf959493929190615a02565b6020604051808303816000875af1158015612afe573d6000803e3d6000fd5b505050506040513d601f19601f82011682018060405250810190612b2291906158d4565b93505b5080612b3081615a32565b915050612836565b5081851115612b595760405162461bcd60e51b815260040161060690615bf0565b5095945050505050565b60608142811015612b865760405162461bcd60e51b815260040161060690615878565b611845897f00000000000000000000000000000000000000000000000000000000000000008a8a8a8a8080602002602001604051908101604052809392919081815260200183836020028082843760009201919091525061406092505050565b60008060008342811015612c0c5760405162461bcd60e51b815260040161060690615878565b612c1b8d8d8d8d8d8d8d614773565b6040516335313c2160e11b815291955093506001600160a01b038e1690636a62784290612c4c908990600401614c01565b6020604051808303816000875af1158015612c6b573d6000803e3d6000fd5b505050506040513d601f19601f82011682018060405250810190612c8f91906158d4565b91505099509950999650505050505050565b60608142811015612cc45760405162461bcd60e51b815260040161060690615878565b612d247f000000000000000000000000000000000000000000000000000000000000000089348a8a8a80806020026020016040519081016040528093929190818152602001838360200280828437600092019190915250613f5c92505050565b9150612d3c82600081518110611b9257611b926158a1565b611c5e7f0000000000000000000000000000000000000000000000000000000000000000838888808060200260200160405190810160405280939291908181526020018383602002808284376000920191909152508a9250613874915050565b6000806000612dd089897f00000000000000000000000000000000000000000000000000000000000000008a348b8b6147ae565b9093509150612de188338b8661314a565b612deb828a61368c565b6040516335313c2160e11b81526001600160a01b038a1690636a62784290612e17908790600401614c01565b6020604051808303816000875af1158015612e36573d6000803e3d6000fd5b505050506040513d601f19601f82011682018060405250810190612e5a91906158d4565b905081341115612e7257612e7233611c598434615993565b96509650969350505050565b6000807f00000000000000000000000000000000000000000000000000000000000000006001600160a01b031663e5e31b138a6040518263ffffffff1660e01b8152600401612ecd9190614c01565b602060405180830381865afa158015612eea573d6000803e3d6000fd5b505050506040513d601f19601f82011682018060405250810190612f0e9190615c1d565b612f515760405162461bcd60e51b81526020600482015260146024820152732937baba32b91d1024b73b30b634b2103830b4b960611b6044820152606401610606565b6040516323b872dd60e01b81526001600160a01b038a16906323b872dd90612f819033908d908b90600401615b87565b6020604051808303816000875af1158015612fa0573d6000803e3d6000fd5b505050506040513d601f19601f82011682018060405250810190612fc49190615c1d565b506000808a6001600160a01b03166389afcb44866040518263ffffffff1660e01b8152600401612ff49190614c01565b60408051808303816000875af1158015613012573d6000803e3d6000fd5b505050506040513d601f19601f820116820180604052508101906130369190615c3a565b604051632a26552b60e11b81526001600160a01b038d811660048301528c811660248301529294509092506000917f0000000000000000000000000000000000000000000000000000000000000000169063544caa56906044016040805180830381865afa1580156130ac573d6000803e3d6000fd5b505050506040513d601f19601f820116820180604052508101906130d09190615c5e565b509050806001600160a01b03168b6001600160a01b0316146130f35781836130f6565b82825b90955093508785101561311b5760405162461bcd60e51b815260040161060690615c98565b8684101561313b5760405162461bcd60e51b815260040161060690615ccf565b50505097509795505050505050565b600080856001600160a01b03166323b872dd86868660405160240161317193929190615b87565b6040516020818303038152906040529060e01b6020820180516001600160e01b0383818316178352505050506040516131aa9190615d36565b6000604051808303816000865af19150503d80600081146131e7576040519150601f19603f3d011682016040523d82523d6000602084013e6131ec565b606091505b50915091508180156132165750805115806132165750808060200190518101906132169190615c1d565b61326e5760405162461bcd60e51b8152602060048201526024808201527f5472616e7366657248656c7065723a205452414e534645525f46524f4d5f46416044820152631253115160e21b6064820152608401610606565b505050505050565b8260005b83518110156135c9576000848281518110613297576132976158a1565b6020026020010151905060008060008060008060008060007f00000000000000000000000000000000000000000000000000000000000000006001600160a01b031663b33d96b07f00000000000000000000000000000000000000000000000000000000000000008c8f6040518463ffffffff1660e01b815260040161331f93929190615d52565b60c060405180830381865afa15801561333c573d6000803e3d6000fd5b505050506040513d601f19601f820116820180604052508101906133609190615d75565b95509550955095509550955061339c858d6001600160a01b03166370a082318d6040518263ffffffff1660e01b81526004016109bf9190614c01565b60405163671a11b560e01b81529099506001600160a01b037f0000000000000000000000000000000000000000000000000000000000000000169063671a11b5906133f5908c9089908990899089908990600401615de9565b602060405180830381865afa158015613412573d6000803e3d6000fd5b505050506040513d601f19601f8201168201806040525081019061343691906158d4565b9750859650505050505050600080856001600160a01b0316630dfe16816040518163ffffffff1660e01b8152600401602060405180830381865afa158015613482573d6000803e3d6000fd5b505050506040513d601f19601f820116820180604052508101906134a69190615960565b6001600160a01b0316886001600160a01b0316146134c6578360006134ca565b6000845b91509150600060018b516134de9190615993565b88106134ea578961350f565b8a6134f68960016159ea565b81518110613506576135066158a1565b60200260200101515b6040805160008152602081019182905263022c0d9f60e01b9091529091506001600160a01b0388169063022c0d9f906135519086908690869060248101615e1d565b600060405180830381600087803b15801561356b57600080fd5b505af115801561357f573d6000803e3d6000fd5b50505050600080516020615eaa8339815191528786866040516135a493929190615e6d565b60405180910390a18398505050505050505080806135c190615a32565b91505061327a565b5050505050565b6000816135df57506001613685565b6135e8846143b3565b1561367657604051632e1a7d4d60e01b8152600481018390527f00000000000000000000000000000000000000000000000000000000000000006001600160a01b031690632e1a7d4d90602401600060405180830381600087803b15801561364f57600080fd5b505af1158015613663573d6000803e3d6000fd5b505050506136718383614158565b613681565b613681848484614226565b5060015b9392505050565b7f00000000000000000000000000000000000000000000000000000000000000006001600160a01b031663d0e30db0836040518263ffffffff1660e01b81526004016000604051808303818588803b1580156136e757600080fd5b505af11580156136fb573d6000803e3d6000fd5b505060405163a9059cbb60e01b81526001600160a01b037f000000000000000000000000000000000000000000000000000000000000000016935063a9059cbb925061374e915084908690600401615e90565b6020604051808303816000875af115801561376d573d6000803e3d6000fd5b505050506040513d601f19601f820116820180604052508101906137919190615c1d565b61379d5761379d614a77565b5050565b600061368583836001614a06565b6040516319fe12b760e21b81526060906001600160a01b037f000000000000000000000000000000000000000000000000000000000000000016906367f84adc90613826907f0000000000000000000000000000000000000000000000000000000000000000908990899089908990600401615a4d565b600060405180830381865afa158015613843573d6000803e3d6000fd5b505050506040513d6000823e601f3d908101601f1916820160405261386b9190810190615ac0565b95945050505050565b8360005b835181101561326e576000848281518110613895576138956158a1565b602002602001015190506000816001600160a01b0316630dfe16816040518163ffffffff1660e01b8152600401602060405180830381865afa1580156138df573d6000803e3d6000fd5b505050506040513d601f19601f820116820180604052508101906139039190615960565b90506000876139138560016159ea565b81518110613923576139236158a1565b602002602001015190506000806000846001600160a01b0316886001600160a01b03161461395457836000866139b9565b600084876001600160a01b031663d21220a76040518163ffffffff1660e01b8152600401602060405180830381865afa158015613995573d6000803e3d6000fd5b505050506040513d601f19601f820116820180604052508101906139b99190615960565b925092509250600060018b516139cf9190615993565b88106139db5789613a00565b8a6139e78960016159ea565b815181106139f7576139f76158a1565b60200260200101515b6040805160008152602081019182905263022c0d9f60e01b9091529091506001600160a01b0388169063022c0d9f90613a429087908790869060248101615e1d565b600060405180830381600087803b158015613a5c57600080fd5b505af1158015613a70573d6000803e3d6000fd5b50505050600080516020615eaa833981519152878684604051613a9593929190615e6d565b60405180910390a1819850505050505050508080613ab290615a32565b915050613878565b6000613ac5836143b3565b15613b43577f00000000000000000000000000000000000000000000000000000000000000006001600160a01b031663d0e30db0346040518263ffffffff1660e01b81526004016000604051808303818588803b158015613b2557600080fd5b505af1158015613b39573d6000803e3d6000fd5b5050505050613b4f565b613b4f8333308561314a565b50600192915050565b604080516001808252818301909252600091829190602080830190803683370190505090508481600081518110613b9157613b916158a1565b6001600160a01b0392831660209182029290920101526040516319fe12b760e21b81526000917f000000000000000000000000000000000000000000000000000000000000000016906367f84adc90613c16907f0000000000000000000000000000000000000000000000000000000000000000908c908c908b908990600401615a4d565b600060405180830381865afa158015613c33573d6000803e3d6000fd5b505050506040513d6000823e601f3d908101601f19168201604052613c5b9190810190615ac0565b905080600081518110613c7057613c706158a1565b6020026020010151925083831115613c9a5760405162461bcd60e51b815260040161060690615b50565b61138288878584600181518110613cb357613cb36158a1565b60200260200101515b613cc7848484614226565b60008390506000816001600160a01b0316630dfe16816040518163ffffffff1660e01b8152600401602060405180830381865afa158015613d0c573d6000803e3d6000fd5b505050506040513d601f19601f82011682018060405250810190613d309190615960565b90506000806000836001600160a01b0316896001600160a01b031614613d595785600085613dbe565b600086866001600160a01b031663d21220a76040518163ffffffff1660e01b8152600401602060405180830381865afa158015613d9a573d6000803e3d6000fd5b505050506040513d601f19601f82011682018060405250810190613dbe9190615960565b6040805160008152602081019182905263022c0d9f60e01b90915292955090935091506001600160a01b0386169063022c0d9f90613e059086908690309060248101615e1d565b600060405180830381600087803b158015613e1f57600080fd5b505af1158015613e33573d6000803e3d6000fd5b50505050600080516020615eaa833981519152888783604051613e5893929190615e6d565b60405180910390a1505050505050505050565b600080613e7883856159ea565b9050613685848210156000614a21565b6000613e93826143b3565b15613f2b576040516370a0823160e01b81526001600160a01b037f000000000000000000000000000000000000000000000000000000000000000016906370a0823190613ee4903090600401614c01565b602060405180830381865afa158015613f01573d6000803e3d6000fd5b505050506040513d601f19601f82011682018060405250810190613f2591906158d4565b92915050565b6040516370a0823160e01b81526001600160a01b038316906370a0823190613ee4903090600401614c01565b919050565b60405163119220a560e01b81526060906001600160a01b037f0000000000000000000000000000000000000000000000000000000000000000169063119220a590613fd3907f0000000000000000000000000000000000000000000000000000000000000000908a908a908a908990600401615a4d565b600060405180830381865afa158015613ff0573d6000803e3d6000fd5b505050506040513d6000823e601f3d908101601f191682016040526140189190810190615ac0565b905082816001835161402a9190615993565b8151811061403a5761403a6158a1565b6020026020010151101561386b5760405162461bcd60e51b8152600401610606906158ed565b6040516319fe12b760e21b81526060906001600160a01b037f000000000000000000000000000000000000000000000000000000000000000016906367f84adc906140d7907f0000000000000000000000000000000000000000000000000000000000000000908a908a908a908990600401615a4d565b600060405180830381865afa1580156140f4573d6000803e3d6000fd5b505050506040513d6000823e601f3d908101601f1916820160405261411c9190810190615ac0565b90508281600081518110614132576141326158a1565b6020026020010151111561386b5760405162461bcd60e51b815260040161060690615b50565b604080516000808252602082019092526001600160a01b0384169083906040516141829190615d36565b60006040518083038185875af1925050503d80600081146141bf576040519150601f19603f3d011682016040523d82523d6000602084013e6141c4565b606091505b50509050806142215760405162461bcd60e51b815260206004820152602360248201527f5472616e7366657248656c7065723a204554485f5452414e534645525f46414960448201526213115160ea1b6064820152608401610606565b505050565b600080846001600160a01b031663a9059cbb858560405160240161424b929190615e90565b6040516020818303038152906040529060e01b6020820180516001600160e01b0383818316178352505050506040516142849190615d36565b6000604051808303816000865af19150503d80600081146142c1576040519150601f19603f3d011682016040523d82523d6000602084013e6142c6565b606091505b50915091508180156142f05750805115806142f05750808060200190518101906142f09190615c1d565b6135c95760405162461bcd60e51b815260206004820152601f60248201527f5472616e7366657248656c7065723a205452414e534645525f4641494c4544006044820152606401610606565b60405163119220a560e01b81526060906001600160a01b037f0000000000000000000000000000000000000000000000000000000000000000169063119220a590613826907f0000000000000000000000000000000000000000000000000000000000000000908990899089908990600401615a4d565b6001600160a01b031673eeeeeeeeeeeeeeeeeeeeeeeeeeeeeeeeeeeeeeee1490565b60006143e2868585614226565b6000806000806000807f00000000000000000000000000000000000000000000000000000000000000006001600160a01b031663b33d96b07f00000000000000000000000000000000000000000000000000000000000000008c8f6040518463ffffffff1660e01b815260040161445b93929190615d52565b60c060405180830381865afa158015614478573d6000803e3d6000fd5b505050506040513d601f19601f8201168201806040525081019061449c9190615d75565b955095509550955095505060006144d9868e6001600160a01b03166370a082318e6040518263ffffffff1660e01b81526004016109bf9190614c01565b60405163671a11b560e01b81529091506001600160a01b037f0000000000000000000000000000000000000000000000000000000000000000169063671a11b5906145329084908a908a908a908a908a90600401615de9565b602060405180830381865afa15801561454f573d6000803e3d6000fd5b505050506040513d601f19601f8201168201806040525081019061457391906158d4565b96505050505050506000866001600160a01b03166370a08231306040518263ffffffff1660e01b81526004016145a99190614c01565b602060405180830381865afa1580156145c6573d6000803e3d6000fd5b505050506040513d601f19601f820116820180604052508101906145ea91906158d4565b9050600080876001600160a01b0316630dfe16816040518163ffffffff1660e01b8152600401602060405180830381865afa15801561462d573d6000803e3d6000fd5b505050506040513d601f19601f820116820180604052508101906146519190615960565b6001600160a01b03168a6001600160a01b03161461467157836000614675565b6000845b6040805160008152602081019182905263022c0d9f60e01b90915291935091506001600160a01b0389169063022c0d9f906146b99085908590309060248101615e1d565b600060405180830381600087803b1580156146d357600080fd5b505af11580156146e7573d6000803e3d6000fd5b50505050600080516020615eaa83398151915288858b60405161470c93929190615e6d565b60405180910390a1614744838a6001600160a01b03166370a08231306040518263ffffffff1660e01b81526004016109bf9190614c01565b9450858510156147665760405162461bcd60e51b8152600401610606906158ed565b5050505095945050505050565b600080614785898989898989896147ae565b909250905061479688338b8561314a565b6147a287338b8461314a565b97509795505050505050565b6000806000807f00000000000000000000000000000000000000000000000000000000000000006001600160a01b031663327494618c8c8c6040518463ffffffff1660e01b815260040161480493929190615d52565b6040805180830381865afa158015614820573d6000803e3d6000fd5b505050506040513d601f19601f820116820180604052508101906148449190615c3a565b91509150816000148015614856575080155b1561486657879350869250611ceb565b604051632b58577b60e21b81526000906001600160a01b037f0000000000000000000000000000000000000000000000000000000000000000169063ad615dec906148b9908c9087908790600401614beb565b602060405180830381865afa1580156148d6573d6000803e3d6000fd5b505050506040513d601f19601f820116820180604052508101906148fa91906158d4565b905087811161492e57858110156149235760405162461bcd60e51b815260040161060690615ccf565b88945092508261313b565b604051632b58577b60e21b81526000906001600160a01b037f0000000000000000000000000000000000000000000000000000000000000000169063ad615dec90614981908c9087908990600401614beb565b602060405180830381865afa15801561499e573d6000803e3d6000fd5b505050506040513d601f19601f820116820180604052508101906149c291906158d4565b9050898111156149d4576149d4614a77565b878110156149f45760405162461bcd60e51b815260040161060690615c98565b9c979b50969950505050505050505050565b6000614a158484111583614a21565b600061386b8486615993565b8161379d5762461bcd60e51b600090815260206004526007602452600a808304818104828106603090810160101b848706949093060160081b929092010166524551230000300160c81b60445261379d91606490fd5b634e487b7160e01b600052600160045260246000fd5b6001600160a01b0381168114614aa257600080fd5b50565b8035613f5781614a8d565b8015158114614aa257600080fd5b803560ff81168114613f5757600080fd5b60008060008060008060008060008060006101608c8e031215614af157600080fd5b8b35614afc81614a8d565b9a5060208c0135614b0c81614a8d565b995060408c0135985060608c0135975060808c0135965060a08c0135614b3181614a8d565b955060c08c0135945060e08c0135614b4881614ab0565b9350614b576101008d01614abe565b92506101208c013591506101408c013590509295989b509295989b9093969950565b600080600080600080600060e0888a031215614b9457600080fd5b8735614b9f81614a8d565b96506020880135614baf81614a8d565b955060408801359450606088013593506080880135925060a0880135614bd481614a8d565b8092505060c0880135905092959891949750929550565b9283526020830191909152604082015260600190565b6001600160a01b0391909116815260200190565b6000806000806000806000806000806000806101808d8f031215614c3857600080fd5b8c35614c4381614a8d565b9b5060208d0135614c5381614a8d565b9a5060408d0135614c6381614a8d565b995060608d0135985060808d0135975060a08d0135965060c08d0135614c8881614a8d565b955060e08d013594506101008d0135614ca081614ab0565b9350614caf6101208e01614abe565b92506101408d013591506101608d013590509295989b509295989b509295989b565b60008083601f840112614ce357600080fd5b5081356001600160401b03811115614cfa57600080fd5b6020830191508360208260051b8501011115614d1557600080fd5b9250929050565b600080600080600080600060c0888a031215614d3757600080fd5b8735614d4281614a8d565b9650602088013595506040880135945060608801356001600160401b03811115614d6b57600080fd5b614d778a828b01614cd1565b9095509350506080880135614d8b81614a8d565b8092505060a0880135905092959891949750929550565b60008060008060008060a08789031215614dbb57600080fd5b8635614dc681614a8d565b95506020870135945060408701356001600160401b03811115614de857600080fd5b614df489828a01614cd1565b9095509350506060870135614e0881614a8d565b80925050608087013590509295509295509295565b63ffffffff81168114614aa257600080fd5b600080600080600060a08688031215614e4757600080fd5b8535614e5281614a8d565b9450602086013593506040860135614e6981614e1d565b92506060860135614e7981614e1d565b91506080860135614e8981614a8d565b809150509295509295909350565b634e487b7160e01b600052604160045260246000fd5b604051606081016001600160401b0381118282101715614ecf57614ecf614e97565b60405290565b60405160c081016001600160401b0381118282101715614ecf57614ecf614e97565b604051608081016001600160401b0381118282101715614ecf57614ecf614e97565b604051601f8201601f191681016001600160401b0381118282101715614f4157614f41614e97565b604052919050565b60006001600160401b03821115614f6257614f62614e97565b5060051b60200190565b600082601f830112614f7d57600080fd5b81356020614f92614f8d83614f49565b614f19565b82815260059290921b84018101918181019086841115614fb157600080fd5b8286015b84811015611c5e578035614fc881614a8d565b8352918301918301614fb5565b600082601f830112614fe657600080fd5b81356020614ff6614f8d83614f49565b82815260059290921b8401810191818101908684111561501557600080fd5b8286015b84811015611c5e5780356001600160401b03808211156150395760008081fd5b908801906060828b03601f19018113156150535760008081fd5b61505b614ead565b615066888501614abe565b81526040808501358481111561507c5760008081fd5b61508a8e8b83890101614f6c565b838b0152509184013591838311156150a25760008081fd5b6150b08d8a85880101614f6c565b908201528652505050918301918301615019565b600080600080600060a086880312156150dc57600080fd5b85356001600160401b038111156150f257600080fd5b6150fe88828901614fd5565b9550506020860135935060408601359250606086013561511d81614a8d565b949793965091946080013592915050565b6000602080830181845280855180835260408601915060408160051b87010192508387016000805b838110156151aa57888603603f19018552825180518088529088019088880190845b818110156151945783518352928a0192918a0191600101615178565b5090975050509386019391860191600101615156565b509398975050505050505050565b600082601f8301126151c957600080fd5b813560206151d9614f8d83614f49565b82815260059290921b840181019181810190868411156151f857600080fd5b8286015b84811015611c5e5780356001600160401b0381111561521b5760008081fd5b8701603f8101891361522d5760008081fd5b84810135604061523f614f8d83614f49565b82815260c0928302840182019288820191908d85111561525f5760008081fd5b948301945b848610156152e05780868f03121561527c5760008081fd5b615284614ed5565b863561528f81614a8d565b8152868b013561529e81614a8d565b818c0152868501356152af81614a8d565b81860152606087810135908201526080808801359082015260a0808801359082015283529485019491890191615264565b508752505050928401925083016151fc565b600080600080600060a0868803121561530a57600080fd5b85356001600160401b0381111561532057600080fd5b61532c888289016151b8565b955050602086013561533d81614a8d565b9350604086013561534d81614a8d565b94979396509394606081013594506080013592915050565b600080600080600060a0868803121561537d57600080fd5b85356001600160401b0381111561539357600080fd5b8601601f810188136153a457600080fd5b803560206153b4614f8d83614f49565b82815260079290921b8301810191818101908b8411156153d357600080fd5b938201935b8385101561544d576080858d0312156153f15760008081fd5b6153f9614ef7565b61540286614abe565b81528386013561541181614a8d565b8185015260408681013561542481614a8d565b9082015260608681013561543781614a8d565b90820152825260809490940193908201906153d8565b985050880135955050506040860135925061511d60608701614aa5565b6020808252825182820181905260009190848201906040850190845b818110156154a257835183529284019291840191600101615486565b50909695505050505050565b60008060008060008060008060e0898b0312156154ca57600080fd5b88356154d581614a8d565b975060208901356154e581614a8d565b9650604089013595506060890135945060808901356001600160401b0381111561550e57600080fd5b61551a8b828c01614cd1565b90955093505060a089013561552e81614a8d565b8092505060c089013590509295985092959890939650565b600080600080600080600060e0888a03121561556157600080fd5b873561556c81614a8d565b9650602088013561557c81614a8d565b9550604088013594506060880135935060808801356001600160401b038111156155a557600080fd5b6155b18a828b01614f6c565b93505060a0880135614bd481614a8d565b600080600080608085870312156155d857600080fd5b84356001600160401b038111156155ee57600080fd5b6155fa87828801614fd5565b94505060208501359250604085013561561281614a8d565b9396929550929360600135925050565b60008060008060008060c0878903121561563b57600080fd5b86356001600160401b0381111561565157600080fd5b61565d89828a016151b8565b965050602087013561566e81614a8d565b9450604087013561567e81614a8d565b959894975094956060810135955060808101359460a0909101359350915050565b600080600080600080600060e0888a0312156156ba57600080fd5b87356156c581614a8d565b965060208801356156d581614a8d565b9550604088013594506060880135935060808801356156f381614e1d565b925060a088013561570381614e1d565b915060c088013561571381614a8d565b8091505092959891949750929550565b600080600080600080600080610100898b03121561574057600080fd5b883561574b81614a8d565b9750602089013561575b81614a8d565b9650604089013561576b81614a8d565b9550606089013594506080890135935060a0890135925060c089013561579081614a8d565b8092505060e089013590509295985092959890939650565b60008060008060008060008060006101208a8c0312156157c757600080fd5b89356157d281614a8d565b985060208a01356157e281614a8d565b975060408a01356157f281614a8d565b965060608a0135955060808a0135945060a08a0135935060c08a0135925060e08a013561581e81614a8d565b809250506101008a013590509295985092959850929598565b6001600160a01b0397881681529590961660208601526040850193909352606084019190915260ff16608083015260a082015260c081019190915260e00190565b6020808252600f908201526e149bdd5d195c8e8811561412549151608a1b604082015260600190565b634e487b7160e01b600052603260045260246000fd5b6000602082840312156158c957600080fd5b813561368581614a8d565b6000602082840312156158e657600080fd5b5051919050565b60208082526022908201527f526f757465723a20494e53554646494349454e545f4f55545055545f414d4f55604082015261139560f21b606082015260800190565b6001600160a01b03948516815292909316602083015263ffffffff9081166040830152909116606082015260800190565b60006020828403121561597257600080fd5b815161368581614a8d565b634e487b7160e01b600052601160045260246000fd5b6000828210156159a5576159a561597d565b500390565b6000816159b9576159b961597d565b506000190190565b6020808252600f908201526e115610d154d4d2559157d253941555608a1b604082015260600190565b600082198211156159fd576159fd61597d565b500190565b6001600160a01b039586168152938516602085015260408401929092526060830152909116608082015260a00190565b6000600019821415615a4657615a4661597d565b5060010190565b600060a0820160018060a01b038089168452602081891681860152818816604086015286606086015260a0608086015282865180855260c087019150828801945060005b81811015615aaf578551851683529483019491830191600101615a91565b50909b9a5050505050505050505050565b60006020808385031215615ad357600080fd5b82516001600160401b03811115615ae957600080fd5b8301601f81018513615afa57600080fd5b8051615b08614f8d82614f49565b81815260059190911b82018301908381019087831115615b2757600080fd5b928401925b82841015615b4557835182529284019290840190615b2c565b979650505050505050565b6020808252601e908201527f526f757465723a204558434553534956455f494e5055545f414d4f554e540000604082015260600190565b6001600160a01b039384168152919092166020820152604081019190915260600190565b600060ff821660ff84168060ff03821115615bc857615bc861597d565b019392505050565b600060ff821660ff811415615be757615be761597d565b60010192915050565b602080825260139082015272125394d551919250d251539517d3d555141555606a1b604082015260600190565b600060208284031215615c2f57600080fd5b815161368581614ab0565b60008060408385031215615c4d57600080fd5b505080516020909101519092909150565b60008060408385031215615c7157600080fd5b8251615c7c81614a8d565b6020840151909250615c8d81614a8d565b809150509250929050565b6020808252601d908201527f526f757465723a20494e53554646494349454e545f415f414d4f554e54000000604082015260600190565b6020808252601d908201527f526f757465723a20494e53554646494349454e545f425f414d4f554e54000000604082015260600190565b60005b83811015615d21578181015183820152602001615d09565b83811115615d30576000848401525b50505050565b60008251615d48818460208701615d06565b9190910192915050565b6001600160a01b0393841681529183166020830152909116604082015260600190565b60008060008060008060c08789031215615d8e57600080fd5b8651615d9981614a8d565b8096505060208701519450604087015193506060870151615db981614e1d565b6080880151909350615dca81614e1d565b60a0880151909250615ddb81614e1d565b809150509295509295509295565b9586526020860194909452604085019290925263ffffffff908116606085015290811660808401521660a082015260c00190565b84815283602082015260018060a01b03831660408201526080606082015260008251806080840152615e568160a0850160208701615d06565b601f01601f19169190910160a00195945050505050565b6001600160a01b0393841681526020810192909252909116604082015260600190565b6001600160a01b0392909216825260208201526040019056feddac40937f35385a34f721af292e5a83fc5b840f722bff57c2fc71adba708c48a26469706673582212200cf57f52e92063f7aab31e59c66564e55ff64c88d49c712954eb995daabba07864736f6c634300080a0033",
  "devdoc": {
    "kind": "dev",
    "methods": {},
    "version": 1
  },
  "userdoc": {
    "kind": "user",
    "methods": {},
    "version": 1
  },
  "storageLayout": {
    "storage": [],
    "types": null
  }
}