{
  "address": "0xa82fF9aFd8f496c3d6ac40E2a0F282E47488CFc9",
  "abi": [
    {
      "anonymous": false,
      "inputs": [
        {
          "indexed": true,
          "internalType": "address",
          "name": "provider",
          "type": "address"
        },
        {
          "indexed": false,
          "internalType": "uint256[]",
          "name": "token_amounts",
          "type": "uint256[]"
        },
        {
          "indexed": false,
          "internalType": "uint256[]",
          "name": "fees",
          "type": "uint256[]"
        },
        {
          "indexed": false,
          "internalType": "uint256",
          "name": "invariant",
          "type": "uint256"
        },
        {
          "indexed": false,
          "internalType": "uint256",
          "name": "token_supply",
          "type": "uint256"
        }
      ],
      "name": "AddLiquidity",
      "type": "event"
    },
    {
      "anonymous": false,
      "inputs": [
        {
          "indexed": true,
          "internalType": "address",
          "name": "provider",
          "type": "address"
        },
        {
          "indexed": false,
          "internalType": "uint256[]",
          "name": "token_amounts",
          "type": "uint256[]"
        },
        {
          "indexed": false,
          "internalType": "uint256[]",
          "name": "fees",
          "type": "uint256[]"
        },
        {
          "indexed": false,
          "internalType": "uint256",
          "name": "token_supply",
          "type": "uint256"
        }
      ],
      "name": "RemoveLiquidity",
      "type": "event"
    },
    {
      "anonymous": false,
      "inputs": [
        {
          "indexed": true,
          "internalType": "address",
          "name": "provider",
          "type": "address"
        },
        {
          "indexed": false,
          "internalType": "uint256[]",
          "name": "token_amounts",
          "type": "uint256[]"
        },
        {
          "indexed": false,
          "internalType": "uint256[]",
          "name": "fees",
          "type": "uint256[]"
        },
        {
          "indexed": false,
          "internalType": "uint256",
          "name": "invariant",
          "type": "uint256"
        },
        {
          "indexed": false,
          "internalType": "uint256",
          "name": "token_supply",
          "type": "uint256"
        }
      ],
      "name": "RemoveLiquidityImbalance",
      "type": "event"
    },
    {
      "anonymous": false,
      "inputs": [
        {
          "indexed": true,
          "internalType": "address",
          "name": "provider",
          "type": "address"
        },
        {
          "indexed": false,
          "internalType": "uint256",
          "name": "index",
          "type": "uint256"
        },
        {
          "indexed": false,
          "internalType": "uint256",
          "name": "token_amount",
          "type": "uint256"
        },
        {
          "indexed": false,
          "internalType": "uint256",
          "name": "coin_amount",
          "type": "uint256"
        }
      ],
      "name": "RemoveLiquidityOne",
      "type": "event"
    },
    {
      "anonymous": false,
      "inputs": [
        {
          "indexed": true,
          "internalType": "address",
          "name": "buyer",
          "type": "address"
        },
        {
          "indexed": false,
          "internalType": "uint256",
          "name": "sold_id",
          "type": "uint256"
        },
        {
          "indexed": false,
          "internalType": "uint256",
          "name": "tokens_sold",
          "type": "uint256"
        },
        {
          "indexed": false,
          "internalType": "uint256",
          "name": "bought_id",
          "type": "uint256"
        },
        {
          "indexed": false,
          "internalType": "uint256",
          "name": "tokens_bought",
          "type": "uint256"
        }
      ],
      "name": "TokenExchange",
      "type": "event"
    },
    {
      "inputs": [],
      "name": "A_PRECISION",
      "outputs": [
        {
          "internalType": "uint256",
          "name": "",
          "type": "uint256"
        }
      ],
      "stateMutability": "view",
      "type": "function"
    },
    {
      "inputs": [],
      "name": "FEE_DENOMINATOR",
      "outputs": [
        {
          "internalType": "uint256",
          "name": "",
          "type": "uint256"
        }
      ],
      "stateMutability": "view",
      "type": "function"
    },
    {
      "inputs": [],
      "name": "POOL_TOKEN_COMMON_DECIMALS",
      "outputs": [
        {
          "internalType": "uint256",
          "name": "",
          "type": "uint256"
        }
      ],
      "stateMutability": "view",
      "type": "function"
    }
  ],
  "transactionHash": "0xc76462eb2be5e96a50d665106ab7dce9dd73c6f71c7795e138d65692e267b96f",
  "args": [],
  "solcInputHash": "5cda6a8053749c2e75fe3116749689e1",
  "bytecode": "0x6149e361003a600b82828239805160001a60731461002d57634e487b7160e01b600052600060045260246000fd5b30600052607381538281f3fe73000000000000000000000000000000000000000030146080604052600436106101815760003560e01c8063b52e146f116100e2578063c8344c0611610096578063d73792a911610070578063d73792a91461035d578063e2eba89b14610369578063fa5635971461037c57600080fd5b8063c8344c0614610322578063d011f91814610342578063d36604ac1461034a57600080fd5b8063c188e4be116100c7578063c188e4be146102cb578063c20aace8146102ed578063c685696c146102f557600080fd5b8063b52e146f146102a5578063ba2998d9146102b857600080fd5b80637a6cba3c11610139578063a30355851161011e578063a30355851461025f578063aa054aee14610272578063ad30093f1461028557600080fd5b80637a6cba3c1461021f5780638e6da7b61461023f57600080fd5b80631e7e95d31161016a5780631e7e95d3146101cc5780632bfe30d0146101df5780632fcdda4f146101ff57600080fd5b80630da350f614610186578063159763bb146101b9575b600080fd5b81801561019257600080fd5b506101a66101a1366004614293565b61038f565b6040519081526020015b60405180910390f35b6101a66101c73660046142e4565b610784565b6101a66101da366004614418565b61079c565b8180156101eb57600080fd5b506101a66101fa366004614473565b610b09565b81801561020b57600080fd5b506101a661021a366004614293565b610f2a565b81801561022b57600080fd5b506101a661023a3660046144a5565b6112f9565b81801561024b57600080fd5b506101a661025a366004614293565b611a3d565b6101a661026d3660046144f5565b611ca5565b6101a6610280366004614473565b611cb6565b81801561029157600080fd5b506101a66102a0366004614293565b611daf565b6101a66102b33660046144f5565b612088565b6101a66102c6366004614473565b61209f565b8180156102d757600080fd5b506102eb6102e636600461450e565b612190565b005b6101a6601281565b81801561030157600080fd5b50610315610310366004614543565b6121a0565b6040516101b09190614593565b81801561032e57600080fd5b506101a661033d3660046144a5565b6124b5565b6101a6606481565b6101a66103583660046144f5565b612b4c565b6101a66402540be40081565b6101a66103773660046145d7565b612c2b565b61031561038a36600461450e565b612d58565b60008660000186815481106103a6576103a66145f9565b6000918252602090912001546040517f70a0823100000000000000000000000000000000000000000000000000000000815230600482015273ffffffffffffffffffffffffffffffffffffffff909116906370a0823190602401602060405180830381865afa15801561041d573d6000803e3d6000fd5b505050506040513d601f19601f820116820180604052508101906104419190614628565b84886003018881548110610457576104576145f9565b906000526020600020015461046c9190614670565b11156104bf5760405162461bcd60e51b815260206004820152600560248201527f696e70757400000000000000000000000000000000000000000000000000000060448201526064015b60405180910390fd5b60006104ca88612d65565b905060008860020188815481106104e3576104e36145f9565b9060005260206000200154866104f99190614688565b82898151811061050b5761050b6145f9565b602002602001015161051d9190614670565b9050600061052e8a8a8a8587612e13565b9050600181848a81518110610545576105456145f9565b602002602001015161055791906146c5565b61056191906146c5565b935060006402540be4008b600401548661057b9190614688565b61058591906146dc565b90508a600201898154811061059c5761059c6145f9565b906000526020600020015481866105b391906146c5565b6105bd91906146dc565b94508685101561060f5760405162461bcd60e51b815260206004820152600a60248201527f3e20736c6970706167650000000000000000000000000000000000000000000060448201526064016104b6565b60008b6002018a81548110610626576106266145f9565b90600052602060002001546402540be4008d60050154846106479190614688565b61065191906146dc565b61065b91906146dc565b9050888c6003018c81548110610673576106736145f9565b90600052602060002001600082825461068c9190614670565b9091555061069c90508187614670565b8c6003018b815481106106b1576106b16145f9565b9060005260206000200160008282546106ca91906146c5565b9250508190555061071487878e6000018d815481106106eb576106eb6145f9565b60009182526020909120015473ffffffffffffffffffffffffffffffffffffffff16919061309d565b604080518c8152602081018b90529081018b90526060810187905273ffffffffffffffffffffffffffffffffffffffff8816907fb2e76ae99761dc136e598d4a629bb347eccb9532a5f8bbd72e18467c3c34cc98906080015b60405180910390a250505050509695505050505050565b600061079285858585613171565b5095945050505050565b825482516000919081146107f25760405162461bcd60e51b815260206004820152601460248201527f696e76616c6964416d6f756e74734c656e67746800000000000000000000000060448201526064016104b6565b60006107fd866134d6565b9050600061081361080d88612d65565b836135af565b905060008760030180548060200260200160405190810160405280929190818152602001828054801561086557602002820191906000526020600020905b815481526020019060010190808311610851575b5050505050905060005b8481101561091b5786156108c55787818151811061088f5761088f6145f9565b60200260200101518282815181106108a9576108a96145f9565b602002602001018181516108bd9190614670565b905250610909565b8781815181106108d7576108d76145f9565b60200260200101518282815181106108f1576108f16145f9565b6020026020010181815161090591906146c5565b9052505b8061091381614717565b91505061086f565b50600061098361097d838b60020180548060200260200160405190810160405280929190818152602001828054801561097357602002820191906000526020600020905b81548152602001906001019080831161095f575b505050505061374b565b856135af565b905060008960010160009054906101000a900473ffffffffffffffffffffffffffffffffffffffff1673ffffffffffffffffffffffffffffffffffffffff166318160ddd6040518163ffffffff1660e01b8152600401602060405180830381865afa1580156109f6573d6000803e3d6000fd5b505050506040513d601f19601f82011682018060405250810190610a1a9190614628565b905080610a2e57509450610b029350505050565b600088610a4457610a3f83866146c5565b610a4e565b610a4e85846146c5565b9050848b60010160009054906101000a900473ffffffffffffffffffffffffffffffffffffffff1673ffffffffffffffffffffffffffffffffffffffff166318160ddd6040518163ffffffff1660e01b8152600401602060405180830381865afa158015610ac0573d6000803e3d6000fd5b505050506040513d601f19601f82011682018060405250810190610ae49190614628565b610aee9083614688565b610af891906146dc565b9750505050505050505b9392505050565b6000808560010160009054906101000a900473ffffffffffffffffffffffffffffffffffffffff1673ffffffffffffffffffffffffffffffffffffffff166318160ddd6040518163ffffffff1660e01b8152600401602060405180830381865afa158015610b7b573d6000803e3d6000fd5b505050506040513d601f19601f82011682018060405250810190610b9f9190614628565b905060008111610bf15760405162461bcd60e51b815260206004820152600f60248201527f746f74616c537570706c79203d2030000000000000000000000000000000000060448201526064016104b6565b855460018701546040517f70a0823100000000000000000000000000000000000000000000000000000000815233600482015273ffffffffffffffffffffffffffffffffffffffff909116906370a0823190602401602060405180830381865afa158015610c63573d6000803e3d6000fd5b505050506040513d601f19601f82011682018060405250810190610c879190614628565b861115610cd65760405162461bcd60e51b815260206004820152600960248201527f3e2062616c616e6365000000000000000000000000000000000000000000000060448201526064016104b6565b81861115610d265760405162461bcd60e51b815260206004820152600d60248201527f3e20746f74616c537570706c790000000000000000000000000000000000000060448201526064016104b6565b808510610d755760405162461bcd60e51b815260206004820152600d60248201527f746f6b656e4e6f74466f756e640000000000000000000000000000000000000060448201526064016104b6565b600080610d8489338a8a613171565b9250905085811015610dd85760405162461bcd60e51b815260206004820152600a60248201527f3e20736c6970706167650000000000000000000000000000000000000000000060448201526064016104b6565b6402540be400896005015483610dee9190614688565b610df891906146dc565b610e029082614670565b896003018881548110610e1757610e176145f9565b906000526020600020016000828254610e3091906146c5565b909155505060018901546040517f79cc6790000000000000000000000000000000000000000000000000000000008152336004820152602481018a905273ffffffffffffffffffffffffffffffffffffffff909116906379cc679090604401600060405180830381600087803b158015610ea957600080fd5b505af1158015610ebd573d6000803e3d6000fd5b50505050610edb33828b6000018a815481106106eb576106eb6145f9565b60408051888152602081018a905290810182905233907f5ad056f2e28a8cec232015406b843668c1e36cda598127ec3b8c59b8c72773a09060600160405180910390a298975050505050505050565b6000866000018681548110610f4157610f416145f9565b6000918252602090912001546040517f70a0823100000000000000000000000000000000000000000000000000000000815230600482015273ffffffffffffffffffffffffffffffffffffffff909116906370a0823190602401602060405180830381865afa158015610fb8573d6000803e3d6000fd5b505050506040513d601f19601f82011682018060405250810190610fdc9190614628565b84886003018881548110610ff257610ff26145f9565b90600052602060002001546110079190614670565b146110545760405162461bcd60e51b815260206004820152600560248201527f696e70757400000000000000000000000000000000000000000000000000000060448201526064016104b6565b60006110816110686402540be40086614688565b60048a015461107c906402540be4006146c5565b6137ce565b9050600061108e896134d6565b9050600061109e61080d8b612d65565b905060008a6003018054806020026020016040519081016040528092919081815260200182805480156110f057602002820191906000526020600020905b8154815260200190600101908083116110dc575b5050505050905087818b8151811061110a5761110a6145f9565b6020026020010181815161111e9190614670565b9052508051849082908b908110611137576111376145f9565b6020026020010181815161114b91906146c5565b9150818152505060006111b161097d838e600201805480602002602001604051908101604052809291908181526020018280548015610973576020028201919060005260206000209081548152602001906001019080831161095f57505050505061374b565b9050828110156112035760405162461bcd60e51b815260206004820152600960248201527f696e76617269616e74000000000000000000000000000000000000000000000060448201526064016104b6565b888c6003018c81548110611219576112196145f9565b9060005260206000200160008282546112329190614670565b92505081905550848c6003018b8154811061124f5761124f6145f9565b90600052602060002001600082825461126891906146c5565b9250508190555061128987868e6000018d815481106106eb576106eb6145f9565b604080518c8152602081018b90529081018b90526060810186905273ffffffffffffffffffffffffffffffffffffffff8816907fb2e76ae99761dc136e598d4a629bb347eccb9532a5f8bbd72e18467c3c34cc989060800160405180910390a250959a9950505050505050505050565b8254825160009190811461134f5760405162461bcd60e51b815260206004820152601460248201527f696e76616c6964416d6f756e74734c656e67746800000000000000000000000060448201526064016104b6565b60008167ffffffffffffffff81111561136a5761136a61431f565b604051908082528060200260200182016040528015611393578160200160208202803683370190505b50905060006113a187613827565b905060008760010160009054906101000a900473ffffffffffffffffffffffffffffffffffffffff1673ffffffffffffffffffffffffffffffffffffffff166318160ddd6040518163ffffffff1660e01b8152600401602060405180830381865afa158015611414573d6000803e3d6000fd5b505050506040513d601f19601f820116820180604052508101906114389190614628565b90506000611445896134d6565b905060008215611501576114fe61080d8b6003018054806020026020016040519081016040528092919081815260200182805480156114a357602002820191906000526020600020905b81548152602001906001019080831161148f575b50505050508c600201805480602002602001604051908101604052809291908181526020018280548015610973576020028201919060005260206000209081548152602001906001019080831161095f57505050505061374b565b90505b60008a60030180548060200260200160405190810160405280929190818152602001828054801561155157602002820191906000526020600020905b81548152602001906001019080831161153d575b5050505050905060005b8781101561166e57846115d15760008b828151811061157c5761157c6145f9565b6020026020010151116115d15760405162461bcd60e51b815260206004820152601e60248201527f696e697469616c4465706f73697452657175697265416c6c546f6b656e73000060448201526064016104b6565b6116338c60000182815481106115e9576115e96145f9565b9060005260206000200160009054906101000a900473ffffffffffffffffffffffffffffffffffffffff168c8381518110611626576116266145f9565b602002602001015161385c565b828281518110611645576116456145f9565b602002602001018181516116599190614670565b9052508061166681614717565b91505061155b565b5060006116ce61097d838e600201805480602002602001604051908101604052809291908181526020018280548015610973576020028201919060005260206000209081548152602001906001019080831161095f57505050505061374b565b90508281116116df576116df614750565b846117025781516116f99060038e0190602085019061420a565b508098506118fe565b6000805b8981101561187557611766858f6003018381548110611727576117276145f9565b90600052602060002001548561173d9190614688565b61174791906146dc565b858381518110611759576117596145f9565b60200260200101516139ad565b91506402540be400611778838a614688565b61178291906146dc565b898281518110611794576117946145f9565b6020026020010181815250506402540be4008e600501548a83815181106117bd576117bd6145f9565b60200260200101516117cf9190614688565b6117d991906146dc565b8482815181106117eb576117eb6145f9565b60200260200101516117fd91906146c5565b8e6003018281548110611812576118126145f9565b9060005260206000200181905550888181518110611832576118326145f9565b602002602001015184828151811061184c5761184c6145f9565b6020026020010181815161186091906146c5565b9052508061186d81614717565b915050611706565b506118d96118d3848f600201805480602002602001604051908101604052809291908181526020018280548015610973576020028201919060005260206000209081548152602001906001019080831161095f57505050505061374b565b866135af565b9150836118e681846146c5565b6118f09088614688565b6118fa91906146dc565b9950505b8989101561194e5760405162461bcd60e51b815260206004820152600a60248201527f3e20736c6970706167650000000000000000000000000000000000000000000060448201526064016104b6565b60018c01546040517f40c10f19000000000000000000000000000000000000000000000000000000008152336004820152602481018b905273ffffffffffffffffffffffffffffffffffffffff909116906340c10f1990604401600060405180830381600087803b1580156119c257600080fd5b505af11580156119d6573d6000803e3d6000fd5b505050503373ffffffffffffffffffffffffffffffffffffffff167f189c623b666b1b45b83d7178f39b8c087cb09774317ca2f53c2d3c3726f222a28c89848d604051611a2694939291906147ba565b60405180910390a250505050505050509392505050565b600080611a4988612d65565b90506000611a73611a5f6402540be40088614688565b60048b015461107c906402540be4006146c5565b90506000896002018881548110611a8c57611a8c6145f9565b906000526020600020015482611aa29190614688565b838981518110611ab457611ab46145f9565b6020026020010151611ac691906146c5565b90506000611ad78b8a8c8588612e13565b9050838a81518110611aeb57611aeb6145f9565b602002602001015181611afe91906146c5565b94508a6002018a81548110611b1557611b156145f9565b906000526020600020015485611b2b91906146dc565b945086851115611b7d5760405162461bcd60e51b815260206004820152600a60248201527f3e20736c6970706167650000000000000000000000000000000000000000000060448201526064016104b6565b848b6003018b81548110611b9357611b936145f9565b906000526020600020016000828254611bac91906146c5565b92505081905550828b6003018a81548110611bc957611bc96145f9565b906000526020600020016000828254611be291906146c5565b90915550508a546000908c908c908110611bfe57611bfe6145f9565b60009182526020909120015473ffffffffffffffffffffffffffffffffffffffff169050611c2c818761385c565b9550611c48878a8e6000018d815481106106eb576106eb6145f9565b604080518c8152602081018890529081018b9052606081018a905273ffffffffffffffffffffffffffffffffffffffff8816907fb2e76ae99761dc136e598d4a629bb347eccb9532a5f8bbd72e18467c3c34cc989060800161076d565b6000611cb0826134d6565b92915050565b600080611cc286612d65565b90506000611cec611cd86402540be40086614688565b600489015461107c906402540be4006146c5565b90506000876002018681548110611d0557611d056145f9565b906000526020600020015482611d1b9190614688565b838781518110611d2d57611d2d6145f9565b6020026020010151611d3f91906146c5565b90506000611d5089888a8588612e13565b90506000611da1858a81518110611d6957611d696145f9565b602002602001015183611d7c91906146c5565b8b6002018b81548110611d9157611d916145f9565b90600052602060002001546139cf565b9a9950505050505050505050565b600080876000018781548110611dc757611dc76145f9565b600091825260208220015473ffffffffffffffffffffffffffffffffffffffff169150611df389612d65565b9050611dff828761385c565b95506000611e5e8a8a8a8d6002018d81548110611e1e57611e1e6145f9565b90600052602060002001548b611e349190614688565b868e81518110611e4657611e466145f9565b6020026020010151611e589190614670565b86612e13565b90506000600182848b81518110611e7757611e776145f9565b6020026020010151611e8991906146c5565b611e9391906146c5565b905060006402540be4008c6004015483611ead9190614688565b611eb791906146dc565b90508b6002018a81548110611ece57611ece6145f9565b90600052602060002001548183611ee591906146c5565b611eef91906146dc565b915087821015611f415760405162461bcd60e51b815260206004820152600a60248201527f3e20736c6970706167650000000000000000000000000000000000000000000060448201526064016104b6565b888c6003018c81548110611f5757611f576145f9565b906000526020600020016000828254611f709190614670565b909155505060028c0180548b908110611f8b57611f8b6145f9565b90600052602060002001546402540be4008d6005015483611fac9190614688565b611fb691906146dc565b611fc091906146dc565b611fca9083614670565b8c6003018b81548110611fdf57611fdf6145f9565b906000526020600020016000828254611ff891906146c5565b9250508190555061201987838e6000018d815481106106eb576106eb6145f9565b604080518c8152602081018b90529081018b90526060810183905273ffffffffffffffffffffffffffffffffffffffff8816907fb2e76ae99761dc136e598d4a629bb347eccb9532a5f8bbd72e18467c3c34cc989060800160405180910390a2509a9950505050505050505050565b60006064612095836134d6565b611cb091906146dc565b6000806120ab86612d65565b905060008660020186815481106120c4576120c46145f9565b9060005260206000200154846120da9190614688565b8287815181106120ec576120ec6145f9565b60200260200101516120fe9190614670565b9050600061210f8888888587612e13565b9050600061216082858981518110612129576121296145f9565b602002602001015161213b91906146c5565b8a6002018981548110612150576121506145f9565b90600052602060002001546137ce565b905060006402540be400828b6004015461217a9190614688565b61218491906146dc565b9050611da181836146c5565b61219b838383613a53565b505050565b606060008460010160009054906101000a900473ffffffffffffffffffffffffffffffffffffffff1673ffffffffffffffffffffffffffffffffffffffff166318160ddd6040518163ffffffff1660e01b8152600401602060405180830381865afa158015612213573d6000803e3d6000fd5b505050506040513d601f19601f820116820180604052508101906122379190614628565b90508084111561224657600080fd5b845460008167ffffffffffffffff8111156122635761226361431f565b60405190808252806020026020018201604052801561228c578160200160208202803683370190505b50905061229a873388613c29565b935060005b84518110156123d6578581815181106122ba576122ba6145f9565b60200260200101518582815181106122d4576122d46145f9565b6020026020010151101561232a5760405162461bcd60e51b815260206004820152600a60248201527f3e20736c6970706167650000000000000000000000000000000000000000000060448201526064016104b6565b84818151811061233c5761233c6145f9565b6020026020010151886003018281548110612359576123596145f9565b906000526020600020015461236e91906146c5565b886003018281548110612383576123836145f9565b90600052602060002001819055506123c4338683815181106123a7576123a76145f9565b60200260200101518a60000184815481106106eb576106eb6145f9565b806123ce81614717565b91505061229f565b5060018701546040517f79cc67900000000000000000000000000000000000000000000000000000000081523360048201526024810188905273ffffffffffffffffffffffffffffffffffffffff909116906379cc679090604401600060405180830381600087803b15801561244b57600080fd5b505af115801561245f573d6000803e3d6000fd5b503392507f347ad828e58cbe534d8f6b67985d791360756b18f0d95fd9f197a66cc46480ea9150869050836124948a886146c5565b6040516124a3939291906147f3565b60405180910390a25050509392505050565b8254825160009190811461250b5760405162461bcd60e51b815260206004820152601460248201527f696e76616c6964416d6f756e74734c656e67746800000000000000000000000060448201526064016104b6565b6001850154604080517f18160ddd000000000000000000000000000000000000000000000000000000008152905160009273ffffffffffffffffffffffffffffffffffffffff16916318160ddd9160048083019260209291908290030181865afa15801561257d573d6000803e3d6000fd5b505050506040513d601f19601f820116820180604052508101906125a19190614628565b9050806125f05760405162461bcd60e51b815260206004820152600f60248201527f746f74616c537570706c79203d2030000000000000000000000000000000000060448201526064016104b6565b60006125fb87613827565b90506000612608886134d6565b905060008860030180548060200260200160405190810160405280929190818152602001828054801561265a57602002820191906000526020600020905b815481526020019060010190808311612646575b50505050509050600061267561266f8b612d65565b846135af565b905060005b868110156126d757898181518110612694576126946145f9565b60200260200101518382815181106126ae576126ae6145f9565b602002602001018181516126c291906146c5565b905250806126cf81614717565b91505061267a565b50600061273761097d848d600201805480602002602001604051908101604052809291908181526020018280548015610973576020028201919060005260206000209081548152602001906001019080831161095f57505050505061374b565b905060008767ffffffffffffffff8111156127545761275461431f565b60405190808252806020026020018201604052801561277d578160200160208202803683370190505b50905060005b888110156128fd576000848e60030183815481106127a3576127a36145f9565b9060005260206000200154856127b99190614688565b6127c391906146dc565b905060006127ea8784815181106127dc576127dc6145f9565b6020026020010151836139ad565b90506402540be4006127fc828b614688565b61280691906146dc565b848481518110612818576128186145f9565b6020026020010181815250506402540be4008f60050154858581518110612841576128416145f9565b60200260200101516128539190614688565b61285d91906146dc565b87848151811061286f5761286f6145f9565b602002602001015161288191906146c5565b8f6003018481548110612896576128966145f9565b90600052602060002001819055508383815181106128b6576128b66145f9565b60200260200101518784815181106128d0576128d06145f9565b602002602001018181516128e491906146c5565b9052508291506128f5905081614717565b915050612783565b5061295b6118d3858e600201805480602002602001604051908101604052809291908181526020018280548015610973576020028201919060005260206000209081548152602001906001019080831161095f57505050505061374b565b9150828761296984836146c5565b6129739190614688565b61297d91906146dc565b98506000891161298f5761298f614750565b6129998c33613e0f565b6129a8906402540be4006146c5565b6129b38a6001614670565b6129bd9190614688565b985089891115612a0f5760405162461bcd60e51b815260206004820152600a60248201527f3e20736c6970706167650000000000000000000000000000000000000000000060448201526064016104b6565b60018c01546040517f79cc6790000000000000000000000000000000000000000000000000000000008152336004820152602481018b905273ffffffffffffffffffffffffffffffffffffffff909116906379cc679090604401600060405180830381600087803b158015612a8357600080fd5b505af1158015612a97573d6000803e3d6000fd5b5050505060005b88811015612b0c578b8181518110612ab857612ab86145f9565b6020026020010151600014612afa57612afa338d8381518110612add57612add6145f9565b60200260200101518f60000184815481106106eb576106eb6145f9565b80612b0481614717565b915050612a9e565b50337f3631c28b1f9dd213e0319fb167b554d76b6c283a41143eb400a0d1adb1af17558c8385612b3c8e8d6146c5565b604051611a2694939291906147ba565b600080612b69612b5b84612d65565b612b64856134d6565b6135af565b905060008360010160009054906101000a900473ffffffffffffffffffffffffffffffffffffffff1673ffffffffffffffffffffffffffffffffffffffff166318160ddd6040518163ffffffff1660e01b8152600401602060405180830381865afa158015612bdc573d6000803e3d6000fd5b505050506040513d601f19601f82011682018060405250810190612c009190614628565b905080612c0f6012600a614949565b612c199084614688565b612c2391906146dc565b949350505050565b81546000908210612c7e5760405162461bcd60e51b815260206004820152600f60248201527f696e6465784f75744f6652616e6765000000000000000000000000000000000060448201526064016104b6565b826003018281548110612c9357612c936145f9565b9060005260206000200154836000018381548110612cb357612cb36145f9565b6000918252602090912001546040517f70a0823100000000000000000000000000000000000000000000000000000000815230600482015273ffffffffffffffffffffffffffffffffffffffff909116906370a0823190602401602060405180830381865afa158015612d2a573d6000803e3d6000fd5b505050506040513d601f19601f82011682018060405250810190612d4e9190614628565b610b0291906146c5565b6060612c23848484613c29565b6060611cb082600301805480602002602001604051908101604052809291908181526020018280548015612db857602002820191906000526020600020905b815481526020019060010190808311612da4575b505050505083600201805480602002602001604051908101604052809291908181526020018280548015610973576020028201919060005260206000209081548152602001906001019080831161095f57505050505061374b565b600083851415612e655760405162461bcd60e51b815260206004820152600960248201527f73616d65546f6b656e000000000000000000000000000000000000000000000060448201526064016104b6565b85548086108015612e7557508085105b612ec15760405162461bcd60e51b815260206004820152600f60248201527f696e6465784f75744f6652616e6765000000000000000000000000000000000060448201526064016104b6565b6000612ecc886134d6565b90506000612eda8383614688565b90506000612ee886846135af565b9050600081815b86811015612f70578a811415612f0457612f5e565b60008c8214612f2c57898281518110612f1f57612f1f6145f9565b6020026020010151612f2e565b8a5b9050612f3a8185614670565b9350612f468882614688565b612f508685614688565b612f5a91906146dc565b9250505b80612f6881614717565b915050612eef565b50612f7b8685614688565b6064612f878584614688565b612f919190614688565b612f9b91906146dc565b9050600084612fab606486614688565b612fb591906146dc565b612fbf9084614670565b9050600084815b61010081101561304b578192508684836002612fe29190614688565b612fec9190614670565b612ff691906146c5565b856130018480614688565b61300b9190614670565b61301591906146dc565b9150600161302384846139ad565b1161303957509850613094975050505050505050565b8061304381614717565b915050612fc6565b5060405162461bcd60e51b815260206004820152601260248201527f7943616c63756c6174696f6e4661696c6564000000000000000000000000000060448201526064016104b6565b95945050505050565b60405173ffffffffffffffffffffffffffffffffffffffff831660248201526044810182905261219b9084907fa9059cbb00000000000000000000000000000000000000000000000000000000906064015b604080517fffffffffffffffffffffffffffffffffffffffffffffffffffffffffffffffe08184030181529190526020810180517bffffffffffffffffffffffffffffffffffffffffffffffffffffffff167fffffffff0000000000000000000000000000000000000000000000000000000090931692909217909152613ed5565b8354600090819083106131c65760405162461bcd60e51b815260206004820152600f60248201527f696e6465784f75744f6652616e6765000000000000000000000000000000000060448201526064016104b6565b60006131d1876134d6565b905060006131de88612d65565b905060006131ec82846135af565b905060008960010160009054906101000a900473ffffffffffffffffffffffffffffffffffffffff1673ffffffffffffffffffffffffffffffffffffffff166318160ddd6040518163ffffffff1660e01b8152600401602060405180830381865afa15801561325f573d6000803e3d6000fd5b505050506040513d601f19601f820116820180604052508101906132839190614628565b61328d838a614688565b61329791906146dc565b6132a190836146c5565b905060006132b28b868a8786613f87565b90508360006132c08d613827565b905060005b8d548110156133c85760008b82141561331a578487878a85815181106132ed576132ed6145f9565b60200260200101516132ff9190614688565b61330991906146dc565b61331391906146c5565b9050613371565b868689848151811061332e5761332e6145f9565b60200260200101516133409190614688565b61334a91906146dc565b88838151811061335c5761335c6145f9565b602002602001015161336e91906146c5565b90505b6402540be4006133818285614688565b61338b91906146dc565b84838151811061339d5761339d6145f9565b602002602001018181516133b191906146c5565b9052508190506133c081614717565b9150506132c5565b506133d68d888c8588613f87565b828b815181106133e8576133e86145f9565b60200260200101516133fa91906146c5565b98508c6002018a81548110613411576134116145f9565b906000526020600020015460018a61342991906146c5565b61343391906146dc565b9850888d6002018b8154811061344b5761344b6145f9565b906000526020600020015484888d81518110613469576134696145f9565b602002602001015161347b91906146c5565b61348591906146dc565b61348f91906146c5565b97506402540be4006134a18e8e613e0f565b6134b0906402540be4006146c5565b6134ba908b614688565b6134c491906146dc565b98505050505050505094509492505050565b6000816009015442106134eb57506007015490565b816006015482600701541115613555578160080154826009015461350f91906146c5565b600883015461351e90426146c5565b8360060154846007015461353291906146c5565b61353c9190614688565b61354691906146dc565b8260060154611cb09190614670565b8160080154826009015461356991906146c5565b600883015461357890426146c5565b8360070154846006015461358c91906146c5565b6135969190614688565b6135a091906146dc565b8260060154611cb091906146c5565b8151600090816135be856140fb565b9050806135d057600092505050611cb0565b600081816135de8588614688565b905060005b610100811015613702578260005b8a5181101561364757878b828151811061360d5761360d6145f9565b602002602001015161361f9190614688565b6136298684614688565b61363391906146dc565b91508061363f81614717565b9150506135f1565b50839450808760016136599190614670565b6136639190614688565b60648561367082876146c5565b61367a9190614688565b61368491906146dc565b61368e9190614670565b846136998984614688565b60646136a58a88614688565b6136af91906146dc565b6136b99190614670565b6136c39190614688565b6136cd91906146dc565b935060016136db85876139ad565b116136ef5783975050505050505050611cb0565b50806136fa81614717565b9150506135e3565b5060405162461bcd60e51b815260206004820152601a60248201527f696e76617269616e7443616c63756c6174696f6e4661696c656400000000000060448201526064016104b6565b606060005b83518110156137c65783818151811061376b5761376b6145f9565b6020026020010151838281518110613785576137856145f9565b60200260200101516137979190614688565b8382815181106137a9576137a96145f9565b6020908102919091010152806137be81614717565b915050613750565b509092915050565b60008161381d5760405162461bcd60e51b815260206004820152600d60248201527f5a45524f5f4449564953494f4e0000000000000000000000000000000000000060448201526064016104b6565b610b0282846146dc565b80546000906138376001826146c5565b613842906004614688565b8184600401546138529190614688565b610b0291906146dc565b6040517f70a08231000000000000000000000000000000000000000000000000000000008152306004820152600090819073ffffffffffffffffffffffffffffffffffffffff8516906370a0823190602401602060405180830381865afa1580156138cb573d6000803e3d6000fd5b505050506040513d601f19601f820116820180604052508101906138ef9190614628565b905061391373ffffffffffffffffffffffffffffffffffffffff8516333086614147565b6040517f70a08231000000000000000000000000000000000000000000000000000000008152306004820152819073ffffffffffffffffffffffffffffffffffffffff8616906370a0823190602401602060405180830381865afa15801561397f573d6000803e3d6000fd5b505050506040513d601f19601f820116820180604052508101906139a39190614628565b612c2391906146c5565b60008183116139c5576139c083836146c5565b610b02565b610b0282846146c5565b600081613a1e5760405162461bcd60e51b815260206004820152600d60248201527f5a45524f5f4449564953494f4e0000000000000000000000000000000000000060448201526064016104b6565b82613a2b57506000611cb0565b81613a376001856146c5565b613a4191906146dc565b613a4c906001614670565b9050611cb0565b73ffffffffffffffffffffffffffffffffffffffff8216613a7357505050565b600a830154613ab05773ffffffffffffffffffffffffffffffffffffffff82166000908152600c8401602052604090206402540be4009055613bfc565b6000613abc8484613e0f565b60018501546040517f70a0823100000000000000000000000000000000000000000000000000000000815273ffffffffffffffffffffffffffffffffffffffff8681166004830152929350600092909116906370a0823190602401602060405180830381865afa158015613b34573d6000803e3d6000fd5b505050506040513d601f19601f82011682018060405250810190613b589190614628565b600a860154909150613b6a8285614670565b613b749190614688565b15613bf957600a850154613b888285614670565b613b929190614688565b6402540be40086600a015485613ba89190614688565b613bb28585614688565b613bbc9190614670565b613bc69190614688565b613bd091906146dc565b73ffffffffffffffffffffffffffffffffffffffff85166000908152600c870160205260409020555b50505b5073ffffffffffffffffffffffffffffffffffffffff166000908152600b90910160205260409020429055565b606060008460010160009054906101000a900473ffffffffffffffffffffffffffffffffffffffff1673ffffffffffffffffffffffffffffffffffffffff166318160ddd6040518163ffffffff1660e01b8152600401602060405180830381865afa158015613c9c573d6000803e3d6000fd5b505050506040513d601f19601f82011682018060405250810190613cc09190614628565b905080831115613d125760405162461bcd60e51b815260206004820152601a60248201527f43616e6e6f742065786365656420746f74616c20737570706c7900000000000060448201526064016104b6565b60006402540be400613d248787613e0f565b613d33906402540be4006146c5565b613d3d9086614688565b613d4791906146dc565b865490915060009067ffffffffffffffff811115613d6757613d6761431f565b604051908082528060200260200182016040528015613d90578160200160208202803683370190505b50905060005b8754811015613e04578383896003018381548110613db657613db66145f9565b9060005260206000200154613dcb9190614688565b613dd591906146dc565b828281518110613de757613de76145f9565b602090810291909101015280613dfc81614717565b915050613d96565b509695505050505050565b73ffffffffffffffffffffffffffffffffffffffff81166000908152600b830160205260408120548190613e46906224ea00614670565b905042811115613ecb576000613e5c42836146c5565b73ffffffffffffffffffffffffffffffffffffffff85166000908152600c87016020526040902054600a8701549192506402540be400916224ea00918491613ea49190614688565b613eae9190614688565b613eb891906146dc565b613ec291906146dc565b92505050611cb0565b5060009392505050565b6000808373ffffffffffffffffffffffffffffffffffffffff1683604051613efd9190614955565b6000604051808303816000865af19150503d8060008114613f3a576040519150601f19603f3d011682016040523d82523d6000602084013e613f3f565b606091505b50915091506000821415613f57573d6000803e3d6000fd5b613f81815160001480613f79575081806020019051810190613f799190614990565b6101a26141a5565b50505050565b8454600090808510613f9b57613f9b614750565b6000613fa78288614688565b90508360008080805b86811015614022578a811415613fc557614010565b898181518110613fd757613fd76145f9565b602002602001015192508284613fed9190614670565b9350613ff98784614688565b6140038a87614688565b61400d91906146dc565b94505b8061401a81614717565b915050613fb0565b5061402d8686614688565b60646140398a87614688565b6140439190614688565b61404d91906146dc565b935060008561405d60648b614688565b61406791906146dc565b6140719085614670565b90508860005b610100811015613702578193508a838360026140939190614688565b61409d9190614670565b6140a791906146c5565b876140b28480614688565b6140bc9190614670565b6140c691906146dc565b915060016140d485846139ad565b116140e9575097506130949650505050505050565b806140f381614717565b915050614077565b6000805b82518110156141415782818151811061411a5761411a6145f9565b60200260200101518261412d9190614670565b91508061413981614717565b9150506140ff565b50919050565b60405173ffffffffffffffffffffffffffffffffffffffff80851660248301528316604482015260648101829052613f819085907f23b872dd00000000000000000000000000000000000000000000000000000000906084016130ef565b816141b3576141b3816141b7565b5050565b62461bcd60e51b6000908152602060045260076024526652455123000030600a808404818106603090810160081b95839006959095019082900491820690940160101b939093010160c81b604452606490fd5b828054828255906000526020600020908101928215614245579160200282015b8281111561424557825182559160200191906001019061422a565b50614251929150614255565b5090565b5b808211156142515760008155600101614256565b803573ffffffffffffffffffffffffffffffffffffffff8116811461428e57600080fd5b919050565b60008060008060008060c087890312156142ac57600080fd5b86359550602087013594506040870135935060608701359250608087013591506142d860a0880161426a565b90509295509295509295565b600080600080608085870312156142fa57600080fd5b8435935061430a6020860161426a565b93969395505050506040820135916060013590565b7f4e487b7100000000000000000000000000000000000000000000000000000000600052604160045260246000fd5b600082601f83011261435f57600080fd5b8135602067ffffffffffffffff8083111561437c5761437c61431f565b8260051b6040517fffffffffffffffffffffffffffffffffffffffffffffffffffffffffffffffe0603f830116810181811084821117156143bf576143bf61431f565b6040529384528581018301938381019250878511156143dd57600080fd5b83870191505b848210156143fc578135835291830191908301906143e3565b979650505050505050565b801515811461441557600080fd5b50565b60008060006060848603121561442d57600080fd5b83359250602084013567ffffffffffffffff81111561444b57600080fd5b6144578682870161434e565b925050604084013561446881614407565b809150509250925092565b6000806000806080858703121561448957600080fd5b5050823594602084013594506040840135936060013592509050565b6000806000606084860312156144ba57600080fd5b83359250602084013567ffffffffffffffff8111156144d857600080fd5b6144e48682870161434e565b925050604084013590509250925092565b60006020828403121561450757600080fd5b5035919050565b60008060006060848603121561452357600080fd5b833592506145336020850161426a565b9150604084013590509250925092565b60008060006060848603121561455857600080fd5b8335925060208401359150604084013567ffffffffffffffff81111561457d57600080fd5b6145898682870161434e565b9150509250925092565b6020808252825182820181905260009190848201906040850190845b818110156145cb578351835292840192918401916001016145af565b50909695505050505050565b600080604083850312156145ea57600080fd5b50508035926020909101359150565b7f4e487b7100000000000000000000000000000000000000000000000000000000600052603260045260246000fd5b60006020828403121561463a57600080fd5b5051919050565b7f4e487b7100000000000000000000000000000000000000000000000000000000600052601160045260246000fd5b6000821982111561468357614683614641565b500190565b6000817fffffffffffffffffffffffffffffffffffffffffffffffffffffffffffffffff04831182151516156146c0576146c0614641565b500290565b6000828210156146d7576146d7614641565b500390565b600082614712577f4e487b7100000000000000000000000000000000000000000000000000000000600052601260045260246000fd5b500490565b60007fffffffffffffffffffffffffffffffffffffffffffffffffffffffffffffffff82141561474957614749614641565b5060010190565b7f4e487b7100000000000000000000000000000000000000000000000000000000600052600160045260246000fd5b600081518084526020808501945080840160005b838110156147af57815187529582019590820190600101614793565b509495945050505050565b6080815260006147cd608083018761477f565b82810360208401526147df818761477f565b604084019590955250506060015292915050565b606081526000614806606083018661477f565b8281036020840152614818818661477f565b915050826040830152949350505050565b600181815b8085111561488257817fffffffffffffffffffffffffffffffffffffffffffffffffffffffffffffffff0482111561486857614868614641565b8085161561487557918102915b93841c939080029061482e565b509250929050565b60008261489957506001611cb0565b816148a657506000611cb0565b81600181146148bc57600281146148c6576148e2565b6001915050611cb0565b60ff8411156148d7576148d7614641565b50506001821b611cb0565b5060208310610133831016604e8410600b8410161715614905575081810a611cb0565b61490f8383614829565b807fffffffffffffffffffffffffffffffffffffffffffffffffffffffffffffffff0482111561494157614941614641565b029392505050565b6000610b02838361488a565b6000825160005b81811015614976576020818601810151858301520161495c565b81811115614985576000828501525b509190910192915050565b6000602082840312156149a257600080fd5b8151610b028161440756fea264697066735822122039b63feceb100db005ce8f089e1d27a5dada3a78eae5f03c3647d8fff1ba9d3a64736f6c634300080a0033",
  "devdoc": {
    "kind": "dev",
    "methods": {
      "_swap(RequiemStableSwapLib.SwapStorage storage,uint256,uint256,uint256,uint256,address)": {
        "params": {
          "i": "token in index",
          "inAmount": "exact in amount, povided or calculated using outAmount",
          "j": "token out index",
          "outAmount": "exact out amount, povided or calculated using inAmount"
        }
      },
      "addLiquidity(RequiemStableSwapLib.SwapStorage storage,uint256[],uint256)": {
        "params": {
          "amounts": "List of amounts of coins to deposit",
          "minMintAmount": "Minimum amount of LP tokens to mint from the deposit"
        },
        "returns": {
          "mintAmount": "Amount of LP tokens received by depositing"
        }
      },
      "onSwapGivenIn(RequiemStableSwapLib.SwapStorage storage,uint256,uint256,uint256,uint256,address)": {
        "params": {
          "i": "token index in",
          "j": "token index out"
        }
      },
      "onSwapGivenOut(RequiemStableSwapLib.SwapStorage storage,uint256,uint256,uint256,uint256,address)": {
        "params": {
          "i": "token index in",
          "j": "token index out"
        }
      },
      "updateUserWithdrawFee(RequiemStableSwapLib.SwapStorage storage,address,uint256)": {
        "params": {
          "self": "Swap struct to read from and write to",
          "toMint": "amount of pool tokens to be minted",
          "user": "address of the user depositing tokens"
        }
      }
    },
    "stateVariables": {
      "A_PRECISION": {
        "details": "protect from division loss when run approximation loop. We cannot divide at the end because of overflow, so we add some (small) PRECISION when divide in each iteration"
      },
      "MAX_ITERATION": {
        "details": "max iteration of converge calccuate"
      }
    },
    "version": 1
  },
  "userdoc": {
    "kind": "user",
    "methods": {
      "_swap(RequiemStableSwapLib.SwapStorage storage,uint256,uint256,uint256,uint256,address)": {
        "notice": "implements classic swap function a la compound  here the amounts are provided and just validated via the invariant  - out amount is supposed to not include the fees  - inAmount is supposd to be sent already to this address"
      },
      "addLiquidity(RequiemStableSwapLib.SwapStorage storage,uint256[],uint256)": {
        "notice": "Deposit coins into the pool"
      },
      "calculateTokenAmount(RequiemStableSwapLib.SwapStorage storage,uint256[],bool)": {
        "notice": "Estimate amount of LP token minted or burned at deposit or withdrawal without taking fees into account"
      },
      "getAPrecise(RequiemStableSwapLib.SwapStorage storage)": {
        "notice": "VIEW FUNCTIONS"
      },
      "getVirtualPrice(RequiemStableSwapLib.SwapStorage storage)": {
        "notice": "Returns portfolio virtual price (for calculating profit) scaled up by 1e18"
      },
      "onSwapGivenIn(RequiemStableSwapLib.SwapStorage storage,uint256,uint256,uint256,uint256,address)": {
        "notice": "the same function as swap, but it expects that amounts already have been  sent to the contract   - designed to be used in the Requiem Swap framework   - deducts the fee from the output, in this case simple as the output is the calculated value   - viable function for batch swapping"
      },
      "onSwapGivenOut(RequiemStableSwapLib.SwapStorage storage,uint256,uint256,uint256,uint256,address)": {
        "notice": "the same function as swap, but it espects that amounts already have been sent to the contract and it requires the output to be provided  - designed to be used in the requirem swap framework  - deducts the fees from the output, that means that the    output has to be increased by the fee to then create a highe input"
      },
      "updateUserWithdrawFee(RequiemStableSwapLib.SwapStorage storage,address,uint256)": {
        "notice": "Update the withdraw fee for `user`. If the user is currently not providing liquidity in the pool, sets to default value. If not, recalculate the starting withdraw fee based on the last deposit's time & amount relative to the new deposit."
      }
    },
    "notice": "StableSwap main algorithm",
    "version": 1
  },
  "storageLayout": {
    "storage": [],
    "types": null
  }
}