{
  "address": "0xE6E340D132b5f46d1e472DebcD681B2aBc16e57E",
  "abi": [
    {
      "inputs": [
        {
          "internalType": "contract IRequiemStableSwap",
          "name": "pool",
          "type": "address"
        },
        {
          "internalType": "contract IRequiemStableSwap",
          "name": "basePool",
          "type": "address"
        },
        {
          "internalType": "uint256[]",
          "name": "meta_amounts",
          "type": "uint256[]"
        },
        {
          "internalType": "uint256[]",
          "name": "base_amounts",
          "type": "uint256[]"
        },
        {
          "internalType": "uint256",
          "name": "minToMint",
          "type": "uint256"
        },
        {
          "internalType": "uint256",
          "name": "deadline",
          "type": "uint256"
        }
      ],
      "name": "addLiquidity",
      "outputs": [
        {
          "internalType": "uint256",
          "name": "",
          "type": "uint256"
        }
      ],
      "stateMutability": "nonpayable",
      "type": "function"
    },
    {
      "inputs": [
        {
          "internalType": "contract IRequiemStableSwap",
          "name": "fromPool",
          "type": "address"
        },
        {
          "internalType": "contract IRequiemStableSwap",
          "name": "toPool",
          "type": "address"
        },
        {
          "internalType": "uint256",
          "name": "amount",
          "type": "uint256"
        }
      ],
      "name": "calculateConvert",
      "outputs": [
        {
          "internalType": "uint256",
          "name": "",
          "type": "uint256"
        }
      ],
      "stateMutability": "view",
      "type": "function"
    },
    {
      "inputs": [
        {
          "internalType": "contract IRequiemStableSwap",
          "name": "pool",
          "type": "address"
        },
        {
          "internalType": "contract IRequiemStableSwap",
          "name": "basePool",
          "type": "address"
        },
        {
          "internalType": "uint256",
          "name": "amount",
          "type": "uint256"
        }
      ],
      "name": "calculateRemoveLiquidity",
      "outputs": [
        {
          "internalType": "uint256[]",
          "name": "meta_amounts",
          "type": "uint256[]"
        },
        {
          "internalType": "uint256[]",
          "name": "base_amounts",
          "type": "uint256[]"
        }
      ],
      "stateMutability": "view",
      "type": "function"
    },
    {
      "inputs": [
        {
          "internalType": "contract IRequiemStableSwap",
          "name": "pool",
          "type": "address"
        },
        {
          "internalType": "contract IRequiemStableSwap",
          "name": "basePool",
          "type": "address"
        },
        {
          "internalType": "uint8",
          "name": "tokenIndexFrom",
          "type": "uint8"
        },
        {
          "internalType": "uint8",
          "name": "tokenIndexTo",
          "type": "uint8"
        },
        {
          "internalType": "uint256",
          "name": "dx",
          "type": "uint256"
        }
      ],
      "name": "calculateSwapFromBase",
      "outputs": [
        {
          "internalType": "uint256",
          "name": "",
          "type": "uint256"
        }
      ],
      "stateMutability": "view",
      "type": "function"
    },
    {
      "inputs": [
        {
          "internalType": "contract IRequiemStableSwap",
          "name": "pool",
          "type": "address"
        },
        {
          "internalType": "contract IRequiemStableSwap",
          "name": "basePool",
          "type": "address"
        },
        {
          "internalType": "uint8",
          "name": "tokenIndexFrom",
          "type": "uint8"
        },
        {
          "internalType": "uint8",
          "name": "tokenIndexTo",
          "type": "uint8"
        },
        {
          "internalType": "uint256",
          "name": "dx",
          "type": "uint256"
        }
      ],
      "name": "calculateSwapToBase",
      "outputs": [
        {
          "internalType": "uint256",
          "name": "",
          "type": "uint256"
        }
      ],
      "stateMutability": "view",
      "type": "function"
    },
    {
      "inputs": [
        {
          "internalType": "contract IRequiemStableSwap",
          "name": "pool",
          "type": "address"
        },
        {
          "internalType": "contract IRequiemStableSwap",
          "name": "basePool",
          "type": "address"
        },
        {
          "internalType": "uint256[]",
          "name": "meta_amounts",
          "type": "uint256[]"
        },
        {
          "internalType": "uint256[]",
          "name": "base_amounts",
          "type": "uint256[]"
        },
        {
          "internalType": "bool",
          "name": "is_deposit",
          "type": "bool"
        }
      ],
      "name": "calculateTokenAmount",
      "outputs": [
        {
          "internalType": "uint256",
          "name": "",
          "type": "uint256"
        }
      ],
      "stateMutability": "view",
      "type": "function"
    },
    {
      "inputs": [
        {
          "internalType": "contract IRequiemStableSwap",
          "name": "fromPool",
          "type": "address"
        },
        {
          "internalType": "contract IRequiemStableSwap",
          "name": "toPool",
          "type": "address"
        },
        {
          "internalType": "uint256",
          "name": "amount",
          "type": "uint256"
        },
        {
          "internalType": "uint256",
          "name": "minToMint",
          "type": "uint256"
        },
        {
          "internalType": "uint256",
          "name": "deadline",
          "type": "uint256"
        }
      ],
      "name": "convert",
      "outputs": [
        {
          "internalType": "uint256",
          "name": "",
          "type": "uint256"
        }
      ],
      "stateMutability": "nonpayable",
      "type": "function"
    },
    {
      "inputs": [
        {
          "internalType": "contract IRequiemStableSwap",
          "name": "pool",
          "type": "address"
        },
        {
          "internalType": "contract IRequiemStableSwap",
          "name": "basePool",
          "type": "address"
        },
        {
          "internalType": "uint256",
          "name": "_amount",
          "type": "uint256"
        },
        {
          "internalType": "uint256[]",
          "name": "min_amounts_meta",
          "type": "uint256[]"
        },
        {
          "internalType": "uint256[]",
          "name": "min_amounts_base",
          "type": "uint256[]"
        },
        {
          "internalType": "uint256",
          "name": "deadline",
          "type": "uint256"
        }
      ],
      "name": "removeLiquidity",
      "outputs": [
        {
          "internalType": "uint256[]",
          "name": "amounts",
          "type": "uint256[]"
        },
        {
          "internalType": "uint256[]",
          "name": "base_amounts",
          "type": "uint256[]"
        }
      ],
      "stateMutability": "nonpayable",
      "type": "function"
    },
    {
      "inputs": [
        {
          "internalType": "contract IRequiemStableSwap",
          "name": "pool",
          "type": "address"
        },
        {
          "internalType": "contract IRequiemStableSwap",
          "name": "basePool",
          "type": "address"
        },
        {
          "internalType": "uint8",
          "name": "tokenIndexFrom",
          "type": "uint8"
        },
        {
          "internalType": "uint8",
          "name": "tokenIndexTo",
          "type": "uint8"
        },
        {
          "internalType": "uint256",
          "name": "dx",
          "type": "uint256"
        },
        {
          "internalType": "uint256",
          "name": "minDy",
          "type": "uint256"
        },
        {
          "internalType": "uint256",
          "name": "deadline",
          "type": "uint256"
        }
      ],
      "name": "swapFromBase",
      "outputs": [
        {
          "internalType": "uint256",
          "name": "",
          "type": "uint256"
        }
      ],
      "stateMutability": "nonpayable",
      "type": "function"
    },
    {
      "inputs": [
        {
          "internalType": "contract IRequiemStableSwap",
          "name": "pool",
          "type": "address"
        },
        {
          "internalType": "contract IRequiemStableSwap",
          "name": "basePool",
          "type": "address"
        },
        {
          "internalType": "uint8",
          "name": "tokenIndexFrom",
          "type": "uint8"
        },
        {
          "internalType": "uint8",
          "name": "tokenIndexTo",
          "type": "uint8"
        },
        {
          "internalType": "uint256",
          "name": "dx",
          "type": "uint256"
        },
        {
          "internalType": "uint256",
          "name": "minDy",
          "type": "uint256"
        },
        {
          "internalType": "uint256",
          "name": "deadline",
          "type": "uint256"
        }
      ],
      "name": "swapToBase",
      "outputs": [
        {
          "internalType": "uint256",
          "name": "",
          "type": "uint256"
        }
      ],
      "stateMutability": "nonpayable",
      "type": "function"
    }
  ],
  "transactionHash": "0x5e3932d8d2f55f6eb2dd943676c25b3d73f7223379179dc2c4be61360668fb16",
  "args": [],
  "solcInputHash": "5cda6a8053749c2e75fe3116749689e1",
  "bytecode": "0x608060405234801561001057600080fd5b50613b74806100206000396000f3fe608060405234801561001057600080fd5b50600436106100be5760003560e01c8063643abb8611610076578063797018211161005b578063797018211461016d5780638a311c5714610180578063ff9693221461019357600080fd5b8063643abb861461014757806377269e291461015a57600080fd5b806324a5bf21116100a757806324a5bf211461010e5780633214b8c91461012157806338c789731461013457600080fd5b80630c8b2216146100c35780630d6307eb146100ed575b600080fd5b6100d66100d1366004613394565b6101a6565b6040516100e4929190613410565b60405180910390f35b6101006100fb366004613524565b610403565b6040519081526020016100e4565b6100d661011c36600461360b565b610bc0565b61010061012f3660046136c0565b61143d565b610100610142366004613724565b611672565b610100610155366004613394565b611b70565b6101006101683660046137a9565b611eb8565b61010061017b366004613847565b6120aa565b61010061018e3660046136c0565b612937565b6101006101a1366004613724565b612c38565b6060806000846001600160a01b0316638214f5a46040518163ffffffff1660e01b8152600401602060405180830381865afa1580156101e9573d6000803e3d6000fd5b505050506040513d601f19601f8201168201806040525081019061020d9190613898565b6040517f66c0bd240000000000000000000000000000000000000000000000000000000081526001600160a01b0380831660048301529192506000918816906366c0bd2490602401602060405180830381865afa158015610272573d6000803e3d6000fd5b505050506040513d601f19601f8201168201806040525081019061029691906138bc565b6040517f7c61e561000000000000000000000000000000000000000000000000000000008152306004820152602481018790529091506001600160a01b03881690637c61e56190604401600060405180830381865afa1580156102fd573d6000803e3d6000fd5b505050506040513d6000823e601f3d908101601f1916820160405261032591908101906138d9565b93506000848260ff168151811061033e5761033e61395f565b602002602001015190506000858360ff168151811061035f5761035f61395f565b60209081029190910101526040517f7c61e561000000000000000000000000000000000000000000000000000000008152306004820152602481018290526001600160a01b03881690637c61e56190604401600060405180830381865afa1580156103ce573d6000803e3d6000fd5b505050506040513d6000823e601f3d908101601f191682016040526103f691908101906138d9565b9350505050935093915050565b600080876001600160a01b0316638214f5a46040518163ffffffff1660e01b8152600401602060405180830381865afa158015610444573d6000803e3d6000fd5b505050506040513d601f19601f820116820180604052508101906104689190613898565b9050866001600160a01b031663efeecb516040518163ffffffff1660e01b8152600401602060405180830381865afa1580156104a8573d6000803e3d6000fd5b505050506040513d601f19601f820116820180604052508101906104cc919061398e565b85511461053a576040517f08c379a000000000000000000000000000000000000000000000000000000000815260206004820152601860248201527f696e76616c696442617365416d6f756e74734c656e677468000000000000000060448201526064015b60405180910390fd5b876001600160a01b031663efeecb516040518163ffffffff1660e01b8152600401602060405180830381865afa158015610578573d6000803e3d6000fd5b505050506040513d601f19601f8201168201806040525081019061059c919061398e565b865114610605576040517f08c379a000000000000000000000000000000000000000000000000000000000815260206004820152601860248201527f696e76616c69644d657461416d6f756e74734c656e67746800000000000000006044820152606401610531565b6000805b86518160ff1610156107b3576000878260ff168151811061062c5761062c61395f565b6020026020010151905060008111156107a0576040517f82b8660000000000000000000000000000000000000000000000000000000000815260ff83166004820152600193506000906001600160a01b038c16906382b8660090602401602060405180830381865afa1580156106a6573d6000803e3d6000fd5b505050506040513d601f19601f820116820180604052508101906106ca9190613898565b90506106e16001600160a01b03821633308561307a565b6040517f70a082310000000000000000000000000000000000000000000000000000000081523060048201526000906001600160a01b038316906370a0823190602401602060405180830381865afa158015610741573d6000803e3d6000fd5b505050506040513d601f19601f82011682018060405250810190610765919061398e565b905061077b6001600160a01b0383168d83613131565b808a8560ff16815181106107915761079161395f565b60200260200101818152505050505b50806107ab816139d6565b915050610609565b508015610849576040517f4d49e87d0000000000000000000000000000000000000000000000000000000081526001600160a01b03891690634d49e87d9061080490899060009089906004016139f6565b6020604051808303816000875af1158015610823573d6000803e3d6000fd5b505050506040513d601f19601f82011682018060405250810190610847919061398e565b505b60005b87518160ff161015610a13576040517f82b8660000000000000000000000000000000000000000000000000000000000815260ff821660048201526000906001600160a01b038c16906382b8660090602401602060405180830381865afa1580156108bb573d6000803e3d6000fd5b505050506040513d601f19601f820116820180604052508101906108df9190613898565b90506000898360ff16815181106108f8576108f861395f565b602002602001015111156109425761094233308b8560ff16815181106109205761092061395f565b6020026020010151846001600160a01b031661307a909392919063ffffffff16565b6040517f70a082310000000000000000000000000000000000000000000000000000000081523060048201526000906001600160a01b038316906370a0823190602401602060405180830381865afa1580156109a2573d6000803e3d6000fd5b505050506040513d601f19601f820116820180604052508101906109c6919061398e565b90506109dc6001600160a01b0383168d83613131565b808a8460ff16815181106109f2576109f261395f565b60200260200101818152505050508080610a0b906139d6565b91505061084c565b506040517f4d49e87d0000000000000000000000000000000000000000000000000000000081526001600160a01b038a1690634d49e87d90610a5d908a90899089906004016139f6565b6020604051808303816000875af1158015610a7c573d6000803e3d6000fd5b505050506040513d601f19601f82011682018060405250810190610aa0919061398e565b506040517f70a082310000000000000000000000000000000000000000000000000000000081523060048201526000906001600160a01b038416906370a0823190602401602060405180830381865afa158015610b01573d6000803e3d6000fd5b505050506040513d601f19601f82011682018060405250810190610b25919061398e565b6040517fa9059cbb000000000000000000000000000000000000000000000000000000008152336004820152602481018290529091506001600160a01b0384169063a9059cbb906044016020604051808303816000875af1158015610b8e573d6000803e3d6000fd5b505050506040513d601f19601f82011682018060405250810190610bb29190613a1b565b509998505050505050505050565b60608060008a6001600160a01b0316638214f5a46040518163ffffffff1660e01b8152600401602060405180830381865afa158015610c03573d6000803e3d6000fd5b505050506040513d601f19601f82011682018060405250810190610c279190613898565b905060008a6001600160a01b0316638214f5a46040518163ffffffff1660e01b8152600401602060405180830381865afa158015610c69573d6000803e3d6000fd5b505050506040513d601f19601f82011682018060405250810190610c8d9190613898565b6040517f23b872dd000000000000000000000000000000000000000000000000000000008152336004820152306024820152604481018c90529091506001600160a01b038316906323b872dd906064016020604051808303816000875af1158015610cfc573d6000803e3d6000fd5b505050506040513d601f19601f82011682018060405250810190610d209190613a1b565b50610d356001600160a01b0383168d8c613131565b6040517f31cd52b00000000000000000000000000000000000000000000000000000000081526001600160a01b038d16906331cd52b090610d80908d908d908d908b90600401613a38565b6000604051808303816000875af1158015610d9f573d6000803e3d6000fd5b505050506040513d6000823e601f3d908101601f19168201604052610dc791908101906138d9565b506040517f70a082310000000000000000000000000000000000000000000000000000000081523060048201526000906001600160a01b038316906370a0823190602401602060405180830381865afa158015610e28573d6000803e3d6000fd5b505050506040513d601f19601f82011682018060405250810190610e4c919061398e565b9050610e626001600160a01b0383168d83613131565b6040517f31cd52b00000000000000000000000000000000000000000000000000000000081526001600160a01b038d16906331cd52b090610ead9084908c908c908c90600401613a38565b6000604051808303816000875af1158015610ecc573d6000803e3d6000fd5b505050506040513d6000823e601f3d908101601f19168201604052610ef491908101906138d9565b508c6001600160a01b031663efeecb516040518163ffffffff1660e01b8152600401602060405180830381865afa158015610f33573d6000803e3d6000fd5b505050506040513d601f19601f82011682018060405250810190610f57919061398e565b67ffffffffffffffff811115610f6f57610f6f613435565b604051908082528060200260200182016040528015610f98578160200160208202803683370190505b50945060005b8d6001600160a01b031663efeecb516040518163ffffffff1660e01b8152600401602060405180830381865afa158015610fdc573d6000803e3d6000fd5b505050506040513d601f19601f82011682018060405250810190611000919061398e565b8160ff1610156111995760008e6001600160a01b03166382b86600836040518263ffffffff1660e01b8152600401611041919060ff91909116815260200190565b602060405180830381865afa15801561105e573d6000803e3d6000fd5b505050506040513d601f19601f820116820180604052508101906110829190613898565b6040517f70a082310000000000000000000000000000000000000000000000000000000081523060048201529091506001600160a01b038216906370a0823190602401602060405180830381865afa1580156110e2573d6000803e3d6000fd5b505050506040513d601f19601f82011682018060405250810190611106919061398e565b878360ff168151811061111b5761111b61395f565b6020026020010181815250506000878360ff168151811061113e5761113e61395f565b602002602001015111156111865761118633888460ff16815181106111655761116561395f565b6020026020010151836001600160a01b03166132159092919063ffffffff16565b5080611191816139d6565b915050610f9e565b508b6001600160a01b031663efeecb516040518163ffffffff1660e01b8152600401602060405180830381865afa1580156111d8573d6000803e3d6000fd5b505050506040513d601f19601f820116820180604052508101906111fc919061398e565b67ffffffffffffffff81111561121457611214613435565b60405190808252806020026020018201604052801561123d578160200160208202803683370190505b50935060005b8c6001600160a01b031663efeecb516040518163ffffffff1660e01b8152600401602060405180830381865afa158015611281573d6000803e3d6000fd5b505050506040513d601f19601f820116820180604052508101906112a5919061398e565b8160ff16101561142c576040517f82b8660000000000000000000000000000000000000000000000000000000000815260ff821660048201526000906001600160a01b038f16906382b8660090602401602060405180830381865afa158015611312573d6000803e3d6000fd5b505050506040513d601f19601f820116820180604052508101906113369190613898565b6040517f70a082310000000000000000000000000000000000000000000000000000000081523060048201529091506001600160a01b038216906370a0823190602401602060405180830381865afa158015611396573d6000803e3d6000fd5b505050506040513d601f19601f820116820180604052508101906113ba919061398e565b868360ff16815181106113cf576113cf61395f565b6020026020010181815250506000868360ff16815181106113f2576113f261395f565b602002602001015111156114195761141933878460ff16815181106111655761116561395f565b5080611424816139d6565b915050611243565b505050509850989650505050505050565b600080856001600160a01b0316638214f5a46040518163ffffffff1660e01b8152600401602060405180830381865afa15801561147e573d6000803e3d6000fd5b505050506040513d601f19601f820116820180604052508101906114a29190613898565b6040517f66c0bd240000000000000000000000000000000000000000000000000000000081526001600160a01b0380831660048301529192506000918916906366c0bd2490602401602060405180830381865afa158015611507573d6000803e3d6000fd5b505050506040513d601f19601f8201168201806040525081019061152b91906138bc565b90508360ff808316908816146115d1576040517fa95b089f00000000000000000000000000000000000000000000000000000000815260ff808916600483015283166024820152604481018690526001600160a01b038a169063a95b089f90606401602060405180830381865afa1580156115aa573d6000803e3d6000fd5b505050506040513d601f19601f820116820180604052508101906115ce919061398e565b90505b6040517f98899f400000000000000000000000000000000000000000000000000000000081523060048201526024810182905260ff871660448201526001600160a01b038916906398899f40906064015b602060405180830381865afa15801561163f573d6000803e3d6000fd5b505050506040513d601f19601f82011682018060405250810190611663919061398e565b93505050505b95945050505050565b600080876001600160a01b0316638214f5a46040518163ffffffff1660e01b8152600401602060405180830381865afa1580156116b3573d6000803e3d6000fd5b505050506040513d601f19601f820116820180604052508101906116d79190613898565b6040517f66c0bd240000000000000000000000000000000000000000000000000000000081526001600160a01b0380831660048301529192506000918b16906366c0bd2490602401602060405180830381865afa15801561173c573d6000803e3d6000fd5b505050506040513d601f19601f8201168201806040525081019061176091906138bc565b90506000896001600160a01b031663efeecb516040518163ffffffff1660e01b8152600401602060405180830381865afa1580156117a2573d6000803e3d6000fd5b505050506040513d601f19601f820116820180604052508101906117c6919061398e565b67ffffffffffffffff8111156117de576117de613435565b604051908082528060200260200182016040528015611807578160200160208202803683370190505b50905086818a60ff16815181106118205761182061395f565b60209081029190910101526040517f82b8660000000000000000000000000000000000000000000000000000000000815260ff8a1660048201526000906001600160a01b038c16906382b8660090602401602060405180830381865afa15801561188e573d6000803e3d6000fd5b505050506040513d601f19601f820116820180604052508101906118b29190613898565b90506118c96001600160a01b03821633308b61307a565b6118dd6001600160a01b0382168c8a613131565b6040517f4d49e87d0000000000000000000000000000000000000000000000000000000081526000906001600160a01b038d1690634d49e87d9061192990869085908c906004016139f6565b6020604051808303816000875af1158015611948573d6000803e3d6000fd5b505050506040513d601f19601f8201168201806040525081019061196c919061398e565b90508960ff168460ff1614611a3a5761198f6001600160a01b0386168e83613131565b6040517fbfd3956b00000000000000000000000000000000000000000000000000000000815260ff80861660048301528b166024820152604481018290526064810189905230608482015260a481018890526001600160a01b038e169063bfd3956b9060c4016020604051808303816000875af1158015611a14573d6000803e3d6000fd5b505050506040513d601f19601f82011682018060405250810190611a38919061398e565b505b6040517f82b8660000000000000000000000000000000000000000000000000000000000815260ff8b1660048201526000906001600160a01b038f16906382b8660090602401602060405180830381865afa158015611a9d573d6000803e3d6000fd5b505050506040513d601f19601f82011682018060405250810190611ac19190613898565b6040517f70a082310000000000000000000000000000000000000000000000000000000081523060048201529091506000906001600160a01b038316906370a0823190602401602060405180830381865afa158015611b24573d6000803e3d6000fd5b505050506040513d601f19601f82011682018060405250810190611b48919061398e565b9050611b5e6001600160a01b0383163383613215565b9e9d5050505050505050505050505050565b600080846001600160a01b031663efeecb516040518163ffffffff1660e01b8152600401602060405180830381865afa158015611bb1573d6000803e3d6000fd5b505050506040513d601f19601f82011682018060405250810190611bd5919061398e565b6040517f7c61e561000000000000000000000000000000000000000000000000000000008152306004820152602481018590529091506000906001600160a01b03871690637c61e56190604401600060405180830381865afa158015611c3f573d6000803e3d6000fd5b505050506040513d6000823e601f3d908101601f19168201604052611c6791908101906138d9565b905060008267ffffffffffffffff811115611c8457611c84613435565b604051908082528060200260200182016040528015611cad578160200160208202803683370190505b50905060005b838160ff161015611e23576040517f82b8660000000000000000000000000000000000000000000000000000000000815260ff821660048201526000906001600160a01b038a16906382b8660090602401602060405180830381865afa158015611d21573d6000803e3d6000fd5b505050506040513d601f19601f82011682018060405250810190611d459190613898565b6040517f66c0bd240000000000000000000000000000000000000000000000000000000081526001600160a01b0380831660048301529192506000918a16906366c0bd2490602401602060405180830381865afa158015611daa573d6000803e3d6000fd5b505050506040513d601f19601f82011682018060405250810190611dce91906138bc565b60ff169050848360ff1681518110611de857611de861395f565b6020026020010151848281518110611e0257611e0261395f565b60200260200101818152505050508080611e1b906139d6565b915050611cb3565b506040517fe6ab28060000000000000000000000000000000000000000000000000000000081526001600160a01b0387169063e6ab280690611e6c908490600190600401613a9e565b602060405180830381865afa158015611e89573d6000803e3d6000fd5b505050506040513d601f19601f82011682018060405250810190611ead919061398e565b979650505050505050565b600080856001600160a01b0316638214f5a46040518163ffffffff1660e01b8152600401602060405180830381865afa158015611ef9573d6000803e3d6000fd5b505050506040513d601f19601f82011682018060405250810190611f1d9190613898565b6040517f66c0bd240000000000000000000000000000000000000000000000000000000081526001600160a01b0380831660048301529192506000918916906366c0bd2490602401602060405180830381865afa158015611f82573d6000803e3d6000fd5b505050506040513d601f19601f82011682018060405250810190611fa691906138bc565b90506000876001600160a01b031663e6ab280687876040518363ffffffff1660e01b8152600401611fd8929190613a9e565b602060405180830381865afa158015611ff5573d6000803e3d6000fd5b505050506040513d601f19601f82011682018060405250810190612019919061398e565b905080878360ff16815181106120315761203161395f565b60200260200101516120439190613ac2565b878360ff16815181106120585761205861395f565b60209081029190910101526040517fe6ab28060000000000000000000000000000000000000000000000000000000081526001600160a01b038a169063e6ab280690611622908a908990600401613a9e565b600080866001600160a01b031663efeecb516040518163ffffffff1660e01b8152600401602060405180830381865afa1580156120eb573d6000803e3d6000fd5b505050506040513d601f19601f8201168201806040525081019061210f919061398e565b90506000866001600160a01b031663efeecb516040518163ffffffff1660e01b8152600401602060405180830381865afa158015612151573d6000803e3d6000fd5b505050506040513d601f19601f82011682018060405250810190612175919061398e565b9050866001600160a01b0316886001600160a01b031614156121f3576040517f08c379a000000000000000000000000000000000000000000000000000000000815260206004820152601160248201527f66726f6d506f6f6c203d20746f506f6f6c0000000000000000000000000000006044820152606401610531565b80821461225c576040517f08c379a000000000000000000000000000000000000000000000000000000000815260206004820152601960248201527f706f6f6c546f6b656e734c656e6774684d6973736d61746368000000000000006044820152606401610531565b6000886001600160a01b0316638214f5a46040518163ffffffff1660e01b8152600401602060405180830381865afa15801561229c573d6000803e3d6000fd5b505050506040513d601f19601f820116820180604052508101906122c09190613898565b90506000886001600160a01b0316638214f5a46040518163ffffffff1660e01b8152600401602060405180830381865afa158015612302573d6000803e3d6000fd5b505050506040513d601f19601f820116820180604052508101906123269190613898565b905060008467ffffffffffffffff81111561234357612343613435565b60405190808252806020026020018201604052801561236c578160200160208202803683370190505b50905060005b858160ff1610156124a0576040517f82b8660000000000000000000000000000000000000000000000000000000000815260ff821660048201526000906001600160a01b038e16906382b8660090602401602060405180830381865afa1580156123e0573d6000803e3d6000fd5b505050506040513d601f19601f820116820180604052508101906124049190613898565b6040517f66c0bd240000000000000000000000000000000000000000000000000000000081526001600160a01b038083166004830152919250908d16906366c0bd2490602401602060405180830381865afa158015612467573d6000803e3d6000fd5b505050506040513d601f19601f8201168201806040525081019061248b91906138bc565b50508080612498906139d6565b915050612372565b506040517f23b872dd000000000000000000000000000000000000000000000000000000008152336004820152306024820152604481018a90526001600160a01b038416906323b872dd906064016020604051808303816000875af115801561250d573d6000803e3d6000fd5b505050506040513d601f19601f820116820180604052508101906125319190613a1b565b506125466001600160a01b0384168c8b613131565b6040517f31cd52b00000000000000000000000000000000000000000000000000000000081526001600160a01b038c16906331cd52b09061258f908c9085908c90600401613ada565b6000604051808303816000875af11580156125ae573d6000803e3d6000fd5b505050506040513d6000823e601f3d908101601f191682016040526125d691908101906138d9565b5060008467ffffffffffffffff8111156125f2576125f2613435565b60405190808252806020026020018201604052801561261b578160200160208202803683370190505b50905060005b858160ff161015612787576040517f82b8660000000000000000000000000000000000000000000000000000000000815260ff821660048201526000906001600160a01b038e16906382b8660090602401602060405180830381865afa15801561268f573d6000803e3d6000fd5b505050506040513d601f19601f820116820180604052508101906126b39190613898565b6040517f70a082310000000000000000000000000000000000000000000000000000000081523060048201529091506000906001600160a01b038316906370a0823190602401602060405180830381865afa158015612716573d6000803e3d6000fd5b505050506040513d601f19601f8201168201806040525081019061273a919061398e565b90506127506001600160a01b0383168f83613131565b80848460ff16815181106127665761276661395f565b6020026020010181815250505050808061277f906139d6565b915050612621565b506040517f4d49e87d0000000000000000000000000000000000000000000000000000000081526001600160a01b038c1690634d49e87d906127d19084908d908d906004016139f6565b6020604051808303816000875af11580156127f0573d6000803e3d6000fd5b505050506040513d601f19601f82011682018060405250810190612814919061398e565b506040517f70a082310000000000000000000000000000000000000000000000000000000081523060048201526000906001600160a01b038516906370a0823190602401602060405180830381865afa158015612875573d6000803e3d6000fd5b505050506040513d601f19601f82011682018060405250810190612899919061398e565b6040517fa9059cbb000000000000000000000000000000000000000000000000000000008152336004820152602481018290529091506001600160a01b0385169063a9059cbb906044016020604051808303816000875af1158015612902573d6000803e3d6000fd5b505050506040513d601f19601f820116820180604052508101906129269190613a1b565b509c9b505050505050505050505050565b600080856001600160a01b0316638214f5a46040518163ffffffff1660e01b8152600401602060405180830381865afa158015612978573d6000803e3d6000fd5b505050506040513d601f19601f8201168201806040525081019061299c9190613898565b6040517f66c0bd240000000000000000000000000000000000000000000000000000000081526001600160a01b0380831660048301529192506000918916906366c0bd2490602401602060405180830381865afa158015612a01573d6000803e3d6000fd5b505050506040513d601f19601f82011682018060405250810190612a2591906138bc565b90506000876001600160a01b031663efeecb516040518163ffffffff1660e01b8152600401602060405180830381865afa158015612a67573d6000803e3d6000fd5b505050506040513d601f19601f82011682018060405250810190612a8b919061398e565b67ffffffffffffffff811115612aa357612aa3613435565b604051908082528060200260200182016040528015612acc578160200160208202803683370190505b50905084818860ff1681518110612ae557612ae561395f565b60209081029190910101526040517fe6ab28060000000000000000000000000000000000000000000000000000000081526000906001600160a01b038a169063e6ab280690612b3b908590600190600401613a9e565b602060405180830381865afa158015612b58573d6000803e3d6000fd5b505050506040513d601f19601f82011682018060405250810190612b7c919061398e565b90508660ff168360ff161415612b9757935061166992505050565b6040517fa95b089f00000000000000000000000000000000000000000000000000000000815260ff808516600483015288166024820152604481018290526001600160a01b038b169063a95b089f90606401602060405180830381865afa158015612c06573d6000803e3d6000fd5b505050506040513d601f19601f82011682018060405250810190612c2a919061398e565b9a9950505050505050505050565b600080876001600160a01b0316638214f5a46040518163ffffffff1660e01b8152600401602060405180830381865afa158015612c79573d6000803e3d6000fd5b505050506040513d601f19601f82011682018060405250810190612c9d9190613898565b6040517f66c0bd240000000000000000000000000000000000000000000000000000000081526001600160a01b0380831660048301529192506000918b16906366c0bd2490602401602060405180830381865afa158015612d02573d6000803e3d6000fd5b505050506040513d601f19601f82011682018060405250810190612d2691906138bc565b6040517f82b8660000000000000000000000000000000000000000000000000000000000815260ff8a1660048201529091506000906001600160a01b038c16906382b8660090602401602060405180830381865afa158015612d8c573d6000803e3d6000fd5b505050506040513d601f19601f82011682018060405250810190612db09190613898565b9050612dc76001600160a01b03821633308a61307a565b8660ff838116908b1614612e9557612de96001600160a01b0383168d8a613131565b6040517fbfd3956b00000000000000000000000000000000000000000000000000000000815260ff808c16600483015284166024820152604481018990526000606482015230608482015260a481018790526001600160a01b038d169063bfd3956b9060c4016020604051808303816000875af1158015612e6e573d6000803e3d6000fd5b505050506040513d601f19601f82011682018060405250810190612e92919061398e565b90505b612ea96001600160a01b0385168c83613131565b6040517f3e3a15600000000000000000000000000000000000000000000000000000000081526004810182905260ff8a16602482015260448101889052606481018790526001600160a01b038c1690633e3a1560906084016020604051808303816000875af1158015612f20573d6000803e3d6000fd5b505050506040513d601f19601f82011682018060405250810190612f44919061398e565b506040517f82b8660000000000000000000000000000000000000000000000000000000000815260ff8a1660048201526000906001600160a01b038d16906382b8660090602401602060405180830381865afa158015612fa8573d6000803e3d6000fd5b505050506040513d601f19601f82011682018060405250810190612fcc9190613898565b6040517f70a082310000000000000000000000000000000000000000000000000000000081523060048201529091506000906001600160a01b038316906370a0823190602401602060405180830381865afa15801561302f573d6000803e3d6000fd5b505050506040513d601f19601f82011682018060405250810190613053919061398e565b90506130696001600160a01b0383163383613215565b9d9c50505050505050505050505050565b6040516001600160a01b038085166024830152831660448201526064810182905261312b9085907f23b872dd00000000000000000000000000000000000000000000000000000000906084015b60408051601f198184030181529190526020810180517bffffffffffffffffffffffffffffffffffffffffffffffffffffffff167fffffffff0000000000000000000000000000000000000000000000000000000090931692909217909152613263565b50505050565b6040517fdd62ed3e0000000000000000000000000000000000000000000000000000000081523060048201526001600160a01b038381166024830152600091839186169063dd62ed3e90604401602060405180830381865afa15801561319b573d6000803e3d6000fd5b505050506040513d601f19601f820116820180604052508101906131bf919061398e565b6131c99190613ac2565b6040516001600160a01b03851660248201526044810182905290915061312b9085907f095ea7b300000000000000000000000000000000000000000000000000000000906064016130c7565b6040516001600160a01b03831660248201526044810182905261325e9084907fa9059cbb00000000000000000000000000000000000000000000000000000000906064016130c7565b505050565b600080836001600160a01b03168360405161327e9190613b03565b6000604051808303816000865af19150503d80600081146132bb576040519150601f19603f3d011682016040523d82523d6000602084013e6132c0565b606091505b509150915060008214156132d8573d6000803e3d6000fd5b61312b8151600014806132fa5750818060200190518101906132fa9190613a1b565b6101a28161330b5761330b8161330f565b5050565b7f08c379a0000000000000000000000000000000000000000000000000000000006000908152602060045260076024526652455123000030600a808404818106603090810160081b95839006959095019082900491820690940160101b939093010160c81b604452606490fd5b6001600160a01b038116811461339157600080fd5b50565b6000806000606084860312156133a957600080fd5b83356133b48161337c565b925060208401356133c48161337c565b929592945050506040919091013590565b600081518084526020808501945080840160005b83811015613405578151875295820195908201906001016133e9565b509495945050505050565b60408152600061342360408301856133d5565b828103602084015261166981856133d5565b7f4e487b7100000000000000000000000000000000000000000000000000000000600052604160045260246000fd5b604051601f8201601f1916810167ffffffffffffffff8111828210171561348d5761348d613435565b604052919050565b600067ffffffffffffffff8211156134af576134af613435565b5060051b60200190565b600082601f8301126134ca57600080fd5b813560206134df6134da83613495565b613464565b82815260059290921b840181019181810190868411156134fe57600080fd5b8286015b848110156135195780358352918301918301613502565b509695505050505050565b60008060008060008060c0878903121561353d57600080fd5b86356135488161337c565b955060208701356135588161337c565b9450604087013567ffffffffffffffff8082111561357557600080fd5b6135818a838b016134b9565b9550606089013591508082111561359757600080fd5b506135a489828a016134b9565b9350506080870135915060a087013590509295509295509295565b60008083601f8401126135d157600080fd5b50813567ffffffffffffffff8111156135e957600080fd5b6020830191508360208260051b850101111561360457600080fd5b9250929050565b60008060008060008060008060c0898b03121561362757600080fd5b88356136328161337c565b975060208901356136428161337c565b965060408901359550606089013567ffffffffffffffff8082111561366657600080fd5b6136728c838d016135bf565b909750955060808b013591508082111561368b57600080fd5b506136988b828c016135bf565b999c989b50969995989497949560a00135949350505050565b60ff8116811461339157600080fd5b600080600080600060a086880312156136d857600080fd5b85356136e38161337c565b945060208601356136f38161337c565b93506040860135613703816136b1565b92506060860135613713816136b1565b949793965091946080013592915050565b600080600080600080600060e0888a03121561373f57600080fd5b873561374a8161337c565b9650602088013561375a8161337c565b9550604088013561376a816136b1565b9450606088013561377a816136b1565b9699959850939660808101359560a0820135955060c0909101359350915050565b801515811461339157600080fd5b600080600080600060a086880312156137c157600080fd5b85356137cc8161337c565b945060208601356137dc8161337c565b9350604086013567ffffffffffffffff808211156137f957600080fd5b61380589838a016134b9565b9450606088013591508082111561381b57600080fd5b50613828888289016134b9565b92505060808601356138398161379b565b809150509295509295909350565b600080600080600060a0868803121561385f57600080fd5b853561386a8161337c565b9450602086013561387a8161337c565b94979496505050506040830135926060810135926080909101359150565b6000602082840312156138aa57600080fd5b81516138b58161337c565b9392505050565b6000602082840312156138ce57600080fd5b81516138b5816136b1565b600060208083850312156138ec57600080fd5b825167ffffffffffffffff81111561390357600080fd5b8301601f8101851361391457600080fd5b80516139226134da82613495565b81815260059190911b8201830190838101908783111561394157600080fd5b928401925b82841015611ead57835182529284019290840190613946565b7f4e487b7100000000000000000000000000000000000000000000000000000000600052603260045260246000fd5b6000602082840312156139a057600080fd5b5051919050565b7f4e487b7100000000000000000000000000000000000000000000000000000000600052601160045260246000fd5b600060ff821660ff8114156139ed576139ed6139a7565b60010192915050565b606081526000613a0960608301866133d5565b60208301949094525060400152919050565b600060208284031215613a2d57600080fd5b81516138b58161379b565b8481526060602082015282606082015260007f07ffffffffffffffffffffffffffffffffffffffffffffffffffffffffffffff841115613a7757600080fd5b8360051b808660808501376000908301608001908152604090920192909252949350505050565b604081526000613ab160408301856133d5565b905082151560208301529392505050565b60008219821115613ad557613ad56139a7565b500190565b838152606060208201526000613af360608301856133d5565b9050826040830152949350505050565b6000825160005b81811015613b245760208186018101518583015201613b0a565b81811115613b33576000828501525b50919091019291505056fea2646970667358221220ce78ec953c76ad0f7de7ac4eb31137ddd4fe41a6b9ac11dc66f5051ca4c99e3364736f6c634300080a0033",
  "devdoc": {
    "kind": "dev",
    "methods": {},
    "version": 1
  },
  "userdoc": {
    "kind": "user",
    "methods": {},
    "version": 1
  },
  "storageLayout": {
    "storage": [],
    "types": null
  }
}