{
  "address": "0x610178dA211FEF7D417bC0e6FeD39F05609AD788",
  "abi": [
    {
      "inputs": [
        {
          "internalType": "address",
          "name": "_feeToSetter",
          "type": "address"
        },
        {
          "internalType": "address",
          "name": "_formula",
          "type": "address"
        },
        {
          "internalType": "address",
          "name": "_pairGovernance",
          "type": "address"
        }
      ],
      "stateMutability": "nonpayable",
      "type": "constructor"
    },
    {
      "anonymous": false,
      "inputs": [
        {
          "indexed": true,
          "internalType": "address",
          "name": "previousOwner",
          "type": "address"
        },
        {
          "indexed": true,
          "internalType": "address",
          "name": "newOwner",
          "type": "address"
        }
      ],
      "name": "OwnershipTransferred",
      "type": "event"
    },
    {
      "anonymous": false,
      "inputs": [
        {
          "indexed": true,
          "internalType": "address",
          "name": "token0",
          "type": "address"
        },
        {
          "indexed": true,
          "internalType": "address",
          "name": "token1",
          "type": "address"
        },
        {
          "indexed": false,
          "internalType": "address",
          "name": "pair",
          "type": "address"
        },
        {
          "indexed": false,
          "internalType": "uint32",
          "name": "tokenWeight0",
          "type": "uint32"
        },
        {
          "indexed": false,
          "internalType": "uint256",
          "name": "",
          "type": "uint256"
        }
      ],
      "name": "PairCreated",
      "type": "event"
    },
    {
      "inputs": [],
      "name": "INIT_CODE_HASH",
      "outputs": [
        {
          "internalType": "bytes32",
          "name": "",
          "type": "bytes32"
        }
      ],
      "stateMutability": "view",
      "type": "function"
    },
    {
      "inputs": [
        {
          "internalType": "uint256",
          "name": "",
          "type": "uint256"
        }
      ],
      "name": "allPairs",
      "outputs": [
        {
          "internalType": "address",
          "name": "",
          "type": "address"
        }
      ],
      "stateMutability": "view",
      "type": "function"
    },
    {
      "inputs": [],
      "name": "allPairsLength",
      "outputs": [
        {
          "internalType": "uint256",
          "name": "",
          "type": "uint256"
        }
      ],
      "stateMutability": "view",
      "type": "function"
    },
    {
      "inputs": [
        {
          "internalType": "address",
          "name": "tokenA",
          "type": "address"
        },
        {
          "internalType": "address",
          "name": "tokenB",
          "type": "address"
        },
        {
          "internalType": "uint32",
          "name": "tokenWeightA",
          "type": "uint32"
        },
        {
          "internalType": "uint32",
          "name": "initialFee",
          "type": "uint32"
        },
        {
          "internalType": "uint32",
          "name": "initialAmp",
          "type": "uint32"
        }
      ],
      "name": "createPair",
      "outputs": [
        {
          "internalType": "address",
          "name": "pair",
          "type": "address"
        }
      ],
      "stateMutability": "nonpayable",
      "type": "function"
    },
    {
      "inputs": [],
      "name": "feeTo",
      "outputs": [
        {
          "internalType": "address",
          "name": "",
          "type": "address"
        }
      ],
      "stateMutability": "view",
      "type": "function"
    },
    {
      "inputs": [],
      "name": "feeToSetter",
      "outputs": [
        {
          "internalType": "address",
          "name": "",
          "type": "address"
        }
      ],
      "stateMutability": "view",
      "type": "function"
    },
    {
      "inputs": [],
      "name": "formula",
      "outputs": [
        {
          "internalType": "address",
          "name": "",
          "type": "address"
        }
      ],
      "stateMutability": "view",
      "type": "function"
    },
    {
      "inputs": [
        {
          "internalType": "address",
          "name": "tokenA",
          "type": "address"
        },
        {
          "internalType": "address",
          "name": "tokenB",
          "type": "address"
        },
        {
          "internalType": "uint32",
          "name": "tokenWeightA",
          "type": "uint32"
        }
      ],
      "name": "getPair",
      "outputs": [
        {
          "internalType": "address",
          "name": "pair",
          "type": "address"
        }
      ],
      "stateMutability": "view",
      "type": "function"
    },
    {
      "inputs": [
        {
          "internalType": "contract IERC20",
          "name": "token0",
          "type": "address"
        },
        {
          "internalType": "contract IERC20",
          "name": "token1",
          "type": "address"
        }
      ],
      "name": "getPairs",
      "outputs": [
        {
          "internalType": "address[]",
          "name": "_tokenPairs",
          "type": "address[]"
        }
      ],
      "stateMutability": "view",
      "type": "function"
    },
    {
      "inputs": [
        {
          "internalType": "address",
          "name": "pair",
          "type": "address"
        }
      ],
      "name": "getParameters",
      "outputs": [
        {
          "internalType": "uint32",
          "name": "tokenWeight0",
          "type": "uint32"
        },
        {
          "internalType": "uint32",
          "name": "tokenWeight1",
          "type": "uint32"
        },
        {
          "internalType": "uint32",
          "name": "swapFee",
          "type": "uint32"
        },
        {
          "internalType": "uint32",
          "name": "amp",
          "type": "uint32"
        }
      ],
      "stateMutability": "view",
      "type": "function"
    },
    {
      "inputs": [
        {
          "internalType": "address",
          "name": "b",
          "type": "address"
        }
      ],
      "name": "isPair",
      "outputs": [
        {
          "internalType": "bool",
          "name": "",
          "type": "bool"
        }
      ],
      "stateMutability": "view",
      "type": "function"
    },
    {
      "inputs": [],
      "name": "owner",
      "outputs": [
        {
          "internalType": "address",
          "name": "",
          "type": "address"
        }
      ],
      "stateMutability": "view",
      "type": "function"
    },
    {
      "inputs": [],
      "name": "pairGovernance",
      "outputs": [
        {
          "internalType": "address",
          "name": "",
          "type": "address"
        }
      ],
      "stateMutability": "view",
      "type": "function"
    },
    {
      "inputs": [],
      "name": "protocolFee",
      "outputs": [
        {
          "internalType": "uint256",
          "name": "",
          "type": "uint256"
        }
      ],
      "stateMutability": "view",
      "type": "function"
    },
    {
      "inputs": [],
      "name": "renounceOwnership",
      "outputs": [],
      "stateMutability": "nonpayable",
      "type": "function"
    },
    {
      "inputs": [
        {
          "internalType": "address",
          "name": "_feeTo",
          "type": "address"
        }
      ],
      "name": "setFeeTo",
      "outputs": [],
      "stateMutability": "nonpayable",
      "type": "function"
    },
    {
      "inputs": [
        {
          "internalType": "address",
          "name": "_feeToSetter",
          "type": "address"
        }
      ],
      "name": "setFeeToSetter",
      "outputs": [],
      "stateMutability": "nonpayable",
      "type": "function"
    },
    {
      "inputs": [
        {
          "internalType": "uint256",
          "name": "_protocolFee",
          "type": "uint256"
        }
      ],
      "name": "setProtocolFee",
      "outputs": [],
      "stateMutability": "nonpayable",
      "type": "function"
    },
    {
      "inputs": [
        {
          "internalType": "address",
          "name": "_pair",
          "type": "address"
        },
        {
          "internalType": "uint32",
          "name": "_newSwapFee",
          "type": "uint32"
        },
        {
          "internalType": "uint32",
          "name": "_amp",
          "type": "uint32"
        }
      ],
      "name": "setSwapParams",
      "outputs": [],
      "stateMutability": "nonpayable",
      "type": "function"
    },
    {
      "inputs": [],
      "name": "swapFeeGovernance",
      "outputs": [
        {
          "internalType": "address",
          "name": "",
          "type": "address"
        }
      ],
      "stateMutability": "view",
      "type": "function"
    },
    {
      "inputs": [
        {
          "internalType": "address",
          "name": "newOwner",
          "type": "address"
        }
      ],
      "name": "transferOwnership",
      "outputs": [],
      "stateMutability": "nonpayable",
      "type": "function"
    }
  ],
  "transactionHash": "0x2619325928cecae08acde735f1e7842f7cb5ac14958c8a346b345b2b49511ea4",
  "args": [
    "0xf39Fd6e51aad88F6F4ce6aB8827279cffFb92266",
    "0x8A791620dd6260079BF849Dc5567aDC3F2FdC318",
    "0xf39Fd6e51aad88F6F4ce6aB8827279cffFb92266"
  ],
  "solcInputHash": "9c15a78ba09b8f1198a45058df526d4d",
  "bytecode": "0x60806040523480156200001157600080fd5b50604051620060f8380380620060f88339810160408190526200003491620000ef565b6200003f3362000082565b600480546001600160a01b039485166001600160a01b0319918216179091556002805493851693821693909317909255600a805491909316911617905562000139565b600080546001600160a01b038381166001600160a01b0319831681178455604051919092169283917f8be0079c531659141344cd1fd0a4f28419497f9722a3daafe3b4186f6b6457e09190a35050565b80516001600160a01b0381168114620000ea57600080fd5b919050565b6000806000606084860312156200010557600080fd5b6200011084620000d2565b92506200012060208501620000d2565b91506200013060408501620000d2565b90509250925092565b615faf80620001496000396000f3fe608060405234801561001057600080fd5b50600436106101775760003560e01c806359c96c11116100d8578063a2e74af61161008c578063e5e31b1311610066578063e5e31b131461036a578063f2fde38b146103b3578063f46901ed146103c657600080fd5b8063a2e74af61461033b578063b0e21e8a1461034e578063e32a25011461035757600080fd5b8063715018a6116100bd578063715018a614610300578063787dce3d1461030a5780638da5cb5b1461031d57600080fd5b806359c96c11146102aa5780635e0464ae146102ed57600080fd5b8063257671f51161012f578063493468f511610114578063493468f5146102625780634b75f54f14610282578063574f2ba3146102a257600080fd5b8063257671f51461023957806335a54e061461024f57600080fd5b806316093fad1161016057806316093fad146101e65780631d44d457146102065780631e3dd18b1461022657600080fd5b8063017e7e581461017c578063094b7415146101c6575b600080fd5b60015461019c9073ffffffffffffffffffffffffffffffffffffffff1681565b60405173ffffffffffffffffffffffffffffffffffffffff90911681526020015b60405180910390f35b60045461019c9073ffffffffffffffffffffffffffffffffffffffff1681565b6101f96101f4366004611629565b6103d9565b6040516101bd9190611662565b60055461019c9073ffffffffffffffffffffffffffffffffffffffff1681565b61019c6102343660046116bc565b6104ec565b610241610523565b6040519081526020016101bd565b61019c61025d3660046116e7565b61058b565b600a5461019c9073ffffffffffffffffffffffffffffffffffffffff1681565b60025461019c9073ffffffffffffffffffffffffffffffffffffffff1681565b600754610241565b6102bd6102b8366004611732565b6106b2565b6040805163ffffffff958616815293851660208501529184169183019190915290911660608201526080016101bd565b61019c6102fb366004611756565b610767565b610308610db0565b005b6103086103183660046116bc565b610e3d565b60005473ffffffffffffffffffffffffffffffffffffffff1661019c565b610308610349366004611732565b610f46565b61024160035481565b6103086103653660046117c7565b61100e565b6103a3610378366004611732565b73ffffffffffffffffffffffffffffffffffffffff1660009081526008602052604090205460ff1690565b60405190151581526020016101bd565b6103086103c1366004611732565b611229565b6103086103d4366004611732565b611359565b73ffffffffffffffffffffffffffffffffffffffff8281166000908152600960209081526040808320938516835292905220546060908067ffffffffffffffff811115610428576104286117f7565b604051908082528060200260200182016040528015610451578160200160208202803683370190505b50915060005b818110156104e45773ffffffffffffffffffffffffffffffffffffffff808616600090815260096020908152604080832093881683529290522061049b9082611421565b8382815181106104ad576104ad611826565b73ffffffffffffffffffffffffffffffffffffffff90921660209283029190910190910152806104dc81611884565b915050610457565b505092915050565b600781815481106104fc57600080fd5b60009182526020909120015473ffffffffffffffffffffffffffffffffffffffff16905081565b604051610532602082016115fa565b7fffffffffffffffffffffffffffffffffffffffffffffffffffffffffffffffe082820381018352601f90910116604081905261057291906020016118bc565b6040516020818303038152906040528051906020012081565b6000806000808573ffffffffffffffffffffffffffffffffffffffff168773ffffffffffffffffffffffffffffffffffffffff16106105d65785876105d18760646118f7565b6105da565b8686865b6040517fffffffffffffffffffffffffffffffffffffffff000000000000000000000000606085811b8216602084015284901b1660348201527fffffffff0000000000000000000000000000000000000000000000000000000060e083901b1660488201529295509093509150600090604c01604080517fffffffffffffffffffffffffffffffffffffffffffffffffffffffffffffffe081840301815291815281516020928301206000908152600690925290205473ffffffffffffffffffffffffffffffffffffffff1698975050505050505050565b73ffffffffffffffffffffffffffffffffffffffff811660009081526008602052604081205481908190819060ff1615610760578473ffffffffffffffffffffffffffffffffffffffff1663a5ea11da6040518163ffffffff1660e01b8152600401608060405180830381865afa158015610731573d6000803e3d6000fd5b505050506040513d601f19601f82011682018060405250810190610755919061191c565b929650909450925090505b9193509193565b60008473ffffffffffffffffffffffffffffffffffffffff168673ffffffffffffffffffffffffffffffffffffffff1603610803576040517f08c379a000000000000000000000000000000000000000000000000000000000815260206004820152600760248201527f524c503a2049410000000000000000000000000000000000000000000000000060448201526064015b60405180910390fd5b60028463ffffffff1610158015610821575060628463ffffffff1611155b801561083b575061083360028561197b565b63ffffffff16155b6108a1576040517f08c379a000000000000000000000000000000000000000000000000000000000815260206004820152600760248201527f524c503a2049570000000000000000000000000000000000000000000000000060448201526064016107fa565b60008060008773ffffffffffffffffffffffffffffffffffffffff168973ffffffffffffffffffffffffffffffffffffffff16106108eb5787896108e68960646118f7565b6108ef565b8888885b9194509250905073ffffffffffffffffffffffffffffffffffffffff8316610973576040517f08c379a000000000000000000000000000000000000000000000000000000000815260206004820152600760248201527f524c503a205a410000000000000000000000000000000000000000000000000060448201526064016107fa565b600060405180602001610985906115fa565b7fffffffffffffffffffffffffffffffffffffffffffffffffffffffffffffffe082820381018352601f9091011660408190527fffffffffffffffffffffffffffffffffffffffff000000000000000000000000606087811b8216602084015286901b1660348201527fffffffff0000000000000000000000000000000000000000000000000000000060e085901b166048820152909150600090604c01604080517fffffffffffffffffffffffffffffffffffffffffffffffffffffffffffffffe081840301815291815281516020928301206000818152600690935291205490915073ffffffffffffffffffffffffffffffffffffffff1615610ae6576040517f08c379a000000000000000000000000000000000000000000000000000000000815260206004820152600760248201527f524c503a2050450000000000000000000000000000000000000000000000000060448201526064016107fa565b808251602084016000f56040517f6ecf2b2200000000000000000000000000000000000000000000000000000000815273ffffffffffffffffffffffffffffffffffffffff8781166004830152868116602483015263ffffffff8616604483015291975090871690636ecf2b2290606401600060405180830381600087803b158015610b7157600080fd5b505af1158015610b85573d6000803e3d6000fd5b50506040517ff7747b4200000000000000000000000000000000000000000000000000000000815263ffffffff808c1660048301528a16602482015273ffffffffffffffffffffffffffffffffffffffff8916925063f7747b429150604401600060405180830381600087803b158015610bfe57600080fd5b505af1158015610c12573d6000803e3d6000fd5b50505073ffffffffffffffffffffffffffffffffffffffff8087166000908152600960209081526040808320938916835292905220610c529150876114a1565b5073ffffffffffffffffffffffffffffffffffffffff8085166000908152600960209081526040808320938916835292905220610c8f90876114a1565b506000818152600660209081526040808320805473ffffffffffffffffffffffffffffffffffffffff8b81167fffffffffffffffffffffffff0000000000000000000000000000000000000000928316811790935560078054600181810183557fa66cc928b5edb82af9bd49922954155ab7b0942694bea4ce44661d9a8736c68890910180549094168517909355838752600886529584902080547fffffffffffffffffffffffffffffffffffffffffffffffffffffffffffffff00169092179091559354825191825263ffffffff88169382019390935290810191909152858216918716907f3541d8fea55be35f686281f975bf8b7ab8fbb500c1c7ddd6c4e714655e9cd4e29060600160405180910390a3505050505095945050505050565b60005473ffffffffffffffffffffffffffffffffffffffff163314610e31576040517f08c379a000000000000000000000000000000000000000000000000000000000815260206004820181905260248201527f4f776e61626c653a2063616c6c6572206973206e6f7420746865206f776e657260448201526064016107fa565b610e3b6000611545565b565b60045473ffffffffffffffffffffffffffffffffffffffff163314610ebe576040517f08c379a000000000000000000000000000000000000000000000000000000000815260206004820152600660248201527f524c503a2046000000000000000000000000000000000000000000000000000060448201526064016107fa565b801580610edb57506127108110158015610edb5750620186a08111155b610f41576040517f08c379a000000000000000000000000000000000000000000000000000000000815260206004820152600860248201527f524c503a2049504600000000000000000000000000000000000000000000000060448201526064016107fa565b600355565b60045473ffffffffffffffffffffffffffffffffffffffff163314610fc7576040517f08c379a000000000000000000000000000000000000000000000000000000000815260206004820152600660248201527f524c503a2046000000000000000000000000000000000000000000000000000060448201526064016107fa565b600480547fffffffffffffffffffffffff00000000000000000000000000000000000000001673ffffffffffffffffffffffffffffffffffffffff92909216919091179055565b600a5473ffffffffffffffffffffffffffffffffffffffff1633148061104b575060005473ffffffffffffffffffffffffffffffffffffffff1633145b6110b1576040517f08c379a000000000000000000000000000000000000000000000000000000000815260206004820152600c60248201527f756e617574686f72697a6564000000000000000000000000000000000000000060448201526064016107fa565b6101f48263ffffffff16111580156110d157506127108163ffffffff1610155b611137576040517f08c379a000000000000000000000000000000000000000000000000000000000815260206004820152600860248201527f524c503a2049534600000000000000000000000000000000000000000000000060448201526064016107fa565b6040517ff7747b4200000000000000000000000000000000000000000000000000000000815263ffffffff80841660048301528216602482015273ffffffffffffffffffffffffffffffffffffffff84169063f7747b4290604401600060405180830381600087803b1580156111ac57600080fd5b505af11580156111c0573d6000803e3d6000fd5b505050508273ffffffffffffffffffffffffffffffffffffffff1663fff6cae96040518163ffffffff1660e01b8152600401600060405180830381600087803b15801561120c57600080fd5b505af1158015611220573d6000803e3d6000fd5b50505050505050565b60005473ffffffffffffffffffffffffffffffffffffffff1633146112aa576040517f08c379a000000000000000000000000000000000000000000000000000000000815260206004820181905260248201527f4f776e61626c653a2063616c6c6572206973206e6f7420746865206f776e657260448201526064016107fa565b73ffffffffffffffffffffffffffffffffffffffff811661134d576040517f08c379a000000000000000000000000000000000000000000000000000000000815260206004820152602660248201527f4f776e61626c653a206e6577206f776e657220697320746865207a65726f206160448201527f646472657373000000000000000000000000000000000000000000000000000060648201526084016107fa565b61135681611545565b50565b60045473ffffffffffffffffffffffffffffffffffffffff1633146113da576040517f08c379a000000000000000000000000000000000000000000000000000000000815260206004820152600660248201527f524c503a2046000000000000000000000000000000000000000000000000000060448201526064016107fa565b600180547fffffffffffffffffffffffff00000000000000000000000000000000000000001673ffffffffffffffffffffffffffffffffffffffff92909216919091179055565b8154600090821061148e576040517f08c379a000000000000000000000000000000000000000000000000000000000815260206004820152600d60248201527f4f55545f4f465f424f554e44530000000000000000000000000000000000000060448201526064016107fa565b61149883836115ba565b90505b92915050565b73ffffffffffffffffffffffffffffffffffffffff8116600090815260018301602052604081205461153d57508154600180820184556000848152602080822090930180547fffffffffffffffffffffffff00000000000000000000000000000000000000001673ffffffffffffffffffffffffffffffffffffffff86169081179091558554908252828601909352604090209190915561149b565b50600061149b565b6000805473ffffffffffffffffffffffffffffffffffffffff8381167fffffffffffffffffffffffff0000000000000000000000000000000000000000831681178455604051919092169283917f8be0079c531659141344cd1fd0a4f28419497f9722a3daafe3b4186f6b6457e09190a35050565b60008260000182815481106115d1576115d1611826565b60009182526020909120015473ffffffffffffffffffffffffffffffffffffffff169392505050565b6145b4806119c683390190565b73ffffffffffffffffffffffffffffffffffffffff8116811461135657600080fd5b6000806040838503121561163c57600080fd5b823561164781611607565b9150602083013561165781611607565b809150509250929050565b6020808252825182820181905260009190848201906040850190845b818110156116b057835173ffffffffffffffffffffffffffffffffffffffff168352928401929184019160010161167e565b50909695505050505050565b6000602082840312156116ce57600080fd5b5035919050565b63ffffffff8116811461135657600080fd5b6000806000606084860312156116fc57600080fd5b833561170781611607565b9250602084013561171781611607565b91506040840135611727816116d5565b809150509250925092565b60006020828403121561174457600080fd5b813561174f81611607565b9392505050565b600080600080600060a0868803121561176e57600080fd5b853561177981611607565b9450602086013561178981611607565b93506040860135611799816116d5565b925060608601356117a9816116d5565b915060808601356117b9816116d5565b809150509295509295909350565b6000806000606084860312156117dc57600080fd5b83356117e781611607565b92506020840135611717816116d5565b7f4e487b7100000000000000000000000000000000000000000000000000000000600052604160045260246000fd5b7f4e487b7100000000000000000000000000000000000000000000000000000000600052603260045260246000fd5b7f4e487b7100000000000000000000000000000000000000000000000000000000600052601160045260246000fd5b60007fffffffffffffffffffffffffffffffffffffffffffffffffffffffffffffffff82036118b5576118b5611855565b5060010190565b6000825160005b818110156118dd57602081860181015185830152016118c3565b818111156118ec576000828501525b509190910192915050565b600063ffffffff8381169083168181101561191457611914611855565b039392505050565b6000806000806080858703121561193257600080fd5b845161193d816116d5565b602086015190945061194e816116d5565b604086015190935061195f816116d5565b6060860151909250611970816116d5565b939692955090935050565b600063ffffffff808416806119b9577f4e487b7100000000000000000000000000000000000000000000000000000000600052601260045260246000fd5b9216919091069291505056fe6080604052600b805460ff60401b19166801000000000000000017905534801561002857600080fd5b50604080518082018252601f81527f5265717569656d2050616972204c69717569646974792050726f7669646572006020918201528151808301835260018152603160f81b9082015281517f8b73c3c69bb8fe3d512ecc4cf759cc79239f7b179b0ffacaa9a75d522b39400f818301527f4d949f5c4c4f80d7bdbde28a36135fecf440532cf0f2bb46c4801ec3299b1062818401527fc89efdaa54c0f20c7adf612882df0950f5a951637e0307cdcb4c672f298b8bc660608201524660808201523060a0808301919091528351808303909101815260c09091019092528151910120600355600580546001600160a01b031916331790556144868061012e6000396000f3fe608060405234801561001057600080fd5b506004361061020b5760003560e01c806370a082311161012a578063c45a0155116100bd578063d54a8d181161008c578063e9255bae11610071578063e9255bae146105b4578063f7747b42146105c7578063fff6cae9146105da57600080fd5b8063d54a8d181461054d578063dd62ed3e1461058957600080fd5b8063c45a0155146104e7578063cc56fd4314610507578063d21220a71461051a578063d505accf1461053a57600080fd5b8063a5ea11da116100f9578063a5ea11da14610449578063a9059cbb146104b8578063ba9a7a56146104cb578063bc25cf77146104d457600080fd5b806370a08231146103d95780637ecebe00146103f957806389afcb441461041957806395d89b411461044157600080fd5b806330adf81f116101a25780634ac00e03116101715780634ac00e03146103805780634b75f54f146103935780636a627842146103b35780636ecf2b22146103c657600080fd5b806330adf81f14610323578063313ce5671461034a57806332fd5493146103645780633644e5151461037757600080fd5b80630dfe1681116101de5780630dfe1681146102a15780630e6d8bce146102e657806318160ddd1461030757806323b872dd1461031057600080fd5b8063022c0d9f1461021057806306fdde03146102255780630902f1ac14610243578063095ea7b31461027e575b600080fd5b61022361021e366004613c88565b6105e2565b005b61022d610706565b60405161023a9190613d94565b60405180910390f35b61024b61087e565b60405161023a91908151815260208083015190820152604080830151908201526060918201519181019190915260800190565b61029161028c366004613da7565b6108fd565b604051901515815260200161023a565b6006546102c19073ffffffffffffffffffffffffffffffffffffffff1681565b60405173ffffffffffffffffffffffffffffffffffffffff909116815260200161023a565b6102f96102f4366004613dd3565b610913565b60405190815260200161023a565b6102f960005481565b61029161031e366004613e32565b610c2b565b6102f97f6e71edae12b1b97f4d1f60370fef10105fa2faae0126114a169c64845d6126c981565b610352601281565b60405160ff909116815260200161023a565b610223610372366004613dd3565b610cdd565b6102f960035481565b6102f961038e366004613dd3565b610dff565b6008546102c19073ffffffffffffffffffffffffffffffffffffffff1681565b6102f96103c1366004613e73565b61103c565b6102236103d4366004613ea4565b6114b4565b6102f96103e7366004613e73565b60016020526000908152604090205481565b6102f9610407366004613e73565b60046020526000908152604090205481565b61042c610427366004613e73565b611707565b6040805192835260208301919091520161023a565b61022d611c4d565b600a54600b54600c54604080517c010000000000000000000000000000000000000000000000000000000090940463ffffffff908116855280841660208601526401000000009093048316908401526e010000000000000000000000000000900416606082015260800161023a565b6102916104c6366004613da7565b611daf565b6102f96103e881565b6102236104e2366004613e73565b611dbc565b6005546102c19073ffffffffffffffffffffffffffffffffffffffff1681565b6102f9610515366004613e32565b611fdb565b6007546102c19073ffffffffffffffffffffffffffffffffffffffff1681565b610223610548366004613eeb565b6121ae565b600a54604080516dffffffffffffffffffffffffffff80841682526e01000000000000000000000000000090930490921660208301520161023a565b6102f9610597366004613f62565b600260209081526000928352604080842090915290825290205481565b6102f96105c2366004613e32565b612499565b6102236105d5366004613f9b565b612623565b6102236127e8565b600b5468010000000000000000900460ff1661065f576040517f08c379a000000000000000000000000000000000000000000000000000000000815260206004820152600860248201527f5245514c503a204c00000000000000000000000000000000000000000000000060448201526064015b60405180910390fd5b600b80547fffffffffffffffffffffffffffffffffffffffffffffff00ffffffffffffffff169055604080516020601f84018190048102820181019092528281526106cb91879187918791908790879081908401838280828437600092019190915250612a7c92505050565b5050600b80547fffffffffffffffffffffffffffffffffffffffffffffff00ffffffffffffffff166801000000000000000017905550505050565b600654600754604080517f95d89b41000000000000000000000000000000000000000000000000000000008152905160609373ffffffffffffffffffffffffffffffffffffffff90811693169183916395d89b41916004808201926000929091908290030181865afa158015610780573d6000803e3d6000fd5b505050506040513d6000823e601f3d9081017fffffffffffffffffffffffffffffffffffffffffffffffffffffffffffffffe01682016040526107c69190810190613ffd565b8173ffffffffffffffffffffffffffffffffffffffff166395d89b416040518163ffffffff1660e01b8152600401600060405180830381865afa158015610811573d6000803e3d6000fd5b505050506040513d6000823e601f3d9081017fffffffffffffffffffffffffffffffffffffffffffffffffffffffffffffffe01682016040526108579190810190613ffd565b6040516020016108689291906140c8565b6040516020818303038152906040529250505090565b6108a96040518060800160405280600081526020016000815260200160008152602001600081525090565b6009546dffffffffffffffffffffffffffff80821683526e01000000000000000000000000000090910481166020830152600b546901000000000000000000900481166040830152600c5416606082015290565b600061090a3384846132c5565b50600192915050565b600b5460009068010000000000000000900460ff1661098e576040517f08c379a000000000000000000000000000000000000000000000000000000000815260206004820152600860248201527f5245514c503a204c0000000000000000000000000000000000000000000000006044820152606401610656565b600b80547fffffffffffffffffffffffffffffffffffffffffffffff00ffffffffffffffff16905560065473ffffffffffffffffffffffffffffffffffffffff878116911614600080808084610a3857600c54600b54600a546dffffffffffffffffffffffffffff9283169269010000000000000000008304169163ffffffff908116917c0100000000000000000000000000000000000000000000000000000000900416610a8e565b600b54600c54600a546dffffffffffffffffffffffffffff6901000000000000000000840481169392169163ffffffff7c0100000000000000000000000000000000000000000000000000000000909204821691165b600854600b546040517fb19210b00000000000000000000000000000000000000000000000000000000081526dffffffffffffffffffffffffffff9687169a50949095169750919550935060009273ffffffffffffffffffffffffffffffffffffffff9091169163b19210b091610b50918e918a918a918a918a9163ffffffff64010000000090910416906004019586526020860194909452604085019290925263ffffffff908116606085015290811660808401521660a082015260c00190565b602060405180830381865afa158015610b6d573d6000803e3d6000fd5b505050506040513d601f19601f82011682018060405250810190610b919190614149565b905060008087610ba357826000610ba7565b6000835b9092509050610be582828c60005b6040519080825280601f01601f191660200182016040528015610bdf576020820181803683370190505b50612a7c565b98505050505050505050600b80547fffffffffffffffffffffffffffffffffffffffffffffff00ffffffffffffffff166801000000000000000017905595945050505050565b73ffffffffffffffffffffffffffffffffffffffff831660009081526002602090815260408083203384529091528120547fffffffffffffffffffffffffffffffffffffffffffffffffffffffffffffffff14610cc85773ffffffffffffffffffffffffffffffffffffffff8416600090815260026020908152604080832033845290915281208054849290610cc2908490614191565b90915550505b610cd3848484613334565b5060019392505050565b600b5468010000000000000000900460ff16610d55576040517f08c379a000000000000000000000000000000000000000000000000000000000815260206004820152600860248201527f5245514c503a204c0000000000000000000000000000000000000000000000006044820152606401610656565b600b80547fffffffffffffffffffffffffffffffffffffffffffffff00ffffffffffffffff169055600654600090819073ffffffffffffffffffffffffffffffffffffffff888116911614610dac57836000610db0565b6000845b9092509050610dc28282856000610bb5565b5050600b80547fffffffffffffffffffffffffffffffffffffffffffffff00ffffffffffffffff1668010000000000000000179055505050505050565b600b5460009068010000000000000000900460ff16610e7a576040517f08c379a000000000000000000000000000000000000000000000000000000000815260206004820152600860248201527f5245514c503a204c0000000000000000000000000000000000000000000000006044820152606401610656565b600b80547fffffffffffffffffffffffffffffffffffffffffffffff00ffffffffffffffff16905560065473ffffffffffffffffffffffffffffffffffffffff878116911614600080808084610f2457600c54600b54600a546dffffffffffffffffffffffffffff9283169269010000000000000000008304169163ffffffff908116917c0100000000000000000000000000000000000000000000000000000000900416610f7a565b600b54600c54600a546dffffffffffffffffffffffffffff6901000000000000000000840481169392169163ffffffff7c0100000000000000000000000000000000000000000000000000000000909204821691165b600854600b546040517f671a11b50000000000000000000000000000000000000000000000000000000081526dffffffffffffffffffffffffffff9687169a50949095169750919550935060009273ffffffffffffffffffffffffffffffffffffffff9091169163671a11b591610b50918e918a918a918a918a9163ffffffff64010000000090910416906004019586526020860194909452604085019290925263ffffffff908116606085015290811660808401521660a082015260c00190565b600b5460009068010000000000000000900460ff166110b7576040517f08c379a000000000000000000000000000000000000000000000000000000000815260206004820152600860248201527f5245514c503a204c0000000000000000000000000000000000000000000000006044820152606401610656565b600b80547fffffffffffffffffffffffffffffffffffffffffffffff00ffffffffffffffff16905560006110e961087e565b90506111166040518060800160405280600081526020016000815260200160008152602001600081525090565b6006546040517f70a0823100000000000000000000000000000000000000000000000000000000815230600482015273ffffffffffffffffffffffffffffffffffffffff909116906370a0823190602401602060405180830381865afa158015611184573d6000803e3d6000fd5b505050506040513d601f19601f820116820180604052508101906111a89190614149565b81526007546040517f70a0823100000000000000000000000000000000000000000000000000000000815230600482015273ffffffffffffffffffffffffffffffffffffffff909116906370a0823190602401602060405180830381865afa158015611218573d6000803e3d6000fd5b505050506040513d601f19601f8201168201806040525081019061123c9190614149565b60208201528151815160009161125191614191565b90506000836020015183602001516112699190614191565b905061127483613409565b50600080549081900361131b57600c5484516e01000000000000000000000000000090910463ffffffff1690612710906112af9083906141a8565b6112b99190614214565b60408601526020850151612710906112d89063ffffffff8416906141a8565b6112e29190614214565b60608601526103e86112fc6112f785876141a8565b6137af565b6113069190614191565b965061131560006103e861381f565b506113be565b84516113539061132b83866141a8565b6113359190614214565b602087015161134484866141a8565b61134e9190614214565b6138c2565b955060006113618288614228565b90506113888282886040015161137791906141a8565b6113819190614214565b86516138da565b604086015260608601516113b79083906113a39084906141a8565b6113ad9190614214565b86602001516138da565b6060860152505b60008611611428576040517f08c379a000000000000000000000000000000000000000000000000000000000815260206004820152600a60248201527f5245514c503a20494c4d000000000000000000000000000000000000000000006044820152606401610656565b611432878761381f565b61143b846138e9565b604080518481526020810184905233917f4c209b5fc8ad50758f13e2e1088ba56a560dff690a1c6fef26394f4c03821c4f910160405180910390a25050600b80547fffffffffffffffffffffffffffffffffffffffffffffff00ffffffffffffffff166801000000000000000017905550919392505050565b60055473ffffffffffffffffffffffffffffffffffffffff163314611535576040517f08c379a000000000000000000000000000000000000000000000000000000000815260206004820152600860248201527f5245514c503a20460000000000000000000000000000000000000000000000006044820152606401610656565b600680547fffffffffffffffffffffffff000000000000000000000000000000000000000090811673ffffffffffffffffffffffffffffffffffffffff8681169190911790925560078054909116918416919091179055600a80547bffffffffffffffffffffffffffffffffffffffffffffffffffffffff167c010000000000000000000000000000000000000000000000000000000063ffffffff848116820292909217928390556115eb9204166064614240565b600b805463ffffffff929092167fffffffffffffffffffffffffffffffffffffffffffffffff000000000000000090921691909117640a00000000179055600554604080517f4b75f54f000000000000000000000000000000000000000000000000000000008152905173ffffffffffffffffffffffffffffffffffffffff90921691634b75f54f916004808201926020929091908290030181865afa158015611699573d6000803e3d6000fd5b505050506040513d601f19601f820116820180604052508101906116bd9190614265565b600880547fffffffffffffffffffffffff00000000000000000000000000000000000000001673ffffffffffffffffffffffffffffffffffffffff92909216919091179055505050565b600b54600090819068010000000000000000900460ff16611784576040517f08c379a000000000000000000000000000000000000000000000000000000000815260206004820152600860248201527f5245514c503a204c0000000000000000000000000000000000000000000000006044820152606401610656565b600b80547fffffffffffffffffffffffffffffffffffffffffffffff00ffffffffffffffff16905560006117b661087e565b6006546007546040517f70a0823100000000000000000000000000000000000000000000000000000000815230600482015292935073ffffffffffffffffffffffffffffffffffffffff9182169291169060009083906370a0823190602401602060405180830381865afa158015611832573d6000803e3d6000fd5b505050506040513d601f19601f820116820180604052508101906118569190614149565b6040517f70a0823100000000000000000000000000000000000000000000000000000000815230600482015290915060009073ffffffffffffffffffffffffffffffffffffffff8416906370a0823190602401602060405180830381865afa1580156118c6573d6000803e3d6000fd5b505050506040513d601f19601f820116820180604052508101906118ea9190614149565b3060009081526001602052604090205490915061190686613409565b506000548061191585846141a8565b61191f9190614214565b98508061192c84846141a8565b6119369190614214565b97506000891180156119485750600088115b6119ae576040517f08c379a000000000000000000000000000000000000000000000000000000000815260206004820152600a60248201527f5245514c503a20494c42000000000000000000000000000000000000000000006044820152606401610656565b6119b83083613a56565b6119c3868b8b613af3565b6119ce858b8a613af3565b6119f96040518060800160405280600081526020016000815260200160008152602001600081525090565b6040517f70a0823100000000000000000000000000000000000000000000000000000000815230600482015273ffffffffffffffffffffffffffffffffffffffff8816906370a0823190602401602060405180830381865afa158015611a63573d6000803e3d6000fd5b505050506040513d601f19601f82011682018060405250810190611a879190614149565b81526040517f70a0823100000000000000000000000000000000000000000000000000000000815230600482015273ffffffffffffffffffffffffffffffffffffffff8716906370a0823190602401602060405180830381865afa158015611af3573d6000803e3d6000fd5b505050506040513d601f19601f82011682018060405250810190611b179190614149565b602082015287518151600091611b5191611b329086906141a8565b611b3c9190614214565b8a6020015185856020015161134491906141a8565b9050611b7883828b60400151611b6791906141a8565b611b719190614214565b83516138da565b60408301526060890151611ba7908490611b939084906141a8565b611b9d9190614214565b83602001516138da565b6060830152611bb5826138e9565b604080518c8152602081018c905273ffffffffffffffffffffffffffffffffffffffff8e169133917fdccd412f0b1252819cb1fd330b93224ca42612892bb3f4f789976e6d81936496910160405180910390a35050600b80547fffffffffffffffffffffffffffffffffffffffffffffff00ffffffffffffffff16680100000000000000001790555096989597509495505050505050565b600654600754604080517f95d89b41000000000000000000000000000000000000000000000000000000008152905160609373ffffffffffffffffffffffffffffffffffffffff90811693169183916395d89b41916004808201926000929091908290030181865afa158015611cc7573d6000803e3d6000fd5b505050506040513d6000823e601f3d9081017fffffffffffffffffffffffffffffffffffffffffffffffffffffffffffffffe0168201604052611d0d9190810190613ffd565b8173ffffffffffffffffffffffffffffffffffffffff166395d89b416040518163ffffffff1660e01b8152600401600060405180830381865afa158015611d58573d6000803e3d6000fd5b505050506040513d6000823e601f3d9081017fffffffffffffffffffffffffffffffffffffffffffffffffffffffffffffffe0168201604052611d9e9190810190613ffd565b604051602001610868929190614282565b600061090a338484613334565b600b5468010000000000000000900460ff16611e34576040517f08c379a000000000000000000000000000000000000000000000000000000000815260206004820152600860248201527f5245514c503a204c0000000000000000000000000000000000000000000000006044820152606401610656565b600b80547fffffffffffffffffffffffffffffffffffffffffffffff00ffffffffffffffff1690556006546007546009546040517f70a0823100000000000000000000000000000000000000000000000000000000815230600482015273ffffffffffffffffffffffffffffffffffffffff9384169390921691611f2391849186916dffffffffffffffffffffffffffff169083906370a08231906024015b602060405180830381865afa158015611ef0573d6000803e3d6000fd5b505050506040513d601f19601f82011682018060405250810190611f149190614149565b611f1e9190614191565b613af3565b6009546040517f70a08231000000000000000000000000000000000000000000000000000000008152306004820152611fa391839186916e01000000000000000000000000000090046dffffffffffffffffffffffffffff169073ffffffffffffffffffffffffffffffffffffffff8416906370a0823190602401611ed3565b5050600b80547fffffffffffffffffffffffffffffffffffffffffffffff00ffffffffffffffff166801000000000000000017905550565b600654600090819081908190819073ffffffffffffffffffffffffffffffffffffffff89811691161461206257600c54600b54600a546dffffffffffffffffffffffffffff9283169269010000000000000000008304169163ffffffff908116917c01000000000000000000000000000000000000000000000000000000009004166120b8565b600b54600c54600a546dffffffffffffffffffffffffffff6901000000000000000000840481169392169163ffffffff7c0100000000000000000000000000000000000000000000000000000000909204821691165b600854600b546040517fb19210b0000000000000000000000000000000000000000000000000000000008152600481018d90526dffffffffffffffffffffffffffff96871660248201819052959096166044870181905263ffffffff8086166064890152808516608489015264010000000090920490911660a4870152939850929650909450925073ffffffffffffffffffffffffffffffffffffffff169063b19210b09060c4015b602060405180830381865afa15801561217e573d6000803e3d6000fd5b505050506040513d601f19601f820116820180604052508101906121a29190614149565b98975050505050505050565b42841015612218576040517f08c379a000000000000000000000000000000000000000000000000000000000815260206004820152600c60248201527f5245513a204558504952454400000000000000000000000000000000000000006044820152606401610656565b60035473ffffffffffffffffffffffffffffffffffffffff8816600090815260046020526040812080549192917f6e71edae12b1b97f4d1f60370fef10105fa2faae0126114a169c64845d6126c9918b918b918b91908761227883614303565b9091555060408051602081019690965273ffffffffffffffffffffffffffffffffffffffff94851690860152929091166060840152608083015260a082015260c0810187905260e001604051602081830303815290604052805190602001206040516020016123199291907f190100000000000000000000000000000000000000000000000000000000000081526002810192909252602282015260420190565b604080517fffffffffffffffffffffffffffffffffffffffffffffffffffffffffffffffe08184030181528282528051602091820120600080855291840180845281905260ff88169284019290925260608301869052608083018590529092509060019060a0016020604051602081039080840390855afa1580156123a2573d6000803e3d6000fd5b50506040517fffffffffffffffffffffffffffffffffffffffffffffffffffffffffffffffe0015191505073ffffffffffffffffffffffffffffffffffffffff81161580159061241d57508873ffffffffffffffffffffffffffffffffffffffff168173ffffffffffffffffffffffffffffffffffffffff16145b612483576040517f08c379a000000000000000000000000000000000000000000000000000000000815260206004820152600760248201527f5245513a204953000000000000000000000000000000000000000000000000006044820152606401610656565b61248e8989896132c5565b505050505050505050565b600654600090819081908190819073ffffffffffffffffffffffffffffffffffffffff89811691161461252057600c54600b54600a546dffffffffffffffffffffffffffff9283169269010000000000000000008304169163ffffffff908116917c0100000000000000000000000000000000000000000000000000000000900416612576565b600b54600c54600a546dffffffffffffffffffffffffffff6901000000000000000000840481169392169163ffffffff7c0100000000000000000000000000000000000000000000000000000000909204821691165b600854600b546040517f671a11b5000000000000000000000000000000000000000000000000000000008152600481018d90526dffffffffffffffffffffffffffff96871660248201819052959096166044870181905263ffffffff8086166064890152808516608489015264010000000090920490911660a4870152939850929650909450925073ffffffffffffffffffffffffffffffffffffffff169063671a11b59060c401612161565b60055473ffffffffffffffffffffffffffffffffffffffff1633146126a6576040517f08c379a00000000000000000000000000000000000000000000000000000000081526004016106569060208082526004908201527f6175746800000000000000000000000000000000000000000000000000000000604082015260600190565b600b805463ffffffff808516640100000000027fffffffffffffffffffffffffffffffffffffffffffffffff00000000ffffffff909216919091179182905561271091612713918416906dffffffffffffffffffffffffffff69010000000000000000009091041661433b565b61271d9190614371565b600b80547fffffffffffffffffff0000000000000000000000000000ffffffffffffffffff1669010000000000000000006dffffffffffffffffffffffffffff93841602179055600c546127109161277d9163ffffffff8516911661433b565b6127879190614371565b600c805463ffffffff9093166e010000000000000000000000000000027fffffffffffffffffffffffffffff0000000000000000000000000000000000009093166dffffffffffffffffffffffffffff929092169190911791909117905550565b60006127f261087e565b90506127fd81613409565b506128296040518060800160405280600081526020016000815260200160008152602001600081525090565b6006546040517f70a0823100000000000000000000000000000000000000000000000000000000815230600482015273ffffffffffffffffffffffffffffffffffffffff909116906370a0823190602401602060405180830381865afa158015612897573d6000803e3d6000fd5b505050506040513d601f19601f820116820180604052508101906128bb9190614149565b81526007546040517f70a0823100000000000000000000000000000000000000000000000000000000815230600482015273ffffffffffffffffffffffffffffffffffffffff909116906370a0823190602401602060405180830381865afa15801561292b573d6000803e3d6000fd5b505050506040513d601f19601f8201168201806040525081019061294f9190614149565b6020820152600080546009549091906129b5906dffffffffffffffffffffffffffff1661297c84826141a8565b6129869190614214565b6009546e01000000000000000000000000000090046dffffffffffffffffffffffffffff1661134485826141a8565b600b54909150612a0b9083906129e9908490690100000000000000000090046dffffffffffffffffffffffffffff166141a8565b6129f39190614214565b6009546dffffffffffffffffffffffffffff166138da565b6040840152600c54612a68908390612a349084906dffffffffffffffffffffffffffff166141a8565b612a3e9190614214565b6009546e01000000000000000000000000000090046dffffffffffffffffffffffffffff166138da565b6060840152612a76836138e9565b50505050565b600080851180612a8c5750600084115b612af2576040517f08c379a000000000000000000000000000000000000000000000000000000000815260206004820152600a60248201527f5245514c503a20494f41000000000000000000000000000000000000000000006044820152606401610656565b6000612afc61087e565b805190915086108015612b125750806020015185105b612b78576040517f08c379a000000000000000000000000000000000000000000000000000000000815260206004820152600960248201527f5245514c503a20494c00000000000000000000000000000000000000000000006044820152606401610656565b612ba36040518060800160405280600081526020016000815260200160008152602001600081525090565b60065460075473ffffffffffffffffffffffffffffffffffffffff918216919081169087168214801590612c0357508073ffffffffffffffffffffffffffffffffffffffff168773ffffffffffffffffffffffffffffffffffffffff1614155b612c69576040517f08c379a000000000000000000000000000000000000000000000000000000000815260206004820152600960248201527f5245514c503a20495400000000000000000000000000000000000000000000006044820152606401610656565b8815612c7a57612c7a82888b613af3565b8715612c8b57612c8b81888a613af3565b855115612d1d576040517f8492923100000000000000000000000000000000000000000000000000000000815273ffffffffffffffffffffffffffffffffffffffff881690638492923190612cea9033908d908d908c9060040161439e565b600060405180830381600087803b158015612d0457600080fd5b505af1158015612d18573d6000803e3d6000fd5b505050505b6040517f70a0823100000000000000000000000000000000000000000000000000000000815230600482015273ffffffffffffffffffffffffffffffffffffffff8316906370a0823190602401602060405180830381865afa158015612d87573d6000803e3d6000fd5b505050506040513d601f19601f82011682018060405250810190612dab9190614149565b83526040517f70a0823100000000000000000000000000000000000000000000000000000000815230600482015273ffffffffffffffffffffffffffffffffffffffff8216906370a0823190602401602060405180830381865afa158015612e17573d6000803e3d6000fd5b505050506040513d601f19601f82011682018060405250810190612e3b9190614149565b6020840152835183516040860151612e539190614228565b612e5d9190614191565b6040840152602080850151908401516060860151612e7b9190614228565b612e859190614191565b606084015250508151600090612e9c908990614191565b825111612eaa576000612ec3565b8251612eb7908990614191565b8251612ec39190614191565b90506000878460200151612ed79190614191565b836020015111612ee8576000612f07565b878460200151612ef89190614191565b8360200151612f079190614191565b90506000821180612f185750600081115b612f7e576040517f08c379a000000000000000000000000000000000000000000000000000000000815260206004820152600a60248201527f5245514c503a20494941000000000000000000000000000000000000000000006044820152606401610656565b60008360400151612710612f9291906141a8565b905060008460600151612710612fa891906141a8565b9050831561303c57600b54600090612fce90640100000000900463ffffffff16866141a8565b9050612fda8184614191565b600a54909350612ffb9082906dffffffffffffffffffffffffffff16614228565b600a80547fffffffffffffffffffffffffffffffffffff0000000000000000000000000000166dffffffffffffffffffffffffffff92909216919091179055505b82156130d557600b5460009061306090640100000000900463ffffffff16856141a8565b905061306c8183614191565b600a5490925061309f9082906e01000000000000000000000000000090046dffffffffffffffffffffffffffff16614228565b600a600e6101000a8154816dffffffffffffffffffffffffffff02191690836dffffffffffffffffffffffffffff160217905550505b600854604087015173ffffffffffffffffffffffffffffffffffffffff909116906379c91b3790613108906127106141a8565b6060890151613119906127106141a8565b600a5460405160e085901b7fffffffff000000000000000000000000000000000000000000000000000000001681526004810193909352602483019190915260448201869052606482018590527c0100000000000000000000000000000000000000000000000000000000900463ffffffff16608482015260a401602060405180830381865afa1580156131b1573d6000803e3d6000fd5b505050506040513d601f19601f820116820180604052508101906131d591906143e3565b61323b576040517f08c379a000000000000000000000000000000000000000000000000000000000815260206004820152600860248201527f5245514c503a204b0000000000000000000000000000000000000000000000006044820152606401610656565b613244856138e9565b60408051858152602081018590529081018c9052606081018b905273ffffffffffffffffffffffffffffffffffffffff8a169033907fd78ad95fa46c994b6551d0da85fc275fe613ce37657fb8d5e3d130840159d8229060800160405180910390a360008b116132b457896132b6565b8a5b9b9a5050505050505050505050565b73ffffffffffffffffffffffffffffffffffffffff83811660008181526002602090815260408083209487168084529482529182902085905590518481527f8c5be1e5ebec7d5bd14f71427d1e84f3dd0314c0f7b2291e5b200ac8c7c3b92591015b60405180910390a3505050565b73ffffffffffffffffffffffffffffffffffffffff831660009081526001602052604081208054839290613369908490614191565b909155505073ffffffffffffffffffffffffffffffffffffffff8216600090815260016020526040812080548392906133a3908490614228565b925050819055508173ffffffffffffffffffffffffffffffffffffffff168373ffffffffffffffffffffffffffffffffffffffff167fddf252ad1be2c89b69c2b068fc378daa952ba7f163c4a11628f55a4df523b3ef8360405161332791815260200190565b600080600560009054906101000a900473ffffffffffffffffffffffffffffffffffffffff1673ffffffffffffffffffffffffffffffffffffffff1663017e7e586040518163ffffffff1660e01b8152600401602060405180830381865afa158015613479573d6000803e3d6000fd5b505050506040513d601f19601f8201168201806040525081019061349d9190614265565b90506000600560009054906101000a900473ffffffffffffffffffffffffffffffffffffffff1673ffffffffffffffffffffffffffffffffffffffff1663b0e21e8a6040518163ffffffff1660e01b8152600401602060405180830381865afa15801561350e573d6000803e3d6000fd5b505050506040513d601f19601f820116820180604052508101906135329190614149565b73ffffffffffffffffffffffffffffffffffffffff8316151593509050600080613582600a546dffffffffffffffffffffffffffff808216926e0100000000000000000000000000009092041690565b915091506000836dffffffffffffffffffffffffffff161180156135a35750845b80156135d957506000826dffffffffffffffffffffffffffff1611806135d957506000816dffffffffffffffffffffffffffff16115b1561372857600a546008546000805460408a015160608b01517c010000000000000000000000000000000000000000000000000000000090950463ffffffff1694929373ffffffffffffffffffffffffffffffffffffffff1692639ed45e4792919086613647816064614240565b6136518c8c614371565b61365b8d8c614371565b6040517fffffffff0000000000000000000000000000000000000000000000000000000060e08a901b16815260048101979097526024870195909552604486019390935263ffffffff91821660648601521660848401526dffffffffffffffffffffffffffff90811660a48401521660c482015260e401602060405180830381865afa1580156136ef573d6000803e3d6000fd5b505050506040513d601f19601f820116820180604052508101906137139190614149565b9050801561372557613725868261381f565b50505b6dffffffffffffffffffffffffffff82161561376757600a80547fffffffffffffffffffffffffffffffffffff00000000000000000000000000001690555b6dffffffffffffffffffffffffffff8116156137a657600a80547fffffffff0000000000000000000000000000ffffffffffffffffffffffffffff1690555b50505050919050565b6000600382111561381057508060006137c9600283614214565b6137d4906001614228565b90505b8181101561380a579050806002816137ef8186614214565b6137f99190614228565b6138039190614214565b90506137d7565b50919050565b811561381a575060015b919050565b806000808282546138309190614228565b909155505073ffffffffffffffffffffffffffffffffffffffff82166000908152600160205260408120805483929061386a908490614228565b909155505060405181815273ffffffffffffffffffffffffffffffffffffffff8316906000907fddf252ad1be2c89b69c2b068fc378daa952ba7f163c4a11628f55a4df523b3ef906020015b60405180910390a35050565b60008183106138d157816138d3565b825b9392505050565b60008183116138d157816138d3565b80516009805460208401516dffffffffffffffffffffffffffff9081166e010000000000000000000000000000027fffffffff000000000000000000000000000000000000000000000000000000009092169084161717905560408201511080159061395d57508060200151816060015110155b61396957613969614405565b604081810151600b80547fffffffffffffffffff0000000000000000000000000000ffffffffffffffffff1669010000000000000000006dffffffffffffffffffffffffffff93841681029190911791829055606080860151600c80547fffffffffffffffffffffffffffffffffffff0000000000000000000000000000169186169182179055600954865181871681526e010000000000000000000000000000909104861660208201529290930490931693810193909352908201527f90cf11c015dfdfdf83f1b0ed5d27ebcd2839050639a62928e181005c315248d69060800160405180910390a150565b73ffffffffffffffffffffffffffffffffffffffff821660009081526001602052604081208054839290613a8b908490614191565b9250508190555080600080828254613aa39190614191565b909155505060405181815260009073ffffffffffffffffffffffffffffffffffffffff8416907fddf252ad1be2c89b69c2b068fc378daa952ba7f163c4a11628f55a4df523b3ef906020016138b6565b6040805173ffffffffffffffffffffffffffffffffffffffff8481166024830152604480830185905283518084039091018152606490920183526020820180517bffffffffffffffffffffffffffffffffffffffffffffffffffffffff167fa9059cbb000000000000000000000000000000000000000000000000000000001790529151600092839290871691613b8a9190614434565b6000604051808303816000865af19150503d8060008114613bc7576040519150601f19603f3d011682016040523d82523d6000602084013e613bcc565b606091505b5091509150818015613bf6575080511580613bf6575080806020019051810190613bf691906143e3565b613c5c576040517f08c379a000000000000000000000000000000000000000000000000000000000815260206004820152600960248201527f5245514c503a20544600000000000000000000000000000000000000000000006044820152606401610656565b5050505050565b73ffffffffffffffffffffffffffffffffffffffff81168114613c8557600080fd5b50565b600080600080600060808688031215613ca057600080fd5b85359450602086013593506040860135613cb981613c63565b9250606086013567ffffffffffffffff80821115613cd657600080fd5b818801915088601f830112613cea57600080fd5b813581811115613cf957600080fd5b896020828501011115613d0b57600080fd5b9699959850939650602001949392505050565b60005b83811015613d39578181015183820152602001613d21565b83811115612a765750506000910152565b60008151808452613d62816020860160208601613d1e565b601f017fffffffffffffffffffffffffffffffffffffffffffffffffffffffffffffffe0169290920160200192915050565b6020815260006138d36020830184613d4a565b60008060408385031215613dba57600080fd5b8235613dc581613c63565b946020939093013593505050565b600080600080600060a08688031215613deb57600080fd5b8535613df681613c63565b94506020860135613e0681613c63565b935060408601359250606086013591506080860135613e2481613c63565b809150509295509295909350565b600080600060608486031215613e4757600080fd5b8335613e5281613c63565b92506020840135613e6281613c63565b929592945050506040919091013590565b600060208284031215613e8557600080fd5b81356138d381613c63565b803563ffffffff8116811461381a57600080fd5b600080600060608486031215613eb957600080fd5b8335613ec481613c63565b92506020840135613ed481613c63565b9150613ee260408501613e90565b90509250925092565b600080600080600080600060e0888a031215613f0657600080fd5b8735613f1181613c63565b96506020880135613f2181613c63565b95506040880135945060608801359350608088013560ff81168114613f4557600080fd5b9699959850939692959460a0840135945060c09093013592915050565b60008060408385031215613f7557600080fd5b8235613f8081613c63565b91506020830135613f9081613c63565b809150509250929050565b60008060408385031215613fae57600080fd5b613fb783613e90565b9150613fc560208401613e90565b90509250929050565b7f4e487b7100000000000000000000000000000000000000000000000000000000600052604160045260246000fd5b60006020828403121561400f57600080fd5b815167ffffffffffffffff8082111561402757600080fd5b818401915084601f83011261403b57600080fd5b81518181111561404d5761404d613fce565b604051601f82017fffffffffffffffffffffffffffffffffffffffffffffffffffffffffffffffe0908116603f0116810190838211818310171561409357614093613fce565b816040528281528760208487010111156140ac57600080fd5b6140bd836020830160208801613d1e565b979650505050505050565b7f5245515549454d204c502000000000000000000000000000000000000000000081526000835161410081600b850160208801613d1e565b7f2d00000000000000000000000000000000000000000000000000000000000000600b91840191820152835161413d81600c840160208801613d1e565b01600c01949350505050565b60006020828403121561415b57600080fd5b5051919050565b7f4e487b7100000000000000000000000000000000000000000000000000000000600052601160045260246000fd5b6000828210156141a3576141a3614162565b500390565b6000817fffffffffffffffffffffffffffffffffffffffffffffffffffffffffffffffff04831182151516156141e0576141e0614162565b500290565b7f4e487b7100000000000000000000000000000000000000000000000000000000600052601260045260246000fd5b600082614223576142236141e5565b500490565b6000821982111561423b5761423b614162565b500190565b600063ffffffff8381169083168181101561425d5761425d614162565b039392505050565b60006020828403121561427757600080fd5b81516138d381613c63565b7f5245512d4c5020000000000000000000000000000000000000000000000000008152600083516142ba816007850160208801613d1e565b7f2d0000000000000000000000000000000000000000000000000000000000000060079184019182015283516142f7816008840160208801613d1e565b01600801949350505050565b60007fffffffffffffffffffffffffffffffffffffffffffffffffffffffffffffffff820361433457614334614162565b5060010190565b60006dffffffffffffffffffffffffffff8083168185168183048111821515161561436857614368614162565b02949350505050565b60006dffffffffffffffffffffffffffff80841680614392576143926141e5565b92169190910492915050565b73ffffffffffffffffffffffffffffffffffffffff851681528360208201528260408201526080606082015260006143d96080830184613d4a565b9695505050505050565b6000602082840312156143f557600080fd5b815180151581146138d357600080fd5b7f4e487b7100000000000000000000000000000000000000000000000000000000600052600160045260246000fd5b60008251614446818460208701613d1e565b919091019291505056fea2646970667358221220e570d2dc2df2a724aee837c77675b05a45347ebbcff07f2c155e81d0c0173c0a64736f6c634300080d0033a26469706673582212206d1f5863ae401aab10707fd6a7e194b31447a07c60527766402edfebecab1c5b64736f6c634300080d0033",
  "devdoc": {
    "kind": "dev",
    "methods": {
      "createPair(address,address,uint32,uint32,uint32)": {
        "params": {
          "initialAmp": "initial amplification parameter",
          "initialFee": "initial swapFee",
          "tokenA": "first token",
          "tokenB": "second token",
          "tokenWeightA": "first token weight"
        }
      },
      "getPairs(address,address)": {
        "params": {
          "token0": "first token",
          "token1": "second token"
        },
        "returns": {
          "_tokenPairs": "array of deployed pairs"
        }
      },
      "owner()": {
        "details": "Returns the address of the current owner."
      },
      "renounceOwnership()": {
        "details": "Leaves the contract without owner. It will not be possible to call `onlyOwner` functions anymore. Can only be called by the current owner. NOTE: Renouncing ownership will leave the contract without an owner, thereby removing any functionality that is only available to the owner."
      },
      "setFeeTo(address)": {
        "params": {
          "_feeTo": "receiver"
        }
      },
      "setFeeToSetter(address)": {
        "params": {
          "_feeToSetter": "admin"
        }
      },
      "setProtocolFee(uint256)": {
        "params": {
          "_protocolFee": "new protocol fee"
        }
      },
      "setSwapParams(address,uint32,uint32)": {
        "params": {
          "_amp": "new amplification parameter",
          "_newSwapFee": "new seleted swap fee",
          "_pair": "pair to change"
        }
      },
      "transferOwnership(address)": {
        "details": "Transfers ownership of the contract to a new account (`newOwner`). Can only be called by the current owner."
      }
    },
    "version": 1
  },
  "userdoc": {
    "kind": "user",
    "methods": {
      "createPair(address,address,uint32,uint32,uint32)": {
        "notice": "Creates a new pair with specified parameters - only one pair for a fixed set of weights cabn exist"
      },
      "getPairs(address,address)": {
        "notice": "Function to get  all deployed configs for a token pair"
      },
      "setFeeTo(address)": {
        "notice": "Sets receiver of fees"
      },
      "setFeeToSetter(address)": {
        "notice": "Sets admin which can determine the address to which fees are sent"
      },
      "setProtocolFee(uint256)": {
        "notice": "Sets the protocol fee"
      },
      "setSwapParams(address,uint32,uint32)": {
        "notice": "sets the crucial swap parameters for the pair"
      }
    },
    "version": 1
  },
  "storageLayout": {
    "storage": [
      {
        "astId": 52655,
        "contract": "contracts/WeightedPairFactoryV2.sol:RequiemWeightedPairFactoryV2",
        "label": "_owner",
        "offset": 0,
        "slot": "0",
        "type": "t_address"
      },
      {
        "astId": 39659,
        "contract": "contracts/WeightedPairFactoryV2.sol:RequiemWeightedPairFactoryV2",
        "label": "feeTo",
        "offset": 0,
        "slot": "1",
        "type": "t_address"
      },
      {
        "astId": 39661,
        "contract": "contracts/WeightedPairFactoryV2.sol:RequiemWeightedPairFactoryV2",
        "label": "formula",
        "offset": 0,
        "slot": "2",
        "type": "t_address"
      },
      {
        "astId": 39663,
        "contract": "contracts/WeightedPairFactoryV2.sol:RequiemWeightedPairFactoryV2",
        "label": "protocolFee",
        "offset": 0,
        "slot": "3",
        "type": "t_uint256"
      },
      {
        "astId": 39665,
        "contract": "contracts/WeightedPairFactoryV2.sol:RequiemWeightedPairFactoryV2",
        "label": "feeToSetter",
        "offset": 0,
        "slot": "4",
        "type": "t_address"
      },
      {
        "astId": 39667,
        "contract": "contracts/WeightedPairFactoryV2.sol:RequiemWeightedPairFactoryV2",
        "label": "swapFeeGovernance",
        "offset": 0,
        "slot": "5",
        "type": "t_address"
      },
      {
        "astId": 39682,
        "contract": "contracts/WeightedPairFactoryV2.sol:RequiemWeightedPairFactoryV2",
        "label": "_pairSalts",
        "offset": 0,
        "slot": "6",
        "type": "t_mapping(t_bytes32,t_address)"
      },
      {
        "astId": 39685,
        "contract": "contracts/WeightedPairFactoryV2.sol:RequiemWeightedPairFactoryV2",
        "label": "allPairs",
        "offset": 0,
        "slot": "7",
        "type": "t_array(t_address)dyn_storage"
      },
      {
        "astId": 39689,
        "contract": "contracts/WeightedPairFactoryV2.sol:RequiemWeightedPairFactoryV2",
        "label": "_pairs",
        "offset": 0,
        "slot": "8",
        "type": "t_mapping(t_address,t_bool)"
      },
      {
        "astId": 39698,
        "contract": "contracts/WeightedPairFactoryV2.sol:RequiemWeightedPairFactoryV2",
        "label": "tokenPairs",
        "offset": 0,
        "slot": "9",
        "type": "t_mapping(t_contract(IERC20)44565,t_mapping(t_contract(IERC20)44565,t_struct(AddressSet)51799_storage))"
      },
      {
        "astId": 39700,
        "contract": "contracts/WeightedPairFactoryV2.sol:RequiemWeightedPairFactoryV2",
        "label": "pairGovernance",
        "offset": 0,
        "slot": "10",
        "type": "t_address"
      }
    ],
    "types": {
      "t_address": {
        "encoding": "inplace",
        "label": "address",
        "numberOfBytes": "20"
      },
      "t_array(t_address)dyn_storage": {
        "base": "t_address",
        "encoding": "dynamic_array",
        "label": "address[]",
        "numberOfBytes": "32"
      },
      "t_bool": {
        "encoding": "inplace",
        "label": "bool",
        "numberOfBytes": "1"
      },
      "t_bytes32": {
        "encoding": "inplace",
        "label": "bytes32",
        "numberOfBytes": "32"
      },
      "t_contract(IERC20)44565": {
        "encoding": "inplace",
        "label": "contract IERC20",
        "numberOfBytes": "20"
      },
      "t_mapping(t_address,t_bool)": {
        "encoding": "mapping",
        "key": "t_address",
        "label": "mapping(address => bool)",
        "numberOfBytes": "32",
        "value": "t_bool"
      },
      "t_mapping(t_address,t_uint256)": {
        "encoding": "mapping",
        "key": "t_address",
        "label": "mapping(address => uint256)",
        "numberOfBytes": "32",
        "value": "t_uint256"
      },
      "t_mapping(t_bytes32,t_address)": {
        "encoding": "mapping",
        "key": "t_bytes32",
        "label": "mapping(bytes32 => address)",
        "numberOfBytes": "32",
        "value": "t_address"
      },
      "t_mapping(t_contract(IERC20)44565,t_mapping(t_contract(IERC20)44565,t_struct(AddressSet)51799_storage))": {
        "encoding": "mapping",
        "key": "t_contract(IERC20)44565",
        "label": "mapping(contract IERC20 => mapping(contract IERC20 => struct EnumerableSet.AddressSet))",
        "numberOfBytes": "32",
        "value": "t_mapping(t_contract(IERC20)44565,t_struct(AddressSet)51799_storage)"
      },
      "t_mapping(t_contract(IERC20)44565,t_struct(AddressSet)51799_storage)": {
        "encoding": "mapping",
        "key": "t_contract(IERC20)44565",
        "label": "mapping(contract IERC20 => struct EnumerableSet.AddressSet)",
        "numberOfBytes": "32",
        "value": "t_struct(AddressSet)51799_storage"
      },
      "t_struct(AddressSet)51799_storage": {
        "encoding": "inplace",
        "label": "struct EnumerableSet.AddressSet",
        "members": [
          {
            "astId": 51794,
            "contract": "contracts/WeightedPairFactoryV2.sol:RequiemWeightedPairFactoryV2",
            "label": "_values",
            "offset": 0,
            "slot": "0",
            "type": "t_array(t_address)dyn_storage"
          },
          {
            "astId": 51798,
            "contract": "contracts/WeightedPairFactoryV2.sol:RequiemWeightedPairFactoryV2",
            "label": "_indexes",
            "offset": 0,
            "slot": "1",
            "type": "t_mapping(t_address,t_uint256)"
          }
        ],
        "numberOfBytes": "64"
      },
      "t_uint256": {
        "encoding": "inplace",
        "label": "uint256",
        "numberOfBytes": "32"
      }
    }
  }
}