{
  "address": "0x610178dA211FEF7D417bC0e6FeD39F05609AD788",
  "abi": [
    {
      "inputs": [
        {
          "internalType": "address",
          "name": "_feeToSetter",
          "type": "address"
        },
        {
          "internalType": "address",
          "name": "_formula",
          "type": "address"
        },
        {
          "internalType": "address",
          "name": "_pairGovernance",
          "type": "address"
        }
      ],
      "stateMutability": "nonpayable",
      "type": "constructor"
    },
    {
      "anonymous": false,
      "inputs": [
        {
          "indexed": true,
          "internalType": "address",
          "name": "previousOwner",
          "type": "address"
        },
        {
          "indexed": true,
          "internalType": "address",
          "name": "newOwner",
          "type": "address"
        }
      ],
      "name": "OwnershipTransferred",
      "type": "event"
    },
    {
      "anonymous": false,
      "inputs": [
        {
          "indexed": true,
          "internalType": "address",
          "name": "token0",
          "type": "address"
        },
        {
          "indexed": true,
          "internalType": "address",
          "name": "token1",
          "type": "address"
        },
        {
          "indexed": false,
          "internalType": "address",
          "name": "pair",
          "type": "address"
        },
        {
          "indexed": false,
          "internalType": "uint32",
          "name": "tokenWeight0",
          "type": "uint32"
        },
        {
          "indexed": false,
          "internalType": "uint256",
          "name": "",
          "type": "uint256"
        }
      ],
      "name": "PairCreated",
      "type": "event"
    },
    {
      "inputs": [],
      "name": "INIT_CODE_HASH",
      "outputs": [
        {
          "internalType": "bytes32",
          "name": "",
          "type": "bytes32"
        }
      ],
      "stateMutability": "view",
      "type": "function"
    },
    {
      "inputs": [
        {
          "internalType": "uint256",
          "name": "",
          "type": "uint256"
        }
      ],
      "name": "allPairs",
      "outputs": [
        {
          "internalType": "address",
          "name": "",
          "type": "address"
        }
      ],
      "stateMutability": "view",
      "type": "function"
    },
    {
      "inputs": [],
      "name": "allPairsLength",
      "outputs": [
        {
          "internalType": "uint256",
          "name": "",
          "type": "uint256"
        }
      ],
      "stateMutability": "view",
      "type": "function"
    },
    {
      "inputs": [
        {
          "internalType": "address",
          "name": "tokenA",
          "type": "address"
        },
        {
          "internalType": "address",
          "name": "tokenB",
          "type": "address"
        },
        {
          "internalType": "uint32",
          "name": "tokenWeightA",
          "type": "uint32"
        },
        {
          "internalType": "uint32",
          "name": "initialFee",
          "type": "uint32"
        },
        {
          "internalType": "uint32",
          "name": "initialAmp",
          "type": "uint32"
        }
      ],
      "name": "createPair",
      "outputs": [
        {
          "internalType": "address",
          "name": "pair",
          "type": "address"
        }
      ],
      "stateMutability": "nonpayable",
      "type": "function"
    },
    {
      "inputs": [],
      "name": "feeTo",
      "outputs": [
        {
          "internalType": "address",
          "name": "",
          "type": "address"
        }
      ],
      "stateMutability": "view",
      "type": "function"
    },
    {
      "inputs": [],
      "name": "feeToSetter",
      "outputs": [
        {
          "internalType": "address",
          "name": "",
          "type": "address"
        }
      ],
      "stateMutability": "view",
      "type": "function"
    },
    {
      "inputs": [],
      "name": "formula",
      "outputs": [
        {
          "internalType": "address",
          "name": "",
          "type": "address"
        }
      ],
      "stateMutability": "view",
      "type": "function"
    },
    {
      "inputs": [
        {
          "internalType": "address",
          "name": "tokenA",
          "type": "address"
        },
        {
          "internalType": "address",
          "name": "tokenB",
          "type": "address"
        },
        {
          "internalType": "uint32",
          "name": "tokenWeightA",
          "type": "uint32"
        }
      ],
      "name": "getPair",
      "outputs": [
        {
          "internalType": "address",
          "name": "pair",
          "type": "address"
        }
      ],
      "stateMutability": "view",
      "type": "function"
    },
    {
      "inputs": [
        {
          "internalType": "contract IERC20",
          "name": "token0",
          "type": "address"
        },
        {
          "internalType": "contract IERC20",
          "name": "token1",
          "type": "address"
        }
      ],
      "name": "getPairs",
      "outputs": [
        {
          "internalType": "address[]",
          "name": "_tokenPairs",
          "type": "address[]"
        }
      ],
      "stateMutability": "view",
      "type": "function"
    },
    {
      "inputs": [
        {
          "internalType": "address",
          "name": "pair",
          "type": "address"
        }
      ],
      "name": "getParameters",
      "outputs": [
        {
          "internalType": "uint32",
          "name": "tokenWeight0",
          "type": "uint32"
        },
        {
          "internalType": "uint32",
          "name": "tokenWeight1",
          "type": "uint32"
        },
        {
          "internalType": "uint32",
          "name": "swapFee",
          "type": "uint32"
        },
        {
          "internalType": "uint32",
          "name": "amp",
          "type": "uint32"
        }
      ],
      "stateMutability": "view",
      "type": "function"
    },
    {
      "inputs": [
        {
          "internalType": "address",
          "name": "b",
          "type": "address"
        }
      ],
      "name": "isPair",
      "outputs": [
        {
          "internalType": "bool",
          "name": "",
          "type": "bool"
        }
      ],
      "stateMutability": "view",
      "type": "function"
    },
    {
      "inputs": [],
      "name": "owner",
      "outputs": [
        {
          "internalType": "address",
          "name": "",
          "type": "address"
        }
      ],
      "stateMutability": "view",
      "type": "function"
    },
    {
      "inputs": [],
      "name": "pairGovernance",
      "outputs": [
        {
          "internalType": "address",
          "name": "",
          "type": "address"
        }
      ],
      "stateMutability": "view",
      "type": "function"
    },
    {
      "inputs": [],
      "name": "protocolFee",
      "outputs": [
        {
          "internalType": "uint256",
          "name": "",
          "type": "uint256"
        }
      ],
      "stateMutability": "view",
      "type": "function"
    },
    {
      "inputs": [],
      "name": "renounceOwnership",
      "outputs": [],
      "stateMutability": "nonpayable",
      "type": "function"
    },
    {
      "inputs": [
        {
          "internalType": "address",
          "name": "_feeTo",
          "type": "address"
        }
      ],
      "name": "setFeeTo",
      "outputs": [],
      "stateMutability": "nonpayable",
      "type": "function"
    },
    {
      "inputs": [
        {
          "internalType": "address",
          "name": "_feeToSetter",
          "type": "address"
        }
      ],
      "name": "setFeeToSetter",
      "outputs": [],
      "stateMutability": "nonpayable",
      "type": "function"
    },
    {
      "inputs": [
        {
          "internalType": "uint256",
          "name": "_protocolFee",
          "type": "uint256"
        }
      ],
      "name": "setProtocolFee",
      "outputs": [],
      "stateMutability": "nonpayable",
      "type": "function"
    },
    {
      "inputs": [
        {
          "internalType": "address",
          "name": "_pair",
          "type": "address"
        },
        {
          "internalType": "uint32",
          "name": "_newSwapFee",
          "type": "uint32"
        },
        {
          "internalType": "uint32",
          "name": "_amp",
          "type": "uint32"
        }
      ],
      "name": "setSwapParams",
      "outputs": [],
      "stateMutability": "nonpayable",
      "type": "function"
    },
    {
      "inputs": [],
      "name": "swapFeeGovernance",
      "outputs": [
        {
          "internalType": "address",
          "name": "",
          "type": "address"
        }
      ],
      "stateMutability": "view",
      "type": "function"
    },
    {
      "inputs": [
        {
          "internalType": "address",
          "name": "newOwner",
          "type": "address"
        }
      ],
      "name": "transferOwnership",
      "outputs": [],
      "stateMutability": "nonpayable",
      "type": "function"
    }
  ],
  "transactionHash": "0xc7d37de7db7587001995fb12b7f82b4ccb88c3b96b15e2817576813514caa226",
  "args": [
    "0xf39Fd6e51aad88F6F4ce6aB8827279cffFb92266",
    "0x8A791620dd6260079BF849Dc5567aDC3F2FdC318",
    "0xf39Fd6e51aad88F6F4ce6aB8827279cffFb92266"
  ],
  "solcInputHash": "f2b4bccf3d51fc9a7843da55e39c44de",
  "bytecode": "0x60806040523480156200001157600080fd5b5060405162005f2e38038062005f2e8339810160408190526200003491620000ef565b6200003f3362000082565b600480546001600160a01b039485166001600160a01b0319918216179091556002805493851693821693909317909255600a805491909316911617905562000139565b600080546001600160a01b038381166001600160a01b0319831681178455604051919092169283917f8be0079c531659141344cd1fd0a4f28419497f9722a3daafe3b4186f6b6457e09190a35050565b80516001600160a01b0381168114620000ea57600080fd5b919050565b6000806000606084860312156200010557600080fd5b6200011084620000d2565b92506200012060208501620000d2565b91506200013060408501620000d2565b90509250925092565b615de580620001496000396000f3fe608060405234801561001057600080fd5b50600436106101775760003560e01c806359c96c11116100d8578063a2e74af61161008c578063e5e31b1311610066578063e5e31b131461036a578063f2fde38b146103b3578063f46901ed146103c657600080fd5b8063a2e74af61461033b578063b0e21e8a1461034e578063e32a25011461035757600080fd5b8063715018a6116100bd578063715018a614610300578063787dce3d1461030a5780638da5cb5b1461031d57600080fd5b806359c96c11146102aa5780635e0464ae146102ed57600080fd5b8063257671f51161012f578063493468f511610114578063493468f5146102625780634b75f54f14610282578063574f2ba3146102a257600080fd5b8063257671f51461023957806335a54e061461024f57600080fd5b806316093fad1161016057806316093fad146101e65780631d44d457146102065780631e3dd18b1461022657600080fd5b8063017e7e581461017c578063094b7415146101c6575b600080fd5b60015461019c9073ffffffffffffffffffffffffffffffffffffffff1681565b60405173ffffffffffffffffffffffffffffffffffffffff90911681526020015b60405180910390f35b60045461019c9073ffffffffffffffffffffffffffffffffffffffff1681565b6101f96101f436600461163d565b6103d9565b6040516101bd9190611676565b60055461019c9073ffffffffffffffffffffffffffffffffffffffff1681565b61019c6102343660046116d0565b6104ec565b610241610523565b6040519081526020016101bd565b61019c61025d3660046116fb565b61058b565b600a5461019c9073ffffffffffffffffffffffffffffffffffffffff1681565b60025461019c9073ffffffffffffffffffffffffffffffffffffffff1681565b600754610241565b6102bd6102b8366004611746565b6106b2565b6040805163ffffffff958616815293851660208501529184169183019190915290911660608201526080016101bd565b61019c6102fb36600461176a565b61077b565b610308610dc4565b005b6103086103183660046116d0565b610e51565b60005473ffffffffffffffffffffffffffffffffffffffff1661019c565b610308610349366004611746565b610f5a565b61024160035481565b6103086103653660046117db565b611022565b6103a3610378366004611746565b73ffffffffffffffffffffffffffffffffffffffff1660009081526008602052604090205460ff1690565b60405190151581526020016101bd565b6103086103c1366004611746565b61123d565b6103086103d4366004611746565b61136d565b73ffffffffffffffffffffffffffffffffffffffff8281166000908152600960209081526040808320938516835292905220546060908067ffffffffffffffff8111156104285761042861180b565b604051908082528060200260200182016040528015610451578160200160208202803683370190505b50915060005b818110156104e45773ffffffffffffffffffffffffffffffffffffffff808616600090815260096020908152604080832093881683529290522061049b9082611435565b8382815181106104ad576104ad61183a565b73ffffffffffffffffffffffffffffffffffffffff90921660209283029190910190910152806104dc81611898565b915050610457565b505092915050565b600781815481106104fc57600080fd5b60009182526020909120015473ffffffffffffffffffffffffffffffffffffffff16905081565b6040516105326020820161160e565b7fffffffffffffffffffffffffffffffffffffffffffffffffffffffffffffffe082820381018352601f90910116604081905261057291906020016118d0565b6040516020818303038152906040528051906020012081565b6000806000808573ffffffffffffffffffffffffffffffffffffffff168773ffffffffffffffffffffffffffffffffffffffff16106105d65785876105d187606461190b565b6105da565b8686865b6040517fffffffffffffffffffffffffffffffffffffffff000000000000000000000000606085811b8216602084015284901b1660348201527fffffffff0000000000000000000000000000000000000000000000000000000060e083901b1660488201529295509093509150600090604c01604080517fffffffffffffffffffffffffffffffffffffffffffffffffffffffffffffffe081840301815291815281516020928301206000908152600690925290205473ffffffffffffffffffffffffffffffffffffffff1698975050505050505050565b73ffffffffffffffffffffffffffffffffffffffff811660009081526008602052604081205481908190819060ff1615610764578473ffffffffffffffffffffffffffffffffffffffff1663a5ea11da6040518163ffffffff1660e01b8152600401608060405180830381865afa158015610731573d6000803e3d6000fd5b505050506040513d601f19601f820116820180604052508101906107559190611930565b92965090945092509050610774565b5060329250829150601e90506127105b9193509193565b60008473ffffffffffffffffffffffffffffffffffffffff168673ffffffffffffffffffffffffffffffffffffffff1603610817576040517f08c379a000000000000000000000000000000000000000000000000000000000815260206004820152600760248201527f524c503a2049410000000000000000000000000000000000000000000000000060448201526064015b60405180910390fd5b60028463ffffffff1610158015610835575060628463ffffffff1611155b801561084f575061084760028561198f565b63ffffffff16155b6108b5576040517f08c379a000000000000000000000000000000000000000000000000000000000815260206004820152600760248201527f524c503a20495700000000000000000000000000000000000000000000000000604482015260640161080e565b60008060008773ffffffffffffffffffffffffffffffffffffffff168973ffffffffffffffffffffffffffffffffffffffff16106108ff5787896108fa89606461190b565b610903565b8888885b9194509250905073ffffffffffffffffffffffffffffffffffffffff8316610987576040517f08c379a000000000000000000000000000000000000000000000000000000000815260206004820152600760248201527f524c503a205a4100000000000000000000000000000000000000000000000000604482015260640161080e565b6000604051806020016109999061160e565b7fffffffffffffffffffffffffffffffffffffffffffffffffffffffffffffffe082820381018352601f9091011660408190527fffffffffffffffffffffffffffffffffffffffff000000000000000000000000606087811b8216602084015286901b1660348201527fffffffff0000000000000000000000000000000000000000000000000000000060e085901b166048820152909150600090604c01604080517fffffffffffffffffffffffffffffffffffffffffffffffffffffffffffffffe081840301815291815281516020928301206000818152600690935291205490915073ffffffffffffffffffffffffffffffffffffffff1615610afa576040517f08c379a000000000000000000000000000000000000000000000000000000000815260206004820152600760248201527f524c503a20504500000000000000000000000000000000000000000000000000604482015260640161080e565b808251602084016000f56040517f6ecf2b2200000000000000000000000000000000000000000000000000000000815273ffffffffffffffffffffffffffffffffffffffff8781166004830152868116602483015263ffffffff8616604483015291975090871690636ecf2b2290606401600060405180830381600087803b158015610b8557600080fd5b505af1158015610b99573d6000803e3d6000fd5b50506040517ff7747b4200000000000000000000000000000000000000000000000000000000815263ffffffff808c1660048301528a16602482015273ffffffffffffffffffffffffffffffffffffffff8916925063f7747b429150604401600060405180830381600087803b158015610c1257600080fd5b505af1158015610c26573d6000803e3d6000fd5b50505073ffffffffffffffffffffffffffffffffffffffff8087166000908152600960209081526040808320938916835292905220610c669150876114b5565b5073ffffffffffffffffffffffffffffffffffffffff8085166000908152600960209081526040808320938916835292905220610ca390876114b5565b506000818152600660209081526040808320805473ffffffffffffffffffffffffffffffffffffffff8b81167fffffffffffffffffffffffff0000000000000000000000000000000000000000928316811790935560078054600181810183557fa66cc928b5edb82af9bd49922954155ab7b0942694bea4ce44661d9a8736c68890910180549094168517909355838752600886529584902080547fffffffffffffffffffffffffffffffffffffffffffffffffffffffffffffff00169092179091559354825191825263ffffffff88169382019390935290810191909152858216918716907f3541d8fea55be35f686281f975bf8b7ab8fbb500c1c7ddd6c4e714655e9cd4e29060600160405180910390a3505050505095945050505050565b60005473ffffffffffffffffffffffffffffffffffffffff163314610e45576040517f08c379a000000000000000000000000000000000000000000000000000000000815260206004820181905260248201527f4f776e61626c653a2063616c6c6572206973206e6f7420746865206f776e6572604482015260640161080e565b610e4f6000611559565b565b60045473ffffffffffffffffffffffffffffffffffffffff163314610ed2576040517f08c379a000000000000000000000000000000000000000000000000000000000815260206004820152600660248201527f524c503a20460000000000000000000000000000000000000000000000000000604482015260640161080e565b801580610eef57506127108110158015610eef5750620186a08111155b610f55576040517f08c379a000000000000000000000000000000000000000000000000000000000815260206004820152600860248201527f524c503a20495046000000000000000000000000000000000000000000000000604482015260640161080e565b600355565b60045473ffffffffffffffffffffffffffffffffffffffff163314610fdb576040517f08c379a000000000000000000000000000000000000000000000000000000000815260206004820152600660248201527f524c503a20460000000000000000000000000000000000000000000000000000604482015260640161080e565b600480547fffffffffffffffffffffffff00000000000000000000000000000000000000001673ffffffffffffffffffffffffffffffffffffffff92909216919091179055565b600a5473ffffffffffffffffffffffffffffffffffffffff1633148061105f575060005473ffffffffffffffffffffffffffffffffffffffff1633145b6110c5576040517f08c379a000000000000000000000000000000000000000000000000000000000815260206004820152600c60248201527f756e617574686f72697a65640000000000000000000000000000000000000000604482015260640161080e565b6101f48263ffffffff16111580156110e557506127108163ffffffff1610155b61114b576040517f08c379a000000000000000000000000000000000000000000000000000000000815260206004820152600860248201527f524c503a20495346000000000000000000000000000000000000000000000000604482015260640161080e565b6040517ff7747b4200000000000000000000000000000000000000000000000000000000815263ffffffff80841660048301528216602482015273ffffffffffffffffffffffffffffffffffffffff84169063f7747b4290604401600060405180830381600087803b1580156111c057600080fd5b505af11580156111d4573d6000803e3d6000fd5b505050508273ffffffffffffffffffffffffffffffffffffffff1663fff6cae96040518163ffffffff1660e01b8152600401600060405180830381600087803b15801561122057600080fd5b505af1158015611234573d6000803e3d6000fd5b50505050505050565b60005473ffffffffffffffffffffffffffffffffffffffff1633146112be576040517f08c379a000000000000000000000000000000000000000000000000000000000815260206004820181905260248201527f4f776e61626c653a2063616c6c6572206973206e6f7420746865206f776e6572604482015260640161080e565b73ffffffffffffffffffffffffffffffffffffffff8116611361576040517f08c379a000000000000000000000000000000000000000000000000000000000815260206004820152602660248201527f4f776e61626c653a206e6577206f776e657220697320746865207a65726f206160448201527f6464726573730000000000000000000000000000000000000000000000000000606482015260840161080e565b61136a81611559565b50565b60045473ffffffffffffffffffffffffffffffffffffffff1633146113ee576040517f08c379a000000000000000000000000000000000000000000000000000000000815260206004820152600660248201527f524c503a20460000000000000000000000000000000000000000000000000000604482015260640161080e565b600180547fffffffffffffffffffffffff00000000000000000000000000000000000000001673ffffffffffffffffffffffffffffffffffffffff92909216919091179055565b815460009082106114a2576040517f08c379a000000000000000000000000000000000000000000000000000000000815260206004820152600d60248201527f4f55545f4f465f424f554e445300000000000000000000000000000000000000604482015260640161080e565b6114ac83836115ce565b90505b92915050565b73ffffffffffffffffffffffffffffffffffffffff8116600090815260018301602052604081205461155157508154600180820184556000848152602080822090930180547fffffffffffffffffffffffff00000000000000000000000000000000000000001673ffffffffffffffffffffffffffffffffffffffff8616908117909155855490825282860190935260409020919091556114af565b5060006114af565b6000805473ffffffffffffffffffffffffffffffffffffffff8381167fffffffffffffffffffffffff0000000000000000000000000000000000000000831681178455604051919092169283917f8be0079c531659141344cd1fd0a4f28419497f9722a3daafe3b4186f6b6457e09190a35050565b60008260000182815481106115e5576115e561183a565b60009182526020909120015473ffffffffffffffffffffffffffffffffffffffff169392505050565b6143d6806119da83390190565b73ffffffffffffffffffffffffffffffffffffffff8116811461136a57600080fd5b6000806040838503121561165057600080fd5b823561165b8161161b565b9150602083013561166b8161161b565b809150509250929050565b6020808252825182820181905260009190848201906040850190845b818110156116c457835173ffffffffffffffffffffffffffffffffffffffff1683529284019291840191600101611692565b50909695505050505050565b6000602082840312156116e257600080fd5b5035919050565b63ffffffff8116811461136a57600080fd5b60008060006060848603121561171057600080fd5b833561171b8161161b565b9250602084013561172b8161161b565b9150604084013561173b816116e9565b809150509250925092565b60006020828403121561175857600080fd5b81356117638161161b565b9392505050565b600080600080600060a0868803121561178257600080fd5b853561178d8161161b565b9450602086013561179d8161161b565b935060408601356117ad816116e9565b925060608601356117bd816116e9565b915060808601356117cd816116e9565b809150509295509295909350565b6000806000606084860312156117f057600080fd5b83356117fb8161161b565b9250602084013561172b816116e9565b7f4e487b7100000000000000000000000000000000000000000000000000000000600052604160045260246000fd5b7f4e487b7100000000000000000000000000000000000000000000000000000000600052603260045260246000fd5b7f4e487b7100000000000000000000000000000000000000000000000000000000600052601160045260246000fd5b60007fffffffffffffffffffffffffffffffffffffffffffffffffffffffffffffffff82036118c9576118c9611869565b5060010190565b6000825160005b818110156118f157602081860181015185830152016118d7565b81811115611900576000828501525b509190910192915050565b600063ffffffff8381169083168181101561192857611928611869565b039392505050565b6000806000806080858703121561194657600080fd5b8451611951816116e9565b6020860151909450611962816116e9565b6040860151909350611973816116e9565b6060860151909250611984816116e9565b939692955090935050565b600063ffffffff808416806119cd577f4e487b7100000000000000000000000000000000000000000000000000000000600052601260045260246000fd5b9216919091069291505056fe6080604052600b805460ff60401b19166801000000000000000017905534801561002857600080fd5b50604080518082018252601f81527f5265717569656d2050616972204c69717569646974792050726f7669646572006020918201528151808301835260018152603160f81b9082015281517f8b73c3c69bb8fe3d512ecc4cf759cc79239f7b179b0ffacaa9a75d522b39400f818301527f4d949f5c4c4f80d7bdbde28a36135fecf440532cf0f2bb46c4801ec3299b1062818401527fc89efdaa54c0f20c7adf612882df0950f5a951637e0307cdcb4c672f298b8bc660608201524660808201523060a0808301919091528351808303909101815260c09091019092528151910120600355600580546001600160a01b031916331790556142a88061012e6000396000f3fe608060405234801561001057600080fd5b506004361061020b5760003560e01c806370a082311161012a578063c45a0155116100bd578063d54a8d181161008c578063e9255bae11610071578063e9255bae146105b4578063f7747b42146105c7578063fff6cae9146105da57600080fd5b8063d54a8d181461054d578063dd62ed3e1461058957600080fd5b8063c45a0155146104e7578063cc56fd4314610507578063d21220a71461051a578063d505accf1461053a57600080fd5b8063a5ea11da116100f9578063a5ea11da14610449578063a9059cbb146104b8578063ba9a7a56146104cb578063bc25cf77146104d457600080fd5b806370a08231146103d95780637ecebe00146103f957806389afcb441461041957806395d89b411461044157600080fd5b806330adf81f116101a25780634ac00e03116101715780634ac00e03146103805780634b75f54f146103935780636a627842146103b35780636ecf2b22146103c657600080fd5b806330adf81f14610323578063313ce5671461034a57806332fd5493146103645780633644e5151461037757600080fd5b80630dfe1681116101de5780630dfe1681146102a15780630e6d8bce146102e657806318160ddd1461030757806323b872dd1461031057600080fd5b8063022c0d9f1461021057806306fdde03146102255780630902f1ac14610243578063095ea7b31461027e575b600080fd5b61022361021e366004613cdc565b6105e2565b005b61022d610706565b60405161023a9190613de8565b60405180910390f35b61024b6107f4565b60405161023a91908151815260208083015190820152604080830151908201526060918201519181019190915260800190565b61029161028c366004613dfb565b610873565b604051901515815260200161023a565b6006546102c19073ffffffffffffffffffffffffffffffffffffffff1681565b60405173ffffffffffffffffffffffffffffffffffffffff909116815260200161023a565b6102f96102f4366004613e27565b610889565b60405190815260200161023a565b6102f960005481565b61029161031e366004613e86565b610c23565b6102f97f6e71edae12b1b97f4d1f60370fef10105fa2faae0126114a169c64845d6126c981565b610352601281565b60405160ff909116815260200161023a565b610223610372366004613e27565b610cd5565b6102f960035481565b6102f961038e366004613e27565b610df7565b6008546102c19073ffffffffffffffffffffffffffffffffffffffff1681565b6102f96103c1366004613ec7565b6110bd565b6102236103d4366004613ef8565b611535565b6102f96103e7366004613ec7565b60016020526000908152604090205481565b6102f9610407366004613ec7565b60046020526000908152604090205481565b61042c610427366004613ec7565b611788565b6040805192835260208301919091520161023a565b61022d611cce565b600a54600b54600c54604080517c010000000000000000000000000000000000000000000000000000000090940463ffffffff908116855280841660208601526401000000009093048316908401526e010000000000000000000000000000900416606082015260800161023a565b6102916104c6366004613dfb565b611dac565b6102f96103e881565b6102236104e2366004613ec7565b611db9565b6005546102c19073ffffffffffffffffffffffffffffffffffffffff1681565b6102f9610515366004613e86565b611fd8565b6007546102c19073ffffffffffffffffffffffffffffffffffffffff1681565b610223610548366004613f3f565b61223e565b600a54604080516dffffffffffffffffffffffffffff80841682526e01000000000000000000000000000090930490921660208301520161023a565b6102f9610597366004613fb6565b600260209081526000928352604080842090915290825290205481565b6102f96105c2366004613e86565b612529565b6102236105d5366004613fef565b612749565b610223612848565b600b5468010000000000000000900460ff1661065f576040517f08c379a000000000000000000000000000000000000000000000000000000000815260206004820152600860248201527f5245514c503a204c00000000000000000000000000000000000000000000000060448201526064015b60405180910390fd5b600b80547fffffffffffffffffffffffffffffffffffffffffffffff00ffffffffffffffff169055604080516020601f84018190048102820181019092528281526106cb91879187918791908790879081908401838280828437600092019190915250612adc92505050565b5050600b80547fffffffffffffffffffffffffffffffffffffffffffffff00ffffffffffffffff166801000000000000000017905550505050565b600a54600b546040517f5265717569656d2000000000000000000000000000000000000000000000000060208201527c010000000000000000000000000000000000000000000000000000000090920460e090811b7fffffffff0000000000000000000000000000000000000000000000000000000090811660288501527f2d00000000000000000000000000000000000000000000000000000000000000602c85015291901b16602d8201527f204c50000000000000000000000000000000000000000000000000000000000060318201526060906034015b604051602081830303815290604052905090565b61081f6040518060800160405280600081526020016000815260200160008152602001600081525090565b6009546dffffffffffffffffffffffffffff80821683526e01000000000000000000000000000090910481166020830152600b546901000000000000000000900481166040830152600c5416606082015290565b600061088033848461332c565b50600192915050565b600b5460009068010000000000000000900460ff16610904576040517f08c379a000000000000000000000000000000000000000000000000000000000815260206004820152600860248201527f5245514c503a204c0000000000000000000000000000000000000000000000006044820152606401610656565b600b80547fffffffffffffffffffffffffffffffffffffffffffffff00ffffffffffffffff16905560065473ffffffffffffffffffffffffffffffffffffffff8781169116146000816109fc576040805160e0810182526009546dffffffffffffffffffffffffffff6e0100000000000000000000000000008204811683529081166020830152600c54811692820192909252600b5469010000000000000000008104909216606082015263ffffffff8083166080830152600a547c01000000000000000000000000000000000000000000000000000000009004811660a083015264010000000090920490911660c0820152610aa3565b6040805160e0810182526009546dffffffffffffffffffffffffffff80821683526e01000000000000000000000000000090910481166020830152600b5469010000000000000000008104821693830193909352600c54166060820152600a5463ffffffff7c01000000000000000000000000000000000000000000000000000000009091048116608083015280831660a083015264010000000090920490911660c08201525b600854604080517fa56baa91000000000000000000000000000000000000000000000000000000008152600481018a9052835160248201526020840151604482015290830151606482015260608301516084820152608083015163ffffffff90811660a483015260a0840151811660c483015260c08401511660e482015291925060009173ffffffffffffffffffffffffffffffffffffffff9091169063a56baa9190610104015b602060405180830381865afa158015610b68573d6000803e3d6000fd5b505050506040513d601f19601f82011682018060405250810190610b8c9190614022565b905060008084610b9e57826000610ba2565b6000835b9092509050610be082828960005b6040519080825280601f01601f191660200182016040528015610bda576020820181803683370190505b50612adc565b95505050505050600b80547fffffffffffffffffffffffffffffffffffffffffffffff00ffffffffffffffff166801000000000000000017905595945050505050565b73ffffffffffffffffffffffffffffffffffffffff831660009081526002602090815260408083203384529091528120547fffffffffffffffffffffffffffffffffffffffffffffffffffffffffffffffff14610cc05773ffffffffffffffffffffffffffffffffffffffff8416600090815260026020908152604080832033845290915281208054849290610cba90849061406a565b90915550505b610ccb84848461339b565b5060019392505050565b600b5468010000000000000000900460ff16610d4d576040517f08c379a000000000000000000000000000000000000000000000000000000000815260206004820152600860248201527f5245514c503a204c0000000000000000000000000000000000000000000000006044820152606401610656565b600b80547fffffffffffffffffffffffffffffffffffffffffffffff00ffffffffffffffff169055600654600090819073ffffffffffffffffffffffffffffffffffffffff888116911614610da457836000610da8565b6000845b9092509050610dba8282856000610bb0565b5050600b80547fffffffffffffffffffffffffffffffffffffffffffffff00ffffffffffffffff1668010000000000000000179055505050505050565b600b5460009068010000000000000000900460ff16610e72576040517f08c379a000000000000000000000000000000000000000000000000000000000815260206004820152600860248201527f5245514c503a204c0000000000000000000000000000000000000000000000006044820152606401610656565b600b80547fffffffffffffffffffffffffffffffffffffffffffffff00ffffffffffffffff16905560065473ffffffffffffffffffffffffffffffffffffffff878116911614600081610f6a576040805160e0810182526009546dffffffffffffffffffffffffffff6e0100000000000000000000000000008204811683529081166020830152600c54811692820192909252600b5469010000000000000000008104909216606082015263ffffffff8083166080830152600a547c01000000000000000000000000000000000000000000000000000000009004811660a083015264010000000090920490911660c0820152611011565b6040805160e0810182526009546dffffffffffffffffffffffffffff80821683526e01000000000000000000000000000090910481166020830152600b5469010000000000000000008104821693830193909352600c54166060820152600a5463ffffffff7c01000000000000000000000000000000000000000000000000000000009091048116608083015280831660a083015264010000000090920490911660c08201525b600854604080517f8a91e6dc000000000000000000000000000000000000000000000000000000008152600481018a9052835160248201526020840151604482015290830151606482015260608301516084820152608083015163ffffffff90811660a483015260a0840151811660c483015260c08401511660e482015291925060009173ffffffffffffffffffffffffffffffffffffffff90911690638a91e6dc9061010401610b4b565b600b5460009068010000000000000000900460ff16611138576040517f08c379a000000000000000000000000000000000000000000000000000000000815260206004820152600860248201527f5245514c503a204c0000000000000000000000000000000000000000000000006044820152606401610656565b600b80547fffffffffffffffffffffffffffffffffffffffffffffff00ffffffffffffffff169055600061116a6107f4565b90506111976040518060800160405280600081526020016000815260200160008152602001600081525090565b6006546040517f70a0823100000000000000000000000000000000000000000000000000000000815230600482015273ffffffffffffffffffffffffffffffffffffffff909116906370a0823190602401602060405180830381865afa158015611205573d6000803e3d6000fd5b505050506040513d601f19601f820116820180604052508101906112299190614022565b81526007546040517f70a0823100000000000000000000000000000000000000000000000000000000815230600482015273ffffffffffffffffffffffffffffffffffffffff909116906370a0823190602401602060405180830381865afa158015611299573d6000803e3d6000fd5b505050506040513d601f19601f820116820180604052508101906112bd9190614022565b6020820152815181516000916112d29161406a565b90506000836020015183602001516112ea919061406a565b90506112f583613470565b50600080549081900361139c57600c5484516e01000000000000000000000000000090910463ffffffff169061271090611330908390614081565b61133a91906140ed565b60408601526020850151612710906113599063ffffffff841690614081565b61136391906140ed565b60608601526103e861137d6113788587614081565b613803565b611387919061406a565b965061139660006103e8613873565b5061143f565b84516113d4906113ac8386614081565b6113b691906140ed565b60208701516113c58486614081565b6113cf91906140ed565b613916565b955060006113e28288614101565b9050611409828288604001516113f89190614081565b61140291906140ed565b865161392e565b60408601526060860151611438908390611424908490614081565b61142e91906140ed565b866020015161392e565b6060860152505b600086116114a9576040517f08c379a000000000000000000000000000000000000000000000000000000000815260206004820152600a60248201527f5245514c503a20494c4d000000000000000000000000000000000000000000006044820152606401610656565b6114b38787613873565b6114bc8461393d565b604080518481526020810184905233917f4c209b5fc8ad50758f13e2e1088ba56a560dff690a1c6fef26394f4c03821c4f910160405180910390a25050600b80547fffffffffffffffffffffffffffffffffffffffffffffff00ffffffffffffffff166801000000000000000017905550919392505050565b60055473ffffffffffffffffffffffffffffffffffffffff1633146115b6576040517f08c379a000000000000000000000000000000000000000000000000000000000815260206004820152600860248201527f5245514c503a20460000000000000000000000000000000000000000000000006044820152606401610656565b600680547fffffffffffffffffffffffff000000000000000000000000000000000000000090811673ffffffffffffffffffffffffffffffffffffffff8681169190911790925560078054909116918416919091179055600a80547bffffffffffffffffffffffffffffffffffffffffffffffffffffffff167c010000000000000000000000000000000000000000000000000000000063ffffffff8481168202929092179283905561166c9204166064614119565b600b805463ffffffff929092167fffffffffffffffffffffffffffffffffffffffffffffffff000000000000000090921691909117640a00000000179055600554604080517f4b75f54f000000000000000000000000000000000000000000000000000000008152905173ffffffffffffffffffffffffffffffffffffffff90921691634b75f54f916004808201926020929091908290030181865afa15801561171a573d6000803e3d6000fd5b505050506040513d601f19601f8201168201806040525081019061173e919061413e565b600880547fffffffffffffffffffffffff00000000000000000000000000000000000000001673ffffffffffffffffffffffffffffffffffffffff92909216919091179055505050565b600b54600090819068010000000000000000900460ff16611805576040517f08c379a000000000000000000000000000000000000000000000000000000000815260206004820152600860248201527f5245514c503a204c0000000000000000000000000000000000000000000000006044820152606401610656565b600b80547fffffffffffffffffffffffffffffffffffffffffffffff00ffffffffffffffff16905560006118376107f4565b6006546007546040517f70a0823100000000000000000000000000000000000000000000000000000000815230600482015292935073ffffffffffffffffffffffffffffffffffffffff9182169291169060009083906370a0823190602401602060405180830381865afa1580156118b3573d6000803e3d6000fd5b505050506040513d601f19601f820116820180604052508101906118d79190614022565b6040517f70a0823100000000000000000000000000000000000000000000000000000000815230600482015290915060009073ffffffffffffffffffffffffffffffffffffffff8416906370a0823190602401602060405180830381865afa158015611947573d6000803e3d6000fd5b505050506040513d601f19601f8201168201806040525081019061196b9190614022565b3060009081526001602052604090205490915061198786613470565b50600054806119968584614081565b6119a091906140ed565b9850806119ad8484614081565b6119b791906140ed565b97506000891180156119c95750600088115b611a2f576040517f08c379a000000000000000000000000000000000000000000000000000000000815260206004820152600a60248201527f5245514c503a20494c42000000000000000000000000000000000000000000006044820152606401610656565b611a393083613aaa565b611a44868b8b613b47565b611a4f858b8a613b47565b611a7a6040518060800160405280600081526020016000815260200160008152602001600081525090565b6040517f70a0823100000000000000000000000000000000000000000000000000000000815230600482015273ffffffffffffffffffffffffffffffffffffffff8816906370a0823190602401602060405180830381865afa158015611ae4573d6000803e3d6000fd5b505050506040513d601f19601f82011682018060405250810190611b089190614022565b81526040517f70a0823100000000000000000000000000000000000000000000000000000000815230600482015273ffffffffffffffffffffffffffffffffffffffff8716906370a0823190602401602060405180830381865afa158015611b74573d6000803e3d6000fd5b505050506040513d601f19601f82011682018060405250810190611b989190614022565b602082015287518151600091611bd291611bb3908690614081565b611bbd91906140ed565b8a602001518585602001516113c59190614081565b9050611bf983828b60400151611be89190614081565b611bf291906140ed565b835161392e565b60408301526060890151611c28908490611c14908490614081565b611c1e91906140ed565b836020015161392e565b6060830152611c368261393d565b604080518c8152602081018c905273ffffffffffffffffffffffffffffffffffffffff8e169133917fdccd412f0b1252819cb1fd330b93224ca42612892bb3f4f789976e6d81936496910160405180910390a35050600b80547fffffffffffffffffffffffffffffffffffffffffffffff00ffffffffffffffff16680100000000000000001790555096989597509495505050505050565b600a54600b546040517f524551200000000000000000000000000000000000000000000000000000000060208201527c010000000000000000000000000000000000000000000000000000000090920460e090811b7fffffffff0000000000000000000000000000000000000000000000000000000090811660248501527f2d00000000000000000000000000000000000000000000000000000000000000602885015291901b1660298201527f204c500000000000000000000000000000000000000000000000000000000000602d8201526060906030016107e0565b600061088033848461339b565b600b5468010000000000000000900460ff16611e31576040517f08c379a000000000000000000000000000000000000000000000000000000000815260206004820152600860248201527f5245514c503a204c0000000000000000000000000000000000000000000000006044820152606401610656565b600b80547fffffffffffffffffffffffffffffffffffffffffffffff00ffffffffffffffff1690556006546007546009546040517f70a0823100000000000000000000000000000000000000000000000000000000815230600482015273ffffffffffffffffffffffffffffffffffffffff9384169390921691611f2091849186916dffffffffffffffffffffffffffff169083906370a08231906024015b602060405180830381865afa158015611eed573d6000803e3d6000fd5b505050506040513d601f19601f82011682018060405250810190611f119190614022565b611f1b919061406a565b613b47565b6009546040517f70a08231000000000000000000000000000000000000000000000000000000008152306004820152611fa091839186916e01000000000000000000000000000090046dffffffffffffffffffffffffffff169073ffffffffffffffffffffffffffffffffffffffff8416906370a0823190602401611ed0565b5050600b80547fffffffffffffffffffffffffffffffffffffffffffffff00ffffffffffffffff166801000000000000000017905550565b600654600090819073ffffffffffffffffffffffffffffffffffffffff8681169116146120aa576040805160e0810182526009546dffffffffffffffffffffffffffff6e0100000000000000000000000000008204811683529081166020830152600c54811692820192909252600b5469010000000000000000008104909216606082015263ffffffff8083166080830152600a547c01000000000000000000000000000000000000000000000000000000009004811660a083015264010000000090920490911660c0820152612151565b6040805160e0810182526009546dffffffffffffffffffffffffffff80821683526e01000000000000000000000000000090910481166020830152600b5469010000000000000000008104821693830193909352600c54166060820152600a5463ffffffff7c01000000000000000000000000000000000000000000000000000000009091048116608083015280831660a083015264010000000090920490911660c08201525b600854604080517fa56baa9100000000000000000000000000000000000000000000000000000000815260048101879052835160248201526020840151604482015290830151606482015260608301516084820152608083015163ffffffff90811660a483015260a0840151811660c483015260c08401511660e482015291925073ffffffffffffffffffffffffffffffffffffffff169063a56baa9190610104015b602060405180830381865afa158015612211573d6000803e3d6000fd5b505050506040513d601f19601f820116820180604052508101906122359190614022565b95945050505050565b428410156122a8576040517f08c379a000000000000000000000000000000000000000000000000000000000815260206004820152600c60248201527f5245513a204558504952454400000000000000000000000000000000000000006044820152606401610656565b60035473ffffffffffffffffffffffffffffffffffffffff8816600090815260046020526040812080549192917f6e71edae12b1b97f4d1f60370fef10105fa2faae0126114a169c64845d6126c9918b918b918b9190876123088361415b565b9091555060408051602081019690965273ffffffffffffffffffffffffffffffffffffffff94851690860152929091166060840152608083015260a082015260c0810187905260e001604051602081830303815290604052805190602001206040516020016123a99291907f190100000000000000000000000000000000000000000000000000000000000081526002810192909252602282015260420190565b604080517fffffffffffffffffffffffffffffffffffffffffffffffffffffffffffffffe08184030181528282528051602091820120600080855291840180845281905260ff88169284019290925260608301869052608083018590529092509060019060a0016020604051602081039080840390855afa158015612432573d6000803e3d6000fd5b50506040517fffffffffffffffffffffffffffffffffffffffffffffffffffffffffffffffe0015191505073ffffffffffffffffffffffffffffffffffffffff8116158015906124ad57508873ffffffffffffffffffffffffffffffffffffffff168173ffffffffffffffffffffffffffffffffffffffff16145b612513576040517f08c379a000000000000000000000000000000000000000000000000000000000815260206004820152600760248201527f5245513a204953000000000000000000000000000000000000000000000000006044820152606401610656565b61251e89898961332c565b505050505050505050565b600654600090819073ffffffffffffffffffffffffffffffffffffffff8681169116146125fb576040805160e0810182526009546dffffffffffffffffffffffffffff6e0100000000000000000000000000008204811683529081166020830152600c54811692820192909252600b5469010000000000000000008104909216606082015263ffffffff8083166080830152600a547c01000000000000000000000000000000000000000000000000000000009004811660a083015264010000000090920490911660c08201526126a2565b6040805160e0810182526009546dffffffffffffffffffffffffffff80821683526e01000000000000000000000000000090910481166020830152600b5469010000000000000000008104821693830193909352600c54166060820152600a5463ffffffff7c01000000000000000000000000000000000000000000000000000000009091048116608083015280831660a083015264010000000090920490911660c08201525b600854604080517f8a91e6dc00000000000000000000000000000000000000000000000000000000815260048101879052835160248201526020840151604482015290830151606482015260608301516084820152608083015163ffffffff90811660a483015260a0840151811660c483015260c08401511660e482015291925073ffffffffffffffffffffffffffffffffffffffff1690638a91e6dc90610104016121f4565b60055473ffffffffffffffffffffffffffffffffffffffff1633146127cc576040517f08c379a00000000000000000000000000000000000000000000000000000000081526004016106569060208082526004908201527f6175746800000000000000000000000000000000000000000000000000000000604082015260600190565b600b805463ffffffff938416640100000000027fffffffffffffffffffffffffffffffffffffffffffffffff00000000ffffffff909116179055600c8054919092166e010000000000000000000000000000027fffffffffffffffffffffffffffff00000000ffffffffffffffffffffffffffff909116179055565b60006128526107f4565b905061285d81613470565b506128896040518060800160405280600081526020016000815260200160008152602001600081525090565b6006546040517f70a0823100000000000000000000000000000000000000000000000000000000815230600482015273ffffffffffffffffffffffffffffffffffffffff909116906370a0823190602401602060405180830381865afa1580156128f7573d6000803e3d6000fd5b505050506040513d601f19601f8201168201806040525081019061291b9190614022565b81526007546040517f70a0823100000000000000000000000000000000000000000000000000000000815230600482015273ffffffffffffffffffffffffffffffffffffffff909116906370a0823190602401602060405180830381865afa15801561298b573d6000803e3d6000fd5b505050506040513d601f19601f820116820180604052508101906129af9190614022565b602082015260008054600954909190612a15906dffffffffffffffffffffffffffff166129dc8482614081565b6129e691906140ed565b6009546e01000000000000000000000000000090046dffffffffffffffffffffffffffff166113c58582614081565b600b54909150612a6b908390612a49908490690100000000000000000090046dffffffffffffffffffffffffffff16614081565b612a5391906140ed565b6009546dffffffffffffffffffffffffffff1661392e565b6040840152600c54612ac8908390612a949084906dffffffffffffffffffffffffffff16614081565b612a9e91906140ed565b6009546e01000000000000000000000000000090046dffffffffffffffffffffffffffff1661392e565b6060840152612ad68361393d565b50505050565b600080851180612aec5750600084115b612b52576040517f08c379a000000000000000000000000000000000000000000000000000000000815260206004820152600a60248201527f5245514c503a20494f41000000000000000000000000000000000000000000006044820152606401610656565b6000612b5c6107f4565b805190915086108015612b725750806020015185105b612bd8576040517f08c379a000000000000000000000000000000000000000000000000000000000815260206004820152600960248201527f5245514c503a20494c00000000000000000000000000000000000000000000006044820152606401610656565b612c036040518060800160405280600081526020016000815260200160008152602001600081525090565b60065460075473ffffffffffffffffffffffffffffffffffffffff918216919081169087168214801590612c6357508073ffffffffffffffffffffffffffffffffffffffff168773ffffffffffffffffffffffffffffffffffffffff1614155b612cc9576040517f08c379a000000000000000000000000000000000000000000000000000000000815260206004820152600960248201527f5245514c503a20495400000000000000000000000000000000000000000000006044820152606401610656565b8815612cda57612cda82888b613b47565b8715612ceb57612ceb81888a613b47565b855115612d7d576040517f8492923100000000000000000000000000000000000000000000000000000000815273ffffffffffffffffffffffffffffffffffffffff881690638492923190612d4a9033908d908d908c90600401614193565b600060405180830381600087803b158015612d6457600080fd5b505af1158015612d78573d6000803e3d6000fd5b505050505b6040517f70a0823100000000000000000000000000000000000000000000000000000000815230600482015273ffffffffffffffffffffffffffffffffffffffff8316906370a0823190602401602060405180830381865afa158015612de7573d6000803e3d6000fd5b505050506040513d601f19601f82011682018060405250810190612e0b9190614022565b83526040517f70a0823100000000000000000000000000000000000000000000000000000000815230600482015273ffffffffffffffffffffffffffffffffffffffff8216906370a0823190602401602060405180830381865afa158015612e77573d6000803e3d6000fd5b505050506040513d601f19601f82011682018060405250810190612e9b9190614022565b6020840152835183516040860151612eb39190614101565b612ebd919061406a565b6040840152602080850151908401516060860151612edb9190614101565b612ee5919061406a565b606084015250508151600090612efc90899061406a565b825111612f0a576000612f23565b8251612f1790899061406a565b8251612f23919061406a565b90506000878460200151612f37919061406a565b836020015111612f48576000612f67565b878460200151612f58919061406a565b8360200151612f67919061406a565b90506000821180612f785750600081115b612fde576040517f08c379a000000000000000000000000000000000000000000000000000000000815260206004820152600a60248201527f5245514c503a20494941000000000000000000000000000000000000000000006044820152606401610656565b60008360400151612710612ff29190614081565b9050600084606001516127106130089190614081565b9050831561309c57600b5460009061302e90640100000000900463ffffffff1686614081565b905061303a818461406a565b600a5490935061305b9082906dffffffffffffffffffffffffffff16614101565b600a80547fffffffffffffffffffffffffffffffffffff0000000000000000000000000000166dffffffffffffffffffffffffffff92909216919091179055505b821561313557600b546000906130c090640100000000900463ffffffff1685614081565b90506130cc818361406a565b600a549092506130ff9082906e01000000000000000000000000000090046dffffffffffffffffffffffffffff16614101565b600a600e6101000a8154816dffffffffffffffffffffffffffff02191690836dffffffffffffffffffffffffffff160217905550505b600a5460085460408801517c010000000000000000000000000000000000000000000000000000000090920463ffffffff169173ffffffffffffffffffffffffffffffffffffffff909116906379c91b379061319390612710614081565b60608a01516131a490612710614081565b6040517fffffffff0000000000000000000000000000000000000000000000000000000060e085901b16815260048101929092526024820152604481018690526064810185905263ffffffff8416608482015260a401602060405180830381865afa158015613217573d6000803e3d6000fd5b505050506040513d601f19601f8201168201806040525081019061323b91906141d8565b6132a1576040517f08c379a000000000000000000000000000000000000000000000000000000000815260206004820152600860248201527f5245514c503a204b0000000000000000000000000000000000000000000000006044820152606401610656565b5050506132ad8361393d565b60408051838152602081018390529081018a90526060810189905273ffffffffffffffffffffffffffffffffffffffff88169033907fd78ad95fa46c994b6551d0da85fc275fe613ce37657fb8d5e3d130840159d8229060800160405180910390a36000891161331d578761331f565b885b9998505050505050505050565b73ffffffffffffffffffffffffffffffffffffffff83811660008181526002602090815260408083209487168084529482529182902085905590518481527f8c5be1e5ebec7d5bd14f71427d1e84f3dd0314c0f7b2291e5b200ac8c7c3b92591015b60405180910390a3505050565b73ffffffffffffffffffffffffffffffffffffffff8316600090815260016020526040812080548392906133d090849061406a565b909155505073ffffffffffffffffffffffffffffffffffffffff82166000908152600160205260408120805483929061340a908490614101565b925050819055508173ffffffffffffffffffffffffffffffffffffffff168373ffffffffffffffffffffffffffffffffffffffff167fddf252ad1be2c89b69c2b068fc378daa952ba7f163c4a11628f55a4df523b3ef8360405161338e91815260200190565b600080600560009054906101000a900473ffffffffffffffffffffffffffffffffffffffff1673ffffffffffffffffffffffffffffffffffffffff1663017e7e586040518163ffffffff1660e01b8152600401602060405180830381865afa1580156134e0573d6000803e3d6000fd5b505050506040513d601f19601f82011682018060405250810190613504919061413e565b90506000600560009054906101000a900473ffffffffffffffffffffffffffffffffffffffff1673ffffffffffffffffffffffffffffffffffffffff1663b0e21e8a6040518163ffffffff1660e01b8152600401602060405180830381865afa158015613575573d6000803e3d6000fd5b505050506040513d601f19601f820116820180604052508101906135999190614022565b73ffffffffffffffffffffffffffffffffffffffff83161515935090506000806135e9600a546dffffffffffffffffffffffffffff808216926e0100000000000000000000000000009092041690565b915091506000836dffffffffffffffffffffffffffff1611801561360a5750845b801561364057506000826dffffffffffffffffffffffffffff16118061364057506000816dffffffffffffffffffffffffffff16115b1561377c57600a546008546000805460408a015160608b01517c010000000000000000000000000000000000000000000000000000000090950463ffffffff1694929373ffffffffffffffffffffffffffffffffffffffff1692637ecece03929190866136ad8b8b6141fa565b6136b78c8b6141fa565b6040517fffffffff0000000000000000000000000000000000000000000000000000000060e089901b16815260048101969096526024860194909452604485019290925263ffffffff1660648401526dffffffffffffffffffffffffffff90811660848401521660a482015260c401602060405180830381865afa158015613743573d6000803e3d6000fd5b505050506040513d601f19601f820116820180604052508101906137679190614022565b90508015613779576137798682613873565b50505b6dffffffffffffffffffffffffffff8216156137bb57600a80547fffffffffffffffffffffffffffffffffffff00000000000000000000000000001690555b6dffffffffffffffffffffffffffff8116156137fa57600a80547fffffffff0000000000000000000000000000ffffffffffffffffffffffffffff1690555b50505050919050565b60006003821115613864575080600061381d6002836140ed565b613828906001614101565b90505b8181101561385e5790508060028161384381866140ed565b61384d9190614101565b61385791906140ed565b905061382b565b50919050565b811561386e575060015b919050565b806000808282546138849190614101565b909155505073ffffffffffffffffffffffffffffffffffffffff8216600090815260016020526040812080548392906138be908490614101565b909155505060405181815273ffffffffffffffffffffffffffffffffffffffff8316906000907fddf252ad1be2c89b69c2b068fc378daa952ba7f163c4a11628f55a4df523b3ef906020015b60405180910390a35050565b60008183106139255781613927565b825b9392505050565b60008183116139255781613927565b80516009805460208401516dffffffffffffffffffffffffffff9081166e010000000000000000000000000000027fffffffff00000000000000000000000000000000000000000000000000000000909216908416171790556040820151108015906139b157508060200151816060015110155b6139bd576139bd614227565b604081810151600b80547fffffffffffffffffff0000000000000000000000000000ffffffffffffffffff1669010000000000000000006dffffffffffffffffffffffffffff93841681029190911791829055606080860151600c80547fffffffffffffffffffffffffffffffffffff0000000000000000000000000000169186169182179055600954865181871681526e010000000000000000000000000000909104861660208201529290930490931693810193909352908201527f90cf11c015dfdfdf83f1b0ed5d27ebcd2839050639a62928e181005c315248d69060800160405180910390a150565b73ffffffffffffffffffffffffffffffffffffffff821660009081526001602052604081208054839290613adf90849061406a565b9250508190555080600080828254613af7919061406a565b909155505060405181815260009073ffffffffffffffffffffffffffffffffffffffff8416907fddf252ad1be2c89b69c2b068fc378daa952ba7f163c4a11628f55a4df523b3ef9060200161390a565b6040805173ffffffffffffffffffffffffffffffffffffffff8481166024830152604480830185905283518084039091018152606490920183526020820180517bffffffffffffffffffffffffffffffffffffffffffffffffffffffff167fa9059cbb000000000000000000000000000000000000000000000000000000001790529151600092839290871691613bde9190614256565b6000604051808303816000865af19150503d8060008114613c1b576040519150601f19603f3d011682016040523d82523d6000602084013e613c20565b606091505b5091509150818015613c4a575080511580613c4a575080806020019051810190613c4a91906141d8565b613cb0576040517f08c379a000000000000000000000000000000000000000000000000000000000815260206004820152600960248201527f5245514c503a20544600000000000000000000000000000000000000000000006044820152606401610656565b5050505050565b73ffffffffffffffffffffffffffffffffffffffff81168114613cd957600080fd5b50565b600080600080600060808688031215613cf457600080fd5b85359450602086013593506040860135613d0d81613cb7565b9250606086013567ffffffffffffffff80821115613d2a57600080fd5b818801915088601f830112613d3e57600080fd5b813581811115613d4d57600080fd5b896020828501011115613d5f57600080fd5b9699959850939650602001949392505050565b60005b83811015613d8d578181015183820152602001613d75565b83811115612ad65750506000910152565b60008151808452613db6816020860160208601613d72565b601f017fffffffffffffffffffffffffffffffffffffffffffffffffffffffffffffffe0169290920160200192915050565b6020815260006139276020830184613d9e565b60008060408385031215613e0e57600080fd5b8235613e1981613cb7565b946020939093013593505050565b600080600080600060a08688031215613e3f57600080fd5b8535613e4a81613cb7565b94506020860135613e5a81613cb7565b935060408601359250606086013591506080860135613e7881613cb7565b809150509295509295909350565b600080600060608486031215613e9b57600080fd5b8335613ea681613cb7565b92506020840135613eb681613cb7565b929592945050506040919091013590565b600060208284031215613ed957600080fd5b813561392781613cb7565b803563ffffffff8116811461386e57600080fd5b600080600060608486031215613f0d57600080fd5b8335613f1881613cb7565b92506020840135613f2881613cb7565b9150613f3660408501613ee4565b90509250925092565b600080600080600080600060e0888a031215613f5a57600080fd5b8735613f6581613cb7565b96506020880135613f7581613cb7565b95506040880135945060608801359350608088013560ff81168114613f9957600080fd5b9699959850939692959460a0840135945060c09093013592915050565b60008060408385031215613fc957600080fd5b8235613fd481613cb7565b91506020830135613fe481613cb7565b809150509250929050565b6000806040838503121561400257600080fd5b61400b83613ee4565b915061401960208401613ee4565b90509250929050565b60006020828403121561403457600080fd5b5051919050565b7f4e487b7100000000000000000000000000000000000000000000000000000000600052601160045260246000fd5b60008282101561407c5761407c61403b565b500390565b6000817fffffffffffffffffffffffffffffffffffffffffffffffffffffffffffffffff04831182151516156140b9576140b961403b565b500290565b7f4e487b7100000000000000000000000000000000000000000000000000000000600052601260045260246000fd5b6000826140fc576140fc6140be565b500490565b600082198211156141145761411461403b565b500190565b600063ffffffff838116908316818110156141365761413661403b565b039392505050565b60006020828403121561415057600080fd5b815161392781613cb7565b60007fffffffffffffffffffffffffffffffffffffffffffffffffffffffffffffffff820361418c5761418c61403b565b5060010190565b73ffffffffffffffffffffffffffffffffffffffff851681528360208201528260408201526080606082015260006141ce6080830184613d9e565b9695505050505050565b6000602082840312156141ea57600080fd5b8151801515811461392757600080fd5b60006dffffffffffffffffffffffffffff8084168061421b5761421b6140be565b92169190910492915050565b7f4e487b7100000000000000000000000000000000000000000000000000000000600052600160045260246000fd5b60008251614268818460208701613d72565b919091019291505056fea2646970667358221220dfe2907d0ac70f37e0103e2be68c6651f00e04d0ccce58e36770c6a6c813fb0864736f6c634300080d0033a2646970667358221220183a6e68369e603f2b60c1c412521a15b4b3649becf78c876c50c21bf0fb41cd64736f6c634300080d0033",
  "devdoc": {
    "kind": "dev",
    "methods": {
      "createPair(address,address,uint32,uint32,uint32)": {
        "params": {
          "initialAmp": "initial amplification parameter",
          "initialFee": "initial swapFee",
          "tokenA": "first token",
          "tokenB": "second token",
          "tokenWeightA": "first token weight"
        }
      },
      "getPairs(address,address)": {
        "params": {
          "token0": "first token",
          "token1": "second token"
        },
        "returns": {
          "_tokenPairs": "array of deployed pairs"
        }
      },
      "owner()": {
        "details": "Returns the address of the current owner."
      },
      "renounceOwnership()": {
        "details": "Leaves the contract without owner. It will not be possible to call `onlyOwner` functions anymore. Can only be called by the current owner. NOTE: Renouncing ownership will leave the contract without an owner, thereby removing any functionality that is only available to the owner."
      },
      "setFeeTo(address)": {
        "params": {
          "_feeTo": "receiver"
        }
      },
      "setFeeToSetter(address)": {
        "params": {
          "_feeToSetter": "admin"
        }
      },
      "setProtocolFee(uint256)": {
        "params": {
          "_protocolFee": "new protocol fee"
        }
      },
      "setSwapParams(address,uint32,uint32)": {
        "params": {
          "_amp": "new amplification parameter",
          "_newSwapFee": "new seleted swap fee",
          "_pair": "pair to change"
        }
      },
      "transferOwnership(address)": {
        "details": "Transfers ownership of the contract to a new account (`newOwner`). Can only be called by the current owner."
      }
    },
    "version": 1
  },
  "userdoc": {
    "kind": "user",
    "methods": {
      "createPair(address,address,uint32,uint32,uint32)": {
        "notice": "Creates a new pair  with specified parameters"
      },
      "getPairs(address,address)": {
        "notice": "Function to get  all deployed configs for a token pair"
      },
      "setFeeTo(address)": {
        "notice": "Sets receiver of fees"
      },
      "setFeeToSetter(address)": {
        "notice": "Sets admin which can determine the address to which fees are sent"
      },
      "setProtocolFee(uint256)": {
        "notice": "Sets the protocol fee"
      },
      "setSwapParams(address,uint32,uint32)": {
        "notice": "sets the crucial swap parameters for the pair"
      }
    },
    "version": 1
  },
  "storageLayout": {
    "storage": [
      {
        "astId": 45046,
        "contract": "contracts/WeightedPairFactoryV2.sol:RequiemWeightedPairFactoryV2",
        "label": "_owner",
        "offset": 0,
        "slot": "0",
        "type": "t_address"
      },
      {
        "astId": 32102,
        "contract": "contracts/WeightedPairFactoryV2.sol:RequiemWeightedPairFactoryV2",
        "label": "feeTo",
        "offset": 0,
        "slot": "1",
        "type": "t_address"
      },
      {
        "astId": 32104,
        "contract": "contracts/WeightedPairFactoryV2.sol:RequiemWeightedPairFactoryV2",
        "label": "formula",
        "offset": 0,
        "slot": "2",
        "type": "t_address"
      },
      {
        "astId": 32106,
        "contract": "contracts/WeightedPairFactoryV2.sol:RequiemWeightedPairFactoryV2",
        "label": "protocolFee",
        "offset": 0,
        "slot": "3",
        "type": "t_uint256"
      },
      {
        "astId": 32108,
        "contract": "contracts/WeightedPairFactoryV2.sol:RequiemWeightedPairFactoryV2",
        "label": "feeToSetter",
        "offset": 0,
        "slot": "4",
        "type": "t_address"
      },
      {
        "astId": 32110,
        "contract": "contracts/WeightedPairFactoryV2.sol:RequiemWeightedPairFactoryV2",
        "label": "swapFeeGovernance",
        "offset": 0,
        "slot": "5",
        "type": "t_address"
      },
      {
        "astId": 32125,
        "contract": "contracts/WeightedPairFactoryV2.sol:RequiemWeightedPairFactoryV2",
        "label": "_pairSalts",
        "offset": 0,
        "slot": "6",
        "type": "t_mapping(t_bytes32,t_address)"
      },
      {
        "astId": 32128,
        "contract": "contracts/WeightedPairFactoryV2.sol:RequiemWeightedPairFactoryV2",
        "label": "allPairs",
        "offset": 0,
        "slot": "7",
        "type": "t_array(t_address)dyn_storage"
      },
      {
        "astId": 32132,
        "contract": "contracts/WeightedPairFactoryV2.sol:RequiemWeightedPairFactoryV2",
        "label": "_pairs",
        "offset": 0,
        "slot": "8",
        "type": "t_mapping(t_address,t_bool)"
      },
      {
        "astId": 32141,
        "contract": "contracts/WeightedPairFactoryV2.sol:RequiemWeightedPairFactoryV2",
        "label": "tokenPairs",
        "offset": 0,
        "slot": "9",
        "type": "t_mapping(t_contract(IERC20)36963,t_mapping(t_contract(IERC20)36963,t_struct(AddressSet)44123_storage))"
      },
      {
        "astId": 32143,
        "contract": "contracts/WeightedPairFactoryV2.sol:RequiemWeightedPairFactoryV2",
        "label": "pairGovernance",
        "offset": 0,
        "slot": "10",
        "type": "t_address"
      }
    ],
    "types": {
      "t_address": {
        "encoding": "inplace",
        "label": "address",
        "numberOfBytes": "20"
      },
      "t_array(t_address)dyn_storage": {
        "base": "t_address",
        "encoding": "dynamic_array",
        "label": "address[]",
        "numberOfBytes": "32"
      },
      "t_bool": {
        "encoding": "inplace",
        "label": "bool",
        "numberOfBytes": "1"
      },
      "t_bytes32": {
        "encoding": "inplace",
        "label": "bytes32",
        "numberOfBytes": "32"
      },
      "t_contract(IERC20)36963": {
        "encoding": "inplace",
        "label": "contract IERC20",
        "numberOfBytes": "20"
      },
      "t_mapping(t_address,t_bool)": {
        "encoding": "mapping",
        "key": "t_address",
        "label": "mapping(address => bool)",
        "numberOfBytes": "32",
        "value": "t_bool"
      },
      "t_mapping(t_address,t_uint256)": {
        "encoding": "mapping",
        "key": "t_address",
        "label": "mapping(address => uint256)",
        "numberOfBytes": "32",
        "value": "t_uint256"
      },
      "t_mapping(t_bytes32,t_address)": {
        "encoding": "mapping",
        "key": "t_bytes32",
        "label": "mapping(bytes32 => address)",
        "numberOfBytes": "32",
        "value": "t_address"
      },
      "t_mapping(t_contract(IERC20)36963,t_mapping(t_contract(IERC20)36963,t_struct(AddressSet)44123_storage))": {
        "encoding": "mapping",
        "key": "t_contract(IERC20)36963",
        "label": "mapping(contract IERC20 => mapping(contract IERC20 => struct EnumerableSet.AddressSet))",
        "numberOfBytes": "32",
        "value": "t_mapping(t_contract(IERC20)36963,t_struct(AddressSet)44123_storage)"
      },
      "t_mapping(t_contract(IERC20)36963,t_struct(AddressSet)44123_storage)": {
        "encoding": "mapping",
        "key": "t_contract(IERC20)36963",
        "label": "mapping(contract IERC20 => struct EnumerableSet.AddressSet)",
        "numberOfBytes": "32",
        "value": "t_struct(AddressSet)44123_storage"
      },
      "t_struct(AddressSet)44123_storage": {
        "encoding": "inplace",
        "label": "struct EnumerableSet.AddressSet",
        "members": [
          {
            "astId": 44118,
            "contract": "contracts/WeightedPairFactoryV2.sol:RequiemWeightedPairFactoryV2",
            "label": "_values",
            "offset": 0,
            "slot": "0",
            "type": "t_array(t_address)dyn_storage"
          },
          {
            "astId": 44122,
            "contract": "contracts/WeightedPairFactoryV2.sol:RequiemWeightedPairFactoryV2",
            "label": "_indexes",
            "offset": 0,
            "slot": "1",
            "type": "t_mapping(t_address,t_uint256)"
          }
        ],
        "numberOfBytes": "64"
      },
      "t_uint256": {
        "encoding": "inplace",
        "label": "uint256",
        "numberOfBytes": "32"
      }
    }
  }
}