{
  "address": "0xB7f8BC63BbcaD18155201308C8f3540b07f84F5e",
  "abi": [
    {
      "inputs": [
        {
          "internalType": "address",
          "name": "_feeToSetter",
          "type": "address"
        },
        {
          "internalType": "address",
          "name": "_formula",
          "type": "address"
        },
        {
          "internalType": "address",
          "name": "_weightedMath",
          "type": "address"
        }
      ],
      "stateMutability": "nonpayable",
      "type": "constructor"
    },
    {
      "anonymous": false,
      "inputs": [
        {
          "indexed": true,
          "internalType": "address",
          "name": "token0",
          "type": "address"
        },
        {
          "indexed": true,
          "internalType": "address",
          "name": "token1",
          "type": "address"
        },
        {
          "indexed": false,
          "internalType": "address",
          "name": "pool",
          "type": "address"
        },
        {
          "indexed": false,
          "internalType": "uint256",
          "name": "tokenWeight0",
          "type": "uint256"
        },
        {
          "indexed": false,
          "internalType": "uint32",
          "name": "swapFee",
          "type": "uint32"
        },
        {
          "indexed": false,
          "internalType": "uint256",
          "name": "",
          "type": "uint256"
        }
      ],
      "name": "PoolCreated",
      "type": "event"
    },
    {
      "inputs": [
        {
          "internalType": "uint256",
          "name": "",
          "type": "uint256"
        }
      ],
      "name": "allPools",
      "outputs": [
        {
          "internalType": "address",
          "name": "",
          "type": "address"
        }
      ],
      "stateMutability": "view",
      "type": "function"
    },
    {
      "inputs": [],
      "name": "allPoolsLength",
      "outputs": [
        {
          "internalType": "uint256",
          "name": "",
          "type": "uint256"
        }
      ],
      "stateMutability": "view",
      "type": "function"
    },
    {
      "inputs": [
        {
          "internalType": "address",
          "name": "token0",
          "type": "address"
        },
        {
          "internalType": "address",
          "name": "token1",
          "type": "address"
        },
        {
          "internalType": "uint32",
          "name": "normalizedWeight0",
          "type": "uint32"
        },
        {
          "internalType": "uint32",
          "name": "swapFeePercentage",
          "type": "uint32"
        }
      ],
      "name": "createPool",
      "outputs": [
        {
          "internalType": "address",
          "name": "pool",
          "type": "address"
        }
      ],
      "stateMutability": "nonpayable",
      "type": "function"
    },
    {
      "inputs": [],
      "name": "feeTo",
      "outputs": [
        {
          "internalType": "address",
          "name": "",
          "type": "address"
        }
      ],
      "stateMutability": "view",
      "type": "function"
    },
    {
      "inputs": [],
      "name": "feeToSetter",
      "outputs": [
        {
          "internalType": "address",
          "name": "",
          "type": "address"
        }
      ],
      "stateMutability": "view",
      "type": "function"
    },
    {
      "inputs": [],
      "name": "formula",
      "outputs": [
        {
          "internalType": "address",
          "name": "",
          "type": "address"
        }
      ],
      "stateMutability": "view",
      "type": "function"
    },
    {
      "inputs": [
        {
          "internalType": "address",
          "name": "token0",
          "type": "address"
        },
        {
          "internalType": "address",
          "name": "token1",
          "type": "address"
        },
        {
          "internalType": "uint256",
          "name": "normalizedWeight0",
          "type": "uint256"
        },
        {
          "internalType": "uint32",
          "name": "swapFeePercentage",
          "type": "uint32"
        }
      ],
      "name": "getPool",
      "outputs": [
        {
          "internalType": "address",
          "name": "pool",
          "type": "address"
        }
      ],
      "stateMutability": "view",
      "type": "function"
    },
    {
      "inputs": [
        {
          "internalType": "address",
          "name": "pool",
          "type": "address"
        }
      ],
      "name": "getWeightsAndSwapFee",
      "outputs": [
        {
          "internalType": "uint256",
          "name": "tokenWeight0",
          "type": "uint256"
        },
        {
          "internalType": "uint256",
          "name": "tokenWeight1",
          "type": "uint256"
        },
        {
          "internalType": "uint32",
          "name": "swapFee",
          "type": "uint32"
        }
      ],
      "stateMutability": "view",
      "type": "function"
    },
    {
      "inputs": [
        {
          "internalType": "address",
          "name": "b",
          "type": "address"
        }
      ],
      "name": "isPool",
      "outputs": [
        {
          "internalType": "bool",
          "name": "",
          "type": "bool"
        }
      ],
      "stateMutability": "view",
      "type": "function"
    },
    {
      "inputs": [],
      "name": "protocolFee",
      "outputs": [
        {
          "internalType": "uint256",
          "name": "",
          "type": "uint256"
        }
      ],
      "stateMutability": "view",
      "type": "function"
    },
    {
      "inputs": [
        {
          "internalType": "address",
          "name": "_feeTo",
          "type": "address"
        }
      ],
      "name": "setFeeTo",
      "outputs": [],
      "stateMutability": "nonpayable",
      "type": "function"
    },
    {
      "inputs": [
        {
          "internalType": "address",
          "name": "_feeToSetter",
          "type": "address"
        }
      ],
      "name": "setFeeToSetter",
      "outputs": [],
      "stateMutability": "nonpayable",
      "type": "function"
    },
    {
      "inputs": [
        {
          "internalType": "uint256",
          "name": "_protocolFee",
          "type": "uint256"
        }
      ],
      "name": "setProtocolFee",
      "outputs": [],
      "stateMutability": "nonpayable",
      "type": "function"
    },
    {
      "inputs": [],
      "name": "weightedMath",
      "outputs": [
        {
          "internalType": "address",
          "name": "",
          "type": "address"
        }
      ],
      "stateMutability": "view",
      "type": "function"
    }
  ],
  "transactionHash": "0x300bebc712dbe3d30e371a21b1ac4e4c7cc2ef4e960370b1485bb02c2bf1ab5f",
  "args": [
    "0xf39Fd6e51aad88F6F4ce6aB8827279cffFb92266",
    "0x8A791620dd6260079BF849Dc5567aDC3F2FdC318",
    "0x610178dA211FEF7D417bC0e6FeD39F05609AD788"
  ],
  "solcInputHash": "805deb118869de4d09a8d2c6ccdde3e0",
  "bytecode": "0x608060405234801561001057600080fd5b506040516134b63803806134b683398101604081905261002f9161008d565b600380546001600160a01b039485166001600160a01b0319918216179091556001805493851693821693909317909255600480549190931691161790556100d0565b80516001600160a01b038116811461008857600080fd5b919050565b6000806000606084860312156100a257600080fd5b6100ab84610071565b92506100b960208501610071565b91506100c760408501610071565b90509250925092565b6133d7806100df6000396000f3fe608060405234801561001057600080fd5b50600436106100ba5760003560e01c8063017e7e58146100bf578063094b7415146100ef5780630ef203041461010257806328b1fab31461011557806341d1de97146101285780634b75f54f1461013b5780635b16ebb71461014e5780637565b1f614610192578063787dce3d146101a5578063a2e74af6146101ba578063b0e21e8a146101cd578063ca222979146101e4578063efde4e6414610218578063f46901ed14610220575b600080fd5b6000546100d2906001600160a01b031681565b6040516001600160a01b0390911681526020015b60405180910390f35b6003546100d2906001600160a01b031681565b6100d26101103660046109b6565b610233565b6004546100d2906001600160a01b031681565b6100d2610136366004610a0a565b6106ff565b6001546100d2906001600160a01b031681565b61018261015c366004610a23565b6001600160a01b03166000908152600760205260409020546001600160401b0316151590565b60405190151581526020016100e6565b6100d26101a0366004610a45565b610729565b6101b86101b3366004610a0a565b6107e4565b005b6101b86101c8366004610a23565b610878565b6101d660025481565b6040519081526020016100e6565b6101f76101f2366004610a23565b6108c4565b60408051938452602084019290925263ffffffff16908201526060016100e6565b6006546101d6565b6101b861022e366004610a23565b61092c565b6000848484846001600160a01b0380851690841614156102955760405162461bcd60e51b8152602060048201526018602482015277524c503a204944454e544943414c5f41444452455353455360401b60448201526064015b60405180910390fd5b60028263ffffffff16101580156102b3575060628263ffffffff1611155b80156102cd57506102c5600283610a87565b63ffffffff16155b6103155760405162461bcd60e51b81526020600482015260196024820152781493140e881253959053125117d513d2d15397d5d15251d215603a1b604482015260640161028c565b60018163ffffffff161015801561033457506107d08163ffffffff1611155b6103785760405162461bcd60e51b8152602060048201526015602482015274524c503a20494e56414c49445f535741505f46454560581b604482015260640161028c565b6000806000856001600160a01b0316876001600160a01b0316106103a85785876103a3876064610ace565b6103ac565b8686865b919450925090506001600160a01b0383166103fd5760405162461bcd60e51b8152602060048201526011602482015270524c503a205a45524f5f4144445245535360781b604482015260640161028c565b60006040518060200161040f90610978565b601f1982820381018352601f9091011660408190526001600160601b0319606087811b8216602084015286901b1660348201526001600160e01b031960e085811b8216604884015288901b16604c82015290915060009060500160408051601f198184030181529181528151602092830120600081815260059093529120549091506001600160a01b0316156104da5760405162461bcd60e51b815260206004820152601060248201526f524c503a20504f4f4c5f45584953545360801b604482015260640161028c565b808251602084016000f599506001600160a01b038a1663566f7f9c868661050e63ffffffff8816662386f26fc10000610af3565b6040516001600160e01b031960e086901b1681526001600160a01b039384166004820152929091166024830152604482015263ffffffff89166064820152608401600060405180830381600087803b15801561056957600080fd5b505af115801561057d573d6000803e3d6000fd5b50505050896005600083815260200190815260200160002060006101000a8154816001600160a01b0302191690836001600160a01b0316021790555060068a9080600181540180825580915050600190039060005260206000200160009091909190916101000a8154816001600160a01b0302191690836001600160a01b0316021790555060008663ffffffff16905060208463ffffffff166001600160401b0316901b8117905080600760008d6001600160a01b03166001600160a01b0316815260200190815260200160002060006101000a8154816001600160401b0302191690836001600160401b03160217905550846001600160a01b0316866001600160a01b03167f89caf1af0a960bc0022763800d278f9ecb9929ef61966e68a703ace92e14880b8d878b6006805490506040516106e594939291906001600160a01b0394909416845263ffffffff928316602085015291166040830152606082015260800190565b60405180910390a350505050505050505050949350505050565b6006818154811061070f57600080fd5b6000918252602090912001546001600160a01b0316905081565b6000848484848480806001600160a01b0380871690881610610757578587610752876064610b12565b61075b565b8686865b6040516001600160601b0319606085811b8216602084015284901b166034820152604881018290526001600160e01b031960e089901b1660688201529295509093509150600090606c0160408051601f198184030181529181528151602092830120600090815260059092529020546001600160a01b03169d9c50505050505050505050505050565b6003546001600160a01b0316331461080e5760405162461bcd60e51b815260040161028c90610b29565b80158061082b5750612710811015801561082b5750620186a08111155b6108735760405162461bcd60e51b8152602060048201526019602482015278524c503a20496e76616c69642050726f746f636f6c2066656560381b604482015260640161028c565b600255565b6003546001600160a01b031633146108a25760405162461bcd60e51b815260040161028c90610b29565b600380546001600160a01b0319166001600160a01b0392909216919091179055565b6001600160a01b038116600090815260076020526040812054819081906001600160401b031680156109125763ffffffff602082901c16935090508061090b846064610b12565b9250610923565b603280601e93509350935050610925565b505b9193909250565b6003546001600160a01b031633146109565760405162461bcd60e51b815260040161028c90610b29565b600080546001600160a01b0319166001600160a01b0392909216919091179055565b6128508062000b5283390190565b80356001600160a01b038116811461099d57600080fd5b919050565b803563ffffffff8116811461099d57600080fd5b600080600080608085870312156109cc57600080fd5b6109d585610986565b93506109e360208601610986565b92506109f1604086016109a2565b91506109ff606086016109a2565b905092959194509250565b600060208284031215610a1c57600080fd5b5035919050565b600060208284031215610a3557600080fd5b610a3e82610986565b9392505050565b60008060008060808587031215610a5b57600080fd5b610a6485610986565b9350610a7260208601610986565b9250604085013591506109ff606086016109a2565b600063ffffffff80841680610aac57634e487b7160e01b600052601260045260246000fd5b92169190910692915050565b634e487b7160e01b600052601160045260246000fd5b600063ffffffff83811690831681811015610aeb57610aeb610ab8565b039392505050565b6000816000190483118215151615610b0d57610b0d610ab8565b500290565b600082821015610b2457610b24610ab8565b500390565b6020808252600e908201526d2926281d102327a92124a22222a760911b60408201526060019056fe60a06040526001600e553480156200001657600080fd5b50604080518082018252601a81527f5265717569656d204c69717569646974792050726f76696465720000000000006020918201528151808301835260018152603160f81b9082015281517f8b73c3c69bb8fe3d512ecc4cf759cc79239f7b179b0ffacaa9a75d522b39400f818301527f2e1adfbb118fada029d9623aa0ed8dd2318a25545f57095be55dcbd209508e12818401527fc89efdaa54c0f20c7adf612882df0950f5a951637e0307cdcb4c672f298b8bc660608201524660808201523060a0808301919091528351808303909101815260c08201808552815191840191909120600355600580546001600160a01b031916339081179091556328b1fab360e01b90915292516328b1fab39260c4808401939192918290030181865afa15801562000149573d6000803e3d6000fd5b505050506040513d601f19601f820116820180604052508101906200016f919062000181565b6001600160a01b0316608052620001b3565b6000602082840312156200019457600080fd5b81516001600160a01b0381168114620001ac57600080fd5b9392505050565b60805161266c620001e460003960008181610718015281816107b9015281816114fd01526115ae015261266c6000f3fe608060405234801561001057600080fd5b506004361061018b5760003560e01c806306fdde03146101905780630902f1ac146101df578063095ea7b3146102085780630dfe16811461022b57806318160ddd1461024b57806323b872dd1461026257806330adf81f14610275578063313ce5671461028a57806332bfe469146102a45780633644e515146102b95780635543410f146102c257806355c67628146102d5578063566f7f9c146102e35780635909c0d5146102f85780635a3d5493146103015780636a6278421461030a57806370a082311461031d5780637ecebe001461033d57806389afcb441461035d578063955a8d381461037057806395d89b41146103835780639b02cdde146103a5578063a9059cbb146103ad578063ba9a7a56146103c0578063bc25cf77146103c9578063c45a0155146103dc578063d21220a7146103ef578063d4cadf6814610402578063d505accf1461041a578063d54a8d181461042d578063dd62ed3e14610438578063f89f27ed14610463578063fff6cae914610478575b600080fd5b6101c96040518060400160405280601a8152602001792932b8bab4b2b6902634b8bab4b234ba3c90283937bb34b232b960311b81525081565b6040516101d69190611fc5565b60405180910390f35b6101e7610480565b60408051938452602084019290925263ffffffff16908201526060016101d6565b61021b61021636600461201b565b610496565b60405190151581526020016101d6565b60075461023e906001600160a01b031681565b6040516101d69190612047565b61025460005481565b6040519081526020016101d6565b61021b61027036600461205b565b6104ad565b61025460008051602061261783398151915281565b610292601281565b60405160ff90911681526020016101d6565b6015546016545b6040516101d692919061209c565b61025460035481565b6102546102d03660046120b9565b610542565b601a5463ffffffff16610254565b6102f66102f1366004612180565b610690565b005b610254600c5481565b610254600d5481565b6102546103183660046121dc565b6108b2565b61025461032b3660046121dc565b60016020526000908152604090205481565b61025461034b3660046121dc565b60046020526000908152604090205481565b6102ab61036b3660046121dc565b610b37565b60065461023e906001600160a01b031681565b6101c9604051806040016040528060038152602001620524c560ec1b81525081565b601254610254565b61021b6103bb36600461201b565b610e84565b6102546103e881565b6102f66103d73660046121dc565b610e91565b60055461023e906001600160a01b031681565b60085461023e906001600160a01b031681565b601a5460405163ffffffff90911681526020016101d6565b6102f6610428366004612208565b610f8b565b600f546010546102ab565b610254610446366004612279565b600260209081526000928352604080842090915290825290205481565b61046b611180565b6040516101d691906122b2565b6102f661118f565b600954600a54600b549192909163ffffffff1690565b60006104a33384846112ac565b5060015b92915050565b6001600160a01b03831660009081526002602090815260408083203384529091528120546000191461052c576001600160a01b0384166000908152600260209081526040808320338452909152902054610507908361130e565b6001600160a01b03851660009081526002602090815260408083203384529091529020555b61053784848461131c565b5060015b9392505050565b60135460208401516000916001600160a01b0391821691161481610565826113b0565b9050600061057383156113b0565b90506000610580846113c7565b9050600061058e85156113c7565b905061059a88856113de565b97506105a687846113de565b96506000895160018111156105bd576105bd6122f6565b14156106325760006105e26105d7601a5463ffffffff1690565b60608c0151906113ea565b90506106046105fe828c6060015161148990919063ffffffff16565b866113de565b60608b015260006106188b8b8b87876114de565b90506106248186611583565b97505050505050505061053b565b6106408960600151846113de565b60608a015260006106548a8a8a868661158f565b905061066081866115e9565b905061068361067c610677601a5463ffffffff1690565b6115f5565b829061161f565b965050505050505061053b565b6005546001600160a01b031633146106e25760405162461bcd60e51b815260206004820152601060248201526f2922a8a6281d102327a92124a22222a760811b60448201526064015b60405180910390fd5b60006106f683670de0b6b3a7640000612322565b9050610701856116bc565b60185561070d846116bc565b6019819055506107b47f00000000000000000000000000000000000000000000000000000000000000006001600160a01b031663418307846040518163ffffffff1660e01b8152600401602060405180830381865afa158015610774573d6000803e3d6000fd5b505050506040513d601f19601f820116820180604052508101906107989190612339565b6107aa85670de0b6b3a7640000612352565b101561012e611740565b61084b7f00000000000000000000000000000000000000000000000000000000000000006001600160a01b031663418307846040518163ffffffff1660e01b8152600401602060405180830381865afa158015610815573d6000803e3d6000fd5b505050506040513d601f19601f820116820180604052508101906108399190612339565b6107aa83670de0b6b3a7640000612352565b60006108578285612371565b905061086f670de0b6b3a76400008214610134611740565b601584905560168290558184101561088857600161088b565b60005b60ff166017555050601a805463ffffffff191663ffffffff92909216919091179055505050565b6000600e546001146108d65760405162461bcd60e51b81526004016106d990612389565b6000600e819055806108e6610480565b506007546040516370a0823160e01b81529294509092506000916001600160a01b03909116906370a0823190610920903090600401612047565b602060405180830381865afa15801561093d573d6000803e3d6000fd5b505050506040513d601f19601f820116820180604052508101906109619190612339565b6008546040516370a0823160e01b81529192506000916001600160a01b03909116906370a0823190610997903090600401612047565b602060405180830381865afa1580156109b4573d6000803e3d6000fd5b505050506040513d601f19601f820116820180604052508101906109d89190612339565b905060006109e68386611489565b905060006109f48386611489565b9050610a008686611752565b5060005480610a3b57610a276103e8610a21610a1c8587612352565b611998565b90611489565b9750610a3660006103e8611a08565b610a70565b610a6d87610a498386612352565b610a5391906123c6565b87610a5e8486612352565b610a6891906123c6565b611a85565b97505b60008811610acc5760405162461bcd60e51b8152602060048201526024808201527f5245514c503a20494e53554646494349454e545f4c49515549444954595f4d496044820152631395115160e21b60648201526084016106d9565b610ad68989611a08565b610ae285858989611a9b565b336001600160a01b03167f4c209b5fc8ad50758f13e2e1088ba56a560dff690a1c6fef26394f4c03821c4f8484604051610b1d92919061209c565b60405180910390a250506001600e55509395945050505050565b600080600e54600114610b5c5760405162461bcd60e51b81526004016106d990612389565b6000600e81905580610b6c610480565b506007546008546040516370a0823160e01b81529395509193506001600160a01b039081169291169060009083906370a0823190610bae903090600401612047565b602060405180830381865afa158015610bcb573d6000803e3d6000fd5b505050506040513d601f19601f82011682018060405250810190610bef9190612339565b90506000826001600160a01b03166370a08231306040518263ffffffff1660e01b8152600401610c1f9190612047565b602060405180830381865afa158015610c3c573d6000803e3d6000fd5b505050506040513d601f19601f82011682018060405250810190610c609190612339565b30600090815260016020526040902054909150610c7d8787611752565b5060005480610c8c8584612352565b610c9691906123c6565b995080610ca38484612352565b610cad91906123c6565b985060008a118015610cbf5750600089115b610d175760405162461bcd60e51b8152602060048201526024808201527f5245514c503a20494e53554646494349454e545f4c49515549444954595f42556044820152631493915160e21b60648201526084016106d9565b610d213083611c51565b610d2c868c8c611cc9565b610d37858c8b611cc9565b6040516370a0823160e01b81526001600160a01b038716906370a0823190610d63903090600401612047565b602060405180830381865afa158015610d80573d6000803e3d6000fd5b505050506040513d601f19601f82011682018060405250810190610da49190612339565b6040516370a0823160e01b81529094506001600160a01b038616906370a0823190610dd3903090600401612047565b602060405180830381865afa158015610df0573d6000803e3d6000fd5b505050506040513d601f19601f82011682018060405250810190610e149190612339565b9250610e2284848a8a611a9b565b8a6001600160a01b0316336001600160a01b03167fdccd412f0b1252819cb1fd330b93224ca42612892bb3f4f789976e6d819364968c8c604051610e6792919061209c565b60405180910390a350505050505050506001600e81905550915091565b60006104a333848461131c565b600e54600114610eb35760405162461bcd60e51b81526004016106d990612389565b6000600e556007546008546009546040516370a0823160e01b81526001600160a01b039384169390921691610f4d91849186919083906370a0823190610efd903090600401612047565b602060405180830381865afa158015610f1a573d6000803e3d6000fd5b505050506040513d601f19601f82011682018060405250810190610f3e9190612339565b610f489190612322565b611cc9565b610f818184600a54846001600160a01b03166370a08231306040518263ffffffff1660e01b8152600401610efd9190612047565b50506001600e5550565b42841015610fca5760405162461bcd60e51b815260206004820152600c60248201526b1493140e881156141254915160a21b60448201526064016106d9565b6003546001600160a01b03881660009081526004602052604081208054919291600080516020612617833981519152918b918b918b91908761100b836123da565b909155506040805160208101969096526001600160a01b0394851690860152929091166060840152608083015260a082015260c0810187905260e0016040516020818303038152906040528051906020012060405160200161108492919061190160f01b81526002810192909252602282015260420190565b60408051601f198184030181528282528051602091820120600080855291840180845281905260ff88169284019290925260608301869052608083018590529092509060019060a0016020604051602081039080840390855afa1580156110ef573d6000803e3d6000fd5b5050604051601f1901519150506001600160a01b038116158015906111255750886001600160a01b0316816001600160a01b0316145b61116a5760405162461bcd60e51b8152602060048201526016602482015275524c503a20494e56414c49445f5349474e415455524560501b60448201526064016106d9565b6111758989896112ac565b505050505050505050565b606061118a611e09565b905090565b600e546001146111b15760405162461bcd60e51b81526004016106d990612389565b6000600e556007546040516370a0823160e01b81526112a5916001600160a01b0316906370a08231906111e8903090600401612047565b602060405180830381865afa158015611205573d6000803e3d6000fd5b505050506040513d601f19601f820116820180604052508101906112299190612339565b6008546040516370a0823160e01b81526001600160a01b03909116906370a0823190611259903090600401612047565b602060405180830381865afa158015611276573d6000803e3d6000fd5b505050506040513d601f19601f8201168201806040525081019061129a9190612339565b600954600a54611a9b565b6001600e55565b6001600160a01b0383811660008181526002602090815260408083209487168084529482529182902085905590518481527f8c5be1e5ebec7d5bd14f71427d1e84f3dd0314c0f7b2291e5b200ac8c7c3b92591015b60405180910390a3505050565b600061053b83836001611e84565b6001600160a01b03831660009081526001602052604090205461133f908261130e565b6001600160a01b03808516600090815260016020526040808220939093559084168152205461136e9082611ea8565b6001600160a01b0380841660008181526001602052604090819020939093559151908516906000805160206125f7833981519152906113019085815260200190565b6000816113bf576019546104a7565b505060185490565b6000816113d6576016546104a7565b505060155490565b600061053b8284612352565b6000806113f78385612352565b905083158061140e57508261140c85836123c6565b145b6114495760405162461bcd60e51b815260206004820152600c60248201526b4d554c5f4f564552464c4f5760a01b60448201526064016106d9565b806114585760009150506104a7565b670de0b6b3a764000061146c600183612322565b61147691906123c6565b611481906001612371565b9150506104a7565b6000828211156114ca5760405162461bcd60e51b815260206004820152600c60248201526b5355425f4f564552464c4f5760a01b60448201526064016106d9565b60006114d68385612322565b949350505050565b6060850151604051630b9c7bab60e31b81526000916001600160a01b037f00000000000000000000000000000000000000000000000000000000000000001691635ce3dd589161153891899188918a9189916004016123f5565b602060405180830381865afa158015611555573d6000803e3d6000fd5b505050506040513d601f19601f820116820180604052508101906115799190612339565b9695505050505050565b600061053b8383611ec5565b606085015160405163e9be73ef60e01b81526000916001600160a01b037f0000000000000000000000000000000000000000000000000000000000000000169163e9be73ef9161153891899188918a9189916004016123f5565b600061053b8383611eee565b6000670de0b6b3a7640000821061160d5760006104a7565b6104a782670de0b6b3a7640000612322565b60008161163e5760405162461bcd60e51b81526004016106d990612418565b8261164b575060006104a7565b600061165f670de0b6b3a764000085612352565b9050670de0b6b3a764000061167485836123c6565b146116b05760405162461bcd60e51b815260206004820152600c60248201526b11125597d25395115493905360a21b60448201526064016106d9565b8261146c600183612322565b600080826001600160a01b031663313ce5676040518163ffffffff1660e01b8152600401602060405180830381865afa1580156116fd573d6000803e3d6000fd5b505050506040513d601f19601f82011682018060405250810190611721919061243f565b60ff1690506000611733826012612322565b90506114d681600a612540565b8161174e5761174e81611f42565b5050565b600080600560009054906101000a90046001600160a01b03166001600160a01b031663017e7e586040518163ffffffff1660e01b8152600401602060405180830381865afa1580156117a8573d6000803e3d6000fd5b505050506040513d601f19601f820116820180604052508101906117cc919061254c565b90506000600560009054906101000a90046001600160a01b03166001600160a01b031663b0e21e8a6040518163ffffffff1660e01b8152600401602060405180830381865afa158015611823573d6000803e3d6000fd5b505050506040513d601f19601f820116820180604052508101906118479190612339565b6001600160a01b038316151593509050600080611867600f546010549091565b915091506000831180156118785750845b801561188e5750600082118061188e5750600081115b15611976576011546006546000805463ffffffff9093169290916001600160a01b031690630c8750c2908b8b866118c6816064612322565b6118d08c8c6123c6565b6118da8d8c6123c6565b6040516001600160e01b031960e08a901b1681526004810197909752602487019590955260448601939093526064850191909152608484015260a483015260c482015260e401602060405180830381865afa15801561193d573d6000803e3d6000fd5b505050506040513d601f19601f820116820180604052508101906119619190612339565b90508015611973576119738682611a08565b50505b8115611982576000600f555b801561198e5760006010555b5050505092915050565b600060038211156119f957508060006119b26002836123c6565b6119bd906001612371565b90505b818110156119f3579050806002816119d881866123c6565b6119e29190612371565b6119ec91906123c6565b90506119c0565b50919050565b8115611a03575060015b919050565b600054611a159082611ea8565b60009081556001600160a01b038316815260016020526040902054611a3a9082611ea8565b6001600160a01b0383166000818152600160205260408082209390935591519091906000805160206125f783398151915290611a799085815260200190565b60405180910390a35050565b6000818310611a94578161053b565b5090919050565b60115463ffffffff16600019611ab2826064612322565b611abc9087612352565b11158015611ad55750600019611ad28286612352565b11155b611b135760405162461bcd60e51b815260206004820152600f60248201526e5245514c503a204f564552464c4f5760881b60448201526064016106d9565b6000611b23600160201b42612569565b600b54909150600090611b3c9063ffffffff168361257d565b905060008163ffffffff16118015611b5357508415155b8015611b5e57508315155b15611bef576000611b70846064612322565b611b7a9087612352565b90506000611b888587612352565b905063ffffffff8316611b9b83836123c6565b611ba59190612352565b600c6000828254611bb69190612371565b909155505063ffffffff8316611bcc82846123c6565b611bd69190612352565b600d6000828254611be79190612371565b909155505050505b6009879055600a869055600b805463ffffffff191663ffffffff84161790556040517fcf2aa50876cdfbb541206f89af0ee78d44a2abf8d328e37fa4917f982149848a90611c40908990899061209c565b60405180910390a150505050505050565b6001600160a01b038216600090815260016020526040902054611c74908261130e565b6001600160a01b03831660009081526001602052604081209190915554611c9b908261130e565b60009081556040518281526001600160a01b038416906000805160206125f783398151915290602001611a79565b60408051808201825260198152787472616e7366657228616464726573732c75696e743235362960381b60209182015281516001600160a01b0385811660248301526044808301869052845180840390910181526064909201845291810180516001600160e01b031663a9059cbb60e01b17905291516000928392871691611d5191906125a2565b6000604051808303816000865af19150503d8060008114611d8e576040519150601f19603f3d011682016040523d82523d6000602084013e611d93565b606091505b5091509150818015611dbd575080511580611dbd575080806020019051810190611dbd91906125be565b611e025760405162461bcd60e51b815260206004820152601660248201527514915453140e881514905394d1915497d1905253115160521b60448201526064016106d9565b5050505050565b60408051600280825260608083018452926000929190602083019080368337019050509050611e3860016113c7565b81600081518110611e4b57611e4b6125e0565b602002602001018181525050611e6160006113c7565b81600181518110611e7457611e746125e0565b6020908102919091010152919050565b6000611e938484111583611740565b6000611e9f8486612322565b95945050505050565b600080611eb58385612371565b905061053b848210156000611740565b600081611ee45760405162461bcd60e51b81526004016106d990612418565b61053b82846123c6565b600081611f0d5760405162461bcd60e51b81526004016106d990612418565b82611f1a575060006104a7565b81611f26600185612322565b611f3091906123c6565b611f3b906001612371565b90506104a7565b62461bcd60e51b6000908152602060045260076024526652455123000030600a808404818106603090810160081b95839006959095019082900491820690940160101b939093010160c81b604452606490fd5b60005b83811015611fb0578181015183820152602001611f98565b83811115611fbf576000848401525b50505050565b6020815260008251806020840152611fe4816040850160208701611f95565b601f01601f19169190910160400192915050565b6001600160a01b038116811461200d57600080fd5b50565b8035611a0381611ff8565b6000806040838503121561202e57600080fd5b823561203981611ff8565b946020939093013593505050565b6001600160a01b0391909116815260200190565b60008060006060848603121561207057600080fd5b833561207b81611ff8565b9250602084013561208b81611ff8565b929592945050506040919091013590565b918252602082015260400190565b803560028110611a0357600080fd5b60008060008385036101008112156120d057600080fd5b60c08112156120de57600080fd5b5060405160c081016001600160401b038111828210171561210f57634e487b7160e01b600052604160045260246000fd5b60405261211b856120aa565b815261212960208601612010565b602082015261213a60408601612010565b60408201526060850135606082015261215560808601612010565b608082015261216660a08601612010565b60a08201529560c0850135955060e0909401359392505050565b6000806000806080858703121561219657600080fd5b84356121a181611ff8565b935060208501356121b181611ff8565b925060408501359150606085013563ffffffff811681146121d157600080fd5b939692955090935050565b6000602082840312156121ee57600080fd5b813561053b81611ff8565b60ff8116811461200d57600080fd5b600080600080600080600060e0888a03121561222357600080fd5b873561222e81611ff8565b9650602088013561223e81611ff8565b95506040880135945060608801359350608088013561225c816121f9565b9699959850939692959460a0840135945060c09093013592915050565b6000806040838503121561228c57600080fd5b823561229781611ff8565b915060208301356122a781611ff8565b809150509250929050565b6020808252825182820181905260009190848201906040850190845b818110156122ea578351835292840192918401916001016122ce565b50909695505050505050565b634e487b7160e01b600052602160045260246000fd5b634e487b7160e01b600052601160045260246000fd5b6000828210156123345761233461230c565b500390565b60006020828403121561234b57600080fd5b5051919050565b600081600019048311821515161561236c5761236c61230c565b500290565b600082198211156123845761238461230c565b500190565b6020808252600d908201526c14915453140e881313d0d2d151609a1b604082015260600190565b634e487b7160e01b600052601260045260246000fd5b6000826123d5576123d56123b0565b500490565b60006000198214156123ee576123ee61230c565b5060010190565b948552602085019390935260408401919091526060830152608082015260a00190565b6020808252600d908201526c2d22a927afa224ab24a9a4a7a760991b604082015260600190565b60006020828403121561245157600080fd5b815161053b816121f9565b600181815b8085111561249757816000190482111561247d5761247d61230c565b8085161561248a57918102915b93841c9390800290612461565b509250929050565b6000826124ae575060016104a7565b816124bb575060006104a7565b81600181146124d157600281146124db576124f7565b60019150506104a7565b60ff8411156124ec576124ec61230c565b50506001821b6104a7565b5060208310610133831016604e8410600b841016171561251a575081810a6104a7565b612524838361245c565b80600019048211156125385761253861230c565b029392505050565b600061053b838361249f565b60006020828403121561255e57600080fd5b815161053b81611ff8565b600082612578576125786123b0565b500690565b600063ffffffff8381169083168181101561259a5761259a61230c565b039392505050565b600082516125b4818460208701611f95565b9190910192915050565b6000602082840312156125d057600080fd5b8151801515811461053b57600080fd5b634e487b7160e01b600052603260045260246000fdfeddf252ad1be2c89b69c2b068fc378daa952ba7f163c4a11628f55a4df523b3ef6e71edae12b1b97f4d1f60370fef10105fa2faae0126114a169c64845d6126c9a2646970667358221220ca73c833b33cc3b0910eca4f890e5fc0bc74de957917ede4602faf37edf2968f64736f6c634300080a0033a2646970667358221220b9dd2dcd21fe6dd8a94ea562c52f18af6192954060f00b1642e04e1eb86767e464736f6c634300080a0033",
  "devdoc": {
    "kind": "dev",
    "methods": {},
    "version": 1
  },
  "userdoc": {
    "kind": "user",
    "methods": {},
    "version": 1
  },
  "storageLayout": {
    "storage": [
      {
        "astId": 1652,
        "contract": "contracts/Requiem2PoolFactory.sol:Requiem2PoolFactory",
        "label": "feeTo",
        "offset": 0,
        "slot": "0",
        "type": "t_address"
      },
      {
        "astId": 1654,
        "contract": "contracts/Requiem2PoolFactory.sol:Requiem2PoolFactory",
        "label": "formula",
        "offset": 0,
        "slot": "1",
        "type": "t_address"
      },
      {
        "astId": 1656,
        "contract": "contracts/Requiem2PoolFactory.sol:Requiem2PoolFactory",
        "label": "protocolFee",
        "offset": 0,
        "slot": "2",
        "type": "t_uint256"
      },
      {
        "astId": 1658,
        "contract": "contracts/Requiem2PoolFactory.sol:Requiem2PoolFactory",
        "label": "feeToSetter",
        "offset": 0,
        "slot": "3",
        "type": "t_address"
      },
      {
        "astId": 1660,
        "contract": "contracts/Requiem2PoolFactory.sol:Requiem2PoolFactory",
        "label": "weightedMath",
        "offset": 0,
        "slot": "4",
        "type": "t_address"
      },
      {
        "astId": 1664,
        "contract": "contracts/Requiem2PoolFactory.sol:Requiem2PoolFactory",
        "label": "_poolSalts",
        "offset": 0,
        "slot": "5",
        "type": "t_mapping(t_bytes32,t_address)"
      },
      {
        "astId": 1667,
        "contract": "contracts/Requiem2PoolFactory.sol:Requiem2PoolFactory",
        "label": "allPools",
        "offset": 0,
        "slot": "6",
        "type": "t_array(t_address)dyn_storage"
      },
      {
        "astId": 1671,
        "contract": "contracts/Requiem2PoolFactory.sol:Requiem2PoolFactory",
        "label": "_pools",
        "offset": 0,
        "slot": "7",
        "type": "t_mapping(t_address,t_uint64)"
      }
    ],
    "types": {
      "t_address": {
        "encoding": "inplace",
        "label": "address",
        "numberOfBytes": "20"
      },
      "t_array(t_address)dyn_storage": {
        "base": "t_address",
        "encoding": "dynamic_array",
        "label": "address[]",
        "numberOfBytes": "32"
      },
      "t_bytes32": {
        "encoding": "inplace",
        "label": "bytes32",
        "numberOfBytes": "32"
      },
      "t_mapping(t_address,t_uint64)": {
        "encoding": "mapping",
        "key": "t_address",
        "label": "mapping(address => uint64)",
        "numberOfBytes": "32",
        "value": "t_uint64"
      },
      "t_mapping(t_bytes32,t_address)": {
        "encoding": "mapping",
        "key": "t_bytes32",
        "label": "mapping(bytes32 => address)",
        "numberOfBytes": "32",
        "value": "t_address"
      },
      "t_uint256": {
        "encoding": "inplace",
        "label": "uint256",
        "numberOfBytes": "32"
      },
      "t_uint64": {
        "encoding": "inplace",
        "label": "uint64",
        "numberOfBytes": "8"
      }
    }
  }
}