{
  "address": "0x1613beB3B2C4f22Ee086B2b38C1476A3cE7f78E8",
  "abi": [
    {
      "anonymous": false,
      "inputs": [
        {
          "indexed": true,
          "internalType": "address",
          "name": "provider",
          "type": "address"
        },
        {
          "indexed": false,
          "internalType": "uint256[]",
          "name": "tokenAmounts",
          "type": "uint256[]"
        },
        {
          "indexed": false,
          "internalType": "uint256[]",
          "name": "fees",
          "type": "uint256[]"
        },
        {
          "indexed": false,
          "internalType": "uint256",
          "name": "invariant",
          "type": "uint256"
        },
        {
          "indexed": false,
          "internalType": "uint256",
          "name": "tokenSupply",
          "type": "uint256"
        }
      ],
      "name": "AddLiquidity",
      "type": "event"
    },
    {
      "anonymous": false,
      "inputs": [
        {
          "indexed": false,
          "internalType": "address",
          "name": "token",
          "type": "address"
        },
        {
          "indexed": false,
          "internalType": "uint256",
          "name": "amount",
          "type": "uint256"
        }
      ],
      "name": "CollectProtocolFee",
      "type": "event"
    },
    {
      "anonymous": false,
      "inputs": [
        {
          "indexed": false,
          "internalType": "address",
          "name": "newController",
          "type": "address"
        }
      ],
      "name": "FeeControllerChanged",
      "type": "event"
    },
    {
      "anonymous": false,
      "inputs": [
        {
          "indexed": false,
          "internalType": "address",
          "name": "newController",
          "type": "address"
        }
      ],
      "name": "FeeDistributorChanged",
      "type": "event"
    },
    {
      "anonymous": false,
      "inputs": [
        {
          "indexed": false,
          "internalType": "uint256",
          "name": "fee",
          "type": "uint256"
        },
        {
          "indexed": false,
          "internalType": "uint256",
          "name": "flashFee",
          "type": "uint256"
        },
        {
          "indexed": false,
          "internalType": "uint256",
          "name": "adminFee",
          "type": "uint256"
        },
        {
          "indexed": false,
          "internalType": "uint256",
          "name": "withdrawFee",
          "type": "uint256"
        }
      ],
      "name": "NewFee",
      "type": "event"
    },
    {
      "anonymous": false,
      "inputs": [
        {
          "indexed": true,
          "internalType": "address",
          "name": "previousOwner",
          "type": "address"
        },
        {
          "indexed": true,
          "internalType": "address",
          "name": "newOwner",
          "type": "address"
        }
      ],
      "name": "OwnershipTransferred",
      "type": "event"
    },
    {
      "anonymous": false,
      "inputs": [
        {
          "indexed": false,
          "internalType": "address",
          "name": "account",
          "type": "address"
        }
      ],
      "name": "Paused",
      "type": "event"
    },
    {
      "anonymous": false,
      "inputs": [
        {
          "indexed": false,
          "internalType": "uint256",
          "name": "oldA",
          "type": "uint256"
        },
        {
          "indexed": false,
          "internalType": "uint256",
          "name": "newA",
          "type": "uint256"
        },
        {
          "indexed": false,
          "internalType": "uint256",
          "name": "initialTime",
          "type": "uint256"
        },
        {
          "indexed": false,
          "internalType": "uint256",
          "name": "futureTime",
          "type": "uint256"
        }
      ],
      "name": "RampA",
      "type": "event"
    },
    {
      "anonymous": false,
      "inputs": [
        {
          "indexed": true,
          "internalType": "address",
          "name": "provider",
          "type": "address"
        },
        {
          "indexed": false,
          "internalType": "uint256[]",
          "name": "tokenAmounts",
          "type": "uint256[]"
        },
        {
          "indexed": false,
          "internalType": "uint256[]",
          "name": "fees",
          "type": "uint256[]"
        },
        {
          "indexed": false,
          "internalType": "uint256",
          "name": "tokenSupply",
          "type": "uint256"
        }
      ],
      "name": "RemoveLiquidity",
      "type": "event"
    },
    {
      "anonymous": false,
      "inputs": [
        {
          "indexed": true,
          "internalType": "address",
          "name": "provider",
          "type": "address"
        },
        {
          "indexed": false,
          "internalType": "uint256[]",
          "name": "tokenAmounts",
          "type": "uint256[]"
        },
        {
          "indexed": false,
          "internalType": "uint256[]",
          "name": "fees",
          "type": "uint256[]"
        },
        {
          "indexed": false,
          "internalType": "uint256",
          "name": "invariant",
          "type": "uint256"
        },
        {
          "indexed": false,
          "internalType": "uint256",
          "name": "tokenSupply",
          "type": "uint256"
        }
      ],
      "name": "RemoveLiquidityImbalance",
      "type": "event"
    },
    {
      "anonymous": false,
      "inputs": [
        {
          "indexed": true,
          "internalType": "address",
          "name": "provider",
          "type": "address"
        },
        {
          "indexed": false,
          "internalType": "uint256",
          "name": "tokenIndex",
          "type": "uint256"
        },
        {
          "indexed": false,
          "internalType": "uint256",
          "name": "tokenAmount",
          "type": "uint256"
        },
        {
          "indexed": false,
          "internalType": "uint256",
          "name": "coinAmount",
          "type": "uint256"
        }
      ],
      "name": "RemoveLiquidityOne",
      "type": "event"
    },
    {
      "anonymous": false,
      "inputs": [
        {
          "indexed": false,
          "internalType": "uint256",
          "name": "A",
          "type": "uint256"
        },
        {
          "indexed": false,
          "internalType": "uint256",
          "name": "timestamp",
          "type": "uint256"
        }
      ],
      "name": "StopRampA",
      "type": "event"
    },
    {
      "anonymous": false,
      "inputs": [
        {
          "indexed": true,
          "internalType": "address",
          "name": "buyer",
          "type": "address"
        },
        {
          "indexed": false,
          "internalType": "uint256",
          "name": "soldId",
          "type": "uint256"
        },
        {
          "indexed": false,
          "internalType": "uint256",
          "name": "tokensSold",
          "type": "uint256"
        },
        {
          "indexed": false,
          "internalType": "uint256",
          "name": "boughtId",
          "type": "uint256"
        },
        {
          "indexed": false,
          "internalType": "uint256",
          "name": "tokensBought",
          "type": "uint256"
        }
      ],
      "name": "TokenExchange",
      "type": "event"
    },
    {
      "anonymous": false,
      "inputs": [
        {
          "indexed": false,
          "internalType": "address",
          "name": "account",
          "type": "address"
        }
      ],
      "name": "Unpaused",
      "type": "event"
    },
    {
      "inputs": [
        {
          "internalType": "uint256[]",
          "name": "amounts",
          "type": "uint256[]"
        },
        {
          "internalType": "uint256",
          "name": "minMintAmount",
          "type": "uint256"
        },
        {
          "internalType": "uint256",
          "name": "deadline",
          "type": "uint256"
        }
      ],
      "name": "addLiquidity",
      "outputs": [
        {
          "internalType": "uint256",
          "name": "",
          "type": "uint256"
        }
      ],
      "stateMutability": "nonpayable",
      "type": "function"
    },
    {
      "inputs": [
        {
          "internalType": "address",
          "name": "account",
          "type": "address"
        }
      ],
      "name": "calculateCurrentWithdrawFee",
      "outputs": [
        {
          "internalType": "uint256",
          "name": "",
          "type": "uint256"
        }
      ],
      "stateMutability": "view",
      "type": "function"
    },
    {
      "inputs": [
        {
          "internalType": "address",
          "name": "account",
          "type": "address"
        },
        {
          "internalType": "uint256",
          "name": "amount",
          "type": "uint256"
        }
      ],
      "name": "calculateRemoveLiquidity",
      "outputs": [
        {
          "internalType": "uint256[]",
          "name": "",
          "type": "uint256[]"
        }
      ],
      "stateMutability": "view",
      "type": "function"
    },
    {
      "inputs": [
        {
          "internalType": "address",
          "name": "account",
          "type": "address"
        },
        {
          "internalType": "uint256",
          "name": "amount",
          "type": "uint256"
        },
        {
          "internalType": "uint8",
          "name": "index",
          "type": "uint8"
        }
      ],
      "name": "calculateRemoveLiquidityOneToken",
      "outputs": [
        {
          "internalType": "uint256",
          "name": "",
          "type": "uint256"
        }
      ],
      "stateMutability": "view",
      "type": "function"
    },
    {
      "inputs": [
        {
          "internalType": "address",
          "name": "tokenIn",
          "type": "address"
        },
        {
          "internalType": "address",
          "name": "tokenOut",
          "type": "address"
        },
        {
          "internalType": "uint256",
          "name": "amountIn",
          "type": "uint256"
        }
      ],
      "name": "calculateSwapGivenIn",
      "outputs": [
        {
          "internalType": "uint256",
          "name": "",
          "type": "uint256"
        }
      ],
      "stateMutability": "view",
      "type": "function"
    },
    {
      "inputs": [
        {
          "internalType": "address",
          "name": "tokenIn",
          "type": "address"
        },
        {
          "internalType": "address",
          "name": "tokenOut",
          "type": "address"
        },
        {
          "internalType": "uint256",
          "name": "amountOut",
          "type": "uint256"
        }
      ],
      "name": "calculateSwapGivenOut",
      "outputs": [
        {
          "internalType": "uint256",
          "name": "",
          "type": "uint256"
        }
      ],
      "stateMutability": "view",
      "type": "function"
    },
    {
      "inputs": [
        {
          "internalType": "uint256[]",
          "name": "amounts",
          "type": "uint256[]"
        },
        {
          "internalType": "bool",
          "name": "deposit",
          "type": "bool"
        }
      ],
      "name": "calculateTokenAmount",
      "outputs": [
        {
          "internalType": "uint256",
          "name": "",
          "type": "uint256"
        }
      ],
      "stateMutability": "view",
      "type": "function"
    },
    {
      "inputs": [],
      "name": "feeController",
      "outputs": [
        {
          "internalType": "address",
          "name": "",
          "type": "address"
        }
      ],
      "stateMutability": "view",
      "type": "function"
    },
    {
      "inputs": [],
      "name": "feeDistributor",
      "outputs": [
        {
          "internalType": "address",
          "name": "",
          "type": "address"
        }
      ],
      "stateMutability": "view",
      "type": "function"
    },
    {
      "inputs": [
        {
          "internalType": "contract IFlashLoanRecipient",
          "name": "recipient",
          "type": "address"
        },
        {
          "internalType": "contract IERC20[]",
          "name": "tokens",
          "type": "address[]"
        },
        {
          "internalType": "uint256[]",
          "name": "amounts",
          "type": "uint256[]"
        },
        {
          "internalType": "bytes",
          "name": "userData",
          "type": "bytes"
        }
      ],
      "name": "flashLoan",
      "outputs": [],
      "stateMutability": "nonpayable",
      "type": "function"
    },
    {
      "inputs": [],
      "name": "getVirtualPrice",
      "outputs": [
        {
          "internalType": "uint256",
          "name": "",
          "type": "uint256"
        }
      ],
      "stateMutability": "view",
      "type": "function"
    },
    {
      "inputs": [
        {
          "internalType": "address[]",
          "name": "_coins",
          "type": "address[]"
        },
        {
          "internalType": "uint8[]",
          "name": "_decimals",
          "type": "uint8[]"
        },
        {
          "internalType": "string",
          "name": "lpTokenName",
          "type": "string"
        },
        {
          "internalType": "string",
          "name": "lpTokenSymbol",
          "type": "string"
        },
        {
          "internalType": "uint256",
          "name": "_A",
          "type": "uint256"
        },
        {
          "internalType": "uint256",
          "name": "_fee",
          "type": "uint256"
        },
        {
          "internalType": "uint256",
          "name": "_flashFee",
          "type": "uint256"
        },
        {
          "internalType": "uint256",
          "name": "_adminFee",
          "type": "uint256"
        },
        {
          "internalType": "uint256",
          "name": "_withdrawFee",
          "type": "uint256"
        },
        {
          "internalType": "address",
          "name": "_feeDistributor",
          "type": "address"
        }
      ],
      "name": "initialize",
      "outputs": [],
      "stateMutability": "nonpayable",
      "type": "function"
    },
    {
      "inputs": [
        {
          "internalType": "address",
          "name": "tokenIn",
          "type": "address"
        },
        {
          "internalType": "address",
          "name": "tokenOut",
          "type": "address"
        },
        {
          "internalType": "uint256",
          "name": "amountIn",
          "type": "uint256"
        },
        {
          "internalType": "uint256",
          "name": "amountOut",
          "type": "uint256"
        },
        {
          "internalType": "address",
          "name": "to",
          "type": "address"
        }
      ],
      "name": "onSwap",
      "outputs": [],
      "stateMutability": "nonpayable",
      "type": "function"
    },
    {
      "inputs": [
        {
          "internalType": "address",
          "name": "tokenIn",
          "type": "address"
        },
        {
          "internalType": "address",
          "name": "tokenOut",
          "type": "address"
        },
        {
          "internalType": "uint256",
          "name": "amountIn",
          "type": "uint256"
        },
        {
          "internalType": "uint256",
          "name": "amountOutMin",
          "type": "uint256"
        },
        {
          "internalType": "address",
          "name": "to",
          "type": "address"
        }
      ],
      "name": "onSwapGivenIn",
      "outputs": [
        {
          "internalType": "uint256",
          "name": "",
          "type": "uint256"
        }
      ],
      "stateMutability": "nonpayable",
      "type": "function"
    },
    {
      "inputs": [
        {
          "internalType": "address",
          "name": "tokenIn",
          "type": "address"
        },
        {
          "internalType": "address",
          "name": "tokenOut",
          "type": "address"
        },
        {
          "internalType": "uint256",
          "name": "amountOut",
          "type": "uint256"
        },
        {
          "internalType": "uint256",
          "name": "amountInMax",
          "type": "uint256"
        },
        {
          "internalType": "address",
          "name": "to",
          "type": "address"
        }
      ],
      "name": "onSwapGivenOut",
      "outputs": [
        {
          "internalType": "uint256",
          "name": "",
          "type": "uint256"
        }
      ],
      "stateMutability": "nonpayable",
      "type": "function"
    },
    {
      "inputs": [],
      "name": "owner",
      "outputs": [
        {
          "internalType": "address",
          "name": "",
          "type": "address"
        }
      ],
      "stateMutability": "view",
      "type": "function"
    },
    {
      "inputs": [],
      "name": "pause",
      "outputs": [],
      "stateMutability": "nonpayable",
      "type": "function"
    },
    {
      "inputs": [],
      "name": "paused",
      "outputs": [
        {
          "internalType": "bool",
          "name": "",
          "type": "bool"
        }
      ],
      "stateMutability": "view",
      "type": "function"
    },
    {
      "inputs": [
        {
          "internalType": "uint256",
          "name": "futureA",
          "type": "uint256"
        },
        {
          "internalType": "uint256",
          "name": "futureATime",
          "type": "uint256"
        }
      ],
      "name": "rampA",
      "outputs": [],
      "stateMutability": "nonpayable",
      "type": "function"
    },
    {
      "inputs": [
        {
          "internalType": "uint256",
          "name": "lpAmount",
          "type": "uint256"
        },
        {
          "internalType": "uint256[]",
          "name": "minAmounts",
          "type": "uint256[]"
        },
        {
          "internalType": "uint256",
          "name": "deadline",
          "type": "uint256"
        }
      ],
      "name": "removeLiquidity",
      "outputs": [
        {
          "internalType": "uint256[]",
          "name": "",
          "type": "uint256[]"
        }
      ],
      "stateMutability": "nonpayable",
      "type": "function"
    },
    {
      "inputs": [
        {
          "internalType": "uint256[]",
          "name": "amounts",
          "type": "uint256[]"
        },
        {
          "internalType": "uint256",
          "name": "maxBurnAmount",
          "type": "uint256"
        },
        {
          "internalType": "uint256",
          "name": "deadline",
          "type": "uint256"
        }
      ],
      "name": "removeLiquidityImbalance",
      "outputs": [
        {
          "internalType": "uint256",
          "name": "",
          "type": "uint256"
        }
      ],
      "stateMutability": "nonpayable",
      "type": "function"
    },
    {
      "inputs": [
        {
          "internalType": "uint256",
          "name": "lpAmount",
          "type": "uint256"
        },
        {
          "internalType": "uint8",
          "name": "index",
          "type": "uint8"
        },
        {
          "internalType": "uint256",
          "name": "minAmount",
          "type": "uint256"
        },
        {
          "internalType": "uint256",
          "name": "deadline",
          "type": "uint256"
        }
      ],
      "name": "removeLiquidityOneToken",
      "outputs": [
        {
          "internalType": "uint256",
          "name": "",
          "type": "uint256"
        }
      ],
      "stateMutability": "nonpayable",
      "type": "function"
    },
    {
      "inputs": [],
      "name": "renounceOwnership",
      "outputs": [],
      "stateMutability": "nonpayable",
      "type": "function"
    },
    {
      "inputs": [
        {
          "internalType": "uint256",
          "name": "newSwapFee",
          "type": "uint256"
        },
        {
          "internalType": "uint256",
          "name": "newFlashFee",
          "type": "uint256"
        },
        {
          "internalType": "uint256",
          "name": "newAdminFee",
          "type": "uint256"
        },
        {
          "internalType": "uint256",
          "name": "newWithdrawFee",
          "type": "uint256"
        }
      ],
      "name": "setFee",
      "outputs": [],
      "stateMutability": "nonpayable",
      "type": "function"
    },
    {
      "inputs": [
        {
          "internalType": "address",
          "name": "_feeController",
          "type": "address"
        }
      ],
      "name": "setFeeController",
      "outputs": [],
      "stateMutability": "nonpayable",
      "type": "function"
    },
    {
      "inputs": [
        {
          "internalType": "address",
          "name": "_feeDistributor",
          "type": "address"
        }
      ],
      "name": "setFeeDistributor",
      "outputs": [],
      "stateMutability": "nonpayable",
      "type": "function"
    },
    {
      "inputs": [],
      "name": "stopRampA",
      "outputs": [],
      "stateMutability": "nonpayable",
      "type": "function"
    },
    {
      "inputs": [],
      "name": "swapStorage",
      "outputs": [
        {
          "internalType": "contract LPToken",
          "name": "lpToken",
          "type": "address"
        },
        {
          "internalType": "uint256",
          "name": "fee",
          "type": "uint256"
        },
        {
          "internalType": "uint256",
          "name": "flashFee",
          "type": "uint256"
        },
        {
          "internalType": "uint256",
          "name": "adminFee",
          "type": "uint256"
        },
        {
          "internalType": "uint256",
          "name": "initialA",
          "type": "uint256"
        },
        {
          "internalType": "uint256",
          "name": "futureA",
          "type": "uint256"
        },
        {
          "internalType": "uint256",
          "name": "initialATime",
          "type": "uint256"
        },
        {
          "internalType": "uint256",
          "name": "futureATime",
          "type": "uint256"
        },
        {
          "internalType": "uint256",
          "name": "defaultWithdrawFee",
          "type": "uint256"
        }
      ],
      "stateMutability": "view",
      "type": "function"
    },
    {
      "inputs": [
        {
          "internalType": "address",
          "name": "",
          "type": "address"
        }
      ],
      "name": "tokenIndexes",
      "outputs": [
        {
          "internalType": "uint8",
          "name": "",
          "type": "uint8"
        }
      ],
      "stateMutability": "view",
      "type": "function"
    },
    {
      "inputs": [
        {
          "internalType": "address",
          "name": "newOwner",
          "type": "address"
        }
      ],
      "name": "transferOwnership",
      "outputs": [],
      "stateMutability": "nonpayable",
      "type": "function"
    },
    {
      "inputs": [],
      "name": "unpause",
      "outputs": [],
      "stateMutability": "nonpayable",
      "type": "function"
    },
    {
      "inputs": [
        {
          "internalType": "address",
          "name": "recipient",
          "type": "address"
        },
        {
          "internalType": "uint256",
          "name": "transferAmount",
          "type": "uint256"
        }
      ],
      "name": "updateUserWithdrawFee",
      "outputs": [],
      "stateMutability": "nonpayable",
      "type": "function"
    },
    {
      "inputs": [],
      "name": "withdrawAdminFee",
      "outputs": [],
      "stateMutability": "nonpayable",
      "type": "function"
    }
  ],
  "transactionHash": "0xb63486202aee27687d7c962e124106174da36478d175c346bb9bc90b7fbc4544",
  "args": [],
  "solcInputHash": "8290fa77de4ad21ef1293cae3f9f4a1b",
  "bytecode": "0x60806040523480156200001157600080fd5b506200001d3362000034565b6000805460ff60a01b191690556001805562000084565b600080546001600160a01b038381166001600160a01b0319831681178455604051919092169283917f8be0079c531659141344cd1fd0a4f28419497f9722a3daafe3b4186f6b6457e09190a35050565b615fc780620000946000396000f3fe60806040523480156200001157600080fd5b5060043610620002365760003560e01c80636999b3771162000142578063c00c125c11620000cc578063e25aa5fa1162000097578063e9255bae116200007a578063e9255bae14620005d2578063f2fde38b14620005e9578063fe49abe3146200060057600080fd5b8063e25aa5fa14620005b1578063e6ab280614620005bb57600080fd5b8063c00c125c1462000562578063c4db7fa01462000579578063cc56fd431462000583578063ccfc2e8d146200059a57600080fd5b806384cdd9bc116200010d57806384cdd9bc14620004fe5780638da5cb5b146200051557806398899f401462000534578063a2a957bb146200054b57600080fd5b80636999b37714620004b2578063715018a614620004d35780637c61e56114620004dd5780638456cb5914620004f457600080fd5b80633f4ba83a11620001c4578063593d132c116200018f578063593d132c14620003b85780635c38449e14620003cf5780635c975abb14620003e65780635fd65f0f146200041557600080fd5b80633f4ba83a14620003695780634a1b0d5714620003735780634ac00e03146200038a5780634d49e87d14620003a157600080fd5b806331cd52b0116200020557806331cd52b014620002fe57806332fd549314620003245780633e3a1560146200033b5780633ed4c678146200035257600080fd5b806304bc3b1c146200023b5780630d43e8ad14620002785780630e6d8bce14620002bf57806319762b7314620002e5575b600080fd5b620002616200024c36600462003a41565b60136020526000908152604090205460ff1681565b60405160ff90911681526020015b60405180910390f35b601154620002999073ffffffffffffffffffffffffffffffffffffffff1681565b60405173ffffffffffffffffffffffffffffffffffffffff90911681526020016200026f565b620002d6620002d036600462003a61565b6200060a565b6040519081526020016200026f565b620002fc620002f636600462003cff565b62000800565b005b620003156200030f36600462003e60565b620011c4565b6040516200026f919062003eb4565b620002fc6200033536600462003a61565b62001370565b620002d66200034c36600462003efa565b6200155e565b620002fc6200036336600462003a41565b62001748565b620002fc620018cb565b620002d66200038436600462003a41565b6200195a565b620002d66200039b36600462003a61565b6200196f565b620002d6620003b236600462003f38565b62001b14565b620002fc620003c936600462003f8a565b62001d17565b620002fc620003e036600462003fad565b62002149565b60005474010000000000000000000000000000000000000000900460ff1660405190151581526020016200026f565b600454600754600854600954600a54600b54600c54600d54600e54620004569873ffffffffffffffffffffffffffffffffffffffff16979695949392919089565b6040805173ffffffffffffffffffffffffffffffffffffffff909a168a5260208a0198909852968801959095526060870193909352608086019190915260a085015260c084015260e0830152610100820152610120016200026f565b601254620002999073ffffffffffffffffffffffffffffffffffffffff1681565b620002fc620022da565b62000315620004ee366004620040bb565b62002369565b620002fc62002448565b620002d66200050f36600462003f38565b620024d5565b60005473ffffffffffffffffffffffffffffffffffffffff1662000299565b620002d662000545366004620040ea565b62002695565b620002fc6200055c3660046200412d565b6200275d565b620002fc62000573366004620040bb565b62002a12565b620002fc62002b42565b620002d66200059436600462004160565b62002d15565b620002fc620005ab36600462003a41565b62002db0565b620002d662002f2d565b620002d6620005cc366004620041b5565b62002fc5565b620002d6620005e336600462004160565b62003021565b620002fc620005fa36600462003a41565b620030bc565b620002fc620031f2565b6000805474010000000000000000000000000000000000000000900460ff161562000696576040517f08c379a000000000000000000000000000000000000000000000000000000000815260206004820152601060248201527f5061757361626c653a207061757365640000000000000000000000000000000060448201526064015b60405180910390fd5b60026001540362000704576040517f08c379a000000000000000000000000000000000000000000000000000000000815260206004820152601f60248201527f5265656e7472616e637947756172643a207265656e7472616e742063616c6c0060448201526064016200068d565b600260015573ffffffffffffffffffffffffffffffffffffffff868116600090815260136020526040808220548884168352918190205490517f8e6da7b60000000000000000000000000000000000000000000000000000000081526003600482015260ff928316602482015291166044820152606481018690526084810185905290831660a482015273a82fF9aFd8f496c3d6ac40E2a0F282E47488CFc990638e6da7b69060c4015b602060405180830381865af4158015620007cc573d6000803e3d6000fd5b505050506040513d601f19601f82011682018060405250810190620007f2919062004242565b600180559695505050505050565b60005473ffffffffffffffffffffffffffffffffffffffff16331462000883576040517f08c379a000000000000000000000000000000000000000000000000000000000815260206004820181905260248201527f4f776e61626c653a2063616c6c6572206973206e6f7420746865206f776e657260448201526064016200068d565b600254610100900460ff16806200089d575060025460ff16155b6200092b576040517f08c379a000000000000000000000000000000000000000000000000000000000815260206004820152602e60248201527f496e697469616c697a61626c653a20636f6e747261637420697320616c72656160448201527f647920696e697469616c697a656400000000000000000000000000000000000060648201526084016200068d565b600254610100900460ff161580156200096b57600280547fffffffffffffffffffffffffffffffffffffffffffffffffffffffffffff0000166101011790555b89518b51146040518060400160405280600581526020017f617272617900000000000000000000000000000000000000000000000000000081525090620009e1576040517f08c379a00000000000000000000000000000000000000000000000000000000081526004016200068d9190620042d7565b5060408051808201909152600781527f6164647265737300000000000000000000000000000000000000000000000000602082015273ffffffffffffffffffffffffffffffffffffffff831662000a67576040517f08c379a00000000000000000000000000000000000000000000000000000000081526004016200068d9190620042d7565b508a5160008167ffffffffffffffff81111562000a885762000a8862003ac7565b60405190808252806020026020018201604052801562000ab2578160200160208202803683370190505b50905060008267ffffffffffffffff81111562000ad35762000ad362003ac7565b60405190808252806020026020018201604052801562000afd578160200160208202803683370190505b50905060005b8381101562000db357600073ffffffffffffffffffffffffffffffffffffffff168f828151811062000b395762000b39620042ec565b602002602001015173ffffffffffffffffffffffffffffffffffffffff1614156040518060400160405280600781526020017f61646472657373000000000000000000000000000000000000000000000000008152509062000bca576040517f08c379a00000000000000000000000000000000000000000000000000000000081526004016200068d9190620042d7565b5060128e828151811062000be25762000be2620042ec565b602002602001015160ff1611156040518060400160405280600181526020017f70000000000000000000000000000000000000000000000000000000000000008152509062000c60576040517f08c379a00000000000000000000000000000000000000000000000000000000081526004016200068d9190620042d7565b508d818151811062000c765762000c76620042ec565b602002602001015160ff16601262000c8f91906200434a565b62000c9c90600a6200449d565b83828151811062000cb15762000cb1620042ec565b6020026020010181815250508e818151811062000cd25762000cd2620042ec565b602002602001015182828151811062000cef5762000cef620042ec565b602002602001019073ffffffffffffffffffffffffffffffffffffffff16908173ffffffffffffffffffffffffffffffffffffffff1681525050806013600084848151811062000d435762000d43620042ec565b602002602001015173ffffffffffffffffffffffffffffffffffffffff1673ffffffffffffffffffffffffffffffffffffffff16815260200190815260200160002060006101000a81548160ff021916908360ff160217905550808062000daa90620044ab565b91505062000b03565b5060408051808201909152600181527f70000000000000000000000000000000000000000000000000000000000000006020820152620f42408b1062000e28576040517f08c379a00000000000000000000000000000000000000000000000000000000081526004016200068d9190620042d7565b5060408051808201909152600381527f666565000000000000000000000000000000000000000000000000000000000060208201526305f5e1008a111562000e9f576040517f08c379a00000000000000000000000000000000000000000000000000000000081526004016200068d9190620042d7565b5060408051808201909152600381527f666565000000000000000000000000000000000000000000000000000000000060208201526305f5e10089111562000f16576040517f08c379a00000000000000000000000000000000000000000000000000000000081526004016200068d9190620042d7565b5060408051808201909152600381527f666565000000000000000000000000000000000000000000000000000000000060208201526402540be40088111562000f8e576040517f08c379a00000000000000000000000000000000000000000000000000000000081526004016200068d9190620042d7565b5060408051808201909152600381527f666565000000000000000000000000000000000000000000000000000000000060208201526305f5e10087111562001005576040517f08c379a00000000000000000000000000000000000000000000000000000000081526004016200068d9190620042d7565b508b8b60405162001016906200391a565b62001023929190620044e6565b604051809103906000f08015801562001040573d6000803e3d6000fd5b50600480547fffffffffffffffffffffffff00000000000000000000000000000000000000001673ffffffffffffffffffffffffffffffffffffffff929092169190911790558267ffffffffffffffff811115620010a257620010a262003ac7565b604051908082528060200260200182016040528015620010cc578160200160208202803683370190505b508051620010e39160069160209091019062003928565b508151620010f990600590602085019062003928565b5080516200110f90600390602084019062003978565b506200111d60648b62004518565b600a556200112d60648b62004518565b600b55505050600786905560088590556009849055600e839055601180547fffffffffffffffffffffffff00000000000000000000000000000000000000001673ffffffffffffffffffffffffffffffffffffffff84161790558015620011b757600280547fffffffffffffffffffffffffffffffffffffffffffffffffffffffffffff00ff1690555b5050505050505050505050565b606060026001540362001234576040517f08c379a000000000000000000000000000000000000000000000000000000000815260206004820152601f60248201527f5265656e7472616e637947756172643a207265656e7472616e742063616c6c0060448201526064016200068d565b60026001558142811015620012a6576040517f08c379a000000000000000000000000000000000000000000000000000000000815260206004820152600760248201527f74696d656f75740000000000000000000000000000000000000000000000000060448201526064016200068d565b6040517fc685696c00000000000000000000000000000000000000000000000000000000815273a82fF9aFd8f496c3d6ac40E2a0F282E47488CFc99063c685696c90620012fd906003908990899060040162004595565b600060405180830381865af41580156200131b573d6000803e3d6000fd5b505050506040513d6000823e601f3d9081017fffffffffffffffffffffffffffffffffffffffffffffffffffffffffffffffe0168201604052620013639190810190620045b6565b6001805595945050505050565b60005474010000000000000000000000000000000000000000900460ff1615620013f7576040517f08c379a000000000000000000000000000000000000000000000000000000000815260206004820152601060248201527f5061757361626c653a207061757365640000000000000000000000000000000060448201526064016200068d565b60026001540362001465576040517f08c379a000000000000000000000000000000000000000000000000000000000815260206004820152601f60248201527f5265656e7472616e637947756172643a207265656e7472616e742063616c6c0060448201526064016200068d565b600260015573ffffffffffffffffffffffffffffffffffffffff858116600090815260136020526040808220548784168352918190205490517fce055b8d0000000000000000000000000000000000000000000000000000000081526003600482015260ff928316602482015291166044820152606481018590526084810184905290821660a482015273a82fF9aFd8f496c3d6ac40E2a0F282E47488CFc99063ce055b8d9060c401602060405180830381865af41580156200152c573d6000803e3d6000fd5b505050506040513d601f19601f8201168201806040525081019062001552919062004242565b50506001805550505050565b6000600260015403620015ce576040517f08c379a000000000000000000000000000000000000000000000000000000000815260206004820152601f60248201527f5265656e7472616e637947756172643a207265656e7472616e742063616c6c0060448201526064016200068d565b600260015560005474010000000000000000000000000000000000000000900460ff16156200165a576040517f08c379a000000000000000000000000000000000000000000000000000000000815260206004820152601060248201527f5061757361626c653a207061757365640000000000000000000000000000000060448201526064016200068d565b8180421115620016c7576040517f08c379a000000000000000000000000000000000000000000000000000000000815260206004820152600760248201527f74696d656f75740000000000000000000000000000000000000000000000000060448201526064016200068d565b6040517f2bfe30d0000000000000000000000000000000000000000000000000000000008152600360048201526024810187905260ff861660448201526064810185905273a82fF9aFd8f496c3d6ac40E2a0F282E47488CFc990632bfe30d090608401602060405180830381865af4158015620007cc573d6000803e3d6000fd5b60005473ffffffffffffffffffffffffffffffffffffffff163314620017cb576040517f08c379a000000000000000000000000000000000000000000000000000000000815260206004820181905260248201527f4f776e61626c653a2063616c6c6572206973206e6f7420746865206f776e657260448201526064016200068d565b60408051808201909152600781527f6164647265737300000000000000000000000000000000000000000000000000602082015273ffffffffffffffffffffffffffffffffffffffff821662001850576040517f08c379a00000000000000000000000000000000000000000000000000000000081526004016200068d9190620042d7565b50601280547fffffffffffffffffffffffff00000000000000000000000000000000000000001673ffffffffffffffffffffffffffffffffffffffff83169081179091556040519081527f4c3f3b9852ccceadd50f16518f348e2624c8f0240acdd5bc81911c0fba83ec67906020015b60405180910390a150565b60005473ffffffffffffffffffffffffffffffffffffffff1633146200194e576040517f08c379a000000000000000000000000000000000000000000000000000000000815260206004820181905260248201527f4f776e61626c653a2063616c6c6572206973206e6f7420746865206f776e657260448201526064016200068d565b6200195862003441565b565b6000620019696003836200353c565b92915050565b6000805474010000000000000000000000000000000000000000900460ff1615620019f7576040517f08c379a000000000000000000000000000000000000000000000000000000000815260206004820152601060248201527f5061757361626c653a207061757365640000000000000000000000000000000060448201526064016200068d565b60026001540362001a65576040517f08c379a000000000000000000000000000000000000000000000000000000000815260206004820152601f60248201527f5265656e7472616e637947756172643a207265656e7472616e742063616c6c0060448201526064016200068d565b600260015573ffffffffffffffffffffffffffffffffffffffff868116600090815260136020526040808220548884168352918190205490517f0da350f60000000000000000000000000000000000000000000000000000000081526003600482015260ff928316602482015291166044820152606481018690526084810185905290831660a482015273a82fF9aFd8f496c3d6ac40E2a0F282E47488CFc990630da350f69060c401620007ae565b6000805474010000000000000000000000000000000000000000900460ff161562001b9c576040517f08c379a000000000000000000000000000000000000000000000000000000000815260206004820152601060248201527f5061757361626c653a207061757365640000000000000000000000000000000060448201526064016200068d565b60026001540362001c0a576040517f08c379a000000000000000000000000000000000000000000000000000000000815260206004820152601f60248201527f5265656e7472616e637947756172643a207265656e7472616e742063616c6c0060448201526064016200068d565b6002600155814281101562001c7c576040517f08c379a000000000000000000000000000000000000000000000000000000000815260206004820152600760248201527f74696d656f75740000000000000000000000000000000000000000000000000060448201526064016200068d565b6040517f7a6cba3c00000000000000000000000000000000000000000000000000000000815273a82fF9aFd8f496c3d6ac40E2a0F282E47488CFc990637a6cba3c9062001cd3906003908990899060040162004650565b602060405180830381865af415801562001cf1573d6000803e3d6000fd5b505050506040513d601f19601f8201168201806040525081019062001363919062004242565b60005473ffffffffffffffffffffffffffffffffffffffff16331462001d9a576040517f08c379a000000000000000000000000000000000000000000000000000000000815260206004820181905260248201527f4f776e61626c653a2063616c6c6572206973206e6f7420746865206f776e657260448201526064016200068d565b600c5462001dac90620151806200467b565b4210156040518060400160405280600181526020017f70000000000000000000000000000000000000000000000000000000000000008152509062001e20576040517f08c379a00000000000000000000000000000000000000000000000000000000081526004016200068d9190620042d7565b5062001e3062015180426200467b565b8110156040518060400160405280600181526020017f70000000000000000000000000000000000000000000000000000000000000008152509062001ea4576040517f08c379a00000000000000000000000000000000000000000000000000000000081526004016200068d9190620042d7565b5081600010801562001eb85750620f424082105b6040518060400160405280600581526020017f61727261790000000000000000000000000000000000000000000000000000008152509062001f29576040517f08c379a00000000000000000000000000000000000000000000000000000000081526004016200068d9190620042d7565b506040517fa30355850000000000000000000000000000000000000000000000000000000081526003600482015260009073a82fF9aFd8f496c3d6ac40E2a0F282E47488CFc99063a303558590602401602060405180830381865af415801562001f97573d6000803e3d6000fd5b505050506040513d601f19601f8201168201806040525081019062001fbd919062004242565b9050600062001fce60648562004518565b90508181101562002061578162001fe7600a8362004518565b10156040518060400160405280600181526020017f7000000000000000000000000000000000000000000000000000000000000000815250906200205a576040517f08c379a00000000000000000000000000000000000000000000000000000000081526004016200068d9190620042d7565b50620020e4565b6200206e600a8362004518565b8111156040518060400160405280600181526020017f700000000000000000000000000000000000000000000000000000000000000081525090620020e2576040517f08c379a00000000000000000000000000000000000000000000000000000000081526004016200068d9190620042d7565b505b600a829055600b81905542600c819055600d849055604080518481526020810184905290810191909152606081018490527fa2b71ec6df949300b59aab36b55e189697b750119dd349fcfa8c0f779e83c254906080015b60405180910390a150505050565b600260015403620021b7576040517f08c379a000000000000000000000000000000000000000000000000000000000815260206004820152601f60248201527f5265656e7472616e637947756172643a207265656e7472616e742063616c6c0060448201526064016200068d565b600260015560005474010000000000000000000000000000000000000000900460ff161562002243576040517f08c379a000000000000000000000000000000000000000000000000000000000815260206004820152601060248201527f5061757361626c653a207061757365640000000000000000000000000000000060448201526064016200068d565b6040517fc823250100000000000000000000000000000000000000000000000000000000815273a82fF9aFd8f496c3d6ac40E2a0F282E47488CFc99063c8232501906200229e90600390889088908890889060040162004696565b60006040518083038186803b158015620022b757600080fd5b505af4158015620022cc573d6000803e3d6000fd5b505060018055505050505050565b60005473ffffffffffffffffffffffffffffffffffffffff1633146200235d576040517f08c379a000000000000000000000000000000000000000000000000000000000815260206004820181905260248201527f4f776e61626c653a2063616c6c6572206973206e6f7420746865206f776e657260448201526064016200068d565b62001958600062003610565b6040517ffa5635970000000000000000000000000000000000000000000000000000000081526003600482015273ffffffffffffffffffffffffffffffffffffffff831660248201526044810182905260609073a82fF9aFd8f496c3d6ac40E2a0F282E47488CFc99063fa56359790606401600060405180830381865af4158015620023f9573d6000803e3d6000fd5b505050506040513d6000823e601f3d9081017fffffffffffffffffffffffffffffffffffffffffffffffffffffffffffffffe0168201604052620024419190810190620045b6565b9392505050565b60005473ffffffffffffffffffffffffffffffffffffffff163314620024cb576040517f08c379a000000000000000000000000000000000000000000000000000000000815260206004820181905260248201527f4f776e61626c653a2063616c6c6572206973206e6f7420746865206f776e657260448201526064016200068d565b6200195862003685565b600060026001540362002545576040517f08c379a000000000000000000000000000000000000000000000000000000000815260206004820152601f60248201527f5265656e7472616e637947756172643a207265656e7472616e742063616c6c0060448201526064016200068d565b600260015560005474010000000000000000000000000000000000000000900460ff1615620025d1576040517f08c379a000000000000000000000000000000000000000000000000000000000815260206004820152601060248201527f5061757361626c653a207061757365640000000000000000000000000000000060448201526064016200068d565b81804211156200263e576040517f08c379a000000000000000000000000000000000000000000000000000000000815260206004820152600760248201527f74696d656f75740000000000000000000000000000000000000000000000000060448201526064016200068d565b6040517fc8344c0600000000000000000000000000000000000000000000000000000000815273a82fF9aFd8f496c3d6ac40E2a0F282E47488CFc99063c8344c069062001cd3906003908990899060040162004650565b6040517f159763bb0000000000000000000000000000000000000000000000000000000081526003600482015273ffffffffffffffffffffffffffffffffffffffff841660248201526044810183905260ff8216606482015260009073a82fF9aFd8f496c3d6ac40E2a0F282E47488CFc99063159763bb906084015b602060405180830381865af41580156200272f573d6000803e3d6000fd5b505050506040513d601f19601f8201168201806040525081019062002755919062004242565b949350505050565b60005473ffffffffffffffffffffffffffffffffffffffff163314620027e0576040517f08c379a000000000000000000000000000000000000000000000000000000000815260206004820181905260248201527f4f776e61626c653a2063616c6c6572206973206e6f7420746865206f776e657260448201526064016200068d565b60408051808201909152600381527f666565000000000000000000000000000000000000000000000000000000000060208201526305f5e10085111562002856576040517f08c379a00000000000000000000000000000000000000000000000000000000081526004016200068d9190620042d7565b5060408051808201909152600381527f666565000000000000000000000000000000000000000000000000000000000060208201526305f5e100841115620028cd576040517f08c379a00000000000000000000000000000000000000000000000000000000081526004016200068d9190620042d7565b5060408051808201909152600381527f666565000000000000000000000000000000000000000000000000000000000060208201526402540be40083111562002945576040517f08c379a00000000000000000000000000000000000000000000000000000000081526004016200068d9190620042d7565b5060408051808201909152600381527f666565000000000000000000000000000000000000000000000000000000000060208201526305f5e100821115620029bc576040517f08c379a00000000000000000000000000000000000000000000000000000000081526004016200068d9190620042d7565b5060098290556007849055600e8190556040805185815260208101859052908101839052606081018290527f0272af61e59abaa206f4d3d15474b045c5fdbad2379f620b67074e9b13bfaad1906080016200213b565b60045460408051808201909152600781527f616464726573730000000000000000000000000000000000000000000000000060208201529073ffffffffffffffffffffffffffffffffffffffff16331462002a9c576040517f08c379a00000000000000000000000000000000000000000000000000000000081526004016200068d9190620042d7565b506040517fc188e4be0000000000000000000000000000000000000000000000000000000081526003600482015273ffffffffffffffffffffffffffffffffffffffff831660248201526044810182905273a82fF9aFd8f496c3d6ac40E2a0F282E47488CFc99063c188e4be9060640160006040518083038186803b15801562002b2557600080fd5b505af415801562002b3a573d6000803e3d6000fd5b505050505050565b60005473ffffffffffffffffffffffffffffffffffffffff16331462002bc5576040517f08c379a000000000000000000000000000000000000000000000000000000000815260206004820181905260248201527f4f776e61626c653a2063616c6c6572206973206e6f7420746865206f776e657260448201526064016200068d565b600d54421062002c32576040517f08c379a000000000000000000000000000000000000000000000000000000000815260206004820152600e60248201527f616c726561647953746f7070656400000000000000000000000000000000000060448201526064016200068d565b6040517fa30355850000000000000000000000000000000000000000000000000000000081526003600482015260009073a82fF9aFd8f496c3d6ac40E2a0F282E47488CFc99063a303558590602401602060405180830381865af415801562002c9f573d6000803e3d6000fd5b505050506040513d601f19601f8201168201806040525081019062002cc5919062004242565b600a819055600b81905542600c819055600d8190556040519192507f46e22fb3709ad289f62ce63d469248536dbc78d82b84a3d7e74ad606dc20193891620018c091848252602082015260400190565b73ffffffffffffffffffffffffffffffffffffffff8381166000908152601360205260408082205492851682528082205490517faa054aee0000000000000000000000000000000000000000000000000000000081526003600482015260ff938416602482015292166044830152606482018390529073a82fF9aFd8f496c3d6ac40E2a0F282E47488CFc99063aa054aee9060840162002711565b60005473ffffffffffffffffffffffffffffffffffffffff16331462002e33576040517f08c379a000000000000000000000000000000000000000000000000000000000815260206004820181905260248201527f4f776e61626c653a2063616c6c6572206973206e6f7420746865206f776e657260448201526064016200068d565b60408051808201909152600781527f6164647265737300000000000000000000000000000000000000000000000000602082015273ffffffffffffffffffffffffffffffffffffffff821662002eb8576040517f08c379a00000000000000000000000000000000000000000000000000000000081526004016200068d9190620042d7565b50601180547fffffffffffffffffffffffff00000000000000000000000000000000000000001673ffffffffffffffffffffffffffffffffffffffff83169081179091556040519081527fae5a12c29e496b092467a620746b9eaf4e0e231a631a4370c233b1fac38e8e2690602001620018c0565b6040517fd36604ac0000000000000000000000000000000000000000000000000000000081526003600482015260009073a82fF9aFd8f496c3d6ac40E2a0F282E47488CFc99063d36604ac90602401602060405180830381865af415801562002f9a573d6000803e3d6000fd5b505050506040513d601f19601f8201168201806040525081019062002fc0919062004242565b905090565b6040517f1e7e95d300000000000000000000000000000000000000000000000000000000815260009073a82fF9aFd8f496c3d6ac40E2a0F282E47488CFc990631e7e95d390620027119060039088908890889060040162004733565b73ffffffffffffffffffffffffffffffffffffffff8381166000908152601360205260408082205492851682528082205490517fba2998d90000000000000000000000000000000000000000000000000000000081526003600482015260ff938416602482015292166044830152606482018390529073a82fF9aFd8f496c3d6ac40E2a0F282E47488CFc99063ba2998d99060840162002711565b60005473ffffffffffffffffffffffffffffffffffffffff1633146200313f576040517f08c379a000000000000000000000000000000000000000000000000000000000815260206004820181905260248201527f4f776e61626c653a2063616c6c6572206973206e6f7420746865206f776e657260448201526064016200068d565b73ffffffffffffffffffffffffffffffffffffffff8116620031e4576040517f08c379a000000000000000000000000000000000000000000000000000000000815260206004820152602660248201527f4f776e61626c653a206e6577206f776e657220697320746865207a65726f206160448201527f646472657373000000000000000000000000000000000000000000000000000060648201526084016200068d565b620031ef8162003610565b50565b60125473ffffffffffffffffffffffffffffffffffffffff1633148062003230575060005473ffffffffffffffffffffffffffffffffffffffff1633145b62003298576040517f08c379a000000000000000000000000000000000000000000000000000000000815260206004820152600e60248201527f21666565436f6e74726f6c6c657200000000000000000000000000000000000060448201526064016200068d565b60005b600354811015620031ef57600060036000018281548110620032c157620032c1620042ec565b60009182526020822001546006805473ffffffffffffffffffffffffffffffffffffffff90921693509084908110620032fe57620032fe620042ec565b6000918252602090912001546040517f70a0823100000000000000000000000000000000000000000000000000000000815230600482015273ffffffffffffffffffffffffffffffffffffffff8416906370a0823190602401602060405180830381865afa15801562003375573d6000803e3d6000fd5b505050506040513d601f19601f820116820180604052508101906200339b919062004242565b620033a791906200434a565b905080156200342957601154620033d99073ffffffffffffffffffffffffffffffffffffffff84811691168362003774565b6040805173ffffffffffffffffffffffffffffffffffffffff84168152602081018390527fee3859efa95e525bc2bcb149b51b60a8bb4e89c647392d9d4112e03c3e73bdd6910160405180910390a15b505080806200343890620044ab565b9150506200329b565b60005474010000000000000000000000000000000000000000900460ff16620034c7576040517f08c379a000000000000000000000000000000000000000000000000000000000815260206004820152601460248201527f5061757361626c653a206e6f742070617573656400000000000000000000000060448201526064016200068d565b600080547fffffffffffffffffffffff00ffffffffffffffffffffffffffffffffffffffff1690557f5db9ee0a495bf2e6ff9c91a7834c1ba4fdd244a5e8aa4e537bd38aeae4b073aa335b60405173ffffffffffffffffffffffffffffffffffffffff909116815260200160405180910390a1565b73ffffffffffffffffffffffffffffffffffffffff81166000908152600c83016020526040812054819062003575906224ea006200467b565b905042811115620036065760006200358e42836200434a565b73ffffffffffffffffffffffffffffffffffffffff85166000908152600d87016020526040902054600b8701549192506402540be400916224ea00918491620035d8919062004518565b620035e4919062004518565b620035f091906200479d565b620035fc91906200479d565b9250505062001969565b5060009392505050565b6000805473ffffffffffffffffffffffffffffffffffffffff8381167fffffffffffffffffffffffff0000000000000000000000000000000000000000831681178455604051919092169283917f8be0079c531659141344cd1fd0a4f28419497f9722a3daafe3b4186f6b6457e09190a35050565b60005474010000000000000000000000000000000000000000900460ff16156200370c576040517f08c379a000000000000000000000000000000000000000000000000000000000815260206004820152601060248201527f5061757361626c653a207061757365640000000000000000000000000000000060448201526064016200068d565b600080547fffffffffffffffffffffff00ffffffffffffffffffffffffffffffffffffffff16740100000000000000000000000000000000000000001790557f62e78cea01bee320cd4e420270b5ea74000d11b0c9f74754ebdbfc544b05a258620035123390565b6040805173ffffffffffffffffffffffffffffffffffffffff8416602482015260448082018490528251808303909101815260649091019091526020810180517bffffffffffffffffffffffffffffffffffffffffffffffffffffffff167fa9059cbb000000000000000000000000000000000000000000000000000000001790526200380390849062003808565b505050565b6000808373ffffffffffffffffffffffffffffffffffffffff1683604051620038329190620047d9565b6000604051808303816000865af19150503d806000811462003871576040519150601f19603f3d011682016040523d82523d6000602084013e62003876565b606091505b509092509050816200388c573d6000803e3d6000fd5b80511580620038ac575080806020019051810190620038ac9190620047f7565b62003914576040517f08c379a000000000000000000000000000000000000000000000000000000000815260206004820152601660248201527f534146455f45524332305f43414c4c5f4641494c45440000000000000000000060448201526064016200068d565b50505050565b61177a806200481883390190565b82805482825590600052602060002090810192821562003966579160200282015b828111156200396657825182559160200191906001019062003949565b5062003974929150620039f5565b5090565b82805482825590600052602060002090810192821562003966579160200282015b828111156200396657825182547fffffffffffffffffffffffff00000000000000000000000000000000000000001673ffffffffffffffffffffffffffffffffffffffff90911617825560209092019160019091019062003999565b5b80821115620039745760008155600101620039f6565b73ffffffffffffffffffffffffffffffffffffffff81168114620031ef57600080fd5b803562003a3c8162003a0c565b919050565b60006020828403121562003a5457600080fd5b8135620024418162003a0c565b600080600080600060a0868803121562003a7a57600080fd5b853562003a878162003a0c565b9450602086013562003a998162003a0c565b93506040860135925060608601359150608086013562003ab98162003a0c565b809150509295509295909350565b7f4e487b7100000000000000000000000000000000000000000000000000000000600052604160045260246000fd5b604051601f82017fffffffffffffffffffffffffffffffffffffffffffffffffffffffffffffffe016810167ffffffffffffffff8111828210171562003b405762003b4062003ac7565b604052919050565b600067ffffffffffffffff82111562003b655762003b6562003ac7565b5060051b60200190565b600082601f83011262003b8157600080fd5b8135602062003b9a62003b948362003b48565b62003af6565b82815260059290921b8401810191818101908684111562003bba57600080fd5b8286015b8481101562003be257803562003bd48162003a0c565b835291830191830162003bbe565b509695505050505050565b803560ff8116811462003a3c57600080fd5b600082601f83011262003c1157600080fd5b8135602062003c2462003b948362003b48565b82815260059290921b8401810191818101908684111562003c4457600080fd5b8286015b8481101562003be25762003c5c8162003bed565b835291830191830162003c48565b600082601f83011262003c7c57600080fd5b813567ffffffffffffffff81111562003c995762003c9962003ac7565b62003ccc60207fffffffffffffffffffffffffffffffffffffffffffffffffffffffffffffffe0601f8401160162003af6565b81815284602083860101111562003ce257600080fd5b816020850160208301376000918101602001919091529392505050565b6000806000806000806000806000806101408b8d03121562003d2057600080fd5b8a3567ffffffffffffffff8082111562003d3957600080fd5b62003d478e838f0162003b6f565b9b5060208d013591508082111562003d5e57600080fd5b62003d6c8e838f0162003bff565b9a5060408d013591508082111562003d8357600080fd5b62003d918e838f0162003c6a565b995060608d013591508082111562003da857600080fd5b5062003db78d828e0162003c6a565b97505060808b0135955060a08b0135945060c08b0135935060e08b013592506101008b0135915062003ded6101208c0162003a2f565b90509295989b9194979a5092959850565b600082601f83011262003e1057600080fd5b8135602062003e2362003b948362003b48565b82815260059290921b8401810191818101908684111562003e4357600080fd5b8286015b8481101562003be2578035835291830191830162003e47565b60008060006060848603121562003e7657600080fd5b83359250602084013567ffffffffffffffff81111562003e9557600080fd5b62003ea38682870162003dfe565b925050604084013590509250925092565b6020808252825182820181905260009190848201906040850190845b8181101562003eee5783518352928401929184019160010162003ed0565b50909695505050505050565b6000806000806080858703121562003f1157600080fd5b8435935062003f236020860162003bed565b93969395505050506040820135916060013590565b60008060006060848603121562003f4e57600080fd5b833567ffffffffffffffff81111562003f6657600080fd5b62003f748682870162003dfe565b9660208601359650604090950135949350505050565b6000806040838503121562003f9e57600080fd5b50508035926020909101359150565b6000806000806080858703121562003fc457600080fd5b843562003fd18162003a0c565b935060208581013567ffffffffffffffff8082111562003ff057600080fd5b818801915088601f8301126200400557600080fd5b81356200401662003b948262003b48565b81815260059190911b8301840190848101908b8311156200403657600080fd5b938501935b8285101562004061578435620040518162003a0c565b825293850193908501906200403b565b9750505060408801359250808311156200407a57600080fd5b6200408889848a0162003dfe565b945060608801359250808311156200409f57600080fd5b5050620040af8782880162003c6a565b91505092959194509250565b60008060408385031215620040cf57600080fd5b8235620040dc8162003a0c565b946020939093013593505050565b6000806000606084860312156200410057600080fd5b83356200410d8162003a0c565b925060208401359150620041246040850162003bed565b90509250925092565b600080600080608085870312156200414457600080fd5b5050823594602084013594506040840135936060013592509050565b6000806000606084860312156200417657600080fd5b8335620041838162003a0c565b92506020840135620041958162003a0c565b929592945050506040919091013590565b8015158114620031ef57600080fd5b600080600060408486031215620041cb57600080fd5b833567ffffffffffffffff80821115620041e457600080fd5b818601915086601f830112620041f957600080fd5b8135818111156200420957600080fd5b8760208260051b85010111156200421f57600080fd5b602092830195509350508401356200423781620041a6565b809150509250925092565b6000602082840312156200425557600080fd5b5051919050565b60005b83811015620042795781810151838201526020016200425f565b83811115620039145750506000910152565b60008151808452620042a58160208601602086016200425c565b601f017fffffffffffffffffffffffffffffffffffffffffffffffffffffffffffffffe0169290920160200192915050565b6020815260006200244160208301846200428b565b7f4e487b7100000000000000000000000000000000000000000000000000000000600052603260045260246000fd5b7f4e487b7100000000000000000000000000000000000000000000000000000000600052601160045260246000fd5b6000828210156200435f576200435f6200431b565b500390565b600181815b80851115620043c357817fffffffffffffffffffffffffffffffffffffffffffffffffffffffffffffffff04821115620043a757620043a76200431b565b80851615620043b557918102915b93841c939080029062004369565b509250929050565b600082620043dc5750600162001969565b81620043eb5750600062001969565b81600181146200440457600281146200440f576200442f565b600191505062001969565b60ff8411156200442357620044236200431b565b50506001821b62001969565b5060208310610133831016604e8410600b841016171562004454575081810a62001969565b62004460838362004364565b807fffffffffffffffffffffffffffffffffffffffffffffffffffffffffffffffff048211156200449557620044956200431b565b029392505050565b6000620024418383620043cb565b60007fffffffffffffffffffffffffffffffffffffffffffffffffffffffffffffffff8203620044df57620044df6200431b565b5060010190565b604081526000620044fb60408301856200428b565b82810360208401526200450f81856200428b565b95945050505050565b6000817fffffffffffffffffffffffffffffffffffffffffffffffffffffffffffffffff04831182151516156200455357620045536200431b565b500290565b600081518084526020808501945080840160005b838110156200458a578151875295820195908201906001016200456c565b509495945050505050565b8381528260208201526060604082015260006200450f606083018462004558565b60006020808385031215620045ca57600080fd5b825167ffffffffffffffff811115620045e257600080fd5b8301601f81018513620045f457600080fd5b80516200460562003b948262003b48565b81815260059190911b820183019083810190878311156200462557600080fd5b928401925b8284101562004645578351825292840192908401906200462a565b979650505050505050565b8381526060602082015260006200466b606083018562004558565b9050826040830152949350505050565b600082198211156200469157620046916200431b565b500190565b600060a08201878352602073ffffffffffffffffffffffffffffffffffffffff8089168286015260a0604086015282885180855260c087019150838a01945060005b81811015620046f8578551841683529484019491840191600101620046d8565b505085810360608701526200470e818962004558565b935050505082810360808401526200472781856200428b565b98975050505050505050565b8481526060602082015282606082015260007f07ffffffffffffffffffffffffffffffffffffffffffffffffffffffffffffff8411156200477357600080fd5b8360051b808660808501376000908301608001908152921515604090920191909152509392505050565b600082620047d4577f4e487b7100000000000000000000000000000000000000000000000000000000600052601260045260246000fd5b500490565b60008251620047ed8184602087016200425c565b9190910192915050565b6000602082840312156200480a57600080fd5b81516200244181620041a656fe60806040523480156200001157600080fd5b506040516200177a3803806200177a833981016040819052620000349162000256565b8181620000413362000093565b815162000056906004906020850190620000e3565b5080516200006c906005906020840190620000e3565b50506006805433610100026001600160a81b031990911617601217905550620002fc915050565b600080546001600160a01b038381166001600160a01b0319831681178455604051919092169283917f8be0079c531659141344cd1fd0a4f28419497f9722a3daafe3b4186f6b6457e09190a35050565b828054620000f190620002c0565b90600052602060002090601f01602090048101928262000115576000855562000160565b82601f106200013057805160ff191683800117855562000160565b8280016001018555821562000160579182015b828111156200016057825182559160200191906001019062000143565b506200016e92915062000172565b5090565b5b808211156200016e576000815560010162000173565b634e487b7160e01b600052604160045260246000fd5b600082601f830112620001b157600080fd5b81516001600160401b0380821115620001ce57620001ce62000189565b604051601f8301601f19908116603f01168101908282118183101715620001f957620001f962000189565b816040528381526020925086838588010111156200021657600080fd5b600091505b838210156200023a57858201830151818301840152908201906200021b565b838211156200024c5760008385830101525b9695505050505050565b600080604083850312156200026a57600080fd5b82516001600160401b03808211156200028257600080fd5b62000290868387016200019f565b93506020850151915080821115620002a757600080fd5b50620002b6858286016200019f565b9150509250929050565b600181811c90821680620002d557607f821691505b602082108103620002f657634e487b7160e01b600052602260045260246000fd5b50919050565b61146e806200030c6000396000f3fe608060405234801561001057600080fd5b50600436106101365760003560e01c8063715018a6116100b257806395d89b4111610081578063a9059cbb11610066578063a9059cbb146102bf578063dd62ed3e146102d2578063f2fde38b1461031857600080fd5b806395d89b41146102a4578063a457c2d7146102ac57600080fd5b8063715018a61461022157806379cc6790146102295780638119c0651461023c5780638da5cb5b1461028657600080fd5b8063313ce5671161010957806340c10f19116100ee57806340c10f19146101c357806342966c68146101d857806370a08231146101eb57600080fd5b8063313ce567146101a157806339509351146101b057600080fd5b806306fdde031461013b578063095ea7b31461015957806318160ddd1461017c57806323b872dd1461018e575b600080fd5b61014361032b565b6040516101509190611217565b60405180910390f35b61016c6101673660046112b3565b6103bd565b6040519015158152602001610150565b6003545b604051908152602001610150565b61016c61019c3660046112dd565b6103d3565b60405160128152602001610150565b61016c6101be3660046112b3565b6104be565b6101d66101d13660046112b3565b610507565b005b6101d66101e6366004611319565b610600565b6101806101f9366004611332565b73ffffffffffffffffffffffffffffffffffffffff1660009081526001602052604090205490565b6101d661060d565b6101d66102373660046112b3565b61069a565b60065461026190610100900473ffffffffffffffffffffffffffffffffffffffff1681565b60405173ffffffffffffffffffffffffffffffffffffffff9091168152602001610150565b60005473ffffffffffffffffffffffffffffffffffffffff16610261565b610143610753565b61016c6102ba3660046112b3565b610762565b61016c6102cd3660046112b3565b61083a565b6101806102e0366004611354565b73ffffffffffffffffffffffffffffffffffffffff918216600090815260026020908152604080832093909416825291909152205490565b6101d6610326366004611332565b610847565b60606004805461033a90611387565b80601f016020809104026020016040519081016040528092919081815260200182805461036690611387565b80156103b35780601f10610388576101008083540402835291602001916103b3565b820191906000526020600020905b81548152906001019060200180831161039657829003601f168201915b5050505050905090565b60006103ca338484610974565b50600192915050565b60006103e0848484610b27565b73ffffffffffffffffffffffffffffffffffffffff84166000908152600260209081526040808320338452909152902054828110156104a6576040517f08c379a000000000000000000000000000000000000000000000000000000000815260206004820152602860248201527f45524332303a207472616e7366657220616d6f756e742065786365656473206160448201527f6c6c6f77616e636500000000000000000000000000000000000000000000000060648201526084015b60405180910390fd5b6104b38533858403610974565b506001949350505050565b33600081815260026020908152604080832073ffffffffffffffffffffffffffffffffffffffff8716845290915281205490916103ca918590610502908690611409565b610974565b60005473ffffffffffffffffffffffffffffffffffffffff163314610588576040517f08c379a000000000000000000000000000000000000000000000000000000000815260206004820181905260248201527f4f776e61626c653a2063616c6c6572206973206e6f7420746865206f776e6572604482015260640161049d565b600081116105f2576040517f08c379a000000000000000000000000000000000000000000000000000000000815260206004820152600e60248201527f7a65726f4d696e74416d6f756e74000000000000000000000000000000000000604482015260640161049d565b6105fc8282610de6565b5050565b61060a3382610f12565b50565b60005473ffffffffffffffffffffffffffffffffffffffff16331461068e576040517f08c379a000000000000000000000000000000000000000000000000000000000815260206004820181905260248201527f4f776e61626c653a2063616c6c6572206973206e6f7420746865206f776e6572604482015260640161049d565b610698600061110b565b565b60006106a683336102e0565b905081811015610737576040517f08c379a0000000000000000000000000000000000000000000000000000000008152602060048201526024808201527f45524332303a206275726e20616d6f756e74206578636565647320616c6c6f7760448201527f616e636500000000000000000000000000000000000000000000000000000000606482015260840161049d565b6107448333848403610974565b61074e8383610f12565b505050565b60606005805461033a90611387565b33600090815260026020908152604080832073ffffffffffffffffffffffffffffffffffffffff8616845290915281205482811015610823576040517f08c379a000000000000000000000000000000000000000000000000000000000815260206004820152602560248201527f45524332303a2064656372656173656420616c6c6f77616e63652062656c6f7760448201527f207a65726f000000000000000000000000000000000000000000000000000000606482015260840161049d565b6108303385858403610974565b5060019392505050565b60006103ca338484610b27565b60005473ffffffffffffffffffffffffffffffffffffffff1633146108c8576040517f08c379a000000000000000000000000000000000000000000000000000000000815260206004820181905260248201527f4f776e61626c653a2063616c6c6572206973206e6f7420746865206f776e6572604482015260640161049d565b73ffffffffffffffffffffffffffffffffffffffff811661096b576040517f08c379a000000000000000000000000000000000000000000000000000000000815260206004820152602660248201527f4f776e61626c653a206e6577206f776e657220697320746865207a65726f206160448201527f6464726573730000000000000000000000000000000000000000000000000000606482015260840161049d565b61060a8161110b565b73ffffffffffffffffffffffffffffffffffffffff8316610a16576040517f08c379a0000000000000000000000000000000000000000000000000000000008152602060048201526024808201527f45524332303a20617070726f76652066726f6d20746865207a65726f2061646460448201527f7265737300000000000000000000000000000000000000000000000000000000606482015260840161049d565b73ffffffffffffffffffffffffffffffffffffffff8216610ab9576040517f08c379a000000000000000000000000000000000000000000000000000000000815260206004820152602260248201527f45524332303a20617070726f766520746f20746865207a65726f20616464726560448201527f7373000000000000000000000000000000000000000000000000000000000000606482015260840161049d565b73ffffffffffffffffffffffffffffffffffffffff83811660008181526002602090815260408083209487168084529482529182902085905590518481527f8c5be1e5ebec7d5bd14f71427d1e84f3dd0314c0f7b2291e5b200ac8c7c3b925910160405180910390a3505050565b73ffffffffffffffffffffffffffffffffffffffff8316610bca576040517f08c379a000000000000000000000000000000000000000000000000000000000815260206004820152602560248201527f45524332303a207472616e736665722066726f6d20746865207a65726f20616460448201527f6472657373000000000000000000000000000000000000000000000000000000606482015260840161049d565b73ffffffffffffffffffffffffffffffffffffffff8216610c6d576040517f08c379a000000000000000000000000000000000000000000000000000000000815260206004820152602360248201527f45524332303a207472616e7366657220746f20746865207a65726f206164647260448201527f6573730000000000000000000000000000000000000000000000000000000000606482015260840161049d565b610c78838383611180565b73ffffffffffffffffffffffffffffffffffffffff831660009081526001602052604090205481811015610d2e576040517f08c379a000000000000000000000000000000000000000000000000000000000815260206004820152602660248201527f45524332303a207472616e7366657220616d6f756e742065786365656473206260448201527f616c616e63650000000000000000000000000000000000000000000000000000606482015260840161049d565b73ffffffffffffffffffffffffffffffffffffffff808516600090815260016020526040808220858503905591851681529081208054849290610d72908490611409565b925050819055508273ffffffffffffffffffffffffffffffffffffffff168473ffffffffffffffffffffffffffffffffffffffff167fddf252ad1be2c89b69c2b068fc378daa952ba7f163c4a11628f55a4df523b3ef84604051610dd891815260200190565b60405180910390a350505050565b73ffffffffffffffffffffffffffffffffffffffff8216610e63576040517f08c379a000000000000000000000000000000000000000000000000000000000815260206004820152601f60248201527f45524332303a206d696e7420746f20746865207a65726f206164647265737300604482015260640161049d565b610e6f60008383611180565b8060036000828254610e819190611409565b909155505073ffffffffffffffffffffffffffffffffffffffff821660009081526001602052604081208054839290610ebb908490611409565b909155505060405181815273ffffffffffffffffffffffffffffffffffffffff8316906000907fddf252ad1be2c89b69c2b068fc378daa952ba7f163c4a11628f55a4df523b3ef9060200160405180910390a35050565b73ffffffffffffffffffffffffffffffffffffffff8216610fb5576040517f08c379a000000000000000000000000000000000000000000000000000000000815260206004820152602160248201527f45524332303a206275726e2066726f6d20746865207a65726f2061646472657360448201527f7300000000000000000000000000000000000000000000000000000000000000606482015260840161049d565b610fc182600083611180565b73ffffffffffffffffffffffffffffffffffffffff821660009081526001602052604090205481811015611077576040517f08c379a000000000000000000000000000000000000000000000000000000000815260206004820152602260248201527f45524332303a206275726e20616d6f756e7420657863656564732062616c616e60448201527f6365000000000000000000000000000000000000000000000000000000000000606482015260840161049d565b73ffffffffffffffffffffffffffffffffffffffff831660009081526001602052604081208383039055600380548492906110b3908490611421565b909155505060405182815260009073ffffffffffffffffffffffffffffffffffffffff8516907fddf252ad1be2c89b69c2b068fc378daa952ba7f163c4a11628f55a4df523b3ef9060200160405180910390a3505050565b6000805473ffffffffffffffffffffffffffffffffffffffff8381167fffffffffffffffffffffffff0000000000000000000000000000000000000000831681178455604051919092169283917f8be0079c531659141344cd1fd0a4f28419497f9722a3daafe3b4186f6b6457e09190a35050565b6006546040517fc00c125c00000000000000000000000000000000000000000000000000000000815273ffffffffffffffffffffffffffffffffffffffff8481166004830152602482018490526101009092049091169063c00c125c90604401600060405180830381600087803b1580156111fa57600080fd5b505af115801561120e573d6000803e3d6000fd5b50505050505050565b600060208083528351808285015260005b8181101561124457858101830151858201604001528201611228565b81811115611256576000604083870101525b50601f017fffffffffffffffffffffffffffffffffffffffffffffffffffffffffffffffe016929092016040019392505050565b803573ffffffffffffffffffffffffffffffffffffffff811681146112ae57600080fd5b919050565b600080604083850312156112c657600080fd5b6112cf8361128a565b946020939093013593505050565b6000806000606084860312156112f257600080fd5b6112fb8461128a565b92506113096020850161128a565b9150604084013590509250925092565b60006020828403121561132b57600080fd5b5035919050565b60006020828403121561134457600080fd5b61134d8261128a565b9392505050565b6000806040838503121561136757600080fd5b6113708361128a565b915061137e6020840161128a565b90509250929050565b600181811c9082168061139b57607f821691505b6020821081036113d4577f4e487b7100000000000000000000000000000000000000000000000000000000600052602260045260246000fd5b50919050565b7f4e487b7100000000000000000000000000000000000000000000000000000000600052601160045260246000fd5b6000821982111561141c5761141c6113da565b500190565b600082821015611433576114336113da565b50039056fea2646970667358221220f332dbc876b4017fcf8e70516e22cb988dd940bbbf8c8023ed593ec1b377af7064736f6c634300080d0033a2646970667358221220ff52588ad1dd35dddb6a384a68b9bf182a56ef02a33724760dc3822ac9a1a4f464736f6c634300080d0033",
  "deployedBytecode": "0x60806040523480156200001157600080fd5b5060043610620002365760003560e01c80636999b3771162000142578063c00c125c11620000cc578063e25aa5fa1162000097578063e9255bae116200007a578063e9255bae14620005d2578063f2fde38b14620005e9578063fe49abe3146200060057600080fd5b8063e25aa5fa14620005b1578063e6ab280614620005bb57600080fd5b8063c00c125c1462000562578063c4db7fa01462000579578063cc56fd431462000583578063ccfc2e8d146200059a57600080fd5b806384cdd9bc116200010d57806384cdd9bc14620004fe5780638da5cb5b146200051557806398899f401462000534578063a2a957bb146200054b57600080fd5b80636999b37714620004b2578063715018a614620004d35780637c61e56114620004dd5780638456cb5914620004f457600080fd5b80633f4ba83a11620001c4578063593d132c116200018f578063593d132c14620003b85780635c38449e14620003cf5780635c975abb14620003e65780635fd65f0f146200041557600080fd5b80633f4ba83a14620003695780634a1b0d5714620003735780634ac00e03146200038a5780634d49e87d14620003a157600080fd5b806331cd52b0116200020557806331cd52b014620002fe57806332fd549314620003245780633e3a1560146200033b5780633ed4c678146200035257600080fd5b806304bc3b1c146200023b5780630d43e8ad14620002785780630e6d8bce14620002bf57806319762b7314620002e5575b600080fd5b620002616200024c36600462003a41565b60136020526000908152604090205460ff1681565b60405160ff90911681526020015b60405180910390f35b601154620002999073ffffffffffffffffffffffffffffffffffffffff1681565b60405173ffffffffffffffffffffffffffffffffffffffff90911681526020016200026f565b620002d6620002d036600462003a61565b6200060a565b6040519081526020016200026f565b620002fc620002f636600462003cff565b62000800565b005b620003156200030f36600462003e60565b620011c4565b6040516200026f919062003eb4565b620002fc6200033536600462003a61565b62001370565b620002d66200034c36600462003efa565b6200155e565b620002fc6200036336600462003a41565b62001748565b620002fc620018cb565b620002d66200038436600462003a41565b6200195a565b620002d66200039b36600462003a61565b6200196f565b620002d6620003b236600462003f38565b62001b14565b620002fc620003c936600462003f8a565b62001d17565b620002fc620003e036600462003fad565b62002149565b60005474010000000000000000000000000000000000000000900460ff1660405190151581526020016200026f565b600454600754600854600954600a54600b54600c54600d54600e54620004569873ffffffffffffffffffffffffffffffffffffffff16979695949392919089565b6040805173ffffffffffffffffffffffffffffffffffffffff909a168a5260208a0198909852968801959095526060870193909352608086019190915260a085015260c084015260e0830152610100820152610120016200026f565b601254620002999073ffffffffffffffffffffffffffffffffffffffff1681565b620002fc620022da565b62000315620004ee366004620040bb565b62002369565b620002fc62002448565b620002d66200050f36600462003f38565b620024d5565b60005473ffffffffffffffffffffffffffffffffffffffff1662000299565b620002d662000545366004620040ea565b62002695565b620002fc6200055c3660046200412d565b6200275d565b620002fc62000573366004620040bb565b62002a12565b620002fc62002b42565b620002d66200059436600462004160565b62002d15565b620002fc620005ab36600462003a41565b62002db0565b620002d662002f2d565b620002d6620005cc366004620041b5565b62002fc5565b620002d6620005e336600462004160565b62003021565b620002fc620005fa36600462003a41565b620030bc565b620002fc620031f2565b6000805474010000000000000000000000000000000000000000900460ff161562000696576040517f08c379a000000000000000000000000000000000000000000000000000000000815260206004820152601060248201527f5061757361626c653a207061757365640000000000000000000000000000000060448201526064015b60405180910390fd5b60026001540362000704576040517f08c379a000000000000000000000000000000000000000000000000000000000815260206004820152601f60248201527f5265656e7472616e637947756172643a207265656e7472616e742063616c6c0060448201526064016200068d565b600260015573ffffffffffffffffffffffffffffffffffffffff868116600090815260136020526040808220548884168352918190205490517f8e6da7b60000000000000000000000000000000000000000000000000000000081526003600482015260ff928316602482015291166044820152606481018690526084810185905290831660a482015273__$6aaf67e7827a013dd22ce71b2520632c86$__90638e6da7b69060c4015b602060405180830381865af4158015620007cc573d6000803e3d6000fd5b505050506040513d601f19601f82011682018060405250810190620007f2919062004242565b600180559695505050505050565b60005473ffffffffffffffffffffffffffffffffffffffff16331462000883576040517f08c379a000000000000000000000000000000000000000000000000000000000815260206004820181905260248201527f4f776e61626c653a2063616c6c6572206973206e6f7420746865206f776e657260448201526064016200068d565b600254610100900460ff16806200089d575060025460ff16155b6200092b576040517f08c379a000000000000000000000000000000000000000000000000000000000815260206004820152602e60248201527f496e697469616c697a61626c653a20636f6e747261637420697320616c72656160448201527f647920696e697469616c697a656400000000000000000000000000000000000060648201526084016200068d565b600254610100900460ff161580156200096b57600280547fffffffffffffffffffffffffffffffffffffffffffffffffffffffffffff0000166101011790555b89518b51146040518060400160405280600581526020017f617272617900000000000000000000000000000000000000000000000000000081525090620009e1576040517f08c379a00000000000000000000000000000000000000000000000000000000081526004016200068d9190620042d7565b5060408051808201909152600781527f6164647265737300000000000000000000000000000000000000000000000000602082015273ffffffffffffffffffffffffffffffffffffffff831662000a67576040517f08c379a00000000000000000000000000000000000000000000000000000000081526004016200068d9190620042d7565b508a5160008167ffffffffffffffff81111562000a885762000a8862003ac7565b60405190808252806020026020018201604052801562000ab2578160200160208202803683370190505b50905060008267ffffffffffffffff81111562000ad35762000ad362003ac7565b60405190808252806020026020018201604052801562000afd578160200160208202803683370190505b50905060005b8381101562000db357600073ffffffffffffffffffffffffffffffffffffffff168f828151811062000b395762000b39620042ec565b602002602001015173ffffffffffffffffffffffffffffffffffffffff1614156040518060400160405280600781526020017f61646472657373000000000000000000000000000000000000000000000000008152509062000bca576040517f08c379a00000000000000000000000000000000000000000000000000000000081526004016200068d9190620042d7565b5060128e828151811062000be25762000be2620042ec565b602002602001015160ff1611156040518060400160405280600181526020017f70000000000000000000000000000000000000000000000000000000000000008152509062000c60576040517f08c379a00000000000000000000000000000000000000000000000000000000081526004016200068d9190620042d7565b508d818151811062000c765762000c76620042ec565b602002602001015160ff16601262000c8f91906200434a565b62000c9c90600a6200449d565b83828151811062000cb15762000cb1620042ec565b6020026020010181815250508e818151811062000cd25762000cd2620042ec565b602002602001015182828151811062000cef5762000cef620042ec565b602002602001019073ffffffffffffffffffffffffffffffffffffffff16908173ffffffffffffffffffffffffffffffffffffffff1681525050806013600084848151811062000d435762000d43620042ec565b602002602001015173ffffffffffffffffffffffffffffffffffffffff1673ffffffffffffffffffffffffffffffffffffffff16815260200190815260200160002060006101000a81548160ff021916908360ff160217905550808062000daa90620044ab565b91505062000b03565b5060408051808201909152600181527f70000000000000000000000000000000000000000000000000000000000000006020820152620f42408b1062000e28576040517f08c379a00000000000000000000000000000000000000000000000000000000081526004016200068d9190620042d7565b5060408051808201909152600381527f666565000000000000000000000000000000000000000000000000000000000060208201526305f5e1008a111562000e9f576040517f08c379a00000000000000000000000000000000000000000000000000000000081526004016200068d9190620042d7565b5060408051808201909152600381527f666565000000000000000000000000000000000000000000000000000000000060208201526305f5e10089111562000f16576040517f08c379a00000000000000000000000000000000000000000000000000000000081526004016200068d9190620042d7565b5060408051808201909152600381527f666565000000000000000000000000000000000000000000000000000000000060208201526402540be40088111562000f8e576040517f08c379a00000000000000000000000000000000000000000000000000000000081526004016200068d9190620042d7565b5060408051808201909152600381527f666565000000000000000000000000000000000000000000000000000000000060208201526305f5e10087111562001005576040517f08c379a00000000000000000000000000000000000000000000000000000000081526004016200068d9190620042d7565b508b8b60405162001016906200391a565b62001023929190620044e6565b604051809103906000f08015801562001040573d6000803e3d6000fd5b50600480547fffffffffffffffffffffffff00000000000000000000000000000000000000001673ffffffffffffffffffffffffffffffffffffffff929092169190911790558267ffffffffffffffff811115620010a257620010a262003ac7565b604051908082528060200260200182016040528015620010cc578160200160208202803683370190505b508051620010e39160069160209091019062003928565b508151620010f990600590602085019062003928565b5080516200110f90600390602084019062003978565b506200111d60648b62004518565b600a556200112d60648b62004518565b600b55505050600786905560088590556009849055600e839055601180547fffffffffffffffffffffffff00000000000000000000000000000000000000001673ffffffffffffffffffffffffffffffffffffffff84161790558015620011b757600280547fffffffffffffffffffffffffffffffffffffffffffffffffffffffffffff00ff1690555b5050505050505050505050565b606060026001540362001234576040517f08c379a000000000000000000000000000000000000000000000000000000000815260206004820152601f60248201527f5265656e7472616e637947756172643a207265656e7472616e742063616c6c0060448201526064016200068d565b60026001558142811015620012a6576040517f08c379a000000000000000000000000000000000000000000000000000000000815260206004820152600760248201527f74696d656f75740000000000000000000000000000000000000000000000000060448201526064016200068d565b6040517fc685696c00000000000000000000000000000000000000000000000000000000815273__$6aaf67e7827a013dd22ce71b2520632c86$__9063c685696c90620012fd906003908990899060040162004595565b600060405180830381865af41580156200131b573d6000803e3d6000fd5b505050506040513d6000823e601f3d9081017fffffffffffffffffffffffffffffffffffffffffffffffffffffffffffffffe0168201604052620013639190810190620045b6565b6001805595945050505050565b60005474010000000000000000000000000000000000000000900460ff1615620013f7576040517f08c379a000000000000000000000000000000000000000000000000000000000815260206004820152601060248201527f5061757361626c653a207061757365640000000000000000000000000000000060448201526064016200068d565b60026001540362001465576040517f08c379a000000000000000000000000000000000000000000000000000000000815260206004820152601f60248201527f5265656e7472616e637947756172643a207265656e7472616e742063616c6c0060448201526064016200068d565b600260015573ffffffffffffffffffffffffffffffffffffffff858116600090815260136020526040808220548784168352918190205490517fce055b8d0000000000000000000000000000000000000000000000000000000081526003600482015260ff928316602482015291166044820152606481018590526084810184905290821660a482015273__$6aaf67e7827a013dd22ce71b2520632c86$__9063ce055b8d9060c401602060405180830381865af41580156200152c573d6000803e3d6000fd5b505050506040513d601f19601f8201168201806040525081019062001552919062004242565b50506001805550505050565b6000600260015403620015ce576040517f08c379a000000000000000000000000000000000000000000000000000000000815260206004820152601f60248201527f5265656e7472616e637947756172643a207265656e7472616e742063616c6c0060448201526064016200068d565b600260015560005474010000000000000000000000000000000000000000900460ff16156200165a576040517f08c379a000000000000000000000000000000000000000000000000000000000815260206004820152601060248201527f5061757361626c653a207061757365640000000000000000000000000000000060448201526064016200068d565b8180421115620016c7576040517f08c379a000000000000000000000000000000000000000000000000000000000815260206004820152600760248201527f74696d656f75740000000000000000000000000000000000000000000000000060448201526064016200068d565b6040517f2bfe30d0000000000000000000000000000000000000000000000000000000008152600360048201526024810187905260ff861660448201526064810185905273__$6aaf67e7827a013dd22ce71b2520632c86$__90632bfe30d090608401602060405180830381865af4158015620007cc573d6000803e3d6000fd5b60005473ffffffffffffffffffffffffffffffffffffffff163314620017cb576040517f08c379a000000000000000000000000000000000000000000000000000000000815260206004820181905260248201527f4f776e61626c653a2063616c6c6572206973206e6f7420746865206f776e657260448201526064016200068d565b60408051808201909152600781527f6164647265737300000000000000000000000000000000000000000000000000602082015273ffffffffffffffffffffffffffffffffffffffff821662001850576040517f08c379a00000000000000000000000000000000000000000000000000000000081526004016200068d9190620042d7565b50601280547fffffffffffffffffffffffff00000000000000000000000000000000000000001673ffffffffffffffffffffffffffffffffffffffff83169081179091556040519081527f4c3f3b9852ccceadd50f16518f348e2624c8f0240acdd5bc81911c0fba83ec67906020015b60405180910390a150565b60005473ffffffffffffffffffffffffffffffffffffffff1633146200194e576040517f08c379a000000000000000000000000000000000000000000000000000000000815260206004820181905260248201527f4f776e61626c653a2063616c6c6572206973206e6f7420746865206f776e657260448201526064016200068d565b6200195862003441565b565b6000620019696003836200353c565b92915050565b6000805474010000000000000000000000000000000000000000900460ff1615620019f7576040517f08c379a000000000000000000000000000000000000000000000000000000000815260206004820152601060248201527f5061757361626c653a207061757365640000000000000000000000000000000060448201526064016200068d565b60026001540362001a65576040517f08c379a000000000000000000000000000000000000000000000000000000000815260206004820152601f60248201527f5265656e7472616e637947756172643a207265656e7472616e742063616c6c0060448201526064016200068d565b600260015573ffffffffffffffffffffffffffffffffffffffff868116600090815260136020526040808220548884168352918190205490517f0da350f60000000000000000000000000000000000000000000000000000000081526003600482015260ff928316602482015291166044820152606481018690526084810185905290831660a482015273__$6aaf67e7827a013dd22ce71b2520632c86$__90630da350f69060c401620007ae565b6000805474010000000000000000000000000000000000000000900460ff161562001b9c576040517f08c379a000000000000000000000000000000000000000000000000000000000815260206004820152601060248201527f5061757361626c653a207061757365640000000000000000000000000000000060448201526064016200068d565b60026001540362001c0a576040517f08c379a000000000000000000000000000000000000000000000000000000000815260206004820152601f60248201527f5265656e7472616e637947756172643a207265656e7472616e742063616c6c0060448201526064016200068d565b6002600155814281101562001c7c576040517f08c379a000000000000000000000000000000000000000000000000000000000815260206004820152600760248201527f74696d656f75740000000000000000000000000000000000000000000000000060448201526064016200068d565b6040517f7a6cba3c00000000000000000000000000000000000000000000000000000000815273__$6aaf67e7827a013dd22ce71b2520632c86$__90637a6cba3c9062001cd3906003908990899060040162004650565b602060405180830381865af415801562001cf1573d6000803e3d6000fd5b505050506040513d601f19601f8201168201806040525081019062001363919062004242565b60005473ffffffffffffffffffffffffffffffffffffffff16331462001d9a576040517f08c379a000000000000000000000000000000000000000000000000000000000815260206004820181905260248201527f4f776e61626c653a2063616c6c6572206973206e6f7420746865206f776e657260448201526064016200068d565b600c5462001dac90620151806200467b565b4210156040518060400160405280600181526020017f70000000000000000000000000000000000000000000000000000000000000008152509062001e20576040517f08c379a00000000000000000000000000000000000000000000000000000000081526004016200068d9190620042d7565b5062001e3062015180426200467b565b8110156040518060400160405280600181526020017f70000000000000000000000000000000000000000000000000000000000000008152509062001ea4576040517f08c379a00000000000000000000000000000000000000000000000000000000081526004016200068d9190620042d7565b5081600010801562001eb85750620f424082105b6040518060400160405280600581526020017f61727261790000000000000000000000000000000000000000000000000000008152509062001f29576040517f08c379a00000000000000000000000000000000000000000000000000000000081526004016200068d9190620042d7565b506040517fa30355850000000000000000000000000000000000000000000000000000000081526003600482015260009073__$6aaf67e7827a013dd22ce71b2520632c86$__9063a303558590602401602060405180830381865af415801562001f97573d6000803e3d6000fd5b505050506040513d601f19601f8201168201806040525081019062001fbd919062004242565b9050600062001fce60648562004518565b90508181101562002061578162001fe7600a8362004518565b10156040518060400160405280600181526020017f7000000000000000000000000000000000000000000000000000000000000000815250906200205a576040517f08c379a00000000000000000000000000000000000000000000000000000000081526004016200068d9190620042d7565b50620020e4565b6200206e600a8362004518565b8111156040518060400160405280600181526020017f700000000000000000000000000000000000000000000000000000000000000081525090620020e2576040517f08c379a00000000000000000000000000000000000000000000000000000000081526004016200068d9190620042d7565b505b600a829055600b81905542600c819055600d849055604080518481526020810184905290810191909152606081018490527fa2b71ec6df949300b59aab36b55e189697b750119dd349fcfa8c0f779e83c254906080015b60405180910390a150505050565b600260015403620021b7576040517f08c379a000000000000000000000000000000000000000000000000000000000815260206004820152601f60248201527f5265656e7472616e637947756172643a207265656e7472616e742063616c6c0060448201526064016200068d565b600260015560005474010000000000000000000000000000000000000000900460ff161562002243576040517f08c379a000000000000000000000000000000000000000000000000000000000815260206004820152601060248201527f5061757361626c653a207061757365640000000000000000000000000000000060448201526064016200068d565b6040517fc823250100000000000000000000000000000000000000000000000000000000815273__$6aaf67e7827a013dd22ce71b2520632c86$__9063c8232501906200229e90600390889088908890889060040162004696565b60006040518083038186803b158015620022b757600080fd5b505af4158015620022cc573d6000803e3d6000fd5b505060018055505050505050565b60005473ffffffffffffffffffffffffffffffffffffffff1633146200235d576040517f08c379a000000000000000000000000000000000000000000000000000000000815260206004820181905260248201527f4f776e61626c653a2063616c6c6572206973206e6f7420746865206f776e657260448201526064016200068d565b62001958600062003610565b6040517ffa5635970000000000000000000000000000000000000000000000000000000081526003600482015273ffffffffffffffffffffffffffffffffffffffff831660248201526044810182905260609073__$6aaf67e7827a013dd22ce71b2520632c86$__9063fa56359790606401600060405180830381865af4158015620023f9573d6000803e3d6000fd5b505050506040513d6000823e601f3d9081017fffffffffffffffffffffffffffffffffffffffffffffffffffffffffffffffe0168201604052620024419190810190620045b6565b9392505050565b60005473ffffffffffffffffffffffffffffffffffffffff163314620024cb576040517f08c379a000000000000000000000000000000000000000000000000000000000815260206004820181905260248201527f4f776e61626c653a2063616c6c6572206973206e6f7420746865206f776e657260448201526064016200068d565b6200195862003685565b600060026001540362002545576040517f08c379a000000000000000000000000000000000000000000000000000000000815260206004820152601f60248201527f5265656e7472616e637947756172643a207265656e7472616e742063616c6c0060448201526064016200068d565b600260015560005474010000000000000000000000000000000000000000900460ff1615620025d1576040517f08c379a000000000000000000000000000000000000000000000000000000000815260206004820152601060248201527f5061757361626c653a207061757365640000000000000000000000000000000060448201526064016200068d565b81804211156200263e576040517f08c379a000000000000000000000000000000000000000000000000000000000815260206004820152600760248201527f74696d656f75740000000000000000000000000000000000000000000000000060448201526064016200068d565b6040517fc8344c0600000000000000000000000000000000000000000000000000000000815273__$6aaf67e7827a013dd22ce71b2520632c86$__9063c8344c069062001cd3906003908990899060040162004650565b6040517f159763bb0000000000000000000000000000000000000000000000000000000081526003600482015273ffffffffffffffffffffffffffffffffffffffff841660248201526044810183905260ff8216606482015260009073__$6aaf67e7827a013dd22ce71b2520632c86$__9063159763bb906084015b602060405180830381865af41580156200272f573d6000803e3d6000fd5b505050506040513d601f19601f8201168201806040525081019062002755919062004242565b949350505050565b60005473ffffffffffffffffffffffffffffffffffffffff163314620027e0576040517f08c379a000000000000000000000000000000000000000000000000000000000815260206004820181905260248201527f4f776e61626c653a2063616c6c6572206973206e6f7420746865206f776e657260448201526064016200068d565b60408051808201909152600381527f666565000000000000000000000000000000000000000000000000000000000060208201526305f5e10085111562002856576040517f08c379a00000000000000000000000000000000000000000000000000000000081526004016200068d9190620042d7565b5060408051808201909152600381527f666565000000000000000000000000000000000000000000000000000000000060208201526305f5e100841115620028cd576040517f08c379a00000000000000000000000000000000000000000000000000000000081526004016200068d9190620042d7565b5060408051808201909152600381527f666565000000000000000000000000000000000000000000000000000000000060208201526402540be40083111562002945576040517f08c379a00000000000000000000000000000000000000000000000000000000081526004016200068d9190620042d7565b5060408051808201909152600381527f666565000000000000000000000000000000000000000000000000000000000060208201526305f5e100821115620029bc576040517f08c379a00000000000000000000000000000000000000000000000000000000081526004016200068d9190620042d7565b5060098290556007849055600e8190556040805185815260208101859052908101839052606081018290527f0272af61e59abaa206f4d3d15474b045c5fdbad2379f620b67074e9b13bfaad1906080016200213b565b60045460408051808201909152600781527f616464726573730000000000000000000000000000000000000000000000000060208201529073ffffffffffffffffffffffffffffffffffffffff16331462002a9c576040517f08c379a00000000000000000000000000000000000000000000000000000000081526004016200068d9190620042d7565b506040517fc188e4be0000000000000000000000000000000000000000000000000000000081526003600482015273ffffffffffffffffffffffffffffffffffffffff831660248201526044810182905273__$6aaf67e7827a013dd22ce71b2520632c86$__9063c188e4be9060640160006040518083038186803b15801562002b2557600080fd5b505af415801562002b3a573d6000803e3d6000fd5b505050505050565b60005473ffffffffffffffffffffffffffffffffffffffff16331462002bc5576040517f08c379a000000000000000000000000000000000000000000000000000000000815260206004820181905260248201527f4f776e61626c653a2063616c6c6572206973206e6f7420746865206f776e657260448201526064016200068d565b600d54421062002c32576040517f08c379a000000000000000000000000000000000000000000000000000000000815260206004820152600e60248201527f616c726561647953746f7070656400000000000000000000000000000000000060448201526064016200068d565b6040517fa30355850000000000000000000000000000000000000000000000000000000081526003600482015260009073__$6aaf67e7827a013dd22ce71b2520632c86$__9063a303558590602401602060405180830381865af415801562002c9f573d6000803e3d6000fd5b505050506040513d601f19601f8201168201806040525081019062002cc5919062004242565b600a819055600b81905542600c819055600d8190556040519192507f46e22fb3709ad289f62ce63d469248536dbc78d82b84a3d7e74ad606dc20193891620018c091848252602082015260400190565b73ffffffffffffffffffffffffffffffffffffffff8381166000908152601360205260408082205492851682528082205490517faa054aee0000000000000000000000000000000000000000000000000000000081526003600482015260ff938416602482015292166044830152606482018390529073__$6aaf67e7827a013dd22ce71b2520632c86$__9063aa054aee9060840162002711565b60005473ffffffffffffffffffffffffffffffffffffffff16331462002e33576040517f08c379a000000000000000000000000000000000000000000000000000000000815260206004820181905260248201527f4f776e61626c653a2063616c6c6572206973206e6f7420746865206f776e657260448201526064016200068d565b60408051808201909152600781527f6164647265737300000000000000000000000000000000000000000000000000602082015273ffffffffffffffffffffffffffffffffffffffff821662002eb8576040517f08c379a00000000000000000000000000000000000000000000000000000000081526004016200068d9190620042d7565b50601180547fffffffffffffffffffffffff00000000000000000000000000000000000000001673ffffffffffffffffffffffffffffffffffffffff83169081179091556040519081527fae5a12c29e496b092467a620746b9eaf4e0e231a631a4370c233b1fac38e8e2690602001620018c0565b6040517fd36604ac0000000000000000000000000000000000000000000000000000000081526003600482015260009073__$6aaf67e7827a013dd22ce71b2520632c86$__9063d36604ac90602401602060405180830381865af415801562002f9a573d6000803e3d6000fd5b505050506040513d601f19601f8201168201806040525081019062002fc0919062004242565b905090565b6040517f1e7e95d300000000000000000000000000000000000000000000000000000000815260009073__$6aaf67e7827a013dd22ce71b2520632c86$__90631e7e95d390620027119060039088908890889060040162004733565b73ffffffffffffffffffffffffffffffffffffffff8381166000908152601360205260408082205492851682528082205490517fba2998d90000000000000000000000000000000000000000000000000000000081526003600482015260ff938416602482015292166044830152606482018390529073__$6aaf67e7827a013dd22ce71b2520632c86$__9063ba2998d99060840162002711565b60005473ffffffffffffffffffffffffffffffffffffffff1633146200313f576040517f08c379a000000000000000000000000000000000000000000000000000000000815260206004820181905260248201527f4f776e61626c653a2063616c6c6572206973206e6f7420746865206f776e657260448201526064016200068d565b73ffffffffffffffffffffffffffffffffffffffff8116620031e4576040517f08c379a000000000000000000000000000000000000000000000000000000000815260206004820152602660248201527f4f776e61626c653a206e6577206f776e657220697320746865207a65726f206160448201527f646472657373000000000000000000000000000000000000000000000000000060648201526084016200068d565b620031ef8162003610565b50565b60125473ffffffffffffffffffffffffffffffffffffffff1633148062003230575060005473ffffffffffffffffffffffffffffffffffffffff1633145b62003298576040517f08c379a000000000000000000000000000000000000000000000000000000000815260206004820152600e60248201527f21666565436f6e74726f6c6c657200000000000000000000000000000000000060448201526064016200068d565b60005b600354811015620031ef57600060036000018281548110620032c157620032c1620042ec565b60009182526020822001546006805473ffffffffffffffffffffffffffffffffffffffff90921693509084908110620032fe57620032fe620042ec565b6000918252602090912001546040517f70a0823100000000000000000000000000000000000000000000000000000000815230600482015273ffffffffffffffffffffffffffffffffffffffff8416906370a0823190602401602060405180830381865afa15801562003375573d6000803e3d6000fd5b505050506040513d601f19601f820116820180604052508101906200339b919062004242565b620033a791906200434a565b905080156200342957601154620033d99073ffffffffffffffffffffffffffffffffffffffff84811691168362003774565b6040805173ffffffffffffffffffffffffffffffffffffffff84168152602081018390527fee3859efa95e525bc2bcb149b51b60a8bb4e89c647392d9d4112e03c3e73bdd6910160405180910390a15b505080806200343890620044ab565b9150506200329b565b60005474010000000000000000000000000000000000000000900460ff16620034c7576040517f08c379a000000000000000000000000000000000000000000000000000000000815260206004820152601460248201527f5061757361626c653a206e6f742070617573656400000000000000000000000060448201526064016200068d565b600080547fffffffffffffffffffffff00ffffffffffffffffffffffffffffffffffffffff1690557f5db9ee0a495bf2e6ff9c91a7834c1ba4fdd244a5e8aa4e537bd38aeae4b073aa335b60405173ffffffffffffffffffffffffffffffffffffffff909116815260200160405180910390a1565b73ffffffffffffffffffffffffffffffffffffffff81166000908152600c83016020526040812054819062003575906224ea006200467b565b905042811115620036065760006200358e42836200434a565b73ffffffffffffffffffffffffffffffffffffffff85166000908152600d87016020526040902054600b8701549192506402540be400916224ea00918491620035d8919062004518565b620035e4919062004518565b620035f091906200479d565b620035fc91906200479d565b9250505062001969565b5060009392505050565b6000805473ffffffffffffffffffffffffffffffffffffffff8381167fffffffffffffffffffffffff0000000000000000000000000000000000000000831681178455604051919092169283917f8be0079c531659141344cd1fd0a4f28419497f9722a3daafe3b4186f6b6457e09190a35050565b60005474010000000000000000000000000000000000000000900460ff16156200370c576040517f08c379a000000000000000000000000000000000000000000000000000000000815260206004820152601060248201527f5061757361626c653a207061757365640000000000000000000000000000000060448201526064016200068d565b600080547fffffffffffffffffffffff00ffffffffffffffffffffffffffffffffffffffff16740100000000000000000000000000000000000000001790557f62e78cea01bee320cd4e420270b5ea74000d11b0c9f74754ebdbfc544b05a258620035123390565b6040805173ffffffffffffffffffffffffffffffffffffffff8416602482015260448082018490528251808303909101815260649091019091526020810180517bffffffffffffffffffffffffffffffffffffffffffffffffffffffff167fa9059cbb000000000000000000000000000000000000000000000000000000001790526200380390849062003808565b505050565b6000808373ffffffffffffffffffffffffffffffffffffffff1683604051620038329190620047d9565b6000604051808303816000865af19150503d806000811462003871576040519150601f19603f3d011682016040523d82523d6000602084013e62003876565b606091505b509092509050816200388c573d6000803e3d6000fd5b80511580620038ac575080806020019051810190620038ac9190620047f7565b62003914576040517f08c379a000000000000000000000000000000000000000000000000000000000815260206004820152601660248201527f534146455f45524332305f43414c4c5f4641494c45440000000000000000000060448201526064016200068d565b50505050565b61177a806200481883390190565b82805482825590600052602060002090810192821562003966579160200282015b828111156200396657825182559160200191906001019062003949565b5062003974929150620039f5565b5090565b82805482825590600052602060002090810192821562003966579160200282015b828111156200396657825182547fffffffffffffffffffffffff00000000000000000000000000000000000000001673ffffffffffffffffffffffffffffffffffffffff90911617825560209092019160019091019062003999565b5b80821115620039745760008155600101620039f6565b73ffffffffffffffffffffffffffffffffffffffff81168114620031ef57600080fd5b803562003a3c8162003a0c565b919050565b60006020828403121562003a5457600080fd5b8135620024418162003a0c565b600080600080600060a0868803121562003a7a57600080fd5b853562003a878162003a0c565b9450602086013562003a998162003a0c565b93506040860135925060608601359150608086013562003ab98162003a0c565b809150509295509295909350565b7f4e487b7100000000000000000000000000000000000000000000000000000000600052604160045260246000fd5b604051601f82017fffffffffffffffffffffffffffffffffffffffffffffffffffffffffffffffe016810167ffffffffffffffff8111828210171562003b405762003b4062003ac7565b604052919050565b600067ffffffffffffffff82111562003b655762003b6562003ac7565b5060051b60200190565b600082601f83011262003b8157600080fd5b8135602062003b9a62003b948362003b48565b62003af6565b82815260059290921b8401810191818101908684111562003bba57600080fd5b8286015b8481101562003be257803562003bd48162003a0c565b835291830191830162003bbe565b509695505050505050565b803560ff8116811462003a3c57600080fd5b600082601f83011262003c1157600080fd5b8135602062003c2462003b948362003b48565b82815260059290921b8401810191818101908684111562003c4457600080fd5b8286015b8481101562003be25762003c5c8162003bed565b835291830191830162003c48565b600082601f83011262003c7c57600080fd5b813567ffffffffffffffff81111562003c995762003c9962003ac7565b62003ccc60207fffffffffffffffffffffffffffffffffffffffffffffffffffffffffffffffe0601f8401160162003af6565b81815284602083860101111562003ce257600080fd5b816020850160208301376000918101602001919091529392505050565b6000806000806000806000806000806101408b8d03121562003d2057600080fd5b8a3567ffffffffffffffff8082111562003d3957600080fd5b62003d478e838f0162003b6f565b9b5060208d013591508082111562003d5e57600080fd5b62003d6c8e838f0162003bff565b9a5060408d013591508082111562003d8357600080fd5b62003d918e838f0162003c6a565b995060608d013591508082111562003da857600080fd5b5062003db78d828e0162003c6a565b97505060808b0135955060a08b0135945060c08b0135935060e08b013592506101008b0135915062003ded6101208c0162003a2f565b90509295989b9194979a5092959850565b600082601f83011262003e1057600080fd5b8135602062003e2362003b948362003b48565b82815260059290921b8401810191818101908684111562003e4357600080fd5b8286015b8481101562003be2578035835291830191830162003e47565b60008060006060848603121562003e7657600080fd5b83359250602084013567ffffffffffffffff81111562003e9557600080fd5b62003ea38682870162003dfe565b925050604084013590509250925092565b6020808252825182820181905260009190848201906040850190845b8181101562003eee5783518352928401929184019160010162003ed0565b50909695505050505050565b6000806000806080858703121562003f1157600080fd5b8435935062003f236020860162003bed565b93969395505050506040820135916060013590565b60008060006060848603121562003f4e57600080fd5b833567ffffffffffffffff81111562003f6657600080fd5b62003f748682870162003dfe565b9660208601359650604090950135949350505050565b6000806040838503121562003f9e57600080fd5b50508035926020909101359150565b6000806000806080858703121562003fc457600080fd5b843562003fd18162003a0c565b935060208581013567ffffffffffffffff8082111562003ff057600080fd5b818801915088601f8301126200400557600080fd5b81356200401662003b948262003b48565b81815260059190911b8301840190848101908b8311156200403657600080fd5b938501935b8285101562004061578435620040518162003a0c565b825293850193908501906200403b565b9750505060408801359250808311156200407a57600080fd5b6200408889848a0162003dfe565b945060608801359250808311156200409f57600080fd5b5050620040af8782880162003c6a565b91505092959194509250565b60008060408385031215620040cf57600080fd5b8235620040dc8162003a0c565b946020939093013593505050565b6000806000606084860312156200410057600080fd5b83356200410d8162003a0c565b925060208401359150620041246040850162003bed565b90509250925092565b600080600080608085870312156200414457600080fd5b5050823594602084013594506040840135936060013592509050565b6000806000606084860312156200417657600080fd5b8335620041838162003a0c565b92506020840135620041958162003a0c565b929592945050506040919091013590565b8015158114620031ef57600080fd5b600080600060408486031215620041cb57600080fd5b833567ffffffffffffffff80821115620041e457600080fd5b818601915086601f830112620041f957600080fd5b8135818111156200420957600080fd5b8760208260051b85010111156200421f57600080fd5b602092830195509350508401356200423781620041a6565b809150509250925092565b6000602082840312156200425557600080fd5b5051919050565b60005b83811015620042795781810151838201526020016200425f565b83811115620039145750506000910152565b60008151808452620042a58160208601602086016200425c565b601f017fffffffffffffffffffffffffffffffffffffffffffffffffffffffffffffffe0169290920160200192915050565b6020815260006200244160208301846200428b565b7f4e487b7100000000000000000000000000000000000000000000000000000000600052603260045260246000fd5b7f4e487b7100000000000000000000000000000000000000000000000000000000600052601160045260246000fd5b6000828210156200435f576200435f6200431b565b500390565b600181815b80851115620043c357817fffffffffffffffffffffffffffffffffffffffffffffffffffffffffffffffff04821115620043a757620043a76200431b565b80851615620043b557918102915b93841c939080029062004369565b509250929050565b600082620043dc5750600162001969565b81620043eb5750600062001969565b81600181146200440457600281146200440f576200442f565b600191505062001969565b60ff8411156200442357620044236200431b565b50506001821b62001969565b5060208310610133831016604e8410600b841016171562004454575081810a62001969565b62004460838362004364565b807fffffffffffffffffffffffffffffffffffffffffffffffffffffffffffffffff048211156200449557620044956200431b565b029392505050565b6000620024418383620043cb565b60007fffffffffffffffffffffffffffffffffffffffffffffffffffffffffffffffff8203620044df57620044df6200431b565b5060010190565b604081526000620044fb60408301856200428b565b82810360208401526200450f81856200428b565b95945050505050565b6000817fffffffffffffffffffffffffffffffffffffffffffffffffffffffffffffffff04831182151516156200455357620045536200431b565b500290565b600081518084526020808501945080840160005b838110156200458a578151875295820195908201906001016200456c565b509495945050505050565b8381528260208201526060604082015260006200450f606083018462004558565b60006020808385031215620045ca57600080fd5b825167ffffffffffffffff811115620045e257600080fd5b8301601f81018513620045f457600080fd5b80516200460562003b948262003b48565b81815260059190911b820183019083810190878311156200462557600080fd5b928401925b8284101562004645578351825292840192908401906200462a565b979650505050505050565b8381526060602082015260006200466b606083018562004558565b9050826040830152949350505050565b600082198211156200469157620046916200431b565b500190565b600060a08201878352602073ffffffffffffffffffffffffffffffffffffffff8089168286015260a0604086015282885180855260c087019150838a01945060005b81811015620046f8578551841683529484019491840191600101620046d8565b505085810360608701526200470e818962004558565b935050505082810360808401526200472781856200428b565b98975050505050505050565b8481526060602082015282606082015260007f07ffffffffffffffffffffffffffffffffffffffffffffffffffffffffffffff8411156200477357600080fd5b8360051b808660808501376000908301608001908152921515604090920191909152509392505050565b600082620047d4577f4e487b7100000000000000000000000000000000000000000000000000000000600052601260045260246000fd5b500490565b60008251620047ed8184602087016200425c565b9190910192915050565b6000602082840312156200480a57600080fd5b81516200244181620041a656fe60806040523480156200001157600080fd5b506040516200177a3803806200177a833981016040819052620000349162000256565b8181620000413362000093565b815162000056906004906020850190620000e3565b5080516200006c906005906020840190620000e3565b50506006805433610100026001600160a81b031990911617601217905550620002fc915050565b600080546001600160a01b038381166001600160a01b0319831681178455604051919092169283917f8be0079c531659141344cd1fd0a4f28419497f9722a3daafe3b4186f6b6457e09190a35050565b828054620000f190620002c0565b90600052602060002090601f01602090048101928262000115576000855562000160565b82601f106200013057805160ff191683800117855562000160565b8280016001018555821562000160579182015b828111156200016057825182559160200191906001019062000143565b506200016e92915062000172565b5090565b5b808211156200016e576000815560010162000173565b634e487b7160e01b600052604160045260246000fd5b600082601f830112620001b157600080fd5b81516001600160401b0380821115620001ce57620001ce62000189565b604051601f8301601f19908116603f01168101908282118183101715620001f957620001f962000189565b816040528381526020925086838588010111156200021657600080fd5b600091505b838210156200023a57858201830151818301840152908201906200021b565b838211156200024c5760008385830101525b9695505050505050565b600080604083850312156200026a57600080fd5b82516001600160401b03808211156200028257600080fd5b62000290868387016200019f565b93506020850151915080821115620002a757600080fd5b50620002b6858286016200019f565b9150509250929050565b600181811c90821680620002d557607f821691505b602082108103620002f657634e487b7160e01b600052602260045260246000fd5b50919050565b61146e806200030c6000396000f3fe608060405234801561001057600080fd5b50600436106101365760003560e01c8063715018a6116100b257806395d89b4111610081578063a9059cbb11610066578063a9059cbb146102bf578063dd62ed3e146102d2578063f2fde38b1461031857600080fd5b806395d89b41146102a4578063a457c2d7146102ac57600080fd5b8063715018a61461022157806379cc6790146102295780638119c0651461023c5780638da5cb5b1461028657600080fd5b8063313ce5671161010957806340c10f19116100ee57806340c10f19146101c357806342966c68146101d857806370a08231146101eb57600080fd5b8063313ce567146101a157806339509351146101b057600080fd5b806306fdde031461013b578063095ea7b31461015957806318160ddd1461017c57806323b872dd1461018e575b600080fd5b61014361032b565b6040516101509190611217565b60405180910390f35b61016c6101673660046112b3565b6103bd565b6040519015158152602001610150565b6003545b604051908152602001610150565b61016c61019c3660046112dd565b6103d3565b60405160128152602001610150565b61016c6101be3660046112b3565b6104be565b6101d66101d13660046112b3565b610507565b005b6101d66101e6366004611319565b610600565b6101806101f9366004611332565b73ffffffffffffffffffffffffffffffffffffffff1660009081526001602052604090205490565b6101d661060d565b6101d66102373660046112b3565b61069a565b60065461026190610100900473ffffffffffffffffffffffffffffffffffffffff1681565b60405173ffffffffffffffffffffffffffffffffffffffff9091168152602001610150565b60005473ffffffffffffffffffffffffffffffffffffffff16610261565b610143610753565b61016c6102ba3660046112b3565b610762565b61016c6102cd3660046112b3565b61083a565b6101806102e0366004611354565b73ffffffffffffffffffffffffffffffffffffffff918216600090815260026020908152604080832093909416825291909152205490565b6101d6610326366004611332565b610847565b60606004805461033a90611387565b80601f016020809104026020016040519081016040528092919081815260200182805461036690611387565b80156103b35780601f10610388576101008083540402835291602001916103b3565b820191906000526020600020905b81548152906001019060200180831161039657829003601f168201915b5050505050905090565b60006103ca338484610974565b50600192915050565b60006103e0848484610b27565b73ffffffffffffffffffffffffffffffffffffffff84166000908152600260209081526040808320338452909152902054828110156104a6576040517f08c379a000000000000000000000000000000000000000000000000000000000815260206004820152602860248201527f45524332303a207472616e7366657220616d6f756e742065786365656473206160448201527f6c6c6f77616e636500000000000000000000000000000000000000000000000060648201526084015b60405180910390fd5b6104b38533858403610974565b506001949350505050565b33600081815260026020908152604080832073ffffffffffffffffffffffffffffffffffffffff8716845290915281205490916103ca918590610502908690611409565b610974565b60005473ffffffffffffffffffffffffffffffffffffffff163314610588576040517f08c379a000000000000000000000000000000000000000000000000000000000815260206004820181905260248201527f4f776e61626c653a2063616c6c6572206973206e6f7420746865206f776e6572604482015260640161049d565b600081116105f2576040517f08c379a000000000000000000000000000000000000000000000000000000000815260206004820152600e60248201527f7a65726f4d696e74416d6f756e74000000000000000000000000000000000000604482015260640161049d565b6105fc8282610de6565b5050565b61060a3382610f12565b50565b60005473ffffffffffffffffffffffffffffffffffffffff16331461068e576040517f08c379a000000000000000000000000000000000000000000000000000000000815260206004820181905260248201527f4f776e61626c653a2063616c6c6572206973206e6f7420746865206f776e6572604482015260640161049d565b610698600061110b565b565b60006106a683336102e0565b905081811015610737576040517f08c379a0000000000000000000000000000000000000000000000000000000008152602060048201526024808201527f45524332303a206275726e20616d6f756e74206578636565647320616c6c6f7760448201527f616e636500000000000000000000000000000000000000000000000000000000606482015260840161049d565b6107448333848403610974565b61074e8383610f12565b505050565b60606005805461033a90611387565b33600090815260026020908152604080832073ffffffffffffffffffffffffffffffffffffffff8616845290915281205482811015610823576040517f08c379a000000000000000000000000000000000000000000000000000000000815260206004820152602560248201527f45524332303a2064656372656173656420616c6c6f77616e63652062656c6f7760448201527f207a65726f000000000000000000000000000000000000000000000000000000606482015260840161049d565b6108303385858403610974565b5060019392505050565b60006103ca338484610b27565b60005473ffffffffffffffffffffffffffffffffffffffff1633146108c8576040517f08c379a000000000000000000000000000000000000000000000000000000000815260206004820181905260248201527f4f776e61626c653a2063616c6c6572206973206e6f7420746865206f776e6572604482015260640161049d565b73ffffffffffffffffffffffffffffffffffffffff811661096b576040517f08c379a000000000000000000000000000000000000000000000000000000000815260206004820152602660248201527f4f776e61626c653a206e6577206f776e657220697320746865207a65726f206160448201527f6464726573730000000000000000000000000000000000000000000000000000606482015260840161049d565b61060a8161110b565b73ffffffffffffffffffffffffffffffffffffffff8316610a16576040517f08c379a0000000000000000000000000000000000000000000000000000000008152602060048201526024808201527f45524332303a20617070726f76652066726f6d20746865207a65726f2061646460448201527f7265737300000000000000000000000000000000000000000000000000000000606482015260840161049d565b73ffffffffffffffffffffffffffffffffffffffff8216610ab9576040517f08c379a000000000000000000000000000000000000000000000000000000000815260206004820152602260248201527f45524332303a20617070726f766520746f20746865207a65726f20616464726560448201527f7373000000000000000000000000000000000000000000000000000000000000606482015260840161049d565b73ffffffffffffffffffffffffffffffffffffffff83811660008181526002602090815260408083209487168084529482529182902085905590518481527f8c5be1e5ebec7d5bd14f71427d1e84f3dd0314c0f7b2291e5b200ac8c7c3b925910160405180910390a3505050565b73ffffffffffffffffffffffffffffffffffffffff8316610bca576040517f08c379a000000000000000000000000000000000000000000000000000000000815260206004820152602560248201527f45524332303a207472616e736665722066726f6d20746865207a65726f20616460448201527f6472657373000000000000000000000000000000000000000000000000000000606482015260840161049d565b73ffffffffffffffffffffffffffffffffffffffff8216610c6d576040517f08c379a000000000000000000000000000000000000000000000000000000000815260206004820152602360248201527f45524332303a207472616e7366657220746f20746865207a65726f206164647260448201527f6573730000000000000000000000000000000000000000000000000000000000606482015260840161049d565b610c78838383611180565b73ffffffffffffffffffffffffffffffffffffffff831660009081526001602052604090205481811015610d2e576040517f08c379a000000000000000000000000000000000000000000000000000000000815260206004820152602660248201527f45524332303a207472616e7366657220616d6f756e742065786365656473206260448201527f616c616e63650000000000000000000000000000000000000000000000000000606482015260840161049d565b73ffffffffffffffffffffffffffffffffffffffff808516600090815260016020526040808220858503905591851681529081208054849290610d72908490611409565b925050819055508273ffffffffffffffffffffffffffffffffffffffff168473ffffffffffffffffffffffffffffffffffffffff167fddf252ad1be2c89b69c2b068fc378daa952ba7f163c4a11628f55a4df523b3ef84604051610dd891815260200190565b60405180910390a350505050565b73ffffffffffffffffffffffffffffffffffffffff8216610e63576040517f08c379a000000000000000000000000000000000000000000000000000000000815260206004820152601f60248201527f45524332303a206d696e7420746f20746865207a65726f206164647265737300604482015260640161049d565b610e6f60008383611180565b8060036000828254610e819190611409565b909155505073ffffffffffffffffffffffffffffffffffffffff821660009081526001602052604081208054839290610ebb908490611409565b909155505060405181815273ffffffffffffffffffffffffffffffffffffffff8316906000907fddf252ad1be2c89b69c2b068fc378daa952ba7f163c4a11628f55a4df523b3ef9060200160405180910390a35050565b73ffffffffffffffffffffffffffffffffffffffff8216610fb5576040517f08c379a000000000000000000000000000000000000000000000000000000000815260206004820152602160248201527f45524332303a206275726e2066726f6d20746865207a65726f2061646472657360448201527f7300000000000000000000000000000000000000000000000000000000000000606482015260840161049d565b610fc182600083611180565b73ffffffffffffffffffffffffffffffffffffffff821660009081526001602052604090205481811015611077576040517f08c379a000000000000000000000000000000000000000000000000000000000815260206004820152602260248201527f45524332303a206275726e20616d6f756e7420657863656564732062616c616e60448201527f6365000000000000000000000000000000000000000000000000000000000000606482015260840161049d565b73ffffffffffffffffffffffffffffffffffffffff831660009081526001602052604081208383039055600380548492906110b3908490611421565b909155505060405182815260009073ffffffffffffffffffffffffffffffffffffffff8516907fddf252ad1be2c89b69c2b068fc378daa952ba7f163c4a11628f55a4df523b3ef9060200160405180910390a3505050565b6000805473ffffffffffffffffffffffffffffffffffffffff8381167fffffffffffffffffffffffff0000000000000000000000000000000000000000831681178455604051919092169283917f8be0079c531659141344cd1fd0a4f28419497f9722a3daafe3b4186f6b6457e09190a35050565b6006546040517fc00c125c00000000000000000000000000000000000000000000000000000000815273ffffffffffffffffffffffffffffffffffffffff8481166004830152602482018490526101009092049091169063c00c125c90604401600060405180830381600087803b1580156111fa57600080fd5b505af115801561120e573d6000803e3d6000fd5b50505050505050565b600060208083528351808285015260005b8181101561124457858101830151858201604001528201611228565b81811115611256576000604083870101525b50601f017fffffffffffffffffffffffffffffffffffffffffffffffffffffffffffffffe016929092016040019392505050565b803573ffffffffffffffffffffffffffffffffffffffff811681146112ae57600080fd5b919050565b600080604083850312156112c657600080fd5b6112cf8361128a565b946020939093013593505050565b6000806000606084860312156112f257600080fd5b6112fb8461128a565b92506113096020850161128a565b9150604084013590509250925092565b60006020828403121561132b57600080fd5b5035919050565b60006020828403121561134457600080fd5b61134d8261128a565b9392505050565b6000806040838503121561136757600080fd5b6113708361128a565b915061137e6020840161128a565b90509250929050565b600181811c9082168061139b57607f821691505b6020821081036113d4577f4e487b7100000000000000000000000000000000000000000000000000000000600052602260045260246000fd5b50919050565b7f4e487b7100000000000000000000000000000000000000000000000000000000600052601160045260246000fd5b6000821982111561141c5761141c6113da565b500190565b600082821015611433576114336113da565b50039056fea2646970667358221220f332dbc876b4017fcf8e70516e22cb988dd940bbbf8c8023ed593ec1b377af7064736f6c634300080d0033a2646970667358221220ff52588ad1dd35dddb6a384a68b9bf182a56ef02a33724760dc3822ac9a1a4f464736f6c634300080d0033",
  "libraries": {
    "RequiemStableSwapLib": "0xa82fF9aFd8f496c3d6ac40E2a0F282E47488CFc9"
  },
  "devdoc": {
    "kind": "dev",
    "methods": {
      "owner()": {
        "details": "Returns the address of the current owner."
      },
      "paused()": {
        "details": "Returns true if the contract is paused, and false otherwise."
      },
      "rampA(uint256,uint256)": {
        "params": {
          "futureA": "the new A to ramp towards",
          "futureATime": "timestamp when the new A should be reached"
        }
      },
      "renounceOwnership()": {
        "details": "Leaves the contract without owner. It will not be possible to call `onlyOwner` functions anymore. Can only be called by the current owner. NOTE: Renouncing ownership will leave the contract without an owner, thereby removing any functionality that is only available to the owner."
      },
      "setFee(uint256,uint256,uint256,uint256)": {
        "details": "adminFee cannot be higher than 100% of the swap fee swap fee cannot be higher than 1% of each swap",
        "params": {
          "newAdminFee": "new admin fee to be applied on future transactions",
          "newSwapFee": "new swap fee to be applied on future transactions",
          "newWithdrawFee": "new initial withdraw fee to be applied on future withdrawal transactions"
        }
      },
      "transferOwnership(address)": {
        "details": "Transfers ownership of the contract to a new account (`newOwner`). Can only be called by the current owner."
      },
      "updateUserWithdrawFee(address,uint256)": {
        "params": {
          "recipient": "address of the recipient of pool token",
          "transferAmount": "amount of pool token to transfer"
        }
      }
    },
    "version": 1
  },
  "userdoc": {
    "events": {
      "AddLiquidity(address,uint256[],uint256[],uint256,uint256)": {
        "notice": "EVENTS"
      }
    },
    "kind": "user",
    "methods": {
      "addLiquidity(uint256[],uint256,uint256)": {
        "notice": "PUBLIC FUNCTIONS"
      },
      "flashLoan(address,address[],uint256[],bytes)": {
        "notice": "Flash Loan"
      },
      "getVirtualPrice()": {
        "notice": "VIEW FUNCTIONS"
      },
      "onSwap(address,address,uint256,uint256,address)": {
        "notice": "amount in is expected to be sent to the pool before calling onSwap - This function is designed for a multi swap exact out structure - It just checks the invariant condition or more generally the validity of the swap - No return value required since the amounts are already known in that case"
      },
      "onSwapGivenIn(address,address,uint256,uint256,address)": {
        "notice": "Calculates the swap value internally and sends the amount to the to address  - Returns the calculated output amount. - Can be done without readjusting the invariant as the internally called pricing should ensure validity"
      },
      "onSwapGivenOut(address,address,uint256,uint256,address)": {
        "notice": "Calculates the input amount internally and sends that amount from the caller to the pool and the amountOut to the to address - Returns the calculated input amount. - Can be done without readjusting the invariant as the internally called pricing should ensure validity"
      },
      "rampA(uint256,uint256)": {
        "notice": "Start ramping up or down A parameter towards given futureA_ and futureTime_ Checks if the change is too rapid, and commits the new A value only when it falls under the limit range."
      },
      "setFee(uint256,uint256,uint256,uint256)": {
        "notice": "Sets the admin fee"
      },
      "swapStorage()": {
        "notice": "STATE VARS"
      },
      "updateUserWithdrawFee(address,uint256)": {
        "notice": "Updates the user withdraw fee. This function can only be called by the pool token. Should be used to update the withdraw fee on transfer of pool tokens. Transferring your pool token will reset the 4 weeks period. If the recipient is already holding some pool tokens, the withdraw fee will be discounted in respective amounts."
      }
    },
    "version": 1
  },
  "storageLayout": {
    "storage": [
      {
        "astId": 55736,
        "contract": "contracts/RequiemStableSwap.sol:RequiemStableSwap",
        "label": "_owner",
        "offset": 0,
        "slot": "0",
        "type": "t_address"
      },
      {
        "astId": 55851,
        "contract": "contracts/RequiemStableSwap.sol:RequiemStableSwap",
        "label": "_paused",
        "offset": 20,
        "slot": "0",
        "type": "t_bool"
      },
      {
        "astId": 55936,
        "contract": "contracts/RequiemStableSwap.sol:RequiemStableSwap",
        "label": "_status",
        "offset": 0,
        "slot": "1",
        "type": "t_uint256"
      },
      {
        "astId": 55526,
        "contract": "contracts/RequiemStableSwap.sol:RequiemStableSwap",
        "label": "_initialized",
        "offset": 0,
        "slot": "2",
        "type": "t_bool"
      },
      {
        "astId": 55529,
        "contract": "contracts/RequiemStableSwap.sol:RequiemStableSwap",
        "label": "_initializing",
        "offset": 1,
        "slot": "2",
        "type": "t_bool"
      },
      {
        "astId": 15140,
        "contract": "contracts/RequiemStableSwap.sol:RequiemStableSwap",
        "label": "swapStorage",
        "offset": 0,
        "slot": "3",
        "type": "t_struct(SwapStorage)16374_storage"
      },
      {
        "astId": 15142,
        "contract": "contracts/RequiemStableSwap.sol:RequiemStableSwap",
        "label": "feeDistributor",
        "offset": 0,
        "slot": "17",
        "type": "t_address"
      },
      {
        "astId": 15144,
        "contract": "contracts/RequiemStableSwap.sol:RequiemStableSwap",
        "label": "feeController",
        "offset": 0,
        "slot": "18",
        "type": "t_address"
      },
      {
        "astId": 15148,
        "contract": "contracts/RequiemStableSwap.sol:RequiemStableSwap",
        "label": "tokenIndexes",
        "offset": 0,
        "slot": "19",
        "type": "t_mapping(t_address,t_uint8)"
      }
    ],
    "types": {
      "t_address": {
        "encoding": "inplace",
        "label": "address",
        "numberOfBytes": "20"
      },
      "t_array(t_contract(IERC20)47080)dyn_storage": {
        "base": "t_contract(IERC20)47080",
        "encoding": "dynamic_array",
        "label": "contract IERC20[]",
        "numberOfBytes": "32"
      },
      "t_array(t_uint256)dyn_storage": {
        "base": "t_uint256",
        "encoding": "dynamic_array",
        "label": "uint256[]",
        "numberOfBytes": "32"
      },
      "t_bool": {
        "encoding": "inplace",
        "label": "bool",
        "numberOfBytes": "1"
      },
      "t_contract(IERC20)47080": {
        "encoding": "inplace",
        "label": "contract IERC20",
        "numberOfBytes": "20"
      },
      "t_contract(LPToken)66187": {
        "encoding": "inplace",
        "label": "contract LPToken",
        "numberOfBytes": "20"
      },
      "t_mapping(t_address,t_uint256)": {
        "encoding": "mapping",
        "key": "t_address",
        "label": "mapping(address => uint256)",
        "numberOfBytes": "32",
        "value": "t_uint256"
      },
      "t_mapping(t_address,t_uint8)": {
        "encoding": "mapping",
        "key": "t_address",
        "label": "mapping(address => uint8)",
        "numberOfBytes": "32",
        "value": "t_uint8"
      },
      "t_struct(SwapStorage)16374_storage": {
        "encoding": "inplace",
        "label": "struct RequiemStableSwapLib.SwapStorage",
        "members": [
          {
            "astId": 16334,
            "contract": "contracts/RequiemStableSwap.sol:RequiemStableSwap",
            "label": "pooledTokens",
            "offset": 0,
            "slot": "0",
            "type": "t_array(t_contract(IERC20)47080)dyn_storage"
          },
          {
            "astId": 16337,
            "contract": "contracts/RequiemStableSwap.sol:RequiemStableSwap",
            "label": "lpToken",
            "offset": 0,
            "slot": "1",
            "type": "t_contract(LPToken)66187"
          },
          {
            "astId": 16341,
            "contract": "contracts/RequiemStableSwap.sol:RequiemStableSwap",
            "label": "tokenMultipliers",
            "offset": 0,
            "slot": "2",
            "type": "t_array(t_uint256)dyn_storage"
          },
          {
            "astId": 16345,
            "contract": "contracts/RequiemStableSwap.sol:RequiemStableSwap",
            "label": "balances",
            "offset": 0,
            "slot": "3",
            "type": "t_array(t_uint256)dyn_storage"
          },
          {
            "astId": 16348,
            "contract": "contracts/RequiemStableSwap.sol:RequiemStableSwap",
            "label": "fee",
            "offset": 0,
            "slot": "4",
            "type": "t_uint256"
          },
          {
            "astId": 16351,
            "contract": "contracts/RequiemStableSwap.sol:RequiemStableSwap",
            "label": "flashFee",
            "offset": 0,
            "slot": "5",
            "type": "t_uint256"
          },
          {
            "astId": 16354,
            "contract": "contracts/RequiemStableSwap.sol:RequiemStableSwap",
            "label": "adminFee",
            "offset": 0,
            "slot": "6",
            "type": "t_uint256"
          },
          {
            "astId": 16357,
            "contract": "contracts/RequiemStableSwap.sol:RequiemStableSwap",
            "label": "initialA",
            "offset": 0,
            "slot": "7",
            "type": "t_uint256"
          },
          {
            "astId": 16359,
            "contract": "contracts/RequiemStableSwap.sol:RequiemStableSwap",
            "label": "futureA",
            "offset": 0,
            "slot": "8",
            "type": "t_uint256"
          },
          {
            "astId": 16361,
            "contract": "contracts/RequiemStableSwap.sol:RequiemStableSwap",
            "label": "initialATime",
            "offset": 0,
            "slot": "9",
            "type": "t_uint256"
          },
          {
            "astId": 16363,
            "contract": "contracts/RequiemStableSwap.sol:RequiemStableSwap",
            "label": "futureATime",
            "offset": 0,
            "slot": "10",
            "type": "t_uint256"
          },
          {
            "astId": 16365,
            "contract": "contracts/RequiemStableSwap.sol:RequiemStableSwap",
            "label": "defaultWithdrawFee",
            "offset": 0,
            "slot": "11",
            "type": "t_uint256"
          },
          {
            "astId": 16369,
            "contract": "contracts/RequiemStableSwap.sol:RequiemStableSwap",
            "label": "depositTimestamp",
            "offset": 0,
            "slot": "12",
            "type": "t_mapping(t_address,t_uint256)"
          },
          {
            "astId": 16373,
            "contract": "contracts/RequiemStableSwap.sol:RequiemStableSwap",
            "label": "withdrawFeeMultiplier",
            "offset": 0,
            "slot": "13",
            "type": "t_mapping(t_address,t_uint256)"
          }
        ],
        "numberOfBytes": "448"
      },
      "t_uint256": {
        "encoding": "inplace",
        "label": "uint256",
        "numberOfBytes": "32"
      },
      "t_uint8": {
        "encoding": "inplace",
        "label": "uint8",
        "numberOfBytes": "1"
      }
    }
  }
}