{
  "address": "0x5FbDB2315678afecb367f032d93F642f64180aa3",
  "abi": [
    {
      "inputs": [],
      "stateMutability": "nonpayable",
      "type": "constructor"
    },
    {
      "inputs": [
        {
          "internalType": "uint256",
          "name": "reserve0",
          "type": "uint256"
        },
        {
          "internalType": "uint256",
          "name": "reserve1",
          "type": "uint256"
        },
        {
          "internalType": "uint256",
          "name": "balance0Adjusted",
          "type": "uint256"
        },
        {
          "internalType": "uint256",
          "name": "balance1Adjusted",
          "type": "uint256"
        },
        {
          "internalType": "uint32",
          "name": "tokenWeight0",
          "type": "uint32"
        }
      ],
      "name": "ensureConstantValue",
      "outputs": [
        {
          "internalType": "bool",
          "name": "",
          "type": "bool"
        }
      ],
      "stateMutability": "view",
      "type": "function"
    },
    {
      "inputs": [
        {
          "internalType": "uint256",
          "name": "_x",
          "type": "uint256"
        }
      ],
      "name": "findPositionInMaxExpArray",
      "outputs": [
        {
          "internalType": "uint8",
          "name": "",
          "type": "uint8"
        }
      ],
      "stateMutability": "view",
      "type": "function"
    },
    {
      "inputs": [
        {
          "internalType": "uint256",
          "name": "_n",
          "type": "uint256"
        }
      ],
      "name": "floorLog2",
      "outputs": [
        {
          "internalType": "uint8",
          "name": "",
          "type": "uint8"
        }
      ],
      "stateMutability": "pure",
      "type": "function"
    },
    {
      "inputs": [
        {
          "internalType": "uint256",
          "name": "_x",
          "type": "uint256"
        },
        {
          "internalType": "uint8",
          "name": "_precision",
          "type": "uint8"
        }
      ],
      "name": "generalExp",
      "outputs": [
        {
          "internalType": "uint256",
          "name": "",
          "type": "uint256"
        }
      ],
      "stateMutability": "pure",
      "type": "function"
    },
    {
      "inputs": [
        {
          "internalType": "uint256",
          "name": "x",
          "type": "uint256"
        }
      ],
      "name": "generalLog",
      "outputs": [
        {
          "internalType": "uint256",
          "name": "",
          "type": "uint256"
        }
      ],
      "stateMutability": "pure",
      "type": "function"
    },
    {
      "inputs": [
        {
          "internalType": "uint256",
          "name": "amountOut",
          "type": "uint256"
        },
        {
          "internalType": "uint256",
          "name": "reserveIn",
          "type": "uint256"
        },
        {
          "internalType": "uint256",
          "name": "reserveOut",
          "type": "uint256"
        },
        {
          "internalType": "uint32",
          "name": "tokenWeightIn",
          "type": "uint32"
        },
        {
          "internalType": "uint32",
          "name": "tokenWeightOut",
          "type": "uint32"
        },
        {
          "internalType": "uint32",
          "name": "swapFee",
          "type": "uint32"
        }
      ],
      "name": "getAmountIn",
      "outputs": [
        {
          "internalType": "uint256",
          "name": "amountIn",
          "type": "uint256"
        }
      ],
      "stateMutability": "view",
      "type": "function"
    },
    {
      "inputs": [
        {
          "internalType": "uint256",
          "name": "amountIn",
          "type": "uint256"
        },
        {
          "internalType": "uint256",
          "name": "reserveIn",
          "type": "uint256"
        },
        {
          "internalType": "uint256",
          "name": "reserveOut",
          "type": "uint256"
        },
        {
          "internalType": "uint32",
          "name": "tokenWeightIn",
          "type": "uint32"
        },
        {
          "internalType": "uint32",
          "name": "tokenWeightOut",
          "type": "uint32"
        },
        {
          "internalType": "uint32",
          "name": "swapFee",
          "type": "uint32"
        }
      ],
      "name": "getAmountOut",
      "outputs": [
        {
          "internalType": "uint256",
          "name": "amountOut",
          "type": "uint256"
        }
      ],
      "stateMutability": "view",
      "type": "function"
    },
    {
      "inputs": [
        {
          "internalType": "address",
          "name": "tokenIn",
          "type": "address"
        },
        {
          "internalType": "address",
          "name": "tokenOut",
          "type": "address"
        },
        {
          "internalType": "uint256",
          "name": "amountOut",
          "type": "uint256"
        },
        {
          "internalType": "address[]",
          "name": "path",
          "type": "address[]"
        }
      ],
      "name": "getAmountsIn",
      "outputs": [
        {
          "internalType": "uint256[]",
          "name": "amounts",
          "type": "uint256[]"
        }
      ],
      "stateMutability": "view",
      "type": "function"
    },
    {
      "inputs": [
        {
          "internalType": "address",
          "name": "tokenIn",
          "type": "address"
        },
        {
          "internalType": "address",
          "name": "tokenOut",
          "type": "address"
        },
        {
          "internalType": "uint256",
          "name": "amountIn",
          "type": "uint256"
        },
        {
          "internalType": "address[]",
          "name": "path",
          "type": "address[]"
        }
      ],
      "name": "getAmountsOut",
      "outputs": [
        {
          "internalType": "uint256[]",
          "name": "amounts",
          "type": "uint256[]"
        }
      ],
      "stateMutability": "view",
      "type": "function"
    },
    {
      "inputs": [
        {
          "internalType": "address",
          "name": "factory",
          "type": "address"
        },
        {
          "internalType": "address",
          "name": "tokenIn",
          "type": "address"
        },
        {
          "internalType": "address",
          "name": "tokenOut",
          "type": "address"
        },
        {
          "internalType": "uint256",
          "name": "amountOut",
          "type": "uint256"
        },
        {
          "internalType": "address[]",
          "name": "path",
          "type": "address[]"
        }
      ],
      "name": "getFactoryAmountsIn",
      "outputs": [
        {
          "internalType": "uint256[]",
          "name": "amounts",
          "type": "uint256[]"
        }
      ],
      "stateMutability": "view",
      "type": "function"
    },
    {
      "inputs": [
        {
          "internalType": "address",
          "name": "factory",
          "type": "address"
        },
        {
          "internalType": "address",
          "name": "tokenIn",
          "type": "address"
        },
        {
          "internalType": "address",
          "name": "tokenOut",
          "type": "address"
        },
        {
          "internalType": "uint256",
          "name": "amountIn",
          "type": "uint256"
        },
        {
          "internalType": "address[]",
          "name": "path",
          "type": "address[]"
        }
      ],
      "name": "getFactoryAmountsOut",
      "outputs": [
        {
          "internalType": "uint256[]",
          "name": "amounts",
          "type": "uint256[]"
        }
      ],
      "stateMutability": "view",
      "type": "function"
    },
    {
      "inputs": [
        {
          "internalType": "address",
          "name": "factory",
          "type": "address"
        },
        {
          "internalType": "address",
          "name": "pair",
          "type": "address"
        },
        {
          "internalType": "address",
          "name": "tokenA",
          "type": "address"
        }
      ],
      "name": "getFactoryReserveAndWeights",
      "outputs": [
        {
          "internalType": "address",
          "name": "tokenB",
          "type": "address"
        },
        {
          "internalType": "uint256",
          "name": "reserveA",
          "type": "uint256"
        },
        {
          "internalType": "uint256",
          "name": "reserveB",
          "type": "uint256"
        },
        {
          "internalType": "uint32",
          "name": "tokenWeightA",
          "type": "uint32"
        },
        {
          "internalType": "uint32",
          "name": "tokenWeightB",
          "type": "uint32"
        },
        {
          "internalType": "uint32",
          "name": "swapFee",
          "type": "uint32"
        }
      ],
      "stateMutability": "view",
      "type": "function"
    },
    {
      "inputs": [
        {
          "internalType": "address",
          "name": "factory",
          "type": "address"
        },
        {
          "internalType": "address",
          "name": "pair",
          "type": "address"
        }
      ],
      "name": "getFactoryWeightsAndSwapFee",
      "outputs": [
        {
          "internalType": "uint32",
          "name": "tokenWeight0",
          "type": "uint32"
        },
        {
          "internalType": "uint32",
          "name": "tokenWeight1",
          "type": "uint32"
        },
        {
          "internalType": "uint32",
          "name": "swapFee",
          "type": "uint32"
        }
      ],
      "stateMutability": "view",
      "type": "function"
    },
    {
      "inputs": [
        {
          "internalType": "address",
          "name": "pair",
          "type": "address"
        },
        {
          "internalType": "address",
          "name": "tokenA",
          "type": "address"
        }
      ],
      "name": "getOtherToken",
      "outputs": [
        {
          "internalType": "address",
          "name": "tokenB",
          "type": "address"
        }
      ],
      "stateMutability": "view",
      "type": "function"
    },
    {
      "inputs": [
        {
          "internalType": "address",
          "name": "pair",
          "type": "address"
        },
        {
          "internalType": "address",
          "name": "tokenIn",
          "type": "address"
        },
        {
          "internalType": "uint256",
          "name": "amountOut",
          "type": "uint256"
        }
      ],
      "name": "getPairAmountIn",
      "outputs": [
        {
          "internalType": "uint256",
          "name": "amountIn",
          "type": "uint256"
        }
      ],
      "stateMutability": "view",
      "type": "function"
    },
    {
      "inputs": [
        {
          "internalType": "address",
          "name": "pair",
          "type": "address"
        },
        {
          "internalType": "address",
          "name": "tokenIn",
          "type": "address"
        },
        {
          "internalType": "uint256",
          "name": "amountIn",
          "type": "uint256"
        }
      ],
      "name": "getPairAmountOut",
      "outputs": [
        {
          "internalType": "uint256",
          "name": "amountOut",
          "type": "uint256"
        }
      ],
      "stateMutability": "view",
      "type": "function"
    },
    {
      "inputs": [
        {
          "internalType": "address",
          "name": "pair",
          "type": "address"
        },
        {
          "internalType": "address",
          "name": "tokenA",
          "type": "address"
        }
      ],
      "name": "getReserveAndWeights",
      "outputs": [
        {
          "internalType": "address",
          "name": "tokenB",
          "type": "address"
        },
        {
          "internalType": "uint256",
          "name": "reserveA",
          "type": "uint256"
        },
        {
          "internalType": "uint256",
          "name": "reserveB",
          "type": "uint256"
        },
        {
          "internalType": "uint32",
          "name": "tokenWeightA",
          "type": "uint32"
        },
        {
          "internalType": "uint32",
          "name": "tokenWeightB",
          "type": "uint32"
        },
        {
          "internalType": "uint32",
          "name": "swapFee",
          "type": "uint32"
        }
      ],
      "stateMutability": "view",
      "type": "function"
    },
    {
      "inputs": [
        {
          "internalType": "address",
          "name": "pair",
          "type": "address"
        },
        {
          "internalType": "address",
          "name": "tokenA",
          "type": "address"
        },
        {
          "internalType": "address",
          "name": "tokenB",
          "type": "address"
        }
      ],
      "name": "getReserves",
      "outputs": [
        {
          "internalType": "uint256",
          "name": "reserveA",
          "type": "uint256"
        },
        {
          "internalType": "uint256",
          "name": "reserveB",
          "type": "uint256"
        }
      ],
      "stateMutability": "view",
      "type": "function"
    },
    {
      "inputs": [
        {
          "internalType": "address",
          "name": "pair",
          "type": "address"
        }
      ],
      "name": "getWeightsAndSwapFee",
      "outputs": [
        {
          "internalType": "uint32",
          "name": "tokenWeight0",
          "type": "uint32"
        },
        {
          "internalType": "uint32",
          "name": "tokenWeight1",
          "type": "uint32"
        },
        {
          "internalType": "uint32",
          "name": "swapFee",
          "type": "uint32"
        }
      ],
      "stateMutability": "view",
      "type": "function"
    },
    {
      "inputs": [],
      "name": "initMaxExpArray",
      "outputs": [],
      "stateMutability": "nonpayable",
      "type": "function"
    },
    {
      "inputs": [
        {
          "internalType": "uint256",
          "name": "totalLiquidity",
          "type": "uint256"
        },
        {
          "internalType": "uint112",
          "name": "reserve0",
          "type": "uint112"
        },
        {
          "internalType": "uint112",
          "name": "reserve1",
          "type": "uint112"
        },
        {
          "internalType": "uint32",
          "name": "tokenWeight0",
          "type": "uint32"
        },
        {
          "internalType": "uint32",
          "name": "tokenWeight1",
          "type": "uint32"
        },
        {
          "internalType": "uint112",
          "name": "collectedFee0",
          "type": "uint112"
        },
        {
          "internalType": "uint112",
          "name": "collectedFee1",
          "type": "uint112"
        }
      ],
      "name": "mintLiquidityFee",
      "outputs": [
        {
          "internalType": "uint256",
          "name": "amount",
          "type": "uint256"
        }
      ],
      "stateMutability": "view",
      "type": "function"
    },
    {
      "inputs": [
        {
          "internalType": "uint256",
          "name": "x",
          "type": "uint256"
        }
      ],
      "name": "optimalExp",
      "outputs": [
        {
          "internalType": "uint256",
          "name": "",
          "type": "uint256"
        }
      ],
      "stateMutability": "pure",
      "type": "function"
    },
    {
      "inputs": [
        {
          "internalType": "uint256",
          "name": "x",
          "type": "uint256"
        }
      ],
      "name": "optimalLog",
      "outputs": [
        {
          "internalType": "uint256",
          "name": "",
          "type": "uint256"
        }
      ],
      "stateMutability": "pure",
      "type": "function"
    },
    {
      "inputs": [
        {
          "internalType": "uint256",
          "name": "_baseN",
          "type": "uint256"
        },
        {
          "internalType": "uint256",
          "name": "_baseD",
          "type": "uint256"
        },
        {
          "internalType": "uint32",
          "name": "_expN",
          "type": "uint32"
        },
        {
          "internalType": "uint32",
          "name": "_expD",
          "type": "uint32"
        }
      ],
      "name": "power",
      "outputs": [
        {
          "internalType": "uint256",
          "name": "",
          "type": "uint256"
        },
        {
          "internalType": "uint8",
          "name": "",
          "type": "uint8"
        }
      ],
      "stateMutability": "view",
      "type": "function"
    },
    {
      "inputs": [
        {
          "internalType": "uint256",
          "name": "amountA",
          "type": "uint256"
        },
        {
          "internalType": "uint256",
          "name": "reserveA",
          "type": "uint256"
        },
        {
          "internalType": "uint256",
          "name": "reserveB",
          "type": "uint256"
        }
      ],
      "name": "quote",
      "outputs": [
        {
          "internalType": "uint256",
          "name": "amountB",
          "type": "uint256"
        }
      ],
      "stateMutability": "pure",
      "type": "function"
    },
    {
      "inputs": [
        {
          "internalType": "address",
          "name": "tokenA",
          "type": "address"
        },
        {
          "internalType": "address",
          "name": "tokenB",
          "type": "address"
        }
      ],
      "name": "sortTokens",
      "outputs": [
        {
          "internalType": "address",
          "name": "token0",
          "type": "address"
        },
        {
          "internalType": "address",
          "name": "token1",
          "type": "address"
        }
      ],
      "stateMutability": "pure",
      "type": "function"
    }
  ],
  "transactionHash": "0xd8796fa1c577ca9e58b9c774da03e5d6bfe09bd268ea6652154251a751da9d13",
  "args": [],
  "solcInputHash": "d5ca29bc88a2f08d59f2fe1d8d2aaa5d",
  "bytecode": "0x608060405234801561001057600080fd5b5061073f6001641c35fedd1560601b036020556001646c3390ecc9605e1b036021556001640cf801476160611b0360225560016431bdb23e1d605f1b0360235560016502fb1d8fe083605b1b0360245560016505b771955b37605a1b036025556001650af67a93bb5160591b0360265560016515060c256cb360581b036027556001651428a2f98d7360581b036028556001654d515663970960561b03602955600165944620b0e70f60551b03602a55600166011c592761c66760541b03602b5560016602214d10d014eb60531b03602c55600166020ade36b7dbef60531b03602d5560016603eab73b3bbfe360521b03602e556001660782ee3593f6d760511b03602f556001661ccf4b44bb4821604f1b0360305560016606e7f88ad8a77760511b0360315560016669f3d1c921891d604d1b03603255600166cb2ff529eb71e5604c1b03603355600166c2d415c3db974b604c1b0360345560016702eb40f9f620fda7604a1b0360355560016705990681d961a1eb60491b03603655600167055e12902701414760491b0360375560016714962dee9dc9764160471b0360385560016704ef57b9b560fab560491b0360395560016712ed7b32a58f552b60471b03603a556001679131271922eaa60760441b03603b556001678b380f3558668c4760441b03603c556001680215f77c045fbe885760421b03603d556001600160831b03603e556001670f577eded5773a1160471b03603f556001680eb5ec597592befbf5603f1b036040556001681c35fedd14b861eb05603e1b036041556001683619c87664579bc94b603d1b0360425560016867c00a3b07ffc01fd7603c1b03604355600168c6f6c8f8739773a7a5603b1b03604455600168bec763f8209b7a72b1603b1b0360455560016902dbb8caad9b7097b91b60391b03604655600169057b3d49dda84556d6f760381b03604755600169054183095b2c8ececf3160381b036048556001690a14517cc6b9457111ef60371b0360495560016913545598e5c23276ccf160361b03604a556001692511882c39c3adea96ff60351b03604b55600169471649d87199aa99075760341b03604c557004429a21a029d4c1457cfbffffffffffff604d55700415bc6d6fb7dd71af2cb3ffffffffffff604e557003eab73b3bbfe282243ce1ffffffffffff604f557003c1771ac9fb6b4c18e229ffffffffffff605055700399e96897690418f785257fffffffffff605155700373fc456c53bb779bf0ea9fffffffffff60525570034f9e8e490c48e67e6ab8bfffffffffff60535570032cbfd4a7adc790560b3337ffffffffff60545570030b50570f6e5d2acca94613ffffffffff6055557002eb40f9f620fda6b56c2861ffffffffff6056557002cc8340ecb0d0f520a6af58ffffffffff6057557002af09481380a0a35cf1ba02ffffffffff605855700292c5bdd3b92ec810287b1b3fffffffff605955700277abdcdab07d5a77ac6d6b9fffffffff605a5570025daf6654b1eaa55fd64df5efffffffff605b55700244c49c648baa98192dce88b7ffffffff605c5570022ce03cd5619a311b2471268bffffffff605d55700215f77c045fbe885654a44a0fffffffff605e556001600160811b03605f557001eaefdbdaaee7421fc4d3ede5ffffffff6060557001d6bd8b2eb257df7e8ca57b09bfffffff6061557001c35fedd14b861eb0443f7f133fffffff6062557001b0ce43b322bcde4a56e8ada5afffffff60635570019f0028ec1fff007f5a195a39dfffffff60645570018ded91f0e72ee74f49b15ba527ffffff60655570017d8ec7f04136f4e5615fd41a63ffffff60665570016ddc6556cdb84bdc8d12d22e6fffffff60675570015ecf52776a1155b5bd8395814f7fffff60685570015060c256cb23b3b3cc3754cf40ffffff6069557001428a2f98d728ae223ddab715be3fffff606a5570013545598e5c23276ccf0ede68034fffff606b557001288c4161ce1d6f54b7f61081194fffff606c5570011c592761c666aa641d5a01a40f17ffff606d55700110a688680a7530515f3e6e6cfdcdffff606e557001056f1b5bedf75c6bcb2ce8aed428ffff606f556ffaadceceeff8a0890f3875f008277fff6070556ff05dc6b27edad306388a600f6ba0bfff6071556fe67a5a25da41063de1495d5b18cdbfff6072556fdcff115b14eedde6fc3aa5353f2e4fff6073556fd3e7a3924312399f9aae2e0f868f8fff6074556fcb2ff529eb71e41582cccd5a1ee26fff6075556fc2d415c3db974ab32a51840c0b67edff6076556fbad03e7d883f69ad5b0a186184e06bff6077556fb320d03b2c343d4829abd6075f0cc5ff6078556fabc25204e02828d73c6e80bcdb1a95bf6079556fa4b16f74ee4bb2040a1ec6c15fbbf2df607a556f9deaf736ac1f569deb1b5ae3f36c130f607b556f976bd9952c7aa957f5937d790ef65037607c556f9131271922eaa6064b73a22d0bd4f2bf607d556f8b380f3558668c46c91c49a2f8e967b9607e556f857ddf0117efa215952912839f6473e6607f55565b615018806200074f6000396000f3fe608060405234801561001057600080fd5b50600436106101ae5760003560e01c80638888a737116100ee578063ad615dec11610097578063b3923a9911610071578063b3923a9914610c2f578063ca22297914610c42578063ce78456414610c55578063d691093714610c6857600080fd5b8063ad615dec14610bf6578063b19210b014610c09578063b33d96b014610c1c57600080fd5b806395050862116100c857806395050862146103f9578063a324cca01461040c578063aa248a461461041f57600080fd5b80638888a737146103c05780638fabd82d146103d357806392aec23c146103e657600080fd5b80634c3eea9e1161015b5780636350d774116101355780636350d77414610364578063671a11b51461037757806367f84adc1461038a57806379c91b371461039d57600080fd5b80634c3eea9e146102ae578063544caa56146102c15780635bff1d921461030157600080fd5b8063327494611161018c578063327494611461023757806332833d511461025f57806345b8bafc1461028957600080fd5b8063119220a5146101b357806329576c82146101dc5780632bb66e1d146101fd575b600080fd5b6101c66101c136600461468e565b610ca0565b6040516101d39190614713565b60405180910390f35b6101ef6101ea366004614757565b610f00565b6040519081526020016101d3565b61021061020b36600461478d565b611567565b6040805163ffffffff948516815292841660208401529216918101919091526060016101d3565b61024a6102453660046147bb565b61160c565b604080519283526020830191909152016101d3565b61027261026d366004614818565b6118ac565b6040805192835260ff9091166020830152016101d3565b61029c610297366004614862565b611a29565b60405160ff90911681526020016101d3565b6101ef6102bc366004614862565b611a96565b6102d46102cf36600461478d565b611bd0565b6040805173ffffffffffffffffffffffffffffffffffffffff9384168152929091166020830152016101d3565b61031461030f36600461478d565b611d55565b6040805173ffffffffffffffffffffffffffffffffffffffff909716875260208701959095529385019290925263ffffffff908116606085015290811660808401521660a082015260c0016101d3565b6101ef61037236600461487b565b6120c9565b6101ef6103853660046148bc565b612102565b6101c661039836600461468e565b61230c565b6103b06103ab366004614923565b612552565b60405190151581526020016101d3565b6101ef6103ce36600461487b565b612675565b6101c66103e1366004614970565b6126a1565b6101ef6103f43660046149ff565b6128e8565b6101ef610407366004614862565b6129e5565b6101ef61041a366004614862565b613163565b610bf4701c35fedd14ffffffffffffffffffffffff602055701b0ce43b323fffffffffffffffffffffff6021557019f0028ec1ffffffffffffffffffffffff6022557018ded91f0e7fffffffffffffffffffffff6023557017d8ec7f0417ffffffffffffffffffffff6024557016ddc6556cdbffffffffffffffffffffff6025557015ecf52776a1ffffffffffffffffffffff6026557015060c256cb2ffffffffffffffffffffff602755701428a2f98d72ffffffffffffffffffffff6028557013545598e5c23fffffffffffffffffffff602955701288c4161ce1dfffffffffffffffffffff602a557011c592761c666fffffffffffffffffffff602b5570110a688680a757ffffffffffffffffffff602c55701056f1b5bedf77ffffffffffffffffffff602d55700faadceceeff8bffffffffffffffffffff602e55700f05dc6b27edadffffffffffffffffffff602f55700e67a5a25da4107fffffffffffffffffff603055700dcff115b14eedffffffffffffffffffff603155700d3e7a392431239fffffffffffffffffff603255700cb2ff529eb71e4fffffffffffffffffff603355700c2d415c3db974afffffffffffffffffff603455700bad03e7d883f69bffffffffffffffffff603555700b320d03b2c343d5ffffffffffffffffff603655700abc25204e02828dffffffffffffffffff603755700a4b16f74ee4bb207fffffffffffffffff6038557009deaf736ac1f569ffffffffffffffffff603955700976bd9952c7aa957fffffffffffffffff603a557009131271922eaa606fffffffffffffffff603b557008b380f3558668c46fffffffffffffffff603c55700857ddf0117efa215bffffffffffffffff603d557007ffffffffffffffffffffffffffffffff603e557007abbf6f6abb9d087fffffffffffffffff603f5570075af62cbac95f7dfa7fffffffffffffff60405570070d7fb7452e187ac13fffffffffffffff6041557006c3390ecc8af379295fffffffffffffff60425570067c00a3b07ffc01fd6fffffffffffffff604355700637b647c39cbb9d3d27ffffffffffffff6044557005f63b1fc104dbd39587ffffffffffffff6045557005b771955b36e12f7235ffffffffffffff60465570057b3d49dda84556d6f6ffffffffffffff60475570054183095b2c8ececf30ffffffffffffff60485570050a28be635ca2b888f77fffffffffffff6049557004d5156639708c9db33c3fffffffffffff604a557004a23105873875bd52dfdfffffffffffff604b55700471649d87199aa990756fffffffffffff604c557004429a21a029d4c1457cfbffffffffffff604d55700415bc6d6fb7dd71af2cb3ffffffffffff604e557003eab73b3bbfe282243ce1ffffffffffff604f557003c1771ac9fb6b4c18e229ffffffffffff605055700399e96897690418f785257fffffffffff605155700373fc456c53bb779bf0ea9fffffffffff60525570034f9e8e490c48e67e6ab8bfffffffffff60535570032cbfd4a7adc790560b3337ffffffffff60545570030b50570f6e5d2acca94613ffffffffff6055557002eb40f9f620fda6b56c2861ffffffffff6056557002cc8340ecb0d0f520a6af58ffffffffff6057557002af09481380a0a35cf1ba02ffffffffff605855700292c5bdd3b92ec810287b1b3fffffffff605955700277abdcdab07d5a77ac6d6b9fffffffff605a5570025daf6654b1eaa55fd64df5efffffffff605b55700244c49c648baa98192dce88b7ffffffff605c5570022ce03cd5619a311b2471268bffffffff605d55700215f77c045fbe885654a44a0fffffffff605e557001ffffffffffffffffffffffffffffffff605f557001eaefdbdaaee7421fc4d3ede5ffffffff6060557001d6bd8b2eb257df7e8ca57b09bfffffff6061557001c35fedd14b861eb0443f7f133fffffff6062557001b0ce43b322bcde4a56e8ada5afffffff60635570019f0028ec1fff007f5a195a39dfffffff60645570018ded91f0e72ee74f49b15ba527ffffff60655570017d8ec7f04136f4e5615fd41a63ffffff60665570016ddc6556cdb84bdc8d12d22e6fffffff60675570015ecf52776a1155b5bd8395814f7fffff60685570015060c256cb23b3b3cc3754cf40ffffff6069557001428a2f98d728ae223ddab715be3fffff606a5570013545598e5c23276ccf0ede68034fffff606b557001288c4161ce1d6f54b7f61081194fffff606c5570011c592761c666aa641d5a01a40f17ffff606d55700110a688680a7530515f3e6e6cfdcdffff606e557001056f1b5bedf75c6bcb2ce8aed428ffff606f556ffaadceceeff8a0890f3875f008277fff6070556ff05dc6b27edad306388a600f6ba0bfff6071556fe67a5a25da41063de1495d5b18cdbfff6072556fdcff115b14eedde6fc3aa5353f2e4fff6073556fd3e7a3924312399f9aae2e0f868f8fff6074556fcb2ff529eb71e41582cccd5a1ee26fff6075556fc2d415c3db974ab32a51840c0b67edff6076556fbad03e7d883f69ad5b0a186184e06bff6077556fb320d03b2c343d4829abd6075f0cc5ff6078556fabc25204e02828d73c6e80bcdb1a95bf6079556fa4b16f74ee4bb2040a1ec6c15fbbf2df607a556f9deaf736ac1f569deb1b5ae3f36c130f607b556f976bd9952c7aa957f5937d790ef65037607c556f9131271922eaa6064b73a22d0bd4f2bf607d556f8b380f3558668c46c91c49a2f8e967b9607e556f857ddf0117efa215952912839f6473e6607f55565b005b6101ef610c04366004614a8c565b613865565b6101ef610c173660046148bc565b6139af565b610314610c2a3660046147bb565b613bc4565b6101c6610c3d366004614970565b613ed5565b610210610c50366004614ab8565b614108565b61029c610c63366004614862565b6142b5565b610c7b610c7636600461478d565b614368565b60405173ffffffffffffffffffffffffffffffffffffffff90911681526020016101d3565b606081610d0e576040517f08c379a000000000000000000000000000000000000000000000000000000000815260206004820152601c60248201527f5265717569656d466f726d756c613a20494e56414c49445f504154480000000060448201526064015b60405180910390fd5b610d19826001614b04565b67ffffffffffffffff811115610d3157610d31614b1c565b604051908082528060200260200182016040528015610d5a578160200160208202803683370190505b5090508381600081518110610d7157610d71614b4b565b60209081029190910101528560005b83811015610e3957600080600080600080610dc28f8c8c8a818110610da757610da7614b4b565b9050602002016020810190610dbc9190614ab8565b8a613bc4565b955095509550955095509550610df5898881518110610de357610de3614b4b565b60200260200101518686868686612102565b89610e01896001614b04565b81518110610e1157610e11614b4b565b6020026020010181815250508597505050505050508080610e3190614b7a565b915050610d80565b508573ffffffffffffffffffffffffffffffffffffffff168173ffffffffffffffffffffffffffffffffffffffff1614610ef5576040517f08c379a000000000000000000000000000000000000000000000000000000000815260206004820152602660248201527f5265717569656d466f726d756c613a20494e56414c49445f544f4b454e5f4f5560448201527f545f5041544800000000000000000000000000000000000000000000000000006064820152608401610d05565b509695505050505050565b6000828160ff8416610f128380614bb3565b901c9150610f30826f03442c4e6074a82f1797f72ac0000000614bb3565b610f3a9082614b04565b905060ff8416610f4a8684614bb3565b901c9150610f68826f0116b96f757c380fb287fd0e40000000614bb3565b610f729082614b04565b905060ff8416610f828684614bb3565b901c9150610f9f826e45ae5bdd5f0e03eca1ff4390000000614bb3565b610fa99082614b04565b905060ff8416610fb98684614bb3565b901c9150610fd6826e0defabf91302cd95b9ffda50000000614bb3565b610fe09082614b04565b905060ff8416610ff08684614bb3565b901c915061100d826e02529ca9832b22439efff9b8000000614bb3565b6110179082614b04565b905060ff84166110278684614bb3565b901c9150611043826d54f1cf12bd04e516b6da88000000614bb3565b61104d9082614b04565b905060ff841661105d8684614bb3565b901c9150611079826d0a9e39e257a09ca2d6db51000000614bb3565b6110839082614b04565b905060ff84166110938684614bb3565b901c91506110af826d012e066e7b839fa050c309000000614bb3565b6110b99082614b04565b905060ff84166110c98684614bb3565b901c91506110e4826c1e33d7d926c329a1ad1a800000614bb3565b6110ee9082614b04565b905060ff84166110fe8684614bb3565b901c9150611119826c02bee513bdb4a6b19b5f800000614bb3565b6111239082614b04565b905060ff84166111338684614bb3565b901c915061114d826b3a9316fa79b88eccf2a00000614bb3565b6111579082614b04565b905060ff84166111678684614bb3565b901c9150611181826b048177ebe1fa812375200000614bb3565b61118b9082614b04565b905060ff841661119b8684614bb3565b901c91506111b4826a5263fe90242dcbacf00000614bb3565b6111be9082614b04565b905060ff84166111ce8684614bb3565b901c91506111e7826a057e22099c030d94100000614bb3565b6111f19082614b04565b905060ff84166112018684614bb3565b901c9150611219826957e22099c030d9410000614bb3565b6112239082614b04565b905060ff84166112338684614bb3565b901c915061124b8269052b6b54569976310000614bb3565b6112559082614b04565b905060ff84166112658684614bb3565b901c915061127c82684985f67696bf748000614bb3565b6112869082614b04565b905060ff84166112968684614bb3565b901c91506112ad826803dea12ea99e498000614bb3565b6112b79082614b04565b905060ff84166112c78684614bb3565b901c91506112dd826731880f2214b6e000614bb3565b6112e79082614b04565b905060ff84166112f78684614bb3565b901c915061130d8267025bcff56eb36000614bb3565b6113179082614b04565b905060ff84166113278684614bb3565b901c915061133c82661b722e10ab1000614bb3565b6113469082614b04565b905060ff84166113568684614bb3565b901c915061136b826601317c70077000614bb3565b6113759082614b04565b905060ff84166113858684614bb3565b901c915061139982650cba84aafa00614bb3565b6113a39082614b04565b905060ff84166113b38684614bb3565b901c91506113c6826482573a0a00614bb3565b6113d09082614b04565b905060ff84166113e08684614bb3565b901c91506113f3826405035ad900614bb3565b6113fd9082614b04565b905060ff841661140d8684614bb3565b901c915061141f82632f881b00614bb3565b6114299082614b04565b905060ff84166114398684614bb3565b901c915061144b826301b29340614bb3565b6114559082614b04565b905060ff84166114658684614bb3565b901c915061147682620efc40614bb3565b6114809082614b04565b905060ff84166114908684614bb3565b901c91506114a082617fe0614bb3565b6114aa9082614b04565b905060ff84166114ba8684614bb3565b901c91506114ca82610420614bb3565b6114d49082614b04565b905060ff84166114e48684614bb3565b901c91506114f3826021614bb3565b6114fd9082614b04565b905060ff841661150d8684614bb3565b901c915061151c826001614bb3565b6115269082614b04565b9050600160ff85161b8561154a6f0688589cc0e9505e2f2fee558000000084614c1f565b6115549190614b04565b61155e9190614b04565b95945050505050565b6040517fca22297900000000000000000000000000000000000000000000000000000000815273ffffffffffffffffffffffffffffffffffffffff8281166004830152600091829182919086169063ca22297990602401606060405180830381865afa1580156115db573d6000803e3d6000fd5b505050506040513d601f19601f820116820180604052508101906115ff9190614c33565b9250925092509250925092565b60008060008061161c8686611bd0565b915091506000808873ffffffffffffffffffffffffffffffffffffffff16630902f1ac6040518163ffffffff1660e01b8152600401606060405180830381865afa15801561166e573d6000803e3d6000fd5b505050506040513d601f19601f820116820180604052508101906116929190614c75565b506dffffffffffffffffffffffffffff1691506dffffffffffffffffffffffffffff1691508873ffffffffffffffffffffffffffffffffffffffff16630dfe16816040518163ffffffff1660e01b8152600401602060405180830381865afa158015611702573d6000803e3d6000fd5b505050506040513d601f19601f820116820180604052508101906117269190614ca6565b73ffffffffffffffffffffffffffffffffffffffff168473ffffffffffffffffffffffffffffffffffffffff161480156117f957508873ffffffffffffffffffffffffffffffffffffffff1663d21220a76040518163ffffffff1660e01b8152600401602060405180830381865afa1580156117a6573d6000803e3d6000fd5b505050506040513d601f19601f820116820180604052508101906117ca9190614ca6565b73ffffffffffffffffffffffffffffffffffffffff168373ffffffffffffffffffffffffffffffffffffffff16145b61185f576040517f08c379a000000000000000000000000000000000000000000000000000000000815260206004820152601d60248201527f5265717569656d466f726d756c613a20496e76616c696420746f6b656e0000006044820152606401610d05565b8373ffffffffffffffffffffffffffffffffffffffff168873ffffffffffffffffffffffffffffffffffffffff161461189957808261189c565b81815b909a909950975050505050505050565b60008084861015611919576040517f08c379a000000000000000000000000000000000000000000000000000000000815260206004820152601b60248201527f6e6f7420737570706f7274205f626173654e203c205f626173654400000000006044820152606401610d05565b700200000000000000000000000000000000861061193657600080fd5b600080866119546f800000000000000000000000000000008a614bb3565b61195e9190614c1f565b905070015bf0a8b1457695355fb8ac404e7a79e38110156119895761198281613163565b9150611995565b61199281611a96565b91505b60008563ffffffff168763ffffffff16846119b09190614bb3565b6119ba9190614c1f565b90507008000000000000000000000000000000008110156119ec576119de816129e5565b607f94509450505050611a20565b60006119f7826142b5565b9050611a13611a0782607f614cc3565b60ff1683901c82610f00565b95509350611a2092505050565b94509492505050565b600080610100831015611a5c575b6001831115611a5757600192831c92611a509082614ce6565b9050611a37565b611a90565b60805b60ff811615611a8e57600160ff82161b8410611a835760ff81169390931c92908117905b60011c607f16611a5f565b505b92915050565b6000807001000000000000000000000000000000008310611afa576000611ad06102976f8000000000000000000000000000000086614c1f565b60ff811694851c94909150611af6906f8000000000000000000000000000000090614bb3565b9150505b6f80000000000000000000000000000000831115611b9457607f5b60ff811615611b92576f80000000000000000000000000000000611b398580614bb3565b611b439190614c1f565b93507001000000000000000000000000000000008410611b8257600193841c93611b6d9082614cc3565b60ff166001901b82611b7f9190614b04565b91505b611b8b81614d0b565b9050611b15565b505b6f05b9de1d10bf4103d647b0955897ba80611bbf6f03f80fe03f80fe03f80fe03f80fe03f883614bb3565b611bc99190614c1f565b9392505050565b6000808273ffffffffffffffffffffffffffffffffffffffff168473ffffffffffffffffffffffffffffffffffffffff161415611c8f576040517f08c379a000000000000000000000000000000000000000000000000000000000815260206004820152602360248201527f5265717569656d466f726d756c613a204944454e544943414c5f41444452455360448201527f53455300000000000000000000000000000000000000000000000000000000006064820152608401610d05565b8273ffffffffffffffffffffffffffffffffffffffff168473ffffffffffffffffffffffffffffffffffffffff1610611cc9578284611ccc565b83835b909250905073ffffffffffffffffffffffffffffffffffffffff8216611d4e576040517f08c379a000000000000000000000000000000000000000000000000000000000815260206004820152601c60248201527f5265717569656d466f726d756c613a205a45524f5f41444452455353000000006044820152606401610d05565b9250929050565b6000806000806000806000808973ffffffffffffffffffffffffffffffffffffffff16630902f1ac6040518163ffffffff1660e01b8152600401606060405180830381865afa158015611dac573d6000803e3d6000fd5b505050506040513d601f19601f82011682018060405250810190611dd09190614c75565b506dffffffffffffffffffffffffffff1691506dffffffffffffffffffffffffffff169150600080611e018c614108565b8097508193508294505050508b73ffffffffffffffffffffffffffffffffffffffff16630dfe16816040518163ffffffff1660e01b8152600401602060405180830381865afa158015611e58573d6000803e3d6000fd5b505050506040513d601f19601f82011682018060405250810190611e7c9190614ca6565b73ffffffffffffffffffffffffffffffffffffffff168b73ffffffffffffffffffffffffffffffffffffffff161415611f33578b73ffffffffffffffffffffffffffffffffffffffff1663d21220a76040518163ffffffff1660e01b8152600401602060405180830381865afa158015611efa573d6000803e3d6000fd5b505050506040513d601f19601f82011682018060405250810190611f1e9190614ca6565b995092975090955093509150848484846120bb565b8b73ffffffffffffffffffffffffffffffffffffffff1663d21220a76040518163ffffffff1660e01b8152600401602060405180830381865afa158015611f7e573d6000803e3d6000fd5b505050506040513d601f19601f82011682018060405250810190611fa29190614ca6565b73ffffffffffffffffffffffffffffffffffffffff168b73ffffffffffffffffffffffffffffffffffffffff161415612059578b73ffffffffffffffffffffffffffffffffffffffff16630dfe16816040518163ffffffff1660e01b8152600401602060405180830381865afa158015612020573d6000803e3d6000fd5b505050506040513d601f19601f820116820180604052508101906120449190614ca6565b995091975091955093509150838583856120bb565b6040517f08c379a000000000000000000000000000000000000000000000000000000000815260206004820152601e60248201527f5265717569656d466f726d756c613a20496e76616c696420746f6b656e4100006044820152606401610d05565b505050509295509295509295565b6000806000806000806120dc8989611d55565b95509550955095509550506120f58785878587866139af565b9998505050505050505050565b6000808711612193576040517f08c379a000000000000000000000000000000000000000000000000000000000815260206004820152602960248201527f5265717569656d466f726d756c613a20494e53554646494349454e545f494e5060448201527f55545f414d4f554e5400000000000000000000000000000000000000000000006064820152608401610d05565b6000861180156121a35750600085115b61222f576040517f08c379a000000000000000000000000000000000000000000000000000000000815260206004820152602660248201527f5265717569656d466f726d756c613a20494e53554646494349454e545f4c495160448201527f55494449545900000000000000000000000000000000000000000000000000006064820152608401610d05565b600061225561224084612710614d46565b63ffffffff168961455390919063ffffffff16565b90508363ffffffff168563ffffffff16141561229d576122818161227b89612710614553565b9061455f565b61228b8783614553565b6122959190614c1f565b915050612302565b600080806122b18461227b8c612710614553565b90506122ca816122c38c612710614553565b8a8a6118ac565b909350915060006122db8a85614553565b905060ff83168a901b846122ef8284614d6b565b6122f99190614c1f565b96505050505050505b9695505050505050565b606081612375576040517f08c379a000000000000000000000000000000000000000000000000000000000815260206004820152601c60248201527f5265717569656d466f726d756c613a20494e56414c49445f50415448000000006044820152606401610d05565b612380826001614b04565b67ffffffffffffffff81111561239857612398614b1c565b6040519080825280602002602001820160405280156123c1578160200160208202803683370190505b5090508381600183516123d49190614d6b565b815181106123e4576123e4614b4b565b602090810291909101015284825b8015612496576000808080808061241f8f8c8c61241060018c614d6b565b818110610da757610da7614b4b565b95509550955095509550955061245289888151811061244057612440614b4b565b602002602001015185878587866139af565b8961245e60018a614d6b565b8151811061246e5761246e614b4b565b602002602001018181525050859750505050505050808061248e90614d82565b9150506123f2565b508673ffffffffffffffffffffffffffffffffffffffff168173ffffffffffffffffffffffffffffffffffffffff1614610ef5576040517f08c379a000000000000000000000000000000000000000000000000000000000815260206004820152602560248201527f5265717569656d466f726d756c613a20494e56414c49445f544f4b454e5f494e60448201527f5f504154480000000000000000000000000000000000000000000000000000006064820152608401610d05565b60008163ffffffff16603214156125805761256d8686614553565b6125778585614553565b1015905061155e565b8584101580156125905750848310155b1561259d5750600161155e565b8584111580156125ad5750848311155b156125ba5750600061155e565b8160006125c8826064614d46565b90506000806000808b8a10612606576125e48b8a8760326118ac565b90945060ff1692506125f98a8d8860326118ac565b90925060ff169050612631565b6126138c8b8860326118ac565b90945060ff169250612628898c8760326118ac565b90925060ff1690505b60008184106126405781612642565b835b905061264e8185614d6b565b935061265a8183614d6b565b9290921c9390921c92909211159a9950505050505050505050565b6000806000806000806126888989611d55565b95509550955095509550506120f5878686868686612102565b60608161270a576040517f08c379a000000000000000000000000000000000000000000000000000000000815260206004820152601c60248201527f5265717569656d466f726d756c613a20494e56414c49445f50415448000000006044820152606401610d05565b612715826001614b04565b67ffffffffffffffff81111561272d5761272d614b1c565b604051908082528060200260200182016040528015612756578160200160208202803683370190505b509050838160008151811061276d5761276d614b4b565b60209081029190910101528560005b83811015612822576000806000806000806127bd8b8b898181106127a2576127a2614b4b565b90506020020160208101906127b79190614ab8565b89611d55565b9550955095509550955095506127de898881518110610de357610de3614b4b565b896127ea896001614b04565b815181106127fa576127fa614b4b565b602002602001018181525050859750505050505050808061281a90614b7a565b91505061277c565b508573ffffffffffffffffffffffffffffffffffffffff168173ffffffffffffffffffffffffffffffffffffffff16146128de576040517f08c379a000000000000000000000000000000000000000000000000000000000815260206004820152602660248201527f5265717569656d466f726d756c613a20494e56414c49445f544f4b454e5f4f5560448201527f545f5041544800000000000000000000000000000000000000000000000000006064820152608401610d05565b5095945050505050565b60006dffffffffffffffffffffffffffff8316156129695760008061293c6129236dffffffffffffffffffffffffffff878116908c1661455f565b8a6dffffffffffffffffffffffffffff168960646118ac565b90925060ff1690506129648a61295e836129568387614553565b87911c61455f565b9061457c565b925050505b6dffffffffffffffffffffffffffff8216156129da576000806129bb6129a26dffffffffffffffffffffffffffff868116908b1661455f565b896dffffffffffffffffffffffffffff168860646118ac565b90925060ff1690506129d58a61295e836129568387614553565b925050505b979650505050505050565b6000808080612a046f1000000000000000000000000000000086614db7565b91508190506f80000000000000000000000000000000612a248280614bb3565b612a2e9190614c1f565b9050612a42816710e1b3be415a0000614bb3565b612a4c9084614b04565b92506f80000000000000000000000000000000612a698383614bb3565b612a739190614c1f565b9050612a87816705a0913f6b1e0000614bb3565b612a919084614b04565b92506f80000000000000000000000000000000612aae8383614bb3565b612ab89190614c1f565b9050612acc81670168244fdac78000614bb3565b612ad69084614b04565b92506f80000000000000000000000000000000612af38383614bb3565b612afd9190614c1f565b9050612b1081664807432bc18000614bb3565b612b1a9084614b04565b92506f80000000000000000000000000000000612b378383614bb3565b612b419190614c1f565b9050612b5481660c0135dca04000614bb3565b612b5e9084614b04565b92506f80000000000000000000000000000000612b7b8383614bb3565b612b859190614c1f565b9050612b98816601b707b1cdc000614bb3565b612ba29084614b04565b92506f80000000000000000000000000000000612bbf8383614bb3565b612bc99190614c1f565b9050612bdb816536e0f639b800614bb3565b612be59084614b04565b92506f80000000000000000000000000000000612c028383614bb3565b612c0c9190614c1f565b9050612c1e81650618fee9f800614bb3565b612c289084614b04565b92506f80000000000000000000000000000000612c458383614bb3565b612c4f9190614c1f565b9050612c6081649c197dcc00614bb3565b612c6a9084614b04565b92506f80000000000000000000000000000000612c878383614bb3565b612c919190614c1f565b9050612ca281640e30dce400614bb3565b612cac9084614b04565b92506f80000000000000000000000000000000612cc98383614bb3565b612cd39190614c1f565b9050612ce48164012ebd1300614bb3565b612cee9084614b04565b92506f80000000000000000000000000000000612d0b8383614bb3565b612d159190614c1f565b9050612d25816317499f00614bb3565b612d2f9084614b04565b92506f80000000000000000000000000000000612d4c8383614bb3565b612d569190614c1f565b9050612d66816301a9d480614bb3565b612d709084614b04565b92506f80000000000000000000000000000000612d8d8383614bb3565b612d979190614c1f565b9050612da681621c6380614bb3565b612db09084614b04565b92506f80000000000000000000000000000000612dcd8383614bb3565b612dd79190614c1f565b9050612de6816201c638614bb3565b612df09084614b04565b92506f80000000000000000000000000000000612e0d8383614bb3565b612e179190614c1f565b9050612e2581611ab8614bb3565b612e2f9084614b04565b92506f80000000000000000000000000000000612e4c8383614bb3565b612e569190614c1f565b9050612e648161017c614bb3565b612e6e9084614b04565b92506f80000000000000000000000000000000612e8b8383614bb3565b612e959190614c1f565b9050612ea2816014614bb3565b612eac9084614b04565b92506f80000000000000000000000000000000612ec98383614bb3565b612ed39190614c1f565b9050612ee0816001614bb3565b612eea9084614b04565b92506f8000000000000000000000000000000082612f106721c3677c82b4000086614c1f565b612f1a9190614b04565b612f249190614b04565b92506f10000000000000000000000000000000851615612f785770018ebef9eac820ae8682b9793ac6d1e776612f6b847001c3d6a24ed82218787d624d3e5eba95f9614bb3565b612f759190614c1f565b92505b6f20000000000000000000000000000000851615612fca577001368b2fc6f9609fe7aceb46aa619baed4612fbd8470018ebef9eac820ae8682b9793ac6d1e778614bb3565b612fc79190614c1f565b92505b6f4000000000000000000000000000000085161561301b576fbc5ab1b16779be3575bd8f0520a9f21f61300e847001368b2fc6f9609fe7aceb46aa619baed5614bb3565b6130189190614c1f565b92505b6f8000000000000000000000000000000085161561306b576f454aaa8efe072e7f6ddbab84b40a55c961305e846fbc5ab1b16779be3575bd8f0520a9f21e614bb3565b6130689190614c1f565b92505b7001000000000000000000000000000000008516156130bc576f0960aadc109e7a3bf4578099615711ea6130af846f454aaa8efe072e7f6ddbab84b40a55c5614bb3565b6130b99190614c1f565b92505b70020000000000000000000000000000000085161561310c576e2bf84208204f5977f9a8cf01fdce3d6130ff846f0960aadc109e7a3bf4578099615711d7614bb3565b6131099190614c1f565b92505b70040000000000000000000000000000000085161561315a576d03c6ab775dd0b95b4cbee7e65d1161314d846e2bf84208204f5977f9a8cf01fdc307614bb3565b6131579190614c1f565b92505b50909392505050565b6000808080806fd3094c70f034de4b96ff7d5b6f99fcd886106131d45761319a6f4000000000000000000000000000000085614b04565b93506fd3094c70f034de4b96ff7d5b6f99fcd86131c76f8000000000000000000000000000000088614bb3565b6131d19190614c1f565b95505b6fa45af1e1f40c333b3de1db4dd55f29a7861061323f576132056f2000000000000000000000000000000085614b04565b93506fa45af1e1f40c333b3de1db4dd55f29a76132326f8000000000000000000000000000000088614bb3565b61323c9190614c1f565b95505b6f910b022db7ae67ce76b441c27035c6a186106132aa576132706f1000000000000000000000000000000085614b04565b93506f910b022db7ae67ce76b441c27035c6a161329d6f8000000000000000000000000000000088614bb3565b6132a79190614c1f565b95505b6f88415abbe9a76bead8d00cf112e4d4a88610613315576132db6f0800000000000000000000000000000085614b04565b93506f88415abbe9a76bead8d00cf112e4d4a86133086f8000000000000000000000000000000088614bb3565b6133129190614c1f565b95505b6f84102b00893f64c705e841d5d4064bd38610613380576133466f0400000000000000000000000000000085614b04565b93506f84102b00893f64c705e841d5d4064bd36133736f8000000000000000000000000000000088614bb3565b61337d9190614c1f565b95505b6f8204055aaef1c8bd5c3259f4822735a286106133eb576133b16f0200000000000000000000000000000085614b04565b93506f8204055aaef1c8bd5c3259f4822735a26133de6f8000000000000000000000000000000088614bb3565b6133e89190614c1f565b95505b6f810100ab00222d861931c15e39b44e9986106134565761341c6f0100000000000000000000000000000085614b04565b93506f810100ab00222d861931c15e39b44e996134496f8000000000000000000000000000000088614bb3565b6134539190614c1f565b95505b6f808040155aabbbe9451521693554f73386106134c0576134866e80000000000000000000000000000085614b04565b93506f808040155aabbbe9451521693554f7336134b36f8000000000000000000000000000000088614bb3565b6134bd9190614c1f565b95505b6134da6f8000000000000000000000000000000087614d6b565b92508291506f800000000000000000000000000000006134fa8380614bb3565b6135049190614c1f565b90507001000000000000000000000000000000006135228482614d6b565b61352c9084614bb3565b6135369190614c1f565b6135409085614b04565b93506f8000000000000000000000000000000061355d8284614bb3565b6135679190614c1f565b9150700200000000000000000000000000000000613595846faaaaaaaaaaaaaaaaaaaaaaaaaaaaaaaa614d6b565b61359f9084614bb3565b6135a99190614c1f565b6135b39085614b04565b93506f800000000000000000000000000000006135d08284614bb3565b6135da9190614c1f565b9150700300000000000000000000000000000000613608846f99999999999999999999999999999999614d6b565b6136129084614bb3565b61361c9190614c1f565b6136269085614b04565b93506f800000000000000000000000000000006136438284614bb3565b61364d9190614c1f565b915070040000000000000000000000000000000061367b846f92492492492492492492492492492492614d6b565b6136859084614bb3565b61368f9190614c1f565b6136999085614b04565b93506f800000000000000000000000000000006136b68284614bb3565b6136c09190614c1f565b91507005000000000000000000000000000000006136ee846f8e38e38e38e38e38e38e38e38e38e38e614d6b565b6136f89084614bb3565b6137029190614c1f565b61370c9085614b04565b93506f800000000000000000000000000000006137298284614bb3565b6137339190614c1f565b9150700600000000000000000000000000000000613761846f8ba2e8ba2e8ba2e8ba2e8ba2e8ba2e8b614d6b565b61376b9084614bb3565b6137759190614c1f565b61377f9085614b04565b93506f8000000000000000000000000000000061379c8284614bb3565b6137a69190614c1f565b91507007000000000000000000000000000000006137d4846f89d89d89d89d89d89d89d89d89d89d89614d6b565b6137de9084614bb3565b6137e89190614c1f565b6137f29085614b04565b93506f8000000000000000000000000000000061380f8284614bb3565b6138199190614c1f565b9150700800000000000000000000000000000000613847846f88888888888888888888888888888888614d6b565b6138519084614bb3565b61385b9190614c1f565b6123029085614b04565b60008084116138f6576040517f08c379a000000000000000000000000000000000000000000000000000000000815260206004820152602360248201527f5265717569656d466f726d756c613a20494e53554646494349454e545f414d4f60448201527f554e5400000000000000000000000000000000000000000000000000000000006064820152608401610d05565b6000831180156139065750600082115b613992576040517f08c379a000000000000000000000000000000000000000000000000000000000815260206004820152602660248201527f5265717569656d466f726d756c613a20494e53554646494349454e545f4c495160448201527f55494449545900000000000000000000000000000000000000000000000000006064820152608401610d05565b8261399d8584614553565b6139a79190614c1f565b949350505050565b6000808711613a40576040517f08c379a000000000000000000000000000000000000000000000000000000000815260206004820152602a60248201527f5265717569656d466f726d756c613a20494e53554646494349454e545f4f555460448201527f5055545f414d4f554e54000000000000000000000000000000000000000000006064820152608401610d05565b600086118015613a505750600085115b613adc576040517f08c379a000000000000000000000000000000000000000000000000000000000815260206004820152602660248201527f5265717569656d466f726d756c613a20494e53554646494349454e545f4c495160448201527f55494449545900000000000000000000000000000000000000000000000000006064820152608401610d05565b8263ffffffff168463ffffffff161415613b4e576000613b08612710613b02898b614553565b90614553565b90506000613b34613b1b85612710614d46565b63ffffffff16613b028b8a61457c90919063ffffffff16565b9050613b45600161227b8385614c1f565b92505050612302565b60008080613b5c888b61457c565b9050613b6a8882888a6118ac565b90935091506000613b7d8a612710614553565b90506000613b8b8286614553565b905060ff841682901b6122f96001613ba58a612710614d46565b63ffffffff1660ff8816613bb98587614d6b565b61227b92911c614c1f565b6000806000806000806000808973ffffffffffffffffffffffffffffffffffffffff16630902f1ac6040518163ffffffff1660e01b8152600401606060405180830381865afa158015613c1b573d6000803e3d6000fd5b505050506040513d601f19601f82011682018060405250810190613c3f9190614c75565b506dffffffffffffffffffffffffffff1691506dffffffffffffffffffffffffffff169150600080613c718d8d611567565b8097508193508294505050508b73ffffffffffffffffffffffffffffffffffffffff16630dfe16816040518163ffffffff1660e01b8152600401602060405180830381865afa158015613cc8573d6000803e3d6000fd5b505050506040513d601f19601f82011682018060405250810190613cec9190614ca6565b73ffffffffffffffffffffffffffffffffffffffff168b73ffffffffffffffffffffffffffffffffffffffff161415613da3578b73ffffffffffffffffffffffffffffffffffffffff1663d21220a76040518163ffffffff1660e01b8152600401602060405180830381865afa158015613d6a573d6000803e3d6000fd5b505050506040513d601f19601f82011682018060405250810190613d8e9190614ca6565b99509297509095509350915084848484613ec5565b8b73ffffffffffffffffffffffffffffffffffffffff1663d21220a76040518163ffffffff1660e01b8152600401602060405180830381865afa158015613dee573d6000803e3d6000fd5b505050506040513d601f19601f82011682018060405250810190613e129190614ca6565b73ffffffffffffffffffffffffffffffffffffffff168b73ffffffffffffffffffffffffffffffffffffffff161415612059578b73ffffffffffffffffffffffffffffffffffffffff16630dfe16816040518163ffffffff1660e01b8152600401602060405180830381865afa158015613e90573d6000803e3d6000fd5b505050506040513d601f19601f82011682018060405250810190613eb49190614ca6565b995091975091955093509150838583855b5050505093975093979195509350565b606081613f3e576040517f08c379a000000000000000000000000000000000000000000000000000000000815260206004820152601c60248201527f5265717569656d466f726d756c613a20494e56414c49445f50415448000000006044820152606401610d05565b613f49826001614b04565b67ffffffffffffffff811115613f6157613f61614b1c565b604051908082528060200260200182016040528015613f8a578160200160208202803683370190505b509050838160018351613f9d9190614d6b565b81518110613fad57613fad614b4b565b602090810291909101015284825b801561404c5760008080808080613fe78b8b613fd860018b614d6b565b8181106127a2576127a2614b4b565b95509550955095509550955061400889888151811061244057612440614b4b565b8961401460018a614d6b565b8151811061402457614024614b4b565b602002602001018181525050859750505050505050808061404490614d82565b915050613fbb565b508673ffffffffffffffffffffffffffffffffffffffff168173ffffffffffffffffffffffffffffffffffffffff16146128de576040517f08c379a000000000000000000000000000000000000000000000000000000000815260206004820152602560248201527f5265717569656d466f726d756c613a20494e56414c49445f544f4b454e5f494e60448201527f5f504154480000000000000000000000000000000000000000000000000000006064820152608401610d05565b60008060008373ffffffffffffffffffffffffffffffffffffffff166332bfe4696040518163ffffffff1660e01b81526004016040805180830381865afa925050508015614191575060408051601f3d9081017fffffffffffffffffffffffffffffffffffffffffffffffffffffffffffffffe016820190925261418e91810190614dcb565b60015b6142345761419d614dfa565b806308c379a014156141f157506141b2614e88565b806141bd57506141f3565b806040517f08c379a0000000000000000000000000000000000000000000000000000000008152600401610d059190614f30565b505b3d80801561421d576040519150601f19603f3d011682016040523d82523d6000602084013e614222565b606091505b50603280601e935093509350506142ae565b81818773ffffffffffffffffffffffffffffffffffffffff1663d4cadf686040518163ffffffff1660e01b8152600401602060405180830381865afa158015614281573d6000803e3d6000fd5b505050506040513d601f19601f820116820180604052508101906142a59190614fa3565b94509450945050505b9193909250565b60006020607f5b60ff81166142cb836001614ce6565b60ff16101561431e57600060026142e28385614ce6565b6142ec9190614fc0565b90508460008260ff166080811061430557614305614b4b565b01541061431457809250614318565b8091505b506142bc565b8360008260ff166080811061433557614335614b4b565b015410614343579392505050565b8360008360ff166080811061435a5761435a614b4b565b0154106101ae575092915050565b6000808373ffffffffffffffffffffffffffffffffffffffff16630dfe16816040518163ffffffff1660e01b8152600401602060405180830381865afa1580156143b6573d6000803e3d6000fd5b505050506040513d601f19601f820116820180604052508101906143da9190614ca6565b905060008473ffffffffffffffffffffffffffffffffffffffff1663d21220a76040518163ffffffff1660e01b8152600401602060405180830381865afa158015614429573d6000803e3d6000fd5b505050506040513d601f19601f8201168201806040525081019061444d9190614ca6565b90508373ffffffffffffffffffffffffffffffffffffffff168273ffffffffffffffffffffffffffffffffffffffff1614806144b457508373ffffffffffffffffffffffffffffffffffffffff168173ffffffffffffffffffffffffffffffffffffffff16145b61451a576040517f08c379a000000000000000000000000000000000000000000000000000000000815260206004820152601e60248201527f5265717569656d466f726d756c613a20496e76616c696420746f6b656e4100006044820152606401610d05565b8373ffffffffffffffffffffffffffffffffffffffff168273ffffffffffffffffffffffffffffffffffffffff16146139a7578161155e565b6000611bc98284614bb3565b60008061456c8385614b04565b9050611bc984821015600061458a565b6000611bc98383600161459c565b8161459857614598816145b7565b5050565b60006145ab848411158361458a565b600061155e8486614d6b565b7f08c379a0000000000000000000000000000000000000000000000000000000006000908152602060045260076024526652455123000030600a808404818106603090810160081b95839006959095019082900491820690940160101b939093010160c81b604452606490fd5b73ffffffffffffffffffffffffffffffffffffffff8116811461464657600080fd5b50565b60008083601f84011261465b57600080fd5b50813567ffffffffffffffff81111561467357600080fd5b6020830191508360208260051b8501011115611d4e57600080fd5b60008060008060008060a087890312156146a757600080fd5b86356146b281614624565b955060208701356146c281614624565b945060408701356146d281614624565b935060608701359250608087013567ffffffffffffffff8111156146f557600080fd5b61470189828a01614649565b979a9699509497509295939492505050565b6020808252825182820181905260009190848201906040850190845b8181101561474b5783518352928401929184019160010161472f565b50909695505050505050565b6000806040838503121561476a57600080fd5b82359150602083013560ff8116811461478257600080fd5b809150509250929050565b600080604083850312156147a057600080fd5b82356147ab81614624565b9150602083013561478281614624565b6000806000606084860312156147d057600080fd5b83356147db81614624565b925060208401356147eb81614624565b915060408401356147fb81614624565b809150509250925092565b63ffffffff8116811461464657600080fd5b6000806000806080858703121561482e57600080fd5b8435935060208501359250604085013561484781614806565b9150606085013561485781614806565b939692955090935050565b60006020828403121561487457600080fd5b5035919050565b60008060006060848603121561489057600080fd5b833561489b81614624565b925060208401356148ab81614624565b929592945050506040919091013590565b60008060008060008060c087890312156148d557600080fd5b86359550602087013594506040870135935060608701356148f581614806565b9250608087013561490581614806565b915060a087013561491581614806565b809150509295509295509295565b600080600080600060a0868803121561493b57600080fd5b85359450602086013593506040860135925060608601359150608086013561496281614806565b809150509295509295909350565b60008060008060006080868803121561498857600080fd5b853561499381614624565b945060208601356149a381614624565b935060408601359250606086013567ffffffffffffffff8111156149c657600080fd5b6149d288828901614649565b969995985093965092949392505050565b6dffffffffffffffffffffffffffff8116811461464657600080fd5b600080600080600080600060e0888a031215614a1a57600080fd5b873596506020880135614a2c816149e3565b95506040880135614a3c816149e3565b94506060880135614a4c81614806565b93506080880135614a5c81614806565b925060a0880135614a6c816149e3565b915060c0880135614a7c816149e3565b8091505092959891949750929550565b600080600060608486031215614aa157600080fd5b505081359360208301359350604090920135919050565b600060208284031215614aca57600080fd5b8135611bc981614624565b7f4e487b7100000000000000000000000000000000000000000000000000000000600052601160045260246000fd5b60008219821115614b1757614b17614ad5565b500190565b7f4e487b7100000000000000000000000000000000000000000000000000000000600052604160045260246000fd5b7f4e487b7100000000000000000000000000000000000000000000000000000000600052603260045260246000fd5b60007fffffffffffffffffffffffffffffffffffffffffffffffffffffffffffffffff821415614bac57614bac614ad5565b5060010190565b6000817fffffffffffffffffffffffffffffffffffffffffffffffffffffffffffffffff0483118215151615614beb57614beb614ad5565b500290565b7f4e487b7100000000000000000000000000000000000000000000000000000000600052601260045260246000fd5b600082614c2e57614c2e614bf0565b500490565b600080600060608486031215614c4857600080fd5b8351614c5381614806565b6020850151909350614c6481614806565b60408501519092506147fb81614806565b600080600060608486031215614c8a57600080fd5b8351614c95816149e3565b6020850151909350614c64816149e3565b600060208284031215614cb857600080fd5b8151611bc981614624565b600060ff821660ff841680821015614cdd57614cdd614ad5565b90039392505050565b600060ff821660ff84168060ff03821115614d0357614d03614ad5565b019392505050565b600060ff821680614d1e57614d1e614ad5565b7fffffffffffffffffffffffffffffffffffffffffffffffffffffffffffffffff0192915050565b600063ffffffff83811690831681811015614d6357614d63614ad5565b039392505050565b600082821015614d7d57614d7d614ad5565b500390565b600081614d9157614d91614ad5565b507fffffffffffffffffffffffffffffffffffffffffffffffffffffffffffffffff0190565b600082614dc657614dc6614bf0565b500690565b60008060408385031215614dde57600080fd5b8251614de981614806565b602084015190925061478281614806565b600060033d1115614e135760046000803e5060005160e01c5b90565b7fffffffffffffffffffffffffffffffffffffffffffffffffffffffffffffffe0601f830116810181811067ffffffffffffffff82111715614e81577f4e487b7100000000000000000000000000000000000000000000000000000000600052604160045260246000fd5b6040525050565b600060443d1015614e965790565b6040517ffffffffffffffffffffffffffffffffffffffffffffffffffffffffffffffffc803d016004833e81513d67ffffffffffffffff8160248401118184111715614ee457505050505090565b8285019150815181811115614efc5750505050505090565b843d8701016020828501011115614f165750505050505090565b614f2560208286010187614e16565b509095945050505050565b600060208083528351808285015260005b81811015614f5d57858101830151858201604001528201614f41565b81811115614f6f576000604083870101525b50601f017fffffffffffffffffffffffffffffffffffffffffffffffffffffffffffffffe016929092016040019392505050565b600060208284031215614fb557600080fd5b8151611bc981614806565b600060ff831680614fd357614fd3614bf0565b8060ff8416049150509291505056fea2646970667358221220a1f37f741bbd849d9fa28a3f76d7060c55275974547665fdd37e54cc4d5fdfeb64736f6c634300080a0033",
  "devdoc": {
    "kind": "dev",
    "methods": {
      "findPositionInMaxExpArray(uint256)": {
        "details": "the global \"maxExpArray\" is sorted in descending order, and therefore the following statements are equivalent: - This function finds the position of [the smallest value in \"maxExpArray\" larger than or equal to \"x\"] - This function finds the highest position of [a value in \"maxExpArray\" larger than or equal to \"x\"]"
      },
      "floorLog2(uint256)": {
        "details": "computes the largest integer smaller than or equal to the binary logarithm of the input."
      },
      "generalExp(uint256,uint8)": {
        "details": "this function can be auto-generated by the script \"PrintFunctionGeneralExp.py\". it approximates \"e ^ x\" via maclaurin summation: \"(x^0)/0! + (x^1)/1! + ... + (x^n)/n!\". it returns \"e ^ (x / 2 ^ precision) * 2 ^ precision\", that is, the result is upshifted for accuracy. the global \"maxExpArray\" maps each \"precision\" to \"((maximumExponent + 1) << (MAX_PRECISION - precision)) - 1\". the maximum permitted value for \"x\" is therefore given by \"maxExpArray[precision] >> (MAX_PRECISION - precision)\"."
      },
      "generalLog(uint256)": {
        "details": "computes log(x / FIXED_1) * FIXED_1. This functions assumes that \"x >= FIXED_1\", because the output would be negative otherwise."
      },
      "getAmountIn(uint256,uint256,uint256,uint32,uint32,uint32)": {
        "details": "given an output amount of an asset and pair reserves, returns a required input amount of the other asset Formula: return = reserveIn * ( (reserveOut / (reserveOut - amountOut)) ^ (tokenWeightOut / tokenWeightIn) - 1) * (10000/ (10000 - swapFee)",
        "params": {
          "amountOut": "target reserve amount",
          "reserveIn": "source reserve balance",
          "reserveOut": "target reserve balance",
          "swapFee": "swap fee of the conversion",
          "tokenWeightIn": "source reserve weight, represented in ppm (2-98)",
          "tokenWeightOut": "target reserve weight, represented in ppm (2-98)"
        },
        "returns": {
          "amountIn": "amountIn"
        }
      },
      "getAmountOut(uint256,uint256,uint256,uint32,uint32,uint32)": {
        "details": "given an input amount of an asset and pair reserves, returns the maximum output amount of the other asset, Formula: return = reserveOut * (1 - (reserveIn * 10000 / (reserveIn * 10000 + amountIn * (10000 - swapFee))) ^ (tokenWeightIn / tokenWeightOut))",
        "params": {
          "amountIn": "source reserve amount",
          "reserveIn": "source reserve balance",
          "reserveOut": "target reserve balance",
          "swapFee": "swap fee of the conversion",
          "tokenWeightIn": "source reserve weight, represented in ppm (2-98)",
          "tokenWeightOut": "target reserve weight, represented in ppm (2-98)"
        },
        "returns": {
          "amountOut": "amountOut"
        }
      },
      "optimalExp(uint256)": {
        "details": "computes e ^ (x / FIXED_1) * FIXED_1 input range: 0 <= x <= OPT_EXP_MAX_VAL - 1 auto-generated via \"PrintFunctionOptimalExp.py\" Detailed description: - Rewrite the input as a sum of binary exponents and a single residual r, as small as possible - The exponentiation of each binary exponent is given (pre-calculated) - The exponentiation of r is calculated via Taylor series for e^x, where x = r - The exponentiation of the input is calculated by multiplying the intermediate results above - For example: e^5.521692859 = e^(4 + 1 + 0.5 + 0.021692859) = e^4 * e^1 * e^0.5 * e^0.021692859"
      },
      "optimalLog(uint256)": {
        "details": "computes log(x / FIXED_1) * FIXED_1 Input range: FIXED_1 <= x <= OPT_LOG_MAX_VAL - 1 Auto-generated via \"PrintFunctionOptimalLog.py\" Detailed description: - Rewrite the input as a product of natural exponents and a single residual r, such that 1 < r < 2 - The natural logarithm of each (pre-calculated) exponent is the degree of the exponent - The natural logarithm of r is calculated via Taylor series for log(1 + x), where x = r - 1 - The natural logarithm of the input is calculated by summing up the intermediate results above - For example: log(250) = log(e^4 * e^1 * e^0.5 * 1.021692859) = 4 + 1 + 0.5 + log(1 + 0.021692859)"
      },
      "power(uint256,uint256,uint32,uint32)": {
        "details": "General Description:     Determine a value of precision.     Calculate an integer approximation of (_baseN / _baseD) ^ (_expN / _expD) * 2 ^ precision.     Return the result along with the precision used. Detailed Description:     Instead of calculating \"base ^ exp\", we calculate \"e ^ (log(base) * exp)\".     The value of \"log(base)\" is represented with an integer slightly smaller than \"log(base) * 2 ^ precision\".     The larger \"precision\" is, the more accurately this value represents the real value.     However, the larger \"precision\" is, the more bits are required in order to store this value.     And the exponentiation function, which takes \"x\" and calculates \"e ^ x\", is limited to a maximum exponent (maximum value of \"x\").     This maximum exponent depends on the \"precision\" used, and it is given by \"maxExpArray[precision] >> (MAX_PRECISION - precision)\".     Hence we need to determine the highest precision which can be used for the given input, before calling the exponentiation function.     This allows us to compute \"base ^ exp\" with maximum accuracy and without exceeding 256 bits in any of the intermediate computations.     This functions assumes that \"_expN < 2 ^ 256 / log(MAX_NUM - 1)\", otherwise the multiplication should be replaced with a \"safeMul\".     Since we rely on unsigned-integer arithmetic and \"base < 1\" ==> \"log(base) < 0\", this function does not support \"_baseN < _baseD\"."
      }
    },
    "version": 1
  },
  "userdoc": {
    "kind": "user",
    "methods": {},
    "version": 1
  },
  "storageLayout": {
    "storage": [
      {
        "astId": 5335,
        "contract": "contracts/RequiemFormulaTest.sol:RequiemFormulaTest",
        "label": "maxExpArray",
        "offset": 0,
        "slot": "0",
        "type": "t_array(t_uint256)128_storage"
      }
    ],
    "types": {
      "t_array(t_uint256)128_storage": {
        "base": "t_uint256",
        "encoding": "inplace",
        "label": "uint256[128]",
        "numberOfBytes": "4096"
      },
      "t_uint256": {
        "encoding": "inplace",
        "label": "uint256",
        "numberOfBytes": "32"
      }
    }
  }
}