{
  "address": "0x0DCd1Bf9A1b36cE34237eEaFef220932846BCD82",
  "abi": [
    {
      "inputs": [
        {
          "internalType": "address",
          "name": "_factory",
          "type": "address"
        },
        {
          "internalType": "address",
          "name": "_WETH",
          "type": "address"
        }
      ],
      "stateMutability": "nonpayable",
      "type": "constructor"
    },
    {
      "inputs": [],
      "name": "WETH",
      "outputs": [
        {
          "internalType": "address",
          "name": "",
          "type": "address"
        }
      ],
      "stateMutability": "view",
      "type": "function"
    },
    {
      "inputs": [
        {
          "internalType": "address",
          "name": "pair",
          "type": "address"
        },
        {
          "internalType": "address",
          "name": "tokenA",
          "type": "address"
        },
        {
          "internalType": "address",
          "name": "tokenB",
          "type": "address"
        },
        {
          "internalType": "uint256",
          "name": "amountADesired",
          "type": "uint256"
        },
        {
          "internalType": "uint256",
          "name": "amountBDesired",
          "type": "uint256"
        },
        {
          "internalType": "uint256",
          "name": "amountAMin",
          "type": "uint256"
        },
        {
          "internalType": "uint256",
          "name": "amountBMin",
          "type": "uint256"
        },
        {
          "internalType": "address",
          "name": "to",
          "type": "address"
        },
        {
          "internalType": "uint256",
          "name": "deadline",
          "type": "uint256"
        }
      ],
      "name": "addLiquidity",
      "outputs": [
        {
          "internalType": "uint256",
          "name": "amountA",
          "type": "uint256"
        },
        {
          "internalType": "uint256",
          "name": "amountB",
          "type": "uint256"
        },
        {
          "internalType": "uint256",
          "name": "liquidity",
          "type": "uint256"
        }
      ],
      "stateMutability": "nonpayable",
      "type": "function"
    },
    {
      "inputs": [
        {
          "internalType": "address",
          "name": "pair",
          "type": "address"
        },
        {
          "internalType": "address",
          "name": "token",
          "type": "address"
        },
        {
          "internalType": "uint256",
          "name": "amountTokenDesired",
          "type": "uint256"
        },
        {
          "internalType": "uint256",
          "name": "amountTokenMin",
          "type": "uint256"
        },
        {
          "internalType": "uint256",
          "name": "amountETHMin",
          "type": "uint256"
        },
        {
          "internalType": "address",
          "name": "to",
          "type": "address"
        },
        {
          "internalType": "uint256",
          "name": "deadline",
          "type": "uint256"
        }
      ],
      "name": "addLiquidityETH",
      "outputs": [
        {
          "internalType": "uint256",
          "name": "amountToken",
          "type": "uint256"
        },
        {
          "internalType": "uint256",
          "name": "amountETH",
          "type": "uint256"
        },
        {
          "internalType": "uint256",
          "name": "liquidity",
          "type": "uint256"
        }
      ],
      "stateMutability": "payable",
      "type": "function"
    },
    {
      "inputs": [
        {
          "internalType": "address",
          "name": "tokenA",
          "type": "address"
        },
        {
          "internalType": "address",
          "name": "tokenB",
          "type": "address"
        },
        {
          "internalType": "uint256",
          "name": "amountA",
          "type": "uint256"
        },
        {
          "internalType": "uint256",
          "name": "amountB",
          "type": "uint256"
        },
        {
          "internalType": "uint32",
          "name": "tokenWeightA",
          "type": "uint32"
        },
        {
          "internalType": "uint32",
          "name": "swapFee",
          "type": "uint32"
        },
        {
          "internalType": "address",
          "name": "to",
          "type": "address"
        }
      ],
      "name": "createPair",
      "outputs": [
        {
          "internalType": "uint256",
          "name": "liquidity",
          "type": "uint256"
        }
      ],
      "stateMutability": "nonpayable",
      "type": "function"
    },
    {
      "inputs": [
        {
          "internalType": "address",
          "name": "token",
          "type": "address"
        },
        {
          "internalType": "uint256",
          "name": "amountToken",
          "type": "uint256"
        },
        {
          "internalType": "uint32",
          "name": "tokenWeight",
          "type": "uint32"
        },
        {
          "internalType": "uint32",
          "name": "swapFee",
          "type": "uint32"
        },
        {
          "internalType": "address",
          "name": "to",
          "type": "address"
        }
      ],
      "name": "createPairETH",
      "outputs": [
        {
          "internalType": "uint256",
          "name": "liquidity",
          "type": "uint256"
        }
      ],
      "stateMutability": "payable",
      "type": "function"
    },
    {
      "inputs": [],
      "name": "factory",
      "outputs": [
        {
          "internalType": "address",
          "name": "",
          "type": "address"
        }
      ],
      "stateMutability": "view",
      "type": "function"
    },
    {
      "inputs": [],
      "name": "formula",
      "outputs": [
        {
          "internalType": "address",
          "name": "",
          "type": "address"
        }
      ],
      "stateMutability": "view",
      "type": "function"
    },
    {
      "inputs": [
        {
          "internalType": "address",
          "name": "pair",
          "type": "address"
        },
        {
          "internalType": "address",
          "name": "tokenA",
          "type": "address"
        },
        {
          "internalType": "address",
          "name": "tokenB",
          "type": "address"
        },
        {
          "internalType": "uint256",
          "name": "liquidity",
          "type": "uint256"
        },
        {
          "internalType": "uint256",
          "name": "amountAMin",
          "type": "uint256"
        },
        {
          "internalType": "uint256",
          "name": "amountBMin",
          "type": "uint256"
        },
        {
          "internalType": "address",
          "name": "to",
          "type": "address"
        },
        {
          "internalType": "uint256",
          "name": "deadline",
          "type": "uint256"
        }
      ],
      "name": "removeLiquidity",
      "outputs": [
        {
          "internalType": "uint256",
          "name": "amountA",
          "type": "uint256"
        },
        {
          "internalType": "uint256",
          "name": "amountB",
          "type": "uint256"
        }
      ],
      "stateMutability": "nonpayable",
      "type": "function"
    },
    {
      "inputs": [
        {
          "internalType": "address",
          "name": "pair",
          "type": "address"
        },
        {
          "internalType": "address",
          "name": "token",
          "type": "address"
        },
        {
          "internalType": "uint256",
          "name": "liquidity",
          "type": "uint256"
        },
        {
          "internalType": "uint256",
          "name": "amountTokenMin",
          "type": "uint256"
        },
        {
          "internalType": "uint256",
          "name": "amountETHMin",
          "type": "uint256"
        },
        {
          "internalType": "address",
          "name": "to",
          "type": "address"
        },
        {
          "internalType": "uint256",
          "name": "deadline",
          "type": "uint256"
        }
      ],
      "name": "removeLiquidityETH",
      "outputs": [
        {
          "internalType": "uint256",
          "name": "amountToken",
          "type": "uint256"
        },
        {
          "internalType": "uint256",
          "name": "amountETH",
          "type": "uint256"
        }
      ],
      "stateMutability": "nonpayable",
      "type": "function"
    },
    {
      "inputs": [
        {
          "internalType": "address",
          "name": "pair",
          "type": "address"
        },
        {
          "internalType": "address",
          "name": "token",
          "type": "address"
        },
        {
          "internalType": "uint256",
          "name": "liquidity",
          "type": "uint256"
        },
        {
          "internalType": "uint256",
          "name": "amountTokenMin",
          "type": "uint256"
        },
        {
          "internalType": "uint256",
          "name": "amountETHMin",
          "type": "uint256"
        },
        {
          "internalType": "address",
          "name": "to",
          "type": "address"
        },
        {
          "internalType": "uint256",
          "name": "deadline",
          "type": "uint256"
        }
      ],
      "name": "removeLiquidityETHSupportingFeeOnTransferTokens",
      "outputs": [
        {
          "internalType": "uint256",
          "name": "amountETH",
          "type": "uint256"
        }
      ],
      "stateMutability": "nonpayable",
      "type": "function"
    },
    {
      "inputs": [
        {
          "internalType": "address",
          "name": "pair",
          "type": "address"
        },
        {
          "internalType": "address",
          "name": "token",
          "type": "address"
        },
        {
          "internalType": "uint256",
          "name": "liquidity",
          "type": "uint256"
        },
        {
          "internalType": "uint256",
          "name": "amountTokenMin",
          "type": "uint256"
        },
        {
          "internalType": "uint256",
          "name": "amountETHMin",
          "type": "uint256"
        },
        {
          "internalType": "address",
          "name": "to",
          "type": "address"
        },
        {
          "internalType": "uint256",
          "name": "deadline",
          "type": "uint256"
        },
        {
          "internalType": "bool",
          "name": "approveMax",
          "type": "bool"
        },
        {
          "internalType": "uint8",
          "name": "v",
          "type": "uint8"
        },
        {
          "internalType": "bytes32",
          "name": "r",
          "type": "bytes32"
        },
        {
          "internalType": "bytes32",
          "name": "s",
          "type": "bytes32"
        }
      ],
      "name": "removeLiquidityETHWithPermit",
      "outputs": [
        {
          "internalType": "uint256",
          "name": "amountToken",
          "type": "uint256"
        },
        {
          "internalType": "uint256",
          "name": "amountETH",
          "type": "uint256"
        }
      ],
      "stateMutability": "nonpayable",
      "type": "function"
    },
    {
      "inputs": [
        {
          "internalType": "address",
          "name": "pair",
          "type": "address"
        },
        {
          "internalType": "address",
          "name": "token",
          "type": "address"
        },
        {
          "internalType": "uint256",
          "name": "liquidity",
          "type": "uint256"
        },
        {
          "internalType": "uint256",
          "name": "amountTokenMin",
          "type": "uint256"
        },
        {
          "internalType": "uint256",
          "name": "amountETHMin",
          "type": "uint256"
        },
        {
          "internalType": "address",
          "name": "to",
          "type": "address"
        },
        {
          "internalType": "uint256",
          "name": "deadline",
          "type": "uint256"
        },
        {
          "internalType": "bool",
          "name": "approveMax",
          "type": "bool"
        },
        {
          "internalType": "uint8",
          "name": "v",
          "type": "uint8"
        },
        {
          "internalType": "bytes32",
          "name": "r",
          "type": "bytes32"
        },
        {
          "internalType": "bytes32",
          "name": "s",
          "type": "bytes32"
        }
      ],
      "name": "removeLiquidityETHWithPermitSupportingFeeOnTransferTokens",
      "outputs": [
        {
          "internalType": "uint256",
          "name": "amountETH",
          "type": "uint256"
        }
      ],
      "stateMutability": "nonpayable",
      "type": "function"
    },
    {
      "inputs": [
        {
          "internalType": "address",
          "name": "pair",
          "type": "address"
        },
        {
          "internalType": "address",
          "name": "tokenA",
          "type": "address"
        },
        {
          "internalType": "address",
          "name": "tokenB",
          "type": "address"
        },
        {
          "internalType": "uint256",
          "name": "liquidity",
          "type": "uint256"
        },
        {
          "internalType": "uint256",
          "name": "amountAMin",
          "type": "uint256"
        },
        {
          "internalType": "uint256",
          "name": "amountBMin",
          "type": "uint256"
        },
        {
          "internalType": "address",
          "name": "to",
          "type": "address"
        },
        {
          "internalType": "uint256",
          "name": "deadline",
          "type": "uint256"
        },
        {
          "internalType": "bool",
          "name": "approveMax",
          "type": "bool"
        },
        {
          "internalType": "uint8",
          "name": "v",
          "type": "uint8"
        },
        {
          "internalType": "bytes32",
          "name": "r",
          "type": "bytes32"
        },
        {
          "internalType": "bytes32",
          "name": "s",
          "type": "bytes32"
        }
      ],
      "name": "removeLiquidityWithPermit",
      "outputs": [
        {
          "internalType": "uint256",
          "name": "amountA",
          "type": "uint256"
        },
        {
          "internalType": "uint256",
          "name": "amountB",
          "type": "uint256"
        }
      ],
      "stateMutability": "nonpayable",
      "type": "function"
    },
    {
      "stateMutability": "payable",
      "type": "receive"
    }
  ],
  "transactionHash": "0x489e2ec4cef92b787f5964bf609fe37d68f8fc3b71e848899041a167d11eb641",
  "args": [
    "0x610178dA211FEF7D417bC0e6FeD39F05609AD788",
    "0xDc64a140Aa3E981100a9becA4E685f962f0cF6C9"
  ],
  "solcInputHash": "238606047f22772c3f8250a1182ecfba",
  "bytecode": "0x60e06040523480156200001157600080fd5b5060405162001fd938038062001fd98339810160408190526200003491620000db565b6001600160a01b038216608081905260408051634b75f54f60e01b81529051634b75f54f916004808201926020929091908290030181865afa1580156200007f573d6000803e3d6000fd5b505050506040513d601f19601f82011682018060405250810190620000a5919062000113565b6001600160a01b0390811660a0521660c0525062000138565b80516001600160a01b0381168114620000d657600080fd5b919050565b60008060408385031215620000ef57600080fd5b620000fa83620000be565b91506200010a60208401620000be565b90509250929050565b6000602082840312156200012657600080fd5b6200013182620000be565b9392505050565b60805160a05160c051611e09620001d06000396000818160e601528181610241015281816105a70152818161077f015281816109c401528181610b93015281816111810152818161168e015261172301526000818161018d01528181610eaa01528181611296015281816113490152611447015260008181610295015281816105e8015281816108240152610ca80152611e096000f3fe6080604052600436106100d65760003560e01c8063ad5c46481161007f578063d0f2c82a11610059578063d0f2c82a146102b7578063e1f4a784146102d7578063ebb5d2e9146102f7578063fbf451351461031757600080fd5b8063ad5c46481461022f578063b56b681d14610263578063c45a01551461028357600080fd5b80634c17fd7c116100b05780634c17fd7c146101c75780636cb49428146101fc578063a4aabb081461020f57600080fd5b80630e2f024c1461011a5780633990ba541461014d5780634b75f54f1461017b57600080fd5b3661011557336001600160a01b037f000000000000000000000000000000000000000000000000000000000000000016146101135761011361188c565b005b600080fd5b34801561012657600080fd5b5061013a6101353660046118de565b610337565b6040519081526020015b60405180910390f35b61016061015b366004611988565b6103f0565b60408051938452602084019290925290820152606001610144565b34801561018757600080fd5b506101af7f000000000000000000000000000000000000000000000000000000000000000081565b6040516001600160a01b039091168152602001610144565b3480156101d357600080fd5b506101e76101e23660046119fa565b61045f565b60408051928352602083019190915201610144565b61013a61020a366004611aca565b610588565b34801561021b57600080fd5b506101e761022a3660046118de565b610673565b34801561023b57600080fd5b506101af7f000000000000000000000000000000000000000000000000000000000000000081565b34801561026f57600080fd5b506101e761027e366004611988565b610732565b34801561028f57600080fd5b506101af7f000000000000000000000000000000000000000000000000000000000000000081565b3480156102c357600080fd5b5061013a6102d2366004611b2e565b6107e4565b3480156102e357600080fd5b506101e76102f2366004611bae565b610911565b34801561030357600080fd5b5061013a610312366004611988565b610978565b34801561032357600080fd5b50610160610332366004611c33565b610aab565b60008085610345578a610349565b6000195b60405163d505accf60e01b8152336004820152306024820152604481018290526064810189905260ff8716608482015260a4810186905260c481018590529091506001600160a01b038e169063d505accf9060e401600060405180830381600087803b1580156103b857600080fd5b505af11580156103cc573d6000803e3d6000fd5b505050506103df8d8d8d8d8d8d8d610978565b9d9c50505050505050505050505050565b6000806000834281101561043d5760405162461bcd60e51b815260206004820152600f60248201526e149bdd5d195c8e8811561412549151608a1b60448201526064015b60405180910390fd5b61044b8b8b8b8b8b8b610b87565b919d909c50909a5098505050505050505050565b60008086428110156104a55760405162461bcd60e51b815260206004820152600f60248201526e149bdd5d195c8e8811561412549151608a1b6044820152606401610434565b6000876104b2578c6104b6565b6000195b90508f6001600160a01b031663d505accf3330848d8c8c8c6040518863ffffffff1660e01b815260040161052c97969594939291906001600160a01b0397881681529590961660208601526040850193909352606084019190915260ff16608083015260a082015260c081019190915260e00190565b600060405180830381600087803b15801561054657600080fd5b505af115801561055a573d6000803e3d6000fd5b505050505061056e8f8f8f8f8f8f8f610c6b565b8093508194505050509c509c9a5050505050505050505050565b6040516314572adb60e01b81526001600160a01b0386811660048301527f00000000000000000000000000000000000000000000000000000000000000008116602483015263ffffffff80861660448401528416606483015260009182917f000000000000000000000000000000000000000000000000000000000000000016906314572adb906084016020604051808303816000875af1158015610631573d6000803e3d6000fd5b505050506040513d601f19601f820116820180604052508101906106559190611cc2565b905061066681888860008088610b87565b9998505050505050505050565b600080600086610683578b610687565b6000195b60405163d505accf60e01b815233600482015230602482015260448101829052606481018a905260ff8816608482015260a4810187905260c481018690529091506001600160a01b038f169063d505accf9060e401600060405180830381600087803b1580156106f657600080fd5b505af115801561070a573d6000803e3d6000fd5b5050505061071d8e8e8e8e8e8e8e610732565b909f909e509c50505050505050505050505050565b60008082428110156107785760405162461bcd60e51b815260206004820152600f60248201526e149bdd5d195c8e8811561412549151608a1b6044820152606401610434565b6107a78a8a7f00000000000000000000000000000000000000000000000000000000000000008b8b8b30610c6b565b90935091506107b7898685610fee565b6107d673eeeeeeeeeeeeeeeeeeeeeeeeeeeeeeeeeeeeeeee868461111e565b505097509795505050505050565b6040516314572adb60e01b81526001600160a01b038881166004830152878116602483015263ffffffff80861660448401528416606483015260009182917f000000000000000000000000000000000000000000000000000000000000000016906314572adb906084016020604051808303816000875af115801561086d573d6000803e3d6000fd5b505050506040513d601f19601f820116820180604052508101906108919190611cc2565b90506108a3818a8a8a8a60008061120a565b50506040516335313c2160e11b81526001600160a01b038481166004830152821690636a627842906024016020604051808303816000875af11580156108ed573d6000803e3d6000fd5b505050506040513d601f19601f820116820180604052508101906106669190611cdf565b60008082428110156109575760405162461bcd60e51b815260206004820152600f60248201526e149bdd5d195c8e8811561412549151608a1b6044820152606401610434565b6109668b8b8b8b8b8b8b610c6b565b909c909b509950505050505050505050565b600081428110156109bd5760405162461bcd60e51b815260206004820152600f60248201526e149bdd5d195c8e8811561412549151608a1b6044820152606401610434565b6109ed89897f00000000000000000000000000000000000000000000000000000000000000008a8a8a308a610911565b6040517f70a08231000000000000000000000000000000000000000000000000000000008152306004820152909350610a7f9150899086906001600160a01b038316906370a0823190602401602060405180830381865afa158015610a56573d6000803e3d6000fd5b505050506040513d601f19601f82011682018060405250810190610a7a9190611cdf565b610fee565b610a9e73eeeeeeeeeeeeeeeeeeeeeeeeeeeeeeeeeeeeeeee858461111e565b5050979650505050505050565b60008060008342811015610af35760405162461bcd60e51b815260206004820152600f60248201526e149bdd5d195c8e8811561412549151608a1b6044820152606401610434565b610b028d8d8d8d8d8d8d61120a565b6040516335313c2160e11b81526001600160a01b038981166004830152929650909450908e1690636a627842906024016020604051808303816000875af1158015610b51573d6000803e3d6000fd5b505050506040513d601f19601f82011682018060405250810190610b759190611cdf565b91505099509950999650505050505050565b6000806000610bbb89897f00000000000000000000000000000000000000000000000000000000000000008a348b8b611245565b9093509150610bcc88338b8661152e565b610bd6828a61168c565b6040516335313c2160e11b81526001600160a01b0385811660048301528a1690636a627842906024016020604051808303816000875af1158015610c1e573d6000803e3d6000fd5b505050506040513d601f19601f82011682018060405250810190610c429190611cdf565b905081341115610c5f57610c5f33610c5a8434611cf8565b6117a4565b96509650969350505050565b6040517fe5e31b130000000000000000000000000000000000000000000000000000000081526001600160a01b03888116600483015260009182917f0000000000000000000000000000000000000000000000000000000000000000169063e5e31b1390602401602060405180830381865afa158015610cef573d6000803e3d6000fd5b505050506040513d601f19601f82011682018060405250810190610d139190611d1d565b610d5f5760405162461bcd60e51b815260206004820152601460248201527f526f757465723a20496e76616c696420706169720000000000000000000000006044820152606401610434565b6040516323b872dd60e01b81523360048201526001600160a01b038a166024820181905260448201889052906323b872dd906064016020604051808303816000875af1158015610db3573d6000803e3d6000fd5b505050506040513d601f19601f82011682018060405250810190610dd79190611d1d565b506040517f89afcb440000000000000000000000000000000000000000000000000000000081526001600160a01b03848116600483015260009182918c16906389afcb449060240160408051808303816000875af1158015610e3d573d6000803e3d6000fd5b505050506040513d601f19601f82011682018060405250810190610e619190611d3a565b6040517f544caa560000000000000000000000000000000000000000000000000000000081526001600160a01b038d811660048301528c811660248301529294509092506000917f0000000000000000000000000000000000000000000000000000000000000000169063544caa56906044016040805180830381865afa158015610ef0573d6000803e3d6000fd5b505050506040513d601f19601f82011682018060405250810190610f149190611d5e565b509050806001600160a01b03168b6001600160a01b031614610f37578183610f3a565b82825b909550935087851015610f8f5760405162461bcd60e51b815260206004820152601d60248201527f526f757465723a20494e53554646494349454e545f415f414d4f554e540000006044820152606401610434565b86841015610fdf5760405162461bcd60e51b815260206004820152601d60248201527f526f757465723a20494e53554646494349454e545f425f414d4f554e540000006044820152606401610434565b50505097509795505050505050565b604080516001600160a01b038481166024830152604480830185905283518084039091018152606490920183526020820180517bffffffffffffffffffffffffffffffffffffffffffffffffffffffff1663a9059cbb60e01b179052915160009283929087169161105f9190611d98565b6000604051808303816000865af19150503d806000811461109c576040519150601f19603f3d011682016040523d82523d6000602084013e6110a1565b606091505b50915091508180156110cb5750805115806110cb5750808060200190518101906110cb9190611d1d565b6111175760405162461bcd60e51b815260206004820152601f60248201527f5472616e7366657248656c7065723a205452414e534645525f4641494c4544006044820152606401610434565b5050505050565b60008161112d57506001611203565b73eeeeeeeeeeeeeeeeeeeeeeeeeeeeeeeeeeeeeeee6001600160a01b03851614156111f4576040517f2e1a7d4d000000000000000000000000000000000000000000000000000000008152600481018390527f00000000000000000000000000000000000000000000000000000000000000006001600160a01b031690632e1a7d4d90602401600060405180830381600087803b1580156111cd57600080fd5b505af11580156111e1573d6000803e3d6000fd5b505050506111ef83836117a4565b6111ff565b6111ff848484610fee565b5060015b9392505050565b60008061121c89898989898989611245565b909250905061122d88338b8561152e565b61123987338b8461152e565b97509795505050505050565b6040517f327494610000000000000000000000000000000000000000000000000000000081526001600160a01b038881166004830152878116602483015286811660448301526000918291829182917f000000000000000000000000000000000000000000000000000000000000000016906332749461906064016040805180830381865afa1580156112dc573d6000803e3d6000fd5b505050506040513d601f19601f820116820180604052508101906113009190611d3a565b91509150816000148015611312575080155b15611322578793508692506107d6565b604051632b58577b60e21b81526004810189905260248101839052604481018290526000907f00000000000000000000000000000000000000000000000000000000000000006001600160a01b03169063ad615dec90606401602060405180830381865afa158015611398573d6000803e3d6000fd5b505050506040513d601f19601f820116820180604052508101906113bc9190611cdf565b905087811161142057858110156114155760405162461bcd60e51b815260206004820152601d60248201527f526f757465723a20494e53554646494349454e545f425f414d4f554e540000006044820152606401610434565b889450925082610fdf565b604051632b58577b60e21b81526004810189905260248101839052604481018490526000907f00000000000000000000000000000000000000000000000000000000000000006001600160a01b03169063ad615dec90606401602060405180830381865afa158015611496573d6000803e3d6000fd5b505050506040513d601f19601f820116820180604052508101906114ba9190611cdf565b9050898111156114cc576114cc61188c565b8781101561151c5760405162461bcd60e51b815260206004820152601d60248201527f526f757465723a20494e53554646494349454e545f415f414d4f554e540000006044820152606401610434565b9c979b50969950505050505050505050565b604080516001600160a01b0385811660248301528481166044830152606480830185905283518084039091018152608490920183526020820180517bffffffffffffffffffffffffffffffffffffffffffffffffffffffff166323b872dd60e01b17905291516000928392908816916115a79190611d98565b6000604051808303816000865af19150503d80600081146115e4576040519150601f19603f3d011682016040523d82523d6000602084013e6115e9565b606091505b50915091508180156116135750805115806116135750808060200190518101906116139190611d1d565b6116845760405162461bcd60e51b8152602060048201526024808201527f5472616e7366657248656c7065723a205452414e534645525f46524f4d5f464160448201527f494c4544000000000000000000000000000000000000000000000000000000006064820152608401610434565b505050505050565b7f00000000000000000000000000000000000000000000000000000000000000006001600160a01b031663d0e30db0836040518263ffffffff1660e01b81526004016000604051808303818588803b1580156116e757600080fd5b505af11580156116fb573d6000803e3d6000fd5b505060405163a9059cbb60e01b81526001600160a01b038581166004830152602482018790527f000000000000000000000000000000000000000000000000000000000000000016935063a9059cbb925060440190506020604051808303816000875af1158015611770573d6000803e3d6000fd5b505050506040513d601f19601f820116820180604052508101906117949190611d1d565b6117a0576117a061188c565b5050565b604080516000808252602082019092526001600160a01b0384169083906040516117ce9190611d98565b60006040518083038185875af1925050503d806000811461180b576040519150601f19603f3d011682016040523d82523d6000602084013e611810565b606091505b50509050806118875760405162461bcd60e51b815260206004820152602360248201527f5472616e7366657248656c7065723a204554485f5452414e534645525f46414960448201527f4c454400000000000000000000000000000000000000000000000000000000006064820152608401610434565b505050565b634e487b7160e01b600052600160045260246000fd5b6001600160a01b03811681146118b757600080fd5b50565b80151581146118b757600080fd5b803560ff811681146118d957600080fd5b919050565b60008060008060008060008060008060006101608c8e03121561190057600080fd5b8b3561190b816118a2565b9a5060208c013561191b816118a2565b995060408c0135985060608c0135975060808c0135965060a08c0135611940816118a2565b955060c08c0135945060e08c0135611957816118ba565b93506119666101008d016118c8565b92506101208c013591506101408c013590509295989b509295989b9093969950565b600080600080600080600060e0888a0312156119a357600080fd5b87356119ae816118a2565b965060208801356119be816118a2565b955060408801359450606088013593506080880135925060a08801356119e3816118a2565b8092505060c0880135905092959891949750929550565b6000806000806000806000806000806000806101808d8f031215611a1d57600080fd5b8c35611a28816118a2565b9b5060208d0135611a38816118a2565b9a5060408d0135611a48816118a2565b995060608d0135985060808d0135975060a08d0135965060c08d0135611a6d816118a2565b955060e08d013594506101008d0135611a85816118ba565b9350611a946101208e016118c8565b92506101408d013591506101608d013590509295989b509295989b509295989b565b803563ffffffff811681146118d957600080fd5b600080600080600060a08688031215611ae257600080fd5b8535611aed816118a2565b945060208601359350611b0260408701611ab6565b9250611b1060608701611ab6565b91506080860135611b20816118a2565b809150509295509295909350565b600080600080600080600060e0888a031215611b4957600080fd5b8735611b54816118a2565b96506020880135611b64816118a2565b95506040880135945060608801359350611b8060808901611ab6565b9250611b8e60a08901611ab6565b915060c0880135611b9e816118a2565b8091505092959891949750929550565b600080600080600080600080610100898b031215611bcb57600080fd5b8835611bd6816118a2565b97506020890135611be6816118a2565b96506040890135611bf6816118a2565b9550606089013594506080890135935060a0890135925060c0890135611c1b816118a2565b8092505060e089013590509295985092959890939650565b60008060008060008060008060006101208a8c031215611c5257600080fd5b8935611c5d816118a2565b985060208a0135611c6d816118a2565b975060408a0135611c7d816118a2565b965060608a0135955060808a0135945060a08a0135935060c08a0135925060e08a0135611ca9816118a2565b809250506101008a013590509295985092959850929598565b600060208284031215611cd457600080fd5b8151611203816118a2565b600060208284031215611cf157600080fd5b5051919050565b600082821015611d1857634e487b7160e01b600052601160045260246000fd5b500390565b600060208284031215611d2f57600080fd5b8151611203816118ba565b60008060408385031215611d4d57600080fd5b505080516020909101519092909150565b60008060408385031215611d7157600080fd5b8251611d7c816118a2565b6020840151909250611d8d816118a2565b809150509250929050565b6000825160005b81811015611db95760208186018101518583015201611d9f565b81811115611dc8576000828501525b50919091019291505056fea26469706673582212201345f4ee5f46b9fabd208d3988c8c3161e155b06c642fc05db3c9770569b34ed64736f6c634300080c0033",
  "devdoc": {
    "kind": "dev",
    "methods": {},
    "version": 1
  },
  "userdoc": {
    "kind": "user",
    "methods": {},
    "version": 1
  },
  "storageLayout": {
    "storage": [],
    "types": null
  }
}