{
  "address": "0x610178dA211FEF7D417bC0e6FeD39F05609AD788",
  "abi": [
    {
      "inputs": [
        {
          "internalType": "address",
          "name": "_feeToSetter",
          "type": "address"
        },
        {
          "internalType": "address",
          "name": "_formula",
          "type": "address"
        }
      ],
      "stateMutability": "nonpayable",
      "type": "constructor"
    },
    {
      "anonymous": false,
      "inputs": [
        {
          "indexed": true,
          "internalType": "address",
          "name": "token0",
          "type": "address"
        },
        {
          "indexed": true,
          "internalType": "address",
          "name": "token1",
          "type": "address"
        },
        {
          "indexed": false,
          "internalType": "address",
          "name": "pair",
          "type": "address"
        },
        {
          "indexed": false,
          "internalType": "uint32",
          "name": "tokenWeight0",
          "type": "uint32"
        },
        {
          "indexed": false,
          "internalType": "uint32",
          "name": "swapFee",
          "type": "uint32"
        },
        {
          "indexed": false,
          "internalType": "uint256",
          "name": "",
          "type": "uint256"
        }
      ],
      "name": "PairCreated",
      "type": "event"
    },
    {
      "inputs": [],
      "name": "INIT_CODE_HASH",
      "outputs": [
        {
          "internalType": "bytes32",
          "name": "",
          "type": "bytes32"
        }
      ],
      "stateMutability": "view",
      "type": "function"
    },
    {
      "inputs": [
        {
          "internalType": "uint256",
          "name": "",
          "type": "uint256"
        }
      ],
      "name": "allPairs",
      "outputs": [
        {
          "internalType": "address",
          "name": "",
          "type": "address"
        }
      ],
      "stateMutability": "view",
      "type": "function"
    },
    {
      "inputs": [],
      "name": "allPairsLength",
      "outputs": [
        {
          "internalType": "uint256",
          "name": "",
          "type": "uint256"
        }
      ],
      "stateMutability": "view",
      "type": "function"
    },
    {
      "inputs": [
        {
          "internalType": "address",
          "name": "tokenA",
          "type": "address"
        },
        {
          "internalType": "address",
          "name": "tokenB",
          "type": "address"
        },
        {
          "internalType": "uint32",
          "name": "tokenWeightA",
          "type": "uint32"
        },
        {
          "internalType": "uint32",
          "name": "swapFee",
          "type": "uint32"
        }
      ],
      "name": "createPair",
      "outputs": [
        {
          "internalType": "address",
          "name": "pair",
          "type": "address"
        }
      ],
      "stateMutability": "nonpayable",
      "type": "function"
    },
    {
      "inputs": [],
      "name": "feeTo",
      "outputs": [
        {
          "internalType": "address",
          "name": "",
          "type": "address"
        }
      ],
      "stateMutability": "view",
      "type": "function"
    },
    {
      "inputs": [],
      "name": "feeToSetter",
      "outputs": [
        {
          "internalType": "address",
          "name": "",
          "type": "address"
        }
      ],
      "stateMutability": "view",
      "type": "function"
    },
    {
      "inputs": [],
      "name": "formula",
      "outputs": [
        {
          "internalType": "address",
          "name": "",
          "type": "address"
        }
      ],
      "stateMutability": "view",
      "type": "function"
    },
    {
      "inputs": [
        {
          "internalType": "address",
          "name": "tokenA",
          "type": "address"
        },
        {
          "internalType": "address",
          "name": "tokenB",
          "type": "address"
        },
        {
          "internalType": "uint32",
          "name": "tokenWeightA",
          "type": "uint32"
        },
        {
          "internalType": "uint32",
          "name": "swapFee",
          "type": "uint32"
        }
      ],
      "name": "getPair",
      "outputs": [
        {
          "internalType": "address",
          "name": "pair",
          "type": "address"
        }
      ],
      "stateMutability": "view",
      "type": "function"
    },
    {
      "inputs": [
        {
          "internalType": "address",
          "name": "pair",
          "type": "address"
        }
      ],
      "name": "getWeightsAndSwapFee",
      "outputs": [
        {
          "internalType": "uint32",
          "name": "tokenWeight0",
          "type": "uint32"
        },
        {
          "internalType": "uint32",
          "name": "tokenWeight1",
          "type": "uint32"
        },
        {
          "internalType": "uint32",
          "name": "swapFee",
          "type": "uint32"
        }
      ],
      "stateMutability": "view",
      "type": "function"
    },
    {
      "inputs": [
        {
          "internalType": "address",
          "name": "b",
          "type": "address"
        }
      ],
      "name": "isPair",
      "outputs": [
        {
          "internalType": "bool",
          "name": "",
          "type": "bool"
        }
      ],
      "stateMutability": "view",
      "type": "function"
    },
    {
      "inputs": [],
      "name": "protocolFee",
      "outputs": [
        {
          "internalType": "uint256",
          "name": "",
          "type": "uint256"
        }
      ],
      "stateMutability": "view",
      "type": "function"
    },
    {
      "inputs": [
        {
          "internalType": "address",
          "name": "_feeTo",
          "type": "address"
        }
      ],
      "name": "setFeeTo",
      "outputs": [],
      "stateMutability": "nonpayable",
      "type": "function"
    },
    {
      "inputs": [
        {
          "internalType": "address",
          "name": "_feeToSetter",
          "type": "address"
        }
      ],
      "name": "setFeeToSetter",
      "outputs": [],
      "stateMutability": "nonpayable",
      "type": "function"
    },
    {
      "inputs": [
        {
          "internalType": "uint256",
          "name": "_protocolFee",
          "type": "uint256"
        }
      ],
      "name": "setProtocolFee",
      "outputs": [],
      "stateMutability": "nonpayable",
      "type": "function"
    }
  ],
  "transactionHash": "0xa71dbb62fe17e682f80c6ec37f08ec4fd57bf2127fcb71d16a0f2c7ed8727c1b",
  "args": [
    "0xf39Fd6e51aad88F6F4ce6aB8827279cffFb92266",
    "0x8A791620dd6260079BF849Dc5567aDC3F2FdC318"
  ],
  "solcInputHash": "5cda6a8053749c2e75fe3116749689e1",
  "bytecode": "0x608060405234801561001057600080fd5b5060405161557b38038061557b83398101604081905261002f9161007c565b600380546001600160a01b039384166001600160a01b031991821617909155600180549290931691161790556100af565b80516001600160a01b038116811461007757600080fd5b919050565b6000806040838503121561008f57600080fd5b61009883610060565b91506100a660208401610060565b90509250929050565b6154bd806100be6000396000f3fe608060405234801561001057600080fd5b50600436106100ea5760003560e01c8063787dce3d1161008c578063bfd63f4d11610066578063bfd63f4d146101ee578063ca22297914610201578063e5e31b131461023b578063f46901ed1461028d57600080fd5b8063787dce3d146101bd578063a2e74af6146101d2578063b0e21e8a146101e557600080fd5b80631e3dd18b116100c85780631e3dd18b1461016c578063257671f51461017f5780634b75f54f14610195578063574f2ba3146101b557600080fd5b8063017e7e58146100ef578063094b74151461013957806314572adb14610159575b600080fd5b60005461010f9073ffffffffffffffffffffffffffffffffffffffff1681565b60405173ffffffffffffffffffffffffffffffffffffffff90911681526020015b60405180910390f35b60035461010f9073ffffffffffffffffffffffffffffffffffffffff1681565b61010f610167366004610dc1565b6102a0565b61010f61017a366004610e15565b610897565b6101876108ce565b604051908152602001610130565b60015461010f9073ffffffffffffffffffffffffffffffffffffffff1681565b600554610187565b6101d06101cb366004610e15565b610936565b005b6101d06101e0366004610e2e565b610a3f565b61018760025481565b61010f6101fc366004610dc1565b610b07565b61021461020f366004610e2e565b610c39565b6040805163ffffffff94851681529284166020840152921691810191909152606001610130565b61027d610249366004610e2e565b73ffffffffffffffffffffffffffffffffffffffff1660009081526006602052604090205467ffffffffffffffff16151590565b6040519015158152602001610130565b6101d061029b366004610e2e565b610caf565b60008373ffffffffffffffffffffffffffffffffffffffff168573ffffffffffffffffffffffffffffffffffffffff16141561033d576040517f08c379a000000000000000000000000000000000000000000000000000000000815260206004820152601860248201527f524c503a204944454e544943414c5f414444524553534553000000000000000060448201526064015b60405180910390fd5b60028363ffffffff161015801561035b575060628363ffffffff1611155b8015610375575061036d600284610e50565b63ffffffff16155b6103db576040517f08c379a000000000000000000000000000000000000000000000000000000000815260206004820152601960248201527f524c503a20494e56414c49445f544f4b454e5f574549474854000000000000006044820152606401610334565b60018263ffffffff16101580156103fa57506107d08263ffffffff1611155b610460576040517f08c379a000000000000000000000000000000000000000000000000000000000815260206004820152601560248201527f524c503a20494e56414c49445f535741505f46454500000000000000000000006044820152606401610334565b60008060008673ffffffffffffffffffffffffffffffffffffffff168873ffffffffffffffffffffffffffffffffffffffff16106104aa5786886104a5886064610e9a565b6104ae565b8787875b9194509250905073ffffffffffffffffffffffffffffffffffffffff8316610532576040517f08c379a000000000000000000000000000000000000000000000000000000000815260206004820152601160248201527f524c503a205a45524f5f414444524553530000000000000000000000000000006044820152606401610334565b60006040518060200161054490610d77565b7fffffffffffffffffffffffffffffffffffffffffffffffffffffffffffffffe082820381018352601f9091011660408190527fffffffffffffffffffffffffffffffffffffffff000000000000000000000000606087811b8216602084015286901b1660348201527fffffffff0000000000000000000000000000000000000000000000000000000060e085811b8216604884015289901b16604c820152909150600090605001604080517fffffffffffffffffffffffffffffffffffffffffffffffffffffffffffffffe081840301815291815281516020928301206000818152600490935291205490915073ffffffffffffffffffffffffffffffffffffffff16156106af576040517f08c379a000000000000000000000000000000000000000000000000000000000815260206004820152601060248201527f524c503a20504149525f455849535453000000000000000000000000000000006044820152606401610334565b808251602084016000f56040517fd0f6957900000000000000000000000000000000000000000000000000000000815273ffffffffffffffffffffffffffffffffffffffff8781166004830152868116602483015263ffffffff80871660448401528a1660648301529197509087169063d0f6957990608401600060405180830381600087803b15801561074257600080fd5b505af1158015610756573d6000803e3d6000fd5b505050600082815260046020908152604080832080547fffffffffffffffffffffffff000000000000000000000000000000000000000090811673ffffffffffffffffffffffffffffffffffffffff8d8116918217909355600580546001810182557f036b6384b5eca791c62761152d0c79bb0604c104a5fb6f4eb0703f3154bb3db001805490931682179092558086526006855294839020805463ffffffff8f81168c881b67ffffffff000000001681177fffffffffffffffffffffffffffffffffffffffffffffffff0000000000000000909316831790935592548551978852928b169587019590955292850192909252606084019190915290925086811691908816907f41f8736f924f57e464ededb08bf71f868f9d142885bbc73a1516db2be21fc4289060800160405180910390a3505050505050949350505050565b600581815481106108a757600080fd5b60009182526020909120015473ffffffffffffffffffffffffffffffffffffffff16905081565b6040516108dd60208201610d77565b7fffffffffffffffffffffffffffffffffffffffffffffffffffffffffffffffe082820381018352601f90910116604081905261091d9190602001610ee6565b6040516020818303038152906040528051906020012081565b60035473ffffffffffffffffffffffffffffffffffffffff1633146109b7576040517f08c379a000000000000000000000000000000000000000000000000000000000815260206004820152600e60248201527f524c503a20464f5242494444454e0000000000000000000000000000000000006044820152606401610334565b8015806109d4575061271081101580156109d45750620186a08111155b610a3a576040517f08c379a000000000000000000000000000000000000000000000000000000000815260206004820152601960248201527f524c503a20496e76616c69642050726f746f636f6c20666565000000000000006044820152606401610334565b600255565b60035473ffffffffffffffffffffffffffffffffffffffff163314610ac0576040517f08c379a000000000000000000000000000000000000000000000000000000000815260206004820152600e60248201527f524c503a20464f5242494444454e0000000000000000000000000000000000006044820152606401610334565b600380547fffffffffffffffffffffffff00000000000000000000000000000000000000001673ffffffffffffffffffffffffffffffffffffffff92909216919091179055565b6000806000808673ffffffffffffffffffffffffffffffffffffffff168873ffffffffffffffffffffffffffffffffffffffff1610610b52578688610b4d886064610e9a565b610b56565b8787875b6040517fffffffffffffffffffffffffffffffffffffffff000000000000000000000000606085811b8216602084015284901b1660348201527fffffffff0000000000000000000000000000000000000000000000000000000060e083811b821660488401528a901b16604c8201529295509093509150600090605001604080517fffffffffffffffffffffffffffffffffffffffffffffffffffffffffffffffe081840301815291815281516020928301206000908152600490925290205473ffffffffffffffffffffffffffffffffffffffff169998505050505050505050565b73ffffffffffffffffffffffffffffffffffffffff81166000908152600660205260408120548190819067ffffffffffffffff168015610c955763ffffffff602082901c169350905080610c8e846064610e9a565b9250610ca6565b603280601e93509350935050610ca8565b505b9193909250565b60035473ffffffffffffffffffffffffffffffffffffffff163314610d30576040517f08c379a000000000000000000000000000000000000000000000000000000000815260206004820152600e60248201527f524c503a20464f5242494444454e0000000000000000000000000000000000006044820152606401610334565b600080547fffffffffffffffffffffffff00000000000000000000000000000000000000001673ffffffffffffffffffffffffffffffffffffffff92909216919091179055565b61456680610f2283390190565b803573ffffffffffffffffffffffffffffffffffffffff81168114610da857600080fd5b919050565b803563ffffffff81168114610da857600080fd5b60008060008060808587031215610dd757600080fd5b610de085610d84565b9350610dee60208601610d84565b9250610dfc60408601610dad565b9150610e0a60608601610dad565b905092959194509250565b600060208284031215610e2757600080fd5b5035919050565b600060208284031215610e4057600080fd5b610e4982610d84565b9392505050565b600063ffffffff80841680610e8e577f4e487b7100000000000000000000000000000000000000000000000000000000600052601260045260246000fd5b92169190910692915050565b600063ffffffff83811690831681811015610ede577f4e487b7100000000000000000000000000000000000000000000000000000000600052601160045260246000fd5b039392505050565b6000825160005b81811015610f075760208186018101518583015201610eed565b81811115610f16576000828501525b50919091019291505056fe60806040526001600b5534801561001557600080fd5b50604080518082018252601a81527f5265717569656d204c69717569646974792050726f76696465720000000000006020918201528151808301835260018152603160f81b9082015281517f8b73c3c69bb8fe3d512ecc4cf759cc79239f7b179b0ffacaa9a75d522b39400f818301527f2e1adfbb118fada029d9623aa0ed8dd2318a25545f57095be55dcbd209508e12818401527fc89efdaa54c0f20c7adf612882df0950f5a951637e0307cdcb4c672f298b8bc660608201524660808201523060a0808301919091528351808303909101815260c09091019092528151910120600355600580546001600160a01b0319163317905561444b8061011b6000396000f3fe608060405234801561001057600080fd5b50600436106102415760003560e01c80636a62784211610145578063cc56fd43116100bd578063d505accf1161008c578063dd62ed3e11610071578063dd62ed3e146105eb578063e9255bae14610616578063fff6cae91461062957600080fd5b8063d505accf1461059c578063d54a8d18146105af57600080fd5b8063cc56fd431461053d578063d0f6957914610550578063d21220a714610563578063d4cadf681461057657600080fd5b806395d89b4111610114578063ba9a7a56116100f9578063ba9a7a561461050e578063bc25cf7714610517578063c45a01551461052a57600080fd5b806395d89b41146104bf578063a9059cbb146104fb57600080fd5b80636a6278421461044457806370a08231146104575780637ecebe001461047757806389afcb441461049757600080fd5b806330adf81f116101d85780633644e515116101a75780634b75f54f1161018c5780634b75f54f1461041f5780635909c0d5146104325780635a3d54931461043b57600080fd5b80633644e515146104035780634ac00e031461040c57600080fd5b806330adf81f14610385578063313ce567146103ac57806332bfe469146103c657806332fd5493146103f057600080fd5b80630dfe1681116102145780630dfe16811461031d5780630e6d8bce1461034857806318160ddd1461036957806323b872dd1461037257600080fd5b8063022c0d9f1461024657806306fdde031461025b5780630902f1ac146102ad578063095ea7b3146102fa575b600080fd5b610259610254366004613dfd565b610631565b005b6102976040518060400160405280601a81526020017f5265717569656d204c69717569646974792050726f766964657200000000000081525081565b6040516102a49190613ec3565b60405180910390f35b600854604080516dffffffffffffffffffffffffffff80841682526e0100000000000000000000000000008404166020820152600160e01b90920463ffffffff16908201526060016102a4565b61030d610308366004613f14565b610e3a565b60405190151581526020016102a4565b600654610330906001600160a01b031681565b6040516001600160a01b0390911681526020016102a4565b61035b610356366004613f40565b610e50565b6040519081526020016102a4565b61035b60005481565b61030d610380366004613f9f565b61107e565b61035b7f6e71edae12b1b97f4d1f60370fef10105fa2faae0126114a169c64845d6126c981565b6103b4601281565b60405160ff90911681526020016102a4565b600d54600e5460408051600160e01b90930463ffffffff90811684529091166020830152016102a4565b6102596103fe366004613f40565b611130565b61035b60035481565b61035b61041a366004613f40565b6118d4565b600c54610330906001600160a01b031681565b61035b60095481565b61035b600a5481565b61035b610452366004613fe0565b611a85565b61035b610465366004613fe0565b60016020526000908152604090205481565b61035b610485366004613fe0565b60046020526000908152604090205481565b6104aa6104a5366004613fe0565b611d9f565b604080519283526020830191909152016102a4565b6102976040518060400160405280600381526020017f524c50000000000000000000000000000000000000000000000000000000000081525081565b61030d610509366004613f14565b61213e565b61035b6103e881565b610259610525366004613fe0565b61214b565b600554610330906001600160a01b031681565b61035b61054b366004613f9f565b6122a8565b61025961055e366004614011565b612438565b600754610330906001600160a01b031681565b600e54640100000000900463ffffffff1660405163ffffffff90911681526020016102a4565b6102596105aa366004614069565b61262a565b600d54604080516dffffffffffffffffffffffffffff80841682526e0100000000000000000000000000009093049092166020830152016102a4565b61035b6105f93660046140e0565b600260209081526000928352604080842090915290825290205481565b61035b610624366004613f9f565b6128a0565b6102596129e7565b600b546001146106885760405162461bcd60e51b815260206004820152600d60248201527f5245514c503a204c4f434b45440000000000000000000000000000000000000060448201526064015b60405180910390fd5b6000600b558415158061069b5750600084115b61070d5760405162461bcd60e51b815260206004820152602160248201527f5245514c503a20494e53554646494349454e545f4f55545055545f414d4f554e60448201527f5400000000000000000000000000000000000000000000000000000000000000606482015260840161067f565b6008546dffffffffffffffffffffffffffff808216916e01000000000000000000000000000090041681871080156107545750806dffffffffffffffffffffffffffff1686105b6107a05760405162461bcd60e51b815260206004820152601d60248201527f5245514c503a20494e53554646494349454e545f4c4951554944495459000000604482015260640161067f565b60065460075460009182916001600160a01b039182169190811690891682148015906107de5750806001600160a01b0316896001600160a01b031614155b61082a5760405162461bcd60e51b815260206004820152601160248201527f5245514c503a20494e56414c49445f544f000000000000000000000000000000604482015260640161067f565b8a1561083b5761083b828a8d612b4d565b891561084c5761084c818a8c612b4d565b86156108d2576040517f10d1e85c0000000000000000000000000000000000000000000000000000000081526001600160a01b038a16906310d1e85c9061089f9033908f908f908e908e90600401614119565b600060405180830381600087803b1580156108b957600080fd5b505af11580156108cd573d6000803e3d6000fd5b505050505b6040516370a0823160e01b81523060048201526001600160a01b038316906370a0823190602401602060405180830381865afa158015610916573d6000803e3d6000fd5b505050506040513d601f19601f8201168201806040525081019061093a9190614184565b6040516370a0823160e01b81523060048201529094506001600160a01b038216906370a0823190602401602060405180830381865afa158015610981573d6000803e3d6000fd5b505050506040513d601f19601f820116820180604052508101906109a59190614184565b92505050600089856dffffffffffffffffffffffffffff166109c791906141cc565b83116109d45760006109f8565b6109ee8a6dffffffffffffffffffffffffffff87166141cc565b6109f890846141cc565b90506000610a168a6dffffffffffffffffffffffffffff87166141cc565b8311610a23576000610a47565b610a3d8a6dffffffffffffffffffffffffffff87166141cc565b610a4790846141cc565b90506000821180610a585750600081115b610aa45760405162461bcd60e51b815260206004820181905260248201527f5245514c503a20494e53554646494349454e545f494e5055545f414d4f554e54604482015260640161067f565b6000610ab285612710612cc6565b90506000610ac285612710612cc6565b90508315610b5a57600e54600090610aed90869063ffffffff640100000000909104811690612cc616565b9050610af98382612cd9565b600d54909350610b19906dffffffffffffffffffffffffffff1682612ce7565b600d80547fffffffffffffffffffffffffffffffffffff0000000000000000000000000000166dffffffffffffffffffffffffffff92909216919091179055505b8215610bf757600e54600090610b8390859063ffffffff640100000000909104811690612cc616565b9050610b8f8282612cd9565b600d54909250610bc1906e01000000000000000000000000000090046dffffffffffffffffffffffffffff1682612ce7565b600d600e6101000a8154816dffffffffffffffffffffffffffff02191690836dffffffffffffffffffffffffffff160217905550505b600d54600160e01b900463ffffffff166032811415610c9857610c3b6305f5e100610c356dffffffffffffffffffffffffffff8c8116908c16612cc6565b90612cc6565b610c458484612cc6565b1015610c935760405162461bcd60e51b815260206004820152600860248201527f5245514c503a204b000000000000000000000000000000000000000000000000604482015260640161067f565b610dc4565b600c546001600160a01b03166379c91b37610cc56dffffffffffffffffffffffffffff8c16612710612cc6565b610ce16dffffffffffffffffffffffffffff8c16612710612cc6565b6040517fffffffff0000000000000000000000000000000000000000000000000000000060e085901b16815260048101929092526024820152604481018690526064810185905263ffffffff8416608482015260a401602060405180830381865afa158015610d54573d6000803e3d6000fd5b505050506040513d601f19601f82011682018060405250810190610d7891906141e3565b610dc45760405162461bcd60e51b815260206004820152600860248201527f5245514c503a204b000000000000000000000000000000000000000000000000604482015260640161067f565b505050610dd384848888612d04565b60408051838152602081018390529081018c9052606081018b90526001600160a01b038a169033907fd78ad95fa46c994b6551d0da85fc275fe613ce37657fb8d5e3d130840159d8229060800160405180910390a350506001600b55505050505050505050565b6000610e47338484613003565b50600192915050565b6000600b54600114610ea45760405162461bcd60e51b815260206004820152600d60248201527f5245514c503a204c4f434b454400000000000000000000000000000000000000604482015260640161067f565b6000600b8190556006546001600160a01b038881169116149080808084610f0a57600854600e54600d546dffffffffffffffffffffffffffff6e0100000000000000000000000000008404811693169163ffffffff90811691600160e01b900416610f4c565b600854600d54600e546dffffffffffffffffffffffffffff808416936e0100000000000000000000000000009004169163ffffffff600160e01b909104811691165b600c54600e546040517fb19210b00000000000000000000000000000000000000000000000000000000081526dffffffffffffffffffffffffffff9687169a5094909516975091955093506000926001600160a01b039091169163b19210b091611001918e918a918a918a918a9163ffffffff64010000000090910416906004019586526020860194909452604085019290925263ffffffff908116606085015290811660808401521660a082015260c00190565b602060405180830381865afa15801561101e573d6000803e3d6000fd5b505050506040513d601f19601f820116820180604052508101906110429190614184565b90506000808761105457826000611058565b6000835b9150915061106782828c613065565b6001600b559e9d5050505050505050505050505050565b6001600160a01b03831660009081526002602090815260408083203384529091528120547fffffffffffffffffffffffffffffffffffffffffffffffffffffffffffffffff1461111b576001600160a01b03841660009081526002602090815260408083203384529091529020546110f69083612cd9565b6001600160a01b03851660009081526002602090815260408083203384529091529020555b611126848484613794565b5060019392505050565b600b546001146111825760405162461bcd60e51b815260206004820152600d60248201527f5245514c503a204c4f434b454400000000000000000000000000000000000000604482015260640161067f565b6000600b81905560065481906001600160a01b038881169116146111a8578360006111ac565b6000845b9150915060008211806111bf5750600081115b6112315760405162461bcd60e51b815260206004820152602160248201527f5245514c503a20494e53554646494349454e545f4f55545055545f414d4f554e60448201527f5400000000000000000000000000000000000000000000000000000000000000606482015260840161067f565b6008546dffffffffffffffffffffffffffff808216916e01000000000000000000000000000090041681841080156112785750806dffffffffffffffffffffffffffff1683105b6112c45760405162461bcd60e51b815260206004820152601d60248201527f5245514c503a20494e53554646494349454e545f4c4951554944495459000000604482015260640161067f565b60065460075460009182916001600160a01b039182169190811690891682148015906113025750806001600160a01b0316896001600160a01b031614155b61134e5760405162461bcd60e51b815260206004820152601160248201527f5245514c503a20494e56414c49445f544f000000000000000000000000000000604482015260640161067f565b871561135f5761135f828a8a612b4d565b861561137057611370818a89612b4d565b6040516370a0823160e01b81523060048201526001600160a01b038316906370a0823190602401602060405180830381865afa1580156113b4573d6000803e3d6000fd5b505050506040513d601f19601f820116820180604052508101906113d89190614184565b6040516370a0823160e01b81523060048201529094506001600160a01b038216906370a0823190602401602060405180830381865afa15801561141f573d6000803e3d6000fd5b505050506040513d601f19601f820116820180604052508101906114439190614184565b92505050600086856dffffffffffffffffffffffffffff1661146591906141cc565b8311611472576000611496565b61148c876dffffffffffffffffffffffffffff87166141cc565b61149690846141cc565b905060006114b4876dffffffffffffffffffffffffffff87166141cc565b83116114c15760006114e5565b6114db876dffffffffffffffffffffffffffff87166141cc565b6114e590846141cc565b905060008211806114f65750600081115b6115425760405162461bcd60e51b815260206004820181905260248201527f5245514c503a20494e53554646494349454e545f494e5055545f414d4f554e54604482015260640161067f565b600061155085612710612cc6565b9050600061156085612710612cc6565b905083156115f857600e5460009061158b90869063ffffffff640100000000909104811690612cc616565b90506115978382612cd9565b600d549093506115b7906dffffffffffffffffffffffffffff1682612ce7565b600d80547fffffffffffffffffffffffffffffffffffff0000000000000000000000000000166dffffffffffffffffffffffffffff92909216919091179055505b821561169557600e5460009061162190859063ffffffff640100000000909104811690612cc616565b905061162d8282612cd9565b600d5490925061165f906e01000000000000000000000000000090046dffffffffffffffffffffffffffff1682612ce7565b600d600e6101000a8154816dffffffffffffffffffffffffffff02191690836dffffffffffffffffffffffffffff160217905550505b600d54600160e01b900463ffffffff166032811415611730576116d36305f5e100610c356dffffffffffffffffffffffffffff8c8116908c16612cc6565b6116dd8484612cc6565b101561172b5760405162461bcd60e51b815260206004820152600860248201527f5245514c503a204b000000000000000000000000000000000000000000000000604482015260640161067f565b61185c565b600c546001600160a01b03166379c91b3761175d6dffffffffffffffffffffffffffff8c16612710612cc6565b6117796dffffffffffffffffffffffffffff8c16612710612cc6565b6040517fffffffff0000000000000000000000000000000000000000000000000000000060e085901b16815260048101929092526024820152604481018690526064810185905263ffffffff8416608482015260a401602060405180830381865afa1580156117ec573d6000803e3d6000fd5b505050506040513d601f19601f8201168201806040525081019061181091906141e3565b61185c5760405162461bcd60e51b815260206004820152600860248201527f5245514c503a204b000000000000000000000000000000000000000000000000604482015260640161067f565b50505061186b84848888612d04565b6040805183815260208101839052908101899052606081018890526001600160a01b038a169033907fd78ad95fa46c994b6551d0da85fc275fe613ce37657fb8d5e3d130840159d8229060800160405180910390a350506001600b555050505050505050505050565b6000600b546001146119285760405162461bcd60e51b815260206004820152600d60248201527f5245514c503a204c4f434b454400000000000000000000000000000000000000604482015260640161067f565b6000600b8190556006546001600160a01b03888116911614908080808461198e57600854600e54600d546dffffffffffffffffffffffffffff6e0100000000000000000000000000008404811693169163ffffffff90811691600160e01b9004166119d0565b600854600d54600e546dffffffffffffffffffffffffffff808416936e0100000000000000000000000000009004169163ffffffff600160e01b909104811691165b600c54600e546040517f671a11b50000000000000000000000000000000000000000000000000000000081526dffffffffffffffffffffffffffff9687169a5094909516975091955093506000926001600160a01b039091169163671a11b591611001918e918a918a918a918a9163ffffffff64010000000090910416906004019586526020860194909452604085019290925263ffffffff908116606085015290811660808401521660a082015260c00190565b6000600b54600114611ad95760405162461bcd60e51b815260206004820152600d60248201527f5245514c503a204c4f434b454400000000000000000000000000000000000000604482015260640161067f565b6000600b819055600854600654604080516370a0823160e01b815230600482015290516dffffffffffffffffffffffffffff808516956e0100000000000000000000000000009095041693926001600160a01b0316916370a082319160248083019260209291908290030181865afa158015611b59573d6000803e3d6000fd5b505050506040513d601f19601f82011682018060405250810190611b7d9190614184565b6007546040516370a0823160e01b81523060048201529192506000916001600160a01b03909116906370a0823190602401602060405180830381865afa158015611bcb573d6000803e3d6000fd5b505050506040513d601f19601f82011682018060405250810190611bef9190614184565b90506000611c0d836dffffffffffffffffffffffffffff8716612cd9565b90506000611c2b836dffffffffffffffffffffffffffff8716612cd9565b9050611c37868661383a565b5060005480611c7257611c5e6103e8611c58611c538686612cc6565b613b70565b90612cd9565b9750611c6d60006103e8613be0565b611cc7565b611cc46dffffffffffffffffffffffffffff8816611c908584612cc6565b611c9a9190614234565b6dffffffffffffffffffffffffffff8816611cb58585612cc6565b611cbf9190614234565b613c6f565b97505b60008811611d3c5760405162461bcd60e51b8152602060048201526024808201527f5245514c503a20494e53554646494349454e545f4c49515549444954595f4d4960448201527f4e54454400000000000000000000000000000000000000000000000000000000606482015260840161067f565b611d468989613be0565b611d5285858989612d04565b604080518481526020810184905233917f4c209b5fc8ad50758f13e2e1088ba56a560dff690a1c6fef26394f4c03821c4f910160405180910390a250506001600b55509395945050505050565b600080600b54600114611df45760405162461bcd60e51b815260206004820152600d60248201527f5245514c503a204c4f434b454400000000000000000000000000000000000000604482015260640161067f565b6000600b819055600854600654600754604080516370a0823160e01b815230600482015290516dffffffffffffffffffffffffffff808616966e01000000000000000000000000000090960416946001600160a01b0394851694909316929184916370a08231916024808201926020929091908290030181865afa158015611e80573d6000803e3d6000fd5b505050506040513d601f19601f82011682018060405250810190611ea49190614184565b6040516370a0823160e01b81523060048201529091506000906001600160a01b038416906370a0823190602401602060405180830381865afa158015611eee573d6000803e3d6000fd5b505050506040513d601f19601f82011682018060405250810190611f129190614184565b30600090815260016020526040902054909150611f2f878761383a565b5060005480611f3e8386612cc6565b611f489190614234565b995080611f558385612cc6565b611f5f9190614234565b985060008a118015611f715750600089115b611fe25760405162461bcd60e51b8152602060048201526024808201527f5245514c503a20494e53554646494349454e545f4c49515549444954595f425560448201527f524e454400000000000000000000000000000000000000000000000000000000606482015260840161067f565b611fec3083613c85565b611ff7868c8c612b4d565b612002858c8b612b4d565b6040516370a0823160e01b81523060048201526001600160a01b038716906370a0823190602401602060405180830381865afa158015612046573d6000803e3d6000fd5b505050506040513d601f19601f8201168201806040525081019061206a9190614184565b6040516370a0823160e01b81523060048201529094506001600160a01b038616906370a0823190602401602060405180830381865afa1580156120b1573d6000803e3d6000fd5b505050506040513d601f19601f820116820180604052508101906120d59190614184565b92506120e384848a8a612d04565b604080518b8152602081018b90526001600160a01b038d169133917fdccd412f0b1252819cb1fd330b93224ca42612892bb3f4f789976e6d81936496910160405180910390a350505050505050506001600b81905550915091565b6000610e47338484613794565b600b5460011461219d5760405162461bcd60e51b815260206004820152600d60248201527f5245514c503a204c4f434b454400000000000000000000000000000000000000604482015260640161067f565b6000600b556006546007546008546040516370a0823160e01b81523060048201526001600160a01b03938416939092169161223f918491869161223a916dffffffffffffffffffffffffffff9091169084906370a08231906024015b602060405180830381865afa158015612216573d6000803e3d6000fd5b505050506040513d601f19601f82011682018060405250810190611c589190614184565b612b4d565b6008546040516370a0823160e01b815230600482015261229e918391869161223a916e0100000000000000000000000000009091046dffffffffffffffffffffffffffff16906001600160a01b038516906370a08231906024016121f9565b50506001600b5550565b60065460009081908190819081906001600160a01b0389811691161461230d57600854600e54600d546dffffffffffffffffffffffffffff6e0100000000000000000000000000008404811693169163ffffffff90811691600160e01b90041661234f565b600854600d54600e546dffffffffffffffffffffffffffff808416936e0100000000000000000000000000009004169163ffffffff600160e01b909104811691165b600c54600e546040517fb19210b0000000000000000000000000000000000000000000000000000000008152600481018d90526dffffffffffffffffffffffffffff96871660248201819052959096166044870181905263ffffffff8086166064890152808516608489015264010000000090920490911660a487015293985092965090945092506001600160a01b03169063b19210b09060c4015b602060405180830381865afa158015612408573d6000803e3d6000fd5b505050506040513d601f19601f8201168201806040525081019061242c9190614184565b98975050505050505050565b6005546001600160a01b031633146124925760405162461bcd60e51b815260206004820152601060248201527f5245514c503a20464f5242494444454e00000000000000000000000000000000604482015260640161067f565b600680547fffffffffffffffffffffffff00000000000000000000000000000000000000009081166001600160a01b038781169190911790925560078054909116918516919091179055600d80547bffffffffffffffffffffffffffffffffffffffffffffffffffffffff16600160e01b63ffffffff858116820292909217928390556125229204166064614248565b600e805463ffffffff848116640100000000027fffffffffffffffffffffffffffffffffffffffffffffffff0000000000000000909216931692909217919091179055600554604080517f4b75f54f00000000000000000000000000000000000000000000000000000000815290516001600160a01b0390921691634b75f54f916004818101926020929091908290030181865afa1580156125c8573d6000803e3d6000fd5b505050506040513d601f19601f820116820180604052508101906125ec919061426d565b600c80547fffffffffffffffffffffffff0000000000000000000000000000000000000000166001600160a01b039290921691909117905550505050565b4284101561267a5760405162461bcd60e51b815260206004820152600c60248201527f524c503a20455850495245440000000000000000000000000000000000000000604482015260640161067f565b6003546001600160a01b038816600090815260046020526040812080549192917f6e71edae12b1b97f4d1f60370fef10105fa2faae0126114a169c64845d6126c9918b918b918b9190876126cd8361428a565b909155506040805160208101969096526001600160a01b0394851690860152929091166060840152608083015260a082015260c0810187905260e001604051602081830303815290604052805190602001206040516020016127619291907f190100000000000000000000000000000000000000000000000000000000000081526002810192909252602282015260420190565b604080517fffffffffffffffffffffffffffffffffffffffffffffffffffffffffffffffe08184030181528282528051602091820120600080855291840180845281905260ff88169284019290925260608301869052608083018590529092509060019060a0016020604051602081039080840390855afa1580156127ea573d6000803e3d6000fd5b50506040517fffffffffffffffffffffffffffffffffffffffffffffffffffffffffffffffe001519150506001600160a01b0381161580159061283e5750886001600160a01b0316816001600160a01b0316145b61288a5760405162461bcd60e51b815260206004820152601660248201527f524c503a20494e56414c49445f5349474e415455524500000000000000000000604482015260640161067f565b612895898989613003565b505050505050505050565b60065460009081908190819081906001600160a01b0389811691161461290557600854600e54600d546dffffffffffffffffffffffffffff6e0100000000000000000000000000008404811693169163ffffffff90811691600160e01b900416612947565b600854600d54600e546dffffffffffffffffffffffffffff808416936e0100000000000000000000000000009004169163ffffffff600160e01b909104811691165b600c54600e546040517f671a11b5000000000000000000000000000000000000000000000000000000008152600481018d90526dffffffffffffffffffffffffffff96871660248201819052959096166044870181905263ffffffff8086166064890152808516608489015264010000000090920490911660a487015293985092965090945092506001600160a01b03169063671a11b59060c4016123eb565b600b54600114612a395760405162461bcd60e51b815260206004820152600d60248201527f5245514c503a204c4f434b454400000000000000000000000000000000000000604482015260640161067f565b6000600b556006546040516370a0823160e01b8152306004820152612b46916001600160a01b0316906370a0823190602401602060405180830381865afa158015612a88573d6000803e3d6000fd5b505050506040513d601f19601f82011682018060405250810190612aac9190614184565b6007546040516370a0823160e01b81523060048201526001600160a01b03909116906370a0823190602401602060405180830381865afa158015612af4573d6000803e3d6000fd5b505050506040513d601f19601f82011682018060405250810190612b189190614184565b6008546dffffffffffffffffffffffffffff808216916e010000000000000000000000000000900416612d04565b6001600b55565b604080518082018252601981527f7472616e7366657228616464726573732c75696e74323536290000000000000060209182015281516001600160a01b0385811660248301526044808301869052845180840390910181526064909201845291810180517bffffffffffffffffffffffffffffffffffffffffffffffffffffffff167fa9059cbb0000000000000000000000000000000000000000000000000000000017905291516000928392871691612c0791906142c3565b6000604051808303816000865af19150503d8060008114612c44576040519150601f19603f3d011682016040523d82523d6000602084013e612c49565b606091505b5091509150818015612c73575080511580612c73575080806020019051810190612c7391906141e3565b612cbf5760405162461bcd60e51b815260206004820152601660248201527f5245514c503a205452414e534645525f4641494c454400000000000000000000604482015260640161067f565b5050505050565b6000612cd282846142df565b9392505050565b6000612cd283836001613d0f565b600080612cf4838561431c565b9050612cd2848210156000613d33565b600d54600160e01b900463ffffffff166dffffffffffffffffffffffffffff612d2e826064614248565b612d3e9063ffffffff16876142df565b11158015612d6957506dffffffffffffffffffffffffffff612d6663ffffffff8316866142df565b11155b612db55760405162461bcd60e51b815260206004820152600f60248201527f5245514c503a204f564552464c4f570000000000000000000000000000000000604482015260640161067f565b6000612dc664010000000042614334565b600854909150600090612de690600160e01b900463ffffffff1683614248565b905060008163ffffffff16118015612e0d57506dffffffffffffffffffffffffffff851615155b8015612e2857506dffffffffffffffffffffffffffff841615155b15612f2b576000612e3a846064614248565b612e4a9063ffffffff1687614348565b90506000612e5e63ffffffff861687614348565b90508263ffffffff16612e9883612e7484613d45565b7bffffffffffffffffffffffffffffffffffffffffffffffffffffffff1690613d76565b7bffffffffffffffffffffffffffffffffffffffffffffffffffffffff16612ec091906142df565b60096000828254612ed1919061431c565b909155505063ffffffff8316612eea82612e7485613d45565b7bffffffffffffffffffffffffffffffffffffffffffffffffffffffff16612f1291906142df565b600a6000828254612f23919061431c565b909155505050505b6008805463ffffffff8416600160e01b027bffffffffffffffffffffffffffffffffffffffffffffffffffffffff6dffffffffffffffffffffffffffff8a81166e0100000000000000000000000000009081027fffffffff000000000000000000000000000000000000000000000000000000009095168d83161794909417918216831794859055604080519382169282169290921783529290930490911660208201527f1c411e9a96e071241c2f21f7726b17ae89e3cab4c78be50e062b03a9fffbbad1910160405180910390a150505050505050565b6001600160a01b0383811660008181526002602090815260408083209487168084529482529182902085905590518481527f8c5be1e5ebec7d5bd14f71427d1e84f3dd0314c0f7b2291e5b200ac8c7c3b92591015b60405180910390a3505050565b6000808411806130755750600083115b6130e75760405162461bcd60e51b815260206004820152602160248201527f5245514c503a20494e53554646494349454e545f4f55545055545f414d4f554e60448201527f5400000000000000000000000000000000000000000000000000000000000000606482015260840161067f565b6008546dffffffffffffffffffffffffffff808216916e010000000000000000000000000000900416818610801561312e5750806dffffffffffffffffffffffffffff1685105b61317a5760405162461bcd60e51b815260206004820152601d60248201527f5245514c503a20494e53554646494349454e545f4c4951554944495459000000604482015260640161067f565b60065460075460009182916001600160a01b039182169190811690881682148015906131b85750806001600160a01b0316886001600160a01b031614155b6132045760405162461bcd60e51b815260206004820152601160248201527f5245514c503a20494e56414c49445f544f000000000000000000000000000000604482015260640161067f565b89156132155761321582898c612b4d565b88156132265761322681898b612b4d565b6040516370a0823160e01b81523060048201526001600160a01b038316906370a0823190602401602060405180830381865afa15801561326a573d6000803e3d6000fd5b505050506040513d601f19601f8201168201806040525081019061328e9190614184565b6040516370a0823160e01b81523060048201529094506001600160a01b038216906370a0823190602401602060405180830381865afa1580156132d5573d6000803e3d6000fd5b505050506040513d601f19601f820116820180604052508101906132f99190614184565b92505050600088856dffffffffffffffffffffffffffff1661331b91906141cc565b831161332857600061334c565b613342896dffffffffffffffffffffffffffff87166141cc565b61334c90846141cc565b9050600061336a896dffffffffffffffffffffffffffff87166141cc565b831161337757600061339b565b613391896dffffffffffffffffffffffffffff87166141cc565b61339b90846141cc565b905060008211806133ac5750600081115b6133f85760405162461bcd60e51b815260206004820181905260248201527f5245514c503a20494e53554646494349454e545f494e5055545f414d4f554e54604482015260640161067f565b600061340685612710612cc6565b9050600061341685612710612cc6565b905083156134ae57600e5460009061344190869063ffffffff640100000000909104811690612cc616565b905061344d8382612cd9565b600d5490935061346d906dffffffffffffffffffffffffffff1682612ce7565b600d80547fffffffffffffffffffffffffffffffffffff0000000000000000000000000000166dffffffffffffffffffffffffffff92909216919091179055505b821561354b57600e546000906134d790859063ffffffff640100000000909104811690612cc616565b90506134e38282612cd9565b600d54909250613515906e01000000000000000000000000000090046dffffffffffffffffffffffffffff1682612ce7565b600d600e6101000a8154816dffffffffffffffffffffffffffff02191690836dffffffffffffffffffffffffffff160217905550505b600d54600160e01b900463ffffffff1660328114156135e6576135896305f5e100610c356dffffffffffffffffffffffffffff8c8116908c16612cc6565b6135938484612cc6565b10156135e15760405162461bcd60e51b815260206004820152600860248201527f5245514c503a204b000000000000000000000000000000000000000000000000604482015260640161067f565b613712565b600c546001600160a01b03166379c91b376136136dffffffffffffffffffffffffffff8c16612710612cc6565b61362f6dffffffffffffffffffffffffffff8c16612710612cc6565b6040517fffffffff0000000000000000000000000000000000000000000000000000000060e085901b16815260048101929092526024820152604481018690526064810185905263ffffffff8416608482015260a401602060405180830381865afa1580156136a2573d6000803e3d6000fd5b505050506040513d601f19601f820116820180604052508101906136c691906141e3565b6137125760405162461bcd60e51b815260206004820152600860248201527f5245514c503a204b000000000000000000000000000000000000000000000000604482015260640161067f565b50505061372184848888612d04565b60408051838152602081018390529081018b9052606081018a90526001600160a01b0389169033907fd78ad95fa46c994b6551d0da85fc275fe613ce37657fb8d5e3d130840159d8229060800160405180910390a360008a116137845788613786565b895b9a9950505050505050505050565b6001600160a01b0383166000908152600160205260409020546137b79082612cd9565b6001600160a01b0380851660009081526001602052604080822093909355908416815220546137e69082612ce7565b6001600160a01b0380841660008181526001602052604090819020939093559151908516907fddf252ad1be2c89b69c2b068fc378daa952ba7f163c4a11628f55a4df523b3ef906130589085815260200190565b600080600560009054906101000a90046001600160a01b03166001600160a01b031663017e7e586040518163ffffffff1660e01b8152600401602060405180830381865afa158015613890573d6000803e3d6000fd5b505050506040513d601f19601f820116820180604052508101906138b4919061426d565b90506000600560009054906101000a90046001600160a01b03166001600160a01b031663b0e21e8a6040518163ffffffff1660e01b8152600401602060405180830381865afa15801561390b573d6000803e3d6000fd5b505050506040513d601f19601f8201168201806040525081019061392f9190614184565b6001600160a01b038316151593509050600080613972600d546dffffffffffffffffffffffffffff808216926e0100000000000000000000000000009092041690565b915091506000836dffffffffffffffffffffffffffff161180156139935750845b80156139c957506000826dffffffffffffffffffffffffffff1611806139c957506000816dffffffffffffffffffffffffffff16115b15613ae857600d54600c5460008054600160e01b90930463ffffffff169290916001600160a01b0316906392aec23c908b8b86613a07816064614248565b613a118c8c61437e565b613a1b8d8c61437e565b6040517fffffffff0000000000000000000000000000000000000000000000000000000060e08a901b16815260048101979097526dffffffffffffffffffffffffffff9586166024880152938516604487015263ffffffff928316606487015291166084850152821660a48401521660c482015260e401602060405180830381865afa158015613aaf573d6000803e3d6000fd5b505050506040513d601f19601f82011682018060405250810190613ad39190614184565b90508015613ae557613ae58682613be0565b50505b6dffffffffffffffffffffffffffff821615613b2757600d80547fffffffffffffffffffffffffffffffffffff00000000000000000000000000001690555b6dffffffffffffffffffffffffffff811615613b6657600d80547fffffffff0000000000000000000000000000ffffffffffffffffffffffffffff1690555b5050505092915050565b60006003821115613bd15750806000613b8a600283614234565b613b9590600161431c565b90505b81811015613bcb57905080600281613bb08186614234565b613bba919061431c565b613bc49190614234565b9050613b98565b50919050565b8115613bdb575060015b919050565b600054613bed9082612ce7565b60009081556001600160a01b038316815260016020526040902054613c129082612ce7565b6001600160a01b0383166000818152600160205260408082209390935591519091907fddf252ad1be2c89b69c2b068fc378daa952ba7f163c4a11628f55a4df523b3ef90613c639085815260200190565b60405180910390a35050565b6000818310613c7e5781612cd2565b5090919050565b6001600160a01b038216600090815260016020526040902054613ca89082612cd9565b6001600160a01b03831660009081526001602052604081209190915554613ccf9082612cd9565b60009081556040518281526001600160a01b038416907fddf252ad1be2c89b69c2b068fc378daa952ba7f163c4a11628f55a4df523b3ef90602001613c63565b6000613d1e8484111583613d33565b6000613d2a84866141cc565b95945050505050565b81613d4157613d4181613d92565b5050565b6000613d706e0100000000000000000000000000006dffffffffffffffffffffffffffff84166143ab565b92915050565b6000612cd26dffffffffffffffffffffffffffff8316846143e6565b62461bcd60e51b6000908152602060045260076024526652455123000030600a808404818106603090810160081b95839006959095019082900491820690940160101b939093010160c81b604452606490fd5b6001600160a01b0381168114613dfa57600080fd5b50565b600080600080600060808688031215613e1557600080fd5b85359450602086013593506040860135613e2e81613de5565b9250606086013567ffffffffffffffff80821115613e4b57600080fd5b818801915088601f830112613e5f57600080fd5b813581811115613e6e57600080fd5b896020828501011115613e8057600080fd5b9699959850939650602001949392505050565b60005b83811015613eae578181015183820152602001613e96565b83811115613ebd576000848401525b50505050565b6020815260008251806020840152613ee2816040850160208701613e93565b601f017fffffffffffffffffffffffffffffffffffffffffffffffffffffffffffffffe0169190910160400192915050565b60008060408385031215613f2757600080fd5b8235613f3281613de5565b946020939093013593505050565b600080600080600060a08688031215613f5857600080fd5b8535613f6381613de5565b94506020860135613f7381613de5565b935060408601359250606086013591506080860135613f9181613de5565b809150509295509295909350565b600080600060608486031215613fb457600080fd5b8335613fbf81613de5565b92506020840135613fcf81613de5565b929592945050506040919091013590565b600060208284031215613ff257600080fd5b8135612cd281613de5565b803563ffffffff81168114613bdb57600080fd5b6000806000806080858703121561402757600080fd5b843561403281613de5565b9350602085013561404281613de5565b925061405060408601613ffd565b915061405e60608601613ffd565b905092959194509250565b600080600080600080600060e0888a03121561408457600080fd5b873561408f81613de5565b9650602088013561409f81613de5565b95506040880135945060608801359350608088013560ff811681146140c357600080fd5b9699959850939692959460a0840135945060c09093013592915050565b600080604083850312156140f357600080fd5b82356140fe81613de5565b9150602083013561410e81613de5565b809150509250929050565b6001600160a01b038616815284602082015283604082015260806060820152816080820152818360a0830137600081830160a090810191909152601f9092017fffffffffffffffffffffffffffffffffffffffffffffffffffffffffffffffe0160101949350505050565b60006020828403121561419657600080fd5b5051919050565b7f4e487b7100000000000000000000000000000000000000000000000000000000600052601160045260246000fd5b6000828210156141de576141de61419d565b500390565b6000602082840312156141f557600080fd5b81518015158114612cd257600080fd5b7f4e487b7100000000000000000000000000000000000000000000000000000000600052601260045260246000fd5b60008261424357614243614205565b500490565b600063ffffffff838116908316818110156142655761426561419d565b039392505050565b60006020828403121561427f57600080fd5b8151612cd281613de5565b60007fffffffffffffffffffffffffffffffffffffffffffffffffffffffffffffffff8214156142bc576142bc61419d565b5060010190565b600082516142d5818460208701613e93565b9190910192915050565b6000817fffffffffffffffffffffffffffffffffffffffffffffffffffffffffffffffff04831182151516156143175761431761419d565b500290565b6000821982111561432f5761432f61419d565b500190565b60008261434357614343614205565b500690565b60006dffffffffffffffffffffffffffff808316818516818304811182151516156143755761437561419d565b02949350505050565b60006dffffffffffffffffffffffffffff8084168061439f5761439f614205565b92169190910492915050565b60007bffffffffffffffffffffffffffffffffffffffffffffffffffffffff808316818516818304811182151516156143755761437561419d565b60007bffffffffffffffffffffffffffffffffffffffffffffffffffffffff8084168061439f5761439f61420556fea26469706673582212202ebf14ab533be976cd78f7b01c42a6db4c939e8efa29cd8a1d83b00399602f2764736f6c634300080a0033a264697066735822122060fb6de492f2ce3707613b3bfcffe5124edffc4dd826bd3c440c726a1d07a26864736f6c634300080a0033",
  "devdoc": {
    "kind": "dev",
    "methods": {},
    "version": 1
  },
  "userdoc": {
    "kind": "user",
    "methods": {},
    "version": 1
  },
  "storageLayout": {
    "storage": [
      {
        "astId": 1118,
        "contract": "contracts/RequiemFactory.sol:RequiemFactory",
        "label": "feeTo",
        "offset": 0,
        "slot": "0",
        "type": "t_address"
      },
      {
        "astId": 1120,
        "contract": "contracts/RequiemFactory.sol:RequiemFactory",
        "label": "formula",
        "offset": 0,
        "slot": "1",
        "type": "t_address"
      },
      {
        "astId": 1122,
        "contract": "contracts/RequiemFactory.sol:RequiemFactory",
        "label": "protocolFee",
        "offset": 0,
        "slot": "2",
        "type": "t_uint256"
      },
      {
        "astId": 1124,
        "contract": "contracts/RequiemFactory.sol:RequiemFactory",
        "label": "feeToSetter",
        "offset": 0,
        "slot": "3",
        "type": "t_address"
      },
      {
        "astId": 1139,
        "contract": "contracts/RequiemFactory.sol:RequiemFactory",
        "label": "_pairSalts",
        "offset": 0,
        "slot": "4",
        "type": "t_mapping(t_bytes32,t_address)"
      },
      {
        "astId": 1142,
        "contract": "contracts/RequiemFactory.sol:RequiemFactory",
        "label": "allPairs",
        "offset": 0,
        "slot": "5",
        "type": "t_array(t_address)dyn_storage"
      },
      {
        "astId": 1146,
        "contract": "contracts/RequiemFactory.sol:RequiemFactory",
        "label": "_pairs",
        "offset": 0,
        "slot": "6",
        "type": "t_mapping(t_address,t_uint64)"
      }
    ],
    "types": {
      "t_address": {
        "encoding": "inplace",
        "label": "address",
        "numberOfBytes": "20"
      },
      "t_array(t_address)dyn_storage": {
        "base": "t_address",
        "encoding": "dynamic_array",
        "label": "address[]",
        "numberOfBytes": "32"
      },
      "t_bytes32": {
        "encoding": "inplace",
        "label": "bytes32",
        "numberOfBytes": "32"
      },
      "t_mapping(t_address,t_uint64)": {
        "encoding": "mapping",
        "key": "t_address",
        "label": "mapping(address => uint64)",
        "numberOfBytes": "32",
        "value": "t_uint64"
      },
      "t_mapping(t_bytes32,t_address)": {
        "encoding": "mapping",
        "key": "t_bytes32",
        "label": "mapping(bytes32 => address)",
        "numberOfBytes": "32",
        "value": "t_address"
      },
      "t_uint256": {
        "encoding": "inplace",
        "label": "uint256",
        "numberOfBytes": "32"
      },
      "t_uint64": {
        "encoding": "inplace",
        "label": "uint64",
        "numberOfBytes": "8"
      }
    }
  }
}