{
  "address": "0x610178dA211FEF7D417bC0e6FeD39F05609AD788",
  "abi": [
    {
      "inputs": [
        {
          "internalType": "address",
          "name": "_feeToSetter",
          "type": "address"
        },
        {
          "internalType": "address",
          "name": "_formula",
          "type": "address"
        },
        {
          "internalType": "address",
          "name": "_pairGovernance",
          "type": "address"
        }
      ],
      "stateMutability": "nonpayable",
      "type": "constructor"
    },
    {
      "anonymous": false,
      "inputs": [
        {
          "indexed": true,
          "internalType": "address",
          "name": "previousOwner",
          "type": "address"
        },
        {
          "indexed": true,
          "internalType": "address",
          "name": "newOwner",
          "type": "address"
        }
      ],
      "name": "OwnershipTransferred",
      "type": "event"
    },
    {
      "anonymous": false,
      "inputs": [
        {
          "indexed": true,
          "internalType": "address",
          "name": "token0",
          "type": "address"
        },
        {
          "indexed": true,
          "internalType": "address",
          "name": "token1",
          "type": "address"
        },
        {
          "indexed": false,
          "internalType": "address",
          "name": "pair",
          "type": "address"
        },
        {
          "indexed": false,
          "internalType": "uint32",
          "name": "tokenWeight0",
          "type": "uint32"
        },
        {
          "indexed": false,
          "internalType": "uint256",
          "name": "",
          "type": "uint256"
        }
      ],
      "name": "PairCreated",
      "type": "event"
    },
    {
      "inputs": [],
      "name": "INIT_CODE_HASH",
      "outputs": [
        {
          "internalType": "bytes32",
          "name": "",
          "type": "bytes32"
        }
      ],
      "stateMutability": "view",
      "type": "function"
    },
    {
      "inputs": [
        {
          "internalType": "uint256",
          "name": "",
          "type": "uint256"
        }
      ],
      "name": "allPairs",
      "outputs": [
        {
          "internalType": "address",
          "name": "",
          "type": "address"
        }
      ],
      "stateMutability": "view",
      "type": "function"
    },
    {
      "inputs": [],
      "name": "allPairsLength",
      "outputs": [
        {
          "internalType": "uint256",
          "name": "",
          "type": "uint256"
        }
      ],
      "stateMutability": "view",
      "type": "function"
    },
    {
      "inputs": [
        {
          "internalType": "address",
          "name": "tokenA",
          "type": "address"
        },
        {
          "internalType": "address",
          "name": "tokenB",
          "type": "address"
        },
        {
          "internalType": "uint32",
          "name": "tokenWeightA",
          "type": "uint32"
        },
        {
          "internalType": "uint32",
          "name": "initialFee",
          "type": "uint32"
        },
        {
          "internalType": "uint32",
          "name": "initialAmp",
          "type": "uint32"
        }
      ],
      "name": "createPair",
      "outputs": [
        {
          "internalType": "address",
          "name": "pair",
          "type": "address"
        }
      ],
      "stateMutability": "nonpayable",
      "type": "function"
    },
    {
      "inputs": [],
      "name": "feeTo",
      "outputs": [
        {
          "internalType": "address",
          "name": "",
          "type": "address"
        }
      ],
      "stateMutability": "view",
      "type": "function"
    },
    {
      "inputs": [],
      "name": "feeToSetter",
      "outputs": [
        {
          "internalType": "address",
          "name": "",
          "type": "address"
        }
      ],
      "stateMutability": "view",
      "type": "function"
    },
    {
      "inputs": [],
      "name": "formula",
      "outputs": [
        {
          "internalType": "address",
          "name": "",
          "type": "address"
        }
      ],
      "stateMutability": "view",
      "type": "function"
    },
    {
      "inputs": [
        {
          "internalType": "address",
          "name": "tokenA",
          "type": "address"
        },
        {
          "internalType": "address",
          "name": "tokenB",
          "type": "address"
        },
        {
          "internalType": "uint32",
          "name": "tokenWeightA",
          "type": "uint32"
        }
      ],
      "name": "getPair",
      "outputs": [
        {
          "internalType": "address",
          "name": "pair",
          "type": "address"
        }
      ],
      "stateMutability": "view",
      "type": "function"
    },
    {
      "inputs": [
        {
          "internalType": "contract IERC20",
          "name": "token0",
          "type": "address"
        },
        {
          "internalType": "contract IERC20",
          "name": "token1",
          "type": "address"
        }
      ],
      "name": "getPairs",
      "outputs": [
        {
          "internalType": "address[]",
          "name": "_tokenPairs",
          "type": "address[]"
        }
      ],
      "stateMutability": "view",
      "type": "function"
    },
    {
      "inputs": [
        {
          "internalType": "address",
          "name": "pair",
          "type": "address"
        }
      ],
      "name": "getWeightsAndSwapFee",
      "outputs": [
        {
          "internalType": "uint32",
          "name": "tokenWeight0",
          "type": "uint32"
        },
        {
          "internalType": "uint32",
          "name": "tokenWeight1",
          "type": "uint32"
        },
        {
          "internalType": "uint32",
          "name": "swapFee",
          "type": "uint32"
        }
      ],
      "stateMutability": "view",
      "type": "function"
    },
    {
      "inputs": [
        {
          "internalType": "address",
          "name": "b",
          "type": "address"
        }
      ],
      "name": "isPair",
      "outputs": [
        {
          "internalType": "bool",
          "name": "",
          "type": "bool"
        }
      ],
      "stateMutability": "view",
      "type": "function"
    },
    {
      "inputs": [],
      "name": "owner",
      "outputs": [
        {
          "internalType": "address",
          "name": "",
          "type": "address"
        }
      ],
      "stateMutability": "view",
      "type": "function"
    },
    {
      "inputs": [],
      "name": "pairGovernance",
      "outputs": [
        {
          "internalType": "address",
          "name": "",
          "type": "address"
        }
      ],
      "stateMutability": "view",
      "type": "function"
    },
    {
      "inputs": [],
      "name": "protocolFee",
      "outputs": [
        {
          "internalType": "uint256",
          "name": "",
          "type": "uint256"
        }
      ],
      "stateMutability": "view",
      "type": "function"
    },
    {
      "inputs": [],
      "name": "renounceOwnership",
      "outputs": [],
      "stateMutability": "nonpayable",
      "type": "function"
    },
    {
      "inputs": [
        {
          "internalType": "address",
          "name": "_feeTo",
          "type": "address"
        }
      ],
      "name": "setFeeTo",
      "outputs": [],
      "stateMutability": "nonpayable",
      "type": "function"
    },
    {
      "inputs": [
        {
          "internalType": "address",
          "name": "_feeToSetter",
          "type": "address"
        }
      ],
      "name": "setFeeToSetter",
      "outputs": [],
      "stateMutability": "nonpayable",
      "type": "function"
    },
    {
      "inputs": [
        {
          "internalType": "uint256",
          "name": "_protocolFee",
          "type": "uint256"
        }
      ],
      "name": "setProtocolFee",
      "outputs": [],
      "stateMutability": "nonpayable",
      "type": "function"
    },
    {
      "inputs": [
        {
          "internalType": "address",
          "name": "_pair",
          "type": "address"
        },
        {
          "internalType": "uint32",
          "name": "_newSwapFee",
          "type": "uint32"
        },
        {
          "internalType": "uint32",
          "name": "_amp",
          "type": "uint32"
        }
      ],
      "name": "setSwapParams",
      "outputs": [],
      "stateMutability": "nonpayable",
      "type": "function"
    },
    {
      "inputs": [],
      "name": "swapFeeGovernance",
      "outputs": [
        {
          "internalType": "address",
          "name": "",
          "type": "address"
        }
      ],
      "stateMutability": "view",
      "type": "function"
    },
    {
      "inputs": [
        {
          "internalType": "address",
          "name": "newOwner",
          "type": "address"
        }
      ],
      "name": "transferOwnership",
      "outputs": [],
      "stateMutability": "nonpayable",
      "type": "function"
    }
  ],
  "transactionHash": "0xe57c156e237311ca8eb2153d93a6305fb676fb741d301436863b39ad037dbb48",
  "args": [
    "0xf39Fd6e51aad88F6F4ce6aB8827279cffFb92266",
    "0x8A791620dd6260079BF849Dc5567aDC3F2FdC318",
    "0xf39Fd6e51aad88F6F4ce6aB8827279cffFb92266"
  ],
  "solcInputHash": "b7fdf3cf6099b2a1f304dfce08fdfa28",
  "bytecode": "0x60806040523480156200001157600080fd5b5060405162006070380380620060708339810160408190526200003491620000ef565b6200003f3362000082565b600480546001600160a01b039485166001600160a01b0319918216179091556002805493851693821693909317909255600a805491909316911617905562000139565b600080546001600160a01b038381166001600160a01b0319831681178455604051919092169283917f8be0079c531659141344cd1fd0a4f28419497f9722a3daafe3b4186f6b6457e09190a35050565b80516001600160a01b0381168114620000ea57600080fd5b919050565b6000806000606084860312156200010557600080fd5b6200011084620000d2565b92506200012060208501620000d2565b91506200013060408501620000d2565b90509250925092565b615f2780620001496000396000f3fe608060405234801561001057600080fd5b50600436106101775760003560e01c80635e0464ae116100d8578063b0e21e8a1161008c578063e5e31b1311610066578063e5e31b1314610361578063f2fde38b146103aa578063f46901ed146103bd57600080fd5b8063b0e21e8a1461030b578063ca22297914610314578063e32a25011461034e57600080fd5b8063787dce3d116100bd578063787dce3d146102c75780638da5cb5b146102da578063a2e74af6146102f857600080fd5b80635e0464ae146102aa578063715018a6146102bd57600080fd5b8063257671f51161012f578063493468f511610114578063493468f5146102625780634b75f54f14610282578063574f2ba3146102a257600080fd5b8063257671f51461023957806335a54e061461024f57600080fd5b806316093fad1161016057806316093fad146101e65780631d44d457146102065780631e3dd18b1461022657600080fd5b8063017e7e581461017c578063094b7415146101c6575b600080fd5b60015461019c9073ffffffffffffffffffffffffffffffffffffffff1681565b60405173ffffffffffffffffffffffffffffffffffffffff90911681526020015b60405180910390f35b60045461019c9073ffffffffffffffffffffffffffffffffffffffff1681565b6101f96101f436600461169b565b6103d0565b6040516101bd91906116d4565b60055461019c9073ffffffffffffffffffffffffffffffffffffffff1681565b61019c61023436600461172e565b6104e3565b61024161051a565b6040519081526020016101bd565b61019c61025d366004611759565b610582565b600a5461019c9073ffffffffffffffffffffffffffffffffffffffff1681565b60025461019c9073ffffffffffffffffffffffffffffffffffffffff1681565b600754610241565b61019c6102b83660046117a4565b6106a9565b6102c5610cf2565b005b6102c56102d536600461172e565b610d7f565b60005473ffffffffffffffffffffffffffffffffffffffff1661019c565b6102c5610306366004611815565b610e88565b61024160035481565b610327610322366004611815565b610f50565b6040805163ffffffff948516815292841660208401529216918101919091526060016101bd565b6102c561035c366004611839565b611080565b61039a61036f366004611815565b73ffffffffffffffffffffffffffffffffffffffff1660009081526008602052604090205460ff1690565b60405190151581526020016101bd565b6102c56103b8366004611815565b61129b565b6102c56103cb366004611815565b6113cb565b73ffffffffffffffffffffffffffffffffffffffff8281166000908152600960209081526040808320938516835292905220546060908067ffffffffffffffff81111561041f5761041f611869565b604051908082528060200260200182016040528015610448578160200160208202803683370190505b50915060005b818110156104db5773ffffffffffffffffffffffffffffffffffffffff80861660009081526009602090815260408083209388168352929052206104929082611493565b8382815181106104a4576104a4611898565b73ffffffffffffffffffffffffffffffffffffffff90921660209283029190910190910152806104d3816118f6565b91505061044e565b505092915050565b600781815481106104f357600080fd5b60009182526020909120015473ffffffffffffffffffffffffffffffffffffffff16905081565b6040516105296020820161166c565b7fffffffffffffffffffffffffffffffffffffffffffffffffffffffffffffffe082820381018352601f909101166040819052610569919060200161192e565b6040516020818303038152906040528051906020012081565b6000806000808573ffffffffffffffffffffffffffffffffffffffff168773ffffffffffffffffffffffffffffffffffffffff16106105cd5785876105c8876064611969565b6105d1565b8686865b6040517fffffffffffffffffffffffffffffffffffffffff000000000000000000000000606085811b8216602084015284901b1660348201527fffffffff0000000000000000000000000000000000000000000000000000000060e083901b1660488201529295509093509150600090604c01604080517fffffffffffffffffffffffffffffffffffffffffffffffffffffffffffffffe081840301815291815281516020928301206000908152600690925290205473ffffffffffffffffffffffffffffffffffffffff1698975050505050505050565b60008473ffffffffffffffffffffffffffffffffffffffff168673ffffffffffffffffffffffffffffffffffffffff1603610745576040517f08c379a000000000000000000000000000000000000000000000000000000000815260206004820152600760248201527f524c503a2049410000000000000000000000000000000000000000000000000060448201526064015b60405180910390fd5b60028463ffffffff1610158015610763575060628463ffffffff1611155b801561077d575061077560028561198e565b63ffffffff16155b6107e3576040517f08c379a000000000000000000000000000000000000000000000000000000000815260206004820152600760248201527f524c503a20495700000000000000000000000000000000000000000000000000604482015260640161073c565b60008060008773ffffffffffffffffffffffffffffffffffffffff168973ffffffffffffffffffffffffffffffffffffffff161061082d578789610828896064611969565b610831565b8888885b9194509250905073ffffffffffffffffffffffffffffffffffffffff83166108b5576040517f08c379a000000000000000000000000000000000000000000000000000000000815260206004820152600760248201527f524c503a205a4100000000000000000000000000000000000000000000000000604482015260640161073c565b6000604051806020016108c79061166c565b7fffffffffffffffffffffffffffffffffffffffffffffffffffffffffffffffe082820381018352601f9091011660408190527fffffffffffffffffffffffffffffffffffffffff000000000000000000000000606087811b8216602084015286901b1660348201527fffffffff0000000000000000000000000000000000000000000000000000000060e085901b166048820152909150600090604c01604080517fffffffffffffffffffffffffffffffffffffffffffffffffffffffffffffffe081840301815291815281516020928301206000818152600690935291205490915073ffffffffffffffffffffffffffffffffffffffff1615610a28576040517f08c379a000000000000000000000000000000000000000000000000000000000815260206004820152600760248201527f524c503a20504500000000000000000000000000000000000000000000000000604482015260640161073c565b808251602084016000f56040517f6ecf2b2200000000000000000000000000000000000000000000000000000000815273ffffffffffffffffffffffffffffffffffffffff8781166004830152868116602483015263ffffffff8616604483015291975090871690636ecf2b2290606401600060405180830381600087803b158015610ab357600080fd5b505af1158015610ac7573d6000803e3d6000fd5b50506040517ff7747b4200000000000000000000000000000000000000000000000000000000815263ffffffff808c1660048301528a16602482015273ffffffffffffffffffffffffffffffffffffffff8916925063f7747b429150604401600060405180830381600087803b158015610b4057600080fd5b505af1158015610b54573d6000803e3d6000fd5b50505073ffffffffffffffffffffffffffffffffffffffff8087166000908152600960209081526040808320938916835292905220610b94915087611513565b5073ffffffffffffffffffffffffffffffffffffffff8085166000908152600960209081526040808320938916835292905220610bd19087611513565b506000818152600660209081526040808320805473ffffffffffffffffffffffffffffffffffffffff8b81167fffffffffffffffffffffffff0000000000000000000000000000000000000000928316811790935560078054600181810183557fa66cc928b5edb82af9bd49922954155ab7b0942694bea4ce44661d9a8736c68890910180549094168517909355838752600886529584902080547fffffffffffffffffffffffffffffffffffffffffffffffffffffffffffffff00169092179091559354825191825263ffffffff88169382019390935290810191909152858216918716907f3541d8fea55be35f686281f975bf8b7ab8fbb500c1c7ddd6c4e714655e9cd4e29060600160405180910390a3505050505095945050505050565b60005473ffffffffffffffffffffffffffffffffffffffff163314610d73576040517f08c379a000000000000000000000000000000000000000000000000000000000815260206004820181905260248201527f4f776e61626c653a2063616c6c6572206973206e6f7420746865206f776e6572604482015260640161073c565b610d7d60006115b7565b565b60045473ffffffffffffffffffffffffffffffffffffffff163314610e00576040517f08c379a000000000000000000000000000000000000000000000000000000000815260206004820152600660248201527f524c503a20460000000000000000000000000000000000000000000000000000604482015260640161073c565b801580610e1d57506127108110158015610e1d5750620186a08111155b610e83576040517f08c379a000000000000000000000000000000000000000000000000000000000815260206004820152600860248201527f524c503a20495046000000000000000000000000000000000000000000000000604482015260640161073c565b600355565b60045473ffffffffffffffffffffffffffffffffffffffff163314610f09576040517f08c379a000000000000000000000000000000000000000000000000000000000815260206004820152600660248201527f524c503a20460000000000000000000000000000000000000000000000000000604482015260640161073c565b600480547fffffffffffffffffffffffff00000000000000000000000000000000000000001673ffffffffffffffffffffffffffffffffffffffff92909216919091179055565b73ffffffffffffffffffffffffffffffffffffffff81166000908152600860205260408120548190819060ff161561106e578373ffffffffffffffffffffffffffffffffffffffff166332bfe4696040518163ffffffff1660e01b81526004016040805180830381865afa158015610fcc573d6000803e3d6000fd5b505050506040513d601f19601f82011682018060405250810190610ff091906119d8565b80935081945050508373ffffffffffffffffffffffffffffffffffffffff1663d4cadf686040518163ffffffff1660e01b8152600401602060405180830381865afa158015611043573d6000803e3d6000fd5b505050506040513d601f19601f820116820180604052508101906110679190611a07565b9050611079565b5060329150819050601e5b9193909250565b600a5473ffffffffffffffffffffffffffffffffffffffff163314806110bd575060005473ffffffffffffffffffffffffffffffffffffffff1633145b611123576040517f08c379a000000000000000000000000000000000000000000000000000000000815260206004820152600c60248201527f756e617574686f72697a65640000000000000000000000000000000000000000604482015260640161073c565b6101f48263ffffffff161115801561114357506127108163ffffffff1610155b6111a9576040517f08c379a000000000000000000000000000000000000000000000000000000000815260206004820152600860248201527f524c503a20495346000000000000000000000000000000000000000000000000604482015260640161073c565b6040517ff7747b4200000000000000000000000000000000000000000000000000000000815263ffffffff80841660048301528216602482015273ffffffffffffffffffffffffffffffffffffffff84169063f7747b4290604401600060405180830381600087803b15801561121e57600080fd5b505af1158015611232573d6000803e3d6000fd5b505050508273ffffffffffffffffffffffffffffffffffffffff1663fff6cae96040518163ffffffff1660e01b8152600401600060405180830381600087803b15801561127e57600080fd5b505af1158015611292573d6000803e3d6000fd5b50505050505050565b60005473ffffffffffffffffffffffffffffffffffffffff16331461131c576040517f08c379a000000000000000000000000000000000000000000000000000000000815260206004820181905260248201527f4f776e61626c653a2063616c6c6572206973206e6f7420746865206f776e6572604482015260640161073c565b73ffffffffffffffffffffffffffffffffffffffff81166113bf576040517f08c379a000000000000000000000000000000000000000000000000000000000815260206004820152602660248201527f4f776e61626c653a206e6577206f776e657220697320746865207a65726f206160448201527f6464726573730000000000000000000000000000000000000000000000000000606482015260840161073c565b6113c8816115b7565b50565b60045473ffffffffffffffffffffffffffffffffffffffff16331461144c576040517f08c379a000000000000000000000000000000000000000000000000000000000815260206004820152600660248201527f524c503a20460000000000000000000000000000000000000000000000000000604482015260640161073c565b600180547fffffffffffffffffffffffff00000000000000000000000000000000000000001673ffffffffffffffffffffffffffffffffffffffff92909216919091179055565b81546000908210611500576040517f08c379a000000000000000000000000000000000000000000000000000000000815260206004820152600d60248201527f4f55545f4f465f424f554e445300000000000000000000000000000000000000604482015260640161073c565b61150a838361162c565b90505b92915050565b73ffffffffffffffffffffffffffffffffffffffff811660009081526001830160205260408120546115af57508154600180820184556000848152602080822090930180547fffffffffffffffffffffffff00000000000000000000000000000000000000001673ffffffffffffffffffffffffffffffffffffffff86169081179091558554908252828601909352604090209190915561150d565b50600061150d565b6000805473ffffffffffffffffffffffffffffffffffffffff8381167fffffffffffffffffffffffff0000000000000000000000000000000000000000831681178455604051919092169283917f8be0079c531659141344cd1fd0a4f28419497f9722a3daafe3b4186f6b6457e09190a35050565b600082600001828154811061164357611643611898565b60009182526020909120015473ffffffffffffffffffffffffffffffffffffffff169392505050565b6144cd80611a2583390190565b73ffffffffffffffffffffffffffffffffffffffff811681146113c857600080fd5b600080604083850312156116ae57600080fd5b82356116b981611679565b915060208301356116c981611679565b809150509250929050565b6020808252825182820181905260009190848201906040850190845b8181101561172257835173ffffffffffffffffffffffffffffffffffffffff16835292840192918401916001016116f0565b50909695505050505050565b60006020828403121561174057600080fd5b5035919050565b63ffffffff811681146113c857600080fd5b60008060006060848603121561176e57600080fd5b833561177981611679565b9250602084013561178981611679565b9150604084013561179981611747565b809150509250925092565b600080600080600060a086880312156117bc57600080fd5b85356117c781611679565b945060208601356117d781611679565b935060408601356117e781611747565b925060608601356117f781611747565b9150608086013561180781611747565b809150509295509295909350565b60006020828403121561182757600080fd5b813561183281611679565b9392505050565b60008060006060848603121561184e57600080fd5b833561185981611679565b9250602084013561178981611747565b7f4e487b7100000000000000000000000000000000000000000000000000000000600052604160045260246000fd5b7f4e487b7100000000000000000000000000000000000000000000000000000000600052603260045260246000fd5b7f4e487b7100000000000000000000000000000000000000000000000000000000600052601160045260246000fd5b60007fffffffffffffffffffffffffffffffffffffffffffffffffffffffffffffffff8203611927576119276118c7565b5060010190565b6000825160005b8181101561194f5760208186018101518583015201611935565b8181111561195e576000828501525b509190910192915050565b600063ffffffff83811690831681811015611986576119866118c7565b039392505050565b600063ffffffff808416806119cc577f4e487b7100000000000000000000000000000000000000000000000000000000600052601260045260246000fd5b92169190910692915050565b600080604083850312156119eb57600080fd5b82516119f681611747565b60208401519092506116c981611747565b600060208284031215611a1957600080fd5b81516118328161174756fe6080604052600b805460ff60401b19166801000000000000000017905534801561002857600080fd5b50604080518082018252601f81527f5265717569656d2050616972204c69717569646974792050726f7669646572006020918201528151808301835260018152603160f81b9082015281517f8b73c3c69bb8fe3d512ecc4cf759cc79239f7b179b0ffacaa9a75d522b39400f818301527f4d949f5c4c4f80d7bdbde28a36135fecf440532cf0f2bb46c4801ec3299b1062818401527fc89efdaa54c0f20c7adf612882df0950f5a951637e0307cdcb4c672f298b8bc660608201524660808201523060a0808301919091528351808303909101815260c09091019092528151910120600355600580546001600160a01b0319163317905561439f8061012e6000396000f3fe608060405234801561001057600080fd5b50600436106102415760003560e01c80636ecf2b2211610145578063cc56fd43116100bd578063d54a8d181161008c578063e9255bae11610071578063e9255bae1461060b578063f7747b421461061e578063fff6cae91461063157600080fd5b8063d54a8d18146105a4578063dd62ed3e146105e057600080fd5b8063cc56fd4314610548578063d21220a71461055b578063d4cadf681461057b578063d505accf1461059157600080fd5b806395d89b4111610114578063ba9a7a56116100f9578063ba9a7a561461050c578063bc25cf7714610515578063c45a01551461052857600080fd5b806395d89b41146104f1578063a9059cbb146104f957600080fd5b80636ecf2b221461047657806370a08231146104895780637ecebe00146104a957806389afcb44146104c957600080fd5b806330adf81f116101d85780633644e515116101a75780634ac00e031161018c5780634ac00e03146104305780634b75f54f146104435780636a6278421461046357600080fd5b80633644e515146103f057806349386b16146103f957600080fd5b806330adf81f14610359578063313ce5671461038057806332bfe4691461039a57806332fd5493146103dd57600080fd5b80630dfe1681116102145780630dfe1681146102d75780630e6d8bce1461031c57806318160ddd1461033d57806323b872dd1461034657600080fd5b8063022c0d9f1461024657806306fdde031461025b5780630902f1ac14610279578063095ea7b3146102b4575b600080fd5b610259610254366004613dd3565b610639565b005b61026361075d565b6040516102709190613edf565b60405180910390f35b61028161084b565b60405161027091908151815260208083015190820152604080830151908201526060918201519181019190915260800190565b6102c76102c2366004613ef2565b6108ca565b6040519015158152602001610270565b6006546102f79073ffffffffffffffffffffffffffffffffffffffff1681565b60405173ffffffffffffffffffffffffffffffffffffffff9091168152602001610270565b61032f61032a366004613f1e565b6108e0565b604051908152602001610270565b61032f60005481565b6102c7610354366004613f7d565b610c7a565b61032f7f6e71edae12b1b97f4d1f60370fef10105fa2faae0126114a169c64845d6126c981565b610388601281565b60405160ff9091168152602001610270565b600a54600b54604080517c010000000000000000000000000000000000000000000000000000000090930463ffffffff9081168452909116602083015201610270565b6102596103eb366004613f1e565b610d2c565b61032f60035481565b600c5461041b906e010000000000000000000000000000900463ffffffff1681565b60405163ffffffff9091168152602001610270565b61032f61043e366004613f1e565b610e4e565b6009546102f79073ffffffffffffffffffffffffffffffffffffffff1681565b61032f610471366004613fbe565b611114565b610259610484366004613fef565b61158c565b61032f610497366004613fbe565b60016020526000908152604090205481565b61032f6104b7366004613fbe565b60046020526000908152604090205481565b6104dc6104d7366004613fbe565b6117df565b60408051928352602083019190915201610270565b610263611d25565b6102c7610507366004613ef2565b611e03565b61032f6103e881565b610259610523366004613fbe565b611e10565b6005546102f79073ffffffffffffffffffffffffffffffffffffffff1681565b61032f610556366004613f7d565b61202f565b6007546102f79073ffffffffffffffffffffffffffffffffffffffff1681565b600b54640100000000900463ffffffff1661041b565b61025961059f366004614036565b612295565b600a54604080516dffffffffffffffffffffffffffff80841682526e010000000000000000000000000000909304909216602083015201610270565b61032f6105ee3660046140ad565b600260209081526000928352604080842090915290825290205481565b61032f610619366004613f7d565b612580565b61025961062c3660046140e6565b6127a0565b61025961289f565b600b5468010000000000000000900460ff166106b6576040517f08c379a000000000000000000000000000000000000000000000000000000000815260206004820152600860248201527f5245514c503a204c00000000000000000000000000000000000000000000000060448201526064015b60405180910390fd5b600b80547fffffffffffffffffffffffffffffffffffffffffffffff00ffffffffffffffff169055604080516020601f840181900481028201810190925282815261072291879187918791908790879081908401838280828437600092019190915250612b3392505050565b5050600b80547fffffffffffffffffffffffffffffffffffffffffffffff00ffffffffffffffff166801000000000000000017905550505050565b600a54600b546040517f5265717569656d2000000000000000000000000000000000000000000000000060208201527c010000000000000000000000000000000000000000000000000000000090920460e090811b7fffffffff0000000000000000000000000000000000000000000000000000000090811660288501527f2d00000000000000000000000000000000000000000000000000000000000000602c85015291901b16602d8201527f204c50000000000000000000000000000000000000000000000000000000000060318201526060906034015b604051602081830303815290604052905090565b6108766040518060800160405280600081526020016000815260200160008152602001600081525090565b6008546dffffffffffffffffffffffffffff80821683526e01000000000000000000000000000090910481166020830152600b546901000000000000000000900481166040830152600c5416606082015290565b60006108d7338484613423565b50600192915050565b600b5460009068010000000000000000900460ff1661095b576040517f08c379a000000000000000000000000000000000000000000000000000000000815260206004820152600860248201527f5245514c503a204c00000000000000000000000000000000000000000000000060448201526064016106ad565b600b80547fffffffffffffffffffffffffffffffffffffffffffffff00ffffffffffffffff16905560065473ffffffffffffffffffffffffffffffffffffffff878116911614600081610a53576040805160e0810182526008546dffffffffffffffffffffffffffff6e0100000000000000000000000000008204811683529081166020830152600c54811692820192909252600b5469010000000000000000008104909216606082015263ffffffff8083166080830152600a547c01000000000000000000000000000000000000000000000000000000009004811660a083015264010000000090920490911660c0820152610afa565b6040805160e0810182526008546dffffffffffffffffffffffffffff80821683526e01000000000000000000000000000090910481166020830152600b5469010000000000000000008104821693830193909352600c54166060820152600a5463ffffffff7c01000000000000000000000000000000000000000000000000000000009091048116608083015280831660a083015264010000000090920490911660c08201525b600954604080517fa56baa91000000000000000000000000000000000000000000000000000000008152600481018a9052835160248201526020840151604482015290830151606482015260608301516084820152608083015163ffffffff90811660a483015260a0840151811660c483015260c08401511660e482015291925060009173ffffffffffffffffffffffffffffffffffffffff9091169063a56baa9190610104015b602060405180830381865afa158015610bbf573d6000803e3d6000fd5b505050506040513d601f19601f82011682018060405250810190610be39190614119565b905060008084610bf557826000610bf9565b6000835b9092509050610c3782828960005b6040519080825280601f01601f191660200182016040528015610c31576020820181803683370190505b50612b33565b95505050505050600b80547fffffffffffffffffffffffffffffffffffffffffffffff00ffffffffffffffff166801000000000000000017905595945050505050565b73ffffffffffffffffffffffffffffffffffffffff831660009081526002602090815260408083203384529091528120547fffffffffffffffffffffffffffffffffffffffffffffffffffffffffffffffff14610d175773ffffffffffffffffffffffffffffffffffffffff8416600090815260026020908152604080832033845290915281208054849290610d11908490614161565b90915550505b610d22848484613492565b5060019392505050565b600b5468010000000000000000900460ff16610da4576040517f08c379a000000000000000000000000000000000000000000000000000000000815260206004820152600860248201527f5245514c503a204c00000000000000000000000000000000000000000000000060448201526064016106ad565b600b80547fffffffffffffffffffffffffffffffffffffffffffffff00ffffffffffffffff169055600654600090819073ffffffffffffffffffffffffffffffffffffffff888116911614610dfb57836000610dff565b6000845b9092509050610e118282856000610c07565b5050600b80547fffffffffffffffffffffffffffffffffffffffffffffff00ffffffffffffffff1668010000000000000000179055505050505050565b600b5460009068010000000000000000900460ff16610ec9576040517f08c379a000000000000000000000000000000000000000000000000000000000815260206004820152600860248201527f5245514c503a204c00000000000000000000000000000000000000000000000060448201526064016106ad565b600b80547fffffffffffffffffffffffffffffffffffffffffffffff00ffffffffffffffff16905560065473ffffffffffffffffffffffffffffffffffffffff878116911614600081610fc1576040805160e0810182526008546dffffffffffffffffffffffffffff6e0100000000000000000000000000008204811683529081166020830152600c54811692820192909252600b5469010000000000000000008104909216606082015263ffffffff8083166080830152600a547c01000000000000000000000000000000000000000000000000000000009004811660a083015264010000000090920490911660c0820152611068565b6040805160e0810182526008546dffffffffffffffffffffffffffff80821683526e01000000000000000000000000000090910481166020830152600b5469010000000000000000008104821693830193909352600c54166060820152600a5463ffffffff7c01000000000000000000000000000000000000000000000000000000009091048116608083015280831660a083015264010000000090920490911660c08201525b600954604080517f8a91e6dc000000000000000000000000000000000000000000000000000000008152600481018a9052835160248201526020840151604482015290830151606482015260608301516084820152608083015163ffffffff90811660a483015260a0840151811660c483015260c08401511660e482015291925060009173ffffffffffffffffffffffffffffffffffffffff90911690638a91e6dc9061010401610ba2565b600b5460009068010000000000000000900460ff1661118f576040517f08c379a000000000000000000000000000000000000000000000000000000000815260206004820152600860248201527f5245514c503a204c00000000000000000000000000000000000000000000000060448201526064016106ad565b600b80547fffffffffffffffffffffffffffffffffffffffffffffff00ffffffffffffffff16905560006111c161084b565b90506111ee6040518060800160405280600081526020016000815260200160008152602001600081525090565b6006546040517f70a0823100000000000000000000000000000000000000000000000000000000815230600482015273ffffffffffffffffffffffffffffffffffffffff909116906370a0823190602401602060405180830381865afa15801561125c573d6000803e3d6000fd5b505050506040513d601f19601f820116820180604052508101906112809190614119565b81526007546040517f70a0823100000000000000000000000000000000000000000000000000000000815230600482015273ffffffffffffffffffffffffffffffffffffffff909116906370a0823190602401602060405180830381865afa1580156112f0573d6000803e3d6000fd5b505050506040513d601f19601f820116820180604052508101906113149190614119565b60208201528151815160009161132991614161565b90506000836020015183602001516113419190614161565b905061134c83613567565b5060008054908190036113f357600c5484516e01000000000000000000000000000090910463ffffffff169061271090611387908390614178565b61139191906141e4565b60408601526020850151612710906113b09063ffffffff841690614178565b6113ba91906141e4565b60608601526103e86113d46113cf8587614178565b6138fa565b6113de9190614161565b96506113ed60006103e861396a565b50611496565b845161142b906114038386614178565b61140d91906141e4565b602087015161141c8486614178565b61142691906141e4565b613a0d565b9550600061143982886141f8565b90506114608282886040015161144f9190614178565b61145991906141e4565b8651613a25565b6040860152606086015161148f90839061147b908490614178565b61148591906141e4565b8660200151613a25565b6060860152505b60008611611500576040517f08c379a000000000000000000000000000000000000000000000000000000000815260206004820152600a60248201527f5245514c503a20494c4d0000000000000000000000000000000000000000000060448201526064016106ad565b61150a878761396a565b61151384613a34565b604080518481526020810184905233917f4c209b5fc8ad50758f13e2e1088ba56a560dff690a1c6fef26394f4c03821c4f910160405180910390a25050600b80547fffffffffffffffffffffffffffffffffffffffffffffff00ffffffffffffffff166801000000000000000017905550919392505050565b60055473ffffffffffffffffffffffffffffffffffffffff16331461160d576040517f08c379a000000000000000000000000000000000000000000000000000000000815260206004820152600860248201527f5245514c503a204600000000000000000000000000000000000000000000000060448201526064016106ad565b600680547fffffffffffffffffffffffff000000000000000000000000000000000000000090811673ffffffffffffffffffffffffffffffffffffffff8681169190911790925560078054909116918416919091179055600a80547bffffffffffffffffffffffffffffffffffffffffffffffffffffffff167c010000000000000000000000000000000000000000000000000000000063ffffffff848116820292909217928390556116c39204166064614210565b600b805463ffffffff929092167fffffffffffffffffffffffffffffffffffffffffffffffff000000000000000090921691909117640a00000000179055600554604080517f4b75f54f000000000000000000000000000000000000000000000000000000008152905173ffffffffffffffffffffffffffffffffffffffff90921691634b75f54f916004808201926020929091908290030181865afa158015611771573d6000803e3d6000fd5b505050506040513d601f19601f820116820180604052508101906117959190614235565b600980547fffffffffffffffffffffffff00000000000000000000000000000000000000001673ffffffffffffffffffffffffffffffffffffffff92909216919091179055505050565b600b54600090819068010000000000000000900460ff1661185c576040517f08c379a000000000000000000000000000000000000000000000000000000000815260206004820152600860248201527f5245514c503a204c00000000000000000000000000000000000000000000000060448201526064016106ad565b600b80547fffffffffffffffffffffffffffffffffffffffffffffff00ffffffffffffffff169055600061188e61084b565b6006546007546040517f70a0823100000000000000000000000000000000000000000000000000000000815230600482015292935073ffffffffffffffffffffffffffffffffffffffff9182169291169060009083906370a0823190602401602060405180830381865afa15801561190a573d6000803e3d6000fd5b505050506040513d601f19601f8201168201806040525081019061192e9190614119565b6040517f70a0823100000000000000000000000000000000000000000000000000000000815230600482015290915060009073ffffffffffffffffffffffffffffffffffffffff8416906370a0823190602401602060405180830381865afa15801561199e573d6000803e3d6000fd5b505050506040513d601f19601f820116820180604052508101906119c29190614119565b306000908152600160205260409020549091506119de86613567565b50600054806119ed8584614178565b6119f791906141e4565b985080611a048484614178565b611a0e91906141e4565b9750600089118015611a205750600088115b611a86576040517f08c379a000000000000000000000000000000000000000000000000000000000815260206004820152600a60248201527f5245514c503a20494c420000000000000000000000000000000000000000000060448201526064016106ad565b611a903083613ba1565b611a9b868b8b613c3e565b611aa6858b8a613c3e565b611ad16040518060800160405280600081526020016000815260200160008152602001600081525090565b6040517f70a0823100000000000000000000000000000000000000000000000000000000815230600482015273ffffffffffffffffffffffffffffffffffffffff8816906370a0823190602401602060405180830381865afa158015611b3b573d6000803e3d6000fd5b505050506040513d601f19601f82011682018060405250810190611b5f9190614119565b81526040517f70a0823100000000000000000000000000000000000000000000000000000000815230600482015273ffffffffffffffffffffffffffffffffffffffff8716906370a0823190602401602060405180830381865afa158015611bcb573d6000803e3d6000fd5b505050506040513d601f19601f82011682018060405250810190611bef9190614119565b602082015287518151600091611c2991611c0a908690614178565b611c1491906141e4565b8a6020015185856020015161141c9190614178565b9050611c5083828b60400151611c3f9190614178565b611c4991906141e4565b8351613a25565b60408301526060890151611c7f908490611c6b908490614178565b611c7591906141e4565b8360200151613a25565b6060830152611c8d82613a34565b604080518c8152602081018c905273ffffffffffffffffffffffffffffffffffffffff8e169133917fdccd412f0b1252819cb1fd330b93224ca42612892bb3f4f789976e6d81936496910160405180910390a35050600b80547fffffffffffffffffffffffffffffffffffffffffffffff00ffffffffffffffff16680100000000000000001790555096989597509495505050505050565b600a54600b546040517f524551200000000000000000000000000000000000000000000000000000000060208201527c010000000000000000000000000000000000000000000000000000000090920460e090811b7fffffffff0000000000000000000000000000000000000000000000000000000090811660248501527f2d00000000000000000000000000000000000000000000000000000000000000602885015291901b1660298201527f204c500000000000000000000000000000000000000000000000000000000000602d820152606090603001610837565b60006108d7338484613492565b600b5468010000000000000000900460ff16611e88576040517f08c379a000000000000000000000000000000000000000000000000000000000815260206004820152600860248201527f5245514c503a204c00000000000000000000000000000000000000000000000060448201526064016106ad565b600b80547fffffffffffffffffffffffffffffffffffffffffffffff00ffffffffffffffff1690556006546007546008546040517f70a0823100000000000000000000000000000000000000000000000000000000815230600482015273ffffffffffffffffffffffffffffffffffffffff9384169390921691611f7791849186916dffffffffffffffffffffffffffff169083906370a08231906024015b602060405180830381865afa158015611f44573d6000803e3d6000fd5b505050506040513d601f19601f82011682018060405250810190611f689190614119565b611f729190614161565b613c3e565b6008546040517f70a08231000000000000000000000000000000000000000000000000000000008152306004820152611ff791839186916e01000000000000000000000000000090046dffffffffffffffffffffffffffff169073ffffffffffffffffffffffffffffffffffffffff8416906370a0823190602401611f27565b5050600b80547fffffffffffffffffffffffffffffffffffffffffffffff00ffffffffffffffff166801000000000000000017905550565b600654600090819073ffffffffffffffffffffffffffffffffffffffff868116911614612101576040805160e0810182526008546dffffffffffffffffffffffffffff6e0100000000000000000000000000008204811683529081166020830152600c54811692820192909252600b5469010000000000000000008104909216606082015263ffffffff8083166080830152600a547c01000000000000000000000000000000000000000000000000000000009004811660a083015264010000000090920490911660c08201526121a8565b6040805160e0810182526008546dffffffffffffffffffffffffffff80821683526e01000000000000000000000000000090910481166020830152600b5469010000000000000000008104821693830193909352600c54166060820152600a5463ffffffff7c01000000000000000000000000000000000000000000000000000000009091048116608083015280831660a083015264010000000090920490911660c08201525b600954604080517fa56baa9100000000000000000000000000000000000000000000000000000000815260048101879052835160248201526020840151604482015290830151606482015260608301516084820152608083015163ffffffff90811660a483015260a0840151811660c483015260c08401511660e482015291925073ffffffffffffffffffffffffffffffffffffffff169063a56baa9190610104015b602060405180830381865afa158015612268573d6000803e3d6000fd5b505050506040513d601f19601f8201168201806040525081019061228c9190614119565b95945050505050565b428410156122ff576040517f08c379a000000000000000000000000000000000000000000000000000000000815260206004820152600c60248201527f524c503a2045585049524544000000000000000000000000000000000000000060448201526064016106ad565b60035473ffffffffffffffffffffffffffffffffffffffff8816600090815260046020526040812080549192917f6e71edae12b1b97f4d1f60370fef10105fa2faae0126114a169c64845d6126c9918b918b918b91908761235f83614252565b9091555060408051602081019690965273ffffffffffffffffffffffffffffffffffffffff94851690860152929091166060840152608083015260a082015260c0810187905260e001604051602081830303815290604052805190602001206040516020016124009291907f190100000000000000000000000000000000000000000000000000000000000081526002810192909252602282015260420190565b604080517fffffffffffffffffffffffffffffffffffffffffffffffffffffffffffffffe08184030181528282528051602091820120600080855291840180845281905260ff88169284019290925260608301869052608083018590529092509060019060a0016020604051602081039080840390855afa158015612489573d6000803e3d6000fd5b50506040517fffffffffffffffffffffffffffffffffffffffffffffffffffffffffffffffe0015191505073ffffffffffffffffffffffffffffffffffffffff81161580159061250457508873ffffffffffffffffffffffffffffffffffffffff168173ffffffffffffffffffffffffffffffffffffffff16145b61256a576040517f08c379a000000000000000000000000000000000000000000000000000000000815260206004820152600760248201527f524c503a2049530000000000000000000000000000000000000000000000000060448201526064016106ad565b612575898989613423565b505050505050505050565b600654600090819073ffffffffffffffffffffffffffffffffffffffff868116911614612652576040805160e0810182526008546dffffffffffffffffffffffffffff6e0100000000000000000000000000008204811683529081166020830152600c54811692820192909252600b5469010000000000000000008104909216606082015263ffffffff8083166080830152600a547c01000000000000000000000000000000000000000000000000000000009004811660a083015264010000000090920490911660c08201526126f9565b6040805160e0810182526008546dffffffffffffffffffffffffffff80821683526e01000000000000000000000000000090910481166020830152600b5469010000000000000000008104821693830193909352600c54166060820152600a5463ffffffff7c01000000000000000000000000000000000000000000000000000000009091048116608083015280831660a083015264010000000090920490911660c08201525b600954604080517f8a91e6dc00000000000000000000000000000000000000000000000000000000815260048101879052835160248201526020840151604482015290830151606482015260608301516084820152608083015163ffffffff90811660a483015260a0840151811660c483015260c08401511660e482015291925073ffffffffffffffffffffffffffffffffffffffff1690638a91e6dc906101040161224b565b60055473ffffffffffffffffffffffffffffffffffffffff163314612823576040517f08c379a00000000000000000000000000000000000000000000000000000000081526004016106ad9060208082526004908201527f6175746800000000000000000000000000000000000000000000000000000000604082015260600190565b600b805463ffffffff938416640100000000027fffffffffffffffffffffffffffffffffffffffffffffffff00000000ffffffff909116179055600c8054919092166e010000000000000000000000000000027fffffffffffffffffffffffffffff00000000ffffffffffffffffffffffffffff909116179055565b60006128a961084b565b90506128b481613567565b506128e06040518060800160405280600081526020016000815260200160008152602001600081525090565b6006546040517f70a0823100000000000000000000000000000000000000000000000000000000815230600482015273ffffffffffffffffffffffffffffffffffffffff909116906370a0823190602401602060405180830381865afa15801561294e573d6000803e3d6000fd5b505050506040513d601f19601f820116820180604052508101906129729190614119565b81526007546040517f70a0823100000000000000000000000000000000000000000000000000000000815230600482015273ffffffffffffffffffffffffffffffffffffffff909116906370a0823190602401602060405180830381865afa1580156129e2573d6000803e3d6000fd5b505050506040513d601f19601f82011682018060405250810190612a069190614119565b602082015260008054600854909190612a6c906dffffffffffffffffffffffffffff16612a338482614178565b612a3d91906141e4565b6008546e01000000000000000000000000000090046dffffffffffffffffffffffffffff1661141c8582614178565b600b54909150612ac2908390612aa0908490690100000000000000000090046dffffffffffffffffffffffffffff16614178565b612aaa91906141e4565b6008546dffffffffffffffffffffffffffff16613a25565b6040840152600c54612b1f908390612aeb9084906dffffffffffffffffffffffffffff16614178565b612af591906141e4565b6008546e01000000000000000000000000000090046dffffffffffffffffffffffffffff16613a25565b6060840152612b2d83613a34565b50505050565b600080851180612b435750600084115b612ba9576040517f08c379a000000000000000000000000000000000000000000000000000000000815260206004820152600a60248201527f5245514c503a20494f410000000000000000000000000000000000000000000060448201526064016106ad565b6000612bb361084b565b805190915086108015612bc95750806020015185105b612c2f576040517f08c379a000000000000000000000000000000000000000000000000000000000815260206004820152600960248201527f5245514c503a20494c000000000000000000000000000000000000000000000060448201526064016106ad565b612c5a6040518060800160405280600081526020016000815260200160008152602001600081525090565b60065460075473ffffffffffffffffffffffffffffffffffffffff918216919081169087168214801590612cba57508073ffffffffffffffffffffffffffffffffffffffff168773ffffffffffffffffffffffffffffffffffffffff1614155b612d20576040517f08c379a000000000000000000000000000000000000000000000000000000000815260206004820152600960248201527f5245514c503a204954000000000000000000000000000000000000000000000060448201526064016106ad565b8815612d3157612d3182888b613c3e565b8715612d4257612d4281888a613c3e565b855115612dd4576040517f8492923100000000000000000000000000000000000000000000000000000000815273ffffffffffffffffffffffffffffffffffffffff881690638492923190612da19033908d908d908c9060040161428a565b600060405180830381600087803b158015612dbb57600080fd5b505af1158015612dcf573d6000803e3d6000fd5b505050505b6040517f70a0823100000000000000000000000000000000000000000000000000000000815230600482015273ffffffffffffffffffffffffffffffffffffffff8316906370a0823190602401602060405180830381865afa158015612e3e573d6000803e3d6000fd5b505050506040513d601f19601f82011682018060405250810190612e629190614119565b83526040517f70a0823100000000000000000000000000000000000000000000000000000000815230600482015273ffffffffffffffffffffffffffffffffffffffff8216906370a0823190602401602060405180830381865afa158015612ece573d6000803e3d6000fd5b505050506040513d601f19601f82011682018060405250810190612ef29190614119565b6020840152835183516040860151612f0a91906141f8565b612f149190614161565b6040840152602080850151908401516060860151612f3291906141f8565b612f3c9190614161565b606084015250508151600090612f53908990614161565b825111612f61576000612f7a565b8251612f6e908990614161565b8251612f7a9190614161565b90506000878460200151612f8e9190614161565b836020015111612f9f576000612fbe565b878460200151612faf9190614161565b8360200151612fbe9190614161565b90506000821180612fcf5750600081115b613035576040517f08c379a000000000000000000000000000000000000000000000000000000000815260206004820152600a60248201527f5245514c503a204949410000000000000000000000000000000000000000000060448201526064016106ad565b600083604001516127106130499190614178565b90506000846060015161271061305f9190614178565b905083156130f357600b5460009061308590640100000000900463ffffffff1686614178565b90506130918184614161565b600a549093506130b29082906dffffffffffffffffffffffffffff166141f8565b600a80547fffffffffffffffffffffffffffffffffffff0000000000000000000000000000166dffffffffffffffffffffffffffff92909216919091179055505b821561318c57600b5460009061311790640100000000900463ffffffff1685614178565b90506131238183614161565b600a549092506131569082906e01000000000000000000000000000090046dffffffffffffffffffffffffffff166141f8565b600a600e6101000a8154816dffffffffffffffffffffffffffff02191690836dffffffffffffffffffffffffffff160217905550505b600a547c0100000000000000000000000000000000000000000000000000000000900463ffffffff16603281900361325757866060015187604001516131d29190614178565b6131e0906305f5e100614178565b6131ea8385614178565b1015613252576040517f08c379a000000000000000000000000000000000000000000000000000000000815260206004820152600860248201527f5245514c503a204b00000000000000000000000000000000000000000000000060448201526064016106ad565b613398565b600954604088015173ffffffffffffffffffffffffffffffffffffffff909116906379c91b379061328a90612710614178565b60608a015161329b90612710614178565b6040517fffffffff0000000000000000000000000000000000000000000000000000000060e085901b16815260048101929092526024820152604481018690526064810185905263ffffffff8416608482015260a401602060405180830381865afa15801561330e573d6000803e3d6000fd5b505050506040513d601f19601f8201168201806040525081019061333291906142cf565b613398576040517f08c379a000000000000000000000000000000000000000000000000000000000815260206004820152600860248201527f5245514c503a204b00000000000000000000000000000000000000000000000060448201526064016106ad565b5050506133a483613a34565b60408051838152602081018390529081018a90526060810189905273ffffffffffffffffffffffffffffffffffffffff88169033907fd78ad95fa46c994b6551d0da85fc275fe613ce37657fb8d5e3d130840159d8229060800160405180910390a3600089116134145787613416565b885b9998505050505050505050565b73ffffffffffffffffffffffffffffffffffffffff83811660008181526002602090815260408083209487168084529482529182902085905590518481527f8c5be1e5ebec7d5bd14f71427d1e84f3dd0314c0f7b2291e5b200ac8c7c3b92591015b60405180910390a3505050565b73ffffffffffffffffffffffffffffffffffffffff8316600090815260016020526040812080548392906134c7908490614161565b909155505073ffffffffffffffffffffffffffffffffffffffff8216600090815260016020526040812080548392906135019084906141f8565b925050819055508173ffffffffffffffffffffffffffffffffffffffff168373ffffffffffffffffffffffffffffffffffffffff167fddf252ad1be2c89b69c2b068fc378daa952ba7f163c4a11628f55a4df523b3ef8360405161348591815260200190565b600080600560009054906101000a900473ffffffffffffffffffffffffffffffffffffffff1673ffffffffffffffffffffffffffffffffffffffff1663017e7e586040518163ffffffff1660e01b8152600401602060405180830381865afa1580156135d7573d6000803e3d6000fd5b505050506040513d601f19601f820116820180604052508101906135fb9190614235565b90506000600560009054906101000a900473ffffffffffffffffffffffffffffffffffffffff1673ffffffffffffffffffffffffffffffffffffffff1663b0e21e8a6040518163ffffffff1660e01b8152600401602060405180830381865afa15801561366c573d6000803e3d6000fd5b505050506040513d601f19601f820116820180604052508101906136909190614119565b73ffffffffffffffffffffffffffffffffffffffff83161515935090506000806136e0600a546dffffffffffffffffffffffffffff808216926e0100000000000000000000000000009092041690565b915091506000836dffffffffffffffffffffffffffff161180156137015750845b801561373757506000826dffffffffffffffffffffffffffff16118061373757506000816dffffffffffffffffffffffffffff16115b1561387357600a546009546000805460408a015160608b01517c010000000000000000000000000000000000000000000000000000000090950463ffffffff1694929373ffffffffffffffffffffffffffffffffffffffff1692637ecece03929190866137a48b8b6142f1565b6137ae8c8b6142f1565b6040517fffffffff0000000000000000000000000000000000000000000000000000000060e089901b16815260048101969096526024860194909452604485019290925263ffffffff1660648401526dffffffffffffffffffffffffffff90811660848401521660a482015260c401602060405180830381865afa15801561383a573d6000803e3d6000fd5b505050506040513d601f19601f8201168201806040525081019061385e9190614119565b9050801561387057613870868261396a565b50505b6dffffffffffffffffffffffffffff8216156138b257600a80547fffffffffffffffffffffffffffffffffffff00000000000000000000000000001690555b6dffffffffffffffffffffffffffff8116156138f157600a80547fffffffff0000000000000000000000000000ffffffffffffffffffffffffffff1690555b50505050919050565b6000600382111561395b57508060006139146002836141e4565b61391f9060016141f8565b90505b818110156139555790508060028161393a81866141e4565b61394491906141f8565b61394e91906141e4565b9050613922565b50919050565b8115613965575060015b919050565b8060008082825461397b91906141f8565b909155505073ffffffffffffffffffffffffffffffffffffffff8216600090815260016020526040812080548392906139b59084906141f8565b909155505060405181815273ffffffffffffffffffffffffffffffffffffffff8316906000907fddf252ad1be2c89b69c2b068fc378daa952ba7f163c4a11628f55a4df523b3ef906020015b60405180910390a35050565b6000818310613a1c5781613a1e565b825b9392505050565b6000818311613a1c5781613a1e565b80516008805460208401516dffffffffffffffffffffffffffff9081166e010000000000000000000000000000027fffffffff0000000000000000000000000000000000000000000000000000000090921690841617179055604082015110801590613aa857508060200151816060015110155b613ab457613ab461431e565b604081810151600b80547fffffffffffffffffff0000000000000000000000000000ffffffffffffffffff1669010000000000000000006dffffffffffffffffffffffffffff93841681029190911791829055606080860151600c80547fffffffffffffffffffffffffffffffffffff0000000000000000000000000000169186169182179055600854865181871681526e010000000000000000000000000000909104861660208201529290930490931693810193909352908201527f90cf11c015dfdfdf83f1b0ed5d27ebcd2839050639a62928e181005c315248d69060800160405180910390a150565b73ffffffffffffffffffffffffffffffffffffffff821660009081526001602052604081208054839290613bd6908490614161565b9250508190555080600080828254613bee9190614161565b909155505060405181815260009073ffffffffffffffffffffffffffffffffffffffff8416907fddf252ad1be2c89b69c2b068fc378daa952ba7f163c4a11628f55a4df523b3ef90602001613a01565b6040805173ffffffffffffffffffffffffffffffffffffffff8481166024830152604480830185905283518084039091018152606490920183526020820180517bffffffffffffffffffffffffffffffffffffffffffffffffffffffff167fa9059cbb000000000000000000000000000000000000000000000000000000001790529151600092839290871691613cd5919061434d565b6000604051808303816000865af19150503d8060008114613d12576040519150601f19603f3d011682016040523d82523d6000602084013e613d17565b606091505b5091509150818015613d41575080511580613d41575080806020019051810190613d4191906142cf565b613da7576040517f08c379a000000000000000000000000000000000000000000000000000000000815260206004820152600960248201527f5245514c503a205446000000000000000000000000000000000000000000000060448201526064016106ad565b5050505050565b73ffffffffffffffffffffffffffffffffffffffff81168114613dd057600080fd5b50565b600080600080600060808688031215613deb57600080fd5b85359450602086013593506040860135613e0481613dae565b9250606086013567ffffffffffffffff80821115613e2157600080fd5b818801915088601f830112613e3557600080fd5b813581811115613e4457600080fd5b896020828501011115613e5657600080fd5b9699959850939650602001949392505050565b60005b83811015613e84578181015183820152602001613e6c565b83811115612b2d5750506000910152565b60008151808452613ead816020860160208601613e69565b601f017fffffffffffffffffffffffffffffffffffffffffffffffffffffffffffffffe0169290920160200192915050565b602081526000613a1e6020830184613e95565b60008060408385031215613f0557600080fd5b8235613f1081613dae565b946020939093013593505050565b600080600080600060a08688031215613f3657600080fd5b8535613f4181613dae565b94506020860135613f5181613dae565b935060408601359250606086013591506080860135613f6f81613dae565b809150509295509295909350565b600080600060608486031215613f9257600080fd5b8335613f9d81613dae565b92506020840135613fad81613dae565b929592945050506040919091013590565b600060208284031215613fd057600080fd5b8135613a1e81613dae565b803563ffffffff8116811461396557600080fd5b60008060006060848603121561400457600080fd5b833561400f81613dae565b9250602084013561401f81613dae565b915061402d60408501613fdb565b90509250925092565b600080600080600080600060e0888a03121561405157600080fd5b873561405c81613dae565b9650602088013561406c81613dae565b95506040880135945060608801359350608088013560ff8116811461409057600080fd5b9699959850939692959460a0840135945060c09093013592915050565b600080604083850312156140c057600080fd5b82356140cb81613dae565b915060208301356140db81613dae565b809150509250929050565b600080604083850312156140f957600080fd5b61410283613fdb565b915061411060208401613fdb565b90509250929050565b60006020828403121561412b57600080fd5b5051919050565b7f4e487b7100000000000000000000000000000000000000000000000000000000600052601160045260246000fd5b60008282101561417357614173614132565b500390565b6000817fffffffffffffffffffffffffffffffffffffffffffffffffffffffffffffffff04831182151516156141b0576141b0614132565b500290565b7f4e487b7100000000000000000000000000000000000000000000000000000000600052601260045260246000fd5b6000826141f3576141f36141b5565b500490565b6000821982111561420b5761420b614132565b500190565b600063ffffffff8381169083168181101561422d5761422d614132565b039392505050565b60006020828403121561424757600080fd5b8151613a1e81613dae565b60007fffffffffffffffffffffffffffffffffffffffffffffffffffffffffffffffff820361428357614283614132565b5060010190565b73ffffffffffffffffffffffffffffffffffffffff851681528360208201528260408201526080606082015260006142c56080830184613e95565b9695505050505050565b6000602082840312156142e157600080fd5b81518015158114613a1e57600080fd5b60006dffffffffffffffffffffffffffff80841680614312576143126141b5565b92169190910492915050565b7f4e487b7100000000000000000000000000000000000000000000000000000000600052600160045260246000fd5b6000825161435f818460208701613e69565b919091019291505056fea2646970667358221220ef3f296e634cfca21759050e0435f7b46cb9005aab6fab2a127fd2acb1ffcefc64736f6c634300080d0033a26469706673582212204aa37e80d8ad33439536b1937957da0493b038f110f998fd957df21dbd33f7e964736f6c634300080d0033",
  "devdoc": {
    "kind": "dev",
    "methods": {
      "createPair(address,address,uint32,uint32,uint32)": {
        "params": {
          "initialAmp": "initial amplification parameter",
          "initialFee": "initial swapFee",
          "tokenA": "first token",
          "tokenB": "second token",
          "tokenWeightA": "first token weight"
        }
      },
      "getPairs(address,address)": {
        "params": {
          "token0": "first token",
          "token1": "second token"
        },
        "returns": {
          "_tokenPairs": "array of deployed pairs"
        }
      },
      "owner()": {
        "details": "Returns the address of the current owner."
      },
      "renounceOwnership()": {
        "details": "Leaves the contract without owner. It will not be possible to call `onlyOwner` functions anymore. Can only be called by the current owner. NOTE: Renouncing ownership will leave the contract without an owner, thereby removing any functionality that is only available to the owner."
      },
      "setFeeTo(address)": {
        "params": {
          "_feeTo": "receiver"
        }
      },
      "setFeeToSetter(address)": {
        "params": {
          "_feeToSetter": "admin"
        }
      },
      "setProtocolFee(uint256)": {
        "params": {
          "_protocolFee": "new protocol fee"
        }
      },
      "setSwapParams(address,uint32,uint32)": {
        "params": {
          "_amp": "new amplification parameter",
          "_newSwapFee": "new seleted swap fee",
          "_pair": "pair to change"
        }
      },
      "transferOwnership(address)": {
        "details": "Transfers ownership of the contract to a new account (`newOwner`). Can only be called by the current owner."
      }
    },
    "version": 1
  },
  "userdoc": {
    "kind": "user",
    "methods": {
      "createPair(address,address,uint32,uint32,uint32)": {
        "notice": "Creates a new pair  with specified parameters"
      },
      "getPairs(address,address)": {
        "notice": "Function to get  all deployed configs for a token pair"
      },
      "setFeeTo(address)": {
        "notice": "Sets receiver of fees"
      },
      "setFeeToSetter(address)": {
        "notice": "Sets admin which can determine the address to which fees are sent"
      },
      "setProtocolFee(uint256)": {
        "notice": "Sets the protocol fee"
      },
      "setSwapParams(address,uint32,uint32)": {
        "notice": "sets the crucial swap parameters for the pair"
      }
    },
    "version": 1
  },
  "storageLayout": {
    "storage": [
      {
        "astId": 45064,
        "contract": "contracts/WeightedPairFactoryV2.sol:RequiemWeightedPairFactoryV2",
        "label": "_owner",
        "offset": 0,
        "slot": "0",
        "type": "t_address"
      },
      {
        "astId": 32094,
        "contract": "contracts/WeightedPairFactoryV2.sol:RequiemWeightedPairFactoryV2",
        "label": "feeTo",
        "offset": 0,
        "slot": "1",
        "type": "t_address"
      },
      {
        "astId": 32096,
        "contract": "contracts/WeightedPairFactoryV2.sol:RequiemWeightedPairFactoryV2",
        "label": "formula",
        "offset": 0,
        "slot": "2",
        "type": "t_address"
      },
      {
        "astId": 32098,
        "contract": "contracts/WeightedPairFactoryV2.sol:RequiemWeightedPairFactoryV2",
        "label": "protocolFee",
        "offset": 0,
        "slot": "3",
        "type": "t_uint256"
      },
      {
        "astId": 32100,
        "contract": "contracts/WeightedPairFactoryV2.sol:RequiemWeightedPairFactoryV2",
        "label": "feeToSetter",
        "offset": 0,
        "slot": "4",
        "type": "t_address"
      },
      {
        "astId": 32102,
        "contract": "contracts/WeightedPairFactoryV2.sol:RequiemWeightedPairFactoryV2",
        "label": "swapFeeGovernance",
        "offset": 0,
        "slot": "5",
        "type": "t_address"
      },
      {
        "astId": 32117,
        "contract": "contracts/WeightedPairFactoryV2.sol:RequiemWeightedPairFactoryV2",
        "label": "_pairSalts",
        "offset": 0,
        "slot": "6",
        "type": "t_mapping(t_bytes32,t_address)"
      },
      {
        "astId": 32120,
        "contract": "contracts/WeightedPairFactoryV2.sol:RequiemWeightedPairFactoryV2",
        "label": "allPairs",
        "offset": 0,
        "slot": "7",
        "type": "t_array(t_address)dyn_storage"
      },
      {
        "astId": 32124,
        "contract": "contracts/WeightedPairFactoryV2.sol:RequiemWeightedPairFactoryV2",
        "label": "_pairs",
        "offset": 0,
        "slot": "8",
        "type": "t_mapping(t_address,t_bool)"
      },
      {
        "astId": 32133,
        "contract": "contracts/WeightedPairFactoryV2.sol:RequiemWeightedPairFactoryV2",
        "label": "tokenPairs",
        "offset": 0,
        "slot": "9",
        "type": "t_mapping(t_contract(IERC20)36982,t_mapping(t_contract(IERC20)36982,t_struct(AddressSet)44141_storage))"
      },
      {
        "astId": 32135,
        "contract": "contracts/WeightedPairFactoryV2.sol:RequiemWeightedPairFactoryV2",
        "label": "pairGovernance",
        "offset": 0,
        "slot": "10",
        "type": "t_address"
      }
    ],
    "types": {
      "t_address": {
        "encoding": "inplace",
        "label": "address",
        "numberOfBytes": "20"
      },
      "t_array(t_address)dyn_storage": {
        "base": "t_address",
        "encoding": "dynamic_array",
        "label": "address[]",
        "numberOfBytes": "32"
      },
      "t_bool": {
        "encoding": "inplace",
        "label": "bool",
        "numberOfBytes": "1"
      },
      "t_bytes32": {
        "encoding": "inplace",
        "label": "bytes32",
        "numberOfBytes": "32"
      },
      "t_contract(IERC20)36982": {
        "encoding": "inplace",
        "label": "contract IERC20",
        "numberOfBytes": "20"
      },
      "t_mapping(t_address,t_bool)": {
        "encoding": "mapping",
        "key": "t_address",
        "label": "mapping(address => bool)",
        "numberOfBytes": "32",
        "value": "t_bool"
      },
      "t_mapping(t_address,t_uint256)": {
        "encoding": "mapping",
        "key": "t_address",
        "label": "mapping(address => uint256)",
        "numberOfBytes": "32",
        "value": "t_uint256"
      },
      "t_mapping(t_bytes32,t_address)": {
        "encoding": "mapping",
        "key": "t_bytes32",
        "label": "mapping(bytes32 => address)",
        "numberOfBytes": "32",
        "value": "t_address"
      },
      "t_mapping(t_contract(IERC20)36982,t_mapping(t_contract(IERC20)36982,t_struct(AddressSet)44141_storage))": {
        "encoding": "mapping",
        "key": "t_contract(IERC20)36982",
        "label": "mapping(contract IERC20 => mapping(contract IERC20 => struct EnumerableSet.AddressSet))",
        "numberOfBytes": "32",
        "value": "t_mapping(t_contract(IERC20)36982,t_struct(AddressSet)44141_storage)"
      },
      "t_mapping(t_contract(IERC20)36982,t_struct(AddressSet)44141_storage)": {
        "encoding": "mapping",
        "key": "t_contract(IERC20)36982",
        "label": "mapping(contract IERC20 => struct EnumerableSet.AddressSet)",
        "numberOfBytes": "32",
        "value": "t_struct(AddressSet)44141_storage"
      },
      "t_struct(AddressSet)44141_storage": {
        "encoding": "inplace",
        "label": "struct EnumerableSet.AddressSet",
        "members": [
          {
            "astId": 44136,
            "contract": "contracts/WeightedPairFactoryV2.sol:RequiemWeightedPairFactoryV2",
            "label": "_values",
            "offset": 0,
            "slot": "0",
            "type": "t_array(t_address)dyn_storage"
          },
          {
            "astId": 44140,
            "contract": "contracts/WeightedPairFactoryV2.sol:RequiemWeightedPairFactoryV2",
            "label": "_indexes",
            "offset": 0,
            "slot": "1",
            "type": "t_mapping(t_address,t_uint256)"
          }
        ],
        "numberOfBytes": "64"
      },
      "t_uint256": {
        "encoding": "inplace",
        "label": "uint256",
        "numberOfBytes": "32"
      }
    }
  }
}