{
  "address": "0xDc64a140Aa3E981100a9becA4E685f962f0cF6C9",
  "abi": [
    {
      "inputs": [
        {
          "internalType": "address",
          "name": "minter",
          "type": "address"
        }
      ],
      "stateMutability": "nonpayable",
      "type": "constructor"
    },
    {
      "anonymous": false,
      "inputs": [
        {
          "indexed": true,
          "internalType": "address",
          "name": "owner",
          "type": "address"
        },
        {
          "indexed": true,
          "internalType": "address",
          "name": "spender",
          "type": "address"
        },
        {
          "indexed": false,
          "internalType": "uint256",
          "name": "value",
          "type": "uint256"
        }
      ],
      "name": "Approval",
      "type": "event"
    },
    {
      "anonymous": false,
      "inputs": [
        {
          "indexed": true,
          "internalType": "address",
          "name": "dst",
          "type": "address"
        },
        {
          "indexed": false,
          "internalType": "uint256",
          "name": "wad",
          "type": "uint256"
        }
      ],
      "name": "Deposit",
      "type": "event"
    },
    {
      "anonymous": false,
      "inputs": [
        {
          "indexed": true,
          "internalType": "bytes32",
          "name": "role",
          "type": "bytes32"
        },
        {
          "indexed": true,
          "internalType": "bytes32",
          "name": "previousAdminRole",
          "type": "bytes32"
        },
        {
          "indexed": true,
          "internalType": "bytes32",
          "name": "newAdminRole",
          "type": "bytes32"
        }
      ],
      "name": "RoleAdminChanged",
      "type": "event"
    },
    {
      "anonymous": false,
      "inputs": [
        {
          "indexed": true,
          "internalType": "bytes32",
          "name": "role",
          "type": "bytes32"
        },
        {
          "indexed": true,
          "internalType": "address",
          "name": "account",
          "type": "address"
        },
        {
          "indexed": true,
          "internalType": "address",
          "name": "sender",
          "type": "address"
        }
      ],
      "name": "RoleGranted",
      "type": "event"
    },
    {
      "anonymous": false,
      "inputs": [
        {
          "indexed": true,
          "internalType": "bytes32",
          "name": "role",
          "type": "bytes32"
        },
        {
          "indexed": true,
          "internalType": "address",
          "name": "account",
          "type": "address"
        },
        {
          "indexed": true,
          "internalType": "address",
          "name": "sender",
          "type": "address"
        }
      ],
      "name": "RoleRevoked",
      "type": "event"
    },
    {
      "anonymous": false,
      "inputs": [
        {
          "indexed": true,
          "internalType": "address",
          "name": "from",
          "type": "address"
        },
        {
          "indexed": true,
          "internalType": "address",
          "name": "to",
          "type": "address"
        },
        {
          "indexed": false,
          "internalType": "uint256",
          "name": "value",
          "type": "uint256"
        }
      ],
      "name": "Transfer",
      "type": "event"
    },
    {
      "anonymous": false,
      "inputs": [
        {
          "indexed": true,
          "internalType": "address",
          "name": "src",
          "type": "address"
        },
        {
          "indexed": false,
          "internalType": "uint256",
          "name": "wad",
          "type": "uint256"
        }
      ],
      "name": "Withdrawal",
      "type": "event"
    },
    {
      "inputs": [],
      "name": "DEFAULT_ADMIN_ROLE",
      "outputs": [
        {
          "internalType": "bytes32",
          "name": "",
          "type": "bytes32"
        }
      ],
      "stateMutability": "view",
      "type": "function"
    },
    {
      "inputs": [],
      "name": "MINTER_ROLE",
      "outputs": [
        {
          "internalType": "bytes32",
          "name": "",
          "type": "bytes32"
        }
      ],
      "stateMutability": "view",
      "type": "function"
    },
    {
      "inputs": [
        {
          "internalType": "address",
          "name": "",
          "type": "address"
        },
        {
          "internalType": "address",
          "name": "",
          "type": "address"
        }
      ],
      "name": "allowance",
      "outputs": [
        {
          "internalType": "uint256",
          "name": "",
          "type": "uint256"
        }
      ],
      "stateMutability": "view",
      "type": "function"
    },
    {
      "inputs": [
        {
          "internalType": "address",
          "name": "guy",
          "type": "address"
        },
        {
          "internalType": "uint256",
          "name": "wad",
          "type": "uint256"
        }
      ],
      "name": "approve",
      "outputs": [
        {
          "internalType": "bool",
          "name": "",
          "type": "bool"
        }
      ],
      "stateMutability": "nonpayable",
      "type": "function"
    },
    {
      "inputs": [
        {
          "internalType": "address",
          "name": "",
          "type": "address"
        }
      ],
      "name": "balanceOf",
      "outputs": [
        {
          "internalType": "uint256",
          "name": "",
          "type": "uint256"
        }
      ],
      "stateMutability": "view",
      "type": "function"
    },
    {
      "inputs": [],
      "name": "decimals",
      "outputs": [
        {
          "internalType": "uint8",
          "name": "",
          "type": "uint8"
        }
      ],
      "stateMutability": "view",
      "type": "function"
    },
    {
      "inputs": [],
      "name": "deposit",
      "outputs": [],
      "stateMutability": "payable",
      "type": "function"
    },
    {
      "inputs": [
        {
          "internalType": "bytes32",
          "name": "role",
          "type": "bytes32"
        }
      ],
      "name": "getRoleAdmin",
      "outputs": [
        {
          "internalType": "bytes32",
          "name": "",
          "type": "bytes32"
        }
      ],
      "stateMutability": "view",
      "type": "function"
    },
    {
      "inputs": [
        {
          "internalType": "bytes32",
          "name": "role",
          "type": "bytes32"
        },
        {
          "internalType": "uint256",
          "name": "index",
          "type": "uint256"
        }
      ],
      "name": "getRoleMember",
      "outputs": [
        {
          "internalType": "address",
          "name": "",
          "type": "address"
        }
      ],
      "stateMutability": "view",
      "type": "function"
    },
    {
      "inputs": [
        {
          "internalType": "bytes32",
          "name": "role",
          "type": "bytes32"
        }
      ],
      "name": "getRoleMemberCount",
      "outputs": [
        {
          "internalType": "uint256",
          "name": "",
          "type": "uint256"
        }
      ],
      "stateMutability": "view",
      "type": "function"
    },
    {
      "inputs": [
        {
          "internalType": "bytes32",
          "name": "role",
          "type": "bytes32"
        },
        {
          "internalType": "address",
          "name": "account",
          "type": "address"
        }
      ],
      "name": "grantRole",
      "outputs": [],
      "stateMutability": "nonpayable",
      "type": "function"
    },
    {
      "inputs": [
        {
          "internalType": "bytes32",
          "name": "role",
          "type": "bytes32"
        },
        {
          "internalType": "address",
          "name": "account",
          "type": "address"
        }
      ],
      "name": "hasRole",
      "outputs": [
        {
          "internalType": "bool",
          "name": "",
          "type": "bool"
        }
      ],
      "stateMutability": "view",
      "type": "function"
    },
    {
      "inputs": [
        {
          "internalType": "address",
          "name": "destinatary",
          "type": "address"
        },
        {
          "internalType": "uint256",
          "name": "amount",
          "type": "uint256"
        }
      ],
      "name": "mint",
      "outputs": [],
      "stateMutability": "nonpayable",
      "type": "function"
    },
    {
      "inputs": [],
      "name": "name",
      "outputs": [
        {
          "internalType": "string",
          "name": "",
          "type": "string"
        }
      ],
      "stateMutability": "view",
      "type": "function"
    },
    {
      "inputs": [
        {
          "internalType": "bytes32",
          "name": "role",
          "type": "bytes32"
        },
        {
          "internalType": "address",
          "name": "account",
          "type": "address"
        }
      ],
      "name": "renounceRole",
      "outputs": [],
      "stateMutability": "nonpayable",
      "type": "function"
    },
    {
      "inputs": [
        {
          "internalType": "bytes32",
          "name": "role",
          "type": "bytes32"
        },
        {
          "internalType": "address",
          "name": "account",
          "type": "address"
        }
      ],
      "name": "revokeRole",
      "outputs": [],
      "stateMutability": "nonpayable",
      "type": "function"
    },
    {
      "inputs": [],
      "name": "symbol",
      "outputs": [
        {
          "internalType": "string",
          "name": "",
          "type": "string"
        }
      ],
      "stateMutability": "view",
      "type": "function"
    },
    {
      "inputs": [],
      "name": "totalSupply",
      "outputs": [
        {
          "internalType": "uint256",
          "name": "",
          "type": "uint256"
        }
      ],
      "stateMutability": "view",
      "type": "function"
    },
    {
      "inputs": [
        {
          "internalType": "address",
          "name": "dst",
          "type": "address"
        },
        {
          "internalType": "uint256",
          "name": "wad",
          "type": "uint256"
        }
      ],
      "name": "transfer",
      "outputs": [
        {
          "internalType": "bool",
          "name": "",
          "type": "bool"
        }
      ],
      "stateMutability": "nonpayable",
      "type": "function"
    },
    {
      "inputs": [
        {
          "internalType": "address",
          "name": "src",
          "type": "address"
        },
        {
          "internalType": "address",
          "name": "dst",
          "type": "address"
        },
        {
          "internalType": "uint256",
          "name": "wad",
          "type": "uint256"
        }
      ],
      "name": "transferFrom",
      "outputs": [
        {
          "internalType": "bool",
          "name": "",
          "type": "bool"
        }
      ],
      "stateMutability": "nonpayable",
      "type": "function"
    },
    {
      "inputs": [
        {
          "internalType": "uint256",
          "name": "wad",
          "type": "uint256"
        }
      ],
      "name": "withdraw",
      "outputs": [],
      "stateMutability": "nonpayable",
      "type": "function"
    },
    {
      "stateMutability": "payable",
      "type": "receive"
    }
  ],
  "transactionHash": "0xce173cb7dbdbb0f39807076b9ba023d2f80939f1692054e810dc1f69f3ff490a",
  "args": [
    "0xf39Fd6e51aad88F6F4ce6aB8827279cffFb92266"
  ],
  "solcInputHash": "805deb118869de4d09a8d2c6ccdde3e0",
  "bytecode": "0x60c0604052600d60808190526c2bb930b83832b21022ba3432b960991b60a0908152620000309160019190620001c9565b50604080518082019091526004808252630ae8aa8960e31b60209092019182526200005e91600291620001c9565b506003805460ff191660121790553480156200007957600080fd5b5060405162001253380380620012538339810160408190526200009c916200026f565b620000a9600082620000dc565b620000d57f9f2df0fed2c77648de5860a4cc508cd0818c85b8b8a1ab4ceeef8d981c8956a682620000dc565b50620002de565b620000e88282620000ec565b5050565b600082815260208181526040909120620001119183906200096262000153821b17901c565b15620000e85760405133906001600160a01b0383169084907f2f8788117e7eff1d82e926ec794901d17c78024a50270940304540a733656f0d90600090a45050565b6001600160a01b0381166000908152600183016020526040812054620001bf57508154600180820184556000848152602080822090930180546001600160a01b0319166001600160a01b03861690811790915585549082528286019093526040902091909155620001c3565b5060005b92915050565b828054620001d790620002a1565b90600052602060002090601f016020900481019282620001fb576000855562000246565b82601f106200021657805160ff191683800117855562000246565b8280016001018555821562000246579182015b828111156200024657825182559160200191906001019062000229565b506200025492915062000258565b5090565b5b8082111562000254576000815560010162000259565b6000602082840312156200028257600080fd5b81516001600160a01b03811681146200029a57600080fd5b9392505050565b600181811c90821680620002b657607f821691505b60208210811415620002d857634e487b7160e01b600052602260045260246000fd5b50919050565b610f6580620002ee6000396000f3fe6080604052600436106100fe5760003560e01c806306fdde0314610112578063095ea7b31461013d57806318160ddd1461016d57806323b872dd1461018a578063248a9ca3146101aa5780632e1a7d4d146101da5780632f2ff15d146101fa578063313ce5671461021a57806336568abe1461024657806340c10f191461026657806370a08231146102865780639010d07c146102b357806391d14854146102eb57806395d89b411461030b578063a217fddf14610320578063a9059cbb14610335578063ca15c87314610355578063d0e30db014610375578063d53913931461037d578063d547741f1461039f578063dd62ed3e146103bf57600080fd5b3661010d5761010b6103f7565b005b600080fd5b34801561011e57600080fd5b50610127610440565b6040516101349190610c92565b60405180910390f35b34801561014957600080fd5b5061015d610158366004610d03565b6104ce565b6040519015158152602001610134565b34801561017957600080fd5b50475b604051908152602001610134565b34801561019657600080fd5b5061015d6101a5366004610d2d565b61053b565b3480156101b657600080fd5b5061017c6101c5366004610d69565b60009081526020819052604090206002015490565b3480156101e657600080fd5b5061010b6101f5366004610d69565b610717565b34801561020657600080fd5b5061010b610215366004610d82565b6107d0565b34801561022657600080fd5b506003546102349060ff1681565b60405160ff9091168152602001610134565b34801561025257600080fd5b5061010b610261366004610d82565b610806565b34801561027257600080fd5b5061010b610281366004610d03565b610827565b34801561029257600080fd5b5061017c6102a1366004610dae565b60046020526000908152604090205481565b3480156102bf57600080fd5b506102d36102ce366004610dc9565b6108d5565b6040516001600160a01b039091168152602001610134565b3480156102f757600080fd5b5061015d610306366004610d82565b6108f4565b34801561031757600080fd5b5061012761090c565b34801561032c57600080fd5b5061017c600081565b34801561034157600080fd5b5061015d610350366004610d03565b610919565b34801561036157600080fd5b5061017c610370366004610d69565b610926565b61010b6103f7565b34801561038957600080fd5b5061017c600080516020610f1083398151915281565b3480156103ab57600080fd5b5061010b6103ba366004610d82565b61093a565b3480156103cb57600080fd5b5061017c6103da366004610deb565b600560209081526000928352604080842090915290825290205481565b3360009081526004602052604081208054349290610416908490610e2b565b90915550506040513481523390600080516020610ef08339815191529060200160405180910390a2565b6001805461044d90610e43565b80601f016020809104026020016040519081016040528092919081815260200182805461047990610e43565b80156104c65780601f1061049b576101008083540402835291602001916104c6565b820191906000526020600020905b8154815290600101906020018083116104a957829003601f168201915b505050505081565b3360008181526005602090815260408083206001600160a01b038716808552925280832085905551919290917f8c5be1e5ebec7d5bd14f71427d1e84f3dd0314c0f7b2291e5b200ac8c7c3b925906105299086815260200190565b60405180910390a35060015b92915050565b6001600160a01b03831660009081526004602052604081205482111561057c5760405162461bcd60e51b815260040161057390610e7e565b60405180910390fd5b6001600160a01b03841633148015906105ba57506001600160a01b038416600090815260056020908152604080832033845290915290205460001914155b15610664576001600160a01b038416600090815260056020908152604080832033845290915290205482111561062b5760405162461bcd60e51b8152602060048201526016602482015275494e53554646494349454e545f414c4c4f57414e434560501b6044820152606401610573565b6001600160a01b03841660009081526005602090815260408083203384529091528120805484929061065e908490610eac565b90915550505b6001600160a01b0384166000908152600460205260408120805484929061068c908490610eac565b90915550506001600160a01b038316600090815260046020526040812080548492906106b9908490610e2b565b92505081905550826001600160a01b0316846001600160a01b03167fddf252ad1be2c89b69c2b068fc378daa952ba7f163c4a11628f55a4df523b3ef8460405161070591815260200190565b60405180910390a35060019392505050565b336000908152600460205260409020548111156107465760405162461bcd60e51b815260040161057390610e7e565b3360009081526004602052604081208054839290610765908490610eac565b9091555050604051339082156108fc029083906000818181858888f19350505050158015610797573d6000803e3d6000fd5b5060405181815233907f7fcf532c15f0a6db0bd6d0e038bea71d30d808c7d98cb3bf7268a95bf5081b659060200160405180910390a250565b6000828152602081905260409020600201546107f8906107f090336108f4565b6101a66109c5565b61080282826109d3565b5050565b61081d6001600160a01b03821633146101a86109c5565b6108028282610a2c565b61083f600080516020610f10833981519152336108f4565b6108785760405162461bcd60e51b815260206004820152600a6024820152692727aa2fa6a4a72a22a960b11b6044820152606401610573565b6001600160a01b038216600090815260046020526040812080548392906108a0908490610e2b565b90915550506040518181526001600160a01b03831690600080516020610ef08339815191529060200160405180910390a25050565b60008281526020819052604081206108ed9083610a85565b9392505050565b60008281526020819052604081206108ed9083610aa1565b6002805461044d90610e43565b60006108ed33848461053b565b600081815260208190526040812054610535565b60008281526020819052604090206002015461081d9061095a90336108f4565b6101a76109c5565b600061096e8383610aa1565b6109bd57508154600180820184556000848152602080822090930180546001600160a01b0319166001600160a01b03861690811790915585549082528286019093526040902091909155610535565b506000610535565b816108025761080281610ac2565b60008281526020819052604090206109eb9082610962565b156108025760405133906001600160a01b0383169084907f2f8788117e7eff1d82e926ec794901d17c78024a50270940304540a733656f0d90600090a45050565b6000828152602081905260409020610a449082610b15565b156108025760405133906001600160a01b0383169084907ff6391f5c32d9c69d2a47ea670b442974b53935d1edc7fd64eb21e047a839171b90600090a45050565b8154600090610a9790831060646109c5565b6108ed8383610c5f565b6001600160a01b031660009081526001919091016020526040902054151590565b62461bcd60e51b6000908152602060045260076024526652455123000030600a808404818106603090810160081b95839006959095019082900491820690940160101b939093010160c81b604452606490fd5b6001600160a01b03811660009081526001830160205260408120548015610c55576000610b43600183610eac565b8554909150600090610b5790600190610eac565b9050808214610bf7576000866000018281548110610b7757610b77610ec3565b60009182526020909120015487546001600160a01b0390911691508190889085908110610ba657610ba6610ec3565b600091825260209091200180546001600160a01b0319166001600160a01b0392909216919091179055610bda836001610e2b565b6001600160a01b0390911660009081526001880160205260409020555b8554869080610c0857610c08610ed9565b60008281526020808220830160001990810180546001600160a01b03191690559092019092556001600160a01b038716825260018881019091526040822091909155935061053592505050565b6000915050610535565b6000826000018281548110610c7657610c76610ec3565b6000918252602090912001546001600160a01b03169392505050565b600060208083528351808285015260005b81811015610cbf57858101830151858201604001528201610ca3565b81811115610cd1576000604083870101525b50601f01601f1916929092016040019392505050565b80356001600160a01b0381168114610cfe57600080fd5b919050565b60008060408385031215610d1657600080fd5b610d1f83610ce7565b946020939093013593505050565b600080600060608486031215610d4257600080fd5b610d4b84610ce7565b9250610d5960208501610ce7565b9150604084013590509250925092565b600060208284031215610d7b57600080fd5b5035919050565b60008060408385031215610d9557600080fd5b82359150610da560208401610ce7565b90509250929050565b600060208284031215610dc057600080fd5b6108ed82610ce7565b60008060408385031215610ddc57600080fd5b50508035926020909101359150565b60008060408385031215610dfe57600080fd5b610e0783610ce7565b9150610da560208401610ce7565b634e487b7160e01b600052601160045260246000fd5b60008219821115610e3e57610e3e610e15565b500190565b600181811c90821680610e5757607f821691505b60208210811415610e7857634e487b7160e01b600052602260045260246000fd5b50919050565b602080825260149082015273494e53554646494349454e545f42414c414e434560601b604082015260600190565b600082821015610ebe57610ebe610e15565b500390565b634e487b7160e01b600052603260045260246000fd5b634e487b7160e01b600052603160045260246000fdfee1fffcc4923d04b559f4d29a8bfc6cda04eb5b0d3c460751c2402c5c5cc9109c9f2df0fed2c77648de5860a4cc508cd0818c85b8b8a1ab4ceeef8d981c8956a6a26469706673582212207b846fb344dbc4f5f3a398eb83a6b93a2c3b13ba8e54e3f18b56e38bd91f42cf64736f6c634300080a0033",
  "devdoc": {
    "kind": "dev",
    "methods": {
      "getRoleAdmin(bytes32)": {
        "details": "Returns the admin role that controls `role`. See {grantRole} and {revokeRole}. To change a role's admin, use {_setRoleAdmin}."
      },
      "getRoleMember(bytes32,uint256)": {
        "details": "Returns one of the accounts that have `role`. `index` must be a value between 0 and {getRoleMemberCount}, non-inclusive. Role bearers are not sorted in any particular way, and their ordering may change at any point. WARNING: When using {getRoleMember} and {getRoleMemberCount}, make sure you perform all queries on the same block. See the following https://forum.openzeppelin.com/t/iterating-over-elements-on-enumerableset-in-openzeppelin-contracts/2296[forum post] for more information."
      },
      "getRoleMemberCount(bytes32)": {
        "details": "Returns the number of accounts that have `role`. Can be used together with {getRoleMember} to enumerate all bearers of a role."
      },
      "grantRole(bytes32,address)": {
        "details": "Grants `role` to `account`. If `account` had not been already granted `role`, emits a {RoleGranted} event. Requirements: - the caller must have ``role``'s admin role."
      },
      "hasRole(bytes32,address)": {
        "details": "Returns `true` if `account` has been granted `role`."
      },
      "renounceRole(bytes32,address)": {
        "details": "Revokes `role` from the calling account. Roles are often managed via {grantRole} and {revokeRole}: this function's purpose is to provide a mechanism for accounts to lose their privileges if they are compromised (such as when a trusted device is misplaced). If the calling account had been granted `role`, emits a {RoleRevoked} event. Requirements: - the caller must be `account`."
      },
      "revokeRole(bytes32,address)": {
        "details": "Revokes `role` from `account`. If `account` had already been granted `role`, emits a {RoleRevoked} event. Requirements: - the caller must have ``role``'s admin role."
      },
      "totalSupply()": {
        "details": "Returns the amount of tokens in existence."
      }
    },
    "stateVariables": {
      "allowance": {
        "details": "Returns the remaining number of tokens that `spender` will be allowed to spend on behalf of `owner` through {transferFrom}. This is zero by default. This value changes when {approve} or {transferFrom} are called."
      },
      "balanceOf": {
        "details": "Returns the amount of tokens owned by `account`."
      }
    },
    "version": 1
  },
  "userdoc": {
    "kind": "user",
    "methods": {},
    "version": 1
  },
  "storageLayout": {
    "storage": [
      {
        "astId": 31636,
        "contract": "contracts/test/TestWETH.sol:TestWETH",
        "label": "_roles",
        "offset": 0,
        "slot": "0",
        "type": "t_mapping(t_bytes32,t_struct(RoleData)31631_storage)"
      },
      {
        "astId": 43668,
        "contract": "contracts/test/TestWETH.sol:TestWETH",
        "label": "name",
        "offset": 0,
        "slot": "1",
        "type": "t_string_storage"
      },
      {
        "astId": 43671,
        "contract": "contracts/test/TestWETH.sol:TestWETH",
        "label": "symbol",
        "offset": 0,
        "slot": "2",
        "type": "t_string_storage"
      },
      {
        "astId": 43674,
        "contract": "contracts/test/TestWETH.sol:TestWETH",
        "label": "decimals",
        "offset": 0,
        "slot": "3",
        "type": "t_uint8"
      },
      {
        "astId": 43691,
        "contract": "contracts/test/TestWETH.sol:TestWETH",
        "label": "balanceOf",
        "offset": 0,
        "slot": "4",
        "type": "t_mapping(t_address,t_uint256)"
      },
      {
        "astId": 43698,
        "contract": "contracts/test/TestWETH.sol:TestWETH",
        "label": "allowance",
        "offset": 0,
        "slot": "5",
        "type": "t_mapping(t_address,t_mapping(t_address,t_uint256))"
      }
    ],
    "types": {
      "t_address": {
        "encoding": "inplace",
        "label": "address",
        "numberOfBytes": "20"
      },
      "t_array(t_address)dyn_storage": {
        "base": "t_address",
        "encoding": "dynamic_array",
        "label": "address[]",
        "numberOfBytes": "32"
      },
      "t_bytes32": {
        "encoding": "inplace",
        "label": "bytes32",
        "numberOfBytes": "32"
      },
      "t_mapping(t_address,t_mapping(t_address,t_uint256))": {
        "encoding": "mapping",
        "key": "t_address",
        "label": "mapping(address => mapping(address => uint256))",
        "numberOfBytes": "32",
        "value": "t_mapping(t_address,t_uint256)"
      },
      "t_mapping(t_address,t_uint256)": {
        "encoding": "mapping",
        "key": "t_address",
        "label": "mapping(address => uint256)",
        "numberOfBytes": "32",
        "value": "t_uint256"
      },
      "t_mapping(t_bytes32,t_struct(RoleData)31631_storage)": {
        "encoding": "mapping",
        "key": "t_bytes32",
        "label": "mapping(bytes32 => struct AccessControl.RoleData)",
        "numberOfBytes": "32",
        "value": "t_struct(RoleData)31631_storage"
      },
      "t_string_storage": {
        "encoding": "bytes",
        "label": "string",
        "numberOfBytes": "32"
      },
      "t_struct(AddressSet)33824_storage": {
        "encoding": "inplace",
        "label": "struct EnumerableSet.AddressSet",
        "members": [
          {
            "astId": 33819,
            "contract": "contracts/test/TestWETH.sol:TestWETH",
            "label": "_values",
            "offset": 0,
            "slot": "0",
            "type": "t_array(t_address)dyn_storage"
          },
          {
            "astId": 33823,
            "contract": "contracts/test/TestWETH.sol:TestWETH",
            "label": "_indexes",
            "offset": 0,
            "slot": "1",
            "type": "t_mapping(t_address,t_uint256)"
          }
        ],
        "numberOfBytes": "64"
      },
      "t_struct(RoleData)31631_storage": {
        "encoding": "inplace",
        "label": "struct AccessControl.RoleData",
        "members": [
          {
            "astId": 31628,
            "contract": "contracts/test/TestWETH.sol:TestWETH",
            "label": "members",
            "offset": 0,
            "slot": "0",
            "type": "t_struct(AddressSet)33824_storage"
          },
          {
            "astId": 31630,
            "contract": "contracts/test/TestWETH.sol:TestWETH",
            "label": "adminRole",
            "offset": 0,
            "slot": "2",
            "type": "t_bytes32"
          }
        ],
        "numberOfBytes": "96"
      },
      "t_uint256": {
        "encoding": "inplace",
        "label": "uint256",
        "numberOfBytes": "32"
      },
      "t_uint8": {
        "encoding": "inplace",
        "label": "uint8",
        "numberOfBytes": "1"
      }
    }
  }
}