{
  "address": "0x8A791620dd6260079BF849Dc5567aDC3F2FdC318",
  "abi": [
    {
      "inputs": [],
      "stateMutability": "nonpayable",
      "type": "constructor"
    },
    {
      "inputs": [
        {
          "internalType": "uint256",
          "name": "reserve0",
          "type": "uint256"
        },
        {
          "internalType": "uint256",
          "name": "reserve1",
          "type": "uint256"
        },
        {
          "internalType": "uint256",
          "name": "balance0Adjusted",
          "type": "uint256"
        },
        {
          "internalType": "uint256",
          "name": "balance1Adjusted",
          "type": "uint256"
        },
        {
          "internalType": "uint32",
          "name": "tokenWeight0",
          "type": "uint32"
        }
      ],
      "name": "ensureConstantValue",
      "outputs": [
        {
          "internalType": "bool",
          "name": "",
          "type": "bool"
        }
      ],
      "stateMutability": "view",
      "type": "function"
    },
    {
      "inputs": [
        {
          "internalType": "uint256",
          "name": "amountOut",
          "type": "uint256"
        },
        {
          "components": [
            {
              "internalType": "uint256",
              "name": "reserveIn",
              "type": "uint256"
            },
            {
              "internalType": "uint256",
              "name": "reserveOut",
              "type": "uint256"
            },
            {
              "internalType": "uint256",
              "name": "vReserveIn",
              "type": "uint256"
            },
            {
              "internalType": "uint256",
              "name": "vReserveOut",
              "type": "uint256"
            },
            {
              "internalType": "uint32",
              "name": "tokenWeightIn",
              "type": "uint32"
            },
            {
              "internalType": "uint32",
              "name": "tokenWeightOut",
              "type": "uint32"
            },
            {
              "internalType": "uint32",
              "name": "swapFee",
              "type": "uint32"
            }
          ],
          "internalType": "struct IWeightedFormulaV2.PricingData",
          "name": "pricingData",
          "type": "tuple"
        }
      ],
      "name": "getAmountIn",
      "outputs": [
        {
          "internalType": "uint256",
          "name": "amountIn",
          "type": "uint256"
        }
      ],
      "stateMutability": "view",
      "type": "function"
    },
    {
      "inputs": [
        {
          "internalType": "uint256",
          "name": "amountIn",
          "type": "uint256"
        },
        {
          "components": [
            {
              "internalType": "uint256",
              "name": "reserveIn",
              "type": "uint256"
            },
            {
              "internalType": "uint256",
              "name": "reserveOut",
              "type": "uint256"
            },
            {
              "internalType": "uint256",
              "name": "vReserveIn",
              "type": "uint256"
            },
            {
              "internalType": "uint256",
              "name": "vReserveOut",
              "type": "uint256"
            },
            {
              "internalType": "uint32",
              "name": "tokenWeightIn",
              "type": "uint32"
            },
            {
              "internalType": "uint32",
              "name": "tokenWeightOut",
              "type": "uint32"
            },
            {
              "internalType": "uint32",
              "name": "swapFee",
              "type": "uint32"
            }
          ],
          "internalType": "struct IWeightedFormulaV2.PricingData",
          "name": "pricingData",
          "type": "tuple"
        }
      ],
      "name": "getAmountOut",
      "outputs": [
        {
          "internalType": "uint256",
          "name": "amountOut",
          "type": "uint256"
        }
      ],
      "stateMutability": "view",
      "type": "function"
    },
    {
      "inputs": [
        {
          "internalType": "address",
          "name": "factory",
          "type": "address"
        },
        {
          "internalType": "address",
          "name": "pair",
          "type": "address"
        }
      ],
      "name": "getFactoryWeightsAndSwapFee",
      "outputs": [
        {
          "internalType": "uint32",
          "name": "tokenWeight0",
          "type": "uint32"
        },
        {
          "internalType": "uint32",
          "name": "tokenWeight1",
          "type": "uint32"
        },
        {
          "internalType": "uint32",
          "name": "swapFee",
          "type": "uint32"
        }
      ],
      "stateMutability": "view",
      "type": "function"
    },
    {
      "inputs": [
        {
          "internalType": "address",
          "name": "pair",
          "type": "address"
        },
        {
          "internalType": "address",
          "name": "tokenA",
          "type": "address"
        }
      ],
      "name": "getOtherToken",
      "outputs": [
        {
          "internalType": "address",
          "name": "tokenB",
          "type": "address"
        }
      ],
      "stateMutability": "view",
      "type": "function"
    },
    {
      "inputs": [
        {
          "internalType": "address",
          "name": "pair",
          "type": "address"
        },
        {
          "internalType": "address",
          "name": "tokenA",
          "type": "address"
        },
        {
          "internalType": "address",
          "name": "tokenB",
          "type": "address"
        }
      ],
      "name": "getReserves",
      "outputs": [
        {
          "internalType": "uint256",
          "name": "reserveA",
          "type": "uint256"
        },
        {
          "internalType": "uint256",
          "name": "reserveB",
          "type": "uint256"
        },
        {
          "internalType": "uint256",
          "name": "vReserveA",
          "type": "uint256"
        },
        {
          "internalType": "uint256",
          "name": "vReserveB",
          "type": "uint256"
        }
      ],
      "stateMutability": "view",
      "type": "function"
    },
    {
      "inputs": [
        {
          "internalType": "address",
          "name": "pair",
          "type": "address"
        }
      ],
      "name": "getWeightsAndSwapFee",
      "outputs": [
        {
          "internalType": "uint32",
          "name": "tokenWeight0",
          "type": "uint32"
        },
        {
          "internalType": "uint32",
          "name": "tokenWeight1",
          "type": "uint32"
        },
        {
          "internalType": "uint32",
          "name": "swapFee",
          "type": "uint32"
        }
      ],
      "stateMutability": "view",
      "type": "function"
    },
    {
      "inputs": [
        {
          "internalType": "uint256",
          "name": "totalLiquidity",
          "type": "uint256"
        },
        {
          "internalType": "uint256",
          "name": "reserve0",
          "type": "uint256"
        },
        {
          "internalType": "uint256",
          "name": "reserve1",
          "type": "uint256"
        },
        {
          "internalType": "uint32",
          "name": "tokenWeight0",
          "type": "uint32"
        },
        {
          "internalType": "uint112",
          "name": "collectedFee0",
          "type": "uint112"
        },
        {
          "internalType": "uint112",
          "name": "collectedFee1",
          "type": "uint112"
        }
      ],
      "name": "mintLiquidityFee",
      "outputs": [
        {
          "internalType": "uint256",
          "name": "amount",
          "type": "uint256"
        }
      ],
      "stateMutability": "view",
      "type": "function"
    },
    {
      "inputs": [
        {
          "internalType": "uint256",
          "name": "amountA",
          "type": "uint256"
        },
        {
          "internalType": "uint256",
          "name": "reserveA",
          "type": "uint256"
        },
        {
          "internalType": "uint256",
          "name": "reserveB",
          "type": "uint256"
        }
      ],
      "name": "quote",
      "outputs": [
        {
          "internalType": "uint256",
          "name": "amountB",
          "type": "uint256"
        }
      ],
      "stateMutability": "pure",
      "type": "function"
    },
    {
      "inputs": [
        {
          "internalType": "address",
          "name": "tokenA",
          "type": "address"
        },
        {
          "internalType": "address",
          "name": "tokenB",
          "type": "address"
        }
      ],
      "name": "sortTokens",
      "outputs": [
        {
          "internalType": "address",
          "name": "token0",
          "type": "address"
        },
        {
          "internalType": "address",
          "name": "token1",
          "type": "address"
        }
      ],
      "stateMutability": "pure",
      "type": "function"
    }
  ],
  "transactionHash": "0xfc1ec29cc3eb3c5ed13ec1b21247842bd096866c1dd9ba7cc76204b46d7b6e1d",
  "args": [],
  "solcInputHash": "b7fdf3cf6099b2a1f304dfce08fdfa28",
  "bytecode": "0x608060405234801561001057600080fd5b5061073f6001641c35fedd1560601b036020556001646c3390ecc9605e1b036021556001640cf801476160611b0360225560016431bdb23e1d605f1b0360235560016502fb1d8fe083605b1b0360245560016505b771955b37605a1b036025556001650af67a93bb5160591b0360265560016515060c256cb360581b036027556001651428a2f98d7360581b036028556001654d515663970960561b03602955600165944620b0e70f60551b03602a55600166011c592761c66760541b03602b5560016602214d10d014eb60531b03602c55600166020ade36b7dbef60531b03602d5560016603eab73b3bbfe360521b03602e556001660782ee3593f6d760511b03602f556001661ccf4b44bb4821604f1b0360305560016606e7f88ad8a77760511b0360315560016669f3d1c921891d604d1b03603255600166cb2ff529eb71e5604c1b03603355600166c2d415c3db974b604c1b0360345560016702eb40f9f620fda7604a1b0360355560016705990681d961a1eb60491b03603655600167055e12902701414760491b0360375560016714962dee9dc9764160471b0360385560016704ef57b9b560fab560491b0360395560016712ed7b32a58f552b60471b03603a556001679131271922eaa60760441b03603b556001678b380f3558668c4760441b03603c556001680215f77c045fbe885760421b03603d556001600160831b03603e556001670f577eded5773a1160471b03603f556001680eb5ec597592befbf5603f1b036040556001681c35fedd14b861eb05603e1b036041556001683619c87664579bc94b603d1b0360425560016867c00a3b07ffc01fd7603c1b03604355600168c6f6c8f8739773a7a5603b1b03604455600168bec763f8209b7a72b1603b1b0360455560016902dbb8caad9b7097b91b60391b03604655600169057b3d49dda84556d6f760381b03604755600169054183095b2c8ececf3160381b036048556001690a14517cc6b9457111ef60371b0360495560016913545598e5c23276ccf160361b03604a556001692511882c39c3adea96ff60351b03604b55600169471649d87199aa99075760341b03604c557004429a21a029d4c1457cfbffffffffffff604d55700415bc6d6fb7dd71af2cb3ffffffffffff604e557003eab73b3bbfe282243ce1ffffffffffff604f557003c1771ac9fb6b4c18e229ffffffffffff605055700399e96897690418f785257fffffffffff605155700373fc456c53bb779bf0ea9fffffffffff60525570034f9e8e490c48e67e6ab8bfffffffffff60535570032cbfd4a7adc790560b3337ffffffffff60545570030b50570f6e5d2acca94613ffffffffff6055557002eb40f9f620fda6b56c2861ffffffffff6056557002cc8340ecb0d0f520a6af58ffffffffff6057557002af09481380a0a35cf1ba02ffffffffff605855700292c5bdd3b92ec810287b1b3fffffffff605955700277abdcdab07d5a77ac6d6b9fffffffff605a5570025daf6654b1eaa55fd64df5efffffffff605b55700244c49c648baa98192dce88b7ffffffff605c5570022ce03cd5619a311b2471268bffffffff605d55700215f77c045fbe885654a44a0fffffffff605e556001600160811b03605f557001eaefdbdaaee7421fc4d3ede5ffffffff6060557001d6bd8b2eb257df7e8ca57b09bfffffff6061557001c35fedd14b861eb0443f7f133fffffff6062557001b0ce43b322bcde4a56e8ada5afffffff60635570019f0028ec1fff007f5a195a39dfffffff60645570018ded91f0e72ee74f49b15ba527ffffff60655570017d8ec7f04136f4e5615fd41a63ffffff60665570016ddc6556cdb84bdc8d12d22e6fffffff60675570015ecf52776a1155b5bd8395814f7fffff60685570015060c256cb23b3b3cc3754cf40ffffff6069557001428a2f98d728ae223ddab715be3fffff606a5570013545598e5c23276ccf0ede68034fffff606b557001288c4161ce1d6f54b7f61081194fffff606c5570011c592761c666aa641d5a01a40f17ffff606d55700110a688680a7530515f3e6e6cfdcdffff606e557001056f1b5bedf75c6bcb2ce8aed428ffff606f556ffaadceceeff8a0890f3875f008277fff6070556ff05dc6b27edad306388a600f6ba0bfff6071556fe67a5a25da41063de1495d5b18cdbfff6072556fdcff115b14eedde6fc3aa5353f2e4fff6073556fd3e7a3924312399f9aae2e0f868f8fff6074556fcb2ff529eb71e41582cccd5a1ee26fff6075556fc2d415c3db974ab32a51840c0b67edff6076556fbad03e7d883f69ad5b0a186184e06bff6077556fb320d03b2c343d4829abd6075f0cc5ff6078556fabc25204e02828d73c6e80bcdb1a95bf6079556fa4b16f74ee4bb2040a1ec6c15fbbf2df607a556f9deaf736ac1f569deb1b5ae3f36c130f607b556f976bd9952c7aa957f5937d790ef65037607c556f9131271922eaa6064b73a22d0bd4f2bf607d556f8b380f3558668c46c91c49a2f8e967b9607e556f857ddf0117efa215952912839f6473e6607f55565b6133b28061074e6000396000f3fe608060405234801561001057600080fd5b50600436106100be5760003560e01c80638a91e6dc11610076578063ad615dec1161005b578063ad615dec146101df578063ca222979146101f2578063d69109371461020557600080fd5b80638a91e6dc146101b9578063a56baa91146101cc57600080fd5b8063544caa56116100a7578063544caa561461013557806379c91b37146101755780637ecece031461019857600080fd5b80632bb66e1d146100c35780633274946114610102575b600080fd5b6100d66100d1366004612c8c565b61023d565b6040805163ffffffff948516815292841660208401529216918101919091526060015b60405180910390f35b610115610110366004612cc5565b6102e2565b6040805194855260208501939093529183015260608201526080016100f9565b610148610143366004612c8c565b610588565b6040805173ffffffffffffffffffffffffffffffffffffffff9384168152929091166020830152016100f9565b610188610183366004612d22565b61070c565b60405190151581526020016100f9565b6101ab6101a6366004612d92565b6108e4565b6040519081526020016100f9565b6101ab6101c7366004612df3565b6109d4565b6101ab6101da366004612df3565b610c40565b6101ab6101ed366004612e4a565b610ecd565b6100d6610200366004612e76565b611017565b610218610213366004612c8c565b6111c3565b60405173ffffffffffffffffffffffffffffffffffffffff90911681526020016100f9565b6040517fca22297900000000000000000000000000000000000000000000000000000000815273ffffffffffffffffffffffffffffffffffffffff8281166004830152600091829182919086169063ca22297990602401606060405180830381865afa1580156102b1573d6000803e3d6000fd5b505050506040513d601f19601f820116820180604052508101906102d59190612e93565b9250925092509250925092565b6000806000806000806102f58888610588565b9150915060008973ffffffffffffffffffffffffffffffffffffffff16630902f1ac6040518163ffffffff1660e01b8152600401608060405180830381865afa158015610346573d6000803e3d6000fd5b505050506040513d601f19601f8201168201806040525081019061036a9190612f47565b90508973ffffffffffffffffffffffffffffffffffffffff16630dfe16816040518163ffffffff1660e01b8152600401602060405180830381865afa1580156103b7573d6000803e3d6000fd5b505050506040513d601f19601f820116820180604052508101906103db9190612fd4565b73ffffffffffffffffffffffffffffffffffffffff168373ffffffffffffffffffffffffffffffffffffffff161480156104ae57508973ffffffffffffffffffffffffffffffffffffffff1663d21220a76040518163ffffffff1660e01b8152600401602060405180830381865afa15801561045b573d6000803e3d6000fd5b505050506040513d601f19601f8201168201806040525081019061047f9190612fd4565b73ffffffffffffffffffffffffffffffffffffffff168273ffffffffffffffffffffffffffffffffffffffff16145b610519576040517f08c379a000000000000000000000000000000000000000000000000000000000815260206004820152601d60248201527f5265717569656d466f726d756c613a20496e76616c696420746f6b656e00000060448201526064015b60405180910390fd5b8273ffffffffffffffffffffffffffffffffffffffff168973ffffffffffffffffffffffffffffffffffffffff1614610562576020810151815160608301516040840151610574565b80516020820151604083015160608401515b929d919c509a509098509650505050505050565b6000808273ffffffffffffffffffffffffffffffffffffffff168473ffffffffffffffffffffffffffffffffffffffff1603610646576040517f08c379a000000000000000000000000000000000000000000000000000000000815260206004820152602360248201527f5265717569656d466f726d756c613a204944454e544943414c5f41444452455360448201527f53455300000000000000000000000000000000000000000000000000000000006064820152608401610510565b8273ffffffffffffffffffffffffffffffffffffffff168473ffffffffffffffffffffffffffffffffffffffff1610610680578284610683565b83835b909250905073ffffffffffffffffffffffffffffffffffffffff8216610705576040517f08c379a000000000000000000000000000000000000000000000000000000000815260206004820152601c60248201527f5265717569656d466f726d756c613a205a45524f5f41444452455353000000006044820152606401610510565b9250929050565b60008163ffffffff16603203610739576107268587613020565b6107308486613020565b101590506108db565b8584101580156107495750848310155b156107b0576040517f08c379a000000000000000000000000000000000000000000000000000000000815260206004820152600360248201527f48493100000000000000000000000000000000000000000000000000000000006044820152606401610510565b8584111580156107c05750848311155b15610827576040517f08c379a000000000000000000000000000000000000000000000000000000000815260206004820152600360248201527f48493200000000000000000000000000000000000000000000000000000000006044820152606401610510565b81600061083582606461305d565b90506000806000808b8a10610873576108518b8a8760326113ae565b90945060ff1692506108668a8d8860326113ae565b90925060ff16905061089e565b6108808c8b8860326113ae565b90945060ff169250610895898c8760326113ae565b90925060ff1690505b60008184106108ad57816108af565b835b90506108bb8185613082565b93506108c78183613082565b9290921c9390921c92909211159450505050505b95945050505050565b60006dffffffffffffffffffffffffffff8316156109535760008061092561091c896dffffffffffffffffffffffffffff8816613099565b898860646113ae565b90925060ff16905088816109398483613020565b610944911c85613099565b61094e9190613082565b925050505b6dffffffffffffffffffffffffffff8216156109ca5760008061099c610989886dffffffffffffffffffffffffffff8716613099565b8861099589606461305d565b60646113ae565b90925060ff16905088816109b08483613020565b6109bb911c85613099565b6109c59190613082565b925050505b9695505050505050565b6000808311610a65576040517f08c379a000000000000000000000000000000000000000000000000000000000815260206004820152602960248201527f5265717569656d466f726d756c613a20494e53554646494349454e545f494e5060448201527f55545f414d4f554e5400000000000000000000000000000000000000000000006064820152608401610510565b813515801590610a79575060008260200135115b610b05576040517f08c379a000000000000000000000000000000000000000000000000000000000815260206004820152602660248201527f5265717569656d466f726d756c613a20494e53554646494349454e545f4c495160448201527f55494449545900000000000000000000000000000000000000000000000000006064820152608401610510565b6000610b1760e0840160c085016130b1565b610b239061271061305d565b610b339063ffffffff1685613020565b9050610b4560c0840160a085016130b1565b63ffffffff16610b5b60a08501608086016130b1565b63ffffffff1603610ba15780610b776040850135612710613020565b610b819190613099565b610b8f826060860135613020565b610b9991906130fd565b915050610c3a565b6000808083610bb66040880135612710613020565b610bc09190613099565b9050610bfb81610bd66040890135612710613020565b610be660a08a0160808b016130b1565b610bf660c08b0160a08c016130b1565b6113ae565b90935091506000610c10846060890135613020565b9050606087013560ff84161b84610c278284613082565b610c3191906130fd565b96505050505050505b92915050565b6000808311610cd1576040517f08c379a000000000000000000000000000000000000000000000000000000000815260206004820152602a60248201527f5265717569656d466f726d756c613a20494e53554646494349454e545f4f555460448201527f5055545f414d4f554e54000000000000000000000000000000000000000000006064820152608401610510565b813515801590610ce5575060008260200135115b610d71576040517f08c379a000000000000000000000000000000000000000000000000000000000815260206004820152602660248201527f5265717569656d466f726d756c613a20494e53554646494349454e545f4c495160448201527f55494449545900000000000000000000000000000000000000000000000000006064820152608401610510565b610d8160c0830160a084016130b1565b63ffffffff16610d9760a08401608085016130b1565b63ffffffff1603610e1c576000610db2846040850135613020565b610dbe90612710613020565b90506000610dd260e0850160c086016130b1565b610dde9061271061305d565b63ffffffff16610df2866060870135613082565b610dfc9190613020565b9050610e0881836130fd565b610e13906001613099565b92505050610c3a565b60008080610e2e866060870135613082565b9050610e59606086013582610e4960c0890160a08a016130b1565b610bf660a08a0160808b016130b1565b90935091506000610e706040870135612710613020565b90506000610e7e8583613020565b905060ff841682901b610e9760e0890160c08a016130b1565b610ea39061271061305d565b63ffffffff1660ff8616610eb78385613082565b610ec292911c6130fd565b610c31906001613099565b6000808411610f5e576040517f08c379a000000000000000000000000000000000000000000000000000000000815260206004820152602360248201527f5265717569656d466f726d756c613a20494e53554646494349454e545f414d4f60448201527f554e5400000000000000000000000000000000000000000000000000000000006064820152608401610510565b600083118015610f6e5750600082115b610ffa576040517f08c379a000000000000000000000000000000000000000000000000000000000815260206004820152602660248201527f5265717569656d466f726d756c613a20494e53554646494349454e545f4c495160448201527f55494449545900000000000000000000000000000000000000000000000000006064820152608401610510565b826110058386613020565b61100f91906130fd565b949350505050565b60008060008373ffffffffffffffffffffffffffffffffffffffff166332bfe4696040518163ffffffff1660e01b81526004016040805180830381865afa9250505080156110a0575060408051601f3d9081017fffffffffffffffffffffffffffffffffffffffffffffffffffffffffffffffe016820190925261109d91810190613111565b60015b611142576110ac613140565b806308c379a0036110ff57506110c061315c565b806110cb5750611101565b806040517f08c379a00000000000000000000000000000000000000000000000000000000081526004016105109190613204565b505b3d80801561112b576040519150601f19603f3d011682016040523d82523d6000602084013e611130565b606091505b50603280601e935093509350506111bc565b81818773ffffffffffffffffffffffffffffffffffffffff1663d4cadf686040518163ffffffff1660e01b8152600401602060405180830381865afa15801561118f573d6000803e3d6000fd5b505050506040513d601f19601f820116820180604052508101906111b39190613277565b94509450945050505b9193909250565b6000808373ffffffffffffffffffffffffffffffffffffffff16630dfe16816040518163ffffffff1660e01b8152600401602060405180830381865afa158015611211573d6000803e3d6000fd5b505050506040513d601f19601f820116820180604052508101906112359190612fd4565b905060008473ffffffffffffffffffffffffffffffffffffffff1663d21220a76040518163ffffffff1660e01b8152600401602060405180830381865afa158015611284573d6000803e3d6000fd5b505050506040513d601f19601f820116820180604052508101906112a89190612fd4565b90508373ffffffffffffffffffffffffffffffffffffffff168273ffffffffffffffffffffffffffffffffffffffff16148061130f57508373ffffffffffffffffffffffffffffffffffffffff168173ffffffffffffffffffffffffffffffffffffffff16145b611375576040517f08c379a000000000000000000000000000000000000000000000000000000000815260206004820152601e60248201527f5265717569656d466f726d756c613a20496e76616c696420746f6b656e4100006044820152606401610510565b8373ffffffffffffffffffffffffffffffffffffffff168273ffffffffffffffffffffffffffffffffffffffff161461100f57816108db565b6000808486101561141b576040517f08c379a000000000000000000000000000000000000000000000000000000000815260206004820152601b60248201527f6e6f7420737570706f7274205f626173654e203c205f626173654400000000006044820152606401610510565b700200000000000000000000000000000000861061143857600080fd5b600080866114566f800000000000000000000000000000008a613020565b61146091906130fd565b905070015bf0a8b1457695355fb8ac404e7a79e381101561148b576114848161152b565b9150611497565b61149481611c2d565b91505b60008563ffffffff168763ffffffff16846114b29190613020565b6114bc91906130fd565b90507008000000000000000000000000000000008110156114ee576114e081611d6c565b607f94509450505050611522565b60006114f9826124ea565b905061151561150982607f613294565b60ff1683901c8261259d565b9550935061152292505050565b94509492505050565b6000808080806fd3094c70f034de4b96ff7d5b6f99fcd8861061159c576115626f4000000000000000000000000000000085613099565b93506fd3094c70f034de4b96ff7d5b6f99fcd861158f6f8000000000000000000000000000000088613020565b61159991906130fd565b95505b6fa45af1e1f40c333b3de1db4dd55f29a78610611607576115cd6f2000000000000000000000000000000085613099565b93506fa45af1e1f40c333b3de1db4dd55f29a76115fa6f8000000000000000000000000000000088613020565b61160491906130fd565b95505b6f910b022db7ae67ce76b441c27035c6a18610611672576116386f1000000000000000000000000000000085613099565b93506f910b022db7ae67ce76b441c27035c6a16116656f8000000000000000000000000000000088613020565b61166f91906130fd565b95505b6f88415abbe9a76bead8d00cf112e4d4a886106116dd576116a36f0800000000000000000000000000000085613099565b93506f88415abbe9a76bead8d00cf112e4d4a86116d06f8000000000000000000000000000000088613020565b6116da91906130fd565b95505b6f84102b00893f64c705e841d5d4064bd386106117485761170e6f0400000000000000000000000000000085613099565b93506f84102b00893f64c705e841d5d4064bd361173b6f8000000000000000000000000000000088613020565b61174591906130fd565b95505b6f8204055aaef1c8bd5c3259f4822735a286106117b3576117796f0200000000000000000000000000000085613099565b93506f8204055aaef1c8bd5c3259f4822735a26117a66f8000000000000000000000000000000088613020565b6117b091906130fd565b95505b6f810100ab00222d861931c15e39b44e99861061181e576117e46f0100000000000000000000000000000085613099565b93506f810100ab00222d861931c15e39b44e996118116f8000000000000000000000000000000088613020565b61181b91906130fd565b95505b6f808040155aabbbe9451521693554f73386106118885761184e6e80000000000000000000000000000085613099565b93506f808040155aabbbe9451521693554f73361187b6f8000000000000000000000000000000088613020565b61188591906130fd565b95505b6118a26f8000000000000000000000000000000087613082565b92508291506f800000000000000000000000000000006118c28380613020565b6118cc91906130fd565b90507001000000000000000000000000000000006118ea8482613082565b6118f49084613020565b6118fe91906130fd565b6119089085613099565b93506f800000000000000000000000000000006119258284613020565b61192f91906130fd565b915070020000000000000000000000000000000061195d846faaaaaaaaaaaaaaaaaaaaaaaaaaaaaaaa613082565b6119679084613020565b61197191906130fd565b61197b9085613099565b93506f800000000000000000000000000000006119988284613020565b6119a291906130fd565b91507003000000000000000000000000000000006119d0846f99999999999999999999999999999999613082565b6119da9084613020565b6119e491906130fd565b6119ee9085613099565b93506f80000000000000000000000000000000611a0b8284613020565b611a1591906130fd565b9150700400000000000000000000000000000000611a43846f92492492492492492492492492492492613082565b611a4d9084613020565b611a5791906130fd565b611a619085613099565b93506f80000000000000000000000000000000611a7e8284613020565b611a8891906130fd565b9150700500000000000000000000000000000000611ab6846f8e38e38e38e38e38e38e38e38e38e38e613082565b611ac09084613020565b611aca91906130fd565b611ad49085613099565b93506f80000000000000000000000000000000611af18284613020565b611afb91906130fd565b9150700600000000000000000000000000000000611b29846f8ba2e8ba2e8ba2e8ba2e8ba2e8ba2e8b613082565b611b339084613020565b611b3d91906130fd565b611b479085613099565b93506f80000000000000000000000000000000611b648284613020565b611b6e91906130fd565b9150700700000000000000000000000000000000611b9c846f89d89d89d89d89d89d89d89d89d89d89613082565b611ba69084613020565b611bb091906130fd565b611bba9085613099565b93506f80000000000000000000000000000000611bd78284613020565b611be191906130fd565b9150700800000000000000000000000000000000611c0f846f88888888888888888888888888888888613082565b611c199084613020565b611c2391906130fd565b6109ca9085613099565b6000807001000000000000000000000000000000008310611c96576000611c6c611c676f80000000000000000000000000000000866130fd565b612bfb565b60ff811694851c94909150611c92906f8000000000000000000000000000000090613020565b9150505b6f80000000000000000000000000000000831115611d3057607f5b60ff811615611d2e576f80000000000000000000000000000000611cd58580613020565b611cdf91906130fd565b93507001000000000000000000000000000000008410611d1e57600193841c93611d099082613294565b60ff166001901b82611d1b9190613099565b91505b611d27816132b7565b9050611cb1565b505b6f05b9de1d10bf4103d647b0955897ba80611d5b6f03f80fe03f80fe03f80fe03f80fe03f883613020565b611d6591906130fd565b9392505050565b6000808080611d8b6f10000000000000000000000000000000866132f2565b91508190506f80000000000000000000000000000000611dab8280613020565b611db591906130fd565b9050611dc9816710e1b3be415a0000613020565b611dd39084613099565b92506f80000000000000000000000000000000611df08383613020565b611dfa91906130fd565b9050611e0e816705a0913f6b1e0000613020565b611e189084613099565b92506f80000000000000000000000000000000611e358383613020565b611e3f91906130fd565b9050611e5381670168244fdac78000613020565b611e5d9084613099565b92506f80000000000000000000000000000000611e7a8383613020565b611e8491906130fd565b9050611e9781664807432bc18000613020565b611ea19084613099565b92506f80000000000000000000000000000000611ebe8383613020565b611ec891906130fd565b9050611edb81660c0135dca04000613020565b611ee59084613099565b92506f80000000000000000000000000000000611f028383613020565b611f0c91906130fd565b9050611f1f816601b707b1cdc000613020565b611f299084613099565b92506f80000000000000000000000000000000611f468383613020565b611f5091906130fd565b9050611f62816536e0f639b800613020565b611f6c9084613099565b92506f80000000000000000000000000000000611f898383613020565b611f9391906130fd565b9050611fa581650618fee9f800613020565b611faf9084613099565b92506f80000000000000000000000000000000611fcc8383613020565b611fd691906130fd565b9050611fe781649c197dcc00613020565b611ff19084613099565b92506f8000000000000000000000000000000061200e8383613020565b61201891906130fd565b905061202981640e30dce400613020565b6120339084613099565b92506f800000000000000000000000000000006120508383613020565b61205a91906130fd565b905061206b8164012ebd1300613020565b6120759084613099565b92506f800000000000000000000000000000006120928383613020565b61209c91906130fd565b90506120ac816317499f00613020565b6120b69084613099565b92506f800000000000000000000000000000006120d38383613020565b6120dd91906130fd565b90506120ed816301a9d480613020565b6120f79084613099565b92506f800000000000000000000000000000006121148383613020565b61211e91906130fd565b905061212d81621c6380613020565b6121379084613099565b92506f800000000000000000000000000000006121548383613020565b61215e91906130fd565b905061216d816201c638613020565b6121779084613099565b92506f800000000000000000000000000000006121948383613020565b61219e91906130fd565b90506121ac81611ab8613020565b6121b69084613099565b92506f800000000000000000000000000000006121d38383613020565b6121dd91906130fd565b90506121eb8161017c613020565b6121f59084613099565b92506f800000000000000000000000000000006122128383613020565b61221c91906130fd565b9050612229816014613020565b6122339084613099565b92506f800000000000000000000000000000006122508383613020565b61225a91906130fd565b9050612267816001613020565b6122719084613099565b92506f80000000000000000000000000000000826122976721c3677c82b40000866130fd565b6122a19190613099565b6122ab9190613099565b92506f100000000000000000000000000000008516156122ff5770018ebef9eac820ae8682b9793ac6d1e7766122f2847001c3d6a24ed82218787d624d3e5eba95f9613020565b6122fc91906130fd565b92505b6f20000000000000000000000000000000851615612351577001368b2fc6f9609fe7aceb46aa619baed46123448470018ebef9eac820ae8682b9793ac6d1e778613020565b61234e91906130fd565b92505b6f400000000000000000000000000000008516156123a2576fbc5ab1b16779be3575bd8f0520a9f21f612395847001368b2fc6f9609fe7aceb46aa619baed5613020565b61239f91906130fd565b92505b6f800000000000000000000000000000008516156123f2576f454aaa8efe072e7f6ddbab84b40a55c96123e5846fbc5ab1b16779be3575bd8f0520a9f21e613020565b6123ef91906130fd565b92505b700100000000000000000000000000000000851615612443576f0960aadc109e7a3bf4578099615711ea612436846f454aaa8efe072e7f6ddbab84b40a55c5613020565b61244091906130fd565b92505b700200000000000000000000000000000000851615612493576e2bf84208204f5977f9a8cf01fdce3d612486846f0960aadc109e7a3bf4578099615711d7613020565b61249091906130fd565b92505b7004000000000000000000000000000000008516156124e1576d03c6ab775dd0b95b4cbee7e65d116124d4846e2bf84208204f5977f9a8cf01fdc307613020565b6124de91906130fd565b92505b50909392505050565b60006020607f5b60ff8116612500836001613306565b60ff16101561255357600060026125178385613306565b612521919061332b565b90508460008260ff166080811061253a5761253a61334d565b0154106125495780925061254d565b8091505b506124f1565b8360008260ff166080811061256a5761256a61334d565b015410612578579392505050565b8360008360ff166080811061258f5761258f61334d565b0154106100be575092915050565b6000828160ff84166125af8380613020565b901c91506125cd826f03442c4e6074a82f1797f72ac0000000613020565b6125d79082613099565b905060ff84166125e78684613020565b901c9150612605826f0116b96f757c380fb287fd0e40000000613020565b61260f9082613099565b905060ff841661261f8684613020565b901c915061263c826e45ae5bdd5f0e03eca1ff4390000000613020565b6126469082613099565b905060ff84166126568684613020565b901c9150612673826e0defabf91302cd95b9ffda50000000613020565b61267d9082613099565b905060ff841661268d8684613020565b901c91506126aa826e02529ca9832b22439efff9b8000000613020565b6126b49082613099565b905060ff84166126c48684613020565b901c91506126e0826d54f1cf12bd04e516b6da88000000613020565b6126ea9082613099565b905060ff84166126fa8684613020565b901c9150612716826d0a9e39e257a09ca2d6db51000000613020565b6127209082613099565b905060ff84166127308684613020565b901c915061274c826d012e066e7b839fa050c309000000613020565b6127569082613099565b905060ff84166127668684613020565b901c9150612781826c1e33d7d926c329a1ad1a800000613020565b61278b9082613099565b905060ff841661279b8684613020565b901c91506127b6826c02bee513bdb4a6b19b5f800000613020565b6127c09082613099565b905060ff84166127d08684613020565b901c91506127ea826b3a9316fa79b88eccf2a00000613020565b6127f49082613099565b905060ff84166128048684613020565b901c915061281e826b048177ebe1fa812375200000613020565b6128289082613099565b905060ff84166128388684613020565b901c9150612851826a5263fe90242dcbacf00000613020565b61285b9082613099565b905060ff841661286b8684613020565b901c9150612884826a057e22099c030d94100000613020565b61288e9082613099565b905060ff841661289e8684613020565b901c91506128b6826957e22099c030d9410000613020565b6128c09082613099565b905060ff84166128d08684613020565b901c91506128e88269052b6b54569976310000613020565b6128f29082613099565b905060ff84166129028684613020565b901c915061291982684985f67696bf748000613020565b6129239082613099565b905060ff84166129338684613020565b901c915061294a826803dea12ea99e498000613020565b6129549082613099565b905060ff84166129648684613020565b901c915061297a826731880f2214b6e000613020565b6129849082613099565b905060ff84166129948684613020565b901c91506129aa8267025bcff56eb36000613020565b6129b49082613099565b905060ff84166129c48684613020565b901c91506129d982661b722e10ab1000613020565b6129e39082613099565b905060ff84166129f38684613020565b901c9150612a08826601317c70077000613020565b612a129082613099565b905060ff8416612a228684613020565b901c9150612a3682650cba84aafa00613020565b612a409082613099565b905060ff8416612a508684613020565b901c9150612a63826482573a0a00613020565b612a6d9082613099565b905060ff8416612a7d8684613020565b901c9150612a90826405035ad900613020565b612a9a9082613099565b905060ff8416612aaa8684613020565b901c9150612abc82632f881b00613020565b612ac69082613099565b905060ff8416612ad68684613020565b901c9150612ae8826301b29340613020565b612af29082613099565b905060ff8416612b028684613020565b901c9150612b1382620efc40613020565b612b1d9082613099565b905060ff8416612b2d8684613020565b901c9150612b3d82617fe0613020565b612b479082613099565b905060ff8416612b578684613020565b901c9150612b6782610420613020565b612b719082613099565b905060ff8416612b818684613020565b901c9150612b90826021613020565b612b9a9082613099565b905060ff8416612baa8684613020565b901c9150612bb9826001613020565b612bc39082613099565b9050600160ff85161b85612be76f0688589cc0e9505e2f2fee5580000000846130fd565b612bf19190613099565b6108db9190613099565b600080610100831015612c2e575b6001831115612c2957600192831c92612c229082613306565b9050612c09565b610c3a565b60805b60ff811615612c6057600160ff82161b8410612c555760ff81169390931c92908117905b60011c607f16612c31565b5092915050565b73ffffffffffffffffffffffffffffffffffffffff81168114612c8957600080fd5b50565b60008060408385031215612c9f57600080fd5b8235612caa81612c67565b91506020830135612cba81612c67565b809150509250929050565b600080600060608486031215612cda57600080fd5b8335612ce581612c67565b92506020840135612cf581612c67565b91506040840135612d0581612c67565b809150509250925092565b63ffffffff81168114612c8957600080fd5b600080600080600060a08688031215612d3a57600080fd5b853594506020860135935060408601359250606086013591506080860135612d6181612d10565b809150509295509295909350565b80356dffffffffffffffffffffffffffff81168114612d8d57600080fd5b919050565b60008060008060008060c08789031215612dab57600080fd5b8635955060208701359450604087013593506060870135612dcb81612d10565b9250612dd960808801612d6f565b9150612de760a08801612d6f565b90509295509295509295565b600080828403610100811215612e0857600080fd5b8335925060e07fffffffffffffffffffffffffffffffffffffffffffffffffffffffffffffffe082011215612e3c57600080fd5b506020830190509250929050565b600080600060608486031215612e5f57600080fd5b505081359360208301359350604090920135919050565b600060208284031215612e8857600080fd5b8135611d6581612c67565b600080600060608486031215612ea857600080fd5b8351612eb381612d10565b6020850151909350612ec481612d10565b6040850151909250612d0581612d10565b7fffffffffffffffffffffffffffffffffffffffffffffffffffffffffffffffe0601f830116810181811067ffffffffffffffff82111715612f40577f4e487b7100000000000000000000000000000000000000000000000000000000600052604160045260246000fd5b6040525050565b600060808284031215612f5957600080fd5b6040516080810181811067ffffffffffffffff82111715612fa3577f4e487b7100000000000000000000000000000000000000000000000000000000600052604160045260246000fd5b8060405250825181526020830151602082015260408301516040820152606083015160608201528091505092915050565b600060208284031215612fe657600080fd5b8151611d6581612c67565b7f4e487b7100000000000000000000000000000000000000000000000000000000600052601160045260246000fd5b6000817fffffffffffffffffffffffffffffffffffffffffffffffffffffffffffffffff048311821515161561305857613058612ff1565b500290565b600063ffffffff8381169083168181101561307a5761307a612ff1565b039392505050565b60008282101561309457613094612ff1565b500390565b600082198211156130ac576130ac612ff1565b500190565b6000602082840312156130c357600080fd5b8135611d6581612d10565b7f4e487b7100000000000000000000000000000000000000000000000000000000600052601260045260246000fd5b60008261310c5761310c6130ce565b500490565b6000806040838503121561312457600080fd5b825161312f81612d10565b6020840151909250612cba81612d10565b600060033d11156131595760046000803e5060005160e01c5b90565b600060443d101561316a5790565b6040517ffffffffffffffffffffffffffffffffffffffffffffffffffffffffffffffffc803d016004833e81513d67ffffffffffffffff81602484011181841117156131b857505050505090565b82850191508151818111156131d05750505050505090565b843d87010160208285010111156131ea5750505050505090565b6131f960208286010187612ed5565b509095945050505050565b600060208083528351808285015260005b8181101561323157858101830151858201604001528201613215565b81811115613243576000604083870101525b50601f017fffffffffffffffffffffffffffffffffffffffffffffffffffffffffffffffe016929092016040019392505050565b60006020828403121561328957600080fd5b8151611d6581612d10565b600060ff821660ff8416808210156132ae576132ae612ff1565b90039392505050565b600060ff8216806132ca576132ca612ff1565b7fffffffffffffffffffffffffffffffffffffffffffffffffffffffffffffffff0192915050565b600082613301576133016130ce565b500690565b600060ff821660ff84168060ff0382111561332357613323612ff1565b019392505050565b600060ff83168061333e5761333e6130ce565b8060ff84160491505092915050565b7f4e487b7100000000000000000000000000000000000000000000000000000000600052603260045260246000fdfea26469706673582212206e871f173f457e8b7a69a95d895f606f22e554862c5fec4daa896aa9c367267f64736f6c634300080d0033",
  "devdoc": {
    "kind": "dev",
    "methods": {
      "getAmountIn(uint256,(uint256,uint256,uint256,uint256,uint32,uint32,uint32))": {
        "details": "given an output amount of an asset and pair reserves, returns a required input amount of the other asset Formula: return = reserveIn * ( (reserveOut / (reserveOut - amountOut)) ^ (tokenWeightOut / tokenWeightIn) - 1) * (10000/ (10000 - swapFee)",
        "params": {
          "amountOut": "target reserve amount  reserveIn    source reserve balance  reserveOut    target reserve balance  tokenWeightIn     source reserve weight, represented in ppm (2-98)  tokenWeightOut     target reserve weight, represented in ppm (2-98)  swapFee                  swap fee of the conversion"
        },
        "returns": {
          "amountIn": "amountIn"
        }
      },
      "getAmountOut(uint256,(uint256,uint256,uint256,uint256,uint32,uint32,uint32))": {
        "details": "given an input amount of an asset and pair reserves, returns the maximum output amount of the other asset, Formula: return = reserveOut * (1 - (reserveIn * 10000 / (reserveIn * 10000 + amountIn * (10000 - swapFee))) ^ (tokenWeightIn / tokenWeightOut))",
        "params": {
          "amountIn": "source reserve amount  reserveIn    source reserve balance  reserveOut    target reserve balance  tokenWeightIn     source reserve weight, represented in ppm (2-98)  tokenWeightOut     target reserve weight, represented in ppm (2-98)  swapFee                  swap fee of the conversion"
        },
        "returns": {
          "amountOut": "amountOut"
        }
      }
    },
    "version": 1
  },
  "userdoc": {
    "kind": "user",
    "methods": {},
    "version": 1
  },
  "storageLayout": {
    "storage": [
      {
        "astId": 28748,
        "contract": "contracts/WeightedFormulaV2.sol:WeightedFormulaV2",
        "label": "maxExpArray",
        "offset": 0,
        "slot": "0",
        "type": "t_array(t_uint256)128_storage"
      }
    ],
    "types": {
      "t_array(t_uint256)128_storage": {
        "base": "t_uint256",
        "encoding": "inplace",
        "label": "uint256[128]",
        "numberOfBytes": "4096"
      },
      "t_uint256": {
        "encoding": "inplace",
        "label": "uint256",
        "numberOfBytes": "32"
      }
    }
  }
}