{
  "address": "0xA51c1fc2f0D1a1b8494Ed1FE312d7C3a78Ed91C0",
  "abi": [
    {
      "inputs": [
        {
          "internalType": "address",
          "name": "_factory",
          "type": "address"
        },
        {
          "internalType": "address",
          "name": "_WETH",
          "type": "address"
        }
      ],
      "stateMutability": "nonpayable",
      "type": "constructor"
    },
    {
      "anonymous": false,
      "inputs": [
        {
          "indexed": false,
          "internalType": "address",
          "name": "pair",
          "type": "address"
        },
        {
          "indexed": false,
          "internalType": "uint256",
          "name": "amountOut",
          "type": "uint256"
        },
        {
          "indexed": false,
          "internalType": "address",
          "name": "output",
          "type": "address"
        }
      ],
      "name": "Exchange",
      "type": "event"
    },
    {
      "inputs": [],
      "name": "WETH",
      "outputs": [
        {
          "internalType": "address",
          "name": "",
          "type": "address"
        }
      ],
      "stateMutability": "view",
      "type": "function"
    },
    {
      "inputs": [],
      "name": "factory",
      "outputs": [
        {
          "internalType": "address",
          "name": "",
          "type": "address"
        }
      ],
      "stateMutability": "view",
      "type": "function"
    },
    {
      "inputs": [],
      "name": "formula",
      "outputs": [
        {
          "internalType": "address",
          "name": "",
          "type": "address"
        }
      ],
      "stateMutability": "view",
      "type": "function"
    },
    {
      "inputs": [
        {
          "internalType": "address[]",
          "name": "pools",
          "type": "address[]"
        },
        {
          "internalType": "address[]",
          "name": "tokens",
          "type": "address[]"
        },
        {
          "internalType": "uint256",
          "name": "amountOut",
          "type": "uint256"
        },
        {
          "internalType": "address",
          "name": "to",
          "type": "address"
        },
        {
          "internalType": "uint256",
          "name": "deadline",
          "type": "uint256"
        }
      ],
      "name": "onSwapETHForExactTokens",
      "outputs": [
        {
          "internalType": "uint256[]",
          "name": "amounts",
          "type": "uint256[]"
        }
      ],
      "stateMutability": "payable",
      "type": "function"
    },
    {
      "inputs": [
        {
          "internalType": "address[]",
          "name": "pools",
          "type": "address[]"
        },
        {
          "internalType": "address[]",
          "name": "tokens",
          "type": "address[]"
        },
        {
          "internalType": "uint256",
          "name": "amountOutMin",
          "type": "uint256"
        },
        {
          "internalType": "address",
          "name": "to",
          "type": "address"
        },
        {
          "internalType": "uint256",
          "name": "deadline",
          "type": "uint256"
        }
      ],
      "name": "onSwapExactETHForTokens",
      "outputs": [
        {
          "internalType": "uint256",
          "name": "amountLast",
          "type": "uint256"
        }
      ],
      "stateMutability": "payable",
      "type": "function"
    },
    {
      "inputs": [
        {
          "internalType": "address[]",
          "name": "pools",
          "type": "address[]"
        },
        {
          "internalType": "address[]",
          "name": "tokens",
          "type": "address[]"
        },
        {
          "internalType": "uint256",
          "name": "amountIn",
          "type": "uint256"
        },
        {
          "internalType": "uint256",
          "name": "amountOutMin",
          "type": "uint256"
        },
        {
          "internalType": "address",
          "name": "to",
          "type": "address"
        },
        {
          "internalType": "uint256",
          "name": "deadline",
          "type": "uint256"
        }
      ],
      "name": "onSwapExactTokensForETH",
      "outputs": [
        {
          "internalType": "uint256",
          "name": "amountLast",
          "type": "uint256"
        }
      ],
      "stateMutability": "nonpayable",
      "type": "function"
    },
    {
      "inputs": [
        {
          "internalType": "address[]",
          "name": "pools",
          "type": "address[]"
        },
        {
          "internalType": "address[]",
          "name": "tokens",
          "type": "address[]"
        },
        {
          "internalType": "uint256",
          "name": "amountIn",
          "type": "uint256"
        },
        {
          "internalType": "uint256",
          "name": "amountOutMin",
          "type": "uint256"
        },
        {
          "internalType": "address",
          "name": "to",
          "type": "address"
        },
        {
          "internalType": "uint256",
          "name": "deadline",
          "type": "uint256"
        }
      ],
      "name": "onSwapExactTokensForTokens",
      "outputs": [
        {
          "internalType": "uint256",
          "name": "amountLast",
          "type": "uint256"
        }
      ],
      "stateMutability": "nonpayable",
      "type": "function"
    },
    {
      "inputs": [
        {
          "internalType": "address[]",
          "name": "pools",
          "type": "address[]"
        },
        {
          "internalType": "address[]",
          "name": "tokens",
          "type": "address[]"
        },
        {
          "internalType": "uint256",
          "name": "amountOut",
          "type": "uint256"
        },
        {
          "internalType": "uint256",
          "name": "amountInMax",
          "type": "uint256"
        },
        {
          "internalType": "address",
          "name": "to",
          "type": "address"
        },
        {
          "internalType": "uint256",
          "name": "deadline",
          "type": "uint256"
        }
      ],
      "name": "onSwapTokensForExactETH",
      "outputs": [
        {
          "internalType": "uint256[]",
          "name": "amounts",
          "type": "uint256[]"
        }
      ],
      "stateMutability": "nonpayable",
      "type": "function"
    },
    {
      "inputs": [
        {
          "internalType": "address[]",
          "name": "pools",
          "type": "address[]"
        },
        {
          "internalType": "address[]",
          "name": "tokens",
          "type": "address[]"
        },
        {
          "internalType": "uint256",
          "name": "amountOut",
          "type": "uint256"
        },
        {
          "internalType": "uint256",
          "name": "amountInMax",
          "type": "uint256"
        },
        {
          "internalType": "address",
          "name": "to",
          "type": "address"
        },
        {
          "internalType": "uint256",
          "name": "deadline",
          "type": "uint256"
        }
      ],
      "name": "onSwapTokensForExactTokens",
      "outputs": [
        {
          "internalType": "uint256[]",
          "name": "amounts",
          "type": "uint256[]"
        }
      ],
      "stateMutability": "nonpayable",
      "type": "function"
    },
    {
      "stateMutability": "payable",
      "type": "receive"
    }
  ],
  "transactionHash": "0x58e6e8d0bb5114f62ae7c68b9d1d0c018ba4e2fc7529f7021133298c0ca2b957",
  "args": [
    "0x610178dA211FEF7D417bC0e6FeD39F05609AD788",
    "0xDc64a140Aa3E981100a9becA4E685f962f0cF6C9"
  ],
  "solcInputHash": "f2b4bccf3d51fc9a7843da55e39c44de",
  "bytecode": "0x60e06040523480156200001157600080fd5b5060405162002576380380620025768339810160408190526200003491620000db565b6001600160a01b038216608081905260408051634b75f54f60e01b81529051634b75f54f916004808201926020929091908290030181865afa1580156200007f573d6000803e3d6000fd5b505050506040513d601f19601f82011682018060405250810190620000a5919062000113565b6001600160a01b0390811660a0521660c0525062000138565b80516001600160a01b0381168114620000d657600080fd5b919050565b60008060408385031215620000ef57600080fd5b620000fa83620000be565b91506200010a60208401620000be565b90509250929050565b6000602082840312156200012657600080fd5b6200013182620000be565b9392505050565b60805160a05160c0516123f3620001836000396000818160b7015281816101e00152818161193e01528181611a060152611da6015260006101470152600061023401526123f36000f3fe60806040526004361061009a5760003560e01c8063abbfddc511610069578063b4e819fd1161004e578063b4e819fd14610202578063c45a015514610222578063f35aaf631461025657600080fd5b8063abbfddc5146101ae578063ad5c4648146101ce57600080fd5b806308c820da146100eb5780630d1424a3146101145780634b75f54f1461013557806351bf18301461018e57600080fd5b366100e6573373ffffffffffffffffffffffffffffffffffffffff7f000000000000000000000000000000000000000000000000000000000000000016146100e4576100e4611fac565b005b600080fd5b6100fe6100f93660046120f3565b610276565b60405161010b9190612179565b60405180910390f35b6101276101223660046120f3565b6107ac565b60405190815260200161010b565b34801561014157600080fd5b506101697f000000000000000000000000000000000000000000000000000000000000000081565b60405173ffffffffffffffffffffffffffffffffffffffff909116815260200161010b565b34801561019a57600080fd5b506100fe6101a93660046121bd565b610a28565b3480156101ba57600080fd5b506100fe6101c93660046121bd565b610f25565b3480156101da57600080fd5b506101697f000000000000000000000000000000000000000000000000000000000000000081565b34801561020e57600080fd5b5061012761021d3660046121bd565b6113f2565b34801561022e57600080fd5b506101697f000000000000000000000000000000000000000000000000000000000000000081565b34801561026257600080fd5b506101276102713660046121bd565b6116a2565b606081428110156102e8576040517f08c379a000000000000000000000000000000000000000000000000000000000815260206004820152600f60248201527f526f757465723a2045585049524544000000000000000000000000000000000060448201526064015b60405180910390fd5b855167ffffffffffffffff81111561030257610302611fdb565b60405190808252806020026020018201604052801561032b578160200160208202803683370190505b50915084828851815181106103425761034261224d565b60200260200101818152505060006001835161035e91906122ab565b90505b80156104d757876103736001836122ab565b815181106103835761038361224d565b602002602001015173ffffffffffffffffffffffffffffffffffffffff1663cc56fd43886001846103b491906122ab565b815181106103c4576103c461224d565b60200260200101518984815181106103de576103de61224d565b60200260200101518685815181106103f8576103f861224d565b60209081029190910101516040517fffffffff0000000000000000000000000000000000000000000000000000000060e086901b16815273ffffffffffffffffffffffffffffffffffffffff93841660048201529290911660248301526044820152606401602060405180830381865afa15801561047a573d6000803e3d6000fd5b505050506040513d601f19601f8201168201806040525081019061049e91906122c2565b836104aa6001846122ab565b815181106104ba576104ba61224d565b6020908102919091010152806104cf816122db565b915050610361565b5034826000815181106104ec576104ec61224d565b6020026020010151111561055c576040517f08c379a000000000000000000000000000000000000000000000000000000000815260206004820152600f60248201527f4558434553534956455f494e505554000000000000000000000000000000000060448201526064016102df565b61059a826000815181106105725761057261224d565b60200260200101518860008151811061058d5761058d61224d565b602002602001015161193c565b60005b8751811015610750576000600189516105b691906122ab565b82146105e557886105c8836001612310565b815181106105d8576105d861224d565b60200260200101516105e7565b855b90508882815181106105fb576105fb61224d565b602002602001015173ffffffffffffffffffffffffffffffffffffffff166332fd54938984815181106106305761063061224d565b60200260200101518a8560016106469190612310565b815181106106565761065661224d565b60200260200101518786815181106106705761067061224d565b6020026020010151888760016106869190612310565b815181106106965761069661224d565b60209081029190910101516040517fffffffff0000000000000000000000000000000000000000000000000000000060e087901b16815273ffffffffffffffffffffffffffffffffffffffff9485166004820152928416602484015260448301919091526064820152908416608482015260a401600060405180830381600087803b15801561072457600080fd5b505af1158015610738573d6000803e3d6000fd5b5050505050808061074890612328565b91505061059d565b50816000815181106107645761076461224d565b60200260200101513411156107a2576107a2338360008151811061078a5761078a61224d565b60200260200101513461079d91906122ab565b611a87565b5095945050505050565b60008142811015610819576040517f08c379a000000000000000000000000000000000000000000000000000000000815260206004820152600f60248201527f526f757465723a2045585049524544000000000000000000000000000000000060448201526064016102df565b349150610833348860008151811061058d5761058d61224d565b60005b87518110156109bd5760006001895161084f91906122ab565b821461087e5788610861836001612310565b815181106108715761087161224d565b6020026020010151610880565b855b90508882815181106108945761089461224d565b602002602001015173ffffffffffffffffffffffffffffffffffffffff16634ac00e038984815181106108c9576108c961224d565b60200260200101518a8560016108df9190612310565b815181106108ef576108ef61224d565b60209081029190910101516040517fffffffff0000000000000000000000000000000000000000000000000000000060e085901b16815273ffffffffffffffffffffffffffffffffffffffff928316600482015290821660248201526044810188905260006064820152908416608482015260a4016020604051808303816000875af1158015610983573d6000803e3d6000fd5b505050506040513d601f19601f820116820180604052508101906109a791906122c2565b93505080806109b590612328565b915050610836565b50818511156107a2576040517f08c379a000000000000000000000000000000000000000000000000000000000815260206004820152601360248201527f494e53554646494349454e545f4f55545055540000000000000000000000000060448201526064016102df565b60608142811015610a95576040517f08c379a000000000000000000000000000000000000000000000000000000000815260206004820152600f60248201527f526f757465723a2045585049524544000000000000000000000000000000000060448201526064016102df565b865167ffffffffffffffff811115610aaf57610aaf611fdb565b604051908082528060200260200182016040528015610ad8578160200160208202803683370190505b5091508582895181518110610aef57610aef61224d565b602002602001018181525050600060018351610b0b91906122ab565b90505b8015610c845788610b206001836122ab565b81518110610b3057610b3061224d565b602002602001015173ffffffffffffffffffffffffffffffffffffffff1663cc56fd4389600184610b6191906122ab565b81518110610b7157610b7161224d565b60200260200101518a8481518110610b8b57610b8b61224d565b6020026020010151868581518110610ba557610ba561224d565b60209081029190910101516040517fffffffff0000000000000000000000000000000000000000000000000000000060e086901b16815273ffffffffffffffffffffffffffffffffffffffff93841660048201529290911660248301526044820152606401602060405180830381865afa158015610c27573d6000803e3d6000fd5b505050506040513d601f19601f82011682018060405250810190610c4b91906122c2565b83610c576001846122ab565b81518110610c6757610c6761224d565b602090810291909101015280610c7c816122db565b915050610b0e565b508482600081518110610c9957610c9961224d565b60200260200101511115610d09576040517f08c379a000000000000000000000000000000000000000000000000000000000815260206004820152600f60248201527f4558434553534956455f494e505554000000000000000000000000000000000060448201526064016102df565b610d6387600081518110610d1f57610d1f61224d565b6020026020010151338a600081518110610d3b57610d3b61224d565b602002602001015185600081518110610d5657610d5661224d565b6020026020010151611b96565b60005b8851811015610f1957600060018a51610d7f91906122ab565b8214610dae5789610d91836001612310565b81518110610da157610da161224d565b6020026020010151610db0565b855b9050898281518110610dc457610dc461224d565b602002602001015173ffffffffffffffffffffffffffffffffffffffff166332fd54938a8481518110610df957610df961224d565b60200260200101518b856001610e0f9190612310565b81518110610e1f57610e1f61224d565b6020026020010151878681518110610e3957610e3961224d565b602002602001015188876001610e4f9190612310565b81518110610e5f57610e5f61224d565b60209081029190910101516040517fffffffff0000000000000000000000000000000000000000000000000000000060e087901b16815273ffffffffffffffffffffffffffffffffffffffff9485166004820152928416602484015260448301919091526064820152908416608482015260a401600060405180830381600087803b158015610eed57600080fd5b505af1158015610f01573d6000803e3d6000fd5b50505050508080610f1190612328565b915050610d66565b50509695505050505050565b60608142811015610f92576040517f08c379a000000000000000000000000000000000000000000000000000000000815260206004820152600f60248201527f526f757465723a2045585049524544000000000000000000000000000000000060448201526064016102df565b865167ffffffffffffffff811115610fac57610fac611fdb565b604051908082528060200260200182016040528015610fd5578160200160208202803683370190505b5091508582895181518110610fec57610fec61224d565b60200260200101818152505060006001835161100891906122ab565b90505b8015611181578861101d6001836122ab565b8151811061102d5761102d61224d565b602002602001015173ffffffffffffffffffffffffffffffffffffffff1663cc56fd438960018461105e91906122ab565b8151811061106e5761106e61224d565b60200260200101518a84815181106110885761108861224d565b60200260200101518685815181106110a2576110a261224d565b60209081029190910101516040517fffffffff0000000000000000000000000000000000000000000000000000000060e086901b16815273ffffffffffffffffffffffffffffffffffffffff93841660048201529290911660248301526044820152606401602060405180830381865afa158015611124573d6000803e3d6000fd5b505050506040513d601f19601f8201168201806040525081019061114891906122c2565b836111546001846122ab565b815181106111645761116461224d565b602090810291909101015280611179816122db565b91505061100b565b5084826000815181106111965761119661224d565b60200260200101511115611206576040517f08c379a000000000000000000000000000000000000000000000000000000000815260206004820152600f60248201527f4558434553534956455f494e505554000000000000000000000000000000000060448201526064016102df565b61121c87600081518110610d1f57610d1f61224d565b60005b88518110156113d257600060018a5161123891906122ab565b8214611267578961124a836001612310565b8151811061125a5761125a61224d565b6020026020010151611269565b305b905089828151811061127d5761127d61224d565b602002602001015173ffffffffffffffffffffffffffffffffffffffff166332fd54938a84815181106112b2576112b261224d565b60200260200101518b8560016112c89190612310565b815181106112d8576112d861224d565b60200260200101518786815181106112f2576112f261224d565b6020026020010151888760016113089190612310565b815181106113185761131861224d565b60209081029190910101516040517fffffffff0000000000000000000000000000000000000000000000000000000060e087901b16815273ffffffffffffffffffffffffffffffffffffffff9485166004820152928416602484015260448301919091526064820152908416608482015260a401600060405180830381600087803b1580156113a657600080fd5b505af11580156113ba573d6000803e3d6000fd5b505050505080806113ca90612328565b91505061121f565b50610f1973eeeeeeeeeeeeeeeeeeeeeeeeeeeeeeeeeeeeeeee8588611d34565b6000814281101561145f576040517f08c379a000000000000000000000000000000000000000000000000000000000815260206004820152600f60248201527f526f757465723a2045585049524544000000000000000000000000000000000060448201526064016102df565b8591506114a2876000815181106114785761147861224d565b6020026020010151338a6000815181106114945761149461224d565b602002602001015189611b96565b60005b885181101561162c57600060018a516114be91906122ab565b82146114ed57896114d0836001612310565b815181106114e0576114e061224d565b60200260200101516114ef565b855b90508982815181106115035761150361224d565b602002602001015173ffffffffffffffffffffffffffffffffffffffff16634ac00e038a84815181106115385761153861224d565b60200260200101518b85600161154e9190612310565b8151811061155e5761155e61224d565b60209081029190910101516040517fffffffff0000000000000000000000000000000000000000000000000000000060e085901b16815273ffffffffffffffffffffffffffffffffffffffff928316600482015290821660248201526044810188905260006064820152908416608482015260a4016020604051808303816000875af11580156115f2573d6000803e3d6000fd5b505050506040513d601f19601f8201168201806040525081019061161691906122c2565b935050808061162490612328565b9150506114a5565b5081851115611697576040517f08c379a000000000000000000000000000000000000000000000000000000000815260206004820152601360248201527f494e53554646494349454e545f4f55545055540000000000000000000000000060448201526064016102df565b509695505050505050565b6000814281101561170f576040517f08c379a000000000000000000000000000000000000000000000000000000000815260206004820152600f60248201527f526f757465723a2045585049524544000000000000000000000000000000000060448201526064016102df565b859150611728876000815181106114785761147861224d565b60005b88518110156118b257600060018a5161174491906122ab565b82146117735789611756836001612310565b815181106117665761176661224d565b6020026020010151611775565b305b90508982815181106117895761178961224d565b602002602001015173ffffffffffffffffffffffffffffffffffffffff16634ac00e038a84815181106117be576117be61224d565b60200260200101518b8560016117d49190612310565b815181106117e4576117e461224d565b60209081029190910101516040517fffffffff0000000000000000000000000000000000000000000000000000000060e085901b16815273ffffffffffffffffffffffffffffffffffffffff928316600482015290821660248201526044810188905260006064820152908416608482015260a4016020604051808303816000875af1158015611878573d6000803e3d6000fd5b505050506040513d601f19601f8201168201806040525081019061189c91906122c2565b93505080806118aa90612328565b91505061172b565b508185111561191d576040517f08c379a000000000000000000000000000000000000000000000000000000000815260206004820152601360248201527f494e53554646494349454e545f4f55545055540000000000000000000000000060448201526064016102df565b610f1973eeeeeeeeeeeeeeeeeeeeeeeeeeeeeeeeeeeeeeee8584611d34565b7f000000000000000000000000000000000000000000000000000000000000000073ffffffffffffffffffffffffffffffffffffffff1663d0e30db0836040518263ffffffff1660e01b81526004016000604051808303818588803b1580156119a457600080fd5b505af11580156119b8573d6000803e3d6000fd5b50506040517fa9059cbb00000000000000000000000000000000000000000000000000000000815273ffffffffffffffffffffffffffffffffffffffff8581166004830152602482018790527f000000000000000000000000000000000000000000000000000000000000000016935063a9059cbb925060440190506020604051808303816000875af1158015611a53573d6000803e3d6000fd5b505050506040513d601f19601f82011682018060405250810190611a779190612360565b611a8357611a83611fac565b5050565b6040805160008082526020820190925273ffffffffffffffffffffffffffffffffffffffff8416908390604051611abe9190612382565b60006040518083038185875af1925050503d8060008114611afb576040519150601f19603f3d011682016040523d82523d6000602084013e611b00565b606091505b5050905080611b91576040517f08c379a000000000000000000000000000000000000000000000000000000000815260206004820152602360248201527f5472616e7366657248656c7065723a204554485f5452414e534645525f46414960448201527f4c4544000000000000000000000000000000000000000000000000000000000060648201526084016102df565b505050565b6040805173ffffffffffffffffffffffffffffffffffffffff85811660248301528481166044830152606480830185905283518084039091018152608490920183526020820180517bffffffffffffffffffffffffffffffffffffffffffffffffffffffff167f23b872dd000000000000000000000000000000000000000000000000000000001790529151600092839290881691611c359190612382565b6000604051808303816000865af19150503d8060008114611c72576040519150601f19603f3d011682016040523d82523d6000602084013e611c77565b606091505b5091509150818015611ca1575080511580611ca1575080806020019051810190611ca19190612360565b611d2c576040517f08c379a0000000000000000000000000000000000000000000000000000000008152602060048201526024808201527f5472616e7366657248656c7065723a205452414e534645525f46524f4d5f464160448201527f494c45440000000000000000000000000000000000000000000000000000000060648201526084016102df565b505050505050565b600081600003611d4657506001611e35565b73eeeeeeeeeeeeeeeeeeeeeeeeeeeeeeeeeeeeeeee73ffffffffffffffffffffffffffffffffffffffff851603611e26576040517f2e1a7d4d000000000000000000000000000000000000000000000000000000008152600481018390527f000000000000000000000000000000000000000000000000000000000000000073ffffffffffffffffffffffffffffffffffffffff1690632e1a7d4d90602401600060405180830381600087803b158015611dff57600080fd5b505af1158015611e13573d6000803e3d6000fd5b50505050611e218383611a87565b611e31565b611e31848484611e3c565b5060015b9392505050565b6040805173ffffffffffffffffffffffffffffffffffffffff8481166024830152604480830185905283518084039091018152606490920183526020820180517bffffffffffffffffffffffffffffffffffffffffffffffffffffffff167fa9059cbb000000000000000000000000000000000000000000000000000000001790529151600092839290871691611ed39190612382565b6000604051808303816000865af19150503d8060008114611f10576040519150601f19603f3d011682016040523d82523d6000602084013e611f15565b606091505b5091509150818015611f3f575080511580611f3f575080806020019051810190611f3f9190612360565b611fa5576040517f08c379a000000000000000000000000000000000000000000000000000000000815260206004820152601f60248201527f5472616e7366657248656c7065723a205452414e534645525f4641494c45440060448201526064016102df565b5050505050565b7f4e487b7100000000000000000000000000000000000000000000000000000000600052600160045260246000fd5b7f4e487b7100000000000000000000000000000000000000000000000000000000600052604160045260246000fd5b803573ffffffffffffffffffffffffffffffffffffffff8116811461202e57600080fd5b919050565b600082601f83011261204457600080fd5b8135602067ffffffffffffffff8083111561206157612061611fdb565b8260051b6040517fffffffffffffffffffffffffffffffffffffffffffffffffffffffffffffffe0603f830116810181811084821117156120a4576120a4611fdb565b6040529384528581018301938381019250878511156120c257600080fd5b83870191505b848210156120e8576120d98261200a565b835291830191908301906120c8565b979650505050505050565b600080600080600060a0868803121561210b57600080fd5b853567ffffffffffffffff8082111561212357600080fd5b61212f89838a01612033565b9650602088013591508082111561214557600080fd5b5061215288828901612033565b945050604086013592506121686060870161200a565b949793965091946080013592915050565b6020808252825182820181905260009190848201906040850190845b818110156121b157835183529284019291840191600101612195565b50909695505050505050565b60008060008060008060c087890312156121d657600080fd5b863567ffffffffffffffff808211156121ee57600080fd5b6121fa8a838b01612033565b9750602089013591508082111561221057600080fd5b5061221d89828a01612033565b955050604087013593506060870135925061223a6080880161200a565b915060a087013590509295509295509295565b7f4e487b7100000000000000000000000000000000000000000000000000000000600052603260045260246000fd5b7f4e487b7100000000000000000000000000000000000000000000000000000000600052601160045260246000fd5b6000828210156122bd576122bd61227c565b500390565b6000602082840312156122d457600080fd5b5051919050565b6000816122ea576122ea61227c565b507fffffffffffffffffffffffffffffffffffffffffffffffffffffffffffffffff0190565b600082198211156123235761232361227c565b500190565b60007fffffffffffffffffffffffffffffffffffffffffffffffffffffffffffffffff82036123595761235961227c565b5060010190565b60006020828403121561237257600080fd5b81518015158114611e3557600080fd5b6000825160005b818110156123a35760208186018101518583015201612389565b818111156123b2576000828501525b50919091019291505056fea264697066735822122094b6bca6975155f316346d81cea6a7629da42990ff685ab1d2cf63001f8fe87e64736f6c634300080d0033",
  "devdoc": {
    "kind": "dev",
    "methods": {},
    "version": 1
  },
  "userdoc": {
    "kind": "user",
    "methods": {},
    "version": 1
  },
  "storageLayout": {
    "storage": [],
    "types": null
  }
}