{
  "address": "0x8A791620dd6260079BF849Dc5567aDC3F2FdC318",
  "abi": [
    {
      "inputs": [],
      "stateMutability": "nonpayable",
      "type": "constructor"
    },
    {
      "inputs": [
        {
          "internalType": "uint256",
          "name": "reserve0",
          "type": "uint256"
        },
        {
          "internalType": "uint256",
          "name": "reserve1",
          "type": "uint256"
        },
        {
          "internalType": "uint256",
          "name": "balance0Adjusted",
          "type": "uint256"
        },
        {
          "internalType": "uint256",
          "name": "balance1Adjusted",
          "type": "uint256"
        },
        {
          "internalType": "uint32",
          "name": "tokenWeight0",
          "type": "uint32"
        }
      ],
      "name": "ensureConstantValue",
      "outputs": [
        {
          "internalType": "bool",
          "name": "",
          "type": "bool"
        }
      ],
      "stateMutability": "view",
      "type": "function"
    },
    {
      "inputs": [
        {
          "internalType": "uint256",
          "name": "amountOut",
          "type": "uint256"
        },
        {
          "components": [
            {
              "internalType": "uint256",
              "name": "reserveIn",
              "type": "uint256"
            },
            {
              "internalType": "uint256",
              "name": "reserveOut",
              "type": "uint256"
            },
            {
              "internalType": "uint256",
              "name": "vReserveIn",
              "type": "uint256"
            },
            {
              "internalType": "uint256",
              "name": "vReserveOut",
              "type": "uint256"
            },
            {
              "internalType": "uint32",
              "name": "tokenWeightIn",
              "type": "uint32"
            },
            {
              "internalType": "uint32",
              "name": "tokenWeightOut",
              "type": "uint32"
            },
            {
              "internalType": "uint32",
              "name": "swapFee",
              "type": "uint32"
            }
          ],
          "internalType": "struct IWeightedFormulaV2.PricingData",
          "name": "pricingData",
          "type": "tuple"
        }
      ],
      "name": "getAmountIn",
      "outputs": [
        {
          "internalType": "uint256",
          "name": "amountIn",
          "type": "uint256"
        }
      ],
      "stateMutability": "view",
      "type": "function"
    },
    {
      "inputs": [
        {
          "internalType": "uint256",
          "name": "amountIn",
          "type": "uint256"
        },
        {
          "components": [
            {
              "internalType": "uint256",
              "name": "reserveIn",
              "type": "uint256"
            },
            {
              "internalType": "uint256",
              "name": "reserveOut",
              "type": "uint256"
            },
            {
              "internalType": "uint256",
              "name": "vReserveIn",
              "type": "uint256"
            },
            {
              "internalType": "uint256",
              "name": "vReserveOut",
              "type": "uint256"
            },
            {
              "internalType": "uint32",
              "name": "tokenWeightIn",
              "type": "uint32"
            },
            {
              "internalType": "uint32",
              "name": "tokenWeightOut",
              "type": "uint32"
            },
            {
              "internalType": "uint32",
              "name": "swapFee",
              "type": "uint32"
            }
          ],
          "internalType": "struct IWeightedFormulaV2.PricingData",
          "name": "pricingData",
          "type": "tuple"
        }
      ],
      "name": "getAmountOut",
      "outputs": [
        {
          "internalType": "uint256",
          "name": "amountOut",
          "type": "uint256"
        }
      ],
      "stateMutability": "view",
      "type": "function"
    },
    {
      "inputs": [
        {
          "internalType": "address",
          "name": "factory",
          "type": "address"
        },
        {
          "internalType": "address",
          "name": "pair",
          "type": "address"
        }
      ],
      "name": "getFactoryParameters",
      "outputs": [
        {
          "internalType": "uint32",
          "name": "tokenWeight0",
          "type": "uint32"
        },
        {
          "internalType": "uint32",
          "name": "tokenWeight1",
          "type": "uint32"
        },
        {
          "internalType": "uint32",
          "name": "swapFee",
          "type": "uint32"
        },
        {
          "internalType": "uint32",
          "name": "amp",
          "type": "uint32"
        }
      ],
      "stateMutability": "view",
      "type": "function"
    },
    {
      "inputs": [
        {
          "internalType": "address",
          "name": "pair",
          "type": "address"
        },
        {
          "internalType": "address",
          "name": "tokenA",
          "type": "address"
        }
      ],
      "name": "getOtherToken",
      "outputs": [
        {
          "internalType": "address",
          "name": "tokenB",
          "type": "address"
        }
      ],
      "stateMutability": "view",
      "type": "function"
    },
    {
      "inputs": [
        {
          "internalType": "address",
          "name": "pair",
          "type": "address"
        }
      ],
      "name": "getParameters",
      "outputs": [
        {
          "internalType": "uint32",
          "name": "tokenWeight0",
          "type": "uint32"
        },
        {
          "internalType": "uint32",
          "name": "tokenWeight1",
          "type": "uint32"
        },
        {
          "internalType": "uint32",
          "name": "swapFee",
          "type": "uint32"
        },
        {
          "internalType": "uint32",
          "name": "amp",
          "type": "uint32"
        }
      ],
      "stateMutability": "view",
      "type": "function"
    },
    {
      "inputs": [
        {
          "internalType": "address",
          "name": "pair",
          "type": "address"
        },
        {
          "internalType": "address",
          "name": "tokenA",
          "type": "address"
        },
        {
          "internalType": "address",
          "name": "tokenB",
          "type": "address"
        }
      ],
      "name": "getReserves",
      "outputs": [
        {
          "internalType": "uint256",
          "name": "reserveA",
          "type": "uint256"
        },
        {
          "internalType": "uint256",
          "name": "reserveB",
          "type": "uint256"
        },
        {
          "internalType": "uint256",
          "name": "vReserveA",
          "type": "uint256"
        },
        {
          "internalType": "uint256",
          "name": "vReserveB",
          "type": "uint256"
        }
      ],
      "stateMutability": "view",
      "type": "function"
    },
    {
      "inputs": [
        {
          "internalType": "uint256",
          "name": "totalLiquidity",
          "type": "uint256"
        },
        {
          "internalType": "uint256",
          "name": "reserve0",
          "type": "uint256"
        },
        {
          "internalType": "uint256",
          "name": "reserve1",
          "type": "uint256"
        },
        {
          "internalType": "uint32",
          "name": "tokenWeight0",
          "type": "uint32"
        },
        {
          "internalType": "uint112",
          "name": "collectedFee0",
          "type": "uint112"
        },
        {
          "internalType": "uint112",
          "name": "collectedFee1",
          "type": "uint112"
        }
      ],
      "name": "mintLiquidityFee",
      "outputs": [
        {
          "internalType": "uint256",
          "name": "amount",
          "type": "uint256"
        }
      ],
      "stateMutability": "view",
      "type": "function"
    },
    {
      "inputs": [
        {
          "internalType": "uint256",
          "name": "amountA",
          "type": "uint256"
        },
        {
          "internalType": "uint256",
          "name": "reserveA",
          "type": "uint256"
        },
        {
          "internalType": "uint256",
          "name": "reserveB",
          "type": "uint256"
        }
      ],
      "name": "quote",
      "outputs": [
        {
          "internalType": "uint256",
          "name": "amountB",
          "type": "uint256"
        }
      ],
      "stateMutability": "pure",
      "type": "function"
    },
    {
      "inputs": [
        {
          "internalType": "address",
          "name": "tokenA",
          "type": "address"
        },
        {
          "internalType": "address",
          "name": "tokenB",
          "type": "address"
        }
      ],
      "name": "sortTokens",
      "outputs": [
        {
          "internalType": "address",
          "name": "token0",
          "type": "address"
        },
        {
          "internalType": "address",
          "name": "token1",
          "type": "address"
        }
      ],
      "stateMutability": "pure",
      "type": "function"
    }
  ],
  "transactionHash": "0x8e8c05b2e4420f60f52080b5731bfb1f7f20778db39099438c0fd4227e9247d6",
  "args": [],
  "solcInputHash": "5031e823c3b06b8f6a49ce2da9a3ae24",
  "bytecode": "0x608060405234801561001057600080fd5b5061073f6001641c35fedd1560601b036020556001646c3390ecc9605e1b036021556001640cf801476160611b0360225560016431bdb23e1d605f1b0360235560016502fb1d8fe083605b1b0360245560016505b771955b37605a1b036025556001650af67a93bb5160591b0360265560016515060c256cb360581b036027556001651428a2f98d7360581b036028556001654d515663970960561b03602955600165944620b0e70f60551b03602a55600166011c592761c66760541b03602b5560016602214d10d014eb60531b03602c55600166020ade36b7dbef60531b03602d5560016603eab73b3bbfe360521b03602e556001660782ee3593f6d760511b03602f556001661ccf4b44bb4821604f1b0360305560016606e7f88ad8a77760511b0360315560016669f3d1c921891d604d1b03603255600166cb2ff529eb71e5604c1b03603355600166c2d415c3db974b604c1b0360345560016702eb40f9f620fda7604a1b0360355560016705990681d961a1eb60491b03603655600167055e12902701414760491b0360375560016714962dee9dc9764160471b0360385560016704ef57b9b560fab560491b0360395560016712ed7b32a58f552b60471b03603a556001679131271922eaa60760441b03603b556001678b380f3558668c4760441b03603c556001680215f77c045fbe885760421b03603d556001600160831b03603e556001670f577eded5773a1160471b03603f556001680eb5ec597592befbf5603f1b036040556001681c35fedd14b861eb05603e1b036041556001683619c87664579bc94b603d1b0360425560016867c00a3b07ffc01fd7603c1b03604355600168c6f6c8f8739773a7a5603b1b03604455600168bec763f8209b7a72b1603b1b0360455560016902dbb8caad9b7097b91b60391b03604655600169057b3d49dda84556d6f760381b03604755600169054183095b2c8ececf3160381b036048556001690a14517cc6b9457111ef60371b0360495560016913545598e5c23276ccf160361b03604a556001692511882c39c3adea96ff60351b03604b55600169471649d87199aa99075760341b03604c557004429a21a029d4c1457cfbffffffffffff604d55700415bc6d6fb7dd71af2cb3ffffffffffff604e557003eab73b3bbfe282243ce1ffffffffffff604f557003c1771ac9fb6b4c18e229ffffffffffff605055700399e96897690418f785257fffffffffff605155700373fc456c53bb779bf0ea9fffffffffff60525570034f9e8e490c48e67e6ab8bfffffffffff60535570032cbfd4a7adc790560b3337ffffffffff60545570030b50570f6e5d2acca94613ffffffffff6055557002eb40f9f620fda6b56c2861ffffffffff6056557002cc8340ecb0d0f520a6af58ffffffffff6057557002af09481380a0a35cf1ba02ffffffffff605855700292c5bdd3b92ec810287b1b3fffffffff605955700277abdcdab07d5a77ac6d6b9fffffffff605a5570025daf6654b1eaa55fd64df5efffffffff605b55700244c49c648baa98192dce88b7ffffffff605c5570022ce03cd5619a311b2471268bffffffff605d55700215f77c045fbe885654a44a0fffffffff605e556001600160811b03605f557001eaefdbdaaee7421fc4d3ede5ffffffff6060557001d6bd8b2eb257df7e8ca57b09bfffffff6061557001c35fedd14b861eb0443f7f133fffffff6062557001b0ce43b322bcde4a56e8ada5afffffff60635570019f0028ec1fff007f5a195a39dfffffff60645570018ded91f0e72ee74f49b15ba527ffffff60655570017d8ec7f04136f4e5615fd41a63ffffff60665570016ddc6556cdb84bdc8d12d22e6fffffff60675570015ecf52776a1155b5bd8395814f7fffff60685570015060c256cb23b3b3cc3754cf40ffffff6069557001428a2f98d728ae223ddab715be3fffff606a5570013545598e5c23276ccf0ede68034fffff606b557001288c4161ce1d6f54b7f61081194fffff606c5570011c592761c666aa641d5a01a40f17ffff606d55700110a688680a7530515f3e6e6cfdcdffff606e557001056f1b5bedf75c6bcb2ce8aed428ffff606f556ffaadceceeff8a0890f3875f008277fff6070556ff05dc6b27edad306388a600f6ba0bfff6071556fe67a5a25da41063de1495d5b18cdbfff6072556fdcff115b14eedde6fc3aa5353f2e4fff6073556fd3e7a3924312399f9aae2e0f868f8fff6074556fcb2ff529eb71e41582cccd5a1ee26fff6075556fc2d415c3db974ab32a51840c0b67edff6076556fbad03e7d883f69ad5b0a186184e06bff6077556fb320d03b2c343d4829abd6075f0cc5ff6078556fabc25204e02828d73c6e80bcdb1a95bf6079556fa4b16f74ee4bb2040a1ec6c15fbbf2df607a556f9deaf736ac1f569deb1b5ae3f36c130f607b556f976bd9952c7aa957f5937d790ef65037607c556f9131271922eaa6064b73a22d0bd4f2bf607d556f8b380f3558668c46c91c49a2f8e967b9607e556f857ddf0117efa215952912839f6473e6607f55565b6133288061074e6000396000f3fe608060405234801561001057600080fd5b50600436106100be5760003560e01c80637ecece0311610076578063a56baa911161005b578063a56baa91146101e8578063ad615dec146101fb578063d69109371461020e57600080fd5b80637ecece03146101b45780638a91e6dc146101d557600080fd5b8063544caa56116100a7578063544caa561461013e57806359c96c111461017e57806379c91b371461019157600080fd5b806332749461146100c3578063384ab5ef146100fb575b600080fd5b6100d66100d1366004612c31565b610246565b6040805194855260208501939093529183015260608201526080015b60405180910390f35b61010e610109366004612c7c565b6104ec565b6040805163ffffffff958616815293851660208501529184169183019190915290911660608201526080016100f2565b61015161014c366004612c7c565b610595565b6040805173ffffffffffffffffffffffffffffffffffffffff9384168152929091166020830152016100f2565b61010e61018c366004612cb5565b610719565b6101a461019f366004612ce4565b61085d565b60405190151581526020016100f2565b6101c76101c2366004612d54565b610a35565b6040519081526020016100f2565b6101c76101e3366004612db5565b610b25565b6101c76101f6366004612db5565b610d91565b6101c7610209366004612e0c565b61101e565b61022161021c366004612c7c565b611168565b60405173ffffffffffffffffffffffffffffffffffffffff90911681526020016100f2565b6000806000806000806102598888610595565b9150915060008973ffffffffffffffffffffffffffffffffffffffff16630902f1ac6040518163ffffffff1660e01b8152600401608060405180830381865afa1580156102aa573d6000803e3d6000fd5b505050506040513d601f19601f820116820180604052508101906102ce9190612eaa565b90508973ffffffffffffffffffffffffffffffffffffffff16630dfe16816040518163ffffffff1660e01b8152600401602060405180830381865afa15801561031b573d6000803e3d6000fd5b505050506040513d601f19601f8201168201806040525081019061033f9190612f37565b73ffffffffffffffffffffffffffffffffffffffff168373ffffffffffffffffffffffffffffffffffffffff1614801561041257508973ffffffffffffffffffffffffffffffffffffffff1663d21220a76040518163ffffffff1660e01b8152600401602060405180830381865afa1580156103bf573d6000803e3d6000fd5b505050506040513d601f19601f820116820180604052508101906103e39190612f37565b73ffffffffffffffffffffffffffffffffffffffff168273ffffffffffffffffffffffffffffffffffffffff16145b61047d576040517f08c379a000000000000000000000000000000000000000000000000000000000815260206004820152601d60248201527f5265717569656d466f726d756c613a20496e76616c696420746f6b656e00000060448201526064015b60405180910390fd5b8273ffffffffffffffffffffffffffffffffffffffff168973ffffffffffffffffffffffffffffffffffffffff16146104c65760208101518151606083015160408401516104d8565b80516020820151604083015160608401515b929d919c509a509098509650505050505050565b6040517f59c96c1100000000000000000000000000000000000000000000000000000000815273ffffffffffffffffffffffffffffffffffffffff82811660048301526000918291829182918716906359c96c1190602401608060405180830381865afa158015610561573d6000803e3d6000fd5b505050506040513d601f19601f820116820180604052508101906105859190612f54565b9299919850965090945092505050565b6000808273ffffffffffffffffffffffffffffffffffffffff168473ffffffffffffffffffffffffffffffffffffffff1603610653576040517f08c379a000000000000000000000000000000000000000000000000000000000815260206004820152602360248201527f5265717569656d466f726d756c613a204944454e544943414c5f41444452455360448201527f53455300000000000000000000000000000000000000000000000000000000006064820152608401610474565b8273ffffffffffffffffffffffffffffffffffffffff168473ffffffffffffffffffffffffffffffffffffffff161061068d578284610690565b83835b909250905073ffffffffffffffffffffffffffffffffffffffff8216610712576040517f08c379a000000000000000000000000000000000000000000000000000000000815260206004820152601c60248201527f5265717569656d466f726d756c613a205a45524f5f41444452455353000000006044820152606401610474565b9250929050565b6000806000808473ffffffffffffffffffffffffffffffffffffffff1663a5ea11da6040518163ffffffff1660e01b8152600401608060405180830381865afa9250505080156107a4575060408051601f3d9081017fffffffffffffffffffffffffffffffffffffffffffffffffffffffffffffffe01682019092526107a191810190612f54565b60015b61084b576107b0612fb3565b806308c379a00361080357506107c4612fcf565b806107cf5750610805565b806040517f08c379a00000000000000000000000000000000000000000000000000000000081526004016104749190613077565b505b3d80801561082f576040519150601f19603f3d011682016040523d82523d6000602084013e610834565b606091505b50603280601e612710945094509450945050610856565b929650909450925090505b9193509193565b60008163ffffffff1660320361088a576108778587613119565b6108818486613119565b10159050610a2c565b85841015801561089a5750848310155b15610901576040517f08c379a000000000000000000000000000000000000000000000000000000000815260206004820152600360248201527f48493100000000000000000000000000000000000000000000000000000000006044820152606401610474565b8584111580156109115750848311155b15610978576040517f08c379a000000000000000000000000000000000000000000000000000000000815260206004820152600360248201527f48493200000000000000000000000000000000000000000000000000000000006044820152606401610474565b816000610986826064613156565b90506000806000808b8a106109c4576109a28b8a876032611353565b90945060ff1692506109b78a8d886032611353565b90925060ff1690506109ef565b6109d18c8b886032611353565b90945060ff1692506109e6898c876032611353565b90925060ff1690505b60008184106109fe5781610a00565b835b9050610a0c818561317b565b9350610a18818361317b565b9290921c9390921c92909211159450505050505b95945050505050565b60006dffffffffffffffffffffffffffff831615610aa457600080610a76610a6d896dffffffffffffffffffffffffffff8816613192565b89886064611353565b90925060ff1690508881610a8a8483613119565b610a95911c85613192565b610a9f919061317b565b925050505b6dffffffffffffffffffffffffffff821615610b1b57600080610aed610ada886dffffffffffffffffffffffffffff8716613192565b88610ae6896064613156565b6064611353565b90925060ff1690508881610b018483613119565b610b0c911c85613192565b610b16919061317b565b925050505b9695505050505050565b6000808311610bb6576040517f08c379a000000000000000000000000000000000000000000000000000000000815260206004820152602960248201527f5265717569656d466f726d756c613a20494e53554646494349454e545f494e5060448201527f55545f414d4f554e5400000000000000000000000000000000000000000000006064820152608401610474565b813515801590610bca575060008260200135115b610c56576040517f08c379a000000000000000000000000000000000000000000000000000000000815260206004820152602660248201527f5265717569656d466f726d756c613a20494e53554646494349454e545f4c495160448201527f55494449545900000000000000000000000000000000000000000000000000006064820152608401610474565b6000610c6860e0840160c085016131aa565b610c7490612710613156565b610c849063ffffffff1685613119565b9050610c9660c0840160a085016131aa565b63ffffffff16610cac60a08501608086016131aa565b63ffffffff1603610cf25780610cc86040850135612710613119565b610cd29190613192565b610ce0826060860135613119565b610cea91906131f6565b915050610d8b565b6000808083610d076040880135612710613119565b610d119190613192565b9050610d4c81610d276040890135612710613119565b610d3760a08a0160808b016131aa565b610d4760c08b0160a08c016131aa565b611353565b90935091506000610d61846060890135613119565b9050606087013560ff84161b84610d78828461317b565b610d8291906131f6565b96505050505050505b92915050565b6000808311610e22576040517f08c379a000000000000000000000000000000000000000000000000000000000815260206004820152602a60248201527f5265717569656d466f726d756c613a20494e53554646494349454e545f4f555460448201527f5055545f414d4f554e54000000000000000000000000000000000000000000006064820152608401610474565b813515801590610e36575060008260200135115b610ec2576040517f08c379a000000000000000000000000000000000000000000000000000000000815260206004820152602660248201527f5265717569656d466f726d756c613a20494e53554646494349454e545f4c495160448201527f55494449545900000000000000000000000000000000000000000000000000006064820152608401610474565b610ed260c0830160a084016131aa565b63ffffffff16610ee860a08401608085016131aa565b63ffffffff1603610f6d576000610f03846040850135613119565b610f0f90612710613119565b90506000610f2360e0850160c086016131aa565b610f2f90612710613156565b63ffffffff16610f4386606087013561317b565b610f4d9190613119565b9050610f5981836131f6565b610f64906001613192565b92505050610d8b565b60008080610f7f86606087013561317b565b9050610faa606086013582610f9a60c0890160a08a016131aa565b610d4760a08a0160808b016131aa565b90935091506000610fc16040870135612710613119565b90506000610fcf8583613119565b905060ff841682901b610fe860e0890160c08a016131aa565b610ff490612710613156565b63ffffffff1660ff8616611008838561317b565b61101392911c6131f6565b610d82906001613192565b60008084116110af576040517f08c379a000000000000000000000000000000000000000000000000000000000815260206004820152602360248201527f5265717569656d466f726d756c613a20494e53554646494349454e545f414d4f60448201527f554e5400000000000000000000000000000000000000000000000000000000006064820152608401610474565b6000831180156110bf5750600082115b61114b576040517f08c379a000000000000000000000000000000000000000000000000000000000815260206004820152602660248201527f5265717569656d466f726d756c613a20494e53554646494349454e545f4c495160448201527f55494449545900000000000000000000000000000000000000000000000000006064820152608401610474565b826111568386613119565b61116091906131f6565b949350505050565b6000808373ffffffffffffffffffffffffffffffffffffffff16630dfe16816040518163ffffffff1660e01b8152600401602060405180830381865afa1580156111b6573d6000803e3d6000fd5b505050506040513d601f19601f820116820180604052508101906111da9190612f37565b905060008473ffffffffffffffffffffffffffffffffffffffff1663d21220a76040518163ffffffff1660e01b8152600401602060405180830381865afa158015611229573d6000803e3d6000fd5b505050506040513d601f19601f8201168201806040525081019061124d9190612f37565b90508373ffffffffffffffffffffffffffffffffffffffff168273ffffffffffffffffffffffffffffffffffffffff1614806112b457508373ffffffffffffffffffffffffffffffffffffffff168173ffffffffffffffffffffffffffffffffffffffff16145b61131a576040517f08c379a000000000000000000000000000000000000000000000000000000000815260206004820152601e60248201527f5265717569656d466f726d756c613a20496e76616c696420746f6b656e4100006044820152606401610474565b8373ffffffffffffffffffffffffffffffffffffffff168273ffffffffffffffffffffffffffffffffffffffff16146111605781610a2c565b600080848610156113c0576040517f08c379a000000000000000000000000000000000000000000000000000000000815260206004820152601b60248201527f6e6f7420737570706f7274205f626173654e203c205f626173654400000000006044820152606401610474565b70020000000000000000000000000000000086106113dd57600080fd5b600080866113fb6f800000000000000000000000000000008a613119565b61140591906131f6565b905070015bf0a8b1457695355fb8ac404e7a79e381101561143057611429816114d0565b915061143c565b61143981611bd2565b91505b60008563ffffffff168763ffffffff16846114579190613119565b61146191906131f6565b90507008000000000000000000000000000000008110156114935761148581611d11565b607f945094505050506114c7565b600061149e8261248f565b90506114ba6114ae82607f61320a565b60ff1683901c82612542565b955093506114c792505050565b94509492505050565b6000808080806fd3094c70f034de4b96ff7d5b6f99fcd88610611541576115076f4000000000000000000000000000000085613192565b93506fd3094c70f034de4b96ff7d5b6f99fcd86115346f8000000000000000000000000000000088613119565b61153e91906131f6565b95505b6fa45af1e1f40c333b3de1db4dd55f29a786106115ac576115726f2000000000000000000000000000000085613192565b93506fa45af1e1f40c333b3de1db4dd55f29a761159f6f8000000000000000000000000000000088613119565b6115a991906131f6565b95505b6f910b022db7ae67ce76b441c27035c6a18610611617576115dd6f1000000000000000000000000000000085613192565b93506f910b022db7ae67ce76b441c27035c6a161160a6f8000000000000000000000000000000088613119565b61161491906131f6565b95505b6f88415abbe9a76bead8d00cf112e4d4a88610611682576116486f0800000000000000000000000000000085613192565b93506f88415abbe9a76bead8d00cf112e4d4a86116756f8000000000000000000000000000000088613119565b61167f91906131f6565b95505b6f84102b00893f64c705e841d5d4064bd386106116ed576116b36f0400000000000000000000000000000085613192565b93506f84102b00893f64c705e841d5d4064bd36116e06f8000000000000000000000000000000088613119565b6116ea91906131f6565b95505b6f8204055aaef1c8bd5c3259f4822735a286106117585761171e6f0200000000000000000000000000000085613192565b93506f8204055aaef1c8bd5c3259f4822735a261174b6f8000000000000000000000000000000088613119565b61175591906131f6565b95505b6f810100ab00222d861931c15e39b44e9986106117c3576117896f0100000000000000000000000000000085613192565b93506f810100ab00222d861931c15e39b44e996117b66f8000000000000000000000000000000088613119565b6117c091906131f6565b95505b6f808040155aabbbe9451521693554f733861061182d576117f36e80000000000000000000000000000085613192565b93506f808040155aabbbe9451521693554f7336118206f8000000000000000000000000000000088613119565b61182a91906131f6565b95505b6118476f800000000000000000000000000000008761317b565b92508291506f800000000000000000000000000000006118678380613119565b61187191906131f6565b905070010000000000000000000000000000000061188f848261317b565b6118999084613119565b6118a391906131f6565b6118ad9085613192565b93506f800000000000000000000000000000006118ca8284613119565b6118d491906131f6565b9150700200000000000000000000000000000000611902846faaaaaaaaaaaaaaaaaaaaaaaaaaaaaaaa61317b565b61190c9084613119565b61191691906131f6565b6119209085613192565b93506f8000000000000000000000000000000061193d8284613119565b61194791906131f6565b9150700300000000000000000000000000000000611975846f9999999999999999999999999999999961317b565b61197f9084613119565b61198991906131f6565b6119939085613192565b93506f800000000000000000000000000000006119b08284613119565b6119ba91906131f6565b91507004000000000000000000000000000000006119e8846f9249249249249249249249249249249261317b565b6119f29084613119565b6119fc91906131f6565b611a069085613192565b93506f80000000000000000000000000000000611a238284613119565b611a2d91906131f6565b9150700500000000000000000000000000000000611a5b846f8e38e38e38e38e38e38e38e38e38e38e61317b565b611a659084613119565b611a6f91906131f6565b611a799085613192565b93506f80000000000000000000000000000000611a968284613119565b611aa091906131f6565b9150700600000000000000000000000000000000611ace846f8ba2e8ba2e8ba2e8ba2e8ba2e8ba2e8b61317b565b611ad89084613119565b611ae291906131f6565b611aec9085613192565b93506f80000000000000000000000000000000611b098284613119565b611b1391906131f6565b9150700700000000000000000000000000000000611b41846f89d89d89d89d89d89d89d89d89d89d8961317b565b611b4b9084613119565b611b5591906131f6565b611b5f9085613192565b93506f80000000000000000000000000000000611b7c8284613119565b611b8691906131f6565b9150700800000000000000000000000000000000611bb4846f8888888888888888888888888888888861317b565b611bbe9084613119565b611bc891906131f6565b610b1b9085613192565b6000807001000000000000000000000000000000008310611c3b576000611c11611c0c6f80000000000000000000000000000000866131f6565b612ba0565b60ff811694851c94909150611c37906f8000000000000000000000000000000090613119565b9150505b6f80000000000000000000000000000000831115611cd557607f5b60ff811615611cd3576f80000000000000000000000000000000611c7a8580613119565b611c8491906131f6565b93507001000000000000000000000000000000008410611cc357600193841c93611cae908261320a565b60ff166001901b82611cc09190613192565b91505b611ccc8161322d565b9050611c56565b505b6f05b9de1d10bf4103d647b0955897ba80611d006f03f80fe03f80fe03f80fe03f80fe03f883613119565b611d0a91906131f6565b9392505050565b6000808080611d306f1000000000000000000000000000000086613268565b91508190506f80000000000000000000000000000000611d508280613119565b611d5a91906131f6565b9050611d6e816710e1b3be415a0000613119565b611d789084613192565b92506f80000000000000000000000000000000611d958383613119565b611d9f91906131f6565b9050611db3816705a0913f6b1e0000613119565b611dbd9084613192565b92506f80000000000000000000000000000000611dda8383613119565b611de491906131f6565b9050611df881670168244fdac78000613119565b611e029084613192565b92506f80000000000000000000000000000000611e1f8383613119565b611e2991906131f6565b9050611e3c81664807432bc18000613119565b611e469084613192565b92506f80000000000000000000000000000000611e638383613119565b611e6d91906131f6565b9050611e8081660c0135dca04000613119565b611e8a9084613192565b92506f80000000000000000000000000000000611ea78383613119565b611eb191906131f6565b9050611ec4816601b707b1cdc000613119565b611ece9084613192565b92506f80000000000000000000000000000000611eeb8383613119565b611ef591906131f6565b9050611f07816536e0f639b800613119565b611f119084613192565b92506f80000000000000000000000000000000611f2e8383613119565b611f3891906131f6565b9050611f4a81650618fee9f800613119565b611f549084613192565b92506f80000000000000000000000000000000611f718383613119565b611f7b91906131f6565b9050611f8c81649c197dcc00613119565b611f969084613192565b92506f80000000000000000000000000000000611fb38383613119565b611fbd91906131f6565b9050611fce81640e30dce400613119565b611fd89084613192565b92506f80000000000000000000000000000000611ff58383613119565b611fff91906131f6565b90506120108164012ebd1300613119565b61201a9084613192565b92506f800000000000000000000000000000006120378383613119565b61204191906131f6565b9050612051816317499f00613119565b61205b9084613192565b92506f800000000000000000000000000000006120788383613119565b61208291906131f6565b9050612092816301a9d480613119565b61209c9084613192565b92506f800000000000000000000000000000006120b98383613119565b6120c391906131f6565b90506120d281621c6380613119565b6120dc9084613192565b92506f800000000000000000000000000000006120f98383613119565b61210391906131f6565b9050612112816201c638613119565b61211c9084613192565b92506f800000000000000000000000000000006121398383613119565b61214391906131f6565b905061215181611ab8613119565b61215b9084613192565b92506f800000000000000000000000000000006121788383613119565b61218291906131f6565b90506121908161017c613119565b61219a9084613192565b92506f800000000000000000000000000000006121b78383613119565b6121c191906131f6565b90506121ce816014613119565b6121d89084613192565b92506f800000000000000000000000000000006121f58383613119565b6121ff91906131f6565b905061220c816001613119565b6122169084613192565b92506f800000000000000000000000000000008261223c6721c3677c82b40000866131f6565b6122469190613192565b6122509190613192565b92506f100000000000000000000000000000008516156122a45770018ebef9eac820ae8682b9793ac6d1e776612297847001c3d6a24ed82218787d624d3e5eba95f9613119565b6122a191906131f6565b92505b6f200000000000000000000000000000008516156122f6577001368b2fc6f9609fe7aceb46aa619baed46122e98470018ebef9eac820ae8682b9793ac6d1e778613119565b6122f391906131f6565b92505b6f40000000000000000000000000000000851615612347576fbc5ab1b16779be3575bd8f0520a9f21f61233a847001368b2fc6f9609fe7aceb46aa619baed5613119565b61234491906131f6565b92505b6f80000000000000000000000000000000851615612397576f454aaa8efe072e7f6ddbab84b40a55c961238a846fbc5ab1b16779be3575bd8f0520a9f21e613119565b61239491906131f6565b92505b7001000000000000000000000000000000008516156123e8576f0960aadc109e7a3bf4578099615711ea6123db846f454aaa8efe072e7f6ddbab84b40a55c5613119565b6123e591906131f6565b92505b700200000000000000000000000000000000851615612438576e2bf84208204f5977f9a8cf01fdce3d61242b846f0960aadc109e7a3bf4578099615711d7613119565b61243591906131f6565b92505b700400000000000000000000000000000000851615612486576d03c6ab775dd0b95b4cbee7e65d11612479846e2bf84208204f5977f9a8cf01fdc307613119565b61248391906131f6565b92505b50909392505050565b60006020607f5b60ff81166124a583600161327c565b60ff1610156124f857600060026124bc838561327c565b6124c691906132a1565b90508460008260ff16608081106124df576124df6132c3565b0154106124ee578092506124f2565b8091505b50612496565b8360008260ff166080811061250f5761250f6132c3565b01541061251d579392505050565b8360008360ff1660808110612534576125346132c3565b0154106100be575092915050565b6000828160ff84166125548380613119565b901c9150612572826f03442c4e6074a82f1797f72ac0000000613119565b61257c9082613192565b905060ff841661258c8684613119565b901c91506125aa826f0116b96f757c380fb287fd0e40000000613119565b6125b49082613192565b905060ff84166125c48684613119565b901c91506125e1826e45ae5bdd5f0e03eca1ff4390000000613119565b6125eb9082613192565b905060ff84166125fb8684613119565b901c9150612618826e0defabf91302cd95b9ffda50000000613119565b6126229082613192565b905060ff84166126328684613119565b901c915061264f826e02529ca9832b22439efff9b8000000613119565b6126599082613192565b905060ff84166126698684613119565b901c9150612685826d54f1cf12bd04e516b6da88000000613119565b61268f9082613192565b905060ff841661269f8684613119565b901c91506126bb826d0a9e39e257a09ca2d6db51000000613119565b6126c59082613192565b905060ff84166126d58684613119565b901c91506126f1826d012e066e7b839fa050c309000000613119565b6126fb9082613192565b905060ff841661270b8684613119565b901c9150612726826c1e33d7d926c329a1ad1a800000613119565b6127309082613192565b905060ff84166127408684613119565b901c915061275b826c02bee513bdb4a6b19b5f800000613119565b6127659082613192565b905060ff84166127758684613119565b901c915061278f826b3a9316fa79b88eccf2a00000613119565b6127999082613192565b905060ff84166127a98684613119565b901c91506127c3826b048177ebe1fa812375200000613119565b6127cd9082613192565b905060ff84166127dd8684613119565b901c91506127f6826a5263fe90242dcbacf00000613119565b6128009082613192565b905060ff84166128108684613119565b901c9150612829826a057e22099c030d94100000613119565b6128339082613192565b905060ff84166128438684613119565b901c915061285b826957e22099c030d9410000613119565b6128659082613192565b905060ff84166128758684613119565b901c915061288d8269052b6b54569976310000613119565b6128979082613192565b905060ff84166128a78684613119565b901c91506128be82684985f67696bf748000613119565b6128c89082613192565b905060ff84166128d88684613119565b901c91506128ef826803dea12ea99e498000613119565b6128f99082613192565b905060ff84166129098684613119565b901c915061291f826731880f2214b6e000613119565b6129299082613192565b905060ff84166129398684613119565b901c915061294f8267025bcff56eb36000613119565b6129599082613192565b905060ff84166129698684613119565b901c915061297e82661b722e10ab1000613119565b6129889082613192565b905060ff84166129988684613119565b901c91506129ad826601317c70077000613119565b6129b79082613192565b905060ff84166129c78684613119565b901c91506129db82650cba84aafa00613119565b6129e59082613192565b905060ff84166129f58684613119565b901c9150612a08826482573a0a00613119565b612a129082613192565b905060ff8416612a228684613119565b901c9150612a35826405035ad900613119565b612a3f9082613192565b905060ff8416612a4f8684613119565b901c9150612a6182632f881b00613119565b612a6b9082613192565b905060ff8416612a7b8684613119565b901c9150612a8d826301b29340613119565b612a979082613192565b905060ff8416612aa78684613119565b901c9150612ab882620efc40613119565b612ac29082613192565b905060ff8416612ad28684613119565b901c9150612ae282617fe0613119565b612aec9082613192565b905060ff8416612afc8684613119565b901c9150612b0c82610420613119565b612b169082613192565b905060ff8416612b268684613119565b901c9150612b35826021613119565b612b3f9082613192565b905060ff8416612b4f8684613119565b901c9150612b5e826001613119565b612b689082613192565b9050600160ff85161b85612b8c6f0688589cc0e9505e2f2fee5580000000846131f6565b612b969190613192565b610a2c9190613192565b600080610100831015612bd3575b6001831115612bce57600192831c92612bc7908261327c565b9050612bae565b610d8b565b60805b60ff811615612c0557600160ff82161b8410612bfa5760ff81169390931c92908117905b60011c607f16612bd6565b5092915050565b73ffffffffffffffffffffffffffffffffffffffff81168114612c2e57600080fd5b50565b600080600060608486031215612c4657600080fd5b8335612c5181612c0c565b92506020840135612c6181612c0c565b91506040840135612c7181612c0c565b809150509250925092565b60008060408385031215612c8f57600080fd5b8235612c9a81612c0c565b91506020830135612caa81612c0c565b809150509250929050565b600060208284031215612cc757600080fd5b8135611d0a81612c0c565b63ffffffff81168114612c2e57600080fd5b600080600080600060a08688031215612cfc57600080fd5b853594506020860135935060408601359250606086013591506080860135612d2381612cd2565b809150509295509295909350565b80356dffffffffffffffffffffffffffff81168114612d4f57600080fd5b919050565b60008060008060008060c08789031215612d6d57600080fd5b8635955060208701359450604087013593506060870135612d8d81612cd2565b9250612d9b60808801612d31565b9150612da960a08801612d31565b90509295509295509295565b600080828403610100811215612dca57600080fd5b8335925060e07fffffffffffffffffffffffffffffffffffffffffffffffffffffffffffffffe082011215612dfe57600080fd5b506020830190509250929050565b600080600060608486031215612e2157600080fd5b505081359360208301359350604090920135919050565b7fffffffffffffffffffffffffffffffffffffffffffffffffffffffffffffffe0601f830116810181811067ffffffffffffffff82111715612ea3577f4e487b7100000000000000000000000000000000000000000000000000000000600052604160045260246000fd5b6040525050565b600060808284031215612ebc57600080fd5b6040516080810181811067ffffffffffffffff82111715612f06577f4e487b7100000000000000000000000000000000000000000000000000000000600052604160045260246000fd5b8060405250825181526020830151602082015260408301516040820152606083015160608201528091505092915050565b600060208284031215612f4957600080fd5b8151611d0a81612c0c565b60008060008060808587031215612f6a57600080fd5b8451612f7581612cd2565b6020860151909450612f8681612cd2565b6040860151909350612f9781612cd2565b6060860151909250612fa881612cd2565b939692955090935050565b600060033d1115612fcc5760046000803e5060005160e01c5b90565b600060443d1015612fdd5790565b6040517ffffffffffffffffffffffffffffffffffffffffffffffffffffffffffffffffc803d016004833e81513d67ffffffffffffffff816024840111818411171561302b57505050505090565b82850191508151818111156130435750505050505090565b843d870101602082850101111561305d5750505050505090565b61306c60208286010187612e38565b509095945050505050565b600060208083528351808285015260005b818110156130a457858101830151858201604001528201613088565b818111156130b6576000604083870101525b50601f017fffffffffffffffffffffffffffffffffffffffffffffffffffffffffffffffe016929092016040019392505050565b7f4e487b7100000000000000000000000000000000000000000000000000000000600052601160045260246000fd5b6000817fffffffffffffffffffffffffffffffffffffffffffffffffffffffffffffffff0483118215151615613151576131516130ea565b500290565b600063ffffffff83811690831681811015613173576131736130ea565b039392505050565b60008282101561318d5761318d6130ea565b500390565b600082198211156131a5576131a56130ea565b500190565b6000602082840312156131bc57600080fd5b8135611d0a81612cd2565b7f4e487b7100000000000000000000000000000000000000000000000000000000600052601260045260246000fd5b600082613205576132056131c7565b500490565b600060ff821660ff841680821015613224576132246130ea565b90039392505050565b600060ff821680613240576132406130ea565b7fffffffffffffffffffffffffffffffffffffffffffffffffffffffffffffffff0192915050565b600082613277576132776131c7565b500690565b600060ff821660ff84168060ff03821115613299576132996130ea565b019392505050565b600060ff8316806132b4576132b46131c7565b8060ff84160491505092915050565b7f4e487b7100000000000000000000000000000000000000000000000000000000600052603260045260246000fdfea2646970667358221220b38e2f8a78dcf1af971b5bb9bea6ddc25cc4a59ce1f1458934c4308e623381a264736f6c634300080d0033",
  "devdoc": {
    "kind": "dev",
    "methods": {
      "getAmountIn(uint256,(uint256,uint256,uint256,uint256,uint32,uint32,uint32))": {
        "params": {
          "amountOut": "target reserve amount",
          "pricingData": "contains the following inputs:  reserveIn       source reserve balance  reserveOut      target reserve balance  tokenWeightIn   source reserve weight, represented in ppm (2-98)  tokenWeightOut  target reserve weight, represented in ppm (2-98)  swapFee         swap fee of the conversion"
        },
        "returns": {
          "amountIn": "amountIn"
        }
      },
      "getAmountOut(uint256,(uint256,uint256,uint256,uint256,uint32,uint32,uint32))": {
        "params": {
          "amountIn": "source reserve amount",
          "pricingData": "contains the following inputs:  reserveIn       source reserve balance  reserveOut      target reserve balance  tokenWeightIn   source reserve weight, represented in ppm (2-98)  tokenWeightOut  target reserve weight, represented in ppm (2-98)  swapFee         swap fee of the conversion"
        },
        "returns": {
          "amountOut": "amountOut"
        }
      }
    },
    "version": 1
  },
  "userdoc": {
    "kind": "user",
    "methods": {
      "getAmountIn(uint256,(uint256,uint256,uint256,uint256,uint32,uint32,uint32))": {
        "notice": "given an output amount of an asset and pair reserves, returns a required input amount of the other asset Formula: return = reserveIn * ( (reserveOut / (reserveOut - amountOut)) ^ (tokenWeightOut / tokenWeightIn) - 1) * (10000/ (10000 - swapFee)"
      },
      "getAmountOut(uint256,(uint256,uint256,uint256,uint256,uint32,uint32,uint32))": {
        "notice": "given an input amount of an asset and pair reserves, returns the maximum output amount of the other asset, Formula: return = reserveOut * (1 - (reserveIn * 10000 / (reserveIn * 10000 + amountIn * (10000 - swapFee))) ^ (tokenWeightIn / tokenWeightOut))"
      }
    },
    "version": 1
  },
  "storageLayout": {
    "storage": [
      {
        "astId": 28748,
        "contract": "contracts/WeightedFormulaV2.sol:WeightedFormulaV2",
        "label": "maxExpArray",
        "offset": 0,
        "slot": "0",
        "type": "t_array(t_uint256)128_storage"
      }
    ],
    "types": {
      "t_array(t_uint256)128_storage": {
        "base": "t_uint256",
        "encoding": "inplace",
        "label": "uint256[128]",
        "numberOfBytes": "4096"
      },
      "t_uint256": {
        "encoding": "inplace",
        "label": "uint256",
        "numberOfBytes": "32"
      }
    }
  }
}