{
  "_format": "hh-sol-artifact-1",
  "contractName": "StakePool",
  "sourceName": "contracts/StakePool.sol",
  "abi": [
    {
      "inputs": [
        {
          "internalType": "address",
          "name": "_controller",
          "type": "address"
        },
        {
          "internalType": "uint256",
          "name": "_version",
          "type": "uint256"
        }
      ],
      "stateMutability": "nonpayable",
      "type": "constructor"
    },
    {
      "anonymous": false,
      "inputs": [
        {
          "indexed": true,
          "internalType": "uint256",
          "name": "poolId",
          "type": "uint256"
        }
      ],
      "name": "AddRewardPool",
      "type": "event"
    },
    {
      "anonymous": false,
      "inputs": [
        {
          "indexed": true,
          "internalType": "address",
          "name": "account",
          "type": "address"
        },
        {
          "indexed": false,
          "internalType": "uint256",
          "name": "amount",
          "type": "uint256"
        }
      ],
      "name": "Deposit",
      "type": "event"
    },
    {
      "anonymous": false,
      "inputs": [
        {
          "indexed": true,
          "internalType": "uint256",
          "name": "poolId",
          "type": "uint256"
        },
        {
          "indexed": true,
          "internalType": "address",
          "name": "rewardToken",
          "type": "address"
        },
        {
          "indexed": true,
          "internalType": "address",
          "name": "account",
          "type": "address"
        },
        {
          "indexed": false,
          "internalType": "uint256",
          "name": "pendingReward",
          "type": "uint256"
        },
        {
          "indexed": false,
          "internalType": "uint256",
          "name": "rebaseAmount",
          "type": "uint256"
        },
        {
          "indexed": false,
          "internalType": "uint256",
          "name": "paidReward",
          "type": "uint256"
        }
      ],
      "name": "PayRewardPool",
      "type": "event"
    },
    {
      "anonymous": false,
      "inputs": [
        {
          "indexed": true,
          "internalType": "uint256",
          "name": "poolId",
          "type": "uint256"
        },
        {
          "indexed": false,
          "internalType": "address",
          "name": "rewardMultiplier",
          "type": "address"
        }
      ],
      "name": "UpdateRewardMultiplier",
      "type": "event"
    },
    {
      "anonymous": false,
      "inputs": [
        {
          "indexed": true,
          "internalType": "uint256",
          "name": "poolId",
          "type": "uint256"
        },
        {
          "indexed": false,
          "internalType": "uint256",
          "name": "endRewardTime",
          "type": "uint256"
        },
        {
          "indexed": false,
          "internalType": "uint256",
          "name": "rewardPerSecond",
          "type": "uint256"
        }
      ],
      "name": "UpdateRewardPool",
      "type": "event"
    },
    {
      "anonymous": false,
      "inputs": [
        {
          "indexed": true,
          "internalType": "uint256",
          "name": "poolId",
          "type": "uint256"
        },
        {
          "indexed": false,
          "internalType": "address",
          "name": "rewardRebaser",
          "type": "address"
        }
      ],
      "name": "UpdateRewardRebaser",
      "type": "event"
    },
    {
      "anonymous": false,
      "inputs": [
        {
          "indexed": true,
          "internalType": "address",
          "name": "account",
          "type": "address"
        },
        {
          "indexed": false,
          "internalType": "uint256",
          "name": "amount",
          "type": "uint256"
        }
      ],
      "name": "Withdraw",
      "type": "event"
    },
    {
      "inputs": [
        {
          "internalType": "address",
          "name": "_rewardToken",
          "type": "address"
        },
        {
          "internalType": "address",
          "name": "_rewardRebaser",
          "type": "address"
        },
        {
          "internalType": "address",
          "name": "_rewardMultiplier",
          "type": "address"
        },
        {
          "internalType": "uint256",
          "name": "_startTime",
          "type": "uint256"
        },
        {
          "internalType": "uint256",
          "name": "_endRewardTime",
          "type": "uint256"
        },
        {
          "internalType": "uint256",
          "name": "_rewardPerSecond",
          "type": "uint256"
        },
        {
          "internalType": "uint256",
          "name": "_lockRewardPercent",
          "type": "uint256"
        },
        {
          "internalType": "uint256",
          "name": "_startVestingTime",
          "type": "uint256"
        },
        {
          "internalType": "uint256",
          "name": "_endVestingTime",
          "type": "uint256"
        }
      ],
      "name": "addRewardPool",
      "outputs": [],
      "stateMutability": "nonpayable",
      "type": "function"
    },
    {
      "inputs": [
        {
          "internalType": "address",
          "name": "_token",
          "type": "address"
        }
      ],
      "name": "allowRecoverRewardToken",
      "outputs": [
        {
          "internalType": "bool",
          "name": "",
          "type": "bool"
        }
      ],
      "stateMutability": "view",
      "type": "function"
    },
    {
      "inputs": [],
      "name": "balance",
      "outputs": [
        {
          "internalType": "uint256",
          "name": "",
          "type": "uint256"
        }
      ],
      "stateMutability": "view",
      "type": "function"
    },
    {
      "inputs": [],
      "name": "claimReward",
      "outputs": [],
      "stateMutability": "nonpayable",
      "type": "function"
    },
    {
      "inputs": [],
      "name": "controller",
      "outputs": [
        {
          "internalType": "address",
          "name": "",
          "type": "address"
        }
      ],
      "stateMutability": "view",
      "type": "function"
    },
    {
      "inputs": [],
      "name": "emergencyWithdraw",
      "outputs": [],
      "stateMutability": "nonpayable",
      "type": "function"
    },
    {
      "inputs": [],
      "name": "exit",
      "outputs": [],
      "stateMutability": "nonpayable",
      "type": "function"
    },
    {
      "inputs": [
        {
          "internalType": "address",
          "name": "_account",
          "type": "address"
        }
      ],
      "name": "getAllRewards",
      "outputs": [],
      "stateMutability": "nonpayable",
      "type": "function"
    },
    {
      "inputs": [
        {
          "internalType": "uint8",
          "name": "_pid",
          "type": "uint8"
        },
        {
          "internalType": "address",
          "name": "_account",
          "type": "address"
        }
      ],
      "name": "getReward",
      "outputs": [],
      "stateMutability": "nonpayable",
      "type": "function"
    },
    {
      "inputs": [
        {
          "internalType": "uint8",
          "name": "_pid",
          "type": "uint8"
        },
        {
          "internalType": "uint256",
          "name": "_from",
          "type": "uint256"
        },
        {
          "internalType": "uint256",
          "name": "_to",
          "type": "uint256"
        },
        {
          "internalType": "uint256",
          "name": "_rewardPerSecond",
          "type": "uint256"
        }
      ],
      "name": "getRewardMultiplier",
      "outputs": [
        {
          "internalType": "uint256",
          "name": "",
          "type": "uint256"
        }
      ],
      "stateMutability": "view",
      "type": "function"
    },
    {
      "inputs": [
        {
          "internalType": "uint8",
          "name": "pid",
          "type": "uint8"
        },
        {
          "internalType": "uint256",
          "name": "from",
          "type": "uint256"
        },
        {
          "internalType": "uint256",
          "name": "to",
          "type": "uint256"
        }
      ],
      "name": "getRewardPerSecond",
      "outputs": [
        {
          "internalType": "uint256",
          "name": "",
          "type": "uint256"
        }
      ],
      "stateMutability": "view",
      "type": "function"
    },
    {
      "inputs": [
        {
          "internalType": "uint8",
          "name": "pid",
          "type": "uint8"
        }
      ],
      "name": "getRewardPerSecond",
      "outputs": [
        {
          "internalType": "uint256",
          "name": "",
          "type": "uint256"
        }
      ],
      "stateMutability": "view",
      "type": "function"
    },
    {
      "inputs": [
        {
          "internalType": "uint8",
          "name": "_pid",
          "type": "uint8"
        },
        {
          "internalType": "address",
          "name": "_rewardToken",
          "type": "address"
        },
        {
          "internalType": "uint256",
          "name": "_pendingReward",
          "type": "uint256"
        }
      ],
      "name": "getRewardRebase",
      "outputs": [
        {
          "internalType": "uint256",
          "name": "",
          "type": "uint256"
        }
      ],
      "stateMutability": "view",
      "type": "function"
    },
    {
      "inputs": [
        {
          "internalType": "uint8",
          "name": "_pid",
          "type": "uint8"
        },
        {
          "internalType": "address",
          "name": "_account",
          "type": "address"
        }
      ],
      "name": "getUserInfo",
      "outputs": [
        {
          "internalType": "uint256",
          "name": "amount",
          "type": "uint256"
        },
        {
          "internalType": "uint256",
          "name": "rewardDebt",
          "type": "uint256"
        },
        {
          "internalType": "uint256",
          "name": "accumulatedEarned",
          "type": "uint256"
        },
        {
          "internalType": "uint256",
          "name": "lockReward",
          "type": "uint256"
        },
        {
          "internalType": "uint256",
          "name": "lockRewardReleased",
          "type": "uint256"
        }
      ],
      "stateMutability": "view",
      "type": "function"
    },
    {
      "inputs": [
        {
          "internalType": "address",
          "name": "_stakeToken",
          "type": "address"
        },
        {
          "internalType": "uint256",
          "name": "_unstakingFrozenTime",
          "type": "uint256"
        },
        {
          "internalType": "address",
          "name": "_rewardFund",
          "type": "address"
        },
        {
          "internalType": "address",
          "name": "_timelock",
          "type": "address"
        }
      ],
      "name": "initialize",
      "outputs": [],
      "stateMutability": "nonpayable",
      "type": "function"
    },
    {
      "inputs": [
        {
          "internalType": "uint8",
          "name": "_pid",
          "type": "uint8"
        },
        {
          "internalType": "address",
          "name": "_account",
          "type": "address"
        }
      ],
      "name": "pendingReward",
      "outputs": [
        {
          "internalType": "uint256",
          "name": "",
          "type": "uint256"
        }
      ],
      "stateMutability": "view",
      "type": "function"
    },
    {
      "inputs": [],
      "name": "rewardFund",
      "outputs": [
        {
          "internalType": "address",
          "name": "",
          "type": "address"
        }
      ],
      "stateMutability": "view",
      "type": "function"
    },
    {
      "inputs": [
        {
          "internalType": "uint256",
          "name": "",
          "type": "uint256"
        }
      ],
      "name": "rewardPoolInfo",
      "outputs": [
        {
          "internalType": "address",
          "name": "rewardToken",
          "type": "address"
        },
        {
          "internalType": "address",
          "name": "rewardRebaser",
          "type": "address"
        },
        {
          "internalType": "address",
          "name": "rewardMultiplier",
          "type": "address"
        },
        {
          "internalType": "uint256",
          "name": "startRewardTime",
          "type": "uint256"
        },
        {
          "internalType": "uint256",
          "name": "lastRewardTime",
          "type": "uint256"
        },
        {
          "internalType": "uint256",
          "name": "endRewardTime",
          "type": "uint256"
        },
        {
          "internalType": "uint256",
          "name": "rewardPerSecond",
          "type": "uint256"
        },
        {
          "internalType": "uint256",
          "name": "accRewardPerShare",
          "type": "uint256"
        },
        {
          "internalType": "uint256",
          "name": "lockRewardPercent",
          "type": "uint256"
        },
        {
          "internalType": "uint256",
          "name": "startVestingTime",
          "type": "uint256"
        },
        {
          "internalType": "uint256",
          "name": "endVestingTime",
          "type": "uint256"
        },
        {
          "internalType": "uint256",
          "name": "vestingDuration",
          "type": "uint256"
        },
        {
          "internalType": "uint256",
          "name": "totalPaidRewards",
          "type": "uint256"
        }
      ],
      "stateMutability": "view",
      "type": "function"
    },
    {
      "inputs": [],
      "name": "rewardPoolInfoLength",
      "outputs": [
        {
          "internalType": "uint256",
          "name": "",
          "type": "uint256"
        }
      ],
      "stateMutability": "view",
      "type": "function"
    },
    {
      "inputs": [
        {
          "internalType": "uint256",
          "name": "_amount",
          "type": "uint256"
        }
      ],
      "name": "stake",
      "outputs": [],
      "stateMutability": "nonpayable",
      "type": "function"
    },
    {
      "inputs": [
        {
          "internalType": "address",
          "name": "_account",
          "type": "address"
        }
      ],
      "name": "stakeFor",
      "outputs": [],
      "stateMutability": "nonpayable",
      "type": "function"
    },
    {
      "inputs": [],
      "name": "stakeToken",
      "outputs": [
        {
          "internalType": "address",
          "name": "",
          "type": "address"
        }
      ],
      "stateMutability": "view",
      "type": "function"
    },
    {
      "inputs": [
        {
          "internalType": "uint8",
          "name": "_pid",
          "type": "uint8"
        }
      ],
      "name": "stopRewardPool",
      "outputs": [],
      "stateMutability": "nonpayable",
      "type": "function"
    },
    {
      "inputs": [],
      "name": "timelock",
      "outputs": [
        {
          "internalType": "address",
          "name": "",
          "type": "address"
        }
      ],
      "stateMutability": "view",
      "type": "function"
    },
    {
      "inputs": [
        {
          "internalType": "address",
          "name": "_account",
          "type": "address"
        }
      ],
      "name": "unfrozenStakeTime",
      "outputs": [
        {
          "internalType": "uint256",
          "name": "",
          "type": "uint256"
        }
      ],
      "stateMutability": "view",
      "type": "function"
    },
    {
      "inputs": [],
      "name": "unstakingFrozenTime",
      "outputs": [
        {
          "internalType": "uint256",
          "name": "",
          "type": "uint256"
        }
      ],
      "stateMutability": "view",
      "type": "function"
    },
    {
      "inputs": [
        {
          "internalType": "uint8",
          "name": "_pid",
          "type": "uint8"
        }
      ],
      "name": "updateReward",
      "outputs": [],
      "stateMutability": "nonpayable",
      "type": "function"
    },
    {
      "inputs": [],
      "name": "updateReward",
      "outputs": [],
      "stateMutability": "nonpayable",
      "type": "function"
    },
    {
      "inputs": [
        {
          "internalType": "uint8",
          "name": "_pid",
          "type": "uint8"
        },
        {
          "internalType": "address",
          "name": "_rewardMultiplier",
          "type": "address"
        }
      ],
      "name": "updateRewardMultiplier",
      "outputs": [],
      "stateMutability": "nonpayable",
      "type": "function"
    },
    {
      "inputs": [
        {
          "internalType": "uint8",
          "name": "_pid",
          "type": "uint8"
        },
        {
          "internalType": "uint256",
          "name": "_endRewardTime",
          "type": "uint256"
        },
        {
          "internalType": "uint256",
          "name": "_rewardPerSecond",
          "type": "uint256"
        }
      ],
      "name": "updateRewardPool",
      "outputs": [],
      "stateMutability": "nonpayable",
      "type": "function"
    },
    {
      "inputs": [
        {
          "internalType": "uint8",
          "name": "_pid",
          "type": "uint8"
        },
        {
          "internalType": "address",
          "name": "_rewardRebaser",
          "type": "address"
        }
      ],
      "name": "updateRewardRebaser",
      "outputs": [],
      "stateMutability": "nonpayable",
      "type": "function"
    },
    {
      "inputs": [
        {
          "internalType": "address",
          "name": "",
          "type": "address"
        }
      ],
      "name": "userInfo",
      "outputs": [
        {
          "internalType": "uint256",
          "name": "amount",
          "type": "uint256"
        },
        {
          "internalType": "uint256",
          "name": "lastStakeTime",
          "type": "uint256"
        }
      ],
      "stateMutability": "view",
      "type": "function"
    },
    {
      "inputs": [],
      "name": "version",
      "outputs": [
        {
          "internalType": "uint256",
          "name": "",
          "type": "uint256"
        }
      ],
      "stateMutability": "view",
      "type": "function"
    },
    {
      "inputs": [
        {
          "internalType": "uint256",
          "name": "_amount",
          "type": "uint256"
        }
      ],
      "name": "withdraw",
      "outputs": [],
      "stateMutability": "nonpayable",
      "type": "function"
    }
  ],
  "bytecode": "0x60806040526203f4806008556001600955600a805460ff191690553480156200002757600080fd5b5060405162002f0738038062002f078339810160408190526200004a916200007d565b600680546001600160a01b039093166001600160a01b0319938416179055600580549092163317909155600055620000b9565b600080604083850312156200009157600080fd5b82516001600160a01b0381168114620000a957600080fd5b6020939093015192949293505050565b612e3e80620000c96000396000f3fe608060405234801561001057600080fd5b50600436106102265760003560e01c80638583f6a51161012a578063c0eac9ea116100bd578063e2589d381161008c578063efe2226611610071578063efe222661461057d578063f36c0a7214610590578063f77c47911461059857600080fd5b8063e2589d3814610562578063e9fad8ee1461057557600080fd5b8063c0eac9ea14610521578063d33219b414610534578063d9fa1de114610547578063db2e21bc1461055a57600080fd5b8063b69ef8a8116100f9578063b69ef8a8146104ea578063b88a802f146104f3578063be615335146104fb578063c012c42e1461050e57600080fd5b80638583f6a51461049e57806385cc179e146104b15780639c3962cb146104c4578063a694fc3a146104d757600080fd5b80634bf69206116101bd57806360d470881161018c5780636d3c6d92116101715780636d3c6d92146103f257806372aa0a601461040557806376d743fe1461048b57600080fd5b806360d47088146103cc57806364467bbe146103df57600080fd5b80634bf692061461037257806351ed6a301461038557806354fd4d50146103b0578063597293f3146103b957600080fd5b80633468a5b8116101f95780633468a5b814610321578063358394d814610344578063362a3fad14610357578063437686491461036a57600080fd5b806317837baa1461022b5780631959a0021461024757806329d79588146102835780632e1a7d4d1461030c575b600080fd5b61023460085481565b6040519081526020015b60405180910390f35b61026e610255366004612a6a565b6001602052600090815260409020805460069091015482565b6040805192835260208301919091520161023e565b6102e4610291366004612a96565b6001600160a01b03166000908152600160208181526040808420805460ff909616855292830182528084205460038401835281852054600485018452828620546005909501909352932054939492939092565b604080519586526020860194909452928401919091526060830152608082015260a00161023e565b61031f61031a366004612ac9565b6105ab565b005b61033461032f366004612a6a565b610664565b604051901515815260200161023e565b61031f610352366004612ae2565b6106f2565b61031f610365366004612a6a565b610848565b600254610234565b61031f610380366004612a6a565b61087b565b600354610398906001600160a01b031681565b6040516001600160a01b03909116815260200161023e565b61023460005481565b6102346103c7366004612b2f565b6109b4565b6102346103da366004612a6a565b610a93565b61031f6103ed366004612b6b565b610ac3565b61031f610400366004612a96565b610c03565b610418610413366004612ac9565b611093565b604080516001600160a01b039e8f1681529c8e1660208e01529a909c16998b019990995260608a0197909752608089019590955260a088019390935260c087019190915260e08601526101008501526101208401526101408301526101608201526101808101919091526101a00161023e565b61031f610499366004612b86565b611119565b61031f6104ac366004612a96565b6112b2565b61031f6104bf366004612b6b565b6114ea565b6102346104d2366004612b86565b61161b565b61031f6104e5366004612ac9565b6116a5565b61023460075481565b61031f61171d565b610234610509366004612a96565b611728565b61023461051c366004612bb9565b6118d4565b61031f61052f366004612bf2565b6119dc565b600554610398906001600160a01b031681565b610234610555366004612b6b565b611f5f565b61031f611f71565b61031f610570366004612a96565b612132565b61031f61235c565b600454610398906001600160a01b031681565b61031f612375565b600654610398906001600160a01b031681565b6009546001146106025760405162461bcd60e51b815260206004820152600a60248201527f53503a204c4f434b45440000000000000000000000000000000000000000000060448201526064015b60405180910390fd5b6000600955610610816123a6565b600354610627906001600160a01b0316338361250d565b60405181815233907f884edad9ce6fa2440d8a54cc123490eb96d2768479d49ff9c7366125a94243649060200160405180910390a2506001600955565b6000805b60025460ff821610156106e957600060028260ff168154811061068d5761068d612c6d565b60009182526020909120600d9091020180549091506001600160a01b03858116911614156106d85760058101546106c7906203f480612ccb565b4210156106d8575060009392505050565b506106e281612ce3565b9050610668565b50600192915050565b600a5460ff16156107455760405162461bcd60e51b815260206004820152601d60248201527f53503a20496e697469616c697a65206d7573742062652066616c73652e00000060448201526064016105f9565b62278d0060085411156107c05760405162461bcd60e51b815260206004820152602160248201527f53503a20756e7374616b696e6746726f7a656e54696d65203e2033302064617960448201527f730000000000000000000000000000000000000000000000000000000000000060648201526084016105f9565b600380546001600160a01b039586167fffffffffffffffffffffffff000000000000000000000000000000000000000091821617909155600893909355600480549285169284169290921790915560058054919093169116179055600a80547fffffffffffffffffffffffffffffffffffffffffffffffffffffffffffffff00166001179055565b60025460005b8160ff168160ff161015610876576108668184610c03565b61086f81612ce3565b905061084e565b505050565b6009546001146108cd5760405162461bcd60e51b815260206004820152600a60248201527f53503a204c4f434b45440000000000000000000000000000000000000000000060448201526064016105f9565b60006009556006546040517f393a74840000000000000000000000000000000000000000000000000000000081523360048201526001600160a01b039091169063393a748490602401602060405180830381865afa158015610933573d6000803e3d6000fd5b505050506040513d601f19601f820116820180604052508101906109579190612d03565b6109a35760405162461bcd60e51b815260206004820152601260248201527f53503a20496e76616c69642073656e646572000000000000000000000000000060448201526064016105f9565b6109ac8161264f565b506001600955565b60008060028560ff16815481106109cd576109cd612c6d565b60009182526020909120600d9091020160018101549091506001600160a01b0316806109fd578392505050610a8c565b6040517f2e8105660000000000000000000000000000000000000000000000000000000081526001600160a01b03868116600483015260248201869052821690632e81056690604401602060405180830381865afa158015610a63573d6000803e3d6000fd5b505050506040513d601f19601f82011682018060405250810190610a879190612d25565b925050505b9392505050565b6008546001600160a01b0382166000908152600160205260408120600601549091610abd91612ccb565b92915050565b600954600114610b155760405162461bcd60e51b815260206004820152600a60248201527f53503a204c4f434b45440000000000000000000000000000000000000000000060448201526064016105f9565b60006009556005546001600160a01b03163314610b745760405162461bcd60e51b815260206004820152600d60248201527f53503a202174696d656c6f636b0000000000000000000000000000000000000060448201526064016105f9565b600060028260ff1681548110610b8c57610b8c612c6d565b90600052602060002090600d02019050610ba5826114ea565b426005820181905560006006830181905560405160ff8516927fd50c9d621671c3fc38b7813912936d3cee3f956bdbf5f6c61b5091f2ff2b0fd592610bf292918252602082015260400190565b60405180910390a250506001600955565b610c0c826114ea565b6001600160a01b03811660009081526001602052604081206002805491929160ff8616908110610c3e57610c3e612c6d565b600091825260208083206007600d909302019182015460ff881684526001860190915260408320548554929450909291610c979190610c9190670de0b6b3a764000090610c8b908761281a565b90612826565b90612832565b60088401549091508015610e295783600a0154421115610d2c5760ff8716600090815260058601602090815260408083205460048901909252822054610cdc91612832565b90508015610d2657610cee8382612840565b60ff89166000908152600588016020526040902054909350610d109082612840565b60ff891660009081526005880160205260409020555b50610e29565b8115610d88576000610d436064610c8b858561281a565b9050610d4f8382612832565b60ff89166000908152600488016020526040902054909350610d719082612840565b60ff89166000908152600488016020526040902055505b600984015442811015610e2757600b850154600090610dc990610c8b610dae4286612832565b60ff8d16600090815260048c0160205260409020549061281a565b60ff8a16600090815260058901602052604090205490915080821115610e24576000610df58383612832565b9050610e018282612840565b60ff8c16600090815260058b016020526040902055610e208682612840565b9550505b50505b505b811561108a5760ff87166000908152600386016020526040902054610e4e9083612840565b60ff88166000908152600387016020526040902055600c840154610e729083612840565b600c8501558454610e9190670de0b6b3a764000090610c8b908661281a565b60ff8816600090815260018701602090815260408083209390935560028801905290812054610ec09084612840565b60ff8916600090815260028801602052604080822083905587546004805492517f70a082310000000000000000000000000000000000000000000000000000000081526001600160a01b0393841691810191909152939450169182906370a0823190602401602060405180830381865afa158015610f42573d6000803e3d6000fd5b505050506040513d601f19601f82011682018060405250810190610f669190612d25565b905080156110865760ff8a1660009081526002890160205260408120819055610f908b84866109b4565b90506000828211610fa15781610fa3565b825b600480546040517fd1660f990000000000000000000000000000000000000000000000000000000081526001600160a01b03888116938201939093528e8316602482015260448101849052929350169063d1660f9990606401600060405180830381600087803b15801561101657600080fd5b505af115801561102a573d6000803e3d6000fd5b505060408051888152602081018690529081018490526001600160a01b03808f1693508716915060ff8f16907f16dc511f817964d1eb39e0c3e84ce317f07b5b12cdfa1f8c2f179a08836af51a9060600160405180910390a450505b5050505b50505050505050565b600281815481106110a357600080fd5b60009182526020909120600d9091020180546001820154600283015460038401546004850154600586015460068701546007880154600889015460098a0154600a8b0154600b8c0154600c909c01546001600160a01b039b8c169d50998b169b9a9098169996989597949693959294919390928d565b60095460011461116b5760405162461bcd60e51b815260206004820152600a60248201527f53503a204c4f434b45440000000000000000000000000000000000000000000060448201526064016105f9565b60006009556005546001600160a01b031633146111ca5760405162461bcd60e51b815260206004820152600d60248201527f53503a202174696d656c6f636b0000000000000000000000000000000000000060448201526064016105f9565b600060028460ff16815481106111e2576111e2612c6d565b90600052602060002090600d02019050806005015442111580156112065750824211155b6112525760405162461bcd60e51b815260206004820152601d60248201527f53503a20626c6f636b54696d65203e20656e6452657761726454696d6500000060448201526064016105f9565b61125b846114ea565b6005810183905560068101829055604080518481526020810184905260ff8616917fd50c9d621671c3fc38b7813912936d3cee3f956bdbf5f6c61b5091f2ff2b0fd5910160405180910390a2505060016009555050565b6009546001146113045760405162461bcd60e51b815260206004820152600a60248201527f53503a204c4f434b45440000000000000000000000000000000000000000000060448201526064016105f9565b60006009556005546001600160a01b031633146113635760405162461bcd60e51b815260206004820152600d60248201527f53503a202174696d656c6f636b0000000000000000000000000000000000000060448201526064016105f9565b6006546040517fbd5b622a0000000000000000000000000000000000000000000000000000000081526001600160a01b0383811660048301529091169063bd5b622a90602401602060405180830381865afa1580156113c6573d6000803e3d6000fd5b505050506040513d601f19601f820116820180604052508101906113ea9190612d03565b6114365760405162461bcd60e51b815260206004820152601a60248201527f53503a20496e76616c696420726577617264207265626173657200000000000060448201526064016105f9565b600060028360ff168154811061144e5761144e612c6d565b60009182526020909120600d909102016001810180547fffffffffffffffffffffffff0000000000000000000000000000000000000000166001600160a01b038516179055905061149e836114ea565b6040516001600160a01b038316815260ff8416907fe6b2c8a01867d369cd4952ca70fea492ef433a6ff31b8c8d15c4781f136e60ed906020015b60405180910390a25050600160095550565b600060028260ff168154811061150257611502612c6d565b90600052602060002090600d02019050600081600501549050600081421161152a574261152c565b815b600484015490915080821115611614576003546040517f70a082310000000000000000000000000000000000000000000000000000000081523060048201526000916001600160a01b0316906370a0823190602401602060405180830381865afa15801561159e573d6000803e3d6000fd5b505050506040513d601f19601f820116820180604052508101906115c29190612d25565b9050801561160b5760006115f282610c8b670de0b6b3a76400006115ec8b888a8d600601546118d4565b9061281a565b60078701549091506116049082612840565b6007870155505b50600484018290555b5050505050565b60008060028560ff168154811061163457611634612c6d565b90600052602060002090600d0201905060008160060154905081600301548510806116625750816005015485115b1561167257600092505050610a8c565b6000611680878787856118d4565b835490915061169a9088906001600160a01b0316836109b4565b979650505050505050565b6009546001146116f75760405162461bcd60e51b815260206004820152600a60248201527f53503a204c4f434b45440000000000000000000000000000000000000000000060448201526064016105f9565b6000600955600354611714906001600160a01b031633308461285d565b6109ac3361264f565b61172633610848565b565b6001600160a01b03811660009081526001602052604081206002805483919060ff871690811061175a5761175a612c6d565b600091825260208220600d919091020160078101546003546040517f70a082310000000000000000000000000000000000000000000000000000000081523060048201529294509092916001600160a01b03909116906370a0823190602401602060405180830381865afa1580156117d6573d6000803e3d6000fd5b505050506040513d601f19601f820116820180604052508101906117fa9190612d25565b600584015490915060004282106118115742611813565b815b6004860154909150808211801561182957508315155b1561186057600061185085610c8b670de0b6b3a76400006115ec8f87898e600601546118d4565b905061185c8682612840565b9550505b60ff8a16600090815260018801602090815260408083205460028b0190925282205489546118ab9291610c91916118a590670de0b6b3a764000090610c8b908d61281a565b90612840565b87549091506118c5908c906001600160a01b0316836109b4565b9b9a5050505050505050505050565b60008060028660ff16815481106118ed576118ed612c6d565b60009182526020909120600d9091020160028101549091506001600160a01b03168061192a57611921846115ec8789612832565b925050506119d4565b600382015460058301546040517e9fc047000000000000000000000000000000000000000000000000000000008152600481019290925260248201526044810187905260648101869052608481018590526001600160a01b03821690629fc0479060a401602060405180830381865afa1580156119ab573d6000803e3d6000fd5b505050506040513d601f19601f820116820180604052508101906119cf9190612d25565b925050505b949350505050565b600954600114611a2e5760405162461bcd60e51b815260206004820152600a60248201527f53503a204c4f434b45440000000000000000000000000000000000000000000060448201526064016105f9565b60006009556005546001600160a01b03163314611a8d5760405162461bcd60e51b815260206004820152600d60248201527f53503a202174696d656c6f636b0000000000000000000000000000000000000060448201526064016105f9565b60025460101015611ae05760405162461bcd60e51b815260206004820152601b60248201527f53503a2052657761726420706f6f6c206c656e677468203e203136000000000060448201526064016105f9565b6006546040517fbd5b622a0000000000000000000000000000000000000000000000000000000081526001600160a01b038a811660048301529091169063bd5b622a90602401602060405180830381865afa158015611b43573d6000803e3d6000fd5b505050506040513d601f19601f82011682018060405250810190611b679190612d03565b611bb35760405162461bcd60e51b815260206004820152601a60248201527f53503a20496e76616c696420726577617264207265626173657200000000000060448201526064016105f9565b6006546040517fa5120bd50000000000000000000000000000000000000000000000000000000081526001600160a01b0389811660048301529091169063a5120bd590602401602060405180830381865afa158015611c16573d6000803e3d6000fd5b505050506040513d601f19601f82011682018060405250810190611c3a9190612d03565b611c865760405162461bcd60e51b815260206004820152601d60248201527f53503a20496e76616c696420726577617264206d756c7469706c69657200000060448201526064016105f9565b80821115611cfc5760405162461bcd60e51b815260206004820152602560248201527f53503a20737461727456657374696e6754696d65203e20656e6456657374696e60448201527f6754696d6500000000000000000000000000000000000000000000000000000060648201526084016105f9565b854211611d095785611d0b565b425b9550848610611d5c5760405162461bcd60e51b815260206004820152601e60248201527f53503a20737461727454696d65203e3d20656e6452657761726454696d65000060448201526064016105f9565b6064831115611dad5760405162461bcd60e51b815260206004820152601d60248201527f53503a20696e76616c6964206c6f636b52657761726450657263656e7400000060448201526064016105f9565b611db5612375565b6002604051806101a001604052808b6001600160a01b031681526020018a6001600160a01b03168152602001896001600160a01b03168152602001888152602001888152602001878152602001868152602001600081526020018581526020018481526020018381526020018484611e2d9190612d3e565b815260006020918201819052835460018082018655948252908290208351600d9092020180547fffffffffffffffffffffffff00000000000000000000000000000000000000009081166001600160a01b0393841617825592840151818601805485169184169190911790556040840151600280830180549095169190931617909255606083015160038301556080830151600483015560a0830151600583015560c0830151600683015560e0830151600783015561010083015160088301556101208301516009830155610140830151600a830155610160830151600b83015561018090920151600c9091015554611f269190612d3e565b6040517fa2c202ffa25e71dc0d2875a9b67a9e2572541a0a246c21d72355cca968fd4be190600090a25050600160095550505050505050565b6000610abd82426104d2816001612ccb565b600954600114611fc35760405162461bcd60e51b815260206004820152600a60248201527f53503a204c4f434b45440000000000000000000000000000000000000000000060448201526064016105f9565b6000600955600854158061205757506006546040517fea74109e0000000000000000000000000000000000000000000000000000000081523060048201526001600160a01b039091169063ea74109e90602401602060405180830381865afa158015612033573d6000803e3d6000fd5b505050506040513d601f19601f820116820180604052508101906120579190612d03565b6120a35760405162461bcd60e51b815260206004820152601f60248201527f53503a204e6f7420616c6c6f7720656d657267656e637957697468647261770060448201526064016105f9565b33600090815260016020526040902080546007546120c19082612832565b600755600082556003546120df906001600160a01b0316338361250d565b60025460005b8160ff168160ff1610156121275760ff8116600090815260018501602090815260408083208390556002870190915281205561212081612ce3565b90506120e5565b505060016009555050565b6009546001146121845760405162461bcd60e51b815260206004820152600a60248201527f53503a204c4f434b45440000000000000000000000000000000000000000000060448201526064016105f9565b60006009556005546001600160a01b031633146121e35760405162461bcd60e51b815260206004820152600d60248201527f53503a202174696d656c6f636b0000000000000000000000000000000000000060448201526064016105f9565b6006546040517fa5120bd50000000000000000000000000000000000000000000000000000000081526001600160a01b0383811660048301529091169063a5120bd590602401602060405180830381865afa158015612246573d6000803e3d6000fd5b505050506040513d601f19601f8201168201806040525081019061226a9190612d03565b6122b65760405162461bcd60e51b815260206004820152601d60248201527f53503a20496e76616c696420726577617264206d756c7469706c69657200000060448201526064016105f9565b600060028360ff16815481106122ce576122ce612c6d565b60009182526020909120600d909102016002810180547fffffffffffffffffffffffff0000000000000000000000000000000000000000166001600160a01b038516179055905061231e836114ea565b6040516001600160a01b038316815260ff8416907fa5e6b0a10fde1bb3c6184cb03bd87ce234e172121088195454746cf4a2e8094d906020016114d8565b33600090815260016020526040902054611726906105ab565b60025460005b8160ff168160ff1610156123a257612392816114ea565b61239b81612ce3565b905061237b565b5050565b33600090815260016020526040902080548211156124065760405162461bcd60e51b815260206004820152601b60248201527f53503a20696e76616c696420776974686472617720616d6f756e74000000000060448201526064016105f9565b600854600682015461241791612840565b4210156124665760405162461bcd60e51b815260206004820152600a60248201527f53503a2066726f7a656e0000000000000000000000000000000000000000000060448201526064016105f9565b61246f33610848565b60075461247c9083612832565b600755805461248b9083612832565b815560025460005b8160ff168160ff161015612507576124e2670de0b6b3a7640000610c8b60028460ff16815481106124c6576124c6612c6d565b600091825260209091206007600d90920201015486549061281a565b60ff8216600090815260018501602052604090205561250081612ce3565b9050612493565b50505050565b604080516001600160a01b038481166024830152604480830185905283518084039091018152606490920183526020820180517bffffffffffffffffffffffffffffffffffffffffffffffffffffffff167fa9059cbb0000000000000000000000000000000000000000000000000000000017905291516000928392908716916125979190612d55565b6000604051808303816000865af19150503d80600081146125d4576040519150601f19603f3d011682016040523d82523d6000602084013e6125d9565b606091505b50915091508180156126035750805115806126035750808060200190518101906126039190612d03565b6116145760405162461bcd60e51b815260206004820152601f60248201527f5472616e7366657248656c7065723a205452414e534645525f4641494c45440060448201526064016105f9565b6007546003546040517f70a082310000000000000000000000000000000000000000000000000000000081523060048201526000926126e09290916001600160a01b03909116906370a0823190602401602060405180830381865afa1580156126bc573d6000803e3d6000fd5b505050506040513d601f19601f82011682018060405250810190610c919190612d25565b9050600081116127325760405162461bcd60e51b815260206004820152601360248201527f53503a20496e76616c69642062616c616e63650000000000000000000000000060448201526064016105f9565b60075461273f9082612840565b6007556001600160a01b038216600090815260016020526040902061276383610848565b805461276f9083612840565b815560025460005b8160ff168160ff1610156127cf576127aa670de0b6b3a7640000610c8b60028460ff16815481106124c6576124c6612c6d565b60ff821660009081526001850160205260409020556127c881612ce3565b9050612777565b504260068301556040518381526001600160a01b038516907fe1fffcc4923d04b559f4d29a8bfc6cda04eb5b0d3c460751c2402c5c5cc9109c9060200160405180910390a250505050565b6000610a8c8284612d90565b6000610a8c8284612dcd565b6000610a8c838360016129d4565b60008061284d8385612ccb565b9050610a8c8482101560006129f8565b604080516001600160a01b0385811660248301528481166044830152606480830185905283518084039091018152608490920183526020820180517bffffffffffffffffffffffffffffffffffffffffffffffffffffffff167f23b872dd0000000000000000000000000000000000000000000000000000000017905291516000928392908816916128ef9190612d55565b6000604051808303816000865af19150503d806000811461292c576040519150601f19603f3d011682016040523d82523d6000602084013e612931565b606091505b509150915081801561295b57508051158061295b57508080602001905181019061295b9190612d03565b6129cc5760405162461bcd60e51b8152602060048201526024808201527f5472616e7366657248656c7065723a205452414e534645525f46524f4d5f464160448201527f494c45440000000000000000000000000000000000000000000000000000000060648201526084016105f9565b505050505050565b60006129e384841115836129f8565b60006129ef8486612d3e565b95945050505050565b816123a25762461bcd60e51b600090815260206004526007602452600a808304818104828106603090810160101b848706949093060160081b929092010166524551230000300160c81b6044526123a291606490fd5b80356001600160a01b0381168114612a6557600080fd5b919050565b600060208284031215612a7c57600080fd5b610a8c82612a4e565b803560ff81168114612a6557600080fd5b60008060408385031215612aa957600080fd5b612ab283612a85565b9150612ac060208401612a4e565b90509250929050565b600060208284031215612adb57600080fd5b5035919050565b60008060008060808587031215612af857600080fd5b612b0185612a4e565b935060208501359250612b1660408601612a4e565b9150612b2460608601612a4e565b905092959194509250565b600080600060608486031215612b4457600080fd5b612b4d84612a85565b9250612b5b60208501612a4e565b9150604084013590509250925092565b600060208284031215612b7d57600080fd5b610a8c82612a85565b600080600060608486031215612b9b57600080fd5b612ba484612a85565b95602085013595506040909401359392505050565b60008060008060808587031215612bcf57600080fd5b612bd885612a85565b966020860135965060408601359560600135945092505050565b60008060008060008060008060006101208a8c031215612c1157600080fd5b612c1a8a612a4e565b9850612c2860208b01612a4e565b9750612c3660408b01612a4e565b989b979a5097986060810135985060808101359760a0820135975060c0820135965060e08201359550610100909101359350915050565b7f4e487b7100000000000000000000000000000000000000000000000000000000600052603260045260246000fd5b7f4e487b7100000000000000000000000000000000000000000000000000000000600052601160045260246000fd5b60008219821115612cde57612cde612c9c565b500190565b600060ff821660ff811415612cfa57612cfa612c9c565b60010192915050565b600060208284031215612d1557600080fd5b81518015158114610a8c57600080fd5b600060208284031215612d3757600080fd5b5051919050565b600082821015612d5057612d50612c9c565b500390565b6000825160005b81811015612d765760208186018101518583015201612d5c565b81811115612d85576000828501525b509190910192915050565b6000817fffffffffffffffffffffffffffffffffffffffffffffffffffffffffffffffff0483118215151615612dc857612dc8612c9c565b500290565b600082612e03577f4e487b7100000000000000000000000000000000000000000000000000000000600052601260045260246000fd5b50049056fea2646970667358221220cc247d392e19c4b6b552a2fead2e7822b75eaece4b4a0c9a48ca16f18fc1289e64736f6c634300080a0033",
  "linkReferences": {},
  "deployedLinkReferences": {}
}