{
  "_format": "hh-sol-artifact-1",
  "contractName": "EpochControllerMock",
  "sourceName": "contracts/test/EpochControllerMock.sol",
  "abi": [
    {
      "inputs": [
        {
          "internalType": "address",
          "name": "_rewardToken",
          "type": "address"
        }
      ],
      "stateMutability": "nonpayable",
      "type": "constructor"
    },
    {
      "inputs": [
        {
          "internalType": "uint256",
          "name": "_amount",
          "type": "uint256"
        },
        {
          "internalType": "address",
          "name": "_pool",
          "type": "address"
        }
      ],
      "name": "allocateSeigniorage",
      "outputs": [],
      "stateMutability": "nonpayable",
      "type": "function"
    },
    {
      "inputs": [],
      "name": "epoch",
      "outputs": [
        {
          "internalType": "uint256",
          "name": "",
          "type": "uint256"
        }
      ],
      "stateMutability": "view",
      "type": "function"
    },
    {
      "inputs": [],
      "name": "lastEpochTime",
      "outputs": [
        {
          "internalType": "uint256",
          "name": "",
          "type": "uint256"
        }
      ],
      "stateMutability": "view",
      "type": "function"
    },
    {
      "inputs": [
        {
          "internalType": "address",
          "name": "_pool",
          "type": "address"
        }
      ],
      "name": "nextEpochAllocatedReward",
      "outputs": [
        {
          "internalType": "uint256",
          "name": "",
          "type": "uint256"
        }
      ],
      "stateMutability": "view",
      "type": "function"
    },
    {
      "inputs": [],
      "name": "nextEpochLength",
      "outputs": [
        {
          "internalType": "uint256",
          "name": "",
          "type": "uint256"
        }
      ],
      "stateMutability": "view",
      "type": "function"
    },
    {
      "inputs": [],
      "name": "nextEpochPoint",
      "outputs": [
        {
          "internalType": "uint256",
          "name": "",
          "type": "uint256"
        }
      ],
      "stateMutability": "view",
      "type": "function"
    },
    {
      "inputs": [],
      "name": "resetEpochTime",
      "outputs": [],
      "stateMutability": "nonpayable",
      "type": "function"
    },
    {
      "inputs": [],
      "name": "rewardToken",
      "outputs": [
        {
          "internalType": "address",
          "name": "",
          "type": "address"
        }
      ],
      "stateMutability": "view",
      "type": "function"
    },
    {
      "inputs": [
        {
          "internalType": "uint256",
          "name": "_lastEpochTime",
          "type": "uint256"
        }
      ],
      "name": "updateEpochTime",
      "outputs": [],
      "stateMutability": "nonpayable",
      "type": "function"
    }
  ],
  "bytecode": "0x60806040526000805534801561001457600080fd5b506040516104c63803806104c683398101604081905261003391610058565b600180546001600160a01b0319166001600160a01b0392909216919091179055610088565b60006020828403121561006a57600080fd5b81516001600160a01b038116811461008157600080fd5b9392505050565b61042f806100976000396000f3fe608060405234801561001057600080fd5b50600436106100935760003560e01c80638bd3cb56116100665780638bd3cb56146100e1578063900cf0cf146100ea578063c5967c26146100f2578063f5ece52c146100fa578063f7c618c11461010d57600080fd5b806307284ce91461009857806322e6eabd146100af5780637effa5b6146100c457806389c614b8146100d8575b600080fd5b61a8c05b6040519081526020015b60405180910390f35b6100c26100bd36600461034a565b610138565b005b61009c6100d2366004610376565b50600090565b61009c60025481565b6100c242600255565b60005461009c565b61009c610317565b6100c2610108366004610398565b600255565b600154610120906001600160a01b031681565b6040516001600160a01b0390911681526020016100a6565b6000546101469060016103b1565b600055426002556001546040516323b872dd60e01b8152336004820152306024820152604481018490526001600160a01b03909116906323b872dd906064016020604051808303816000875af11580156101a4573d6000803e3d6000fd5b505050506040513d601f19601f820116820180604052508101906101c891906103d7565b5060015460405163095ea7b360e01b81526001600160a01b038381166004830152600060248301529091169063095ea7b3906044016020604051808303816000875af115801561021c573d6000803e3d6000fd5b505050506040513d601f19601f8201168201806040525081019061024091906103d7565b5060015460405163095ea7b360e01b81526001600160a01b038381166004830152602482018590529091169063095ea7b3906044016020604051808303816000875af1158015610294573d6000803e3d6000fd5b505050506040513d601f19601f820116820180604052508101906102b891906103d7565b5060405163716e5b0b60e11b8152600481018390526001600160a01b0382169063e2dcb61690602401600060405180830381600087803b1580156102fb57600080fd5b505af115801561030f573d6000803e3d6000fd5b505050505050565b600061a8c060025461032991906103b1565b905090565b80356001600160a01b038116811461034557600080fd5b919050565b6000806040838503121561035d57600080fd5b8235915061036d6020840161032e565b90509250929050565b60006020828403121561038857600080fd5b6103918261032e565b9392505050565b6000602082840312156103aa57600080fd5b5035919050565b600082198211156103d257634e487b7160e01b600052601160045260246000fd5b500190565b6000602082840312156103e957600080fd5b8151801515811461039157600080fdfea26469706673582212201791cc096c21229f58a4db93a080a892798bba7a3d8dcd4ecc71a7cade441b1564736f6c634300080a0033",
  "linkReferences": {},
  "deployedLinkReferences": {}
}