{
  "_format": "hh-sol-artifact-1",
  "contractName": "StakePoolRewardRebaserMock",
  "sourceName": "contracts/test/StakePoolRewardRebaserMock.sol",
  "abi": [
    {
      "inputs": [
        {
          "internalType": "uint256",
          "name": "_rate",
          "type": "uint256"
        }
      ],
      "stateMutability": "nonpayable",
      "type": "constructor"
    },
    {
      "inputs": [
        {
          "internalType": "address",
          "name": "rewardToken",
          "type": "address"
        },
        {
          "internalType": "uint256",
          "name": "baseAmount",
          "type": "uint256"
        }
      ],
      "name": "getRebaseAmount",
      "outputs": [
        {
          "internalType": "uint256",
          "name": "",
          "type": "uint256"
        }
      ],
      "stateMutability": "view",
      "type": "function"
    }
  ],
  "bytecode": "0x608060405234801561001057600080fd5b506040516101b93803806101b983398101604081905261002f91610037565b600055610050565b60006020828403121561004957600080fd5b5051919050565b61015a8061005f6000396000f3fe608060405234801561001057600080fd5b506004361061002b5760003560e01c80632e81056614610030575b600080fd5b61004361003e36600461009d565b610055565b60405190815260200160405180910390f35b600061007e670de0b6b3a76400006100786000548561008590919063ffffffff16565b90610091565b9392505050565b600061007e82846100d5565b600061007e8284610102565b600080604083850312156100b057600080fd5b82356001600160a01b03811681146100c757600080fd5b946020939093013593505050565b60008160001904831182151516156100fd57634e487b7160e01b600052601160045260246000fd5b500290565b60008261011f57634e487b7160e01b600052601260045260246000fd5b50049056fea2646970667358221220878eaa9433a5636ad3ab93bb98904d8caebc7a29bba9931f58e2b14add4de05864736f6c634300080a0033",
  "linkReferences": {},
  "deployedLinkReferences": {}
}