{
  "_format": "hh-sol-artifact-1",
  "contractName": "RequiemQRouterBackup",
  "sourceName": "contracts/RequiemQRouterBackup.sol",
  "abi": [
    {
      "inputs": [
        {
          "internalType": "address",
          "name": "_factory",
          "type": "address"
        },
        {
          "internalType": "address",
          "name": "_WETH",
          "type": "address"
        }
      ],
      "stateMutability": "nonpayable",
      "type": "constructor"
    },
    {
      "anonymous": false,
      "inputs": [
        {
          "indexed": false,
          "internalType": "address",
          "name": "pair",
          "type": "address"
        },
        {
          "indexed": false,
          "internalType": "uint256",
          "name": "amountOut",
          "type": "uint256"
        },
        {
          "indexed": false,
          "internalType": "address",
          "name": "output",
          "type": "address"
        }
      ],
      "name": "Exchange",
      "type": "event"
    },
    {
      "inputs": [],
      "name": "WETH",
      "outputs": [
        {
          "internalType": "address",
          "name": "",
          "type": "address"
        }
      ],
      "stateMutability": "view",
      "type": "function"
    },
    {
      "inputs": [],
      "name": "factory",
      "outputs": [
        {
          "internalType": "address",
          "name": "",
          "type": "address"
        }
      ],
      "stateMutability": "view",
      "type": "function"
    },
    {
      "inputs": [],
      "name": "formula",
      "outputs": [
        {
          "internalType": "address",
          "name": "",
          "type": "address"
        }
      ],
      "stateMutability": "view",
      "type": "function"
    },
    {
      "inputs": [
        {
          "components": [
            {
              "internalType": "address",
              "name": "pool",
              "type": "address"
            },
            {
              "internalType": "address",
              "name": "tokenIn",
              "type": "address"
            },
            {
              "internalType": "address",
              "name": "tokenOut",
              "type": "address"
            },
            {
              "internalType": "uint256",
              "name": "swapAmount",
              "type": "uint256"
            },
            {
              "internalType": "uint256",
              "name": "limitReturnAmount",
              "type": "uint256"
            },
            {
              "internalType": "uint256",
              "name": "maxPrice",
              "type": "uint256"
            }
          ],
          "internalType": "struct IRequiemQRouter.Swap[][]",
          "name": "swapSequences",
          "type": "tuple[][]"
        },
        {
          "internalType": "address",
          "name": "tokenIn",
          "type": "address"
        },
        {
          "internalType": "address",
          "name": "tokenOut",
          "type": "address"
        },
        {
          "internalType": "uint256",
          "name": "totalAmountIn",
          "type": "uint256"
        },
        {
          "internalType": "uint256",
          "name": "minTotalAmountOut",
          "type": "uint256"
        },
        {
          "internalType": "uint256",
          "name": "deadline",
          "type": "uint256"
        }
      ],
      "name": "multihopBatchSwapExactIn",
      "outputs": [
        {
          "internalType": "uint256",
          "name": "totalAmountOut",
          "type": "uint256"
        }
      ],
      "stateMutability": "payable",
      "type": "function"
    },
    {
      "inputs": [
        {
          "components": [
            {
              "internalType": "address",
              "name": "pool",
              "type": "address"
            },
            {
              "internalType": "address",
              "name": "tokenIn",
              "type": "address"
            },
            {
              "internalType": "address",
              "name": "tokenOut",
              "type": "address"
            },
            {
              "internalType": "uint256",
              "name": "swapAmount",
              "type": "uint256"
            },
            {
              "internalType": "uint256",
              "name": "limitReturnAmount",
              "type": "uint256"
            },
            {
              "internalType": "uint256",
              "name": "maxPrice",
              "type": "uint256"
            }
          ],
          "internalType": "struct IRequiemQRouter.Swap[][]",
          "name": "swapSequences",
          "type": "tuple[][]"
        },
        {
          "internalType": "address",
          "name": "tokenIn",
          "type": "address"
        },
        {
          "internalType": "address",
          "name": "tokenOut",
          "type": "address"
        },
        {
          "internalType": "uint256",
          "name": "maxTotalAmountIn",
          "type": "uint256"
        },
        {
          "internalType": "uint256",
          "name": "deadline",
          "type": "uint256"
        }
      ],
      "name": "multihopBatchSwapExactOut",
      "outputs": [
        {
          "internalType": "uint256",
          "name": "totalAmountIn",
          "type": "uint256"
        }
      ],
      "stateMutability": "payable",
      "type": "function"
    },
    {
      "inputs": [
        {
          "internalType": "address",
          "name": "tokenOut",
          "type": "address"
        },
        {
          "internalType": "uint256",
          "name": "amountOut",
          "type": "uint256"
        },
        {
          "internalType": "address[]",
          "name": "path",
          "type": "address[]"
        },
        {
          "internalType": "address",
          "name": "to",
          "type": "address"
        },
        {
          "internalType": "uint256",
          "name": "deadline",
          "type": "uint256"
        }
      ],
      "name": "onSwapETHForExactTokens",
      "outputs": [
        {
          "internalType": "uint256[]",
          "name": "amounts",
          "type": "uint256[]"
        }
      ],
      "stateMutability": "payable",
      "type": "function"
    },
    {
      "inputs": [
        {
          "components": [
            {
              "internalType": "uint8",
              "name": "structure",
              "type": "uint8"
            },
            {
              "internalType": "address",
              "name": "pool",
              "type": "address"
            },
            {
              "internalType": "address",
              "name": "tokenIn",
              "type": "address"
            },
            {
              "internalType": "address",
              "name": "tokenOut",
              "type": "address"
            }
          ],
          "internalType": "struct IRequiemSwap.QSwapStep[]",
          "name": "params",
          "type": "tuple[]"
        },
        {
          "internalType": "uint256",
          "name": "amountOutMin",
          "type": "uint256"
        },
        {
          "internalType": "address",
          "name": "to",
          "type": "address"
        },
        {
          "internalType": "uint256",
          "name": "deadline",
          "type": "uint256"
        }
      ],
      "name": "onSwapExactETHForTokens",
      "outputs": [
        {
          "internalType": "uint256",
          "name": "amountLast",
          "type": "uint256"
        }
      ],
      "stateMutability": "payable",
      "type": "function"
    },
    {
      "inputs": [
        {
          "components": [
            {
              "internalType": "uint8",
              "name": "structure",
              "type": "uint8"
            },
            {
              "internalType": "address",
              "name": "pool",
              "type": "address"
            },
            {
              "internalType": "address",
              "name": "tokenIn",
              "type": "address"
            },
            {
              "internalType": "address",
              "name": "tokenOut",
              "type": "address"
            }
          ],
          "internalType": "struct IRequiemSwap.QSwapStep[]",
          "name": "params",
          "type": "tuple[]"
        },
        {
          "internalType": "uint256",
          "name": "amountIn",
          "type": "uint256"
        },
        {
          "internalType": "uint256",
          "name": "amountOutMin",
          "type": "uint256"
        },
        {
          "internalType": "address",
          "name": "to",
          "type": "address"
        },
        {
          "internalType": "uint256",
          "name": "deadline",
          "type": "uint256"
        }
      ],
      "name": "onSwapExactTokensForETH",
      "outputs": [
        {
          "internalType": "uint256",
          "name": "amountLast",
          "type": "uint256"
        }
      ],
      "stateMutability": "nonpayable",
      "type": "function"
    },
    {
      "inputs": [
        {
          "components": [
            {
              "internalType": "uint8",
              "name": "structure",
              "type": "uint8"
            },
            {
              "internalType": "address",
              "name": "pool",
              "type": "address"
            },
            {
              "internalType": "address",
              "name": "tokenIn",
              "type": "address"
            },
            {
              "internalType": "address",
              "name": "tokenOut",
              "type": "address"
            }
          ],
          "internalType": "struct IRequiemSwap.QSwapStep[]",
          "name": "params",
          "type": "tuple[]"
        },
        {
          "internalType": "uint256",
          "name": "amountIn",
          "type": "uint256"
        },
        {
          "internalType": "uint256",
          "name": "amountOutMin",
          "type": "uint256"
        },
        {
          "internalType": "address",
          "name": "to",
          "type": "address"
        },
        {
          "internalType": "uint256",
          "name": "deadline",
          "type": "uint256"
        }
      ],
      "name": "onSwapExactTokensForTokens",
      "outputs": [
        {
          "internalType": "uint256",
          "name": "amountLast",
          "type": "uint256"
        }
      ],
      "stateMutability": "nonpayable",
      "type": "function"
    },
    {
      "inputs": [
        {
          "components": [
            {
              "internalType": "uint8",
              "name": "structure",
              "type": "uint8"
            },
            {
              "internalType": "address",
              "name": "pool",
              "type": "address"
            },
            {
              "internalType": "address",
              "name": "tokenIn",
              "type": "address"
            },
            {
              "internalType": "address",
              "name": "tokenOut",
              "type": "address"
            }
          ],
          "internalType": "struct IRequiemSwap.QSwapStep[]",
          "name": "params",
          "type": "tuple[]"
        },
        {
          "internalType": "uint256",
          "name": "amountOut",
          "type": "uint256"
        },
        {
          "internalType": "uint256",
          "name": "amountInMax",
          "type": "uint256"
        },
        {
          "internalType": "address",
          "name": "to",
          "type": "address"
        },
        {
          "internalType": "uint256",
          "name": "deadline",
          "type": "uint256"
        }
      ],
      "name": "onSwapTokensForExactETH",
      "outputs": [
        {
          "internalType": "uint256[]",
          "name": "amounts",
          "type": "uint256[]"
        }
      ],
      "stateMutability": "nonpayable",
      "type": "function"
    },
    {
      "inputs": [
        {
          "components": [
            {
              "internalType": "uint8",
              "name": "structure",
              "type": "uint8"
            },
            {
              "internalType": "address",
              "name": "pool",
              "type": "address"
            },
            {
              "internalType": "address",
              "name": "tokenIn",
              "type": "address"
            },
            {
              "internalType": "address",
              "name": "tokenOut",
              "type": "address"
            }
          ],
          "internalType": "struct IRequiemSwap.QSwapStep[]",
          "name": "params",
          "type": "tuple[]"
        },
        {
          "internalType": "uint256",
          "name": "amountOut",
          "type": "uint256"
        },
        {
          "internalType": "uint256",
          "name": "amountInMax",
          "type": "uint256"
        },
        {
          "internalType": "address",
          "name": "to",
          "type": "address"
        },
        {
          "internalType": "uint256",
          "name": "deadline",
          "type": "uint256"
        }
      ],
      "name": "onSwapTokensForExactTokens",
      "outputs": [
        {
          "internalType": "uint256[]",
          "name": "amounts",
          "type": "uint256[]"
        }
      ],
      "stateMutability": "nonpayable",
      "type": "function"
    },
    {
      "inputs": [
        {
          "internalType": "address",
          "name": "tokenOut",
          "type": "address"
        },
        {
          "internalType": "uint256",
          "name": "amountOut",
          "type": "uint256"
        },
        {
          "internalType": "address[]",
          "name": "path",
          "type": "address[]"
        },
        {
          "internalType": "address",
          "name": "to",
          "type": "address"
        },
        {
          "internalType": "uint256",
          "name": "deadline",
          "type": "uint256"
        }
      ],
      "name": "swapETHForExactTokens",
      "outputs": [
        {
          "internalType": "uint256[]",
          "name": "amounts",
          "type": "uint256[]"
        }
      ],
      "stateMutability": "payable",
      "type": "function"
    },
    {
      "inputs": [
        {
          "internalType": "address",
          "name": "tokenOut",
          "type": "address"
        },
        {
          "internalType": "uint256",
          "name": "amountOutMin",
          "type": "uint256"
        },
        {
          "internalType": "address[]",
          "name": "path",
          "type": "address[]"
        },
        {
          "internalType": "address",
          "name": "to",
          "type": "address"
        },
        {
          "internalType": "uint256",
          "name": "deadline",
          "type": "uint256"
        }
      ],
      "name": "swapExactETHForTokens",
      "outputs": [
        {
          "internalType": "uint256[]",
          "name": "amounts",
          "type": "uint256[]"
        }
      ],
      "stateMutability": "payable",
      "type": "function"
    },
    {
      "inputs": [
        {
          "internalType": "address",
          "name": "tokenOut",
          "type": "address"
        },
        {
          "internalType": "uint256",
          "name": "amountOutMin",
          "type": "uint256"
        },
        {
          "internalType": "address[]",
          "name": "path",
          "type": "address[]"
        },
        {
          "internalType": "address",
          "name": "to",
          "type": "address"
        },
        {
          "internalType": "uint256",
          "name": "deadline",
          "type": "uint256"
        }
      ],
      "name": "swapExactETHForTokensSupportingFeeOnTransferTokens",
      "outputs": [],
      "stateMutability": "payable",
      "type": "function"
    },
    {
      "inputs": [
        {
          "internalType": "address",
          "name": "tokenIn",
          "type": "address"
        },
        {
          "internalType": "uint256",
          "name": "amountIn",
          "type": "uint256"
        },
        {
          "internalType": "uint256",
          "name": "amountOutMin",
          "type": "uint256"
        },
        {
          "internalType": "address[]",
          "name": "path",
          "type": "address[]"
        },
        {
          "internalType": "address",
          "name": "to",
          "type": "address"
        },
        {
          "internalType": "uint256",
          "name": "deadline",
          "type": "uint256"
        }
      ],
      "name": "swapExactTokensForETH",
      "outputs": [
        {
          "internalType": "uint256[]",
          "name": "amounts",
          "type": "uint256[]"
        }
      ],
      "stateMutability": "nonpayable",
      "type": "function"
    },
    {
      "inputs": [
        {
          "internalType": "address",
          "name": "tokenIn",
          "type": "address"
        },
        {
          "internalType": "uint256",
          "name": "amountIn",
          "type": "uint256"
        },
        {
          "internalType": "uint256",
          "name": "amountOutMin",
          "type": "uint256"
        },
        {
          "internalType": "address[]",
          "name": "path",
          "type": "address[]"
        },
        {
          "internalType": "address",
          "name": "to",
          "type": "address"
        },
        {
          "internalType": "uint256",
          "name": "deadline",
          "type": "uint256"
        }
      ],
      "name": "swapExactTokensForETHSupportingFeeOnTransferTokens",
      "outputs": [],
      "stateMutability": "nonpayable",
      "type": "function"
    },
    {
      "inputs": [
        {
          "internalType": "address",
          "name": "tokenIn",
          "type": "address"
        },
        {
          "internalType": "address",
          "name": "tokenOut",
          "type": "address"
        },
        {
          "internalType": "uint256",
          "name": "amountIn",
          "type": "uint256"
        },
        {
          "internalType": "uint256",
          "name": "amountOutMin",
          "type": "uint256"
        },
        {
          "internalType": "address[]",
          "name": "path",
          "type": "address[]"
        },
        {
          "internalType": "address",
          "name": "to",
          "type": "address"
        },
        {
          "internalType": "uint256",
          "name": "deadline",
          "type": "uint256"
        }
      ],
      "name": "swapExactTokensForTokens",
      "outputs": [
        {
          "internalType": "uint256[]",
          "name": "amounts",
          "type": "uint256[]"
        }
      ],
      "stateMutability": "nonpayable",
      "type": "function"
    },
    {
      "inputs": [
        {
          "internalType": "address",
          "name": "tokenIn",
          "type": "address"
        },
        {
          "internalType": "address",
          "name": "tokenOut",
          "type": "address"
        },
        {
          "internalType": "uint256",
          "name": "amountIn",
          "type": "uint256"
        },
        {
          "internalType": "uint256",
          "name": "amountOutMin",
          "type": "uint256"
        },
        {
          "internalType": "address[]",
          "name": "path",
          "type": "address[]"
        },
        {
          "internalType": "address",
          "name": "to",
          "type": "address"
        },
        {
          "internalType": "uint256",
          "name": "deadline",
          "type": "uint256"
        }
      ],
      "name": "swapExactTokensForTokensSupportingFeeOnTransferTokens",
      "outputs": [],
      "stateMutability": "nonpayable",
      "type": "function"
    },
    {
      "inputs": [
        {
          "internalType": "address",
          "name": "tokenIn",
          "type": "address"
        },
        {
          "internalType": "uint256",
          "name": "amountOut",
          "type": "uint256"
        },
        {
          "internalType": "uint256",
          "name": "amountInMax",
          "type": "uint256"
        },
        {
          "internalType": "address[]",
          "name": "path",
          "type": "address[]"
        },
        {
          "internalType": "address",
          "name": "to",
          "type": "address"
        },
        {
          "internalType": "uint256",
          "name": "deadline",
          "type": "uint256"
        }
      ],
      "name": "swapTokensForExactETH",
      "outputs": [
        {
          "internalType": "uint256[]",
          "name": "amounts",
          "type": "uint256[]"
        }
      ],
      "stateMutability": "nonpayable",
      "type": "function"
    },
    {
      "inputs": [
        {
          "internalType": "address",
          "name": "tokenIn",
          "type": "address"
        },
        {
          "internalType": "address",
          "name": "tokenOut",
          "type": "address"
        },
        {
          "internalType": "uint256",
          "name": "amountOut",
          "type": "uint256"
        },
        {
          "internalType": "uint256",
          "name": "amountInMax",
          "type": "uint256"
        },
        {
          "internalType": "address[]",
          "name": "path",
          "type": "address[]"
        },
        {
          "internalType": "address",
          "name": "to",
          "type": "address"
        },
        {
          "internalType": "uint256",
          "name": "deadline",
          "type": "uint256"
        }
      ],
      "name": "swapTokensForExactTokens",
      "outputs": [
        {
          "internalType": "uint256[]",
          "name": "amounts",
          "type": "uint256[]"
        }
      ],
      "stateMutability": "nonpayable",
      "type": "function"
    },
    {
      "stateMutability": "payable",
      "type": "receive"
    }
  ],
  "bytecode": "0x60e06040523480156200001157600080fd5b5060405162005ba638038062005ba68339810160408190526200003491620000db565b6001600160a01b038216608081905260408051634b75f54f60e01b81529051634b75f54f916004808201926020929091908290030181865afa1580156200007f573d6000803e3d6000fd5b505050506040513d601f19601f82011682018060405250810190620000a5919062000113565b6001600160a01b0390811660a0521660c0525062000138565b80516001600160a01b0381168114620000d657600080fd5b919050565b60008060408385031215620000ef57600080fd5b620000fa83620000be565b91506200010a60208401620000be565b90509250929050565b6000602082840312156200012657600080fd5b6200013182620000be565b9392505050565b60805160a05160c0516159736200023360003960008181610173015281816103150152818161048e0152818161053b015281816106e6015281816108f101528181610f940152818161204601528181613235015281816132e70152818161335f01528181613506015281816135b401528181613fb70152818161406901526144e10152600081816101e201528181611252015281816133ed01528181613b5001528181613d0c0152818161416f015281816145d80152818161479a01526148f5015260008181610369015281816112810152818161341a01528181613b7f0152818161419c01528181614605015261475501526159736000f3fe6080604052600436106101635760003560e01c8063ad5c4648116100c0578063ce81963211610074578063ee63113f11610059578063ee63113f146103de578063fa3219d5146103fe578063fde1adda1461041e57600080fd5b8063ce819632146103ab578063d59e44ee146103be57600080fd5b8063bff51d71116100a5578063bff51d7114610337578063c45a015514610357578063ca5708db1461038b57600080fd5b8063ad5c464814610303578063b05f579e146101a757600080fd5b8063840c34d011610117578063944264fe116100fc578063944264fe146102b05780639c91fcb5146102c3578063a67d0e3c146102e357600080fd5b8063840c34d01461026f57806393b2dfe01461029057600080fd5b80635cae0310116101485780635cae03101461021c578063674ee80b1461023c57806370e3adcc1461024f57600080fd5b806327a94422146101a75780634b75f54f146101d057600080fd5b366101a257336001600160a01b037f000000000000000000000000000000000000000000000000000000000000000016146101a0576101a0614db5565b005b600080fd5b6101ba6101b5366004614e53565b610431565b6040516101c79190614ecf565b60405180910390f35b3480156101dc57600080fd5b506102047f000000000000000000000000000000000000000000000000000000000000000081565b6040516001600160a01b0390911681526020016101c7565b34801561022857600080fd5b506101a0610237366004614f13565b6105f2565b6101a061024a366004614e53565b6107fc565b34801561025b57600080fd5b506101ba61026a36600461512d565b610a5b565b61028261027d3660046152d3565b6110a5565b6040519081526020016101c7565b34801561029c57600080fd5b506101ba6102ab36600461512d565b611490565b6102826102be366004615347565b611939565b3480156102cf57600080fd5b506101ba6102de366004614f13565b611fed565b3480156102ef57600080fd5b506101a06102fe3660046153a8565b612174565b34801561030f57600080fd5b506102047f000000000000000000000000000000000000000000000000000000000000000081565b34801561034357600080fd5b506101ba610352366004615441565b6123aa565b34801561036357600080fd5b506102047f000000000000000000000000000000000000000000000000000000000000000081565b34801561039757600080fd5b506102826103a636600461512d565b612457565b6102826103b9366004615530565b612914565b3480156103ca57600080fd5b506101ba6103d93660046153a8565b612c6c565b3480156103ea57600080fd5b506102826103f936600461512d565b612d66565b34801561040a57600080fd5b506101ba610419366004614f13565b6131dc565b6101ba61042c366004614e53565b61328f565b606081428110156104895760405162461bcd60e51b815260206004820152600f60248201527f526f757465723a2045585049524544000000000000000000000000000000000060448201526064015b60405180910390fd5b6104e97f00000000000000000000000000000000000000000000000000000000000000008989348a8a808060200260200160405190810160405280939291908181526020018383602002808284376000920191909152506133ba92505050565b915061053682600081518110610501576105016155ae565b60200260200101518787600081811061051c5761051c6155ae565b905060200201602081019061053191906155dd565b613504565b6105967f0000000000000000000000000000000000000000000000000000000000000000838888808060200260200160405190810160405280939291908181526020018383602002808284376000920191909152508a9250613635915050565b816000815181106105a9576105a96155ae565b60200260200101513411156105e7576105e733836000815181106105cf576105cf6155ae565b6020026020010151346105e29190615629565b6138be565b509695505050505050565b80428110156106435760405162461bcd60e51b815260206004820152600f60248201527f526f757465723a204558504952454400000000000000000000000000000000006044820152606401610480565b61067688338787600081811061065b5761065b6155ae565b905060200201602081019061067091906155dd565b8a6139a6565b6106b588868680806020026020016040519081016040528093929190818152602001838360200280828437600092019190915250309250613b15915050565b6040517f70a082310000000000000000000000000000000000000000000000000000000081523060048201526000907f00000000000000000000000000000000000000000000000000000000000000006001600160a01b0316906370a0823190602401602060405180830381865afa158015610735573d6000803e3d6000fd5b505050506040513d601f19601f820116820180604052508101906107599190615640565b9050868110156107d15760405162461bcd60e51b815260206004820152602260248201527f526f757465723a20494e53554646494349454e545f4f55545055545f414d4f5560448201527f4e540000000000000000000000000000000000000000000000000000000000006064820152608401610480565b6107f073eeeeeeeeeeeeeeeeeeeeeeeeeeeeeeeeeeeeeeee8583613f54565b50505050505050505050565b804281101561084d5760405162461bcd60e51b815260206004820152600f60248201527f526f757465723a204558504952454400000000000000000000000000000000006044820152606401610480565b3461086381878760008161051c5761051c6155ae565b6040517f70a082310000000000000000000000000000000000000000000000000000000081526001600160a01b038581166004830152600091908a16906370a0823190602401602060405180830381865afa1580156108c6573d6000803e3d6000fd5b505050506040513d601f19601f820116820180604052508101906108ea9190615640565b905061094b7f00000000000000000000000000000000000000000000000000000000000000008888808060200260200160405190810160405280939291908181526020018383602002808284376000920191909152508a9250613b15915050565b6040517f70a082310000000000000000000000000000000000000000000000000000000081526001600160a01b038681166004830152899183918c16906370a0823190602401602060405180830381865afa1580156109ae573d6000803e3d6000fd5b505050506040513d601f19601f820116820180604052508101906109d29190615640565b6109dc9190615629565b1015610a505760405162461bcd60e51b815260206004820152602260248201527f526f757465723a20494e53554646494349454e545f4f55545055545f414d4f5560448201527f4e540000000000000000000000000000000000000000000000000000000000006064820152608401610480565b505050505050505050565b60608142811015610aae5760405162461bcd60e51b815260206004820152600f60248201527f526f757465723a204558504952454400000000000000000000000000000000006044820152606401610480565b8651610abb906001615659565b67ffffffffffffffff811115610ad357610ad3614f9a565b604051908082528060200260200182016040528015610afc578160200160208202803683370190505b5091508582885181518110610b1357610b136155ae565b602090810291909101015286515b8015610c955787610b33600183615629565b81518110610b4357610b436155ae565b6020026020010151602001516001600160a01b031663cc56fd4389600184610b6b9190615629565b81518110610b7b57610b7b6155ae565b6020026020010151604001518a600185610b959190615629565b81518110610ba557610ba56155ae565b602002602001015160600151868581518110610bc357610bc36155ae565b60209081029190910101516040517fffffffff0000000000000000000000000000000000000000000000000000000060e086901b1681526001600160a01b0393841660048201529290911660248301526044820152606401602060405180830381865afa158015610c38573d6000803e3d6000fd5b505050506040513d601f19601f82011682018060405250810190610c5c9190615640565b83610c68600184615629565b81518110610c7857610c786155ae565b602090810291909101015280610c8d81615671565b915050610b21565b508482600081518110610caa57610caa6155ae565b60200260200101511115610d005760405162461bcd60e51b815260206004820152600f60248201527f4558434553534956455f494e50555400000000000000000000000000000000006044820152606401610480565b610d6287600081518110610d1657610d166155ae565b6020026020010151604001513389600081518110610d3657610d366155ae565b60200260200101516020015185600081518110610d5557610d556155ae565b60200260200101516139a6565b60005b60018851610d739190615629565b811015610f2d57878181518110610d8c57610d8c6155ae565b6020026020010151602001516001600160a01b0316634ac00e03898381518110610db857610db86155ae565b6020026020010151604001518a8481518110610dd657610dd66155ae565b602002602001015160600151868581518110610df457610df46155ae565b60200260200101518c8681518110610e0e57610e0e6155ae565b60200260200101516000015160ff16600014610e2b576000610e50565b87610e37876001615659565b81518110610e4757610e476155ae565b60200260200101515b8d610e5c886001615659565b81518110610e6c57610e6c6155ae565b60209081029190910181015101516040517fffffffff0000000000000000000000000000000000000000000000000000000060e088901b1681526001600160a01b03958616600482015293851660248501526044840192909252606483015291909116608482015260a4016020604051808303816000875af1158015610ef6573d6000803e3d6000fd5b505050506040513d601f19601f82011682018060405250810190610f1a9190615640565b5080610f25816156a6565b915050610d65565b508660018851610f3d9190615629565b81518110610f4d57610f4d6155ae565b6020026020010151602001516001600160a01b0316634ac00e038860018a51610f769190615629565b81518110610f8657610f866155ae565b6020026020010151604001517f00000000000000000000000000000000000000000000000000000000000000008560018c51610fc29190615629565b81518110610fd257610fd26155ae565b60209081029190910101516040517fffffffff0000000000000000000000000000000000000000000000000000000060e086901b1681526001600160a01b03938416600482015292909116602483015260448201526064810189905230608482015260a4016020604051808303816000875af1158015611056573d6000803e3d6000fd5b505050506040513d601f19601f8201168201806040525081019061107a9190615640565b5061109a73eeeeeeeeeeeeeeeeeeeeeeeeeeeeeeeeeeeeeeee8588613f54565b505095945050505050565b600081428110156110f85760405162461bcd60e51b815260206004820152600f60248201527f526f757465723a204558504952454400000000000000000000000000000000006044820152606401610480565b6111028685614040565b5060005b875181101561141d576000888281518110611123576111236155ae565b60200260200101515160011415611195576000898381518110611148576111486155ae565b6020026020010151600081518110611162576111626155ae565b6020026020010151905061118d816020015182604001518360000151846060015185608001516140f5565b9150506113fd565b6000808a84815181106111aa576111aa6155ae565b60200260200101516001815181106111c4576111c46155ae565b602002602001015190506000600167ffffffffffffffff8111156111ea576111ea614f9a565b604051908082528060200260200182016040528015611213578160200160208202803683370190505b50905081600001518160008151811061122e5761122e6155ae565b60200260200101906001600160a01b031690816001600160a01b03168152505060007f00000000000000000000000000000000000000000000000000000000000000006001600160a01b03166367f84adc7f0000000000000000000000000000000000000000000000000000000000000000856020015186604001518760600151876040518663ffffffff1660e01b81526004016112d09594939291906156df565b600060405180830381865afa1580156112ed573d6000803e3d6000fd5b505050506040513d6000823e601f3d908101601f191682016040526113159190810190615753565b90508060008151811061132a5761132a6155ae565b6020026020010151935082608001518411156113885760405162461bcd60e51b815260206004820152601e60248201527f526f757465723a204558434553534956455f494e5055545f414d4f554e5400006044820152606401610480565b505060008b858151811061139e5761139e6155ae565b60200260200101516000815181106113b8576113b86155ae565b602002602001015190506113df8160200151826040015183600001518685608001516140f5565b93506113f9826020015183600001518585606001516142a2565b5050505b6114078185615659565b9350508080611415906156a6565b915050611106565b508382111561146e5760405162461bcd60e51b815260206004820152600c60248201527f4552525f4c494d49545f494e00000000000000000000000000000000000000006044820152606401610480565b611481853361147c8861448c565b613f54565b5061109a863361147c8961448c565b606081428110156114e35760405162461bcd60e51b815260206004820152600f60248201527f526f757465723a204558504952454400000000000000000000000000000000006044820152606401610480565b86516114f0906001615659565b67ffffffffffffffff81111561150857611508614f9a565b604051908082528060200260200182016040528015611531578160200160208202803683370190505b5091508582885181518110611548576115486155ae565b6020026020010181815250506000600183516115649190615629565b90505b80156116db5787611579600183615629565b81518110611589576115896155ae565b6020026020010151602001516001600160a01b031663cc56fd43896001846115b19190615629565b815181106115c1576115c16155ae565b6020026020010151604001518a6001856115db9190615629565b815181106115eb576115eb6155ae565b602002602001015160600151868581518110611609576116096155ae565b60209081029190910101516040517fffffffff0000000000000000000000000000000000000000000000000000000060e086901b1681526001600160a01b0393841660048201529290911660248301526044820152606401602060405180830381865afa15801561167e573d6000803e3d6000fd5b505050506040513d601f19601f820116820180604052508101906116a29190615640565b836116ae600184615629565b815181106116be576116be6155ae565b6020908102919091010152806116d381615671565b915050611567565b5084826000815181106116f0576116f06155ae565b602002602001015111156117465760405162461bcd60e51b815260206004820152600f60248201527f4558434553534956455f494e50555400000000000000000000000000000000006044820152606401610480565b61175c87600081518110610d1657610d166155ae565b60005b875181101561109a576000600189516117789190615629565b82146117ab578861178a836001615659565b8151811061179a5761179a6155ae565b6020026020010151602001516117ad565b855b90508882815181106117c1576117c16155ae565b6020026020010151602001516001600160a01b0316634ac00e038a84815181106117ed576117ed6155ae565b6020026020010151604001518b858151811061180b5761180b6155ae565b602002602001015160600151878681518110611829576118296155ae565b60200260200101518d8781518110611843576118436155ae565b60200260200101516000015160ff16600014611860576000611885565b8861186c886001615659565b8151811061187c5761187c6155ae565b60200260200101515b6040517fffffffff0000000000000000000000000000000000000000000000000000000060e087901b1681526001600160a01b039485166004820152928416602484015260448301919091526064820152908416608482015260a4016020604051808303816000875af1158015611900573d6000803e3d6000fd5b505050506040513d601f19601f820116820180604052508101906119249190615640565b50508080611931906156a6565b91505061175f565b6000814281101561198c5760405162461bcd60e51b815260206004820152600f60248201527f526f757465723a204558504952454400000000000000000000000000000000006044820152606401610480565b60003490506119b934886000815181106119a8576119a86155ae565b602002602001015160200151613504565b866000815181106119cc576119cc6155ae565b6020026020010151602001516001600160a01b031663e9255bae886000815181106119f9576119f96155ae565b60200260200101516040015189600081518110611a1857611a186155ae565b6020908102919091010151606001516040517fffffffff0000000000000000000000000000000000000000000000000000000060e085901b1681526001600160a01b0392831660048201529116602482015260448101849052606401602060405180830381865afa158015611a91573d6000803e3d6000fd5b505050506040513d601f19601f82011682018060405250810190611ab59190615640565b925086600081518110611aca57611aca6155ae565b6020026020010151602001516001600160a01b0316634ac00e0388600081518110611af757611af76155ae565b60200260200101516040015189600081518110611b1657611b166155ae565b60200260200101516060015184878c600181518110611b3757611b376155ae565b60209081029190910181015101516040517fffffffff0000000000000000000000000000000000000000000000000000000060e088901b1681526001600160a01b03958616600482015293851660248501526044840192909252606483015291909116608482015260a4016020604051808303816000875af1158015611bc1573d6000803e3d6000fd5b505050506040513d601f19601f82011682018060405250810190611be59190615640565b5060015b8751811015611f9257600060018951611c029190615629565b8214611c355788611c14836001615659565b81518110611c2457611c246155ae565b602002602001015160200151611c37565b865b9050888281518110611c4b57611c4b6155ae565b60200260200101516000015160ff1660001415611e7157849250888281518110611c7757611c776155ae565b6020026020010151602001516001600160a01b031663e9255bae8a8481518110611ca357611ca36155ae565b6020026020010151604001518b8581518110611cc157611cc16155ae565b6020908102919091010151606001516040517fffffffff0000000000000000000000000000000000000000000000000000000060e085901b1681526001600160a01b0392831660048201529116602482015260448101889052606401602060405180830381865afa158015611d3a573d6000803e3d6000fd5b505050506040513d601f19601f82011682018060405250810190611d5e9190615640565b9450888281518110611d7257611d726155ae565b6020026020010151602001516001600160a01b0316634ac00e038a8481518110611d9e57611d9e6155ae565b6020026020010151604001518b8581518110611dbc57611dbc6155ae565b6020908102919091010151606001516040517fffffffff0000000000000000000000000000000000000000000000000000000060e085901b1681526001600160a01b03928316600482015290821660248201526044810187905260648101899052908416608482015260a4016020604051808303816000875af1158015611e47573d6000803e3d6000fd5b505050506040513d601f19601f82011682018060405250810190611e6b9190615640565b50611f7f565b888281518110611e8357611e836155ae565b6020026020010151602001516001600160a01b0316634ac00e038a8481518110611eaf57611eaf6155ae565b6020026020010151604001518b8581518110611ecd57611ecd6155ae565b6020908102919091010151606001516040517fffffffff0000000000000000000000000000000000000000000000000000000060e085901b1681526001600160a01b03928316600482015290821660248201526044810189905260006064820152908416608482015260a4016020604051808303816000875af1158015611f58573d6000803e3d6000fd5b505050506040513d601f19601f82011682018060405250810190611f7c9190615640565b94505b5080611f8a816156a6565b915050611be9565b5082861115611fe35760405162461bcd60e51b815260206004820152601360248201527f494e53554646494349454e545f4f5554505554000000000000000000000000006044820152606401610480565b5050949350505050565b606081428110156120405760405162461bcd60e51b815260206004820152600f60248201527f526f757465723a204558504952454400000000000000000000000000000000006044820152606401610480565b6120a0897f00000000000000000000000000000000000000000000000000000000000000008a8a8a8a808060200260200160405190810160405280939291908181526020018383602002808284376000920191909152506145a592505050565b91506120e28933888860008181106120ba576120ba6155ae565b90506020020160208101906120cf91906155dd565b85600081518110610d5557610d556155ae565b6121228983888880806020026020016040519081016040528093929190818152602001838360200280828437600092019190915250309250613635915050565b61216773eeeeeeeeeeeeeeeeeeeeeeeeeeeeeeeeeeeeeeee85846001865161214a9190615629565b8151811061215a5761215a6155ae565b6020026020010151613f54565b5050979650505050505050565b80428110156121c55760405162461bcd60e51b815260206004820152600f60248201527f526f757465723a204558504952454400000000000000000000000000000000006044820152606401610480565b6121dd89338787600081811061065b5761065b6155ae565b6040517f70a082310000000000000000000000000000000000000000000000000000000081526001600160a01b038481166004830152600091908a16906370a0823190602401602060405180830381865afa158015612240573d6000803e3d6000fd5b505050506040513d601f19601f820116820180604052508101906122649190615640565b90506122a58a878780806020026020016040519081016040528093929190818152602001838360200280828437600092019190915250899250613b15915050565b6040517f70a082310000000000000000000000000000000000000000000000000000000081526001600160a01b038581166004830152889183918c16906370a0823190602401602060405180830381865afa158015612308573d6000803e3d6000fd5b505050506040513d601f19601f8201168201806040525081019061232c9190615640565b6123369190615629565b10156107f05760405162461bcd60e51b815260206004820152602260248201527f526f757465723a20494e53554646494349454e545f4f55545055545f414d4f5560448201527f4e540000000000000000000000000000000000000000000000000000000000006064820152608401610480565b606081428110156123fd5760405162461bcd60e51b815260206004820152600f60248201527f526f757465723a204558504952454400000000000000000000000000000000006044820152606401610480565b61240a89898989896145a5565b915061243f893387600081518110612424576124246155ae565b602002602001015185600081518110610d5557610d556155ae565b61244b89838787613635565b50979650505050505050565b600081428110156124aa5760405162461bcd60e51b815260206004820152600f60248201527f526f757465723a204558504952454400000000000000000000000000000000006044820152606401610480565b8591506124f5876000815181106124c3576124c36155ae565b60200260200101516040015133896000815181106124e3576124e36155ae565b602002602001015160200151896139a6565b60005b87518110156128a4576000600189516125119190615629565b82146125445788612523836001615659565b81518110612533576125336155ae565b602002602001015160200151612546565b305b905088828151811061255a5761255a6155ae565b60200260200101516000015160ff1660001415612783576000849050898381518110612588576125886155ae565b6020026020010151602001516001600160a01b031663e9255bae8b85815181106125b4576125b46155ae565b6020026020010151604001518c86815181106125d2576125d26155ae565b6020908102919091010151606001516040517fffffffff0000000000000000000000000000000000000000000000000000000060e085901b1681526001600160a01b0392831660048201529116602482015260448101889052606401602060405180830381865afa15801561264b573d6000803e3d6000fd5b505050506040513d601f19601f8201168201806040525081019061266f9190615640565b9450898381518110612683576126836155ae565b6020026020010151602001516001600160a01b0316634ac00e038b85815181106126af576126af6155ae565b6020026020010151604001518c86815181106126cd576126cd6155ae565b6020908102919091010151606001516040517fffffffff0000000000000000000000000000000000000000000000000000000060e085901b1681526001600160a01b03928316600482015290821660248201526044810185905260648101899052908516608482015260a4016020604051808303816000875af1158015612758573d6000803e3d6000fd5b505050506040513d601f19601f8201168201806040525081019061277c9190615640565b5050612891565b888281518110612795576127956155ae565b6020026020010151602001516001600160a01b0316634ac00e038a84815181106127c1576127c16155ae565b6020026020010151604001518b85815181106127df576127df6155ae565b6020908102919091010151606001516040517fffffffff0000000000000000000000000000000000000000000000000000000060e085901b1681526001600160a01b03928316600482015290821660248201526044810188905260006064820152908416608482015260a4016020604051808303816000875af115801561286a573d6000803e3d6000fd5b505050506040513d601f19601f8201168201806040525081019061288e9190615640565b93505b508061289c816156a6565b9150506124f8565b50818511156128f55760405162461bcd60e51b815260206004820152601360248201527f494e53554646494349454e545f4f5554505554000000000000000000000000006044820152606401610480565b61109a73eeeeeeeeeeeeeeeeeeeeeeeeeeeeeeeeeeeeeeee8584613f54565b600081428110156129675760405162461bcd60e51b815260206004820152600f60248201527f526f757465723a204558504952454400000000000000000000000000000000006044820152606401610480565b6129718786614040565b50600073eeeeeeeeeeeeeeeeeeeeeeeeeeeeeeeeeeeeeeee6001600160a01b03881614612a1c576040517f70a082310000000000000000000000000000000000000000000000000000000081523360048201526001600160a01b038816906370a0823190602401602060405180830381865afa1580156129f5573d6000803e3d6000fd5b505050506040513d601f19601f82011682018060405250810190612a199190615640565b90505b60005b8951811015612aed576000805b8b8381518110612a3e57612a3e6155ae565b602002602001015151811015612acd5760008c8481518110612a6257612a626155ae565b60200260200101518281518110612a7b57612a7b6155ae565b602002602001015190506000821115612a9657606081018390525b612ab781602001518260400151836000015184606001518560800151614718565b9250508080612ac5906156a6565b915050612a2c565b50612ad88582615659565b50819050612ae5816156a6565b915050612a1f565b50612af9873385613f54565b50612b08883361147c8b61448c565b5073eeeeeeeeeeeeeeeeeeeeeeeeeeeeeeeeeeeeeeee6001600160a01b0388161415612b835784831015612b7e5760405162461bcd60e51b815260206004820152600d60248201527f4552525f4c494d49545f4f5554000000000000000000000000000000000000006044820152606401610480565b612c60565b6040517f70a08231000000000000000000000000000000000000000000000000000000008152336004820152859082906001600160a01b038a16906370a0823190602401602060405180830381865afa158015612be4573d6000803e3d6000fd5b505050506040513d601f19601f82011682018060405250810190612c089190615640565b612c129190615629565b1015612c605760405162461bcd60e51b815260206004820152601260248201527f3c6d696e546f74616c416d6f756e744f757400000000000000000000000000006044820152606401610480565b50509695505050505050565b60608142811015612cbf5760405162461bcd60e51b815260206004820152600f60248201527f526f757465723a204558504952454400000000000000000000000000000000006044820152606401610480565b612cff8a8a8a8a8a8a808060200260200160405190810160405280939291908181526020018383602002808284376000920191909152506133ba92505050565b9150612d198a33888860008181106120ba576120ba6155ae565b612d598a838888808060200260200160405190810160405280939291908181526020018383602002808284376000920191909152508a9250613635915050565b5098975050505050505050565b60008142811015612db95760405162461bcd60e51b815260206004820152600f60248201527f526f757465723a204558504952454400000000000000000000000000000000006044820152606401610480565b859150612dd2876000815181106124c3576124c36155ae565b60005b875181101561318157600060018951612dee9190615629565b8214612e215788612e00836001615659565b81518110612e1057612e106155ae565b602002602001015160200151612e23565b855b9050888281518110612e3757612e376155ae565b60200260200101516000015160ff1660001415613060576000849050898381518110612e6557612e656155ae565b6020026020010151602001516001600160a01b031663e9255bae8b8581518110612e9157612e916155ae565b6020026020010151604001518c8681518110612eaf57612eaf6155ae565b6020908102919091010151606001516040517fffffffff0000000000000000000000000000000000000000000000000000000060e085901b1681526001600160a01b0392831660048201529116602482015260448101889052606401602060405180830381865afa158015612f28573d6000803e3d6000fd5b505050506040513d601f19601f82011682018060405250810190612f4c9190615640565b9450898381518110612f6057612f606155ae565b6020026020010151602001516001600160a01b0316634ac00e038b8581518110612f8c57612f8c6155ae565b6020026020010151604001518c8681518110612faa57612faa6155ae565b6020908102919091010151606001516040517fffffffff0000000000000000000000000000000000000000000000000000000060e085901b1681526001600160a01b03928316600482015290821660248201526044810185905260648101899052908516608482015260a4016020604051808303816000875af1158015613035573d6000803e3d6000fd5b505050506040513d601f19601f820116820180604052508101906130599190615640565b505061316e565b888281518110613072576130726155ae565b6020026020010151602001516001600160a01b0316634ac00e038a848151811061309e5761309e6155ae565b6020026020010151604001518b85815181106130bc576130bc6155ae565b6020908102919091010151606001516040517fffffffff0000000000000000000000000000000000000000000000000000000060e085901b1681526001600160a01b03928316600482015290821660248201526044810188905260006064820152908416608482015260a4016020604051808303816000875af1158015613147573d6000803e3d6000fd5b505050506040513d601f19601f8201168201806040525081019061316b9190615640565b93505b5080613179816156a6565b915050612dd5565b50818511156131d25760405162461bcd60e51b815260206004820152601360248201527f494e53554646494349454e545f4f5554505554000000000000000000000000006044820152606401610480565b5095945050505050565b6060814281101561322f5760405162461bcd60e51b815260206004820152600f60248201527f526f757465723a204558504952454400000000000000000000000000000000006044820152606401610480565b6120a0897f00000000000000000000000000000000000000000000000000000000000000008a8a8a8a808060200260200160405190810160405280939291908181526020018383602002808284376000920191909152506133ba92505050565b606081428110156132e25760405162461bcd60e51b815260206004820152600f60248201527f526f757465723a204558504952454400000000000000000000000000000000006044820152606401610480565b6133427f000000000000000000000000000000000000000000000000000000000000000089348a8a8a808060200260200160405190810160405280939291908181526020018383602002808284376000920191909152506145a592505050565b915061335a82600081518110610501576105016155ae565b6105e77f0000000000000000000000000000000000000000000000000000000000000000838888808060200260200160405190810160405280939291908181526020018383602002808284376000920191909152508a9250613635915050565b6040517f67f84adc0000000000000000000000000000000000000000000000000000000081526060906001600160a01b037f000000000000000000000000000000000000000000000000000000000000000016906367f84adc9061344a907f0000000000000000000000000000000000000000000000000000000000000000908a908a908a9089906004016156df565b600060405180830381865afa158015613467573d6000803e3d6000fd5b505050506040513d6000823e601f3d908101601f1916820160405261348f9190810190615753565b905082816000815181106134a5576134a56155ae565b602002602001015111156134fb5760405162461bcd60e51b815260206004820152601e60248201527f526f757465723a204558434553534956455f494e5055545f414d4f554e5400006044820152606401610480565b95945050505050565b7f00000000000000000000000000000000000000000000000000000000000000006001600160a01b031663d0e30db0836040518263ffffffff1660e01b81526004016000604051808303818588803b15801561355f57600080fd5b505af1158015613573573d6000803e3d6000fd5b50506040517fa9059cbb0000000000000000000000000000000000000000000000000000000081526001600160a01b038581166004830152602482018790527f000000000000000000000000000000000000000000000000000000000000000016935063a9059cbb925060440190506020604051808303816000875af1158015613601573d6000803e3d6000fd5b505050506040513d601f19601f8201168201806040525081019061362591906157e4565b61363157613631614db5565b5050565b8360005b83518110156138b6576000848281518110613656576136566155ae565b602002602001015190506000816001600160a01b0316630dfe16816040518163ffffffff1660e01b8152600401602060405180830381865afa1580156136a0573d6000803e3d6000fd5b505050506040513d601f19601f820116820180604052508101906136c49190615806565b90506000876136d4856001615659565b815181106136e4576136e46155ae565b602002602001015190506000806000846001600160a01b0316886001600160a01b031614613715578360008661377a565b600084876001600160a01b031663d21220a76040518163ffffffff1660e01b8152600401602060405180830381865afa158015613756573d6000803e3d6000fd5b505050506040513d601f19601f8201168201806040525081019061377a9190615806565b925092509250600060018b516137909190615629565b881061379c57896137c1565b8a6137a8896001615659565b815181106137b8576137b86155ae565b60200260200101515b604080516000815260208101918290527f022c0d9f000000000000000000000000000000000000000000000000000000009091529091506001600160a01b0388169063022c0d9f9061381c9087908790869060248101615853565b600060405180830381600087803b15801561383657600080fd5b505af115801561384a573d6000803e3d6000fd5b5050604080516001600160a01b038b81168252602082018a905286168183015290517fddac40937f35385a34f721af292e5a83fc5b840f722bff57c2fc71adba708c489350908190036060019150a18198505050505050505080806138ae906156a6565b915050613639565b505050505050565b604080516000808252602082019092526001600160a01b0384169083906040516138e891906158a4565b60006040518083038185875af1925050503d8060008114613925576040519150601f19603f3d011682016040523d82523d6000602084013e61392a565b606091505b50509050806139a15760405162461bcd60e51b815260206004820152602360248201527f5472616e7366657248656c7065723a204554485f5452414e534645525f46414960448201527f4c454400000000000000000000000000000000000000000000000000000000006064820152608401610480565b505050565b604080516001600160a01b0385811660248301528481166044830152606480830185905283518084039091018152608490920183526020820180517bffffffffffffffffffffffffffffffffffffffffffffffffffffffff167f23b872dd000000000000000000000000000000000000000000000000000000001790529151600092839290881691613a3891906158a4565b6000604051808303816000865af19150503d8060008114613a75576040519150601f19603f3d011682016040523d82523d6000602084013e613a7a565b606091505b5091509150818015613aa4575080511580613aa4575080806020019051810190613aa491906157e4565b6138b65760405162461bcd60e51b8152602060048201526024808201527f5472616e7366657248656c7065723a205452414e534645525f46524f4d5f464160448201527f494c4544000000000000000000000000000000000000000000000000000000006064820152608401610480565b8260005b8351811015613f4d576000848281518110613b3657613b366155ae565b6020026020010151905060008060008060008060008060007f00000000000000000000000000000000000000000000000000000000000000006001600160a01b031663b33d96b07f00000000000000000000000000000000000000000000000000000000000000008c8f6040518463ffffffff1660e01b8152600401613bdc939291906001600160a01b0393841681529183166020830152909116604082015260600190565b60c060405180830381865afa158015613bf9573d6000803e3d6000fd5b505050506040513d601f19601f82011682018060405250810190613c1d91906158d4565b955095509550955095509550848c6001600160a01b03166370a082318c6040518263ffffffff1660e01b8152600401613c6591906001600160a01b0391909116815260200190565b602060405180830381865afa158015613c82573d6000803e3d6000fd5b505050506040513d601f19601f82011682018060405250810190613ca69190615640565b613cb09190615629565b6040517f671a11b500000000000000000000000000000000000000000000000000000000815260048101829052602481018790526044810186905263ffffffff80861660648301528085166084830152831660a48201529099507f00000000000000000000000000000000000000000000000000000000000000006001600160a01b03169063671a11b59060c401602060405180830381865afa158015613d5b573d6000803e3d6000fd5b505050506040513d601f19601f82011682018060405250810190613d7f9190615640565b9750859650505050505050600080856001600160a01b0316630dfe16816040518163ffffffff1660e01b8152600401602060405180830381865afa158015613dcb573d6000803e3d6000fd5b505050506040513d601f19601f82011682018060405250810190613def9190615806565b6001600160a01b0316886001600160a01b031614613e0f57836000613e13565b6000845b91509150600060018b51613e279190615629565b8810613e335789613e58565b8a613e3f896001615659565b81518110613e4f57613e4f6155ae565b60200260200101515b604080516000815260208101918290527f022c0d9f000000000000000000000000000000000000000000000000000000009091529091506001600160a01b0388169063022c0d9f90613eb39086908690869060248101615853565b600060405180830381600087803b158015613ecd57600080fd5b505af1158015613ee1573d6000803e3d6000fd5b5050604080516001600160a01b038b81168252602082018a905288168183015290517fddac40937f35385a34f721af292e5a83fc5b840f722bff57c2fc71adba708c489350908190036060019150a1839850505050505050508080613f45906156a6565b915050613b19565b5050505050565b600081613f6357506001614039565b73eeeeeeeeeeeeeeeeeeeeeeeeeeeeeeeeeeeeeeee6001600160a01b038516141561402a576040517f2e1a7d4d000000000000000000000000000000000000000000000000000000008152600481018390527f00000000000000000000000000000000000000000000000000000000000000006001600160a01b031690632e1a7d4d90602401600060405180830381600087803b15801561400357600080fd5b505af1158015614017573d6000803e3d6000fd5b5050505061402583836138be565b614035565b614035848484614c73565b5060015b9392505050565b600073eeeeeeeeeeeeeeeeeeeeeeeeeeeeeeeeeeeeeeee6001600160a01b03841614156140e0577f00000000000000000000000000000000000000000000000000000000000000006001600160a01b031663d0e30db0346040518263ffffffff1660e01b81526004016000604051808303818588803b1580156140c257600080fd5b505af11580156140d6573d6000803e3d6000fd5b50505050506140ec565b6140ec833330856139a6565b50600192915050565b60408051600180825281830190925260009182919060208083019080368337019050509050848160008151811061412e5761412e6155ae565b6001600160a01b0392831660209182029290920101526040517f67f84adc0000000000000000000000000000000000000000000000000000000081526000917f000000000000000000000000000000000000000000000000000000000000000016906367f84adc906141cc907f0000000000000000000000000000000000000000000000000000000000000000908c908c908b9089906004016156df565b600060405180830381865afa1580156141e9573d6000803e3d6000fd5b505050506040513d6000823e601f3d908101601f191682016040526142119190810190615753565b905080600081518110614226576142266155ae565b60200260200101519250838311156142805760405162461bcd60e51b815260206004820152601e60248201527f526f757465723a204558434553534956455f494e5055545f414d4f554e5400006044820152606401610480565b61109a88878584600181518110614299576142996155ae565b60200260200101515b6142ad848484614c73565b60008390506000816001600160a01b0316630dfe16816040518163ffffffff1660e01b8152600401602060405180830381865afa1580156142f2573d6000803e3d6000fd5b505050506040513d601f19601f820116820180604052508101906143169190615806565b90506000806000836001600160a01b0316896001600160a01b03161461433f57856000856143a4565b600086866001600160a01b031663d21220a76040518163ffffffff1660e01b8152600401602060405180830381865afa158015614380573d6000803e3d6000fd5b505050506040513d601f19601f820116820180604052508101906143a49190615806565b604080516000815260208101918290527f022c0d9f0000000000000000000000000000000000000000000000000000000090915292955090935091506001600160a01b0386169063022c0d9f906144049086908690309060248101615853565b600060405180830381600087803b15801561441e57600080fd5b505af1158015614432573d6000803e3d6000fd5b5050604080516001600160a01b038c81168252602082018b905285168183015290517fddac40937f35385a34f721af292e5a83fc5b840f722bff57c2fc71adba708c489350908190036060019150a1505050505050505050565b600073eeeeeeeeeeeeeeeeeeeeeeeeeeeeeeeeeeeeeeee6001600160a01b038316141561455b576040517f70a082310000000000000000000000000000000000000000000000000000000081523060048201527f00000000000000000000000000000000000000000000000000000000000000006001600160a01b0316906370a08231906024015b602060405180830381865afa158015614531573d6000803e3d6000fd5b505050506040513d601f19601f820116820180604052508101906145559190615640565b92915050565b6040517f70a082310000000000000000000000000000000000000000000000000000000081523060048201526001600160a01b038316906370a0823190602401614514565b919050565b6040517f119220a50000000000000000000000000000000000000000000000000000000081526060906001600160a01b037f0000000000000000000000000000000000000000000000000000000000000000169063119220a590614635907f0000000000000000000000000000000000000000000000000000000000000000908a908a908a9089906004016156df565b600060405180830381865afa158015614652573d6000803e3d6000fd5b505050506040513d6000823e601f3d908101601f1916820160405261467a9190810190615753565b905082816001835161468c9190615629565b8151811061469c5761469c6155ae565b602002602001015110156134fb5760405162461bcd60e51b815260206004820152602260248201527f526f757465723a20494e53554646494349454e545f4f55545055545f414d4f5560448201527f4e540000000000000000000000000000000000000000000000000000000000006064820152608401610480565b6000614725868585614c73565b6040517fb33d96b00000000000000000000000000000000000000000000000000000000081526001600160a01b037f00000000000000000000000000000000000000000000000000000000000000008116600483015285811660248301528781166044830152600091829182918291829182917f0000000000000000000000000000000000000000000000000000000000000000169063b33d96b09060640160c060405180830381865afa1580156147e1573d6000803e3d6000fd5b505050506040513d601f19601f8201168201806040525081019061480591906158d4565b95509550955095509550506000858d6001600160a01b03166370a082318d6040518263ffffffff1660e01b815260040161484e91906001600160a01b0391909116815260200190565b602060405180830381865afa15801561486b573d6000803e3d6000fd5b505050506040513d601f19601f8201168201806040525081019061488f9190615640565b6148999190615629565b6040517f671a11b500000000000000000000000000000000000000000000000000000000815260048101829052602481018890526044810187905263ffffffff80871660648301528086166084830152841660a48201529091507f00000000000000000000000000000000000000000000000000000000000000006001600160a01b03169063671a11b59060c401602060405180830381865afa158015614944573d6000803e3d6000fd5b505050506040513d601f19601f820116820180604052508101906149689190615640565b6040517f70a08231000000000000000000000000000000000000000000000000000000008152306004820152909750600096506001600160a01b038d1695506370a08231945060240192506149bb915050565b602060405180830381865afa1580156149d8573d6000803e3d6000fd5b505050506040513d601f19601f820116820180604052508101906149fc9190615640565b9050600080876001600160a01b0316630dfe16816040518163ffffffff1660e01b8152600401602060405180830381865afa158015614a3f573d6000803e3d6000fd5b505050506040513d601f19601f82011682018060405250810190614a639190615806565b6001600160a01b03168a6001600160a01b031614614a8357836000614a87565b6000845b604080516000815260208101918290527f022c0d9f0000000000000000000000000000000000000000000000000000000090915291935091506001600160a01b0389169063022c0d9f90614ae49085908590309060248101615853565b600060405180830381600087803b158015614afe57600080fd5b505af1158015614b12573d6000803e3d6000fd5b5050604080516001600160a01b038c81168252602082018990528d168183015290517fddac40937f35385a34f721af292e5a83fc5b840f722bff57c2fc71adba708c489350908190036060019150a16040517f70a0823100000000000000000000000000000000000000000000000000000000815230600482015283906001600160a01b038b16906370a0823190602401602060405180830381865afa158015614bc0573d6000803e3d6000fd5b505050506040513d601f19601f82011682018060405250810190614be49190615640565b614bee9190615629565b945085851015614c665760405162461bcd60e51b815260206004820152602260248201527f526f757465723a20494e53554646494349454e545f4f55545055545f414d4f5560448201527f4e540000000000000000000000000000000000000000000000000000000000006064820152608401610480565b5050505095945050505050565b604080516001600160a01b038481166024830152604480830185905283518084039091018152606490920183526020820180517bffffffffffffffffffffffffffffffffffffffffffffffffffffffff167fa9059cbb000000000000000000000000000000000000000000000000000000001790529151600092839290871691614cfd91906158a4565b6000604051808303816000865af19150503d8060008114614d3a576040519150601f19603f3d011682016040523d82523d6000602084013e614d3f565b606091505b5091509150818015614d69575080511580614d69575080806020019051810190614d6991906157e4565b613f4d5760405162461bcd60e51b815260206004820152601f60248201527f5472616e7366657248656c7065723a205452414e534645525f4641494c4544006044820152606401610480565b7f4e487b7100000000000000000000000000000000000000000000000000000000600052600160045260246000fd5b6001600160a01b0381168114614df957600080fd5b50565b80356145a081614de4565b60008083601f840112614e1957600080fd5b50813567ffffffffffffffff811115614e3157600080fd5b6020830191508360208260051b8501011115614e4c57600080fd5b9250929050565b60008060008060008060a08789031215614e6c57600080fd5b8635614e7781614de4565b955060208701359450604087013567ffffffffffffffff811115614e9a57600080fd5b614ea689828a01614e07565b9095509350506060870135614eba81614de4565b80925050608087013590509295509295509295565b6020808252825182820181905260009190848201906040850190845b81811015614f0757835183529284019291840191600101614eeb565b50909695505050505050565b600080600080600080600060c0888a031215614f2e57600080fd5b8735614f3981614de4565b96506020880135955060408801359450606088013567ffffffffffffffff811115614f6357600080fd5b614f6f8a828b01614e07565b9095509350506080880135614f8381614de4565b8092505060a0880135905092959891949750929550565b7f4e487b7100000000000000000000000000000000000000000000000000000000600052604160045260246000fd5b6040516080810167ffffffffffffffff81118282101715614fec57614fec614f9a565b60405290565b60405160c0810167ffffffffffffffff81118282101715614fec57614fec614f9a565b604051601f8201601f1916810167ffffffffffffffff8111828210171561503e5761503e614f9a565b604052919050565b600067ffffffffffffffff82111561506057615060614f9a565b5060051b60200190565b600082601f83011261507b57600080fd5b8135602061509061508b83615046565b615015565b82815260079290921b840181019181810190868411156150af57600080fd5b8286015b848110156105e757608081890312156150cc5760008081fd5b6150d4614fc9565b813560ff811681146150e65760008081fd5b8152818501356150f581614de4565b8186015260408281013561510881614de4565b9082015260608281013561511b81614de4565b908201528352918301916080016150b3565b600080600080600060a0868803121561514557600080fd5b853567ffffffffffffffff81111561515c57600080fd5b6151688882890161506a565b9550506020860135935060408601359250606086013561518781614de4565b949793965091946080013592915050565b600082601f8301126151a957600080fd5b813560206151b961508b83615046565b82815260059290921b840181019181810190868411156151d857600080fd5b8286015b848110156105e757803567ffffffffffffffff8111156151fc5760008081fd5b8701603f8101891361520e5760008081fd5b84810135604061522061508b83615046565b82815260c0928302840182019288820191908d8511156152405760008081fd5b948301945b848610156152c15780868f03121561525d5760008081fd5b615265614ff2565b863561527081614de4565b8152868b013561527f81614de4565b818c01528685013561529081614de4565b81860152606087810135908201526080808801359082015260a0808801359082015283529485019491890191615245565b508752505050928401925083016151dc565b600080600080600060a086880312156152eb57600080fd5b853567ffffffffffffffff81111561530257600080fd5b61530e88828901615198565b955050602086013561531f81614de4565b9350604086013561532f81614de4565b94979396509394606081013594506080013592915050565b6000806000806080858703121561535d57600080fd5b843567ffffffffffffffff81111561537457600080fd5b6153808782880161506a565b94505060208501359250604085013561539881614de4565b9396929550929360600135925050565b60008060008060008060008060e0898b0312156153c457600080fd5b88356153cf81614de4565b975060208901356153df81614de4565b96506040890135955060608901359450608089013567ffffffffffffffff81111561540957600080fd5b6154158b828c01614e07565b90955093505060a089013561542981614de4565b8092505060c089013590509295985092959890939650565b600080600080600080600060e0888a03121561545c57600080fd5b873561546781614de4565b965060208881013561547881614de4565b96506040890135955060608901359450608089013567ffffffffffffffff8111156154a257600080fd5b8901601f81018b136154b357600080fd5b80356154c161508b82615046565b81815260059190911b8201830190838101908d8311156154e057600080fd5b928401925b828410156155075783356154f881614de4565b825292840192908401906154e5565b809750505050505061551b60a08901614dfc565b915060c0880135905092959891949750929550565b60008060008060008060c0878903121561554957600080fd5b863567ffffffffffffffff81111561556057600080fd5b61556c89828a01615198565b965050602087013561557d81614de4565b9450604087013561558d81614de4565b959894975094956060810135955060808101359460a0909101359350915050565b7f4e487b7100000000000000000000000000000000000000000000000000000000600052603260045260246000fd5b6000602082840312156155ef57600080fd5b813561403981614de4565b7f4e487b7100000000000000000000000000000000000000000000000000000000600052601160045260246000fd5b60008282101561563b5761563b6155fa565b500390565b60006020828403121561565257600080fd5b5051919050565b6000821982111561566c5761566c6155fa565b500190565b600081615680576156806155fa565b507fffffffffffffffffffffffffffffffffffffffffffffffffffffffffffffffff0190565b60007fffffffffffffffffffffffffffffffffffffffffffffffffffffffffffffffff8214156156d8576156d86155fa565b5060010190565b600060a082016001600160a01b038089168452602081891681860152818816604086015286606086015260a0608086015282865180855260c087019150828801945060005b81811015615742578551851683529483019491830191600101615724565b50909b9a5050505050505050505050565b6000602080838503121561576657600080fd5b825167ffffffffffffffff81111561577d57600080fd5b8301601f8101851361578e57600080fd5b805161579c61508b82615046565b81815260059190911b820183019083810190878311156157bb57600080fd5b928401925b828410156157d9578351825292840192908401906157c0565b979650505050505050565b6000602082840312156157f657600080fd5b8151801515811461403957600080fd5b60006020828403121561581857600080fd5b815161403981614de4565b60005b8381101561583e578181015183820152602001615826565b8381111561584d576000848401525b50505050565b8481528360208201526001600160a01b0383166040820152608060608201526000825180608084015261588d8160a0850160208701615823565b601f01601f19169190910160a00195945050505050565b600082516158b6818460208701615823565b9190910192915050565b805163ffffffff811681146145a057600080fd5b60008060008060008060c087890312156158ed57600080fd5b86516158f881614de4565b6020880151604089015191975095509350615915606088016158c0565b9250615923608088016158c0565b915061593160a088016158c0565b9050929550929550929556fea26469706673582212203a4b1a17344c9f184f49dec90077470b0a7f4af2e9d4a0148e077e19ee44f18d64736f6c634300080a0033",
  "linkReferences": {},
  "deployedLinkReferences": {}
}