{
  "_format": "hh-sol-artifact-1",
  "contractName": "RequiemPoolFormula",
  "sourceName": "contracts/RequiemPoolFormula.sol",
  "abi": [
    {
      "inputs": [],
      "stateMutability": "nonpayable",
      "type": "constructor"
    },
    {
      "inputs": [
        {
          "internalType": "uint256",
          "name": "reserve0",
          "type": "uint256"
        },
        {
          "internalType": "uint256",
          "name": "reserve1",
          "type": "uint256"
        },
        {
          "internalType": "uint256",
          "name": "balance0Adjusted",
          "type": "uint256"
        },
        {
          "internalType": "uint256",
          "name": "balance1Adjusted",
          "type": "uint256"
        },
        {
          "internalType": "uint32",
          "name": "tokenWeight0",
          "type": "uint32"
        }
      ],
      "name": "ensureConstantValue",
      "outputs": [
        {
          "internalType": "bool",
          "name": "",
          "type": "bool"
        }
      ],
      "stateMutability": "view",
      "type": "function"
    },
    {
      "inputs": [
        {
          "internalType": "uint256",
          "name": "amountOut",
          "type": "uint256"
        },
        {
          "internalType": "uint256",
          "name": "reserveIn",
          "type": "uint256"
        },
        {
          "internalType": "uint256",
          "name": "reserveOut",
          "type": "uint256"
        },
        {
          "internalType": "uint32",
          "name": "tokenWeightIn",
          "type": "uint32"
        },
        {
          "internalType": "uint32",
          "name": "tokenWeightOut",
          "type": "uint32"
        },
        {
          "internalType": "uint32",
          "name": "swapFee",
          "type": "uint32"
        }
      ],
      "name": "getAmountIn",
      "outputs": [
        {
          "internalType": "uint256",
          "name": "amountIn",
          "type": "uint256"
        }
      ],
      "stateMutability": "view",
      "type": "function"
    },
    {
      "inputs": [
        {
          "internalType": "uint256",
          "name": "amountIn",
          "type": "uint256"
        },
        {
          "internalType": "uint256",
          "name": "reserveIn",
          "type": "uint256"
        },
        {
          "internalType": "uint256",
          "name": "reserveOut",
          "type": "uint256"
        },
        {
          "internalType": "uint32",
          "name": "tokenWeightIn",
          "type": "uint32"
        },
        {
          "internalType": "uint32",
          "name": "tokenWeightOut",
          "type": "uint32"
        },
        {
          "internalType": "uint32",
          "name": "swapFee",
          "type": "uint32"
        }
      ],
      "name": "getAmountOut",
      "outputs": [
        {
          "internalType": "uint256",
          "name": "amountOut",
          "type": "uint256"
        }
      ],
      "stateMutability": "view",
      "type": "function"
    },
    {
      "inputs": [
        {
          "internalType": "address",
          "name": "tokenIn",
          "type": "address"
        },
        {
          "internalType": "address",
          "name": "tokenOut",
          "type": "address"
        },
        {
          "internalType": "uint256",
          "name": "amountOut",
          "type": "uint256"
        },
        {
          "internalType": "address[]",
          "name": "path",
          "type": "address[]"
        }
      ],
      "name": "getAmountsIn",
      "outputs": [
        {
          "internalType": "uint256[]",
          "name": "amounts",
          "type": "uint256[]"
        }
      ],
      "stateMutability": "view",
      "type": "function"
    },
    {
      "inputs": [
        {
          "internalType": "address",
          "name": "tokenIn",
          "type": "address"
        },
        {
          "internalType": "address",
          "name": "tokenOut",
          "type": "address"
        },
        {
          "internalType": "uint256",
          "name": "amountIn",
          "type": "uint256"
        },
        {
          "internalType": "address[]",
          "name": "path",
          "type": "address[]"
        }
      ],
      "name": "getAmountsOut",
      "outputs": [
        {
          "internalType": "uint256[]",
          "name": "amounts",
          "type": "uint256[]"
        }
      ],
      "stateMutability": "view",
      "type": "function"
    },
    {
      "inputs": [
        {
          "internalType": "address",
          "name": "factory",
          "type": "address"
        },
        {
          "internalType": "address",
          "name": "tokenIn",
          "type": "address"
        },
        {
          "internalType": "address",
          "name": "tokenOut",
          "type": "address"
        },
        {
          "internalType": "uint256",
          "name": "amountOut",
          "type": "uint256"
        },
        {
          "internalType": "address[]",
          "name": "path",
          "type": "address[]"
        }
      ],
      "name": "getFactoryAmountsIn",
      "outputs": [
        {
          "internalType": "uint256[]",
          "name": "amounts",
          "type": "uint256[]"
        }
      ],
      "stateMutability": "view",
      "type": "function"
    },
    {
      "inputs": [
        {
          "internalType": "address",
          "name": "factory",
          "type": "address"
        },
        {
          "internalType": "address",
          "name": "tokenIn",
          "type": "address"
        },
        {
          "internalType": "address",
          "name": "tokenOut",
          "type": "address"
        },
        {
          "internalType": "uint256",
          "name": "amountIn",
          "type": "uint256"
        },
        {
          "internalType": "address[]",
          "name": "path",
          "type": "address[]"
        }
      ],
      "name": "getFactoryAmountsOut",
      "outputs": [
        {
          "internalType": "uint256[]",
          "name": "amounts",
          "type": "uint256[]"
        }
      ],
      "stateMutability": "view",
      "type": "function"
    },
    {
      "inputs": [
        {
          "internalType": "address",
          "name": "factory",
          "type": "address"
        },
        {
          "internalType": "address",
          "name": "pair",
          "type": "address"
        },
        {
          "internalType": "address",
          "name": "tokenA",
          "type": "address"
        }
      ],
      "name": "getFactoryReserveAndWeights",
      "outputs": [
        {
          "internalType": "address",
          "name": "tokenB",
          "type": "address"
        },
        {
          "internalType": "uint256",
          "name": "reserveA",
          "type": "uint256"
        },
        {
          "internalType": "uint256",
          "name": "reserveB",
          "type": "uint256"
        },
        {
          "internalType": "uint32",
          "name": "tokenWeightA",
          "type": "uint32"
        },
        {
          "internalType": "uint32",
          "name": "tokenWeightB",
          "type": "uint32"
        },
        {
          "internalType": "uint32",
          "name": "swapFee",
          "type": "uint32"
        }
      ],
      "stateMutability": "view",
      "type": "function"
    },
    {
      "inputs": [
        {
          "internalType": "address",
          "name": "factory",
          "type": "address"
        },
        {
          "internalType": "address",
          "name": "pair",
          "type": "address"
        }
      ],
      "name": "getFactoryWeightsAndSwapFee",
      "outputs": [
        {
          "internalType": "uint32",
          "name": "tokenWeight0",
          "type": "uint32"
        },
        {
          "internalType": "uint32",
          "name": "tokenWeight1",
          "type": "uint32"
        },
        {
          "internalType": "uint32",
          "name": "swapFee",
          "type": "uint32"
        }
      ],
      "stateMutability": "view",
      "type": "function"
    },
    {
      "inputs": [
        {
          "internalType": "address",
          "name": "pair",
          "type": "address"
        },
        {
          "internalType": "address",
          "name": "tokenA",
          "type": "address"
        }
      ],
      "name": "getOtherToken",
      "outputs": [
        {
          "internalType": "address",
          "name": "tokenB",
          "type": "address"
        }
      ],
      "stateMutability": "view",
      "type": "function"
    },
    {
      "inputs": [
        {
          "internalType": "address",
          "name": "pair",
          "type": "address"
        },
        {
          "internalType": "address",
          "name": "tokenIn",
          "type": "address"
        },
        {
          "internalType": "uint256",
          "name": "amountOut",
          "type": "uint256"
        }
      ],
      "name": "getPairAmountIn",
      "outputs": [
        {
          "internalType": "uint256",
          "name": "amountIn",
          "type": "uint256"
        }
      ],
      "stateMutability": "view",
      "type": "function"
    },
    {
      "inputs": [
        {
          "internalType": "address",
          "name": "pair",
          "type": "address"
        },
        {
          "internalType": "address",
          "name": "tokenIn",
          "type": "address"
        },
        {
          "internalType": "uint256",
          "name": "amountIn",
          "type": "uint256"
        }
      ],
      "name": "getPairAmountOut",
      "outputs": [
        {
          "internalType": "uint256",
          "name": "amountOut",
          "type": "uint256"
        }
      ],
      "stateMutability": "view",
      "type": "function"
    },
    {
      "inputs": [
        {
          "internalType": "address",
          "name": "pair",
          "type": "address"
        },
        {
          "internalType": "address",
          "name": "tokenA",
          "type": "address"
        }
      ],
      "name": "getReserveAndWeights",
      "outputs": [
        {
          "internalType": "address",
          "name": "tokenB",
          "type": "address"
        },
        {
          "internalType": "uint256",
          "name": "reserveA",
          "type": "uint256"
        },
        {
          "internalType": "uint256",
          "name": "reserveB",
          "type": "uint256"
        },
        {
          "internalType": "uint32",
          "name": "tokenWeightA",
          "type": "uint32"
        },
        {
          "internalType": "uint32",
          "name": "tokenWeightB",
          "type": "uint32"
        },
        {
          "internalType": "uint32",
          "name": "swapFee",
          "type": "uint32"
        }
      ],
      "stateMutability": "view",
      "type": "function"
    },
    {
      "inputs": [
        {
          "internalType": "address",
          "name": "pair",
          "type": "address"
        },
        {
          "internalType": "address",
          "name": "tokenA",
          "type": "address"
        },
        {
          "internalType": "address",
          "name": "tokenB",
          "type": "address"
        }
      ],
      "name": "getReserves",
      "outputs": [
        {
          "internalType": "uint256",
          "name": "reserveA",
          "type": "uint256"
        },
        {
          "internalType": "uint256",
          "name": "reserveB",
          "type": "uint256"
        }
      ],
      "stateMutability": "view",
      "type": "function"
    },
    {
      "inputs": [
        {
          "internalType": "address",
          "name": "pair",
          "type": "address"
        }
      ],
      "name": "getWeightsAndSwapFee",
      "outputs": [
        {
          "internalType": "uint32",
          "name": "tokenWeight0",
          "type": "uint32"
        },
        {
          "internalType": "uint32",
          "name": "tokenWeight1",
          "type": "uint32"
        },
        {
          "internalType": "uint32",
          "name": "swapFee",
          "type": "uint32"
        }
      ],
      "stateMutability": "view",
      "type": "function"
    },
    {
      "inputs": [
        {
          "internalType": "uint256",
          "name": "totalLiquidity",
          "type": "uint256"
        },
        {
          "internalType": "uint112",
          "name": "reserve0",
          "type": "uint112"
        },
        {
          "internalType": "uint112",
          "name": "reserve1",
          "type": "uint112"
        },
        {
          "internalType": "uint32",
          "name": "tokenWeight0",
          "type": "uint32"
        },
        {
          "internalType": "uint32",
          "name": "tokenWeight1",
          "type": "uint32"
        },
        {
          "internalType": "uint112",
          "name": "collectedFee0",
          "type": "uint112"
        },
        {
          "internalType": "uint112",
          "name": "collectedFee1",
          "type": "uint112"
        }
      ],
      "name": "mintLiquidityFee",
      "outputs": [
        {
          "internalType": "uint256",
          "name": "amount",
          "type": "uint256"
        }
      ],
      "stateMutability": "view",
      "type": "function"
    },
    {
      "inputs": [
        {
          "internalType": "uint256",
          "name": "amountA",
          "type": "uint256"
        },
        {
          "internalType": "uint256",
          "name": "reserveA",
          "type": "uint256"
        },
        {
          "internalType": "uint256",
          "name": "reserveB",
          "type": "uint256"
        }
      ],
      "name": "quote",
      "outputs": [
        {
          "internalType": "uint256",
          "name": "amountB",
          "type": "uint256"
        }
      ],
      "stateMutability": "pure",
      "type": "function"
    },
    {
      "inputs": [
        {
          "internalType": "address",
          "name": "tokenA",
          "type": "address"
        },
        {
          "internalType": "address",
          "name": "tokenB",
          "type": "address"
        }
      ],
      "name": "sortTokens",
      "outputs": [
        {
          "internalType": "address",
          "name": "token0",
          "type": "address"
        },
        {
          "internalType": "address",
          "name": "token1",
          "type": "address"
        }
      ],
      "stateMutability": "pure",
      "type": "function"
    }
  ],
  "bytecode": "0x608060405234801561001057600080fd5b5061073f6001641c35fedd1560601b036020556001646c3390ecc9605e1b036021556001640cf801476160611b0360225560016431bdb23e1d605f1b0360235560016502fb1d8fe083605b1b0360245560016505b771955b37605a1b036025556001650af67a93bb5160591b0360265560016515060c256cb360581b036027556001651428a2f98d7360581b036028556001654d515663970960561b03602955600165944620b0e70f60551b03602a55600166011c592761c66760541b03602b5560016602214d10d014eb60531b03602c55600166020ade36b7dbef60531b03602d5560016603eab73b3bbfe360521b03602e556001660782ee3593f6d760511b03602f556001661ccf4b44bb4821604f1b0360305560016606e7f88ad8a77760511b0360315560016669f3d1c921891d604d1b03603255600166cb2ff529eb71e5604c1b03603355600166c2d415c3db974b604c1b0360345560016702eb40f9f620fda7604a1b0360355560016705990681d961a1eb60491b03603655600167055e12902701414760491b0360375560016714962dee9dc9764160471b0360385560016704ef57b9b560fab560491b0360395560016712ed7b32a58f552b60471b03603a556001679131271922eaa60760441b03603b556001678b380f3558668c4760441b03603c556001680215f77c045fbe885760421b03603d556001600160831b03603e556001670f577eded5773a1160471b03603f556001680eb5ec597592befbf5603f1b036040556001681c35fedd14b861eb05603e1b036041556001683619c87664579bc94b603d1b0360425560016867c00a3b07ffc01fd7603c1b03604355600168c6f6c8f8739773a7a5603b1b03604455600168bec763f8209b7a72b1603b1b0360455560016902dbb8caad9b7097b91b60391b03604655600169057b3d49dda84556d6f760381b03604755600169054183095b2c8ececf3160381b036048556001690a14517cc6b9457111ef60371b0360495560016913545598e5c23276ccf160361b03604a556001692511882c39c3adea96ff60351b03604b55600169471649d87199aa99075760341b03604c557004429a21a029d4c1457cfbffffffffffff604d55700415bc6d6fb7dd71af2cb3ffffffffffff604e557003eab73b3bbfe282243ce1ffffffffffff604f557003c1771ac9fb6b4c18e229ffffffffffff605055700399e96897690418f785257fffffffffff605155700373fc456c53bb779bf0ea9fffffffffff60525570034f9e8e490c48e67e6ab8bfffffffffff60535570032cbfd4a7adc790560b3337ffffffffff60545570030b50570f6e5d2acca94613ffffffffff6055557002eb40f9f620fda6b56c2861ffffffffff6056557002cc8340ecb0d0f520a6af58ffffffffff6057557002af09481380a0a35cf1ba02ffffffffff605855700292c5bdd3b92ec810287b1b3fffffffff605955700277abdcdab07d5a77ac6d6b9fffffffff605a5570025daf6654b1eaa55fd64df5efffffffff605b55700244c49c648baa98192dce88b7ffffffff605c5570022ce03cd5619a311b2471268bffffffff605d55700215f77c045fbe885654a44a0fffffffff605e556001600160811b03605f557001eaefdbdaaee7421fc4d3ede5ffffffff6060557001d6bd8b2eb257df7e8ca57b09bfffffff6061557001c35fedd14b861eb0443f7f133fffffff6062557001b0ce43b322bcde4a56e8ada5afffffff60635570019f0028ec1fff007f5a195a39dfffffff60645570018ded91f0e72ee74f49b15ba527ffffff60655570017d8ec7f04136f4e5615fd41a63ffffff60665570016ddc6556cdb84bdc8d12d22e6fffffff60675570015ecf52776a1155b5bd8395814f7fffff60685570015060c256cb23b3b3cc3754cf40ffffff6069557001428a2f98d728ae223ddab715be3fffff606a5570013545598e5c23276ccf0ede68034fffff606b557001288c4161ce1d6f54b7f61081194fffff606c5570011c592761c666aa641d5a01a40f17ffff606d55700110a688680a7530515f3e6e6cfdcdffff606e557001056f1b5bedf75c6bcb2ce8aed428ffff606f556ffaadceceeff8a0890f3875f008277fff6070556ff05dc6b27edad306388a600f6ba0bfff6071556fe67a5a25da41063de1495d5b18cdbfff6072556fdcff115b14eedde6fc3aa5353f2e4fff6073556fd3e7a3924312399f9aae2e0f868f8fff6074556fcb2ff529eb71e41582cccd5a1ee26fff6075556fc2d415c3db974ab32a51840c0b67edff6076556fbad03e7d883f69ad5b0a186184e06bff6077556fb320d03b2c343d4829abd6075f0cc5ff6078556fabc25204e02828d73c6e80bcdb1a95bf6079556fa4b16f74ee4bb2040a1ec6c15fbbf2df607a556f9deaf736ac1f569deb1b5ae3f36c130f607b556f976bd9952c7aa957f5937d790ef65037607c556f9131271922eaa6064b73a22d0bd4f2bf607d556f8b380f3558668c46c91c49a2f8e967b9607e556f857ddf0117efa215952912839f6473e6607f55565b613f87806200074f6000396000f3fe608060405234801561001057600080fd5b50600436106101365760003560e01c80638888a737116100b2578063b19210b011610081578063b3923a9911610066578063b3923a991461032b578063ca2229791461033e578063d69109371461035157600080fd5b8063b19210b014610305578063b33d96b01461031857600080fd5b80638888a737146102b95780638fabd82d146102cc57806392aec23c146102df578063ad615dec146102f257600080fd5b80635bff1d9211610109578063671a11b5116100ee578063671a11b51461027057806367f84adc1461028357806379c91b371461029657600080fd5b80635bff1d92146101f95780636350d7741461024f57600080fd5b8063119220a51461013b5780632bb66e1d14610164578063327494611461019e578063544caa56146101c6575b600080fd5b61014e61014936600461368b565b61037c565b60405161015b9190613710565b60405180910390f35b610177610172366004613754565b61058e565b6040805163ffffffff9485168152928416602084015292169181019190915260600161015b565b6101b16101ac36600461378d565b610626565b6040805192835260208301919091520161015b565b6101d96101d4366004613754565b610837565b604080516001600160a01b0393841681529290911660208301520161015b565b61020c610207366004613754565b610947565b604080516001600160a01b03909716875260208701959095529385019290925263ffffffff908116606085015290811660808401521660a082015260c00161015b565b61026261025d3660046137d8565b610c2c565b60405190815260200161015b565b61026261027e36600461382b565b610c69565b61014e61029136600461368b565b610e3f565b6102a96102a4366004613892565b611037565b604051901515815260200161015b565b6102626102c73660046137d8565b61115c565b61014e6102da3660046138df565b61118b565b6102626102ed36600461396e565b611384565b6102626103003660046139fb565b611481565b61026261031336600461382b565b611597565b61020c61032636600461378d565b611778565b61014e6103393660046138df565b611a14565b61017761034c366004613a27565b611bf9565b61036461035f366004613754565b611d72565b6040516001600160a01b03909116815260200161015b565b6060816103d05760405162461bcd60e51b815260206004820152601c60248201527f5265717569656d466f726d756c613a20494e56414c49445f504154480000000060448201526064015b60405180910390fd5b6103db826001613a73565b67ffffffffffffffff8111156103f3576103f3613a8b565b60405190808252806020026020018201604052801561041c578160200160208202803683370190505b509050838160008151811061043357610433613aba565b60209081029190910101528560005b838110156104fb576000806000806000806104848f8c8c8a81811061046957610469613aba565b905060200201602081019061047e9190613a27565b8a611778565b9550955095509550955095506104b78988815181106104a5576104a5613aba565b60200260200101518686868686610c69565b896104c3896001613a73565b815181106104d3576104d3613aba565b60200260200101818152505085975050505050505080806104f390613ae9565b915050610442565b50856001600160a01b0316816001600160a01b0316146105835760405162461bcd60e51b815260206004820152602660248201527f5265717569656d466f726d756c613a20494e56414c49445f544f4b454e5f4f5560448201527f545f50415448000000000000000000000000000000000000000000000000000060648201526084016103c7565b509695505050505050565b6040517fca2229790000000000000000000000000000000000000000000000000000000081526001600160a01b038281166004830152600091829182919086169063ca22297990602401606060405180830381865afa1580156105f5573d6000803e3d6000fd5b505050506040513d601f19601f820116820180604052508101906106199190613b22565b9250925092509250925092565b6000806000806106368686610837565b91509150600080886001600160a01b0316630902f1ac6040518163ffffffff1660e01b8152600401606060405180830381865afa15801561067b573d6000803e3d6000fd5b505050506040513d601f19601f8201168201806040525081019061069f9190613b64565b506dffffffffffffffffffffffffffff1691506dffffffffffffffffffffffffffff169150886001600160a01b0316630dfe16816040518163ffffffff1660e01b8152600401602060405180830381865afa158015610702573d6000803e3d6000fd5b505050506040513d601f19601f820116820180604052508101906107269190613b95565b6001600160a01b0316846001600160a01b03161480156107b85750886001600160a01b031663d21220a76040518163ffffffff1660e01b8152600401602060405180830381865afa15801561077f573d6000803e3d6000fd5b505050506040513d601f19601f820116820180604052508101906107a39190613b95565b6001600160a01b0316836001600160a01b0316145b6108045760405162461bcd60e51b815260206004820152601d60248201527f5265717569656d466f726d756c613a20496e76616c696420746f6b656e00000060448201526064016103c7565b836001600160a01b0316886001600160a01b031614610824578082610827565b81815b909a909950975050505050505050565b600080826001600160a01b0316846001600160a01b031614156108c25760405162461bcd60e51b815260206004820152602360248201527f5265717569656d466f726d756c613a204944454e544943414c5f41444452455360448201527f534553000000000000000000000000000000000000000000000000000000000060648201526084016103c7565b826001600160a01b0316846001600160a01b0316106108e25782846108e5565b83835b90925090506001600160a01b0382166109405760405162461bcd60e51b815260206004820152601c60248201527f5265717569656d466f726d756c613a205a45524f5f414444524553530000000060448201526064016103c7565b9250929050565b600080600080600080600080896001600160a01b0316630902f1ac6040518163ffffffff1660e01b8152600401606060405180830381865afa158015610991573d6000803e3d6000fd5b505050506040513d601f19601f820116820180604052508101906109b59190613b64565b506dffffffffffffffffffffffffffff1691506dffffffffffffffffffffffffffff1691506000806109e68c611bf9565b8097508193508294505050508b6001600160a01b0316630dfe16816040518163ffffffff1660e01b8152600401602060405180830381865afa158015610a30573d6000803e3d6000fd5b505050506040513d601f19601f82011682018060405250810190610a549190613b95565b6001600160a01b03168b6001600160a01b03161415610ae4578b6001600160a01b031663d21220a76040518163ffffffff1660e01b8152600401602060405180830381865afa158015610aab573d6000803e3d6000fd5b505050506040513d601f19601f82011682018060405250810190610acf9190613b95565b99509297509095509350915084848484610c1e565b8b6001600160a01b031663d21220a76040518163ffffffff1660e01b8152600401602060405180830381865afa158015610b22573d6000803e3d6000fd5b505050506040513d601f19601f82011682018060405250810190610b469190613b95565b6001600160a01b03168b6001600160a01b03161415610bd6578b6001600160a01b0316630dfe16816040518163ffffffff1660e01b8152600401602060405180830381865afa158015610b9d573d6000803e3d6000fd5b505050506040513d601f19601f82011682018060405250810190610bc19190613b95565b99509197509195509350915083858385610c1e565b60405162461bcd60e51b815260206004820152601e60248201527f5265717569656d466f726d756c613a20496e76616c696420746f6b656e41000060448201526064016103c7565b505050509295509295509295565b6000806000806000806000610c418a8a610947565b955095509550955095509550610c5b888587858786611597565b9a9950505050505050505050565b6000808711610ce05760405162461bcd60e51b815260206004820152602960248201527f5265717569656d466f726d756c613a20494e53554646494349454e545f494e5060448201527f55545f414d4f554e54000000000000000000000000000000000000000000000060648201526084016103c7565b600086118015610cf05750600085115b610d625760405162461bcd60e51b815260206004820152602660248201527f5265717569656d466f726d756c613a20494e53554646494349454e545f4c495160448201527f554944495459000000000000000000000000000000000000000000000000000060648201526084016103c7565b6000610d88610d7384612710613bb2565b63ffffffff1689611edb90919063ffffffff16565b90508363ffffffff168563ffffffff161415610dd057610db481610dae89612710611edb565b90611eee565b610dbe8783611edb565b610dc89190613c06565b915050610e35565b60008080610de484610dae8c612710611edb565b9050610dfd81610df68c612710611edb565b8a8a611f0b565b90935091506000610e0e8a85611edb565b905060ff83168a901b84610e228284613c1a565b610e2c9190613c06565b96505050505050505b9695505050505050565b606081610e8e5760405162461bcd60e51b815260206004820152601c60248201527f5265717569656d466f726d756c613a20494e56414c49445f504154480000000060448201526064016103c7565b610e99826001613a73565b67ffffffffffffffff811115610eb157610eb1613a8b565b604051908082528060200260200182016040528015610eda578160200160208202803683370190505b509050838160018351610eed9190613c1a565b81518110610efd57610efd613aba565b602090810291909101015284825b8015610faf5760008080808080610f388f8c8c610f2960018c613c1a565b81811061046957610469613aba565b955095509550955095509550610f6b898881518110610f5957610f59613aba565b60200260200101518587858786611597565b89610f7760018a613c1a565b81518110610f8757610f87613aba565b6020026020010181815250508597505050505050508080610fa790613c31565b915050610f0b565b50866001600160a01b0316816001600160a01b0316146105835760405162461bcd60e51b815260206004820152602560248201527f5265717569656d466f726d756c613a20494e56414c49445f544f4b454e5f494e60448201527f5f5041544800000000000000000000000000000000000000000000000000000060648201526084016103c7565b60008163ffffffff1660321415611065576110528686611edb565b61105c8585611edb565b10159050611153565b8584101580156110755750848310155b1561108257506001611153565b8584111580156110925750848311155b1561109f57506000611153565b8160006110ad826064613bb2565b90506000806000808b8a106110eb576110c98b8a876032611f0b565b90945060ff1692506110de8a8d886032611f0b565b90925060ff169050611116565b6110f88c8b886032611f0b565b90945060ff16925061110d898c876032611f0b565b90925060ff1690505b60008184106111255781611127565b835b90506111338185613c1a565b935061113f8183613c1a565b9290921c9390921c92909211159450505050505b95945050505050565b60008060008060008060006111718a8a610947565b955095509550955095509550610c5b888686868686610c69565b6060816111da5760405162461bcd60e51b815260206004820152601c60248201527f5265717569656d466f726d756c613a20494e56414c49445f504154480000000060448201526064016103c7565b6111e5826001613a73565b67ffffffffffffffff8111156111fd576111fd613a8b565b604051908082528060200260200182016040528015611226578160200160208202803683370190505b509050838160008151811061123d5761123d613aba565b60209081029190910101528560005b838110156112f25760008060008060008061128d8b8b8981811061127257611272613aba565b90506020020160208101906112879190613a27565b89610947565b9550955095509550955095506112ae8988815181106104a5576104a5613aba565b896112ba896001613a73565b815181106112ca576112ca613aba565b60200260200101818152505085975050505050505080806112ea90613ae9565b91505061124c565b50856001600160a01b0316816001600160a01b03161461137a5760405162461bcd60e51b815260206004820152602660248201527f5265717569656d466f726d756c613a20494e56414c49445f544f4b454e5f4f5560448201527f545f50415448000000000000000000000000000000000000000000000000000060648201526084016103c7565b5095945050505050565b60006dffffffffffffffffffffffffffff831615611405576000806113d86113bf6dffffffffffffffffffffffffffff878116908c16611eee565b8a6dffffffffffffffffffffffffffff16896064611f0b565b90925060ff1690506114008a6113fa836113f28387611edb565b87911c611eee565b90612062565b925050505b6dffffffffffffffffffffffffffff8216156114765760008061145761143e6dffffffffffffffffffffffffffff868116908b16611eee565b896dffffffffffffffffffffffffffff16886064611f0b565b90925060ff1690506114718a6113fa836113f28387611edb565b925050505b979650505050505050565b60008084116114f85760405162461bcd60e51b815260206004820152602360248201527f5265717569656d466f726d756c613a20494e53554646494349454e545f414d4f60448201527f554e54000000000000000000000000000000000000000000000000000000000060648201526084016103c7565b6000831180156115085750600082115b61157a5760405162461bcd60e51b815260206004820152602660248201527f5265717569656d466f726d756c613a20494e53554646494349454e545f4c495160448201527f554944495459000000000000000000000000000000000000000000000000000060648201526084016103c7565b826115858584611edb565b61158f9190613c06565b949350505050565b600080871161160e5760405162461bcd60e51b815260206004820152602a60248201527f5265717569656d466f726d756c613a20494e53554646494349454e545f4f555460448201527f5055545f414d4f554e540000000000000000000000000000000000000000000060648201526084016103c7565b60008611801561161e5750600085115b6116905760405162461bcd60e51b815260206004820152602660248201527f5265717569656d466f726d756c613a20494e53554646494349454e545f4c495160448201527f554944495459000000000000000000000000000000000000000000000000000060648201526084016103c7565b8263ffffffff168463ffffffff1614156117025760006116bc6127106116b6898b611edb565b90611edb565b905060006116e86116cf85612710613bb2565b63ffffffff166116b68b8a61206290919063ffffffff16565b90506116f96001610dae8385613c06565b92505050610e35565b60008080611710888b612062565b905061171e8882888a611f0b565b909350915060006117318a612710611edb565b9050600061173f8286611edb565b905060ff841682901b610e2c60016117598a612710613bb2565b63ffffffff1660ff881661176d8587613c1a565b610dae92911c613c06565b600080600080600080600080896001600160a01b0316630902f1ac6040518163ffffffff1660e01b8152600401606060405180830381865afa1580156117c2573d6000803e3d6000fd5b505050506040513d601f19601f820116820180604052508101906117e69190613b64565b506dffffffffffffffffffffffffffff1691506dffffffffffffffffffffffffffff1691506000806118188d8d61058e565b8097508193508294505050508b6001600160a01b0316630dfe16816040518163ffffffff1660e01b8152600401602060405180830381865afa158015611862573d6000803e3d6000fd5b505050506040513d601f19601f820116820180604052508101906118869190613b95565b6001600160a01b03168b6001600160a01b03161415611916578b6001600160a01b031663d21220a76040518163ffffffff1660e01b8152600401602060405180830381865afa1580156118dd573d6000803e3d6000fd5b505050506040513d601f19601f820116820180604052508101906119019190613b95565b99509297509095509350915084848484611a04565b8b6001600160a01b031663d21220a76040518163ffffffff1660e01b8152600401602060405180830381865afa158015611954573d6000803e3d6000fd5b505050506040513d601f19601f820116820180604052508101906119789190613b95565b6001600160a01b03168b6001600160a01b03161415610bd6578b6001600160a01b0316630dfe16816040518163ffffffff1660e01b8152600401602060405180830381865afa1580156119cf573d6000803e3d6000fd5b505050506040513d601f19601f820116820180604052508101906119f39190613b95565b995091975091955093509150838583855b5050505093975093979195509350565b606081611a635760405162461bcd60e51b815260206004820152601c60248201527f5265717569656d466f726d756c613a20494e56414c49445f504154480000000060448201526064016103c7565b611a6e826001613a73565b67ffffffffffffffff811115611a8657611a86613a8b565b604051908082528060200260200182016040528015611aaf578160200160208202803683370190505b509050838160018351611ac29190613c1a565b81518110611ad257611ad2613aba565b602090810291909101015284825b8015611b715760008080808080611b0c8b8b611afd60018b613c1a565b81811061127257611272613aba565b955095509550955095509550611b2d898881518110610f5957610f59613aba565b89611b3960018a613c1a565b81518110611b4957611b49613aba565b6020026020010181815250508597505050505050508080611b6990613c31565b915050611ae0565b50866001600160a01b0316816001600160a01b03161461137a5760405162461bcd60e51b815260206004820152602560248201527f5265717569656d466f726d756c613a20494e56414c49445f544f4b454e5f494e60448201527f5f5041544800000000000000000000000000000000000000000000000000000060648201526084016103c7565b6000806000836001600160a01b03166332bfe4696040518163ffffffff1660e01b81526004016040805180830381865afa925050508015611c75575060408051601f3d9081017fffffffffffffffffffffffffffffffffffffffffffffffffffffffffffffffe0168201909252611c7291810190613c66565b60015b611cfe57611c81613c95565b806308c379a01415611cbb5750611c96613d23565b80611ca15750611cbd565b8060405162461bcd60e51b81526004016103c79190613dcb565b505b3d808015611ce7576040519150601f19603f3d011682016040523d82523d6000602084013e611cec565b606091505b50603280601e93509350935050611d6b565b8181876001600160a01b031663d4cadf686040518163ffffffff1660e01b8152600401602060405180830381865afa158015611d3e573d6000803e3d6000fd5b505050506040513d601f19601f82011682018060405250810190611d629190613e3e565b94509450945050505b9193909250565b600080836001600160a01b0316630dfe16816040518163ffffffff1660e01b8152600401602060405180830381865afa158015611db3573d6000803e3d6000fd5b505050506040513d601f19601f82011682018060405250810190611dd79190613b95565b90506000846001600160a01b031663d21220a76040518163ffffffff1660e01b8152600401602060405180830381865afa158015611e19573d6000803e3d6000fd5b505050506040513d601f19601f82011682018060405250810190611e3d9190613b95565b9050836001600160a01b0316826001600160a01b03161480611e705750836001600160a01b0316816001600160a01b0316145b611ebc5760405162461bcd60e51b815260206004820152601e60248201527f5265717569656d466f726d756c613a20496e76616c696420746f6b656e41000060448201526064016103c7565b836001600160a01b0316826001600160a01b03161461158f5781611153565b6000611ee78284613e5b565b9392505050565b600080611efb8385613a73565b9050611ee7848210156000612070565b60008084861015611f5e5760405162461bcd60e51b815260206004820152601b60248201527f6e6f7420737570706f7274205f626173654e203c205f6261736544000000000060448201526064016103c7565b7002000000000000000000000000000000008610611f7b57600080fd5b60008086611f8d6001607f1b8a613e5b565b611f979190613c06565b905070015bf0a8b1457695355fb8ac404e7a79e3811015611fc257611fbb81612082565b9150611fce565b611fcb816126b8565b91505b60008563ffffffff168763ffffffff1684611fe99190613e5b565b611ff39190613c06565b905070080000000000000000000000000000000081101561202557612017816127c0565b607f94509450505050612059565b600061203082612e42565b905061204c61204082607f613e98565b60ff1683901c82612ef5565b9550935061205992505050565b94509492505050565b6000611ee783836001613553565b8161207e5761207e8161356e565b5050565b6000808080806fd3094c70f034de4b96ff7d5b6f99fcd886106120e7576120b96f4000000000000000000000000000000085613a73565b93506fd3094c70f034de4b96ff7d5b6f99fcd86120da6001607f1b88613e5b565b6120e49190613c06565b95505b6fa45af1e1f40c333b3de1db4dd55f29a78610612146576121186f2000000000000000000000000000000085613a73565b93506fa45af1e1f40c333b3de1db4dd55f29a76121396001607f1b88613e5b565b6121439190613c06565b95505b6f910b022db7ae67ce76b441c27035c6a186106121a5576121776f1000000000000000000000000000000085613a73565b93506f910b022db7ae67ce76b441c27035c6a16121986001607f1b88613e5b565b6121a29190613c06565b95505b6f88415abbe9a76bead8d00cf112e4d4a88610612204576121d66f0800000000000000000000000000000085613a73565b93506f88415abbe9a76bead8d00cf112e4d4a86121f76001607f1b88613e5b565b6122019190613c06565b95505b6f84102b00893f64c705e841d5d4064bd38610612263576122356f0400000000000000000000000000000085613a73565b93506f84102b00893f64c705e841d5d4064bd36122566001607f1b88613e5b565b6122609190613c06565b95505b6f8204055aaef1c8bd5c3259f4822735a286106122c2576122946f0200000000000000000000000000000085613a73565b93506f8204055aaef1c8bd5c3259f4822735a26122b56001607f1b88613e5b565b6122bf9190613c06565b95505b6f810100ab00222d861931c15e39b44e998610612321576122f36f0100000000000000000000000000000085613a73565b93506f810100ab00222d861931c15e39b44e996123146001607f1b88613e5b565b61231e9190613c06565b95505b6f808040155aabbbe9451521693554f733861061237f576123516e80000000000000000000000000000085613a73565b93506f808040155aabbbe9451521693554f7336123726001607f1b88613e5b565b61237c9190613c06565b95505b61238d6001607f1b87613c1a565b92508291506001607f1b6123a18380613e5b565b6123ab9190613c06565b90507001000000000000000000000000000000006123c98482613c1a565b6123d39084613e5b565b6123dd9190613c06565b6123e79085613a73565b93506001607f1b6123f88284613e5b565b6124029190613c06565b9150700200000000000000000000000000000000612430846faaaaaaaaaaaaaaaaaaaaaaaaaaaaaaaa613c1a565b61243a9084613e5b565b6124449190613c06565b61244e9085613a73565b93506001607f1b61245f8284613e5b565b6124699190613c06565b9150700300000000000000000000000000000000612497846f99999999999999999999999999999999613c1a565b6124a19084613e5b565b6124ab9190613c06565b6124b59085613a73565b93506001607f1b6124c68284613e5b565b6124d09190613c06565b91507004000000000000000000000000000000006124fe846f92492492492492492492492492492492613c1a565b6125089084613e5b565b6125129190613c06565b61251c9085613a73565b93506001607f1b61252d8284613e5b565b6125379190613c06565b9150700500000000000000000000000000000000612565846f8e38e38e38e38e38e38e38e38e38e38e613c1a565b61256f9084613e5b565b6125799190613c06565b6125839085613a73565b93506001607f1b6125948284613e5b565b61259e9190613c06565b91507006000000000000000000000000000000006125cc846f8ba2e8ba2e8ba2e8ba2e8ba2e8ba2e8b613c1a565b6125d69084613e5b565b6125e09190613c06565b6125ea9085613a73565b93506001607f1b6125fb8284613e5b565b6126059190613c06565b9150700700000000000000000000000000000000612633846f89d89d89d89d89d89d89d89d89d89d89613c1a565b61263d9084613e5b565b6126479190613c06565b6126519085613a73565b93506001607f1b6126628284613e5b565b61266c9190613c06565b915070080000000000000000000000000000000061269a846f88888888888888888888888888888888613c1a565b6126a49084613e5b565b6126ae9190613c06565b610e359085613a73565b60008070010000000000000000000000000000000083106127095760006126eb6126e66001607f1b86613c06565b6135c1565b60ff811694851c94909150612705906001607f1b90613e5b565b9150505b6001607f1b83111561278b57607f5b60ff811615612789576001607f1b6127308580613e5b565b61273a9190613c06565b9350700100000000000000000000000000000000841061277957600193841c936127649082613e98565b60ff166001901b826127769190613a73565b91505b61278281613ebb565b9050612718565b505b6f05b9de1d10bf4103d647b0955897ba806127b66f03f80fe03f80fe03f80fe03f80fe03f883613e5b565b611ee79190613c06565b60008080806127df6f1000000000000000000000000000000086613ef6565b91508190506001607f1b6127f38280613e5b565b6127fd9190613c06565b9050612811816710e1b3be415a0000613e5b565b61281b9084613a73565b92506001607f1b61282c8383613e5b565b6128369190613c06565b905061284a816705a0913f6b1e0000613e5b565b6128549084613a73565b92506001607f1b6128658383613e5b565b61286f9190613c06565b905061288381670168244fdac78000613e5b565b61288d9084613a73565b92506001607f1b61289e8383613e5b565b6128a89190613c06565b90506128bb81664807432bc18000613e5b565b6128c59084613a73565b92506001607f1b6128d68383613e5b565b6128e09190613c06565b90506128f381660c0135dca04000613e5b565b6128fd9084613a73565b92506001607f1b61290e8383613e5b565b6129189190613c06565b905061292b816601b707b1cdc000613e5b565b6129359084613a73565b92506001607f1b6129468383613e5b565b6129509190613c06565b9050612962816536e0f639b800613e5b565b61296c9084613a73565b92506001607f1b61297d8383613e5b565b6129879190613c06565b905061299981650618fee9f800613e5b565b6129a39084613a73565b92506001607f1b6129b48383613e5b565b6129be9190613c06565b90506129cf81649c197dcc00613e5b565b6129d99084613a73565b92506001607f1b6129ea8383613e5b565b6129f49190613c06565b9050612a0581640e30dce400613e5b565b612a0f9084613a73565b92506001607f1b612a208383613e5b565b612a2a9190613c06565b9050612a3b8164012ebd1300613e5b565b612a459084613a73565b92506001607f1b612a568383613e5b565b612a609190613c06565b9050612a70816317499f00613e5b565b612a7a9084613a73565b92506001607f1b612a8b8383613e5b565b612a959190613c06565b9050612aa5816301a9d480613e5b565b612aaf9084613a73565b92506001607f1b612ac08383613e5b565b612aca9190613c06565b9050612ad981621c6380613e5b565b612ae39084613a73565b92506001607f1b612af48383613e5b565b612afe9190613c06565b9050612b0d816201c638613e5b565b612b179084613a73565b92506001607f1b612b288383613e5b565b612b329190613c06565b9050612b4081611ab8613e5b565b612b4a9084613a73565b92506001607f1b612b5b8383613e5b565b612b659190613c06565b9050612b738161017c613e5b565b612b7d9084613a73565b92506001607f1b612b8e8383613e5b565b612b989190613c06565b9050612ba5816014613e5b565b612baf9084613a73565b92506001607f1b612bc08383613e5b565b612bca9190613c06565b9050612bd7816001613e5b565b612be19084613a73565b92506001607f1b82612bfb6721c3677c82b4000086613c06565b612c059190613a73565b612c0f9190613a73565b92506f10000000000000000000000000000000851615612c635770018ebef9eac820ae8682b9793ac6d1e776612c56847001c3d6a24ed82218787d624d3e5eba95f9613e5b565b612c609190613c06565b92505b6f20000000000000000000000000000000851615612cb5577001368b2fc6f9609fe7aceb46aa619baed4612ca88470018ebef9eac820ae8682b9793ac6d1e778613e5b565b612cb29190613c06565b92505b6f40000000000000000000000000000000851615612d06576fbc5ab1b16779be3575bd8f0520a9f21f612cf9847001368b2fc6f9609fe7aceb46aa619baed5613e5b565b612d039190613c06565b92505b6001607f1b851615612d4a576f454aaa8efe072e7f6ddbab84b40a55c9612d3d846fbc5ab1b16779be3575bd8f0520a9f21e613e5b565b612d479190613c06565b92505b700100000000000000000000000000000000851615612d9b576f0960aadc109e7a3bf4578099615711ea612d8e846f454aaa8efe072e7f6ddbab84b40a55c5613e5b565b612d989190613c06565b92505b700200000000000000000000000000000000851615612deb576e2bf84208204f5977f9a8cf01fdce3d612dde846f0960aadc109e7a3bf4578099615711d7613e5b565b612de89190613c06565b92505b700400000000000000000000000000000000851615612e39576d03c6ab775dd0b95b4cbee7e65d11612e2c846e2bf84208204f5977f9a8cf01fdc307613e5b565b612e369190613c06565b92505b50909392505050565b60006020607f5b60ff8116612e58836001613f0a565b60ff161015612eab5760006002612e6f8385613f0a565b612e799190613f2f565b90508460008260ff1660808110612e9257612e92613aba565b015410612ea157809250612ea5565b8091505b50612e49565b8360008260ff1660808110612ec257612ec2613aba565b015410612ed0579392505050565b8360008360ff1660808110612ee757612ee7613aba565b015410610136575092915050565b6000828160ff8416612f078380613e5b565b901c9150612f25826f03442c4e6074a82f1797f72ac0000000613e5b565b612f2f9082613a73565b905060ff8416612f3f8684613e5b565b901c9150612f5d826f0116b96f757c380fb287fd0e40000000613e5b565b612f679082613a73565b905060ff8416612f778684613e5b565b901c9150612f94826e45ae5bdd5f0e03eca1ff4390000000613e5b565b612f9e9082613a73565b905060ff8416612fae8684613e5b565b901c9150612fcb826e0defabf91302cd95b9ffda50000000613e5b565b612fd59082613a73565b905060ff8416612fe58684613e5b565b901c9150613002826e02529ca9832b22439efff9b8000000613e5b565b61300c9082613a73565b905060ff841661301c8684613e5b565b901c9150613038826d54f1cf12bd04e516b6da88000000613e5b565b6130429082613a73565b905060ff84166130528684613e5b565b901c915061306e826d0a9e39e257a09ca2d6db51000000613e5b565b6130789082613a73565b905060ff84166130888684613e5b565b901c91506130a4826d012e066e7b839fa050c309000000613e5b565b6130ae9082613a73565b905060ff84166130be8684613e5b565b901c91506130d9826c1e33d7d926c329a1ad1a800000613e5b565b6130e39082613a73565b905060ff84166130f38684613e5b565b901c915061310e826c02bee513bdb4a6b19b5f800000613e5b565b6131189082613a73565b905060ff84166131288684613e5b565b901c9150613142826b3a9316fa79b88eccf2a00000613e5b565b61314c9082613a73565b905060ff841661315c8684613e5b565b901c9150613176826b048177ebe1fa812375200000613e5b565b6131809082613a73565b905060ff84166131908684613e5b565b901c91506131a9826a5263fe90242dcbacf00000613e5b565b6131b39082613a73565b905060ff84166131c38684613e5b565b901c91506131dc826a057e22099c030d94100000613e5b565b6131e69082613a73565b905060ff84166131f68684613e5b565b901c915061320e826957e22099c030d9410000613e5b565b6132189082613a73565b905060ff84166132288684613e5b565b901c91506132408269052b6b54569976310000613e5b565b61324a9082613a73565b905060ff841661325a8684613e5b565b901c915061327182684985f67696bf748000613e5b565b61327b9082613a73565b905060ff841661328b8684613e5b565b901c91506132a2826803dea12ea99e498000613e5b565b6132ac9082613a73565b905060ff84166132bc8684613e5b565b901c91506132d2826731880f2214b6e000613e5b565b6132dc9082613a73565b905060ff84166132ec8684613e5b565b901c91506133028267025bcff56eb36000613e5b565b61330c9082613a73565b905060ff841661331c8684613e5b565b901c915061333182661b722e10ab1000613e5b565b61333b9082613a73565b905060ff841661334b8684613e5b565b901c9150613360826601317c70077000613e5b565b61336a9082613a73565b905060ff841661337a8684613e5b565b901c915061338e82650cba84aafa00613e5b565b6133989082613a73565b905060ff84166133a88684613e5b565b901c91506133bb826482573a0a00613e5b565b6133c59082613a73565b905060ff84166133d58684613e5b565b901c91506133e8826405035ad900613e5b565b6133f29082613a73565b905060ff84166134028684613e5b565b901c915061341482632f881b00613e5b565b61341e9082613a73565b905060ff841661342e8684613e5b565b901c9150613440826301b29340613e5b565b61344a9082613a73565b905060ff841661345a8684613e5b565b901c915061346b82620efc40613e5b565b6134759082613a73565b905060ff84166134858684613e5b565b901c915061349582617fe0613e5b565b61349f9082613a73565b905060ff84166134af8684613e5b565b901c91506134bf82610420613e5b565b6134c99082613a73565b905060ff84166134d98684613e5b565b901c91506134e8826021613e5b565b6134f29082613a73565b905060ff84166135028684613e5b565b901c9150613511826001613e5b565b61351b9082613a73565b9050600160ff85161b8561353f6f0688589cc0e9505e2f2fee558000000084613c06565b6135499190613a73565b6111539190613a73565b60006135628484111583612070565b60006111538486613c1a565b62461bcd60e51b6000908152602060045260076024526652455123000030600a808404818106603090810160081b95839006959095019082900491820690940160101b939093010160c81b604452606490fd5b6000806101008310156135f4575b60018311156135ef57600192831c926135e89082613f0a565b90506135cf565b613628565b60805b60ff81161561362657600160ff82161b841061361b5760ff81169390931c92908117905b60011c607f166135f7565b505b92915050565b6001600160a01b038116811461364357600080fd5b50565b60008083601f84011261365857600080fd5b50813567ffffffffffffffff81111561367057600080fd5b6020830191508360208260051b850101111561094057600080fd5b60008060008060008060a087890312156136a457600080fd5b86356136af8161362e565b955060208701356136bf8161362e565b945060408701356136cf8161362e565b935060608701359250608087013567ffffffffffffffff8111156136f257600080fd5b6136fe89828a01613646565b979a9699509497509295939492505050565b6020808252825182820181905260009190848201906040850190845b818110156137485783518352928401929184019160010161372c565b50909695505050505050565b6000806040838503121561376757600080fd5b82356137728161362e565b915060208301356137828161362e565b809150509250929050565b6000806000606084860312156137a257600080fd5b83356137ad8161362e565b925060208401356137bd8161362e565b915060408401356137cd8161362e565b809150509250925092565b6000806000606084860312156137ed57600080fd5b83356137f88161362e565b925060208401356138088161362e565b929592945050506040919091013590565b63ffffffff8116811461364357600080fd5b60008060008060008060c0878903121561384457600080fd5b863595506020870135945060408701359350606087013561386481613819565b9250608087013561387481613819565b915060a087013561388481613819565b809150509295509295509295565b600080600080600060a086880312156138aa57600080fd5b8535945060208601359350604086013592506060860135915060808601356138d181613819565b809150509295509295909350565b6000806000806000608086880312156138f757600080fd5b85356139028161362e565b945060208601356139128161362e565b935060408601359250606086013567ffffffffffffffff81111561393557600080fd5b61394188828901613646565b969995985093965092949392505050565b6dffffffffffffffffffffffffffff8116811461364357600080fd5b600080600080600080600060e0888a03121561398957600080fd5b87359650602088013561399b81613952565b955060408801356139ab81613952565b945060608801356139bb81613819565b935060808801356139cb81613819565b925060a08801356139db81613952565b915060c08801356139eb81613952565b8091505092959891949750929550565b600080600060608486031215613a1057600080fd5b505081359360208301359350604090920135919050565b600060208284031215613a3957600080fd5b8135611ee78161362e565b7f4e487b7100000000000000000000000000000000000000000000000000000000600052601160045260246000fd5b60008219821115613a8657613a86613a44565b500190565b7f4e487b7100000000000000000000000000000000000000000000000000000000600052604160045260246000fd5b7f4e487b7100000000000000000000000000000000000000000000000000000000600052603260045260246000fd5b60007fffffffffffffffffffffffffffffffffffffffffffffffffffffffffffffffff821415613b1b57613b1b613a44565b5060010190565b600080600060608486031215613b3757600080fd5b8351613b4281613819565b6020850151909350613b5381613819565b60408501519092506137cd81613819565b600080600060608486031215613b7957600080fd5b8351613b8481613952565b6020850151909350613b5381613952565b600060208284031215613ba757600080fd5b8151611ee78161362e565b600063ffffffff83811690831681811015613bcf57613bcf613a44565b039392505050565b7f4e487b7100000000000000000000000000000000000000000000000000000000600052601260045260246000fd5b600082613c1557613c15613bd7565b500490565b600082821015613c2c57613c2c613a44565b500390565b600081613c4057613c40613a44565b507fffffffffffffffffffffffffffffffffffffffffffffffffffffffffffffffff0190565b60008060408385031215613c7957600080fd5b8251613c8481613819565b602084015190925061378281613819565b600060033d1115613cae5760046000803e5060005160e01c5b90565b7fffffffffffffffffffffffffffffffffffffffffffffffffffffffffffffffe0601f830116810181811067ffffffffffffffff82111715613d1c577f4e487b7100000000000000000000000000000000000000000000000000000000600052604160045260246000fd5b6040525050565b600060443d1015613d315790565b6040517ffffffffffffffffffffffffffffffffffffffffffffffffffffffffffffffffc803d016004833e81513d67ffffffffffffffff8160248401118184111715613d7f57505050505090565b8285019150815181811115613d975750505050505090565b843d8701016020828501011115613db15750505050505090565b613dc060208286010187613cb1565b509095945050505050565b600060208083528351808285015260005b81811015613df857858101830151858201604001528201613ddc565b81811115613e0a576000604083870101525b50601f017fffffffffffffffffffffffffffffffffffffffffffffffffffffffffffffffe016929092016040019392505050565b600060208284031215613e5057600080fd5b8151611ee781613819565b6000817fffffffffffffffffffffffffffffffffffffffffffffffffffffffffffffffff0483118215151615613e9357613e93613a44565b500290565b600060ff821660ff841680821015613eb257613eb2613a44565b90039392505050565b600060ff821680613ece57613ece613a44565b7fffffffffffffffffffffffffffffffffffffffffffffffffffffffffffffffff0192915050565b600082613f0557613f05613bd7565b500690565b600060ff821660ff84168060ff03821115613f2757613f27613a44565b019392505050565b600060ff831680613f4257613f42613bd7565b8060ff8416049150509291505056fea2646970667358221220628fe5069afd97fd0fdbed549fa5e318037c4067ab0a96c68be59eb4b1b43be164736f6c634300080a0033",
  "linkReferences": {},
  "deployedLinkReferences": {}
}