{
  "_format": "hh-sol-artifact-1",
  "contractName": "RequiemFormula",
  "sourceName": "contracts/RequiemFormula.sol",
  "abi": [
    {
      "inputs": [],
      "stateMutability": "nonpayable",
      "type": "constructor"
    },
    {
      "inputs": [
        {
          "internalType": "uint256",
          "name": "reserve0",
          "type": "uint256"
        },
        {
          "internalType": "uint256",
          "name": "reserve1",
          "type": "uint256"
        },
        {
          "internalType": "uint256",
          "name": "balance0Adjusted",
          "type": "uint256"
        },
        {
          "internalType": "uint256",
          "name": "balance1Adjusted",
          "type": "uint256"
        },
        {
          "internalType": "uint32",
          "name": "tokenWeight0",
          "type": "uint32"
        }
      ],
      "name": "ensureConstantValue",
      "outputs": [
        {
          "internalType": "bool",
          "name": "",
          "type": "bool"
        }
      ],
      "stateMutability": "view",
      "type": "function"
    },
    {
      "inputs": [
        {
          "internalType": "uint256",
          "name": "amountOut",
          "type": "uint256"
        },
        {
          "internalType": "uint256",
          "name": "reserveIn",
          "type": "uint256"
        },
        {
          "internalType": "uint256",
          "name": "reserveOut",
          "type": "uint256"
        },
        {
          "internalType": "uint32",
          "name": "tokenWeightIn",
          "type": "uint32"
        },
        {
          "internalType": "uint32",
          "name": "tokenWeightOut",
          "type": "uint32"
        },
        {
          "internalType": "uint32",
          "name": "swapFee",
          "type": "uint32"
        }
      ],
      "name": "getAmountIn",
      "outputs": [
        {
          "internalType": "uint256",
          "name": "amountIn",
          "type": "uint256"
        }
      ],
      "stateMutability": "view",
      "type": "function"
    },
    {
      "inputs": [
        {
          "internalType": "uint256",
          "name": "amountIn",
          "type": "uint256"
        },
        {
          "internalType": "uint256",
          "name": "reserveIn",
          "type": "uint256"
        },
        {
          "internalType": "uint256",
          "name": "reserveOut",
          "type": "uint256"
        },
        {
          "internalType": "uint32",
          "name": "tokenWeightIn",
          "type": "uint32"
        },
        {
          "internalType": "uint32",
          "name": "tokenWeightOut",
          "type": "uint32"
        },
        {
          "internalType": "uint32",
          "name": "swapFee",
          "type": "uint32"
        }
      ],
      "name": "getAmountOut",
      "outputs": [
        {
          "internalType": "uint256",
          "name": "amountOut",
          "type": "uint256"
        }
      ],
      "stateMutability": "view",
      "type": "function"
    },
    {
      "inputs": [
        {
          "internalType": "address",
          "name": "tokenIn",
          "type": "address"
        },
        {
          "internalType": "address",
          "name": "tokenOut",
          "type": "address"
        },
        {
          "internalType": "uint256",
          "name": "amountOut",
          "type": "uint256"
        },
        {
          "internalType": "address[]",
          "name": "path",
          "type": "address[]"
        }
      ],
      "name": "getAmountsIn",
      "outputs": [
        {
          "internalType": "uint256[]",
          "name": "amounts",
          "type": "uint256[]"
        }
      ],
      "stateMutability": "view",
      "type": "function"
    },
    {
      "inputs": [
        {
          "internalType": "address",
          "name": "tokenIn",
          "type": "address"
        },
        {
          "internalType": "address",
          "name": "tokenOut",
          "type": "address"
        },
        {
          "internalType": "uint256",
          "name": "amountIn",
          "type": "uint256"
        },
        {
          "internalType": "address[]",
          "name": "path",
          "type": "address[]"
        }
      ],
      "name": "getAmountsOut",
      "outputs": [
        {
          "internalType": "uint256[]",
          "name": "amounts",
          "type": "uint256[]"
        }
      ],
      "stateMutability": "view",
      "type": "function"
    },
    {
      "inputs": [
        {
          "internalType": "address",
          "name": "factory",
          "type": "address"
        },
        {
          "internalType": "address",
          "name": "tokenIn",
          "type": "address"
        },
        {
          "internalType": "address",
          "name": "tokenOut",
          "type": "address"
        },
        {
          "internalType": "uint256",
          "name": "amountOut",
          "type": "uint256"
        },
        {
          "internalType": "address[]",
          "name": "path",
          "type": "address[]"
        }
      ],
      "name": "getFactoryAmountsIn",
      "outputs": [
        {
          "internalType": "uint256[]",
          "name": "amounts",
          "type": "uint256[]"
        }
      ],
      "stateMutability": "view",
      "type": "function"
    },
    {
      "inputs": [
        {
          "internalType": "address",
          "name": "factory",
          "type": "address"
        },
        {
          "internalType": "address",
          "name": "tokenIn",
          "type": "address"
        },
        {
          "internalType": "address",
          "name": "tokenOut",
          "type": "address"
        },
        {
          "internalType": "uint256",
          "name": "amountIn",
          "type": "uint256"
        },
        {
          "internalType": "address[]",
          "name": "path",
          "type": "address[]"
        }
      ],
      "name": "getFactoryAmountsOut",
      "outputs": [
        {
          "internalType": "uint256[]",
          "name": "amounts",
          "type": "uint256[]"
        }
      ],
      "stateMutability": "view",
      "type": "function"
    },
    {
      "inputs": [
        {
          "internalType": "address",
          "name": "factory",
          "type": "address"
        },
        {
          "internalType": "address",
          "name": "pair",
          "type": "address"
        },
        {
          "internalType": "address",
          "name": "tokenA",
          "type": "address"
        }
      ],
      "name": "getFactoryReserveAndWeights",
      "outputs": [
        {
          "internalType": "address",
          "name": "tokenB",
          "type": "address"
        },
        {
          "internalType": "uint256",
          "name": "reserveA",
          "type": "uint256"
        },
        {
          "internalType": "uint256",
          "name": "reserveB",
          "type": "uint256"
        },
        {
          "internalType": "uint32",
          "name": "tokenWeightA",
          "type": "uint32"
        },
        {
          "internalType": "uint32",
          "name": "tokenWeightB",
          "type": "uint32"
        },
        {
          "internalType": "uint32",
          "name": "swapFee",
          "type": "uint32"
        }
      ],
      "stateMutability": "view",
      "type": "function"
    },
    {
      "inputs": [
        {
          "internalType": "address",
          "name": "factory",
          "type": "address"
        },
        {
          "internalType": "address",
          "name": "pair",
          "type": "address"
        }
      ],
      "name": "getFactoryWeightsAndSwapFee",
      "outputs": [
        {
          "internalType": "uint32",
          "name": "tokenWeight0",
          "type": "uint32"
        },
        {
          "internalType": "uint32",
          "name": "tokenWeight1",
          "type": "uint32"
        },
        {
          "internalType": "uint32",
          "name": "swapFee",
          "type": "uint32"
        }
      ],
      "stateMutability": "view",
      "type": "function"
    },
    {
      "inputs": [
        {
          "internalType": "address",
          "name": "pair",
          "type": "address"
        },
        {
          "internalType": "address",
          "name": "tokenA",
          "type": "address"
        }
      ],
      "name": "getOtherToken",
      "outputs": [
        {
          "internalType": "address",
          "name": "tokenB",
          "type": "address"
        }
      ],
      "stateMutability": "view",
      "type": "function"
    },
    {
      "inputs": [
        {
          "internalType": "address",
          "name": "pair",
          "type": "address"
        },
        {
          "internalType": "address",
          "name": "tokenIn",
          "type": "address"
        },
        {
          "internalType": "uint256",
          "name": "amountOut",
          "type": "uint256"
        }
      ],
      "name": "getPairAmountIn",
      "outputs": [
        {
          "internalType": "uint256",
          "name": "amountIn",
          "type": "uint256"
        }
      ],
      "stateMutability": "view",
      "type": "function"
    },
    {
      "inputs": [
        {
          "internalType": "address",
          "name": "pair",
          "type": "address"
        },
        {
          "internalType": "address",
          "name": "tokenIn",
          "type": "address"
        },
        {
          "internalType": "uint256",
          "name": "amountIn",
          "type": "uint256"
        }
      ],
      "name": "getPairAmountOut",
      "outputs": [
        {
          "internalType": "uint256",
          "name": "amountOut",
          "type": "uint256"
        }
      ],
      "stateMutability": "view",
      "type": "function"
    },
    {
      "inputs": [
        {
          "internalType": "address",
          "name": "pair",
          "type": "address"
        },
        {
          "internalType": "address",
          "name": "tokenA",
          "type": "address"
        }
      ],
      "name": "getReserveAndWeights",
      "outputs": [
        {
          "internalType": "address",
          "name": "tokenB",
          "type": "address"
        },
        {
          "internalType": "uint256",
          "name": "reserveA",
          "type": "uint256"
        },
        {
          "internalType": "uint256",
          "name": "reserveB",
          "type": "uint256"
        },
        {
          "internalType": "uint32",
          "name": "tokenWeightA",
          "type": "uint32"
        },
        {
          "internalType": "uint32",
          "name": "tokenWeightB",
          "type": "uint32"
        },
        {
          "internalType": "uint32",
          "name": "swapFee",
          "type": "uint32"
        }
      ],
      "stateMutability": "view",
      "type": "function"
    },
    {
      "inputs": [
        {
          "internalType": "address",
          "name": "pair",
          "type": "address"
        },
        {
          "internalType": "address",
          "name": "tokenA",
          "type": "address"
        },
        {
          "internalType": "address",
          "name": "tokenB",
          "type": "address"
        }
      ],
      "name": "getReserves",
      "outputs": [
        {
          "internalType": "uint256",
          "name": "reserveA",
          "type": "uint256"
        },
        {
          "internalType": "uint256",
          "name": "reserveB",
          "type": "uint256"
        }
      ],
      "stateMutability": "view",
      "type": "function"
    },
    {
      "inputs": [
        {
          "internalType": "address",
          "name": "pair",
          "type": "address"
        }
      ],
      "name": "getWeightsAndSwapFee",
      "outputs": [
        {
          "internalType": "uint32",
          "name": "tokenWeight0",
          "type": "uint32"
        },
        {
          "internalType": "uint32",
          "name": "tokenWeight1",
          "type": "uint32"
        },
        {
          "internalType": "uint32",
          "name": "swapFee",
          "type": "uint32"
        }
      ],
      "stateMutability": "view",
      "type": "function"
    },
    {
      "inputs": [
        {
          "internalType": "uint256",
          "name": "totalLiquidity",
          "type": "uint256"
        },
        {
          "internalType": "uint112",
          "name": "reserve0",
          "type": "uint112"
        },
        {
          "internalType": "uint112",
          "name": "reserve1",
          "type": "uint112"
        },
        {
          "internalType": "uint32",
          "name": "tokenWeight0",
          "type": "uint32"
        },
        {
          "internalType": "uint32",
          "name": "tokenWeight1",
          "type": "uint32"
        },
        {
          "internalType": "uint112",
          "name": "collectedFee0",
          "type": "uint112"
        },
        {
          "internalType": "uint112",
          "name": "collectedFee1",
          "type": "uint112"
        }
      ],
      "name": "mintLiquidityFee",
      "outputs": [
        {
          "internalType": "uint256",
          "name": "amount",
          "type": "uint256"
        }
      ],
      "stateMutability": "view",
      "type": "function"
    },
    {
      "inputs": [
        {
          "internalType": "uint256",
          "name": "amountA",
          "type": "uint256"
        },
        {
          "internalType": "uint256",
          "name": "reserveA",
          "type": "uint256"
        },
        {
          "internalType": "uint256",
          "name": "reserveB",
          "type": "uint256"
        }
      ],
      "name": "quote",
      "outputs": [
        {
          "internalType": "uint256",
          "name": "amountB",
          "type": "uint256"
        }
      ],
      "stateMutability": "pure",
      "type": "function"
    },
    {
      "inputs": [
        {
          "internalType": "address",
          "name": "tokenA",
          "type": "address"
        },
        {
          "internalType": "address",
          "name": "tokenB",
          "type": "address"
        }
      ],
      "name": "sortTokens",
      "outputs": [
        {
          "internalType": "address",
          "name": "token0",
          "type": "address"
        },
        {
          "internalType": "address",
          "name": "token1",
          "type": "address"
        }
      ],
      "stateMutability": "pure",
      "type": "function"
    }
  ],
  "bytecode": "0x608060405234801561001057600080fd5b5061073f6001641c35fedd1560601b036020556001646c3390ecc9605e1b036021556001640cf801476160611b0360225560016431bdb23e1d605f1b0360235560016502fb1d8fe083605b1b0360245560016505b771955b37605a1b036025556001650af67a93bb5160591b0360265560016515060c256cb360581b036027556001651428a2f98d7360581b036028556001654d515663970960561b03602955600165944620b0e70f60551b03602a55600166011c592761c66760541b03602b5560016602214d10d014eb60531b03602c55600166020ade36b7dbef60531b03602d5560016603eab73b3bbfe360521b03602e556001660782ee3593f6d760511b03602f556001661ccf4b44bb4821604f1b0360305560016606e7f88ad8a77760511b0360315560016669f3d1c921891d604d1b03603255600166cb2ff529eb71e5604c1b03603355600166c2d415c3db974b604c1b0360345560016702eb40f9f620fda7604a1b0360355560016705990681d961a1eb60491b03603655600167055e12902701414760491b0360375560016714962dee9dc9764160471b0360385560016704ef57b9b560fab560491b0360395560016712ed7b32a58f552b60471b03603a556001679131271922eaa60760441b03603b556001678b380f3558668c4760441b03603c556001680215f77c045fbe885760421b03603d556001600160831b03603e556001670f577eded5773a1160471b03603f556001680eb5ec597592befbf5603f1b036040556001681c35fedd14b861eb05603e1b036041556001683619c87664579bc94b603d1b0360425560016867c00a3b07ffc01fd7603c1b03604355600168c6f6c8f8739773a7a5603b1b03604455600168bec763f8209b7a72b1603b1b0360455560016902dbb8caad9b7097b91b60391b03604655600169057b3d49dda84556d6f760381b03604755600169054183095b2c8ececf3160381b036048556001690a14517cc6b9457111ef60371b0360495560016913545598e5c23276ccf160361b03604a556001692511882c39c3adea96ff60351b03604b55600169471649d87199aa99075760341b03604c557004429a21a029d4c1457cfbffffffffffff604d55700415bc6d6fb7dd71af2cb3ffffffffffff604e557003eab73b3bbfe282243ce1ffffffffffff604f557003c1771ac9fb6b4c18e229ffffffffffff605055700399e96897690418f785257fffffffffff605155700373fc456c53bb779bf0ea9fffffffffff60525570034f9e8e490c48e67e6ab8bfffffffffff60535570032cbfd4a7adc790560b3337ffffffffff60545570030b50570f6e5d2acca94613ffffffffff6055557002eb40f9f620fda6b56c2861ffffffffff6056557002cc8340ecb0d0f520a6af58ffffffffff6057557002af09481380a0a35cf1ba02ffffffffff605855700292c5bdd3b92ec810287b1b3fffffffff605955700277abdcdab07d5a77ac6d6b9fffffffff605a5570025daf6654b1eaa55fd64df5efffffffff605b55700244c49c648baa98192dce88b7ffffffff605c5570022ce03cd5619a311b2471268bffffffff605d55700215f77c045fbe885654a44a0fffffffff605e556001600160811b03605f557001eaefdbdaaee7421fc4d3ede5ffffffff6060557001d6bd8b2eb257df7e8ca57b09bfffffff6061557001c35fedd14b861eb0443f7f133fffffff6062557001b0ce43b322bcde4a56e8ada5afffffff60635570019f0028ec1fff007f5a195a39dfffffff60645570018ded91f0e72ee74f49b15ba527ffffff60655570017d8ec7f04136f4e5615fd41a63ffffff60665570016ddc6556cdb84bdc8d12d22e6fffffff60675570015ecf52776a1155b5bd8395814f7fffff60685570015060c256cb23b3b3cc3754cf40ffffff6069557001428a2f98d728ae223ddab715be3fffff606a5570013545598e5c23276ccf0ede68034fffff606b557001288c4161ce1d6f54b7f61081194fffff606c5570011c592761c666aa641d5a01a40f17ffff606d55700110a688680a7530515f3e6e6cfdcdffff606e557001056f1b5bedf75c6bcb2ce8aed428ffff606f556ffaadceceeff8a0890f3875f008277fff6070556ff05dc6b27edad306388a600f6ba0bfff6071556fe67a5a25da41063de1495d5b18cdbfff6072556fdcff115b14eedde6fc3aa5353f2e4fff6073556fd3e7a3924312399f9aae2e0f868f8fff6074556fcb2ff529eb71e41582cccd5a1ee26fff6075556fc2d415c3db974ab32a51840c0b67edff6076556fbad03e7d883f69ad5b0a186184e06bff6077556fb320d03b2c343d4829abd6075f0cc5ff6078556fabc25204e02828d73c6e80bcdb1a95bf6079556fa4b16f74ee4bb2040a1ec6c15fbbf2df607a556f9deaf736ac1f569deb1b5ae3f36c130f607b556f976bd9952c7aa957f5937d790ef65037607c556f9131271922eaa6064b73a22d0bd4f2bf607d556f8b380f3558668c46c91c49a2f8e967b9607e556f857ddf0117efa215952912839f6473e6607f55565b613fea806200074f6000396000f3fe608060405234801561001057600080fd5b50600436106101365760003560e01c80638888a737116100b2578063b19210b011610081578063b3923a9911610066578063b3923a991461032b578063ca2229791461033e578063d69109371461035157600080fd5b8063b19210b014610305578063b33d96b01461031857600080fd5b80638888a737146102b95780638fabd82d146102cc57806392aec23c146102df578063ad615dec146102f257600080fd5b80635bff1d9211610109578063671a11b5116100ee578063671a11b51461027057806367f84adc1461028357806379c91b371461029657600080fd5b80635bff1d92146101f95780636350d7741461024f57600080fd5b8063119220a51461013b5780632bb66e1d14610164578063327494611461019e578063544caa56146101c6575b600080fd5b61014e6101493660046136ee565b61037c565b60405161015b9190613773565b60405180910390f35b6101776101723660046137b7565b61058e565b6040805163ffffffff9485168152928416602084015292169181019190915260600161015b565b6101b16101ac3660046137f0565b610626565b6040805192835260208301919091520161015b565b6101d96101d43660046137b7565b610837565b604080516001600160a01b0393841681529290911660208301520161015b565b61020c6102073660046137b7565b610947565b604080516001600160a01b03909716875260208701959095529385019290925263ffffffff908116606085015290811660808401521660a082015260c00161015b565b61026261025d36600461383b565b610c2c565b60405190815260200161015b565b61026261027e36600461388e565b610c69565b61014e6102913660046136ee565b610e98565b6102a96102a43660046138f5565b611090565b604051901515815260200161015b565b6102626102c736600461383b565b6111b5565b61014e6102da366004613942565b6111ee565b6102626102ed3660046139d1565b6113e7565b610262610300366004613a5e565b6114e4565b61026261031336600461388e565b6115fa565b61020c6103263660046137f0565b6117db565b61014e610339366004613942565b611a77565b61017761034c366004613a8a565b611c5c565b61036461035f3660046137b7565b611dd5565b6040516001600160a01b03909116815260200161015b565b6060816103d05760405162461bcd60e51b815260206004820152601c60248201527f5265717569656d466f726d756c613a20494e56414c49445f504154480000000060448201526064015b60405180910390fd5b6103db826001613ad6565b67ffffffffffffffff8111156103f3576103f3613aee565b60405190808252806020026020018201604052801561041c578160200160208202803683370190505b509050838160008151811061043357610433613b1d565b60209081029190910101528560005b838110156104fb576000806000806000806104848f8c8c8a81811061046957610469613b1d565b905060200201602081019061047e9190613a8a565b8a6117db565b9550955095509550955095506104b78988815181106104a5576104a5613b1d565b60200260200101518686868686610c69565b896104c3896001613ad6565b815181106104d3576104d3613b1d565b60200260200101818152505085975050505050505080806104f390613b4c565b915050610442565b50856001600160a01b0316816001600160a01b0316146105835760405162461bcd60e51b815260206004820152602660248201527f5265717569656d466f726d756c613a20494e56414c49445f544f4b454e5f4f5560448201527f545f50415448000000000000000000000000000000000000000000000000000060648201526084016103c7565b509695505050505050565b6040517fca2229790000000000000000000000000000000000000000000000000000000081526001600160a01b038281166004830152600091829182919086169063ca22297990602401606060405180830381865afa1580156105f5573d6000803e3d6000fd5b505050506040513d601f19601f820116820180604052508101906106199190613b85565b9250925092509250925092565b6000806000806106368686610837565b91509150600080886001600160a01b0316630902f1ac6040518163ffffffff1660e01b8152600401606060405180830381865afa15801561067b573d6000803e3d6000fd5b505050506040513d601f19601f8201168201806040525081019061069f9190613bc7565b506dffffffffffffffffffffffffffff1691506dffffffffffffffffffffffffffff169150886001600160a01b0316630dfe16816040518163ffffffff1660e01b8152600401602060405180830381865afa158015610702573d6000803e3d6000fd5b505050506040513d601f19601f820116820180604052508101906107269190613bf8565b6001600160a01b0316846001600160a01b03161480156107b85750886001600160a01b031663d21220a76040518163ffffffff1660e01b8152600401602060405180830381865afa15801561077f573d6000803e3d6000fd5b505050506040513d601f19601f820116820180604052508101906107a39190613bf8565b6001600160a01b0316836001600160a01b0316145b6108045760405162461bcd60e51b815260206004820152601d60248201527f5265717569656d466f726d756c613a20496e76616c696420746f6b656e00000060448201526064016103c7565b836001600160a01b0316886001600160a01b031614610824578082610827565b81815b909a909950975050505050505050565b600080826001600160a01b0316846001600160a01b031614156108c25760405162461bcd60e51b815260206004820152602360248201527f5265717569656d466f726d756c613a204944454e544943414c5f41444452455360448201527f534553000000000000000000000000000000000000000000000000000000000060648201526084016103c7565b826001600160a01b0316846001600160a01b0316106108e25782846108e5565b83835b90925090506001600160a01b0382166109405760405162461bcd60e51b815260206004820152601c60248201527f5265717569656d466f726d756c613a205a45524f5f414444524553530000000060448201526064016103c7565b9250929050565b600080600080600080600080896001600160a01b0316630902f1ac6040518163ffffffff1660e01b8152600401606060405180830381865afa158015610991573d6000803e3d6000fd5b505050506040513d601f19601f820116820180604052508101906109b59190613bc7565b506dffffffffffffffffffffffffffff1691506dffffffffffffffffffffffffffff1691506000806109e68c611c5c565b8097508193508294505050508b6001600160a01b0316630dfe16816040518163ffffffff1660e01b8152600401602060405180830381865afa158015610a30573d6000803e3d6000fd5b505050506040513d601f19601f82011682018060405250810190610a549190613bf8565b6001600160a01b03168b6001600160a01b03161415610ae4578b6001600160a01b031663d21220a76040518163ffffffff1660e01b8152600401602060405180830381865afa158015610aab573d6000803e3d6000fd5b505050506040513d601f19601f82011682018060405250810190610acf9190613bf8565b99509297509095509350915084848484610c1e565b8b6001600160a01b031663d21220a76040518163ffffffff1660e01b8152600401602060405180830381865afa158015610b22573d6000803e3d6000fd5b505050506040513d601f19601f82011682018060405250810190610b469190613bf8565b6001600160a01b03168b6001600160a01b03161415610bd6578b6001600160a01b0316630dfe16816040518163ffffffff1660e01b8152600401602060405180830381865afa158015610b9d573d6000803e3d6000fd5b505050506040513d601f19601f82011682018060405250810190610bc19190613bf8565b99509197509195509350915083858385610c1e565b60405162461bcd60e51b815260206004820152601e60248201527f5265717569656d466f726d756c613a20496e76616c696420746f6b656e41000060448201526064016103c7565b505050509295509295509295565b6000806000806000806000610c418a8a610947565b955095509550955095509550610c5b8885878587866115fa565b9a9950505050505050505050565b6000808711610ce05760405162461bcd60e51b815260206004820152602960248201527f5265717569656d466f726d756c613a20494e53554646494349454e545f494e5060448201527f55545f414d4f554e54000000000000000000000000000000000000000000000060648201526084016103c7565b600086118015610cf05750600085115b610d625760405162461bcd60e51b815260206004820152602660248201527f5265717569656d466f726d756c613a20494e53554646494349454e545f4c495160448201527f554944495459000000000000000000000000000000000000000000000000000060648201526084016103c7565b6000610d88610d7384612710613c15565b63ffffffff1689611f3e90919063ffffffff16565b90508363ffffffff168563ffffffff161415610dd057610db481610dae89612710611f3e565b90611f51565b610dbe8783611f3e565b610dc89190613c69565b915050610e8e565b60008080610de484610dae8c612710611f3e565b9050610dfd81610df68c612710611f3e565b8a8a611f6e565b90935091506000610e0e8a85611f3e565b905060ff83168a901b6000610e238284613c7d565b11610e705760405162461bcd60e51b815260206004820152600560248201527f484948494800000000000000000000000000000000000000000000000000000060448201526064016103c7565b84610e7b8284613c7d565b610e859190613c69565b96505050505050505b9695505050505050565b606081610ee75760405162461bcd60e51b815260206004820152601c60248201527f5265717569656d466f726d756c613a20494e56414c49445f504154480000000060448201526064016103c7565b610ef2826001613ad6565b67ffffffffffffffff811115610f0a57610f0a613aee565b604051908082528060200260200182016040528015610f33578160200160208202803683370190505b509050838160018351610f469190613c7d565b81518110610f5657610f56613b1d565b602090810291909101015284825b80156110085760008080808080610f918f8c8c610f8260018c613c7d565b81811061046957610469613b1d565b955095509550955095509550610fc4898881518110610fb257610fb2613b1d565b602002602001015185878587866115fa565b89610fd060018a613c7d565b81518110610fe057610fe0613b1d565b602002602001018181525050859750505050505050808061100090613c94565b915050610f64565b50866001600160a01b0316816001600160a01b0316146105835760405162461bcd60e51b815260206004820152602560248201527f5265717569656d466f726d756c613a20494e56414c49445f544f4b454e5f494e60448201527f5f5041544800000000000000000000000000000000000000000000000000000060648201526084016103c7565b60008163ffffffff16603214156110be576110ab8686611f3e565b6110b58585611f3e565b101590506111ac565b8584101580156110ce5750848310155b156110db575060016111ac565b8584111580156110eb5750848311155b156110f8575060006111ac565b816000611106826064613c15565b90506000806000808b8a10611144576111228b8a876032611f6e565b90945060ff1692506111378a8d886032611f6e565b90925060ff16905061116f565b6111518c8b886032611f6e565b90945060ff169250611166898c876032611f6e565b90925060ff1690505b600081841061117e5781611180565b835b905061118c8185613c7d565b93506111988183613c7d565b9290921c9390921c92909211159450505050505b95945050505050565b6000806000806000806111c88989610947565b95509550955095509550506111e1878686868686610c69565b9998505050505050505050565b60608161123d5760405162461bcd60e51b815260206004820152601c60248201527f5265717569656d466f726d756c613a20494e56414c49445f504154480000000060448201526064016103c7565b611248826001613ad6565b67ffffffffffffffff81111561126057611260613aee565b604051908082528060200260200182016040528015611289578160200160208202803683370190505b50905083816000815181106112a0576112a0613b1d565b60209081029190910101528560005b83811015611355576000806000806000806112f08b8b898181106112d5576112d5613b1d565b90506020020160208101906112ea9190613a8a565b89610947565b9550955095509550955095506113118988815181106104a5576104a5613b1d565b8961131d896001613ad6565b8151811061132d5761132d613b1d565b602002602001018181525050859750505050505050808061134d90613b4c565b9150506112af565b50856001600160a01b0316816001600160a01b0316146113dd5760405162461bcd60e51b815260206004820152602660248201527f5265717569656d466f726d756c613a20494e56414c49445f544f4b454e5f4f5560448201527f545f50415448000000000000000000000000000000000000000000000000000060648201526084016103c7565b5095945050505050565b60006dffffffffffffffffffffffffffff8316156114685760008061143b6114226dffffffffffffffffffffffffffff878116908c16611f51565b8a6dffffffffffffffffffffffffffff16896064611f6e565b90925060ff1690506114638a61145d836114558387611f3e565b87911c611f51565b906120c5565b925050505b6dffffffffffffffffffffffffffff8216156114d9576000806114ba6114a16dffffffffffffffffffffffffffff868116908b16611f51565b896dffffffffffffffffffffffffffff16886064611f6e565b90925060ff1690506114d48a61145d836114558387611f3e565b925050505b979650505050505050565b600080841161155b5760405162461bcd60e51b815260206004820152602360248201527f5265717569656d466f726d756c613a20494e53554646494349454e545f414d4f60448201527f554e54000000000000000000000000000000000000000000000000000000000060648201526084016103c7565b60008311801561156b5750600082115b6115dd5760405162461bcd60e51b815260206004820152602660248201527f5265717569656d466f726d756c613a20494e53554646494349454e545f4c495160448201527f554944495459000000000000000000000000000000000000000000000000000060648201526084016103c7565b826115e88584611f3e565b6115f29190613c69565b949350505050565b60008087116116715760405162461bcd60e51b815260206004820152602a60248201527f5265717569656d466f726d756c613a20494e53554646494349454e545f4f555460448201527f5055545f414d4f554e540000000000000000000000000000000000000000000060648201526084016103c7565b6000861180156116815750600085115b6116f35760405162461bcd60e51b815260206004820152602660248201527f5265717569656d466f726d756c613a20494e53554646494349454e545f4c495160448201527f554944495459000000000000000000000000000000000000000000000000000060648201526084016103c7565b8263ffffffff168463ffffffff16141561176557600061171f612710611719898b611f3e565b90611f3e565b9050600061174b61173285612710613c15565b63ffffffff166117198b8a6120c590919063ffffffff16565b905061175c6001610dae8385613c69565b92505050610e8e565b60008080611773888b6120c5565b90506117818882888a611f6e565b909350915060006117948a612710611f3e565b905060006117a28286611f3e565b905060ff841682901b610e8560016117bc8a612710613c15565b63ffffffff1660ff88166117d08587613c7d565b610dae92911c613c69565b600080600080600080600080896001600160a01b0316630902f1ac6040518163ffffffff1660e01b8152600401606060405180830381865afa158015611825573d6000803e3d6000fd5b505050506040513d601f19601f820116820180604052508101906118499190613bc7565b506dffffffffffffffffffffffffffff1691506dffffffffffffffffffffffffffff16915060008061187b8d8d61058e565b8097508193508294505050508b6001600160a01b0316630dfe16816040518163ffffffff1660e01b8152600401602060405180830381865afa1580156118c5573d6000803e3d6000fd5b505050506040513d601f19601f820116820180604052508101906118e99190613bf8565b6001600160a01b03168b6001600160a01b03161415611979578b6001600160a01b031663d21220a76040518163ffffffff1660e01b8152600401602060405180830381865afa158015611940573d6000803e3d6000fd5b505050506040513d601f19601f820116820180604052508101906119649190613bf8565b99509297509095509350915084848484611a67565b8b6001600160a01b031663d21220a76040518163ffffffff1660e01b8152600401602060405180830381865afa1580156119b7573d6000803e3d6000fd5b505050506040513d601f19601f820116820180604052508101906119db9190613bf8565b6001600160a01b03168b6001600160a01b03161415610bd6578b6001600160a01b0316630dfe16816040518163ffffffff1660e01b8152600401602060405180830381865afa158015611a32573d6000803e3d6000fd5b505050506040513d601f19601f82011682018060405250810190611a569190613bf8565b995091975091955093509150838583855b5050505093975093979195509350565b606081611ac65760405162461bcd60e51b815260206004820152601c60248201527f5265717569656d466f726d756c613a20494e56414c49445f504154480000000060448201526064016103c7565b611ad1826001613ad6565b67ffffffffffffffff811115611ae957611ae9613aee565b604051908082528060200260200182016040528015611b12578160200160208202803683370190505b509050838160018351611b259190613c7d565b81518110611b3557611b35613b1d565b602090810291909101015284825b8015611bd45760008080808080611b6f8b8b611b6060018b613c7d565b8181106112d5576112d5613b1d565b955095509550955095509550611b90898881518110610fb257610fb2613b1d565b89611b9c60018a613c7d565b81518110611bac57611bac613b1d565b6020026020010181815250508597505050505050508080611bcc90613c94565b915050611b43565b50866001600160a01b0316816001600160a01b0316146113dd5760405162461bcd60e51b815260206004820152602560248201527f5265717569656d466f726d756c613a20494e56414c49445f544f4b454e5f494e60448201527f5f5041544800000000000000000000000000000000000000000000000000000060648201526084016103c7565b6000806000836001600160a01b03166332bfe4696040518163ffffffff1660e01b81526004016040805180830381865afa925050508015611cd8575060408051601f3d9081017fffffffffffffffffffffffffffffffffffffffffffffffffffffffffffffffe0168201909252611cd591810190613cc9565b60015b611d6157611ce4613cf8565b806308c379a01415611d1e5750611cf9613d86565b80611d045750611d20565b8060405162461bcd60e51b81526004016103c79190613e2e565b505b3d808015611d4a576040519150601f19603f3d011682016040523d82523d6000602084013e611d4f565b606091505b50603280601e93509350935050611dce565b8181876001600160a01b031663d4cadf686040518163ffffffff1660e01b8152600401602060405180830381865afa158015611da1573d6000803e3d6000fd5b505050506040513d601f19601f82011682018060405250810190611dc59190613ea1565b94509450945050505b9193909250565b600080836001600160a01b0316630dfe16816040518163ffffffff1660e01b8152600401602060405180830381865afa158015611e16573d6000803e3d6000fd5b505050506040513d601f19601f82011682018060405250810190611e3a9190613bf8565b90506000846001600160a01b031663d21220a76040518163ffffffff1660e01b8152600401602060405180830381865afa158015611e7c573d6000803e3d6000fd5b505050506040513d601f19601f82011682018060405250810190611ea09190613bf8565b9050836001600160a01b0316826001600160a01b03161480611ed35750836001600160a01b0316816001600160a01b0316145b611f1f5760405162461bcd60e51b815260206004820152601e60248201527f5265717569656d466f726d756c613a20496e76616c696420746f6b656e41000060448201526064016103c7565b836001600160a01b0316826001600160a01b0316146115f257816111ac565b6000611f4a8284613ebe565b9392505050565b600080611f5e8385613ad6565b9050611f4a8482101560006120d3565b60008084861015611fc15760405162461bcd60e51b815260206004820152601b60248201527f6e6f7420737570706f7274205f626173654e203c205f6261736544000000000060448201526064016103c7565b7002000000000000000000000000000000008610611fde57600080fd5b60008086611ff06001607f1b8a613ebe565b611ffa9190613c69565b905070015bf0a8b1457695355fb8ac404e7a79e38110156120255761201e816120e5565b9150612031565b61202e8161271b565b91505b60008563ffffffff168763ffffffff168461204c9190613ebe565b6120569190613c69565b90507008000000000000000000000000000000008110156120885761207a81612823565b607f945094505050506120bc565b600061209382612ea5565b90506120af6120a382607f613efb565b60ff1683901c82612f58565b955093506120bc92505050565b94509492505050565b6000611f4a838360016135b6565b816120e1576120e1816135d1565b5050565b6000808080806fd3094c70f034de4b96ff7d5b6f99fcd8861061214a5761211c6f4000000000000000000000000000000085613ad6565b93506fd3094c70f034de4b96ff7d5b6f99fcd861213d6001607f1b88613ebe565b6121479190613c69565b95505b6fa45af1e1f40c333b3de1db4dd55f29a786106121a95761217b6f2000000000000000000000000000000085613ad6565b93506fa45af1e1f40c333b3de1db4dd55f29a761219c6001607f1b88613ebe565b6121a69190613c69565b95505b6f910b022db7ae67ce76b441c27035c6a18610612208576121da6f1000000000000000000000000000000085613ad6565b93506f910b022db7ae67ce76b441c27035c6a16121fb6001607f1b88613ebe565b6122059190613c69565b95505b6f88415abbe9a76bead8d00cf112e4d4a88610612267576122396f0800000000000000000000000000000085613ad6565b93506f88415abbe9a76bead8d00cf112e4d4a861225a6001607f1b88613ebe565b6122649190613c69565b95505b6f84102b00893f64c705e841d5d4064bd386106122c6576122986f0400000000000000000000000000000085613ad6565b93506f84102b00893f64c705e841d5d4064bd36122b96001607f1b88613ebe565b6122c39190613c69565b95505b6f8204055aaef1c8bd5c3259f4822735a28610612325576122f76f0200000000000000000000000000000085613ad6565b93506f8204055aaef1c8bd5c3259f4822735a26123186001607f1b88613ebe565b6123229190613c69565b95505b6f810100ab00222d861931c15e39b44e998610612384576123566f0100000000000000000000000000000085613ad6565b93506f810100ab00222d861931c15e39b44e996123776001607f1b88613ebe565b6123819190613c69565b95505b6f808040155aabbbe9451521693554f73386106123e2576123b46e80000000000000000000000000000085613ad6565b93506f808040155aabbbe9451521693554f7336123d56001607f1b88613ebe565b6123df9190613c69565b95505b6123f06001607f1b87613c7d565b92508291506001607f1b6124048380613ebe565b61240e9190613c69565b905070010000000000000000000000000000000061242c8482613c7d565b6124369084613ebe565b6124409190613c69565b61244a9085613ad6565b93506001607f1b61245b8284613ebe565b6124659190613c69565b9150700200000000000000000000000000000000612493846faaaaaaaaaaaaaaaaaaaaaaaaaaaaaaaa613c7d565b61249d9084613ebe565b6124a79190613c69565b6124b19085613ad6565b93506001607f1b6124c28284613ebe565b6124cc9190613c69565b91507003000000000000000000000000000000006124fa846f99999999999999999999999999999999613c7d565b6125049084613ebe565b61250e9190613c69565b6125189085613ad6565b93506001607f1b6125298284613ebe565b6125339190613c69565b9150700400000000000000000000000000000000612561846f92492492492492492492492492492492613c7d565b61256b9084613ebe565b6125759190613c69565b61257f9085613ad6565b93506001607f1b6125908284613ebe565b61259a9190613c69565b91507005000000000000000000000000000000006125c8846f8e38e38e38e38e38e38e38e38e38e38e613c7d565b6125d29084613ebe565b6125dc9190613c69565b6125e69085613ad6565b93506001607f1b6125f78284613ebe565b6126019190613c69565b915070060000000000000000000000000000000061262f846f8ba2e8ba2e8ba2e8ba2e8ba2e8ba2e8b613c7d565b6126399084613ebe565b6126439190613c69565b61264d9085613ad6565b93506001607f1b61265e8284613ebe565b6126689190613c69565b9150700700000000000000000000000000000000612696846f89d89d89d89d89d89d89d89d89d89d89613c7d565b6126a09084613ebe565b6126aa9190613c69565b6126b49085613ad6565b93506001607f1b6126c58284613ebe565b6126cf9190613c69565b91507008000000000000000000000000000000006126fd846f88888888888888888888888888888888613c7d565b6127079084613ebe565b6127119190613c69565b610e8e9085613ad6565b600080700100000000000000000000000000000000831061276c57600061274e6127496001607f1b86613c69565b613624565b60ff811694851c94909150612768906001607f1b90613ebe565b9150505b6001607f1b8311156127ee57607f5b60ff8116156127ec576001607f1b6127938580613ebe565b61279d9190613c69565b935070010000000000000000000000000000000084106127dc57600193841c936127c79082613efb565b60ff166001901b826127d99190613ad6565b91505b6127e581613f1e565b905061277b565b505b6f05b9de1d10bf4103d647b0955897ba806128196f03f80fe03f80fe03f80fe03f80fe03f883613ebe565b611f4a9190613c69565b60008080806128426f1000000000000000000000000000000086613f59565b91508190506001607f1b6128568280613ebe565b6128609190613c69565b9050612874816710e1b3be415a0000613ebe565b61287e9084613ad6565b92506001607f1b61288f8383613ebe565b6128999190613c69565b90506128ad816705a0913f6b1e0000613ebe565b6128b79084613ad6565b92506001607f1b6128c88383613ebe565b6128d29190613c69565b90506128e681670168244fdac78000613ebe565b6128f09084613ad6565b92506001607f1b6129018383613ebe565b61290b9190613c69565b905061291e81664807432bc18000613ebe565b6129289084613ad6565b92506001607f1b6129398383613ebe565b6129439190613c69565b905061295681660c0135dca04000613ebe565b6129609084613ad6565b92506001607f1b6129718383613ebe565b61297b9190613c69565b905061298e816601b707b1cdc000613ebe565b6129989084613ad6565b92506001607f1b6129a98383613ebe565b6129b39190613c69565b90506129c5816536e0f639b800613ebe565b6129cf9084613ad6565b92506001607f1b6129e08383613ebe565b6129ea9190613c69565b90506129fc81650618fee9f800613ebe565b612a069084613ad6565b92506001607f1b612a178383613ebe565b612a219190613c69565b9050612a3281649c197dcc00613ebe565b612a3c9084613ad6565b92506001607f1b612a4d8383613ebe565b612a579190613c69565b9050612a6881640e30dce400613ebe565b612a729084613ad6565b92506001607f1b612a838383613ebe565b612a8d9190613c69565b9050612a9e8164012ebd1300613ebe565b612aa89084613ad6565b92506001607f1b612ab98383613ebe565b612ac39190613c69565b9050612ad3816317499f00613ebe565b612add9084613ad6565b92506001607f1b612aee8383613ebe565b612af89190613c69565b9050612b08816301a9d480613ebe565b612b129084613ad6565b92506001607f1b612b238383613ebe565b612b2d9190613c69565b9050612b3c81621c6380613ebe565b612b469084613ad6565b92506001607f1b612b578383613ebe565b612b619190613c69565b9050612b70816201c638613ebe565b612b7a9084613ad6565b92506001607f1b612b8b8383613ebe565b612b959190613c69565b9050612ba381611ab8613ebe565b612bad9084613ad6565b92506001607f1b612bbe8383613ebe565b612bc89190613c69565b9050612bd68161017c613ebe565b612be09084613ad6565b92506001607f1b612bf18383613ebe565b612bfb9190613c69565b9050612c08816014613ebe565b612c129084613ad6565b92506001607f1b612c238383613ebe565b612c2d9190613c69565b9050612c3a816001613ebe565b612c449084613ad6565b92506001607f1b82612c5e6721c3677c82b4000086613c69565b612c689190613ad6565b612c729190613ad6565b92506f10000000000000000000000000000000851615612cc65770018ebef9eac820ae8682b9793ac6d1e776612cb9847001c3d6a24ed82218787d624d3e5eba95f9613ebe565b612cc39190613c69565b92505b6f20000000000000000000000000000000851615612d18577001368b2fc6f9609fe7aceb46aa619baed4612d0b8470018ebef9eac820ae8682b9793ac6d1e778613ebe565b612d159190613c69565b92505b6f40000000000000000000000000000000851615612d69576fbc5ab1b16779be3575bd8f0520a9f21f612d5c847001368b2fc6f9609fe7aceb46aa619baed5613ebe565b612d669190613c69565b92505b6001607f1b851615612dad576f454aaa8efe072e7f6ddbab84b40a55c9612da0846fbc5ab1b16779be3575bd8f0520a9f21e613ebe565b612daa9190613c69565b92505b700100000000000000000000000000000000851615612dfe576f0960aadc109e7a3bf4578099615711ea612df1846f454aaa8efe072e7f6ddbab84b40a55c5613ebe565b612dfb9190613c69565b92505b700200000000000000000000000000000000851615612e4e576e2bf84208204f5977f9a8cf01fdce3d612e41846f0960aadc109e7a3bf4578099615711d7613ebe565b612e4b9190613c69565b92505b700400000000000000000000000000000000851615612e9c576d03c6ab775dd0b95b4cbee7e65d11612e8f846e2bf84208204f5977f9a8cf01fdc307613ebe565b612e999190613c69565b92505b50909392505050565b60006020607f5b60ff8116612ebb836001613f6d565b60ff161015612f0e5760006002612ed28385613f6d565b612edc9190613f92565b90508460008260ff1660808110612ef557612ef5613b1d565b015410612f0457809250612f08565b8091505b50612eac565b8360008260ff1660808110612f2557612f25613b1d565b015410612f33579392505050565b8360008360ff1660808110612f4a57612f4a613b1d565b015410610136575092915050565b6000828160ff8416612f6a8380613ebe565b901c9150612f88826f03442c4e6074a82f1797f72ac0000000613ebe565b612f929082613ad6565b905060ff8416612fa28684613ebe565b901c9150612fc0826f0116b96f757c380fb287fd0e40000000613ebe565b612fca9082613ad6565b905060ff8416612fda8684613ebe565b901c9150612ff7826e45ae5bdd5f0e03eca1ff4390000000613ebe565b6130019082613ad6565b905060ff84166130118684613ebe565b901c915061302e826e0defabf91302cd95b9ffda50000000613ebe565b6130389082613ad6565b905060ff84166130488684613ebe565b901c9150613065826e02529ca9832b22439efff9b8000000613ebe565b61306f9082613ad6565b905060ff841661307f8684613ebe565b901c915061309b826d54f1cf12bd04e516b6da88000000613ebe565b6130a59082613ad6565b905060ff84166130b58684613ebe565b901c91506130d1826d0a9e39e257a09ca2d6db51000000613ebe565b6130db9082613ad6565b905060ff84166130eb8684613ebe565b901c9150613107826d012e066e7b839fa050c309000000613ebe565b6131119082613ad6565b905060ff84166131218684613ebe565b901c915061313c826c1e33d7d926c329a1ad1a800000613ebe565b6131469082613ad6565b905060ff84166131568684613ebe565b901c9150613171826c02bee513bdb4a6b19b5f800000613ebe565b61317b9082613ad6565b905060ff841661318b8684613ebe565b901c91506131a5826b3a9316fa79b88eccf2a00000613ebe565b6131af9082613ad6565b905060ff84166131bf8684613ebe565b901c91506131d9826b048177ebe1fa812375200000613ebe565b6131e39082613ad6565b905060ff84166131f38684613ebe565b901c915061320c826a5263fe90242dcbacf00000613ebe565b6132169082613ad6565b905060ff84166132268684613ebe565b901c915061323f826a057e22099c030d94100000613ebe565b6132499082613ad6565b905060ff84166132598684613ebe565b901c9150613271826957e22099c030d9410000613ebe565b61327b9082613ad6565b905060ff841661328b8684613ebe565b901c91506132a38269052b6b54569976310000613ebe565b6132ad9082613ad6565b905060ff84166132bd8684613ebe565b901c91506132d482684985f67696bf748000613ebe565b6132de9082613ad6565b905060ff84166132ee8684613ebe565b901c9150613305826803dea12ea99e498000613ebe565b61330f9082613ad6565b905060ff841661331f8684613ebe565b901c9150613335826731880f2214b6e000613ebe565b61333f9082613ad6565b905060ff841661334f8684613ebe565b901c91506133658267025bcff56eb36000613ebe565b61336f9082613ad6565b905060ff841661337f8684613ebe565b901c915061339482661b722e10ab1000613ebe565b61339e9082613ad6565b905060ff84166133ae8684613ebe565b901c91506133c3826601317c70077000613ebe565b6133cd9082613ad6565b905060ff84166133dd8684613ebe565b901c91506133f182650cba84aafa00613ebe565b6133fb9082613ad6565b905060ff841661340b8684613ebe565b901c915061341e826482573a0a00613ebe565b6134289082613ad6565b905060ff84166134388684613ebe565b901c915061344b826405035ad900613ebe565b6134559082613ad6565b905060ff84166134658684613ebe565b901c915061347782632f881b00613ebe565b6134819082613ad6565b905060ff84166134918684613ebe565b901c91506134a3826301b29340613ebe565b6134ad9082613ad6565b905060ff84166134bd8684613ebe565b901c91506134ce82620efc40613ebe565b6134d89082613ad6565b905060ff84166134e88684613ebe565b901c91506134f882617fe0613ebe565b6135029082613ad6565b905060ff84166135128684613ebe565b901c915061352282610420613ebe565b61352c9082613ad6565b905060ff841661353c8684613ebe565b901c915061354b826021613ebe565b6135559082613ad6565b905060ff84166135658684613ebe565b901c9150613574826001613ebe565b61357e9082613ad6565b9050600160ff85161b856135a26f0688589cc0e9505e2f2fee558000000084613c69565b6135ac9190613ad6565b6111ac9190613ad6565b60006135c584841115836120d3565b60006111ac8486613c7d565b62461bcd60e51b6000908152602060045260076024526652455123000030600a808404818106603090810160081b95839006959095019082900491820690940160101b939093010160c81b604452606490fd5b600080610100831015613657575b600183111561365257600192831c9261364b9082613f6d565b9050613632565b61368b565b60805b60ff81161561368957600160ff82161b841061367e5760ff81169390931c92908117905b60011c607f1661365a565b505b92915050565b6001600160a01b03811681146136a657600080fd5b50565b60008083601f8401126136bb57600080fd5b50813567ffffffffffffffff8111156136d357600080fd5b6020830191508360208260051b850101111561094057600080fd5b60008060008060008060a0878903121561370757600080fd5b863561371281613691565b9550602087013561372281613691565b9450604087013561373281613691565b935060608701359250608087013567ffffffffffffffff81111561375557600080fd5b61376189828a016136a9565b979a9699509497509295939492505050565b6020808252825182820181905260009190848201906040850190845b818110156137ab5783518352928401929184019160010161378f565b50909695505050505050565b600080604083850312156137ca57600080fd5b82356137d581613691565b915060208301356137e581613691565b809150509250929050565b60008060006060848603121561380557600080fd5b833561381081613691565b9250602084013561382081613691565b9150604084013561383081613691565b809150509250925092565b60008060006060848603121561385057600080fd5b833561385b81613691565b9250602084013561386b81613691565b929592945050506040919091013590565b63ffffffff811681146136a657600080fd5b60008060008060008060c087890312156138a757600080fd5b86359550602087013594506040870135935060608701356138c78161387c565b925060808701356138d78161387c565b915060a08701356138e78161387c565b809150509295509295509295565b600080600080600060a0868803121561390d57600080fd5b8535945060208601359350604086013592506060860135915060808601356139348161387c565b809150509295509295909350565b60008060008060006080868803121561395a57600080fd5b853561396581613691565b9450602086013561397581613691565b935060408601359250606086013567ffffffffffffffff81111561399857600080fd5b6139a4888289016136a9565b969995985093965092949392505050565b6dffffffffffffffffffffffffffff811681146136a657600080fd5b600080600080600080600060e0888a0312156139ec57600080fd5b8735965060208801356139fe816139b5565b95506040880135613a0e816139b5565b94506060880135613a1e8161387c565b93506080880135613a2e8161387c565b925060a0880135613a3e816139b5565b915060c0880135613a4e816139b5565b8091505092959891949750929550565b600080600060608486031215613a7357600080fd5b505081359360208301359350604090920135919050565b600060208284031215613a9c57600080fd5b8135611f4a81613691565b7f4e487b7100000000000000000000000000000000000000000000000000000000600052601160045260246000fd5b60008219821115613ae957613ae9613aa7565b500190565b7f4e487b7100000000000000000000000000000000000000000000000000000000600052604160045260246000fd5b7f4e487b7100000000000000000000000000000000000000000000000000000000600052603260045260246000fd5b60007fffffffffffffffffffffffffffffffffffffffffffffffffffffffffffffffff821415613b7e57613b7e613aa7565b5060010190565b600080600060608486031215613b9a57600080fd5b8351613ba58161387c565b6020850151909350613bb68161387c565b60408501519092506138308161387c565b600080600060608486031215613bdc57600080fd5b8351613be7816139b5565b6020850151909350613bb6816139b5565b600060208284031215613c0a57600080fd5b8151611f4a81613691565b600063ffffffff83811690831681811015613c3257613c32613aa7565b039392505050565b7f4e487b7100000000000000000000000000000000000000000000000000000000600052601260045260246000fd5b600082613c7857613c78613c3a565b500490565b600082821015613c8f57613c8f613aa7565b500390565b600081613ca357613ca3613aa7565b507fffffffffffffffffffffffffffffffffffffffffffffffffffffffffffffffff0190565b60008060408385031215613cdc57600080fd5b8251613ce78161387c565b60208401519092506137e58161387c565b600060033d1115613d115760046000803e5060005160e01c5b90565b7fffffffffffffffffffffffffffffffffffffffffffffffffffffffffffffffe0601f830116810181811067ffffffffffffffff82111715613d7f577f4e487b7100000000000000000000000000000000000000000000000000000000600052604160045260246000fd5b6040525050565b600060443d1015613d945790565b6040517ffffffffffffffffffffffffffffffffffffffffffffffffffffffffffffffffc803d016004833e81513d67ffffffffffffffff8160248401118184111715613de257505050505090565b8285019150815181811115613dfa5750505050505090565b843d8701016020828501011115613e145750505050505090565b613e2360208286010187613d14565b509095945050505050565b600060208083528351808285015260005b81811015613e5b57858101830151858201604001528201613e3f565b81811115613e6d576000604083870101525b50601f017fffffffffffffffffffffffffffffffffffffffffffffffffffffffffffffffe016929092016040019392505050565b600060208284031215613eb357600080fd5b8151611f4a8161387c565b6000817fffffffffffffffffffffffffffffffffffffffffffffffffffffffffffffffff0483118215151615613ef657613ef6613aa7565b500290565b600060ff821660ff841680821015613f1557613f15613aa7565b90039392505050565b600060ff821680613f3157613f31613aa7565b7fffffffffffffffffffffffffffffffffffffffffffffffffffffffffffffffff0192915050565b600082613f6857613f68613c3a565b500690565b600060ff821660ff84168060ff03821115613f8a57613f8a613aa7565b019392505050565b600060ff831680613fa557613fa5613c3a565b8060ff8416049150509291505056fea2646970667358221220dfbdab3a2fa6e2b889ced1e3ac5cb06467cbdf48fe331642b5f5a72edc49b78664736f6c634300080a0033",
  "linkReferences": {},
  "deployedLinkReferences": {}
}