{
  "address": "0xfe8BaD475CA9F012ba52a93b2fb5048f271373D7",
  "abi": [
    {
      "inputs": [
        {
          "internalType": "address",
          "name": "admin",
          "type": "address"
        }
      ],
      "stateMutability": "nonpayable",
      "type": "constructor"
    },
    {
      "anonymous": false,
      "inputs": [
        {
          "indexed": true,
          "internalType": "bytes32",
          "name": "role",
          "type": "bytes32"
        },
        {
          "indexed": true,
          "internalType": "bytes32",
          "name": "previousAdminRole",
          "type": "bytes32"
        },
        {
          "indexed": true,
          "internalType": "bytes32",
          "name": "newAdminRole",
          "type": "bytes32"
        }
      ],
      "name": "RoleAdminChanged",
      "type": "event"
    },
    {
      "anonymous": false,
      "inputs": [
        {
          "indexed": true,
          "internalType": "bytes32",
          "name": "role",
          "type": "bytes32"
        },
        {
          "indexed": true,
          "internalType": "address",
          "name": "account",
          "type": "address"
        },
        {
          "indexed": true,
          "internalType": "address",
          "name": "sender",
          "type": "address"
        }
      ],
      "name": "RoleGranted",
      "type": "event"
    },
    {
      "anonymous": false,
      "inputs": [
        {
          "indexed": true,
          "internalType": "bytes32",
          "name": "role",
          "type": "bytes32"
        },
        {
          "indexed": true,
          "internalType": "address",
          "name": "account",
          "type": "address"
        },
        {
          "indexed": true,
          "internalType": "address",
          "name": "sender",
          "type": "address"
        }
      ],
      "name": "RoleRevoked",
      "type": "event"
    },
    {
      "inputs": [],
      "name": "DEFAULT_ADMIN_ROLE",
      "outputs": [
        {
          "internalType": "bytes32",
          "name": "",
          "type": "bytes32"
        }
      ],
      "stateMutability": "view",
      "type": "function"
    },
    {
      "inputs": [
        {
          "internalType": "bytes32",
          "name": "actionId",
          "type": "bytes32"
        },
        {
          "internalType": "address",
          "name": "account",
          "type": "address"
        },
        {
          "internalType": "address",
          "name": "",
          "type": "address"
        }
      ],
      "name": "canPerform",
      "outputs": [
        {
          "internalType": "bool",
          "name": "",
          "type": "bool"
        }
      ],
      "stateMutability": "view",
      "type": "function"
    },
    {
      "inputs": [
        {
          "internalType": "bytes32",
          "name": "role",
          "type": "bytes32"
        }
      ],
      "name": "getRoleAdmin",
      "outputs": [
        {
          "internalType": "bytes32",
          "name": "",
          "type": "bytes32"
        }
      ],
      "stateMutability": "view",
      "type": "function"
    },
    {
      "inputs": [
        {
          "internalType": "bytes32",
          "name": "role",
          "type": "bytes32"
        },
        {
          "internalType": "uint256",
          "name": "index",
          "type": "uint256"
        }
      ],
      "name": "getRoleMember",
      "outputs": [
        {
          "internalType": "address",
          "name": "",
          "type": "address"
        }
      ],
      "stateMutability": "view",
      "type": "function"
    },
    {
      "inputs": [
        {
          "internalType": "bytes32",
          "name": "role",
          "type": "bytes32"
        }
      ],
      "name": "getRoleMemberCount",
      "outputs": [
        {
          "internalType": "uint256",
          "name": "",
          "type": "uint256"
        }
      ],
      "stateMutability": "view",
      "type": "function"
    },
    {
      "inputs": [
        {
          "internalType": "bytes32",
          "name": "role",
          "type": "bytes32"
        },
        {
          "internalType": "address",
          "name": "account",
          "type": "address"
        }
      ],
      "name": "grantRole",
      "outputs": [],
      "stateMutability": "nonpayable",
      "type": "function"
    },
    {
      "inputs": [
        {
          "internalType": "bytes32[]",
          "name": "roles",
          "type": "bytes32[]"
        },
        {
          "internalType": "address",
          "name": "account",
          "type": "address"
        }
      ],
      "name": "grantRoles",
      "outputs": [],
      "stateMutability": "nonpayable",
      "type": "function"
    },
    {
      "inputs": [
        {
          "internalType": "bytes32[]",
          "name": "roles",
          "type": "bytes32[]"
        },
        {
          "internalType": "address[]",
          "name": "accounts",
          "type": "address[]"
        }
      ],
      "name": "grantRolesToMany",
      "outputs": [],
      "stateMutability": "nonpayable",
      "type": "function"
    },
    {
      "inputs": [
        {
          "internalType": "bytes32",
          "name": "role",
          "type": "bytes32"
        },
        {
          "internalType": "address",
          "name": "account",
          "type": "address"
        }
      ],
      "name": "hasRole",
      "outputs": [
        {
          "internalType": "bool",
          "name": "",
          "type": "bool"
        }
      ],
      "stateMutability": "view",
      "type": "function"
    },
    {
      "inputs": [
        {
          "internalType": "bytes32",
          "name": "role",
          "type": "bytes32"
        },
        {
          "internalType": "address",
          "name": "account",
          "type": "address"
        }
      ],
      "name": "renounceRole",
      "outputs": [],
      "stateMutability": "nonpayable",
      "type": "function"
    },
    {
      "inputs": [
        {
          "internalType": "bytes32",
          "name": "role",
          "type": "bytes32"
        },
        {
          "internalType": "address",
          "name": "account",
          "type": "address"
        }
      ],
      "name": "revokeRole",
      "outputs": [],
      "stateMutability": "nonpayable",
      "type": "function"
    },
    {
      "inputs": [
        {
          "internalType": "bytes32[]",
          "name": "roles",
          "type": "bytes32[]"
        },
        {
          "internalType": "address",
          "name": "account",
          "type": "address"
        }
      ],
      "name": "revokeRoles",
      "outputs": [],
      "stateMutability": "nonpayable",
      "type": "function"
    },
    {
      "inputs": [
        {
          "internalType": "bytes32[]",
          "name": "roles",
          "type": "bytes32[]"
        },
        {
          "internalType": "address[]",
          "name": "accounts",
          "type": "address[]"
        }
      ],
      "name": "revokeRolesFromMany",
      "outputs": [],
      "stateMutability": "nonpayable",
      "type": "function"
    }
  ],
  "transactionHash": "0x65903d041d20034b8384ec288d2595ed30dde8acc5fdfaa71c93ec1200b763fc",
  "args": [
    "0x10E38dFfFCfdBaaf590D5A9958B01C9cfcF6A63B"
  ],
  "solcInputHash": "b657539e423ef8150465efb41f1e30f9",
  "bytecode": "0x608060405234801561001057600080fd5b50604051610c7e380380610c7e83398101604081905261002f91610125565b61003a600082610040565b50610155565b61004a828261004e565b5050565b6000828152602081815260409091206100709183906104536100b1821b17901c565b1561004a5760405133906001600160a01b0383169084907f2f8788117e7eff1d82e926ec794901d17c78024a50270940304540a733656f0d90600090a45050565b6001600160a01b038116600090815260018301602052604081205461011b57508154600180820184556000848152602080822090930180546001600160a01b0319166001600160a01b0386169081179091558554908252828601909352604090209190915561011f565b5060005b92915050565b60006020828403121561013757600080fd5b81516001600160a01b038116811461014e57600080fd5b9392505050565b610b1a806101646000396000f3fe608060405234801561001057600080fd5b50600436106100cf5760003560e01c8063988360a31161008c578063a73cb2ab11610066578063a73cb2ab146101c1578063ca15c873146101d4578063d547741f146101e7578063fcd7627e146101fa57600080fd5b8063988360a3146101935780639be2a884146101a6578063a217fddf146101b957600080fd5b806318b2cde9146100d4578063248a9ca3146100e95780632f2ff15d1461011f57806336568abe146101325780639010d07c1461014557806391d1485414610170575b600080fd5b6100e76100e23660046108ae565b61020d565b005b61010c6100f7366004610970565b60009081526020819052604090206002015490565b6040519081526020015b60405180910390f35b6100e761012d366004610989565b610278565b6100e7610140366004610989565b6102ae565b6101586101533660046109b5565b6102cf565b6040516001600160a01b039091168152602001610116565b61018361017e366004610989565b6102f0565b6040519015158152602001610116565b6100e76101a13660046109d7565b61031b565b6101836101b4366004610a1c565b61035c565b61010c600081565b6100e76101cf3660046108ae565b610370565b61010c6101e2366004610970565b6103d6565b6100e76101f5366004610989565b6103ea565b6100e76102083660046109d7565b610412565b610219825182516104c5565b60005b82518110156102735761026183828151811061023a5761023a610a58565b602002602001015183838151811061025457610254610a58565b60200260200101516103ea565b8061026b81610a84565b91505061021c565b505050565b6000828152602081905260409020600201546102a09061029890336102f0565b6101a6610510565b6102aa828261051e565b5050565b6102c56001600160a01b03821633146101a8610510565b6102aa8282610577565b60008281526020819052604081206102e790836105d0565b90505b92915050565b6000828152602081815260408083206001600160a01b038516845260010190915281205415156102e7565b60005b82518110156102735761034a83828151811061033c5761033c610a58565b6020026020010151836103ea565b8061035481610a84565b91505061031e565b600061036884846102f0565b949350505050565b61037c825182516104c5565b60005b8251811015610273576103c483828151811061039d5761039d610a58565b60200260200101518383815181106103b7576103b7610a58565b6020026020010151610278565b806103ce81610a84565b91505061037f565b6000818152602081905260408120546102ea565b6000828152602081905260409020600201546102c59061040a90336102f0565b6101a7610510565b60005b82518110156102735761044183828151811061043357610433610a58565b602002602001015183610278565b8061044b81610a84565b915050610415565b6001600160a01b03811660009081526001830160205260408120546104bd57508154600180820184556000848152602080822090930180546001600160a01b0319166001600160a01b038616908117909155855490825282860190935260409020919091556102ea565b5060006102ea565b8082146102aa5760405162461bcd60e51b81526020600482015260156024820152740929ca0aaa8be988a9c8ea890be9a92a69a82a8869605b1b604482015260640160405180910390fd5b816102aa576102aa816105ec565b60008281526020819052604090206105369082610453565b156102aa5760405133906001600160a01b0383169084907f2f8788117e7eff1d82e926ec794901d17c78024a50270940304540a733656f0d90600090a45050565b600082815260208190526040902061058f908261063f565b156102aa5760405133906001600160a01b0383169084907ff6391f5c32d9c69d2a47ea670b442974b53935d1edc7fd64eb21e047a839171b90600090a45050565b81546000906105e29083106064610510565b6102e78383610789565b62461bcd60e51b6000908152602060045260076024526642414c23000030600a808404818106603090810160081b95839006959095019082900491820690940160101b939093010160c81b604452606490fd5b6001600160a01b0381166000908152600183016020526040812054801561077f57600061066d600183610a9f565b855490915060009061068190600190610a9f565b90508082146107215760008660000182815481106106a1576106a1610a58565b60009182526020909120015487546001600160a01b03909116915081908890859081106106d0576106d0610a58565b600091825260209091200180546001600160a01b0319166001600160a01b0392909216919091179055610704836001610ab6565b6001600160a01b0390911660009081526001880160205260409020555b855486908061073257610732610ace565b60008281526020808220830160001990810180546001600160a01b03191690559092019092556001600160a01b03871682526001888101909152604082209190915593506102ea92505050565b60009150506102ea565b60008260000182815481106107a0576107a0610a58565b6000918252602090912001546001600160a01b03169392505050565b634e487b7160e01b600052604160045260246000fd5b604051601f8201601f1916810167ffffffffffffffff811182821017156107fb576107fb6107bc565b604052919050565b600067ffffffffffffffff82111561081d5761081d6107bc565b5060051b60200190565b600082601f83011261083857600080fd5b8135602061084d61084883610803565b6107d2565b82815260059290921b8401810191818101908684111561086c57600080fd5b8286015b848110156108875780358352918301918301610870565b509695505050505050565b80356001600160a01b03811681146108a957600080fd5b919050565b600080604083850312156108c157600080fd5b823567ffffffffffffffff808211156108d957600080fd5b6108e586838701610827565b93506020915081850135818111156108fc57600080fd5b85019050601f8101861361090f57600080fd5b803561091d61084882610803565b81815260059190911b8201830190838101908883111561093c57600080fd5b928401925b828410156109615761095284610892565b82529284019290840190610941565b80955050505050509250929050565b60006020828403121561098257600080fd5b5035919050565b6000806040838503121561099c57600080fd5b823591506109ac60208401610892565b90509250929050565b600080604083850312156109c857600080fd5b50508035926020909101359150565b600080604083850312156109ea57600080fd5b823567ffffffffffffffff811115610a0157600080fd5b610a0d85828601610827565b9250506109ac60208401610892565b600080600060608486031215610a3157600080fd5b83359250610a4160208501610892565b9150610a4f60408501610892565b90509250925092565b634e487b7160e01b600052603260045260246000fd5b634e487b7160e01b600052601160045260246000fd5b6000600019821415610a9857610a98610a6e565b5060010190565b600082821015610ab157610ab1610a6e565b500390565b60008219821115610ac957610ac9610a6e565b500190565b634e487b7160e01b600052603160045260246000fdfea2646970667358221220315d049b9ed4eed2897a4a43094b01e03c015b1f782ce5129d1f9a5d83ab2ccd64736f6c63430008090033",
  "devdoc": {
    "details": "Basic Authorizer implementation, based on OpenZeppelin's Access Control. Users are allowed to perform actions if they have the role with the same identifier. In this sense, roles are not being truly used as such, since they each map to a single action identifier. This temporary implementation is expected to be replaced soon after launch by a more sophisticated one, able to manage permissions across multiple contracts and to natively handle timelocks.",
    "kind": "dev",
    "methods": {
      "getRoleAdmin(bytes32)": {
        "details": "Returns the admin role that controls `role`. See {grantRole} and {revokeRole}. To change a role's admin, use {_setRoleAdmin}."
      },
      "getRoleMember(bytes32,uint256)": {
        "details": "Returns one of the accounts that have `role`. `index` must be a value between 0 and {getRoleMemberCount}, non-inclusive. Role bearers are not sorted in any particular way, and their ordering may change at any point. WARNING: When using {getRoleMember} and {getRoleMemberCount}, make sure you perform all queries on the same block. See the following https://forum.openzeppelin.com/t/iterating-over-elements-on-enumerableset-in-openzeppelin-contracts/2296[forum post] for more information."
      },
      "getRoleMemberCount(bytes32)": {
        "details": "Returns the number of accounts that have `role`. Can be used together with {getRoleMember} to enumerate all bearers of a role."
      },
      "grantRole(bytes32,address)": {
        "details": "Grants `role` to `account`. If `account` had not been already granted `role`, emits a {RoleGranted} event. Requirements: - the caller must have ``role``'s admin role."
      },
      "grantRoles(bytes32[],address)": {
        "details": "Grants multiple roles to a single account."
      },
      "grantRolesToMany(bytes32[],address[])": {
        "details": "Grants roles to a list of accounts."
      },
      "hasRole(bytes32,address)": {
        "details": "Returns `true` if `account` has been granted `role`."
      },
      "renounceRole(bytes32,address)": {
        "details": "Revokes `role` from the calling account. Roles are often managed via {grantRole} and {revokeRole}: this function's purpose is to provide a mechanism for accounts to lose their privileges if they are compromised (such as when a trusted device is misplaced). If the calling account had been granted `role`, emits a {RoleRevoked} event. Requirements: - the caller must be `account`."
      },
      "revokeRole(bytes32,address)": {
        "details": "Revokes `role` from `account`. If `account` had already been granted `role`, emits a {RoleRevoked} event. Requirements: - the caller must have ``role``'s admin role."
      },
      "revokeRoles(bytes32[],address)": {
        "details": "Revokes multiple roles from a single account."
      },
      "revokeRolesFromMany(bytes32[],address[])": {
        "details": "Revokes roles from a list of accounts."
      }
    },
    "version": 1
  },
  "userdoc": {
    "kind": "user",
    "methods": {},
    "version": 1
  },
  "storageLayout": {
    "storage": [
      {
        "astId": 39770,
        "contract": "contracts/Authorizer.sol:Authorizer",
        "label": "_roles",
        "offset": 0,
        "slot": "0",
        "type": "t_mapping(t_bytes32,t_struct(RoleData)39765_storage)"
      }
    ],
    "types": {
      "t_address": {
        "encoding": "inplace",
        "label": "address",
        "numberOfBytes": "20"
      },
      "t_array(t_address)dyn_storage": {
        "base": "t_address",
        "encoding": "dynamic_array",
        "label": "address[]",
        "numberOfBytes": "32"
      },
      "t_bytes32": {
        "encoding": "inplace",
        "label": "bytes32",
        "numberOfBytes": "32"
      },
      "t_mapping(t_address,t_uint256)": {
        "encoding": "mapping",
        "key": "t_address",
        "label": "mapping(address => uint256)",
        "numberOfBytes": "32",
        "value": "t_uint256"
      },
      "t_mapping(t_bytes32,t_struct(RoleData)39765_storage)": {
        "encoding": "mapping",
        "key": "t_bytes32",
        "label": "mapping(bytes32 => struct AccessControl.RoleData)",
        "numberOfBytes": "32",
        "value": "t_struct(RoleData)39765_storage"
      },
      "t_struct(AddressSet)42093_storage": {
        "encoding": "inplace",
        "label": "struct EnumerableSet.AddressSet",
        "members": [
          {
            "astId": 42088,
            "contract": "contracts/Authorizer.sol:Authorizer",
            "label": "_values",
            "offset": 0,
            "slot": "0",
            "type": "t_array(t_address)dyn_storage"
          },
          {
            "astId": 42092,
            "contract": "contracts/Authorizer.sol:Authorizer",
            "label": "_indexes",
            "offset": 0,
            "slot": "1",
            "type": "t_mapping(t_address,t_uint256)"
          }
        ],
        "numberOfBytes": "64"
      },
      "t_struct(RoleData)39765_storage": {
        "encoding": "inplace",
        "label": "struct AccessControl.RoleData",
        "members": [
          {
            "astId": 39762,
            "contract": "contracts/Authorizer.sol:Authorizer",
            "label": "members",
            "offset": 0,
            "slot": "0",
            "type": "t_struct(AddressSet)42093_storage"
          },
          {
            "astId": 39764,
            "contract": "contracts/Authorizer.sol:Authorizer",
            "label": "adminRole",
            "offset": 0,
            "slot": "2",
            "type": "t_bytes32"
          }
        ],
        "numberOfBytes": "96"
      },
      "t_uint256": {
        "encoding": "inplace",
        "label": "uint256",
        "numberOfBytes": "32"
      }
    }
  }
}