{
  "address": "0x3B10C39Ca92a30356eD3D995aA24e2F7d777EbA6",
  "abi": [
    {
      "anonymous": false,
      "inputs": [
        {
          "indexed": true,
          "internalType": "address",
          "name": "previousOwner",
          "type": "address"
        },
        {
          "indexed": true,
          "internalType": "address",
          "name": "newOwner",
          "type": "address"
        }
      ],
      "name": "OwnershipTransferred",
      "type": "event"
    },
    {
      "anonymous": false,
      "inputs": [
        {
          "indexed": false,
          "internalType": "address",
          "name": "caller",
          "type": "address"
        },
        {
          "indexed": false,
          "internalType": "address",
          "name": "to",
          "type": "address"
        },
        {
          "indexed": false,
          "internalType": "contract IERC20",
          "name": "token",
          "type": "address"
        },
        {
          "indexed": false,
          "internalType": "uint256",
          "name": "amount",
          "type": "uint256"
        }
      ],
      "name": "TransferFee",
      "type": "event"
    },
    {
      "inputs": [
        {
          "internalType": "address",
          "name": "",
          "type": "address"
        }
      ],
      "name": "getSwapConfig",
      "outputs": [
        {
          "internalType": "enum FeeDistributor.SwapPoolType",
          "name": "poolType",
          "type": "uint8"
        },
        {
          "internalType": "address",
          "name": "pool",
          "type": "address"
        },
        {
          "internalType": "address",
          "name": "basePool",
          "type": "address"
        }
      ],
      "stateMutability": "view",
      "type": "function"
    },
    {
      "inputs": [
        {
          "internalType": "address",
          "name": "_target",
          "type": "address"
        },
        {
          "internalType": "address",
          "name": "_swapRouter",
          "type": "address"
        }
      ],
      "name": "initialize",
      "outputs": [],
      "stateMutability": "nonpayable",
      "type": "function"
    },
    {
      "inputs": [
        {
          "internalType": "address",
          "name": "",
          "type": "address"
        }
      ],
      "name": "operators",
      "outputs": [
        {
          "internalType": "bool",
          "name": "",
          "type": "bool"
        }
      ],
      "stateMutability": "view",
      "type": "function"
    },
    {
      "inputs": [],
      "name": "owner",
      "outputs": [
        {
          "internalType": "address",
          "name": "",
          "type": "address"
        }
      ],
      "stateMutability": "view",
      "type": "function"
    },
    {
      "inputs": [],
      "name": "renounceOwnership",
      "outputs": [],
      "stateMutability": "nonpayable",
      "type": "function"
    },
    {
      "inputs": [
        {
          "internalType": "address",
          "name": "_fromToken",
          "type": "address"
        },
        {
          "internalType": "enum FeeDistributor.SwapPoolType",
          "name": "poolType",
          "type": "uint8"
        },
        {
          "internalType": "address",
          "name": "pool",
          "type": "address"
        },
        {
          "internalType": "address",
          "name": "basePool",
          "type": "address"
        }
      ],
      "name": "setSwapConfig",
      "outputs": [],
      "stateMutability": "nonpayable",
      "type": "function"
    },
    {
      "inputs": [],
      "name": "swap",
      "outputs": [],
      "stateMutability": "nonpayable",
      "type": "function"
    },
    {
      "inputs": [],
      "name": "swapRouter",
      "outputs": [
        {
          "internalType": "contract RequiemStableSwapRouter",
          "name": "",
          "type": "address"
        }
      ],
      "stateMutability": "view",
      "type": "function"
    },
    {
      "inputs": [],
      "name": "target",
      "outputs": [
        {
          "internalType": "address",
          "name": "",
          "type": "address"
        }
      ],
      "stateMutability": "view",
      "type": "function"
    },
    {
      "inputs": [
        {
          "internalType": "address",
          "name": "_operator",
          "type": "address"
        }
      ],
      "name": "toggleOperator",
      "outputs": [],
      "stateMutability": "nonpayable",
      "type": "function"
    },
    {
      "inputs": [
        {
          "internalType": "contract IERC20",
          "name": "token",
          "type": "address"
        },
        {
          "internalType": "address",
          "name": "to",
          "type": "address"
        },
        {
          "internalType": "uint256",
          "name": "amount",
          "type": "uint256"
        }
      ],
      "name": "transfer",
      "outputs": [],
      "stateMutability": "nonpayable",
      "type": "function"
    },
    {
      "inputs": [
        {
          "internalType": "address",
          "name": "newOwner",
          "type": "address"
        }
      ],
      "name": "transferOwnership",
      "outputs": [],
      "stateMutability": "nonpayable",
      "type": "function"
    },
    {
      "inputs": [
        {
          "internalType": "uint256",
          "name": "",
          "type": "uint256"
        }
      ],
      "name": "whiteListedTokens",
      "outputs": [
        {
          "internalType": "address",
          "name": "",
          "type": "address"
        }
      ],
      "stateMutability": "view",
      "type": "function"
    }
  ],
  "transactionHash": "0xa361f9467b620102f1d37d6e50a42d0381bc3c20be90bd4acf8585bd402d236a",
  "args": [],
  "solcInputHash": "7502240d3a1f1d7fb3a2367c19a9eb4e",
  "bytecode": "0x608060405234801561001057600080fd5b5061001a3361001f565b61007a565b600080546001600160a01b038381166201000081810262010000600160b01b0319851617855560405193049190911692909183917f8be0079c531659141344cd1fd0a4f28419497f9722a3daafe3b4186f6b6457e091a35050565b611b09806100896000396000f3fe608060405234801561001057600080fd5b50600436106100df5760003560e01c80638119c0651161008c578063beabacc811610066578063beabacc81461021d578063c31c9c0714610230578063d4b8399214610250578063f2fde38b1461027057600080fd5b80638119c065146101de5780638da5cb5b146101e6578063a166a94d1461020a57600080fd5b8063485cc955116100bd578063485cc9551461018b5780636aee0e631461019e578063715018a6146101d657600080fd5b806313e7c9d8146100e45780633fe529f01461011c57806342b054f014610131575b600080fd5b6101076100f23660046117c8565b60036020526000908152604090205460ff1681565b60405190151581526020015b60405180910390f35b61012f61012a3660046117c8565b610283565b005b61017c61013f3660046117c8565b6002602052600090815260409020805460019091015460ff82169173ffffffffffffffffffffffffffffffffffffffff6101009091048116911683565b6040516101139392919061181b565b61012f610199366004611881565b610364565b6101b16101ac3660046118ba565b610559565b60405173ffffffffffffffffffffffffffffffffffffffff9091168152602001610113565b61012f610590565b61012f610624565b60005462010000900473ffffffffffffffffffffffffffffffffffffffff166101b1565b61012f6102183660046118d3565b610702565b61012f61022b366004611933565b610ad8565b6004546101b19073ffffffffffffffffffffffffffffffffffffffff1681565b6001546101b19073ffffffffffffffffffffffffffffffffffffffff1681565b61012f61027e3660046117c8565b610d1a565b60005473ffffffffffffffffffffffffffffffffffffffff62010000909104163314610310576040517f08c379a000000000000000000000000000000000000000000000000000000000815260206004820181905260248201527f4f776e61626c653a2063616c6c6572206973206e6f7420746865206f776e657260448201526064015b60405180910390fd5b73ffffffffffffffffffffffffffffffffffffffff16600090815260036020526040902080547fffffffffffffffffffffffffffffffffffffffffffffffffffffffffffffff00811660ff90911615179055565b60005473ffffffffffffffffffffffffffffffffffffffff620100009091041633146103ec576040517f08c379a000000000000000000000000000000000000000000000000000000000815260206004820181905260248201527f4f776e61626c653a2063616c6c6572206973206e6f7420746865206f776e65726044820152606401610307565b600054610100900460ff1680610405575060005460ff16155b610491576040517f08c379a000000000000000000000000000000000000000000000000000000000815260206004820152602e60248201527f496e697469616c697a61626c653a20636f6e747261637420697320616c72656160448201527f647920696e697469616c697a65640000000000000000000000000000000000006064820152608401610307565b600054610100900460ff161580156104d057600080547fffffffffffffffffffffffffffffffffffffffffffffffffffffffffffff0000166101011790555b6001805473ffffffffffffffffffffffffffffffffffffffff8086167fffffffffffffffffffffffff0000000000000000000000000000000000000000928316179092556004805492851692909116919091179055801561055457600080547fffffffffffffffffffffffffffffffffffffffffffffffffffffffffffff00ff1690555b505050565b6005818154811061056957600080fd5b60009182526020909120015473ffffffffffffffffffffffffffffffffffffffff16905081565b60005473ffffffffffffffffffffffffffffffffffffffff62010000909104163314610618576040517f08c379a000000000000000000000000000000000000000000000000000000000815260206004820181905260248201527f4f776e61626c653a2063616c6c6572206973206e6f7420746865206f776e65726044820152606401610307565b6106226000610e4a565b565b3360009081526003602052604090205460ff161515600114156106225760005b6005548110156106ff5760006005828154811061066357610663611974565b600091825260208083209091015473ffffffffffffffffffffffffffffffffffffffff1680835260029091526040822090925090815460ff1660018111156106ad576106ad6117ec565b14156106c2576106bd8183610ec8565b6106ea565b6001815460ff1660018111156106da576106da6117ec565b14156106ea576106ea81836111b3565b505080806106f7906119d2565b915050610644565b50565b60005473ffffffffffffffffffffffffffffffffffffffff6201000090910416331461078a576040517f08c379a000000000000000000000000000000000000000000000000000000000815260206004820181905260248201527f4f776e61626c653a2063616c6c6572206973206e6f7420746865206f776e65726044820152606401610307565b73ffffffffffffffffffffffffffffffffffffffff8416610807576040517f08c379a000000000000000000000000000000000000000000000000000000000815260206004820152601460248201527f7a65726f46726f6d546f6b656e416464726573730000000000000000000000006044820152606401610307565b73ffffffffffffffffffffffffffffffffffffffff8216610884576040517f08c379a000000000000000000000000000000000000000000000000000000000815260206004820152600f60248201527f7a65726f506f6f6c4164647265737300000000000000000000000000000000006044820152606401610307565b6001836001811115610898576108986117ec565b141561091b5773ffffffffffffffffffffffffffffffffffffffff811661091b576040517f08c379a000000000000000000000000000000000000000000000000000000000815260206004820152601360248201527f7a65726f42617365506f6f6c41646472657373000000000000000000000000006044820152606401610307565b73ffffffffffffffffffffffffffffffffffffffff8481166000908152600260205260409020546101009004166109bd57600580546001810182556000919091527f036b6384b5eca791c62761152d0c79bb0604c104a5fb6f4eb0703f3154bb3db00180547fffffffffffffffffffffffff00000000000000000000000000000000000000001673ffffffffffffffffffffffffffffffffffffffff86161790555b60405180606001604052808460018111156109da576109da6117ec565b815273ffffffffffffffffffffffffffffffffffffffff80851660208084019190915284821660409384015290871660009081526002909152208151815482907fffffffffffffffffffffffffffffffffffffffffffffffffffffffffffffff001660018381811115610a4f57610a4f6117ec565b0217905550602082015181547fffffffffffffffffffffff0000000000000000000000000000000000000000ff1661010073ffffffffffffffffffffffffffffffffffffffff92831602178255604090920151600190910180547fffffffffffffffffffffffff0000000000000000000000000000000000000000169190921617905550505050565b3360009081526003602052604090205460ff16151560011415610554576040517f70a0823100000000000000000000000000000000000000000000000000000000815230600482015260009073ffffffffffffffffffffffffffffffffffffffff8516906370a0823190602401602060405180830381865afa158015610b62573d6000803e3d6000fd5b505050506040513d601f19601f82011682018060405250810190610b869190611a0b565b9050818110610d1457610bb073ffffffffffffffffffffffffffffffffffffffff851684846114ae565b6040517f70a0823100000000000000000000000000000000000000000000000000000000815230600482015260009073ffffffffffffffffffffffffffffffffffffffff8616906370a0823190602401602060405180830381865afa158015610c1d573d6000803e3d6000fd5b505050506040513d601f19601f82011682018060405250810190610c419190611a0b565b905082610c4e8284611a24565b14610cb5576040517f08c379a000000000000000000000000000000000000000000000000000000000815260206004820152600d60248201527f7472616e736665722d6661696c000000000000000000000000000000000000006044820152606401610307565b6040805133815273ffffffffffffffffffffffffffffffffffffffff86811660208301528716818301526060810185905290517f399b8b2d1a2cd048deba86f2732270178911b7def887b957d4e4530a5955e1249181900360800190a1505b50505050565b60005473ffffffffffffffffffffffffffffffffffffffff62010000909104163314610da2576040517f08c379a000000000000000000000000000000000000000000000000000000000815260206004820181905260248201527f4f776e61626c653a2063616c6c6572206973206e6f7420746865206f776e65726044820152606401610307565b73ffffffffffffffffffffffffffffffffffffffff8116610e45576040517f08c379a000000000000000000000000000000000000000000000000000000000815260206004820152602660248201527f4f776e61626c653a206e6577206f776e657220697320746865207a65726f206160448201527f64647265737300000000000000000000000000000000000000000000000000006064820152608401610307565b6106ff815b6000805473ffffffffffffffffffffffffffffffffffffffff838116620100008181027fffffffffffffffffffff0000000000000000000000000000000000000000ffff851617855560405193049190911692909183917f8be0079c531659141344cd1fd0a4f28419497f9722a3daafe3b4186f6b6457e091a35050565b6040517f70a08231000000000000000000000000000000000000000000000000000000008152306004820152819060009073ffffffffffffffffffffffffffffffffffffffff8316906370a0823190602401602060405180830381865afa158015610f37573d6000803e3d6000fd5b505050506040513d601f19601f82011682018060405250810190610f5b9190611a0b565b90508015610d145783546040517f66c0bd2400000000000000000000000000000000000000000000000000000000815273ffffffffffffffffffffffffffffffffffffffff85811660048301526101009092049091169060009082906366c0bd2490602401602060405180830381865afa158015610fdd573d6000803e3d6000fd5b505050506040513d601f19601f820116820180604052508101906110019190611a3b565b6001546040517f66c0bd2400000000000000000000000000000000000000000000000000000000815273ffffffffffffffffffffffffffffffffffffffff9182166004820152919250600091908416906366c0bd2490602401602060405180830381865afa158015611077573d6000803e3d6000fd5b505050506040513d601f19601f8201168201806040525081019061109b9190611a3b565b87549091506110c99073ffffffffffffffffffffffffffffffffffffffff8781169161010090041686611582565b73ffffffffffffffffffffffffffffffffffffffff831663bfd3956b8383876000306110f7610e1042611a5e565b6040517fffffffff0000000000000000000000000000000000000000000000000000000060e089901b16815260ff96871660048201529590941660248601526044850192909252606484015273ffffffffffffffffffffffffffffffffffffffff16608483015260a482015260c4016020604051808303816000875af1158015611185573d6000803e3d6000fd5b505050506040513d601f19601f820116820180604052508101906111a99190611a0b565b5050505050505050565b6040517f70a08231000000000000000000000000000000000000000000000000000000008152306004820152819060009073ffffffffffffffffffffffffffffffffffffffff8316906370a0823190602401602060405180830381865afa158015611222573d6000803e3d6000fd5b505050506040513d601f19601f820116820180604052508101906112469190611a0b565b90508015610d1457835460018501546040517f66c0bd2400000000000000000000000000000000000000000000000000000000815273ffffffffffffffffffffffffffffffffffffffff86811660048301526101009093048316929091169060009083906366c0bd2490602401602060405180830381865afa1580156112d0573d6000803e3d6000fd5b505050506040513d601f19601f820116820180604052508101906112f49190611a3b565b6001546040517f66c0bd2400000000000000000000000000000000000000000000000000000000815273ffffffffffffffffffffffffffffffffffffffff9182166004820152919250600091908416906366c0bd2490602401602060405180830381865afa15801561136a573d6000803e3d6000fd5b505050506040513d601f19601f8201168201806040525081019061138e9190611a3b565b6004549091506113b89073ffffffffffffffffffffffffffffffffffffffff888116911687611582565b60045473ffffffffffffffffffffffffffffffffffffffff1663ff969322858585858a60006113e9610e1042611a5e565b6040517fffffffff0000000000000000000000000000000000000000000000000000000060e08a901b16815273ffffffffffffffffffffffffffffffffffffffff978816600482015296909516602487015260ff9384166044870152929091166064850152608484015260a483015260c482015260e4016020604051808303816000875af115801561147f573d6000803e3d6000fd5b505050506040513d601f19601f820116820180604052508101906114a39190611a0b565b505050505050505050565b60405173ffffffffffffffffffffffffffffffffffffffff83166024820152604481018290526105549084907fa9059cbb00000000000000000000000000000000000000000000000000000000906064015b604080517fffffffffffffffffffffffffffffffffffffffffffffffffffffffffffffffe08184030181529190526020810180517bffffffffffffffffffffffffffffffffffffffffffffffffffffffff167fffffffff0000000000000000000000000000000000000000000000000000000090931692909217909152611680565b6040517fdd62ed3e00000000000000000000000000000000000000000000000000000000815230600482015273ffffffffffffffffffffffffffffffffffffffff8381166024830152600091839186169063dd62ed3e90604401602060405180830381865afa1580156115f9573d6000803e3d6000fd5b505050506040513d601f19601f8201168201806040525081019061161d9190611a0b565b6116279190611a5e565b60405173ffffffffffffffffffffffffffffffffffffffff8516602482015260448101829052909150610d149085907f095ea7b30000000000000000000000000000000000000000000000000000000090606401611500565b6000808373ffffffffffffffffffffffffffffffffffffffff16836040516116a89190611a76565b6000604051808303816000865af19150503d80600081146116e5576040519150601f19603f3d011682016040523d82523d6000602084013e6116ea565b606091505b50915091506000821415611702573d6000803e3d6000fd5b610d148151600014806117245750818060200190518101906117249190611ab1565b6101a2816117355761173581611739565b5050565b7f08c379a0000000000000000000000000000000000000000000000000000000006000908152602060045260076024526652455123000030600a808404818106603090810160081b95839006959095019082900491820690940160101b939093010160c81b604452606490fd5b73ffffffffffffffffffffffffffffffffffffffff811681146106ff57600080fd5b6000602082840312156117da57600080fd5b81356117e5816117a6565b9392505050565b7f4e487b7100000000000000000000000000000000000000000000000000000000600052602160045260246000fd5b6060810160028510611856577f4e487b7100000000000000000000000000000000000000000000000000000000600052602160045260246000fd5b93815273ffffffffffffffffffffffffffffffffffffffff9283166020820152911660409091015290565b6000806040838503121561189457600080fd5b823561189f816117a6565b915060208301356118af816117a6565b809150509250929050565b6000602082840312156118cc57600080fd5b5035919050565b600080600080608085870312156118e957600080fd5b84356118f4816117a6565b935060208501356002811061190857600080fd5b92506040850135611918816117a6565b91506060850135611928816117a6565b939692955090935050565b60008060006060848603121561194857600080fd5b8335611953816117a6565b92506020840135611963816117a6565b929592945050506040919091013590565b7f4e487b7100000000000000000000000000000000000000000000000000000000600052603260045260246000fd5b7f4e487b7100000000000000000000000000000000000000000000000000000000600052601160045260246000fd5b60007fffffffffffffffffffffffffffffffffffffffffffffffffffffffffffffffff821415611a0457611a046119a3565b5060010190565b600060208284031215611a1d57600080fd5b5051919050565b600082821015611a3657611a366119a3565b500390565b600060208284031215611a4d57600080fd5b815160ff811681146117e557600080fd5b60008219821115611a7157611a716119a3565b500190565b6000825160005b81811015611a975760208186018101518583015201611a7d565b81811115611aa6576000828501525b509190910192915050565b600060208284031215611ac357600080fd5b815180151581146117e557600080fdfea264697066735822122094286d4c79021ff35c7b8bdb654e85018643530f1e4b3eb6b23992a8be6e8aef64736f6c634300080a0033",
  "devdoc": {
    "kind": "dev",
    "methods": {
      "owner()": {
        "details": "Returns the address of the current owner."
      },
      "renounceOwnership()": {
        "details": "Leaves the contract without owner. It will not be possible to call `onlyOwner` functions anymore. Can only be called by the current owner. NOTE: Renouncing ownership will leave the contract without an owner, thereby removing any functionality that is only available to the owner."
      },
      "transferOwnership(address)": {
        "details": "Transfers ownership of the contract to a new account (`newOwner`). Can only be called by the current owner."
      }
    },
    "stateVariables": {
      "getSwapConfig": {
        "details": "fromToken => routerAddress"
      },
      "target": {
        "details": "convert all fee to this token"
      }
    },
    "version": 1
  },
  "userdoc": {
    "kind": "user",
    "methods": {},
    "version": 1
  },
  "storageLayout": {
    "storage": [
      {
        "astId": 40761,
        "contract": "contracts/FeeDistributor.sol:FeeDistributor",
        "label": "_initialized",
        "offset": 0,
        "slot": "0",
        "type": "t_bool"
      },
      {
        "astId": 40764,
        "contract": "contracts/FeeDistributor.sol:FeeDistributor",
        "label": "_initializing",
        "offset": 1,
        "slot": "0",
        "type": "t_bool"
      },
      {
        "astId": 40952,
        "contract": "contracts/FeeDistributor.sol:FeeDistributor",
        "label": "_owner",
        "offset": 2,
        "slot": "0",
        "type": "t_address"
      },
      {
        "astId": 29,
        "contract": "contracts/FeeDistributor.sol:FeeDistributor",
        "label": "target",
        "offset": 0,
        "slot": "1",
        "type": "t_address"
      },
      {
        "astId": 35,
        "contract": "contracts/FeeDistributor.sol:FeeDistributor",
        "label": "getSwapConfig",
        "offset": 0,
        "slot": "2",
        "type": "t_mapping(t_address,t_struct(SwapConfig)26_storage)"
      },
      {
        "astId": 39,
        "contract": "contracts/FeeDistributor.sol:FeeDistributor",
        "label": "operators",
        "offset": 0,
        "slot": "3",
        "type": "t_mapping(t_address,t_bool)"
      },
      {
        "astId": 42,
        "contract": "contracts/FeeDistributor.sol:FeeDistributor",
        "label": "swapRouter",
        "offset": 0,
        "slot": "4",
        "type": "t_contract(RequiemStableSwapRouter)23489"
      },
      {
        "astId": 45,
        "contract": "contracts/FeeDistributor.sol:FeeDistributor",
        "label": "whiteListedTokens",
        "offset": 0,
        "slot": "5",
        "type": "t_array(t_address)dyn_storage"
      }
    ],
    "types": {
      "t_address": {
        "encoding": "inplace",
        "label": "address",
        "numberOfBytes": "20"
      },
      "t_array(t_address)dyn_storage": {
        "base": "t_address",
        "encoding": "dynamic_array",
        "label": "address[]",
        "numberOfBytes": "32"
      },
      "t_bool": {
        "encoding": "inplace",
        "label": "bool",
        "numberOfBytes": "1"
      },
      "t_contract(RequiemStableSwapRouter)23489": {
        "encoding": "inplace",
        "label": "contract RequiemStableSwapRouter",
        "numberOfBytes": "20"
      },
      "t_enum(SwapPoolType)18": {
        "encoding": "inplace",
        "label": "enum FeeDistributor.SwapPoolType",
        "numberOfBytes": "1"
      },
      "t_mapping(t_address,t_bool)": {
        "encoding": "mapping",
        "key": "t_address",
        "label": "mapping(address => bool)",
        "numberOfBytes": "32",
        "value": "t_bool"
      },
      "t_mapping(t_address,t_struct(SwapConfig)26_storage)": {
        "encoding": "mapping",
        "key": "t_address",
        "label": "mapping(address => struct FeeDistributor.SwapConfig)",
        "numberOfBytes": "32",
        "value": "t_struct(SwapConfig)26_storage"
      },
      "t_struct(SwapConfig)26_storage": {
        "encoding": "inplace",
        "label": "struct FeeDistributor.SwapConfig",
        "members": [
          {
            "astId": 21,
            "contract": "contracts/FeeDistributor.sol:FeeDistributor",
            "label": "poolType",
            "offset": 0,
            "slot": "0",
            "type": "t_enum(SwapPoolType)18"
          },
          {
            "astId": 23,
            "contract": "contracts/FeeDistributor.sol:FeeDistributor",
            "label": "pool",
            "offset": 1,
            "slot": "0",
            "type": "t_address"
          },
          {
            "astId": 25,
            "contract": "contracts/FeeDistributor.sol:FeeDistributor",
            "label": "basePool",
            "offset": 0,
            "slot": "1",
            "type": "t_address"
          }
        ],
        "numberOfBytes": "64"
      }
    }
  }
}