{
  "address": "0xacd3602152763C3AAFA705D8a90C36661ecD7d46",
  "abi": [
    {
      "inputs": [
        {
          "internalType": "address",
          "name": "_feeToSetter",
          "type": "address"
        },
        {
          "internalType": "address",
          "name": "_formula",
          "type": "address"
        }
      ],
      "stateMutability": "nonpayable",
      "type": "constructor"
    },
    {
      "anonymous": false,
      "inputs": [
        {
          "indexed": true,
          "internalType": "address",
          "name": "token0",
          "type": "address"
        },
        {
          "indexed": true,
          "internalType": "address",
          "name": "token1",
          "type": "address"
        },
        {
          "indexed": false,
          "internalType": "address",
          "name": "pair",
          "type": "address"
        },
        {
          "indexed": false,
          "internalType": "uint32",
          "name": "tokenWeight0",
          "type": "uint32"
        },
        {
          "indexed": false,
          "internalType": "uint32",
          "name": "swapFee",
          "type": "uint32"
        },
        {
          "indexed": false,
          "internalType": "uint256",
          "name": "",
          "type": "uint256"
        }
      ],
      "name": "PairCreated",
      "type": "event"
    },
    {
      "inputs": [],
      "name": "INIT_CODE_HASH",
      "outputs": [
        {
          "internalType": "bytes32",
          "name": "",
          "type": "bytes32"
        }
      ],
      "stateMutability": "view",
      "type": "function"
    },
    {
      "inputs": [
        {
          "internalType": "uint256",
          "name": "",
          "type": "uint256"
        }
      ],
      "name": "allPairs",
      "outputs": [
        {
          "internalType": "address",
          "name": "",
          "type": "address"
        }
      ],
      "stateMutability": "view",
      "type": "function"
    },
    {
      "inputs": [],
      "name": "allPairsLength",
      "outputs": [
        {
          "internalType": "uint256",
          "name": "",
          "type": "uint256"
        }
      ],
      "stateMutability": "view",
      "type": "function"
    },
    {
      "inputs": [
        {
          "internalType": "address",
          "name": "tokenA",
          "type": "address"
        },
        {
          "internalType": "address",
          "name": "tokenB",
          "type": "address"
        },
        {
          "internalType": "uint32",
          "name": "tokenWeightA",
          "type": "uint32"
        },
        {
          "internalType": "uint32",
          "name": "swapFee",
          "type": "uint32"
        }
      ],
      "name": "createPair",
      "outputs": [
        {
          "internalType": "address",
          "name": "pair",
          "type": "address"
        }
      ],
      "stateMutability": "nonpayable",
      "type": "function"
    },
    {
      "inputs": [],
      "name": "feeTo",
      "outputs": [
        {
          "internalType": "address",
          "name": "",
          "type": "address"
        }
      ],
      "stateMutability": "view",
      "type": "function"
    },
    {
      "inputs": [],
      "name": "feeToSetter",
      "outputs": [
        {
          "internalType": "address",
          "name": "",
          "type": "address"
        }
      ],
      "stateMutability": "view",
      "type": "function"
    },
    {
      "inputs": [],
      "name": "formula",
      "outputs": [
        {
          "internalType": "address",
          "name": "",
          "type": "address"
        }
      ],
      "stateMutability": "view",
      "type": "function"
    },
    {
      "inputs": [
        {
          "internalType": "address",
          "name": "tokenA",
          "type": "address"
        },
        {
          "internalType": "address",
          "name": "tokenB",
          "type": "address"
        },
        {
          "internalType": "uint32",
          "name": "tokenWeightA",
          "type": "uint32"
        },
        {
          "internalType": "uint32",
          "name": "swapFee",
          "type": "uint32"
        }
      ],
      "name": "getPair",
      "outputs": [
        {
          "internalType": "address",
          "name": "pair",
          "type": "address"
        }
      ],
      "stateMutability": "view",
      "type": "function"
    },
    {
      "inputs": [
        {
          "internalType": "contract IERC20",
          "name": "token0",
          "type": "address"
        },
        {
          "internalType": "contract IERC20",
          "name": "token1",
          "type": "address"
        }
      ],
      "name": "getPairs",
      "outputs": [
        {
          "internalType": "address[]",
          "name": "_tokenPairs",
          "type": "address[]"
        }
      ],
      "stateMutability": "view",
      "type": "function"
    },
    {
      "inputs": [
        {
          "internalType": "address",
          "name": "pair",
          "type": "address"
        }
      ],
      "name": "getWeightsAndSwapFee",
      "outputs": [
        {
          "internalType": "uint32",
          "name": "tokenWeight0",
          "type": "uint32"
        },
        {
          "internalType": "uint32",
          "name": "tokenWeight1",
          "type": "uint32"
        },
        {
          "internalType": "uint32",
          "name": "swapFee",
          "type": "uint32"
        }
      ],
      "stateMutability": "view",
      "type": "function"
    },
    {
      "inputs": [
        {
          "internalType": "address",
          "name": "b",
          "type": "address"
        }
      ],
      "name": "isPair",
      "outputs": [
        {
          "internalType": "bool",
          "name": "",
          "type": "bool"
        }
      ],
      "stateMutability": "view",
      "type": "function"
    },
    {
      "inputs": [],
      "name": "protocolFee",
      "outputs": [
        {
          "internalType": "uint256",
          "name": "",
          "type": "uint256"
        }
      ],
      "stateMutability": "view",
      "type": "function"
    },
    {
      "inputs": [
        {
          "internalType": "address",
          "name": "_feeTo",
          "type": "address"
        }
      ],
      "name": "setFeeTo",
      "outputs": [],
      "stateMutability": "nonpayable",
      "type": "function"
    },
    {
      "inputs": [
        {
          "internalType": "address",
          "name": "_feeToSetter",
          "type": "address"
        }
      ],
      "name": "setFeeToSetter",
      "outputs": [],
      "stateMutability": "nonpayable",
      "type": "function"
    },
    {
      "inputs": [
        {
          "internalType": "uint256",
          "name": "_protocolFee",
          "type": "uint256"
        }
      ],
      "name": "setProtocolFee",
      "outputs": [],
      "stateMutability": "nonpayable",
      "type": "function"
    }
  ],
  "transactionHash": "0x52d1dbb2910714bd0cf20bd967749f01623c64d8ec7018ab1272fc80035f26c7",
  "args": [
    "0x10E38dFfFCfdBaaf590D5A9958B01C9cfcF6A63B",
    "0x27b18F4aad3223d5A92F1aF0C4798f996aC78968"
  ],
  "solcInputHash": "10d5afa37f3c5b8806b9c3b149add779",
  "bytecode": "0x608060405234801561001057600080fd5b506040516200598a3803806200598a8339810160408190526100319161007e565b600380546001600160a01b039384166001600160a01b031991821617909155600180549290931691161790556100b1565b80516001600160a01b038116811461007957600080fd5b919050565b6000806040838503121561009157600080fd5b61009a83610062565b91506100a860208401610062565b90509250929050565b6158c980620000c16000396000f3fe608060405234801561001057600080fd5b50600436106100f55760003560e01c8063574f2ba311610097578063bfd63f4d11610066578063bfd63f4d14610219578063ca2229791461022c578063e5e31b1314610266578063f46901ed146102b857600080fd5b8063574f2ba3146101e0578063787dce3d146101e8578063a2e74af6146101fd578063b0e21e8a1461021057600080fd5b806316093fad116100d357806316093fad146101775780631e3dd18b14610197578063257671f5146101aa5780634b75f54f146101c057600080fd5b8063017e7e58146100fa578063094b74151461014457806314572adb14610164575b600080fd5b60005461011a9073ffffffffffffffffffffffffffffffffffffffff1681565b60405173ffffffffffffffffffffffffffffffffffffffff90911681526020015b60405180910390f35b60035461011a9073ffffffffffffffffffffffffffffffffffffffff1681565b61011a6101723660046110fb565b6102cb565b61018a610185366004611153565b610935565b60405161013b919061118c565b61011a6101a53660046111e6565b610a48565b6101b2610a7f565b60405190815260200161013b565b60015461011a9073ffffffffffffffffffffffffffffffffffffffff1681565b6005546101b2565b6101fb6101f63660046111e6565b610ae7565b005b6101fb61020b3660046111ff565b610bf0565b6101b260025481565b61011a6102273660046110fb565b610cb8565b61023f61023a3660046111ff565b610dea565b6040805163ffffffff9485168152928416602084015292169181019190915260600161013b565b6102a86102743660046111ff565b73ffffffffffffffffffffffffffffffffffffffff1660009081526006602052604090205467ffffffffffffffff16151590565b604051901515815260200161013b565b6101fb6102c63660046111ff565b610e60565b60008373ffffffffffffffffffffffffffffffffffffffff168573ffffffffffffffffffffffffffffffffffffffff161415610368576040517f08c379a000000000000000000000000000000000000000000000000000000000815260206004820152600760248201527f524c503a2049410000000000000000000000000000000000000000000000000060448201526064015b60405180910390fd5b60028363ffffffff1610158015610386575060628363ffffffff1611155b80156103a0575061039860028461121c565b63ffffffff16155b610406576040517f08c379a000000000000000000000000000000000000000000000000000000000815260206004820152600760248201527f524c503a20495700000000000000000000000000000000000000000000000000604482015260640161035f565b60018263ffffffff161015801561042557506107d08263ffffffff1611155b61048b576040517f08c379a000000000000000000000000000000000000000000000000000000000815260206004820152600860248201527f524c503a20495346000000000000000000000000000000000000000000000000604482015260640161035f565b60008060008673ffffffffffffffffffffffffffffffffffffffff168873ffffffffffffffffffffffffffffffffffffffff16106104d55786886104d0886064611295565b6104d9565b8787875b9194509250905073ffffffffffffffffffffffffffffffffffffffff831661055d576040517f08c379a000000000000000000000000000000000000000000000000000000000815260206004820152600760248201527f524c503a205a4100000000000000000000000000000000000000000000000000604482015260640161035f565b60006040518060200161056f906110b0565b7fffffffffffffffffffffffffffffffffffffffffffffffffffffffffffffffe082820381018352601f9091011660408190527fffffffffffffffffffffffffffffffffffffffff000000000000000000000000606087811b8216602084015286901b1660348201527fffffffff0000000000000000000000000000000000000000000000000000000060e085811b8216604884015289901b16604c820152909150600090605001604080517fffffffffffffffffffffffffffffffffffffffffffffffffffffffffffffffe081840301815291815281516020928301206000818152600490935291205490915073ffffffffffffffffffffffffffffffffffffffff16156106da576040517f08c379a000000000000000000000000000000000000000000000000000000000815260206004820152600760248201527f524c503a20504500000000000000000000000000000000000000000000000000604482015260640161035f565b808251602084016000f56040517fd0f6957900000000000000000000000000000000000000000000000000000000815273ffffffffffffffffffffffffffffffffffffffff8781166004830152868116602483015263ffffffff80871660448401528a1660648301529197509087169063d0f6957990608401600060405180830381600087803b15801561076d57600080fd5b505af1158015610781573d6000803e3d6000fd5b50505073ffffffffffffffffffffffffffffffffffffffff80871660009081526007602090815260408083209389168352929052206107c1915087610f28565b5073ffffffffffffffffffffffffffffffffffffffff80851660009081526007602090815260408083209389168352929052206107fe9087610f28565b50600081815260046020908152604080832080547fffffffffffffffffffffffff000000000000000000000000000000000000000090811673ffffffffffffffffffffffffffffffffffffffff8c8116918217909355600580546001810182557f036b6384b5eca791c62761152d0c79bb0604c104a5fb6f4eb0703f3154bb3db001805490931682179092558086526006855294839020805463ffffffff8e81168b881b67ffffffff000000001681177fffffffffffffffffffffffffffffffffffffffffffffffff0000000000000000909316831790935592548551978852928a16958701959095528584015260608501529051919287821692918916917f41f8736f924f57e464ededb08bf71f868f9d142885bbc73a1516db2be21fc4289181900360800190a3505050505050949350505050565b73ffffffffffffffffffffffffffffffffffffffff8281166000908152600760209081526040808320938516835292905220546060908067ffffffffffffffff811115610984576109846112ba565b6040519080825280602002602001820160405280156109ad578160200160208202803683370190505b50915060005b81811015610a405773ffffffffffffffffffffffffffffffffffffffff80861660009081526007602090815260408083209388168352929052206109f79082610fce565b838281518110610a0957610a096112e9565b73ffffffffffffffffffffffffffffffffffffffff9092166020928302919091019091015280610a3881611318565b9150506109b3565b505092915050565b60058181548110610a5857600080fd5b60009182526020909120015473ffffffffffffffffffffffffffffffffffffffff16905081565b604051610a8e602082016110b0565b7fffffffffffffffffffffffffffffffffffffffffffffffffffffffffffffffe082820381018352601f909101166040819052610ace9190602001611351565b6040516020818303038152906040528051906020012081565b60035473ffffffffffffffffffffffffffffffffffffffff163314610b68576040517f08c379a000000000000000000000000000000000000000000000000000000000815260206004820152600660248201527f524c503a20460000000000000000000000000000000000000000000000000000604482015260640161035f565b801580610b8557506127108110158015610b855750620186a08111155b610beb576040517f08c379a000000000000000000000000000000000000000000000000000000000815260206004820152600860248201527f524c503a20495046000000000000000000000000000000000000000000000000604482015260640161035f565b600255565b60035473ffffffffffffffffffffffffffffffffffffffff163314610c71576040517f08c379a000000000000000000000000000000000000000000000000000000000815260206004820152600660248201527f524c503a20460000000000000000000000000000000000000000000000000000604482015260640161035f565b600380547fffffffffffffffffffffffff00000000000000000000000000000000000000001673ffffffffffffffffffffffffffffffffffffffff92909216919091179055565b6000806000808673ffffffffffffffffffffffffffffffffffffffff168873ffffffffffffffffffffffffffffffffffffffff1610610d03578688610cfe886064611295565b610d07565b8787875b6040517fffffffffffffffffffffffffffffffffffffffff000000000000000000000000606085811b8216602084015284901b1660348201527fffffffff0000000000000000000000000000000000000000000000000000000060e083811b821660488401528a901b16604c8201529295509093509150600090605001604080517fffffffffffffffffffffffffffffffffffffffffffffffffffffffffffffffe081840301815291815281516020928301206000908152600490925290205473ffffffffffffffffffffffffffffffffffffffff169998505050505050505050565b73ffffffffffffffffffffffffffffffffffffffff81166000908152600660205260408120548190819067ffffffffffffffff168015610e465763ffffffff602082901c169350905080610e3f846064611295565b9250610e57565b603280601e93509350935050610e59565b505b9193909250565b60035473ffffffffffffffffffffffffffffffffffffffff163314610ee1576040517f08c379a000000000000000000000000000000000000000000000000000000000815260206004820152600660248201527f524c503a20460000000000000000000000000000000000000000000000000000604482015260640161035f565b600080547fffffffffffffffffffffffff00000000000000000000000000000000000000001673ffffffffffffffffffffffffffffffffffffffff92909216919091179055565b73ffffffffffffffffffffffffffffffffffffffff81166000908152600183016020526040812054610fc457508154600180820184556000848152602080822090930180547fffffffffffffffffffffffff00000000000000000000000000000000000000001673ffffffffffffffffffffffffffffffffffffffff861690811790915585549082528286019093526040902091909155610fc8565b5060005b92915050565b8154600090610fe09083106064610ff1565b610fea8383611003565b9392505050565b81610fff57610fff81611043565b5050565b600082600001828154811061101a5761101a6112e9565b60009182526020909120015473ffffffffffffffffffffffffffffffffffffffff169392505050565b7f08c379a0000000000000000000000000000000000000000000000000000000006000908152602060045260076024526652455123000030600a808404818106603090810160081b95839006959095019082900491820690940160101b939093010160c81b604452606490fd5b6145078061138d83390190565b73ffffffffffffffffffffffffffffffffffffffff811681146110df57600080fd5b50565b803563ffffffff811681146110f657600080fd5b919050565b6000806000806080858703121561111157600080fd5b843561111c816110bd565b9350602085013561112c816110bd565b925061113a604086016110e2565b9150611148606086016110e2565b905092959194509250565b6000806040838503121561116657600080fd5b8235611171816110bd565b91506020830135611181816110bd565b809150509250929050565b6020808252825182820181905260009190848201906040850190845b818110156111da57835173ffffffffffffffffffffffffffffffffffffffff16835292840192918401916001016111a8565b50909695505050505050565b6000602082840312156111f857600080fd5b5035919050565b60006020828403121561121157600080fd5b8135610fea816110bd565b600063ffffffff8084168061125a577f4e487b7100000000000000000000000000000000000000000000000000000000600052601260045260246000fd5b92169190910692915050565b7f4e487b7100000000000000000000000000000000000000000000000000000000600052601160045260246000fd5b600063ffffffff838116908316818110156112b2576112b2611266565b039392505050565b7f4e487b7100000000000000000000000000000000000000000000000000000000600052604160045260246000fd5b7f4e487b7100000000000000000000000000000000000000000000000000000000600052603260045260246000fd5b60007fffffffffffffffffffffffffffffffffffffffffffffffffffffffffffffffff82141561134a5761134a611266565b5060010190565b6000825160005b818110156113725760208186018101518583015201611358565b81811115611381576000828501525b50919091019291505056fe60806040526001600b5534801561001557600080fd5b50604080518082018252601f81527f5265717569656d2050616972204c69717569646974792050726f7669646572006020918201528151808301835260018152603160f81b9082015281517f8b73c3c69bb8fe3d512ecc4cf759cc79239f7b179b0ffacaa9a75d522b39400f818301527f4d949f5c4c4f80d7bdbde28a36135fecf440532cf0f2bb46c4801ec3299b1062818401527fc89efdaa54c0f20c7adf612882df0950f5a951637e0307cdcb4c672f298b8bc660608201524660808201523060a0808301919091528351808303909101815260c09091019092528151910120600355600580546001600160a01b031916331790556143ec8061011b6000396000f3fe608060405234801561001057600080fd5b50600436106102415760003560e01c80636a62784211610145578063cc56fd43116100bd578063d505accf1161008c578063dd62ed3e11610071578063dd62ed3e1461065e578063e9255bae14610689578063fff6cae91461069c57600080fd5b8063d505accf1461060f578063d54a8d181461062257600080fd5b8063cc56fd43146105a3578063d0f69579146105b6578063d21220a7146105c9578063d4cadf68146105e957600080fd5b806395d89b4111610114578063ba9a7a56116100f9578063ba9a7a5614610567578063bc25cf7714610570578063c45a01551461058357600080fd5b806395d89b4114610518578063a9059cbb1461055457600080fd5b80636a6278421461049d57806370a08231146104b05780637ecebe00146104d057806389afcb44146104f057600080fd5b806330adf81f116101d85780633644e515116101a75780634b75f54f1161018c5780634b75f54f1461046b5780635909c0d51461048b5780635a3d54931461049457600080fd5b80633644e5151461044f5780634ac00e031461045857600080fd5b806330adf81f146103b8578063313ce567146103df57806332bfe469146103f957806332fd54931461043c57600080fd5b80630dfe1681116102145780630dfe1681146103365780630e6d8bce1461037b57806318160ddd1461039c57806323b872dd146103a557600080fd5b8063022c0d9f1461024657806306fdde031461025b5780630902f1ac146102ad578063095ea7b314610313575b600080fd5b610259610254366004613e09565b6106a4565b005b6102976040518060400160405280601f81526020017f5265717569656d2050616972204c69717569646974792050726f76696465720081525081565b6040516102a49190613ecf565b60405180910390f35b600854604080516dffffffffffffffffffffffffffff80841682526e01000000000000000000000000000084041660208201527c010000000000000000000000000000000000000000000000000000000090920463ffffffff16908201526060016102a4565b610326610321366004613f20565b610732565b60405190151581526020016102a4565b6006546103569073ffffffffffffffffffffffffffffffffffffffff1681565b60405173ffffffffffffffffffffffffffffffffffffffff90911681526020016102a4565b61038e610389366004613f4c565b610748565b6040519081526020016102a4565b61038e60005481565b6103266103b3366004613fab565b6109dc565b61038e7f6e71edae12b1b97f4d1f60370fef10105fa2faae0126114a169c64845d6126c981565b6103e7601281565b60405160ff90911681526020016102a4565b600d54600e54604080517c010000000000000000000000000000000000000000000000000000000090930463ffffffff90811684529091166020830152016102a4565b61025961044a366004613f4c565b610a8e565b61038e60035481565b61038e610466366004613f4c565b611373565b600c546103569073ffffffffffffffffffffffffffffffffffffffff1681565b61038e60095481565b61038e600a5481565b61038e6104ab366004613fec565b61158a565b61038e6104be366004613fec565b60016020526000908152604090205481565b61038e6104de366004613fec565b60046020526000908152604090205481565b6105036104fe366004613fec565b611900565b604080519283526020830191909152016102a4565b6102976040518060400160405280600481526020017f52504c500000000000000000000000000000000000000000000000000000000081525081565b610326610562366004613f20565b611d53565b61038e6103e881565b61025961057e366004613fec565b611d60565b6005546103569073ffffffffffffffffffffffffffffffffffffffff1681565b61038e6105b1366004613fab565b611f22565b6102596105c436600461401d565b6120fe565b6007546103569073ffffffffffffffffffffffffffffffffffffffff1681565b600e54640100000000900463ffffffff1660405163ffffffff90911681526020016102a4565b61025961061d366004614075565b612357565b600d54604080516dffffffffffffffffffffffffffff80841682526e0100000000000000000000000000009093049092166020830152016102a4565b61038e61066c3660046140ec565b600260209081526000928352604080842090915290825290205481565b61038e610697366004613fab565b612642565b6102596127d5565b600b54600114610715576040517f08c379a000000000000000000000000000000000000000000000000000000000815260206004820152600860248201527f5245514c503a204c00000000000000000000000000000000000000000000000060448201526064015b60405180910390fd5b6000600b556107258585856129a1565b50506001600b5550505050565b600061073f3384846131ea565b50600192915050565b6000600b546001146107b6576040517f08c379a000000000000000000000000000000000000000000000000000000000815260206004820152600860248201527f5245514c503a204c000000000000000000000000000000000000000000000000604482015260640161070c565b6000600b81905560065473ffffffffffffffffffffffffffffffffffffffff888116911614908080808461084257600854600e54600d546dffffffffffffffffffffffffffff6e0100000000000000000000000000008404811693169163ffffffff908116917c010000000000000000000000000000000000000000000000000000000090041661089d565b600854600d54600e546dffffffffffffffffffffffffffff808416936e0100000000000000000000000000009004169163ffffffff7c0100000000000000000000000000000000000000000000000000000000909104811691165b600c54600e546040517fb19210b00000000000000000000000000000000000000000000000000000000081526dffffffffffffffffffffffffffff9687169a50949095169750919550935060009273ffffffffffffffffffffffffffffffffffffffff9091169163b19210b09161095f918e918a918a918a918a9163ffffffff64010000000090910416906004019586526020860194909452604085019290925263ffffffff908116606085015290811660808401521660a082015260c00190565b602060405180830381865afa15801561097c573d6000803e3d6000fd5b505050506040513d601f19601f820116820180604052508101906109a09190614125565b9050600080876109b2578260006109b6565b6000835b915091506109c582828c6129a1565b6001600b559e9d5050505050505050505050505050565b73ffffffffffffffffffffffffffffffffffffffff831660009081526002602090815260408083203384529091528120547fffffffffffffffffffffffffffffffffffffffffffffffffffffffffffffffff14610a795773ffffffffffffffffffffffffffffffffffffffff8416600090815260026020908152604080832033845290915281208054849290610a7390849061416d565b90915550505b610a84848484613259565b5060019392505050565b600b54600114610afa576040517f08c379a000000000000000000000000000000000000000000000000000000000815260206004820152600860248201527f5245514c503a204c000000000000000000000000000000000000000000000000604482015260640161070c565b6000600b819055600654819073ffffffffffffffffffffffffffffffffffffffff888116911614610b2d57836000610b31565b6000845b915091506000821180610b445750600081115b610baa576040517f08c379a000000000000000000000000000000000000000000000000000000000815260206004820152600a60248201527f5245514c503a20494f4100000000000000000000000000000000000000000000604482015260640161070c565b6008546dffffffffffffffffffffffffffff808216916e0100000000000000000000000000009004168184108015610bf15750806dffffffffffffffffffffffffffff1683105b610c57576040517f08c379a000000000000000000000000000000000000000000000000000000000815260206004820152600960248201527f5245514c503a20494c0000000000000000000000000000000000000000000000604482015260640161070c565b600654600754600091829173ffffffffffffffffffffffffffffffffffffffff918216919081169089168214801590610cbc57508073ffffffffffffffffffffffffffffffffffffffff168973ffffffffffffffffffffffffffffffffffffffff1614155b610d22576040517f08c379a000000000000000000000000000000000000000000000000000000000815260206004820152600960248201527f5245514c503a2049540000000000000000000000000000000000000000000000604482015260640161070c565b8715610d3357610d33828a8a61332e565b8615610d4457610d44818a8961332e565b6040517f70a0823100000000000000000000000000000000000000000000000000000000815230600482015273ffffffffffffffffffffffffffffffffffffffff8316906370a0823190602401602060405180830381865afa158015610dae573d6000803e3d6000fd5b505050506040513d601f19601f82011682018060405250810190610dd29190614125565b6040517f70a0823100000000000000000000000000000000000000000000000000000000815230600482015290945073ffffffffffffffffffffffffffffffffffffffff8216906370a0823190602401602060405180830381865afa158015610e3f573d6000803e3d6000fd5b505050506040513d601f19601f82011682018060405250810190610e639190614125565b92505050600086856dffffffffffffffffffffffffffff16610e85919061416d565b8311610e92576000610eb6565b610eac876dffffffffffffffffffffffffffff871661416d565b610eb6908461416d565b90506000610ed4876dffffffffffffffffffffffffffff871661416d565b8311610ee1576000610f05565b610efb876dffffffffffffffffffffffffffff871661416d565b610f05908461416d565b90506000821180610f165750600081115b610f7c576040517f08c379a000000000000000000000000000000000000000000000000000000000815260206004820152600a60248201527f5245514c503a2049494100000000000000000000000000000000000000000000604482015260640161070c565b6000610f8a85612710614184565b90506000610f9a85612710614184565b9050831561102e57600e54600090610fc090640100000000900463ffffffff1686614184565b9050610fcc818461416d565b600d54909350610fed9082906dffffffffffffffffffffffffffff166141c1565b600d80547fffffffffffffffffffffffffffffffffffff0000000000000000000000000000166dffffffffffffffffffffffffffff92909216919091179055505b82156110c757600e5460009061105290640100000000900463ffffffff1685614184565b905061105e818361416d565b600d549092506110919082906e01000000000000000000000000000090046dffffffffffffffffffffffffffff166141c1565b600d600e6101000a8154816dffffffffffffffffffffffffffff02191690836dffffffffffffffffffffffffffff160217905550505b600d547c0100000000000000000000000000000000000000000000000000000000900463ffffffff16603281141561119b576111166dffffffffffffffffffffffffffff808a16908b16614184565b611124906305f5e100614184565b61112e8385614184565b1015611196576040517f08c379a000000000000000000000000000000000000000000000000000000000815260206004820152600860248201527f5245514c503a204b000000000000000000000000000000000000000000000000604482015260640161070c565b6112ee565b600c5473ffffffffffffffffffffffffffffffffffffffff166379c91b376111d56dffffffffffffffffffffffffffff8c16612710614184565b6111f16dffffffffffffffffffffffffffff8c16612710614184565b6040517fffffffff0000000000000000000000000000000000000000000000000000000060e085901b16815260048101929092526024820152604481018690526064810185905263ffffffff8416608482015260a401602060405180830381865afa158015611264573d6000803e3d6000fd5b505050506040513d601f19601f8201168201806040525081019061128891906141d9565b6112ee576040517f08c379a000000000000000000000000000000000000000000000000000000000815260206004820152600860248201527f5245514c503a204b000000000000000000000000000000000000000000000000604482015260640161070c565b5050506112fd848488886134ce565b60408051838152602081018390529081018990526060810188905273ffffffffffffffffffffffffffffffffffffffff8a169033907fd78ad95fa46c994b6551d0da85fc275fe613ce37657fb8d5e3d130840159d8229060800160405180910390a350506001600b555050505050505050505050565b6000600b546001146113e1576040517f08c379a000000000000000000000000000000000000000000000000000000000815260206004820152600860248201527f5245514c503a204c000000000000000000000000000000000000000000000000604482015260640161070c565b6000600b81905560065473ffffffffffffffffffffffffffffffffffffffff888116911614908080808461146d57600854600e54600d546dffffffffffffffffffffffffffff6e0100000000000000000000000000008404811693169163ffffffff908116917c01000000000000000000000000000000000000000000000000000000009004166114c8565b600854600d54600e546dffffffffffffffffffffffffffff808416936e0100000000000000000000000000009004169163ffffffff7c0100000000000000000000000000000000000000000000000000000000909104811691165b600c54600e546040517f671a11b50000000000000000000000000000000000000000000000000000000081526dffffffffffffffffffffffffffff9687169a50949095169750919550935060009273ffffffffffffffffffffffffffffffffffffffff9091169163671a11b59161095f918e918a918a918a918a9163ffffffff64010000000090910416906004019586526020860194909452604085019290925263ffffffff908116606085015290811660808401521660a082015260c00190565b6000600b546001146115f8576040517f08c379a000000000000000000000000000000000000000000000000000000000815260206004820152600860248201527f5245514c503a204c000000000000000000000000000000000000000000000000604482015260640161070c565b6000600b819055600854600654604080517f70a0823100000000000000000000000000000000000000000000000000000000815230600482015290516dffffffffffffffffffffffffffff808516956e01000000000000000000000000000090950416939273ffffffffffffffffffffffffffffffffffffffff16916370a082319160248083019260209291908290030181865afa15801561169e573d6000803e3d6000fd5b505050506040513d601f19601f820116820180604052508101906116c29190614125565b6007546040517f70a0823100000000000000000000000000000000000000000000000000000000815230600482015291925060009173ffffffffffffffffffffffffffffffffffffffff909116906370a0823190602401602060405180830381865afa158015611736573d6000803e3d6000fd5b505050506040513d601f19601f8201168201806040525081019061175a9190614125565b905060006117786dffffffffffffffffffffffffffff86168461416d565b905060006117966dffffffffffffffffffffffffffff86168461416d565b90506117a28686613832565b50600054806117de576103e86117c06117bb8486614184565b613bcf565b6117ca919061416d565b97506117d960006103e8613c3f565b611833565b6118306dffffffffffffffffffffffffffff88166117fc8386614184565b611806919061422a565b6dffffffffffffffffffffffffffff88166118218486614184565b61182b919061422a565b613ce2565b97505b6000881161189d576040517f08c379a000000000000000000000000000000000000000000000000000000000815260206004820152600a60248201527f5245514c503a20494c4d00000000000000000000000000000000000000000000604482015260640161070c565b6118a78989613c3f565b6118b3858589896134ce565b604080518481526020810184905233917f4c209b5fc8ad50758f13e2e1088ba56a560dff690a1c6fef26394f4c03821c4f910160405180910390a250506001600b55509395945050505050565b600080600b5460011461196f576040517f08c379a000000000000000000000000000000000000000000000000000000000815260206004820152600860248201527f5245514c503a204c000000000000000000000000000000000000000000000000604482015260640161070c565b6000600b819055600854600654600754604080517f70a0823100000000000000000000000000000000000000000000000000000000815230600482015290516dffffffffffffffffffffffffffff808616966e010000000000000000000000000000909604169473ffffffffffffffffffffffffffffffffffffffff94851694909316929184916370a08231916024808201926020929091908290030181865afa158015611a21573d6000803e3d6000fd5b505050506040513d601f19601f82011682018060405250810190611a459190614125565b6040517f70a0823100000000000000000000000000000000000000000000000000000000815230600482015290915060009073ffffffffffffffffffffffffffffffffffffffff8416906370a0823190602401602060405180830381865afa158015611ab5573d6000803e3d6000fd5b505050506040513d601f19601f82011682018060405250810190611ad99190614125565b30600090815260016020526040902054909150611af68787613832565b5060005480611b058584614184565b611b0f919061422a565b995080611b1c8484614184565b611b26919061422a565b985060008a118015611b385750600089115b611b9e576040517f08c379a000000000000000000000000000000000000000000000000000000000815260206004820152600a60248201527f5245514c503a20494c4200000000000000000000000000000000000000000000604482015260640161070c565b611ba83083613cfa565b611bb3868c8c61332e565b611bbe858c8b61332e565b6040517f70a0823100000000000000000000000000000000000000000000000000000000815230600482015273ffffffffffffffffffffffffffffffffffffffff8716906370a0823190602401602060405180830381865afa158015611c28573d6000803e3d6000fd5b505050506040513d601f19601f82011682018060405250810190611c4c9190614125565b6040517f70a0823100000000000000000000000000000000000000000000000000000000815230600482015290945073ffffffffffffffffffffffffffffffffffffffff8616906370a0823190602401602060405180830381865afa158015611cb9573d6000803e3d6000fd5b505050506040513d601f19601f82011682018060405250810190611cdd9190614125565b9250611ceb84848a8a6134ce565b604080518b8152602081018b905273ffffffffffffffffffffffffffffffffffffffff8d169133917fdccd412f0b1252819cb1fd330b93224ca42612892bb3f4f789976e6d81936496910160405180910390a350505050505050506001600b81905550915091565b600061073f338484613259565b600b54600114611dcc576040517f08c379a000000000000000000000000000000000000000000000000000000000815260206004820152600860248201527f5245514c503a204c000000000000000000000000000000000000000000000000604482015260640161070c565b6000600b556006546007546008546040517f70a0823100000000000000000000000000000000000000000000000000000000815230600482015273ffffffffffffffffffffffffffffffffffffffff9384169390921691611e9891849186916dffffffffffffffffffffffffffff169083906370a08231906024015b602060405180830381865afa158015611e65573d6000803e3d6000fd5b505050506040513d601f19601f82011682018060405250810190611e899190614125565b611e93919061416d565b61332e565b6008546040517f70a08231000000000000000000000000000000000000000000000000000000008152306004820152611f1891839186916e01000000000000000000000000000090046dffffffffffffffffffffffffffff169073ffffffffffffffffffffffffffffffffffffffff8416906370a0823190602401611e48565b50506001600b5550565b600654600090819081908190819073ffffffffffffffffffffffffffffffffffffffff898116911614611fad57600854600e54600d546dffffffffffffffffffffffffffff6e0100000000000000000000000000008404811693169163ffffffff908116917c0100000000000000000000000000000000000000000000000000000000900416612008565b600854600d54600e546dffffffffffffffffffffffffffff808416936e0100000000000000000000000000009004169163ffffffff7c0100000000000000000000000000000000000000000000000000000000909104811691165b600c54600e546040517fb19210b0000000000000000000000000000000000000000000000000000000008152600481018d90526dffffffffffffffffffffffffffff96871660248201819052959096166044870181905263ffffffff8086166064890152808516608489015264010000000090920490911660a4870152939850929650909450925073ffffffffffffffffffffffffffffffffffffffff169063b19210b09060c4015b602060405180830381865afa1580156120ce573d6000803e3d6000fd5b505050506040513d601f19601f820116820180604052508101906120f29190614125565b98975050505050505050565b60055473ffffffffffffffffffffffffffffffffffffffff16331461217f576040517f08c379a000000000000000000000000000000000000000000000000000000000815260206004820152600860248201527f5245514c503a2046000000000000000000000000000000000000000000000000604482015260640161070c565b600680547fffffffffffffffffffffffff000000000000000000000000000000000000000090811673ffffffffffffffffffffffffffffffffffffffff8781169190911790925560078054909116918516919091179055600d80547bffffffffffffffffffffffffffffffffffffffffffffffffffffffff167c010000000000000000000000000000000000000000000000000000000063ffffffff85811682029290921792839055612235920416606461423e565b600e805463ffffffff848116640100000000027fffffffffffffffffffffffffffffffffffffffffffffffff0000000000000000909216931692909217919091179055600554604080517f4b75f54f000000000000000000000000000000000000000000000000000000008152905173ffffffffffffffffffffffffffffffffffffffff90921691634b75f54f916004818101926020929091908290030181865afa1580156122e8573d6000803e3d6000fd5b505050506040513d601f19601f8201168201806040525081019061230c9190614263565b600c80547fffffffffffffffffffffffff00000000000000000000000000000000000000001673ffffffffffffffffffffffffffffffffffffffff9290921691909117905550505050565b428410156123c1576040517f08c379a000000000000000000000000000000000000000000000000000000000815260206004820152600c60248201527f524c503a20455850495245440000000000000000000000000000000000000000604482015260640161070c565b60035473ffffffffffffffffffffffffffffffffffffffff8816600090815260046020526040812080549192917f6e71edae12b1b97f4d1f60370fef10105fa2faae0126114a169c64845d6126c9918b918b918b91908761242183614280565b9091555060408051602081019690965273ffffffffffffffffffffffffffffffffffffffff94851690860152929091166060840152608083015260a082015260c0810187905260e001604051602081830303815290604052805190602001206040516020016124c29291907f190100000000000000000000000000000000000000000000000000000000000081526002810192909252602282015260420190565b604080517fffffffffffffffffffffffffffffffffffffffffffffffffffffffffffffffe08184030181528282528051602091820120600080855291840180845281905260ff88169284019290925260608301869052608083018590529092509060019060a0016020604051602081039080840390855afa15801561254b573d6000803e3d6000fd5b50506040517fffffffffffffffffffffffffffffffffffffffffffffffffffffffffffffffe0015191505073ffffffffffffffffffffffffffffffffffffffff8116158015906125c657508873ffffffffffffffffffffffffffffffffffffffff168173ffffffffffffffffffffffffffffffffffffffff16145b61262c576040517f08c379a000000000000000000000000000000000000000000000000000000000815260206004820152600760248201527f524c503a20495300000000000000000000000000000000000000000000000000604482015260640161070c565b6126378989896131ea565b505050505050505050565b600654600090819081908190819073ffffffffffffffffffffffffffffffffffffffff8981169116146126cd57600854600e54600d546dffffffffffffffffffffffffffff6e0100000000000000000000000000008404811693169163ffffffff908116917c0100000000000000000000000000000000000000000000000000000000900416612728565b600854600d54600e546dffffffffffffffffffffffffffff808416936e0100000000000000000000000000009004169163ffffffff7c0100000000000000000000000000000000000000000000000000000000909104811691165b600c54600e546040517f671a11b5000000000000000000000000000000000000000000000000000000008152600481018d90526dffffffffffffffffffffffffffff96871660248201819052959096166044870181905263ffffffff8086166064890152808516608489015264010000000090920490911660a4870152939850929650909450925073ffffffffffffffffffffffffffffffffffffffff169063671a11b59060c4016120b1565b600b54600114612841576040517f08c379a000000000000000000000000000000000000000000000000000000000815260206004820152600860248201527f5245514c503a204c000000000000000000000000000000000000000000000000604482015260640161070c565b6000600b556006546040517f70a0823100000000000000000000000000000000000000000000000000000000815230600482015261299a9173ffffffffffffffffffffffffffffffffffffffff16906370a0823190602401602060405180830381865afa1580156128b6573d6000803e3d6000fd5b505050506040513d601f19601f820116820180604052508101906128da9190614125565b6007546040517f70a0823100000000000000000000000000000000000000000000000000000000815230600482015273ffffffffffffffffffffffffffffffffffffffff909116906370a0823190602401602060405180830381865afa158015612948573d6000803e3d6000fd5b505050506040513d601f19601f8201168201806040525081019061296c9190614125565b6008546dffffffffffffffffffffffffffff808216916e0100000000000000000000000000009004166134ce565b6001600b55565b6000808411806129b15750600083115b612a17576040517f08c379a000000000000000000000000000000000000000000000000000000000815260206004820152600a60248201527f5245514c503a20494f4100000000000000000000000000000000000000000000604482015260640161070c565b6008546dffffffffffffffffffffffffffff808216916e0100000000000000000000000000009004168186108015612a5e5750806dffffffffffffffffffffffffffff1685105b612ac4576040517f08c379a000000000000000000000000000000000000000000000000000000000815260206004820152600960248201527f5245514c503a20494c0000000000000000000000000000000000000000000000604482015260640161070c565b600654600754600091829173ffffffffffffffffffffffffffffffffffffffff918216919081169088168214801590612b2957508073ffffffffffffffffffffffffffffffffffffffff168873ffffffffffffffffffffffffffffffffffffffff1614155b612b8f576040517f08c379a000000000000000000000000000000000000000000000000000000000815260206004820152600960248201527f5245514c503a2049540000000000000000000000000000000000000000000000604482015260640161070c565b8915612ba057612ba082898c61332e565b8815612bb157612bb181898b61332e565b6040517f70a0823100000000000000000000000000000000000000000000000000000000815230600482015273ffffffffffffffffffffffffffffffffffffffff8316906370a0823190602401602060405180830381865afa158015612c1b573d6000803e3d6000fd5b505050506040513d601f19601f82011682018060405250810190612c3f9190614125565b6040517f70a0823100000000000000000000000000000000000000000000000000000000815230600482015290945073ffffffffffffffffffffffffffffffffffffffff8216906370a0823190602401602060405180830381865afa158015612cac573d6000803e3d6000fd5b505050506040513d601f19601f82011682018060405250810190612cd09190614125565b92505050600088856dffffffffffffffffffffffffffff16612cf2919061416d565b8311612cff576000612d23565b612d19896dffffffffffffffffffffffffffff871661416d565b612d23908461416d565b90506000612d41896dffffffffffffffffffffffffffff871661416d565b8311612d4e576000612d72565b612d68896dffffffffffffffffffffffffffff871661416d565b612d72908461416d565b90506000821180612d835750600081115b612de9576040517f08c379a000000000000000000000000000000000000000000000000000000000815260206004820152600a60248201527f5245514c503a2049494100000000000000000000000000000000000000000000604482015260640161070c565b6000612df785612710614184565b90506000612e0785612710614184565b90508315612e9b57600e54600090612e2d90640100000000900463ffffffff1686614184565b9050612e39818461416d565b600d54909350612e5a9082906dffffffffffffffffffffffffffff166141c1565b600d80547fffffffffffffffffffffffffffffffffffff0000000000000000000000000000166dffffffffffffffffffffffffffff92909216919091179055505b8215612f3457600e54600090612ebf90640100000000900463ffffffff1685614184565b9050612ecb818361416d565b600d54909250612efe9082906e01000000000000000000000000000090046dffffffffffffffffffffffffffff166141c1565b600d600e6101000a8154816dffffffffffffffffffffffffffff02191690836dffffffffffffffffffffffffffff160217905550505b600d547c0100000000000000000000000000000000000000000000000000000000900463ffffffff16603281141561300857612f836dffffffffffffffffffffffffffff808a16908b16614184565b612f91906305f5e100614184565b612f9b8385614184565b1015613003576040517f08c379a000000000000000000000000000000000000000000000000000000000815260206004820152600860248201527f5245514c503a204b000000000000000000000000000000000000000000000000604482015260640161070c565b61315b565b600c5473ffffffffffffffffffffffffffffffffffffffff166379c91b376130426dffffffffffffffffffffffffffff8c16612710614184565b61305e6dffffffffffffffffffffffffffff8c16612710614184565b6040517fffffffff0000000000000000000000000000000000000000000000000000000060e085901b16815260048101929092526024820152604481018690526064810185905263ffffffff8416608482015260a401602060405180830381865afa1580156130d1573d6000803e3d6000fd5b505050506040513d601f19601f820116820180604052508101906130f591906141d9565b61315b576040517f08c379a000000000000000000000000000000000000000000000000000000000815260206004820152600860248201527f5245514c503a204b000000000000000000000000000000000000000000000000604482015260640161070c565b50505061316a848488886134ce565b60408051838152602081018390529081018b9052606081018a905273ffffffffffffffffffffffffffffffffffffffff89169033907fd78ad95fa46c994b6551d0da85fc275fe613ce37657fb8d5e3d130840159d8229060800160405180910390a360008a116131da57886131dc565b895b9a9950505050505050505050565b73ffffffffffffffffffffffffffffffffffffffff83811660008181526002602090815260408083209487168084529482529182902085905590518481527f8c5be1e5ebec7d5bd14f71427d1e84f3dd0314c0f7b2291e5b200ac8c7c3b92591015b60405180910390a3505050565b73ffffffffffffffffffffffffffffffffffffffff83166000908152600160205260408120805483929061328e90849061416d565b909155505073ffffffffffffffffffffffffffffffffffffffff8216600090815260016020526040812080548392906132c89084906141c1565b925050819055508173ffffffffffffffffffffffffffffffffffffffff168373ffffffffffffffffffffffffffffffffffffffff167fddf252ad1be2c89b69c2b068fc378daa952ba7f163c4a11628f55a4df523b3ef8360405161324c91815260200190565b604080518082018252601981527f7472616e7366657228616464726573732c75696e743235362900000000000000602091820152815173ffffffffffffffffffffffffffffffffffffffff85811660248301526044808301869052845180840390910181526064909201845291810180517bffffffffffffffffffffffffffffffffffffffffffffffffffffffff167fa9059cbb00000000000000000000000000000000000000000000000000000000179052915160009283928716916133f591906142b9565b6000604051808303816000865af19150503d8060008114613432576040519150601f19603f3d011682016040523d82523d6000602084013e613437565b606091505b509150915081801561346157508051158061346157508080602001905181019061346191906141d9565b6134c7576040517f08c379a000000000000000000000000000000000000000000000000000000000815260206004820152600960248201527f5245514c503a2054460000000000000000000000000000000000000000000000604482015260640161070c565b5050505050565b600d547c0100000000000000000000000000000000000000000000000000000000900463ffffffff166dffffffffffffffffffffffffffff61351182606461423e565b6135219063ffffffff1687614184565b1115801561354c57506dffffffffffffffffffffffffffff61354963ffffffff831686614184565b11155b6135b2576040517f08c379a000000000000000000000000000000000000000000000000000000000815260206004820152600860248201527f5245514c503a204f000000000000000000000000000000000000000000000000604482015260640161070c565b60006135c3640100000000426142d5565b6008549091506000906135fc907c0100000000000000000000000000000000000000000000000000000000900463ffffffff168361423e565b905060008163ffffffff1611801561362357506dffffffffffffffffffffffffffff851615155b801561363e57506dffffffffffffffffffffffffffff841615155b1561374157600061365084606461423e565b6136609063ffffffff16876142e9565b9050600061367463ffffffff8616876142e9565b90508263ffffffff166136ae8361368a84613d97565b7bffffffffffffffffffffffffffffffffffffffffffffffffffffffff1690613dc8565b7bffffffffffffffffffffffffffffffffffffffffffffffffffffffff166136d69190614184565b600960008282546136e791906141c1565b909155505063ffffffff83166137008261368a85613d97565b7bffffffffffffffffffffffffffffffffffffffffffffffffffffffff166137289190614184565b600a600082825461373991906141c1565b909155505050505b6008805463ffffffff84167c0100000000000000000000000000000000000000000000000000000000027bffffffffffffffffffffffffffffffffffffffffffffffffffffffff6dffffffffffffffffffffffffffff8a81166e0100000000000000000000000000009081027fffffffff000000000000000000000000000000000000000000000000000000009095168d83161794909417918216831794859055604080519382169282169290921783529290930490911660208201527f1c411e9a96e071241c2f21f7726b17ae89e3cab4c78be50e062b03a9fffbbad1910160405180910390a150505050505050565b600080600560009054906101000a900473ffffffffffffffffffffffffffffffffffffffff1673ffffffffffffffffffffffffffffffffffffffff1663017e7e586040518163ffffffff1660e01b8152600401602060405180830381865afa1580156138a2573d6000803e3d6000fd5b505050506040513d601f19601f820116820180604052508101906138c69190614263565b90506000600560009054906101000a900473ffffffffffffffffffffffffffffffffffffffff1673ffffffffffffffffffffffffffffffffffffffff1663b0e21e8a6040518163ffffffff1660e01b8152600401602060405180830381865afa158015613937573d6000803e3d6000fd5b505050506040513d601f19601f8201168201806040525081019061395b9190614125565b73ffffffffffffffffffffffffffffffffffffffff83161515935090506000806139ab600d546dffffffffffffffffffffffffffff808216926e0100000000000000000000000000009092041690565b915091506000836dffffffffffffffffffffffffffff161180156139cc5750845b8015613a0257506000826dffffffffffffffffffffffffffff161180613a0257506000816dffffffffffffffffffffffffffff16115b15613b4757600d54600c54600080547c010000000000000000000000000000000000000000000000000000000090930463ffffffff1692909173ffffffffffffffffffffffffffffffffffffffff16906392aec23c908b8b86613a6681606461423e565b613a708c8c61431f565b613a7a8d8c61431f565b6040517fffffffff0000000000000000000000000000000000000000000000000000000060e08a901b16815260048101979097526dffffffffffffffffffffffffffff9586166024880152938516604487015263ffffffff928316606487015291166084850152821660a48401521660c482015260e401602060405180830381865afa158015613b0e573d6000803e3d6000fd5b505050506040513d601f19601f82011682018060405250810190613b329190614125565b90508015613b4457613b448682613c3f565b50505b6dffffffffffffffffffffffffffff821615613b8657600d80547fffffffffffffffffffffffffffffffffffff00000000000000000000000000001690555b6dffffffffffffffffffffffffffff811615613bc557600d80547fffffffff0000000000000000000000000000ffffffffffffffffffffffffffff1690555b5050505092915050565b60006003821115613c305750806000613be960028361422a565b613bf49060016141c1565b90505b81811015613c2a57905080600281613c0f818661422a565b613c1991906141c1565b613c23919061422a565b9050613bf7565b50919050565b8115613c3a575060015b919050565b80600080828254613c5091906141c1565b909155505073ffffffffffffffffffffffffffffffffffffffff821660009081526001602052604081208054839290613c8a9084906141c1565b909155505060405181815273ffffffffffffffffffffffffffffffffffffffff8316906000907fddf252ad1be2c89b69c2b068fc378daa952ba7f163c4a11628f55a4df523b3ef906020015b60405180910390a35050565b6000818310613cf15781613cf3565b825b9392505050565b73ffffffffffffffffffffffffffffffffffffffff821660009081526001602052604081208054839290613d2f90849061416d565b9250508190555080600080828254613d47919061416d565b909155505060405181815260009073ffffffffffffffffffffffffffffffffffffffff8416907fddf252ad1be2c89b69c2b068fc378daa952ba7f163c4a11628f55a4df523b3ef90602001613cd6565b6000613dc26e0100000000000000000000000000006dffffffffffffffffffffffffffff841661434c565b92915050565b6000613cf36dffffffffffffffffffffffffffff831684614387565b73ffffffffffffffffffffffffffffffffffffffff81168114613e0657600080fd5b50565b600080600080600060808688031215613e2157600080fd5b85359450602086013593506040860135613e3a81613de4565b9250606086013567ffffffffffffffff80821115613e5757600080fd5b818801915088601f830112613e6b57600080fd5b813581811115613e7a57600080fd5b896020828501011115613e8c57600080fd5b9699959850939650602001949392505050565b60005b83811015613eba578181015183820152602001613ea2565b83811115613ec9576000848401525b50505050565b6020815260008251806020840152613eee816040850160208701613e9f565b601f017fffffffffffffffffffffffffffffffffffffffffffffffffffffffffffffffe0169190910160400192915050565b60008060408385031215613f3357600080fd5b8235613f3e81613de4565b946020939093013593505050565b600080600080600060a08688031215613f6457600080fd5b8535613f6f81613de4565b94506020860135613f7f81613de4565b935060408601359250606086013591506080860135613f9d81613de4565b809150509295509295909350565b600080600060608486031215613fc057600080fd5b8335613fcb81613de4565b92506020840135613fdb81613de4565b929592945050506040919091013590565b600060208284031215613ffe57600080fd5b8135613cf381613de4565b803563ffffffff81168114613c3a57600080fd5b6000806000806080858703121561403357600080fd5b843561403e81613de4565b9350602085013561404e81613de4565b925061405c60408601614009565b915061406a60608601614009565b905092959194509250565b600080600080600080600060e0888a03121561409057600080fd5b873561409b81613de4565b965060208801356140ab81613de4565b95506040880135945060608801359350608088013560ff811681146140cf57600080fd5b9699959850939692959460a0840135945060c09093013592915050565b600080604083850312156140ff57600080fd5b823561410a81613de4565b9150602083013561411a81613de4565b809150509250929050565b60006020828403121561413757600080fd5b5051919050565b7f4e487b7100000000000000000000000000000000000000000000000000000000600052601160045260246000fd5b60008282101561417f5761417f61413e565b500390565b6000817fffffffffffffffffffffffffffffffffffffffffffffffffffffffffffffffff04831182151516156141bc576141bc61413e565b500290565b600082198211156141d4576141d461413e565b500190565b6000602082840312156141eb57600080fd5b81518015158114613cf357600080fd5b7f4e487b7100000000000000000000000000000000000000000000000000000000600052601260045260246000fd5b600082614239576142396141fb565b500490565b600063ffffffff8381169083168181101561425b5761425b61413e565b039392505050565b60006020828403121561427557600080fd5b8151613cf381613de4565b60007fffffffffffffffffffffffffffffffffffffffffffffffffffffffffffffffff8214156142b2576142b261413e565b5060010190565b600082516142cb818460208701613e9f565b9190910192915050565b6000826142e4576142e46141fb565b500690565b60006dffffffffffffffffffffffffffff808316818516818304811182151516156143165761431661413e565b02949350505050565b60006dffffffffffffffffffffffffffff80841680614340576143406141fb565b92169190910492915050565b60007bffffffffffffffffffffffffffffffffffffffffffffffffffffffff808316818516818304811182151516156143165761431661413e565b60007bffffffffffffffffffffffffffffffffffffffffffffffffffffffff80841680614340576143406141fb56fea2646970667358221220887dc81804ee18b33d659b976a5b237f13c44a02f506cc6bdbffe4c6d648474d64736f6c634300080a0033a26469706673582212205f5fff1bab38d7f766ff9c21a20830fd67a0aa74002abfaebbbfd84e02f818b464736f6c634300080a0033",
  "devdoc": {
    "kind": "dev",
    "methods": {},
    "version": 1
  },
  "userdoc": {
    "kind": "user",
    "methods": {},
    "version": 1
  },
  "storageLayout": {
    "storage": [
      {
        "astId": 23151,
        "contract": "contracts/RequiemWeightedPairFactory.sol:RequiemWeightedPairFactory",
        "label": "feeTo",
        "offset": 0,
        "slot": "0",
        "type": "t_address"
      },
      {
        "astId": 23153,
        "contract": "contracts/RequiemWeightedPairFactory.sol:RequiemWeightedPairFactory",
        "label": "formula",
        "offset": 0,
        "slot": "1",
        "type": "t_address"
      },
      {
        "astId": 23155,
        "contract": "contracts/RequiemWeightedPairFactory.sol:RequiemWeightedPairFactory",
        "label": "protocolFee",
        "offset": 0,
        "slot": "2",
        "type": "t_uint256"
      },
      {
        "astId": 23157,
        "contract": "contracts/RequiemWeightedPairFactory.sol:RequiemWeightedPairFactory",
        "label": "feeToSetter",
        "offset": 0,
        "slot": "3",
        "type": "t_address"
      },
      {
        "astId": 23172,
        "contract": "contracts/RequiemWeightedPairFactory.sol:RequiemWeightedPairFactory",
        "label": "_pairSalts",
        "offset": 0,
        "slot": "4",
        "type": "t_mapping(t_bytes32,t_address)"
      },
      {
        "astId": 23175,
        "contract": "contracts/RequiemWeightedPairFactory.sol:RequiemWeightedPairFactory",
        "label": "allPairs",
        "offset": 0,
        "slot": "5",
        "type": "t_array(t_address)dyn_storage"
      },
      {
        "astId": 23179,
        "contract": "contracts/RequiemWeightedPairFactory.sol:RequiemWeightedPairFactory",
        "label": "_pairs",
        "offset": 0,
        "slot": "6",
        "type": "t_mapping(t_address,t_uint64)"
      },
      {
        "astId": 23188,
        "contract": "contracts/RequiemWeightedPairFactory.sol:RequiemWeightedPairFactory",
        "label": "tokenPairs",
        "offset": 0,
        "slot": "7",
        "type": "t_mapping(t_contract(IERC20)30555,t_mapping(t_contract(IERC20)30555,t_struct(AddressSet)37118_storage))"
      }
    ],
    "types": {
      "t_address": {
        "encoding": "inplace",
        "label": "address",
        "numberOfBytes": "20"
      },
      "t_array(t_address)dyn_storage": {
        "base": "t_address",
        "encoding": "dynamic_array",
        "label": "address[]",
        "numberOfBytes": "32"
      },
      "t_bytes32": {
        "encoding": "inplace",
        "label": "bytes32",
        "numberOfBytes": "32"
      },
      "t_contract(IERC20)30555": {
        "encoding": "inplace",
        "label": "contract IERC20",
        "numberOfBytes": "20"
      },
      "t_mapping(t_address,t_uint256)": {
        "encoding": "mapping",
        "key": "t_address",
        "label": "mapping(address => uint256)",
        "numberOfBytes": "32",
        "value": "t_uint256"
      },
      "t_mapping(t_address,t_uint64)": {
        "encoding": "mapping",
        "key": "t_address",
        "label": "mapping(address => uint64)",
        "numberOfBytes": "32",
        "value": "t_uint64"
      },
      "t_mapping(t_bytes32,t_address)": {
        "encoding": "mapping",
        "key": "t_bytes32",
        "label": "mapping(bytes32 => address)",
        "numberOfBytes": "32",
        "value": "t_address"
      },
      "t_mapping(t_contract(IERC20)30555,t_mapping(t_contract(IERC20)30555,t_struct(AddressSet)37118_storage))": {
        "encoding": "mapping",
        "key": "t_contract(IERC20)30555",
        "label": "mapping(contract IERC20 => mapping(contract IERC20 => struct EnumerableSet.AddressSet))",
        "numberOfBytes": "32",
        "value": "t_mapping(t_contract(IERC20)30555,t_struct(AddressSet)37118_storage)"
      },
      "t_mapping(t_contract(IERC20)30555,t_struct(AddressSet)37118_storage)": {
        "encoding": "mapping",
        "key": "t_contract(IERC20)30555",
        "label": "mapping(contract IERC20 => struct EnumerableSet.AddressSet)",
        "numberOfBytes": "32",
        "value": "t_struct(AddressSet)37118_storage"
      },
      "t_struct(AddressSet)37118_storage": {
        "encoding": "inplace",
        "label": "struct EnumerableSet.AddressSet",
        "members": [
          {
            "astId": 37113,
            "contract": "contracts/RequiemWeightedPairFactory.sol:RequiemWeightedPairFactory",
            "label": "_values",
            "offset": 0,
            "slot": "0",
            "type": "t_array(t_address)dyn_storage"
          },
          {
            "astId": 37117,
            "contract": "contracts/RequiemWeightedPairFactory.sol:RequiemWeightedPairFactory",
            "label": "_indexes",
            "offset": 0,
            "slot": "1",
            "type": "t_mapping(t_address,t_uint256)"
          }
        ],
        "numberOfBytes": "64"
      },
      "t_uint256": {
        "encoding": "inplace",
        "label": "uint256",
        "numberOfBytes": "32"
      },
      "t_uint64": {
        "encoding": "inplace",
        "label": "uint64",
        "numberOfBytes": "8"
      }
    }
  }
}