{
  "_format": "hh-sol-artifact-1",
  "contractName": "RequiemZap",
  "sourceName": "contracts/RequiemZap.sol",
  "abi": [
    {
      "inputs": [
        {
          "internalType": "contract IUniswapV2Router",
          "name": "_uniRouter",
          "type": "address"
        },
        {
          "internalType": "contract IRequiemRouter",
          "name": "_requiemRouter",
          "type": "address"
        }
      ],
      "stateMutability": "nonpayable",
      "type": "constructor"
    },
    {
      "anonymous": false,
      "inputs": [
        {
          "indexed": false,
          "internalType": "address",
          "name": "governance",
          "type": "address"
        }
      ],
      "name": "LogGovernance",
      "type": "event"
    },
    {
      "anonymous": false,
      "inputs": [
        {
          "indexed": true,
          "internalType": "address",
          "name": "token",
          "type": "address"
        },
        {
          "indexed": false,
          "internalType": "uint256",
          "name": "amount",
          "type": "uint256"
        },
        {
          "indexed": false,
          "internalType": "address",
          "name": "to",
          "type": "address"
        }
      ],
      "name": "Withdraw",
      "type": "event"
    },
    {
      "anonymous": false,
      "inputs": [
        {
          "indexed": true,
          "internalType": "address",
          "name": "sender",
          "type": "address"
        },
        {
          "indexed": false,
          "internalType": "address",
          "name": "from",
          "type": "address"
        },
        {
          "indexed": false,
          "internalType": "uint256",
          "name": "amtFrom",
          "type": "uint256"
        },
        {
          "indexed": false,
          "internalType": "address",
          "name": "pool",
          "type": "address"
        },
        {
          "indexed": false,
          "internalType": "uint256",
          "name": "amtLp",
          "type": "uint256"
        }
      ],
      "name": "ZapIn",
      "type": "event"
    },
    {
      "anonymous": false,
      "inputs": [
        {
          "indexed": true,
          "internalType": "address",
          "name": "sender",
          "type": "address"
        },
        {
          "indexed": false,
          "internalType": "address",
          "name": "pool",
          "type": "address"
        },
        {
          "indexed": false,
          "internalType": "uint256",
          "name": "amtLp",
          "type": "uint256"
        },
        {
          "indexed": false,
          "internalType": "address",
          "name": "to",
          "type": "address"
        },
        {
          "indexed": false,
          "internalType": "uint256",
          "name": "amtTo",
          "type": "uint256"
        }
      ],
      "name": "ZapOut",
      "type": "event"
    },
    {
      "inputs": [
        {
          "internalType": "address",
          "name": "",
          "type": "address"
        },
        {
          "internalType": "address",
          "name": "",
          "type": "address"
        },
        {
          "internalType": "uint256",
          "name": "",
          "type": "uint256"
        }
      ],
      "name": "RequiemPairs",
      "outputs": [
        {
          "internalType": "address",
          "name": "",
          "type": "address"
        }
      ],
      "stateMutability": "view",
      "type": "function"
    },
    {
      "inputs": [],
      "name": "WETH",
      "outputs": [
        {
          "internalType": "address",
          "name": "",
          "type": "address"
        }
      ],
      "stateMutability": "view",
      "type": "function"
    },
    {
      "inputs": [
        {
          "internalType": "address",
          "name": "_token",
          "type": "address"
        }
      ],
      "name": "addTokensResidual",
      "outputs": [],
      "stateMutability": "nonpayable",
      "type": "function"
    },
    {
      "inputs": [
        {
          "internalType": "address",
          "name": "_from",
          "type": "address"
        },
        {
          "internalType": "uint256",
          "name": "_fromAmount",
          "type": "uint256"
        },
        {
          "internalType": "address",
          "name": "lp",
          "type": "address"
        }
      ],
      "name": "getAmountBToZapIn",
      "outputs": [
        {
          "internalType": "uint256",
          "name": "amountBConverted",
          "type": "uint256"
        },
        {
          "internalType": "uint256",
          "name": "amountASell",
          "type": "uint256"
        }
      ],
      "stateMutability": "view",
      "type": "function"
    },
    {
      "inputs": [
        {
          "internalType": "address",
          "name": "_from",
          "type": "address"
        },
        {
          "internalType": "uint256",
          "name": "amount",
          "type": "uint256"
        },
        {
          "internalType": "address",
          "name": "_toToken",
          "type": "address"
        }
      ],
      "name": "getAmountToZapOut",
      "outputs": [
        {
          "internalType": "uint256",
          "name": "amountOtherSell",
          "type": "uint256"
        },
        {
          "internalType": "uint256",
          "name": "amountToConverted",
          "type": "uint256"
        },
        {
          "internalType": "uint256",
          "name": "amountToOrigin",
          "type": "uint256"
        }
      ],
      "stateMutability": "view",
      "type": "function"
    },
    {
      "inputs": [],
      "name": "governance",
      "outputs": [
        {
          "internalType": "address",
          "name": "",
          "type": "address"
        }
      ],
      "stateMutability": "view",
      "type": "function"
    },
    {
      "inputs": [],
      "name": "maxResidual",
      "outputs": [
        {
          "internalType": "uint256",
          "name": "",
          "type": "uint256"
        }
      ],
      "stateMutability": "view",
      "type": "function"
    },
    {
      "inputs": [],
      "name": "requiemFactory",
      "outputs": [
        {
          "internalType": "contract IRequiemFactory",
          "name": "",
          "type": "address"
        }
      ],
      "stateMutability": "view",
      "type": "function"
    },
    {
      "inputs": [],
      "name": "requiemFormula",
      "outputs": [
        {
          "internalType": "contract IRequiemFormula",
          "name": "",
          "type": "address"
        }
      ],
      "stateMutability": "view",
      "type": "function"
    },
    {
      "inputs": [],
      "name": "requiemRouter",
      "outputs": [
        {
          "internalType": "contract IRequiemRouter",
          "name": "",
          "type": "address"
        }
      ],
      "stateMutability": "view",
      "type": "function"
    },
    {
      "inputs": [
        {
          "internalType": "address",
          "name": "_governance",
          "type": "address"
        }
      ],
      "name": "setGovernance",
      "outputs": [],
      "stateMutability": "nonpayable",
      "type": "function"
    },
    {
      "inputs": [
        {
          "internalType": "uint256",
          "name": "_maxResidual",
          "type": "uint256"
        }
      ],
      "name": "setMaxResidual",
      "outputs": [],
      "stateMutability": "nonpayable",
      "type": "function"
    },
    {
      "inputs": [
        {
          "internalType": "address",
          "name": "_input",
          "type": "address"
        },
        {
          "internalType": "address",
          "name": "_output",
          "type": "address"
        },
        {
          "internalType": "address[]",
          "name": "_pair",
          "type": "address[]"
        }
      ],
      "name": "setRequiemPairs",
      "outputs": [],
      "stateMutability": "nonpayable",
      "type": "function"
    },
    {
      "inputs": [
        {
          "internalType": "address[]",
          "name": "_tokensResidual",
          "type": "address[]"
        }
      ],
      "name": "setTokensResidual",
      "outputs": [],
      "stateMutability": "nonpayable",
      "type": "function"
    },
    {
      "inputs": [
        {
          "internalType": "uint256",
          "name": "",
          "type": "uint256"
        }
      ],
      "name": "tokensResidual",
      "outputs": [
        {
          "internalType": "address",
          "name": "",
          "type": "address"
        }
      ],
      "stateMutability": "view",
      "type": "function"
    },
    {
      "inputs": [],
      "name": "uniRouter",
      "outputs": [
        {
          "internalType": "contract IUniswapV2Router",
          "name": "",
          "type": "address"
        }
      ],
      "stateMutability": "view",
      "type": "function"
    },
    {
      "inputs": [
        {
          "internalType": "address",
          "name": "to",
          "type": "address"
        }
      ],
      "name": "withdraw",
      "outputs": [],
      "stateMutability": "nonpayable",
      "type": "function"
    },
    {
      "inputs": [
        {
          "internalType": "address[]",
          "name": "tokens",
          "type": "address[]"
        },
        {
          "internalType": "address",
          "name": "to",
          "type": "address"
        }
      ],
      "name": "withdrawToken",
      "outputs": [],
      "stateMutability": "nonpayable",
      "type": "function"
    },
    {
      "inputs": [
        {
          "internalType": "address",
          "name": "token",
          "type": "address"
        },
        {
          "internalType": "address",
          "name": "to",
          "type": "address"
        },
        {
          "internalType": "uint256",
          "name": "amount",
          "type": "uint256"
        }
      ],
      "name": "withdrawTokenAmount",
      "outputs": [],
      "stateMutability": "nonpayable",
      "type": "function"
    },
    {
      "inputs": [
        {
          "internalType": "address",
          "name": "_to",
          "type": "address"
        },
        {
          "internalType": "uint256",
          "name": "_minTokenB",
          "type": "uint256"
        },
        {
          "internalType": "uint256",
          "name": "_minLp",
          "type": "uint256"
        },
        {
          "internalType": "bool",
          "name": "transferResidual",
          "type": "bool"
        }
      ],
      "name": "zapIn",
      "outputs": [
        {
          "internalType": "uint256",
          "name": "",
          "type": "uint256"
        }
      ],
      "stateMutability": "payable",
      "type": "function"
    },
    {
      "inputs": [
        {
          "internalType": "address",
          "name": "_from",
          "type": "address"
        },
        {
          "internalType": "uint256[]",
          "name": "amounts",
          "type": "uint256[]"
        },
        {
          "internalType": "address",
          "name": "_to",
          "type": "address"
        },
        {
          "internalType": "bool",
          "name": "transferResidual",
          "type": "bool"
        }
      ],
      "name": "zapInToken",
      "outputs": [
        {
          "internalType": "uint256",
          "name": "lpAmt",
          "type": "uint256"
        }
      ],
      "stateMutability": "nonpayable",
      "type": "function"
    },
    {
      "inputs": [
        {
          "internalType": "address",
          "name": "_from",
          "type": "address"
        },
        {
          "internalType": "uint256",
          "name": "amount",
          "type": "uint256"
        },
        {
          "internalType": "address",
          "name": "_toToken",
          "type": "address"
        },
        {
          "internalType": "uint256",
          "name": "_minTokensRec",
          "type": "uint256"
        }
      ],
      "name": "zapOut",
      "outputs": [
        {
          "internalType": "uint256",
          "name": "",
          "type": "uint256"
        }
      ],
      "stateMutability": "nonpayable",
      "type": "function"
    },
    {
      "inputs": [
        {
          "internalType": "address",
          "name": "_from",
          "type": "address"
        },
        {
          "internalType": "uint256",
          "name": "amount",
          "type": "uint256"
        },
        {
          "internalType": "address",
          "name": "_toToken",
          "type": "address"
        },
        {
          "internalType": "uint256",
          "name": "_minTokensRec",
          "type": "uint256"
        },
        {
          "internalType": "uint256",
          "name": "_approvalAmount",
          "type": "uint256"
        },
        {
          "internalType": "uint256",
          "name": "_deadline",
          "type": "uint256"
        },
        {
          "internalType": "uint8",
          "name": "v",
          "type": "uint8"
        },
        {
          "internalType": "bytes32",
          "name": "r",
          "type": "bytes32"
        },
        {
          "internalType": "bytes32",
          "name": "s",
          "type": "bytes32"
        }
      ],
      "name": "zapOutWithPermit",
      "outputs": [
        {
          "internalType": "uint256",
          "name": "",
          "type": "uint256"
        }
      ],
      "stateMutability": "nonpayable",
      "type": "function"
    },
    {
      "stateMutability": "payable",
      "type": "receive"
    }
  ],
  "bytecode": "0x608060405260646008553480156200001657600080fd5b50604051620045b7380380620045b7833981016040819052620000399162000232565b600160008190558054336001600160a01b0319918216179091556003805482166001600160a01b03858116919091179091556004805490921690831690811782556040805163c45a015560e01b81529051919263c45a01559282820192602092908290030181865afa158015620000b4573d6000803e3d6000fd5b505050506040513d601f19601f82011682018060405250810190620000da919062000271565b600560006101000a8154816001600160a01b0302191690836001600160a01b03160217905550806001600160a01b0316634b75f54f6040518163ffffffff1660e01b8152600401602060405180830381865afa1580156200013f573d6000803e3d6000fd5b505050506040513d601f19601f8201168201806040525081019062000165919062000271565b600660006101000a8154816001600160a01b0302191690836001600160a01b03160217905550806001600160a01b031663ad5c46486040518163ffffffff1660e01b8152600401602060405180830381865afa158015620001ca573d6000803e3d6000fd5b505050506040513d601f19601f82011682018060405250810190620001f0919062000271565b600280546001600160a01b0319166001600160a01b039290921691909117905550620002989050565b6001600160a01b03811681146200022f57600080fd5b50565b600080604083850312156200024657600080fd5b8251620002538162000219565b6020840151909250620002668162000219565b809150509250929050565b6000602082840312156200028457600080fd5b8151620002918162000219565b9392505050565b61430f80620002a86000396000f3fe6080604052600436106101845760003560e01c8063761c262e116100d6578063bdbcf8211161007f578063e5bc292011610059578063e5bc2920146104a9578063f89e4c57146104c9578063fb4a06c7146104e957600080fd5b8063bdbcf82114610453578063df373c0014610473578063e0243baa1461049357600080fd5b8063a863ff2f116100b0578063a863ff2f146103f3578063ab033ea914610413578063ad5c46481461043357600080fd5b8063761c262e146103a05780637b191ff2146103b3578063a0e47bf6146103d357600080fd5b80633c01ae6e11610138578063521f2e0911610112578063521f2e09146103325780635aa6e675146103605780635c863ebe1461038057600080fd5b80633c01ae6e146102b757806340564958146102d757806351cff8d91461031257600080fd5b806314896f951161016957806314896f951461023f57806328e802ac1461027757806334d2365b1461029757600080fd5b806304d21f06146101e557806309342d951461020557600080fd5b366101e057333214156101de5760405162461bcd60e51b815260206004820152601d60248201527f5a61703a20446f206e6f742073656e6420455448206469726563746c7900000060448201526064015b60405180910390fd5b005b600080fd5b3480156101f157600080fd5b506101de610200366004613a59565b610509565b34801561021157600080fd5b50610225610220366004613a8e565b61057a565b604080519283526020830191909152015b60405180910390f35b34801561024b57600080fd5b5061025f61025a366004613ad0565b6107b6565b6040516001600160a01b039091168152602001610236565b34801561028357600080fd5b506101de610292366004613ae9565b6107e0565b3480156102a357600080fd5b506101de6102b2366004613ad0565b6108ee565b3480156102c357600080fd5b506101de6102d2366004613b2a565b61094d565b3480156102e357600080fd5b506102f76102f2366004613a8e565b610a11565b60408051938452602084019290925290820152606001610236565b34801561031e57600080fd5b506101de61032d366004613b2a565b610c92565b34801561033e57600080fd5b5061035261034d366004613b55565b610d55565b604051908152602001610236565b34801561036c57600080fd5b5060015461025f906001600160a01b031681565b34801561038c57600080fd5b506101de61039b366004613c05565b61127a565b6103526103ae366004613c67565b61130f565b3480156103bf57600080fd5b506101de6103ce366004613cb1565b61142f565b3480156103df57600080fd5b5060035461025f906001600160a01b031681565b3480156103ff57600080fd5b5061035261040e366004613d03565b611525565b34801561041f57600080fd5b506101de61042e366004613b2a565b611a85565b34801561043f57600080fd5b5060025461025f906001600160a01b031681565b34801561045f57600080fd5b5060055461025f906001600160a01b031681565b34801561047f57600080fd5b5060045461025f906001600160a01b031681565b34801561049f57600080fd5b5061035260085481565b3480156104b557600080fd5b506103526104c4366004613d4b565b611b4b565b3480156104d557600080fd5b5060065461025f906001600160a01b031681565b3480156104f557600080fd5b5061025f610504366004613ae9565b611c05565b6001546001600160a01b031633146105635760405162461bcd60e51b815260206004820152601060248201527f5a61703a2021676f7665726e616e63650000000000000000000000000000000060448201526064016101d5565b80516105769060099060208401906138ba565b5050565b60008060008060008590506000816001600160a01b0316630dfe16816040518163ffffffff1660e01b8152600401602060405180830381865afa1580156105c5573d6000803e3d6000fd5b505050506040513d601f19601f820116820180604052508101906105e99190613dd7565b90506000826001600160a01b031663d21220a76040518163ffffffff1660e01b8152600401602060405180830381865afa15801561062b573d6000803e3d6000fd5b505050506040513d601f19601f8201168201806040525081019061064f9190613dd7565b9050816001600160a01b03168a6001600160a01b0316146106705781610672565b805b9450610680888b8b85611c4a565b935060009250600191506106919050565b6040519080825280602002602001820160405280156106ba578160200160208202803683370190505b50905085816000815181106106d1576106d1613df4565b6001600160a01b0392831660209182029290920101526006546005546040517f119220a50000000000000000000000000000000000000000000000000000000081526000939283169263119220a592610737929116908d90899089908990600401613e67565b600060405180830381865afa158015610754573d6000803e3d6000fd5b505050506040513d6000823e601f3d908101601f1916820160405261077c9190810190613eac565b9050806001825161078d9190613f61565b8151811061079d5761079d613df4565b6020026020010151839550955050505050935093915050565b600981815481106107c657600080fd5b6000918252602090912001546001600160a01b0316905081565b6001546001600160a01b0316331461083a5760405162461bcd60e51b815260206004820152601060248201527f5a61703a2021676f7665726e616e63650000000000000000000000000000000060448201526064016101d5565b6001600160a01b0382166108905760405162461bcd60e51b815260206004820152601d60248201527f5a61703a20496e76616c6964205265636569766572204164647265737300000060448201526064016101d5565b6108a46001600160a01b0384168383611e53565b604080518281526001600160a01b0384811660208301528516917f56c54ba9bd38d8fd62012e42c7ee564519b09763c426d331b3661b537ead19b2910160405180910390a2505050565b6001546001600160a01b031633146109485760405162461bcd60e51b815260206004820152601060248201527f5a61703a2021676f7665726e616e63650000000000000000000000000000000060448201526064016101d5565b600855565b6001546001600160a01b031633146109a75760405162461bcd60e51b815260206004820152601060248201527f5a61703a2021676f7665726e616e63650000000000000000000000000000000060448201526064016101d5565b600980546001810182556000919091527f6e1540171b6c0c960b71a7020d9f60077f6af931a8bbf590da0223dacf75c7af0180547fffffffffffffffffffffffff0000000000000000000000000000000000000000166001600160a01b0392909216919091179055565b60008060008060008790506000816001600160a01b0316630dfe16816040518163ffffffff1660e01b8152600401602060405180830381865afa158015610a5c573d6000803e3d6000fd5b505050506040513d601f19601f82011682018060405250810190610a809190613dd7565b90506000826001600160a01b031663d21220a76040518163ffffffff1660e01b8152600401602060405180830381865afa158015610ac2573d6000803e3d6000fd5b505050506040513d601f19601f82011682018060405250810190610ae69190613dd7565b9050816001600160a01b0316886001600160a01b031614610b075781610b09565b805b93505050506000806000896001600160a01b03166318160ddd6040518163ffffffff1660e01b8152600401602060405180830381865afa158015610b51573d6000803e3d6000fd5b505050506040513d601f19601f82011682018060405250810190610b759190613f78565b6040517f70a082310000000000000000000000000000000000000000000000000000000081526001600160a01b038c811660048301529192508291610c0a91908716906370a08231906024015b602060405180830381865afa158015610bdf573d6000803e3d6000fd5b505050506040513d601f19601f82011682018060405250810190610c039190613f78565b8b90611efc565b610c149190613f91565b6040517f70a082310000000000000000000000000000000000000000000000000000000081526001600160a01b038c811660048301529194508291610c6591908b16906370a0823190602401610bc2565b610c6f9190613f91565b9150506000610c808a858585611f0f565b929a9299509097509095505050505050565b6001546001600160a01b03163314610cec5760405162461bcd60e51b815260206004820152601060248201527f5a61703a2021676f7665726e616e63650000000000000000000000000000000060448201526064016101d5565b60006009805480602002602001604051908101604052809291908181526020018280548015610d4457602002820191906000526020600020905b81546001600160a01b03168152600190910190602001808311610d26575b50505050509050610576818361142f565b600060026000541415610daa5760405162461bcd60e51b815260206004820152601f60248201527f5265656e7472616e637947756172643a207265656e7472616e742063616c6c0060448201526064016101d5565b6002600081905550610deb333087876000818110610dca57610dca613df4565b90506020020135896001600160a01b031661208b909392919063ffffffff16565b610df4866120dc565b826001600160a01b0316630dfe16816040518163ffffffff1660e01b8152600401602060405180830381865afa158015610e32573d6000803e3d6000fd5b505050506040513d601f19601f82011682018060405250810190610e569190613dd7565b6001600160a01b0316866001600160a01b03161480610ee75750826001600160a01b031663d21220a76040518163ffffffff1660e01b8152600401602060405180830381865afa158015610eae573d6000803e3d6000fd5b505050506040513d601f19601f82011682018060405250810190610ed29190613dd7565b6001600160a01b0316866001600160a01b0316145b1561114d576000806000856001600160a01b0316630dfe16816040518163ffffffff1660e01b8152600401602060405180830381865afa158015610f2f573d6000803e3d6000fd5b505050506040513d601f19601f82011682018060405250810190610f539190613dd7565b90506000866001600160a01b031663d21220a76040518163ffffffff1660e01b8152600401602060405180830381865afa158015610f95573d6000803e3d6000fd5b505050506040513d601f19601f82011682018060405250810190610fb99190613dd7565b9050816001600160a01b03168a6001600160a01b031614610fda5781610fdc565b805b9350611003878b8b8b6000818110610ff657610ff6613df4565b9050602002013585611c4a565b925050506000611016898385308a612365565b90508787600181811061102b5761102b613df4565b905060200201358110156110815760405162461bcd60e51b815260206004820181905260248201527f5a61703a20496e73756666696369656e74205265636569766520416d6f756e7460448201526064016101d5565b611143868a856110b3868d8d600081811061109e5761109e613df4565b905060200201356125fa90919063ffffffff16565b6005546040517fe5e31b130000000000000000000000000000000000000000000000000000000081526001600160a01b038d811660048301528892339291169063e5e31b1390602401602060405180830381865afa158015611119573d6000803e3d6000fd5b505050506040513d601f19601f8201168201806040525081019061113d9190613fcc565b8c612608565b9350505050611189565b6000611175878787600081811061116657611166613df4565b9050602002013530600061285e565b9050611185848233600087612ae0565b9150505b8484600281811061119c5761119c613df4565b905060200201358110156111f25760405162461bcd60e51b815260206004820152601560248201527f5a61703a204869676820536c69707061676520496e000000000000000000000060448201526064016101d5565b337f6c9d1839e8465b42ebfd3c687420dbcdf116253fd431545be184fb051c38f0c287878760008161122657611226613df4565b90506020020135868560405161126494939291906001600160a01b039485168152602081019390935292166040820152606081019190915260800190565b60405180910390a2600160005595945050505050565b6001546001600160a01b031633146112d45760405162461bcd60e51b815260206004820152601060248201527f5a61703a2021676f7665726e616e63650000000000000000000000000000000060448201526064016101d5565b6001600160a01b03808416600090815260076020908152604080832093861683529281529190208251611309928401906138ba565b50505050565b6000600260005414156113645760405162461bcd60e51b815260206004820152601f60248201527f5265656e7472616e637947756172643a207265656e7472616e742063616c6c0060448201526064016101d5565b600260009081556113788634338887612ae0565b9050838110156113ca5760405162461bcd60e51b815260206004820152601560248201527f5a61703a204869676820536c69707061676520496e000000000000000000000060448201526064016101d5565b600254604080516001600160a01b039283168152346020820152918816908201526060810182905233907f6c9d1839e8465b42ebfd3c687420dbcdf116253fd431545be184fb051c38f0c29060800160405180910390a2600160005595945050505050565b6001546001600160a01b031633146114895760405162461bcd60e51b815260206004820152601060248201527f5a61703a2021676f7665726e616e63650000000000000000000000000000000060448201526064016101d5565b6001600160a01b0381166114df5760405162461bcd60e51b815260206004820152601d60248201527f5a61703a20496e76616c6964205265636569766572204164647265737300000060448201526064016101d5565b60005b82518110156115205761150e83828151811061150057611500613df4565b60200260200101518361319c565b8061151881613fe9565b9150506114e2565b505050565b60006002600054141561157a5760405162461bcd60e51b815260206004820152601f60248201527f5265656e7472616e637947756172643a207265656e7472616e742063616c6c0060448201526064016101d5565b60026000556115946001600160a01b03861633308761208b565b61159d856120dc565b6000806000806000899050806001600160a01b0316630dfe16816040518163ffffffff1660e01b8152600401602060405180830381865afa1580156115e6573d6000803e3d6000fd5b505050506040513d601f19601f8201168201806040525081019061160a9190613dd7565b9450806001600160a01b031663d21220a76040518163ffffffff1660e01b8152600401602060405180830381865afa15801561164a573d6000803e3d6000fd5b505050506040513d601f19601f8201168201806040525081019061166e9190613dd7565b6005546040517fe5e31b130000000000000000000000000000000000000000000000000000000081526001600160a01b038d811660048301529296506000929091169063e5e31b1390602401602060405180830381865afa1580156116d7573d6000803e3d6000fd5b505050506040513d601f19601f820116820180604052508101906116fb9190613fcc565b905080156117c957600480546040517fe1f4a7840000000000000000000000000000000000000000000000000000000081526001600160a01b038e81169382019390935288831660248201528783166044820152606481018d905260016084820181905260a48201523060c48201524260e482015291169063e1f4a784906101040160408051808303816000875af115801561179b573d6000803e3d6000fd5b505050506040513d601f19601f820116820180604052508101906117bf9190614022565b9094509250611880565b6003546040517fbaa2abde0000000000000000000000000000000000000000000000000000000081526001600160a01b0388811660048301528781166024830152604482018d905260016064830181905260848301523060a48301524260c48301529091169063baa2abde9060e40160408051808303816000875af1158015611856573d6000803e3d6000fd5b505050506040513d601f19601f8201168201806040525081019061187a9190614022565b90945092505b5050600061188d856120dc565b611896846120dc565b6001600160a01b03881673eeeeeeeeeeeeeeeeeeeeeeeeeeeeeeeeeeeeeeee1415611922576002546000906001600160a01b03878116911614806118e757506002546001600160a01b038681169116145b6118f25760006118f4565b8a5b90506119028685308461285e565b915061191a6119138685308561285e565b83906132ae565b915050611987565b6000856001600160a01b0316896001600160a01b031614806119555750846001600160a01b0316896001600160a01b0316145b611960576000611962565b8a5b905061197186858b3085612365565b915061198361191386858c3086612365565b9150505b868110156119d75760405162461bcd60e51b815260206004820152601660248201527f5a61703a204869676820536c697070616765204f75740000000000000000000060448201526064016101d5565b6001600160a01b03881673eeeeeeeeeeeeeeeeeeeeeeeeeeeeeeeeeeeeeeee1415611a0b57611a0633826132cb565b611a1f565b611a1f6001600160a01b0389163383611e53565b604080516001600160a01b038c81168252602082018c90528a168183015260608101839052905133917f04a863d47eb1f82dce727c38e0b2294b96dea01f7d8c060216edb8ef473ea839919081900360800190a260016000559998505050505050505050565b6001546001600160a01b03163314611adf5760405162461bcd60e51b815260206004820152601060248201527f5a61703a2021676f7665726e616e63650000000000000000000000000000000060448201526064016101d5565b600180547fffffffffffffffffffffffff0000000000000000000000000000000000000000166001600160a01b0383169081179091556040519081527f4d5c50bb72d5f3b4cd853277f0fedffc1df6a70dbed9a9f365013b5a8543e8849060200160405180910390a150565b6040517fd505accf000000000000000000000000000000000000000000000000000000008152336004820152306024820152604481018690526064810185905260ff8416608482015260a4810183905260c481018290526000906001600160a01b038b169063d505accf9060e401600060405180830381600087803b158015611bd357600080fd5b505af1158015611be7573d6000803e3d6000fd5b50505050611bf78a8a8a8a611525565b9a9950505050505050505050565b60076020528260005260406000206020528160005260406000208181548110611c2d57600080fd5b6000918252602090912001546001600160a01b0316925083915050565b6005546040517fca2229790000000000000000000000000000000000000000000000000000000081526001600160a01b038681166004830152600092839283929091169063ca22297990602401606060405180830381865afa158015611cb4573d6000803e3d6000fd5b505050506040513d601f19601f82011682018060405250810190611cd8919061405a565b50915091508163ffffffff1660321415611dff57600080886001600160a01b0316630902f1ac6040518163ffffffff1660e01b8152600401606060405180830381865afa158015611d2d573d6000803e3d6000fd5b505050506040513d601f19601f82011682018060405250810190611d5191906140bb565b506dffffffffffffffffffffffffffff1691506dffffffffffffffffffffffffffff1691506000866001600160a01b0316896001600160a01b031614611d975781611d99565b825b90506107ca611de9611dad836107cd611efc565b611de3611dde611dc086623cda29611efc565b611dcd8e623cda20611efc565b611dd791906140e7565b8690611efc565b6133ae565b906125fa565b611df39190613f91565b95505050505050611e4b565b6000846001600160a01b0316876001600160a01b031614611e26578263ffffffff16611e2e565b8163ffffffff165b9050611e456064611e3f8884611efc565b9061341e565b93505050505b949350505050565b6040516001600160a01b0383166024820152604481018290526115209084907fa9059cbb00000000000000000000000000000000000000000000000000000000906064015b60408051601f198184030181529190526020810180517bffffffffffffffffffffffffffffffffffffffffffffffffffffffff167fffffffff000000000000000000000000000000000000000000000000000000009093169290921790915261342a565b6000611f0882846140ff565b9392505050565b6006546005546040517fb33d96b00000000000000000000000000000000000000000000000000000000081526001600160a01b039182166004820152868216602482015285821660448201526000928392839283928392839291169063b33d96b09060640160c060405180830381865afa158015611f91573d6000803e3d6000fd5b505050506040513d601f19601f82011682018060405250810190611fb5919061413c565b600654949a50929850909650945092506001600160a01b0316905063671a11b589611fe088826125fa565b611fea888c6125fa565b6040517fffffffff0000000000000000000000000000000000000000000000000000000060e086901b16815260048101939093526024830191909152604482015263ffffffff80871660648301528086166084830152841660a482015260c401602060405180830381865afa158015612067573d6000803e3d6000fd5b505050506040513d601f19601f82011682018060405250810190611bf79190613f78565b6040516001600160a01b03808516602483015283166044820152606481018290526113099085907f23b872dd0000000000000000000000000000000000000000000000000000000090608401611e98565b6003546040517fdd62ed3e0000000000000000000000000000000000000000000000000000000081523060048201526001600160a01b0391821660248201529082169063dd62ed3e90604401602060405180830381865afa158015612145573d6000803e3d6000fd5b505050506040513d601f19601f820116820180604052508101906121699190613f78565b61221e576003546040517f095ea7b30000000000000000000000000000000000000000000000000000000081526001600160a01b0391821660048201527fffffffffffffffffffffffffffffffffffffffffffffffffffffffffffffffff60248201529082169063095ea7b3906044016020604051808303816000875af11580156121f8573d6000803e3d6000fd5b505050506040513d601f19601f8201168201806040525081019061221c9190613fcc565b505b600480546040517fdd62ed3e00000000000000000000000000000000000000000000000000000000815230928101929092526001600160a01b03908116602483015282169063dd62ed3e90604401602060405180830381865afa158015612289573d6000803e3d6000fd5b505050506040513d601f19601f820116820180604052508101906122ad9190613f78565b61236257600480546040517f095ea7b30000000000000000000000000000000000000000000000000000000081526001600160a01b03918216928101929092527fffffffffffffffffffffffffffffffffffffffffffffffffffffffffffffffff602483015282169063095ea7b3906044016020604051808303816000875af115801561233e573d6000803e3d6000fd5b505050506040513d601f19601f820116820180604052508101906105769190613fcc565b50565b6000836001600160a01b0316866001600160a01b031614156123ac576001600160a01b03831630146123a5576123a56001600160a01b0387168487611e53565b50836125f1565b6001600160a01b03808716600090815260076020908152604080832093881683529281528282208054845181840281018401909552808552929392909183018282801561242257602002820191906000526020600020905b81546001600160a01b03168152600190910190602001808311612404575b5050505050905060606000825111156124d857600480546040517fbff51d710000000000000000000000000000000000000000000000000000000081526001600160a01b039091169163bff51d719161248a918c918b918d916001918a918e914291016141a5565b6000604051808303816000875af11580156124a9573d6000803e3d6000fd5b505050506040513d6000823e601f3d908101601f191682016040526124d19190810190613eac565b90506125c5565b6001600160a01b0384161561257d576040805160018082528183019092529060208083019080368337019050509150838260008151811061251b5761251b613df4565b6001600160a01b039283166020918202929092010152600480546040517fbff51d7100000000000000000000000000000000000000000000000000000000815292169163bff51d719161248a918c918b918d916001918a918e914291016141a5565b60405162461bcd60e51b815260206004820152601660248201527f5265717569656d5a61703a20217061746820737761700000000000000000000060448201526064016101d5565b80600182516125d49190613f61565b815181106125e4576125e4613df4565b6020026020010151925050505b95945050505050565b6000611f08838360016134c9565b6000612613886120dc565b61261c876120dc565b60008084156126f857600480546040517ffbf451350000000000000000000000000000000000000000000000000000000081526001600160a01b038e8116938201939093528c831660248201528b83166044820152606481018b9052608481018a9052600160a4820181905260c482015288831660e48201524261010482015291169063fbf4513590610124016060604051808303816000875af11580156126c8573d6000803e3d6000fd5b505050506040513d601f19601f820116820180604052508101906126ec91906141f1565b945090925090506127bc565b6003546040517fe8e337000000000000000000000000000000000000000000000000000000000081526001600160a01b038c811660048301528b81166024830152604482018b9052606482018a905260016084830181905260a483015288811660c48301524260e48301529091169063e8e3370090610104016060604051808303816000875af1158015612790573d6000803e3d6000fd5b505050506040513d601f19601f820116820180604052508101906127b491906141f1565b945090925090505b60006127c889846125fa565b905084806127ef57506127ec612710611e3f6008548c611efc90919063ffffffff16565b81115b15612805578015612805576128058b33836134e4565b600061281189846125fa565b905085806128385750612835612710611e3f6008548c611efc90919063ffffffff16565b81115b1561284e57801561284e5761284e8b33836134e4565b5050505098975050505050505050565b6002546000906001600160a01b03868116911614156128955760025461288e906001600160a01b031684866134e4565b5082611e4b565b6001600160a01b03808616600090815260076020908152604080832060025490941683529281528282208054845181840281018401909552808552929392909183018282801561290e57602002820191906000526020600020905b81546001600160a01b031681526001909101906020018083116128f0575b5050505050905060606000825111156129c257600480546040517f9c91fcb50000000000000000000000000000000000000000000000000000000081526001600160a01b0390911691639c91fcb591612974918b918b9160019189918d9142910161421f565b6000604051808303816000875af1158015612993573d6000803e3d6000fd5b505050506040513d6000823e601f3d908101601f191682016040526129bb9190810190613eac565b9050612aad565b6001600160a01b03841615612a655760408051600180825281830190925290602080830190803683370190505091508382600081518110612a0557612a05613df4565b6001600160a01b039283166020918202929092010152600480546040517f9c91fcb5000000000000000000000000000000000000000000000000000000008152921691639c91fcb591612974918b918b9160019189918d9142910161421f565b60405162461bcd60e51b815260206004820152601a60248201527f5265717569656d5a61703a20217061746820546f6b656e424e4200000000000060448201526064016101d5565b8060018251612abc9190613f61565b81518110612acc57612acc613df4565b602002602001015192505050949350505050565b600080869050600260009054906101000a90046001600160a01b03166001600160a01b0316876001600160a01b0316630dfe16816040518163ffffffff1660e01b8152600401602060405180830381865afa158015612b43573d6000803e3d6000fd5b505050506040513d601f19601f82011682018060405250810190612b679190613dd7565b6001600160a01b03161480612c0b5750600254604080517fd21220a700000000000000000000000000000000000000000000000000000000815290516001600160a01b03928316928a169163d21220a79160048083019260209291908290030181865afa158015612bdc573d6000803e3d6000fd5b505050506040513d601f19601f82011682018060405250810190612c009190613dd7565b6001600160a01b0316145b15612f89576000600260009054906101000a90046001600160a01b03166001600160a01b0316886001600160a01b0316630dfe16816040518163ffffffff1660e01b8152600401602060405180830381865afa158015612c6f573d6000803e3d6000fd5b505050506040513d601f19601f82011682018060405250810190612c939190613dd7565b6001600160a01b031614612d0857876001600160a01b0316630dfe16816040518163ffffffff1660e01b8152600401602060405180830381865afa158015612cdf573d6000803e3d6000fd5b505050506040513d601f19601f82011682018060405250810190612d039190613dd7565b612d6a565b876001600160a01b031663d21220a76040518163ffffffff1660e01b8152600401602060405180830381865afa158015612d46573d6000803e3d6000fd5b505050506040513d601f19601f82011682018060405250810190612d6a9190613dd7565b90506000612df083600260009054906101000a90046001600160a01b03168a8c6001600160a01b0316630dfe16816040518163ffffffff1660e01b8152600401602060405180830381865afa158015612dc7573d6000803e3d6000fd5b505050506040513d601f19601f82011682018060405250810190612deb9190613dd7565b611c4a565b90506000612e00838330876135a9565b905086811015612e525760405162461bcd60e51b815260206004820181905260248201527f5a61703a20496e73756666696369656e74205265636569766520416d6f756e7460448201526064016101d5565b6000612e5e8a846125fa565b9050600260009054906101000a90046001600160a01b03166001600160a01b031663d0e30db0826040518263ffffffff1660e01b81526004016000604051808303818588803b158015612eb057600080fd5b505af1158015612ec4573d6000803e3d6000fd5b5050505050612f7e85600260009054906101000a90046001600160a01b03168684868e600560009054906101000a90046001600160a01b03166001600160a01b031663e5e31b138d6040518263ffffffff1660e01b8152600401612f3791906001600160a01b0391909116815260200190565b602060405180830381865afa158015612f54573d6000803e3d6000fd5b505050506040513d601f19601f82011682018060405250810190612f789190613fcc565b8e612608565b955050505050613192565b6000876001600160a01b0316630dfe16816040518163ffffffff1660e01b8152600401602060405180830381865afa158015612fc9573d6000803e3d6000fd5b505050506040513d601f19601f82011682018060405250810190612fed9190613dd7565b90506000886001600160a01b031663d21220a76040518163ffffffff1660e01b8152600401602060405180830381865afa15801561302f573d6000803e3d6000fd5b505050506040513d601f19601f820116820180604052508101906130539190613dd7565b6005546040517fca2229790000000000000000000000000000000000000000000000000000000081526001600160a01b0386811660048301529293506000928392839291169063ca22297990602401606060405180830381865afa1580156130bf573d6000803e3d6000fd5b505050506040513d601f19601f820116820180604052508101906130e3919061405a565b5050905060006131076064611e3f8463ffffffff168f611efc90919063ffffffff16565b905061311686823060006135a9565b935061312e856131268e846125fa565b3060006135a9565b9250505061318b85858585858e600560009054906101000a90046001600160a01b03166001600160a01b031663e5e31b138d6040518263ffffffff1660e01b8152600401612f3791906001600160a01b0391909116815260200190565b9550505050505b5095945050505050565b6001600160a01b03821673eeeeeeeeeeeeeeeeeeeeeeeeeeeeeeeeeeeeeeee1415613214576131cb81476132cb565b604080514781526001600160a01b0383811660208301528416917f56c54ba9bd38d8fd62012e42c7ee564519b09763c426d331b3661b537ead19b2910160405180910390a25050565b6040517f70a082310000000000000000000000000000000000000000000000000000000081523060048201526000906001600160a01b038416906370a0823190602401602060405180830381865afa158015613274573d6000803e3d6000fd5b505050506040513d601f19601f820116820180604052508101906132989190613f78565b90506108a46001600160a01b0384168383611e53565b6000806132bb83856140e7565b9050611f08848210156000613864565b604080516000808252602082019092526001600160a01b0384169083906040516132f59190614262565b60006040518083038185875af1925050503d8060008114613332576040519150601f19603f3d011682016040523d82523d6000602084013e613337565b606091505b50509050806115205760405162461bcd60e51b815260206004820152602360248201527f5472616e7366657248656c7065723a204554485f5452414e534645525f46414960448201527f4c4544000000000000000000000000000000000000000000000000000000000060648201526084016101d5565b6000600382111561340f57508060006133c8600283613f91565b6133d39060016140e7565b90505b81811015613409579050806002816133ee8186613f91565b6133f891906140e7565b6134029190613f91565b90506133d6565b50919050565b8115613419575060015b919050565b6000611f088284613f91565b600080836001600160a01b0316836040516134459190614262565b6000604051808303816000865af19150503d8060008114613482576040519150601f19603f3d011682016040523d82523d6000602084013e613487565b606091505b5091509150600082141561349f573d6000803e3d6000fd5b6113098151600014806134c15750818060200190518101906134c19190613fcc565b6101a2613864565b60006134d88484111583613864565b60006125f18486613f61565b806134ee57505050565b6002546001600160a01b0384811691161415613595576002546040517f2e1a7d4d000000000000000000000000000000000000000000000000000000008152600481018390526001600160a01b0390911690632e1a7d4d90602401600060405180830381600087803b15801561356357600080fd5b505af1158015613577573d6000803e3d6000fd5b505050506001600160a01b03821630146115205761152082826132cb565b6115206001600160a01b0384168383611e53565b6002546000906001600160a01b038681169116141561365357600260009054906101000a90046001600160a01b03166001600160a01b031663d0e30db0856040518263ffffffff1660e01b81526004016000604051808303818588803b15801561361257600080fd5b505af1158015613626573d6000803e3d6000fd5b505050506001600160a01b0384163014905061288e5760025461288e906001600160a01b03168486611e53565b6002546001600160a01b0390811660009081526007602090815260408083209389168352928152828220805484518184028101840190955280855292939290918301828280156136cc57602002820191906000526020600020905b81546001600160a01b031681526001909101906020018083116136ae575b50505050509050606060008251111561377957600480546040517ffde1adda0000000000000000000000000000000000000000000000000000000081526001600160a01b039091169163fde1adda918991613732918c9160019189918d9142910161429d565b60006040518083038185885af1158015613750573d6000803e3d6000fd5b50505050506040513d6000823e601f3d908101601f191682016040526129bb9190810190613eac565b6001600160a01b0384161561381c57604080516001808252818301909252906020808301908036833701905050915083826000815181106137bc576137bc613df4565b6001600160a01b039283166020918202929092010152600480546040517ffde1adda00000000000000000000000000000000000000000000000000000000815292169163fde1adda918991613732918c9160019189918d9142910161429d565b60405162461bcd60e51b815260206004820152601a60248201527f5265717569656d5a61703a20217061746820424e42546f6b656e00000000000060448201526064016101d5565b816105765762461bcd60e51b600090815260206004526007602452600a808304818104828106603090810160101b848706949093060160081b929092010166524551230000300160c81b60445261057691606490fd5b828054828255906000526020600020908101928215613927579160200282015b8281111561392757825182547fffffffffffffffffffffffff0000000000000000000000000000000000000000166001600160a01b039091161782556020909201916001909101906138da565b50613933929150613937565b5090565b5b808211156139335760008155600101613938565b7f4e487b7100000000000000000000000000000000000000000000000000000000600052604160045260246000fd5b604051601f8201601f1916810167ffffffffffffffff811182821017156139a4576139a461394c565b604052919050565b600067ffffffffffffffff8211156139c6576139c661394c565b5060051b60200190565b6001600160a01b038116811461236257600080fd5b600082601f8301126139f657600080fd5b81356020613a0b613a06836139ac565b61397b565b82815260059290921b84018101918181019086841115613a2a57600080fd5b8286015b84811015613a4e578035613a41816139d0565b8352918301918301613a2e565b509695505050505050565b600060208284031215613a6b57600080fd5b813567ffffffffffffffff811115613a8257600080fd5b611e4b848285016139e5565b600080600060608486031215613aa357600080fd5b8335613aae816139d0565b9250602084013591506040840135613ac5816139d0565b809150509250925092565b600060208284031215613ae257600080fd5b5035919050565b600080600060608486031215613afe57600080fd5b8335613b09816139d0565b92506020840135613b19816139d0565b929592945050506040919091013590565b600060208284031215613b3c57600080fd5b8135611f08816139d0565b801515811461236257600080fd5b600080600080600060808688031215613b6d57600080fd5b8535613b78816139d0565b9450602086013567ffffffffffffffff80821115613b9557600080fd5b818801915088601f830112613ba957600080fd5b813581811115613bb857600080fd5b8960208260051b8501011115613bcd57600080fd5b6020830196508095505050506040860135613be7816139d0565b91506060860135613bf781613b47565b809150509295509295909350565b600080600060608486031215613c1a57600080fd5b8335613c25816139d0565b92506020840135613c35816139d0565b9150604084013567ffffffffffffffff811115613c5157600080fd5b613c5d868287016139e5565b9150509250925092565b60008060008060808587031215613c7d57600080fd5b8435613c88816139d0565b935060208501359250604085013591506060850135613ca681613b47565b939692955090935050565b60008060408385031215613cc457600080fd5b823567ffffffffffffffff811115613cdb57600080fd5b613ce7858286016139e5565b9250506020830135613cf8816139d0565b809150509250929050565b60008060008060808587031215613d1957600080fd5b8435613d24816139d0565b9350602085013592506040850135613d3b816139d0565b9396929550929360600135925050565b60008060008060008060008060006101208a8c031215613d6a57600080fd5b8935613d75816139d0565b985060208a0135975060408a0135613d8c816139d0565b965060608a0135955060808a0135945060a08a0135935060c08a013560ff81168114613db757600080fd5b8093505060e08a013591506101008a013590509295985092959850929598565b600060208284031215613de957600080fd5b8151611f08816139d0565b7f4e487b7100000000000000000000000000000000000000000000000000000000600052603260045260246000fd5b600081518084526020808501945080840160005b83811015613e5c5781516001600160a01b031687529582019590820190600101613e37565b509495945050505050565b60006001600160a01b038088168352808716602084015280861660408401525083606083015260a06080830152613ea160a0830184613e23565b979650505050505050565b60006020808385031215613ebf57600080fd5b825167ffffffffffffffff811115613ed657600080fd5b8301601f81018513613ee757600080fd5b8051613ef5613a06826139ac565b81815260059190911b82018301908381019087831115613f1457600080fd5b928401925b82841015613ea157835182529284019290840190613f19565b7f4e487b7100000000000000000000000000000000000000000000000000000000600052601160045260246000fd5b600082821015613f7357613f73613f32565b500390565b600060208284031215613f8a57600080fd5b5051919050565b600082613fc7577f4e487b7100000000000000000000000000000000000000000000000000000000600052601260045260246000fd5b500490565b600060208284031215613fde57600080fd5b8151611f0881613b47565b60007fffffffffffffffffffffffffffffffffffffffffffffffffffffffffffffffff82141561401b5761401b613f32565b5060010190565b6000806040838503121561403557600080fd5b505080516020909101519092909150565b805163ffffffff8116811461341957600080fd5b60008060006060848603121561406f57600080fd5b61407884614046565b925061408660208501614046565b915061409460408501614046565b90509250925092565b80516dffffffffffffffffffffffffffff8116811461341957600080fd5b6000806000606084860312156140d057600080fd5b6140d98461409d565b92506140866020850161409d565b600082198211156140fa576140fa613f32565b500190565b6000817fffffffffffffffffffffffffffffffffffffffffffffffffffffffffffffffff048311821515161561413757614137613f32565b500290565b60008060008060008060c0878903121561415557600080fd5b8651614160816139d0565b602088015160408901519197509550935061417d60608801614046565b925061418b60808801614046565b915061419960a08801614046565b90509295509295509295565b60006001600160a01b03808a168352808916602084015287604084015286606084015260e060808401526141dc60e0840187613e23565b941660a08301525060c0015295945050505050565b60008060006060848603121561420657600080fd5b8351925060208401519150604084015190509250925092565b60006001600160a01b03808916835287602084015286604084015260c0606084015261424e60c0840187613e23565b941660808301525060a00152949350505050565b6000825160005b818110156142835760208186018101518583015201614269565b81811115614292576000828501525b509190910192915050565b60006001600160a01b03808816835286602084015260a060408401526142c660a0840187613e23565b941660608301525060800152939250505056fea264697066735822122096123a8487b4f5692ee3275ca2e9a465ae9dbcaff48f00f69b966c0d0785f97064736f6c634300080a0033",
  "linkReferences": {},
  "deployedLinkReferences": {}
}