{
  "_format": "hh-sol-artifact-1",
  "contractName": "RequiemZap",
  "sourceName": "contracts/RequiemZap.sol",
  "abi": [
    {
      "inputs": [
        {
          "internalType": "contract IUniswapV2Router",
          "name": "_uniRouter",
          "type": "address"
        },
        {
          "internalType": "contract IRequiemRouter",
          "name": "_requiemRouter",
          "type": "address"
        }
      ],
      "stateMutability": "nonpayable",
      "type": "constructor"
    },
    {
      "anonymous": false,
      "inputs": [
        {
          "indexed": false,
          "internalType": "address",
          "name": "governance",
          "type": "address"
        }
      ],
      "name": "LogGovernance",
      "type": "event"
    },
    {
      "anonymous": false,
      "inputs": [
        {
          "indexed": true,
          "internalType": "address",
          "name": "token",
          "type": "address"
        },
        {
          "indexed": false,
          "internalType": "uint256",
          "name": "amount",
          "type": "uint256"
        },
        {
          "indexed": false,
          "internalType": "address",
          "name": "to",
          "type": "address"
        }
      ],
      "name": "Withdraw",
      "type": "event"
    },
    {
      "anonymous": false,
      "inputs": [
        {
          "indexed": true,
          "internalType": "address",
          "name": "sender",
          "type": "address"
        },
        {
          "indexed": false,
          "internalType": "address",
          "name": "from",
          "type": "address"
        },
        {
          "indexed": false,
          "internalType": "uint256",
          "name": "amtFrom",
          "type": "uint256"
        },
        {
          "indexed": false,
          "internalType": "address",
          "name": "pool",
          "type": "address"
        },
        {
          "indexed": false,
          "internalType": "uint256",
          "name": "amtLp",
          "type": "uint256"
        }
      ],
      "name": "ZapIn",
      "type": "event"
    },
    {
      "anonymous": false,
      "inputs": [
        {
          "indexed": true,
          "internalType": "address",
          "name": "sender",
          "type": "address"
        },
        {
          "indexed": false,
          "internalType": "address",
          "name": "pool",
          "type": "address"
        },
        {
          "indexed": false,
          "internalType": "uint256",
          "name": "amtLp",
          "type": "uint256"
        },
        {
          "indexed": false,
          "internalType": "address",
          "name": "to",
          "type": "address"
        },
        {
          "indexed": false,
          "internalType": "uint256",
          "name": "amtTo",
          "type": "uint256"
        }
      ],
      "name": "ZapOut",
      "type": "event"
    },
    {
      "inputs": [
        {
          "internalType": "address",
          "name": "",
          "type": "address"
        },
        {
          "internalType": "address",
          "name": "",
          "type": "address"
        },
        {
          "internalType": "uint256",
          "name": "",
          "type": "uint256"
        }
      ],
      "name": "RequiemPairs",
      "outputs": [
        {
          "internalType": "address",
          "name": "",
          "type": "address"
        }
      ],
      "stateMutability": "view",
      "type": "function"
    },
    {
      "inputs": [],
      "name": "WETH",
      "outputs": [
        {
          "internalType": "address",
          "name": "",
          "type": "address"
        }
      ],
      "stateMutability": "view",
      "type": "function"
    },
    {
      "inputs": [
        {
          "internalType": "address",
          "name": "_token",
          "type": "address"
        }
      ],
      "name": "addTokensResidual",
      "outputs": [],
      "stateMutability": "nonpayable",
      "type": "function"
    },
    {
      "inputs": [
        {
          "internalType": "address",
          "name": "_from",
          "type": "address"
        },
        {
          "internalType": "uint256",
          "name": "_fromAmount",
          "type": "uint256"
        },
        {
          "internalType": "address",
          "name": "lp",
          "type": "address"
        }
      ],
      "name": "getAmountBToZapIn",
      "outputs": [
        {
          "internalType": "uint256",
          "name": "amountBConverted",
          "type": "uint256"
        },
        {
          "internalType": "uint256",
          "name": "amountASell",
          "type": "uint256"
        }
      ],
      "stateMutability": "view",
      "type": "function"
    },
    {
      "inputs": [
        {
          "internalType": "address",
          "name": "_from",
          "type": "address"
        },
        {
          "internalType": "uint256",
          "name": "amount",
          "type": "uint256"
        },
        {
          "internalType": "address",
          "name": "_toToken",
          "type": "address"
        }
      ],
      "name": "getAmountToZapOut",
      "outputs": [
        {
          "internalType": "uint256",
          "name": "amountOtherSell",
          "type": "uint256"
        },
        {
          "internalType": "uint256",
          "name": "amountToConverted",
          "type": "uint256"
        },
        {
          "internalType": "uint256",
          "name": "amountToOrigin",
          "type": "uint256"
        }
      ],
      "stateMutability": "view",
      "type": "function"
    },
    {
      "inputs": [],
      "name": "governance",
      "outputs": [
        {
          "internalType": "address",
          "name": "",
          "type": "address"
        }
      ],
      "stateMutability": "view",
      "type": "function"
    },
    {
      "inputs": [],
      "name": "maxResidual",
      "outputs": [
        {
          "internalType": "uint256",
          "name": "",
          "type": "uint256"
        }
      ],
      "stateMutability": "view",
      "type": "function"
    },
    {
      "inputs": [],
      "name": "requiemFactory",
      "outputs": [
        {
          "internalType": "contract IRequiemFactory",
          "name": "",
          "type": "address"
        }
      ],
      "stateMutability": "view",
      "type": "function"
    },
    {
      "inputs": [],
      "name": "requiemFormula",
      "outputs": [
        {
          "internalType": "contract IRequiemFormula",
          "name": "",
          "type": "address"
        }
      ],
      "stateMutability": "view",
      "type": "function"
    },
    {
      "inputs": [],
      "name": "requiemRouter",
      "outputs": [
        {
          "internalType": "contract IRequiemRouter",
          "name": "",
          "type": "address"
        }
      ],
      "stateMutability": "view",
      "type": "function"
    },
    {
      "inputs": [
        {
          "internalType": "address",
          "name": "_governance",
          "type": "address"
        }
      ],
      "name": "setGovernance",
      "outputs": [],
      "stateMutability": "nonpayable",
      "type": "function"
    },
    {
      "inputs": [
        {
          "internalType": "uint256",
          "name": "_maxResidual",
          "type": "uint256"
        }
      ],
      "name": "setMaxResidual",
      "outputs": [],
      "stateMutability": "nonpayable",
      "type": "function"
    },
    {
      "inputs": [
        {
          "internalType": "address",
          "name": "_input",
          "type": "address"
        },
        {
          "internalType": "address",
          "name": "_output",
          "type": "address"
        },
        {
          "internalType": "address[]",
          "name": "_pair",
          "type": "address[]"
        }
      ],
      "name": "setRequiemPairs",
      "outputs": [],
      "stateMutability": "nonpayable",
      "type": "function"
    },
    {
      "inputs": [
        {
          "internalType": "address[]",
          "name": "_tokensResidual",
          "type": "address[]"
        }
      ],
      "name": "setTokensResidual",
      "outputs": [],
      "stateMutability": "nonpayable",
      "type": "function"
    },
    {
      "inputs": [
        {
          "internalType": "uint256",
          "name": "",
          "type": "uint256"
        }
      ],
      "name": "tokensResidual",
      "outputs": [
        {
          "internalType": "address",
          "name": "",
          "type": "address"
        }
      ],
      "stateMutability": "view",
      "type": "function"
    },
    {
      "inputs": [],
      "name": "uniRouter",
      "outputs": [
        {
          "internalType": "contract IUniswapV2Router",
          "name": "",
          "type": "address"
        }
      ],
      "stateMutability": "view",
      "type": "function"
    },
    {
      "inputs": [
        {
          "internalType": "address",
          "name": "to",
          "type": "address"
        }
      ],
      "name": "withdraw",
      "outputs": [],
      "stateMutability": "nonpayable",
      "type": "function"
    },
    {
      "inputs": [
        {
          "internalType": "address[]",
          "name": "tokens",
          "type": "address[]"
        },
        {
          "internalType": "address",
          "name": "to",
          "type": "address"
        }
      ],
      "name": "withdrawToken",
      "outputs": [],
      "stateMutability": "nonpayable",
      "type": "function"
    },
    {
      "inputs": [
        {
          "internalType": "address",
          "name": "token",
          "type": "address"
        },
        {
          "internalType": "address",
          "name": "to",
          "type": "address"
        },
        {
          "internalType": "uint256",
          "name": "amount",
          "type": "uint256"
        }
      ],
      "name": "withdrawTokenAmount",
      "outputs": [],
      "stateMutability": "nonpayable",
      "type": "function"
    },
    {
      "inputs": [
        {
          "internalType": "address",
          "name": "_to",
          "type": "address"
        },
        {
          "internalType": "uint256",
          "name": "_minTokenB",
          "type": "uint256"
        },
        {
          "internalType": "uint256",
          "name": "_minLp",
          "type": "uint256"
        },
        {
          "internalType": "bool",
          "name": "transferResidual",
          "type": "bool"
        }
      ],
      "name": "zapIn",
      "outputs": [
        {
          "internalType": "uint256",
          "name": "",
          "type": "uint256"
        }
      ],
      "stateMutability": "payable",
      "type": "function"
    },
    {
      "inputs": [
        {
          "internalType": "address",
          "name": "_from",
          "type": "address"
        },
        {
          "internalType": "uint256[]",
          "name": "amounts",
          "type": "uint256[]"
        },
        {
          "internalType": "address",
          "name": "_to",
          "type": "address"
        },
        {
          "internalType": "bool",
          "name": "transferResidual",
          "type": "bool"
        }
      ],
      "name": "zapInToken",
      "outputs": [
        {
          "internalType": "uint256",
          "name": "lpAmt",
          "type": "uint256"
        }
      ],
      "stateMutability": "nonpayable",
      "type": "function"
    },
    {
      "inputs": [
        {
          "internalType": "address",
          "name": "_from",
          "type": "address"
        },
        {
          "internalType": "uint256",
          "name": "amount",
          "type": "uint256"
        },
        {
          "internalType": "address",
          "name": "_toToken",
          "type": "address"
        },
        {
          "internalType": "uint256",
          "name": "_minTokensRec",
          "type": "uint256"
        }
      ],
      "name": "zapOut",
      "outputs": [
        {
          "internalType": "uint256",
          "name": "",
          "type": "uint256"
        }
      ],
      "stateMutability": "nonpayable",
      "type": "function"
    },
    {
      "inputs": [
        {
          "internalType": "address",
          "name": "_from",
          "type": "address"
        },
        {
          "internalType": "uint256",
          "name": "amount",
          "type": "uint256"
        },
        {
          "internalType": "address",
          "name": "_toToken",
          "type": "address"
        },
        {
          "internalType": "uint256",
          "name": "_minTokensRec",
          "type": "uint256"
        },
        {
          "internalType": "uint256",
          "name": "_approvalAmount",
          "type": "uint256"
        },
        {
          "internalType": "uint256",
          "name": "_deadline",
          "type": "uint256"
        },
        {
          "internalType": "uint8",
          "name": "v",
          "type": "uint8"
        },
        {
          "internalType": "bytes32",
          "name": "r",
          "type": "bytes32"
        },
        {
          "internalType": "bytes32",
          "name": "s",
          "type": "bytes32"
        }
      ],
      "name": "zapOutWithPermit",
      "outputs": [
        {
          "internalType": "uint256",
          "name": "",
          "type": "uint256"
        }
      ],
      "stateMutability": "nonpayable",
      "type": "function"
    },
    {
      "stateMutability": "payable",
      "type": "receive"
    }
  ],
  "bytecode": "0x608060405260646008553480156200001657600080fd5b5060405162003ea938038062003ea9833981016040819052620000399162000232565b600160008190558054336001600160a01b0319918216179091556003805482166001600160a01b03858116919091179091556004805490921690831690811782556040805163c45a015560e01b81529051919263c45a01559282820192602092908290030181865afa158015620000b4573d6000803e3d6000fd5b505050506040513d601f19601f82011682018060405250810190620000da919062000271565b600560006101000a8154816001600160a01b0302191690836001600160a01b03160217905550806001600160a01b0316634b75f54f6040518163ffffffff1660e01b8152600401602060405180830381865afa1580156200013f573d6000803e3d6000fd5b505050506040513d601f19601f8201168201806040525081019062000165919062000271565b600660006101000a8154816001600160a01b0302191690836001600160a01b03160217905550806001600160a01b031663ad5c46486040518163ffffffff1660e01b8152600401602060405180830381865afa158015620001ca573d6000803e3d6000fd5b505050506040513d601f19601f82011682018060405250810190620001f0919062000271565b600280546001600160a01b0319166001600160a01b039290921691909117905550620002989050565b6001600160a01b03811681146200022f57600080fd5b50565b600080604083850312156200024657600080fd5b8251620002538162000219565b6020840151909250620002668162000219565b809150509250929050565b6000602082840312156200028457600080fd5b8151620002918162000219565b9392505050565b613c0180620002a86000396000f3fe6080604052600436106101145760003560e01c806304d21f061461017557806309342d951461019557806314896f95146101cf57806328e802ac146101fc57806334d2365b1461021c5780633c01ae6e1461023c578063405649581461025c57806351cff8d914610297578063521f2e09146102b75780635aa6e675146102e55780635c863ebe14610305578063761c262e146103255780637b191ff214610338578063a0e47bf614610358578063a863ff2f14610378578063ab033ea914610398578063ad5c4648146103b8578063bdbcf821146103d8578063df373c00146103f8578063e0243baa14610418578063e5bc29201461042e578063f89e4c571461044e578063fb4a06c71461046e57600080fd5b36610170573332141561016e5760405162461bcd60e51b815260206004820152601d60248201527f5a61703a20446f206e6f742073656e6420455448206469726563746c7900000060448201526064015b60405180910390fd5b005b600080fd5b34801561018157600080fd5b5061016e61019036600461321c565b61048e565b3480156101a157600080fd5b506101b56101b0366004613250565b6104cf565b604080519283526020830191909152015b60405180910390f35b3480156101db57600080fd5b506101ef6101ea366004613292565b6106f2565b6040516101c691906132ab565b34801561020857600080fd5b5061016e6102173660046132bf565b61071c565b34801561022857600080fd5b5061016e610237366004613292565b6107b6565b34801561024857600080fd5b5061016e610257366004613300565b6107e5565b34801561026857600080fd5b5061027c610277366004613250565b610861565b604080519384526020840192909252908201526060016101c6565b3480156102a357600080fd5b5061016e6102b2366004613300565b610aa8565b3480156102c357600080fd5b506102d76102d236600461332b565b610b3b565b6040519081526020016101c6565b3480156102f157600080fd5b506001546101ef906001600160a01b031681565b34801561031157600080fd5b5061016e6103203660046133da565b610f93565b6102d761033336600461343b565b610ff8565b34801561034457600080fd5b5061016e610353366004613485565b611084565b34801561036457600080fd5b506003546101ef906001600160a01b031681565b34801561038457600080fd5b506102d76103933660046134d6565b61111a565b3480156103a457600080fd5b5061016e6103b3366004613300565b6115ee565b3480156103c457600080fd5b506002546101ef906001600160a01b031681565b3480156103e457600080fd5b506005546101ef906001600160a01b031681565b34801561040457600080fd5b506004546101ef906001600160a01b031681565b34801561042457600080fd5b506102d760085481565b34801561043a57600080fd5b506102d761044936600461351e565b61166f565b34801561045a57600080fd5b506006546101ef906001600160a01b031681565b34801561047a57600080fd5b506101ef6104893660046132bf565b611710565b6001546001600160a01b031633146104b85760405162461bcd60e51b8152600401610165906135aa565b80516104cb9060099060208401906130b0565b5050565b60008060008060008590506000816001600160a01b0316630dfe16816040518163ffffffff1660e01b8152600401602060405180830381865afa15801561051a573d6000803e3d6000fd5b505050506040513d601f19601f8201168201806040525081019061053e91906135d4565b90506000826001600160a01b031663d21220a76040518163ffffffff1660e01b8152600401602060405180830381865afa158015610580573d6000803e3d6000fd5b505050506040513d601f19601f820116820180604052508101906105a491906135d4565b9050816001600160a01b03168a6001600160a01b0316146105c557816105c7565b805b94506105d5888b8b85611755565b935060009250600191506105e69050565b60405190808252806020026020018201604052801561060f578160200160208202803683370190505b5090508581600081518110610626576106266135f1565b6001600160a01b03928316602091820292909201015260065460055460405163119220a560e01b81526000939283169263119220a592610673929116908d9089908990899060040161364b565b600060405180830381865afa158015610690573d6000803e3d6000fd5b505050506040513d6000823e601f3d908101601f191682016040526106b89190810190613691565b905080600182516106c9919061372c565b815181106106d9576106d96135f1565b6020026020010151839550955050505050935093915050565b6009818154811061070257600080fd5b6000918252602090912001546001600160a01b0316905081565b6001546001600160a01b031633146107465760405162461bcd60e51b8152600401610165906135aa565b6001600160a01b03821661076c5760405162461bcd60e51b815260040161016590613743565b6107806001600160a01b0384168383611938565b826001600160a01b0316600080516020613bac83398151915282846040516107a992919061377a565b60405180910390a2505050565b6001546001600160a01b031633146107e05760405162461bcd60e51b8152600401610165906135aa565b600855565b6001546001600160a01b0316331461080f5760405162461bcd60e51b8152600401610165906135aa565b600980546001810182556000919091527f6e1540171b6c0c960b71a7020d9f60077f6af931a8bbf590da0223dacf75c7af0180546001600160a01b0319166001600160a01b0392909216919091179055565b60008060008060008790506000816001600160a01b0316630dfe16816040518163ffffffff1660e01b8152600401602060405180830381865afa1580156108ac573d6000803e3d6000fd5b505050506040513d601f19601f820116820180604052508101906108d091906135d4565b90506000826001600160a01b031663d21220a76040518163ffffffff1660e01b8152600401602060405180830381865afa158015610912573d6000803e3d6000fd5b505050506040513d601f19601f8201168201806040525081019061093691906135d4565b9050816001600160a01b0316886001600160a01b0316146109575781610959565b805b93505050506000806000896001600160a01b03166318160ddd6040518163ffffffff1660e01b8152600401602060405180830381865afa1580156109a1573d6000803e3d6000fd5b505050506040513d601f19601f820116820180604052508101906109c59190613791565b905080610a3f856001600160a01b03166370a082318d6040518263ffffffff1660e01b81526004016109f791906132ab565b602060405180830381865afa158015610a14573d6000803e3d6000fd5b505050506040513d601f19601f82011682018060405250810190610a389190613791565b8b9061198e565b610a4991906137aa565b925080610a7b896001600160a01b03166370a082318d6040518263ffffffff1660e01b81526004016109f791906132ab565b610a8591906137aa565b9150506000610a968a8585856119a1565b929a9299509097509095505050505050565b6001546001600160a01b03163314610ad25760405162461bcd60e51b8152600401610165906135aa565b60006009805480602002602001604051908101604052809291908181526020018280548015610b2a57602002820191906000526020600020905b81546001600160a01b03168152600190910190602001808311610b0c575b505050505090506104cb8183611084565b600060026000541415610b605760405162461bcd60e51b8152600401610165906137cc565b6002600081905550610ba1333087876000818110610b8057610b806135f1565b90506020020135896001600160a01b0316611aec909392919063ffffffff16565b610baa86611b24565b826001600160a01b0316630dfe16816040518163ffffffff1660e01b8152600401602060405180830381865afa158015610be8573d6000803e3d6000fd5b505050506040513d601f19601f82011682018060405250810190610c0c91906135d4565b6001600160a01b0316866001600160a01b03161480610c9d5750826001600160a01b031663d21220a76040518163ffffffff1660e01b8152600401602060405180830381865afa158015610c64573d6000803e3d6000fd5b505050506040513d601f19601f82011682018060405250810190610c8891906135d4565b6001600160a01b0316866001600160a01b0316145b15610ecd576000806000856001600160a01b0316630dfe16816040518163ffffffff1660e01b8152600401602060405180830381865afa158015610ce5573d6000803e3d6000fd5b505050506040513d601f19601f82011682018060405250810190610d0991906135d4565b90506000866001600160a01b031663d21220a76040518163ffffffff1660e01b8152600401602060405180830381865afa158015610d4b573d6000803e3d6000fd5b505050506040513d601f19601f82011682018060405250810190610d6f91906135d4565b9050816001600160a01b03168a6001600160a01b031614610d905781610d92565b805b9350610db9878b8b8b6000818110610dac57610dac6135f1565b9050602002013585611755565b925050506000610dcc898385308a611d08565b905087876001818110610de157610de16135f1565b90506020020135811015610e075760405162461bcd60e51b815260040161016590613803565b610ec3868a85610e39868d8d6000818110610e2457610e246135f1565b90506020020135611f6490919063ffffffff16565b8533600560009054906101000a90046001600160a01b03166001600160a01b031663e5e31b138e6040518263ffffffff1660e01b8152600401610e7c91906132ab565b602060405180830381865afa158015610e99573d6000803e3d6000fd5b505050506040513d601f19601f82011682018060405250810190610ebd9190613838565b8c611f72565b9350505050610f09565b6000610ef58787876000818110610ee657610ee66135f1565b90506020020135306000612195565b9050610f058482336000876123e2565b9150505b84846002818110610f1c57610f1c6135f1565b90506020020135811015610f425760405162461bcd60e51b815260040161016590613855565b33600080516020613b8c833981519152878787600081610f6457610f646135f1565b905060200201358685604051610f7d9493929190613884565b60405180910390a2600160005595945050505050565b6001546001600160a01b03163314610fbd5760405162461bcd60e51b8152600401610165906135aa565b6001600160a01b03808416600090815260076020908152604080832093861683529281529190208251610ff2928401906130b0565b50505050565b60006002600054141561101d5760405162461bcd60e51b8152600401610165906137cc565b6002600090815561103186343388876123e2565b9050838110156110535760405162461bcd60e51b815260040161016590613855565b6002546040513391600080516020613b8c83398151915291610f7d916001600160a01b03169034908b908790613884565b6001546001600160a01b031633146110ae5760405162461bcd60e51b8152600401610165906135aa565b6001600160a01b0381166110d45760405162461bcd60e51b815260040161016590613743565b60005b8251811015611115576111038382815181106110f5576110f56135f1565b602002602001015183612a22565b8061110d816138ae565b9150506110d7565b505050565b60006002600054141561113f5760405162461bcd60e51b8152600401610165906137cc565b60026000556111596001600160a01b038616333087611aec565b61116285611b24565b6000806000806000899050806001600160a01b0316630dfe16816040518163ffffffff1660e01b8152600401602060405180830381865afa1580156111ab573d6000803e3d6000fd5b505050506040513d601f19601f820116820180604052508101906111cf91906135d4565b9450806001600160a01b031663d21220a76040518163ffffffff1660e01b8152600401602060405180830381865afa15801561120f573d6000803e3d6000fd5b505050506040513d601f19601f8201168201806040525081019061123391906135d4565b60055460405163e5e31b1360e01b81529195506000916001600160a01b039091169063e5e31b1390611269908e906004016132ab565b602060405180830381865afa158015611286573d6000803e3d6000fd5b505050506040513d601f19601f820116820180604052508101906112aa9190613838565b9050801561135f576004805460405163387d29e160e21b81526001600160a01b038e81169382019390935288831660248201528783166044820152606481018d905260016084820181905260a48201523060c48201524260e482015291169063e1f4a784906101040160408051808303816000875af1158015611331573d6000803e3d6000fd5b505050506040513d601f19601f8201168201806040525081019061135591906138c9565b90945092506113fd565b600354604051635d5155ef60e11b81526001600160a01b0388811660048301528781166024830152604482018d905260016064830181905260848301523060a48301524260c48301529091169063baa2abde9060e40160408051808303816000875af11580156113d3573d6000803e3d6000fd5b505050506040513d601f19601f820116820180604052508101906113f791906138c9565b90945092505b5050600061140a85611b24565b61141384611b24565b6001600160a01b03881673eeeeeeeeeeeeeeeeeeeeeeeeeeeeeeeeeeeeeeee141561149f576002546000906001600160a01b038781169116148061146457506002546001600160a01b038681169116145b61146f576000611471565b8a5b905061147f86853084612195565b915061149761149086853085612195565b8390612b0c565b915050611504565b6000856001600160a01b0316896001600160a01b031614806114d25750846001600160a01b0316896001600160a01b0316145b6114dd5760006114df565b8a5b90506114ee86858b3085611d08565b915061150061149086858c3086611d08565b9150505b8681101561154d5760405162461bcd60e51b815260206004820152601660248201527516985c0e88121a59da0814db1a5c1c1859d94813dd5d60521b6044820152606401610165565b6001600160a01b03881673eeeeeeeeeeeeeeeeeeeeeeeeeeeeeeeeeeeeeeee14156115815761157c3382612b29565b611595565b6115956001600160a01b0389163383611938565b336001600160a01b03167f04a863d47eb1f82dce727c38e0b2294b96dea01f7d8c060216edb8ef473ea8398b8b8b856040516115d49493929190613884565b60405180910390a260016000559998505050505050505050565b6001546001600160a01b031633146116185760405162461bcd60e51b8152600401610165906135aa565b600180546001600160a01b0319166001600160a01b0383169081179091556040517f4d5c50bb72d5f3b4cd853277f0fedffc1df6a70dbed9a9f365013b5a8543e88491611664916132ab565b60405180910390a150565b60405163d505accf60e01b8152336004820152306024820152604481018690526064810185905260ff8416608482015260a4810183905260c481018290526000906001600160a01b038b169063d505accf9060e401600060405180830381600087803b1580156116de57600080fd5b505af11580156116f2573d6000803e3d6000fd5b505050506117028a8a8a8a61111a565b9a9950505050505050505050565b6007602052826000526040600020602052816000526040600020818154811061173857600080fd5b6000918252602090912001546001600160a01b0316925083915050565b60055460405163ca22297960e01b8152600091829182916001600160a01b03169063ca2229799061178a908a906004016132ab565b606060405180830381865afa1580156117a7573d6000803e3d6000fd5b505050506040513d601f19601f820116820180604052508101906117cb9190613901565b50915091508163ffffffff16603214156118e457600080886001600160a01b0316630902f1ac6040518163ffffffff1660e01b8152600401606060405180830381865afa158015611820573d6000803e3d6000fd5b505050506040513d601f19601f82011682018060405250810190611844919061395b565b506001600160701b031691506001600160701b031691506000866001600160a01b0316896001600160a01b03161461187c578161187e565b825b90506107ca6118ce611892836107cd61198e565b6118c86118c36118a586623cda2961198e565b6118b28e623cda2061198e565b6118bc9190613987565b869061198e565b612bf2565b90611f64565b6118d891906137aa565b95505050505050611930565b6000846001600160a01b0316876001600160a01b03161461190b578263ffffffff16611913565b8163ffffffff165b905061192a6064611924888461198e565b90612c62565b93505050505b949350505050565b6111158363a9059cbb60e01b848460405160240161195792919061399f565b60408051601f198184030181529190526020810180516001600160e01b03166001600160e01b031990931692909217909152612c6e565b600061199a82846139b8565b9392505050565b600654600554604051630b33d96b60e41b81526001600160a01b039182166004820152868216602482015285821660448201526000928392839283928392839291169063b33d96b09060640160c060405180830381865afa158015611a0a573d6000803e3d6000fd5b505050506040513d601f19601f82011682018060405250810190611a2e91906139d7565b600654949a50929850909650945092506001600160a01b0316905063671a11b589611a598882611f64565b611a63888c611f64565b6040516001600160e01b031960e086901b16815260048101939093526024830191909152604482015263ffffffff80871660648301528086166084830152841660a482015260c401602060405180830381865afa158015611ac8573d6000803e3d6000fd5b505050506040513d601f19601f820116820180604052508101906117029190613791565b6040516001600160a01b0380851660248301528316604482015260648101829052610ff29085906323b872dd60e01b90608401611957565b600354604051636eb1769f60e11b81526001600160a01b038084169263dd62ed3e92611b569230921690600401613a40565b602060405180830381865afa158015611b73573d6000803e3d6000fd5b505050506040513d601f19601f82011682018060405250810190611b979190613791565b611c165760035460405163095ea7b360e01b81526001600160a01b038381169263095ea7b392611bd192909116906000199060040161399f565b6020604051808303816000875af1158015611bf0573d6000803e3d6000fd5b505050506040513d601f19601f82011682018060405250810190611c149190613838565b505b60048054604051636eb1769f60e11b81526001600160a01b038481169363dd62ed3e93611c499330939091169101613a40565b602060405180830381865afa158015611c66573d6000803e3d6000fd5b505050506040513d601f19601f82011682018060405250810190611c8a9190613791565b611d05576004805460405163095ea7b360e01b81526001600160a01b038085169363095ea7b393611cc293921691600019910161399f565b6020604051808303816000875af1158015611ce1573d6000803e3d6000fd5b505050506040513d601f19601f820116820180604052508101906104cb9190613838565b50565b6000836001600160a01b0316866001600160a01b03161415611d4f576001600160a01b0383163014611d4857611d486001600160a01b0387168487611938565b5083611f5b565b6001600160a01b038087166000908152600760209081526040808320938816835292815282822080548451818402810184019095528085529293929091830182828015611dc557602002820191906000526020600020905b81546001600160a01b03168152600190910190602001808311611da7575b505050505090506060600082511115611e62576004805460405163bff51d7160e01b81526001600160a01b039091169163bff51d7191611e14918c918b918d916001918a918e91429101613a5a565b6000604051808303816000875af1158015611e33573d6000803e3d6000fd5b505050506040513d6000823e601f3d908101601f19168201604052611e5b9190810190613691565b9050611f2f565b6001600160a01b03841615611eee5760408051600180825281830190925290602080830190803683370190505091508382600081518110611ea557611ea56135f1565b6001600160a01b0392831660209182029290920101526004805460405163bff51d7160e01b815292169163bff51d7191611e14918c918b918d916001918a918e91429101613a5a565b60405162461bcd60e51b815260206004820152601660248201527505265717569656d5a61703a20217061746820737761760541b6044820152606401610165565b8060018251611f3e919061372c565b81518110611f4e57611f4e6135f1565b6020026020010151925050505b95945050505050565b600061199a83836001612d0d565b6000611f7d88611b24565b611f8687611b24565b6000808415612049576004805460405163fbf4513560e01b81526001600160a01b038e8116938201939093528c831660248201528b83166044820152606481018b9052608481018a9052600160a4820181905260c482015288831660e48201524261010482015291169063fbf4513590610124016060604051808303816000875af1158015612019573d6000803e3d6000fd5b505050506040513d601f19601f8201168201806040525081019061203d9190613aa5565b945090925090506120f3565b60035460405162e8e33760e81b81526001600160a01b038c811660048301528b81166024830152604482018b9052606482018a905260016084830181905260a483015288811660c48301524260e48301529091169063e8e3370090610104016060604051808303816000875af11580156120c7573d6000803e3d6000fd5b505050506040513d601f19601f820116820180604052508101906120eb9190613aa5565b945090925090505b60006120ff8984611f64565b9050848061212657506121236127106119246008548c61198e90919063ffffffff16565b81115b1561213c57801561213c5761213c8b3383612d28565b60006121488984611f64565b9050858061216f575061216c6127106119246008548c61198e90919063ffffffff16565b81115b15612185578015612185576121858b3383612d28565b5050505098975050505050505050565b6002546000906001600160a01b03868116911614156121cc576002546121c5906001600160a01b03168486612d28565b5082611930565b6001600160a01b03808616600090815260076020908152604080832060025490941683529281528282208054845181840281018401909552808552929392909183018282801561224557602002820191906000526020600020905b81546001600160a01b03168152600190910190602001808311612227575b5050505050905060606000825111156122e05760048054604051639c91fcb560e01b81526001600160a01b0390911691639c91fcb591612292918b918b9160019189918d91429101613ad3565b6000604051808303816000875af11580156122b1573d6000803e3d6000fd5b505050506040513d6000823e601f3d908101601f191682016040526122d99190810190613691565b90506123af565b6001600160a01b0384161561236a5760408051600180825281830190925290602080830190803683370190505091508382600081518110612323576123236135f1565b6001600160a01b03928316602091820292909201015260048054604051639c91fcb560e01b8152921691639c91fcb591612292918b918b9160019189918d91429101613ad3565b60405162461bcd60e51b815260206004820152601a6024820152792932b8bab4b2b6ad30b81d1010b830ba34102a37b5b2b721272160311b6044820152606401610165565b80600182516123be919061372c565b815181106123ce576123ce6135f1565b602002602001015192505050949350505050565b600080869050600260009054906101000a90046001600160a01b03166001600160a01b0316876001600160a01b0316630dfe16816040518163ffffffff1660e01b8152600401602060405180830381865afa158015612445573d6000803e3d6000fd5b505050506040513d601f19601f8201168201806040525081019061246991906135d4565b6001600160a01b031614806124f457506002546040805163d21220a760e01b815290516001600160a01b03928316928a169163d21220a79160048083019260209291908290030181865afa1580156124c5573d6000803e3d6000fd5b505050506040513d601f19601f820116820180604052508101906124e991906135d4565b6001600160a01b0316145b15612833576000600260009054906101000a90046001600160a01b03166001600160a01b0316886001600160a01b0316630dfe16816040518163ffffffff1660e01b8152600401602060405180830381865afa158015612558573d6000803e3d6000fd5b505050506040513d601f19601f8201168201806040525081019061257c91906135d4565b6001600160a01b0316146125f157876001600160a01b0316630dfe16816040518163ffffffff1660e01b8152600401602060405180830381865afa1580156125c8573d6000803e3d6000fd5b505050506040513d601f19601f820116820180604052508101906125ec91906135d4565b612653565b876001600160a01b031663d21220a76040518163ffffffff1660e01b8152600401602060405180830381865afa15801561262f573d6000803e3d6000fd5b505050506040513d601f19601f8201168201806040525081019061265391906135d4565b905060006126d983600260009054906101000a90046001600160a01b03168a8c6001600160a01b0316630dfe16816040518163ffffffff1660e01b8152600401602060405180830381865afa1580156126b0573d6000803e3d6000fd5b505050506040513d601f19601f820116820180604052508101906126d491906135d4565b611755565b905060006126e983833087612dd4565b90508681101561270b5760405162461bcd60e51b815260040161016590613803565b60006127178a84611f64565b9050600260009054906101000a90046001600160a01b03166001600160a01b031663d0e30db0826040518263ffffffff1660e01b81526004016000604051808303818588803b15801561276957600080fd5b505af115801561277d573d6000803e3d6000fd5b505050505061282885600260009054906101000a90046001600160a01b03168684868e600560009054906101000a90046001600160a01b03166001600160a01b031663e5e31b138d6040518263ffffffff1660e01b81526004016127e191906132ab565b602060405180830381865afa1580156127fe573d6000803e3d6000fd5b505050506040513d601f19601f820116820180604052508101906128229190613838565b8e611f72565b955050505050612a18565b6000876001600160a01b0316630dfe16816040518163ffffffff1660e01b8152600401602060405180830381865afa158015612873573d6000803e3d6000fd5b505050506040513d601f19601f8201168201806040525081019061289791906135d4565b90506000886001600160a01b031663d21220a76040518163ffffffff1660e01b8152600401602060405180830381865afa1580156128d9573d6000803e3d6000fd5b505050506040513d601f19601f820116820180604052508101906128fd91906135d4565b60055460405163ca22297960e01b8152919250600091829182916001600160a01b039091169063ca222979906129379089906004016132ab565b606060405180830381865afa158015612954573d6000803e3d6000fd5b505050506040513d601f19601f820116820180604052508101906129789190613901565b50509050600061299c60646119248463ffffffff168f61198e90919063ffffffff16565b90506129ab8682306000612dd4565b93506129c3856129bb8e84611f64565b306000612dd4565b92505050612a1185858585858e600560009054906101000a90046001600160a01b03166001600160a01b031663e5e31b138d6040518263ffffffff1660e01b81526004016127e191906132ab565b9550505050505b5095945050505050565b6001600160a01b03821673eeeeeeeeeeeeeeeeeeeeeeeeeeeeeeeeeeeeeeee1415612a8657612a518147612b29565b816001600160a01b0316600080516020613bac8339815191524783604051612a7a92919061377a565b60405180910390a25050565b6040516370a0823160e01b81526000906001600160a01b038416906370a0823190612ab59030906004016132ab565b602060405180830381865afa158015612ad2573d6000803e3d6000fd5b505050506040513d601f19601f82011682018060405250810190612af69190613791565b90506107806001600160a01b0384168383611938565b600080612b198385613987565b905061199a84821015600061305a565b604080516000808252602082019092526001600160a01b038416908390604051612b539190613b15565b60006040518083038185875af1925050503d8060008114612b90576040519150601f19603f3d011682016040523d82523d6000602084013e612b95565b606091505b50509050806111155760405162461bcd60e51b815260206004820152602360248201527f5472616e7366657248656c7065723a204554485f5452414e534645525f46414960448201526213115160ea1b6064820152608401610165565b60006003821115612c535750806000612c0c6002836137aa565b612c17906001613987565b90505b81811015612c4d57905080600281612c3281866137aa565b612c3c9190613987565b612c4691906137aa565b9050612c1a565b50919050565b8115612c5d575060015b919050565b600061199a82846137aa565b600080836001600160a01b031683604051612c899190613b15565b6000604051808303816000865af19150503d8060008114612cc6576040519150601f19603f3d011682016040523d82523d6000602084013e612ccb565b606091505b50915091506000821415612ce3573d6000803e3d6000fd5b610ff2815160001480612d05575081806020019051810190612d059190613838565b6101a261305a565b6000612d1c848411158361305a565b6000611f5b848661372c565b80612d3257505050565b6002546001600160a01b0384811691161415612dc057600254604051632e1a7d4d60e01b8152600481018390526001600160a01b0390911690632e1a7d4d90602401600060405180830381600087803b158015612d8e57600080fd5b505af1158015612da2573d6000803e3d6000fd5b505050506001600160a01b0382163014611115576111158282612b29565b6111156001600160a01b0384168383611938565b6002546000906001600160a01b0386811691161415612e7e57600260009054906101000a90046001600160a01b03166001600160a01b031663d0e30db0856040518263ffffffff1660e01b81526004016000604051808303818588803b158015612e3d57600080fd5b505af1158015612e51573d6000803e3d6000fd5b505050506001600160a01b038416301490506121c5576002546121c5906001600160a01b03168486611938565b6002546001600160a01b039081166000908152600760209081526040808320938916835292815282822080548451818402810184019095528085529293929091830182828015612ef757602002820191906000526020600020905b81546001600160a01b03168152600190910190602001808311612ed9575b505050505090506060600082511115612f8b5760048054604051637ef0d6ed60e11b81526001600160a01b039091169163fde1adda918991612f44918c9160019189918d91429101613b50565b60006040518083038185885af1158015612f62573d6000803e3d6000fd5b50505050506040513d6000823e601f3d908101601f191682016040526122d99190810190613691565b6001600160a01b038416156130155760408051600180825281830190925290602080830190803683370190505091508382600081518110612fce57612fce6135f1565b6001600160a01b03928316602091820292909201015260048054604051637ef0d6ed60e11b815292169163fde1adda918991612f44918c9160019189918d91429101613b50565b60405162461bcd60e51b815260206004820152601a6024820152792932b8bab4b2b6ad30b81d1010b830ba34102127212a37b5b2b760311b6044820152606401610165565b816104cb5762461bcd60e51b600090815260206004526007602452600a808304818104828106603090810160101b848706949093060160081b929092010166524551230000300160c81b6044526104cb91606490fd5b828054828255906000526020600020908101928215613105579160200282015b8281111561310557825182546001600160a01b0319166001600160a01b039091161782556020909201916001909101906130d0565b50613111929150613115565b5090565b5b808211156131115760008155600101613116565b634e487b7160e01b600052604160045260246000fd5b604051601f8201601f191681016001600160401b03811182821017156131685761316861312a565b604052919050565b60006001600160401b038211156131895761318961312a565b5060051b60200190565b6001600160a01b0381168114611d0557600080fd5b600082601f8301126131b957600080fd5b813560206131ce6131c983613170565b613140565b82815260059290921b840181019181810190868411156131ed57600080fd5b8286015b8481101561321157803561320481613193565b83529183019183016131f1565b509695505050505050565b60006020828403121561322e57600080fd5b81356001600160401b0381111561324457600080fd5b611930848285016131a8565b60008060006060848603121561326557600080fd5b833561327081613193565b925060208401359150604084013561328781613193565b809150509250925092565b6000602082840312156132a457600080fd5b5035919050565b6001600160a01b0391909116815260200190565b6000806000606084860312156132d457600080fd5b83356132df81613193565b925060208401356132ef81613193565b929592945050506040919091013590565b60006020828403121561331257600080fd5b813561199a81613193565b8015158114611d0557600080fd5b60008060008060006080868803121561334357600080fd5b853561334e81613193565b945060208601356001600160401b038082111561336a57600080fd5b818801915088601f83011261337e57600080fd5b81358181111561338d57600080fd5b8960208260051b85010111156133a257600080fd5b60208301965080955050505060408601356133bc81613193565b915060608601356133cc8161331d565b809150509295509295909350565b6000806000606084860312156133ef57600080fd5b83356133fa81613193565b9250602084013561340a81613193565b915060408401356001600160401b0381111561342557600080fd5b613431868287016131a8565b9150509250925092565b6000806000806080858703121561345157600080fd5b843561345c81613193565b93506020850135925060408501359150606085013561347a8161331d565b939692955090935050565b6000806040838503121561349857600080fd5b82356001600160401b038111156134ae57600080fd5b6134ba858286016131a8565b92505060208301356134cb81613193565b809150509250929050565b600080600080608085870312156134ec57600080fd5b84356134f781613193565b935060208501359250604085013561350e81613193565b9396929550929360600135925050565b60008060008060008060008060006101208a8c03121561353d57600080fd5b893561354881613193565b985060208a0135975060408a013561355f81613193565b965060608a0135955060808a0135945060a08a0135935060c08a013560ff8116811461358a57600080fd5b8093505060e08a013591506101008a013590509295985092959850929598565b60208082526010908201526f5a61703a2021676f7665726e616e636560801b604082015260600190565b6000602082840312156135e657600080fd5b815161199a81613193565b634e487b7160e01b600052603260045260246000fd5b600081518084526020808501945080840160005b838110156136405781516001600160a01b03168752958201959082019060010161361b565b509495945050505050565b6001600160a01b0386811682528581166020830152841660408201526060810183905260a06080820181905260009061368690830184613607565b979650505050505050565b600060208083850312156136a457600080fd5b82516001600160401b038111156136ba57600080fd5b8301601f810185136136cb57600080fd5b80516136d96131c982613170565b81815260059190911b820183019083810190878311156136f857600080fd5b928401925b82841015613686578351825292840192908401906136fd565b634e487b7160e01b600052601160045260246000fd5b60008282101561373e5761373e613716565b500390565b6020808252601d908201527f5a61703a20496e76616c69642052656365697665722041646472657373000000604082015260600190565b9182526001600160a01b0316602082015260400190565b6000602082840312156137a357600080fd5b5051919050565b6000826137c757634e487b7160e01b600052601260045260246000fd5b500490565b6020808252601f908201527f5265656e7472616e637947756172643a207265656e7472616e742063616c6c00604082015260600190565b6020808252818101527f5a61703a20496e73756666696369656e74205265636569766520416d6f756e74604082015260600190565b60006020828403121561384a57600080fd5b815161199a8161331d565b6020808252601590820152742d30b81d102434b3b41029b634b83830b3b29024b760591b604082015260600190565b6001600160a01b039485168152602081019390935292166040820152606081019190915260800190565b60006000198214156138c2576138c2613716565b5060010190565b600080604083850312156138dc57600080fd5b505080516020909101519092909150565b805163ffffffff81168114612c5d57600080fd5b60008060006060848603121561391657600080fd5b61391f846138ed565b925061392d602085016138ed565b915061393b604085016138ed565b90509250925092565b80516001600160701b0381168114612c5d57600080fd5b60008060006060848603121561397057600080fd5b61397984613944565b925061392d60208501613944565b6000821982111561399a5761399a613716565b500190565b6001600160a01b03929092168252602082015260400190565b60008160001904831182151516156139d2576139d2613716565b500290565b60008060008060008060c087890312156139f057600080fd5b86516139fb81613193565b6020880151604089015191975095509350613a18606088016138ed565b9250613a26608088016138ed565b9150613a3460a088016138ed565b90509295509295509295565b6001600160a01b0392831681529116602082015260400190565b600060018060a01b03808a168352808916602084015287604084015286606084015260e06080840152613a9060e0840187613607565b941660a08301525060c0015295945050505050565b600080600060608486031215613aba57600080fd5b8351925060208401519150604084015190509250925092565b600060018060a01b03808916835287602084015286604084015260c06060840152613b0160c0840187613607565b941660808301525060a00152949350505050565b6000825160005b81811015613b365760208186018101518583015201613b1c565b81811115613b45576000828501525b509190910192915050565b600060018060a01b03808816835286602084015260a06040840152613b7860a0840187613607565b941660608301525060800152939250505056fe6c9d1839e8465b42ebfd3c687420dbcdf116253fd431545be184fb051c38f0c256c54ba9bd38d8fd62012e42c7ee564519b09763c426d331b3661b537ead19b2a264697066735822122035c9814760483f2cd25bfa23c2183b20ed850179209d8a5f035f74fab88ae33e64736f6c634300080a0033",
  "linkReferences": {},
  "deployedLinkReferences": {}
}