{
  "_format": "hh-sol-artifact-1",
  "contractName": "RequiemRouter",
  "sourceName": "contracts/RequiemRouter.sol",
  "abi": [
    {
      "inputs": [
        {
          "internalType": "address",
          "name": "_factory",
          "type": "address"
        },
        {
          "internalType": "address",
          "name": "_WETH",
          "type": "address"
        }
      ],
      "stateMutability": "nonpayable",
      "type": "constructor"
    },
    {
      "anonymous": false,
      "inputs": [
        {
          "indexed": false,
          "internalType": "address",
          "name": "pair",
          "type": "address"
        },
        {
          "indexed": false,
          "internalType": "uint256",
          "name": "amountOut",
          "type": "uint256"
        },
        {
          "indexed": false,
          "internalType": "address",
          "name": "output",
          "type": "address"
        }
      ],
      "name": "Exchange",
      "type": "event"
    },
    {
      "inputs": [],
      "name": "WETH",
      "outputs": [
        {
          "internalType": "address",
          "name": "",
          "type": "address"
        }
      ],
      "stateMutability": "view",
      "type": "function"
    },
    {
      "inputs": [
        {
          "internalType": "address",
          "name": "pair",
          "type": "address"
        },
        {
          "internalType": "address",
          "name": "tokenA",
          "type": "address"
        },
        {
          "internalType": "address",
          "name": "tokenB",
          "type": "address"
        },
        {
          "internalType": "uint256",
          "name": "amountADesired",
          "type": "uint256"
        },
        {
          "internalType": "uint256",
          "name": "amountBDesired",
          "type": "uint256"
        },
        {
          "internalType": "uint256",
          "name": "amountAMin",
          "type": "uint256"
        },
        {
          "internalType": "uint256",
          "name": "amountBMin",
          "type": "uint256"
        },
        {
          "internalType": "address",
          "name": "to",
          "type": "address"
        },
        {
          "internalType": "uint256",
          "name": "deadline",
          "type": "uint256"
        }
      ],
      "name": "addLiquidity",
      "outputs": [
        {
          "internalType": "uint256",
          "name": "amountA",
          "type": "uint256"
        },
        {
          "internalType": "uint256",
          "name": "amountB",
          "type": "uint256"
        },
        {
          "internalType": "uint256",
          "name": "liquidity",
          "type": "uint256"
        }
      ],
      "stateMutability": "nonpayable",
      "type": "function"
    },
    {
      "inputs": [
        {
          "internalType": "address",
          "name": "pair",
          "type": "address"
        },
        {
          "internalType": "address",
          "name": "token",
          "type": "address"
        },
        {
          "internalType": "uint256",
          "name": "amountTokenDesired",
          "type": "uint256"
        },
        {
          "internalType": "uint256",
          "name": "amountTokenMin",
          "type": "uint256"
        },
        {
          "internalType": "uint256",
          "name": "amountETHMin",
          "type": "uint256"
        },
        {
          "internalType": "address",
          "name": "to",
          "type": "address"
        },
        {
          "internalType": "uint256",
          "name": "deadline",
          "type": "uint256"
        }
      ],
      "name": "addLiquidityETH",
      "outputs": [
        {
          "internalType": "uint256",
          "name": "amountToken",
          "type": "uint256"
        },
        {
          "internalType": "uint256",
          "name": "amountETH",
          "type": "uint256"
        },
        {
          "internalType": "uint256",
          "name": "liquidity",
          "type": "uint256"
        }
      ],
      "stateMutability": "payable",
      "type": "function"
    },
    {
      "inputs": [
        {
          "internalType": "address",
          "name": "tokenA",
          "type": "address"
        },
        {
          "internalType": "address",
          "name": "tokenB",
          "type": "address"
        },
        {
          "internalType": "uint256",
          "name": "amountA",
          "type": "uint256"
        },
        {
          "internalType": "uint256",
          "name": "amountB",
          "type": "uint256"
        },
        {
          "internalType": "uint32",
          "name": "tokenWeightA",
          "type": "uint32"
        },
        {
          "internalType": "uint32",
          "name": "swapFee",
          "type": "uint32"
        },
        {
          "internalType": "address",
          "name": "to",
          "type": "address"
        }
      ],
      "name": "createPair",
      "outputs": [
        {
          "internalType": "uint256",
          "name": "liquidity",
          "type": "uint256"
        }
      ],
      "stateMutability": "nonpayable",
      "type": "function"
    },
    {
      "inputs": [
        {
          "internalType": "address",
          "name": "token",
          "type": "address"
        },
        {
          "internalType": "uint256",
          "name": "amountToken",
          "type": "uint256"
        },
        {
          "internalType": "uint32",
          "name": "tokenWeight",
          "type": "uint32"
        },
        {
          "internalType": "uint32",
          "name": "swapFee",
          "type": "uint32"
        },
        {
          "internalType": "address",
          "name": "to",
          "type": "address"
        }
      ],
      "name": "createPairETH",
      "outputs": [
        {
          "internalType": "uint256",
          "name": "liquidity",
          "type": "uint256"
        }
      ],
      "stateMutability": "payable",
      "type": "function"
    },
    {
      "inputs": [],
      "name": "factory",
      "outputs": [
        {
          "internalType": "address",
          "name": "",
          "type": "address"
        }
      ],
      "stateMutability": "view",
      "type": "function"
    },
    {
      "inputs": [],
      "name": "formula",
      "outputs": [
        {
          "internalType": "address",
          "name": "",
          "type": "address"
        }
      ],
      "stateMutability": "view",
      "type": "function"
    },
    {
      "inputs": [
        {
          "components": [
            {
              "internalType": "address",
              "name": "pool",
              "type": "address"
            },
            {
              "internalType": "address",
              "name": "tokenIn",
              "type": "address"
            },
            {
              "internalType": "address",
              "name": "tokenOut",
              "type": "address"
            },
            {
              "internalType": "uint256",
              "name": "swapAmount",
              "type": "uint256"
            },
            {
              "internalType": "uint256",
              "name": "limitReturnAmount",
              "type": "uint256"
            },
            {
              "internalType": "uint256",
              "name": "maxPrice",
              "type": "uint256"
            }
          ],
          "internalType": "struct IRequiemRouter.Swap[][]",
          "name": "swapSequences",
          "type": "tuple[][]"
        },
        {
          "internalType": "address",
          "name": "tokenIn",
          "type": "address"
        },
        {
          "internalType": "address",
          "name": "tokenOut",
          "type": "address"
        },
        {
          "internalType": "uint256",
          "name": "totalAmountIn",
          "type": "uint256"
        },
        {
          "internalType": "uint256",
          "name": "minTotalAmountOut",
          "type": "uint256"
        },
        {
          "internalType": "uint256",
          "name": "deadline",
          "type": "uint256"
        }
      ],
      "name": "multihopBatchSwapExactIn",
      "outputs": [
        {
          "internalType": "uint256",
          "name": "totalAmountOut",
          "type": "uint256"
        }
      ],
      "stateMutability": "payable",
      "type": "function"
    },
    {
      "inputs": [
        {
          "components": [
            {
              "internalType": "address",
              "name": "pool",
              "type": "address"
            },
            {
              "internalType": "address",
              "name": "tokenIn",
              "type": "address"
            },
            {
              "internalType": "address",
              "name": "tokenOut",
              "type": "address"
            },
            {
              "internalType": "uint256",
              "name": "swapAmount",
              "type": "uint256"
            },
            {
              "internalType": "uint256",
              "name": "limitReturnAmount",
              "type": "uint256"
            },
            {
              "internalType": "uint256",
              "name": "maxPrice",
              "type": "uint256"
            }
          ],
          "internalType": "struct IRequiemRouter.Swap[][]",
          "name": "swapSequences",
          "type": "tuple[][]"
        },
        {
          "internalType": "address",
          "name": "tokenIn",
          "type": "address"
        },
        {
          "internalType": "address",
          "name": "tokenOut",
          "type": "address"
        },
        {
          "internalType": "uint256",
          "name": "maxTotalAmountIn",
          "type": "uint256"
        },
        {
          "internalType": "uint256",
          "name": "deadline",
          "type": "uint256"
        }
      ],
      "name": "multihopBatchSwapExactOut",
      "outputs": [
        {
          "internalType": "uint256",
          "name": "totalAmountIn",
          "type": "uint256"
        }
      ],
      "stateMutability": "payable",
      "type": "function"
    },
    {
      "inputs": [
        {
          "internalType": "address",
          "name": "pair",
          "type": "address"
        },
        {
          "internalType": "address",
          "name": "tokenA",
          "type": "address"
        },
        {
          "internalType": "address",
          "name": "tokenB",
          "type": "address"
        },
        {
          "internalType": "uint256",
          "name": "liquidity",
          "type": "uint256"
        },
        {
          "internalType": "uint256",
          "name": "amountAMin",
          "type": "uint256"
        },
        {
          "internalType": "uint256",
          "name": "amountBMin",
          "type": "uint256"
        },
        {
          "internalType": "address",
          "name": "to",
          "type": "address"
        },
        {
          "internalType": "uint256",
          "name": "deadline",
          "type": "uint256"
        }
      ],
      "name": "removeLiquidity",
      "outputs": [
        {
          "internalType": "uint256",
          "name": "amountA",
          "type": "uint256"
        },
        {
          "internalType": "uint256",
          "name": "amountB",
          "type": "uint256"
        }
      ],
      "stateMutability": "nonpayable",
      "type": "function"
    },
    {
      "inputs": [
        {
          "internalType": "address",
          "name": "pair",
          "type": "address"
        },
        {
          "internalType": "address",
          "name": "token",
          "type": "address"
        },
        {
          "internalType": "uint256",
          "name": "liquidity",
          "type": "uint256"
        },
        {
          "internalType": "uint256",
          "name": "amountTokenMin",
          "type": "uint256"
        },
        {
          "internalType": "uint256",
          "name": "amountETHMin",
          "type": "uint256"
        },
        {
          "internalType": "address",
          "name": "to",
          "type": "address"
        },
        {
          "internalType": "uint256",
          "name": "deadline",
          "type": "uint256"
        }
      ],
      "name": "removeLiquidityETH",
      "outputs": [
        {
          "internalType": "uint256",
          "name": "amountToken",
          "type": "uint256"
        },
        {
          "internalType": "uint256",
          "name": "amountETH",
          "type": "uint256"
        }
      ],
      "stateMutability": "nonpayable",
      "type": "function"
    },
    {
      "inputs": [
        {
          "internalType": "address",
          "name": "pair",
          "type": "address"
        },
        {
          "internalType": "address",
          "name": "token",
          "type": "address"
        },
        {
          "internalType": "uint256",
          "name": "liquidity",
          "type": "uint256"
        },
        {
          "internalType": "uint256",
          "name": "amountTokenMin",
          "type": "uint256"
        },
        {
          "internalType": "uint256",
          "name": "amountETHMin",
          "type": "uint256"
        },
        {
          "internalType": "address",
          "name": "to",
          "type": "address"
        },
        {
          "internalType": "uint256",
          "name": "deadline",
          "type": "uint256"
        }
      ],
      "name": "removeLiquidityETHSupportingFeeOnTransferTokens",
      "outputs": [
        {
          "internalType": "uint256",
          "name": "amountETH",
          "type": "uint256"
        }
      ],
      "stateMutability": "nonpayable",
      "type": "function"
    },
    {
      "inputs": [
        {
          "internalType": "address",
          "name": "pair",
          "type": "address"
        },
        {
          "internalType": "address",
          "name": "token",
          "type": "address"
        },
        {
          "internalType": "uint256",
          "name": "liquidity",
          "type": "uint256"
        },
        {
          "internalType": "uint256",
          "name": "amountTokenMin",
          "type": "uint256"
        },
        {
          "internalType": "uint256",
          "name": "amountETHMin",
          "type": "uint256"
        },
        {
          "internalType": "address",
          "name": "to",
          "type": "address"
        },
        {
          "internalType": "uint256",
          "name": "deadline",
          "type": "uint256"
        },
        {
          "internalType": "bool",
          "name": "approveMax",
          "type": "bool"
        },
        {
          "internalType": "uint8",
          "name": "v",
          "type": "uint8"
        },
        {
          "internalType": "bytes32",
          "name": "r",
          "type": "bytes32"
        },
        {
          "internalType": "bytes32",
          "name": "s",
          "type": "bytes32"
        }
      ],
      "name": "removeLiquidityETHWithPermit",
      "outputs": [
        {
          "internalType": "uint256",
          "name": "amountToken",
          "type": "uint256"
        },
        {
          "internalType": "uint256",
          "name": "amountETH",
          "type": "uint256"
        }
      ],
      "stateMutability": "nonpayable",
      "type": "function"
    },
    {
      "inputs": [
        {
          "internalType": "address",
          "name": "pair",
          "type": "address"
        },
        {
          "internalType": "address",
          "name": "token",
          "type": "address"
        },
        {
          "internalType": "uint256",
          "name": "liquidity",
          "type": "uint256"
        },
        {
          "internalType": "uint256",
          "name": "amountTokenMin",
          "type": "uint256"
        },
        {
          "internalType": "uint256",
          "name": "amountETHMin",
          "type": "uint256"
        },
        {
          "internalType": "address",
          "name": "to",
          "type": "address"
        },
        {
          "internalType": "uint256",
          "name": "deadline",
          "type": "uint256"
        },
        {
          "internalType": "bool",
          "name": "approveMax",
          "type": "bool"
        },
        {
          "internalType": "uint8",
          "name": "v",
          "type": "uint8"
        },
        {
          "internalType": "bytes32",
          "name": "r",
          "type": "bytes32"
        },
        {
          "internalType": "bytes32",
          "name": "s",
          "type": "bytes32"
        }
      ],
      "name": "removeLiquidityETHWithPermitSupportingFeeOnTransferTokens",
      "outputs": [
        {
          "internalType": "uint256",
          "name": "amountETH",
          "type": "uint256"
        }
      ],
      "stateMutability": "nonpayable",
      "type": "function"
    },
    {
      "inputs": [
        {
          "internalType": "address",
          "name": "pair",
          "type": "address"
        },
        {
          "internalType": "address",
          "name": "tokenA",
          "type": "address"
        },
        {
          "internalType": "address",
          "name": "tokenB",
          "type": "address"
        },
        {
          "internalType": "uint256",
          "name": "liquidity",
          "type": "uint256"
        },
        {
          "internalType": "uint256",
          "name": "amountAMin",
          "type": "uint256"
        },
        {
          "internalType": "uint256",
          "name": "amountBMin",
          "type": "uint256"
        },
        {
          "internalType": "address",
          "name": "to",
          "type": "address"
        },
        {
          "internalType": "uint256",
          "name": "deadline",
          "type": "uint256"
        },
        {
          "internalType": "bool",
          "name": "approveMax",
          "type": "bool"
        },
        {
          "internalType": "uint8",
          "name": "v",
          "type": "uint8"
        },
        {
          "internalType": "bytes32",
          "name": "r",
          "type": "bytes32"
        },
        {
          "internalType": "bytes32",
          "name": "s",
          "type": "bytes32"
        }
      ],
      "name": "removeLiquidityWithPermit",
      "outputs": [
        {
          "internalType": "uint256",
          "name": "amountA",
          "type": "uint256"
        },
        {
          "internalType": "uint256",
          "name": "amountB",
          "type": "uint256"
        }
      ],
      "stateMutability": "nonpayable",
      "type": "function"
    },
    {
      "inputs": [
        {
          "internalType": "address",
          "name": "tokenOut",
          "type": "address"
        },
        {
          "internalType": "uint256",
          "name": "amountOut",
          "type": "uint256"
        },
        {
          "internalType": "address[]",
          "name": "path",
          "type": "address[]"
        },
        {
          "internalType": "address",
          "name": "to",
          "type": "address"
        },
        {
          "internalType": "uint256",
          "name": "deadline",
          "type": "uint256"
        }
      ],
      "name": "swapETHForExactTokens",
      "outputs": [
        {
          "internalType": "uint256[]",
          "name": "amounts",
          "type": "uint256[]"
        }
      ],
      "stateMutability": "payable",
      "type": "function"
    },
    {
      "inputs": [
        {
          "internalType": "address",
          "name": "tokenOut",
          "type": "address"
        },
        {
          "internalType": "uint256",
          "name": "amountOutMin",
          "type": "uint256"
        },
        {
          "internalType": "address[]",
          "name": "path",
          "type": "address[]"
        },
        {
          "internalType": "address",
          "name": "to",
          "type": "address"
        },
        {
          "internalType": "uint256",
          "name": "deadline",
          "type": "uint256"
        }
      ],
      "name": "swapExactETHForTokens",
      "outputs": [
        {
          "internalType": "uint256[]",
          "name": "amounts",
          "type": "uint256[]"
        }
      ],
      "stateMutability": "payable",
      "type": "function"
    },
    {
      "inputs": [
        {
          "internalType": "address",
          "name": "tokenOut",
          "type": "address"
        },
        {
          "internalType": "uint256",
          "name": "amountOutMin",
          "type": "uint256"
        },
        {
          "internalType": "address[]",
          "name": "path",
          "type": "address[]"
        },
        {
          "internalType": "address",
          "name": "to",
          "type": "address"
        },
        {
          "internalType": "uint256",
          "name": "deadline",
          "type": "uint256"
        }
      ],
      "name": "swapExactETHForTokensSupportingFeeOnTransferTokens",
      "outputs": [],
      "stateMutability": "payable",
      "type": "function"
    },
    {
      "inputs": [
        {
          "internalType": "address",
          "name": "tokenIn",
          "type": "address"
        },
        {
          "internalType": "uint256",
          "name": "amountIn",
          "type": "uint256"
        },
        {
          "internalType": "uint256",
          "name": "amountOutMin",
          "type": "uint256"
        },
        {
          "internalType": "address[]",
          "name": "path",
          "type": "address[]"
        },
        {
          "internalType": "address",
          "name": "to",
          "type": "address"
        },
        {
          "internalType": "uint256",
          "name": "deadline",
          "type": "uint256"
        }
      ],
      "name": "swapExactTokensForETH",
      "outputs": [
        {
          "internalType": "uint256[]",
          "name": "amounts",
          "type": "uint256[]"
        }
      ],
      "stateMutability": "nonpayable",
      "type": "function"
    },
    {
      "inputs": [
        {
          "internalType": "address",
          "name": "tokenIn",
          "type": "address"
        },
        {
          "internalType": "uint256",
          "name": "amountIn",
          "type": "uint256"
        },
        {
          "internalType": "uint256",
          "name": "amountOutMin",
          "type": "uint256"
        },
        {
          "internalType": "address[]",
          "name": "path",
          "type": "address[]"
        },
        {
          "internalType": "address",
          "name": "to",
          "type": "address"
        },
        {
          "internalType": "uint256",
          "name": "deadline",
          "type": "uint256"
        }
      ],
      "name": "swapExactTokensForETHSupportingFeeOnTransferTokens",
      "outputs": [],
      "stateMutability": "nonpayable",
      "type": "function"
    },
    {
      "inputs": [
        {
          "internalType": "address",
          "name": "tokenIn",
          "type": "address"
        },
        {
          "internalType": "address",
          "name": "tokenOut",
          "type": "address"
        },
        {
          "internalType": "uint256",
          "name": "amountIn",
          "type": "uint256"
        },
        {
          "internalType": "uint256",
          "name": "amountOutMin",
          "type": "uint256"
        },
        {
          "internalType": "address[]",
          "name": "path",
          "type": "address[]"
        },
        {
          "internalType": "address",
          "name": "to",
          "type": "address"
        },
        {
          "internalType": "uint256",
          "name": "deadline",
          "type": "uint256"
        }
      ],
      "name": "swapExactTokensForTokens",
      "outputs": [
        {
          "internalType": "uint256[]",
          "name": "amounts",
          "type": "uint256[]"
        }
      ],
      "stateMutability": "nonpayable",
      "type": "function"
    },
    {
      "inputs": [
        {
          "internalType": "address",
          "name": "tokenIn",
          "type": "address"
        },
        {
          "internalType": "address",
          "name": "tokenOut",
          "type": "address"
        },
        {
          "internalType": "uint256",
          "name": "amountIn",
          "type": "uint256"
        },
        {
          "internalType": "uint256",
          "name": "amountOutMin",
          "type": "uint256"
        },
        {
          "internalType": "address[]",
          "name": "path",
          "type": "address[]"
        },
        {
          "internalType": "address",
          "name": "to",
          "type": "address"
        },
        {
          "internalType": "uint256",
          "name": "deadline",
          "type": "uint256"
        }
      ],
      "name": "swapExactTokensForTokensSupportingFeeOnTransferTokens",
      "outputs": [],
      "stateMutability": "nonpayable",
      "type": "function"
    },
    {
      "inputs": [
        {
          "internalType": "address",
          "name": "tokenIn",
          "type": "address"
        },
        {
          "internalType": "uint256",
          "name": "amountOut",
          "type": "uint256"
        },
        {
          "internalType": "uint256",
          "name": "amountInMax",
          "type": "uint256"
        },
        {
          "internalType": "address[]",
          "name": "path",
          "type": "address[]"
        },
        {
          "internalType": "address",
          "name": "to",
          "type": "address"
        },
        {
          "internalType": "uint256",
          "name": "deadline",
          "type": "uint256"
        }
      ],
      "name": "swapTokensForExactETH",
      "outputs": [
        {
          "internalType": "uint256[]",
          "name": "amounts",
          "type": "uint256[]"
        }
      ],
      "stateMutability": "nonpayable",
      "type": "function"
    },
    {
      "inputs": [
        {
          "internalType": "address",
          "name": "tokenIn",
          "type": "address"
        },
        {
          "internalType": "address",
          "name": "tokenOut",
          "type": "address"
        },
        {
          "internalType": "uint256",
          "name": "amountOut",
          "type": "uint256"
        },
        {
          "internalType": "uint256",
          "name": "amountInMax",
          "type": "uint256"
        },
        {
          "internalType": "address[]",
          "name": "path",
          "type": "address[]"
        },
        {
          "internalType": "address",
          "name": "to",
          "type": "address"
        },
        {
          "internalType": "uint256",
          "name": "deadline",
          "type": "uint256"
        }
      ],
      "name": "swapTokensForExactTokens",
      "outputs": [
        {
          "internalType": "uint256[]",
          "name": "amounts",
          "type": "uint256[]"
        }
      ],
      "stateMutability": "nonpayable",
      "type": "function"
    },
    {
      "stateMutability": "payable",
      "type": "receive"
    }
  ],
  "bytecode": "0x60e06040523480156200001157600080fd5b5060405162005530380380620055308339810160408190526200003491620000db565b6001600160a01b038216608081905260408051634b75f54f60e01b81529051634b75f54f916004808201926020929091908290030181865afa1580156200007f573d6000803e3d6000fd5b505050506040513d601f19601f82011682018060405250810190620000a5919062000113565b6001600160a01b0390811660a0521660c0525062000138565b80516001600160a01b0381168114620000d657600080fd5b919050565b60008060408385031215620000ef57600080fd5b620000fa83620000be565b91506200010a60208401620000be565b90509250929050565b6000602082840312156200012657600080fd5b6200013182620000be565b9392505050565b60805160a05160c0516152b7620002796000396000818161019f0152818161038d015281816108d201528181610af701528181610c9b015281816111b60152818161163401528181611695015281816117a701528181611ec601528181611ff90152818161217c015281816121f40152818161225b01528181612cb401528181612d3f01528181612ded01528181612ea5015261333a01526000818161024601528181610f140152818161259f0152818161289501528181612a0901528181612fab015281816134310152818161382e01528181613bf401528181613d07015281816140cf0152818161419b01526142b201526000818161041401528181610cdc01528181610f4301528181611c2901528181612384015281816128c401528181612fd80152818161345e0152818161385b0152613baf01526152b76000f3fe60806040526004361061018f5760003560e01c8063b05f579e116100d6578063d59e44ee1161007f578063fa3219d511610059578063fa3219d5146104c9578063fbf45135146104e9578063fde1adda1461050957600080fd5b8063d59e44ee14610469578063e1f4a78414610489578063ebb5d2e9146104a957600080fd5b8063c45a0155116100b0578063c45a015514610402578063ce81963214610436578063d0f2c82a1461044957600080fd5b8063b05f579e146103af578063b56b681d146103c2578063bff51d71146103e257600080fd5b80636cb4942811610138578063a4aabb0811610112578063a4aabb081461033b578063a67d0e3c1461035b578063ad5c46481461037b57600080fd5b80636cb49428146102e8578063840c34d0146102fb5780639c91fcb51461030e57600080fd5b80634c17fd7c116101695780634c17fd7c146102805780635cae0310146102b5578063674ee80b146102d557600080fd5b80630e2f024c146101d35780633990ba54146102065780634b75f54f1461023457600080fd5b366101ce57336001600160a01b037f000000000000000000000000000000000000000000000000000000000000000016146101cc576101cc61440a565b005b600080fd5b3480156101df57600080fd5b506101f36101ee36600461447b565b61051c565b6040519081526020015b60405180910390f35b610219610214366004614525565b61060c565b604080519384526020840192909252908201526060016101fd565b34801561024057600080fd5b506102687f000000000000000000000000000000000000000000000000000000000000000081565b6040516001600160a01b0390911681526020016101fd565b34801561028c57600080fd5b506102a061029b366004614597565b610689565b604080519283526020830191909152016101fd565b3480156102c157600080fd5b506101cc6102d036600461469f565b6107de565b6101cc6102e3366004614726565b6109e8565b6101f36102f63660046147b4565b610c63565b6101f3610309366004614a09565b610d67565b34801561031a57600080fd5b5061032e61032936600461469f565b61115d565b6040516101fd9190614a7d565b34801561034757600080fd5b506102a061035636600461447b565b6112f1565b34801561036757600080fd5b506101cc610376366004614ac1565b6113e7565b34801561038757600080fd5b506102687f000000000000000000000000000000000000000000000000000000000000000081565b61032e6103bd366004614726565b6115dc565b3480156103ce57600080fd5b506102a06103dd366004614525565b61174c565b3480156103ee57600080fd5b5061032e6103fd366004614b5a565b61180c565b34801561040e57600080fd5b506102687f000000000000000000000000000000000000000000000000000000000000000081565b6101f3610444366004614c49565b6118b9565b34801561045557600080fd5b506101f3610464366004614cc7565b611bd0565b34801561047557600080fd5b5061032e610484366004614ac1565b611d2f565b34801561049557600080fd5b506102a06104a4366004614d4b565b611df7565b3480156104b557600080fd5b506101f36104c4366004614525565b611e6c565b3480156104d557600080fd5b5061032e6104e436600461469f565b611fa0565b3480156104f557600080fd5b50610219610504366004614dd0565b612021565b61032e610517366004614726565b612124565b6000808561052a578a61054c565b7fffffffffffffffffffffffffffffffffffffffffffffffffffffffffffffffff5b6040517fd505accf000000000000000000000000000000000000000000000000000000008152336004820152306024820152604481018290526064810189905260ff8716608482015260a4810186905260c481018590529091506001600160a01b038e169063d505accf9060e401600060405180830381600087803b1580156105d457600080fd5b505af11580156105e8573d6000803e3d6000fd5b505050506105fb8d8d8d8d8d8d8d611e6c565b9d9c50505050505050505050505050565b600080600083428110156106675760405162461bcd60e51b815260206004820152600f60248201527f526f757465723a2045585049524544000000000000000000000000000000000060448201526064015b60405180910390fd5b6106758b8b8b8b8b8b61224f565b919d909c50909a5098505050505050505050565b60008086428110156106dd5760405162461bcd60e51b815260206004820152600f60248201527f526f757465723a20455850495245440000000000000000000000000000000000604482015260640161065e565b6000876106ea578c61070c565b7fffffffffffffffffffffffffffffffffffffffffffffffffffffffffffffffff5b90508f6001600160a01b031663d505accf3330848d8c8c8c6040518863ffffffff1660e01b815260040161078297969594939291906001600160a01b0397881681529590961660208601526040850193909352606084019190915260ff16608083015260a082015260c081019190915260e00190565b600060405180830381600087803b15801561079c57600080fd5b505af11580156107b0573d6000803e3d6000fd5b50505050506107c48f8f8f8f8f8f8f612347565b8093508194505050509c509c9a5050505050505050505050565b804281101561082f5760405162461bcd60e51b815260206004820152600f60248201527f526f757465723a20455850495245440000000000000000000000000000000000604482015260640161065e565b61086288338787600081811061084757610847614e5f565b905060200201602081019061085c9190614e8e565b8a6126e3565b6108a18886868080602002602001604051908101604052809392919081815260200183836020028082843760009201919091525030925061285a915050565b6040517f70a082310000000000000000000000000000000000000000000000000000000081523060048201526000907f00000000000000000000000000000000000000000000000000000000000000006001600160a01b0316906370a0823190602401602060405180830381865afa158015610921573d6000803e3d6000fd5b505050506040513d601f19601f820116820180604052508101906109459190614eab565b9050868110156109bd5760405162461bcd60e51b815260206004820152602260248201527f526f757465723a20494e53554646494349454e545f4f55545055545f414d4f5560448201527f4e54000000000000000000000000000000000000000000000000000000000000606482015260840161065e565b6109dc73eeeeeeeeeeeeeeeeeeeeeeeeeeeeeeeeeeeeeeee8583612c51565b50505050505050505050565b8042811015610a395760405162461bcd60e51b815260206004820152600f60248201527f526f757465723a20455850495245440000000000000000000000000000000000604482015260640161065e565b34610a69818787600081610a4f57610a4f614e5f565b9050602002016020810190610a649190614e8e565b612d3d565b6040517f70a082310000000000000000000000000000000000000000000000000000000081526001600160a01b038581166004830152600091908a16906370a0823190602401602060405180830381865afa158015610acc573d6000803e3d6000fd5b505050506040513d601f19601f82011682018060405250810190610af09190614eab565b9050610b517f00000000000000000000000000000000000000000000000000000000000000008888808060200260200160405190810160405280939291908181526020018383602002808284376000920191909152508a925061285a915050565b6040517f70a082310000000000000000000000000000000000000000000000000000000081526001600160a01b0386811660048301528991610be4918491908d16906370a08231906024015b602060405180830381865afa158015610bba573d6000803e3d6000fd5b505050506040513d601f19601f82011682018060405250810190610bde9190614eab565b90612e6e565b1015610c585760405162461bcd60e51b815260206004820152602260248201527f526f757465723a20494e53554646494349454e545f4f55545055545f414d4f5560448201527f4e54000000000000000000000000000000000000000000000000000000000000606482015260840161065e565b505050505050505050565b6040517f14572adb0000000000000000000000000000000000000000000000000000000081526001600160a01b0386811660048301527f00000000000000000000000000000000000000000000000000000000000000008116602483015263ffffffff80861660448401528416606483015260009182917f000000000000000000000000000000000000000000000000000000000000000016906314572adb906084016020604051808303816000875af1158015610d25573d6000803e3d6000fd5b505050506040513d601f19601f82011682018060405250810190610d499190614ec4565b9050610d5a8188886000808861224f565b9998505050505050505050565b60008142811015610dba5760405162461bcd60e51b815260206004820152600f60248201527f526f757465723a20455850495245440000000000000000000000000000000000604482015260640161065e565b610dc48685612e7c565b5060005b87518110156110df576000888281518110610de557610de5614e5f565b60200260200101515160011415610e57576000898381518110610e0a57610e0a614e5f565b6020026020010151600081518110610e2457610e24614e5f565b60200260200101519050610e4f81602001518260400151836000015184606001518560800151612f31565b9150506110bf565b6000808a8481518110610e6c57610e6c614e5f565b6020026020010151600181518110610e8657610e86614e5f565b602002602001015190506000600167ffffffffffffffff811115610eac57610eac61481c565b604051908082528060200260200182016040528015610ed5578160200160208202803683370190505b509050816000015181600081518110610ef057610ef0614e5f565b60200260200101906001600160a01b031690816001600160a01b03168152505060007f00000000000000000000000000000000000000000000000000000000000000006001600160a01b03166367f84adc7f0000000000000000000000000000000000000000000000000000000000000000856020015186604001518760600151876040518663ffffffff1660e01b8152600401610f92959493929190614ee1565b600060405180830381865afa158015610faf573d6000803e3d6000fd5b505050506040513d6000823e601f3d908101601f19168201604052610fd79190810190614f55565b905080600081518110610fec57610fec614e5f565b60200260200101519350826080015184111561104a5760405162461bcd60e51b815260206004820152601e60248201527f526f757465723a204558434553534956455f494e5055545f414d4f554e540000604482015260640161065e565b505060008b858151811061106057611060614e5f565b602002602001015160008151811061107a5761107a614e5f565b602002602001015190506110a1816020015182604001518360000151868560800151612f31565b93506110bb826020015183600001518585606001516130de565b5050505b6110c981856132c8565b93505080806110d790615015565b915050610dc8565b50838211156111305760405162461bcd60e51b815260206004820152600c60248201527f4552525f4c494d49545f494e0000000000000000000000000000000000000000604482015260640161065e565b611143853361113e886132e5565b612c51565b50611152863361113e896132e5565b505095945050505050565b606081428110156111b05760405162461bcd60e51b815260206004820152600f60248201527f526f757465723a20455850495245440000000000000000000000000000000000604482015260640161065e565b611210897f00000000000000000000000000000000000000000000000000000000000000008a8a8a8a808060200260200160405190810160405280939291908181526020018383602002808284376000920191909152506133fe92505050565b915061125f89338888600081811061122a5761122a614e5f565b905060200201602081019061123f9190614e8e565b8560008151811061125257611252614e5f565b60200260200101516126e3565b61129f898388888080602002602001604051908101604052809392919081815260200183836020028082843760009201919091525030925061357a915050565b6112e473eeeeeeeeeeeeeeeeeeeeeeeeeeeeeeeeeeeeeeee8584600186516112c7919061504e565b815181106112d7576112d7614e5f565b6020026020010151612c51565b5050979650505050505050565b600080600086611301578b611323565b7fffffffffffffffffffffffffffffffffffffffffffffffffffffffffffffffff5b6040517fd505accf00000000000000000000000000000000000000000000000000000000815233600482015230602482015260448101829052606481018a905260ff8816608482015260a4810187905260c481018690529091506001600160a01b038f169063d505accf9060e401600060405180830381600087803b1580156113ab57600080fd5b505af11580156113bf573d6000803e3d6000fd5b505050506113d28e8e8e8e8e8e8e61174c565b909f909e509c50505050505050505050505050565b80428110156114385760405162461bcd60e51b815260206004820152600f60248201527f526f757465723a20455850495245440000000000000000000000000000000000604482015260640161065e565b61145089338787600081811061084757610847614e5f565b6040517f70a082310000000000000000000000000000000000000000000000000000000081526001600160a01b038481166004830152600091908a16906370a0823190602401602060405180830381865afa1580156114b3573d6000803e3d6000fd5b505050506040513d601f19601f820116820180604052508101906114d79190614eab565b90506115188a87878080602002602001604051908101604052809392919081815260200183836020028082843760009201919091525089925061285a915050565b6040517f70a082310000000000000000000000000000000000000000000000000000000081526001600160a01b0385811660048301528891611568918491908d16906370a0823190602401610b9d565b10156109dc5760405162461bcd60e51b815260206004820152602260248201527f526f757465723a20494e53554646494349454e545f4f55545055545f414d4f5560448201527f4e54000000000000000000000000000000000000000000000000000000000000606482015260840161065e565b6060814281101561162f5760405162461bcd60e51b815260206004820152600f60248201527f526f757465723a20455850495245440000000000000000000000000000000000604482015260640161065e565b61165d7f00000000000000000000000000000000000000000000000000000000000000008989348a8a6137fb565b91506116908260008151811061167557611675614e5f565b602002602001015187876000818110610a4f57610a4f614e5f565b6116f07f0000000000000000000000000000000000000000000000000000000000000000838888808060200260200160405190810160405280939291908181526020018383602002808284376000920191909152508a925061357a915050565b8160008151811061170357611703614e5f565b602002602001015134111561174157611741338360008151811061172957611729614e5f565b60200260200101513461173c919061504e565b613948565b509695505050505050565b60008082428110156117a05760405162461bcd60e51b815260206004820152600f60248201527f526f757465723a20455850495245440000000000000000000000000000000000604482015260640161065e565b6117cf8a8a7f00000000000000000000000000000000000000000000000000000000000000008b8b8b30612347565b90935091506117df898685613a30565b6117fe73eeeeeeeeeeeeeeeeeeeeeeeeeeeeeeeeeeeeeeee8684612c51565b505097509795505050505050565b6060814281101561185f5760405162461bcd60e51b815260206004820152600f60248201527f526f757465723a20455850495245440000000000000000000000000000000000604482015260640161065e565b61186c89898989896133fe565b91506118a189338760008151811061188657611886614e5f565b60200260200101518560008151811061125257611252614e5f565b6118ad8983878761357a565b50979650505050505050565b6000814281101561190c5760405162461bcd60e51b815260206004820152600f60248201527f526f757465723a20455850495245440000000000000000000000000000000000604482015260640161065e565b6119168786612e7c565b50600073eeeeeeeeeeeeeeeeeeeeeeeeeeeeeeeeeeeeeeee6001600160a01b038816146119c1576040517f70a082310000000000000000000000000000000000000000000000000000000081523360048201526001600160a01b038816906370a0823190602401602060405180830381865afa15801561199a573d6000803e3d6000fd5b505050506040513d601f19601f820116820180604052508101906119be9190614eab565b90505b60005b8951811015611a93576000805b8b83815181106119e3576119e3614e5f565b602002602001015151811015611a725760008c8481518110611a0757611a07614e5f565b60200260200101518281518110611a2057611a20614e5f565b602002602001015190506000821115611a3b57606081018390525b611a5c81602001518260400151836000015184606001518560800151613b72565b9250508080611a6a90615015565b9150506119d1565b50611a7d81866132c8565b9450508080611a8b90615015565b9150506119c4565b50611a9f873385612c51565b50611aae883361113e8b6132e5565b5073eeeeeeeeeeeeeeeeeeeeeeeeeeeeeeeeeeeeeeee6001600160a01b0388161415611b295784831015611b245760405162461bcd60e51b815260206004820152600d60248201527f4552525f4c494d49545f4f555400000000000000000000000000000000000000604482015260640161065e565b611bc4565b6040517f70a082310000000000000000000000000000000000000000000000000000000081523360048201528590611b769083906001600160a01b038b16906370a0823190602401610b9d565b1015611bc45760405162461bcd60e51b815260206004820152601260248201527f3c6d696e546f74616c416d6f756e744f75740000000000000000000000000000604482015260640161065e565b50509695505050505050565b6040517f14572adb0000000000000000000000000000000000000000000000000000000081526001600160a01b038881166004830152878116602483015263ffffffff80861660448401528416606483015260009182917f000000000000000000000000000000000000000000000000000000000000000016906314572adb906084016020604051808303816000875af1158015611c72573d6000803e3d6000fd5b505050506040513d601f19601f82011682018060405250810190611c969190614ec4565b9050611ca8818a8a8a8a600080614043565b50506040517f6a6278420000000000000000000000000000000000000000000000000000000081526001600160a01b038481166004830152821690636a627842906024016020604051808303816000875af1158015611d0b573d6000803e3d6000fd5b505050506040513d601f19601f82011682018060405250810190610d5a9190614eab565b60608142811015611d825760405162461bcd60e51b815260206004820152600f60248201527f526f757465723a20455850495245440000000000000000000000000000000000604482015260640161065e565b611d908a8a8a8a8a8a6137fb565b9150611daa8a338888600081811061122a5761122a614e5f565b611dea8a838888808060200260200160405190810160405280939291908181526020018383602002808284376000920191909152508a925061357a915050565b5098975050505050505050565b6000808242811015611e4b5760405162461bcd60e51b815260206004820152600f60248201527f526f757465723a20455850495245440000000000000000000000000000000000604482015260640161065e565b611e5a8b8b8b8b8b8b8b612347565b909c909b509950505050505050505050565b60008142811015611ebf5760405162461bcd60e51b815260206004820152600f60248201527f526f757465723a20455850495245440000000000000000000000000000000000604482015260640161065e565b611eef89897f00000000000000000000000000000000000000000000000000000000000000008a8a8a308a611df7565b6040517f70a08231000000000000000000000000000000000000000000000000000000008152306004820152909350611f819150899086906001600160a01b038316906370a0823190602401602060405180830381865afa158015611f58573d6000803e3d6000fd5b505050506040513d601f19601f82011682018060405250810190611f7c9190614eab565b613a30565b6112e473eeeeeeeeeeeeeeeeeeeeeeeeeeeeeeeeeeeeeeee8584612c51565b60608142811015611ff35760405162461bcd60e51b815260206004820152600f60248201527f526f757465723a20455850495245440000000000000000000000000000000000604482015260640161065e565b611210897f00000000000000000000000000000000000000000000000000000000000000008a8a8a8a6137fb565b600080600083428110156120775760405162461bcd60e51b815260206004820152600f60248201527f526f757465723a20455850495245440000000000000000000000000000000000604482015260640161065e565b6120868d8d8d8d8d8d8d614043565b6040517f6a6278420000000000000000000000000000000000000000000000000000000081526001600160a01b038981166004830152929650909450908e1690636a627842906024016020604051808303816000875af11580156120ee573d6000803e3d6000fd5b505050506040513d601f19601f820116820180604052508101906121129190614eab565b91505099509950999650505050505050565b606081428110156121775760405162461bcd60e51b815260206004820152600f60248201527f526f757465723a20455850495245440000000000000000000000000000000000604482015260640161065e565b6121d77f000000000000000000000000000000000000000000000000000000000000000089348a8a8a808060200260200160405190810160405280939291908181526020018383602002808284376000920191909152506133fe92505050565b91506121ef8260008151811061167557611675614e5f565b6117417f0000000000000000000000000000000000000000000000000000000000000000838888808060200260200160405190810160405280939291908181526020018383602002808284376000920191909152508a925061357a915050565b600080600061228389897f00000000000000000000000000000000000000000000000000000000000000008a348b8b61407e565b909350915061229488338b866126e3565b61229e828a612d3d565b6040517f6a6278420000000000000000000000000000000000000000000000000000000081526001600160a01b0385811660048301528a1690636a627842906024016020604051808303816000875af11580156122ff573d6000803e3d6000fd5b505050506040513d601f19601f820116820180604052508101906123239190614eab565b90508134111561233b5761233b3361173c843461504e565b96509650969350505050565b6040517fe5e31b130000000000000000000000000000000000000000000000000000000081526001600160a01b03888116600483015260009182917f0000000000000000000000000000000000000000000000000000000000000000169063e5e31b1390602401602060405180830381865afa1580156123cb573d6000803e3d6000fd5b505050506040513d601f19601f820116820180604052508101906123ef9190615065565b61243b5760405162461bcd60e51b815260206004820152601460248201527f526f757465723a20496e76616c69642070616972000000000000000000000000604482015260640161065e565b6040517f23b872dd0000000000000000000000000000000000000000000000000000000081523360048201526001600160a01b038a166024820181905260448201889052906323b872dd906064016020604051808303816000875af11580156124a8573d6000803e3d6000fd5b505050506040513d601f19601f820116820180604052508101906124cc9190615065565b506040517f89afcb440000000000000000000000000000000000000000000000000000000081526001600160a01b03848116600483015260009182918c16906389afcb449060240160408051808303816000875af1158015612532573d6000803e3d6000fd5b505050506040513d601f19601f820116820180604052508101906125569190615082565b6040517f544caa560000000000000000000000000000000000000000000000000000000081526001600160a01b038d811660048301528c811660248301529294509092506000917f0000000000000000000000000000000000000000000000000000000000000000169063544caa56906044016040805180830381865afa1580156125e5573d6000803e3d6000fd5b505050506040513d601f19601f8201168201806040525081019061260991906150a6565b509050806001600160a01b03168b6001600160a01b03161461262c57818361262f565b82825b9095509350878510156126845760405162461bcd60e51b815260206004820152601d60248201527f526f757465723a20494e53554646494349454e545f415f414d4f554e54000000604482015260640161065e565b868410156126d45760405162461bcd60e51b815260206004820152601d60248201527f526f757465723a20494e53554646494349454e545f425f414d4f554e54000000604482015260640161065e565b50505097509795505050505050565b604080516001600160a01b0385811660248301528481166044830152606480830185905283518084039091018152608490920183526020820180517bffffffffffffffffffffffffffffffffffffffffffffffffffffffff167f23b872dd0000000000000000000000000000000000000000000000000000000017905291516000928392908816916127759190615110565b6000604051808303816000865af19150503d80600081146127b2576040519150601f19603f3d011682016040523d82523d6000602084013e6127b7565b606091505b50915091508180156127e15750805115806127e15750808060200190518101906127e19190615065565b6128525760405162461bcd60e51b8152602060048201526024808201527f5472616e7366657248656c7065723a205452414e534645525f46524f4d5f464160448201527f494c454400000000000000000000000000000000000000000000000000000000606482015260840161065e565b505050505050565b8260005b8351811015612c4a57600084828151811061287b5761287b614e5f565b6020026020010151905060008060008060008060008060007f00000000000000000000000000000000000000000000000000000000000000006001600160a01b031663b33d96b07f00000000000000000000000000000000000000000000000000000000000000008c8f6040518463ffffffff1660e01b8152600401612921939291906001600160a01b0393841681529183166020830152909116604082015260600190565b60c060405180830381865afa15801561293e573d6000803e3d6000fd5b505050506040513d601f19601f82011682018060405250810190612962919061512c565b9550955095509550955095506129ad858d6001600160a01b03166370a082318d6040518263ffffffff1660e01b8152600401610b9d91906001600160a01b0391909116815260200190565b6040517f671a11b500000000000000000000000000000000000000000000000000000000815260048101829052602481018790526044810186905263ffffffff80861660648301528085166084830152831660a48201529099507f00000000000000000000000000000000000000000000000000000000000000006001600160a01b03169063671a11b59060c401602060405180830381865afa158015612a58573d6000803e3d6000fd5b505050506040513d601f19601f82011682018060405250810190612a7c9190614eab565b9750859650505050505050600080856001600160a01b0316630dfe16816040518163ffffffff1660e01b8152600401602060405180830381865afa158015612ac8573d6000803e3d6000fd5b505050506040513d601f19601f82011682018060405250810190612aec9190614ec4565b6001600160a01b0316886001600160a01b031614612b0c57836000612b10565b6000845b91509150600060018b51612b24919061504e565b8810612b305789612b55565b8a612b3c8960016151a0565b81518110612b4c57612b4c614e5f565b60200260200101515b604080516000815260208101918290527f022c0d9f000000000000000000000000000000000000000000000000000000009091529091506001600160a01b0388169063022c0d9f90612bb090869086908690602481016151b8565b600060405180830381600087803b158015612bca57600080fd5b505af1158015612bde573d6000803e3d6000fd5b5050604080516001600160a01b038b81168252602082018a905288168183015290517fddac40937f35385a34f721af292e5a83fc5b840f722bff57c2fc71adba708c489350908190036060019150a1839850505050505050508080612c4290615015565b91505061285e565b5050505050565b600081612c6057506001612d36565b73eeeeeeeeeeeeeeeeeeeeeeeeeeeeeeeeeeeeeeee6001600160a01b0385161415612d27576040517f2e1a7d4d000000000000000000000000000000000000000000000000000000008152600481018390527f00000000000000000000000000000000000000000000000000000000000000006001600160a01b031690632e1a7d4d90602401600060405180830381600087803b158015612d0057600080fd5b505af1158015612d14573d6000803e3d6000fd5b50505050612d228383613948565b612d32565b612d32848484613a30565b5060015b9392505050565b7f00000000000000000000000000000000000000000000000000000000000000006001600160a01b031663d0e30db0836040518263ffffffff1660e01b81526004016000604051808303818588803b158015612d9857600080fd5b505af1158015612dac573d6000803e3d6000fd5b50506040517fa9059cbb0000000000000000000000000000000000000000000000000000000081526001600160a01b038581166004830152602482018790527f000000000000000000000000000000000000000000000000000000000000000016935063a9059cbb925060440190506020604051808303816000875af1158015612e3a573d6000803e3d6000fd5b505050506040513d601f19601f82011682018060405250810190612e5e9190615065565b612e6a57612e6a61440a565b5050565b6000612d3683836001614399565b600073eeeeeeeeeeeeeeeeeeeeeeeeeeeeeeeeeeeeeeee6001600160a01b0384161415612f1c577f00000000000000000000000000000000000000000000000000000000000000006001600160a01b031663d0e30db0346040518263ffffffff1660e01b81526004016000604051808303818588803b158015612efe57600080fd5b505af1158015612f12573d6000803e3d6000fd5b5050505050612f28565b612f28833330856126e3565b50600192915050565b604080516001808252818301909252600091829190602080830190803683370190505090508481600081518110612f6a57612f6a614e5f565b6001600160a01b0392831660209182029290920101526040517f67f84adc0000000000000000000000000000000000000000000000000000000081526000917f000000000000000000000000000000000000000000000000000000000000000016906367f84adc90613008907f0000000000000000000000000000000000000000000000000000000000000000908c908c908b908990600401614ee1565b600060405180830381865afa158015613025573d6000803e3d6000fd5b505050506040513d6000823e601f3d908101601f1916820160405261304d9190810190614f55565b90508060008151811061306257613062614e5f565b60200260200101519250838311156130bc5760405162461bcd60e51b815260206004820152601e60248201527f526f757465723a204558434553534956455f494e5055545f414d4f554e540000604482015260640161065e565b611152888785846001815181106130d5576130d5614e5f565b60200260200101515b6130e9848484613a30565b60008390506000816001600160a01b0316630dfe16816040518163ffffffff1660e01b8152600401602060405180830381865afa15801561312e573d6000803e3d6000fd5b505050506040513d601f19601f820116820180604052508101906131529190614ec4565b90506000806000836001600160a01b0316896001600160a01b03161461317b57856000856131e0565b600086866001600160a01b031663d21220a76040518163ffffffff1660e01b8152600401602060405180830381865afa1580156131bc573d6000803e3d6000fd5b505050506040513d601f19601f820116820180604052508101906131e09190614ec4565b604080516000815260208101918290527f022c0d9f0000000000000000000000000000000000000000000000000000000090915292955090935091506001600160a01b0386169063022c0d9f9061324090869086903090602481016151b8565b600060405180830381600087803b15801561325a57600080fd5b505af115801561326e573d6000803e3d6000fd5b5050604080516001600160a01b038c81168252602082018b905285168183015290517fddac40937f35385a34f721af292e5a83fc5b840f722bff57c2fc71adba708c489350908190036060019150a1505050505050505050565b6000806132d583856151a0565b9050612d368482101560006143b4565b600073eeeeeeeeeeeeeeeeeeeeeeeeeeeeeeeeeeeeeeee6001600160a01b03831614156133b4576040517f70a082310000000000000000000000000000000000000000000000000000000081523060048201527f00000000000000000000000000000000000000000000000000000000000000006001600160a01b0316906370a08231906024015b602060405180830381865afa15801561338a573d6000803e3d6000fd5b505050506040513d601f19601f820116820180604052508101906133ae9190614eab565b92915050565b6040517f70a082310000000000000000000000000000000000000000000000000000000081523060048201526001600160a01b038316906370a082319060240161336d565b919050565b6040517f119220a50000000000000000000000000000000000000000000000000000000081526060906001600160a01b037f0000000000000000000000000000000000000000000000000000000000000000169063119220a59061348e907f0000000000000000000000000000000000000000000000000000000000000000908a908a908a908990600401614ee1565b600060405180830381865afa1580156134ab573d6000803e3d6000fd5b505050506040513d6000823e601f3d908101601f191682016040526134d39190810190614f55565b90508281600183516134e5919061504e565b815181106134f5576134f5614e5f565b602002602001015110156135715760405162461bcd60e51b815260206004820152602260248201527f526f757465723a20494e53554646494349454e545f4f55545055545f414d4f5560448201527f4e54000000000000000000000000000000000000000000000000000000000000606482015260840161065e565b95945050505050565b8360005b835181101561285257600084828151811061359b5761359b614e5f565b602002602001015190506000816001600160a01b0316630dfe16816040518163ffffffff1660e01b8152600401602060405180830381865afa1580156135e5573d6000803e3d6000fd5b505050506040513d601f19601f820116820180604052508101906136099190614ec4565b90506000876136198560016151a0565b8151811061362957613629614e5f565b602002602001015190506000806000846001600160a01b0316886001600160a01b03161461365a57836000866136bf565b600084876001600160a01b031663d21220a76040518163ffffffff1660e01b8152600401602060405180830381865afa15801561369b573d6000803e3d6000fd5b505050506040513d601f19601f820116820180604052508101906136bf9190614ec4565b925092509250600060018b516136d5919061504e565b88106136e15789613706565b8a6136ed8960016151a0565b815181106136fd576136fd614e5f565b60200260200101515b604080516000815260208101918290527f022c0d9f000000000000000000000000000000000000000000000000000000009091529091506001600160a01b0388169063022c0d9f9061376190879087908690602481016151b8565b600060405180830381600087803b15801561377b57600080fd5b505af115801561378f573d6000803e3d6000fd5b5050604080516001600160a01b038b81168252602082018a905286168183015290517fddac40937f35385a34f721af292e5a83fc5b840f722bff57c2fc71adba708c489350908190036060019150a18198505050505050505080806137f390615015565b91505061357e565b6040517f67f84adc0000000000000000000000000000000000000000000000000000000081526060906001600160a01b037f000000000000000000000000000000000000000000000000000000000000000016906367f84adc9061388d907f0000000000000000000000000000000000000000000000000000000000000000908b908b908b908a908a90600401615209565b600060405180830381865afa1580156138aa573d6000803e3d6000fd5b505050506040513d6000823e601f3d908101601f191682016040526138d29190810190614f55565b905083816000815181106138e8576138e8614e5f565b6020026020010151111561393e5760405162461bcd60e51b815260206004820152601e60248201527f526f757465723a204558434553534956455f494e5055545f414d4f554e540000604482015260640161065e565b9695505050505050565b604080516000808252602082019092526001600160a01b0384169083906040516139729190615110565b60006040518083038185875af1925050503d80600081146139af576040519150601f19603f3d011682016040523d82523d6000602084013e6139b4565b606091505b5050905080613a2b5760405162461bcd60e51b815260206004820152602360248201527f5472616e7366657248656c7065723a204554485f5452414e534645525f46414960448201527f4c45440000000000000000000000000000000000000000000000000000000000606482015260840161065e565b505050565b604080516001600160a01b038481166024830152604480830185905283518084039091018152606490920183526020820180517bffffffffffffffffffffffffffffffffffffffffffffffffffffffff167fa9059cbb000000000000000000000000000000000000000000000000000000001790529151600092839290871691613aba9190615110565b6000604051808303816000865af19150503d8060008114613af7576040519150601f19603f3d011682016040523d82523d6000602084013e613afc565b606091505b5091509150818015613b26575080511580613b26575080806020019051810190613b269190615065565b612c4a5760405162461bcd60e51b815260206004820152601f60248201527f5472616e7366657248656c7065723a205452414e534645525f4641494c454400604482015260640161065e565b6000613b7f868585613a30565b6040517fb33d96b00000000000000000000000000000000000000000000000000000000081526001600160a01b037f00000000000000000000000000000000000000000000000000000000000000008116600483015285811660248301528781166044830152600091829182918291829182917f0000000000000000000000000000000000000000000000000000000000000000169063b33d96b09060640160c060405180830381865afa158015613c3b573d6000803e3d6000fd5b505050506040513d601f19601f82011682018060405250810190613c5f919061512c565b95509550955095509550506000613cab868e6001600160a01b03166370a082318e6040518263ffffffff1660e01b8152600401610b9d91906001600160a01b0391909116815260200190565b6040517f671a11b500000000000000000000000000000000000000000000000000000000815260048101829052602481018890526044810187905263ffffffff80871660648301528086166084830152841660a48201529091507f00000000000000000000000000000000000000000000000000000000000000006001600160a01b03169063671a11b59060c401602060405180830381865afa158015613d56573d6000803e3d6000fd5b505050506040513d601f19601f82011682018060405250810190613d7a9190614eab565b6040517f70a08231000000000000000000000000000000000000000000000000000000008152306004820152909750600096506001600160a01b038d1695506370a0823194506024019250613dcd915050565b602060405180830381865afa158015613dea573d6000803e3d6000fd5b505050506040513d601f19601f82011682018060405250810190613e0e9190614eab565b9050600080876001600160a01b0316630dfe16816040518163ffffffff1660e01b8152600401602060405180830381865afa158015613e51573d6000803e3d6000fd5b505050506040513d601f19601f82011682018060405250810190613e759190614ec4565b6001600160a01b03168a6001600160a01b031614613e9557836000613e99565b6000845b604080516000815260208101918290527f022c0d9f0000000000000000000000000000000000000000000000000000000090915291935091506001600160a01b0389169063022c0d9f90613ef690859085903090602481016151b8565b600060405180830381600087803b158015613f1057600080fd5b505af1158015613f24573d6000803e3d6000fd5b5050604080516001600160a01b038c81168252602082018990528d168183015290517fddac40937f35385a34f721af292e5a83fc5b840f722bff57c2fc71adba708c489350908190036060019150a16040517f70a08231000000000000000000000000000000000000000000000000000000008152306004820152613fbe9084906001600160a01b038c16906370a0823190602401610b9d565b9450858510156140365760405162461bcd60e51b815260206004820152602260248201527f526f757465723a20494e53554646494349454e545f4f55545055545f414d4f5560448201527f4e54000000000000000000000000000000000000000000000000000000000000606482015260840161065e565b5050505095945050505050565b6000806140558989898989898961407e565b909250905061406688338b856126e3565b61407287338b846126e3565b97509795505050505050565b6040517f327494610000000000000000000000000000000000000000000000000000000081526001600160a01b038881166004830152878116602483015286811660448301526000918291829182917f000000000000000000000000000000000000000000000000000000000000000016906332749461906064016040805180830381865afa158015614115573d6000803e3d6000fd5b505050506040513d601f19601f820116820180604052508101906141399190615082565b9150915081600014801561414b575080155b1561415b578793508692506117fe565b6040517fad615dec0000000000000000000000000000000000000000000000000000000081526004810189905260248101839052604481018290526000907f00000000000000000000000000000000000000000000000000000000000000006001600160a01b03169063ad615dec90606401602060405180830381865afa1580156141ea573d6000803e3d6000fd5b505050506040513d601f19601f8201168201806040525081019061420e9190614eab565b905087811161427257858110156142675760405162461bcd60e51b815260206004820152601d60248201527f526f757465723a20494e53554646494349454e545f425f414d4f554e54000000604482015260640161065e565b8894509250826126d4565b6040517fad615dec0000000000000000000000000000000000000000000000000000000081526004810189905260248101839052604481018490526000907f00000000000000000000000000000000000000000000000000000000000000006001600160a01b03169063ad615dec90606401602060405180830381865afa158015614301573d6000803e3d6000fd5b505050506040513d601f19601f820116820180604052508101906143259190614eab565b9050898111156143375761433761440a565b878110156143875760405162461bcd60e51b815260206004820152601d60248201527f526f757465723a20494e53554646494349454e545f415f414d4f554e54000000604482015260640161065e565b9c979b50969950505050505050505050565b60006143a884841115836143b4565b6000613571848661504e565b81612e6a5762461bcd60e51b600090815260206004526007602452600a808304818104828106603090810160101b848706949093060160081b929092010166524551230000300160c81b604452612e6a91606490fd5b7f4e487b7100000000000000000000000000000000000000000000000000000000600052600160045260246000fd5b6001600160a01b038116811461444e57600080fd5b50565b80356133f981614439565b801515811461444e57600080fd5b803560ff811681146133f957600080fd5b60008060008060008060008060008060006101608c8e03121561449d57600080fd5b8b356144a881614439565b9a5060208c01356144b881614439565b995060408c0135985060608c0135975060808c0135965060a08c01356144dd81614439565b955060c08c0135945060e08c01356144f48161445c565b93506145036101008d0161446a565b92506101208c013591506101408c013590509295989b509295989b9093969950565b600080600080600080600060e0888a03121561454057600080fd5b873561454b81614439565b9650602088013561455b81614439565b955060408801359450606088013593506080880135925060a088013561458081614439565b8092505060c0880135905092959891949750929550565b6000806000806000806000806000806000806101808d8f0312156145ba57600080fd5b8c356145c581614439565b9b5060208d01356145d581614439565b9a5060408d01356145e581614439565b995060608d0135985060808d0135975060a08d0135965060c08d013561460a81614439565b955060e08d013594506101008d01356146228161445c565b93506146316101208e0161446a565b92506101408d013591506101608d013590509295989b509295989b509295989b565b60008083601f84011261466557600080fd5b50813567ffffffffffffffff81111561467d57600080fd5b6020830191508360208260051b850101111561469857600080fd5b9250929050565b600080600080600080600060c0888a0312156146ba57600080fd5b87356146c581614439565b96506020880135955060408801359450606088013567ffffffffffffffff8111156146ef57600080fd5b6146fb8a828b01614653565b909550935050608088013561470f81614439565b8092505060a0880135905092959891949750929550565b60008060008060008060a0878903121561473f57600080fd5b863561474a81614439565b955060208701359450604087013567ffffffffffffffff81111561476d57600080fd5b61477989828a01614653565b909550935050606087013561478d81614439565b80925050608087013590509295509295509295565b63ffffffff8116811461444e57600080fd5b600080600080600060a086880312156147cc57600080fd5b85356147d781614439565b94506020860135935060408601356147ee816147a2565b925060608601356147fe816147a2565b9150608086013561480e81614439565b809150509295509295909350565b7f4e487b7100000000000000000000000000000000000000000000000000000000600052604160045260246000fd5b60405160c0810167ffffffffffffffff8111828210171561486e5761486e61481c565b60405290565b604051601f8201601f1916810167ffffffffffffffff8111828210171561489d5761489d61481c565b604052919050565b600067ffffffffffffffff8211156148bf576148bf61481c565b5060051b60200190565b600082601f8301126148da57600080fd5b813560206148ef6148ea836148a5565b614874565b82815260059290921b8401810191818101908684111561490e57600080fd5b8286015b8481101561174157803567ffffffffffffffff8111156149325760008081fd5b8701603f810189136149445760008081fd5b8481013560406149566148ea836148a5565b82815260c0928302840182019288820191908d8511156149765760008081fd5b948301945b848610156149f75780868f0312156149935760008081fd5b61499b61484b565b86356149a681614439565b8152868b01356149b581614439565b818c0152868501356149c681614439565b81860152606087810135908201526080808801359082015260a080880135908201528352948501949189019161497b565b50875250505092840192508301614912565b600080600080600060a08688031215614a2157600080fd5b853567ffffffffffffffff811115614a3857600080fd5b614a44888289016148c9565b9550506020860135614a5581614439565b93506040860135614a6581614439565b94979396509394606081013594506080013592915050565b6020808252825182820181905260009190848201906040850190845b81811015614ab557835183529284019291840191600101614a99565b50909695505050505050565b60008060008060008060008060e0898b031215614add57600080fd5b8835614ae881614439565b97506020890135614af881614439565b96506040890135955060608901359450608089013567ffffffffffffffff811115614b2257600080fd5b614b2e8b828c01614653565b90955093505060a0890135614b4281614439565b8092505060c089013590509295985092959890939650565b600080600080600080600060e0888a031215614b7557600080fd5b8735614b8081614439565b9650602088810135614b9181614439565b96506040890135955060608901359450608089013567ffffffffffffffff811115614bbb57600080fd5b8901601f81018b13614bcc57600080fd5b8035614bda6148ea826148a5565b81815260059190911b8201830190838101908d831115614bf957600080fd5b928401925b82841015614c20578335614c1181614439565b82529284019290840190614bfe565b8097505050505050614c3460a08901614451565b915060c0880135905092959891949750929550565b60008060008060008060c08789031215614c6257600080fd5b863567ffffffffffffffff811115614c7957600080fd5b614c8589828a016148c9565b9650506020870135614c9681614439565b94506040870135614ca681614439565b959894975094956060810135955060808101359460a0909101359350915050565b600080600080600080600060e0888a031215614ce257600080fd5b8735614ced81614439565b96506020880135614cfd81614439565b955060408801359450606088013593506080880135614d1b816147a2565b925060a0880135614d2b816147a2565b915060c0880135614d3b81614439565b8091505092959891949750929550565b600080600080600080600080610100898b031215614d6857600080fd5b8835614d7381614439565b97506020890135614d8381614439565b96506040890135614d9381614439565b9550606089013594506080890135935060a0890135925060c0890135614db881614439565b8092505060e089013590509295985092959890939650565b60008060008060008060008060006101208a8c031215614def57600080fd5b8935614dfa81614439565b985060208a0135614e0a81614439565b975060408a0135614e1a81614439565b965060608a0135955060808a0135945060a08a0135935060c08a0135925060e08a0135614e4681614439565b809250506101008a013590509295985092959850929598565b7f4e487b7100000000000000000000000000000000000000000000000000000000600052603260045260246000fd5b600060208284031215614ea057600080fd5b8135612d3681614439565b600060208284031215614ebd57600080fd5b5051919050565b600060208284031215614ed657600080fd5b8151612d3681614439565b600060a082016001600160a01b038089168452602081891681860152818816604086015286606086015260a0608086015282865180855260c087019150828801945060005b81811015614f44578551851683529483019491830191600101614f26565b50909b9a5050505050505050505050565b60006020808385031215614f6857600080fd5b825167ffffffffffffffff811115614f7f57600080fd5b8301601f81018513614f9057600080fd5b8051614f9e6148ea826148a5565b81815260059190911b82018301908381019087831115614fbd57600080fd5b928401925b82841015614fdb57835182529284019290840190614fc2565b979650505050505050565b7f4e487b7100000000000000000000000000000000000000000000000000000000600052601160045260246000fd5b60007fffffffffffffffffffffffffffffffffffffffffffffffffffffffffffffffff82141561504757615047614fe6565b5060010190565b60008282101561506057615060614fe6565b500390565b60006020828403121561507757600080fd5b8151612d368161445c565b6000806040838503121561509557600080fd5b505080516020909101519092909150565b600080604083850312156150b957600080fd5b82516150c481614439565b60208401519092506150d581614439565b809150509250929050565b60005b838110156150fb5781810151838201526020016150e3565b8381111561510a576000848401525b50505050565b600082516151228184602087016150e0565b9190910192915050565b60008060008060008060c0878903121561514557600080fd5b865161515081614439565b8096505060208701519450604087015193506060870151615170816147a2565b6080880151909350615181816147a2565b60a0880151909250615192816147a2565b809150509295509295509295565b600082198211156151b3576151b3614fe6565b500190565b8481528360208201526001600160a01b038316604082015260806060820152600082518060808401526151f28160a08501602087016150e0565b601f01601f19169190910160a00195945050505050565b600060a082016001600160a01b03808a1684526020818a1681860152818916604086015287606086015260a060808601528286845260c08601905087935060005b8781101561527157843561525d81614439565b84168252938201939082019060010161524a565b509b9a505050505050505050505056fea2646970667358221220bf840526d516c057400df58e9bfa8f795e1c46ca8b9c69c5ed5b5283ba03dce364736f6c634300080a0033",
  "linkReferences": {},
  "deployedLinkReferences": {}
}