{
  "_format": "hh-sol-artifact-1",
  "contractName": "RequiemRouter",
  "sourceName": "contracts/RequiemRouter.sol",
  "abi": [
    {
      "inputs": [
        {
          "internalType": "address",
          "name": "_factory",
          "type": "address"
        },
        {
          "internalType": "address",
          "name": "_WETH",
          "type": "address"
        }
      ],
      "stateMutability": "nonpayable",
      "type": "constructor"
    },
    {
      "anonymous": false,
      "inputs": [
        {
          "indexed": false,
          "internalType": "address",
          "name": "pair",
          "type": "address"
        },
        {
          "indexed": false,
          "internalType": "uint256",
          "name": "amountOut",
          "type": "uint256"
        },
        {
          "indexed": false,
          "internalType": "address",
          "name": "output",
          "type": "address"
        }
      ],
      "name": "Exchange",
      "type": "event"
    },
    {
      "inputs": [],
      "name": "WETH",
      "outputs": [
        {
          "internalType": "address",
          "name": "",
          "type": "address"
        }
      ],
      "stateMutability": "view",
      "type": "function"
    },
    {
      "inputs": [
        {
          "internalType": "address",
          "name": "pair",
          "type": "address"
        },
        {
          "internalType": "address",
          "name": "tokenA",
          "type": "address"
        },
        {
          "internalType": "address",
          "name": "tokenB",
          "type": "address"
        },
        {
          "internalType": "uint256",
          "name": "amountADesired",
          "type": "uint256"
        },
        {
          "internalType": "uint256",
          "name": "amountBDesired",
          "type": "uint256"
        },
        {
          "internalType": "uint256",
          "name": "amountAMin",
          "type": "uint256"
        },
        {
          "internalType": "uint256",
          "name": "amountBMin",
          "type": "uint256"
        },
        {
          "internalType": "address",
          "name": "to",
          "type": "address"
        },
        {
          "internalType": "uint256",
          "name": "deadline",
          "type": "uint256"
        }
      ],
      "name": "addLiquidity",
      "outputs": [
        {
          "internalType": "uint256",
          "name": "amountA",
          "type": "uint256"
        },
        {
          "internalType": "uint256",
          "name": "amountB",
          "type": "uint256"
        },
        {
          "internalType": "uint256",
          "name": "liquidity",
          "type": "uint256"
        }
      ],
      "stateMutability": "nonpayable",
      "type": "function"
    },
    {
      "inputs": [
        {
          "internalType": "address",
          "name": "pair",
          "type": "address"
        },
        {
          "internalType": "address",
          "name": "token",
          "type": "address"
        },
        {
          "internalType": "uint256",
          "name": "amountTokenDesired",
          "type": "uint256"
        },
        {
          "internalType": "uint256",
          "name": "amountTokenMin",
          "type": "uint256"
        },
        {
          "internalType": "uint256",
          "name": "amountETHMin",
          "type": "uint256"
        },
        {
          "internalType": "address",
          "name": "to",
          "type": "address"
        },
        {
          "internalType": "uint256",
          "name": "deadline",
          "type": "uint256"
        }
      ],
      "name": "addLiquidityETH",
      "outputs": [
        {
          "internalType": "uint256",
          "name": "amountToken",
          "type": "uint256"
        },
        {
          "internalType": "uint256",
          "name": "amountETH",
          "type": "uint256"
        },
        {
          "internalType": "uint256",
          "name": "liquidity",
          "type": "uint256"
        }
      ],
      "stateMutability": "payable",
      "type": "function"
    },
    {
      "inputs": [
        {
          "internalType": "address",
          "name": "tokenA",
          "type": "address"
        },
        {
          "internalType": "address",
          "name": "tokenB",
          "type": "address"
        },
        {
          "internalType": "uint256",
          "name": "amountA",
          "type": "uint256"
        },
        {
          "internalType": "uint256",
          "name": "amountB",
          "type": "uint256"
        },
        {
          "internalType": "uint32",
          "name": "tokenWeightA",
          "type": "uint32"
        },
        {
          "internalType": "uint32",
          "name": "swapFee",
          "type": "uint32"
        },
        {
          "internalType": "address",
          "name": "to",
          "type": "address"
        }
      ],
      "name": "createPair",
      "outputs": [
        {
          "internalType": "uint256",
          "name": "liquidity",
          "type": "uint256"
        }
      ],
      "stateMutability": "nonpayable",
      "type": "function"
    },
    {
      "inputs": [
        {
          "internalType": "address",
          "name": "token",
          "type": "address"
        },
        {
          "internalType": "uint256",
          "name": "amountToken",
          "type": "uint256"
        },
        {
          "internalType": "uint32",
          "name": "tokenWeight",
          "type": "uint32"
        },
        {
          "internalType": "uint32",
          "name": "swapFee",
          "type": "uint32"
        },
        {
          "internalType": "address",
          "name": "to",
          "type": "address"
        }
      ],
      "name": "createPairETH",
      "outputs": [
        {
          "internalType": "uint256",
          "name": "liquidity",
          "type": "uint256"
        }
      ],
      "stateMutability": "payable",
      "type": "function"
    },
    {
      "inputs": [],
      "name": "factory",
      "outputs": [
        {
          "internalType": "address",
          "name": "",
          "type": "address"
        }
      ],
      "stateMutability": "view",
      "type": "function"
    },
    {
      "inputs": [],
      "name": "formula",
      "outputs": [
        {
          "internalType": "address",
          "name": "",
          "type": "address"
        }
      ],
      "stateMutability": "view",
      "type": "function"
    },
    {
      "inputs": [
        {
          "components": [
            {
              "internalType": "address",
              "name": "pool",
              "type": "address"
            },
            {
              "internalType": "address",
              "name": "tokenIn",
              "type": "address"
            },
            {
              "internalType": "address",
              "name": "tokenOut",
              "type": "address"
            },
            {
              "internalType": "uint256",
              "name": "swapAmount",
              "type": "uint256"
            },
            {
              "internalType": "uint256",
              "name": "limitReturnAmount",
              "type": "uint256"
            },
            {
              "internalType": "uint256",
              "name": "maxPrice",
              "type": "uint256"
            }
          ],
          "internalType": "struct IRequiemRouter.Swap[][]",
          "name": "swapSequences",
          "type": "tuple[][]"
        },
        {
          "internalType": "address",
          "name": "tokenIn",
          "type": "address"
        },
        {
          "internalType": "address",
          "name": "tokenOut",
          "type": "address"
        },
        {
          "internalType": "uint256",
          "name": "totalAmountIn",
          "type": "uint256"
        },
        {
          "internalType": "uint256",
          "name": "minTotalAmountOut",
          "type": "uint256"
        },
        {
          "internalType": "uint256",
          "name": "deadline",
          "type": "uint256"
        }
      ],
      "name": "multihopBatchSwapExactIn",
      "outputs": [
        {
          "internalType": "uint256",
          "name": "totalAmountOut",
          "type": "uint256"
        }
      ],
      "stateMutability": "payable",
      "type": "function"
    },
    {
      "inputs": [
        {
          "components": [
            {
              "internalType": "address",
              "name": "pool",
              "type": "address"
            },
            {
              "internalType": "address",
              "name": "tokenIn",
              "type": "address"
            },
            {
              "internalType": "address",
              "name": "tokenOut",
              "type": "address"
            },
            {
              "internalType": "uint256",
              "name": "swapAmount",
              "type": "uint256"
            },
            {
              "internalType": "uint256",
              "name": "limitReturnAmount",
              "type": "uint256"
            },
            {
              "internalType": "uint256",
              "name": "maxPrice",
              "type": "uint256"
            }
          ],
          "internalType": "struct IRequiemRouter.Swap[][]",
          "name": "swapSequences",
          "type": "tuple[][]"
        },
        {
          "internalType": "address",
          "name": "tokenIn",
          "type": "address"
        },
        {
          "internalType": "address",
          "name": "tokenOut",
          "type": "address"
        },
        {
          "internalType": "uint256",
          "name": "maxTotalAmountIn",
          "type": "uint256"
        },
        {
          "internalType": "uint256",
          "name": "deadline",
          "type": "uint256"
        }
      ],
      "name": "multihopBatchSwapExactOut",
      "outputs": [
        {
          "internalType": "uint256",
          "name": "totalAmountIn",
          "type": "uint256"
        }
      ],
      "stateMutability": "payable",
      "type": "function"
    },
    {
      "inputs": [
        {
          "internalType": "address",
          "name": "pair",
          "type": "address"
        },
        {
          "internalType": "address",
          "name": "tokenA",
          "type": "address"
        },
        {
          "internalType": "address",
          "name": "tokenB",
          "type": "address"
        },
        {
          "internalType": "uint256",
          "name": "liquidity",
          "type": "uint256"
        },
        {
          "internalType": "uint256",
          "name": "amountAMin",
          "type": "uint256"
        },
        {
          "internalType": "uint256",
          "name": "amountBMin",
          "type": "uint256"
        },
        {
          "internalType": "address",
          "name": "to",
          "type": "address"
        },
        {
          "internalType": "uint256",
          "name": "deadline",
          "type": "uint256"
        }
      ],
      "name": "removeLiquidity",
      "outputs": [
        {
          "internalType": "uint256",
          "name": "amountA",
          "type": "uint256"
        },
        {
          "internalType": "uint256",
          "name": "amountB",
          "type": "uint256"
        }
      ],
      "stateMutability": "nonpayable",
      "type": "function"
    },
    {
      "inputs": [
        {
          "internalType": "address",
          "name": "pair",
          "type": "address"
        },
        {
          "internalType": "address",
          "name": "token",
          "type": "address"
        },
        {
          "internalType": "uint256",
          "name": "liquidity",
          "type": "uint256"
        },
        {
          "internalType": "uint256",
          "name": "amountTokenMin",
          "type": "uint256"
        },
        {
          "internalType": "uint256",
          "name": "amountETHMin",
          "type": "uint256"
        },
        {
          "internalType": "address",
          "name": "to",
          "type": "address"
        },
        {
          "internalType": "uint256",
          "name": "deadline",
          "type": "uint256"
        }
      ],
      "name": "removeLiquidityETH",
      "outputs": [
        {
          "internalType": "uint256",
          "name": "amountToken",
          "type": "uint256"
        },
        {
          "internalType": "uint256",
          "name": "amountETH",
          "type": "uint256"
        }
      ],
      "stateMutability": "nonpayable",
      "type": "function"
    },
    {
      "inputs": [
        {
          "internalType": "address",
          "name": "pair",
          "type": "address"
        },
        {
          "internalType": "address",
          "name": "token",
          "type": "address"
        },
        {
          "internalType": "uint256",
          "name": "liquidity",
          "type": "uint256"
        },
        {
          "internalType": "uint256",
          "name": "amountTokenMin",
          "type": "uint256"
        },
        {
          "internalType": "uint256",
          "name": "amountETHMin",
          "type": "uint256"
        },
        {
          "internalType": "address",
          "name": "to",
          "type": "address"
        },
        {
          "internalType": "uint256",
          "name": "deadline",
          "type": "uint256"
        }
      ],
      "name": "removeLiquidityETHSupportingFeeOnTransferTokens",
      "outputs": [
        {
          "internalType": "uint256",
          "name": "amountETH",
          "type": "uint256"
        }
      ],
      "stateMutability": "nonpayable",
      "type": "function"
    },
    {
      "inputs": [
        {
          "internalType": "address",
          "name": "pair",
          "type": "address"
        },
        {
          "internalType": "address",
          "name": "token",
          "type": "address"
        },
        {
          "internalType": "uint256",
          "name": "liquidity",
          "type": "uint256"
        },
        {
          "internalType": "uint256",
          "name": "amountTokenMin",
          "type": "uint256"
        },
        {
          "internalType": "uint256",
          "name": "amountETHMin",
          "type": "uint256"
        },
        {
          "internalType": "address",
          "name": "to",
          "type": "address"
        },
        {
          "internalType": "uint256",
          "name": "deadline",
          "type": "uint256"
        },
        {
          "internalType": "bool",
          "name": "approveMax",
          "type": "bool"
        },
        {
          "internalType": "uint8",
          "name": "v",
          "type": "uint8"
        },
        {
          "internalType": "bytes32",
          "name": "r",
          "type": "bytes32"
        },
        {
          "internalType": "bytes32",
          "name": "s",
          "type": "bytes32"
        }
      ],
      "name": "removeLiquidityETHWithPermit",
      "outputs": [
        {
          "internalType": "uint256",
          "name": "amountToken",
          "type": "uint256"
        },
        {
          "internalType": "uint256",
          "name": "amountETH",
          "type": "uint256"
        }
      ],
      "stateMutability": "nonpayable",
      "type": "function"
    },
    {
      "inputs": [
        {
          "internalType": "address",
          "name": "pair",
          "type": "address"
        },
        {
          "internalType": "address",
          "name": "token",
          "type": "address"
        },
        {
          "internalType": "uint256",
          "name": "liquidity",
          "type": "uint256"
        },
        {
          "internalType": "uint256",
          "name": "amountTokenMin",
          "type": "uint256"
        },
        {
          "internalType": "uint256",
          "name": "amountETHMin",
          "type": "uint256"
        },
        {
          "internalType": "address",
          "name": "to",
          "type": "address"
        },
        {
          "internalType": "uint256",
          "name": "deadline",
          "type": "uint256"
        },
        {
          "internalType": "bool",
          "name": "approveMax",
          "type": "bool"
        },
        {
          "internalType": "uint8",
          "name": "v",
          "type": "uint8"
        },
        {
          "internalType": "bytes32",
          "name": "r",
          "type": "bytes32"
        },
        {
          "internalType": "bytes32",
          "name": "s",
          "type": "bytes32"
        }
      ],
      "name": "removeLiquidityETHWithPermitSupportingFeeOnTransferTokens",
      "outputs": [
        {
          "internalType": "uint256",
          "name": "amountETH",
          "type": "uint256"
        }
      ],
      "stateMutability": "nonpayable",
      "type": "function"
    },
    {
      "inputs": [
        {
          "internalType": "address",
          "name": "pair",
          "type": "address"
        },
        {
          "internalType": "address",
          "name": "tokenA",
          "type": "address"
        },
        {
          "internalType": "address",
          "name": "tokenB",
          "type": "address"
        },
        {
          "internalType": "uint256",
          "name": "liquidity",
          "type": "uint256"
        },
        {
          "internalType": "uint256",
          "name": "amountAMin",
          "type": "uint256"
        },
        {
          "internalType": "uint256",
          "name": "amountBMin",
          "type": "uint256"
        },
        {
          "internalType": "address",
          "name": "to",
          "type": "address"
        },
        {
          "internalType": "uint256",
          "name": "deadline",
          "type": "uint256"
        },
        {
          "internalType": "bool",
          "name": "approveMax",
          "type": "bool"
        },
        {
          "internalType": "uint8",
          "name": "v",
          "type": "uint8"
        },
        {
          "internalType": "bytes32",
          "name": "r",
          "type": "bytes32"
        },
        {
          "internalType": "bytes32",
          "name": "s",
          "type": "bytes32"
        }
      ],
      "name": "removeLiquidityWithPermit",
      "outputs": [
        {
          "internalType": "uint256",
          "name": "amountA",
          "type": "uint256"
        },
        {
          "internalType": "uint256",
          "name": "amountB",
          "type": "uint256"
        }
      ],
      "stateMutability": "nonpayable",
      "type": "function"
    },
    {
      "inputs": [
        {
          "internalType": "address",
          "name": "tokenOut",
          "type": "address"
        },
        {
          "internalType": "uint256",
          "name": "amountOut",
          "type": "uint256"
        },
        {
          "internalType": "address[]",
          "name": "path",
          "type": "address[]"
        },
        {
          "internalType": "address",
          "name": "to",
          "type": "address"
        },
        {
          "internalType": "uint256",
          "name": "deadline",
          "type": "uint256"
        }
      ],
      "name": "swapETHForExactTokens",
      "outputs": [
        {
          "internalType": "uint256[]",
          "name": "amounts",
          "type": "uint256[]"
        }
      ],
      "stateMutability": "payable",
      "type": "function"
    },
    {
      "inputs": [
        {
          "internalType": "address",
          "name": "tokenOut",
          "type": "address"
        },
        {
          "internalType": "uint256",
          "name": "amountOutMin",
          "type": "uint256"
        },
        {
          "internalType": "address[]",
          "name": "path",
          "type": "address[]"
        },
        {
          "internalType": "address",
          "name": "to",
          "type": "address"
        },
        {
          "internalType": "uint256",
          "name": "deadline",
          "type": "uint256"
        }
      ],
      "name": "swapExactETHForTokens",
      "outputs": [
        {
          "internalType": "uint256[]",
          "name": "amounts",
          "type": "uint256[]"
        }
      ],
      "stateMutability": "payable",
      "type": "function"
    },
    {
      "inputs": [
        {
          "internalType": "address",
          "name": "tokenOut",
          "type": "address"
        },
        {
          "internalType": "uint256",
          "name": "amountOutMin",
          "type": "uint256"
        },
        {
          "internalType": "address[]",
          "name": "path",
          "type": "address[]"
        },
        {
          "internalType": "address",
          "name": "to",
          "type": "address"
        },
        {
          "internalType": "uint256",
          "name": "deadline",
          "type": "uint256"
        }
      ],
      "name": "swapExactETHForTokensSupportingFeeOnTransferTokens",
      "outputs": [],
      "stateMutability": "payable",
      "type": "function"
    },
    {
      "inputs": [
        {
          "internalType": "address",
          "name": "tokenIn",
          "type": "address"
        },
        {
          "internalType": "uint256",
          "name": "amountIn",
          "type": "uint256"
        },
        {
          "internalType": "uint256",
          "name": "amountOutMin",
          "type": "uint256"
        },
        {
          "internalType": "address[]",
          "name": "path",
          "type": "address[]"
        },
        {
          "internalType": "address",
          "name": "to",
          "type": "address"
        },
        {
          "internalType": "uint256",
          "name": "deadline",
          "type": "uint256"
        }
      ],
      "name": "swapExactTokensForETH",
      "outputs": [
        {
          "internalType": "uint256[]",
          "name": "amounts",
          "type": "uint256[]"
        }
      ],
      "stateMutability": "nonpayable",
      "type": "function"
    },
    {
      "inputs": [
        {
          "internalType": "address",
          "name": "tokenIn",
          "type": "address"
        },
        {
          "internalType": "uint256",
          "name": "amountIn",
          "type": "uint256"
        },
        {
          "internalType": "uint256",
          "name": "amountOutMin",
          "type": "uint256"
        },
        {
          "internalType": "address[]",
          "name": "path",
          "type": "address[]"
        },
        {
          "internalType": "address",
          "name": "to",
          "type": "address"
        },
        {
          "internalType": "uint256",
          "name": "deadline",
          "type": "uint256"
        }
      ],
      "name": "swapExactTokensForETHSupportingFeeOnTransferTokens",
      "outputs": [],
      "stateMutability": "nonpayable",
      "type": "function"
    },
    {
      "inputs": [
        {
          "internalType": "address",
          "name": "tokenIn",
          "type": "address"
        },
        {
          "internalType": "address",
          "name": "tokenOut",
          "type": "address"
        },
        {
          "internalType": "uint256",
          "name": "amountIn",
          "type": "uint256"
        },
        {
          "internalType": "uint256",
          "name": "amountOutMin",
          "type": "uint256"
        },
        {
          "internalType": "address[]",
          "name": "path",
          "type": "address[]"
        },
        {
          "internalType": "address",
          "name": "to",
          "type": "address"
        },
        {
          "internalType": "uint256",
          "name": "deadline",
          "type": "uint256"
        }
      ],
      "name": "swapExactTokensForTokens",
      "outputs": [
        {
          "internalType": "uint256[]",
          "name": "amounts",
          "type": "uint256[]"
        }
      ],
      "stateMutability": "nonpayable",
      "type": "function"
    },
    {
      "inputs": [
        {
          "internalType": "address",
          "name": "tokenIn",
          "type": "address"
        },
        {
          "internalType": "address",
          "name": "tokenOut",
          "type": "address"
        },
        {
          "internalType": "uint256",
          "name": "amountIn",
          "type": "uint256"
        },
        {
          "internalType": "uint256",
          "name": "amountOutMin",
          "type": "uint256"
        },
        {
          "internalType": "address[]",
          "name": "path",
          "type": "address[]"
        },
        {
          "internalType": "address",
          "name": "to",
          "type": "address"
        },
        {
          "internalType": "uint256",
          "name": "deadline",
          "type": "uint256"
        }
      ],
      "name": "swapExactTokensForTokensSupportingFeeOnTransferTokens",
      "outputs": [],
      "stateMutability": "nonpayable",
      "type": "function"
    },
    {
      "inputs": [
        {
          "internalType": "address",
          "name": "tokenIn",
          "type": "address"
        },
        {
          "internalType": "uint256",
          "name": "amountOut",
          "type": "uint256"
        },
        {
          "internalType": "uint256",
          "name": "amountInMax",
          "type": "uint256"
        },
        {
          "internalType": "address[]",
          "name": "path",
          "type": "address[]"
        },
        {
          "internalType": "address",
          "name": "to",
          "type": "address"
        },
        {
          "internalType": "uint256",
          "name": "deadline",
          "type": "uint256"
        }
      ],
      "name": "swapTokensForExactETH",
      "outputs": [
        {
          "internalType": "uint256[]",
          "name": "amounts",
          "type": "uint256[]"
        }
      ],
      "stateMutability": "nonpayable",
      "type": "function"
    },
    {
      "inputs": [
        {
          "internalType": "address",
          "name": "tokenIn",
          "type": "address"
        },
        {
          "internalType": "address",
          "name": "tokenOut",
          "type": "address"
        },
        {
          "internalType": "uint256",
          "name": "amountOut",
          "type": "uint256"
        },
        {
          "internalType": "uint256",
          "name": "amountInMax",
          "type": "uint256"
        },
        {
          "internalType": "address[]",
          "name": "path",
          "type": "address[]"
        },
        {
          "internalType": "address",
          "name": "to",
          "type": "address"
        },
        {
          "internalType": "uint256",
          "name": "deadline",
          "type": "uint256"
        }
      ],
      "name": "swapTokensForExactTokens",
      "outputs": [
        {
          "internalType": "uint256[]",
          "name": "amounts",
          "type": "uint256[]"
        }
      ],
      "stateMutability": "nonpayable",
      "type": "function"
    },
    {
      "stateMutability": "payable",
      "type": "receive"
    }
  ],
  "bytecode": "0x60e06040523480156200001157600080fd5b5060405162005df738038062005df78339810160408190526200003491620000db565b6001600160a01b038216608081905260408051634b75f54f60e01b81529051634b75f54f916004808201926020929091908290030181865afa1580156200007f573d6000803e3d6000fd5b505050506040513d601f19601f82011682018060405250810190620000a5919062000113565b6001600160a01b0390811660a0521660c0525062000138565b80516001600160a01b0381168114620000d657600080fd5b919050565b60008060408385031215620000ef57600080fd5b620000fa83620000be565b91506200010a60208401620000be565b90509250929050565b6000602082840312156200012657600080fd5b6200013182620000be565b9392505050565b60805160a05160c051615b7e62000279600039600081816101ac015281816103a70152818161096101528181610bd401528181610dac0152818161137401528181611867015281816118c8015281816119f4015281816122170152818161237101528181612535015281816125ad01528181612614015281816131cc015281816132640152818161332c015281816133f1015261393301526000818161025301528181611059015281816129b301528181612d1e01528181612ec60152818161351101528181613a5101528181613ee10152818161433a01528181614467015281816148be0152818161498a0152614ac801526000818161042e01528181610ded0152818161109501528181611f1f0152818161275701528181612d5a0152818161353e01528181613a7e01528181613f0e01526142f50152615b7e6000f3fe60806040526004361061018f5760003560e01c8063b05f579e116100d6578063d59e44ee1161007f578063fa3219d511610059578063fa3219d5146104e3578063fbf4513514610503578063fde1adda1461052357600080fd5b8063d59e44ee14610483578063e1f4a784146104a3578063ebb5d2e9146104c357600080fd5b8063c45a0155116100b0578063c45a01551461041c578063ce81963214610450578063d0f2c82a1461046357600080fd5b8063b05f579e146103c9578063b56b681d146103dc578063bff51d71146103fc57600080fd5b80636cb4942811610138578063a4aabb0811610112578063a4aabb0814610355578063a67d0e3c14610375578063ad5c46481461039557600080fd5b80636cb4942814610302578063840c34d0146103155780639c91fcb51461032857600080fd5b80634c17fd7c116101695780634c17fd7c1461029a5780635cae0310146102cf578063674ee80b146102ef57600080fd5b80630e2f024c146101e05780633990ba54146102135780634b75f54f1461024157600080fd5b366101db573373ffffffffffffffffffffffffffffffffffffffff7f000000000000000000000000000000000000000000000000000000000000000016146101d9576101d9614c61565b005b600080fd5b3480156101ec57600080fd5b506102006101fb366004614cdf565b610536565b6040519081526020015b60405180910390f35b610226610221366004614d89565b610633565b6040805193845260208401929092529082015260600161020a565b34801561024d57600080fd5b506102757f000000000000000000000000000000000000000000000000000000000000000081565b60405173ffffffffffffffffffffffffffffffffffffffff909116815260200161020a565b3480156102a657600080fd5b506102ba6102b5366004614dfb565b6106ca565b6040805192835260208301919091520161020a565b3480156102db57600080fd5b506101d96102ea366004614f03565b610853565b6101d96102fd366004614f8a565b610a9e565b610200610310366004615018565b610d67565b61020061032336600461528b565b610e78565b34801561033457600080fd5b50610348610343366004614f03565b611301565b60405161020a91906152ff565b34801561036157600080fd5b506102ba610370366004614cdf565b6114af565b34801561038157600080fd5b506101d9610390366004615343565b6115b2565b3480156103a157600080fd5b506102757f000000000000000000000000000000000000000000000000000000000000000081565b6103486103d7366004614f8a565b6117f5565b3480156103e857600080fd5b506102ba6103f7366004614d89565b61197f565b34801561040857600080fd5b506103486104173660046153dc565b611a59565b34801561042857600080fd5b506102757f000000000000000000000000000000000000000000000000000000000000000081565b61020061045e3660046154cb565b611b20565b34801561046f57600080fd5b5061020061047e366004615549565b611eb9565b34801561048f57600080fd5b5061034861049e366004615343565b612032565b3480156104af57600080fd5b506102ba6104be3660046155cd565b612114565b3480156104cf57600080fd5b506102006104de366004614d89565b6121a3565b3480156104ef57600080fd5b506103486104fe366004614f03565b6122fe565b34801561050f57600080fd5b5061022661051e366004615652565b612399565b610348610531366004614f8a565b6124c3565b60008085610544578a610566565b7fffffffffffffffffffffffffffffffffffffffffffffffffffffffffffffffff5b6040517fd505accf000000000000000000000000000000000000000000000000000000008152336004820152306024820152604481018290526064810189905260ff8716608482015260a4810186905260c4810185905290915073ffffffffffffffffffffffffffffffffffffffff8e169063d505accf9060e401600060405180830381600087803b1580156105fb57600080fd5b505af115801561060f573d6000803e3d6000fd5b505050506106228d8d8d8d8d8d8d6121a3565b9d9c50505050505050505050505050565b600080600083428110156106a8576040517f08c379a000000000000000000000000000000000000000000000000000000000815260206004820152600f60248201527f526f757465723a2045585049524544000000000000000000000000000000000060448201526064015b60405180910390fd5b6106b68b8b8b8b8b8b612608565b919d909c50909a5098505050505050505050565b6000808642811015610738576040517f08c379a000000000000000000000000000000000000000000000000000000000815260206004820152600f60248201527f526f757465723a20455850495245440000000000000000000000000000000000604482015260640161069f565b600087610745578c610767565b7fffffffffffffffffffffffffffffffffffffffffffffffffffffffffffffffff5b90508f73ffffffffffffffffffffffffffffffffffffffff1663d505accf3330848d8c8c8c6040518863ffffffff1660e01b81526004016107f7979695949392919073ffffffffffffffffffffffffffffffffffffffff97881681529590961660208601526040850193909352606084019190915260ff16608083015260a082015260c081019190915260e00190565b600060405180830381600087803b15801561081157600080fd5b505af1158015610825573d6000803e3d6000fd5b50505050506108398f8f8f8f8f8f8f61270d565b8093508194505050509c509c9a5050505050505050505050565b80428110156108be576040517f08c379a000000000000000000000000000000000000000000000000000000000815260206004820152600f60248201527f526f757465723a20455850495245440000000000000000000000000000000000604482015260640161069f565b6108f18833878760008181106108d6576108d66156e1565b90506020020160208101906108eb9190615710565b8a612b45565b61093088868680806020026020016040519081016040528093929190818152602001838360200280828437600092019190915250309250612ce3915050565b6040517f70a082310000000000000000000000000000000000000000000000000000000081523060048201526000907f000000000000000000000000000000000000000000000000000000000000000073ffffffffffffffffffffffffffffffffffffffff16906370a0823190602401602060405180830381865afa1580156109bd573d6000803e3d6000fd5b505050506040513d601f19601f820116820180604052508101906109e1919061572d565b905086811015610a73576040517f08c379a000000000000000000000000000000000000000000000000000000000815260206004820152602260248201527f526f757465723a20494e53554646494349454e545f4f55545055545f414d4f5560448201527f4e54000000000000000000000000000000000000000000000000000000000000606482015260840161069f565b610a9273eeeeeeeeeeeeeeeeeeeeeeeeeeeeeeeeeeeeeeee858361315c565b50505050505050505050565b8042811015610b09576040517f08c379a000000000000000000000000000000000000000000000000000000000815260206004820152600f60248201527f526f757465723a20455850495245440000000000000000000000000000000000604482015260640161069f565b34610b39818787600081610b1f57610b1f6156e1565b9050602002016020810190610b349190615710565b613262565b6040517f70a0823100000000000000000000000000000000000000000000000000000000815273ffffffffffffffffffffffffffffffffffffffff8581166004830152600091908a16906370a0823190602401602060405180830381865afa158015610ba9573d6000803e3d6000fd5b505050506040513d601f19601f82011682018060405250810190610bcd919061572d565b9050610c2e7f00000000000000000000000000000000000000000000000000000000000000008888808060200260200160405190810160405280939291908181526020018383602002808284376000920191909152508a9250612ce3915050565b6040517f70a0823100000000000000000000000000000000000000000000000000000000815273ffffffffffffffffffffffffffffffffffffffff86811660048301528991610cce918491908d16906370a08231906024015b602060405180830381865afa158015610ca4573d6000803e3d6000fd5b505050506040513d601f19601f82011682018060405250810190610cc8919061572d565b906133ad565b1015610d5c576040517f08c379a000000000000000000000000000000000000000000000000000000000815260206004820152602260248201527f526f757465723a20494e53554646494349454e545f4f55545055545f414d4f5560448201527f4e54000000000000000000000000000000000000000000000000000000000000606482015260840161069f565b505050505050505050565b6040517f14572adb00000000000000000000000000000000000000000000000000000000815273ffffffffffffffffffffffffffffffffffffffff86811660048301527f00000000000000000000000000000000000000000000000000000000000000008116602483015263ffffffff80861660448401528416606483015260009182917f000000000000000000000000000000000000000000000000000000000000000016906314572adb906084016020604051808303816000875af1158015610e36573d6000803e3d6000fd5b505050506040513d601f19601f82011682018060405250810190610e5a9190615746565b9050610e6b81888860008088612608565b9998505050505050505050565b60008142811015610ee5576040517f08c379a000000000000000000000000000000000000000000000000000000000815260206004820152600f60248201527f526f757465723a20455850495245440000000000000000000000000000000000604482015260640161069f565b610eef86856133bb565b5060005b8751811015611269576000888281518110610f1057610f106156e1565b60200260200101515160011415610f82576000898381518110610f3557610f356156e1565b6020026020010151600081518110610f4f57610f4f6156e1565b60200260200101519050610f7a8160200151826040015183600001518460600151856080015161348a565b915050611249565b6000808a8481518110610f9757610f976156e1565b6020026020010151600181518110610fb157610fb16156e1565b602002602001015190506000600167ffffffffffffffff811115610fd757610fd7615080565b604051908082528060200260200182016040528015611000578160200160208202803683370190505b50905081600001518160008151811061101b5761101b6156e1565b602002602001019073ffffffffffffffffffffffffffffffffffffffff16908173ffffffffffffffffffffffffffffffffffffffff168152505060007f000000000000000000000000000000000000000000000000000000000000000073ffffffffffffffffffffffffffffffffffffffff166367f84adc7f0000000000000000000000000000000000000000000000000000000000000000856020015186604001518760600151876040518663ffffffff1660e01b81526004016110e4959493929190615763565b600060405180830381865afa158015611101573d6000803e3d6000fd5b505050506040513d6000823e601f3d9081017fffffffffffffffffffffffffffffffffffffffffffffffffffffffffffffffe016820160405261114791908101906157e4565b90508060008151811061115c5761115c6156e1565b6020026020010151935082608001518411156111d4576040517f08c379a000000000000000000000000000000000000000000000000000000000815260206004820152601e60248201527f526f757465723a204558434553534956455f494e5055545f414d4f554e540000604482015260640161069f565b505060008b85815181106111ea576111ea6156e1565b6020026020010151600081518110611204576112046156e1565b6020026020010151905061122b81602001518260400151836000015186856080015161348a565b93506112458260200151836000015185856060015161367c565b5050505b61125381856138b4565b9350508080611261906158a4565b915050610ef3565b50838211156112d4576040517f08c379a000000000000000000000000000000000000000000000000000000000815260206004820152600c60248201527f4552525f4c494d49545f494e0000000000000000000000000000000000000000604482015260640161069f565b6112e785336112e2886138d1565b61315c565b506112f686336112e2896138d1565b505095945050505050565b6060814281101561136e576040517f08c379a000000000000000000000000000000000000000000000000000000000815260206004820152600f60248201527f526f757465723a20455850495245440000000000000000000000000000000000604482015260640161069f565b6113ce897f00000000000000000000000000000000000000000000000000000000000000008a8a8a8a80806020026020016040519081016040528093929190818152602001838360200280828437600092019190915250613a1192505050565b915061141d8933888860008181106113e8576113e86156e1565b90506020020160208101906113fd9190615710565b85600081518110611410576114106156e1565b6020026020010151612b45565b61145d8983888880806020026020016040519081016040528093929190818152602001838360200280828437600092019190915250309250613bd2915050565b6114a273eeeeeeeeeeeeeeeeeeeeeeeeeeeeeeeeeeeeeeee85846001865161148591906158dd565b81518110611495576114956156e1565b602002602001015161315c565b5050979650505050505050565b6000806000866114bf578b6114e1565b7fffffffffffffffffffffffffffffffffffffffffffffffffffffffffffffffff5b6040517fd505accf00000000000000000000000000000000000000000000000000000000815233600482015230602482015260448101829052606481018a905260ff8816608482015260a4810187905260c4810186905290915073ffffffffffffffffffffffffffffffffffffffff8f169063d505accf9060e401600060405180830381600087803b15801561157657600080fd5b505af115801561158a573d6000803e3d6000fd5b5050505061159d8e8e8e8e8e8e8e61197f565b909f909e509c50505050505050505050505050565b804281101561161d576040517f08c379a000000000000000000000000000000000000000000000000000000000815260206004820152600f60248201527f526f757465723a20455850495245440000000000000000000000000000000000604482015260640161069f565b6116358933878760008181106108d6576108d66156e1565b6040517f70a0823100000000000000000000000000000000000000000000000000000000815273ffffffffffffffffffffffffffffffffffffffff8481166004830152600091908a16906370a0823190602401602060405180830381865afa1580156116a5573d6000803e3d6000fd5b505050506040513d601f19601f820116820180604052508101906116c9919061572d565b905061170a8a878780806020026020016040519081016040528093929190818152602001838360200280828437600092019190915250899250612ce3915050565b6040517f70a0823100000000000000000000000000000000000000000000000000000000815273ffffffffffffffffffffffffffffffffffffffff85811660048301528891611767918491908d16906370a0823190602401610c87565b1015610a92576040517f08c379a000000000000000000000000000000000000000000000000000000000815260206004820152602260248201527f526f757465723a20494e53554646494349454e545f4f55545055545f414d4f5560448201527f4e54000000000000000000000000000000000000000000000000000000000000606482015260840161069f565b60608142811015611862576040517f08c379a000000000000000000000000000000000000000000000000000000000815260206004820152600f60248201527f526f757465723a20455850495245440000000000000000000000000000000000604482015260640161069f565b6118907f00000000000000000000000000000000000000000000000000000000000000008989348a8a613ea1565b91506118c3826000815181106118a8576118a86156e1565b602002602001015187876000818110610b1f57610b1f6156e1565b6119237f0000000000000000000000000000000000000000000000000000000000000000838888808060200260200160405190810160405280939291908181526020018383602002808284376000920191909152508a9250613bd2915050565b81600081518110611936576119366156e1565b602002602001015134111561197457611974338360008151811061195c5761195c6156e1565b60200260200101513461196f91906158dd565b614033565b509695505050505050565b60008082428110156119ed576040517f08c379a000000000000000000000000000000000000000000000000000000000815260206004820152600f60248201527f526f757465723a20455850495245440000000000000000000000000000000000604482015260640161069f565b611a1c8a8a7f00000000000000000000000000000000000000000000000000000000000000008b8b8b3061270d565b9093509150611a2c898685614142565b611a4b73eeeeeeeeeeeeeeeeeeeeeeeeeeeeeeeeeeeeeeee868461315c565b505097509795505050505050565b60608142811015611ac6576040517f08c379a000000000000000000000000000000000000000000000000000000000815260206004820152600f60248201527f526f757465723a20455850495245440000000000000000000000000000000000604482015260640161069f565b611ad38989898989613a11565b9150611b08893387600081518110611aed57611aed6156e1565b602002602001015185600081518110611410576114106156e1565b611b1489838787613bd2565b50979650505050505050565b60008142811015611b8d576040517f08c379a000000000000000000000000000000000000000000000000000000000815260206004820152600f60248201527f526f757465723a20455850495245440000000000000000000000000000000000604482015260640161069f565b611b9787866133bb565b50600073eeeeeeeeeeeeeeeeeeeeeeeeeeeeeeeeeeeeeeee73ffffffffffffffffffffffffffffffffffffffff881614611c5c576040517f70a0823100000000000000000000000000000000000000000000000000000000815233600482015273ffffffffffffffffffffffffffffffffffffffff8816906370a0823190602401602060405180830381865afa158015611c35573d6000803e3d6000fd5b505050506040513d601f19601f82011682018060405250810190611c59919061572d565b90505b60005b8951811015611d2e576000805b8b8381518110611c7e57611c7e6156e1565b602002602001015151811015611d0d5760008c8481518110611ca257611ca26156e1565b60200260200101518281518110611cbb57611cbb6156e1565b602002602001015190506000821115611cd657606081018390525b611cf7816020015182604001518360000151846060015185608001516142ab565b9250508080611d05906158a4565b915050611c6c565b50611d1881866138b4565b9450508080611d26906158a4565b915050611c5f565b50611d3a87338561315c565b50611d4988336112e28b6138d1565b5073eeeeeeeeeeeeeeeeeeeeeeeeeeeeeeeeeeeeeeee73ffffffffffffffffffffffffffffffffffffffff88161415611deb5784831015611de6576040517f08c379a000000000000000000000000000000000000000000000000000000000815260206004820152600d60248201527f4552525f4c494d49545f4f555400000000000000000000000000000000000000604482015260640161069f565b611ead565b6040517f70a082310000000000000000000000000000000000000000000000000000000081523360048201528590611e4590839073ffffffffffffffffffffffffffffffffffffffff8b16906370a0823190602401610c87565b1015611ead576040517f08c379a000000000000000000000000000000000000000000000000000000000815260206004820152601260248201527f3c6d696e546f74616c416d6f756e744f75740000000000000000000000000000604482015260640161069f565b50509695505050505050565b6040517f14572adb00000000000000000000000000000000000000000000000000000000815273ffffffffffffffffffffffffffffffffffffffff8881166004830152878116602483015263ffffffff80861660448401528416606483015260009182917f000000000000000000000000000000000000000000000000000000000000000016906314572adb906084016020604051808303816000875af1158015611f68573d6000803e3d6000fd5b505050506040513d601f19601f82011682018060405250810190611f8c9190615746565b9050611f9e818a8a8a8a600080614825565b50506040517f6a62784200000000000000000000000000000000000000000000000000000000815273ffffffffffffffffffffffffffffffffffffffff8481166004830152821690636a627842906024016020604051808303816000875af115801561200e573d6000803e3d6000fd5b505050506040513d601f19601f82011682018060405250810190610e6b919061572d565b6060814281101561209f576040517f08c379a000000000000000000000000000000000000000000000000000000000815260206004820152600f60248201527f526f757465723a20455850495245440000000000000000000000000000000000604482015260640161069f565b6120ad8a8a8a8a8a8a613ea1565b91506120c78a33888860008181106113e8576113e86156e1565b6121078a838888808060200260200160405190810160405280939291908181526020018383602002808284376000920191909152508a9250613bd2915050565b5098975050505050505050565b6000808242811015612182576040517f08c379a000000000000000000000000000000000000000000000000000000000815260206004820152600f60248201527f526f757465723a20455850495245440000000000000000000000000000000000604482015260640161069f565b6121918b8b8b8b8b8b8b61270d565b909c909b509950505050505050505050565b60008142811015612210576040517f08c379a000000000000000000000000000000000000000000000000000000000815260206004820152600f60248201527f526f757465723a20455850495245440000000000000000000000000000000000604482015260640161069f565b61224089897f00000000000000000000000000000000000000000000000000000000000000008a8a8a308a612114565b6040517f70a082310000000000000000000000000000000000000000000000000000000081523060048201529093506122df91508990869073ffffffffffffffffffffffffffffffffffffffff8316906370a0823190602401602060405180830381865afa1580156122b6573d6000803e3d6000fd5b505050506040513d601f19601f820116820180604052508101906122da919061572d565b614142565b6114a273eeeeeeeeeeeeeeeeeeeeeeeeeeeeeeeeeeeeeeee858461315c565b6060814281101561236b576040517f08c379a000000000000000000000000000000000000000000000000000000000815260206004820152600f60248201527f526f757465723a20455850495245440000000000000000000000000000000000604482015260640161069f565b6113ce897f00000000000000000000000000000000000000000000000000000000000000008a8a8a8a613ea1565b60008060008342811015612409576040517f08c379a000000000000000000000000000000000000000000000000000000000815260206004820152600f60248201527f526f757465723a20455850495245440000000000000000000000000000000000604482015260640161069f565b6124188d8d8d8d8d8d8d614825565b6040517f6a62784200000000000000000000000000000000000000000000000000000000815273ffffffffffffffffffffffffffffffffffffffff8981166004830152929650909450908e1690636a627842906024016020604051808303816000875af115801561248d573d6000803e3d6000fd5b505050506040513d601f19601f820116820180604052508101906124b1919061572d565b91505099509950999650505050505050565b60608142811015612530576040517f08c379a000000000000000000000000000000000000000000000000000000000815260206004820152600f60248201527f526f757465723a20455850495245440000000000000000000000000000000000604482015260640161069f565b6125907f000000000000000000000000000000000000000000000000000000000000000089348a8a8a80806020026020016040519081016040528093929190818152602001838360200280828437600092019190915250613a1192505050565b91506125a8826000815181106118a8576118a86156e1565b6119747f0000000000000000000000000000000000000000000000000000000000000000838888808060200260200160405190810160405280939291908181526020018383602002808284376000920191909152508a9250613bd2915050565b600080600061263c89897f00000000000000000000000000000000000000000000000000000000000000008a348b8b614860565b909350915061264d88338b86612b45565b612657828a613262565b6040517f6a62784200000000000000000000000000000000000000000000000000000000815273ffffffffffffffffffffffffffffffffffffffff85811660048301528a1690636a627842906024016020604051808303816000875af11580156126c5573d6000803e3d6000fd5b505050506040513d601f19601f820116820180604052508101906126e9919061572d565b905081341115612701576127013361196f84346158dd565b96509650969350505050565b6040517fe5e31b1300000000000000000000000000000000000000000000000000000000815273ffffffffffffffffffffffffffffffffffffffff888116600483015260009182917f0000000000000000000000000000000000000000000000000000000000000000169063e5e31b1390602401602060405180830381865afa15801561279e573d6000803e3d6000fd5b505050506040513d601f19601f820116820180604052508101906127c291906158f4565b612828576040517f08c379a000000000000000000000000000000000000000000000000000000000815260206004820152601460248201527f526f757465723a20496e76616c69642070616972000000000000000000000000604482015260640161069f565b6040517f23b872dd00000000000000000000000000000000000000000000000000000000815233600482015273ffffffffffffffffffffffffffffffffffffffff8a166024820181905260448201889052906323b872dd906064016020604051808303816000875af11580156128a2573d6000803e3d6000fd5b505050506040513d601f19601f820116820180604052508101906128c691906158f4565b506040517f89afcb4400000000000000000000000000000000000000000000000000000000815273ffffffffffffffffffffffffffffffffffffffff848116600483015260009182918c16906389afcb449060240160408051808303816000875af1158015612939573d6000803e3d6000fd5b505050506040513d601f19601f8201168201806040525081019061295d9190615911565b6040517f544caa5600000000000000000000000000000000000000000000000000000000815273ffffffffffffffffffffffffffffffffffffffff8d811660048301528c811660248301529294509092506000917f0000000000000000000000000000000000000000000000000000000000000000169063544caa56906044016040805180830381865afa1580156129f9573d6000803e3d6000fd5b505050506040513d601f19601f82011682018060405250810190612a1d9190615935565b5090508073ffffffffffffffffffffffffffffffffffffffff168b73ffffffffffffffffffffffffffffffffffffffff1614612a5a578183612a5d565b82825b909550935087851015612acc576040517f08c379a000000000000000000000000000000000000000000000000000000000815260206004820152601d60248201527f526f757465723a20494e53554646494349454e545f415f414d4f554e54000000604482015260640161069f565b86841015612b36576040517f08c379a000000000000000000000000000000000000000000000000000000000815260206004820152601d60248201527f526f757465723a20494e53554646494349454e545f425f414d4f554e54000000604482015260640161069f565b50505097509795505050505050565b6040805173ffffffffffffffffffffffffffffffffffffffff85811660248301528481166044830152606480830185905283518084039091018152608490920183526020820180517bffffffffffffffffffffffffffffffffffffffffffffffffffffffff167f23b872dd000000000000000000000000000000000000000000000000000000001790529151600092839290881691612be4919061599f565b6000604051808303816000865af19150503d8060008114612c21576040519150601f19603f3d011682016040523d82523d6000602084013e612c26565b606091505b5091509150818015612c50575080511580612c50575080806020019051810190612c5091906158f4565b612cdb576040517f08c379a0000000000000000000000000000000000000000000000000000000008152602060048201526024808201527f5472616e7366657248656c7065723a205452414e534645525f46524f4d5f464160448201527f494c454400000000000000000000000000000000000000000000000000000000606482015260840161069f565b505050505050565b8260005b8351811015613155576000848281518110612d0457612d046156e1565b6020026020010151905060008060008060008060008060007f000000000000000000000000000000000000000000000000000000000000000073ffffffffffffffffffffffffffffffffffffffff1663b33d96b07f00000000000000000000000000000000000000000000000000000000000000008c8f6040518463ffffffff1660e01b8152600401612dc49392919073ffffffffffffffffffffffffffffffffffffffff93841681529183166020830152909116604082015260600190565b60c060405180830381865afa158015612de1573d6000803e3d6000fd5b505050506040513d601f19601f82011682018060405250810190612e0591906159bb565b955095509550955095509550612e6a858d73ffffffffffffffffffffffffffffffffffffffff166370a082318d6040518263ffffffff1660e01b8152600401610c87919073ffffffffffffffffffffffffffffffffffffffff91909116815260200190565b6040517f671a11b500000000000000000000000000000000000000000000000000000000815260048101829052602481018790526044810186905263ffffffff80861660648301528085166084830152831660a48201529099507f000000000000000000000000000000000000000000000000000000000000000073ffffffffffffffffffffffffffffffffffffffff169063671a11b59060c401602060405180830381865afa158015612f22573d6000803e3d6000fd5b505050506040513d601f19601f82011682018060405250810190612f46919061572d565b97508596505050505050506000808573ffffffffffffffffffffffffffffffffffffffff16630dfe16816040518163ffffffff1660e01b8152600401602060405180830381865afa158015612f9f573d6000803e3d6000fd5b505050506040513d601f19601f82011682018060405250810190612fc39190615746565b73ffffffffffffffffffffffffffffffffffffffff168873ffffffffffffffffffffffffffffffffffffffff1614612ffd57836000613001565b6000845b91509150600060018b5161301591906158dd565b88106130215789613046565b8a61302d896001615a2f565b8151811061303d5761303d6156e1565b60200260200101515b604080516000815260208101918290527f022c0d9f0000000000000000000000000000000000000000000000000000000090915290915073ffffffffffffffffffffffffffffffffffffffff88169063022c0d9f906130ae9086908690869060248101615a47565b600060405180830381600087803b1580156130c857600080fd5b505af11580156130dc573d6000803e3d6000fd5b50506040805173ffffffffffffffffffffffffffffffffffffffff8b81168252602082018a905288168183015290517fddac40937f35385a34f721af292e5a83fc5b840f722bff57c2fc71adba708c489350908190036060019150a183985050505050505050808061314d906158a4565b915050612ce7565b5050505050565b60008161316b5750600161325b565b73eeeeeeeeeeeeeeeeeeeeeeeeeeeeeeeeeeeeeeee73ffffffffffffffffffffffffffffffffffffffff8516141561324c576040517f2e1a7d4d000000000000000000000000000000000000000000000000000000008152600481018390527f000000000000000000000000000000000000000000000000000000000000000073ffffffffffffffffffffffffffffffffffffffff1690632e1a7d4d90602401600060405180830381600087803b15801561322557600080fd5b505af1158015613239573d6000803e3d6000fd5b505050506132478383614033565b613257565b613257848484614142565b5060015b9392505050565b7f000000000000000000000000000000000000000000000000000000000000000073ffffffffffffffffffffffffffffffffffffffff1663d0e30db0836040518263ffffffff1660e01b81526004016000604051808303818588803b1580156132ca57600080fd5b505af11580156132de573d6000803e3d6000fd5b50506040517fa9059cbb00000000000000000000000000000000000000000000000000000000815273ffffffffffffffffffffffffffffffffffffffff8581166004830152602482018790527f000000000000000000000000000000000000000000000000000000000000000016935063a9059cbb925060440190506020604051808303816000875af1158015613379573d6000803e3d6000fd5b505050506040513d601f19601f8201168201806040525081019061339d91906158f4565b6133a9576133a9614c61565b5050565b600061325b83836001614bd6565b600073eeeeeeeeeeeeeeeeeeeeeeeeeeeeeeeeeeeeeeee73ffffffffffffffffffffffffffffffffffffffff84161415613475577f000000000000000000000000000000000000000000000000000000000000000073ffffffffffffffffffffffffffffffffffffffff1663d0e30db0346040518263ffffffff1660e01b81526004016000604051808303818588803b15801561345757600080fd5b505af115801561346b573d6000803e3d6000fd5b5050505050613481565b61348183333085612b45565b50600192915050565b6040805160018082528183019092526000918291906020808301908036833701905050905084816000815181106134c3576134c36156e1565b73ffffffffffffffffffffffffffffffffffffffff92831660209182029290920101526040517f67f84adc0000000000000000000000000000000000000000000000000000000081526000917f000000000000000000000000000000000000000000000000000000000000000016906367f84adc9061356e907f0000000000000000000000000000000000000000000000000000000000000000908c908c908b908990600401615763565b600060405180830381865afa15801561358b573d6000803e3d6000fd5b505050506040513d6000823e601f3d9081017fffffffffffffffffffffffffffffffffffffffffffffffffffffffffffffffe01682016040526135d191908101906157e4565b9050806000815181106135e6576135e66156e1565b602002602001015192508383111561365a576040517f08c379a000000000000000000000000000000000000000000000000000000000815260206004820152601e60248201527f526f757465723a204558434553534956455f494e5055545f414d4f554e540000604482015260640161069f565b6112f688878584600181518110613673576136736156e1565b60200260200101515b613687848484614142565b600083905060008173ffffffffffffffffffffffffffffffffffffffff16630dfe16816040518163ffffffff1660e01b8152600401602060405180830381865afa1580156136d9573d6000803e3d6000fd5b505050506040513d601f19601f820116820180604052508101906136fd9190615746565b905060008060008373ffffffffffffffffffffffffffffffffffffffff168973ffffffffffffffffffffffffffffffffffffffff161461374057856000856137b2565b6000868673ffffffffffffffffffffffffffffffffffffffff1663d21220a76040518163ffffffff1660e01b8152600401602060405180830381865afa15801561378e573d6000803e3d6000fd5b505050506040513d601f19601f820116820180604052508101906137b29190615746565b604080516000815260208101918290527f022c0d9f00000000000000000000000000000000000000000000000000000000909152929550909350915073ffffffffffffffffffffffffffffffffffffffff86169063022c0d9f9061381f9086908690309060248101615a47565b600060405180830381600087803b15801561383957600080fd5b505af115801561384d573d6000803e3d6000fd5b50506040805173ffffffffffffffffffffffffffffffffffffffff8c81168252602082018b905285168183015290517fddac40937f35385a34f721af292e5a83fc5b840f722bff57c2fc71adba708c489350908190036060019150a1505050505050505050565b6000806138c18385615a2f565b905061325b848210156000614bf1565b600073eeeeeeeeeeeeeeeeeeeeeeeeeeeeeeeeeeeeeeee73ffffffffffffffffffffffffffffffffffffffff831614156139ba576040517f70a082310000000000000000000000000000000000000000000000000000000081523060048201527f000000000000000000000000000000000000000000000000000000000000000073ffffffffffffffffffffffffffffffffffffffff16906370a08231906024015b602060405180830381865afa158015613990573d6000803e3d6000fd5b505050506040513d601f19601f820116820180604052508101906139b4919061572d565b92915050565b6040517f70a0823100000000000000000000000000000000000000000000000000000000815230600482015273ffffffffffffffffffffffffffffffffffffffff8316906370a0823190602401613973565b919050565b6040517f119220a500000000000000000000000000000000000000000000000000000000815260609073ffffffffffffffffffffffffffffffffffffffff7f0000000000000000000000000000000000000000000000000000000000000000169063119220a590613aae907f0000000000000000000000000000000000000000000000000000000000000000908a908a908a908990600401615763565b600060405180830381865afa158015613acb573d6000803e3d6000fd5b505050506040513d6000823e601f3d9081017fffffffffffffffffffffffffffffffffffffffffffffffffffffffffffffffe0168201604052613b1191908101906157e4565b9050828160018351613b2391906158dd565b81518110613b3357613b336156e1565b60200260200101511015613bc9576040517f08c379a000000000000000000000000000000000000000000000000000000000815260206004820152602260248201527f526f757465723a20494e53554646494349454e545f4f55545055545f414d4f5560448201527f4e54000000000000000000000000000000000000000000000000000000000000606482015260840161069f565b95945050505050565b8360005b8351811015612cdb576000848281518110613bf357613bf36156e1565b6020026020010151905060008173ffffffffffffffffffffffffffffffffffffffff16630dfe16816040518163ffffffff1660e01b8152600401602060405180830381865afa158015613c4a573d6000803e3d6000fd5b505050506040513d601f19601f82011682018060405250810190613c6e9190615746565b9050600087613c7e856001615a2f565b81518110613c8e57613c8e6156e1565b6020026020010151905060008060008473ffffffffffffffffffffffffffffffffffffffff168873ffffffffffffffffffffffffffffffffffffffff1614613cd95783600086613d4b565b6000848773ffffffffffffffffffffffffffffffffffffffff1663d21220a76040518163ffffffff1660e01b8152600401602060405180830381865afa158015613d27573d6000803e3d6000fd5b505050506040513d601f19601f82011682018060405250810190613d4b9190615746565b925092509250600060018b51613d6191906158dd565b8810613d6d5789613d92565b8a613d79896001615a2f565b81518110613d8957613d896156e1565b60200260200101515b604080516000815260208101918290527f022c0d9f0000000000000000000000000000000000000000000000000000000090915290915073ffffffffffffffffffffffffffffffffffffffff88169063022c0d9f90613dfa9087908790869060248101615a47565b600060405180830381600087803b158015613e1457600080fd5b505af1158015613e28573d6000803e3d6000fd5b50506040805173ffffffffffffffffffffffffffffffffffffffff8b81168252602082018a905286168183015290517fddac40937f35385a34f721af292e5a83fc5b840f722bff57c2fc71adba708c489350908190036060019150a1819850505050505050508080613e99906158a4565b915050613bd6565b6040517f67f84adc00000000000000000000000000000000000000000000000000000000815260609073ffffffffffffffffffffffffffffffffffffffff7f000000000000000000000000000000000000000000000000000000000000000016906367f84adc90613f40907f0000000000000000000000000000000000000000000000000000000000000000908b908b908b908a908a90600401615ac3565b600060405180830381865afa158015613f5d573d6000803e3d6000fd5b505050506040513d6000823e601f3d9081017fffffffffffffffffffffffffffffffffffffffffffffffffffffffffffffffe0168201604052613fa391908101906157e4565b90508381600081518110613fb957613fb96156e1565b60200260200101511115614029576040517f08c379a000000000000000000000000000000000000000000000000000000000815260206004820152601e60248201527f526f757465723a204558434553534956455f494e5055545f414d4f554e540000604482015260640161069f565b9695505050505050565b6040805160008082526020820190925273ffffffffffffffffffffffffffffffffffffffff841690839060405161406a919061599f565b60006040518083038185875af1925050503d80600081146140a7576040519150601f19603f3d011682016040523d82523d6000602084013e6140ac565b606091505b505090508061413d576040517f08c379a000000000000000000000000000000000000000000000000000000000815260206004820152602360248201527f5472616e7366657248656c7065723a204554485f5452414e534645525f46414960448201527f4c45440000000000000000000000000000000000000000000000000000000000606482015260840161069f565b505050565b6040805173ffffffffffffffffffffffffffffffffffffffff8481166024830152604480830185905283518084039091018152606490920183526020820180517bffffffffffffffffffffffffffffffffffffffffffffffffffffffff167fa9059cbb0000000000000000000000000000000000000000000000000000000017905291516000928392908716916141d9919061599f565b6000604051808303816000865af19150503d8060008114614216576040519150601f19603f3d011682016040523d82523d6000602084013e61421b565b606091505b509150915081801561424557508051158061424557508080602001905181019061424591906158f4565b613155576040517f08c379a000000000000000000000000000000000000000000000000000000000815260206004820152601f60248201527f5472616e7366657248656c7065723a205452414e534645525f4641494c454400604482015260640161069f565b60006142b8868585614142565b6040517fb33d96b000000000000000000000000000000000000000000000000000000000815273ffffffffffffffffffffffffffffffffffffffff7f00000000000000000000000000000000000000000000000000000000000000008116600483015285811660248301528781166044830152600091829182918291829182917f0000000000000000000000000000000000000000000000000000000000000000169063b33d96b09060640160c060405180830381865afa158015614381573d6000803e3d6000fd5b505050506040513d601f19601f820116820180604052508101906143a591906159bb565b9550955095509550955050600061440b868e73ffffffffffffffffffffffffffffffffffffffff166370a082318e6040518263ffffffff1660e01b8152600401610c87919073ffffffffffffffffffffffffffffffffffffffff91909116815260200190565b6040517f671a11b500000000000000000000000000000000000000000000000000000000815260048101829052602481018890526044810187905263ffffffff80871660648301528086166084830152841660a48201529091507f000000000000000000000000000000000000000000000000000000000000000073ffffffffffffffffffffffffffffffffffffffff169063671a11b59060c401602060405180830381865afa1580156144c3573d6000803e3d6000fd5b505050506040513d601f19601f820116820180604052508101906144e7919061572d565b6040517f70a082310000000000000000000000000000000000000000000000000000000081523060048201529097506000965073ffffffffffffffffffffffffffffffffffffffff8d1695506370a0823194506024019250614547915050565b602060405180830381865afa158015614564573d6000803e3d6000fd5b505050506040513d601f19601f82011682018060405250810190614588919061572d565b90506000808773ffffffffffffffffffffffffffffffffffffffff16630dfe16816040518163ffffffff1660e01b8152600401602060405180830381865afa1580156145d8573d6000803e3d6000fd5b505050506040513d601f19601f820116820180604052508101906145fc9190615746565b73ffffffffffffffffffffffffffffffffffffffff168a73ffffffffffffffffffffffffffffffffffffffff16146146365783600061463a565b6000845b604080516000815260208101918290527f022c0d9f00000000000000000000000000000000000000000000000000000000909152919350915073ffffffffffffffffffffffffffffffffffffffff89169063022c0d9f906146a49085908590309060248101615a47565b600060405180830381600087803b1580156146be57600080fd5b505af11580156146d2573d6000803e3d6000fd5b50506040805173ffffffffffffffffffffffffffffffffffffffff8c81168252602082018990528d168183015290517fddac40937f35385a34f721af292e5a83fc5b840f722bff57c2fc71adba708c489350908190036060019150a16040517f70a0823100000000000000000000000000000000000000000000000000000000815230600482015261478690849073ffffffffffffffffffffffffffffffffffffffff8c16906370a0823190602401610c87565b945085851015614818576040517f08c379a000000000000000000000000000000000000000000000000000000000815260206004820152602260248201527f526f757465723a20494e53554646494349454e545f4f55545055545f414d4f5560448201527f4e54000000000000000000000000000000000000000000000000000000000000606482015260840161069f565b5050505095945050505050565b60008061483789898989898989614860565b909250905061484888338b85612b45565b61485487338b84612b45565b97509795505050505050565b6040517f3274946100000000000000000000000000000000000000000000000000000000815273ffffffffffffffffffffffffffffffffffffffff8881166004830152878116602483015286811660448301526000918291829182917f000000000000000000000000000000000000000000000000000000000000000016906332749461906064016040805180830381865afa158015614904573d6000803e3d6000fd5b505050506040513d601f19601f820116820180604052508101906149289190615911565b9150915081600014801561493a575080155b1561494a57879350869250611a4b565b6040517fad615dec0000000000000000000000000000000000000000000000000000000081526004810189905260248101839052604481018290526000907f000000000000000000000000000000000000000000000000000000000000000073ffffffffffffffffffffffffffffffffffffffff169063ad615dec90606401602060405180830381865afa1580156149e6573d6000803e3d6000fd5b505050506040513d601f19601f82011682018060405250810190614a0a919061572d565b9050878111614a885785811015614a7d576040517f08c379a000000000000000000000000000000000000000000000000000000000815260206004820152601d60248201527f526f757465723a20494e53554646494349454e545f425f414d4f554e54000000604482015260640161069f565b889450925082612b36565b6040517fad615dec0000000000000000000000000000000000000000000000000000000081526004810189905260248101839052604481018490526000907f000000000000000000000000000000000000000000000000000000000000000073ffffffffffffffffffffffffffffffffffffffff169063ad615dec90606401602060405180830381865afa158015614b24573d6000803e3d6000fd5b505050506040513d601f19601f82011682018060405250810190614b48919061572d565b905089811115614b5a57614b5a614c61565b87811015614bc4576040517f08c379a000000000000000000000000000000000000000000000000000000000815260206004820152601d60248201527f526f757465723a20494e53554646494349454e545f415f414d4f554e54000000604482015260640161069f565b9c979b50969950505050505050505050565b6000614be58484111583614bf1565b6000613bc984866158dd565b816133a9577f08c379a000000000000000000000000000000000000000000000000000000000600090815260206004526007602452600a808304818104828106603090810160101b848706949093060160081b929092010166524551230000300160c81b6044526133a991606490fd5b7f4e487b7100000000000000000000000000000000000000000000000000000000600052600160045260246000fd5b73ffffffffffffffffffffffffffffffffffffffff81168114614cb257600080fd5b50565b8035613a0c81614c90565b8015158114614cb257600080fd5b803560ff81168114613a0c57600080fd5b60008060008060008060008060008060006101608c8e031215614d0157600080fd5b8b35614d0c81614c90565b9a5060208c0135614d1c81614c90565b995060408c0135985060608c0135975060808c0135965060a08c0135614d4181614c90565b955060c08c0135945060e08c0135614d5881614cc0565b9350614d676101008d01614cce565b92506101208c013591506101408c013590509295989b509295989b9093969950565b600080600080600080600060e0888a031215614da457600080fd5b8735614daf81614c90565b96506020880135614dbf81614c90565b955060408801359450606088013593506080880135925060a0880135614de481614c90565b8092505060c0880135905092959891949750929550565b6000806000806000806000806000806000806101808d8f031215614e1e57600080fd5b8c35614e2981614c90565b9b5060208d0135614e3981614c90565b9a5060408d0135614e4981614c90565b995060608d0135985060808d0135975060a08d0135965060c08d0135614e6e81614c90565b955060e08d013594506101008d0135614e8681614cc0565b9350614e956101208e01614cce565b92506101408d013591506101608d013590509295989b509295989b509295989b565b60008083601f840112614ec957600080fd5b50813567ffffffffffffffff811115614ee157600080fd5b6020830191508360208260051b8501011115614efc57600080fd5b9250929050565b600080600080600080600060c0888a031215614f1e57600080fd5b8735614f2981614c90565b96506020880135955060408801359450606088013567ffffffffffffffff811115614f5357600080fd5b614f5f8a828b01614eb7565b9095509350506080880135614f7381614c90565b8092505060a0880135905092959891949750929550565b60008060008060008060a08789031215614fa357600080fd5b8635614fae81614c90565b955060208701359450604087013567ffffffffffffffff811115614fd157600080fd5b614fdd89828a01614eb7565b9095509350506060870135614ff181614c90565b80925050608087013590509295509295509295565b63ffffffff81168114614cb257600080fd5b600080600080600060a0868803121561503057600080fd5b853561503b81614c90565b945060208601359350604086013561505281615006565b9250606086013561506281615006565b9150608086013561507281614c90565b809150509295509295909350565b7f4e487b7100000000000000000000000000000000000000000000000000000000600052604160045260246000fd5b60405160c0810167ffffffffffffffff811182821017156150d2576150d2615080565b60405290565b604051601f82017fffffffffffffffffffffffffffffffffffffffffffffffffffffffffffffffe016810167ffffffffffffffff8111828210171561511f5761511f615080565b604052919050565b600067ffffffffffffffff82111561514157615141615080565b5060051b60200190565b600082601f83011261515c57600080fd5b8135602061517161516c83615127565b6150d8565b82815260059290921b8401810191818101908684111561519057600080fd5b8286015b8481101561197457803567ffffffffffffffff8111156151b45760008081fd5b8701603f810189136151c65760008081fd5b8481013560406151d861516c83615127565b82815260c0928302840182019288820191908d8511156151f85760008081fd5b948301945b848610156152795780868f0312156152155760008081fd5b61521d6150af565b863561522881614c90565b8152868b013561523781614c90565b818c01528685013561524881614c90565b81860152606087810135908201526080808801359082015260a08088013590820152835294850194918901916151fd565b50875250505092840192508301615194565b600080600080600060a086880312156152a357600080fd5b853567ffffffffffffffff8111156152ba57600080fd5b6152c68882890161514b565b95505060208601356152d781614c90565b935060408601356152e781614c90565b94979396509394606081013594506080013592915050565b6020808252825182820181905260009190848201906040850190845b818110156153375783518352928401929184019160010161531b565b50909695505050505050565b60008060008060008060008060e0898b03121561535f57600080fd5b883561536a81614c90565b9750602089013561537a81614c90565b96506040890135955060608901359450608089013567ffffffffffffffff8111156153a457600080fd5b6153b08b828c01614eb7565b90955093505060a08901356153c481614c90565b8092505060c089013590509295985092959890939650565b600080600080600080600060e0888a0312156153f757600080fd5b873561540281614c90565b965060208881013561541381614c90565b96506040890135955060608901359450608089013567ffffffffffffffff81111561543d57600080fd5b8901601f81018b1361544e57600080fd5b803561545c61516c82615127565b81815260059190911b8201830190838101908d83111561547b57600080fd5b928401925b828410156154a257833561549381614c90565b82529284019290840190615480565b80975050505050506154b660a08901614cb5565b915060c0880135905092959891949750929550565b60008060008060008060c087890312156154e457600080fd5b863567ffffffffffffffff8111156154fb57600080fd5b61550789828a0161514b565b965050602087013561551881614c90565b9450604087013561552881614c90565b959894975094956060810135955060808101359460a0909101359350915050565b600080600080600080600060e0888a03121561556457600080fd5b873561556f81614c90565b9650602088013561557f81614c90565b95506040880135945060608801359350608088013561559d81615006565b925060a08801356155ad81615006565b915060c08801356155bd81614c90565b8091505092959891949750929550565b600080600080600080600080610100898b0312156155ea57600080fd5b88356155f581614c90565b9750602089013561560581614c90565b9650604089013561561581614c90565b9550606089013594506080890135935060a0890135925060c089013561563a81614c90565b8092505060e089013590509295985092959890939650565b60008060008060008060008060006101208a8c03121561567157600080fd5b893561567c81614c90565b985060208a013561568c81614c90565b975060408a013561569c81614c90565b965060608a0135955060808a0135945060a08a0135935060c08a0135925060e08a01356156c881614c90565b809250506101008a013590509295985092959850929598565b7f4e487b7100000000000000000000000000000000000000000000000000000000600052603260045260246000fd5b60006020828403121561572257600080fd5b813561325b81614c90565b60006020828403121561573f57600080fd5b5051919050565b60006020828403121561575857600080fd5b815161325b81614c90565b600060a0820173ffffffffffffffffffffffffffffffffffffffff8089168452602081891681860152818816604086015286606086015260a0608086015282865180855260c087019150828801945060005b818110156157d35785518516835294830194918301916001016157b5565b50909b9a5050505050505050505050565b600060208083850312156157f757600080fd5b825167ffffffffffffffff81111561580e57600080fd5b8301601f8101851361581f57600080fd5b805161582d61516c82615127565b81815260059190911b8201830190838101908783111561584c57600080fd5b928401925b8284101561586a57835182529284019290840190615851565b979650505050505050565b7f4e487b7100000000000000000000000000000000000000000000000000000000600052601160045260246000fd5b60007fffffffffffffffffffffffffffffffffffffffffffffffffffffffffffffffff8214156158d6576158d6615875565b5060010190565b6000828210156158ef576158ef615875565b500390565b60006020828403121561590657600080fd5b815161325b81614cc0565b6000806040838503121561592457600080fd5b505080516020909101519092909150565b6000806040838503121561594857600080fd5b825161595381614c90565b602084015190925061596481614c90565b809150509250929050565b60005b8381101561598a578181015183820152602001615972565b83811115615999576000848401525b50505050565b600082516159b181846020870161596f565b9190910192915050565b60008060008060008060c087890312156159d457600080fd5b86516159df81614c90565b80965050602087015194506040870151935060608701516159ff81615006565b6080880151909350615a1081615006565b60a0880151909250615a2181615006565b809150509295509295509295565b60008219821115615a4257615a42615875565b500190565b84815283602082015273ffffffffffffffffffffffffffffffffffffffff831660408201526080606082015260008251806080840152615a8e8160a085016020870161596f565b601f017fffffffffffffffffffffffffffffffffffffffffffffffffffffffffffffffe0169190910160a00195945050505050565b600060a0820173ffffffffffffffffffffffffffffffffffffffff808a1684526020818a1681860152818916604086015287606086015260a060808601528286845260c08601905087935060005b87811015615b38578435615b2481614c90565b841682529382019390820190600101615b11565b509b9a505050505050505050505056fea264697066735822122014cd21d5888074a0c010adaf8cd1ea37ae7736efbe42c797ba2fdfaf0ddc3dc164736f6c634300080a0033",
  "linkReferences": {},
  "deployedLinkReferences": {}
}