{
  "_format": "hh-sol-artifact-1",
  "contractName": "StakePoolController",
  "sourceName": "contracts/StakePoolController.sol",
  "abi": [
    {
      "anonymous": false,
      "inputs": [
        {
          "indexed": true,
          "internalType": "address",
          "name": "governance",
          "type": "address"
        }
      ],
      "name": "ChangeGovernance",
      "type": "event"
    },
    {
      "anonymous": false,
      "inputs": [
        {
          "indexed": true,
          "internalType": "address",
          "name": "farm",
          "type": "address"
        },
        {
          "indexed": true,
          "internalType": "address",
          "name": "stakeToken",
          "type": "address"
        },
        {
          "indexed": false,
          "internalType": "uint256",
          "name": "version",
          "type": "uint256"
        },
        {
          "indexed": false,
          "internalType": "address",
          "name": "timelock",
          "type": "address"
        },
        {
          "indexed": false,
          "internalType": "address",
          "name": "stakePoolRewardFund",
          "type": "address"
        },
        {
          "indexed": false,
          "internalType": "uint256",
          "name": "totalStakePool",
          "type": "uint256"
        }
      ],
      "name": "MasterCreated",
      "type": "event"
    },
    {
      "anonymous": false,
      "inputs": [
        {
          "indexed": true,
          "internalType": "uint256",
          "name": "amount",
          "type": "uint256"
        }
      ],
      "name": "SetExtraFeeRate",
      "type": "event"
    },
    {
      "anonymous": false,
      "inputs": [
        {
          "indexed": true,
          "internalType": "uint256",
          "name": "amount",
          "type": "uint256"
        }
      ],
      "name": "SetFeeAmount",
      "type": "event"
    },
    {
      "anonymous": false,
      "inputs": [
        {
          "indexed": true,
          "internalType": "address",
          "name": "feeCollector",
          "type": "address"
        }
      ],
      "name": "SetFeeCollector",
      "type": "event"
    },
    {
      "anonymous": false,
      "inputs": [
        {
          "indexed": true,
          "internalType": "address",
          "name": "token",
          "type": "address"
        }
      ],
      "name": "SetFeeToken",
      "type": "event"
    },
    {
      "anonymous": false,
      "inputs": [
        {
          "indexed": true,
          "internalType": "address",
          "name": "contractAddress",
          "type": "address"
        },
        {
          "indexed": false,
          "internalType": "uint256",
          "name": "verion",
          "type": "uint256"
        }
      ],
      "name": "SetStakePoolCreator",
      "type": "event"
    },
    {
      "anonymous": false,
      "inputs": [
        {
          "indexed": true,
          "internalType": "address",
          "name": "contractAddress",
          "type": "address"
        },
        {
          "indexed": false,
          "internalType": "bool",
          "name": "value",
          "type": "bool"
        }
      ],
      "name": "SetStakePoolVerifier",
      "type": "event"
    },
    {
      "anonymous": false,
      "inputs": [
        {
          "indexed": true,
          "internalType": "address",
          "name": "contractAddress",
          "type": "address"
        },
        {
          "indexed": false,
          "internalType": "bool",
          "name": "value",
          "type": "bool"
        }
      ],
      "name": "SetWhitelistRewardMultiplier",
      "type": "event"
    },
    {
      "anonymous": false,
      "inputs": [
        {
          "indexed": true,
          "internalType": "address",
          "name": "contractAddress",
          "type": "address"
        },
        {
          "indexed": false,
          "internalType": "bool",
          "name": "value",
          "type": "bool"
        }
      ],
      "name": "SetWhitelistRewardRebaser",
      "type": "event"
    },
    {
      "anonymous": false,
      "inputs": [
        {
          "indexed": true,
          "internalType": "address",
          "name": "contractAddress",
          "type": "address"
        },
        {
          "indexed": false,
          "internalType": "int8",
          "name": "value",
          "type": "int8"
        }
      ],
      "name": "SetWhitelistStakePool",
      "type": "event"
    },
    {
      "anonymous": false,
      "inputs": [
        {
          "indexed": true,
          "internalType": "address",
          "name": "contractAddress",
          "type": "address"
        },
        {
          "indexed": false,
          "internalType": "bool",
          "name": "value",
          "type": "bool"
        }
      ],
      "name": "SetWhitelistStakingFor",
      "type": "event"
    },
    {
      "inputs": [
        {
          "internalType": "address",
          "name": "",
          "type": "address"
        }
      ],
      "name": "_stakePoolVerifiers",
      "outputs": [
        {
          "internalType": "bool",
          "name": "",
          "type": "bool"
        }
      ],
      "stateMutability": "view",
      "type": "function"
    },
    {
      "inputs": [
        {
          "internalType": "address",
          "name": "_address",
          "type": "address"
        }
      ],
      "name": "addStakePoolCreator",
      "outputs": [],
      "stateMutability": "nonpayable",
      "type": "function"
    },
    {
      "inputs": [
        {
          "internalType": "uint256",
          "name": "",
          "type": "uint256"
        }
      ],
      "name": "allStakePools",
      "outputs": [
        {
          "internalType": "address",
          "name": "",
          "type": "address"
        }
      ],
      "stateMutability": "view",
      "type": "function"
    },
    {
      "inputs": [],
      "name": "allStakePoolsLength",
      "outputs": [
        {
          "internalType": "uint256",
          "name": "",
          "type": "uint256"
        }
      ],
      "stateMutability": "view",
      "type": "function"
    },
    {
      "inputs": [
        {
          "internalType": "address",
          "name": "",
          "type": "address"
        }
      ],
      "name": "allowEmergencyWithdrawStakePools",
      "outputs": [
        {
          "internalType": "bool",
          "name": "",
          "type": "bool"
        }
      ],
      "stateMutability": "view",
      "type": "function"
    },
    {
      "inputs": [
        {
          "internalType": "uint256",
          "name": "version",
          "type": "uint256"
        },
        {
          "internalType": "address",
          "name": "stakeToken",
          "type": "address"
        },
        {
          "internalType": "address",
          "name": "rewardToken",
          "type": "address"
        },
        {
          "internalType": "uint256",
          "name": "rewardFundAmount",
          "type": "uint256"
        },
        {
          "internalType": "uint256",
          "name": "delayTimeLock",
          "type": "uint256"
        },
        {
          "internalType": "bytes",
          "name": "data",
          "type": "bytes"
        }
      ],
      "name": "create",
      "outputs": [
        {
          "internalType": "address",
          "name": "",
          "type": "address"
        }
      ],
      "stateMutability": "nonpayable",
      "type": "function"
    },
    {
      "inputs": [],
      "name": "enableWhitelistRewardMultiplier",
      "outputs": [
        {
          "internalType": "bool",
          "name": "",
          "type": "bool"
        }
      ],
      "stateMutability": "view",
      "type": "function"
    },
    {
      "inputs": [],
      "name": "enableWhitelistRewardRebaser",
      "outputs": [
        {
          "internalType": "bool",
          "name": "",
          "type": "bool"
        }
      ],
      "stateMutability": "view",
      "type": "function"
    },
    {
      "inputs": [],
      "name": "extraFeeRate",
      "outputs": [
        {
          "internalType": "uint256",
          "name": "",
          "type": "uint256"
        }
      ],
      "stateMutability": "view",
      "type": "function"
    },
    {
      "inputs": [],
      "name": "feeAmount",
      "outputs": [
        {
          "internalType": "uint256",
          "name": "",
          "type": "uint256"
        }
      ],
      "stateMutability": "view",
      "type": "function"
    },
    {
      "inputs": [],
      "name": "feeCollector",
      "outputs": [
        {
          "internalType": "address",
          "name": "",
          "type": "address"
        }
      ],
      "stateMutability": "view",
      "type": "function"
    },
    {
      "inputs": [],
      "name": "feeToken",
      "outputs": [
        {
          "internalType": "address",
          "name": "",
          "type": "address"
        }
      ],
      "stateMutability": "view",
      "type": "function"
    },
    {
      "inputs": [
        {
          "internalType": "address",
          "name": "token",
          "type": "address"
        }
      ],
      "name": "getCreationFee",
      "outputs": [
        {
          "internalType": "uint256",
          "name": "",
          "type": "uint256"
        }
      ],
      "stateMutability": "view",
      "type": "function"
    },
    {
      "inputs": [],
      "name": "governance",
      "outputs": [
        {
          "internalType": "address",
          "name": "",
          "type": "address"
        }
      ],
      "stateMutability": "view",
      "type": "function"
    },
    {
      "inputs": [
        {
          "internalType": "address",
          "name": "_swapFactory",
          "type": "address"
        }
      ],
      "name": "initialize",
      "outputs": [],
      "stateMutability": "nonpayable",
      "type": "function"
    },
    {
      "inputs": [
        {
          "internalType": "address",
          "name": "_address",
          "type": "address"
        }
      ],
      "name": "isAllowEmergencyWithdrawStakePool",
      "outputs": [
        {
          "internalType": "bool",
          "name": "",
          "type": "bool"
        }
      ],
      "stateMutability": "view",
      "type": "function"
    },
    {
      "inputs": [
        {
          "internalType": "address",
          "name": "b",
          "type": "address"
        }
      ],
      "name": "isStakePool",
      "outputs": [
        {
          "internalType": "bool",
          "name": "",
          "type": "bool"
        }
      ],
      "stateMutability": "view",
      "type": "function"
    },
    {
      "inputs": [
        {
          "internalType": "address",
          "name": "_address",
          "type": "address"
        }
      ],
      "name": "isStakePoolVerifier",
      "outputs": [
        {
          "internalType": "bool",
          "name": "",
          "type": "bool"
        }
      ],
      "stateMutability": "view",
      "type": "function"
    },
    {
      "inputs": [
        {
          "internalType": "address",
          "name": "_address",
          "type": "address"
        }
      ],
      "name": "isWhitelistRewardMultiplier",
      "outputs": [
        {
          "internalType": "bool",
          "name": "",
          "type": "bool"
        }
      ],
      "stateMutability": "view",
      "type": "function"
    },
    {
      "inputs": [
        {
          "internalType": "address",
          "name": "_address",
          "type": "address"
        }
      ],
      "name": "isWhitelistRewardRebaser",
      "outputs": [
        {
          "internalType": "bool",
          "name": "",
          "type": "bool"
        }
      ],
      "stateMutability": "view",
      "type": "function"
    },
    {
      "inputs": [
        {
          "internalType": "address",
          "name": "_address",
          "type": "address"
        }
      ],
      "name": "isWhitelistStakePool",
      "outputs": [
        {
          "internalType": "int8",
          "name": "",
          "type": "int8"
        }
      ],
      "stateMutability": "view",
      "type": "function"
    },
    {
      "inputs": [
        {
          "internalType": "address",
          "name": "_address",
          "type": "address"
        }
      ],
      "name": "isWhitelistStakingFor",
      "outputs": [
        {
          "internalType": "bool",
          "name": "",
          "type": "bool"
        }
      ],
      "stateMutability": "view",
      "type": "function"
    },
    {
      "inputs": [
        {
          "internalType": "address",
          "name": "_address",
          "type": "address"
        },
        {
          "internalType": "bool",
          "name": "state",
          "type": "bool"
        }
      ],
      "name": "setAllowEmergencyWithdrawStakePool",
      "outputs": [],
      "stateMutability": "nonpayable",
      "type": "function"
    },
    {
      "inputs": [
        {
          "internalType": "bool",
          "name": "value",
          "type": "bool"
        }
      ],
      "name": "setEnableWhitelistRewardMultiplier",
      "outputs": [],
      "stateMutability": "nonpayable",
      "type": "function"
    },
    {
      "inputs": [
        {
          "internalType": "bool",
          "name": "value",
          "type": "bool"
        }
      ],
      "name": "setEnableWhitelistRewardRebaser",
      "outputs": [],
      "stateMutability": "nonpayable",
      "type": "function"
    },
    {
      "inputs": [
        {
          "internalType": "uint256",
          "name": "_extraFeeRate",
          "type": "uint256"
        }
      ],
      "name": "setExtraFeeRate",
      "outputs": [],
      "stateMutability": "nonpayable",
      "type": "function"
    },
    {
      "inputs": [
        {
          "internalType": "uint256",
          "name": "_feeAmount",
          "type": "uint256"
        }
      ],
      "name": "setFeeAmount",
      "outputs": [],
      "stateMutability": "nonpayable",
      "type": "function"
    },
    {
      "inputs": [
        {
          "internalType": "address",
          "name": "_address",
          "type": "address"
        }
      ],
      "name": "setFeeCollector",
      "outputs": [],
      "stateMutability": "nonpayable",
      "type": "function"
    },
    {
      "inputs": [
        {
          "internalType": "address",
          "name": "_token",
          "type": "address"
        }
      ],
      "name": "setFeeToken",
      "outputs": [],
      "stateMutability": "nonpayable",
      "type": "function"
    },
    {
      "inputs": [
        {
          "internalType": "address",
          "name": "_governance",
          "type": "address"
        }
      ],
      "name": "setGovernance",
      "outputs": [],
      "stateMutability": "nonpayable",
      "type": "function"
    },
    {
      "inputs": [
        {
          "internalType": "address",
          "name": "_address",
          "type": "address"
        },
        {
          "internalType": "bool",
          "name": "state",
          "type": "bool"
        }
      ],
      "name": "setStakePoolVerifier",
      "outputs": [],
      "stateMutability": "nonpayable",
      "type": "function"
    },
    {
      "inputs": [
        {
          "internalType": "address",
          "name": "_address",
          "type": "address"
        },
        {
          "internalType": "bool",
          "name": "state",
          "type": "bool"
        }
      ],
      "name": "setWhitelistRewardMultiplier",
      "outputs": [],
      "stateMutability": "nonpayable",
      "type": "function"
    },
    {
      "inputs": [
        {
          "internalType": "address",
          "name": "_address",
          "type": "address"
        },
        {
          "internalType": "bool",
          "name": "state",
          "type": "bool"
        }
      ],
      "name": "setWhitelistRewardRebaser",
      "outputs": [],
      "stateMutability": "nonpayable",
      "type": "function"
    },
    {
      "inputs": [
        {
          "internalType": "address",
          "name": "_address",
          "type": "address"
        },
        {
          "internalType": "int8",
          "name": "state",
          "type": "int8"
        }
      ],
      "name": "setWhitelistStakePool",
      "outputs": [],
      "stateMutability": "nonpayable",
      "type": "function"
    },
    {
      "inputs": [
        {
          "internalType": "address",
          "name": "_address",
          "type": "address"
        },
        {
          "internalType": "bool",
          "name": "state",
          "type": "bool"
        }
      ],
      "name": "setWhitelistStakingFor",
      "outputs": [],
      "stateMutability": "nonpayable",
      "type": "function"
    },
    {
      "inputs": [
        {
          "internalType": "uint256",
          "name": "",
          "type": "uint256"
        }
      ],
      "name": "stakePoolCreators",
      "outputs": [
        {
          "internalType": "address",
          "name": "",
          "type": "address"
        }
      ],
      "stateMutability": "view",
      "type": "function"
    },
    {
      "inputs": [],
      "name": "swapFactory",
      "outputs": [
        {
          "internalType": "contract IIsPair",
          "name": "",
          "type": "address"
        }
      ],
      "stateMutability": "view",
      "type": "function"
    }
  ],
  "bytecode": "0x6080604052600d805462ffffff191661010117905534801561002057600080fd5b50613f99806100306000396000f3fe608060405234801561001057600080fd5b50600436106102775760003560e01c80639c97e6a311610160578063c0f72e64116100d8578063dbabcf9a1161008c578063ea74109e11610071578063ea74109e146105b1578063f7a44111146105dd578063fd1c2fcf1461060057600080fd5b8063dbabcf9a1461058c578063e7e2686e1461059e57600080fd5b8063c4d66de8116100bd578063c4d66de81461053d578063c897776f14610550578063d671b4591461057957600080fd5b8063c0f72e64146104fe578063c415b95c1461052a57600080fd5b8063a5120bd51161012f578063ae3a60d411610114578063ae3a60d4146104b5578063af333419146104d8578063bd5b622a146104eb57600080fd5b8063a5120bd51461048f578063ab033ea9146104a257600080fd5b80639c97e6a3146104185780639ca9dd511461042b578063a3f0f60f1461043e578063a42dce801461047c57600080fd5b8063393a7484116101f357806369e15404116101c25780637944f944116101a75780637944f944146103e55780637a77c6f2146103f857806393a440eb1461040b57600080fd5b806369e15404146103c95780636b392680146103d257600080fd5b8063393a7484146103645780635aa6e675146103905780635c6e2cb7146103a3578063647846a5146103b657600080fd5b8063229436121161024a57806326de22991161022f57806326de22991461031d5780632bdef6bf146103485780632f0d5c061461035157600080fd5b806322943612146102f757806325a721091461030a57600080fd5b80631047a8571461027c57806314f62ea9146102bd57806315cce224146102cf5780631e067279146102e4575b600080fd5b6102a861028a366004611d4f565b6001600160a01b031660009081526005602052604090205460ff1690565b60405190151581526020015b60405180910390f35b600c545b6040519081526020016102b4565b6102e26102dd366004611d4f565b610613565b005b6102e26102f2366004611d81565b61072a565b6102e2610305366004611d4f565b610805565b6102e2610318366004611d81565b610a10565b61033061032b366004611dba565b610b18565b6040516001600160a01b0390911681526020016102b4565b6102c1600f5481565b6102e261035f366004611d81565b610b42565b6102a8610372366004611d4f565b6001600160a01b031660009081526006602052604090205460ff1690565b600154610330906001600160a01b031681565b6103306103b1366004611dd3565b610c4a565b600354610330906001600160a01b031681565b6102c160045481565b6102e26103e0366004611dba565b610e65565b600054610330906001600160a01b031681565b6102e2610406366004611e88565b610ef2565b600d546102a89060ff1681565b6102e2610426366004611ea5565b610f5f565b6102e2610439366004611e88565b611070565b61046961044c366004611d4f565b6001600160a01b0316600090815260096020526040812054900b90565b60405160009190910b81526020016102b4565b6102e261048a366004611d4f565b611101565b6102a861049d366004611d4f565b611213565b6102e26104b0366004611d4f565b611266565b6102a86104c3366004611d4f565b600a6020526000908152604090205460ff1681565b6102e26104e6366004611d81565b611378565b6102a86104f9366004611d4f565b611480565b6102a861050c366004611d4f565b6001600160a01b03166000908152600a602052604090205460ff1690565b600254610330906001600160a01b031681565b6102e261054b366004611d4f565b6114c5565b61033061055e366004611dba565b600b602052600090815260409020546001600160a01b031681565b6102e2610587366004611dba565b611594565b600d546102a890610100900460ff1681565b6102c16105ac366004611d4f565b611681565b6102a86105bf366004611d4f565b6001600160a01b03166000908152600e602052604090205460ff1690565b6102a86105eb366004611d4f565b600e6020526000908152604090205460ff1681565b6102e261060e366004611d81565b611733565b6001546001600160a01b031633146106725760405162461bcd60e51b815260206004820152601060248201527f5350433a2021676f7665726e616e63650000000000000000000000000000000060448201526064015b60405180910390fd5b6001600160a01b0381166106c85760405162461bcd60e51b815260206004820152601360248201527f5350433a20696e76616c6964205f746f6b656e000000000000000000000000006044820152606401610669565b600380547fffffffffffffffffffffffff0000000000000000000000000000000000000000166001600160a01b0383169081179091556040517f0842bcbb92ca6d47ae89816778a843992dff9b876fad009865e1c5df73d46d1f90600090a250565b6001546001600160a01b031633146107845760405162461bcd60e51b815260206004820152601060248201527f5350433a2021676f7665726e616e6365000000000000000000000000000000006044820152606401610669565b6001600160a01b0382166107da5760405162461bcd60e51b815260206004820152601460248201527f5350433a20696e76616c696420616464726573730000000000000000000000006044820152606401610669565b6001600160a01b03919091166000908152600e60205260409020805460ff1916911515919091179055565b6001546001600160a01b0316331461085f5760405162461bcd60e51b815260206004820152601060248201527f5350433a2021676f7665726e616e6365000000000000000000000000000000006044820152606401610669565b6001600160a01b0381166108b55760405162461bcd60e51b815260206004820152601460248201527f5350433a20696e76616c696420616464726573730000000000000000000000006044820152606401610669565b6000816001600160a01b03166354fd4d506040518163ffffffff1660e01b81526004016020604051808303816000875af11580156108f7573d6000803e3d6000fd5b505050506040513d601f19601f8201168201806040525081019061091b9190611eda565b90506103e88110156109955760405162461bcd60e51b815260206004820152602260248201527f496e76616c6964207374616b6520706f6f6c2063726561746f7220766572736960448201527f6f6e0000000000000000000000000000000000000000000000000000000000006064820152608401610669565b6000818152600b602090815260409182902080547fffffffffffffffffffffffff0000000000000000000000000000000000000000166001600160a01b03861690811790915591518381527f6a6096f5ac532df663ae3f06ab81f92e13e1963316c9e53ada5caa47c39ca73f91015b60405180910390a25050565b6001546001600160a01b03163314610a6a5760405162461bcd60e51b815260206004820152601060248201527f5350433a2021676f7665726e616e6365000000000000000000000000000000006044820152606401610669565b6001600160a01b038216610ac05760405162461bcd60e51b815260206004820152601460248201527f5350433a20696e76616c696420616464726573730000000000000000000000006044820152606401610669565b6001600160a01b0382166000818152600a6020908152604091829020805460ff191685151590811790915591519182527f77c59d7fc4aa81269ea7c0f6866e520725269f9b20b66f81acfd1305a203163c9101610a04565b600c8181548110610b2857600080fd5b6000918252602090912001546001600160a01b0316905081565b6001546001600160a01b03163314610b9c5760405162461bcd60e51b815260206004820152601060248201527f5350433a2021676f7665726e616e6365000000000000000000000000000000006044820152606401610669565b6001600160a01b038216610bf25760405162461bcd60e51b815260206004820152601460248201527f5350433a20696e76616c696420616464726573730000000000000000000000006044820152606401610669565b6001600160a01b038216600081815260066020908152604091829020805460ff191685151590811790915591519182527f3b916f9f58a666ff1fee02f431340754e5bb74df23e21fc542ca42cbd06219279101610a04565b6000878152600b60205260408120546001600160a01b031680610cd55760405162461bcd60e51b815260206004820152602760248201527f5350433a20496e76616c6964207374616b6520706f6f6c2063726561746f722060448201527f76657273696f6e000000000000000000000000000000000000000000000000006064820152608401610669565b6000610ce089611681565b6002549091506001600160a01b031615801590610d0757506003546001600160a01b031615155b8015610d135750600081115b15610d3757600354600254610d37916001600160a01b03908116913391168461183b565b6000604051610d4590611d1d565b604051809103906000f080158015610d61573d6000803e3d6000fd5b5090508715610e47576040517f70a0823100000000000000000000000000000000000000000000000000000000815233600482015288906001600160a01b038b16906370a0823190602401602060405180830381865afa158015610dc9573d6000803e3d6000fd5b505050506040513d601f19601f82011682018060405250810190610ded9190611eda565b1015610e3b5760405162461bcd60e51b815260206004820181905260248201527f5350433a204e6f7420656e6f7567682072657761726446756e64416d6f756e746044820152606401610669565b610e478933838b61183b565b610e56838b838c8b8b8b6119b2565b9b9a5050505050505050505050565b6001546001600160a01b03163314610ebf5760405162461bcd60e51b815260206004820152601060248201527f5350433a2021676f7665726e616e6365000000000000000000000000000000006044820152606401610669565b600481905560405181907fd854f702b4e23ab27557a75b5b4e72066f8ab6929930f813720339c72eaa8b6390600090a250565b6001546001600160a01b03163314610f4c5760405162461bcd60e51b815260206004820152601060248201527f5350433a2021676f7665726e616e6365000000000000000000000000000000006044820152606401610669565b600d805460ff1916911515919091179055565b6001600160a01b038216610fb55760405162461bcd60e51b815260206004820152601460248201527f5350433a20696e76616c696420616464726573730000000000000000000000006044820152606401610669565b336000908152600a602052604090205460ff1615156001146110195760405162461bcd60e51b815260206004820181905260248201527f5350433a20696e76616c6964207374616b6520706f6f6c2076657269666965726044820152606401610669565b6001600160a01b0382166000818152600960209081526040808320805460ff191660ff8716179055519184900b82527ff612269986bc6d299c312815bdab8f8f9f01ba9047885463a0fe56f5a4d01f419101610a04565b6001546001600160a01b031633146110ca5760405162461bcd60e51b815260206004820152601060248201527f5350433a2021676f7665726e616e6365000000000000000000000000000000006044820152606401610669565b600d8054911515610100027fffffffffffffffffffffffffffffffffffffffffffffffffffffffffffff00ff909216919091179055565b6001546001600160a01b0316331461115b5760405162461bcd60e51b815260206004820152601060248201527f5350433a2021676f7665726e616e6365000000000000000000000000000000006044820152606401610669565b6001600160a01b0381166111b15760405162461bcd60e51b815260206004820152601460248201527f5350433a20696e76616c696420616464726573730000000000000000000000006044820152606401610669565b600280547fffffffffffffffffffffffff0000000000000000000000000000000000000000166001600160a01b0383169081179091556040517fd649da8f6092116f86ea4e5139de0b75ad371d823918d16368ba3ff09a5cbc9f90600090a250565b600d54600090610100900460ff1661122d57506001919050565b6001600160a01b0382161561125d576001600160a01b03821660009081526008602052604090205460ff16611260565b60015b92915050565b6001546001600160a01b031633146112c05760405162461bcd60e51b815260206004820152601060248201527f5350433a2021676f7665726e616e6365000000000000000000000000000000006044820152606401610669565b6001600160a01b0381166113165760405162461bcd60e51b815260206004820152601760248201527f5350433a20696e76616c696420676f7665726e616e63650000000000000000006044820152606401610669565b600180547fffffffffffffffffffffffff0000000000000000000000000000000000000000166001600160a01b0383169081179091556040517f13079bd259b6c430f434e223f09ff073409b818146629085e53378cf536d3ce890600090a250565b6001546001600160a01b031633146113d25760405162461bcd60e51b815260206004820152601060248201527f5350433a2021676f7665726e616e6365000000000000000000000000000000006044820152606401610669565b6001600160a01b0382166114285760405162461bcd60e51b815260206004820152601460248201527f5350433a20696e76616c696420616464726573730000000000000000000000006044820152606401610669565b6001600160a01b038216600081815260076020908152604091829020805460ff191685151590811790915591519182527f5edfdd2e2097af35bace0d40492d5f9f03cf3bd715261fde4ee191e9207d72e29101610a04565b600d5460009060ff1661149557506001919050565b6001600160a01b0382161561125d576001600160a01b03821660009081526007602052604090205460ff16611260565b600d5462010000900460ff161561151e5760405162461bcd60e51b815260206004820152601060248201527f5350433a20696e697469616c697a6564000000000000000000000000000000006044820152606401610669565b600180547fffffffffffffffffffffffff00000000000000000000000000000000000000009081163317909155600080546001600160a01b039390931692909116919091179055600d80547fffffffffffffffffffffffffffffffffffffffffffffffffffffffffff00ffff1662010000179055565b6001546001600160a01b031633146115ee5760405162461bcd60e51b815260206004820152601060248201527f5350433a2021676f7665726e616e6365000000000000000000000000000000006044820152606401610669565b6103e88110158015611602575061c3508111155b61164e5760405162461bcd60e51b815260206004820152601a60248201527f5350433a20696e76616c6964205f6578747261466565526174650000000000006044820152606401610669565b600f81905560405181907faddb414e6e07b38602cd55188972aef90aaa93ae3ef76e115ccfa0fccce3225b90600090a250565b600080546040517fe5e31b130000000000000000000000000000000000000000000000000000000081526001600160a01b0384811660048301529091169063e5e31b1390602401602060405180830381865afa1580156116e5573d6000803e3d6000fd5b505050506040513d601f19601f820116820180604052508101906117099190611ef3565b1561171657505060045490565b6103e8600f546004546117299190611f10565b6112609190611f74565b6001546001600160a01b0316331461178d5760405162461bcd60e51b815260206004820152601060248201527f5350433a2021676f7665726e616e6365000000000000000000000000000000006044820152606401610669565b6001600160a01b0382166117e35760405162461bcd60e51b815260206004820152601460248201527f5350433a20696e76616c696420616464726573730000000000000000000000006044820152606401610669565b6001600160a01b038216600081815260086020908152604091829020805460ff191685151590811790915591519182527f4c41ad10dd097dc116b8169ab8fe174c349e1890aceee2cd9eaaba320ee543d19101610a04565b604080516001600160a01b0385811660248301528481166044830152606480830185905283518084039091018152608490920183526020820180517bffffffffffffffffffffffffffffffffffffffffffffffffffffffff167f23b872dd0000000000000000000000000000000000000000000000000000000017905291516000928392908816916118cd9190611faf565b6000604051808303816000865af19150503d806000811461190a576040519150601f19603f3d011682016040523d82523d6000602084013e61190f565b606091505b50915091508180156119395750805115806119395750808060200190518101906119399190611ef3565b6119aa5760405162461bcd60e51b8152602060048201526024808201527f5472616e7366657248656c7065723a205452414e534645525f46524f4d5f464160448201527f494c4544000000000000000000000000000000000000000000000000000000006064820152608401610669565b505050505050565b6000806040516119c190611d2a565b604051809103906000f0801580156119dd573d6000803e3d6000fd5b5090506000896001600160a01b031663efc81a8c6040518163ffffffff1660e01b81526004016020604051808303816000875af1158015611a22573d6000803e3d6000fd5b505050506040513d601f19601f82011682018060405250810190611a469190611fea565b600c805460018082019092557fdf6966c971051c3d54ec59162606531493a51404a002842f56009d7e5cf4a8c70180547fffffffffffffffffffffffff0000000000000000000000000000000000000000166001600160a01b03848116918217909255600081815260056020908152604091829020805460ff191690951790945580517f54fd4d500000000000000000000000000000000000000000000000000000000081529051949550918d169390927f093fc7d12adac15861090201060d4995cb324c50b86da4e418eb3553c056dc169284926354fd4d50926004808401939192918290030181865afa158015611b43573d6000803e3d6000fd5b505050506040513d601f19601f82011682018060405250810190611b679190611eda565b600c54604080519283526001600160a01b0380891660208501528e1690830152606082015260800160405180910390a36040517f01f79fb60000000000000000000000000000000000000000000000000000000081526001600160a01b038b16906301f79fb690611be89084908d908c9088908f908d908d90600401612007565b600060405180830381600087803b158015611c0257600080fd5b505af1158015611c16573d6000803e3d6000fd5b50506040517f485cc9550000000000000000000000000000000000000000000000000000000081526001600160a01b03848116600483015285811660248301528b16925063485cc9559150604401600060405180830381600087803b158015611c7e57600080fd5b505af1158015611c92573d6000803e3d6000fd5b50506040517fcd6dc687000000000000000000000000000000000000000000000000000000008152336004820152602481018990526001600160a01b038516925063cd6dc6879150604401600060405180830381600087803b158015611cf757600080fd5b505af1158015611d0b573d6000803e3d6000fd5b50929c9b505050505050505050505050565b6108688061208e83390190565b61166e806128f683390190565b6001600160a01b0381168114611d4c57600080fd5b50565b600060208284031215611d6157600080fd5b8135611d6c81611d37565b9392505050565b8015158114611d4c57600080fd5b60008060408385031215611d9457600080fd5b8235611d9f81611d37565b91506020830135611daf81611d73565b809150509250929050565b600060208284031215611dcc57600080fd5b5035919050565b600080600080600080600060c0888a031215611dee57600080fd5b873596506020880135611e0081611d37565b95506040880135611e1081611d37565b9450606088013593506080880135925060a088013567ffffffffffffffff80821115611e3b57600080fd5b818a0191508a601f830112611e4f57600080fd5b813581811115611e5e57600080fd5b8b6020828501011115611e7057600080fd5b60208301945080935050505092959891949750929550565b600060208284031215611e9a57600080fd5b8135611d6c81611d73565b60008060408385031215611eb857600080fd5b8235611ec381611d37565b91506020830135600081900b8114611daf57600080fd5b600060208284031215611eec57600080fd5b5051919050565b600060208284031215611f0557600080fd5b8151611d6c81611d73565b6000817fffffffffffffffffffffffffffffffffffffffffffffffffffffffffffffffff0483118215151615611f6f577f4e487b7100000000000000000000000000000000000000000000000000000000600052601160045260246000fd5b500290565b600082611faa577f4e487b7100000000000000000000000000000000000000000000000000000000600052601260045260246000fd5b500490565b6000825160005b81811015611fd05760208186018101518583015201611fb6565b81811115611fdf576000828501525b509190910192915050565b600060208284031215611ffc57600080fd5b8151611d6c81611d37565b60006001600160a01b03808a16835280891660208401528088166040840152808716606084015280861660808401525060c060a08301528260c0830152828460e0840137600060e0848401015260e07fffffffffffffffffffffffffffffffffffffffffffffffffffffffffffffffe0601f85011683010190509897505050505050505056fe608060405234801561001057600080fd5b50610848806100206000396000f3fe608060405234801561001057600080fd5b506004361061007d5760003560e01c8063afb9d3ca1161005b578063afb9d3ca146100d2578063d1660f99146100e5578063d33219b4146100f8578063f8ea47561461013d57600080fd5b80630c612694146100825780633468a5b814610097578063485cc955146100bf575b600080fd5b61009561009036600461070b565b61015d565b005b6100aa6100a5366004610747565b610288565b60405190151581526020015b60405180910390f35b6100956100cd366004610769565b610323565b6100956100e0366004610769565b610457565b6100956100f336600461070b565b6104f1565b6001546101189073ffffffffffffffffffffffffffffffffffffffff1681565b60405173ffffffffffffffffffffffffffffffffffffffff90911681526020016100b6565b6000546101189073ffffffffffffffffffffffffffffffffffffffff1681565b60015473ffffffffffffffffffffffffffffffffffffffff1633146101e3576040517f08c379a000000000000000000000000000000000000000000000000000000000815260206004820152601e60248201527f5374616b65506f6f6c52657761726446756e643a202174696d656c6f636b000060448201526064015b60405180910390fd5b6101ec83610288565b610278576040517f08c379a000000000000000000000000000000000000000000000000000000000815260206004820152603360248201527f5374616b65506f6f6c52657761726446756e643a206e6f7420616c6c6f77207260448201527f65636f7665722072657761726420746f6b656e0000000000000000000000000060648201526084016101da565b610283838383610572565b505050565b600080546040517f3468a5b800000000000000000000000000000000000000000000000000000000815273ffffffffffffffffffffffffffffffffffffffff848116600483015290911690633468a5b890602401602060405180830381865afa1580156102f9573d6000803e3d6000fd5b505050506040513d601f19601f8201168201806040525081019061031d919061079c565b92915050565b60015474010000000000000000000000000000000000000000900460ff16156103ce576040517f08c379a000000000000000000000000000000000000000000000000000000000815260206004820152602860248201527f5374616b65506f6f6c52657761726446756e643a20616c726561647920696e6960448201527f7469616c697a656400000000000000000000000000000000000000000000000060648201526084016101da565b6000805473ffffffffffffffffffffffffffffffffffffffff9384167fffffffffffffffffffffffff0000000000000000000000000000000000000000909116179055600180547fffffffffffffffffffffff00000000000000000000000000000000000000000016919092161774010000000000000000000000000000000000000000179055565b6040517f70a082310000000000000000000000000000000000000000000000000000000081523060048201526104ed908390839073ffffffffffffffffffffffffffffffffffffffff8316906370a0823190602401602060405180830381865afa1580156104c9573d6000803e3d6000fd5b505050506040513d601f19601f8201168201806040525081019061009091906107be565b5050565b60005473ffffffffffffffffffffffffffffffffffffffff163314610278576040517f08c379a000000000000000000000000000000000000000000000000000000000815260206004820152601f60248201527f5374616b65506f6f6c52657761726446756e643a20217374616b65506f6f6c0060448201526064016101da565b6040805173ffffffffffffffffffffffffffffffffffffffff8481166024830152604480830185905283518084039091018152606490920183526020820180517bffffffffffffffffffffffffffffffffffffffffffffffffffffffff167fa9059cbb00000000000000000000000000000000000000000000000000000000179052915160009283929087169161060991906107d7565b6000604051808303816000865af19150503d8060008114610646576040519150601f19603f3d011682016040523d82523d6000602084013e61064b565b606091505b5091509150818015610675575080511580610675575080806020019051810190610675919061079c565b6106db576040517f08c379a000000000000000000000000000000000000000000000000000000000815260206004820152601f60248201527f5472616e7366657248656c7065723a205452414e534645525f4641494c45440060448201526064016101da565b5050505050565b803573ffffffffffffffffffffffffffffffffffffffff8116811461070657600080fd5b919050565b60008060006060848603121561072057600080fd5b610729846106e2565b9250610737602085016106e2565b9150604084013590509250925092565b60006020828403121561075957600080fd5b610762826106e2565b9392505050565b6000806040838503121561077c57600080fd5b610785836106e2565b9150610793602084016106e2565b90509250929050565b6000602082840312156107ae57600080fd5b8151801515811461076257600080fd5b6000602082840312156107d057600080fd5b5051919050565b6000825160005b818110156107f857602081860181015185830152016107de565b81811115610807576000828501525b50919091019291505056fea2646970667358221220bd6e1e16c42fe16d41487b353d8755e671c1f3aafa541bf71b0fd55eeaa9984364736f6c634300080a0033608060405234801561001057600080fd5b506003805460ff19908116909155600080549091169055611638806100366000396000f3fe6080604052600436106100ec5760003560e01c80636fc1f57e1161008a578063cd6dc68711610059578063cd6dc6871461027d578063e177246e1461029d578063f2b06537146102bd578063f851a440146102ed57600080fd5b80636fc1f57e1461020e5780637d645fab14610238578063b1b43ae51461024f578063c1a287e21461026657600080fd5b80633a66f901116100c65780633a66f9011461018a5780634dd18bf5146101b8578063591fcdfe146101d85780636a42b8f8146101f857600080fd5b80630825f38f146100f85780630e18b68114610121578063267822471461013857600080fd5b366100f357005b600080fd5b61010b61010636600461132c565b61031f565b6040516101189190611457565b60405180910390f35b34801561012d57600080fd5b50610136610762565b005b34801561014457600080fd5b506001546101659073ffffffffffffffffffffffffffffffffffffffff1681565b60405173ffffffffffffffffffffffffffffffffffffffff9091168152602001610118565b34801561019657600080fd5b506101aa6101a536600461132c565b61088e565b604051908152602001610118565b3480156101c457600080fd5b506101366101d336600461146a565b610ab7565b3480156101e457600080fd5b506101366101f336600461132c565b610c69565b34801561020457600080fd5b506101aa60025481565b34801561021a57600080fd5b506003546102289060ff1681565b6040519015158152602001610118565b34801561024457600080fd5b506101aa62278d0081565b34801561025b57600080fd5b506101aa6201518081565b34801561027257600080fd5b506101aa6212750081565b34801561028957600080fd5b50610136610298366004611485565b610dde565b3480156102a957600080fd5b506101366102b83660046114af565b61101d565b3480156102c957600080fd5b506102286102d83660046114af565b60046020526000908152604090205460ff1681565b3480156102f957600080fd5b5060005461016590610100900473ffffffffffffffffffffffffffffffffffffffff1681565b600054606090610100900473ffffffffffffffffffffffffffffffffffffffff1633146103b95760405162461bcd60e51b815260206004820152603860248201527f54696d656c6f636b3a3a657865637574655472616e73616374696f6e3a20436160448201527f6c6c206d75737420636f6d652066726f6d2061646d696e2e000000000000000060648201526084015b60405180910390fd5b600086868686866040516020016103d49594939291906114c8565b604080517fffffffffffffffffffffffffffffffffffffffffffffffffffffffffffffffe081840301815291815281516020928301206000818152600490935291205490915060ff1661048f5760405162461bcd60e51b815260206004820152603d60248201527f54696d656c6f636b3a3a657865637574655472616e73616374696f6e3a20547260448201527f616e73616374696f6e206861736e2774206265656e207175657565642e00000060648201526084016103b0565b8242101561052b5760405162461bcd60e51b815260206004820152604560248201527f54696d656c6f636b3a3a657865637574655472616e73616374696f6e3a20547260448201527f616e73616374696f6e206861736e2774207375727061737365642074696d652060648201527f6c6f636b2e000000000000000000000000000000000000000000000000000000608482015260a4016103b0565b61053883621275006111b7565b4211156105ad5760405162461bcd60e51b815260206004820152603360248201527f54696d656c6f636b3a3a657865637574655472616e73616374696f6e3a20547260448201527f616e73616374696f6e206973207374616c652e0000000000000000000000000060648201526084016103b0565b600081815260046020526040902080547fffffffffffffffffffffffffffffffffffffffffffffffffffffffffffffff0016905584516060906105f157508361061d565b85805190602001208560405160200161060b929190611522565b60405160208183030381529060405290505b6000808973ffffffffffffffffffffffffffffffffffffffff168984604051610646919061156a565b60006040518083038185875af1925050503d8060008114610683576040519150601f19603f3d011682016040523d82523d6000602084013e610688565b606091505b5091509150816107005760405162461bcd60e51b815260206004820152603d60248201527f54696d656c6f636b3a3a657865637574655472616e73616374696f6e3a20547260448201527f616e73616374696f6e20657865637574696f6e2072657665727465642e00000060648201526084016103b0565b8973ffffffffffffffffffffffffffffffffffffffff16847fa560e3198060a2f10670c1ec5b403077ea6ae93ca8de1c32b451dc1a943cd6e78b8b8b8b60405161074d9493929190611586565b60405180910390a39998505050505050505050565b60015473ffffffffffffffffffffffffffffffffffffffff1633146107ef5760405162461bcd60e51b815260206004820152603860248201527f54696d656c6f636b3a3a61636365707441646d696e3a2043616c6c206d75737460448201527f20636f6d652066726f6d2070656e64696e6741646d696e2e000000000000000060648201526084016103b0565b600080546101003381027fffffffffffffffffffffff0000000000000000000000000000000000000000ff90921691909117808355600180547fffffffffffffffffffffffff000000000000000000000000000000000000000016905560405191900473ffffffffffffffffffffffffffffffffffffffff16917f71614071b88dee5e0b2ae578a9dd7b2ebbe9ae832ba419dc0242cd065a290b6c91a2565b60008054610100900473ffffffffffffffffffffffffffffffffffffffff1633146109215760405162461bcd60e51b815260206004820152603660248201527f54696d656c6f636b3a3a71756575655472616e73616374696f6e3a2043616c6c60448201527f206d75737420636f6d652066726f6d2061646d696e2e0000000000000000000060648201526084016103b0565b61093460025461092e4290565b906111b7565b8210156109cf5760405162461bcd60e51b815260206004820152604960248201527f54696d656c6f636b3a3a71756575655472616e73616374696f6e3a204573746960448201527f6d6174656420657865637574696f6e20626c6f636b206d75737420736174697360648201527f66792064656c61792e0000000000000000000000000000000000000000000000608482015260a4016103b0565b600086868686866040516020016109ea9594939291906114c8565b604080517fffffffffffffffffffffffffffffffffffffffffffffffffffffffffffffffe081840301815282825280516020918201206000818152600490925291902080547fffffffffffffffffffffffffffffffffffffffffffffffffffffffffffffff00166001179055915073ffffffffffffffffffffffffffffffffffffffff88169082907f76e2796dc3a81d57b0e8504b647febcbeeb5f4af818e164f11eef8131a6a763f90610aa5908a908a908a908a90611586565b60405180910390a39695505050505050565b60035460ff1615610b3c57333014610b375760405162461bcd60e51b815260206004820152603860248201527f54696d656c6f636b3a3a73657450656e64696e6741646d696e3a2043616c6c2060448201527f6d75737420636f6d652066726f6d2054696d656c6f636b2e000000000000000060648201526084016103b0565b610bfa565b600054610100900473ffffffffffffffffffffffffffffffffffffffff163314610bce5760405162461bcd60e51b815260206004820152603b60248201527f54696d656c6f636b3a3a73657450656e64696e6741646d696e3a20466972737460448201527f2063616c6c206d75737420636f6d652066726f6d2061646d696e2e000000000060648201526084016103b0565b600380547fffffffffffffffffffffffffffffffffffffffffffffffffffffffffffffff001660011790555b600180547fffffffffffffffffffffffff00000000000000000000000000000000000000001673ffffffffffffffffffffffffffffffffffffffff83169081179091556040517f69d78e38a01985fbb1462961809b4b2d65531bc93b2b94037f3334b82ca4a75690600090a250565b600054610100900473ffffffffffffffffffffffffffffffffffffffff163314610cfb5760405162461bcd60e51b815260206004820152603760248201527f54696d656c6f636b3a3a63616e63656c5472616e73616374696f6e3a2043616c60448201527f6c206d75737420636f6d652066726f6d2061646d696e2e00000000000000000060648201526084016103b0565b60008585858585604051602001610d169594939291906114c8565b604080517fffffffffffffffffffffffffffffffffffffffffffffffffffffffffffffffe081840301815282825280516020918201206000818152600490925291902080547fffffffffffffffffffffffffffffffffffffffffffffffffffffffffffffff00169055915073ffffffffffffffffffffffffffffffffffffffff87169082907f2fffc091a501fd91bfbff27141450d3acb40fb8e6d8382b243ec7a812a3aaf8790610dce908990899089908990611586565b60405180910390a3505050505050565b60005460ff1615610e575760405162461bcd60e51b815260206004820152603160248201527f54696d656c6f636b3a3a636f6e7374727563746f723a20496e697469616c697a60448201527f6564206d7573742062652066616c73652e00000000000000000000000000000060648201526084016103b0565b62015180811015610ed05760405162461bcd60e51b815260206004820152603460248201527f54696d656c6f636b3a3a73657444656c61793a2044656c6179206d757374206560448201527f7863656564206d696e696d756d2064656c61792e00000000000000000000000060648201526084016103b0565b62278d00811115610f495760405162461bcd60e51b815260206004820152603860248201527f54696d656c6f636b3a3a73657444656c61793a2044656c6179206d757374206e60448201527f6f7420657863656564206d6178696d756d2064656c61792e000000000000000060648201526084016103b0565b60028190556000805460017fffffffffffffffffffffff00000000000000000000000000000000000000000090911661010073ffffffffffffffffffffffffffffffffffffffff86811682027fffffffffffffffffffffffffffffffffffffffffffffffffffffffffffffff0016929092179290921780845560405192900416917f71614071b88dee5e0b2ae578a9dd7b2ebbe9ae832ba419dc0242cd065a290b6c91a26002546040517f948b1f6a42ee138b7e34058ba85a37f716d55ff25ff05a763f15bed6a04c8d2c90600090a25050565b3330146110925760405162461bcd60e51b815260206004820152603160248201527f54696d656c6f636b3a3a73657444656c61793a2043616c6c206d75737420636f60448201527f6d652066726f6d2054696d656c6f636b2e00000000000000000000000000000060648201526084016103b0565b6201518081101561110b5760405162461bcd60e51b815260206004820152603460248201527f54696d656c6f636b3a3a73657444656c61793a2044656c6179206d757374206560448201527f7863656564206d696e696d756d2064656c61792e00000000000000000000000060648201526084016103b0565b62278d008111156111845760405162461bcd60e51b815260206004820152603860248201527f54696d656c6f636b3a3a73657444656c61793a2044656c6179206d757374206e60448201527f6f7420657863656564206d6178696d756d2064656c61792e000000000000000060648201526084016103b0565b600281905560405181907f948b1f6a42ee138b7e34058ba85a37f716d55ff25ff05a763f15bed6a04c8d2c90600090a250565b6000806111c483856115c3565b90506111d48482101560006111db565b9392505050565b816111e9576111e9816111ed565b5050565b62461bcd60e51b6000908152602060045260076024526652455123000030600a808404818106603090810160081b95839006959095019082900491820690940160101b939093010160c81b604452606490fd5b803573ffffffffffffffffffffffffffffffffffffffff8116811461126457600080fd5b919050565b7f4e487b7100000000000000000000000000000000000000000000000000000000600052604160045260246000fd5b600067ffffffffffffffff808411156112b3576112b3611269565b604051601f85017fffffffffffffffffffffffffffffffffffffffffffffffffffffffffffffffe0908116603f011681019082821181831017156112f9576112f9611269565b8160405280935085815286868601111561131257600080fd5b858560208301376000602087830101525050509392505050565b600080600080600060a0868803121561134457600080fd5b61134d86611240565b945060208601359350604086013567ffffffffffffffff8082111561137157600080fd5b818801915088601f83011261138557600080fd5b61139489833560208501611298565b945060608801359150808211156113aa57600080fd5b508601601f810188136113bc57600080fd5b6113cb88823560208401611298565b95989497509295608001359392505050565b60005b838110156113f85781810151838201526020016113e0565b83811115611407576000848401525b50505050565b600081518084526114258160208601602086016113dd565b601f017fffffffffffffffffffffffffffffffffffffffffffffffffffffffffffffffe0169290920160200192915050565b6020815260006111d4602083018461140d565b60006020828403121561147c57600080fd5b6111d482611240565b6000806040838503121561149857600080fd5b6114a183611240565b946020939093013593505050565b6000602082840312156114c157600080fd5b5035919050565b73ffffffffffffffffffffffffffffffffffffffff8616815284602082015260a0604082015260006114fd60a083018661140d565b828103606084015261150f818661140d565b9150508260808301529695505050505050565b7fffffffff00000000000000000000000000000000000000000000000000000000831681526000825161155c8160048501602087016113dd565b919091016004019392505050565b6000825161157c8184602087016113dd565b9190910192915050565b84815260806020820152600061159f608083018661140d565b82810360408401526115b1818661140d565b91505082606083015295945050505050565b600082198211156115fd577f4e487b7100000000000000000000000000000000000000000000000000000000600052601160045260246000fd5b50019056fea26469706673582212200eb959a28a5cf29432ee396bb0217effff5766bf86cb953ad0e1a13c9820c88f64736f6c634300080a0033a2646970667358221220d3e6f11291c71b3e23671879c8d417bf08fa83c5749f3416934716e08cf41cf564736f6c634300080a0033",
  "linkReferences": {},
  "deployedLinkReferences": {}
}